{"contracts/UserRegistry.sol":{"AgentRegistryOLD":{"abi":[{"anonymous":false,"inputs":[{"indexed":true,"internalType":"address","name":"agent","type":"address"},{"components":[{"internalType":"address","name":"agent","type":"address"},{"internalType":"string","name":"platform","type":"string"},{"internalType":"uint256","name":"price","type":"uint256"},{"internalType":"string","name":"location","type":"string"},{"internalType":"string","name":"avatar","type":"string"},{"internalType":"string","name":"description","type":"string"}],"indexed":false,"internalType":"struct AgentRegistryOLD.AgentProfile","name":"profile","type":"tuple"}],"name":"AgentProfileUpdated","type":"event"},{"anonymous":false,"inputs":[{"indexed":true,"internalType":"address","name":"agent","type":"address"}],"name":"Registered","type":"event"},{"inputs":[{"internalType":"uint256","name":"","type":"uint256"}],"name":"agentList","outputs":[{"internalType":"address","name":"","type":"address"}],"stateMutability":"view","type":"function"},{"inputs":[{"internalType":"address","name":"","type":"address"}],"name":"agents","outputs":[{"internalType":"address","name":"agent","type":"address"},{"internalType":"string","name":"platform","type":"string"},{"internalType":"uint256","name":"price","type":"uint256"},{"internalType":"string","name":"location","type":"string"},{"internalType":"string","name":"avatar","type":"string"},{"internalType":"string","name":"description","type":"string"}],"stateMutability":"view","type":"function"},{"inputs":[{"internalType":"address","name":"agent","type":"address"}],"name":"getAgentProfile","outputs":[{"components":[{"internalType":"address","name":"agent","type":"address"},{"internalType":"string","name":"platform","type":"string"},{"internalType":"uint256","name":"price","type":"uint256"},{"internalType":"string","name":"location","type":"string"},{"internalType":"string","name":"avatar","type":"string"},{"internalType":"string","name":"description","type":"string"}],"internalType":"struct AgentRegistryOLD.AgentProfile","name":"","type":"tuple"}],"stateMutability":"view","type":"function"},{"inputs":[{"internalType":"string","name":"platform","type":"string"},{"internalType":"uint256","name":"price","type":"uint256"},{"internalType":"string","name":"location","type":"string"},{"internalType":"string","name":"avatar","type":"string"},{"internalType":"string","name":"description","type":"string"}],"name":"registerAsAgent","outputs":[],"stateMutability":"nonpayable","type":"function"},{"inputs":[{"internalType":"string","name":"platform","type":"string"},{"internalType":"uint256","name":"price","type":"uint256"},{"internalType":"string","name":"location","type":"string"},{"internalType":"string","name":"avatar","type":"string"},{"internalType":"string","name":"description","type":"string"}],"name":"updateAgentProfile","outputs":[],"stateMutability":"nonpayable","type":"function"}],"evm":{"assembly":"// RO data = 0/0 bytes\n// RW data = 88/65680 bytes\n// Stack size = 32768 bytes\n\n// Instructions = 11414\n// Code size = 40054 bytes\n\n      : @0 (gas: 1)\n     0: jump @14 if a0 == a1\n      : @1 (gas: 9)\n     3: a3 = a1 << 0x20\n     6: a3 = a3 >> 0x20\n     9: a4 = a0 << 0x20\n    12: a4 = a4 >> 0x20\n    15: a4 = a4 + a2\n    18: a3 = a3 - a4\n    21: a4 = a2 << 0x1\n    24: a4 = -a4\n    26: jump @7 if a4 >=u a3\n      : @2 (gas: 1)\n    29: jump @11 if a0 >=u a1\n      : @3 (gas: 1)\n    32: jump @14 if a2 == 0\n      : @4 (gas: 3)\n    35: a2 = a2 + a0\n    38: a3 = a0\n    40: fallthrough\n      : @5 (gas: 6)\n    41: a4 = u8 [a1]\n    43: a1 = a1 + 0x1\n    46: a5 = a3 + 0x1\n    49: u8 [a3] = a4\n    51: a3 = a5\n    53: jump @5 if a5 != a2\n      : @6 (gas: 1)\n    56: jump @14\n      : @7 (gas: 1)\n    58: jump @14 if a2 == 0\n      : @8 (gas: 3)\n    61: a2 = a2 + a0\n    64: a3 = a0\n    66: fallthrough\n      : @9 (gas: 6)\n    67: a4 = u8 [a1]\n    69: a1 = a1 + 0x1\n    72: a5 = a3 + 0x1\n    75: u8 [a3] = a4\n    77: a3 = a5\n    79: jump @9 if a5 != a2\n      : @10 (gas: 1)\n    82: jump @14\n      : @11 (gas: 1)\n    84: jump @14 if a2 == 0\n      : @12 (gas: 2)\n    87: i32 a3 = a2 + 0xffffffffffffffff\n    90: fallthrough\n      : @13 (gas: 7)\n    91: a4 = a1 + a3\n    94: a4 = u8 [a4]\n    96: a2 = a2 + 0xffffffffffffffff\n    99: a5 = a0 + a3\n   102: u8 [a5] = a4\n   104: i32 a3 = a3 + 0xffffffffffffffff\n   107: jump @13 if a2 != 0\n      : @14 (gas: 1)\n   110: ret\n      : @15 (gas: 2)\n   112: a1 = i32 [0x20060]\n   117: jump @43 if a1 == 0\n      : @16 (gas: 4)\n   121: a0 = 0x30090\n   126: i32 a0 = a0 + 0\n   128: ecalli 8 // 'set_immutable_data'\n   130: jump @43\n      : @17 (gas: 8)\n   133: sp = sp + 0xfffffffffffffff0\n   136: u64 [sp + 0x8] = ra\n   139: u64 [sp] = s0\n   141: a2 = a1\n   143: s0 = a0\n   145: a1 = 0x20\n   148: a0 = a2\n   150: ra = 2, jump @26\n      : @18 [@dyn 1] (gas: 100)\n   155: a1 = u8 [a0 + 0x1]\n   158: a2 = u8 [a0]\n   160: a3 = u8 [a0 + 0x2]\n   163: a4 = u8 [a0 + 0x3]\n   166: a1 = a1 << 0x8\n   169: a1 = a1 | a2\n   172: a3 = a3 << 0x10\n   175: a4 = a4 << 0x18\n   178: a3 = a3 | a4\n   181: a1 = a1 | a3\n   184: a2 = u8 [a0 + 0x5]\n   187: a3 = u8 [a0 + 0x4]\n   190: a4 = u8 [a0 + 0x6]\n   193: a5 = u8 [a0 + 0x7]\n   196: a2 = a2 << 0x8\n   199: a2 = a2 | a3\n   202: a4 = a4 << 0x10\n   205: a5 = a5 << 0x18\n   208: a4 = a4 | a5\n   211: a2 = a2 | a4\n   214: a2 = a2 << 0x20\n   217: t0 = a2 | a1\n   220: a2 = u8 [a0 + 0x9]\n   223: a3 = u8 [a0 + 0x8]\n   226: a4 = u8 [a0 + 0xa]\n   229: a5 = u8 [a0 + 0xb]\n   232: a2 = a2 << 0x8\n   235: a2 = a2 | a3\n   238: a4 = a4 << 0x10\n   241: a5 = a5 << 0x18\n   244: a4 = a4 | a5\n   247: a2 = a2 | a4\n   250: a3 = u8 [a0 + 0xd]\n   253: a4 = u8 [a0 + 0xc]\n   256: a5 = u8 [a0 + 0xe]\n   259: a1 = u8 [a0 + 0xf]\n   262: a3 = a3 << 0x8\n   265: a3 = a3 | a4\n   268: a5 = a5 << 0x10\n   271: a1 = a1 << 0x18\n   274: a1 = a1 | a5\n   277: a1 = a1 | a3\n   280: a1 = a1 << 0x20\n   283: t1 = a1 | a2\n   286: a1 = u8 [a0 + 0x11]\n   289: a3 = u8 [a0 + 0x10]\n   292: a4 = u8 [a0 + 0x12]\n   295: a5 = u8 [a0 + 0x13]\n   298: a1 = a1 << 0x8\n   301: a1 = a1 | a3\n   304: a4 = a4 << 0x10\n   307: a5 = a5 << 0x18\n   310: a4 = a4 | a5\n   313: a1 = a1 | a4\n   316: a3 = u8 [a0 + 0x15]\n   319: a4 = u8 [a0 + 0x14]\n   322: a5 = u8 [a0 + 0x16]\n   325: a2 = u8 [a0 + 0x17]\n   328: a3 = a3 << 0x8\n   331: a3 = a3 | a4\n   334: a5 = a5 << 0x10\n   337: a2 = a2 << 0x18\n   340: a2 = a2 | a5\n   343: a2 = a2 | a3\n   346: a2 = a2 << 0x20\n   349: a3 = a2 | a1\n   352: a1 = u8 [a0 + 0x19]\n   355: a2 = u8 [a0 + 0x18]\n   358: a4 = u8 [a0 + 0x1a]\n   361: a5 = u8 [a0 + 0x1b]\n   364: a1 = a1 << 0x8\n   367: a1 = a1 | a2\n   370: a4 = a4 << 0x10\n   373: a5 = a5 << 0x18\n   376: a4 = a4 | a5\n   379: a1 = a1 | a4\n   382: a2 = u8 [a0 + 0x1d]\n   385: a4 = u8 [a0 + 0x1c]\n   388: a5 = u8 [a0 + 0x1e]\n   391: a0 = u8 [a0 + 0x1f]\n   394: a2 = a2 << 0x8\n   397: a2 = a2 | a4\n   400: a5 = a5 << 0x10\n   403: a0 = a0 << 0x18\n   406: a0 = a0 | a5\n   409: a0 = a0 | a2\n   412: a0 = a0 << 0x20\n   415: a0 = a0 | a1\n   418: a0 = reverse a0\n   420: a1 = reverse a3\n   422: a2 = reverse t1\n   424: a3 = reverse t0\n   426: u64 [s0 + 0x18] = a3\n   429: u64 [s0 + 0x10] = a2\n   432: u64 [s0 + 0x8] = a1\n   435: u64 [s0] = a0\n   437: ra = u64 [sp + 0x8]\n   440: s0 = u64 [sp]\n   442: sp = sp + 0x10\n   445: ret\n      : @19 (gas: 12)\n   447: sp = sp + 0xffffffffffffffd8\n   450: u64 [sp + 0x20] = ra\n   453: u64 [sp + 0x18] = s0\n   456: u64 [sp + 0x10] = s1\n   459: a2 = u64 [a1]\n   461: u64 [sp + 0x8] = a2\n   464: a2 = u64 [a1 + 0x8]\n   467: u64 [sp] = a2\n   469: s0 = u64 [a1 + 0x10]\n   472: s1 = u64 [a1 + 0x18]\n   475: a1 = 0x20\n   478: ra = 4, jump @26\n      : @20 [@dyn 2] (gas: 71)\n   483: a1 = reverse s1\n   485: a2 = reverse s0\n   487: a3 = u64 [sp]\n   489: a3 = reverse a3\n   491: a4 = u64 [sp + 0x8]\n   494: a4 = reverse a4\n   496: u8 [a0 + 0x18] = a4\n   499: u8 [a0 + 0x10] = a3\n   502: u8 [a0 + 0x8] = a2\n   505: u8 [a0] = a1\n   507: a5 = a4 >> 0x38\n   510: u8 [a0 + 0x1f] = a5\n   513: a5 = a4 >> 0x30\n   516: u8 [a0 + 0x1e] = a5\n   519: a5 = a4 >> 0x28\n   522: u8 [a0 + 0x1d] = a5\n   525: a5 = a4 >> 0x20\n   528: u8 [a0 + 0x1c] = a5\n   531: a5 = a4 >> 0x18\n   534: u8 [a0 + 0x1b] = a5\n   537: a5 = a4 >> 0x10\n   540: u8 [a0 + 0x1a] = a5\n   543: a4 = a4 >> 0x8\n   546: u8 [a0 + 0x19] = a4\n   549: a4 = a3 >> 0x38\n   552: u8 [a0 + 0x17] = a4\n   555: a4 = a3 >> 0x30\n   558: u8 [a0 + 0x16] = a4\n   561: a4 = a3 >> 0x28\n   564: u8 [a0 + 0x15] = a4\n   567: a4 = a3 >> 0x20\n   570: u8 [a0 + 0x14] = a4\n   573: a4 = a3 >> 0x18\n   576: u8 [a0 + 0x13] = a4\n   579: a4 = a3 >> 0x10\n   582: u8 [a0 + 0x12] = a4\n   585: a3 = a3 >> 0x8\n   588: u8 [a0 + 0x11] = a3\n   591: a3 = a2 >> 0x38\n   594: u8 [a0 + 0xf] = a3\n   597: a3 = a2 >> 0x30\n   600: u8 [a0 + 0xe] = a3\n   603: a3 = a2 >> 0x28\n   606: u8 [a0 + 0xd] = a3\n   609: a3 = a2 >> 0x20\n   612: u8 [a0 + 0xc] = a3\n   615: a3 = a2 >> 0x18\n   618: u8 [a0 + 0xb] = a3\n   621: a3 = a2 >> 0x10\n   624: u8 [a0 + 0xa] = a3\n   627: a2 = a2 >> 0x8\n   630: u8 [a0 + 0x9] = a2\n   633: a2 = a1 >> 0x38\n   636: u8 [a0 + 0x7] = a2\n   639: a2 = a1 >> 0x30\n   642: u8 [a0 + 0x6] = a2\n   645: a2 = a1 >> 0x28\n   648: u8 [a0 + 0x5] = a2\n   651: a2 = a1 >> 0x20\n   654: u8 [a0 + 0x4] = a2\n   657: a2 = a1 >> 0x18\n   660: u8 [a0 + 0x3] = a2\n   663: a2 = a1 >> 0x10\n   666: u8 [a0 + 0x2] = a2\n   669: a1 = a1 >> 0x8\n   672: u8 [a0 + 0x1] = a1\n   675: ra = u64 [sp + 0x20]\n   678: s0 = u64 [sp + 0x18]\n   681: s1 = u64 [sp + 0x10]\n   684: sp = sp + 0x28\n   687: ret\n      : @21 (gas: 43)\n   689: sp = sp + 0xffffffffffffffa0\n   692: u64 [sp + 0x58] = ra\n   695: u64 [sp + 0x50] = s0\n   698: u64 [sp + 0x48] = s1\n   701: s0 = sp + 0x60\n   704: sp = sp & 0xffffffffffffffe0\n   707: s1 = a0\n   709: a0 = u64 [a1 + 0x18]\n   712: a2 = u64 [a1 + 0x10]\n   715: a3 = u64 [a1 + 0x8]\n   718: a1 = u64 [a1]\n   720: a0 = reverse a0\n   722: a2 = reverse a2\n   724: a3 = reverse a3\n   726: a1 = reverse a1\n   728: u64 [sp + 0x18] = a1\n   731: u64 [sp + 0x10] = a3\n   734: u64 [sp + 0x8] = a2\n   737: u64 [sp] = a0\n   739: u64 [sp + 56] = 0\n   742: u64 [sp + 48] = 0\n   745: u64 [sp + 40] = 0\n   748: u64 [sp + 32] = 0\n   751: u32 [sp + 64] = 0x20\n   755: i32 a1 = sp + 0\n   757: i32 a3 = sp + 0x20\n   760: i32 a4 = sp + 0x40\n   763: a2 = 0xffffffffffffffff\n   766: a0 = 0\n   768: ecalli 5 // 'get_storage'\n   770: a0 = u64 [sp + 0x38]\n   773: a1 = u64 [sp + 0x30]\n   776: a2 = u64 [sp + 0x28]\n   779: a3 = u64 [sp + 0x20]\n   782: a0 = reverse a0\n   784: a1 = reverse a1\n   786: a2 = reverse a2\n   788: a3 = reverse a3\n   790: u64 [s1 + 0x18] = a3\n   793: u64 [s1 + 0x10] = a2\n   796: u64 [s1 + 0x8] = a1\n   799: u64 [s1] = a0\n   801: t0 = 6, jump @1210\n      : @22 [@dyn 3] (gas: 1)\n   807: ret\n      : @23 (gas: 40)\n   809: sp = sp + 0xffffffffffffffa0\n   812: u64 [sp + 0x58] = ra\n   815: u64 [sp + 0x50] = s0\n   818: s0 = sp + 0x60\n   821: sp = sp & 0xffffffffffffffe0\n   824: t0 = u64 [a0]\n   826: a3 = u64 [a0 + 0x8]\n   829: a4 = u64 [a0 + 0x10]\n   832: a0 = u64 [a0 + 0x18]\n   835: t1 = u64 [a1]\n   837: a2 = u64 [a1 + 0x8]\n   840: a5 = u64 [a1 + 0x10]\n   843: a1 = u64 [a1 + 0x18]\n   846: t2 = reverse a0\n   848: a4 = reverse a4\n   850: a3 = reverse a3\n   852: a0 = reverse t0\n   854: t0 = reverse a1\n   856: a5 = reverse a5\n   858: a2 = reverse a2\n   860: a1 = reverse t1\n   862: u64 [sp + 0x18] = a0\n   865: u64 [sp + 0x10] = a3\n   868: u64 [sp + 0x8] = a4\n   871: u64 [sp] = t2\n   873: u64 [sp + 0x38] = a1\n   876: u64 [sp + 0x30] = a2\n   879: u64 [sp + 0x28] = a5\n   882: u64 [sp + 0x20] = t0\n   885: i32 a1 = sp + 0\n   887: i32 a3 = sp + 0x20\n   890: a2 = 0xffffffffffffffff\n   893: a4 = 0x20\n   896: a0 = 0\n   898: ecalli 9 // 'set_storage'\n   900: sp = s0 + 0xffffffffffffffa0\n   903: ra = u64 [sp + 0x58]\n   906: s0 = u64 [sp + 0x50]\n   909: sp = sp + 0x60\n   912: ret\n      : @24 (gas: 24)\n   914: sp = sp + 0xffffffffffffff60\n   918: u64 [sp + 0x98] = ra\n   922: u64 [sp + 0x90] = s0\n   926: u64 [sp + 0x88] = s1\n   930: s0 = sp + 0xa0\n   934: sp = sp & 0xffffffffffffffe0\n   937: a4 = u64 [a3]\n   939: u64 [sp + 0x38] = a4\n   942: a4 = u64 [a3 + 0x8]\n   945: u64 [sp + 0x30] = a4\n   948: a4 = u64 [a3 + 0x10]\n   951: u64 [sp + 0x28] = a4\n   954: a3 = u64 [a3 + 0x18]\n   957: u64 [sp + 0x20] = a3\n   960: a3 = u64 [a2]\n   962: u64 [sp + 0x18] = a3\n   965: a3 = u64 [a2 + 0x8]\n   968: u64 [sp + 0x10] = a3\n   971: a3 = u64 [a2 + 0x10]\n   974: u64 [sp + 0x8] = a3\n   977: a2 = u64 [a2 + 0x18]\n   980: u64 [sp] = a2\n   982: s1 = a1\n   984: ra = 8, jump @26\n      : @25 [@dyn 4] (gas: 35)\n   988: a1 = u64 [sp]\n   990: a1 = reverse a1\n   992: a2 = u64 [sp + 0x8]\n   995: a2 = reverse a2\n   997: a3 = u64 [sp + 0x10]\n  1000: a3 = reverse a3\n  1002: a4 = u64 [sp + 0x18]\n  1005: a4 = reverse a4\n  1007: u64 [sp + 0x58] = a4\n  1010: u64 [sp + 0x50] = a3\n  1013: u64 [sp + 0x48] = a2\n  1016: u64 [sp + 0x40] = a1\n  1019: a1 = u64 [sp + 0x20]\n  1022: a1 = reverse a1\n  1024: a2 = u64 [sp + 0x28]\n  1027: a2 = reverse a2\n  1029: a3 = u64 [sp + 0x30]\n  1032: a3 = reverse a3\n  1034: a4 = u64 [sp + 0x38]\n  1037: a4 = reverse a4\n  1039: u64 [sp + 0x78] = a4\n  1042: u64 [sp + 0x70] = a3\n  1045: u64 [sp + 0x68] = a2\n  1048: u64 [sp + 0x60] = a1\n  1051: i32 a2 = a0 + 0\n  1053: i32 a3 = s1 + 0\n  1055: i32 a0 = sp + 0x40\n  1058: a1 = 0x2\n  1061: ecalli 4 // 'deposit_event'\n  1063: sp = s0 + 0xffffffffffffff60\n  1067: ra = u64 [sp + 0x98]\n  1071: s0 = u64 [sp + 0x90]\n  1075: s1 = u64 [sp + 0x88]\n  1079: sp = sp + 0xa0\n  1083: ret\n      : @26 (gas: 2)\n  1085: i32 a2 = a0 >> 0x10\n  1088: jump @31 if a2 != 0\n      : @27 (gas: 4)\n  1091: a1 = a1 + a0\n  1094: i32 a1 = a1 + 0x1f\n  1097: a1 = a1 & 0xffffffffffffffe0\n  1100: jump @31 if a1 >u 65536\n      : @28 (gas: 3)\n  1106: a2 = 0x2005c\n  1111: a3 = i32 [0x2005c]\n  1116: jump @30 if a3 >=u a1\n      : @29 (gas: 2)\n  1119: u32 [0x2005c] = a1\n  1124: fallthrough\n      : @30 (gas: 4)\n  1125: a1 = 0x20070\n  1130: i32 a0 = a0 + 0\n  1132: a0 = a0 + a1\n  1135: ret\n      : @31 (gas: 1)\n  1137: trap\n      : @32 (gas: 6)\n  1138: sp = sp + 0xfffffffffffffff0\n  1141: u64 [sp + 0x8] = ra\n  1144: u64 [sp] = s0\n  1146: s0 = a0 & 0x1\n  1149: ecalli 2 // 'call_data_size'\n  1151: fallthrough\n      : @33 (gas: 2)\n  1152: u32 [0x20058] = a0\n  1157: jump @35 if s0 == 0\n      : @34 (gas: 1)\n  1160: ra = 10, jump @36\n      : @35 [@dyn 5] (gas: 1)\n  1164: ra = 12, jump @45\n      : @36 [@dyn 6] (gas: 12)\n  1169: sp = sp + 0xffffffffffffffa0\n  1172: u64 [sp + 0x58] = ra\n  1175: u64 [sp + 0x50] = s0\n  1178: s0 = sp + 0x60\n  1181: sp = sp & 0xffffffffffffffe0\n  1184: u64 [sp + 24] = 0\n  1187: u64 [sp + 16] = 0\n  1190: u64 [sp + 0] = 0x80\n  1194: a0 = 0x40\n  1197: a1 = sp\n  1199: u64 [sp + 8] = 0\n  1202: ra = 14, jump @19\n      : @37 [@dyn 7] (gas: 7)\n  1207: u64 [sp + 56] = 0\n  1210: u64 [sp + 48] = 0\n  1213: u64 [sp + 40] = 0\n  1216: u64 [sp + 32] = 0\n  1219: i32 a0 = sp + 0x20\n  1222: ecalli 10 // 'value_transferred'\n  1224: fallthrough\n      : @38 (gas: 8)\n  1225: a0 = u64 [sp + 0x30]\n  1228: a1 = u64 [sp + 0x38]\n  1231: a2 = u64 [sp + 0x28]\n  1234: a3 = u64 [sp + 0x20]\n  1237: a1 = a1 | a2\n  1240: a0 = a0 | a3\n  1243: a0 = a0 | a1\n  1246: jump @40 if a0 == 0\n      : @39 (gas: 7)\n  1249: a1 = 0x20070\n  1254: i32 a1 = a1 + 0\n  1256: a0 = 0x1\n  1259: a2 = 0\n  1261: ra = 0x12\n  1264: ecalli 7 // 'seal_return'\n  1266: jump @45\n      : @40 (gas: 2)\n  1268: a1 = i32 [0x2005c]\n  1273: jump @42 if a1 >u 127\n      : @41 (gas: 2)\n  1277: u32 [0x2005c] = 0x80\n  1284: fallthrough\n      : @42 (gas: 6)\n  1285: a0 = 0x20070\n  1290: i32 a0 = a0 + 0x80\n  1294: a1 = 0\n  1296: a2 = 0\n  1298: ecalli 0 // 'call_data_copy'\n  1299: jump @15\n      : @43 (gas: 3)\n  1302: a0 = 0x80\n  1306: a1 = 0\n  1308: ra = 16, jump @26\n      : @44 [@dyn 8] (gas: 6)\n  1313: i32 a1 = a0 + 0\n  1315: a0 = 0\n  1317: a2 = 0\n  1319: ra = 0x12\n  1322: ecalli 7 // 'seal_return'\n  1324: fallthrough\n      : @45 [@dyn 9] (gas: 16)\n  1325: sp = sp + 0xfffffffffffffe10\n  1329: u64 [sp + 0x1e8] = ra\n  1333: u64 [sp + 0x1e0] = s0\n  1337: u64 [sp + 0x1d8] = s1\n  1341: s0 = sp + 0x1f0\n  1345: sp = sp + 0xffffffffffffd5f0\n  1349: sp = sp & 0xffffffffffffffe0\n  1352: s1 = sp\n  1354: a2 = s1 + 0x2138\n  1358: u64 [a2 + 768] = 0\n  1362: u64 [a2 + 760] = 0\n  1366: u64 [a2 + 744] = 0x80\n  1372: a0 = 0x40\n  1375: a1 = s1 + 0x2420\n  1379: u64 [a2 + 752] = 0\n  1383: ra = 20, jump @19\n      : @46 [@dyn 10] (gas: 4)\n  1388: a0 = 0x20058\n  1393: u64 [s1 + 0x1b8] = a0\n  1397: a0 = i32 [0x20058]\n  1402: jump @48 if a0 >=u 4\n      : @47 (gas: 1)\n  1406: jump @930\n      : @48 (gas: 6)\n  1409: a0 = s1 + 0x2000\n  1413: i32 a0 = a0 + 0x440\n  1417: a1 = 0\n  1419: ra = 0x16\n  1422: ecalli 1 // 'call_data_load'\n  1424: fallthrough\n      : @49 [@dyn 11] (gas: 3)\n  1425: a2 = s1 + 0x2138\n  1429: a0 = i32 [a2 + 0x324]\n  1433: jump @51 if a0 != 4251322654\n      : @50 (gas: 1)\n  1440: jump @228\n      : @51 (gas: 1)\n  1443: jump @135 if a0 == 796968271\n      : @52 (gas: 1)\n  1451: jump @54 if a0 != 1684012845\n      : @53 (gas: 1)\n  1458: jump @156\n      : @54 (gas: 1)\n  1461: jump @56 if a0 == 2027721636\n      : @55 (gas: 1)\n  1468: jump @287\n      : @56 (gas: 8)\n  1471: u64 [a2 + 1856] = 0\n  1475: u64 [a2 + 1848] = 0\n  1479: u64 [a2 + 1840] = 0\n  1483: u64 [a2 + 1832] = 0\n  1487: a0 = s1 + 0x3000\n  1491: i32 a0 = a0 + 0xfffffffffffff860\n  1495: ecalli 10 // 'value_transferred'\n  1497: fallthrough\n      : @57 (gas: 10)\n  1498: a3 = s1 + 0x2138\n  1502: a4 = a3 + 0x700\n  1506: a0 = u64 [a4 + 0x38]\n  1509: a1 = u64 [a4 + 0x40]\n  1512: a2 = u64 [a4 + 0x30]\n  1515: a3 = u64 [a4 + 0x28]\n  1518: a1 = a1 | a2\n  1521: a0 = a0 | a3\n  1524: a0 = a0 | a1\n  1527: jump @59 if a0 == 0\n      : @58 (gas: 1)\n  1530: jump @933\n      : @59 (gas: 3)\n  1533: a0 = u64 [s1 + 0x1b8]\n  1537: a0 = i32 [a0]\n  1539: jump @61 if a0 >u 35\n      : @60 (gas: 1)\n  1543: jump @934\n      : @61 (gas: 5)\n  1546: a0 = s1 + 0x3000\n  1550: i32 a0 = a0 + 0xfffffffffffff880\n  1554: a1 = 0x4\n  1557: ecalli 1 // 'call_data_load'\n  1559: fallthrough\n      : @62 (gas: 12)\n  1560: a3 = s1 + 0x2138\n  1564: a2 = u64 [a3 + 0x758]\n  1568: a0 = u64 [a3 + 0x760]\n  1572: a1 = 0x100000000\n  1582: a1 = a1 ^ a2\n  1585: a1 = a1 | a0\n  1588: u64 [s1 + 0x188] = a2\n  1592: a2 = a2 >> 0x20\n  1595: a2 = a2 <u 0x1\n  1598: a2 = 0 if a0 != 0\n  1600: a2 = 0 if a1 == 0\n  1602: jump @64 if a2 != 0\n      : @63 (gas: 1)\n  1605: jump @935\n      : @64 (gas: 7)\n  1608: a0 = u64 [a3 + 0x750]\n  1612: u64 [s1 + 0x190] = a0\n  1616: a0 = u64 [a3 + 0x748]\n  1620: u64 [s1 + 0x198] = a0\n  1624: a0 = s1 + 0x13a0\n  1628: a1 = 0x40\n  1631: ra = 24, jump @17\n      : @65 [@dyn 12] (gas: 16)\n  1636: a1 = s1 + 0x1138\n  1640: a5 = a1 + 0x200\n  1644: a0 = u64 [a5 + 0x80]\n  1648: u64 [s1 + 0x1a8] = a0\n  1652: a2 = u64 [a5 + 0x78]\n  1655: u64 [s1 + 0x1a0] = a2\n  1659: a4 = u64 [a5 + 0x70]\n  1662: u64 [s1 + 0x1b0] = a4\n  1666: a3 = u64 [a5 + 0x68]\n  1669: u64 [s1 + 0x1b8] = a3\n  1673: u64 [a5 + 0x60] = a0\n  1676: u64 [a5 + 0x58] = a2\n  1679: u64 [a5 + 0x50] = a4\n  1682: a0 = s1 + 0x1380\n  1686: u64 [a5 + 0x48] = a3\n  1689: ra = 26, jump @995\n      : @66 [@dyn 13] (gas: 13)\n  1694: a3 = s1 + 0x100\n  1698: a0 = u64 [a3 + 0xa8]\n  1702: a1 = u64 [a3 + 0xb0]\n  1706: a0 = a0 | a1\n  1709: a2 = u64 [a3 + 0xa0]\n  1713: a1 = u64 [a3 + 0xb8]\n  1717: a1 = a1 | a2\n  1720: a1 = a1 | a0\n  1723: a1 = a1 >> 0x20\n  1726: a0 = a0 | a2\n  1729: a0 = a0 << 0x20\n  1732: a0 = a0 | a1\n  1735: jump @68 if a0 == 0\n      : @67 (gas: 1)\n  1738: jump @929\n      : @68 (gas: 8)\n  1741: a0 = s1 + 0x1138\n  1745: u64 [a0 + 576] = 0\n  1749: u64 [a0 + 568] = 0\n  1753: u64 [a0 + 560] = 0\n  1757: a1 = s1 + 0x1360\n  1761: u64 [a0 + 552] = 0\n  1765: a0 = u64 [s1 + 0x1b8]\n  1769: ra = 28, jump @19\n      : @69 [@dyn 14] (gas: 5)\n  1774: a4 = s1 + 0x100\n  1778: a0 = u64 [a4 + 0xa8]\n  1782: a2 = u64 [a4 + 0xa0]\n  1786: a2 = a2 | a0\n  1789: t0 = 30, jump @1208\n      : @70 [@dyn 15] (gas: 2)\n  1795: a0 = 0 if a2 != 0\n  1797: jump @72 if a0 != 0\n      : @71 (gas: 1)\n  1800: jump @929\n      : @72 (gas: 12)\n  1803: a0 = u64 [s1 + 0x1b8]\n  1807: i32 a0 = a0 + 0x20\n  1810: a1 = s1 + 0x1138\n  1814: u64 [s1 + 0x1a8] = a2\n  1818: a2 = a1\n  1820: u64 [a1 + 544] = 0\n  1824: u64 [a1 + 536] = 0\n  1828: u64 [a2 + 520] = 0x60\n  1833: a1 = s1 + 0x1340\n  1837: u64 [a2 + 528] = 0\n  1841: u64 [s1 + 0x1a0] = a3\n  1845: ra = 32, jump @19\n      : @73 [@dyn 16] (gas: 10)\n  1850: a2 = s1 + 0x100\n  1854: a0 = u64 [a2 + 0xa0]\n  1858: a0 = a0 + 0xffffffffffffffc0\n  1861: a1 = u64 [a2 + 0xb8]\n  1865: a0 = a1 <u a0\n  1868: a1 = u64 [a2 + 0xb0]\n  1872: a0 = 0 if a1 != 0\n  1874: a1 = u64 [a2 + 0xa8]\n  1878: a0 = 0 if a1 != 0\n  1880: jump @75 if a0 != 0\n      : @74 (gas: 1)\n  1883: jump @929\n      : @75 (gas: 9)\n  1886: a0 = u64 [s1 + 0x1b8]\n  1890: i32 a0 = a0 + 0x40\n  1893: a2 = s1 + 0x1138\n  1897: u64 [a2 + 512] = 0\n  1901: u64 [a2 + 504] = 0\n  1905: u64 [a2 + 496] = 0\n  1909: a1 = s1 + 0x1320\n  1913: u64 [a2 + 488] = 0\n  1917: ra = 34, jump @19\n      : @76 [@dyn 17] (gas: 10)\n  1922: a2 = 0x100000000\n  1932: a0 = 0xffffffa0\n  1942: a3 = s1 + 0x100\n  1946: a1 = u64 [a3 + 0xb8]\n  1950: a0 = a1 <u a0\n  1953: a1 = u64 [a3 + 0xb0]\n  1957: a0 = 0 if a1 != 0\n  1959: a1 = u64 [a3 + 0xa8]\n  1963: a0 = 0 if a1 != 0\n  1965: jump @78 if a0 != 0\n      : @77 (gas: 1)\n  1968: jump @929\n      : @78 (gas: 11)\n  1971: a0 = u64 [s1 + 0x1b8]\n  1975: i32 a0 = a0 + 0x60\n  1978: a1 = s1 + 0x1138\n  1982: u64 [s1 + 0x1a0] = a2\n  1986: a2 = a1\n  1988: u64 [a1 + 480] = 0\n  1992: u64 [a1 + 472] = 0\n  1996: u64 [a1 + 464] = 0\n  2000: a1 = s1 + 0x1300\n  2004: u64 [a2 + 456] = 0x60\n  2009: ra = 36, jump @19\n      : @79 [@dyn 18] (gas: 10)\n  2014: a3 = s1 + 0x100\n  2018: a2 = u64 [a3 + 0xa8]\n  2022: a0 = u64 [a3 + 0xa0]\n  2026: a0 = a0 + 0xffffffffffffff80\n  2029: a1 = u64 [a3 + 0xb8]\n  2033: a0 = a1 <u a0\n  2036: a1 = u64 [a3 + 0xb0]\n  2040: a0 = 0 if a1 != 0\n  2042: a0 = 0 if a2 != 0\n  2044: jump @81 if a0 != 0\n      : @80 (gas: 1)\n  2047: jump @929\n      : @81 (gas: 9)\n  2050: a0 = u64 [s1 + 0x1b8]\n  2054: i32 a0 = a0 + 0x80\n  2058: a2 = s1 + 0x1138\n  2062: u64 [a2 + 448] = 0\n  2066: u64 [a2 + 440] = 0\n  2070: u64 [a2 + 424] = 0x60\n  2075: a1 = s1 + 0x12e0\n  2079: u64 [a2 + 432] = 0\n  2083: ra = 38, jump @19\n      : @82 [@dyn 19] (gas: 9)\n  2088: a0 = 0xffffff60\n  2098: a2 = s1 + 0x100\n  2102: a1 = u64 [a2 + 0xb8]\n  2106: a0 = a1 <u a0\n  2109: a1 = u64 [a2 + 0xb0]\n  2113: a0 = 0 if a1 != 0\n  2115: a1 = u64 [a2 + 0xa8]\n  2119: a0 = 0 if a1 != 0\n  2121: jump @84 if a0 != 0\n      : @83 (gas: 1)\n  2124: jump @929\n      : @84 (gas: 13)\n  2127: a0 = u64 [s1 + 0x188]\n  2131: a0 = a0 << 0x20\n  2134: a0 = a0 >> 0x20\n  2137: u64 [s1 + 0x1b0] = a0\n  2141: a0 = u64 [s1 + 0x1b8]\n  2145: i32 a0 = a0 + 0xa0\n  2149: a2 = s1 + 0x1138\n  2153: u64 [a2 + 416] = 0\n  2157: u64 [a2 + 408] = 0\n  2161: u64 [a2 + 392] = 0x60\n  2166: a1 = s1 + 0x12c0\n  2170: u64 [a2 + 400] = 0\n  2174: ra = 40, jump @19\n      : @85 [@dyn 20] (gas: 12)\n  2179: a2 = s1 + 0x1138\n  2183: u64 [a2 + 384] = 0\n  2187: a0 = u64 [s1 + 0x1b0]\n  2191: a3 = a2 + 0x100\n  2195: u64 [a3 + 0x78] = a0\n  2198: a0 = u64 [s1 + 0x190]\n  2202: u64 [a3 + 0x70] = a0\n  2205: a1 = s1 + 0x12a0\n  2209: a0 = u64 [s1 + 0x198]\n  2213: u64 [a3 + 0x68] = a0\n  2216: a0 = 0\n  2218: ra = 42, jump @19\n      : @86 [@dyn 21] (gas: 9)\n  2223: a0 = s1 + 0x1138\n  2227: u64 [a0 + 352] = 0\n  2231: u64 [a0 + 344] = 0\n  2235: u64 [a0 + 336] = 0\n  2239: a2 = a0\n  2241: a0 = 0x20\n  2244: a1 = s1 + 0x1280\n  2248: u64 [a2 + 328] = 0\n  2252: ra = 44, jump @19\n      : @87 [@dyn 22] (gas: 6)\n  2257: a0 = sp + 0xffffffffffffffe0\n  2260: a0 = a0 & 0xffffffffffffffe0\n  2263: u64 [s1 + 0x1b0] = a0\n  2267: sp = a0\n  2269: a1 = i32 [0x2005c]\n  2274: jump @89 if a1 >u 63\n      : @88 (gas: 4)\n  2278: a1 = 0x40\n  2281: u32 [0x2005c] = a1\n  2286: t0 = 0x2e\n  2289: jump @1197\n      : @89 (gas: 1)\n  2293: t0 = 46, jump @1197\n      : @90 [@dyn 23] (gas: 26)\n  2299: a0 = 0x20070\n  2304: i32 a0 = a0 + 0\n  2306: i32 a2 = a2 + 0\n  2308: a1 = 0x40\n  2311: ecalli 6 // 'hash_keccak_256'\n  2313: a3 = u64 [s1 + 0x1b8]\n  2317: a0 = u64 [a3 + 0x18]\n  2320: a1 = u64 [a3 + 0x10]\n  2323: a2 = u64 [a3 + 0x8]\n  2326: a3 = u64 [a3]\n  2328: a5 = reverse a0\n  2330: a4 = reverse a1\n  2332: a0 = reverse a2\n  2334: a1 = reverse a3\n  2336: u64 [s1 + 0x188] = a1\n  2340: a2 = u64 [s1 + 0x1b0]\n  2344: u64 [a2 + 0x18] = a1\n  2347: u64 [s1 + 0x190] = a0\n  2351: u64 [a2 + 0x10] = a0\n  2354: u64 [s1 + 0x180] = a4\n  2358: u64 [a2 + 0x8] = a4\n  2361: u64 [s1 + 0x178] = a5\n  2365: u64 [a2] = a5\n  2367: a0 = s1 + 0x1260\n  2371: a1 = 0x40\n  2374: ra = 48, jump @17\n      : @91 [@dyn 24] (gas: 16)\n  2379: a1 = s1 + 0x1138\n  2383: a5 = a1 + 0x100\n  2387: a0 = u64 [a5 + 0x40]\n  2390: u64 [s1 + 0x198] = a0\n  2394: a3 = u64 [a5 + 0x38]\n  2397: u64 [s1 + 0x1a0] = a3\n  2401: a4 = u64 [a5 + 0x30]\n  2404: u64 [s1 + 0x1a8] = a4\n  2408: a2 = u64 [a5 + 0x28]\n  2411: u64 [s1 + 0x1b8] = a2\n  2415: u64 [a5 + 0x20] = a0\n  2418: u64 [a5 + 0x18] = a3\n  2421: u64 [a5 + 0x10] = a4\n  2424: a0 = s1 + 0x1240\n  2428: u64 [a5 + 0x8] = a2\n  2431: ra = 50, jump @995\n      : @92 [@dyn 25] (gas: 3)\n  2436: a0 = s1 + 0x1220\n  2440: a1 = u64 [s1 + 0x1b0]\n  2444: ra = 52, jump @21\n      : @93 [@dyn 26] (gas: 13)\n  2449: a3 = s1 + 0x100\n  2453: a2 = u64 [a3 + 0xa0]\n  2457: a0 = u64 [a3 + 0x98]\n  2461: a1 = u64 [a3 + 0xa8]\n  2465: a0 = a0 | a1\n  2468: a1 = u64 [a3 + 0xb8]\n  2472: a1 = a1 | a2\n  2475: a1 = a1 | a0\n  2478: a1 = a1 >> 0x20\n  2481: a0 = a0 | a2\n  2484: a0 = a0 << 0x20\n  2487: a0 = a0 | a1\n  2490: jump @95 if a0 == 0\n      : @94 (gas: 1)\n  2493: jump @929\n      : @95 (gas: 15)\n  2496: a5 = s1 + 0x1138\n  2500: a1 = u64 [a5 + 0xf8]\n  2504: a2 = u64 [a5 + 0xf0]\n  2508: a3 = u64 [a5 + 0xe8]\n  2512: a4 = 0xffffffff\n  2522: a4 = a4 & a1\n  2525: a2 = a2 & 0xffffffffffffffff\n  2528: a0 = a3 & 0xffffffffffffffff\n  2531: u64 [a5 + 224] = 0\n  2535: u64 [a5 + 0xc8] = a0\n  2539: u64 [a5 + 0xd0] = a2\n  2543: a1 = s1 + 0x1200\n  2547: u64 [a5 + 0xd8] = a4\n  2551: a0 = u64 [s1 + 0x1b8]\n  2555: ra = 54, jump @19\n      : @96 [@dyn 27] (gas: 3)\n  2560: a0 = s1 + 0x11e0\n  2564: a1 = 0x40\n  2567: ra = 56, jump @17\n      : @97 [@dyn 28] (gas: 33)\n  2572: a5 = s1 + 0x1138\n  2576: t1 = u64 [a5 + 0xc0]\n  2580: u64 [s1 + 0x1b0] = t1\n  2584: t2 = u64 [a5 + 0xb8]\n  2588: u64 [s1 + 0x170] = t2\n  2592: ra = u64 [a5 + 0xb0]\n  2596: u64 [s1 + 0x168] = ra\n  2600: t0 = u64 [a5 + 0xa8]\n  2604: u64 [s1 + 0x160] = t0\n  2608: a3 = u64 [s1 + 0x178]\n  2612: a3 = a3 + 0x1\n  2615: a0 = a3 <u 0x1\n  2618: a1 = u64 [s1 + 0x180]\n  2622: a0 = a0 + a1\n  2625: a1 = a3 | a0\n  2628: a1 = a1 <u 0x1\n  2631: a2 = u64 [s1 + 0x190]\n  2635: a1 = a1 + a2\n  2638: a2 = a1 <u a2\n  2641: a4 = u64 [s1 + 0x188]\n  2645: a2 = a2 + a4\n  2648: u64 [a5 + 0x60] = t1\n  2651: u64 [a5 + 0x58] = t2\n  2654: u64 [a5 + 0x50] = ra\n  2657: u64 [a5 + 0x48] = t0\n  2660: u64 [a5 + 0x80] = a2\n  2664: u64 [a5 + 0x78] = a1\n  2667: u64 [a5 + 0x70] = a0\n  2670: a0 = s1 + 0x11c0\n  2674: a1 = s1 + 0x11a0\n  2678: a2 = s1 + 0x1180\n  2682: u64 [a5 + 0x68] = a3\n  2685: ra = 58, jump @1129\n      : @98 [@dyn 29] (gas: 39)\n  2691: a1 = s1 + 0x1138\n  2695: a0 = u64 [a1 + 0x90]\n  2699: a2 = u64 [a1 + 0xa0]\n  2703: a4 = u64 [a1 + 0x88]\n  2707: u64 [s1 + 0x158] = a4\n  2711: a3 = u64 [a1 + 0x98]\n  2715: t0 = u64 [s1 + 0x168]\n  2719: ra = a0 ^ t0\n  2722: a5 = a0 <u t0\n  2725: t1 = u64 [s1 + 0x160]\n  2729: t2 = a4 <u t1\n  2732: a5 = t2 if ra == 0\n  2735: a1 = u64 [s1 + 0x170]\n  2739: a4 = a3 - a1\n  2742: a3 = a3 <u a1\n  2745: ra = a1\n  2747: a1 = u64 [s1 + 0x1b0]\n  2751: a2 = a2 - a1\n  2754: a2 = a2 - a3\n  2757: a3 = a4 <u a5\n  2760: a2 = a2 - a3\n  2763: a4 = a4 - a5\n  2766: a0 = a0 - t0\n  2769: t2 = a0 - t2\n  2772: a3 = u64 [s1 + 0x158]\n  2776: a3 = a3 - t1\n  2779: a0 = s1 + 0x1138\n  2783: u64 [a0 + 0x8] = a3\n  2786: u64 [a0 + 0x40] = a1\n  2789: u64 [a0 + 0x38] = ra\n  2792: u64 [a0 + 0x30] = t0\n  2795: u64 [a0 + 0x28] = t1\n  2798: u64 [a0 + 0x10] = t2\n  2801: u64 [a0 + 0x18] = a4\n  2804: a3 = a0\n  2806: a0 = s1 + 0x1160\n  2810: a1 = s1 + 0x1140\n  2814: u64 [a3 + 0x20] = a2\n  2817: ra = 60, jump @1004\n      : @99 [@dyn 30] (gas: 12)\n  2822: a4 = s1 + 0x100\n  2826: a0 = u64 [a4 + 0xa0]\n  2830: a2 = u64 [a4 + 0x98]\n  2834: a2 = a2 | a0\n  2837: a3 = 0x100000000\n  2847: a0 = 0xffffffe0\n  2857: a1 = u64 [a4 + 0xb8]\n  2861: a0 = a1 <u a0\n  2864: a1 = u64 [a4 + 0xa8]\n  2868: a0 = 0 if a1 != 0\n  2870: a0 = 0 if a2 != 0\n  2872: jump @101 if a0 != 0\n      : @100 (gas: 1)\n  2875: jump @929\n      : @101 (gas: 18)\n  2878: a0 = u64 [s1 + 0x1b8]\n  2882: i32 a0 = a0 + 0x20\n  2885: a1 = s1 + 0x7ff\n  2889: a1 = a1 + 0x139\n  2893: u64 [s1 + 0x150] = a3\n  2897: a3 = u64 [s1 + 0x160]\n  2901: a4 = a1 + 0x700\n  2905: u64 [a4 + 0xe8] = a3\n  2909: a3 = u64 [s1 + 0x168]\n  2913: u64 [a4 + 0xf0] = a3\n  2917: a3 = u64 [s1 + 0x170]\n  2921: u64 [a4 + 0xf8] = a3\n  2925: a1 = s1 + 0x1120\n  2929: a3 = s1 + 0x1138\n  2933: a4 = u64 [s1 + 0x1b0]\n  2937: u64 [a3] = a4\n  2939: u64 [s1 + 0x158] = a2\n  2943: ra = 62, jump @19\n      : @102 [@dyn 31] (gas: 5)\n  2948: a1 = u64 [s1 + 0x178]\n  2952: a0 = a1 + 0x2\n  2955: a1 = a0 <u a1\n  2958: a3 = u64 [s1 + 0x180]\n  2962: t0 = 64, jump @1204\n      : @103 [@dyn 32] (gas: 14)\n  2968: a1 = u64 [s1 + 0x190]\n  2972: a3 = a3 + a1\n  2975: a1 = a3 <u a1\n  2978: a4 = u64 [s1 + 0x188]\n  2982: a1 = a1 + a4\n  2985: a4 = s1 + 0x2138\n  2989: a5 = a4 + 0x700\n  2993: u64 [a5 + 0x70] = a2\n  2996: u64 [a5 + 0x68] = a0\n  2999: u64 [a5 + 0x78] = a3\n  3002: u64 [a5 + 0x80] = a1\n  3006: a0 = s1 + 0x1100\n  3010: a1 = s1 + 0x28a0\n  3014: ra = 66, jump @21\n      : @104 [@dyn 33] (gas: 4)\n  3019: a2 = s1 + 0x100\n  3023: a0 = u64 [a2 + 0x50]\n  3026: a0 = a0 + 0xffffffffffffffc0\n  3029: t0 = 68, jump @1196\n      : @105 [@dyn 34] (gas: 1)\n  3035: jump @107 if a0 != 0\n      : @106 (gas: 1)\n  3038: jump @929\n      : @107 (gas: 15)\n  3041: a5 = s1 + 0x7ff\n  3045: a5 = a5 + 0x139\n  3049: a2 = u64 [a5 + 0x7e0]\n  3053: a1 = u64 [a5 + 0x7d8]\n  3057: a3 = u64 [a5 + 0x7d0]\n  3061: a4 = u64 [a5 + 0x7c8]\n  3065: a0 = u64 [s1 + 0x1b8]\n  3069: i32 a0 = a0 + 0x40\n  3072: u64 [a5 + 0x7a8] = a4\n  3076: a4 = a5 + 0x700\n  3080: u64 [a4 + 0xb0] = a3\n  3084: u64 [a4 + 0xb8] = a1\n  3088: a1 = s1 + 0x10e0\n  3092: u64 [a4 + 0xc0] = a2\n  3096: ra = 70, jump @19\n      : @108 [@dyn 35] (gas: 3)\n  3101: a0 = s1 + 0x10c0\n  3105: a1 = 0x40\n  3108: ra = 72, jump @17\n      : @109 [@dyn 36] (gas: 35)\n  3113: a5 = s1 + 0x7ff\n  3117: a5 = a5 + 0x139\n  3121: t1 = u64 [a5 + 0x7a0]\n  3125: u64 [s1 + 0x1b0] = t1\n  3129: t2 = u64 [a5 + 0x798]\n  3133: u64 [s1 + 0x170] = t2\n  3137: ra = u64 [a5 + 0x790]\n  3141: u64 [s1 + 0x168] = ra\n  3145: a3 = u64 [a5 + 0x788]\n  3149: u64 [s1 + 0x160] = a3\n  3153: a0 = u64 [s1 + 0x178]\n  3157: t0 = a0 + 0x3\n  3160: a0 = t0 <u a0\n  3163: a2 = u64 [s1 + 0x180]\n  3167: a1 = a2 + a0\n  3170: a2 = a1 <u a2\n  3173: a2 = a0 if a0 == 0\n  3176: a0 = u64 [s1 + 0x190]\n  3180: a2 = a2 + a0\n  3183: a0 = a2 <u a0\n  3186: a4 = u64 [s1 + 0x188]\n  3190: a0 = a0 + a4\n  3193: u64 [a5 + 0x740] = t1\n  3197: u64 [a5 + 0x738] = t2\n  3201: u64 [a5 + 0x730] = ra\n  3205: a4 = a5 + 0x700\n  3209: u64 [a4 + 0x28] = a3\n  3212: u64 [a4 + 0x60] = a0\n  3215: u64 [a4 + 0x58] = a2\n  3218: u64 [a4 + 0x50] = a1\n  3221: a0 = s1 + 0x10a0\n  3225: a1 = s1 + 0x1080\n  3229: a2 = s1 + 0x1060\n  3233: u64 [a5 + 0x748] = t0\n  3237: ra = 74, jump @1129\n      : @110 [@dyn 37] (gas: 42)\n  3243: a1 = s1 + 0x7ff\n  3247: a1 = a1 + 0x139\n  3251: a5 = a1 + 0x700\n  3255: a0 = u64 [a5 + 0x70]\n  3258: a2 = u64 [a5 + 0x80]\n  3262: a4 = u64 [a5 + 0x68]\n  3265: u64 [s1 + 0x150] = a4\n  3269: a3 = u64 [a5 + 0x78]\n  3272: t0 = u64 [s1 + 0x168]\n  3276: ra = a0 ^ t0\n  3279: a5 = a0 <u t0\n  3282: t1 = u64 [s1 + 0x160]\n  3286: t2 = a4 <u t1\n  3289: a5 = t2 if ra == 0\n  3292: a1 = u64 [s1 + 0x170]\n  3296: a4 = a3 - a1\n  3299: a3 = a3 <u a1\n  3302: ra = a1\n  3304: a1 = u64 [s1 + 0x1b0]\n  3308: a2 = a2 - a1\n  3311: a2 = a2 - a3\n  3314: a3 = a4 <u a5\n  3317: a2 = a2 - a3\n  3320: a4 = a4 - a5\n  3323: a0 = a0 - t0\n  3326: t2 = a0 - t2\n  3329: a3 = u64 [s1 + 0x150]\n  3333: a3 = a3 - t1\n  3336: a0 = s1 + 0x7ff\n  3340: a0 = a0 + 0x139\n  3344: u64 [a0 + 0x6e8] = a3\n  3348: u64 [a0 + 0x720] = a1\n  3352: u64 [a0 + 0x718] = ra\n  3356: u64 [a0 + 0x710] = t0\n  3360: u64 [a0 + 0x708] = t1\n  3364: u64 [a0 + 0x6f0] = t2\n  3368: u64 [a0 + 0x6f8] = a4\n  3372: a3 = a0\n  3374: a0 = s1 + 0x1040\n  3378: a1 = s1 + 0x1020\n  3382: u64 [a3 + 0x700] = a2\n  3386: ra = 76, jump @1004\n      : @111 [@dyn 38] (gas: 10)\n  3391: a4 = s1 + 0x100\n  3395: a2 = u64 [a4 + 0x58]\n  3398: a3 = 0x100000000\n  3408: a0 = 0xffffffa0\n  3418: a1 = u64 [a4 + 0xb8]\n  3422: a0 = a1 <u a0\n  3425: a1 = u64 [a4 + 0xa8]\n  3429: a0 = 0 if a1 != 0\n  3431: a0 = 0 if a2 != 0\n  3433: jump @113 if a0 != 0\n      : @112 (gas: 1)\n  3436: jump @929\n      : @113 (gas: 16)\n  3439: a0 = u64 [s1 + 0x1b8]\n  3443: i32 a0 = a0 + 0x60\n  3446: a5 = s1 + 0x7ff\n  3450: a5 = a5 + 0x139\n  3454: a1 = u64 [s1 + 0x160]\n  3458: a2 = a5 + 0x600\n  3462: u64 [a2 + 0xc8] = a1\n  3466: a1 = u64 [s1 + 0x168]\n  3470: u64 [a2 + 0xd0] = a1\n  3474: a1 = u64 [s1 + 0x170]\n  3478: u64 [a2 + 0xd8] = a1\n  3482: a1 = s1 + 0x1000\n  3486: a4 = u64 [s1 + 0x1b0]\n  3490: u64 [a2 + 0xe0] = a4\n  3494: u64 [s1 + 0x150] = a3\n  3498: ra = 78, jump @19\n      : @114 [@dyn 39] (gas: 4)\n  3503: a0 = s1 + 0x7ff\n  3507: a0 = a0 + 0x7e1\n  3511: a1 = 0x40\n  3514: ra = 80, jump @17\n      : @115 [@dyn 40] (gas: 38)\n  3519: a5 = s1 + 0x7ff\n  3523: a5 = a5 + 0x139\n  3527: t1 = u64 [a5 + 0x6c0]\n  3531: u64 [s1 + 0x1b0] = t1\n  3535: t2 = u64 [a5 + 0x6b8]\n  3539: u64 [s1 + 0x170] = t2\n  3543: ra = u64 [a5 + 0x6b0]\n  3547: u64 [s1 + 0x168] = ra\n  3551: a3 = u64 [a5 + 0x6a8]\n  3555: u64 [s1 + 0x160] = a3\n  3559: a0 = u64 [s1 + 0x178]\n  3563: t0 = a0 + 0x4\n  3566: a0 = t0 <u a0\n  3569: a2 = u64 [s1 + 0x180]\n  3573: a1 = a2 + a0\n  3576: a2 = a1 <u a2\n  3579: a2 = a0 if a0 == 0\n  3582: a0 = u64 [s1 + 0x190]\n  3586: a2 = a2 + a0\n  3589: a0 = a2 <u a0\n  3592: a4 = u64 [s1 + 0x188]\n  3596: a0 = a0 + a4\n  3599: u64 [a5 + 0x660] = t1\n  3603: u64 [a5 + 0x658] = t2\n  3607: u64 [a5 + 0x650] = ra\n  3611: a4 = a5 + 0x600\n  3615: u64 [a4 + 0x48] = a3\n  3618: u64 [a4 + 0x80] = a0\n  3622: u64 [a4 + 0x78] = a2\n  3625: u64 [a4 + 0x70] = a1\n  3628: a0 = s1 + 0x7ff\n  3632: a0 = a0 + 0x7c1\n  3636: a1 = s1 + 0x7ff\n  3640: a1 = a1 + 0x7a1\n  3644: a2 = s1 + 0x7ff\n  3648: a2 = a2 + 0x781\n  3652: u64 [a5 + 0x668] = t0\n  3656: ra = 82, jump @1129\n      : @116 [@dyn 41] (gas: 45)\n  3662: a1 = s1 + 0x7ff\n  3666: a1 = a1 + 0x139\n  3670: a5 = a1 + 0x600\n  3674: a0 = u64 [a5 + 0x90]\n  3678: a2 = u64 [a5 + 0xa0]\n  3682: a4 = u64 [a5 + 0x88]\n  3686: u64 [s1 + 0x148] = a4\n  3690: a3 = u64 [a5 + 0x98]\n  3694: t0 = u64 [s1 + 0x168]\n  3698: ra = a0 ^ t0\n  3701: a5 = a0 <u t0\n  3704: t1 = u64 [s1 + 0x160]\n  3708: t2 = a4 <u t1\n  3711: a5 = t2 if ra == 0\n  3714: a1 = u64 [s1 + 0x170]\n  3718: a4 = a3 - a1\n  3721: a3 = a3 <u a1\n  3724: ra = a1\n  3726: a1 = u64 [s1 + 0x1b0]\n  3730: a2 = a2 - a1\n  3733: a2 = a2 - a3\n  3736: a3 = a4 <u a5\n  3739: a2 = a2 - a3\n  3742: a4 = a4 - a5\n  3745: a0 = a0 - t0\n  3748: t2 = a0 - t2\n  3751: a3 = u64 [s1 + 0x148]\n  3755: a3 = a3 - t1\n  3758: a0 = s1 + 0x7ff\n  3762: a0 = a0 + 0x139\n  3766: a5 = a0 + 0x600\n  3770: u64 [a5 + 0x8] = a3\n  3773: u64 [a5 + 0x40] = a1\n  3776: u64 [a0 + 0x638] = ra\n  3780: u64 [a0 + 0x630] = t0\n  3784: u64 [a0 + 0x628] = t1\n  3788: u64 [a0 + 0x610] = t2\n  3792: u64 [a5 + 0x18] = a4\n  3795: a3 = a0\n  3797: a0 = s1 + 0x7ff\n  3801: a0 = a0 + 0x761\n  3805: a1 = s1 + 0x7ff\n  3809: a1 = a1 + 0x741\n  3813: u64 [a3 + 0x620] = a2\n  3817: ra = 84, jump @1004\n      : @117 [@dyn 42] (gas: 4)\n  3822: a2 = s1 + 0x100\n  3826: a0 = u64 [a2 + 0x50]\n  3829: a0 = a0 + 0xffffffffffffff80\n  3832: t0 = 86, jump @1196\n      : @118 [@dyn 43] (gas: 1)\n  3838: jump @120 if a0 != 0\n      : @119 (gas: 1)\n  3841: jump @929\n      : @120 (gas: 16)\n  3844: a0 = u64 [s1 + 0x1b8]\n  3848: i32 a0 = a0 + 0x80\n  3852: a3 = s1 + 0x7ff\n  3856: a3 = a3 + 0x139\n  3860: a1 = u64 [s1 + 0x160]\n  3864: a2 = a3 + 0x500\n  3868: u64 [a2 + 0xe8] = a1\n  3872: a1 = u64 [s1 + 0x168]\n  3876: u64 [a2 + 0xf0] = a1\n  3880: a1 = u64 [s1 + 0x170]\n  3884: u64 [a2 + 0xf8] = a1\n  3888: a1 = s1 + 0x7ff\n  3892: a1 = a1 + 0x721\n  3896: a2 = u64 [s1 + 0x1b0]\n  3900: u64 [a3 + 0x600] = a2\n  3904: ra = 88, jump @19\n      : @121 [@dyn 44] (gas: 4)\n  3909: a0 = s1 + 0x7ff\n  3913: a0 = a0 + 0x701\n  3917: a1 = 0x40\n  3920: ra = 90, jump @17\n      : @122 [@dyn 45] (gas: 38)\n  3925: a5 = s1 + 0x7ff\n  3929: a5 = a5 + 0x139\n  3933: t1 = u64 [a5 + 0x5e0]\n  3937: u64 [s1 + 0x1b0] = t1\n  3941: t2 = u64 [a5 + 0x5d8]\n  3945: u64 [s1 + 0x170] = t2\n  3949: ra = u64 [a5 + 0x5d0]\n  3953: u64 [s1 + 0x168] = ra\n  3957: a0 = u64 [s1 + 0x178]\n  3961: t0 = a0 + 0x5\n  3964: a0 = t0 <u a0\n  3967: a2 = u64 [s1 + 0x180]\n  3971: a1 = a2 + a0\n  3974: a2 = a1 <u a2\n  3977: a2 = a0 if a0 == 0\n  3980: a3 = u64 [a5 + 0x5c8]\n  3984: u64 [s1 + 0x180] = a3\n  3988: a0 = u64 [s1 + 0x190]\n  3992: a2 = a2 + a0\n  3995: a0 = a2 <u a0\n  3998: a4 = u64 [s1 + 0x188]\n  4002: a0 = a0 + a4\n  4005: u64 [a5 + 0x580] = t1\n  4009: u64 [a5 + 0x578] = t2\n  4013: u64 [a5 + 0x570] = ra\n  4017: a4 = a5 + 0x500\n  4021: u64 [a4 + 0x68] = a3\n  4024: u64 [a4 + 0xa0] = a0\n  4028: u64 [a4 + 0x98] = a2\n  4032: u64 [a4 + 0x90] = a1\n  4036: a0 = s1 + 0x7ff\n  4040: a0 = a0 + 0x6e1\n  4044: a1 = s1 + 0x7ff\n  4048: a1 = a1 + 0x6c1\n  4052: a2 = s1 + 0x7ff\n  4056: a2 = a2 + 0x6a1\n  4060: u64 [a5 + 0x588] = t0\n  4064: ra = 92, jump @1129\n      : @123 [@dyn 46] (gas: 45)\n  4070: a1 = s1 + 0x7ff\n  4074: a1 = a1 + 0x139\n  4078: a5 = a1 + 0x500\n  4082: a0 = u64 [a5 + 0xb0]\n  4086: a2 = u64 [a5 + 0xc0]\n  4090: a4 = u64 [a5 + 0xa8]\n  4094: u64 [s1 + 0x190] = a4\n  4098: a3 = u64 [a5 + 0xb8]\n  4102: t0 = u64 [s1 + 0x168]\n  4106: ra = a0 ^ t0\n  4109: a5 = a0 <u t0\n  4112: t1 = u64 [s1 + 0x180]\n  4116: t2 = a4 <u t1\n  4119: a5 = t2 if ra == 0\n  4122: a1 = u64 [s1 + 0x170]\n  4126: a4 = a3 - a1\n  4129: a3 = a3 <u a1\n  4132: ra = a1\n  4134: a1 = u64 [s1 + 0x1b0]\n  4138: a2 = a2 - a1\n  4141: a2 = a2 - a3\n  4144: a3 = a4 <u a5\n  4147: a2 = a2 - a3\n  4150: a4 = a4 - a5\n  4153: a0 = a0 - t0\n  4156: t2 = a0 - t2\n  4159: a3 = u64 [s1 + 0x190]\n  4163: a3 = a3 - t1\n  4166: a0 = s1 + 0x7ff\n  4170: a0 = a0 + 0x139\n  4174: a5 = a0 + 0x500\n  4178: u64 [a5 + 0x28] = a3\n  4181: u64 [a5 + 0x60] = a1\n  4184: u64 [a0 + 0x558] = ra\n  4188: u64 [a0 + 0x550] = t0\n  4192: u64 [a0 + 0x548] = t1\n  4196: u64 [a0 + 0x530] = t2\n  4200: u64 [a5 + 0x38] = a4\n  4203: a3 = a0\n  4205: a0 = s1 + 0x7ff\n  4209: a0 = a0 + 0x681\n  4213: a1 = s1 + 0x7ff\n  4217: a1 = a1 + 0x661\n  4221: u64 [a3 + 0x540] = a2\n  4225: ra = 94, jump @1004\n      : @124 [@dyn 47] (gas: 3)\n  4230: a0 = 0xffffff60\n  4240: a2 = s1 + 0x100\n  4244: t0 = 96, jump @1196\n      : @125 [@dyn 48] (gas: 1)\n  4250: jump @127 if a0 != 0\n      : @126 (gas: 1)\n  4253: jump @929\n      : @127 (gas: 16)\n  4256: a0 = u64 [s1 + 0x1b8]\n  4260: i32 a0 = a0 + 0xa0\n  4264: a3 = s1 + 0x7ff\n  4268: a3 = a3 + 0x139\n  4272: a1 = u64 [s1 + 0x180]\n  4276: a4 = a3 + 0x500\n  4280: u64 [a4 + 0x8] = a1\n  4283: a1 = u64 [s1 + 0x168]\n  4287: u64 [a4 + 0x10] = a1\n  4290: a1 = u64 [s1 + 0x170]\n  4294: u64 [a4 + 0x18] = a1\n  4297: a1 = s1 + 0x7ff\n  4301: a1 = a1 + 0x641\n  4305: a2 = u64 [s1 + 0x1b0]\n  4309: u64 [a4 + 0x20] = a2\n  4312: ra = 98, jump @19\n      : @128 [@dyn 49] (gas: 4)\n  4317: a0 = s1 + 0x7ff\n  4321: a0 = a0 + 0x621\n  4325: a1 = 0x40\n  4328: ra = 100, jump @17\n      : @129 [@dyn 50] (gas: 31)\n  4333: a1 = s1 + 0x7ff\n  4337: a1 = a1 + 0x139\n  4341: a2 = u64 [a1 + 0x500]\n  4345: u64 [s1 + 0x190] = a2\n  4349: a3 = u64 [a1 + 0x4f8]\n  4353: u64 [s1 + 0x188] = a3\n  4357: a5 = u64 [a1 + 0x4f0]\n  4361: u64 [s1 + 0x180] = a5\n  4365: a4 = u64 [a1 + 0x4e8]\n  4369: u64 [s1 + 0x1b0] = a4\n  4373: a0 = u64 [s1 + 0x198]\n  4377: u64 [a1 + 0x4a0] = a0\n  4381: a0 = u64 [s1 + 0x1a0]\n  4385: u64 [a1 + 0x498] = a0\n  4389: a0 = u64 [s1 + 0x1a8]\n  4393: u64 [a1 + 0x490] = a0\n  4397: a0 = u64 [s1 + 0x1b8]\n  4401: u64 [a1 + 0x488] = a0\n  4405: a0 = a1 + 0x400\n  4409: u64 [a0 + 0xc0] = a2\n  4413: u64 [a0 + 0xb8] = a3\n  4417: u64 [a0 + 0xb0] = a5\n  4421: a3 = a1\n  4423: a0 = s1 + 0x7ff\n  4427: a0 = a0 + 0x601\n  4431: a1 = s1 + 0x7ff\n  4435: a1 = a1 + 0x5e1\n  4439: a2 = s1 + 0x7ff\n  4443: a2 = a2 + 0x5c1\n  4447: u64 [a3 + 0x4a8] = a4\n  4451: ra = 102, jump @1084\n      : @130 [@dyn 51] (gas: 14)\n  4456: a4 = s1 + 0x100\n  4460: a1 = u64 [a4 + 0x80]\n  4464: a2 = a1\n  4466: a0 = u64 [a4 + 0x90]\n  4470: a0 = a0 | a1\n  4473: a3 = u64 [a4 + 0x88]\n  4477: a1 = u64 [a4 + 0xb0]\n  4481: a1 = a1 | a3\n  4484: a1 = a1 | a0\n  4487: a1 = a1 >> 0x20\n  4490: a0 = a0 | a3\n  4493: a0 = a0 << 0x20\n  4496: a0 = a0 | a1\n  4499: jump @132 if a0 == 0\n      : @131 (gas: 1)\n  4502: jump @929\n      : @132 (gas: 37)\n  4505: t0 = a3\n  4507: a1 = s1 + 0x7ff\n  4511: a1 = a1 + 0x139\n  4515: a4 = a1 + 0x400\n  4519: a0 = u64 [a4 + 0xd0]\n  4523: a3 = u64 [a4 + 0xe0]\n  4527: u64 [s1 + 0x1b8] = a3\n  4531: t1 = u64 [a1 + 0x4c8]\n  4535: a3 = u64 [a4 + 0xd8]\n  4539: ra = a0 ^ a2\n  4542: a5 = a0 <u a2\n  4545: t2 = u64 [s1 + 0x1b0]\n  4549: a1 = t1 <u t2\n  4552: a5 = a1 if ra == 0\n  4555: a4 = a3 - t0\n  4558: ra = a4 - a5\n  4561: a4 = a4 <u a5\n  4564: u64 [s1 + 0x1a8] = a4\n  4568: a3 = a3 <u t0\n  4571: a5 = u64 [s1 + 0x190]\n  4575: a4 = u64 [s1 + 0x1b8]\n  4579: a5 = a4 - a5\n  4582: a5 = a5 - a3\n  4585: a3 = u64 [s1 + 0x1a8]\n  4589: a5 = a5 - a3\n  4592: a0 = a0 - a2\n  4595: a0 = a0 - a1\n  4598: a1 = t1 - t2\n  4601: a0 = a0 | a5\n  4604: a2 = a1\n  4606: a1 = a1 | ra\n  4609: a1 = a1 | a0\n  4612: a0 = a0 | ra\n  4615: a1 = a1 >> 0x20\n  4618: a0 = a0 << 0x20\n  4621: a0 = a0 | a1\n  4624: jump @134 if a0 == 0\n      : @133 (gas: 1)\n  4627: jump @929\n      : @134 (gas: 5)\n  4630: a0 = u64 [s1 + 0x1b0]\n  4634: a1 = a2\n  4636: u64 [s1 + 0x1b8] = a2\n  4640: ra = 0x112\n  4644: jump @26\n      : @135 (gas: 11)\n  4647: u64 [a2 + 832] = 0\n  4651: u64 [a2 + 824] = 0\n  4655: u64 [a2 + 816] = 0\n  4659: u64 [a2 + 808] = 0\n  4663: a0 = s1 + 0x2000\n  4667: i32 a0 = a0 + 0x460\n  4671: ra = 0x68\n  4674: ecalli 10 // 'value_transferred'\n  4676: a0 = 0x2000\n  4680: t0 = 0x6a\n  4683: jump @1214\n      : @136 [@dyn 52] (gas: 2)\n  4687: a0 = 0x2000\n  4691: t0 = 106, jump @1214\n      : @137 [@dyn 53] (gas: 8)\n  4697: a0 = u64 [a4 + 0x38]\n  4700: a1 = u64 [a4 + 0x40]\n  4703: a2 = u64 [a4 + 0x30]\n  4706: a3 = u64 [a4 + 0x28]\n  4709: a1 = a1 | a2\n  4712: a0 = a0 | a3\n  4715: a0 = a0 | a1\n  4718: jump @139 if a0 == 0\n      : @138 (gas: 1)\n  4721: jump @936\n      : @139 (gas: 3)\n  4724: a0 = u64 [s1 + 0x1b8]\n  4728: a0 = i32 [a0]\n  4730: jump @141 if a0 >u 35\n      : @140 (gas: 1)\n  4734: jump @937\n      : @141 (gas: 21)\n  4737: a0 = s1 + 0x2000\n  4741: i32 a0 = a0 + 0x480\n  4745: a1 = 0x4\n  4748: ecalli 1 // 'call_data_load'\n  4750: a1 = s1 + 0x2138\n  4754: a2 = a1 + 0x300\n  4758: a0 = u64 [a2 + 0x60]\n  4761: u64 [s1 + 0x1a8] = a0\n  4765: a0 = u64 [a2 + 0x58]\n  4768: u64 [s1 + 0x1b8] = a0\n  4772: a0 = u64 [a2 + 0x50]\n  4775: u64 [s1 + 0x1a0] = a0\n  4779: a0 = u64 [a2 + 0x48]\n  4782: u64 [s1 + 0x198] = a0\n  4786: u64 [a1 + 896] = 0\n  4790: u64 [a1 + 888] = 0\n  4794: u64 [a1 + 880] = 0\n  4798: u64 [a2 + 104] = 0x1\n  4802: a0 = s1 + 0x280\n  4806: a1 = s1 + 0x24a0\n  4810: ra = 108, jump @21\n      : @142 [@dyn 54] (gas: 21)\n  4815: t2 = u64 [s1 + 0x1a8]\n  4819: t1 = u64 [s1 + 0x1a0]\n  4823: t0 = u64 [s1 + 0x198]\n  4827: a2 = s1 + 0x200\n  4831: a0 = u64 [a2 + 0x98]\n  4835: a1 = u64 [a2 + 0x80]\n  4839: ra = u64 [s1 + 0x290]\n  4843: a3 = u64 [a2 + 0x88]\n  4847: a4 = t2 ^ a0\n  4850: a0 = t2 <u a0\n  4853: a2 = u64 [s1 + 0x1b8]\n  4857: a5 = a2 <u ra\n  4860: a5 = a0 if a4 != 0\n  4863: a0 = t1 ^ a3\n  4866: a3 = t1 <u a3\n  4869: a1 = t0 <u a1\n  4872: a1 = a3 if a0 != 0\n  4875: a0 = a2 ^ ra\n  4878: a0 = a0 | a4\n  4881: a1 = a5 if a0 != 0\n  4884: jump @144 if a1 != 0\n      : @143 (gas: 1)\n  4887: jump @938\n      : @144 (gas: 11)\n  4890: a0 = sp + 0xffffffffffffffe0\n  4893: a0 = a0 & 0xffffffffffffffe0\n  4896: u64 [s1 + 0x1b0] = a0\n  4900: sp = a0\n  4902: u64 [s1 + 0x238] = t2\n  4906: u64 [s1 + 0x230] = a2\n  4910: u64 [s1 + 0x228] = t1\n  4914: a0 = s1 + 0x240\n  4918: a1 = s1 + 0x220\n  4922: u64 [s1 + 0x220] = t0\n  4926: ra = 110, jump @983\n      : @145 [@dyn 55] (gas: 20)\n  4931: a0 = u64 [s1 + 0x278]\n  4935: u64 [s1 + 0x180] = a0\n  4939: a0 = u64 [s1 + 0x270]\n  4943: u64 [s1 + 0x190] = a0\n  4947: a0 = u64 [s1 + 0x268]\n  4951: u64 [s1 + 0x188] = a0\n  4955: a0 = u64 [s1 + 0x260]\n  4959: u64 [s1 + 0x198] = a0\n  4963: a0 = u64 [s1 + 0x250]\n  4967: a1 = u64 [s1 + 0x258]\n  4971: a2 = u64 [s1 + 0x240]\n  4975: a3 = u64 [s1 + 0x248]\n  4979: a4 = u64 [s1 + 0x1b0]\n  4983: u64 [a4 + 0x10] = a0\n  4986: u64 [a4 + 0x18] = a1\n  4989: u64 [a4] = a2\n  4991: u64 [a4 + 0x8] = a3\n  4994: a1 = a4\n  4996: a0 = s1 + 0x200\n  5000: ra = 112, jump @21\n      : @146 [@dyn 56] (gas: 12)\n  5005: a1 = s1 + 0x200\n  5009: a0 = u64 [a1 + 0x18]\n  5012: u64 [s1 + 0x1b8] = a0\n  5016: a0 = u64 [a1 + 0x10]\n  5019: u64 [s1 + 0x1b0] = a0\n  5023: a0 = u64 [a1 + 0x8]\n  5026: u64 [s1 + 0x1a0] = a0\n  5030: a0 = u64 [a1]\n  5032: u64 [s1 + 0x1a8] = a0\n  5036: a0 = s1 + 0x1e0\n  5040: a1 = 0x40\n  5043: ra = 114, jump @17\n      : @147 [@dyn 57] (gas: 13)\n  5048: a4 = s1 + 0x100\n  5052: a0 = u64 [a4 + 0xf8]\n  5056: a1 = u64 [a4 + 0xf0]\n  5060: a2 = u64 [a4 + 0xe8]\n  5064: a3 = u64 [a4 + 0xe0]\n  5068: a0 = a0 | a2\n  5071: a2 = a3 | a1\n  5074: a2 = a2 | a0\n  5077: a2 = a2 >> 0x20\n  5080: a0 = a0 | a1\n  5083: a0 = a0 << 0x20\n  5086: a0 = a0 | a2\n  5089: jump @149 if a0 == 0\n      : @148 (gas: 1)\n  5092: jump @929\n      : @149 (gas: 30)\n  5095: a0 = u64 [s1 + 0x198]\n  5099: a2 = a0 >> 0x3d\n  5102: a5 = u64 [s1 + 0x188]\n  5106: a1 = a5 << 0x3\n  5109: t1 = a1 | a2\n  5112: a4 = u64 [s1 + 0x190]\n  5116: a1 = a4 >> 0x3d\n  5119: a2 = u64 [s1 + 0x180]\n  5123: a2 = a2 << 0x3\n  5126: a1 = a1 | a2\n  5129: a2 = a5 >> 0x3d\n  5132: u64 [s1 + 0x188] = a3\n  5136: a3 = a4 << 0x3\n  5139: a2 = a2 | a3\n  5142: a3 = a0 << 0x3\n  5145: u64 [s1 + 0x190] = a3\n  5149: a5 = a2 >u 0\n  5151: a4 = a1 >u 0\n  5153: a4 = a5 if a1 == 0\n  5156: t0 = t1 >u 0\n  5158: a5 = a3 <u 0x100\n  5162: a5 = a5 ^ 0x1\n  5165: a5 = t0 if t1 != 0\n  5168: a1 = a1 | a2\n  5171: a5 = a4 if a1 != 0\n  5174: u64 [s1 + 0x180] = a5\n  5178: i32 a2 = a3 + 0xffffffffffffff80\n  5181: a0 = u64 [s1 + 0x1b0]\n  5185: a1 = u64 [s1 + 0x1b8]\n  5189: ra = 116, jump @1216\n      : @150 [@dyn 58] (gas: 8)\n  5195: u64 [s1 + 0x178] = a0\n  5199: u64 [s1 + 0x170] = a1\n  5203: a0 = u64 [s1 + 0x198]\n  5207: i32 a2 = a0 << 0x3\n  5210: u64 [s1 + 0x198] = a2\n  5214: a0 = u64 [s1 + 0x1a8]\n  5218: a1 = u64 [s1 + 0x1a0]\n  5222: ra = 118, jump @1216\n      : @151 [@dyn 59] (gas: 7)\n  5228: u64 [s1 + 0x160] = a0\n  5232: u64 [s1 + 0x168] = a1\n  5236: a1 = u64 [s1 + 0x190]\n  5240: i32 a2 = 0x80 - a1\n  5244: a0 = u64 [s1 + 0x1b0]\n  5248: a1 = u64 [s1 + 0x1b8]\n  5252: ra = 120, jump @1221\n      : @152 [@dyn 60] (gas: 21)\n  5258: a2 = u64 [s1 + 0x168]\n  5262: a2 = a2 | a1\n  5265: a1 = u64 [s1 + 0x190]\n  5269: a3 = a1 <u 0x80\n  5273: u64 [s1 + 0x168] = a3\n  5277: a4 = u64 [s1 + 0x170]\n  5281: a2 = a4 if a3 == 0\n  5284: a4 = u64 [s1 + 0x1a0]\n  5288: a2 = a4 if a1 == 0\n  5291: u64 [s1 + 0x1a0] = a2\n  5295: a2 = u64 [s1 + 0x160]\n  5299: a0 = a0 | a2\n  5302: a2 = u64 [s1 + 0x178]\n  5306: a0 = a2 if a3 == 0\n  5309: a2 = u64 [s1 + 0x1a8]\n  5313: a0 = a2 if a1 == 0\n  5316: u64 [s1 + 0x1a8] = a0\n  5320: a0 = u64 [s1 + 0x1b0]\n  5324: a1 = u64 [s1 + 0x1b8]\n  5328: a2 = u64 [s1 + 0x198]\n  5332: ra = 122, jump @1216\n      : @153 [@dyn 61] (gas: 19)\n  5338: a1 = 0\n  5340: a2 = u64 [s1 + 0x168]\n  5344: a0 = 0 if a2 == 0\n  5346: a0 = a0 << 0x20\n  5349: a0 = a0 >> 0x20\n  5352: a2 = u64 [s1 + 0x180]\n  5356: a4 = u64 [s1 + 0x1a8]\n  5360: a4 = 0 if a2 != 0\n  5362: a3 = u64 [s1 + 0x1a0]\n  5366: a3 = 0 if a2 != 0\n  5368: a0 = 0 if a2 != 0\n  5370: a1 = 0 if a2 == 0\n  5372: u64 [s1 + 0x1d8] = a1\n  5376: u64 [s1 + 0x1d0] = a0\n  5380: u64 [s1 + 0x1c8] = a3\n  5384: a1 = s1 + 0x1c0\n  5388: u64 [s1 + 0x1c0] = a4\n  5392: a0 = u64 [s1 + 0x188]\n  5396: ra = 124, jump @19\n      : @154 [@dyn 62] (gas: 3)\n  5401: a1 = 0x20\n  5404: a0 = u64 [s1 + 0x188]\n  5408: ra = 126, jump @26\n      : @155 [@dyn 63] (gas: 5)\n  5413: i32 a1 = a0 + 0\n  5415: a2 = 0x20\n  5418: a0 = 0\n  5420: ecalli 7 // 'seal_return'\n  5422: fallthrough\n      : @156 (gas: 11)\n  5423: u64 [a2 + 928] = 0\n  5427: u64 [a2 + 920] = 0\n  5431: u64 [a2 + 912] = 0\n  5435: u64 [a2 + 904] = 0\n  5439: a0 = s1 + 0x2000\n  5443: i32 a0 = a0 + 0x4c0\n  5447: ra = 0x80\n  5451: ecalli 10 // 'value_transferred'\n  5453: a0 = 0x2000\n  5457: t0 = 0x82\n  5461: jump @1214\n      : @157 [@dyn 64] (gas: 2)\n  5465: a0 = 0x2000\n  5469: t0 = 130, jump @1214\n      : @158 [@dyn 65] (gas: 8)\n  5476: a0 = u64 [a4 + 0x98]\n  5480: a1 = u64 [a4 + 0xa0]\n  5484: a2 = u64 [a4 + 0x90]\n  5488: a3 = u64 [a4 + 0x88]\n  5492: a1 = a1 | a2\n  5495: a0 = a0 | a3\n  5498: a0 = a0 | a1\n  5501: jump @160 if a0 == 0\n      : @159 (gas: 1)\n  5504: jump @939\n      : @160 (gas: 13)\n  5507: a0 = u64 [s1 + 0x1b8]\n  5511: a0 = u32 [a0]\n  5513: a2 = s1 + 0x7ff\n  5517: a2 = a2 + 0x139\n  5521: u64 [a2 + 992] = 0\n  5525: u64 [a2 + 984] = 0\n  5529: u64 [a2 + 0x3c8] = a0\n  5533: a0 = s1 + 0x7ff\n  5537: a0 = a0 + 0x521\n  5541: a1 = s1 + 0x7ff\n  5545: a1 = a1 + 0x501\n  5549: u64 [a2 + 976] = 0\n  5553: ra = 132, jump @1041\n      : @161 [@dyn 66] (gas: 52)\n  5559: a1 = s1 + 0x7ff\n  5563: a1 = a1 + 0x139\n  5567: a2 = a1 + 0x400\n  5571: a0 = u64 [a2]\n  5573: u64 [s1 + 0x1a8] = a0\n  5577: a3 = a1 + 0x300\n  5581: a0 = u64 [a3 + 0xf8]\n  5585: u64 [s1 + 0x1a0] = a0\n  5589: a0 = u64 [a3 + 0xf0]\n  5593: u64 [s1 + 0x198] = a0\n  5597: a0 = u64 [a3 + 0xe8]\n  5601: u64 [s1 + 0x190] = a0\n  5605: a0 = u64 [a2 + 0x20]\n  5608: u64 [s1 + 0x188] = a0\n  5612: a0 = u64 [a2 + 0x18]\n  5615: u64 [s1 + 0x180] = a0\n  5619: a0 = u64 [a2 + 0x10]\n  5622: u64 [s1 + 0x178] = a0\n  5626: a0 = u64 [a2 + 0x8]\n  5629: u64 [s1 + 0x170] = a0\n  5633: a0 = u64 [a2 + 0x40]\n  5636: u64 [s1 + 0x168] = a0\n  5640: a0 = u64 [a2 + 0x38]\n  5643: u64 [s1 + 0x160] = a0\n  5647: a0 = u64 [a2 + 0x30]\n  5650: u64 [s1 + 0x158] = a0\n  5654: a0 = u64 [a2 + 0x28]\n  5657: u64 [s1 + 0x150] = a0\n  5661: a0 = u64 [a2 + 0x60]\n  5664: u64 [s1 + 0x148] = a0\n  5668: a0 = u64 [a2 + 0x58]\n  5671: u64 [s1 + 0x140] = a0\n  5675: a0 = u64 [a2 + 0x50]\n  5678: u64 [s1 + 0x138] = a0\n  5682: a0 = u64 [a2 + 0x48]\n  5685: u64 [s1 + 0x130] = a0\n  5689: a0 = u64 [a2 + 0x80]\n  5693: u64 [s1 + 0x128] = a0\n  5697: a0 = u64 [a2 + 0x78]\n  5700: u64 [s1 + 0xf0] = a0\n  5704: a0 = u64 [a2 + 0x70]\n  5707: u64 [s1 + 0xe8] = a0\n  5711: a0 = u64 [a2 + 0x68]\n  5714: u64 [s1 + 0xe0] = a0\n  5718: a0 = 0x30070\n  5723: u64 [s1 + 0x120] = a0\n  5727: i32 a0 = a0 + 0\n  5729: u64 [s1 + 0x108] = a0\n  5733: ra = 0x86\n  5737: ecalli 3 // 'caller'\n  5739: t0 = 0x88\n  5743: jump @1160\n      : @162 [@dyn 67] (gas: 1)\n  5746: t0 = 136, jump @1160\n      : @163 [@dyn 68] (gas: 9)\n  5752: u64 [a2 + 960] = 0\n  5756: a4 = a2 + 0x300\n  5760: u64 [a4 + 0xb8] = a1\n  5764: u64 [a4 + 0xb0] = a0\n  5768: a1 = s1 + 0x7ff\n  5772: a1 = a1 + 0x4e1\n  5776: u64 [a4 + 0xa8] = a3\n  5780: a0 = 0\n  5782: ra = 138, jump @19\n      : @164 [@dyn 69] (gas: 11)\n  5788: a0 = s1 + 0x7ff\n  5792: a0 = a0 + 0x139\n  5796: u64 [a0 + 928] = 0\n  5800: u64 [a0 + 920] = 0\n  5804: u64 [a0 + 912] = 0\n  5808: a2 = a0\n  5810: a0 = 0x20\n  5813: a1 = s1 + 0x7ff\n  5817: a1 = a1 + 0x4c1\n  5821: u64 [a2 + 904] = 0\n  5825: ra = 140, jump @19\n      : @165 [@dyn 70] (gas: 4)\n  5831: a2 = 0x2005c\n  5836: a0 = i32 [0x2005c]\n  5841: a1 = 0x3f\n  5844: jump @167 if a1 <u a0\n      : @166 (gas: 4)\n  5847: u32 [0x2005c] = 0x40\n  5853: u64 [s1 + 0x100] = a2\n  5857: t0 = 0x8e\n  5861: jump @1197\n      : @167 (gas: 2)\n  5865: u64 [s1 + 0x100] = a2\n  5869: t0 = 142, jump @1197\n      : @168 [@dyn 71] (gas: 9)\n  5876: a0 = 0x20070\n  5881: i32 a0 = a0 + 0\n  5883: i32 a2 = a2 + 0\n  5885: a1 = 0x40\n  5888: u64 [s1 + 0xf8] = a0\n  5892: ra = 0x90\n  5896: ecalli 6 // 'hash_keccak_256'\n  5898: t0 = 0x92\n  5902: jump @1185\n      : @169 [@dyn 72] (gas: 1)\n  5906: t0 = 146, jump @1185\n      : @170 [@dyn 73] (gas: 9)\n  5913: a5 = a4 + 0x300\n  5917: u64 [a5 + 0xc0] = a3\n  5921: u64 [a5 + 0xb8] = a2\n  5925: u64 [a5 + 0xb0] = a1\n  5929: u64 [a5 + 0xa8] = a0\n  5933: a0 = s1 + 0x7ff\n  5937: a0 = a0 + 0x4a1\n  5941: a1 = s1 + 0x24e0\n  5945: ra = 148, jump @21\n      : @171 [@dyn 74] (gas: 12)\n  5951: a2 = s1 + 0x7ff\n  5955: a2 = a2 + 0x139\n  5959: a0 = u32 [a2 + 0x378]\n  5963: a1 = u64 [a2 + 0x368]\n  5967: a2 = u64 [a2 + 0x370]\n  5971: a0 = a0 | a1\n  5974: a0 = a0 | a2\n  5977: u64 [s1 + 0x1b8] = a0\n  5981: a0 = s1 + 0x7ff\n  5985: a0 = a0 + 0x481\n  5989: a1 = 0x40\n  5992: ra = 150, jump @17\n      : @172 [@dyn 75] (gas: 12)\n  5998: a5 = s1 + 0x7ff\n  6002: a5 = a5 + 0x139\n  6006: a0 = a5 + 0x300\n  6010: a4 = u64 [a0 + 0x60]\n  6013: a1 = u64 [a0 + 0x58]\n  6016: a2 = u64 [a0 + 0x48]\n  6019: t1 = u64 [a5 + 0x350]\n  6023: t2 = a2 | a1\n  6026: a3 = t1 | a4\n  6029: t0 = a1 | a4\n  6032: a0 = u64 [s1 + 0x1b8]\n  6036: jump @174 if a0 == 0\n      : @173 (gas: 1)\n  6039: jump @318\n      : @174 (gas: 14)\n  6042: u64 [s1 + 0x1b0] = t0\n  6046: u64 [a5 + 0x2a8] = a2\n  6050: u64 [a5 + 0x2b0] = t1\n  6054: u64 [a5 + 0x2b8] = a1\n  6058: u64 [s1 + 0x1b8] = t2\n  6062: a0 = s1 + 0x7ff\n  6066: a0 = a0 + 0x3e1\n  6070: u64 [s1 + 0xc8] = a4\n  6074: u64 [a5 + 0x2c0] = a4\n  6078: u64 [s1 + 0x118] = a2\n  6082: u64 [s1 + 0x110] = t1\n  6086: u64 [s1 + 0xd8] = a1\n  6090: u64 [s1 + 0xd0] = a3\n  6094: ra = 152, jump @995\n      : @175 [@dyn 76] (gas: 4)\n  6100: a0 = u64 [s1 + 0x108]\n  6104: ra = 0x9a\n  6108: ecalli 3 // 'caller'\n  6110: fallthrough\n      : @176 [@dyn 77] (gas: 9)\n  6111: a0 = u64 [s1 + 0x1b8]\n  6115: a2 = u64 [s1 + 0xd0]\n  6119: a0 = a0 | a2\n  6122: a0 = a0 >> 0x20\n  6125: a1 = u64 [s1 + 0xd8]\n  6129: a1 = a1 | a2\n  6132: a1 = a1 << 0x20\n  6135: a0 = a0 | a1\n  6138: jump @178 if a0 == 0\n      : @177 (gas: 1)\n  6141: jump @929\n      : @178 (gas: 1)\n  6144: t0 = 156, jump @1160\n      : @179 [@dyn 78] (gas: 9)\n  6150: u64 [a2 + 672] = 0\n  6154: a4 = a2 + 0x200\n  6158: u64 [a4 + 0x98] = a1\n  6162: u64 [a4 + 0x90] = a0\n  6166: a1 = s1 + 0x7ff\n  6170: a1 = a1 + 0x3c1\n  6174: u64 [a4 + 0x88] = a3\n  6178: a0 = u64 [s1 + 0x118]\n  6182: ra = 158, jump @19\n      : @180 [@dyn 79] (gas: 10)\n  6188: a2 = 0x100000000\n  6198: a0 = 0xffffffe0\n  6208: a4 = s1 + 0x100\n  6212: a3 = u64 [a4 + 0x18]\n  6215: a0 = a3 <u a0\n  6218: a1 = u64 [a4 + 0x10]\n  6221: a0 = 0 if a1 != 0\n  6223: a1 = u64 [a4 + 0xb0]\n  6227: a0 = 0 if a1 != 0\n  6229: jump @182 if a0 != 0\n      : @181 (gas: 1)\n  6232: jump @929\n      : @182 (gas: 17)\n  6235: i32 a0 = a3 + 0x20\n  6238: a5 = s1 + 0x7ff\n  6242: a5 = a5 + 0x139\n  6246: a1 = u64 [s1 + 0x190]\n  6250: a3 = a5 + 0x200\n  6254: u64 [a3 + 0x68] = a1\n  6257: a1 = u64 [s1 + 0x198]\n  6261: u64 [a3 + 0x70] = a1\n  6264: a1 = u64 [s1 + 0x1a0]\n  6268: u64 [a3 + 0x78] = a1\n  6271: a1 = s1 + 0x7ff\n  6275: a1 = a1 + 0x3a1\n  6279: a4 = u64 [s1 + 0x1a8]\n  6283: u64 [a3 + 0x80] = a4\n  6287: u64 [s1 + 0x1a8] = a0\n  6291: u64 [s1 + 0x1b8] = a2\n  6295: ra = 160, jump @19\n      : @183 [@dyn 80] (gas: 10)\n  6301: a3 = s1 + 0x100\n  6305: a1 = u64 [a3 + 0x18]\n  6308: a0 = u64 [a3 + 0xb8]\n  6312: a0 = a0 + 0xffffffffffffffc0\n  6315: a0 = a1 <u a0\n  6318: a2 = u64 [a3 + 0x10]\n  6321: a0 = 0 if a2 != 0\n  6323: a2 = u64 [a3 + 0xb0]\n  6327: a0 = 0 if a2 != 0\n  6329: jump @185 if a0 != 0\n      : @184 (gas: 1)\n  6332: jump @929\n      : @185 (gas: 16)\n  6335: i32 a0 = a1 + 0x40\n  6338: a1 = u64 [s1 + 0x170]\n  6342: a3 = s1 + 0x7ff\n  6346: a3 = a3 + 0x139\n  6350: a4 = a3 + 0x200\n  6354: u64 [a4 + 0x48] = a1\n  6357: a1 = u64 [s1 + 0x178]\n  6361: u64 [a4 + 0x50] = a1\n  6364: a1 = u64 [s1 + 0x180]\n  6368: u64 [a4 + 0x58] = a1\n  6371: a1 = s1 + 0x7ff\n  6375: a1 = a1 + 0x381\n  6379: a2 = u64 [s1 + 0x188]\n  6383: u64 [a4 + 0x60] = a2\n  6386: u64 [s1 + 0xd0] = a0\n  6390: ra = 162, jump @19\n      : @186 [@dyn 81] (gas: 10)\n  6396: a4 = s1 + 0x100\n  6400: a1 = u64 [a4 + 0x18]\n  6403: a3 = 0x100000000\n  6413: a0 = 0xffffffa0\n  6423: a0 = a1 <u a0\n  6426: a2 = u64 [a4 + 0x10]\n  6429: a0 = 0 if a2 != 0\n  6431: a2 = u64 [a4 + 0xb0]\n  6435: a0 = 0 if a2 != 0\n  6437: jump @188 if a0 != 0\n      : @187 (gas: 1)\n  6440: jump @929\n      : @188 (gas: 18)\n  6443: i32 a0 = a1 + 0x60\n  6446: a1 = u64 [s1 + 0x150]\n  6450: a2 = s1 + 0x7ff\n  6454: a2 = a2 + 0x139\n  6458: u64 [s1 + 0x1b8] = a3\n  6462: a3 = a2\n  6464: a4 = a2 + 0x200\n  6468: u64 [a4 + 0x28] = a1\n  6471: a1 = u64 [s1 + 0x158]\n  6475: u64 [a4 + 0x30] = a1\n  6478: a1 = u64 [s1 + 0x160]\n  6482: u64 [a4 + 0x38] = a1\n  6485: a1 = s1 + 0x7ff\n  6489: a1 = a1 + 0x361\n  6493: a2 = u64 [s1 + 0x168]\n  6497: u64 [a3 + 0x240] = a2\n  6501: u64 [s1 + 0xc0] = a0\n  6505: ra = 164, jump @19\n      : @189 [@dyn 82] (gas: 10)\n  6511: a4 = s1 + 0x100\n  6515: a3 = u64 [a4 + 0xb0]\n  6519: a1 = u64 [a4 + 0x18]\n  6522: a0 = u64 [a4 + 0xb8]\n  6526: a0 = a0 + 0xffffffffffffff80\n  6529: a0 = a1 <u a0\n  6532: a2 = u64 [a4 + 0x10]\n  6535: a0 = 0 if a2 != 0\n  6537: a0 = 0 if a3 != 0\n  6539: jump @191 if a0 != 0\n      : @190 (gas: 1)\n  6542: jump @929\n      : @191 (gas: 16)\n  6545: i32 a0 = a1 + 0x80\n  6549: a1 = u64 [s1 + 0x130]\n  6553: a4 = s1 + 0x7ff\n  6557: a4 = a4 + 0x139\n  6561: a3 = a4 + 0x200\n  6565: u64 [a3 + 0x8] = a1\n  6568: a1 = u64 [s1 + 0x138]\n  6572: u64 [a3 + 0x10] = a1\n  6575: a1 = u64 [s1 + 0x140]\n  6579: u64 [a3 + 0x18] = a1\n  6582: a1 = s1 + 0x7ff\n  6586: a1 = a1 + 0x341\n  6590: a2 = u64 [s1 + 0x148]\n  6594: u64 [a3 + 0x20] = a2\n  6597: u64 [s1 + 0xa8] = a0\n  6601: ra = 166, jump @19\n      : @192 [@dyn 83] (gas: 9)\n  6607: a3 = s1 + 0x100\n  6611: a1 = u64 [a3 + 0x18]\n  6614: a0 = 0xffffff60\n  6624: a0 = a1 <u a0\n  6627: a2 = u64 [a3 + 0x10]\n  6630: a0 = 0 if a2 != 0\n  6632: a2 = u64 [a3 + 0xb0]\n  6636: a0 = 0 if a2 != 0\n  6638: jump @194 if a0 != 0\n      : @193 (gas: 1)\n  6641: jump @929\n      : @194 (gas: 18)\n  6644: a0 = 0xffffffff\n  6654: u64 [s1 + 0xa0] = a0\n  6658: i32 a0 = a1 + 0xa0\n  6662: a1 = u64 [s1 + 0xe0]\n  6666: a3 = s1 + 0x7ff\n  6670: a3 = a3 + 0x139\n  6674: a2 = a3 + 0x100\n  6678: u64 [a2 + 0xe8] = a1\n  6682: a1 = u64 [s1 + 0xe8]\n  6686: u64 [a2 + 0xf0] = a1\n  6690: a1 = u64 [s1 + 0xf0]\n  6694: u64 [a2 + 0xf8] = a1\n  6698: a1 = s1 + 0x7ff\n  6702: a1 = a1 + 0x321\n  6706: a2 = u64 [s1 + 0x128]\n  6710: u64 [a3 + 0x200] = a2\n  6714: u64 [s1 + 0x78] = a0\n  6717: ra = 168, jump @19\n      : @195 [@dyn 84] (gas: 5)\n  6723: a0 = u64 [s1 + 0x108]\n  6727: ra = 0xaa\n  6731: ecalli 3 // 'caller'\n  6733: t0 = 0xac\n  6737: jump @1160\n      : @196 [@dyn 85] (gas: 1)\n  6740: t0 = 172, jump @1160\n      : @197 [@dyn 86] (gas: 9)\n  6746: u64 [a2 + 480] = 0\n  6750: a4 = a2 + 0x100\n  6754: u64 [a4 + 0xd8] = a1\n  6758: u64 [a4 + 0xd0] = a0\n  6762: a1 = s1 + 0x7ff\n  6766: a1 = a1 + 0x301\n  6770: u64 [a4 + 0xc8] = a3\n  6774: a0 = 0\n  6776: ra = 174, jump @19\n      : @198 [@dyn 87] (gas: 11)\n  6782: a0 = s1 + 0x7ff\n  6786: a0 = a0 + 0x139\n  6790: u64 [a0 + 448] = 0\n  6794: u64 [a0 + 440] = 0\n  6798: u64 [a0 + 432] = 0\n  6802: a2 = a0\n  6804: a0 = 0x20\n  6807: a1 = s1 + 0x7ff\n  6811: a1 = a1 + 0x2e1\n  6815: u64 [a2 + 424] = 0\n  6819: ra = 176, jump @19\n      : @199 [@dyn 88] (gas: 7)\n  6825: a0 = sp + 0xffffffffffffffe0\n  6828: a0 = a0 & 0xffffffffffffffe0\n  6831: u64 [s1 + 0x1b8] = a0\n  6835: sp = a0\n  6837: a2 = u64 [s1 + 0x100]\n  6841: a0 = i32 [a2]\n  6843: jump @201 if a0 >u 63\n      : @200 (gas: 2)\n  6847: u32 [a2 + 0] = 0x40\n  6850: fallthrough\n      : @201 (gas: 30)\n  6851: a0 = sp + 0xffffffffffffffe0\n  6854: a0 = a0 & 0xffffffffffffffe0\n  6857: u64 [s1 + 0x1b0] = a0\n  6861: sp = a0\n  6863: i32 a2 = a0 + 0\n  6865: a1 = 0x40\n  6868: a0 = u64 [s1 + 0xf8]\n  6872: ecalli 6 // 'hash_keccak_256'\n  6874: a3 = u64 [s1 + 0x1b0]\n  6878: a0 = u64 [a3 + 0x18]\n  6881: a1 = u64 [a3 + 0x10]\n  6884: a2 = u64 [a3 + 0x8]\n  6887: a3 = u64 [a3]\n  6889: a5 = reverse a0\n  6891: u64 [s1 + 0xb8] = a5\n  6895: a4 = reverse a1\n  6897: u64 [s1 + 0xe0] = a4\n  6901: a1 = reverse a2\n  6903: u64 [s1 + 0xf0] = a1\n  6907: a0 = reverse a3\n  6909: u64 [s1 + 0xe8] = a0\n  6913: a2 = u64 [s1 + 0x1b8]\n  6917: u64 [a2 + 0x18] = a0\n  6920: u64 [a2 + 0x10] = a1\n  6923: u64 [a2 + 0x8] = a4\n  6926: u64 [a2] = a5\n  6928: a0 = s1 + 0x7ff\n  6932: a0 = a0 + 0x2c1\n  6936: a1 = u64 [s1 + 0x118]\n  6940: ra = 178, jump @17\n      : @202 [@dyn 89] (gas: 17)\n  6946: a2 = s1 + 0x7ff\n  6950: a2 = a2 + 0x139\n  6954: a3 = a2 + 0x100\n  6958: a0 = u64 [a3 + 0x88]\n  6962: a1 = u64 [a3 + 0x90]\n  6966: a2 = u64 [a3 + 0x98]\n  6970: a0 = a0 & 0xffffffffffffffff\n  6973: u64 [s1 + 0x1b0] = a0\n  6977: a1 = a1 & 0xffffffffffffffff\n  6980: u64 [s1 + 0x1a0] = a1\n  6984: a0 = u64 [s1 + 0xa0]\n  6988: a0 = a0 & a2\n  6991: u64 [s1 + 0x198] = a0\n  6995: a0 = s1 + 0x7ff\n  6999: a0 = a0 + 0x2a1\n  7003: a1 = u64 [s1 + 0x1b8]\n  7007: ra = 180, jump @21\n      : @203 [@dyn 90] (gas: 18)\n  7013: a1 = s1 + 0x7ff\n  7017: a1 = a1 + 0x139\n  7021: a0 = u32 [a1 + 0x17c]\n  7025: a0 = a0 << 0x20\n  7028: a1 = u64 [a1 + 0x180]\n  7032: a2 = u64 [s1 + 0x198]\n  7036: a0 = a0 | a2\n  7039: a2 = s1 + 0x2138\n  7043: a3 = u64 [s1 + 0x1a0]\n  7047: a4 = a2 + 0x300\n  7051: u64 [a4 + 0xd0] = a3\n  7055: a3 = u64 [s1 + 0x1b0]\n  7059: u64 [a4 + 0xc8] = a3\n  7063: u64 [a4 + 0xe0] = a1\n  7067: u64 [a4 + 0xd8] = a0\n  7071: a1 = s1 + 0x2500\n  7075: a0 = u64 [s1 + 0x1b8]\n  7079: ra = 182, jump @23\n      : @204 [@dyn 91] (gas: 28)\n  7085: a0 = sp + 0xffffffffffffffe0\n  7088: a1 = a0 & 0xffffffffffffffe0\n  7091: sp = a1\n  7093: a2 = u64 [s1 + 0xb8]\n  7097: a2 = a2 + 0x1\n  7100: a0 = a2 <u 0x1\n  7103: a3 = u64 [s1 + 0xe0]\n  7107: a3 = a3 + a0\n  7110: a0 = a2 | a3\n  7113: a0 = a0 <u 0x1\n  7116: a5 = u64 [s1 + 0xf0]\n  7120: a4 = a5 + a0\n  7123: a0 = a4 <u a5\n  7126: a5 = u64 [s1 + 0xe8]\n  7130: a0 = a0 + a5\n  7133: u64 [s1 + 0x168] = a0\n  7137: u64 [a1 + 0x18] = a0\n  7140: u64 [s1 + 0x158] = a4\n  7144: u64 [a1 + 0x10] = a4\n  7147: u64 [s1 + 0x160] = a3\n  7151: u64 [a1 + 0x8] = a3\n  7154: u64 [s1 + 0x98] = a1\n  7158: u64 [s1 + 0x170] = a2\n  7162: u64 [a1] = a2\n  7164: a0 = s1 + 0x7ff\n  7168: a0 = a0 + 0x281\n  7172: a1 = u64 [s1 + 0x1a8]\n  7176: ra = 184, jump @17\n      : @205 [@dyn 92] (gas: 19)\n  7182: a0 = s1 + 0x7ff\n  7186: a0 = a0 + 0x139\n  7190: a5 = a0 + 0x100\n  7194: a3 = u64 [a5 + 0x60]\n  7197: a4 = u64 [a5 + 0x58]\n  7200: a2 = u64 [a5 + 0x50]\n  7203: a1 = u64 [a5 + 0x48]\n  7206: a5 = s1 + 0x100\n  7210: u64 [a5 + 0x50] = a2\n  7213: u64 [a5 + 0x48] = a3\n  7216: a0 = a2 | a3\n  7219: a2 = a1 | a4\n  7222: a2 = a2 | a0\n  7225: a2 = a2 >> 0x20\n  7228: u64 [a5 + 0x40] = a4\n  7231: a0 = a0 | a4\n  7234: a0 = a0 << 0x20\n  7237: a0 = a0 | a2\n  7240: jump @207 if a0 == 0\n      : @206 (gas: 1)\n  7243: jump @929\n      : @207 (gas: 4)\n  7246: a0 = s1 + 0x7ff\n  7250: a0 = a0 + 0x261\n  7254: u64 [s1 + 0x138] = a1\n  7258: ra = 186, jump @17\n      : @208 [@dyn 93] (gas: 19)\n  7264: a2 = s1 + 0x7ff\n  7268: a2 = a2 + 0x139\n  7272: a0 = a2 + 0x100\n  7276: a4 = u64 [a0 + 0x40]\n  7279: a1 = u64 [a0 + 0x38]\n  7282: a3 = u64 [a0 + 0x30]\n  7285: a0 = a4 >u 0\n  7287: a5 = a1 >u 0\n  7289: a5 = a0 if a4 != 0\n  7292: u64 [s1 + 0x130] = a3\n  7296: a0 = a3 >u 0\n  7298: u64 [s1 + 0x90] = a1\n  7302: u64 [s1 + 0x128] = a4\n  7306: a1 = a1 | a4\n  7309: u64 [s1 + 0x68] = a0\n  7312: u64 [s1 + 0x70] = a5\n  7315: u64 [s1 + 0x88] = a1\n  7319: a0 = a5 if a1 != 0\n  7322: jump @210 if a0 == 0\n      : @209 (gas: 1)\n  7325: jump @952\n      : @210 (gas: 6)\n  7328: a0 = u64 [a2 + 0x128]\n  7332: u64 [s1 + 0xb0] = a0\n  7336: a0 = s1 + 0x7ff\n  7340: a0 = a0 + 0x241\n  7344: a1 = u64 [s1 + 0x98]\n  7348: ra = 188, jump @21\n      : @211 [@dyn 94] (gas: 16)\n  7354: a4 = s1 + 0x7ff\n  7358: a4 = a4 + 0x139\n  7362: a5 = a4 + 0x100\n  7366: a2 = u64 [a5 + 0x8]\n  7369: a0 = u64 [a5 + 0x10]\n  7372: a1 = u64 [a5 + 0x18]\n  7375: a3 = u64 [a5 + 0x20]\n  7378: u64 [a4 + 0xe0] = a3\n  7382: u64 [a4 + 0xd8] = a1\n  7386: u64 [a4 + 0xd0] = a0\n  7390: a0 = s1 + 0x7ff\n  7394: a0 = a0 + 0x221\n  7398: a1 = s1 + 0x7ff\n  7402: a1 = a1 + 0x201\n  7406: u64 [a4 + 0xc8] = a2\n  7410: ra = 190, jump @1120\n      : @212 [@dyn 95] (gas: 19)\n  7416: a0 = s1 + 0x7ff\n  7420: a0 = a0 + 0x139\n  7424: a3 = u64 [a0 + 0x100]\n  7428: a4 = u64 [a0 + 0xf8]\n  7432: a5 = u64 [a0 + 0xf0]\n  7436: t0 = u64 [a0 + 0xe8]\n  7440: a0 = a3 >u 0\n  7442: a1 = a4 >u 0\n  7444: a1 = a0 if a3 != 0\n  7447: a0 = a5 >u 0\n  7449: a2 = t0 <u 0x20\n  7452: a2 = a2 ^ 0x1\n  7455: a2 = a0 if a5 != 0\n  7458: a0 = a4 | a3\n  7461: a2 = a1 if a0 != 0\n  7464: a0 = u64 [s1 + 0xb0]\n  7468: a0 = a0 <u 0x20\n  7471: u64 [s1 + 0x80] = a0\n  7475: jump @214 if a2 != 0\n      : @213 (gas: 1)\n  7478: jump @582\n      : @214 (gas: 18)\n  7481: u64 [s1 + 0x190] = t0\n  7485: u64 [s1 + 0x198] = a5\n  7489: u64 [s1 + 0x1b0] = a4\n  7493: u64 [s1 + 0x1a0] = a3\n  7497: a0 = s1 + 0x7ff\n  7501: a0 = a0 + 0x139\n  7505: a1 = u64 [s1 + 0x170]\n  7509: u64 [a0 + 0xa8] = a1\n  7513: a1 = u64 [s1 + 0x160]\n  7517: u64 [a0 + 0xb0] = a1\n  7521: a1 = u64 [s1 + 0x158]\n  7525: u64 [a0 + 0xb8] = a1\n  7529: a1 = s1 + 0x7ff\n  7533: a1 = a1 + 0x1e1\n  7537: a2 = u64 [s1 + 0x168]\n  7541: u64 [a0 + 0xc0] = a2\n  7545: a0 = 0\n  7547: ra = 192, jump @19\n      : @215 [@dyn 96] (gas: 3)\n  7553: a2 = u64 [s1 + 0x100]\n  7557: a0 = i32 [a2]\n  7559: jump @217 if a0 >u 31\n      : @216 (gas: 2)\n  7563: u32 [a2 + 0] = 0x20\n  7566: fallthrough\n      : @217 (gas: 10)\n  7567: a0 = sp + 0xffffffffffffffe0\n  7570: a0 = a0 & 0xffffffffffffffe0\n  7573: u64 [s1 + 0x1a8] = a0\n  7577: sp = a0\n  7579: i32 a2 = a0 + 0\n  7581: a1 = 0x20\n  7584: a0 = u64 [s1 + 0xf8]\n  7588: ra = 0xc2\n  7592: ecalli 6 // 'hash_keccak_256'\n  7594: fallthrough\n      : @218 [@dyn 97] (gas: 15)\n  7595: a0 = u64 [s1 + 0xb0]\n  7599: a1 = a0 + 0x1f\n  7602: a0 = a1 <u a0\n  7605: a5 = u64 [s1 + 0x130]\n  7609: a2 = a5 + a0\n  7612: a3 = a2 <u a5\n  7615: a3 = a0 if a0 == 0\n  7618: a4 = u64 [s1 + 0x90]\n  7622: a3 = a3 + a4\n  7625: u64 [s1 + 0x188] = a3\n  7629: a3 = a3 << 0x3b\n  7632: a4 = a2 >> 0x5\n  7635: a4 = a4 | a3\n  7638: a0 = u64 [s1 + 0x1a8]\n  7642: t0 = 196, jump @1166\n      : @219 [@dyn 98] (gas: 4)\n  7648: a1 = u64 [s1 + 0x80]\n  7652: a1 = 0 if a5 != 0\n  7654: a3 = u64 [s1 + 0x88]\n  7658: t0 = 198, jump @1186\n      : @220 [@dyn 99] (gas: 29)\n  7664: t0 = t2 + a0\n  7667: a0 = t0 <u t2\n  7670: a5 = a2 + a0\n  7673: a4 = a4 + a5\n  7676: u64 [s1 + 0x1b8] = a4\n  7680: a5 = a4 ^ a2\n  7683: a3 = a4 <u a2\n  7686: a3 = a0 if a5 == 0\n  7689: u64 [s1 + 0x180] = a3\n  7693: a0 = u64 [s1 + 0x190]\n  7697: ra = a0 + 0x1f\n  7700: a4 = ra <u a0\n  7703: a3 = u64 [s1 + 0x198]\n  7707: a0 = a3 + a4\n  7710: a5 = a0 <u a3\n  7713: a5 = a4 if a4 == 0\n  7716: t1 = u64 [s1 + 0x1b0]\n  7720: t1 = t1 + a5\n  7723: a4 = t1 << 0x3b\n  7726: a3 = a0 >> 0x5\n  7729: a3 = a3 | a4\n  7732: a0 = a0 << 0x3b\n  7735: a4 = ra >> 0x5\n  7738: a0 = a0 | a4\n  7741: a0 = a0 + t2\n  7744: u64 [s1 + 0x198] = a0\n  7748: a0 = a0 <u t2\n  7751: t2 = t0\n  7753: t0 = 200, jump @1176\n      : @221 [@dyn 100] (gas: 4)\n  7759: a0 = u64 [s1 + 0x90]\n  7763: a0 = a4 <u a0\n  7766: a3 = u64 [s1 + 0x128]\n  7770: t0 = 202, jump @1178\n      : @222 [@dyn 101] (gas: 8)\n  7776: t0 = u64 [a4]\n  7778: a4 = u64 [a4 + 0x8]\n  7781: a0 = a0 >> 0x5\n  7784: a3 = 0 if a1 != 0\n  7786: a0 = 0 if a1 != 0\n  7788: a1 = reverse a4\n  7790: a4 = reverse t0\n  7792: t0 = 204, jump @1167\n      : @223 [@dyn 102] (gas: 25)\n  7798: t0 = a0 + a3\n  7801: a0 = u64 [s1 + 0x1b0]\n  7805: a0 = t1 <u a0\n  7808: a3 = u64 [s1 + 0x1a0]\n  7812: a0 = a0 + a3\n  7815: a3 = t1 >> 0x5\n  7818: a5 = a0 << 0x3b\n  7821: a3 = a3 | a5\n  7824: a0 = a0 >> 0x5\n  7827: a0 = a0 + a4\n  7830: a5 = s1 + 0x100\n  7834: a4 = u64 [a5 + 0xb8]\n  7838: a3 = a3 + a1\n  7841: a1 = a3 <u a1\n  7844: a0 = a0 + a1\n  7847: a2 = a2 + a3\n  7850: u64 [a5 + 0x88] = a2\n  7854: a1 = a2 <u a3\n  7857: a0 = a0 + a1\n  7860: u64 [a5 + 0x80] = a0\n  7864: a0 = sp + 0xffffffffffffffe0\n  7867: t1 = a0 & 0xffffffffffffffe0\n  7870: sp = t1\n  7872: u64 [s1 + 0x178] = t1\n  7876: fallthrough\n      : @224 (gas: 20)\n  7877: a0 = u64 [s1 + 0x198]\n  7881: a0 = t2 <u a0\n  7884: a2 = u64 [s1 + 0x190]\n  7888: a1 = a4 ^ a2\n  7891: a2 = a4 <u a2\n  7894: a2 = a0 if a1 == 0\n  7897: a5 = u64 [s1 + 0x188]\n  7901: a0 = ra <u a5\n  7904: a3 = u64 [s1 + 0x180]\n  7908: a1 = t0 ^ a3\n  7911: a3 = t0 <u a3\n  7914: a3 = a0 if a1 == 0\n  7917: a0 = ra ^ a5\n  7920: a0 = a0 | a1\n  7923: a3 = a2 if a0 == 0\n  7926: u64 [t1] = t2\n  7928: u64 [t1 + 0x8] = a4\n  7931: u64 [t1 + 0x10] = ra\n  7934: u64 [t1 + 0x18] = t0\n  7937: jump @226 if a3 != 0\n      : @225 (gas: 1)\n  7940: jump @582\n      : @226 (gas: 12)\n  7943: a0 = s1 + 0x2138\n  7947: u64 [a0 + 1024] = 0\n  7951: u64 [a0 + 1016] = 0\n  7955: u64 [a0 + 1008] = 0\n  7959: u64 [a0 + 1000] = 0\n  7963: a1 = s1 + 0x2520\n  7967: a0 = t1\n  7969: u64 [s1 + 0x1b0] = t2\n  7973: u64 [s1 + 0x1b8] = a4\n  7977: u64 [s1 + 0x1a8] = t0\n  7981: u64 [s1 + 0x1a0] = ra\n  7985: ra = 206, jump @23\n      : @227 [@dyn 103] (gas: 15)\n  7991: t1 = u64 [s1 + 0x178]\n  7995: t0 = u64 [s1 + 0x1a8]\n  7999: a4 = u64 [s1 + 0x1b8]\n  8003: t2 = u64 [s1 + 0x1b0]\n  8007: t2 = t2 + 0x1\n  8010: a0 = t2 <u 0x1\n  8013: a4 = a4 + a0\n  8016: a0 = t2 | a4\n  8019: a0 = a0 <u 0x1\n  8022: a1 = u64 [s1 + 0x1a0]\n  8026: a0 = a0 + a1\n  8029: a1 = a0 <u a1\n  8032: t0 = t0 + a1\n  8035: ra = a0\n  8037: jump @224\n      : @228 (gas: 9)\n  8040: a0 = s1 + 0x2938\n  8044: u64 [a0 + 608] = 0\n  8048: u64 [a0 + 600] = 0\n  8052: u64 [a0 + 592] = 0\n  8056: u64 [a0 + 584] = 0\n  8060: a0 = s1 + 0x3000\n  8064: i32 a0 = a0 + 0xfffffffffffffb80\n  8068: ecalli 10 // 'value_transferred'\n  8070: fallthrough\n      : @229 (gas: 10)\n  8071: a3 = s1 + 0x2938\n  8075: a4 = a3 + 0x200\n  8079: a0 = u64 [a4 + 0x58]\n  8082: a1 = u64 [a4 + 0x60]\n  8085: a2 = u64 [a4 + 0x50]\n  8088: a3 = u64 [a4 + 0x48]\n  8091: a1 = a1 | a2\n  8094: a0 = a0 | a3\n  8097: a0 = a0 | a1\n  8100: jump @231 if a0 == 0\n      : @230 (gas: 1)\n  8103: jump @940\n      : @231 (gas: 3)\n  8106: a0 = u64 [s1 + 0x1b8]\n  8110: a0 = i32 [a0]\n  8112: jump @233 if a0 >u 35\n      : @232 (gas: 1)\n  8116: jump @941\n      : @233 (gas: 5)\n  8119: a0 = s1 + 0x3000\n  8123: i32 a0 = a0 + 0xfffffffffffffba0\n  8127: a1 = 0x4\n  8130: ecalli 1 // 'call_data_load'\n  8132: fallthrough\n      : @234 (gas: 11)\n  8133: a4 = s1 + 0x2938\n  8137: a1 = u64 [a4 + 0x278]\n  8141: a0 = u64 [a4 + 0x280]\n  8145: a2 = 0x100000000\n  8155: a2 = a2 ^ a1\n  8158: a2 = a2 | a0\n  8161: a3 = a1 >> 0x20\n  8164: a3 = a3 <u 0x1\n  8167: a3 = 0 if a0 != 0\n  8169: a3 = 0 if a2 == 0\n  8171: jump @236 if a3 != 0\n      : @235 (gas: 1)\n  8174: jump @942\n      : @236 (gas: 11)\n  8177: a2 = u64 [a4 + 0x270]\n  8181: a3 = u64 [a4 + 0x268]\n  8185: a4 = s1 + 0x2138\n  8189: a5 = a4 + 0x200\n  8193: u64 [a5 + 0xc8] = a3\n  8197: u64 [a5 + 0xd0] = a2\n  8201: u64 [a5 + 0xd8] = a1\n  8205: a1 = s1 + 0x2400\n  8209: u64 [a5 + 0xe0] = a0\n  8213: a0 = 0\n  8215: ra = 208, jump @19\n      : @237 [@dyn 104] (gas: 9)\n  8221: a0 = s1 + 0x2138\n  8225: u64 [a0 + 704] = 0\n  8229: u64 [a0 + 696] = 0\n  8233: u64 [a0 + 688] = 0\n  8237: a2 = a0\n  8239: a0 = 0x20\n  8242: a1 = s1 + 0x23e0\n  8246: u64 [a2 + 680] = 0\n  8250: ra = 210, jump @19\n      : @238 [@dyn 105] (gas: 6)\n  8256: a0 = sp + 0xffffffffffffffe0\n  8259: a0 = a0 & 0xffffffffffffffe0\n  8262: u64 [s1 + 0x198] = a0\n  8266: sp = a0\n  8268: a1 = i32 [0x2005c]\n  8273: jump @240 if a1 >u 63\n      : @239 (gas: 4)\n  8277: a1 = 0x40\n  8280: u32 [0x2005c] = a1\n  8285: t0 = 0xd4\n  8289: jump @1197\n      : @240 (gas: 1)\n  8292: t0 = 212, jump @1197\n      : @241 [@dyn 106] (gas: 25)\n  8298: a0 = 0x20070\n  8303: i32 a0 = a0 + 0\n  8305: i32 a2 = a2 + 0\n  8307: a1 = 0x40\n  8310: ecalli 6 // 'hash_keccak_256'\n  8312: a3 = u64 [s1 + 0x1b8]\n  8316: a0 = u64 [a3 + 0x18]\n  8319: a1 = u64 [a3 + 0x10]\n  8322: a2 = u64 [a3 + 0x8]\n  8325: a3 = u64 [a3]\n  8327: a4 = reverse a0\n  8329: u64 [s1 + 0x1a8] = a4\n  8333: a5 = reverse a1\n  8335: u64 [s1 + 0x1b0] = a5\n  8339: a2 = reverse a2\n  8341: u64 [s1 + 0x1a0] = a2\n  8345: a0 = reverse a3\n  8347: u64 [s1 + 0x1b8] = a0\n  8351: a1 = u64 [s1 + 0x198]\n  8355: u64 [a1 + 0x18] = a0\n  8358: u64 [a1 + 0x10] = a2\n  8361: u64 [a1 + 0x8] = a5\n  8364: u64 [a1] = a4\n  8366: a0 = s1 + 0x23c0\n  8370: ra = 214, jump @21\n      : @242 [@dyn 107] (gas: 3)\n  8376: t0 = 0xd8\n  8380: a1 = s1 + 0x2138\n  8384: fallthrough\n      : @243 [@dyn 108] (gas: 10)\n  8385: a2 = a1 + 0x200\n  8389: a0 = u64 [a2 + 0x98]\n  8393: u64 [s1 + 0x110] = a0\n  8397: a0 = u64 [a2 + 0x90]\n  8401: u64 [s1 + 0x120] = a0\n  8405: a0 = u64 [a2 + 0x88]\n  8409: u64 [s1 + 0x118] = a0\n  8413: a0 = s1 + 0x23a0\n  8417: a1 = 0x40\n  8420: ra = 218, jump @17\n      : @244 [@dyn 109] (gas: 34)\n  8426: a4 = s1 + 0x2138\n  8430: t0 = u64 [a4 + 0x280]\n  8434: u64 [s1 + 0x180] = t0\n  8438: t2 = u64 [a4 + 0x278]\n  8442: u64 [s1 + 0x188] = t2\n  8446: ra = u64 [a4 + 0x270]\n  8450: u64 [s1 + 0x190] = ra\n  8454: t1 = u64 [a4 + 0x268]\n  8458: u64 [s1 + 0x198] = t1\n  8462: a3 = u64 [s1 + 0x1a8]\n  8466: a3 = a3 + 0x1\n  8469: a0 = a3 <u 0x1\n  8472: a1 = u64 [s1 + 0x1b0]\n  8476: a0 = a0 + a1\n  8479: a1 = a3 | a0\n  8482: a1 = a1 <u 0x1\n  8485: a2 = u64 [s1 + 0x1a0]\n  8489: a1 = a1 + a2\n  8492: a2 = a1 <u a2\n  8495: a5 = u64 [s1 + 0x1b8]\n  8499: a2 = a2 + a5\n  8502: u64 [a4 + 0x220] = t0\n  8506: u64 [a4 + 0x218] = t2\n  8510: u64 [a4 + 0x210] = ra\n  8514: u64 [a4 + 0x208] = t1\n  8518: a5 = a4 + 0x200\n  8522: u64 [a5 + 0x40] = a2\n  8525: u64 [a5 + 0x38] = a1\n  8528: u64 [a5 + 0x30] = a0\n  8531: a0 = s1 + 0x2380\n  8535: a1 = s1 + 0x2360\n  8539: a2 = s1 + 0x2340\n  8543: u64 [a5 + 0x28] = a3\n  8546: ra = 220, jump @1129\n      : @245 [@dyn 110] (gas: 44)\n  8552: a1 = s1 + 0x2138\n  8556: a4 = a1 + 0x200\n  8560: a0 = u64 [a4 + 0x50]\n  8563: a2 = u64 [a4 + 0x60]\n  8566: u64 [s1 + 0x178] = a2\n  8570: a2 = u64 [a4 + 0x48]\n  8573: u64 [s1 + 0x170] = a2\n  8577: a3 = u64 [a4 + 0x58]\n  8580: a1 = u64 [s1 + 0x190]\n  8584: a4 = a0 ^ a1\n  8587: a5 = a0 <u a1\n  8590: t1 = u64 [s1 + 0x198]\n  8594: t2 = a2 <u t1\n  8597: a5 = t2 if a4 == 0\n  8600: a2 = u64 [s1 + 0x188]\n  8604: a4 = a3 - a2\n  8607: a3 = a3 <u a2\n  8610: ra = a2\n  8612: t0 = u64 [s1 + 0x180]\n  8616: a2 = u64 [s1 + 0x178]\n  8620: a2 = a2 - t0\n  8623: a2 = a2 - a3\n  8626: a3 = a4 <u a5\n  8629: a2 = a2 - a3\n  8632: u64 [s1 + 0x178] = a2\n  8636: a4 = a4 - a5\n  8639: a0 = a0 - a1\n  8642: a0 = a0 - t2\n  8645: a2 = u64 [s1 + 0x170]\n  8649: a2 = a2 - t1\n  8652: a3 = s1 + 0x2138\n  8656: a5 = a3 + 0x100\n  8660: u64 [a5 + 0xc8] = a2\n  8664: u64 [a3 + 0x200] = t0\n  8668: u64 [a3 + 0x1f8] = ra\n  8672: u64 [a5 + 0xf0] = a1\n  8676: u64 [a3 + 0x1e8] = t1\n  8680: u64 [a5 + 0xd0] = a0\n  8684: u64 [a5 + 0xd8] = a4\n  8688: a0 = s1 + 0x2320\n  8692: a1 = s1 + 0x2300\n  8696: a2 = u64 [s1 + 0x178]\n  8700: u64 [a5 + 0xe0] = a2\n  8704: ra = 222, jump @1004\n      : @246 [@dyn 111] (gas: 3)\n  8710: a1 = u64 [s1 + 0x1a8]\n  8714: a0 = a1 + 0x2\n  8717: t0 = 224, jump @1194\n      : @247 [@dyn 112] (gas: 11)\n  8723: a4 = u64 [s1 + 0x1b8]\n  8727: a1 = a1 + a4\n  8730: a4 = s1 + 0x2938\n  8734: a5 = a4 + 0x200\n  8738: u64 [a5 + 0xa0] = a1\n  8742: u64 [a5 + 0x98] = a3\n  8746: u64 [a5 + 0x90] = a2\n  8750: u64 [a5 + 0x88] = a0\n  8754: a0 = s1 + 0x22e0\n  8758: a1 = s1 + 0x2bc0\n  8762: ra = 226, jump @21\n      : @248 [@dyn 113] (gas: 3)\n  8768: t0 = 0xe4\n  8772: a1 = s1 + 0x2138\n  8776: fallthrough\n      : @249 [@dyn 114] (gas: 12)\n  8777: a2 = a1 + 0x100\n  8781: a0 = u64 [a2 + 0xc0]\n  8785: u64 [s1 + 0x100] = a0\n  8789: a0 = u64 [a2 + 0xb8]\n  8793: u64 [s1 + 0xf8] = a0\n  8797: a0 = u64 [a2 + 0xb0]\n  8801: u64 [s1 + 0xf0] = a0\n  8805: a0 = u64 [a2 + 0xa8]\n  8809: u64 [s1 + 0xe8] = a0\n  8813: a0 = s1 + 0x22c0\n  8817: a1 = 0x40\n  8820: ra = 230, jump @17\n      : @250 [@dyn 115] (gas: 34)\n  8826: a5 = s1 + 0x2138\n  8830: a3 = u64 [a5 + 0x1a0]\n  8834: u64 [s1 + 0x160] = a3\n  8838: t2 = u64 [a5 + 0x198]\n  8842: u64 [s1 + 0x168] = t2\n  8846: ra = u64 [a5 + 0x190]\n  8850: u64 [s1 + 0x170] = ra\n  8854: t1 = u64 [a5 + 0x188]\n  8858: u64 [s1 + 0x178] = t1\n  8862: a0 = u64 [s1 + 0x1a8]\n  8866: t0 = a0 + 0x3\n  8869: a0 = t0 <u a0\n  8872: a2 = u64 [s1 + 0x1b0]\n  8876: a1 = a2 + a0\n  8879: a2 = a1 <u a2\n  8882: a2 = a0 if a0 == 0\n  8885: a0 = u64 [s1 + 0x1a0]\n  8889: a2 = a2 + a0\n  8892: a0 = a2 <u a0\n  8895: a4 = u64 [s1 + 0x1b8]\n  8899: a0 = a0 + a4\n  8902: a4 = a5 + 0x100\n  8906: u64 [a4 + 0x40] = a3\n  8909: u64 [a5 + 0x138] = t2\n  8913: u64 [a5 + 0x130] = ra\n  8917: u64 [a5 + 0x128] = t1\n  8921: u64 [a4 + 0x60] = a0\n  8924: u64 [a4 + 0x58] = a2\n  8927: u64 [a4 + 0x50] = a1\n  8930: a0 = s1 + 0x22a0\n  8934: a1 = s1 + 0x2280\n  8938: a2 = s1 + 0x2260\n  8942: u64 [a5 + 0x148] = t0\n  8946: ra = 232, jump @1129\n      : @251 [@dyn 116] (gas: 44)\n  8952: a1 = s1 + 0x2138\n  8956: a4 = a1 + 0x100\n  8960: a0 = u64 [a4 + 0x70]\n  8963: a2 = u64 [a4 + 0x80]\n  8967: u64 [s1 + 0x158] = a2\n  8971: a2 = u64 [a4 + 0x68]\n  8974: u64 [s1 + 0x150] = a2\n  8978: a3 = u64 [a4 + 0x78]\n  8981: a1 = u64 [s1 + 0x170]\n  8985: a4 = a0 ^ a1\n  8988: a5 = a0 <u a1\n  8991: t1 = u64 [s1 + 0x178]\n  8995: t2 = a2 <u t1\n  8998: a5 = t2 if a4 == 0\n  9001: a2 = u64 [s1 + 0x168]\n  9005: a4 = a3 - a2\n  9008: a3 = a3 <u a2\n  9011: ra = a2\n  9013: t0 = u64 [s1 + 0x160]\n  9017: a2 = u64 [s1 + 0x158]\n  9021: a2 = a2 - t0\n  9024: a2 = a2 - a3\n  9027: a3 = a4 <u a5\n  9030: a2 = a2 - a3\n  9033: u64 [s1 + 0x158] = a2\n  9037: a4 = a4 - a5\n  9040: a0 = a0 - a1\n  9043: a0 = a0 - t2\n  9046: a5 = u64 [s1 + 0x150]\n  9050: a5 = a5 - t1\n  9053: a2 = s1 + 0x2138\n  9057: u64 [a2 + 0xe8] = a5\n  9061: u64 [a2 + 0x120] = t0\n  9065: u64 [a2 + 0x118] = ra\n  9069: u64 [a2 + 0x110] = a1\n  9073: u64 [a2 + 0x108] = t1\n  9077: u64 [a2 + 0xf0] = a0\n  9081: u64 [a2 + 0xf8] = a4\n  9085: a3 = a2\n  9087: a0 = s1 + 0x2240\n  9091: a1 = s1 + 0x2220\n  9095: a2 = u64 [s1 + 0x158]\n  9099: u64 [a3 + 0x100] = a2\n  9103: ra = 234, jump @1004\n      : @252 [@dyn 117] (gas: 3)\n  9109: a0 = s1 + 0x2200\n  9113: a1 = 0x40\n  9116: ra = 236, jump @17\n      : @253 [@dyn 118] (gas: 33)\n  9122: a5 = s1 + 0x2138\n  9126: a3 = u64 [a5 + 0xe0]\n  9130: u64 [s1 + 0x140] = a3\n  9134: t2 = u64 [a5 + 0xd8]\n  9138: u64 [s1 + 0x148] = t2\n  9142: ra = u64 [a5 + 0xd0]\n  9146: u64 [s1 + 0x150] = ra\n  9150: t1 = u64 [a5 + 0xc8]\n  9154: u64 [s1 + 0x158] = t1\n  9158: a0 = u64 [s1 + 0x1a8]\n  9162: t0 = a0 + 0x4\n  9165: a0 = t0 <u a0\n  9168: a2 = u64 [s1 + 0x1b0]\n  9172: a1 = a2 + a0\n  9175: a2 = a1 <u a2\n  9178: a2 = a0 if a0 == 0\n  9181: a0 = u64 [s1 + 0x1a0]\n  9185: a2 = a2 + a0\n  9188: a0 = a2 <u a0\n  9191: a4 = u64 [s1 + 0x1b8]\n  9195: a0 = a0 + a4\n  9198: u64 [a5 + 0x80] = a3\n  9202: u64 [a5 + 0x78] = t2\n  9205: u64 [a5 + 0x70] = ra\n  9208: u64 [a5 + 0x68] = t1\n  9211: u64 [a5 + 0xa0] = a0\n  9215: u64 [a5 + 0x98] = a2\n  9219: u64 [a5 + 0x90] = a1\n  9223: a0 = s1 + 0x21e0\n  9227: a1 = s1 + 0x21c0\n  9231: a2 = s1 + 0x21a0\n  9235: u64 [a5 + 0x88] = t0\n  9239: ra = 238, jump @1129\n      : @254 [@dyn 119] (gas: 42)\n  9245: a1 = s1 + 0x2138\n  9249: a0 = u64 [a1 + 0xb0]\n  9253: a2 = u64 [a1 + 0xc0]\n  9257: u64 [s1 + 0x138] = a2\n  9261: a2 = u64 [a1 + 0xa8]\n  9265: u64 [s1 + 0x130] = a2\n  9269: a3 = u64 [a1 + 0xb8]\n  9273: a1 = u64 [s1 + 0x150]\n  9277: a4 = a0 ^ a1\n  9280: a5 = a0 <u a1\n  9283: t1 = u64 [s1 + 0x158]\n  9287: t2 = a2 <u t1\n  9290: a5 = t2 if a4 == 0\n  9293: a2 = u64 [s1 + 0x148]\n  9297: a4 = a3 - a2\n  9300: a3 = a3 <u a2\n  9303: ra = a2\n  9305: t0 = u64 [s1 + 0x140]\n  9309: a2 = u64 [s1 + 0x138]\n  9313: a2 = a2 - t0\n  9316: a2 = a2 - a3\n  9319: a3 = a4 <u a5\n  9322: a2 = a2 - a3\n  9325: u64 [s1 + 0x138] = a2\n  9329: a4 = a4 - a5\n  9332: a0 = a0 - a1\n  9335: a0 = a0 - t2\n  9338: a2 = u64 [s1 + 0x130]\n  9342: a2 = a2 - t1\n  9345: a3 = s1 + 0x2138\n  9349: u64 [a3 + 0x28] = a2\n  9352: u64 [a3 + 0x60] = t0\n  9355: u64 [a3 + 0x58] = ra\n  9358: u64 [a3 + 0x50] = a1\n  9361: u64 [a3 + 0x48] = t1\n  9364: u64 [a3 + 0x30] = a0\n  9367: u64 [a3 + 0x38] = a4\n  9370: a0 = s1 + 0x2180\n  9374: a1 = s1 + 0x2160\n  9378: a2 = u64 [s1 + 0x138]\n  9382: u64 [a3 + 0x40] = a2\n  9385: ra = 240, jump @1004\n      : @255 [@dyn 120] (gas: 3)\n  9391: a0 = s1 + 0x2140\n  9395: a1 = 0x40\n  9398: ra = 242, jump @17\n      : @256 [@dyn 121] (gas: 36)\n  9404: a0 = s1 + 0x2138\n  9408: a5 = u64 [a0 + 0x20]\n  9411: u64 [s1 + 0x128] = a5\n  9415: t1 = u64 [a0 + 0x18]\n  9418: u64 [s1 + 0x130] = t1\n  9422: t2 = u64 [a0 + 0x10]\n  9425: u64 [s1 + 0x138] = t2\n  9429: a3 = a0\n  9431: a0 = u64 [s1 + 0x1a8]\n  9435: t0 = a0 + 0x5\n  9438: a0 = t0 <u a0\n  9441: a2 = u64 [s1 + 0x1b0]\n  9445: a1 = a2 + a0\n  9448: a2 = a1 <u a2\n  9451: a2 = a0 if a0 == 0\n  9454: a3 = u64 [a3 + 0x8]\n  9457: u64 [s1 + 0x1a8] = a3\n  9461: a0 = u64 [s1 + 0x1a0]\n  9465: a2 = a2 + a0\n  9468: a0 = a2 <u a0\n  9471: a4 = u64 [s1 + 0x1b8]\n  9475: a0 = a0 + a4\n  9478: a4 = s1 + 0x1938\n  9482: u64 [a4 + 0x7c0] = a5\n  9486: u64 [a4 + 0x7b8] = t1\n  9490: u64 [a4 + 0x7b0] = t2\n  9494: a5 = a4 + 0x700\n  9498: u64 [a5 + 0xa8] = a3\n  9502: u64 [a5 + 0xe0] = a0\n  9506: u64 [a5 + 0xd8] = a2\n  9510: u64 [a5 + 0xd0] = a1\n  9514: a0 = s1 + 0x2120\n  9518: a1 = s1 + 0x2100\n  9522: a2 = s1 + 0x20e0\n  9526: u64 [a4 + 0x7c8] = t0\n  9530: ra = 244, jump @1129\n      : @257 [@dyn 122] (gas: 44)\n  9536: a1 = s1 + 0x2138\n  9540: a4 = a1 + 0xffffffffffffff00\n  9544: a0 = u64 [a4 + 0xf0]\n  9548: a2 = u64 [a1]\n  9550: u64 [s1 + 0x1b8] = a2\n  9554: a2 = u64 [a4 + 0xe8]\n  9558: u64 [s1 + 0x1b0] = a2\n  9562: a3 = u64 [a4 + 0xf8]\n  9566: a1 = u64 [s1 + 0x138]\n  9570: a4 = a0 ^ a1\n  9573: a5 = a0 <u a1\n  9576: t1 = u64 [s1 + 0x1a8]\n  9580: t2 = a2 <u t1\n  9583: a5 = t2 if a4 == 0\n  9586: a2 = u64 [s1 + 0x130]\n  9590: a4 = a3 - a2\n  9593: a3 = a3 <u a2\n  9596: ra = a2\n  9598: t0 = u64 [s1 + 0x128]\n  9602: a2 = u64 [s1 + 0x1b8]\n  9606: a2 = a2 - t0\n  9609: a2 = a2 - a3\n  9612: a3 = a4 <u a5\n  9615: a2 = a2 - a3\n  9618: u64 [s1 + 0x1b8] = a2\n  9622: a4 = a4 - a5\n  9625: a0 = a0 - a1\n  9628: a0 = a0 - t2\n  9631: a5 = u64 [s1 + 0x1b0]\n  9635: a5 = a5 - t1\n  9638: a3 = s1 + 0x1938\n  9642: u64 [a3 + 0x768] = a5\n  9646: u64 [a3 + 0x7a0] = t0\n  9650: u64 [a3 + 0x798] = ra\n  9654: a5 = a3 + 0x700\n  9658: u64 [a5 + 0x90] = a1\n  9662: u64 [a3 + 0x788] = t1\n  9666: u64 [a5 + 0x70] = a0\n  9669: u64 [a5 + 0x78] = a4\n  9672: a0 = s1 + 0x20c0\n  9676: a1 = s1 + 0x20a0\n  9680: a2 = u64 [s1 + 0x1b8]\n  9684: u64 [a5 + 0x80] = a2\n  9688: ra = 246, jump @1004\n      : @258 [@dyn 123] (gas: 3)\n  9694: a0 = s1 + 0x2080\n  9698: a1 = 0x40\n  9701: ra = 248, jump @17\n      : @259 [@dyn 124] (gas: 15)\n  9707: a2 = s1 + 0x1938\n  9711: a1 = a2 + 0x700\n  9715: a4 = u64 [a1 + 0x60]\n  9718: a5 = u64 [a1 + 0x58]\n  9721: a0 = u64 [a1 + 0x50]\n  9724: a3 = u64 [a1 + 0x48]\n  9727: u64 [s1 + 0x1b8] = a0\n  9731: a0 = a0 | a4\n  9734: a1 = a3 | a5\n  9737: a1 = a1 | a0\n  9740: a1 = a1 >> 0x20\n  9743: a0 = a0 | a5\n  9746: a0 = a0 << 0x20\n  9749: a0 = a0 | a1\n  9752: jump @261 if a0 == 0\n      : @260 (gas: 1)\n  9755: jump @929\n      : @261 (gas: 15)\n  9758: a0 = u64 [s1 + 0x110]\n  9762: a0 = a0 << 0x20\n  9765: a0 = a0 >> 0x20\n  9768: u64 [a2 + 1856] = 0\n  9772: a1 = u64 [s1 + 0x118]\n  9776: u64 [a2 + 0x728] = a1\n  9780: a1 = u64 [s1 + 0x120]\n  9784: u64 [a2 + 0x730] = a1\n  9788: a1 = s1 + 0x2060\n  9792: u64 [a2 + 0x738] = a0\n  9796: a0 = a3\n  9798: u64 [s1 + 0x1b0] = a3\n  9802: u64 [s1 + 0x1a0] = a4\n  9806: u64 [s1 + 0x108] = a5\n  9810: ra = 250, jump @19\n      : @262 [@dyn 125] (gas: 11)\n  9816: t0 = u64 [s1 + 0x108]\n  9820: a3 = u64 [s1 + 0x1a0]\n  9824: a1 = u64 [s1 + 0x1b0]\n  9828: a5 = t0 | a3\n  9831: a4 = 0x100000000\n  9841: a0 = 0xffffffe0\n  9851: a0 = a1 <u a0\n  9854: a2 = u64 [s1 + 0x1b8]\n  9858: a0 = 0 if a2 != 0\n  9860: a0 = 0 if a5 != 0\n  9862: jump @264 if a0 != 0\n      : @263 (gas: 1)\n  9865: jump @929\n      : @264 (gas: 3)\n  9868: i32 a0 = a1 + 0x20\n  9871: a1 = 0x1938\n  9875: t0 = 252, jump @1207\n      : @265 [@dyn 126] (gas: 6)\n  9881: i32 a1 = a1 + 0x40\n  9884: a1 = a1 + s1\n  9887: u64 [a2 + 1808] = 0\n  9891: u64 [s1 + 0x120] = a5\n  9895: u64 [s1 + 0x118] = a4\n  9899: ra = 254, jump @19\n      : @266 [@dyn 127] (gas: 6)\n  9905: a0 = u64 [s1 + 0x1b0]\n  9909: a0 = a0 + 0xc0\n  9913: a1 = u64 [s1 + 0x1b0]\n  9917: a1 = a0 <u a1\n  9920: a3 = u64 [s1 + 0x1b8]\n  9924: t0 = 256, jump @1204\n      : @267 [@dyn 128] (gas: 24)\n  9930: a1 = u64 [s1 + 0x108]\n  9934: a3 = a3 + a1\n  9937: a1 = a3 <u a1\n  9940: a4 = u64 [s1 + 0x1a0]\n  9944: a4 = a4 + a1\n  9947: a1 = s1 + 0x1938\n  9951: a5 = a1 + 0x600\n  9955: u64 [a5 + 0xb0] = a2\n  9959: u64 [a5 + 0xa8] = a0\n  9963: a0 = u64 [s1 + 0x180]\n  9967: u64 [a5 + 0xe0] = a0\n  9971: a0 = u64 [s1 + 0x188]\n  9975: u64 [a5 + 0xd8] = a0\n  9979: a0 = u64 [s1 + 0x190]\n  9983: u64 [a5 + 0xd0] = a0\n  9987: a0 = u64 [s1 + 0x198]\n  9991: u64 [a5 + 0xc8] = a0\n  9995: u64 [a5 + 0xb8] = a3\n  9999: a3 = a1\n 10001: a0 = s1 + 0x2020\n 10005: a1 = s1 + 0x2000\n 10009: a2 = s1 + 0x1fe0\n 10013: u64 [a3 + 0x6c0] = a4\n 10017: ra = 258, jump @1069\n      : @268 [@dyn 129] (gas: 10)\n 10023: a3 = s1 + 0x100\n 10027: a1 = u64 [a3 + 0xb0]\n 10031: a0 = u64 [a3 + 0x18]\n 10034: a0 = a0 + 0xffffffffffffffc0\n 10037: a0 = a1 <u a0\n 10040: a2 = u64 [a3 + 0xb8]\n 10044: a0 = 0 if a2 != 0\n 10046: a2 = u64 [a3 + 0x20]\n 10049: a0 = 0 if a2 != 0\n 10051: jump @270 if a0 != 0\n      : @269 (gas: 1)\n 10054: jump @929\n      : @270 (gas: 21)\n 10057: a3 = s1 + 0x1938\n 10061: a0 = u64 [a3 + 0x700]\n 10065: u64 [s1 + 0x180] = a0\n 10069: a4 = a3 + 0x600\n 10073: a0 = u64 [a4 + 0xf8]\n 10077: u64 [s1 + 0x188] = a0\n 10081: a0 = u64 [a4 + 0xf0]\n 10085: u64 [s1 + 0x190] = a0\n 10089: a0 = u64 [a4 + 0xe8]\n 10093: u64 [s1 + 0x198] = a0\n 10097: i32 a0 = a1 + 0x40\n 10100: a1 = u64 [s1 + 0xe8]\n 10104: u64 [a4 + 0x88] = a1\n 10108: a1 = u64 [s1 + 0xf0]\n 10112: u64 [a4 + 0x90] = a1\n 10116: a1 = u64 [s1 + 0xf8]\n 10120: u64 [a4 + 0x98] = a1\n 10124: a1 = s1 + 0x1fc0\n 10128: a2 = u64 [s1 + 0x100]\n 10132: u64 [a4 + 0xa0] = a2\n 10136: ra = 260, jump @19\n      : @271 [@dyn 130] (gas: 10)\n 10142: a4 = s1 + 0x100\n 10146: a1 = u64 [a4 + 0xb0]\n 10150: a3 = 0x100000000\n 10160: a0 = 0xffffffa0\n 10170: a0 = a1 <u a0\n 10173: a2 = u64 [a4 + 0xb8]\n 10177: a0 = 0 if a2 != 0\n 10179: a2 = u64 [a4 + 0x20]\n 10182: a0 = 0 if a2 != 0\n 10184: jump @273 if a0 != 0\n      : @272 (gas: 1)\n 10187: jump @929\n      : @273 (gas: 36)\n 10190: a2 = u64 [s1 + 0x198]\n 10194: t1 = a2 <u a1\n 10197: t0 = a2\n 10199: a4 = u64 [s1 + 0x1b8]\n 10203: a5 = u64 [s1 + 0x190]\n 10207: a1 = a5 ^ a4\n 10210: a2 = a5 <u a4\n 10213: a0 = a5\n 10215: a5 = a4\n 10217: a2 = t1 if a1 == 0\n 10220: u64 [s1 + 0x118] = a3\n 10224: a3 = u64 [s1 + 0x108]\n 10228: a4 = u64 [s1 + 0x188]\n 10232: a1 = a4 - a3\n 10235: t2 = a4 <u a3\n 10238: a4 = u64 [s1 + 0x1a0]\n 10242: a3 = u64 [s1 + 0x180]\n 10246: a4 = a3 - a4\n 10249: a4 = a4 - t2\n 10252: a3 = a1 <u a2\n 10255: a4 = a4 - a3\n 10258: a1 = a1 - a2\n 10261: a2 = a0 - a5\n 10264: a2 = a2 - t1\n 10267: a0 = u64 [s1 + 0x1b0]\n 10271: a3 = t0 - a0\n 10274: a0 = u64 [s1 + 0x1b0]\n 10278: i32 a0 = a0 + 0x60\n 10281: a5 = s1 + 0x1938\n 10285: u64 [a5 + 0x668] = a3\n 10289: a3 = a5 + 0x600\n 10293: u64 [a3 + 0x70] = a2\n 10296: u64 [a3 + 0x78] = a1\n 10299: a1 = s1 + 0x1fa0\n 10303: u64 [a3 + 0x80] = a4\n 10307: ra = 262, jump @19\n      : @274 [@dyn 131] (gas: 23)\n 10313: a1 = s1 + 0x1938\n 10317: a0 = u64 [s1 + 0x180]\n 10321: a2 = a1 + 0x600\n 10325: u64 [a2 + 0x20] = a0\n 10328: a0 = u64 [s1 + 0x188]\n 10332: u64 [a2 + 0x18] = a0\n 10335: a0 = u64 [s1 + 0x190]\n 10339: u64 [a2 + 0x10] = a0\n 10342: a0 = u64 [s1 + 0x198]\n 10346: u64 [a2 + 0x8] = a0\n 10349: a0 = u64 [s1 + 0x160]\n 10353: u64 [a2 + 0x40] = a0\n 10356: a0 = u64 [s1 + 0x168]\n 10360: u64 [a2 + 0x38] = a0\n 10363: a0 = u64 [s1 + 0x170]\n 10367: u64 [a2 + 0x30] = a0\n 10370: a4 = a1\n 10372: a0 = s1 + 0x1f80\n 10376: a1 = s1 + 0x1f60\n 10380: a2 = s1 + 0x1f40\n 10384: a3 = u64 [s1 + 0x178]\n 10388: u64 [a4 + 0x628] = a3\n 10392: ra = 264, jump @1069\n      : @275 [@dyn 132] (gas: 10)\n 10398: t2 = u64 [s1 + 0x120]\n 10402: a3 = s1 + 0x100\n 10406: a1 = u64 [a3 + 0xb0]\n 10410: a0 = u64 [a3 + 0x18]\n 10413: a0 = a0 + 0xffffffffffffff80\n 10416: a0 = a1 <u a0\n 10419: a2 = u64 [a3 + 0xb8]\n 10423: a0 = 0 if a2 != 0\n 10425: a0 = 0 if t2 != 0\n 10427: jump @277 if a0 != 0\n      : @276 (gas: 1)\n 10430: jump @929\n      : @277 (gas: 40)\n 10433: a0 = s1 + 0x1938\n 10437: a3 = a0 + 0x600\n 10441: a2 = u64 [a3 + 0x48]\n 10444: t0 = u64 [a0 + 0x650]\n 10448: a5 = u64 [a3 + 0x60]\n 10451: u64 [s1 + 0x190] = a5\n 10455: a0 = u64 [a3 + 0x58]\n 10458: u64 [s1 + 0x198] = a0\n 10462: ra = a2 <u a1\n 10465: t1 = a2\n 10467: u64 [s1 + 0x180] = a2\n 10471: a3 = u64 [s1 + 0x1b8]\n 10475: a1 = t0 ^ a3\n 10478: a2 = t0 <u a3\n 10481: u64 [s1 + 0x188] = t0\n 10485: a0 = a3\n 10487: a2 = ra if a1 == 0\n 10490: a3 = u64 [s1 + 0x108]\n 10494: a4 = u64 [s1 + 0x198]\n 10498: a1 = a4 - a3\n 10501: a3 = a4 <u a3\n 10504: a4 = u64 [s1 + 0x1a0]\n 10508: a4 = a5 - a4\n 10511: a4 = a4 - a3\n 10514: a3 = a1 <u a2\n 10517: a4 = a4 - a3\n 10520: a1 = a1 - a2\n 10523: a2 = t0 - a0\n 10526: a2 = a2 - ra\n 10529: a0 = u64 [s1 + 0x1b0]\n 10533: a3 = t1 - a0\n 10536: a0 = u64 [s1 + 0x1b0]\n 10540: i32 a0 = a0 + 0x80\n 10544: a5 = s1 + 0x1938\n 10548: u64 [a5 + 0x5e8] = a3\n 10552: u64 [a5 + 0x5f0] = a2\n 10556: u64 [a5 + 0x5f8] = a1\n 10560: a1 = s1 + 0x1f20\n 10564: u64 [a5 + 0x600] = a4\n 10568: ra = 266, jump @19\n      : @278 [@dyn 133] (gas: 23)\n 10574: a1 = s1 + 0x1938\n 10578: a0 = u64 [s1 + 0x190]\n 10582: a2 = a1 + 0x500\n 10586: u64 [a2 + 0xa0] = a0\n 10590: a0 = u64 [s1 + 0x198]\n 10594: u64 [a2 + 0x98] = a0\n 10598: a0 = u64 [s1 + 0x188]\n 10602: u64 [a2 + 0x90] = a0\n 10606: a0 = u64 [s1 + 0x180]\n 10610: u64 [a2 + 0x88] = a0\n 10614: a0 = u64 [s1 + 0x140]\n 10618: u64 [a2 + 0xc0] = a0\n 10622: a0 = u64 [s1 + 0x148]\n 10626: u64 [a2 + 0xb8] = a0\n 10630: a0 = u64 [s1 + 0x150]\n 10634: u64 [a2 + 0xb0] = a0\n 10638: a4 = a1\n 10640: a0 = s1 + 0x1f00\n 10644: a1 = s1 + 0x1ee0\n 10648: a2 = s1 + 0x1ec0\n 10652: a3 = u64 [s1 + 0x158]\n 10656: u64 [a4 + 0x5a8] = a3\n 10660: ra = 268, jump @1069\n      : @279 [@dyn 134] (gas: 9)\n 10666: a3 = s1 + 0x100\n 10670: a1 = u64 [a3 + 0xb0]\n 10674: a0 = 0xffffff60\n 10684: a0 = a1 <u a0\n 10687: a2 = u64 [a3 + 0xb8]\n 10691: a0 = 0 if a2 != 0\n 10693: a2 = u64 [a3 + 0x20]\n 10696: a0 = 0 if a2 != 0\n 10698: jump @281 if a0 != 0\n      : @280 (gas: 1)\n 10701: jump @929\n      : @281 (gas: 39)\n 10704: a0 = s1 + 0x1938\n 10708: t1 = u64 [a0 + 0x5c8]\n 10712: a4 = u64 [a0 + 0x5d0]\n 10716: t2 = u64 [a0 + 0x5e0]\n 10720: u64 [s1 + 0x190] = t2\n 10724: ra = u64 [a0 + 0x5d8]\n 10728: t0 = t1 <u a1\n 10731: u64 [s1 + 0x180] = t1\n 10735: a3 = u64 [s1 + 0x1b8]\n 10739: a1 = a4 ^ a3\n 10742: a2 = a4 <u a3\n 10745: a0 = a4\n 10747: u64 [s1 + 0x188] = a4\n 10751: a5 = a3\n 10753: a2 = t0 if a1 == 0\n 10756: a3 = u64 [s1 + 0x108]\n 10760: u64 [s1 + 0x198] = ra\n 10764: a1 = ra - a3\n 10767: a3 = ra <u a3\n 10770: a4 = u64 [s1 + 0x1a0]\n 10774: a4 = t2 - a4\n 10777: a4 = a4 - a3\n 10780: a3 = a1 <u a2\n 10783: a4 = a4 - a3\n 10786: a1 = a1 - a2\n 10789: a2 = a0 - a5\n 10792: a2 = a2 - t0\n 10795: a0 = u64 [s1 + 0x1b0]\n 10799: a3 = t1 - a0\n 10802: a0 = u64 [s1 + 0x1b0]\n 10806: i32 a0 = a0 + 0xa0\n 10810: a5 = s1 + 0x1938\n 10814: u64 [a5 + 0x568] = a3\n 10818: a3 = a5 + 0x500\n 10822: u64 [a3 + 0x70] = a2\n 10825: u64 [a3 + 0x78] = a1\n 10828: a1 = s1 + 0x1ea0\n 10832: u64 [a3 + 0x80] = a4\n 10836: ra = 270, jump @19\n      : @282 [@dyn 135] (gas: 23)\n 10842: a1 = s1 + 0x1938\n 10846: a0 = u64 [s1 + 0x190]\n 10850: a2 = a1 + 0x500\n 10854: u64 [a2 + 0x20] = a0\n 10857: a0 = u64 [s1 + 0x198]\n 10861: u64 [a2 + 0x18] = a0\n 10864: a0 = u64 [s1 + 0x188]\n 10868: u64 [a2 + 0x10] = a0\n 10871: a0 = u64 [s1 + 0x180]\n 10875: u64 [a2 + 0x8] = a0\n 10878: a0 = u64 [s1 + 0x128]\n 10882: u64 [a2 + 0x40] = a0\n 10885: a0 = u64 [s1 + 0x130]\n 10889: u64 [a2 + 0x38] = a0\n 10892: a0 = u64 [s1 + 0x138]\n 10896: u64 [a2 + 0x30] = a0\n 10899: a4 = a1\n 10901: a0 = s1 + 0x1e80\n 10905: a1 = s1 + 0x1e60\n 10909: a2 = s1 + 0x1e40\n 10913: a3 = u64 [s1 + 0x1a8]\n 10917: u64 [a4 + 0x528] = a3\n 10921: ra = 272, jump @1069\n      : @283 [@dyn 136] (gas: 33)\n 10927: a0 = s1 + 0x1938\n 10931: a1 = u64 [a0 + 0x550]\n 10935: t0 = u64 [a0 + 0x560]\n 10939: t1 = u64 [a0 + 0x548]\n 10943: a3 = u64 [a0 + 0x558]\n 10947: a0 = u64 [s1 + 0x1b8]\n 10951: a4 = a1 ^ a0\n 10954: a5 = a1 <u a0\n 10957: ra = a0\n 10959: a0 = u64 [s1 + 0x1b0]\n 10963: t2 = t1 <u a0\n 10966: a5 = t2 if a4 == 0\n 10969: a0 = u64 [s1 + 0x108]\n 10973: a4 = a3 - a0\n 10976: a3 = a3 <u a0\n 10979: a0 = u64 [s1 + 0x1a0]\n 10983: a2 = t0 - a0\n 10986: a2 = a2 - a3\n 10989: a3 = a4 <u a5\n 10992: a2 = a2 - a3\n 10995: a0 = u64 [s1 + 0x1b0]\n 10999: a4 = a4 - a5\n 11002: a1 = a1 - ra\n 11005: a3 = a1 - t2\n 11008: a1 = t1 - a0\n 11011: a2 = a2 | a3\n 11014: a3 = a1 | a4\n 11017: a3 = a3 | a2\n 11020: a2 = a2 | a4\n 11023: a3 = a3 >> 0x20\n 11026: a2 = a2 << 0x20\n 11029: a2 = a2 | a3\n 11032: jump @285 if a2 == 0\n      : @284 (gas: 1)\n 11035: jump @929\n      : @285 (gas: 2)\n 11038: u64 [s1 + 0x1b8] = a1\n 11042: ra = 274, jump @26\n      : @286 [@dyn 137] (gas: 5)\n 11048: i32 a1 = a0 + 0\n 11050: a2 = i32 [s1 + 0x1b8]\n 11054: a0 = 0\n 11056: ecalli 7 // 'seal_return'\n 11058: jump @156\n      : @287 (gas: 1)\n 11061: jump @289 if a0 == 2147324492\n      : @288 (gas: 1)\n 11068: jump @930\n      : @289 (gas: 8)\n 11071: u64 [a2 + 1952] = 0\n 11075: u64 [a2 + 1944] = 0\n 11079: u64 [a2 + 1936] = 0\n 11083: u64 [a2 + 1928] = 0\n 11087: a0 = s1 + 0x3000\n 11091: i32 a0 = a0 + 0xfffffffffffff8c0\n 11095: ecalli 10 // 'value_transferred'\n 11097: fallthrough\n      : @290 (gas: 10)\n 11098: a3 = s1 + 0x2138\n 11102: a4 = a3 + 0x700\n 11106: a0 = u64 [a4 + 0x98]\n 11110: a1 = u64 [a4 + 0xa0]\n 11114: a2 = u64 [a4 + 0x90]\n 11118: a3 = u64 [a4 + 0x88]\n 11122: a1 = a1 | a2\n 11125: a0 = a0 | a3\n 11128: a0 = a0 | a1\n 11131: jump @292 if a0 == 0\n      : @291 (gas: 1)\n 11134: jump @943\n      : @292 (gas: 14)\n 11137: a0 = sp + 0xffffffffffffffe0\n 11140: a0 = a0 & 0xffffffffffffffe0\n 11143: u64 [s1 + 0xb8] = a0\n 11147: sp = a0\n 11149: a0 = u64 [s1 + 0x1b8]\n 11153: a0 = u32 [a0]\n 11155: a2 = s1 + 0x1938\n 11159: u64 [a2 + 1120] = 0\n 11163: u64 [a2 + 1112] = 0\n 11167: u64 [a2 + 0x448] = a0\n 11171: a0 = s1 + 0x1da0\n 11175: a1 = s1 + 0x1d80\n 11179: u64 [a2 + 1104] = 0\n 11183: ra = 276, jump @1041\n      : @293 [@dyn 138] (gas: 52)\n 11189: a3 = s1 + 0x1938\n 11193: a4 = a3 + 0x400\n 11197: a0 = u64 [a4 + 0x80]\n 11201: a1 = s1 + 0x100\n 11205: u64 [a1 + 0x40] = a0\n 11208: a0 = u64 [a4 + 0x78]\n 11211: u64 [a1 + 0x38] = a0\n 11214: a0 = u64 [a4 + 0x70]\n 11217: u64 [a1 + 0x48] = a0\n 11220: a0 = u64 [a4 + 0x68]\n 11223: u64 [a1 + 0x50] = a0\n 11226: a0 = u64 [a4 + 0xc0]\n 11230: u64 [a1 + 0x8] = a0\n 11233: a0 = u64 [a4 + 0xb8]\n 11237: u64 [a1 + 0x10] = a0\n 11240: a0 = u64 [a4 + 0xb0]\n 11244: u64 [a1 + 0x18] = a0\n 11247: a0 = u64 [a4 + 0xa8]\n 11251: u64 [a1 + 0x20] = a0\n 11254: a0 = u64 [a4 + 0xe0]\n 11258: u64 [s1 + 0xf0] = a0\n 11262: a0 = u64 [a4 + 0xd8]\n 11266: u64 [s1 + 0xe8] = a0\n 11270: a0 = u64 [a4 + 0xd0]\n 11274: u64 [s1 + 0xf8] = a0\n 11278: a0 = u64 [a4 + 0xc8]\n 11282: u64 [a1] = a0\n 11284: a0 = u64 [a3 + 0x500]\n 11288: u64 [s1 + 0xd0] = a0\n 11292: a0 = u64 [a4 + 0xf8]\n 11296: u64 [s1 + 0xc8] = a0\n 11300: a0 = u64 [a4 + 0xf0]\n 11304: u64 [s1 + 0xd8] = a0\n 11308: a0 = u64 [a4 + 0xe8]\n 11312: u64 [s1 + 0xe0] = a0\n 11316: a0 = u64 [a4 + 0x98]\n 11320: a1 = u64 [a4 + 0xa0]\n 11324: a2 = u64 [a4 + 0x88]\n 11328: a3 = u64 [a4 + 0x90]\n 11332: a4 = u64 [s1 + 0xb8]\n 11336: u64 [a4 + 0x10] = a0\n 11339: u64 [a4 + 0x18] = a1\n 11342: u64 [a4] = a2\n 11344: u64 [a4 + 0x8] = a3\n 11347: a0 = 0x30070\n 11352: u64 [s1 + 0xc0] = a0\n 11356: i32 a0 = a0 + 0\n 11358: u64 [s1 + 0xa0] = a0\n 11362: ra = 0x116\n 11366: ecalli 3 // 'caller'\n 11368: t0 = 0x118\n 11372: jump @1174\n      : @294 [@dyn 139] (gas: 1)\n 11375: t0 = 280, jump @1174\n      : @295 [@dyn 140] (gas: 8)\n 11381: u64 [a2 + 1088] = 0\n 11385: a4 = a2 + 0x400\n 11389: u64 [a4 + 0x38] = a1\n 11392: u64 [a4 + 0x30] = a0\n 11395: a1 = s1 + 0x1d60\n 11399: u64 [a4 + 0x28] = a3\n 11402: a0 = 0\n 11404: ra = 282, jump @19\n      : @296 [@dyn 141] (gas: 9)\n 11410: a0 = s1 + 0x1938\n 11414: u64 [a0 + 1056] = 0\n 11418: u64 [a0 + 1048] = 0\n 11422: u64 [a0 + 1040] = 0\n 11426: a2 = a0\n 11428: a0 = 0x20\n 11431: a1 = s1 + 0x1d40\n 11435: u64 [a2 + 1032] = 0\n 11439: ra = 284, jump @19\n      : @297 [@dyn 142] (gas: 4)\n 11445: a2 = 0x2005c\n 11450: a0 = i32 [0x2005c]\n 11455: a1 = 0x3f\n 11458: jump @299 if a1 <u a0\n      : @298 (gas: 4)\n 11461: u32 [0x2005c] = 0x40\n 11467: u64 [s1 + 0xa8] = a2\n 11471: t0 = 0x11e\n 11475: jump @1197\n      : @299 (gas: 2)\n 11478: u64 [s1 + 0xa8] = a2\n 11482: t0 = 286, jump @1197\n      : @300 [@dyn 143] (gas: 9)\n 11488: a0 = 0x20070\n 11493: i32 a0 = a0 + 0\n 11495: i32 a2 = a2 + 0\n 11497: a1 = 0x40\n 11500: u64 [s1 + 0xb0] = a0\n 11504: ra = 0x120\n 11508: ecalli 6 // 'hash_keccak_256'\n 11510: t0 = 0x122\n 11514: jump @1185\n      : @301 [@dyn 144] (gas: 1)\n 11517: t0 = 290, jump @1185\n      : @302 [@dyn 145] (gas: 8)\n 11523: a5 = a4 + 0x700\n 11527: u64 [a5 + 0xc0] = a3\n 11531: u64 [a5 + 0xb8] = a2\n 11535: u64 [a5 + 0xb0] = a1\n 11539: u64 [a5 + 0xa8] = a0\n 11543: a0 = s1 + 0x1d20\n 11547: a1 = s1 + 0x28e0\n 11551: ra = 292, jump @21\n      : @303 [@dyn 146] (gas: 7)\n 11557: a2 = s1 + 0x1938\n 11561: a0 = u32 [a2 + 0x3f8]\n 11565: a1 = u64 [a2 + 0x3e8]\n 11569: a2 = u64 [a2 + 0x3f0]\n 11573: a0 = a0 | a1\n 11576: a0 = a0 | a2\n 11579: jump @332 if a0 != 0\n      : @304 (gas: 3)\n 11583: a0 = s1 + 0x1440\n 11587: a1 = 0x40\n 11590: ra = 294, jump @17\n      : @305 [@dyn 147] (gas: 14)\n 11596: a2 = s1 + 0x1138\n 11600: t0 = u64 [a2 + 0x320]\n 11604: a1 = a2 + 0x300\n 11608: a5 = u64 [a1 + 0x18]\n 11611: a4 = u64 [a1 + 0x10]\n 11614: a0 = u64 [a1 + 0x8]\n 11617: a3 = a4 | t0\n 11620: a1 = a0 | a5\n 11623: a1 = a1 | a3\n 11626: a1 = a1 >> 0x20\n 11629: a3 = a3 | a5\n 11632: a3 = a3 << 0x20\n 11635: a1 = a1 | a3\n 11638: jump @307 if a1 == 0\n      : @306 (gas: 1)\n 11641: jump @929\n      : @307 (gas: 11)\n 11644: u64 [a2 + 760] = 0\n 11648: u64 [a2 + 752] = 0\n 11652: u64 [a2 + 744] = 0\n 11656: a3 = 0x8c379a000000000\n 11666: a1 = s1 + 0x1420\n 11670: u64 [a2 + 0x300] = a3\n 11674: u64 [s1 + 0x1b8] = a0\n 11678: u64 [s1 + 0x1b0] = a4\n 11682: u64 [s1 + 0x1a0] = t0\n 11686: u64 [s1 + 0x1a8] = a5\n 11690: ra = 296, jump @19\n      : @308 [@dyn 148] (gas: 12)\n 11696: a5 = s1 + 0x100\n 11700: a1 = u64 [a5 + 0xb8]\n 11704: a0 = u64 [a5 + 0xa8]\n 11708: a3 = u64 [a5 + 0xa0]\n 11712: a3 = a3 | a0\n 11715: a4 = 0x100000000\n 11725: a0 = 0xfffffffc\n 11735: a0 = a1 <u a0\n 11738: a2 = u64 [a5 + 0xb0]\n 11742: a0 = 0 if a2 != 0\n 11744: a0 = 0 if a3 != 0\n 11746: jump @310 if a0 != 0\n      : @309 (gas: 1)\n 11749: jump @929\n      : @310 (gas: 10)\n 11752: i32 a0 = a1 + 0x4\n 11755: a2 = s1 + 0x1138\n 11759: u64 [a2 + 736] = 0\n 11763: u64 [a2 + 728] = 0\n 11767: u64 [a2 + 712] = 0x20\n 11772: a1 = s1 + 0x1400\n 11776: u64 [a2 + 720] = 0\n 11780: u64 [s1 + 0x1a8] = a3\n 11784: u64 [s1 + 0x1a0] = a4\n 11788: ra = 298, jump @19\n      : @311 [@dyn 149] (gas: 10)\n 11794: a4 = s1 + 0x100\n 11798: a3 = u64 [a4 + 0xa8]\n 11802: a2 = u64 [a4 + 0xb0]\n 11806: a1 = u64 [a4 + 0xb8]\n 11810: a0 = u64 [a4 + 0xa0]\n 11814: a0 = a0 + 0xffffffffffffffdc\n 11817: a0 = a1 <u a0\n 11820: a0 = 0 if a2 != 0\n 11822: a0 = 0 if a3 != 0\n 11824: jump @313 if a0 != 0\n      : @312 (gas: 1)\n 11827: jump @929\n      : @313 (gas: 8)\n 11830: i32 a0 = a1 + 0x24\n 11833: a3 = s1 + 0x1138\n 11837: u64 [a3 + 704] = 0\n 11841: u64 [a3 + 696] = 0\n 11845: u64 [a3 + 680] = 0xc\n 11850: a1 = s1 + 0x13e0\n 11854: u64 [a3 + 688] = 0\n 11858: ra = 300, jump @19\n      : @314 [@dyn 150] (gas: 9)\n 11864: a3 = s1 + 0x100\n 11868: a2 = u64 [a3 + 0xb8]\n 11872: a0 = 0xffffffbc\n 11882: a0 = a2 <u a0\n 11885: a1 = u64 [a3 + 0xb0]\n 11889: a0 = 0 if a1 != 0\n 11891: a1 = u64 [a3 + 0xa8]\n 11895: a0 = 0 if a1 != 0\n 11897: jump @316 if a0 != 0\n      : @315 (gas: 1)\n 11900: jump @929\n      : @316 (gas: 10)\n 11903: i32 a0 = a2 + 0x44\n 11906: a1 = u64 [0x20020]\n 11911: a3 = s1 + 0x1138\n 11915: u64 [a3 + 656] = 0\n 11919: u64 [a3 + 0x2a0] = a1\n 11923: a1 = 0x67656e7400000000\n 11933: u64 [a3 + 0x298] = a1\n 11937: a1 = s1 + 0x13c0\n 11941: u64 [a3 + 648] = 0\n 11945: ra = 302, jump @19\n      : @317 [@dyn 151] (gas: 4)\n 11951: a1 = 0x64\n 11954: a0 = u64 [s1 + 0x1b8]\n 11958: ra = 0x138\n 11962: jump @26\n      : @318 (gas: 6)\n 11965: a0 = t2 | a3\n 11968: a0 = a0 >> 0x20\n 11971: a1 = a1 | a3\n 11974: a1 = a1 << 0x20\n 11977: a0 = a0 | a1\n 11980: jump @320 if a0 == 0\n      : @319 (gas: 1)\n 11983: jump @929\n      : @320 (gas: 12)\n 11986: u64 [a5 + 824] = 0\n 11990: u64 [a5 + 816] = 0\n 11994: u64 [a5 + 808] = 0\n 11998: a0 = 0x8c379a000000000\n 12008: a1 = s1 + 0x7ff\n 12012: a1 = a1 + 0x461\n 12016: u64 [a5 + 0x340] = a0\n 12020: a0 = a2\n 12022: u64 [s1 + 0x118] = a2\n 12026: u64 [s1 + 0x110] = t1\n 12030: u64 [s1 + 0x1b0] = t0\n 12034: ra = 304, jump @19\n      : @321 [@dyn 152] (gas: 10)\n 12040: a4 = s1 + 0x100\n 12044: a1 = u64 [a4 + 0x18]\n 12047: a3 = 0x100000000\n 12057: a0 = 0xfffffffc\n 12067: a0 = a1 <u a0\n 12070: a2 = u64 [a4 + 0x10]\n 12073: a0 = 0 if a2 != 0\n 12075: a2 = u64 [a4 + 0xb0]\n 12079: a0 = 0 if a2 != 0\n 12081: jump @323 if a0 != 0\n      : @322 (gas: 1)\n 12084: jump @929\n      : @323 (gas: 11)\n 12087: i32 a0 = a1 + 0x4\n 12090: a2 = s1 + 0x7ff\n 12094: a2 = a2 + 0x139\n 12098: u64 [a2 + 800] = 0\n 12102: u64 [a2 + 792] = 0\n 12106: u64 [a2 + 776] = 0x20\n 12111: a1 = s1 + 0x7ff\n 12115: a1 = a1 + 0x441\n 12119: u64 [a2 + 784] = 0\n 12123: u64 [s1 + 0x1b8] = a3\n 12127: ra = 306, jump @19\n      : @324 [@dyn 153] (gas: 10)\n 12133: a4 = s1 + 0x100\n 12137: a3 = u64 [a4 + 0xb0]\n 12141: a2 = u64 [a4 + 0x10]\n 12144: a1 = u64 [a4 + 0x18]\n 12147: a0 = u64 [a4 + 0xb8]\n 12151: a0 = a0 + 0xffffffffffffffdc\n 12154: a0 = a1 <u a0\n 12157: a0 = 0 if a2 != 0\n 12159: a0 = 0 if a3 != 0\n 12161: jump @326 if a0 != 0\n      : @325 (gas: 1)\n 12164: jump @929\n      : @326 (gas: 10)\n 12167: i32 a0 = a1 + 0x24\n 12170: a4 = s1 + 0x7ff\n 12174: a4 = a4 + 0x139\n 12178: u64 [a4 + 768] = 0\n 12182: u64 [a4 + 760] = 0\n 12186: u64 [a4 + 744] = 0x12\n 12191: a1 = s1 + 0x7ff\n 12195: a1 = a1 + 0x421\n 12199: u64 [a4 + 752] = 0\n 12203: ra = 308, jump @19\n      : @327 [@dyn 154] (gas: 9)\n 12209: a3 = s1 + 0x100\n 12213: a2 = u64 [a3 + 0x18]\n 12216: a0 = 0xffffffbc\n 12226: a0 = a2 <u a0\n 12229: a1 = u64 [a3 + 0x10]\n 12232: a0 = 0 if a1 != 0\n 12234: a1 = u64 [a3 + 0xb0]\n 12238: a0 = 0 if a1 != 0\n 12240: jump @329 if a0 != 0\n      : @328 (gas: 1)\n 12243: jump @929\n      : @329 (gas: 14)\n 12246: i32 a0 = a2 + 0x44\n 12249: a1 = u64 [0x20028]\n 12254: a2 = u64 [0x20030]\n 12259: a3 = s1 + 0x7ff\n 12263: a3 = a3 + 0x139\n 12267: a4 = a3 + 0x200\n 12271: u64 [a4 + 0xe0] = a1\n 12275: u64 [a4 + 0xd8] = a2\n 12279: a1 = 0x6564000000000000\n 12289: u64 [a4 + 0xd0] = a1\n 12293: a1 = s1 + 0x7ff\n 12297: a1 = a1 + 0x401\n 12301: u64 [a3 + 712] = 0\n 12305: ra = 310, jump @19\n      : @330 [@dyn 155] (gas: 3)\n 12311: a1 = 0x64\n 12314: a0 = u64 [s1 + 0x118]\n 12318: ra = 312, jump @26\n      : @331 [@dyn 156] (gas: 5)\n 12324: i32 a1 = a0 + 0\n 12326: a0 = 0x1\n 12329: a2 = 0x64\n 12332: ecalli 7 // 'seal_return'\n 12334: fallthrough\n      : @332 (gas: 5)\n 12335: a0 = u64 [s1 + 0xa0]\n 12339: ra = 0x13a\n 12343: ecalli 3 // 'caller'\n 12345: t0 = 0x13c\n 12349: jump @1174\n      : @333 [@dyn 157] (gas: 1)\n 12352: t0 = 316, jump @1174\n      : @334 [@dyn 158] (gas: 8)\n 12358: u64 [a2 + 992] = 0\n 12362: a4 = a2 + 0x300\n 12366: u64 [a4 + 0xd8] = a1\n 12370: u64 [a4 + 0xd0] = a0\n 12374: a1 = s1 + 0x1d00\n 12378: u64 [a4 + 0xc8] = a3\n 12382: a0 = 0\n 12384: ra = 318, jump @19\n      : @335 [@dyn 159] (gas: 9)\n 12390: a0 = s1 + 0x1938\n 12394: u64 [a0 + 960] = 0\n 12398: u64 [a0 + 952] = 0\n 12402: u64 [a0 + 944] = 0\n 12406: a2 = a0\n 12408: a0 = 0x20\n 12411: a1 = s1 + 0x1ce0\n 12415: u64 [a2 + 936] = 0\n 12419: ra = 320, jump @19\n      : @336 [@dyn 160] (gas: 7)\n 12425: a0 = sp + 0xffffffffffffffe0\n 12428: a0 = a0 & 0xffffffffffffffe0\n 12431: u64 [s1 + 0x90] = a0\n 12435: sp = a0\n 12437: a2 = u64 [s1 + 0xa8]\n 12441: a0 = i32 [a2]\n 12443: jump @338 if a0 >u 63\n      : @337 (gas: 2)\n 12447: u32 [a2 + 0] = 0x40\n 12450: fallthrough\n      : @338 (gas: 9)\n 12451: a0 = sp + 0xffffffffffffffe0\n 12454: a0 = a0 & 0xffffffffffffffe0\n 12457: u64 [s1 + 0x1b8] = a0\n 12461: sp = a0\n 12463: i32 a2 = a0 + 0\n 12465: a1 = 0x40\n 12468: a0 = u64 [s1 + 0xb0]\n 12472: ecalli 6 // 'hash_keccak_256'\n 12474: fallthrough\n      : @339 (gas: 45)\n 12475: a3 = u64 [s1 + 0x1b8]\n 12479: a0 = u64 [a3 + 0x18]\n 12482: a1 = u64 [a3 + 0x10]\n 12485: a2 = u64 [a3 + 0x8]\n 12488: a3 = u64 [a3]\n 12490: a4 = reverse a0\n 12492: ra = reverse a1\n 12494: a5 = reverse a2\n 12496: a1 = reverse a3\n 12498: a0 = u64 [s1 + 0x90]\n 12502: u64 [a0 + 0x18] = a1\n 12505: u64 [a0 + 0x10] = a5\n 12508: a3 = ra\n 12510: u64 [a0 + 0x8] = a3\n 12513: u64 [a0] = a4\n 12515: a0 = sp + 0xffffffffffffffe0\n 12518: t0 = a0 & 0xffffffffffffffe0\n 12521: sp = t0\n 12523: u64 [s1 + 0x78] = a4\n 12526: a2 = a4 + 0x1\n 12529: a0 = a2 <u 0x1\n 12532: u64 [s1 + 0x80] = a3\n 12536: ra = ra + a0\n 12539: a0 = a2 | ra\n 12542: a0 = a0 <u 0x1\n 12545: a4 = a5 + a0\n 12548: t1 = u64 [s1 + 0x138]\n 12552: a0 = u64 [s1 + 0x150]\n 12556: a0 = a0 | t1\n 12559: a3 = u64 [s1 + 0x148]\n 12563: t2 = u64 [s1 + 0x140]\n 12567: a3 = a3 | t2\n 12570: a0 = a0 | a3\n 12573: a0 = a0 >> 0x20\n 12576: a3 = a3 | t1\n 12579: a3 = a3 << 0x20\n 12582: a3 = a3 | a0\n 12585: a0 = a4 <u a5\n 12588: a0 = a0 + a1\n 12591: u64 [t0 + 0x10] = a4\n 12594: u64 [t0 + 0x8] = ra\n 12597: u64 [t0] = a2\n 12599: u64 [s1 + 0x88] = t0\n 12603: u64 [t0 + 0x18] = a0\n 12606: jump @341 if a3 == 0\n      : @340 (gas: 1)\n 12609: jump @929\n      : @341 (gas: 9)\n 12612: u64 [s1 + 0x60] = a1\n 12615: u64 [s1 + 0x68] = a5\n 12618: u64 [s1 + 0x40] = a0\n 12621: u64 [s1 + 0x48] = a4\n 12624: u64 [s1 + 0x50] = ra\n 12627: u64 [s1 + 0x58] = a2\n 12630: a0 = s1 + 0x1cc0\n 12634: a1 = u64 [s1 + 0x150]\n 12638: ra = 322, jump @17\n      : @342 [@dyn 161] (gas: 19)\n 12644: a2 = s1 + 0x1938\n 12648: a0 = a2 + 0x300\n 12652: a4 = u64 [a0 + 0xa0]\n 12656: a1 = u64 [a0 + 0x98]\n 12660: a3 = u64 [a0 + 0x90]\n 12664: a0 = a4 >u 0\n 12666: a5 = a1 >u 0\n 12668: a5 = a0 if a4 != 0\n 12671: u64 [s1 + 0x170] = a3\n 12675: a0 = a3 >u 0\n 12677: u64 [s1 + 0x70] = a1\n 12680: a3 = s1 + 0x100\n 12684: u64 [a3 + 0x68] = a4\n 12687: a1 = a1 | a4\n 12690: u64 [a3 + 0x28] = a0\n 12693: u64 [a3 + 0x30] = a5\n 12696: u64 [a3 + 0x60] = a1\n 12699: a0 = a5 if a1 != 0\n 12702: jump @344 if a0 == 0\n      : @343 (gas: 1)\n 12705: jump @944\n      : @344 (gas: 5)\n 12708: a0 = u64 [a2 + 0x388]\n 12712: u64 [s1 + 0x98] = a0\n 12716: a0 = s1 + 0x1ca0\n 12720: a1 = u64 [s1 + 0x88]\n 12724: ra = 324, jump @21\n      : @345 [@dyn 162] (gas: 3)\n 12730: a4 = s1 + 0x1938\n 12734: a5 = a4 + 0x300\n 12738: t0 = 326, jump @1201\n      : @346 [@dyn 163] (gas: 5)\n 12744: i32 a0 = a0 + 0xfffffffffffffc80\n 12748: a0 = a0 + s1\n 12751: a1 = s1 + 0x1c60\n 12755: u64 [a5 + 0x28] = a2\n 12758: ra = 328, jump @1120\n      : @347 [@dyn 164] (gas: 19)\n 12764: a0 = s1 + 0x1938\n 12768: a1 = a0 + 0x300\n 12772: a3 = u64 [a1 + 0x60]\n 12775: a4 = u64 [a1 + 0x58]\n 12778: a5 = u64 [a1 + 0x50]\n 12781: t0 = u64 [a0 + 0x348]\n 12785: a0 = a3 >u 0\n 12787: a1 = a4 >u 0\n 12789: a1 = a0 if a3 != 0\n 12792: a0 = a5 >u 0\n 12794: a2 = t0 <u 0x20\n 12797: a2 = a2 ^ 0x1\n 12800: a2 = a0 if a5 != 0\n 12803: a0 = a4 | a3\n 12806: a2 = a1 if a0 != 0\n 12809: a0 = u64 [s1 + 0x98]\n 12813: a0 = a0 <u 0x20\n 12816: u64 [s1 + 0x158] = a0\n 12820: jump @362 if a2 == 0\n      : @348 (gas: 18)\n 12824: u64 [s1 + 0x190] = t0\n 12828: a0 = s1 + 0x100\n 12832: u64 [a0 + 0x98] = a5\n 12836: u64 [a0 + 0xb0] = a4\n 12840: u64 [a0 + 0xa0] = a3\n 12844: a0 = s1 + 0x1938\n 12848: a1 = u64 [s1 + 0x58]\n 12851: a3 = a0 + 0x300\n 12855: u64 [a3 + 0x8] = a1\n 12858: a1 = u64 [s1 + 0x50]\n 12861: u64 [a3 + 0x10] = a1\n 12864: a1 = u64 [s1 + 0x48]\n 12867: u64 [a3 + 0x18] = a1\n 12870: a1 = s1 + 0x1c40\n 12874: a2 = u64 [s1 + 0x40]\n 12877: u64 [a3 + 0x20] = a2\n 12880: a0 = 0\n 12882: ra = 330, jump @19\n      : @349 [@dyn 165] (gas: 3)\n 12888: a2 = u64 [s1 + 0xa8]\n 12892: a0 = i32 [a2]\n 12894: jump @351 if a0 >u 31\n      : @350 (gas: 3)\n 12898: u32 [a2 + 0] = 0x20\n 12901: t0 = 0x14c\n 12905: jump @1170\n      : @351 (gas: 1)\n 12908: t0 = 332, jump @1170\n      : @352 [@dyn 166] (gas: 5)\n 12914: ra = 0x14e\n 12918: ecalli 6 // 'hash_keccak_256'\n 12920: a0 = u64 [s1 + 0x98]\n 12924: t0 = 0x150\n 12928: jump @1180\n      : @353 [@dyn 167] (gas: 2)\n 12931: a0 = u64 [s1 + 0x98]\n 12935: t0 = 336, jump @1180\n      : @354 [@dyn 168] (gas: 2)\n 12941: a4 = u64 [s1 + 0x70]\n 12944: t0 = 338, jump @1155\n      : @355 [@dyn 169] (gas: 29)\n 12950: t0 = t2 + a0\n 12953: a0 = t0 <u t2\n 12956: a5 = a2 + a0\n 12959: a4 = a4 + a5\n 12962: u64 [s1 + 0x1b8] = a4\n 12966: a5 = a4 ^ a2\n 12969: a3 = a4 <u a2\n 12972: a3 = a0 if a5 == 0\n 12975: u64 [s1 + 0x180] = a3\n 12979: a0 = u64 [s1 + 0x190]\n 12983: ra = a0 + 0x1f\n 12986: a4 = ra <u a0\n 12989: a3 = u64 [s1 + 0x198]\n 12993: a0 = a3 + a4\n 12996: a5 = a0 <u a3\n 12999: a5 = a4 if a4 == 0\n 13002: t1 = u64 [s1 + 0x1b0]\n 13006: t1 = t1 + a5\n 13009: a4 = t1 << 0x3b\n 13012: a3 = a0 >> 0x5\n 13015: a3 = a3 | a4\n 13018: a0 = a0 << 0x3b\n 13021: a4 = ra >> 0x5\n 13024: a0 = a0 | a4\n 13027: a0 = a0 + t2\n 13030: u64 [s1 + 0x198] = a0\n 13034: a0 = a0 <u t2\n 13037: t2 = t0\n 13039: t0 = 340, jump @1176\n      : @356 [@dyn 170] (gas: 4)\n 13045: a0 = u64 [s1 + 0x70]\n 13048: a0 = a4 <u a0\n 13051: a3 = u64 [s1 + 0x168]\n 13055: t0 = 342, jump @1178\n      : @357 [@dyn 171] (gas: 8)\n 13061: t0 = u64 [a4]\n 13063: a4 = u64 [a4 + 0x8]\n 13066: a0 = a0 >> 0x5\n 13069: a3 = 0 if a1 != 0\n 13071: a0 = 0 if a1 != 0\n 13073: a1 = reverse a4\n 13075: a4 = reverse t0\n 13077: t0 = 344, jump @1167\n      : @358 [@dyn 172] (gas: 25)\n 13083: t0 = a0 + a3\n 13086: a0 = u64 [s1 + 0x1b0]\n 13090: a0 = t1 <u a0\n 13093: a3 = u64 [s1 + 0x1a0]\n 13097: a0 = a0 + a3\n 13100: a3 = t1 >> 0x5\n 13103: a5 = a0 << 0x3b\n 13106: a3 = a3 | a5\n 13109: a0 = a0 >> 0x5\n 13112: a0 = a0 + a4\n 13115: a5 = s1 + 0x100\n 13119: a4 = u64 [a5 + 0xb8]\n 13123: a3 = a3 + a1\n 13126: a1 = a3 <u a1\n 13129: a0 = a0 + a1\n 13132: a2 = a2 + a3\n 13135: u64 [a5 + 0x88] = a2\n 13139: a1 = a2 <u a3\n 13142: a0 = a0 + a1\n 13145: u64 [a5 + 0x80] = a0\n 13149: a0 = sp + 0xffffffffffffffe0\n 13152: t1 = a0 & 0xffffffffffffffe0\n 13155: sp = t1\n 13157: u64 [s1 + 0x178] = t1\n 13161: fallthrough\n      : @359 (gas: 20)\n 13162: a0 = u64 [s1 + 0x198]\n 13166: a0 = t2 <u a0\n 13169: a2 = u64 [s1 + 0x190]\n 13173: a1 = a4 ^ a2\n 13176: a2 = a4 <u a2\n 13179: a2 = a0 if a1 == 0\n 13182: a5 = u64 [s1 + 0x188]\n 13186: a0 = ra <u a5\n 13189: a3 = u64 [s1 + 0x180]\n 13193: a1 = t0 ^ a3\n 13196: a3 = t0 <u a3\n 13199: a3 = a0 if a1 == 0\n 13202: a0 = ra ^ a5\n 13205: a0 = a0 | a1\n 13208: a3 = a2 if a0 == 0\n 13211: u64 [t1] = t2\n 13213: u64 [t1 + 0x8] = a4\n 13216: u64 [t1 + 0x10] = ra\n 13219: u64 [t1 + 0x18] = t0\n 13222: jump @362 if a3 == 0\n      : @360 (gas: 12)\n 13225: a0 = s1 + 0x2138\n 13229: u64 [a0 + 2016] = 0\n 13233: u64 [a0 + 2008] = 0\n 13237: u64 [a0 + 2000] = 0\n 13241: u64 [a0 + 1992] = 0\n 13245: a1 = s1 + 0x2900\n 13249: a0 = t1\n 13251: u64 [s1 + 0x1b0] = t2\n 13255: u64 [s1 + 0x1b8] = a4\n 13259: u64 [s1 + 0x1a8] = t0\n 13263: u64 [s1 + 0x1a0] = ra\n 13267: ra = 346, jump @23\n      : @361 [@dyn 173] (gas: 15)\n 13273: t1 = u64 [s1 + 0x178]\n 13277: t0 = u64 [s1 + 0x1a8]\n 13281: a4 = u64 [s1 + 0x1b8]\n 13285: t2 = u64 [s1 + 0x1b0]\n 13289: t2 = t2 + 0x1\n 13292: a0 = t2 <u 0x1\n 13295: a4 = a4 + a0\n 13298: a0 = t2 | a4\n 13301: a0 = a0 <u 0x1\n 13304: a1 = u64 [s1 + 0x1a0]\n 13308: a0 = a0 + a1\n 13311: a1 = a0 <u a1\n 13314: t0 = t0 + a1\n 13317: ra = a0\n 13319: jump @359\n      : @362 (gas: 29)\n 13322: a3 = s1 + 0x100\n 13326: a0 = u64 [a3 + 0x58]\n 13329: a0 = a0 ^ 0x1\n 13332: ra = u64 [s1 + 0x170]\n 13336: a1 = u64 [a3 + 0x28]\n 13339: a0 = a1 if ra != 0\n 13342: a1 = u64 [a3 + 0x30]\n 13345: a2 = u64 [a3 + 0x60]\n 13348: a0 = a1 if a2 != 0\n 13351: t1 = u64 [s1 + 0x168]\n 13355: a1 = ra | t1\n 13358: u64 [a3 + 0x30] = a1\n 13361: a2 = u64 [s1 + 0x70]\n 13364: t2 = a2 >> 0x3f\n 13367: t1 = t1 << 0x1\n 13370: a5 = ra >> 0x3f\n 13373: a4 = a2 << 0x1\n 13376: a1 = u64 [s1 + 0x98]\n 13380: t0 = a1 >> 0x3f\n 13383: ra = ra << 0x1\n 13386: a3 = a1 << 0x1\n 13389: u64 [s1 + 0x8] = a3\n 13392: u64 [s1 + 0x20] = t2\n 13395: u64 [s1 + 0x18] = t1\n 13398: u64 [s1 + 0x10] = t0\n 13401: u64 [s1 + 0x38] = a5\n 13404: u64 [s1 + 0x30] = ra\n 13407: u64 [s1 + 0x28] = a4\n 13410: jump @376 if a0 == 0\n      : @363 (gas: 15)\n 13414: a1 = a1 & 0xffffffffffffffe0\n 13417: u64 [s1 + 0x128] = a1\n 13421: a0 = s1 + 0x1938\n 13425: a1 = u64 [s1 + 0x58]\n 13428: a3 = a0 + 0x200\n 13432: u64 [a3 + 0xc8] = a1\n 13436: a1 = u64 [s1 + 0x50]\n 13439: u64 [a3 + 0xd0] = a1\n 13443: a1 = u64 [s1 + 0x48]\n 13446: u64 [a3 + 0xd8] = a1\n 13450: a1 = s1 + 0x1c00\n 13454: a2 = u64 [s1 + 0x40]\n 13457: u64 [a3 + 0xe0] = a2\n 13461: a0 = 0\n 13463: ra = 348, jump @19\n      : @364 [@dyn 174] (gas: 1)\n 13469: t0 = 350, jump @1181\n      : @365 [@dyn 175] (gas: 1)\n 13475: ra = 352, jump @26\n      : @366 [@dyn 176] (gas: 1)\n 13481: t0 = 354, jump @1183\n      : @367 [@dyn 177] (gas: 28)\n 13487: ecalli 6 // 'hash_keccak_256'\n 13489: u64 [s1 + 440] = 0x20\n 13494: t0 = 0\n 13496: u64 [s1 + 432] = 0\n 13500: u64 [s1 + 424] = 0\n 13504: a4 = 0\n 13506: a5 = 0\n 13508: ra = 0\n 13510: u64 [s1 + 416] = 0\n 13514: a3 = u64 [s1 + 0x190]\n 13518: a0 = u64 [a3 + 0x18]\n 13521: a1 = u64 [a3 + 0x10]\n 13524: a2 = u64 [a3 + 0x8]\n 13527: t1 = u64 [a3]\n 13529: a0 = reverse a0\n 13531: a1 = reverse a1\n 13533: a3 = reverse a2\n 13535: t1 = reverse t1\n 13537: t2 = t1\n 13539: a2 = u64 [s1 + 0x198]\n 13543: u64 [a2 + 0x18] = t1\n 13546: u64 [s1 + 0x188] = a3\n 13550: u64 [a2 + 0x10] = a3\n 13553: u64 [s1 + 0x190] = a1\n 13557: u64 [a2 + 0x8] = a1\n 13560: a3 = a0\n 13562: u64 [a2] = a0\n 13564: fallthrough\n      : @368 (gas: 25)\n 13565: u64 [s1 + 0x180] = t2\n 13569: t1 = a3\n 13571: a0 = u64 [s1 + 0x128]\n 13575: u64 [s1 + 0x178] = a4\n 13579: a0 = a4 <u a0\n 13582: a4 = a0 ^ 0x1\n 13585: u64 [s1 + 0x170] = a5\n 13589: a4 = 0x1 if a5 != 0\n 13592: a5 = s1 + 0x100\n 13596: a0 = u64 [a5 + 0xa0]\n 13600: a0 = ra | a0\n 13603: a4 = 0x1 if a0 != 0\n 13606: a1 = u64 [a5 + 0x50]\n 13609: a0 = u64 [a5 + 0xb8]\n 13613: a1 = a1 + a0\n 13616: a3 = u64 [a5 + 0x48]\n 13619: a3 = a3 + t0\n 13622: a2 = u64 [a5 + 0x38]\n 13625: a0 = u64 [a5 + 0xb0]\n 13629: a2 = a2 + a0\n 13632: a0 = u64 [a5 + 0x40]\n 13635: t2 = u64 [s1 + 0x1a8]\n 13639: t2 = t2 + a0\n 13642: a0 = u64 [a5 + 0x30]\n 13645: jump @379 if a4 != 0\n      : @369 (gas: 9)\n 13649: a0 = u64 [s1 + 0x1b8]\n 13653: a4 = a1 <u a0\n 13656: a3 = a3 + a4\n 13659: a0 = t0\n 13661: t0 = a3 ^ t0\n 13664: u64 [s1 + 0x160] = a0\n 13668: a5 = a3 <u a0\n 13671: a5 = a4 if t0 == 0\n 13674: t0 = 356, jump @1179\n      : @370 [@dyn 178] (gas: 1)\n 13680: jump @372 if a0 == 0\n      : @371 (gas: 1)\n 13683: jump @929\n      : @372 (gas: 3)\n 13686: a0 = s1 + 0x14a0\n 13690: u64 [s1 + 0x158] = ra\n 13694: ra = 358, jump @17\n      : @373 [@dyn 179] (gas: 2)\n 13700: a0 = 0x1000\n 13704: t0 = 360, jump @1214\n      : @374 [@dyn 180] (gas: 13)\n 13710: a0 = u64 [a4 + 0x80]\n 13714: a1 = u64 [a4 + 0x78]\n 13717: a2 = u64 [a4 + 0x70]\n 13720: a3 = u64 [a4 + 0x68]\n 13723: a4 = s1 + 0x2938\n 13727: u64 [a4] = a0\n 13729: a0 = a4 + 0xffffffffffffff00\n 13733: u64 [a0 + 0xf8] = a1\n 13737: u64 [a0 + 0xf0] = a2\n 13741: u64 [a0 + 0xe8] = a3\n 13745: a1 = s1 + 0x2920\n 13749: a0 = u64 [s1 + 0x198]\n 13753: ra = 362, jump @23\n      : @375 [@dyn 181] (gas: 56)\n 13759: t2 = u64 [s1 + 0x168]\n 13763: t2 = t2 + 0x1\n 13766: a0 = t2 <u 0x1\n 13769: t0 = u64 [s1 + 0x190]\n 13773: t0 = t0 + a0\n 13776: a0 = t2 | t0\n 13779: a0 = a0 <u 0x1\n 13782: a1 = u64 [s1 + 0x188]\n 13786: t1 = a1 + a0\n 13789: a1 = t1 <u a1\n 13792: a0 = u64 [s1 + 0x180]\n 13796: a0 = a0 + a1\n 13799: a1 = u64 [s1 + 0x1b8]\n 13803: a2 = a1 + 0x20\n 13806: u64 [s1 + 0x180] = a2\n 13810: a3 = a2 <u a1\n 13813: a1 = u64 [s1 + 0x160]\n 13817: a2 = a1 + a3\n 13820: u64 [s1 + 0x168] = a2\n 13824: a4 = a2 <u a1\n 13827: a4 = a3 if a3 == 0\n 13830: a1 = u64 [s1 + 0x1b0]\n 13834: ra = a1 + a4\n 13837: a4 = ra <u a1\n 13840: a1 = u64 [s1 + 0x1a8]\n 13844: a1 = a1 + a4\n 13847: u64 [s1 + 0x1a8] = a1\n 13851: a1 = u64 [s1 + 0x178]\n 13855: a4 = a1 + 0x20\n 13858: a5 = a4 <u a1\n 13861: a2 = u64 [s1 + 0x170]\n 13865: a1 = a2 + a5\n 13868: a2 = a1 <u a2\n 13871: a2 = a5 if a5 == 0\n 13874: a3 = u64 [s1 + 0x158]\n 13878: a2 = a2 + a3\n 13881: a5 = a2 <u a3\n 13884: a3 = u64 [s1 + 0x1a0]\n 13888: a3 = a3 + a5\n 13891: u64 [s1 + 0x1a0] = a3\n 13895: u64 [s1 + 0x190] = t0\n 13899: a5 = u64 [s1 + 0x198]\n 13903: u64 [a5 + 0x8] = t0\n 13906: a3 = t2\n 13908: u64 [a5] = t2\n 13910: u64 [a5 + 0x10] = t1\n 13913: t2 = a0\n 13915: u64 [a5 + 0x18] = a0\n 13918: u64 [s1 + 0x188] = t1\n 13922: a0 = u64 [s1 + 0x180]\n 13926: u64 [s1 + 0x1b8] = a0\n 13930: t0 = u64 [s1 + 0x168]\n 13934: u64 [s1 + 0x1b0] = ra\n 13938: a5 = a1\n 13940: ra = a2\n 13942: jump @368\n      : @376 (gas: 5)\n 13945: a0 = a1 | a2\n 13948: a1 = u64 [s1 + 0x130]\n 13952: a0 = a0 | a1\n 13955: a2 = u64 [s1 + 0x150]\n 13959: jump @395 if a0 != 0\n      : @377 (gas: 1)\n 13963: t0 = 364, jump @1172\n      : @378 [@dyn 182] (gas: 6)\n 13969: a2 = u64 [s1 + 0x20]\n 13972: t0 = u64 [s1 + 0x18]\n 13975: a4 = u64 [s1 + 0x38]\n 13978: a5 = u64 [s1 + 0x28]\n 13981: t1 = u64 [s1 + 0x30]\n 13984: jump @400\n      : @379 (gas: 11)\n 13987: ra = t0\n 13989: a4 = u64 [s1 + 0x98]\n 13993: a5 = u64 [s1 + 0x128]\n 13997: a4 = a4 ^ a5\n 14000: a5 = u64 [s1 + 0x70]\n 14003: a4 = a4 | a5\n 14006: a4 = a4 | a0\n 14009: t1 = u64 [s1 + 0x38]\n 14012: t0 = u64 [s1 + 0x30]\n 14015: a5 = u64 [s1 + 0x28]\n 14018: jump @394 if a4 == 0\n      : @380 (gas: 12)\n 14022: a0 = u64 [s1 + 0x1b8]\n 14026: a4 = a1 <u a0\n 14029: a3 = a3 + a4\n 14032: t0 = a3 ^ ra\n 14035: a5 = a3 <u ra\n 14038: a5 = a4 if t0 == 0\n 14041: a5 = a5 + a2\n 14044: a4 = a5 <u a2\n 14047: a0 = u64 [s1 + 0x1b0]\n 14051: a2 = a2 <u a0\n 14054: a0 = t2 + a2\n 14057: t0 = 366, jump @1161\n      : @381 [@dyn 183] (gas: 1)\n 14063: jump @383 if a0 == 0\n      : @382 (gas: 1)\n 14066: jump @929\n      : @383 (gas: 2)\n 14069: a0 = s1 + 0x1be0\n 14073: ra = 368, jump @17\n      : @384 [@dyn 184] (gas: 3)\n 14079: a0 = s1 + 0x1938\n 14083: a2 = a0 + 0x200\n 14087: t0 = 370, jump @1203\n      : @385 [@dyn 185] (gas: 2)\n 14093: a0 = u64 [s1 + 0x98]\n 14097: t0 = 372, jump @1158\n      : @386 [@dyn 186] (gas: 1)\n 14103: ra = 374, jump @1221\n      : @387 [@dyn 187] (gas: 1)\n 14109: t0 = 376, jump @1165\n      : @388 [@dyn 188] (gas: 1)\n 14115: ra = 378, jump @1216\n      : @389 [@dyn 189] (gas: 1)\n 14121: t0 = 380, jump @1154\n      : @390 [@dyn 190] (gas: 1)\n 14127: ra = 382, jump @1216\n      : @391 [@dyn 191] (gas: 1)\n 14133: t0 = 384, jump @1153\n      : @392 [@dyn 192] (gas: 7)\n 14139: u64 [a4 + 0x20] = a3\n 14142: u64 [a4 + 0x18] = a2\n 14145: u64 [a4 + 0x10] = a1\n 14148: u64 [a4 + 0x8] = a0\n 14151: a1 = s1 + 0x2940\n 14155: a0 = u64 [s1 + 0x198]\n 14159: ra = 386, jump @23\n      : @393 [@dyn 193] (gas: 4)\n 14165: a5 = u64 [s1 + 0x28]\n 14168: t0 = u64 [s1 + 0x30]\n 14171: t1 = u64 [s1 + 0x38]\n 14174: fallthrough\n      : @394 (gas: 15)\n 14175: a0 = u64 [s1 + 0x20]\n 14178: a1 = u64 [s1 + 0x18]\n 14181: a0 = a0 | a1\n 14184: a1 = a5 | t1\n 14187: a2 = u64 [s1 + 0x10]\n 14190: a2 = t0 | a2\n 14193: a3 = u64 [s1 + 0x8]\n 14196: a3 = a3 + 0x1\n 14199: a4 = s1 + 0x2938\n 14203: u64 [a4 + 0x28] = a3\n 14206: u64 [a4 + 0x30] = a2\n 14209: u64 [a4 + 0x38] = a1\n 14212: u64 [a4 + 0x40] = a0\n 14215: a0 = 0x2960\n 14219: jump @408\n      : @395 (gas: 4)\n 14222: a4 = s1 + 0x100\n 14226: a0 = u64 [a4 + 0x40]\n 14229: a1 = u64 [a4 + 0x38]\n 14232: t0 = 388, jump @1215\n      : @396 [@dyn 194] (gas: 4)\n 14238: a3 = u64 [a4 + 0x48]\n 14241: a1 = 0 if a3 != 0\n 14243: a1 = 0 if a0 != 0\n 14245: jump @398 if a1 != 0\n      : @397 (gas: 1)\n 14248: jump @929\n      : @398 (gas: 3)\n 14251: i32 a1 = a2 + 0x20\n 14254: a0 = s1 + 0x1c20\n 14258: ra = 390, jump @17\n      : @399 [@dyn 195] (gas: 16)\n 14264: a5 = u64 [s1 + 0x28]\n 14267: t1 = u64 [s1 + 0x30]\n 14270: a4 = u64 [s1 + 0x38]\n 14273: t0 = u64 [s1 + 0x18]\n 14276: a2 = u64 [s1 + 0x20]\n 14279: a0 = s1 + 0x1938\n 14283: a1 = u64 [a0 + 0x300]\n 14287: a3 = s1 + 0x100\n 14291: u64 [a3 + 0xb0] = a1\n 14295: a1 = u64 [a0 + 0x2f8]\n 14299: u64 [a3 + 0xa8] = a1\n 14303: a1 = u64 [a0 + 0x2f0]\n 14307: u64 [a3 + 0x98] = a1\n 14311: a0 = u64 [a0 + 0x2e8]\n 14315: u64 [a3 + 0xa0] = a0\n 14319: fallthrough\n      : @400 (gas: 10)\n 14320: a1 = u64 [s1 + 0x10]\n 14323: a0 = a5 | a4\n 14326: u64 [s1 + 0x190] = a0\n 14330: a0 = t0 | a2\n 14333: u64 [s1 + 0x188] = a0\n 14337: a0 = t1 | a1\n 14340: u64 [s1 + 0x180] = a0\n 14344: a1 = u64 [s1 + 0x98]\n 14348: a1 = a1 << 0x3\n 14351: t0 = 392, jump @1168\n      : @401 [@dyn 196] (gas: 1)\n 14357: ra = 394, jump @1221\n      : @402 [@dyn 197] (gas: 7)\n 14363: u64 [s1 + 0x160] = a0\n 14367: u64 [s1 + 0x178] = a1\n 14371: a0 = u64 [s1 + 0x98]\n 14375: i32 a2 = a0 << 0x3\n 14378: a0 = 0xffffffffffffffff\n 14381: a1 = 0xffffffffffffffff\n 14384: ra = 396, jump @1216\n      : @403 [@dyn 198] (gas: 1)\n 14390: t0 = 398, jump @1156\n      : @404 [@dyn 199] (gas: 1)\n 14396: ra = 400, jump @1216\n      : @405 [@dyn 200] (gas: 1)\n 14402: t0 = 402, jump @1151\n      : @406 [@dyn 201] (gas: 4)\n 14408: a4 = u64 [s1 + 0x8]\n 14411: a0 = a0 | a4\n 14414: a5 = s1 + 0x100\n 14418: t0 = 404, jump @1177\n      : @407 [@dyn 202] (gas: 6)\n 14424: u64 [a4 + 0x58] = a2\n 14427: u64 [a4 + 0x60] = a3\n 14430: u64 [a4 + 0x50] = a1\n 14433: u64 [a4 + 0x48] = a0\n 14436: a0 = 0x2980\n 14440: fallthrough\n      : @408 (gas: 3)\n 14441: a1 = s1 + a0\n 14444: a0 = u64 [s1 + 0x88]\n 14448: ra = 406, jump @23\n      : @409 [@dyn 203] (gas: 8)\n 14454: a0 = sp + 0xffffffffffffffe0\n 14457: a0 = a0 & 0xffffffffffffffe0\n 14460: sp = a0\n 14462: a1 = u64 [s1 + 0x78]\n 14465: a4 = a1 + 0x2\n 14468: a1 = a4 <u a1\n 14471: a3 = u64 [s1 + 0x80]\n 14475: t0 = 408, jump @1204\n      : @410 [@dyn 204] (gas: 12)\n 14481: a1 = u64 [s1 + 0x68]\n 14484: a3 = a3 + a1\n 14487: a1 = a3 <u a1\n 14490: a5 = u64 [s1 + 0x60]\n 14493: a1 = a1 + a5\n 14496: u64 [a0 + 0x10] = a3\n 14499: u64 [a0 + 0x8] = a2\n 14502: u64 [a0] = a4\n 14504: u64 [a0 + 0x18] = a1\n 14507: u64 [s1 + 0x130] = a0\n 14511: a1 = u64 [s1 + 0xb8]\n 14515: ra = 410, jump @23\n      : @411 [@dyn 205] (gas: 32)\n 14521: a3 = u64 [s1 + 0x78]\n 14524: a1 = u64 [s1 + 0x80]\n 14528: t0 = u64 [s1 + 0x68]\n 14531: a0 = sp + 0xffffffffffffffe0\n 14534: t2 = a0 & 0xffffffffffffffe0\n 14537: sp = t2\n 14539: t1 = a3 + 0x3\n 14542: a0 = t1 <u a3\n 14545: ra = a1 + a0\n 14548: a1 = ra <u a1\n 14551: a1 = a0 if a0 == 0\n 14554: a4 = t0 + a1\n 14557: a1 = u64 [s1 + 0x120]\n 14561: a2 = u64 [s1 + 0x110]\n 14565: a0 = a1 | a2\n 14568: a5 = u64 [s1 + 0x118]\n 14572: a3 = u64 [s1 + 0x108]\n 14576: a5 = a5 | a3\n 14579: a0 = a0 | a5\n 14582: a0 = a0 >> 0x20\n 14585: a5 = a5 | a2\n 14588: a5 = a5 << 0x20\n 14591: a0 = a0 | a5\n 14594: a5 = a4 <u t0\n 14597: t0 = u64 [s1 + 0x60]\n 14600: t0 = t0 + a5\n 14603: u64 [t2 + 0x18] = t0\n 14606: u64 [t2 + 0x10] = a4\n 14609: u64 [t2 + 0x8] = ra\n 14612: u64 [s1 + 0x140] = t2\n 14616: u64 [t2] = t1\n 14618: jump @413 if a0 == 0\n      : @412 (gas: 1)\n 14621: jump @929\n      : @413 (gas: 6)\n 14624: u64 [s1 + 0x88] = t0\n 14628: u64 [s1 + 0x98] = a4\n 14632: u64 [s1 + 0xb8] = ra\n 14636: u64 [s1 + 0x128] = t1\n 14640: a0 = s1 + 0x1bc0\n 14644: ra = 412, jump @17\n      : @414 [@dyn 206] (gas: 3)\n 14650: a2 = s1 + 0x1938\n 14654: a0 = a2 + 0x200\n 14658: t0 = 414, jump @1193\n      : @415 [@dyn 207] (gas: 8)\n 14664: u64 [a3 + 0x38] = a1\n 14667: u64 [a3 + 0x68] = a4\n 14670: a1 = a1 | a4\n 14673: u64 [s1 + 0x70] = a0\n 14676: u64 [a3 + 0x50] = a5\n 14679: u64 [a3 + 0x60] = a1\n 14682: a0 = a5 if a1 != 0\n 14685: jump @417 if a0 == 0\n      : @416 (gas: 1)\n 14688: jump @948\n      : @417 (gas: 5)\n 14691: a0 = u64 [a2 + 0x288]\n 14695: u64 [s1 + 0x148] = a0\n 14699: a0 = s1 + 0x1ba0\n 14703: a1 = u64 [s1 + 0x140]\n 14707: ra = 416, jump @21\n      : @418 [@dyn 208] (gas: 3)\n 14713: a4 = s1 + 0x1938\n 14717: a5 = a4 + 0x200\n 14721: t0 = 418, jump @1201\n      : @419 [@dyn 209] (gas: 5)\n 14727: i32 a0 = a0 + 0xfffffffffffffb80\n 14731: a0 = a0 + s1\n 14734: a1 = s1 + 0x1b60\n 14738: u64 [a5 + 0x28] = a2\n 14741: ra = 420, jump @1120\n      : @420 [@dyn 210] (gas: 19)\n 14747: a0 = s1 + 0x1938\n 14751: a1 = a0 + 0x200\n 14755: a3 = u64 [a1 + 0x60]\n 14758: a4 = u64 [a1 + 0x58]\n 14761: a5 = u64 [a1 + 0x50]\n 14764: t0 = u64 [a0 + 0x248]\n 14768: a0 = a3 >u 0\n 14770: a1 = a4 >u 0\n 14772: a1 = a0 if a3 != 0\n 14775: a0 = a5 >u 0\n 14777: a2 = t0 <u 0x20\n 14780: a2 = a2 ^ 0x1\n 14783: a2 = a0 if a5 != 0\n 14786: a0 = a4 | a3\n 14789: a2 = a1 if a0 != 0\n 14792: a0 = u64 [s1 + 0x148]\n 14796: a0 = a0 <u 0x20\n 14799: u64 [s1 + 0x158] = a0\n 14803: jump @435 if a2 == 0\n      : @421 (gas: 18)\n 14807: u64 [s1 + 0x190] = t0\n 14811: a2 = s1 + 0x100\n 14815: u64 [a2 + 0x98] = a5\n 14819: u64 [a2 + 0xb0] = a4\n 14823: u64 [a2 + 0xa0] = a3\n 14827: a0 = s1 + 0x1938\n 14831: a1 = u64 [a2 + 0x28]\n 14834: a3 = a0 + 0x200\n 14838: u64 [a3 + 0x8] = a1\n 14841: a1 = u64 [s1 + 0xb8]\n 14845: u64 [a3 + 0x10] = a1\n 14848: a1 = u64 [s1 + 0x98]\n 14852: u64 [a3 + 0x18] = a1\n 14855: a1 = s1 + 0x1b40\n 14859: a2 = u64 [s1 + 0x88]\n 14863: u64 [a3 + 0x20] = a2\n 14866: a0 = 0\n 14868: ra = 422, jump @19\n      : @422 [@dyn 211] (gas: 3)\n 14874: a2 = u64 [s1 + 0xa8]\n 14878: a0 = i32 [a2]\n 14880: jump @424 if a0 >u 31\n      : @423 (gas: 3)\n 14884: u32 [a2 + 0] = 0x20\n 14887: t0 = 0x1a8\n 14891: jump @1170\n      : @424 (gas: 1)\n 14894: t0 = 424, jump @1170\n      : @425 [@dyn 212] (gas: 5)\n 14900: ra = 0x1aa\n 14904: ecalli 6 // 'hash_keccak_256'\n 14906: a0 = u64 [s1 + 0x148]\n 14910: t0 = 0x1ac\n 14914: jump @1180\n      : @426 [@dyn 213] (gas: 2)\n 14917: a0 = u64 [s1 + 0x148]\n 14921: t0 = 428, jump @1180\n      : @427 [@dyn 214] (gas: 2)\n 14927: a4 = u64 [s1 + 0x138]\n 14931: t0 = 430, jump @1155\n      : @428 [@dyn 215] (gas: 29)\n 14937: t0 = t2 + a0\n 14940: a0 = t0 <u t2\n 14943: a5 = a2 + a0\n 14946: a4 = a4 + a5\n 14949: u64 [s1 + 0x1b8] = a4\n 14953: a5 = a4 ^ a2\n 14956: a3 = a4 <u a2\n 14959: a3 = a0 if a5 == 0\n 14962: u64 [s1 + 0x180] = a3\n 14966: a0 = u64 [s1 + 0x190]\n 14970: ra = a0 + 0x1f\n 14973: a4 = ra <u a0\n 14976: a3 = u64 [s1 + 0x198]\n 14980: a0 = a3 + a4\n 14983: a5 = a0 <u a3\n 14986: a5 = a4 if a4 == 0\n 14989: t1 = u64 [s1 + 0x1b0]\n 14993: t1 = t1 + a5\n 14996: a4 = t1 << 0x3b\n 14999: a3 = a0 >> 0x5\n 15002: a3 = a3 | a4\n 15005: a0 = a0 << 0x3b\n 15008: a4 = ra >> 0x5\n 15011: a0 = a0 | a4\n 15014: a0 = a0 + t2\n 15017: u64 [s1 + 0x198] = a0\n 15021: a0 = a0 <u t2\n 15024: t2 = t0\n 15026: t0 = 432, jump @1189\n      : @429 [@dyn 216] (gas: 2)\n 15032: a3 = u64 [s1 + 0x168]\n 15036: t0 = 434, jump @1178\n      : @430 [@dyn 217] (gas: 8)\n 15042: t0 = u64 [a4]\n 15044: a4 = u64 [a4 + 0x8]\n 15047: a0 = a0 >> 0x5\n 15050: a3 = 0 if a1 != 0\n 15052: a0 = 0 if a1 != 0\n 15054: a1 = reverse a4\n 15056: a4 = reverse t0\n 15058: t0 = 436, jump @1167\n      : @431 [@dyn 218] (gas: 25)\n 15064: t0 = a0 + a3\n 15067: a0 = u64 [s1 + 0x1b0]\n 15071: a0 = t1 <u a0\n 15074: a3 = u64 [s1 + 0x1a0]\n 15078: a0 = a0 + a3\n 15081: a3 = t1 >> 0x5\n 15084: a5 = a0 << 0x3b\n 15087: a3 = a3 | a5\n 15090: a0 = a0 >> 0x5\n 15093: a0 = a0 + a4\n 15096: a5 = s1 + 0x100\n 15100: a4 = u64 [a5 + 0xb8]\n 15104: a3 = a3 + a1\n 15107: a1 = a3 <u a1\n 15110: a0 = a0 + a1\n 15113: a2 = a2 + a3\n 15116: u64 [a5 + 0x88] = a2\n 15120: a1 = a2 <u a3\n 15123: a0 = a0 + a1\n 15126: u64 [a5 + 0x80] = a0\n 15130: a0 = sp + 0xffffffffffffffe0\n 15133: t1 = a0 & 0xffffffffffffffe0\n 15136: sp = t1\n 15138: u64 [s1 + 0x178] = t1\n 15142: fallthrough\n      : @432 (gas: 21)\n 15143: a0 = u64 [s1 + 0x198]\n 15147: a0 = t2 <u a0\n 15150: a2 = u64 [s1 + 0x190]\n 15154: a1 = a4 ^ a2\n 15157: a2 = a4 <u a2\n 15160: a2 = a0 if a1 == 0\n 15163: a5 = u64 [s1 + 0x188]\n 15167: a0 = ra <u a5\n 15170: a3 = u64 [s1 + 0x180]\n 15174: a1 = t0 ^ a3\n 15177: a3 = t0 <u a3\n 15180: a3 = a0 if a1 == 0\n 15183: a0 = ra ^ a5\n 15186: a0 = a0 | a1\n 15189: a3 = a2 if a0 == 0\n 15192: u64 [t1] = t2\n 15194: u64 [t1 + 0x8] = a4\n 15197: u64 [t1 + 0x10] = ra\n 15200: u64 [t1 + 0x18] = t0\n 15203: a0 = s1 + 0x2938\n 15207: jump @435 if a3 == 0\n      : @433 (gas: 11)\n 15210: u64 [a0 + 128] = 0\n 15214: u64 [a0 + 120] = 0\n 15217: u64 [a0 + 112] = 0\n 15220: u64 [a0 + 104] = 0\n 15223: a1 = s1 + 0x29a0\n 15227: a0 = t1\n 15229: u64 [s1 + 0x1b0] = t2\n 15233: u64 [s1 + 0x1b8] = a4\n 15237: u64 [s1 + 0x1a8] = t0\n 15241: u64 [s1 + 0x1a0] = ra\n 15245: ra = 438, jump @23\n      : @434 [@dyn 219] (gas: 15)\n 15251: t1 = u64 [s1 + 0x178]\n 15255: t0 = u64 [s1 + 0x1a8]\n 15259: a4 = u64 [s1 + 0x1b8]\n 15263: t2 = u64 [s1 + 0x1b0]\n 15267: t2 = t2 + 0x1\n 15270: a0 = t2 <u 0x1\n 15273: a4 = a4 + a0\n 15276: a0 = t2 | a4\n 15279: a0 = a0 <u 0x1\n 15282: a1 = u64 [s1 + 0x1a0]\n 15286: a0 = a0 + a1\n 15289: a1 = a0 <u a1\n 15292: t0 = t0 + a1\n 15295: ra = a0\n 15297: jump @432\n      : @435 (gas: 22)\n 15300: a4 = s1 + 0x100\n 15304: a0 = u64 [a4 + 0x58]\n 15307: a0 = a0 ^ 0x1\n 15310: a3 = u64 [a4 + 0x70]\n 15313: a1 = u64 [s1 + 0x70]\n 15316: a0 = a1 if a3 != 0\n 15319: a1 = u64 [a4 + 0x50]\n 15322: a2 = u64 [a4 + 0x60]\n 15325: a0 = a1 if a2 != 0\n 15328: t2 = u64 [s1 + 0x168]\n 15332: a5 = a3 | t2\n 15335: a2 = u64 [a4 + 0x38]\n 15338: t1 = a2 >> 0x3f\n 15341: t2 = t2 << 0x1\n 15344: ra = a3 >> 0x3f\n 15347: a1 = a2 << 0x1\n 15350: u64 [s1 + 0x70] = a1\n 15353: a1 = u64 [a4 + 0x48]\n 15356: t0 = a1 >> 0x3f\n 15359: a3 = a3 << 0x1\n 15362: a4 = a1 << 0x1\n 15365: jump @448 if a0 == 0\n      : @436 (gas: 22)\n 15369: u64 [s1 + 0x8] = a5\n 15372: u64 [s1 + 0x10] = a3\n 15375: u64 [s1 + 0x18] = ra\n 15378: u64 [s1 + 0x20] = t0\n 15381: u64 [s1 + 0x28] = t2\n 15384: u64 [s1 + 0x30] = t1\n 15387: u64 [s1 + 0x38] = a4\n 15390: a1 = a1 & 0xffffffffffffffe0\n 15393: u64 [s1 + 0x150] = a1\n 15397: a0 = s1 + 0x1938\n 15401: a1 = u64 [s1 + 0x128]\n 15405: a3 = a0 + 0x100\n 15409: u64 [a3 + 0xc8] = a1\n 15413: a1 = u64 [s1 + 0xb8]\n 15417: u64 [a3 + 0xd0] = a1\n 15421: a1 = u64 [s1 + 0x98]\n 15425: u64 [a3 + 0xd8] = a1\n 15429: a1 = s1 + 0x1b00\n 15433: a2 = u64 [s1 + 0x88]\n 15437: u64 [a3 + 0xe0] = a2\n 15441: a0 = 0\n 15443: ra = 440, jump @19\n      : @437 [@dyn 220] (gas: 1)\n 15449: t0 = 442, jump @1181\n      : @438 [@dyn 221] (gas: 1)\n 15455: ra = 444, jump @26\n      : @439 [@dyn 222] (gas: 37)\n 15461: a1 = sp + 0xffffffffffffffe0\n 15464: a1 = a1 & 0xffffffffffffffe0\n 15467: u64 [s1 + 0x1a0] = a1\n 15471: sp = a1\n 15473: i32 a0 = a0 + 0\n 15475: i32 a2 = a1 + 0\n 15477: a1 = 0x20\n 15480: ecalli 6 // 'hash_keccak_256'\n 15482: u64 [s1 + 440] = 0x20\n 15487: t2 = 0\n 15489: t1 = 0\n 15491: u64 [s1 + 432] = 0\n 15495: a4 = 0\n 15497: a5 = 0\n 15499: a2 = 0\n 15501: u64 [s1 + 424] = 0\n 15505: a3 = u64 [s1 + 0x1a0]\n 15509: a0 = u64 [a3 + 0x18]\n 15512: a1 = u64 [a3 + 0x10]\n 15515: t0 = u64 [a3 + 0x8]\n 15518: a3 = u64 [a3]\n 15520: a0 = reverse a0\n 15522: u64 [s1 + 0x1a0] = a0\n 15526: ra = reverse a1\n 15528: a1 = reverse t0\n 15530: a3 = reverse a3\n 15532: t0 = a3\n 15534: a0 = u64 [s1 + 0x198]\n 15538: u64 [a0 + 0x18] = a3\n 15541: u64 [s1 + 0x158] = a1\n 15545: u64 [a0 + 0x10] = a1\n 15548: u64 [s1 + 0x190] = ra\n 15552: u64 [a0 + 0x8] = ra\n 15555: a1 = u64 [s1 + 0x1a0]\n 15559: a3 = a1\n 15561: u64 [a0] = a1\n 15563: fallthrough\n      : @440 (gas: 25)\n 15564: u64 [s1 + 0x188] = t0\n 15568: u64 [s1 + 0x1a0] = a3\n 15572: a0 = u64 [s1 + 0x150]\n 15576: u64 [s1 + 0x170] = a4\n 15580: a0 = a4 <u a0\n 15583: a4 = a0 ^ 0x1\n 15586: u64 [s1 + 0x168] = a5\n 15590: a4 = 0x1 if a5 != 0\n 15593: u64 [s1 + 0x180] = a2\n 15597: a0 = u64 [s1 + 0x1a8]\n 15601: a0 = a0 | a2\n 15604: a4 = 0x1 if a0 != 0\n 15607: a5 = u64 [s1 + 0x120]\n 15611: a1 = u64 [s1 + 0x1b8]\n 15615: a1 = a1 + a5\n 15618: a3 = u64 [s1 + 0x118]\n 15622: u64 [s1 + 0x160] = t2\n 15626: t0 = a3 + t2\n 15629: ra = u64 [s1 + 0x110]\n 15633: u64 [s1 + 0x178] = t1\n 15637: a2 = ra + t1\n 15640: t1 = u64 [s1 + 0x108]\n 15644: a0 = u64 [s1 + 0x1b0]\n 15648: t1 = t1 + a0\n 15651: jump @450 if a4 != 0\n      : @441 (gas: 6)\n 15655: t2 = a1 <u a5\n 15658: a4 = t0 + t2\n 15661: t0 = a4 ^ a3\n 15664: a5 = a4 <u a3\n 15667: a5 = t2 if t0 == 0\n 15670: t0 = 446, jump @1190\n      : @442 [@dyn 223] (gas: 1)\n 15676: jump @444 if a0 == 0\n      : @443 (gas: 1)\n 15679: jump @929\n      : @444 (gas: 2)\n 15682: a0 = s1 + 0x1500\n 15686: ra = 448, jump @17\n      : @445 [@dyn 224] (gas: 2)\n 15692: a0 = 0x1000\n 15696: t0 = 450, jump @1214\n      : @446 [@dyn 225] (gas: 12)\n 15702: a0 = u64 [a4 + 0xe0]\n 15706: a1 = u64 [a4 + 0xd8]\n 15710: a2 = u64 [a4 + 0xd0]\n 15714: a3 = u64 [a4 + 0xc8]\n 15718: a4 = s1 + 0x2938\n 15722: u64 [a4 + 0xa0] = a0\n 15726: u64 [a4 + 0x98] = a1\n 15730: u64 [a4 + 0x90] = a2\n 15734: u64 [a4 + 0x88] = a3\n 15738: a1 = s1 + 0x29c0\n 15742: a0 = u64 [s1 + 0x198]\n 15746: ra = 452, jump @23\n      : @447 [@dyn 226] (gas: 55)\n 15752: t0 = u64 [s1 + 0x1a0]\n 15756: t0 = t0 + 0x1\n 15759: a0 = t0 <u 0x1\n 15762: t1 = u64 [s1 + 0x190]\n 15766: t1 = t1 + a0\n 15769: a0 = t0 | t1\n 15772: a0 = a0 <u 0x1\n 15775: a1 = u64 [s1 + 0x158]\n 15779: t2 = a1 + a0\n 15782: a1 = t2 <u a1\n 15785: a0 = u64 [s1 + 0x188]\n 15789: a0 = a0 + a1\n 15792: a1 = u64 [s1 + 0x1b8]\n 15796: a2 = a1 + 0x20\n 15799: u64 [s1 + 0x1a0] = a2\n 15803: a3 = a2 <u a1\n 15806: a1 = u64 [s1 + 0x160]\n 15810: a2 = a1 + a3\n 15813: u64 [s1 + 0x188] = a2\n 15817: a4 = a2 <u a1\n 15820: a4 = a3 if a3 == 0\n 15823: a1 = u64 [s1 + 0x178]\n 15827: ra = a1 + a4\n 15830: a4 = ra <u a1\n 15833: a1 = u64 [s1 + 0x1b0]\n 15837: a1 = a1 + a4\n 15840: u64 [s1 + 0x1b0] = a1\n 15844: a1 = u64 [s1 + 0x170]\n 15848: a4 = a1 + 0x20\n 15851: a5 = a4 <u a1\n 15854: a2 = u64 [s1 + 0x168]\n 15858: a1 = a2 + a5\n 15861: a2 = a1 <u a2\n 15864: a2 = a5 if a5 == 0\n 15867: a3 = u64 [s1 + 0x180]\n 15871: a2 = a2 + a3\n 15874: a5 = a2 <u a3\n 15877: a3 = u64 [s1 + 0x1a8]\n 15881: a3 = a3 + a5\n 15884: u64 [s1 + 0x1a8] = a3\n 15888: u64 [s1 + 0x190] = t1\n 15892: a5 = u64 [s1 + 0x198]\n 15896: u64 [a5 + 0x8] = t1\n 15899: a3 = t0\n 15901: u64 [a5] = t0\n 15903: u64 [a5 + 0x10] = t2\n 15906: t0 = a0\n 15908: u64 [a5 + 0x18] = a0\n 15911: u64 [s1 + 0x158] = t2\n 15915: a0 = u64 [s1 + 0x1a0]\n 15919: u64 [s1 + 0x1b8] = a0\n 15923: t2 = u64 [s1 + 0x188]\n 15927: t1 = ra\n 15929: a5 = a1\n 15931: jump @440\n      : @448 (gas: 6)\n 15934: a0 = a1 | a2\n 15937: a0 = a0 | a5\n 15940: a5 = u64 [s1 + 0x120]\n 15944: a2 = u64 [s1 + 0x118]\n 15948: a1 = u64 [s1 + 0x110]\n 15952: jump @465 if a0 != 0\n      : @449 (gas: 6)\n 15956: u64 [s1 + 0x38] = a4\n 15959: u64 [s1 + 416] = 0\n 15963: u64 [s1 + 408] = 0\n 15967: u64 [s1 + 424] = 0\n 15971: u64 [s1 + 432] = 0\n 15975: jump @469\n      : @450 (gas: 8)\n 15978: a4 = u64 [s1 + 0x148]\n 15982: a0 = u64 [s1 + 0x150]\n 15986: a4 = a4 ^ a0\n 15989: a0 = u64 [s1 + 0x138]\n 15993: a4 = a4 | a0\n 15996: a0 = u64 [s1 + 0x8]\n 15999: a4 = a4 | a0\n 16002: jump @464 if a4 == 0\n      : @451 (gas: 6)\n 16006: t2 = a1 <u a5\n 16009: a4 = t0 + t2\n 16012: t0 = a4 ^ a3\n 16015: a5 = a4 <u a3\n 16018: a5 = t2 if t0 == 0\n 16021: t0 = 454, jump @1190\n      : @452 [@dyn 227] (gas: 1)\n 16027: jump @454 if a0 == 0\n      : @453 (gas: 1)\n 16030: jump @929\n      : @454 (gas: 2)\n 16033: a0 = s1 + 0x1ae0\n 16037: ra = 456, jump @17\n      : @455 [@dyn 228] (gas: 3)\n 16043: a0 = s1 + 0x1938\n 16047: a2 = a0 + 0x100\n 16051: t0 = 458, jump @1203\n      : @456 [@dyn 229] (gas: 2)\n 16057: a0 = u64 [s1 + 0x148]\n 16061: t0 = 460, jump @1158\n      : @457 [@dyn 230] (gas: 1)\n 16067: ra = 462, jump @1221\n      : @458 [@dyn 231] (gas: 1)\n 16073: t0 = 464, jump @1165\n      : @459 [@dyn 232] (gas: 1)\n 16079: ra = 466, jump @1216\n      : @460 [@dyn 233] (gas: 1)\n 16085: t0 = 468, jump @1154\n      : @461 [@dyn 234] (gas: 1)\n 16091: ra = 470, jump @1216\n      : @462 [@dyn 235] (gas: 1)\n 16097: t0 = 472, jump @1153\n      : @463 [@dyn 236] (gas: 7)\n 16103: u64 [a4 + 0xc0] = a3\n 16107: u64 [a4 + 0xb8] = a2\n 16111: u64 [a4 + 0xb0] = a1\n 16115: u64 [a4 + 0xa8] = a0\n 16119: a1 = s1 + 0x29e0\n 16123: a0 = u64 [s1 + 0x198]\n 16127: ra = 474, jump @23\n      : @464 [@dyn 237] (gas: 18)\n 16133: a0 = u64 [s1 + 0x30]\n 16136: a1 = u64 [s1 + 0x28]\n 16139: a0 = a0 | a1\n 16142: a1 = u64 [s1 + 0x18]\n 16145: a2 = u64 [s1 + 0x70]\n 16148: a1 = a1 | a2\n 16151: a2 = u64 [s1 + 0x20]\n 16154: a3 = u64 [s1 + 0x10]\n 16157: a2 = a2 | a3\n 16160: a3 = u64 [s1 + 0x38]\n 16163: a3 = a3 + 0x1\n 16166: a4 = s1 + 0x2938\n 16170: u64 [a4 + 0xc8] = a3\n 16174: u64 [a4 + 0xd0] = a2\n 16178: u64 [a4 + 0xd8] = a1\n 16182: u64 [a4 + 0xe0] = a0\n 16186: a0 = 0x2a00\n 16190: jump @477\n      : @465 (gas: 7)\n 16193: a0 = u64 [s1 + 0x108]\n 16197: a0 = a0 | a1\n 16200: a1 = 0xffffffe0\n 16210: a1 = a5 <u a1\n 16213: a1 = 0 if a2 != 0\n 16215: a1 = 0 if a0 != 0\n 16217: jump @467 if a1 != 0\n      : @466 (gas: 1)\n 16220: jump @929\n      : @467 (gas: 9)\n 16223: u64 [s1 + 0x38] = a4\n 16226: i32 a1 = a5 + 0x20\n 16229: a0 = s1 + 0x1b20\n 16233: u64 [s1 + 0x30] = t1\n 16236: u64 [s1 + 0x28] = t2\n 16239: u64 [s1 + 0x20] = t0\n 16242: u64 [s1 + 0x18] = ra\n 16245: u64 [s1 + 0x10] = a3\n 16248: ra = 476, jump @17\n      : @468 [@dyn 238] (gas: 17)\n 16254: a3 = u64 [s1 + 0x10]\n 16257: ra = u64 [s1 + 0x18]\n 16260: t0 = u64 [s1 + 0x20]\n 16263: t2 = u64 [s1 + 0x28]\n 16266: t1 = u64 [s1 + 0x30]\n 16269: a0 = s1 + 0x1938\n 16273: a1 = u64 [a0 + 0x200]\n 16277: a2 = s1 + 0x100\n 16281: u64 [a2 + 0xb0] = a1\n 16285: a4 = a0 + 0x100\n 16289: a1 = u64 [a4 + 0xf8]\n 16293: u64 [a2 + 0xa8] = a1\n 16297: a1 = u64 [a4 + 0xf0]\n 16301: u64 [a2 + 0x98] = a1\n 16305: a0 = u64 [a4 + 0xe8]\n 16309: u64 [a2 + 0xa0] = a0\n 16313: fallthrough\n      : @469 (gas: 10)\n 16314: a0 = u64 [s1 + 0x70]\n 16317: a0 = a0 | ra\n 16320: u64 [s1 + 0x190] = a0\n 16324: a0 = t2 | t1\n 16327: u64 [s1 + 0x188] = a0\n 16331: a0 = a3 | t0\n 16334: u64 [s1 + 0x180] = a0\n 16338: a1 = u64 [s1 + 0x148]\n 16342: a1 = a1 << 0x3\n 16345: t0 = 478, jump @1168\n      : @470 [@dyn 239] (gas: 1)\n 16351: ra = 480, jump @1221\n      : @471 [@dyn 240] (gas: 7)\n 16357: u64 [s1 + 0x160] = a0\n 16361: u64 [s1 + 0x178] = a1\n 16365: a0 = u64 [s1 + 0x148]\n 16369: i32 a2 = a0 << 0x3\n 16372: a0 = 0xffffffffffffffff\n 16375: a1 = 0xffffffffffffffff\n 16378: ra = 482, jump @1216\n      : @472 [@dyn 241] (gas: 1)\n 16384: t0 = 484, jump @1156\n      : @473 [@dyn 242] (gas: 1)\n 16390: ra = 486, jump @1216\n      : @474 [@dyn 243] (gas: 1)\n 16396: t0 = 488, jump @1151\n      : @475 [@dyn 244] (gas: 4)\n 16402: a4 = u64 [s1 + 0x38]\n 16405: a0 = a0 | a4\n 16408: a5 = s1 + 0x100\n 16412: t0 = 490, jump @1177\n      : @476 [@dyn 245] (gas: 6)\n 16418: u64 [a4 + 0xf8] = a2\n 16422: u64 [a4 + 0x100] = a3\n 16426: u64 [a4 + 0xf0] = a1\n 16430: u64 [a4 + 0xe8] = a0\n 16434: a0 = 0x2a20\n 16438: fallthrough\n      : @477 (gas: 3)\n 16439: a1 = s1 + a0\n 16442: a0 = u64 [s1 + 0x140]\n 16446: ra = 492, jump @23\n      : @478 [@dyn 246] (gas: 32)\n 16452: a0 = sp + 0xffffffffffffffe0\n 16455: a5 = a0 & 0xffffffffffffffe0\n 16458: sp = a5\n 16460: a0 = u64 [s1 + 0x78]\n 16463: t0 = a0 + 0x4\n 16466: a0 = t0 <u a0\n 16469: a1 = u64 [s1 + 0x80]\n 16473: t1 = a1 + a0\n 16476: a1 = t1 <u a1\n 16479: a1 = a0 if a0 == 0\n 16482: ra = u64 [s1 + 0x68]\n 16485: t2 = ra + a1\n 16488: a1 = u64 [s1 + 0x100]\n 16492: a2 = u64 [s1 + 0xe8]\n 16496: a0 = a1 | a2\n 16499: a3 = u64 [s1 + 0xf8]\n 16503: a4 = u64 [s1 + 0xf0]\n 16507: a3 = a3 | a4\n 16510: a0 = a0 | a3\n 16513: a0 = a0 >> 0x20\n 16516: a3 = a3 | a2\n 16519: a3 = a3 << 0x20\n 16522: a0 = a0 | a3\n 16525: a3 = t2 <u ra\n 16528: a2 = u64 [s1 + 0x60]\n 16531: a2 = a2 + a3\n 16534: u64 [a5 + 0x10] = t2\n 16537: u64 [a5 + 0x8] = t1\n 16540: u64 [a5] = t0\n 16542: u64 [s1 + 0x138] = a5\n 16546: u64 [a5 + 0x18] = a2\n 16549: jump @480 if a0 == 0\n      : @479 (gas: 1)\n 16552: jump @929\n      : @480 (gas: 6)\n 16555: u64 [s1 + 0x70] = a2\n 16558: u64 [s1 + 0x108] = t2\n 16562: u64 [s1 + 0x110] = t1\n 16566: u64 [s1 + 0x118] = t0\n 16570: a0 = s1 + 0x1ac0\n 16574: ra = 494, jump @17\n      : @481 [@dyn 247] (gas: 3)\n 16580: a2 = s1 + 0x1938\n 16584: a0 = a2 + 0x100\n 16588: t0 = 496, jump @1193\n      : @482 [@dyn 248] (gas: 8)\n 16594: u64 [a3 + 0x20] = a1\n 16597: u64 [a3 + 0x68] = a4\n 16600: a1 = a1 | a4\n 16603: u64 [a3 + 0x48] = a0\n 16606: u64 [a3 + 0x50] = a5\n 16609: u64 [a3 + 0x60] = a1\n 16612: a0 = a5 if a1 != 0\n 16615: jump @484 if a0 == 0\n      : @483 (gas: 1)\n 16618: jump @955\n      : @484 (gas: 5)\n 16621: a0 = u64 [a2 + 0x188]\n 16625: u64 [s1 + 0x140] = a0\n 16629: a0 = s1 + 0x1aa0\n 16633: a1 = u64 [s1 + 0x138]\n 16637: ra = 498, jump @21\n      : @485 [@dyn 249] (gas: 3)\n 16643: a4 = s1 + 0x1938\n 16647: a5 = a4 + 0x100\n 16651: t0 = 500, jump @1201\n      : @486 [@dyn 250] (gas: 5)\n 16657: i32 a0 = a0 + 0xfffffffffffffa80\n 16661: a0 = a0 + s1\n 16664: a1 = s1 + 0x1a60\n 16668: u64 [a5 + 0x28] = a2\n 16671: ra = 502, jump @1120\n      : @487 [@dyn 251] (gas: 19)\n 16677: a0 = s1 + 0x1938\n 16681: a1 = a0 + 0x100\n 16685: a3 = u64 [a1 + 0x60]\n 16688: a4 = u64 [a1 + 0x58]\n 16691: a5 = u64 [a1 + 0x50]\n 16694: t0 = u64 [a0 + 0x148]\n 16698: a0 = a3 >u 0\n 16700: a1 = a4 >u 0\n 16702: a1 = a0 if a3 != 0\n 16705: a0 = a5 >u 0\n 16707: a2 = t0 <u 0x20\n 16710: a2 = a2 ^ 0x1\n 16713: a2 = a0 if a5 != 0\n 16716: a0 = a4 | a3\n 16719: a2 = a1 if a0 != 0\n 16722: a0 = u64 [s1 + 0x140]\n 16726: a0 = a0 <u 0x20\n 16729: u64 [s1 + 0x158] = a0\n 16733: jump @502 if a2 == 0\n      : @488 (gas: 18)\n 16737: u64 [s1 + 0x190] = t0\n 16741: a2 = s1 + 0x100\n 16745: u64 [a2 + 0x98] = a5\n 16749: u64 [a2 + 0xb0] = a4\n 16753: u64 [a2 + 0xa0] = a3\n 16757: a0 = s1 + 0x1938\n 16761: a1 = u64 [a2 + 0x18]\n 16764: a3 = a0 + 0x100\n 16768: u64 [a3 + 0x8] = a1\n 16771: a1 = u64 [a2 + 0x10]\n 16774: u64 [a3 + 0x10] = a1\n 16777: a1 = u64 [a2 + 0x8]\n 16780: u64 [a3 + 0x18] = a1\n 16783: a1 = s1 + 0x1a40\n 16787: a2 = u64 [s1 + 0x70]\n 16790: u64 [a3 + 0x20] = a2\n 16793: a0 = 0\n 16795: ra = 504, jump @19\n      : @489 [@dyn 252] (gas: 3)\n 16801: a2 = u64 [s1 + 0xa8]\n 16805: a0 = i32 [a2]\n 16807: jump @491 if a0 >u 31\n      : @490 (gas: 3)\n 16811: u32 [a2 + 0] = 0x20\n 16814: t0 = 0x1fa\n 16818: jump @1170\n      : @491 (gas: 1)\n 16821: t0 = 506, jump @1170\n      : @492 [@dyn 253] (gas: 5)\n 16827: ra = 0x1fc\n 16831: ecalli 6 // 'hash_keccak_256'\n 16833: a0 = u64 [s1 + 0x140]\n 16837: t0 = 0x1fe\n 16841: jump @1180\n      : @493 [@dyn 254] (gas: 2)\n 16844: a0 = u64 [s1 + 0x140]\n 16848: t0 = 510, jump @1180\n      : @494 [@dyn 255] (gas: 2)\n 16854: a4 = u64 [s1 + 0x120]\n 16858: t0 = 512, jump @1155\n      : @495 [@dyn 256] (gas: 29)\n 16864: t0 = t2 + a0\n 16867: a0 = t0 <u t2\n 16870: a5 = a2 + a0\n 16873: a4 = a4 + a5\n 16876: u64 [s1 + 0x1b8] = a4\n 16880: a5 = a4 ^ a2\n 16883: a3 = a4 <u a2\n 16886: a3 = a0 if a5 == 0\n 16889: u64 [s1 + 0x180] = a3\n 16893: a0 = u64 [s1 + 0x190]\n 16897: ra = a0 + 0x1f\n 16900: a4 = ra <u a0\n 16903: a3 = u64 [s1 + 0x198]\n 16907: a0 = a3 + a4\n 16910: a5 = a0 <u a3\n 16913: a5 = a4 if a4 == 0\n 16916: t1 = u64 [s1 + 0x1b0]\n 16920: t1 = t1 + a5\n 16923: a4 = t1 << 0x3b\n 16926: a3 = a0 >> 0x5\n 16929: a3 = a3 | a4\n 16932: a0 = a0 << 0x3b\n 16935: a4 = ra >> 0x5\n 16938: a0 = a0 | a4\n 16941: a0 = a0 + t2\n 16944: u64 [s1 + 0x198] = a0\n 16948: a0 = a0 <u t2\n 16951: t2 = t0\n 16953: t0 = 514, jump @1176\n      : @496 [@dyn 257] (gas: 4)\n 16959: a0 = u64 [s1 + 0x120]\n 16963: a0 = a4 <u a0\n 16966: a3 = u64 [s1 + 0x168]\n 16970: t0 = 516, jump @1178\n      : @497 [@dyn 258] (gas: 8)\n 16976: t0 = u64 [a4]\n 16978: a4 = u64 [a4 + 0x8]\n 16981: a0 = a0 >> 0x5\n 16984: a3 = 0 if a1 != 0\n 16986: a0 = 0 if a1 != 0\n 16988: a1 = reverse a4\n 16990: a4 = reverse t0\n 16992: t0 = 518, jump @1167\n      : @498 [@dyn 259] (gas: 25)\n 16998: t0 = a0 + a3\n 17001: a0 = u64 [s1 + 0x1b0]\n 17005: a0 = t1 <u a0\n 17008: a3 = u64 [s1 + 0x1a0]\n 17012: a0 = a0 + a3\n 17015: a3 = t1 >> 0x5\n 17018: a5 = a0 << 0x3b\n 17021: a3 = a3 | a5\n 17024: a0 = a0 >> 0x5\n 17027: a0 = a0 + a4\n 17030: a5 = s1 + 0x100\n 17034: a4 = u64 [a5 + 0xb8]\n 17038: a3 = a3 + a1\n 17041: a1 = a3 <u a1\n 17044: a0 = a0 + a1\n 17047: a2 = a2 + a3\n 17050: u64 [a5 + 0x88] = a2\n 17054: a1 = a2 <u a3\n 17057: a0 = a0 + a1\n 17060: u64 [a5 + 0x80] = a0\n 17064: a0 = sp + 0xffffffffffffffe0\n 17067: t1 = a0 & 0xffffffffffffffe0\n 17070: sp = t1\n 17072: u64 [s1 + 0x178] = t1\n 17076: fallthrough\n      : @499 (gas: 21)\n 17077: a0 = u64 [s1 + 0x198]\n 17081: a0 = t2 <u a0\n 17084: a2 = u64 [s1 + 0x190]\n 17088: a1 = a4 ^ a2\n 17091: a2 = a4 <u a2\n 17094: a2 = a0 if a1 == 0\n 17097: a5 = u64 [s1 + 0x188]\n 17101: a0 = ra <u a5\n 17104: a3 = u64 [s1 + 0x180]\n 17108: a1 = t0 ^ a3\n 17111: a3 = t0 <u a3\n 17114: a3 = a0 if a1 == 0\n 17117: a0 = ra ^ a5\n 17120: a0 = a0 | a1\n 17123: a3 = a2 if a0 == 0\n 17126: u64 [t1] = t2\n 17128: u64 [t1 + 0x8] = a4\n 17131: u64 [t1 + 0x10] = ra\n 17134: u64 [t1 + 0x18] = t0\n 17137: a0 = s1 + 0x2938\n 17141: jump @502 if a3 == 0\n      : @500 (gas: 11)\n 17144: u64 [a0 + 288] = 0\n 17148: u64 [a0 + 280] = 0\n 17152: u64 [a0 + 272] = 0\n 17156: u64 [a0 + 264] = 0\n 17160: a1 = s1 + 0x2a40\n 17164: a0 = t1\n 17166: u64 [s1 + 0x1b0] = t2\n 17170: u64 [s1 + 0x1b8] = a4\n 17174: u64 [s1 + 0x1a8] = t0\n 17178: u64 [s1 + 0x1a0] = ra\n 17182: ra = 520, jump @23\n      : @501 [@dyn 260] (gas: 15)\n 17188: t1 = u64 [s1 + 0x178]\n 17192: t0 = u64 [s1 + 0x1a8]\n 17196: a4 = u64 [s1 + 0x1b8]\n 17200: t2 = u64 [s1 + 0x1b0]\n 17204: t2 = t2 + 0x1\n 17207: a0 = t2 <u 0x1\n 17210: a4 = a4 + a0\n 17213: a0 = t2 | a4\n 17216: a0 = a0 <u 0x1\n 17219: a1 = u64 [s1 + 0x1a0]\n 17223: a0 = a0 + a1\n 17226: a1 = a0 <u a1\n 17229: t0 = t0 + a1\n 17232: ra = a0\n 17234: jump @499\n      : @502 (gas: 28)\n 17237: a3 = s1 + 0x100\n 17241: a0 = u64 [a3 + 0x58]\n 17244: a0 = a0 ^ 0x1\n 17247: ra = u64 [s1 + 0x170]\n 17251: a1 = u64 [a3 + 0x48]\n 17254: a0 = a1 if ra != 0\n 17257: a1 = u64 [a3 + 0x50]\n 17260: a2 = u64 [a3 + 0x60]\n 17263: a0 = a1 if a2 != 0\n 17266: t1 = u64 [s1 + 0x168]\n 17270: t0 = ra | t1\n 17273: a2 = u64 [a3 + 0x20]\n 17276: a1 = a2 >> 0x3f\n 17279: u64 [s1 + 0x18] = a1\n 17282: t1 = t1 << 0x1\n 17285: a5 = ra >> 0x3f\n 17288: a4 = a2 << 0x1\n 17291: a1 = u64 [a3 + 0x40]\n 17294: t2 = a1 >> 0x3f\n 17297: ra = ra << 0x1\n 17300: a3 = a1 << 0x1\n 17303: u64 [s1 + 0x20] = a3\n 17306: u64 [s1 + 0x10] = t1\n 17309: u64 [s1 + 0x8] = t2\n 17312: u64 [s1 + 0x38] = a5\n 17315: u64 [s1 + 0x30] = ra\n 17318: u64 [s1 + 0x28] = a4\n 17321: jump @515 if a0 == 0\n      : @503 (gas: 15)\n 17325: u64 [s1 + 0x148] = t0\n 17329: a1 = a1 & 0xffffffffffffffe0\n 17332: u64 [s1 + 0x150] = a1\n 17336: a0 = s1 + 0x1938\n 17340: a1 = u64 [s1 + 0x118]\n 17344: u64 [a0 + 0xc8] = a1\n 17348: a1 = u64 [s1 + 0x110]\n 17352: u64 [a0 + 0xd0] = a1\n 17356: a1 = u64 [s1 + 0x108]\n 17360: u64 [a0 + 0xd8] = a1\n 17364: a1 = s1 + 0x1a00\n 17368: a2 = u64 [s1 + 0x70]\n 17371: u64 [a0 + 0xe0] = a2\n 17375: a0 = 0\n 17377: ra = 522, jump @19\n      : @504 [@dyn 261] (gas: 1)\n 17383: t0 = 524, jump @1181\n      : @505 [@dyn 262] (gas: 1)\n 17389: ra = 526, jump @26\n      : @506 [@dyn 263] (gas: 1)\n 17395: t0 = 528, jump @1183\n      : @507 [@dyn 264] (gas: 28)\n 17401: ecalli 6 // 'hash_keccak_256'\n 17403: u64 [s1 + 440] = 0x20\n 17408: t0 = 0\n 17410: u64 [s1 + 432] = 0\n 17414: u64 [s1 + 424] = 0\n 17418: a4 = 0\n 17420: a5 = 0\n 17422: ra = 0\n 17424: u64 [s1 + 416] = 0\n 17428: a3 = u64 [s1 + 0x190]\n 17432: a0 = u64 [a3 + 0x18]\n 17435: a1 = u64 [a3 + 0x10]\n 17438: a2 = u64 [a3 + 0x8]\n 17441: t1 = u64 [a3]\n 17443: a0 = reverse a0\n 17445: a1 = reverse a1\n 17447: a3 = reverse a2\n 17449: t1 = reverse t1\n 17451: t2 = t1\n 17453: a2 = u64 [s1 + 0x198]\n 17457: u64 [a2 + 0x18] = t1\n 17460: u64 [s1 + 0x170] = a3\n 17464: u64 [a2 + 0x10] = a3\n 17467: u64 [s1 + 0x190] = a1\n 17471: u64 [a2 + 0x8] = a1\n 17474: a3 = a0\n 17476: u64 [a2] = a0\n 17478: fallthrough\n      : @508 (gas: 25)\n 17479: u64 [s1 + 0x188] = t2\n 17483: t1 = a3\n 17485: a0 = u64 [s1 + 0x150]\n 17489: u64 [s1 + 0x180] = a4\n 17493: a0 = a4 <u a0\n 17496: a4 = a0 ^ 0x1\n 17499: u64 [s1 + 0x178] = a5\n 17503: a4 = 0x1 if a5 != 0\n 17506: a5 = s1 + 0x100\n 17510: a0 = u64 [a5 + 0xa0]\n 17514: a0 = ra | a0\n 17517: a4 = 0x1 if a0 != 0\n 17520: a1 = u64 [a5]\n 17522: a0 = u64 [a5 + 0xb8]\n 17526: a1 = a1 + a0\n 17529: a3 = u64 [s1 + 0xf8]\n 17533: a3 = a3 + t0\n 17536: a2 = u64 [s1 + 0xe8]\n 17540: a0 = u64 [a5 + 0xb0]\n 17544: a2 = a2 + a0\n 17547: a0 = u64 [s1 + 0xf0]\n 17551: t2 = u64 [s1 + 0x1a8]\n 17555: t2 = t2 + a0\n 17558: a0 = u64 [a5 + 0x48]\n 17561: jump @518 if a4 != 0\n      : @509 (gas: 9)\n 17565: a0 = u64 [s1 + 0x1b8]\n 17569: a4 = a1 <u a0\n 17572: a3 = a3 + a4\n 17575: a0 = t0\n 17577: t0 = a3 ^ t0\n 17580: u64 [s1 + 0x160] = a0\n 17584: a5 = a3 <u a0\n 17587: a5 = a4 if t0 == 0\n 17590: t0 = 530, jump @1179\n      : @510 [@dyn 265] (gas: 1)\n 17596: jump @512 if a0 == 0\n      : @511 (gas: 1)\n 17599: jump @929\n      : @512 (gas: 3)\n 17602: a0 = s1 + 0x1560\n 17606: u64 [s1 + 0x158] = ra\n 17610: ra = 532, jump @17\n      : @513 [@dyn 266] (gas: 15)\n 17616: a3 = s1 + 0x1138\n 17620: a4 = a3 + 0x400\n 17624: a0 = u64 [a4 + 0x40]\n 17627: a1 = u64 [a4 + 0x38]\n 17630: a2 = u64 [a4 + 0x30]\n 17633: a3 = u64 [a4 + 0x28]\n 17636: a4 = s1 + 0x2938\n 17640: a5 = a4 + 0x100\n 17644: u64 [a5 + 0x40] = a0\n 17647: u64 [a5 + 0x38] = a1\n 17650: u64 [a5 + 0x30] = a2\n 17653: u64 [a5 + 0x28] = a3\n 17656: a1 = s1 + 0x2a60\n 17660: a0 = u64 [s1 + 0x198]\n 17664: ra = 534, jump @23\n      : @514 [@dyn 267] (gas: 56)\n 17670: t2 = u64 [s1 + 0x168]\n 17674: t2 = t2 + 0x1\n 17677: a0 = t2 <u 0x1\n 17680: t0 = u64 [s1 + 0x190]\n 17684: t0 = t0 + a0\n 17687: a0 = t2 | t0\n 17690: a0 = a0 <u 0x1\n 17693: a1 = u64 [s1 + 0x170]\n 17697: t1 = a1 + a0\n 17700: a1 = t1 <u a1\n 17703: a0 = u64 [s1 + 0x188]\n 17707: a0 = a0 + a1\n 17710: a1 = u64 [s1 + 0x1b8]\n 17714: a2 = a1 + 0x20\n 17717: u64 [s1 + 0x188] = a2\n 17721: a3 = a2 <u a1\n 17724: a1 = u64 [s1 + 0x160]\n 17728: a2 = a1 + a3\n 17731: u64 [s1 + 0x168] = a2\n 17735: a4 = a2 <u a1\n 17738: a4 = a3 if a3 == 0\n 17741: a1 = u64 [s1 + 0x1b0]\n 17745: ra = a1 + a4\n 17748: a4 = ra <u a1\n 17751: a1 = u64 [s1 + 0x1a8]\n 17755: a1 = a1 + a4\n 17758: u64 [s1 + 0x1a8] = a1\n 17762: a1 = u64 [s1 + 0x180]\n 17766: a4 = a1 + 0x20\n 17769: a5 = a4 <u a1\n 17772: a2 = u64 [s1 + 0x178]\n 17776: a1 = a2 + a5\n 17779: a2 = a1 <u a2\n 17782: a2 = a5 if a5 == 0\n 17785: a3 = u64 [s1 + 0x158]\n 17789: a2 = a2 + a3\n 17792: a5 = a2 <u a3\n 17795: a3 = u64 [s1 + 0x1a0]\n 17799: a3 = a3 + a5\n 17802: u64 [s1 + 0x1a0] = a3\n 17806: u64 [s1 + 0x190] = t0\n 17810: a5 = u64 [s1 + 0x198]\n 17814: u64 [a5 + 0x8] = t0\n 17817: a3 = t2\n 17819: u64 [a5] = t2\n 17821: u64 [a5 + 0x10] = t1\n 17824: t2 = a0\n 17826: u64 [a5 + 0x18] = a0\n 17829: u64 [s1 + 0x170] = t1\n 17833: a0 = u64 [s1 + 0x188]\n 17837: u64 [s1 + 0x1b8] = a0\n 17841: t0 = u64 [s1 + 0x168]\n 17845: u64 [s1 + 0x1b0] = ra\n 17849: a5 = a1\n 17851: ra = a2\n 17853: jump @508\n      : @515 (gas: 4)\n 17856: a0 = a1 | a2\n 17859: a0 = a0 | t0\n 17862: a2 = u64 [s1 + 0x100]\n 17866: jump @533 if a0 != 0\n      : @516 (gas: 1)\n 17870: t0 = 536, jump @1172\n      : @517 [@dyn 268] (gas: 6)\n 17876: a2 = u64 [s1 + 0x18]\n 17879: t0 = u64 [s1 + 0x10]\n 17882: a4 = u64 [s1 + 0x38]\n 17885: a5 = u64 [s1 + 0x28]\n 17888: t1 = u64 [s1 + 0x30]\n 17891: jump @538\n      : @518 (gas: 11)\n 17894: ra = t0\n 17896: a4 = u64 [s1 + 0x140]\n 17900: a5 = u64 [s1 + 0x150]\n 17904: a4 = a4 ^ a5\n 17907: a5 = u64 [s1 + 0x120]\n 17911: a4 = a4 | a5\n 17914: a4 = a4 | a0\n 17917: t1 = u64 [s1 + 0x38]\n 17920: t0 = u64 [s1 + 0x30]\n 17923: a5 = u64 [s1 + 0x28]\n 17926: jump @532 if a4 == 0\n      : @519 (gas: 12)\n 17930: a0 = u64 [s1 + 0x1b8]\n 17934: a4 = a1 <u a0\n 17937: a3 = a3 + a4\n 17940: t0 = a3 ^ ra\n 17943: a5 = a3 <u ra\n 17946: a5 = a4 if t0 == 0\n 17949: a5 = a5 + a2\n 17952: a4 = a5 <u a2\n 17955: a0 = u64 [s1 + 0x1b0]\n 17959: a2 = a2 <u a0\n 17962: a0 = t2 + a2\n 17965: t0 = 538, jump @1161\n      : @520 [@dyn 269] (gas: 1)\n 17971: jump @522 if a0 == 0\n      : @521 (gas: 1)\n 17974: jump @929\n      : @522 (gas: 2)\n 17977: a0 = s1 + 0x19e0\n 17981: ra = 540, jump @17\n      : @523 [@dyn 270] (gas: 11)\n 17987: a0 = s1 + 0x1938\n 17991: a1 = u64 [a0 + 0xc0]\n 17995: u64 [s1 + 0x1b0] = a1\n 17999: a1 = u64 [a0 + 0xb8]\n 18003: u64 [s1 + 0x1a8] = a1\n 18007: a1 = u64 [a0 + 0xb0]\n 18011: u64 [s1 + 0x1a0] = a1\n 18015: a0 = u64 [a0 + 0xa8]\n 18019: u64 [s1 + 0x190] = a0\n 18023: a0 = u64 [s1 + 0x140]\n 18027: t0 = 542, jump @1158\n      : @524 [@dyn 271] (gas: 1)\n 18033: ra = 544, jump @1221\n      : @525 [@dyn 272] (gas: 1)\n 18039: t0 = 546, jump @1165\n      : @526 [@dyn 273] (gas: 1)\n 18045: ra = 548, jump @1216\n      : @527 [@dyn 274] (gas: 1)\n 18051: t0 = 550, jump @1154\n      : @528 [@dyn 275] (gas: 1)\n 18057: ra = 552, jump @1216\n      : @529 [@dyn 276] (gas: 1)\n 18063: t0 = 554, jump @1153\n      : @530 [@dyn 277] (gas: 8)\n 18069: a5 = a4 + 0x100\n 18073: u64 [a5 + 0x60] = a3\n 18076: u64 [a5 + 0x58] = a2\n 18079: u64 [a5 + 0x50] = a1\n 18082: u64 [a5 + 0x48] = a0\n 18085: a1 = s1 + 0x2a80\n 18089: a0 = u64 [s1 + 0x198]\n 18093: ra = 556, jump @23\n      : @531 [@dyn 278] (gas: 4)\n 18099: a5 = u64 [s1 + 0x28]\n 18102: t0 = u64 [s1 + 0x30]\n 18105: t1 = u64 [s1 + 0x38]\n 18108: fallthrough\n      : @532 (gas: 16)\n 18109: a0 = u64 [s1 + 0x18]\n 18112: a1 = u64 [s1 + 0x10]\n 18115: a0 = a0 | a1\n 18118: a1 = a5 | t1\n 18121: a2 = u64 [s1 + 0x8]\n 18124: a2 = t0 | a2\n 18127: a3 = u64 [s1 + 0x20]\n 18130: a3 = a3 + 0x1\n 18133: a4 = s1 + 0x2938\n 18137: a5 = a4 + 0x100\n 18141: u64 [a5 + 0x68] = a3\n 18144: u64 [a5 + 0x70] = a2\n 18147: u64 [a5 + 0x78] = a1\n 18150: u64 [a5 + 0x80] = a0\n 18154: a0 = 0x2aa0\n 18158: jump @546\n      : @533 (gas: 3)\n 18161: a0 = u64 [s1 + 0xf0]\n 18165: a1 = u64 [s1 + 0xe8]\n 18169: t0 = 558, jump @1215\n      : @534 [@dyn 279] (gas: 4)\n 18175: a3 = u64 [s1 + 0xf8]\n 18179: a1 = 0 if a3 != 0\n 18181: a1 = 0 if a0 != 0\n 18183: jump @536 if a1 != 0\n      : @535 (gas: 1)\n 18186: jump @929\n      : @536 (gas: 3)\n 18189: i32 a1 = a2 + 0x20\n 18192: a0 = s1 + 0x1a20\n 18196: ra = 560, jump @17\n      : @537 [@dyn 280] (gas: 16)\n 18202: a5 = u64 [s1 + 0x28]\n 18205: t1 = u64 [s1 + 0x30]\n 18208: a4 = u64 [s1 + 0x38]\n 18211: t0 = u64 [s1 + 0x10]\n 18214: a2 = u64 [s1 + 0x18]\n 18217: a0 = s1 + 0x1938\n 18221: a1 = u64 [a0 + 0x100]\n 18225: a3 = s1 + 0x100\n 18229: u64 [a3 + 0xb0] = a1\n 18233: a1 = u64 [a0 + 0xf8]\n 18237: u64 [a3 + 0xa8] = a1\n 18241: a1 = u64 [a0 + 0xf0]\n 18245: u64 [a3 + 0x98] = a1\n 18249: a0 = u64 [a0 + 0xe8]\n 18253: u64 [a3 + 0xa0] = a0\n 18257: fallthrough\n      : @538 (gas: 10)\n 18258: a1 = u64 [s1 + 0x8]\n 18261: a0 = a5 | a4\n 18264: u64 [s1 + 0x190] = a0\n 18268: a0 = t0 | a2\n 18271: u64 [s1 + 0x188] = a0\n 18275: a0 = t1 | a1\n 18278: u64 [s1 + 0x180] = a0\n 18282: a1 = u64 [s1 + 0x140]\n 18286: a1 = a1 << 0x3\n 18289: t0 = 562, jump @1168\n      : @539 [@dyn 281] (gas: 1)\n 18295: ra = 564, jump @1221\n      : @540 [@dyn 282] (gas: 7)\n 18301: u64 [s1 + 0x160] = a0\n 18305: u64 [s1 + 0x178] = a1\n 18309: a0 = u64 [s1 + 0x140]\n 18313: i32 a2 = a0 << 0x3\n 18316: a0 = 0xffffffffffffffff\n 18319: a1 = 0xffffffffffffffff\n 18322: ra = 566, jump @1216\n      : @541 [@dyn 283] (gas: 1)\n 18328: t0 = 568, jump @1156\n      : @542 [@dyn 284] (gas: 1)\n 18334: ra = 570, jump @1216\n      : @543 [@dyn 285] (gas: 1)\n 18340: t0 = 572, jump @1151\n      : @544 [@dyn 286] (gas: 4)\n 18346: a4 = u64 [s1 + 0x20]\n 18349: a0 = a0 | a4\n 18352: a5 = s1 + 0x100\n 18356: t0 = 574, jump @1177\n      : @545 [@dyn 287] (gas: 7)\n 18362: a5 = a4 + 0x100\n 18366: u64 [a5 + 0x98] = a2\n 18370: u64 [a5 + 0xa0] = a3\n 18374: u64 [a5 + 0x90] = a1\n 18378: u64 [a5 + 0x88] = a0\n 18382: a0 = 0x2ac0\n 18386: fallthrough\n      : @546 (gas: 3)\n 18387: a1 = s1 + a0\n 18390: a0 = u64 [s1 + 0x138]\n 18394: ra = 576, jump @23\n      : @547 [@dyn 288] (gas: 32)\n 18400: a0 = sp + 0xffffffffffffffe0\n 18403: a5 = a0 & 0xffffffffffffffe0\n 18406: sp = a5\n 18408: a0 = u64 [s1 + 0x78]\n 18411: t0 = a0 + 0x5\n 18414: a0 = t0 <u a0\n 18417: a1 = u64 [s1 + 0x80]\n 18421: t1 = a1 + a0\n 18424: a1 = t1 <u a1\n 18427: a1 = a0 if a0 == 0\n 18430: a0 = u64 [s1 + 0x68]\n 18433: ra = a0 + a1\n 18436: a0 = ra <u a0\n 18439: a1 = u64 [s1 + 0x60]\n 18442: t2 = a1 + a0\n 18445: a1 = u64 [s1 + 0xe0]\n 18449: a4 = u64 [s1 + 0xc8]\n 18453: a0 = a1 | a4\n 18456: a2 = u64 [s1 + 0xd8]\n 18460: a3 = u64 [s1 + 0xd0]\n 18464: a2 = a2 | a3\n 18467: a0 = a0 | a2\n 18470: a0 = a0 >> 0x20\n 18473: a2 = a2 | a4\n 18476: a2 = a2 << 0x20\n 18479: a0 = a0 | a2\n 18482: u64 [a5 + 0x10] = ra\n 18485: u64 [a5 + 0x8] = t1\n 18488: u64 [a5] = t0\n 18490: u64 [s1 + 0x140] = a5\n 18494: u64 [a5 + 0x18] = t2\n 18497: jump @549 if a0 == 0\n      : @548 (gas: 1)\n 18500: jump @929\n      : @549 (gas: 6)\n 18503: u64 [s1 + 0x80] = t2\n 18507: u64 [s1 + 0xe8] = ra\n 18511: u64 [s1 + 0xf0] = t1\n 18515: u64 [s1 + 0xf8] = t0\n 18519: a0 = s1 + 0x19c0\n 18523: ra = 578, jump @17\n      : @550 [@dyn 289] (gas: 18)\n 18529: a2 = s1 + 0x1938\n 18533: a4 = u64 [a2 + 0xa0]\n 18537: a3 = u64 [a2 + 0x98]\n 18541: a1 = u64 [a2 + 0x90]\n 18545: a0 = a4 >u 0\n 18547: a5 = a3 >u 0\n 18549: a5 = a0 if a4 != 0\n 18552: u64 [s1 + 0x120] = a1\n 18556: a0 = a1 >u 0\n 18558: a1 = s1 + 0x100\n 18562: u64 [a1 + 0x38] = a3\n 18565: u64 [a1] = a4\n 18567: a3 = a3 | a4\n 18570: u64 [a1 + 0x58] = a0\n 18573: u64 [a1 + 0x60] = a5\n 18576: u64 [a1 + 0x70] = a3\n 18579: a0 = a5 if a3 != 0\n 18582: jump @552 if a0 == 0\n      : @551 (gas: 1)\n 18585: jump @959\n      : @552 (gas: 5)\n 18588: a0 = u64 [a2 + 0x88]\n 18592: u64 [s1 + 0x148] = a0\n 18596: a0 = s1 + 0x19a0\n 18600: a1 = u64 [s1 + 0x140]\n 18604: ra = 580, jump @21\n      : @553 [@dyn 290] (gas: 12)\n 18610: a4 = s1 + 0x1938\n 18614: a2 = u64 [a4 + 0x68]\n 18617: a0 = u64 [a4 + 0x70]\n 18620: a1 = u64 [a4 + 0x78]\n 18623: a3 = u64 [a4 + 0x80]\n 18627: u64 [a4 + 0x40] = a3\n 18630: u64 [a4 + 0x38] = a1\n 18633: u64 [a4 + 0x30] = a0\n 18636: a0 = s1 + 0x1980\n 18640: a1 = s1 + 0x1960\n 18644: u64 [a4 + 0x28] = a2\n 18647: ra = 582, jump @1120\n      : @554 [@dyn 291] (gas: 18)\n 18653: a0 = s1 + 0x1938\n 18657: a3 = u64 [a0 + 0x60]\n 18660: a4 = u64 [a0 + 0x58]\n 18663: a5 = u64 [a0 + 0x50]\n 18666: t0 = u64 [a0 + 0x48]\n 18669: a0 = a3 >u 0\n 18671: a1 = a4 >u 0\n 18673: a1 = a0 if a3 != 0\n 18676: a0 = a5 >u 0\n 18678: a2 = t0 <u 0x20\n 18681: a2 = a2 ^ 0x1\n 18684: a2 = a0 if a5 != 0\n 18687: a0 = a4 | a3\n 18690: a2 = a1 if a0 != 0\n 18693: a0 = u64 [s1 + 0x148]\n 18697: a0 = a0 <u 0x20\n 18700: u64 [s1 + 0x168] = a0\n 18704: jump @569 if a2 == 0\n      : @555 (gas: 17)\n 18708: u64 [s1 + 0x190] = t0\n 18712: a0 = s1 + 0x100\n 18716: u64 [a0 + 0x98] = a5\n 18720: u64 [a0 + 0xb0] = a4\n 18724: u64 [a0 + 0xa0] = a3\n 18728: a0 = s1 + 0x1938\n 18732: a1 = u64 [s1 + 0xf8]\n 18736: u64 [a0 + 0x8] = a1\n 18739: a1 = u64 [s1 + 0xf0]\n 18743: u64 [a0 + 0x10] = a1\n 18746: a1 = u64 [s1 + 0xe8]\n 18750: u64 [a0 + 0x18] = a1\n 18753: a1 = s1 + 0x1940\n 18757: a2 = u64 [s1 + 0x80]\n 18761: u64 [a0 + 0x20] = a2\n 18764: a0 = 0\n 18766: ra = 584, jump @19\n      : @556 [@dyn 292] (gas: 3)\n 18772: a2 = u64 [s1 + 0xa8]\n 18776: a0 = i32 [a2]\n 18778: jump @558 if a0 >u 31\n      : @557 (gas: 3)\n 18782: u32 [a2 + 0] = 0x20\n 18785: t0 = 0x24a\n 18789: jump @1170\n      : @558 (gas: 1)\n 18792: t0 = 586, jump @1170\n      : @559 [@dyn 293] (gas: 3)\n 18798: ra = 0x24c\n 18802: ecalli 6 // 'hash_keccak_256'\n 18804: fallthrough\n      : @560 [@dyn 294] (gas: 15)\n 18805: a0 = u64 [s1 + 0x148]\n 18809: a1 = a0 + 0x1f\n 18812: a0 = a1 <u a0\n 18815: a5 = u64 [s1 + 0x120]\n 18819: a2 = a5 + a0\n 18822: a3 = a2 <u a5\n 18825: a3 = a0 if a0 == 0\n 18828: a4 = u64 [s1 + 0x138]\n 18832: a3 = a3 + a4\n 18835: u64 [s1 + 0x188] = a3\n 18839: a3 = a3 << 0x3b\n 18842: a4 = a2 >> 0x5\n 18845: a4 = a4 | a3\n 18848: a0 = u64 [s1 + 0x1a8]\n 18852: t0 = 590, jump @1166\n      : @561 [@dyn 295] (gas: 4)\n 18858: a1 = u64 [s1 + 0x168]\n 18862: a1 = 0 if a5 != 0\n 18864: a3 = u64 [s1 + 0x170]\n 18868: t0 = 592, jump @1186\n      : @562 [@dyn 296] (gas: 29)\n 18874: t0 = t2 + a0\n 18877: a0 = t0 <u t2\n 18880: a5 = a2 + a0\n 18883: a4 = a4 + a5\n 18886: u64 [s1 + 0x1b8] = a4\n 18890: a5 = a4 ^ a2\n 18893: a3 = a4 <u a2\n 18896: a3 = a0 if a5 == 0\n 18899: u64 [s1 + 0x180] = a3\n 18903: a0 = u64 [s1 + 0x190]\n 18907: ra = a0 + 0x1f\n 18910: a4 = ra <u a0\n 18913: a3 = u64 [s1 + 0x198]\n 18917: a0 = a3 + a4\n 18920: a5 = a0 <u a3\n 18923: a5 = a4 if a4 == 0\n 18926: t1 = u64 [s1 + 0x1b0]\n 18930: t1 = t1 + a5\n 18933: a4 = t1 << 0x3b\n 18936: a3 = a0 >> 0x5\n 18939: a3 = a3 | a4\n 18942: a0 = a0 << 0x3b\n 18945: a4 = ra >> 0x5\n 18948: a0 = a0 | a4\n 18951: a0 = a0 + t2\n 18954: u64 [s1 + 0x198] = a0\n 18958: a0 = a0 <u t2\n 18961: t2 = t0\n 18963: t0 = 594, jump @1189\n      : @563 [@dyn 297] (gas: 2)\n 18969: a3 = u64 [s1 + 0x100]\n 18973: t0 = 596, jump @1178\n      : @564 [@dyn 298] (gas: 8)\n 18979: t0 = u64 [a4]\n 18981: a4 = u64 [a4 + 0x8]\n 18984: a0 = a0 >> 0x5\n 18987: a3 = 0 if a1 != 0\n 18989: a0 = 0 if a1 != 0\n 18991: a1 = reverse a4\n 18993: a4 = reverse t0\n 18995: t0 = 598, jump @1167\n      : @565 [@dyn 299] (gas: 25)\n 19001: t0 = a0 + a3\n 19004: a0 = u64 [s1 + 0x1b0]\n 19008: a0 = t1 <u a0\n 19011: a3 = u64 [s1 + 0x1a0]\n 19015: a0 = a0 + a3\n 19018: a3 = t1 >> 0x5\n 19021: a5 = a0 << 0x3b\n 19024: a3 = a3 | a5\n 19027: a0 = a0 >> 0x5\n 19030: a0 = a0 + a4\n 19033: a5 = s1 + 0x100\n 19037: a4 = u64 [a5 + 0xb8]\n 19041: a3 = a3 + a1\n 19044: a1 = a3 <u a1\n 19047: a0 = a0 + a1\n 19050: a2 = a2 + a3\n 19053: u64 [a5 + 0x88] = a2\n 19057: a1 = a2 <u a3\n 19060: a0 = a0 + a1\n 19063: u64 [a5 + 0x80] = a0\n 19067: a0 = sp + 0xffffffffffffffe0\n 19070: t1 = a0 & 0xffffffffffffffe0\n 19073: sp = t1\n 19075: u64 [s1 + 0x178] = t1\n 19079: fallthrough\n      : @566 (gas: 21)\n 19080: a0 = u64 [s1 + 0x198]\n 19084: a0 = t2 <u a0\n 19087: a2 = u64 [s1 + 0x190]\n 19091: a1 = a4 ^ a2\n 19094: a2 = a4 <u a2\n 19097: a2 = a0 if a1 == 0\n 19100: a5 = u64 [s1 + 0x188]\n 19104: a0 = ra <u a5\n 19107: a3 = u64 [s1 + 0x180]\n 19111: a1 = t0 ^ a3\n 19114: a3 = t0 <u a3\n 19117: a3 = a0 if a1 == 0\n 19120: a0 = ra ^ a5\n 19123: a0 = a0 | a1\n 19126: a3 = a2 if a0 == 0\n 19129: u64 [t1] = t2\n 19131: u64 [t1 + 0x8] = a4\n 19134: u64 [t1 + 0x10] = ra\n 19137: u64 [t1 + 0x18] = t0\n 19140: a0 = s1 + 0x2938\n 19144: jump @569 if a3 == 0\n      : @567 (gas: 11)\n 19147: u64 [a0 + 448] = 0\n 19151: u64 [a0 + 440] = 0\n 19155: u64 [a0 + 432] = 0\n 19159: u64 [a0 + 424] = 0\n 19163: a1 = s1 + 0x2ae0\n 19167: a0 = t1\n 19169: u64 [s1 + 0x1b0] = t2\n 19173: u64 [s1 + 0x1b8] = a4\n 19177: u64 [s1 + 0x1a8] = t0\n 19181: u64 [s1 + 0x1a0] = ra\n 19185: ra = 600, jump @23\n      : @568 [@dyn 300] (gas: 15)\n 19191: t1 = u64 [s1 + 0x178]\n 19195: t0 = u64 [s1 + 0x1a8]\n 19199: a4 = u64 [s1 + 0x1b8]\n 19203: t2 = u64 [s1 + 0x1b0]\n 19207: t2 = t2 + 0x1\n 19210: a0 = t2 <u 0x1\n 19213: a4 = a4 + a0\n 19216: a0 = t2 | a4\n 19219: a0 = a0 <u 0x1\n 19222: a1 = u64 [s1 + 0x1a0]\n 19226: a0 = a0 + a1\n 19229: a1 = a0 <u a1\n 19232: t0 = t0 + a1\n 19235: ra = a0\n 19237: jump @566\n      : @569 (gas: 10)\n 19240: a3 = s1 + 0x100\n 19244: a0 = u64 [a3 + 0x68]\n 19247: a0 = a0 ^ 0x1\n 19250: a4 = u64 [a3 + 0x20]\n 19253: a1 = u64 [a3 + 0x58]\n 19256: a0 = a1 if a4 != 0\n 19259: a1 = u64 [a3 + 0x60]\n 19262: a2 = u64 [a3 + 0x70]\n 19265: a0 = a1 if a2 != 0\n 19268: jump @595 if a0 == 0\n      : @570 (gas: 16)\n 19272: a0 = u64 [s1 + 0x148]\n 19276: a0 = a0 & 0xffffffffffffffe0\n 19279: u64 [s1 + 0x150] = a0\n 19283: a0 = s1 + 0x1138\n 19287: a1 = u64 [s1 + 0xf8]\n 19291: a3 = a0 + 0x700\n 19295: u64 [a3 + 0xc8] = a1\n 19299: a1 = u64 [s1 + 0xf0]\n 19303: u64 [a3 + 0xd0] = a1\n 19307: a1 = u64 [s1 + 0xe8]\n 19311: u64 [a3 + 0xd8] = a1\n 19315: a1 = s1 + 0x1900\n 19319: a2 = u64 [s1 + 0x80]\n 19323: u64 [a3 + 0xe0] = a2\n 19327: a0 = 0\n 19329: ra = 602, jump @19\n      : @571 [@dyn 301] (gas: 1)\n 19335: t0 = 604, jump @1182\n      : @572 [@dyn 302] (gas: 1)\n 19341: ra = 606, jump @26\n      : @573 [@dyn 303] (gas: 1)\n 19347: t0 = 608, jump @1169\n      : @574 [@dyn 304] (gas: 28)\n 19353: ecalli 6 // 'hash_keccak_256'\n 19355: u64 [s1 + 440] = 0x20\n 19360: a5 = 0\n 19362: u64 [s1 + 432] = 0\n 19366: u64 [s1 + 424] = 0\n 19370: a4 = 0\n 19372: ra = 0\n 19374: u64 [s1 + 408] = 0\n 19378: u64 [s1 + 416] = 0\n 19382: a3 = u64 [s1 + 0x188]\n 19386: a0 = u64 [a3 + 0x18]\n 19389: a1 = u64 [a3 + 0x10]\n 19392: a2 = u64 [a3 + 0x8]\n 19395: t0 = u64 [a3]\n 19397: t1 = reverse a0\n 19399: a1 = reverse a1\n 19401: a3 = reverse a2\n 19403: a2 = reverse t0\n 19405: t0 = a2\n 19407: a0 = u64 [s1 + 0x190]\n 19411: u64 [a0 + 0x18] = a2\n 19414: u64 [s1 + 0x170] = a3\n 19418: u64 [a0 + 0x10] = a3\n 19421: u64 [s1 + 0x188] = a1\n 19425: u64 [a0 + 0x8] = a1\n 19428: a3 = t1\n 19430: u64 [a0] = t1\n 19432: fallthrough\n      : @575 (gas: 25)\n 19433: t1 = t0\n 19435: t2 = a3\n 19437: a0 = u64 [s1 + 0x150]\n 19441: u64 [s1 + 0x180] = a4\n 19445: a0 = a4 <u a0\n 19448: a4 = a0 ^ 0x1\n 19451: u64 [s1 + 0x178] = ra\n 19455: a4 = 0x1 if ra != 0\n 19458: a0 = u64 [s1 + 0x1a0]\n 19462: a2 = u64 [s1 + 0x198]\n 19466: a0 = a0 | a2\n 19469: a4 = 0x1 if a0 != 0\n 19472: a1 = u64 [s1 + 0xe0]\n 19476: a0 = u64 [s1 + 0x1b8]\n 19480: a1 = a1 + a0\n 19483: a3 = u64 [s1 + 0xd8]\n 19487: t0 = a5\n 19489: a3 = a3 + a5\n 19492: a2 = u64 [s1 + 0xc8]\n 19496: ra = u64 [s1 + 0x1b0]\n 19500: a2 = a2 + ra\n 19503: a0 = u64 [s1 + 0xd0]\n 19507: a5 = u64 [s1 + 0x1a8]\n 19511: a0 = a0 + a5\n 19514: jump @601 if a4 != 0\n      : @576 (gas: 13)\n 19518: a4 = u64 [s1 + 0x1b8]\n 19522: a4 = a1 <u a4\n 19525: a3 = a3 + a4\n 19528: a5 = t0\n 19530: t0 = a3 ^ t0\n 19533: u64 [s1 + 0x158] = a5\n 19537: a5 = a3 <u a5\n 19540: a5 = a4 if t0 == 0\n 19543: a5 = a5 + a2\n 19546: a4 = a5 <u a2\n 19549: a2 = a2 <u ra\n 19552: a0 = a0 + a2\n 19555: t0 = 610, jump @1161\n      : @577 [@dyn 305] (gas: 3)\n 19561: u64 [s1 + 0x168] = t2\n 19565: u64 [s1 + 0x160] = t1\n 19569: jump @579 if a0 == 0\n      : @578 (gas: 1)\n 19572: jump @929\n      : @579 (gas: 3)\n 19575: a0 = s1 + 0x15c0\n 19579: u64 [s1 + 0x1b0] = ra\n 19583: ra = 612, jump @17\n      : @580 [@dyn 306] (gas: 15)\n 19589: a3 = s1 + 0x1138\n 19593: a4 = a3 + 0x400\n 19597: a0 = u64 [a4 + 0xa0]\n 19601: a1 = u64 [a4 + 0x98]\n 19605: a2 = u64 [a4 + 0x90]\n 19609: a3 = u64 [a4 + 0x88]\n 19613: a4 = s1 + 0x2938\n 19617: a5 = a4 + 0x100\n 19621: u64 [a5 + 0xe0] = a0\n 19625: u64 [a5 + 0xd8] = a1\n 19629: u64 [a5 + 0xd0] = a2\n 19633: u64 [a5 + 0xc8] = a3\n 19637: a1 = s1 + 0x2b00\n 19641: a0 = u64 [s1 + 0x190]\n 19645: ra = 614, jump @23\n      : @581 [@dyn 307] (gas: 56)\n 19651: ra = u64 [s1 + 0x168]\n 19655: ra = ra + 0x1\n 19658: a0 = ra <u 0x1\n 19661: t0 = u64 [s1 + 0x188]\n 19665: t0 = t0 + a0\n 19668: a0 = ra | t0\n 19671: a0 = a0 <u 0x1\n 19674: a1 = u64 [s1 + 0x170]\n 19678: t1 = a1 + a0\n 19681: a1 = t1 <u a1\n 19684: a0 = u64 [s1 + 0x160]\n 19688: a0 = a0 + a1\n 19691: a1 = u64 [s1 + 0x1b8]\n 19695: a2 = a1 + 0x20\n 19698: u64 [s1 + 0x168] = a2\n 19702: a3 = a2 <u a1\n 19705: a1 = u64 [s1 + 0x158]\n 19709: a2 = a1 + a3\n 19712: u64 [s1 + 0x160] = a2\n 19716: a4 = a2 <u a1\n 19719: a4 = a3 if a3 == 0\n 19722: a1 = u64 [s1 + 0x1b0]\n 19726: t2 = a1 + a4\n 19729: a4 = t2 <u a1\n 19732: a1 = u64 [s1 + 0x1a8]\n 19736: a1 = a1 + a4\n 19739: u64 [s1 + 0x1a8] = a1\n 19743: a1 = u64 [s1 + 0x180]\n 19747: a4 = a1 + 0x20\n 19750: a5 = a4 <u a1\n 19753: a2 = u64 [s1 + 0x178]\n 19757: a1 = a2 + a5\n 19760: a2 = a1 <u a2\n 19763: a2 = a5 if a5 == 0\n 19766: a3 = u64 [s1 + 0x198]\n 19770: a2 = a2 + a3\n 19773: a5 = a2 <u a3\n 19776: a3 = u64 [s1 + 0x1a0]\n 19780: a3 = a3 + a5\n 19783: u64 [s1 + 0x1a0] = a3\n 19787: u64 [s1 + 0x188] = t0\n 19791: a5 = u64 [s1 + 0x190]\n 19795: u64 [a5 + 0x8] = t0\n 19798: a3 = ra\n 19800: u64 [a5] = ra\n 19802: u64 [a5 + 0x10] = t1\n 19805: t0 = a0\n 19807: u64 [a5 + 0x18] = a0\n 19810: u64 [s1 + 0x170] = t1\n 19814: a0 = u64 [s1 + 0x168]\n 19818: u64 [s1 + 0x1b8] = a0\n 19822: a5 = u64 [s1 + 0x160]\n 19826: u64 [s1 + 0x1b0] = t2\n 19830: ra = a1\n 19832: u64 [s1 + 0x198] = a2\n 19836: jump @575\n      : @582 (gas: 26)\n 19839: a0 = u64 [s1 + 0x80]\n 19843: a0 = a0 ^ 0x1\n 19846: a4 = u64 [s1 + 0x130]\n 19850: a1 = u64 [s1 + 0x68]\n 19853: a0 = a1 if a4 != 0\n 19856: a1 = u64 [s1 + 0x70]\n 19859: a2 = u64 [s1 + 0x88]\n 19863: a0 = a1 if a2 != 0\n 19866: t1 = u64 [s1 + 0x128]\n 19870: t0 = a4 | t1\n 19873: a2 = u64 [s1 + 0x90]\n 19877: a1 = a2 >> 0x3f\n 19880: u64 [s1 + 0x88] = a1\n 19884: t1 = t1 << 0x1\n 19887: a5 = a4 >> 0x3f\n 19890: t2 = a2 << 0x1\n 19893: a1 = u64 [s1 + 0xb0]\n 19897: ra = a1 >> 0x3f\n 19900: a4 = a4 << 0x1\n 19903: a3 = a1 << 0x1\n 19906: u64 [s1 + 0x58] = a3\n 19909: u64 [s1 + 0x80] = t1\n 19913: u64 [s1 + 0x70] = ra\n 19916: u64 [s1 + 0x68] = a5\n 19919: u64 [s1 + 0x60] = t2\n 19922: jump @598 if a0 == 0\n      : @583 (gas: 18)\n 19926: u64 [s1 + 0x128] = t0\n 19930: u64 [s1 + 0x50] = a4\n 19933: a1 = a1 & 0xffffffffffffffe0\n 19936: u64 [s1 + 0x130] = a1\n 19940: a0 = s1 + 0x7ff\n 19944: a0 = a0 + 0x139\n 19948: a1 = u64 [s1 + 0x170]\n 19952: u64 [a0 + 0x68] = a1\n 19955: a1 = u64 [s1 + 0x160]\n 19959: u64 [a0 + 0x70] = a1\n 19962: a1 = u64 [s1 + 0x158]\n 19966: u64 [a0 + 0x78] = a1\n 19969: a1 = s1 + 0x7ff\n 19973: a1 = a1 + 0x1a1\n 19977: a2 = u64 [s1 + 0x168]\n 19981: u64 [a0 + 0x80] = a2\n 19985: a0 = 0\n 19987: ra = 616, jump @19\n      : @584 [@dyn 308] (gas: 1)\n 19993: t0 = 618, jump @1181\n      : @585 [@dyn 309] (gas: 1)\n 19999: ra = 620, jump @26\n      : @586 [@dyn 310] (gas: 1)\n 20005: t0 = 622, jump @1183\n      : @587 [@dyn 311] (gas: 28)\n 20011: ecalli 6 // 'hash_keccak_256'\n 20013: u64 [s1 + 440] = 0x20\n 20018: t0 = 0\n 20020: u64 [s1 + 432] = 0\n 20024: u64 [s1 + 424] = 0\n 20028: a4 = 0\n 20030: a5 = 0\n 20032: t2 = 0\n 20034: u64 [s1 + 416] = 0\n 20038: a3 = u64 [s1 + 0x190]\n 20042: a0 = u64 [a3 + 0x18]\n 20045: a1 = u64 [a3 + 0x10]\n 20048: a2 = u64 [a3 + 0x8]\n 20051: t1 = u64 [a3]\n 20053: a0 = reverse a0\n 20055: a1 = reverse a1\n 20057: a3 = reverse a2\n 20059: t1 = reverse t1\n 20061: ra = t1\n 20063: a2 = u64 [s1 + 0x198]\n 20067: u64 [a2 + 0x18] = t1\n 20070: u64 [s1 + 0x188] = a3\n 20074: u64 [a2 + 0x10] = a3\n 20077: u64 [s1 + 0x190] = a1\n 20081: u64 [a2 + 0x8] = a1\n 20084: a3 = a0\n 20086: u64 [a2] = a0\n 20088: fallthrough\n      : @588 (gas: 25)\n 20089: u64 [s1 + 0x180] = ra\n 20093: ra = a3\n 20095: a0 = u64 [s1 + 0x130]\n 20099: u64 [s1 + 0x178] = a4\n 20103: a0 = a4 <u a0\n 20106: a4 = a0 ^ 0x1\n 20109: u64 [s1 + 0x170] = a5\n 20113: a4 = 0x1 if a5 != 0\n 20116: a5 = s1 + 0x100\n 20120: a0 = u64 [a5 + 0xa0]\n 20124: a0 = t2 | a0\n 20127: a4 = 0x1 if a0 != 0\n 20130: a1 = u64 [a5 + 0x38]\n 20133: a0 = u64 [a5 + 0xb8]\n 20137: a1 = a1 + a0\n 20140: a3 = u64 [a5 + 0x50]\n 20143: a3 = a3 + t0\n 20146: a2 = u64 [a5 + 0x40]\n 20149: a0 = u64 [a5 + 0xb0]\n 20153: a2 = a2 + a0\n 20156: a0 = u64 [a5 + 0x48]\n 20159: t1 = u64 [s1 + 0x1a8]\n 20163: t1 = t1 + a0\n 20166: a0 = u64 [a5 + 0x28]\n 20169: jump @669 if a4 != 0\n      : @589 (gas: 14)\n 20173: a0 = u64 [s1 + 0x1b8]\n 20177: a4 = a1 <u a0\n 20180: a3 = a3 + a4\n 20183: a0 = t0\n 20185: t0 = a3 ^ t0\n 20188: u64 [s1 + 0x160] = a0\n 20192: a5 = a3 <u a0\n 20195: a5 = a4 if t0 == 0\n 20198: a5 = a5 + a2\n 20201: a4 = a5 <u a2\n 20204: a0 = u64 [s1 + 0x1b0]\n 20208: a2 = a2 <u a0\n 20211: a0 = t1 + a2\n 20214: t0 = 624, jump @1161\n      : @590 [@dyn 312] (gas: 2)\n 20220: u64 [s1 + 0x168] = ra\n 20224: jump @592 if a0 == 0\n      : @591 (gas: 1)\n 20227: jump @929\n      : @592 (gas: 3)\n 20230: a0 = s1 + 0x2e0\n 20234: u64 [s1 + 0x158] = t2\n 20238: ra = 626, jump @17\n      : @593 [@dyn 313] (gas: 14)\n 20244: a4 = s1 + 0x200\n 20248: a0 = u64 [a4 + 0xf8]\n 20252: a1 = u64 [a4 + 0xf0]\n 20256: a2 = u64 [a4 + 0xe8]\n 20260: a3 = u64 [a4 + 0xe0]\n 20264: a4 = s1 + 0x2138\n 20268: a5 = a4 + 0x400\n 20272: u64 [a5 + 0x20] = a0\n 20275: u64 [a5 + 0x18] = a1\n 20278: u64 [a5 + 0x10] = a2\n 20281: u64 [a5 + 0x8] = a3\n 20284: a1 = s1 + 0x2540\n 20288: a0 = u64 [s1 + 0x198]\n 20292: ra = 628, jump @23\n      : @594 [@dyn 314] (gas: 56)\n 20298: ra = u64 [s1 + 0x168]\n 20302: ra = ra + 0x1\n 20305: a0 = ra <u 0x1\n 20308: t0 = u64 [s1 + 0x190]\n 20312: t0 = t0 + a0\n 20315: a0 = ra | t0\n 20318: a0 = a0 <u 0x1\n 20321: a1 = u64 [s1 + 0x188]\n 20325: t1 = a1 + a0\n 20328: a1 = t1 <u a1\n 20331: a0 = u64 [s1 + 0x180]\n 20335: a0 = a0 + a1\n 20338: a1 = u64 [s1 + 0x1b8]\n 20342: a2 = a1 + 0x20\n 20345: u64 [s1 + 0x180] = a2\n 20349: a3 = a2 <u a1\n 20352: a1 = u64 [s1 + 0x160]\n 20356: a2 = a1 + a3\n 20359: u64 [s1 + 0x168] = a2\n 20363: a4 = a2 <u a1\n 20366: a4 = a3 if a3 == 0\n 20369: a1 = u64 [s1 + 0x1b0]\n 20373: t2 = a1 + a4\n 20376: a4 = t2 <u a1\n 20379: a1 = u64 [s1 + 0x1a8]\n 20383: a1 = a1 + a4\n 20386: u64 [s1 + 0x1a8] = a1\n 20390: a1 = u64 [s1 + 0x178]\n 20394: a4 = a1 + 0x20\n 20397: a5 = a4 <u a1\n 20400: a2 = u64 [s1 + 0x170]\n 20404: a1 = a2 + a5\n 20407: a2 = a1 <u a2\n 20410: a2 = a5 if a5 == 0\n 20413: a3 = u64 [s1 + 0x158]\n 20417: a2 = a2 + a3\n 20420: a5 = a2 <u a3\n 20423: a3 = u64 [s1 + 0x1a0]\n 20427: a3 = a3 + a5\n 20430: u64 [s1 + 0x1a0] = a3\n 20434: u64 [s1 + 0x190] = t0\n 20438: a5 = u64 [s1 + 0x198]\n 20442: u64 [a5 + 0x8] = t0\n 20445: a3 = ra\n 20447: u64 [a5] = ra\n 20449: u64 [a5 + 0x10] = t1\n 20452: ra = a0\n 20454: u64 [a5 + 0x18] = a0\n 20457: u64 [s1 + 0x188] = t1\n 20461: a0 = u64 [s1 + 0x180]\n 20465: u64 [s1 + 0x1b8] = a0\n 20469: t0 = u64 [s1 + 0x168]\n 20473: u64 [s1 + 0x1b0] = t2\n 20477: a5 = a1\n 20479: t2 = a2\n 20481: jump @588\n      : @595 (gas: 9)\n 20484: a2 = s1 + 0x100\n 20488: a3 = u64 [a2 + 0x48]\n 20491: a0 = u64 [a2 + 0x38]\n 20494: a0 = a0 | a3\n 20497: a1 = u64 [a2]\n 20499: a1 = a1 | a4\n 20502: a0 = a0 | a1\n 20505: a2 = u64 [s1 + 0xe0]\n 20509: jump @615 if a0 != 0\n      : @596 (gas: 1)\n 20513: t0 = 630, jump @1172\n      : @597 [@dyn 315] (gas: 1)\n 20519: jump @620\n      : @598 (gas: 4)\n 20522: a0 = a1 | a2\n 20525: a0 = a0 | t0\n 20528: a2 = u64 [s1 + 0x138]\n 20532: jump @683 if a0 != 0\n      : @599 (gas: 1)\n 20536: t0 = 632, jump @1172\n      : @600 [@dyn 316] (gas: 5)\n 20542: t0 = u64 [s1 + 0x88]\n 20546: a3 = u64 [s1 + 0x80]\n 20550: a2 = u64 [s1 + 0x70]\n 20553: a0 = u64 [s1 + 0x68]\n 20556: jump @688\n      : @601 (gas: 11)\n 20559: t2 = t0\n 20561: t0 = u64 [s1 + 0x148]\n 20565: a4 = u64 [s1 + 0x150]\n 20569: a4 = a4 ^ t0\n 20572: a5 = u64 [s1 + 0x138]\n 20576: t1 = a4 | a5\n 20579: a5 = u64 [s1 + 0x120]\n 20583: a4 = u64 [s1 + 0x100]\n 20587: a5 = a5 | a4\n 20590: a4 = t1 | a5\n 20593: jump @614 if a4 == 0\n      : @602 (gas: 11)\n 20597: a4 = u64 [s1 + 0x1b8]\n 20601: a4 = a1 <u a4\n 20604: a3 = a3 + a4\n 20607: t0 = a3 ^ t2\n 20610: a5 = a3 <u t2\n 20613: a5 = a4 if t0 == 0\n 20616: a5 = a5 + a2\n 20619: a4 = a5 <u a2\n 20622: a2 = a2 <u ra\n 20625: a0 = a0 + a2\n 20628: t0 = 634, jump @1161\n      : @603 [@dyn 317] (gas: 1)\n 20634: jump @605 if a0 == 0\n      : @604 (gas: 1)\n 20637: jump @929\n      : @605 (gas: 2)\n 20640: a0 = s1 + 0x18e0\n 20644: ra = 636, jump @17\n      : @606 [@dyn 318] (gas: 12)\n 20650: a0 = s1 + 0x1138\n 20654: a2 = a0 + 0x700\n 20658: a1 = u64 [a2 + 0xc0]\n 20662: u64 [s1 + 0x1b0] = a1\n 20666: a1 = u64 [a2 + 0xb8]\n 20670: u64 [s1 + 0x1a8] = a1\n 20674: a1 = u64 [a2 + 0xb0]\n 20678: u64 [s1 + 0x1a0] = a1\n 20682: a0 = u64 [a2 + 0xa8]\n 20686: u64 [s1 + 0x198] = a0\n 20690: a0 = u64 [s1 + 0x148]\n 20694: t0 = 638, jump @1158\n      : @607 [@dyn 319] (gas: 1)\n 20700: ra = 640, jump @1221\n      : @608 [@dyn 320] (gas: 1)\n 20706: t0 = 642, jump @1165\n      : @609 [@dyn 321] (gas: 1)\n 20712: ra = 644, jump @1216\n      : @610 [@dyn 322] (gas: 1)\n 20718: t0 = 646, jump @1154\n      : @611 [@dyn 323] (gas: 1)\n 20724: ra = 648, jump @1216\n      : @612 [@dyn 324] (gas: 30)\n 20730: a4 = u64 [s1 + 0x1b8]\n 20734: a2 = a4 <u 0x80\n 20738: a3 = u64 [s1 + 0x170]\n 20742: a1 = a3 if a2 != 0\n 20745: a5 = u64 [s1 + 0x178]\n 20749: a3 = u64 [s1 + 0x188]\n 20753: a3 = a3 | a5\n 20756: a3 = a0 if a2 == 0\n 20759: a1 = 0xffffffffffffffff if a4 == 0\n 20762: a3 = 0xffffffffffffffff if a4 == 0\n 20765: a4 = u64 [s1 + 0x180]\n 20769: a4 = 0 if a2 == 0\n 20771: a5 = 0 if a2 == 0\n 20773: a0 = u64 [s1 + 0x198]\n 20777: a0 = a0 & ~a3\n 20780: a2 = u64 [s1 + 0x1a0]\n 20784: a1 = a2 & ~a1\n 20787: a2 = u64 [s1 + 0x1a8]\n 20791: a2 = a2 & ~a5\n 20794: a3 = u64 [s1 + 0x1b0]\n 20798: a3 = a3 & ~a4\n 20801: a4 = s1 + 0x2938\n 20805: u64 [a4 + 0x200] = a3\n 20809: a3 = a4 + 0x100\n 20813: u64 [a3 + 0xf8] = a2\n 20817: u64 [a3 + 0xf0] = a1\n 20821: u64 [a3 + 0xe8] = a0\n 20825: a1 = s1 + 0x2b20\n 20829: a0 = u64 [s1 + 0x190]\n 20833: ra = 650, jump @23\n      : @613 [@dyn 325] (gas: 2)\n 20839: t0 = u64 [s1 + 0x148]\n 20843: fallthrough\n      : @614 (gas: 23)\n 20844: a4 = s1 + 0x100\n 20848: a2 = u64 [a4 + 0x38]\n 20851: a0 = a2 >> 0x3f\n 20854: a1 = u64 [a4]\n 20856: a1 = a1 << 0x1\n 20859: a0 = a0 | a1\n 20862: a3 = u64 [a4 + 0x20]\n 20865: a1 = a3 >> 0x3f\n 20868: a2 = a2 << 0x1\n 20871: a1 = a1 | a2\n 20874: a2 = t0 >> 0x3f\n 20877: a3 = a3 << 0x1\n 20880: a2 = a2 | a3\n 20883: a3 = t0 << 0x1\n 20886: a3 = a3 + 0x1\n 20889: a4 = s1 + 0x2938\n 20893: a5 = a4 + 0x200\n 20897: u64 [a5 + 0x8] = a3\n 20900: u64 [a5 + 0x10] = a2\n 20903: u64 [a5 + 0x18] = a1\n 20906: u64 [a5 + 0x20] = a0\n 20909: a0 = 0x2b40\n 20913: jump @627\n      : @615 (gas: 3)\n 20916: a0 = u64 [s1 + 0xd0]\n 20920: a1 = u64 [s1 + 0xc8]\n 20924: t0 = 652, jump @1215\n      : @616 [@dyn 326] (gas: 4)\n 20930: a3 = u64 [s1 + 0xd8]\n 20934: a1 = 0 if a3 != 0\n 20936: a1 = 0 if a0 != 0\n 20938: jump @618 if a1 != 0\n      : @617 (gas: 1)\n 20941: jump @929\n      : @618 (gas: 3)\n 20944: i32 a1 = a2 + 0x20\n 20947: a0 = s1 + 0x1920\n 20951: ra = 654, jump @17\n      : @619 [@dyn 327] (gas: 14)\n 20957: a2 = s1 + 0x100\n 20961: a4 = u64 [a2 + 0x20]\n 20964: a3 = u64 [a2 + 0x48]\n 20967: a0 = s1 + 0x1938\n 20971: a1 = u64 [a0]\n 20973: u64 [a2 + 0xb0] = a1\n 20977: a5 = a0 + 0xffffffffffffff00\n 20981: a1 = u64 [a5 + 0xf8]\n 20985: u64 [a2 + 0xa8] = a1\n 20989: a1 = u64 [a5 + 0xf0]\n 20993: u64 [a2 + 0x98] = a1\n 20997: a0 = u64 [a5 + 0xe8]\n 21001: u64 [a2 + 0xa0] = a0\n 21005: fallthrough\n      : @620 (gas: 18)\n 21006: a0 = a4 >> 0x3f\n 21009: a2 = u64 [s1 + 0x138]\n 21013: a1 = a2 << 0x1\n 21016: a0 = a0 | a1\n 21019: u64 [s1 + 0x190] = a0\n 21023: a0 = a2 >> 0x3f\n 21026: a1 = u64 [s1 + 0x100]\n 21030: a1 = a1 << 0x1\n 21033: a0 = a0 | a1\n 21036: u64 [s1 + 0x188] = a0\n 21040: a0 = a3 >> 0x3f\n 21043: a1 = a4 << 0x1\n 21046: a0 = a0 | a1\n 21049: u64 [s1 + 0x180] = a0\n 21053: a0 = a3 << 0x1\n 21056: u64 [s1 + 0x178] = a0\n 21060: a1 = a3 << 0x3\n 21063: t0 = 656, jump @1168\n      : @621 [@dyn 328] (gas: 1)\n 21069: ra = 658, jump @1221\n      : @622 [@dyn 329] (gas: 7)\n 21075: u64 [s1 + 0x158] = a0\n 21079: u64 [s1 + 0x170] = a1\n 21083: a0 = u64 [s1 + 0x148]\n 21087: i32 a2 = a0 << 0x3\n 21090: a0 = 0xffffffffffffffff\n 21093: a1 = 0xffffffffffffffff\n 21096: ra = 660, jump @1216\n      : @623 [@dyn 330] (gas: 10)\n 21102: u64 [s1 + 0x168] = a0\n 21106: u64 [s1 + 0x160] = a1\n 21110: a1 = u64 [s1 + 0x158]\n 21114: a0 = a0 | a1\n 21117: u64 [s1 + 0x158] = a0\n 21121: a0 = u64 [s1 + 0x1b8]\n 21125: i32 a2 = a0 + 0xffffffffffffff80\n 21128: a0 = 0xffffffffffffffff\n 21131: a1 = 0xffffffffffffffff\n 21134: ra = 662, jump @1216\n      : @624 [@dyn 331] (gas: 7)\n 21140: a4 = u64 [s1 + 0x1b8]\n 21144: a2 = a4 <u 0x80\n 21148: a3 = u64 [s1 + 0x158]\n 21152: a0 = a3 if a2 != 0\n 21155: a5 = u64 [s1 + 0x160]\n 21159: a3 = u64 [s1 + 0x170]\n 21163: t0 = 664, jump @1213\n      : @625 [@dyn 332] (gas: 14)\n 21169: a4 = u64 [s1 + 0x168]\n 21173: a4 = 0 if a2 == 0\n 21175: a1 = u64 [s1 + 0x198]\n 21179: a1 = a1 & ~a3\n 21182: a2 = u64 [s1 + 0x1a0]\n 21186: a0 = a2 & ~a0\n 21189: a2 = u64 [s1 + 0x1a8]\n 21193: a2 = a2 & ~a4\n 21196: a3 = u64 [s1 + 0x1b0]\n 21200: a3 = a3 & ~a5\n 21203: a5 = s1 + 0x100\n 21207: a4 = u64 [a5 + 0x78]\n 21210: a0 = a0 | a4\n 21213: t0 = 666, jump @1177\n      : @626 [@dyn 333] (gas: 7)\n 21219: a5 = a4 + 0x200\n 21223: u64 [a5 + 0x38] = a2\n 21226: u64 [a5 + 0x40] = a3\n 21229: u64 [a5 + 0x30] = a1\n 21232: u64 [a5 + 0x28] = a0\n 21235: a0 = 0x2b60\n 21239: fallthrough\n      : @627 (gas: 3)\n 21240: a1 = s1 + a0\n 21243: a0 = u64 [s1 + 0x140]\n 21247: ra = 668, jump @23\n      : @628 [@dyn 334] (gas: 3)\n 21253: a0 = s1 + 0x18c0\n 21257: a1 = 0x40\n 21260: ra = 670, jump @17\n      : @629 [@dyn 335] (gas: 16)\n 21266: a2 = s1 + 0x1138\n 21270: a5 = a2 + 0x700\n 21274: a3 = u64 [a5 + 0xa0]\n 21278: a4 = u64 [a5 + 0x98]\n 21282: a0 = u64 [a5 + 0x90]\n 21286: a1 = u64 [a5 + 0x88]\n 21290: u64 [s1 + 0x1b0] = a0\n 21294: a0 = a0 | a3\n 21297: u64 [s1 + 0x1b8] = a1\n 21301: a1 = a1 | a4\n 21304: a1 = a1 | a0\n 21307: a1 = a1 >> 0x20\n 21310: a0 = a0 | a4\n 21313: a0 = a0 << 0x20\n 21316: a0 = a0 | a1\n 21319: jump @631 if a0 == 0\n      : @630 (gas: 1)\n 21322: jump @929\n      : @631 (gas: 9)\n 21325: u64 [a2 + 1920] = 0\n 21329: u64 [a2 + 1912] = 0\n 21333: u64 [a2 + 1904] = 0\n 21337: a1 = s1 + 0x18a0\n 21341: u64 [a2 + 1896] = 0x20\n 21346: a0 = u64 [s1 + 0x1b8]\n 21350: u64 [s1 + 0x1a8] = a3\n 21354: u64 [s1 + 0x1a0] = a4\n 21358: ra = 672, jump @19\n      : @632 [@dyn 336] (gas: 3)\n 21364: a0 = s1 + 0x1880\n 21368: a1 = u64 [s1 + 0x90]\n 21372: ra = 674, jump @21\n      : @633 [@dyn 337] (gas: 5)\n 21378: a4 = s1 + 0x100\n 21382: a0 = u64 [a4 + 0xa8]\n 21386: a1 = u64 [a4 + 0xa0]\n 21390: a2 = a1 | a0\n 21393: t0 = 676, jump @1208\n      : @634 [@dyn 338] (gas: 3)\n 21399: u64 [a4 + 0x98] = a2\n 21403: a0 = 0 if a2 != 0\n 21405: jump @636 if a0 != 0\n      : @635 (gas: 1)\n 21408: jump @929\n      : @636 (gas: 17)\n 21411: a5 = s1 + 0x1138\n 21415: a1 = u64 [a5 + 0x758]\n 21419: a2 = u64 [a5 + 0x750]\n 21423: u64 [s1 + 0x190] = a3\n 21427: a3 = u64 [a5 + 0x748]\n 21431: a4 = 0xffffffff\n 21441: a4 = a4 & a1\n 21444: a2 = a2 & 0xffffffffffffffff\n 21447: a3 = a3 & 0xffffffffffffffff\n 21450: a0 = u64 [s1 + 0x1b8]\n 21454: i32 a0 = a0 + 0x20\n 21457: u64 [a5 + 1856] = 0\n 21461: u64 [a5 + 0x728] = a3\n 21465: u64 [a5 + 0x730] = a2\n 21469: a1 = s1 + 0x1860\n 21473: u64 [a5 + 0x738] = a4\n 21477: ra = 678, jump @19\n      : @637 [@dyn 339] (gas: 4)\n 21483: a2 = s1 + 0x100\n 21487: a0 = u64 [a2 + 0x90]\n 21491: a0 = a0 + 0xffffffffffffffc0\n 21494: t0 = 680, jump @1173\n      : @638 [@dyn 340] (gas: 1)\n 21500: jump @640 if a0 != 0\n      : @639 (gas: 1)\n 21503: jump @929\n      : @640 (gas: 4)\n 21506: a0 = u64 [s1 + 0x1b8]\n 21510: i32 a0 = a0 + 0x40\n 21513: a1 = 0x1138\n 21517: t0 = 682, jump @1207\n      : @641 [@dyn 341] (gas: 4)\n 21523: i32 a1 = a1 + 0xfffffffffffff840\n 21527: a1 = a1 + s1\n 21530: u64 [a2 + 1808] = 0\n 21534: ra = 684, jump @19\n      : @642 [@dyn 342] (gas: 3)\n 21540: a1 = u64 [s1 + 0x1b8]\n 21544: a0 = a1 + 0xe0\n 21548: t0 = 686, jump @1194\n      : @643 [@dyn 343] (gas: 21)\n 21554: a4 = u64 [s1 + 0x1a8]\n 21558: a4 = a4 + a1\n 21561: a1 = s1 + 0x1138\n 21565: a5 = a1 + 0x600\n 21569: u64 [a5 + 0xb0] = a2\n 21573: u64 [a5 + 0xa8] = a0\n 21577: a0 = u64 [s1 + 0x40]\n 21580: u64 [a5 + 0xe0] = a0\n 21584: a0 = u64 [s1 + 0x48]\n 21587: u64 [a5 + 0xd8] = a0\n 21591: a0 = u64 [s1 + 0x50]\n 21594: u64 [a5 + 0xd0] = a0\n 21598: a0 = u64 [s1 + 0x58]\n 21601: u64 [a5 + 0xc8] = a0\n 21605: u64 [a5 + 0xb8] = a3\n 21609: a3 = a1\n 21611: a0 = s1 + 0x1820\n 21615: a1 = s1 + 0x1800\n 21619: a2 = s1 + 0x17e0\n 21623: u64 [a3 + 0x6c0] = a4\n 21627: ra = 688, jump @1129\n      : @644 [@dyn 344] (gas: 13)\n 21633: a1 = s1 + 0x1138\n 21637: a0 = u64 [a1 + 0x700]\n 21641: u64 [s1 + 0x170] = a0\n 21645: a2 = a1 + 0x600\n 21649: a0 = u64 [a2 + 0xf8]\n 21653: u64 [s1 + 0x178] = a0\n 21657: a0 = u64 [a2 + 0xf0]\n 21661: u64 [s1 + 0x180] = a0\n 21665: a0 = u64 [a2 + 0xe8]\n 21669: u64 [s1 + 0x188] = a0\n 21673: a0 = s1 + 0x17c0\n 21677: a1 = u64 [s1 + 0x130]\n 21681: ra = 690, jump @21\n      : @645 [@dyn 345] (gas: 5)\n 21687: a0 = 0x100000000\n 21697: a2 = s1 + 0x100\n 21701: u64 [a2 + 0x90] = a0\n 21705: a0 = 0xffffffa0\n 21715: t0 = 692, jump @1173\n      : @646 [@dyn 346] (gas: 1)\n 21721: jump @648 if a0 != 0\n      : @647 (gas: 1)\n 21724: jump @929\n      : @648 (gas: 14)\n 21727: a5 = s1 + 0x1138\n 21731: t0 = u64 [a5 + 0x6a0]\n 21735: a2 = a5 + 0x600\n 21739: a1 = u64 [a2 + 0x98]\n 21743: a3 = u64 [a2 + 0x90]\n 21747: a4 = u64 [a2 + 0x88]\n 21751: a0 = u64 [s1 + 0x1b8]\n 21755: i32 a0 = a0 + 0x60\n 21758: u64 [a2 + 0x68] = a4\n 21761: u64 [a2 + 0x70] = a3\n 21764: u64 [a2 + 0x78] = a1\n 21767: a1 = s1 + 0x17a0\n 21771: u64 [a5 + 0x680] = t0\n 21775: ra = 694, jump @19\n      : @649 [@dyn 347] (gas: 4)\n 21781: a2 = s1 + 0x100\n 21785: a0 = u64 [a2 + 0x90]\n 21789: a0 = a0 + 0xffffffffffffff80\n 21792: t0 = 696, jump @1173\n      : @650 [@dyn 348] (gas: 1)\n 21798: jump @652 if a0 != 0\n      : @651 (gas: 1)\n 21801: jump @929\n      : @652 (gas: 46)\n 21804: a0 = u64 [s1 + 0x1b8]\n 21808: a1 = u64 [s1 + 0x188]\n 21812: a2 = a1 <u a0\n 21815: t2 = a0\n 21817: a3 = u64 [s1 + 0x1b0]\n 21821: a4 = u64 [s1 + 0x180]\n 21825: t0 = a4 ^ a3\n 21828: a0 = a4 <u a3\n 21831: a0 = a2 if t0 == 0\n 21834: t1 = u64 [s1 + 0x1a0]\n 21838: a5 = u64 [s1 + 0x178]\n 21842: t0 = a5 - t1\n 21845: ra = a5\n 21847: a3 = a4 - a3\n 21850: a3 = a3 - a2\n 21853: a4 = a1 - t2\n 21856: a2 = a4 + 0xffffffffffffffe0\n 21859: a4 = a2 <u a4\n 21862: a5 = a3 + a4\n 21865: a5 = a5 + 0xffffffffffffffff\n 21868: a1 = a5 ^ a3\n 21871: a3 = a5 <u a3\n 21874: a3 = a4 if a1 == 0\n 21877: t1 = ra <u t1\n 21880: a4 = u64 [s1 + 0x1a8]\n 21884: a1 = u64 [s1 + 0x170]\n 21888: a4 = a1 - a4\n 21891: a4 = a4 - t1\n 21894: a1 = t0 <u a0\n 21897: a4 = a4 - a1\n 21900: a0 = t0 - a0\n 21903: a1 = a0 <u 0x1\n 21906: a4 = a4 - a1\n 21909: a0 = a0 + 0xffffffffffffffff\n 21912: a3 = a3 + a0\n 21915: a0 = a3 <u a0\n 21918: t0 = a4 + a0\n 21921: i32 a0 = t2 + 0x80\n 21925: a4 = s1 + 0x1138\n 21929: a1 = a4 + 0x600\n 21933: u64 [a1 + 0x48] = a2\n 21936: u64 [a1 + 0x50] = a5\n 21939: u64 [a1 + 0x58] = a3\n 21942: a1 = s1 + 0x1780\n 21946: u64 [a4 + 0x660] = t0\n 21950: ra = 698, jump @19\n      : @653 [@dyn 349] (gas: 24)\n 21956: a1 = s1 + 0x1138\n 21960: a0 = u64 [s1 + 0x170]\n 21964: a2 = a1 + 0x600\n 21968: u64 [a2] = a0\n 21970: a0 = u64 [s1 + 0x178]\n 21974: a3 = a1 + 0x500\n 21978: u64 [a3 + 0xf8] = a0\n 21982: a0 = u64 [s1 + 0x180]\n 21986: u64 [a3 + 0xf0] = a0\n 21990: a0 = u64 [s1 + 0x188]\n 21994: u64 [a3 + 0xe8] = a0\n 21998: a0 = u64 [s1 + 0x88]\n 22002: u64 [a2 + 0x20] = a0\n 22005: a0 = u64 [s1 + 0x98]\n 22009: u64 [a2 + 0x18] = a0\n 22012: a0 = u64 [s1 + 0xb8]\n 22016: u64 [a2 + 0x10] = a0\n 22019: a4 = a1\n 22021: a0 = s1 + 0x1760\n 22025: a1 = s1 + 0x1740\n 22029: a2 = s1 + 0x1720\n 22033: a3 = u64 [s1 + 0x128]\n 22037: u64 [a4 + 0x608] = a3\n 22041: ra = 700, jump @1129\n      : @654 [@dyn 350] (gas: 5)\n 22047: a0 = 0x100000000\n 22057: a2 = s1 + 0x100\n 22061: u64 [a2 + 0x90] = a0\n 22065: a0 = 0xffffff60\n 22075: t0 = 702, jump @1173\n      : @655 [@dyn 351] (gas: 1)\n 22081: jump @657 if a0 != 0\n      : @656 (gas: 1)\n 22084: jump @929\n      : @657 (gas: 53)\n 22087: a0 = s1 + 0x1138\n 22091: a3 = a0 + 0x600\n 22095: a2 = u64 [a3 + 0x28]\n 22098: a5 = u64 [a3 + 0x30]\n 22101: a1 = u64 [a3 + 0x40]\n 22104: u64 [s1 + 0x188] = a1\n 22108: ra = u64 [a0 + 0x638]\n 22112: u64 [s1 + 0x170] = ra\n 22116: a0 = u64 [s1 + 0x1b8]\n 22120: a1 = a2 <u a0\n 22123: a4 = a2\n 22125: u64 [s1 + 0x178] = a2\n 22129: t0 = a0\n 22131: a3 = u64 [s1 + 0x1b0]\n 22135: a2 = a5 ^ a3\n 22138: a0 = a5 <u a3\n 22141: u64 [s1 + 0x180] = a5\n 22145: a0 = a1 if a2 == 0\n 22148: a2 = a5 - a3\n 22151: a3 = a2 - a1\n 22154: a2 = a4 - t0\n 22157: t2 = t0\n 22159: t0 = a2 + 0xffffffffffffffe0\n 22162: a4 = t0 <u a2\n 22165: a2 = a3 + a4\n 22168: a2 = a2 + 0xffffffffffffffff\n 22171: a5 = a2 ^ a3\n 22174: a3 = a2 <u a3\n 22177: a3 = a4 if a5 == 0\n 22180: a4 = u64 [s1 + 0x1a0]\n 22184: t1 = ra <u a4\n 22187: a1 = u64 [s1 + 0x1a8]\n 22191: a5 = u64 [s1 + 0x188]\n 22195: a5 = a5 - a1\n 22198: a5 = a5 - t1\n 22201: a4 = ra - a4\n 22204: a1 = a4 <u a0\n 22207: a5 = a5 - a1\n 22210: a4 = a4 - a0\n 22213: a0 = a4 <u 0x1\n 22216: a5 = a5 - a0\n 22219: a4 = a4 + 0xffffffffffffffff\n 22222: a3 = a3 + a4\n 22225: a0 = a3 <u a4\n 22228: a5 = a5 + a0\n 22231: i32 a0 = t2 + 0xa0\n 22235: a4 = s1 + 0x1138\n 22239: u64 [a4 + 0x5c8] = t0\n 22243: u64 [a4 + 0x5d0] = a2\n 22247: u64 [a4 + 0x5d8] = a3\n 22251: a1 = s1 + 0x1700\n 22255: u64 [a4 + 0x5e0] = a5\n 22259: ra = 704, jump @19\n      : @658 [@dyn 352] (gas: 23)\n 22265: a1 = s1 + 0x1138\n 22269: a0 = u64 [s1 + 0x188]\n 22273: a2 = a1 + 0x500\n 22277: u64 [a2 + 0x80] = a0\n 22281: a0 = u64 [s1 + 0x170]\n 22285: u64 [a2 + 0x78] = a0\n 22288: a0 = u64 [s1 + 0x180]\n 22292: u64 [a2 + 0x70] = a0\n 22295: a0 = u64 [s1 + 0x178]\n 22299: u64 [a2 + 0x68] = a0\n 22302: a0 = u64 [s1 + 0x70]\n 22305: u64 [a2 + 0xa0] = a0\n 22309: a0 = u64 [s1 + 0x108]\n 22313: u64 [a2 + 0x98] = a0\n 22317: a0 = u64 [s1 + 0x110]\n 22321: u64 [a2 + 0x90] = a0\n 22325: a4 = a1\n 22327: a0 = s1 + 0x16e0\n 22331: a1 = s1 + 0x16c0\n 22335: a2 = s1 + 0x16a0\n 22339: a3 = u64 [s1 + 0x118]\n 22343: u64 [a4 + 0x588] = a3\n 22347: ra = 706, jump @1129\n      : @659 [@dyn 353] (gas: 4)\n 22353: a2 = s1 + 0x100\n 22357: a0 = u64 [a2 + 0x90]\n 22361: a0 = a0 + 0xffffffffffffff40\n 22365: t0 = 708, jump @1173\n      : @660 [@dyn 354] (gas: 1)\n 22371: jump @662 if a0 != 0\n      : @661 (gas: 1)\n 22374: jump @929\n      : @662 (gas: 53)\n 22377: a0 = s1 + 0x1138\n 22381: a3 = a0 + 0x500\n 22385: a2 = u64 [a3 + 0xa8]\n 22389: a5 = u64 [a3 + 0xb0]\n 22393: a1 = u64 [a3 + 0xc0]\n 22397: u64 [s1 + 0x198] = a1\n 22401: ra = u64 [a0 + 0x5b8]\n 22405: u64 [s1 + 0x180] = ra\n 22409: a0 = u64 [s1 + 0x1b8]\n 22413: a1 = a2 <u a0\n 22416: a4 = a2\n 22418: u64 [s1 + 0x188] = a2\n 22422: t0 = a0\n 22424: a3 = u64 [s1 + 0x1b0]\n 22428: a2 = a5 ^ a3\n 22431: a0 = a5 <u a3\n 22434: u64 [s1 + 0x190] = a5\n 22438: a0 = a1 if a2 == 0\n 22441: a2 = a5 - a3\n 22444: a3 = a2 - a1\n 22447: a2 = a4 - t0\n 22450: t1 = t0\n 22452: t0 = a2 + 0xffffffffffffffe0\n 22455: a4 = t0 <u a2\n 22458: a2 = a3 + a4\n 22461: t2 = a2 + 0xffffffffffffffff\n 22464: a5 = t2 ^ a3\n 22467: a3 = t2 <u a3\n 22470: a3 = a4 if a5 == 0\n 22473: a2 = u64 [s1 + 0x1a0]\n 22477: a4 = ra <u a2\n 22480: a1 = u64 [s1 + 0x1a8]\n 22484: a5 = u64 [s1 + 0x198]\n 22488: a5 = a5 - a1\n 22491: a5 = a5 - a4\n 22494: a4 = ra - a2\n 22497: a1 = a4 <u a0\n 22500: a5 = a5 - a1\n 22503: a4 = a4 - a0\n 22506: a0 = a4 <u 0x1\n 22509: a5 = a5 - a0\n 22512: a4 = a4 + 0xffffffffffffffff\n 22515: a3 = a3 + a4\n 22518: a0 = a3 <u a4\n 22521: a5 = a5 + a0\n 22524: i32 a0 = t1 + 0xc0\n 22528: a2 = s1 + 0x1138\n 22532: u64 [a2 + 0x548] = t0\n 22536: u64 [a2 + 0x550] = t2\n 22540: u64 [a2 + 0x558] = a3\n 22544: a1 = s1 + 0x1680\n 22548: u64 [a2 + 0x560] = a5\n 22552: ra = 710, jump @19\n      : @663 [@dyn 355] (gas: 33)\n 22558: a0 = u64 [s1 + 0xa0]\n 22562: ecalli 3 // 'caller'\n 22564: a0 = u64 [s1 + 0xc0]\n 22568: a1 = u32 [a0 + 0x10]\n 22571: u64 [s1 + 0x170] = a1\n 22575: a1 = u64 [a0 + 0x8]\n 22578: u64 [s1 + 0x168] = a1\n 22582: a0 = u64 [a0]\n 22584: u64 [s1 + 0x178] = a0\n 22588: a1 = s1 + 0x1138\n 22592: a0 = u64 [s1 + 0x198]\n 22596: a2 = a1 + 0x500\n 22600: u64 [a2] = a0\n 22602: a0 = u64 [s1 + 0x180]\n 22606: a3 = a1 + 0x400\n 22610: u64 [a3 + 0xf8] = a0\n 22614: a0 = u64 [s1 + 0x190]\n 22618: u64 [a3 + 0xf0] = a0\n 22622: a0 = u64 [s1 + 0x188]\n 22626: u64 [a3 + 0xe8] = a0\n 22630: a0 = u64 [s1 + 0x80]\n 22634: u64 [a2 + 0x20] = a0\n 22637: a0 = u64 [s1 + 0xe8]\n 22641: u64 [a2 + 0x18] = a0\n 22644: a0 = u64 [s1 + 0xf0]\n 22648: u64 [a2 + 0x10] = a0\n 22651: a4 = a1\n 22653: a0 = s1 + 0x1660\n 22657: a1 = s1 + 0x1640\n 22661: a2 = s1 + 0x1620\n 22665: a3 = u64 [s1 + 0xf8]\n 22669: u64 [a4 + 0x508] = a3\n 22673: ra = 712, jump @1129\n      : @664 [@dyn 356] (gas: 2)\n 22679: a1 = s1 + 0x1138\n 22683: fallthrough\n      : @665 (gas: 31)\n 22684: a0 = u64 [a1 + 0x530]\n 22688: t0 = u64 [a1 + 0x540]\n 22692: t1 = u64 [a1 + 0x528]\n 22696: a3 = u64 [a1 + 0x538]\n 22700: a1 = u64 [s1 + 0x1b0]\n 22704: a4 = a0 ^ a1\n 22707: a5 = a0 <u a1\n 22710: ra = a1\n 22712: t2 = u64 [s1 + 0x1b8]\n 22716: a1 = t1 <u t2\n 22719: a5 = a1 if a4 == 0\n 22722: a2 = u64 [s1 + 0x1a0]\n 22726: a4 = a3 - a2\n 22729: a3 = a3 <u a2\n 22732: a2 = u64 [s1 + 0x1a8]\n 22736: a2 = t0 - a2\n 22739: a2 = a2 - a3\n 22742: a3 = a4 <u a5\n 22745: a2 = a2 - a3\n 22748: a4 = a4 - a5\n 22751: a0 = a0 - ra\n 22754: a0 = a0 - a1\n 22757: a1 = t1 - t2\n 22760: a0 = a0 | a2\n 22763: a2 = a1 | a4\n 22766: a2 = a2 | a0\n 22769: a0 = a0 | a4\n 22772: a2 = a2 >> 0x20\n 22775: a0 = a0 << 0x20\n 22778: a0 = a0 | a2\n 22781: jump @667 if a0 == 0\n      : @666 (gas: 1)\n 22784: jump @929\n      : @667 (gas: 31)\n 22787: a0 = u64 [s1 + 0x168]\n 22791: a2 = reverse a0\n 22793: a0 = a2 << 0x20\n 22796: a3 = u64 [s1 + 0x170]\n 22800: a3 = reverse a3\n 22802: a3 = a3 >> 0x20\n 22805: t0 = a3 | a0\n 22808: a0 = u64 [s1 + 0x178]\n 22812: a3 = reverse a0\n 22814: a4 = a3 << 0x20\n 22817: a2 = a2 >> 0x20\n 22820: a2 = a2 | a4\n 22823: a3 = a3 >> 0x20\n 22826: a4 = u64 [0x20000]\n 22831: t1 = s1 + 0x1138\n 22835: u64 [t1 + 0x4e0] = a4\n 22839: a4 = u64 [0x20008]\n 22844: a5 = u64 [0x20010]\n 22849: a0 = u64 [0x20018]\n 22854: u64 [t1 + 0x4d8] = a4\n 22858: a4 = t1 + 0x400\n 22862: u64 [a4 + 0xd0] = a5\n 22866: u64 [t1 + 1216] = 0\n 22870: u64 [a4 + 0xc8] = a0\n 22874: u64 [a4 + 0xb8] = a3\n 22878: u64 [a4 + 0xb0] = a2\n 22882: a2 = s1 + 0x1600\n 22886: a3 = s1 + 0x15e0\n 22890: u64 [t1 + 0x4a8] = t0\n 22894: a0 = u64 [s1 + 0x1b8]\n 22898: ra = 714, jump @24\n      : @668 [@dyn 357] (gas: 6)\n 22904: a0 = 0\n 22906: a1 = u64 [s1 + 0xb0]\n 22910: a2 = 0\n 22912: ecalli 7 // 'seal_return'\n 22914: a1 = 0x20070\n 22919: jump @931\n      : @669 (gas: 7)\n 22922: a4 = u64 [s1 + 0xb0]\n 22926: a5 = u64 [s1 + 0x130]\n 22930: a4 = a4 ^ a5\n 22933: a5 = u64 [s1 + 0x90]\n 22937: a4 = a4 | a5\n 22940: a4 = a4 | a0\n 22943: jump @682 if a4 == 0\n      : @670 (gas: 13)\n 22947: a0 = u64 [s1 + 0x1b8]\n 22951: a4 = a1 <u a0\n 22954: a3 = a3 + a4\n 22957: a0 = t0\n 22959: t0 = a3 ^ t0\n 22962: a5 = a3 <u a0\n 22965: a5 = a4 if t0 == 0\n 22968: a5 = a5 + a2\n 22971: a4 = a5 <u a2\n 22974: a0 = u64 [s1 + 0x1b0]\n 22978: a2 = a2 <u a0\n 22981: a0 = t1 + a2\n 22984: t0 = 716, jump @1161\n      : @671 [@dyn 358] (gas: 1)\n 22990: jump @673 if a0 == 0\n      : @672 (gas: 1)\n 22993: jump @929\n      : @673 (gas: 3)\n 22996: a0 = s1 + 0x7ff\n 23000: a0 = a0 + 0x181\n 23004: ra = 718, jump @17\n      : @674 [@dyn 359] (gas: 12)\n 23010: a0 = s1 + 0x7ff\n 23014: a0 = a0 + 0x139\n 23018: a1 = u64 [a0 + 0x60]\n 23021: u64 [s1 + 0x1b0] = a1\n 23025: a1 = u64 [a0 + 0x58]\n 23028: u64 [s1 + 0x1a8] = a1\n 23032: a1 = u64 [a0 + 0x50]\n 23035: u64 [s1 + 0x1a0] = a1\n 23039: a0 = u64 [a0 + 0x48]\n 23042: u64 [s1 + 0x190] = a0\n 23046: a0 = u64 [s1 + 0xb0]\n 23050: t0 = 720, jump @1158\n      : @675 [@dyn 360] (gas: 1)\n 23056: ra = 722, jump @1221\n      : @676 [@dyn 361] (gas: 1)\n 23062: t0 = 724, jump @1165\n      : @677 [@dyn 362] (gas: 1)\n 23068: ra = 726, jump @1216\n      : @678 [@dyn 363] (gas: 1)\n 23074: t0 = 728, jump @1154\n      : @679 [@dyn 364] (gas: 1)\n 23080: ra = 730, jump @1216\n      : @680 [@dyn 365] (gas: 15)\n 23086: a4 = u64 [s1 + 0x1b8]\n 23090: a2 = a4 <u 0x80\n 23094: a3 = u64 [s1 + 0x170]\n 23098: a1 = a3 if a2 != 0\n 23101: a5 = u64 [s1 + 0x178]\n 23105: a3 = u64 [s1 + 0x188]\n 23109: a3 = a3 | a5\n 23112: a3 = a0 if a2 == 0\n 23115: a1 = 0xffffffffffffffff if a4 == 0\n 23118: a3 = 0xffffffffffffffff if a4 == 0\n 23121: a4 = u64 [s1 + 0x180]\n 23125: a4 = 0 if a2 == 0\n 23127: a5 = 0 if a2 == 0\n 23129: a0 = u64 [s1 + 0x190]\n 23133: t0 = 732, jump @1187\n      : @681 [@dyn 366] (gas: 8)\n 23139: a5 = a4 + 0x400\n 23143: u64 [a5 + 0x40] = a3\n 23146: u64 [a5 + 0x38] = a2\n 23149: u64 [a5 + 0x30] = a1\n 23152: u64 [a5 + 0x28] = a0\n 23155: a1 = s1 + 0x2560\n 23159: a0 = u64 [s1 + 0x198]\n 23163: ra = 734, jump @23\n      : @682 [@dyn 367] (gas: 19)\n 23169: a0 = u64 [s1 + 0x88]\n 23173: a1 = u64 [s1 + 0x80]\n 23177: a0 = a0 | a1\n 23180: a1 = u64 [s1 + 0x68]\n 23183: a2 = u64 [s1 + 0x60]\n 23186: a1 = a1 | a2\n 23189: a2 = u64 [s1 + 0x70]\n 23192: a3 = u64 [s1 + 0x50]\n 23195: a2 = a2 | a3\n 23198: a3 = u64 [s1 + 0x58]\n 23201: a3 = a3 + 0x1\n 23204: a4 = s1 + 0x2138\n 23208: a5 = a4 + 0x400\n 23212: u64 [a5 + 0x48] = a3\n 23215: u64 [a5 + 0x50] = a2\n 23218: u64 [a5 + 0x58] = a1\n 23221: u64 [a5 + 0x60] = a0\n 23224: a0 = 0x2580\n 23228: jump @694\n      : @683 (gas: 5)\n 23231: u64 [s1 + 0x50] = a4\n 23234: a4 = s1 + 0x100\n 23238: a0 = u64 [a4 + 0x48]\n 23241: a1 = u64 [a4 + 0x40]\n 23244: t0 = 736, jump @1215\n      : @684 [@dyn 368] (gas: 4)\n 23250: a3 = u64 [a4 + 0x50]\n 23253: a1 = 0 if a3 != 0\n 23255: a1 = 0 if a0 != 0\n 23257: jump @686 if a1 != 0\n      : @685 (gas: 1)\n 23260: jump @929\n      : @686 (gas: 4)\n 23263: i32 a1 = a2 + 0x20\n 23266: a0 = s1 + 0x7ff\n 23270: a0 = a0 + 0x1c1\n 23274: ra = 738, jump @17\n      : @687 [@dyn 369] (gas: 18)\n 23280: a0 = s1 + 0x7ff\n 23284: a0 = a0 + 0x139\n 23288: a1 = u64 [a0 + 0xa0]\n 23292: a2 = s1 + 0x100\n 23296: u64 [a2 + 0xb0] = a1\n 23300: a1 = u64 [a0 + 0x98]\n 23304: u64 [a2 + 0xa8] = a1\n 23308: a1 = u64 [a0 + 0x90]\n 23312: u64 [a2 + 0x98] = a1\n 23316: a0 = u64 [a0 + 0x88]\n 23320: u64 [a2 + 0xa0] = a0\n 23324: a1 = u64 [s1 + 0xb0]\n 23328: t0 = u64 [s1 + 0x88]\n 23332: a3 = u64 [s1 + 0x80]\n 23336: a2 = u64 [s1 + 0x70]\n 23339: a0 = u64 [s1 + 0x68]\n 23342: a4 = u64 [s1 + 0x50]\n 23345: fallthrough\n      : @688 (gas: 13)\n 23346: a5 = u64 [s1 + 0x60]\n 23349: a0 = a0 | a5\n 23352: u64 [s1 + 0x190] = a0\n 23356: a0 = a3 | t0\n 23359: u64 [s1 + 0x188] = a0\n 23363: a0 = a4 | a2\n 23366: u64 [s1 + 0x180] = a0\n 23370: a2 = a1 << 0x3\n 23373: u64 [s1 + 0x1b8] = a2\n 23377: i32 a2 = 0x80 - a2\n 23381: a0 = 0xffffffffffffffff\n 23384: a1 = 0xffffffffffffffff\n 23387: ra = 740, jump @1221\n      : @689 [@dyn 370] (gas: 7)\n 23393: u64 [s1 + 0x160] = a0\n 23397: u64 [s1 + 0x178] = a1\n 23401: a0 = u64 [s1 + 0xb0]\n 23405: i32 a2 = a0 << 0x3\n 23408: a0 = 0xffffffffffffffff\n 23411: a1 = 0xffffffffffffffff\n 23414: ra = 742, jump @1216\n      : @690 [@dyn 371] (gas: 1)\n 23420: t0 = 744, jump @1156\n      : @691 [@dyn 372] (gas: 1)\n 23426: ra = 746, jump @1216\n      : @692 [@dyn 373] (gas: 1)\n 23432: t0 = 748, jump @1151\n      : @693 [@dyn 374] (gas: 17)\n 23438: a4 = u64 [s1 + 0x58]\n 23441: a0 = a0 | a4\n 23444: a5 = s1 + 0x100\n 23448: a4 = u64 [a5 + 0x80]\n 23452: a1 = a1 | a4\n 23455: a4 = u64 [a5 + 0x88]\n 23459: a3 = a3 | a4\n 23462: a4 = u64 [a5 + 0x90]\n 23466: a2 = a2 | a4\n 23469: a4 = s1 + 0x2138\n 23473: a5 = a4 + 0x400\n 23477: u64 [a5 + 0x78] = a2\n 23480: u64 [a5 + 0x80] = a3\n 23484: u64 [a5 + 0x70] = a1\n 23487: u64 [a5 + 0x68] = a0\n 23490: a0 = 0x25a0\n 23494: fallthrough\n      : @694 (gas: 3)\n 23495: a1 = s1 + a0\n 23498: a0 = u64 [s1 + 0x98]\n 23502: ra = 750, jump @23\n      : @695 [@dyn 375] (gas: 4)\n 23508: a0 = s1 + 0x7ff\n 23512: a0 = a0 + 0x161\n 23516: a1 = u64 [s1 + 0xd0]\n 23520: ra = 752, jump @17\n      : @696 [@dyn 376] (gas: 32)\n 23526: a0 = s1 + 0x7ff\n 23530: a0 = a0 + 0x139\n 23534: t0 = u64 [a0 + 0x28]\n 23537: t1 = u64 [a0 + 0x30]\n 23540: t2 = u64 [a0 + 0x38]\n 23543: a1 = a0\n 23545: a0 = u64 [s1 + 0xb8]\n 23549: a3 = a0 + 0x2\n 23552: a4 = a3 <u a0\n 23555: a0 = u64 [s1 + 0xe0]\n 23559: a2 = a0 + a4\n 23562: a0 = a2 <u a0\n 23565: a0 = a4 if a4 == 0\n 23568: a4 = u64 [a1 + 0x40]\n 23571: a1 = s1 + 0x2138\n 23575: a5 = a1 + 0x400\n 23579: u64 [a5 + 0x90] = a2\n 23583: u64 [a5 + 0x88] = a3\n 23587: a2 = u64 [s1 + 0xf0]\n 23591: a0 = a0 + a2\n 23594: u64 [a5 + 0x98] = a0\n 23598: a0 = a0 <u a2\n 23601: a2 = u64 [s1 + 0xe8]\n 23605: a0 = a0 + a2\n 23608: u64 [a5 + 0xa0] = a0\n 23612: u64 [a5 + 0xc0] = a4\n 23616: u64 [a1 + 0x4b8] = t2\n 23620: u64 [a1 + 0x4b0] = t1\n 23624: u64 [a1 + 0x4a8] = t0\n 23628: a0 = s1 + 0x25c0\n 23632: a1 = s1 + 0x25e0\n 23636: ra = 754, jump @23\n      : @697 [@dyn 377] (gas: 28)\n 23642: a0 = sp + 0xffffffffffffffe0\n 23645: a2 = a0 & 0xffffffffffffffe0\n 23648: sp = a2\n 23650: a0 = u64 [s1 + 0xb8]\n 23654: a3 = a0 + 0x3\n 23657: a0 = a3 <u a0\n 23660: a1 = u64 [s1 + 0xe0]\n 23664: a4 = a1 + a0\n 23667: a1 = a4 <u a1\n 23670: a1 = a0 if a0 == 0\n 23673: a0 = u64 [s1 + 0xf0]\n 23677: a1 = a1 + a0\n 23680: a0 = a1 <u a0\n 23683: a5 = u64 [s1 + 0xe8]\n 23687: a0 = a0 + a5\n 23690: u64 [s1 + 0x160] = a0\n 23694: u64 [a2 + 0x18] = a0\n 23697: u64 [s1 + 0x158] = a1\n 23701: u64 [a2 + 0x10] = a1\n 23704: u64 [s1 + 0x168] = a4\n 23708: u64 [a2 + 0x8] = a4\n 23711: u64 [s1 + 0xb0] = a2\n 23715: u64 [s1 + 0x170] = a3\n 23719: u64 [a2] = a3\n 23721: a0 = s1 + 0x7ff\n 23725: a0 = a0 + 0x141\n 23729: a1 = u64 [s1 + 0xc0]\n 23733: ra = 756, jump @17\n      : @698 [@dyn 378] (gas: 18)\n 23739: a1 = s1 + 0x7ff\n 23743: a1 = a1 + 0x139\n 23747: a3 = u64 [a1 + 0x20]\n 23750: a4 = u64 [a1 + 0x18]\n 23753: a0 = u64 [a1 + 0x10]\n 23756: a1 = u64 [a1 + 0x8]\n 23759: a2 = s1 + 0x100\n 23763: u64 [a2 + 0x50] = a0\n 23766: u64 [a2 + 0x48] = a3\n 23769: a0 = a0 | a3\n 23772: a3 = a1 | a4\n 23775: a3 = a3 | a0\n 23778: a3 = a3 >> 0x20\n 23781: u64 [a2 + 0x40] = a4\n 23784: a0 = a0 | a4\n 23787: a0 = a0 << 0x20\n 23790: a0 = a0 | a3\n 23793: jump @700 if a0 == 0\n      : @699 (gas: 1)\n 23796: jump @929\n      : @700 (gas: 4)\n 23799: a0 = s1 + 0x7ff\n 23803: a0 = a0 + 0x121\n 23807: u64 [s1 + 0x138] = a1\n 23811: ra = 758, jump @17\n      : @701 [@dyn 379] (gas: 7)\n 23817: a0 = s1 + 0x7ff\n 23821: a0 = a0 + 0x139\n 23825: a3 = u64 [a0]\n 23827: a1 = u64 [a0 + 0xfffffffffffffff8]\n 23830: a0 = s1 + 0x1000\n 23834: a2 = u64 [a0 + 0xfffffffffffff928]\n 23838: t0 = 760, jump @1209\n      : @702 [@dyn 380] (gas: 7)\n 23844: u64 [s1 + 0xc0] = a3\n 23848: a1 = a1 | a3\n 23851: u64 [s1 + 0x80] = a0\n 23855: u64 [s1 + 0x88] = a4\n 23859: u64 [s1 + 0x98] = a1\n 23863: a0 = a4 if a1 != 0\n 23866: jump @704 if a0 == 0\n      : @703 (gas: 1)\n 23869: jump @966\n      : @704 (gas: 7)\n 23872: a0 = s1 + 0x1000\n 23876: a0 = u64 [a0 + 0xfffffffffffff920]\n 23880: u64 [s1 + 0x128] = a0\n 23884: a0 = s1 + 0x7ff\n 23888: a0 = a0 + 0x101\n 23892: a1 = u64 [s1 + 0xb0]\n 23896: ra = 762, jump @21\n      : @705 [@dyn 381] (gas: 21)\n 23902: a0 = s1 + 0x1000\n 23906: a2 = u64 [a0 + 0xfffffffffffff900]\n 23910: a0 = s1 + 0x1000\n 23914: a0 = u64 [a0 + 0xfffffffffffff908]\n 23918: a1 = s1 + 0x1000\n 23922: a1 = u64 [a1 + 0xfffffffffffff910]\n 23926: a3 = s1 + 0x1000\n 23930: a3 = u64 [a3 + 0xfffffffffffff918]\n 23934: a4 = s1 + 0x1000\n 23938: u64 [a4 + 0xfffffffffffff8d8] = a3\n 23942: a3 = s1 + 0x1000\n 23946: u64 [a3 + 0xfffffffffffff8d0] = a1\n 23950: a1 = s1 + 0x1000\n 23954: u64 [a1 + 0xfffffffffffff8c8] = a0\n 23958: a0 = s1 + 0x7ff\n 23962: a0 = a0 + 0xe1\n 23966: a1 = s1 + 0x7ff\n 23970: a1 = a1 + 0xc1\n 23974: a3 = s1 + 0x1000\n 23978: u64 [a3 + 0xfffffffffffff8c0] = a2\n 23982: ra = 764, jump @1120\n      : @706 [@dyn 382] (gas: 9)\n 23988: a0 = s1 + 0x1000\n 23992: a3 = u64 [a0 + 0xfffffffffffff8f8]\n 23996: a0 = s1 + 0x1000\n 24000: a4 = u64 [a0 + 0xfffffffffffff8f0]\n 24004: a0 = s1 + 0x1000\n 24008: a5 = u64 [a0 + 0xfffffffffffff8e8]\n 24012: a0 = s1 + 0x1000\n 24016: a2 = u64 [a0 + 0xfffffffffffff8e0]\n 24020: t0 = 766, jump @1157\n      : @707 [@dyn 383] (gas: 2)\n 24026: u64 [s1 + 0x90] = a0\n 24030: jump @719 if a2 == 0\n      : @708 (gas: 16)\n 24034: a0 = u64 [s1 + 0x170]\n 24038: a1 = s1 + 0x1000\n 24042: u64 [a1 + 0xfffffffffffff8a0] = a0\n 24046: a0 = u64 [s1 + 0x168]\n 24050: a1 = s1 + 0x1000\n 24054: u64 [a1 + 0xfffffffffffff8a8] = a0\n 24058: a0 = u64 [s1 + 0x158]\n 24062: a1 = s1 + 0x1000\n 24066: u64 [a1 + 0xfffffffffffff8b0] = a0\n 24070: a1 = s1 + 0x7ff\n 24074: a1 = a1 + 0xa1\n 24078: a0 = u64 [s1 + 0x160]\n 24082: a2 = s1 + 0x1000\n 24086: u64 [a2 + 0xfffffffffffff8b8] = a0\n 24090: a0 = 0\n 24092: ra = 768, jump @19\n      : @709 [@dyn 384] (gas: 3)\n 24098: a0 = u64 [s1 + 0x100]\n 24102: a0 = i32 [a0]\n 24104: jump @711 if a0 >u 31\n      : @710 (gas: 3)\n 24108: a1 = u64 [s1 + 0x100]\n 24112: u32 [a1 + 0] = 0x20\n 24115: fallthrough\n      : @711 (gas: 11)\n 24116: a0 = sp + 0xffffffffffffffe0\n 24119: a0 = a0 & 0xffffffffffffffe0\n 24122: u64 [s1 + 0x188] = a0\n 24126: sp = a0\n 24128: i32 a2 = a0 + 0\n 24130: a1 = 0x20\n 24133: a0 = u64 [s1 + 0xf8]\n 24137: ra = 0x302\n 24141: ecalli 6 // 'hash_keccak_256'\n 24143: t0 = 0x304\n 24147: jump @1192\n      : @712 [@dyn 385] (gas: 1)\n 24150: t0 = 772, jump @1192\n      : @713 [@dyn 386] (gas: 6)\n 24156: u64 [s1 + 0x180] = a3\n 24160: a3 = a3 << 0x3b\n 24163: a4 = a2 >> 0x5\n 24166: a4 = a4 | a3\n 24169: a0 = u64 [s1 + 0x188]\n 24173: t0 = 774, jump @1166\n      : @714 [@dyn 387] (gas: 4)\n 24179: a1 = u64 [s1 + 0x90]\n 24183: a1 = 0 if a5 != 0\n 24185: a3 = u64 [s1 + 0x98]\n 24189: t0 = 776, jump @1186\n      : @715 [@dyn 388] (gas: 82)\n 24195: t0 = t2 + a0\n 24198: a0 = t0 <u t2\n 24201: a5 = a2 + a0\n 24204: a4 = a4 + a5\n 24207: u64 [s1 + 0x1b8] = a4\n 24211: a5 = a4 ^ a2\n 24214: a3 = a4 <u a2\n 24217: a3 = a0 if a5 == 0\n 24220: u64 [s1 + 0x178] = a3\n 24224: a0 = u64 [s1 + 0x198]\n 24228: ra = a0 + 0x1f\n 24231: a4 = ra <u a0\n 24234: a3 = u64 [s1 + 0x1a0]\n 24238: a0 = a3 + a4\n 24241: a5 = a0 <u a3\n 24244: a5 = a4 if a4 == 0\n 24247: t1 = u64 [s1 + 0x1b0]\n 24251: t1 = t1 + a5\n 24254: a4 = t1 << 0x3b\n 24257: a3 = a0 >> 0x5\n 24260: a3 = a3 | a4\n 24263: a0 = a0 << 0x3b\n 24266: a4 = ra >> 0x5\n 24269: a0 = a0 | a4\n 24272: a0 = a0 + t2\n 24275: u64 [s1 + 0x198] = a0\n 24279: a0 = a0 <u t2\n 24282: t2 = t0\n 24284: a4 = a2 + a0\n 24287: a4 = a4 + a3\n 24290: a3 = a4 ^ a2\n 24293: u64 [s1 + 0x190] = a4\n 24297: a2 = a4 <u a2\n 24300: a2 = a0 if a3 == 0\n 24303: a4 = u64 [s1 + 0x180]\n 24307: a0 = u64 [s1 + 0xd0]\n 24311: a0 = a4 <u a0\n 24314: a3 = u64 [s1 + 0xc0]\n 24318: a0 = a0 + a3\n 24321: a3 = a4 >> 0x5\n 24324: a4 = a0 << 0x3b\n 24327: a3 = a3 | a4\n 24330: a4 = u64 [s1 + 0x188]\n 24334: t0 = u64 [a4]\n 24336: a4 = u64 [a4 + 0x8]\n 24339: a0 = a0 >> 0x5\n 24342: a3 = 0 if a1 != 0\n 24344: a0 = 0 if a1 != 0\n 24346: a1 = reverse a4\n 24348: a4 = reverse t0\n 24350: a0 = a0 + a4\n 24353: a3 = a3 + a1\n 24356: a5 = a3 <u a1\n 24359: a0 = a0 + a5\n 24362: ra = u64 [s1 + 0x178]\n 24366: ra = ra + a3\n 24369: a3 = ra <u a3\n 24372: t0 = a0 + a3\n 24375: a0 = u64 [s1 + 0x1b0]\n 24379: a0 = t1 <u a0\n 24382: a3 = u64 [s1 + 0x1a8]\n 24386: a0 = a0 + a3\n 24389: a3 = t1 >> 0x5\n 24392: a5 = a0 << 0x3b\n 24395: a3 = a3 | a5\n 24398: a0 = a0 >> 0x5\n 24401: a0 = a0 + a4\n 24404: a5 = s1 + 0x100\n 24408: a4 = u64 [a5 + 0xb8]\n 24412: a3 = a3 + a1\n 24415: a1 = a3 <u a1\n 24418: a0 = a0 + a1\n 24421: a2 = a2 + a3\n 24424: u64 [a5 + 0x88] = a2\n 24428: a1 = a2 <u a3\n 24431: a0 = a0 + a1\n 24434: u64 [a5 + 0x80] = a0\n 24438: a0 = sp + 0xffffffffffffffe0\n 24441: t1 = a0 & 0xffffffffffffffe0\n 24444: sp = t1\n 24446: u64 [s1 + 0x178] = t1\n 24450: fallthrough\n      : @716 (gas: 24)\n 24451: a0 = u64 [s1 + 0x198]\n 24455: a0 = t2 <u a0\n 24458: a2 = u64 [s1 + 0x190]\n 24462: a1 = a4 ^ a2\n 24465: a2 = a4 <u a2\n 24468: a2 = a0 if a1 == 0\n 24471: a5 = u64 [s1 + 0x188]\n 24475: a0 = ra <u a5\n 24478: a3 = u64 [s1 + 0x180]\n 24482: a1 = t0 ^ a3\n 24485: a3 = t0 <u a3\n 24488: a3 = a0 if a1 == 0\n 24491: a0 = ra ^ a5\n 24494: a0 = a0 | a1\n 24497: a3 = a2 if a0 == 0\n 24500: u64 [s1 + 0x1b0] = t2\n 24504: u64 [t1] = t2\n 24506: u64 [s1 + 0x1b8] = a4\n 24510: u64 [t1 + 0x8] = a4\n 24513: u64 [s1 + 0x1a0] = ra\n 24517: u64 [t1 + 0x10] = ra\n 24520: u64 [s1 + 0x1a8] = t0\n 24524: u64 [t1 + 0x18] = t0\n 24527: jump @719 if a3 == 0\n      : @717 (gas: 8)\n 24530: a0 = s1 + 0x2138\n 24534: u64 [a0 + 1248] = 0\n 24538: u64 [a0 + 1240] = 0\n 24542: u64 [a0 + 1232] = 0\n 24546: u64 [a0 + 1224] = 0\n 24550: a1 = s1 + 0x2600\n 24554: a0 = t1\n 24556: ra = 778, jump @23\n      : @718 [@dyn 389] (gas: 15)\n 24562: t1 = u64 [s1 + 0x178]\n 24566: t2 = u64 [s1 + 0x1b0]\n 24570: t2 = t2 + 0x1\n 24573: a0 = t2 <u 0x1\n 24576: a4 = u64 [s1 + 0x1b8]\n 24580: a4 = a4 + a0\n 24583: a0 = t2 | a4\n 24586: a0 = a0 <u 0x1\n 24589: a1 = u64 [s1 + 0x1a0]\n 24593: a0 = a0 + a1\n 24596: a1 = a0 <u a1\n 24599: t0 = u64 [s1 + 0x1a8]\n 24603: t0 = t0 + a1\n 24606: ra = a0\n 24608: jump @716\n      : @719 (gas: 11)\n 24611: a0 = u64 [s1 + 0x90]\n 24615: a0 = a0 ^ 0x1\n 24618: a3 = u64 [s1 + 0x130]\n 24622: a1 = u64 [s1 + 0x80]\n 24626: a0 = a1 if a3 != 0\n 24629: a1 = u64 [s1 + 0x88]\n 24633: a2 = u64 [s1 + 0x98]\n 24637: a0 = a1 if a2 != 0\n 24640: a4 = u64 [s1 + 0xc0]\n 24644: a5 = a3 | a4\n 24647: t0 = 780, jump @1175\n      : @720 [@dyn 390] (gas: 2)\n 24653: u64 [s1 + 0xc0] = a2\n 24657: jump @738 if a0 == 0\n      : @721 (gas: 19)\n 24661: u64 [s1 + 0x60] = a5\n 24664: a1 = a1 & 0xffffffffffffffe0\n 24667: u64 [s1 + 0x130] = a1\n 24671: a0 = u64 [s1 + 0x170]\n 24675: a1 = s1 + 0x1000\n 24679: u64 [a1 + 0xfffffffffffff860] = a0\n 24683: a0 = u64 [s1 + 0x168]\n 24687: a1 = s1 + 0x1000\n 24691: u64 [a1 + 0xfffffffffffff868] = a0\n 24695: a0 = u64 [s1 + 0x158]\n 24699: a1 = s1 + 0x1000\n 24703: u64 [a1 + 0xfffffffffffff870] = a0\n 24707: a1 = s1 + 0x7ff\n 24711: a1 = a1 + 0x61\n 24714: a0 = u64 [s1 + 0x160]\n 24718: a2 = s1 + 0x1000\n 24722: u64 [a2 + 0xfffffffffffff878] = a0\n 24726: a0 = 0\n 24728: ra = 782, jump @19\n      : @722 [@dyn 391] (gas: 1)\n 24734: t0 = 784, jump @1182\n      : @723 [@dyn 392] (gas: 1)\n 24740: ra = 786, jump @26\n      : @724 [@dyn 393] (gas: 1)\n 24746: t0 = 788, jump @1169\n      : @725 [@dyn 394] (gas: 4)\n 24752: ra = 0x316\n 24756: ecalli 6 // 'hash_keccak_256'\n 24758: t0 = 0x318\n 24762: jump @1184\n      : @726 [@dyn 395] (gas: 1)\n 24765: t0 = 792, jump @1184\n      : @727 [@dyn 396] (gas: 1)\n 24771: t0 = 794, jump @1164\n      : @728 [@dyn 397] (gas: 9)\n 24777: t0 = a0\n 24779: a1 = u64 [s1 + 0x190]\n 24783: u64 [a1 + 0x18] = a0\n 24786: u64 [s1 + 0x170] = ra\n 24790: u64 [a1 + 0x10] = ra\n 24793: u64 [a1 + 0x8] = t2\n 24796: u64 [a1] = t1\n 24798: u64 [s1 + 0x188] = t0\n 24802: t0 = 796, jump @1162\n      : @729 [@dyn 398] (gas: 1)\n 24808: jump @741 if a4 != 0\n      : @730 (gas: 16)\n 24812: a4 = u64 [s1 + 0x1b8]\n 24816: a4 = a1 <u a4\n 24819: ra = ra + a4\n 24822: t0 = ra ^ a3\n 24825: u64 [s1 + 0x158] = a3\n 24829: a5 = ra <u a3\n 24832: a5 = a4 if t0 == 0\n 24835: a5 = a5 + a2\n 24838: t0 = a5 <u a2\n 24841: a3 = u64 [s1 + 0x1b0]\n 24845: a2 = a2 <u a3\n 24848: a0 = a0 + a2\n 24851: a0 = a0 + t0\n 24854: a2 = a1 | a5\n 24857: a0 = ra | a0\n 24860: t0 = 798, jump @1195\n      : @731 [@dyn 399] (gas: 1)\n 24866: jump @733 if a0 == 0\n      : @732 (gas: 1)\n 24869: jump @929\n      : @733 (gas: 2)\n 24872: a0 = s1 + 0x340\n 24876: ra = 800, jump @17\n      : @734 [@dyn 400] (gas: 14)\n 24882: a4 = s1 + 0x300\n 24886: a0 = u64 [a4 + 0x58]\n 24889: a1 = u64 [a4 + 0x50]\n 24892: a2 = u64 [a4 + 0x48]\n 24895: a3 = u64 [a4 + 0x40]\n 24898: a4 = s1 + 0x2138\n 24902: u64 [a4 + 0x500] = a0\n 24906: a0 = a4 + 0x400\n 24910: u64 [a0 + 0xf8] = a1\n 24914: u64 [a0 + 0xf0] = a2\n 24918: u64 [a0 + 0xe8] = a3\n 24922: a1 = s1 + 0x2620\n 24926: a0 = u64 [s1 + 0x190]\n 24930: ra = 802, jump @23\n      : @735 [@dyn 401] (gas: 1)\n 24936: t0 = 804, jump @1152\n      : @736 [@dyn 402] (gas: 4)\n 24942: t0 = u64 [s1 + 0x1a0]\n 24946: t0 = t0 + a5\n 24949: u64 [s1 + 0x1a0] = t0\n 24953: t0 = 806, jump @1202\n      : @737 [@dyn 403] (gas: 11)\n 24959: t0 = a0\n 24961: u64 [a5 + 0x18] = a0\n 24964: u64 [s1 + 0x170] = ra\n 24968: a0 = u64 [s1 + 0x188]\n 24972: u64 [s1 + 0x1b8] = a0\n 24976: a5 = u64 [s1 + 0x168]\n 24980: u64 [s1 + 0x1b0] = a3\n 24984: a3 = a1\n 24986: u64 [s1 + 0x188] = t0\n 24990: t0 = 0x31c\n 24994: jump @1162\n      : @738 (gas: 4)\n 24997: a0 = u64 [s1 + 0xd0]\n 25001: a0 = a0 | a1\n 25004: a0 = a0 | a5\n 25007: jump @755 if a0 != 0\n      : @739 (gas: 1)\n 25011: t0 = 808, jump @1172\n      : @740 [@dyn 404] (gas: 1)\n 25017: jump @760\n      : @741 (gas: 10)\n 25020: t1 = u64 [s1 + 0x1b0]\n 25024: t0 = u64 [s1 + 0x1b8]\n 25028: a4 = u64 [s1 + 0x128]\n 25032: a5 = u64 [s1 + 0x130]\n 25036: a4 = a4 ^ a5\n 25039: a5 = u64 [s1 + 0xd0]\n 25043: a4 = a4 | a5\n 25046: a5 = u64 [s1 + 0x60]\n 25049: a4 = a4 | a5\n 25052: jump @754 if a4 == 0\n      : @742 (gas: 11)\n 25056: t2 = a3\n 25058: a4 = a1 <u t0\n 25061: a3 = ra + a4\n 25064: t0 = a3 ^ t2\n 25067: a5 = a3 <u t2\n 25070: a5 = a4 if t0 == 0\n 25073: a5 = a5 + a2\n 25076: a4 = a5 <u a2\n 25079: a2 = a2 <u t1\n 25082: a0 = a0 + a2\n 25085: t0 = 810, jump @1161\n      : @743 [@dyn 405] (gas: 1)\n 25091: jump @745 if a0 == 0\n      : @744 (gas: 1)\n 25094: jump @929\n      : @745 (gas: 3)\n 25097: a0 = s1 + 0x7ff\n 25101: a0 = a0 + 0x41\n 25104: ra = 812, jump @17\n      : @746 [@dyn 406] (gas: 14)\n 25110: a0 = s1 + 0x1000\n 25114: a0 = u64 [a0 + 0xfffffffffffff858]\n 25118: u64 [s1 + 0x1b0] = a0\n 25122: a0 = s1 + 0x1000\n 25126: a0 = u64 [a0 + 0xfffffffffffff850]\n 25130: u64 [s1 + 0x1a8] = a0\n 25134: a0 = s1 + 0x1000\n 25138: a0 = u64 [a0 + 0xfffffffffffff848]\n 25142: u64 [s1 + 0x1a0] = a0\n 25146: a0 = s1 + 0x1000\n 25150: a0 = u64 [a0 + 0xfffffffffffff840]\n 25154: u64 [s1 + 0x198] = a0\n 25158: a0 = u64 [s1 + 0x128]\n 25162: t0 = 814, jump @1158\n      : @747 [@dyn 407] (gas: 1)\n 25168: ra = 816, jump @1221\n      : @748 [@dyn 408] (gas: 1)\n 25174: t0 = 818, jump @1165\n      : @749 [@dyn 409] (gas: 1)\n 25180: ra = 820, jump @1216\n      : @750 [@dyn 410] (gas: 1)\n 25186: t0 = 822, jump @1154\n      : @751 [@dyn 411] (gas: 1)\n 25192: ra = 824, jump @1216\n      : @752 [@dyn 412] (gas: 1)\n 25198: t0 = 826, jump @1159\n      : @753 [@dyn 413] (gas: 7)\n 25204: u64 [a5 + 0x20] = a3\n 25207: u64 [a5 + 0x18] = a2\n 25210: u64 [a5 + 0x10] = a1\n 25213: u64 [a5 + 0x8] = a0\n 25216: a1 = s1 + 0x2640\n 25220: a0 = u64 [s1 + 0x190]\n 25224: ra = 828, jump @23\n      : @754 [@dyn 414] (gas: 19)\n 25230: a0 = u64 [s1 + 0x98]\n 25234: a1 = u64 [s1 + 0x90]\n 25238: a0 = a0 | a1\n 25241: a1 = u64 [s1 + 0x80]\n 25245: a2 = u64 [s1 + 0x68]\n 25248: a1 = a1 | a2\n 25251: a2 = u64 [s1 + 0x88]\n 25255: a3 = u64 [s1 + 0x70]\n 25258: a2 = a2 | a3\n 25261: a3 = u64 [s1 + 0xc0]\n 25265: a3 = a3 + 0x1\n 25268: a4 = s1 + 0x2138\n 25272: a5 = a4 + 0x500\n 25276: u64 [a5 + 0x28] = a3\n 25279: u64 [a5 + 0x30] = a2\n 25282: u64 [a5 + 0x38] = a1\n 25285: u64 [a5 + 0x40] = a0\n 25288: a0 = 0x2660\n 25292: jump @768\n      : @755 (gas: 1)\n 25295: t0 = 830, jump @1191\n      : @756 [@dyn 415] (gas: 1)\n 25301: jump @758 if a1 != 0\n      : @757 (gas: 1)\n 25304: jump @929\n      : @758 (gas: 5)\n 25307: a0 = u64 [s1 + 0x138]\n 25311: i32 a1 = a0 + 0x20\n 25314: a0 = s1 + 0x7ff\n 25318: a0 = a0 + 0x81\n 25322: ra = 832, jump @17\n      : @759 [@dyn 416] (gas: 14)\n 25328: a0 = s1 + 0x1000\n 25332: a0 = u64 [a0 + 0xfffffffffffff898]\n 25336: a1 = s1 + 0x100\n 25340: u64 [a1 + 0xb0] = a0\n 25344: a0 = s1 + 0x1000\n 25348: a0 = u64 [a0 + 0xfffffffffffff890]\n 25352: u64 [a1 + 0xa8] = a0\n 25356: a0 = s1 + 0x1000\n 25360: a0 = u64 [a0 + 0xfffffffffffff888]\n 25364: u64 [a1 + 0x98] = a0\n 25368: a0 = s1 + 0x1000\n 25372: a0 = u64 [a0 + 0xfffffffffffff880]\n 25376: u64 [a1 + 0xa0] = a0\n 25380: fallthrough\n      : @760 (gas: 15)\n 25381: a0 = u64 [s1 + 0x80]\n 25385: a1 = u64 [s1 + 0x68]\n 25388: a0 = a0 | a1\n 25391: u64 [s1 + 0x190] = a0\n 25395: a0 = u64 [s1 + 0x98]\n 25399: a1 = u64 [s1 + 0x90]\n 25403: a0 = a0 | a1\n 25406: u64 [s1 + 0x188] = a0\n 25410: a0 = u64 [s1 + 0x88]\n 25414: a1 = u64 [s1 + 0x70]\n 25417: a0 = a0 | a1\n 25420: u64 [s1 + 0x180] = a0\n 25424: a1 = u64 [s1 + 0x128]\n 25428: a1 = a1 << 0x3\n 25431: t0 = 834, jump @1168\n      : @761 [@dyn 417] (gas: 1)\n 25437: ra = 836, jump @1221\n      : @762 [@dyn 418] (gas: 1)\n 25443: t0 = 838, jump @1212\n      : @763 [@dyn 419] (gas: 1)\n 25449: ra = 840, jump @1216\n      : @764 [@dyn 420] (gas: 1)\n 25455: t0 = 842, jump @1156\n      : @765 [@dyn 421] (gas: 1)\n 25461: ra = 844, jump @1216\n      : @766 [@dyn 422] (gas: 1)\n 25467: t0 = 846, jump @1151\n      : @767 [@dyn 423] (gas: 17)\n 25473: a4 = u64 [s1 + 0xc0]\n 25477: a0 = a0 | a4\n 25480: a5 = s1 + 0x100\n 25484: a4 = u64 [a5 + 0x80]\n 25488: a1 = a1 | a4\n 25491: a4 = u64 [a5 + 0x88]\n 25495: a3 = a3 | a4\n 25498: a4 = u64 [a5 + 0x90]\n 25502: a2 = a2 | a4\n 25505: a4 = s1 + 0x2138\n 25509: a5 = a4 + 0x500\n 25513: u64 [a5 + 0x58] = a2\n 25516: u64 [a5 + 0x60] = a3\n 25519: u64 [a5 + 0x50] = a1\n 25522: u64 [a5 + 0x48] = a0\n 25525: a0 = 0x2680\n 25529: fallthrough\n      : @768 (gas: 3)\n 25530: a1 = s1 + a0\n 25533: a0 = u64 [s1 + 0xb0]\n 25537: ra = 848, jump @23\n      : @769 [@dyn 424] (gas: 6)\n 25543: a0 = sp + 0xffffffffffffffe0\n 25546: a2 = a0 & 0xffffffffffffffe0\n 25549: sp = a2\n 25551: a0 = u64 [s1 + 0xb8]\n 25555: a3 = a0 + 0x4\n 25558: t0 = 850, jump @1171\n      : @770 [@dyn 425] (gas: 7)\n 25564: u64 [s1 + 0xc0] = a2\n 25568: u64 [s1 + 0x160] = a0\n 25572: u64 [a2 + 0x18] = a0\n 25575: a0 = s1 + 0x7ff\n 25579: a0 = a0 + 0x21\n 25582: a1 = u64 [s1 + 0xa8]\n 25586: ra = 852, jump @17\n      : @771 [@dyn 426] (gas: 20)\n 25592: a0 = s1 + 0x1000\n 25596: a2 = u64 [a0 + 0xfffffffffffff838]\n 25600: a0 = s1 + 0x1000\n 25604: a3 = u64 [a0 + 0xfffffffffffff830]\n 25608: a0 = s1 + 0x1000\n 25612: a0 = u64 [a0 + 0xfffffffffffff828]\n 25616: a1 = s1 + 0x1000\n 25620: a1 = u64 [a1 + 0xfffffffffffff820]\n 25624: a4 = s1 + 0x100\n 25628: u64 [a4 + 0x50] = a0\n 25631: u64 [a4 + 0x48] = a2\n 25634: a0 = a0 | a2\n 25637: a2 = a1 | a3\n 25640: a2 = a2 | a0\n 25643: a2 = a2 >> 0x20\n 25646: u64 [a4 + 0x40] = a3\n 25649: a0 = a0 | a3\n 25652: a0 = a0 << 0x20\n 25655: a0 = a0 | a2\n 25658: jump @773 if a0 == 0\n      : @772 (gas: 1)\n 25661: jump @929\n      : @773 (gas: 4)\n 25664: a0 = s1 + 0x7ff\n 25668: a0 = a0 + 0x1\n 25671: u64 [s1 + 0x138] = a1\n 25675: ra = 854, jump @17\n      : @774 [@dyn 427] (gas: 7)\n 25681: a0 = s1 + 0x1000\n 25685: a3 = u64 [a0 + 0xfffffffffffff818]\n 25689: a0 = s1 + 0x1000\n 25693: a1 = u64 [a0 + 0xfffffffffffff810]\n 25697: a0 = s1 + 0x1000\n 25701: a2 = u64 [a0 + 0xfffffffffffff808]\n 25705: t0 = 856, jump @1209\n      : @775 [@dyn 428] (gas: 7)\n 25711: u64 [s1 + 0xb0] = a3\n 25715: a1 = a1 | a3\n 25718: u64 [s1 + 0x88] = a0\n 25722: u64 [s1 + 0x90] = a4\n 25726: u64 [s1 + 0xa8] = a1\n 25730: a0 = a4 if a1 != 0\n 25733: jump @777 if a0 == 0\n      : @776 (gas: 1)\n 25736: jump @969\n      : @777 (gas: 6)\n 25739: a0 = s1 + 0x1000\n 25743: a0 = u64 [a0 + 0xfffffffffffff800]\n 25747: u64 [s1 + 0x128] = a0\n 25751: a0 = s1 + 0x7e0\n 25755: a1 = u64 [s1 + 0xc0]\n 25759: ra = 858, jump @21\n      : @778 [@dyn 429] (gas: 11)\n 25765: a2 = u64 [s1 + 0x7e0]\n 25769: a0 = u64 [s1 + 0x7e8]\n 25773: a1 = u64 [s1 + 0x7f0]\n 25777: a3 = u64 [s1 + 0x7f8]\n 25781: u64 [s1 + 0x7b8] = a3\n 25785: u64 [s1 + 0x7b0] = a1\n 25789: u64 [s1 + 0x7a8] = a0\n 25793: a0 = s1 + 0x7c0\n 25797: a1 = s1 + 0x7a0\n 25801: u64 [s1 + 0x7a0] = a2\n 25805: ra = 860, jump @1120\n      : @779 [@dyn 430] (gas: 6)\n 25811: a0 = s1 + 0x700\n 25815: a3 = u64 [a0 + 0xd8]\n 25819: a4 = u64 [a0 + 0xd0]\n 25823: a5 = u64 [a0 + 0xc8]\n 25827: a2 = u64 [a0 + 0xc0]\n 25831: t0 = 862, jump @1157\n      : @780 [@dyn 431] (gas: 2)\n 25837: u64 [s1 + 0x98] = a0\n 25841: jump @795 if a2 == 0\n      : @781 (gas: 12)\n 25845: a0 = u64 [s1 + 0x170]\n 25849: a2 = s1 + 0x700\n 25853: u64 [a2 + 0x80] = a0\n 25857: a0 = u64 [s1 + 0x168]\n 25861: u64 [a2 + 0x88] = a0\n 25865: a0 = u64 [s1 + 0x158]\n 25869: u64 [a2 + 0x90] = a0\n 25873: a1 = s1 + 0x780\n 25877: a0 = u64 [s1 + 0x160]\n 25881: u64 [a2 + 0x98] = a0\n 25885: a0 = 0\n 25887: ra = 864, jump @19\n      : @782 [@dyn 432] (gas: 3)\n 25893: a0 = u64 [s1 + 0x100]\n 25897: a0 = i32 [a0]\n 25899: jump @784 if a0 >u 31\n      : @783 (gas: 4)\n 25903: a1 = u64 [s1 + 0x100]\n 25907: u32 [a1 + 0] = 0x20\n 25910: t0 = 0x362\n 25914: jump @1206\n      : @784 (gas: 1)\n 25917: t0 = 866, jump @1206\n      : @785 [@dyn 433] (gas: 4)\n 25923: ra = 0x364\n 25927: ecalli 6 // 'hash_keccak_256'\n 25929: t0 = 0x366\n 25933: jump @1192\n      : @786 [@dyn 434] (gas: 1)\n 25936: t0 = 870, jump @1192\n      : @787 [@dyn 435] (gas: 6)\n 25942: u64 [s1 + 0x178] = a3\n 25946: a3 = a3 << 0x3b\n 25949: a4 = a2 >> 0x5\n 25952: a4 = a4 | a3\n 25955: a0 = u64 [s1 + 0x180]\n 25959: t0 = 872, jump @1166\n      : @788 [@dyn 436] (gas: 4)\n 25965: a1 = u64 [s1 + 0x98]\n 25969: a1 = 0 if a5 != 0\n 25971: a3 = u64 [s1 + 0xa8]\n 25975: t0 = 874, jump @1186\n      : @789 [@dyn 437] (gas: 29)\n 25981: t0 = t2 + a0\n 25984: a0 = t0 <u t2\n 25987: a5 = a2 + a0\n 25990: a4 = a4 + a5\n 25993: u64 [s1 + 0x1b8] = a4\n 25997: a5 = a4 ^ a2\n 26000: a3 = a4 <u a2\n 26003: a3 = a0 if a5 == 0\n 26006: u64 [s1 + 0x80] = a3\n 26010: a0 = u64 [s1 + 0x198]\n 26014: ra = a0 + 0x1f\n 26017: a4 = ra <u a0\n 26020: a3 = u64 [s1 + 0x1a0]\n 26024: a0 = a3 + a4\n 26027: a5 = a0 <u a3\n 26030: a5 = a4 if a4 == 0\n 26033: t1 = u64 [s1 + 0x1b0]\n 26037: t1 = t1 + a5\n 26040: a4 = t1 << 0x3b\n 26043: a3 = a0 >> 0x5\n 26046: a3 = a3 | a4\n 26049: a0 = a0 << 0x3b\n 26052: a4 = ra >> 0x5\n 26055: a0 = a0 | a4\n 26058: a0 = a0 + t2\n 26061: u64 [s1 + 0x190] = a0\n 26065: a0 = a0 <u t2\n 26068: t2 = t0\n 26070: t0 = 876, jump @1198\n      : @790 [@dyn 438] (gas: 47)\n 26076: a0 = u64 [s1 + 0xd0]\n 26080: a0 = a4 <u a0\n 26083: a3 = u64 [s1 + 0xb0]\n 26087: a0 = a0 + a3\n 26090: a3 = a4 >> 0x5\n 26093: a4 = a0 << 0x3b\n 26096: a3 = a3 | a4\n 26099: a4 = u64 [s1 + 0x180]\n 26103: t0 = u64 [a4]\n 26105: a4 = u64 [a4 + 0x8]\n 26108: a0 = a0 >> 0x5\n 26111: a3 = 0 if a1 != 0\n 26113: a0 = 0 if a1 != 0\n 26115: a1 = reverse a4\n 26117: a4 = reverse t0\n 26119: a0 = a0 + a4\n 26122: a3 = a3 + a1\n 26125: a5 = a3 <u a1\n 26128: a0 = a0 + a5\n 26131: ra = u64 [s1 + 0x80]\n 26135: ra = ra + a3\n 26138: a3 = ra <u a3\n 26141: t0 = a0 + a3\n 26144: a0 = u64 [s1 + 0x1b0]\n 26148: a0 = t1 <u a0\n 26151: a3 = u64 [s1 + 0x1a8]\n 26155: a0 = a0 + a3\n 26158: a3 = t1 >> 0x5\n 26161: a5 = a0 << 0x3b\n 26164: a3 = a3 | a5\n 26167: a0 = a0 >> 0x5\n 26170: a0 = a0 + a4\n 26173: a5 = s1 + 0x100\n 26177: a4 = u64 [a5 + 0xb8]\n 26181: a3 = a3 + a1\n 26184: a1 = a3 <u a1\n 26187: a0 = a0 + a1\n 26190: a2 = a2 + a3\n 26193: u64 [a5 + 0x80] = a2\n 26197: a1 = a2 <u a3\n 26200: a0 = a0 + a1\n 26203: u64 [a5 + 0x78] = a0\n 26206: a0 = sp + 0xffffffffffffffe0\n 26209: a0 = a0 & 0xffffffffffffffe0\n 26212: u64 [a5 + 0xb0] = a0\n 26216: sp = a0\n 26218: fallthrough\n      : @791 (gas: 25)\n 26219: a0 = u64 [s1 + 0x190]\n 26223: a0 = t2 <u a0\n 26226: a2 = u64 [s1 + 0x188]\n 26230: a1 = a4 ^ a2\n 26233: a2 = a4 <u a2\n 26236: a2 = a0 if a1 == 0\n 26239: a5 = u64 [s1 + 0x180]\n 26243: a0 = ra <u a5\n 26246: a3 = u64 [s1 + 0x178]\n 26250: a1 = t0 ^ a3\n 26253: a3 = t0 <u a3\n 26256: a3 = a0 if a1 == 0\n 26259: a0 = ra ^ a5\n 26262: a0 = a0 | a1\n 26265: a3 = a2 if a0 == 0\n 26268: u64 [s1 + 0x1a8] = t2\n 26272: a0 = u64 [s1 + 0x1b0]\n 26276: u64 [a0] = t2\n 26278: u64 [s1 + 0x1b8] = a4\n 26282: u64 [a0 + 0x8] = a4\n 26285: u64 [s1 + 0x198] = ra\n 26289: u64 [a0 + 0x10] = ra\n 26292: u64 [s1 + 0x1a0] = t0\n 26296: u64 [a0 + 0x18] = t0\n 26299: jump @795 if a3 == 0\n      : @792 (gas: 8)\n 26302: a0 = s1 + 0x2138\n 26306: u64 [a0 + 1408] = 0\n 26310: u64 [a0 + 1400] = 0\n 26314: u64 [a0 + 1392] = 0\n 26318: u64 [a0 + 1384] = 0\n 26322: a1 = s1 + 0x26a0\n 26326: a0 = u64 [s1 + 0x1b0]\n 26330: ra = 878, jump @23\n      : @793 [@dyn 439] (gas: 1)\n 26336: t0 = 880, jump @1188\n      : @794 [@dyn 440] (gas: 4)\n 26342: t0 = u64 [s1 + 0x1a0]\n 26346: t0 = t0 + a1\n 26349: ra = a0\n 26351: jump @791\n      : @795 (gas: 12)\n 26354: a0 = u64 [s1 + 0x98]\n 26358: a0 = a0 ^ 0x1\n 26361: a3 = u64 [s1 + 0x130]\n 26365: a1 = u64 [s1 + 0x88]\n 26369: a0 = a1 if a3 != 0\n 26372: a1 = u64 [s1 + 0x90]\n 26376: a2 = u64 [s1 + 0xa8]\n 26380: a0 = a1 if a2 != 0\n 26383: a4 = u64 [s1 + 0xb0]\n 26387: a1 = a3 | a4\n 26390: u64 [s1 + 0xa8] = a1\n 26394: t0 = 882, jump @1175\n      : @796 [@dyn 441] (gas: 2)\n 26400: u64 [s1 + 0xb0] = a2\n 26404: jump @814 if a0 == 0\n      : @797 (gas: 14)\n 26408: a1 = a1 & 0xffffffffffffffe0\n 26411: u64 [s1 + 0x130] = a1\n 26415: a0 = u64 [s1 + 0x170]\n 26419: a2 = s1 + 0x700\n 26423: u64 [a2 + 0x40] = a0\n 26426: a0 = u64 [s1 + 0x168]\n 26430: u64 [a2 + 0x48] = a0\n 26433: a0 = u64 [s1 + 0x158]\n 26437: u64 [a2 + 0x50] = a0\n 26440: a1 = s1 + 0x740\n 26444: a0 = u64 [s1 + 0x160]\n 26448: u64 [a2 + 0x58] = a0\n 26451: a0 = 0\n 26453: ra = 884, jump @19\n      : @798 [@dyn 442] (gas: 1)\n 26459: t0 = 886, jump @1182\n      : @799 [@dyn 443] (gas: 1)\n 26465: ra = 888, jump @26\n      : @800 [@dyn 444] (gas: 1)\n 26471: t0 = 890, jump @1169\n      : @801 [@dyn 445] (gas: 4)\n 26477: ra = 0x37c\n 26481: ecalli 6 // 'hash_keccak_256'\n 26483: t0 = 0x37e\n 26487: jump @1184\n      : @802 [@dyn 446] (gas: 1)\n 26490: t0 = 894, jump @1184\n      : @803 [@dyn 447] (gas: 1)\n 26496: t0 = 896, jump @1164\n      : @804 [@dyn 448] (gas: 9)\n 26502: t0 = a0\n 26504: a1 = u64 [s1 + 0x190]\n 26508: u64 [a1 + 0x18] = a0\n 26511: u64 [s1 + 0x170] = ra\n 26515: u64 [a1 + 0x10] = ra\n 26518: u64 [a1 + 0x8] = t2\n 26521: u64 [a1] = t1\n 26523: u64 [s1 + 0x188] = t0\n 26527: t0 = 898, jump @1162\n      : @805 [@dyn 449] (gas: 1)\n 26533: jump @817 if a4 != 0\n      : @806 (gas: 16)\n 26537: a4 = u64 [s1 + 0x1b8]\n 26541: a4 = a1 <u a4\n 26544: ra = ra + a4\n 26547: t0 = ra ^ a3\n 26550: u64 [s1 + 0x158] = a3\n 26554: a5 = ra <u a3\n 26557: a5 = a4 if t0 == 0\n 26560: a5 = a5 + a2\n 26563: t0 = a5 <u a2\n 26566: a3 = u64 [s1 + 0x1b0]\n 26570: a2 = a2 <u a3\n 26573: a0 = a0 + a2\n 26576: a0 = a0 + t0\n 26579: a2 = a1 | a5\n 26582: a0 = ra | a0\n 26585: t0 = 900, jump @1195\n      : @807 [@dyn 450] (gas: 1)\n 26591: jump @809 if a0 == 0\n      : @808 (gas: 1)\n 26594: jump @929\n      : @809 (gas: 2)\n 26597: a0 = s1 + 0x3a0\n 26601: ra = 902, jump @17\n      : @810 [@dyn 451] (gas: 14)\n 26607: a4 = s1 + 0x300\n 26611: a0 = u64 [a4 + 0xb8]\n 26615: a1 = u64 [a4 + 0xb0]\n 26619: a2 = u64 [a4 + 0xa8]\n 26623: a3 = u64 [a4 + 0xa0]\n 26627: a4 = s1 + 0x2138\n 26631: a5 = a4 + 0x500\n 26635: u64 [a5 + 0xa0] = a0\n 26639: u64 [a5 + 0x98] = a1\n 26643: u64 [a5 + 0x90] = a2\n 26647: u64 [a5 + 0x88] = a3\n 26651: a1 = s1 + 0x26c0\n 26655: a0 = u64 [s1 + 0x190]\n 26659: ra = 904, jump @23\n      : @811 [@dyn 452] (gas: 1)\n 26665: t0 = 906, jump @1152\n      : @812 [@dyn 453] (gas: 4)\n 26671: t0 = u64 [s1 + 0x1a0]\n 26675: t0 = t0 + a5\n 26678: u64 [s1 + 0x1a0] = t0\n 26682: t0 = 908, jump @1202\n      : @813 [@dyn 454] (gas: 11)\n 26688: t0 = a0\n 26690: u64 [a5 + 0x18] = a0\n 26693: u64 [s1 + 0x170] = ra\n 26697: a0 = u64 [s1 + 0x188]\n 26701: u64 [s1 + 0x1b8] = a0\n 26705: a5 = u64 [s1 + 0x168]\n 26709: u64 [s1 + 0x1b0] = a3\n 26713: a3 = a1\n 26715: u64 [s1 + 0x188] = t0\n 26719: t0 = 0x382\n 26723: jump @1162\n      : @814 (gas: 5)\n 26726: a0 = u64 [s1 + 0xd0]\n 26730: a0 = a0 | a1\n 26733: a1 = u64 [s1 + 0xa8]\n 26737: a0 = a0 | a1\n 26740: jump @831 if a0 != 0\n      : @815 (gas: 1)\n 26744: t0 = 910, jump @1172\n      : @816 [@dyn 455] (gas: 1)\n 26750: jump @836\n      : @817 (gas: 10)\n 26753: t1 = u64 [s1 + 0x1b0]\n 26757: t0 = u64 [s1 + 0x1b8]\n 26761: a4 = u64 [s1 + 0x128]\n 26765: a5 = u64 [s1 + 0x130]\n 26769: a4 = a4 ^ a5\n 26772: a5 = u64 [s1 + 0xd0]\n 26776: a4 = a4 | a5\n 26779: a5 = u64 [s1 + 0xa8]\n 26783: a4 = a4 | a5\n 26786: jump @830 if a4 == 0\n      : @818 (gas: 11)\n 26790: t2 = a3\n 26792: a4 = a1 <u t0\n 26795: a3 = ra + a4\n 26798: t0 = a3 ^ t2\n 26801: a5 = a3 <u t2\n 26804: a5 = a4 if t0 == 0\n 26807: a5 = a5 + a2\n 26810: a4 = a5 <u a2\n 26813: a2 = a2 <u t1\n 26816: a0 = a0 + a2\n 26819: t0 = 912, jump @1161\n      : @819 [@dyn 456] (gas: 1)\n 26825: jump @821 if a0 == 0\n      : @820 (gas: 1)\n 26828: jump @929\n      : @821 (gas: 2)\n 26831: a0 = s1 + 0x720\n 26835: ra = 914, jump @17\n      : @822 [@dyn 457] (gas: 11)\n 26841: a1 = s1 + 0x700\n 26845: a0 = u64 [a1 + 0x38]\n 26848: u64 [s1 + 0x1b0] = a0\n 26852: a0 = u64 [a1 + 0x30]\n 26855: u64 [s1 + 0x1a8] = a0\n 26859: a0 = u64 [a1 + 0x28]\n 26862: u64 [s1 + 0x1a0] = a0\n 26866: a0 = u64 [a1 + 0x20]\n 26869: u64 [s1 + 0x198] = a0\n 26873: a0 = u64 [s1 + 0x128]\n 26877: t0 = 916, jump @1158\n      : @823 [@dyn 458] (gas: 1)\n 26883: ra = 918, jump @1221\n      : @824 [@dyn 459] (gas: 1)\n 26889: t0 = 920, jump @1165\n      : @825 [@dyn 460] (gas: 1)\n 26895: ra = 922, jump @1216\n      : @826 [@dyn 461] (gas: 1)\n 26901: t0 = 924, jump @1154\n      : @827 [@dyn 462] (gas: 1)\n 26907: ra = 926, jump @1216\n      : @828 [@dyn 463] (gas: 1)\n 26913: t0 = 928, jump @1159\n      : @829 [@dyn 464] (gas: 7)\n 26919: u64 [a5 + 0xc0] = a3\n 26923: u64 [a5 + 0xb8] = a2\n 26927: u64 [a5 + 0xb0] = a1\n 26931: u64 [a5 + 0xa8] = a0\n 26935: a1 = s1 + 0x26e0\n 26939: a0 = u64 [s1 + 0x190]\n 26943: ra = 930, jump @23\n      : @830 [@dyn 465] (gas: 19)\n 26949: a0 = u64 [s1 + 0x98]\n 26953: a1 = u64 [s1 + 0x90]\n 26957: a0 = a0 | a1\n 26960: a1 = u64 [s1 + 0x80]\n 26964: a2 = u64 [s1 + 0x68]\n 26967: a1 = a1 | a2\n 26970: a2 = u64 [s1 + 0x88]\n 26974: a3 = u64 [s1 + 0x70]\n 26977: a2 = a2 | a3\n 26980: a3 = u64 [s1 + 0xb0]\n 26984: a3 = a3 + 0x1\n 26987: a4 = s1 + 0x2138\n 26991: a5 = a4 + 0x500\n 26995: u64 [a5 + 0xc8] = a3\n 26999: u64 [a5 + 0xd0] = a2\n 27003: u64 [a5 + 0xd8] = a1\n 27007: u64 [a5 + 0xe0] = a0\n 27011: a0 = 0x2700\n 27015: jump @844\n      : @831 (gas: 1)\n 27018: t0 = 932, jump @1191\n      : @832 [@dyn 466] (gas: 1)\n 27024: jump @834 if a1 != 0\n      : @833 (gas: 1)\n 27027: jump @929\n      : @834 (gas: 4)\n 27030: a0 = u64 [s1 + 0x138]\n 27034: i32 a1 = a0 + 0x20\n 27037: a0 = s1 + 0x760\n 27041: ra = 934, jump @17\n      : @835 [@dyn 467] (gas: 11)\n 27047: a1 = s1 + 0x700\n 27051: a0 = u64 [a1 + 0x78]\n 27054: a2 = s1 + 0x100\n 27058: u64 [a2 + 0xb0] = a0\n 27062: a0 = u64 [a1 + 0x70]\n 27065: u64 [a2 + 0xa8] = a0\n 27069: a0 = u64 [a1 + 0x68]\n 27072: u64 [a2 + 0x98] = a0\n 27076: a0 = u64 [a1 + 0x60]\n 27079: u64 [a2 + 0xa0] = a0\n 27083: fallthrough\n      : @836 (gas: 15)\n 27084: a0 = u64 [s1 + 0x80]\n 27088: a1 = u64 [s1 + 0x68]\n 27091: a0 = a0 | a1\n 27094: u64 [s1 + 0x190] = a0\n 27098: a0 = u64 [s1 + 0x98]\n 27102: a1 = u64 [s1 + 0x90]\n 27106: a0 = a0 | a1\n 27109: u64 [s1 + 0x188] = a0\n 27113: a0 = u64 [s1 + 0x88]\n 27117: a1 = u64 [s1 + 0x70]\n 27120: a0 = a0 | a1\n 27123: u64 [s1 + 0x180] = a0\n 27127: a1 = u64 [s1 + 0x128]\n 27131: a1 = a1 << 0x3\n 27134: t0 = 936, jump @1168\n      : @837 [@dyn 468] (gas: 1)\n 27140: ra = 938, jump @1221\n      : @838 [@dyn 469] (gas: 1)\n 27146: t0 = 940, jump @1212\n      : @839 [@dyn 470] (gas: 1)\n 27152: ra = 942, jump @1216\n      : @840 [@dyn 471] (gas: 1)\n 27158: t0 = 944, jump @1156\n      : @841 [@dyn 472] (gas: 1)\n 27164: ra = 946, jump @1216\n      : @842 [@dyn 473] (gas: 1)\n 27170: t0 = 948, jump @1151\n      : @843 [@dyn 474] (gas: 17)\n 27176: a4 = u64 [s1 + 0xb0]\n 27180: a0 = a0 | a4\n 27183: a5 = s1 + 0x100\n 27187: a4 = u64 [a5 + 0x80]\n 27191: a1 = a1 | a4\n 27194: a4 = u64 [a5 + 0x88]\n 27198: a3 = a3 | a4\n 27201: a4 = u64 [a5 + 0x90]\n 27205: a2 = a2 | a4\n 27208: a4 = s1 + 0x2138\n 27212: a5 = a4 + 0x500\n 27216: u64 [a5 + 0xf8] = a2\n 27220: u64 [a4 + 0x600] = a3\n 27224: u64 [a5 + 0xf0] = a1\n 27228: u64 [a5 + 0xe8] = a0\n 27232: a0 = 0x2720\n 27236: fallthrough\n      : @844 (gas: 3)\n 27237: a1 = s1 + a0\n 27240: a0 = u64 [s1 + 0xc0]\n 27244: ra = 950, jump @23\n      : @845 [@dyn 475] (gas: 6)\n 27250: a0 = sp + 0xffffffffffffffe0\n 27253: a2 = a0 & 0xffffffffffffffe0\n 27256: sp = a2\n 27258: a0 = u64 [s1 + 0xb8]\n 27262: a3 = a0 + 0x5\n 27265: t0 = 952, jump @1171\n      : @846 [@dyn 476] (gas: 6)\n 27271: u64 [s1 + 0xe8] = a2\n 27275: u64 [s1 + 0x160] = a0\n 27279: u64 [a2 + 0x18] = a0\n 27282: a0 = s1 + 0x700\n 27286: a1 = u64 [s1 + 0x78]\n 27289: ra = 954, jump @17\n      : @847 [@dyn 477] (gas: 18)\n 27295: a4 = s1 + 0x700\n 27299: a2 = u64 [a4 + 0x18]\n 27302: a3 = u64 [a4 + 0x10]\n 27305: a0 = u64 [a4 + 0x8]\n 27308: a1 = u64 [a4]\n 27310: a4 = s1 + 0x100\n 27314: u64 [a4 + 0x48] = a0\n 27317: u64 [a4 + 0x40] = a2\n 27320: a0 = a0 | a2\n 27323: u64 [a4 + 0x50] = a1\n 27326: a1 = a1 | a3\n 27329: a1 = a1 | a0\n 27332: a1 = a1 >> 0x20\n 27335: u64 [a4 + 0x38] = a3\n 27338: a0 = a0 | a3\n 27341: a0 = a0 << 0x20\n 27344: a0 = a0 | a1\n 27347: jump @929 if a0 != 0\n      : @848 (gas: 3)\n 27351: a0 = s1 + 0x6e0\n 27355: a1 = u64 [s1 + 0x150]\n 27359: ra = 956, jump @17\n      : @849 [@dyn 478] (gas: 17)\n 27365: a0 = s1 + 0x600\n 27369: a3 = u64 [a0 + 0xf8]\n 27373: a2 = u64 [a0 + 0xf0]\n 27377: a1 = u64 [a0 + 0xe8]\n 27381: a0 = a3 >u 0\n 27383: a4 = a2 >u 0\n 27385: a4 = a0 if a3 != 0\n 27388: u64 [s1 + 0xf0] = a1\n 27392: a0 = a1 >u 0\n 27394: u64 [s1 + 0xe0] = a2\n 27398: u64 [s1 + 0xd0] = a3\n 27402: a2 = a2 | a3\n 27405: u64 [s1 + 0xb0] = a0\n 27409: u64 [s1 + 0xb8] = a4\n 27413: u64 [s1 + 0x130] = a2\n 27417: a0 = a4 if a2 != 0\n 27420: jump @851 if a0 == 0\n      : @850 (gas: 1)\n 27423: jump @972\n      : @851 (gas: 5)\n 27426: a0 = u64 [s1 + 0x6e0]\n 27430: u64 [s1 + 0x128] = a0\n 27434: a0 = s1 + 0x6c0\n 27438: a1 = u64 [s1 + 0xe8]\n 27442: ra = 958, jump @21\n      : @852 [@dyn 479] (gas: 11)\n 27448: a2 = u64 [s1 + 0x6c0]\n 27452: a0 = u64 [s1 + 0x6c8]\n 27456: a1 = u64 [s1 + 0x6d0]\n 27460: a3 = u64 [s1 + 0x6d8]\n 27464: u64 [s1 + 0x698] = a3\n 27468: u64 [s1 + 0x690] = a1\n 27472: u64 [s1 + 0x688] = a0\n 27476: a0 = s1 + 0x6a0\n 27480: a1 = s1 + 0x680\n 27484: u64 [s1 + 0x680] = a2\n 27488: ra = 960, jump @1120\n      : @853 [@dyn 480] (gas: 6)\n 27494: a0 = s1 + 0x600\n 27498: a3 = u64 [a0 + 0xb8]\n 27502: a4 = u64 [a0 + 0xb0]\n 27506: a5 = u64 [a0 + 0xa8]\n 27510: a2 = u64 [a0 + 0xa0]\n 27514: t0 = 962, jump @1157\n      : @854 [@dyn 481] (gas: 2)\n 27520: u64 [s1 + 0xc0] = a0\n 27524: jump @868 if a2 == 0\n      : @855 (gas: 12)\n 27528: a0 = u64 [s1 + 0x170]\n 27532: a2 = s1 + 0x600\n 27536: u64 [a2 + 0x60] = a0\n 27539: a0 = u64 [s1 + 0x168]\n 27543: u64 [a2 + 0x68] = a0\n 27546: a0 = u64 [s1 + 0x158]\n 27550: u64 [a2 + 0x70] = a0\n 27553: a1 = s1 + 0x660\n 27557: a0 = u64 [s1 + 0x160]\n 27561: u64 [a2 + 0x78] = a0\n 27564: a0 = 0\n 27566: ra = 964, jump @19\n      : @856 [@dyn 482] (gas: 3)\n 27572: a0 = u64 [s1 + 0x100]\n 27576: a0 = i32 [a0]\n 27578: jump @858 if a0 >u 31\n      : @857 (gas: 4)\n 27582: a1 = u64 [s1 + 0x100]\n 27586: u32 [a1 + 0] = 0x20\n 27589: t0 = 0x3c6\n 27593: jump @1206\n      : @858 (gas: 1)\n 27596: t0 = 966, jump @1206\n      : @859 [@dyn 483] (gas: 3)\n 27602: ra = 0x3c8\n 27606: ecalli 6 // 'hash_keccak_256'\n 27608: fallthrough\n      : @860 [@dyn 484] (gas: 15)\n 27609: a0 = u64 [s1 + 0x128]\n 27613: a1 = a0 + 0x1f\n 27616: a0 = a1 <u a0\n 27619: a5 = u64 [s1 + 0xf0]\n 27623: a2 = a5 + a0\n 27626: a3 = a2 <u a5\n 27629: a3 = a0 if a0 == 0\n 27632: a4 = u64 [s1 + 0xe0]\n 27636: a3 = a3 + a4\n 27639: u64 [s1 + 0x178] = a3\n 27643: a3 = a3 << 0x3b\n 27646: a4 = a2 >> 0x5\n 27649: a4 = a4 | a3\n 27652: a0 = u64 [s1 + 0x180]\n 27656: t0 = 970, jump @1166\n      : @861 [@dyn 485] (gas: 4)\n 27662: a1 = u64 [s1 + 0xc0]\n 27666: a1 = 0 if a5 != 0\n 27668: a3 = u64 [s1 + 0x130]\n 27672: t0 = 972, jump @1186\n      : @862 [@dyn 486] (gas: 29)\n 27678: t0 = t2 + a0\n 27681: a0 = t0 <u t2\n 27684: a5 = a2 + a0\n 27687: a4 = a4 + a5\n 27690: u64 [s1 + 0x1b8] = a4\n 27694: a5 = a4 ^ a2\n 27697: a3 = a4 <u a2\n 27700: a3 = a0 if a5 == 0\n 27703: u64 [s1 + 0xa8] = a3\n 27707: a0 = u64 [s1 + 0x198]\n 27711: ra = a0 + 0x1f\n 27714: a4 = ra <u a0\n 27717: a3 = u64 [s1 + 0x1a0]\n 27721: a0 = a3 + a4\n 27724: a5 = a0 <u a3\n 27727: a5 = a4 if a4 == 0\n 27730: t1 = u64 [s1 + 0x1b0]\n 27734: t1 = t1 + a5\n 27737: a4 = t1 << 0x3b\n 27740: a3 = a0 >> 0x5\n 27743: a3 = a3 | a4\n 27746: a0 = a0 << 0x3b\n 27749: a4 = ra >> 0x5\n 27752: a0 = a0 | a4\n 27755: a0 = a0 + t2\n 27758: u64 [s1 + 0x190] = a0\n 27762: a0 = a0 <u t2\n 27765: t2 = t0\n 27767: t0 = 974, jump @1198\n      : @863 [@dyn 487] (gas: 47)\n 27773: a0 = u64 [s1 + 0xe0]\n 27777: a0 = a4 <u a0\n 27780: a3 = u64 [s1 + 0xd0]\n 27784: a0 = a0 + a3\n 27787: a3 = a4 >> 0x5\n 27790: a4 = a0 << 0x3b\n 27793: a3 = a3 | a4\n 27796: a4 = u64 [s1 + 0x180]\n 27800: t0 = u64 [a4]\n 27802: a4 = u64 [a4 + 0x8]\n 27805: a0 = a0 >> 0x5\n 27808: a3 = 0 if a1 != 0\n 27810: a0 = 0 if a1 != 0\n 27812: a1 = reverse a4\n 27814: a4 = reverse t0\n 27816: a0 = a0 + a4\n 27819: a3 = a3 + a1\n 27822: a5 = a3 <u a1\n 27825: a0 = a0 + a5\n 27828: ra = u64 [s1 + 0xa8]\n 27832: ra = ra + a3\n 27835: a3 = ra <u a3\n 27838: t0 = a0 + a3\n 27841: a0 = u64 [s1 + 0x1b0]\n 27845: a0 = t1 <u a0\n 27848: a3 = u64 [s1 + 0x1a8]\n 27852: a0 = a0 + a3\n 27855: a3 = t1 >> 0x5\n 27858: a5 = a0 << 0x3b\n 27861: a3 = a3 | a5\n 27864: a0 = a0 >> 0x5\n 27867: a0 = a0 + a4\n 27870: a5 = s1 + 0x100\n 27874: a4 = u64 [a5 + 0xb8]\n 27878: a3 = a3 + a1\n 27881: a1 = a3 <u a1\n 27884: a0 = a0 + a1\n 27887: a2 = a2 + a3\n 27890: u64 [a5 + 0x80] = a2\n 27894: a1 = a2 <u a3\n 27897: a0 = a0 + a1\n 27900: u64 [a5 + 0x78] = a0\n 27903: a0 = sp + 0xffffffffffffffe0\n 27906: a0 = a0 & 0xffffffffffffffe0\n 27909: u64 [a5 + 0xb0] = a0\n 27913: sp = a0\n 27915: fallthrough\n      : @864 (gas: 25)\n 27916: a0 = u64 [s1 + 0x190]\n 27920: a0 = t2 <u a0\n 27923: a2 = u64 [s1 + 0x188]\n 27927: a1 = a4 ^ a2\n 27930: a2 = a4 <u a2\n 27933: a2 = a0 if a1 == 0\n 27936: a5 = u64 [s1 + 0x180]\n 27940: a0 = ra <u a5\n 27943: a3 = u64 [s1 + 0x178]\n 27947: a1 = t0 ^ a3\n 27950: a3 = t0 <u a3\n 27953: a3 = a0 if a1 == 0\n 27956: a0 = ra ^ a5\n 27959: a0 = a0 | a1\n 27962: a3 = a2 if a0 == 0\n 27965: u64 [s1 + 0x1a8] = t2\n 27969: a0 = u64 [s1 + 0x1b0]\n 27973: u64 [a0] = t2\n 27975: u64 [s1 + 0x1b8] = a4\n 27979: u64 [a0 + 0x8] = a4\n 27982: u64 [s1 + 0x198] = ra\n 27986: u64 [a0 + 0x10] = ra\n 27989: u64 [s1 + 0x1a0] = t0\n 27993: u64 [a0 + 0x18] = t0\n 27996: jump @868 if a3 == 0\n      : @865 (gas: 8)\n 27999: a0 = s1 + 0x2138\n 28003: u64 [a0 + 1568] = 0\n 28007: u64 [a0 + 1560] = 0\n 28011: u64 [a0 + 1552] = 0\n 28015: u64 [a0 + 1544] = 0\n 28019: a1 = s1 + 0x2740\n 28023: a0 = u64 [s1 + 0x1b0]\n 28027: ra = 976, jump @23\n      : @866 [@dyn 488] (gas: 1)\n 28033: t0 = 978, jump @1188\n      : @867 [@dyn 489] (gas: 4)\n 28039: t0 = u64 [s1 + 0x1a0]\n 28043: t0 = t0 + a1\n 28046: ra = a0\n 28048: jump @864\n      : @868 (gas: 9)\n 28051: a0 = u64 [s1 + 0xc0]\n 28055: a0 = a0 ^ 0x1\n 28058: a1 = u64 [s1 + 0xf0]\n 28062: a2 = u64 [s1 + 0xb0]\n 28066: a0 = a2 if a1 != 0\n 28069: a1 = u64 [s1 + 0xb8]\n 28073: a2 = u64 [s1 + 0x130]\n 28077: a0 = a1 if a2 != 0\n 28080: jump @885 if a0 == 0\n      : @869 (gas: 15)\n 28084: a0 = u64 [s1 + 0x128]\n 28088: a0 = a0 & 0xffffffffffffffe0\n 28091: u64 [s1 + 0x130] = a0\n 28095: a0 = u64 [s1 + 0x170]\n 28099: a2 = s1 + 0x600\n 28103: u64 [a2 + 0x20] = a0\n 28106: a0 = u64 [s1 + 0x168]\n 28110: u64 [a2 + 0x28] = a0\n 28113: a0 = u64 [s1 + 0x158]\n 28117: u64 [a2 + 0x30] = a0\n 28120: a1 = s1 + 0x620\n 28124: a0 = u64 [s1 + 0x160]\n 28128: u64 [a2 + 0x38] = a0\n 28131: a0 = 0\n 28133: ra = 980, jump @19\n      : @870 [@dyn 490] (gas: 1)\n 28139: t0 = 982, jump @1182\n      : @871 [@dyn 491] (gas: 1)\n 28145: ra = 984, jump @26\n      : @872 [@dyn 492] (gas: 1)\n 28151: t0 = 986, jump @1169\n      : @873 [@dyn 493] (gas: 4)\n 28157: ra = 0x3dc\n 28161: ecalli 6 // 'hash_keccak_256'\n 28163: t0 = 0x3de\n 28167: jump @1184\n      : @874 [@dyn 494] (gas: 1)\n 28170: t0 = 990, jump @1184\n      : @875 [@dyn 495] (gas: 1)\n 28176: t0 = 992, jump @1164\n      : @876 [@dyn 496] (gas: 8)\n 28182: t0 = a0\n 28184: a1 = u64 [s1 + 0x190]\n 28188: u64 [a1 + 0x18] = a0\n 28191: u64 [s1 + 0x170] = ra\n 28195: u64 [a1 + 0x10] = ra\n 28198: u64 [a1 + 0x8] = t2\n 28201: u64 [a1] = t1\n 28203: fallthrough\n      : @877 (gas: 24)\n 28204: u64 [s1 + 0x188] = t0\n 28208: a0 = u64 [s1 + 0x130]\n 28212: u64 [s1 + 0x198] = a4\n 28216: a0 = a4 <u a0\n 28219: a4 = a0 ^ 0x1\n 28222: u64 [s1 + 0x178] = a3\n 28226: a4 = 0x1 if a3 != 0\n 28229: u64 [s1 + 0x180] = a2\n 28233: a0 = u64 [s1 + 0x1a0]\n 28237: a0 = a0 | a2\n 28240: a4 = 0x1 if a0 != 0\n 28243: a1 = u64 [s1 + 0x150]\n 28247: a0 = u64 [s1 + 0x1b8]\n 28251: a1 = a1 + a0\n 28254: a3 = u64 [s1 + 0x148]\n 28258: a3 = a3 + a5\n 28261: a2 = u64 [s1 + 0x138]\n 28265: a0 = u64 [s1 + 0x1b0]\n 28269: a2 = a2 + a0\n 28272: a0 = u64 [s1 + 0x140]\n 28276: ra = a5\n 28278: a5 = u64 [s1 + 0x1a8]\n 28282: a0 = a0 + a5\n 28285: jump @887 if a4 != 0\n      : @878 (gas: 16)\n 28289: a4 = u64 [s1 + 0x1b8]\n 28293: a4 = a1 <u a4\n 28296: a3 = a3 + a4\n 28299: t0 = a3 ^ ra\n 28302: u64 [s1 + 0x158] = ra\n 28306: a5 = a3 <u ra\n 28309: a5 = a4 if t0 == 0\n 28312: a5 = a5 + a2\n 28315: t0 = a5 <u a2\n 28318: a4 = u64 [s1 + 0x1b0]\n 28322: a2 = a2 <u a4\n 28325: a0 = a0 + a2\n 28328: a0 = a0 + t0\n 28331: a2 = a1 | a5\n 28334: a0 = a0 | a3\n 28337: t0 = 994, jump @1195\n      : @879 [@dyn 497] (gas: 1)\n 28343: jump @929 if a0 != 0\n      : @880 (gas: 2)\n 28347: a0 = s1 + 0x400\n 28351: ra = 996, jump @17\n      : @881 [@dyn 498] (gas: 14)\n 28357: a4 = s1 + 0x400\n 28361: a0 = u64 [a4 + 0x18]\n 28364: a1 = u64 [a4 + 0x10]\n 28367: a2 = u64 [a4 + 0x8]\n 28370: a3 = u64 [a4]\n 28372: a4 = s1 + 0x2138\n 28376: a5 = a4 + 0x600\n 28380: u64 [a5 + 0x40] = a0\n 28383: u64 [a5 + 0x38] = a1\n 28386: u64 [a5 + 0x30] = a2\n 28389: u64 [a5 + 0x28] = a3\n 28392: a1 = s1 + 0x2760\n 28396: a0 = u64 [s1 + 0x190]\n 28400: ra = 998, jump @23\n      : @882 [@dyn 499] (gas: 1)\n 28406: t0 = 1000, jump @1152\n      : @883 [@dyn 500] (gas: 4)\n 28412: t0 = u64 [s1 + 0x1a0]\n 28416: t0 = t0 + a5\n 28419: u64 [s1 + 0x1a0] = t0\n 28423: t0 = 1002, jump @1202\n      : @884 [@dyn 501] (gas: 9)\n 28429: t0 = a0\n 28431: u64 [a5 + 0x18] = a0\n 28434: u64 [s1 + 0x170] = ra\n 28438: a0 = u64 [s1 + 0x188]\n 28442: u64 [s1 + 0x1b8] = a0\n 28446: a5 = u64 [s1 + 0x168]\n 28450: u64 [s1 + 0x1b0] = a3\n 28454: a3 = a1\n 28456: jump @877\n      : @885 (gas: 8)\n 28459: a0 = u64 [s1 + 0x128]\n 28463: a1 = u64 [s1 + 0xe0]\n 28467: a0 = a0 | a1\n 28470: a1 = u64 [s1 + 0xf0]\n 28474: a2 = u64 [s1 + 0xd0]\n 28478: a1 = a1 | a2\n 28481: a0 = a0 | a1\n 28484: jump @900 if a0 != 0\n      : @886 (gas: 5)\n 28488: u64 [s1 + 352] = 0\n 28492: u64 [s1 + 344] = 0\n 28496: u64 [s1 + 360] = 0\n 28500: u64 [s1 + 368] = 0\n 28504: jump @903\n      : @887 (gas: 12)\n 28507: t2 = u64 [s1 + 0x1b0]\n 28511: t1 = u64 [s1 + 0x1b8]\n 28515: a4 = u64 [s1 + 0x128]\n 28519: a5 = u64 [s1 + 0x130]\n 28523: a4 = a4 ^ a5\n 28526: a5 = u64 [s1 + 0xe0]\n 28530: t0 = a4 | a5\n 28533: a5 = u64 [s1 + 0xf0]\n 28537: a4 = u64 [s1 + 0xd0]\n 28541: a5 = a5 | a4\n 28544: a4 = t0 | a5\n 28547: jump @899 if a4 == 0\n      : @888 (gas: 10)\n 28551: a4 = a1 <u t1\n 28554: a3 = a3 + a4\n 28557: t0 = a3 ^ ra\n 28560: a5 = a3 <u ra\n 28563: a5 = a4 if t0 == 0\n 28566: a5 = a5 + a2\n 28569: a4 = a5 <u a2\n 28572: a2 = a2 <u t2\n 28575: a0 = a0 + a2\n 28578: t0 = 1004, jump @1161\n      : @889 [@dyn 502] (gas: 1)\n 28584: jump @929 if a0 != 0\n      : @890 (gas: 2)\n 28588: a0 = s1 + 0x600\n 28592: ra = 1006, jump @17\n      : @891 [@dyn 503] (gas: 11)\n 28598: a1 = s1 + 0x600\n 28602: a0 = u64 [a1 + 0x18]\n 28605: u64 [s1 + 0x1b0] = a0\n 28609: a0 = u64 [a1 + 0x10]\n 28612: u64 [s1 + 0x1a8] = a0\n 28616: a0 = u64 [a1 + 0x8]\n 28619: u64 [s1 + 0x1a0] = a0\n 28623: a0 = u64 [a1]\n 28625: u64 [s1 + 0x198] = a0\n 28629: a0 = u64 [s1 + 0x128]\n 28633: t0 = 1008, jump @1158\n      : @892 [@dyn 504] (gas: 1)\n 28639: ra = 1010, jump @1221\n      : @893 [@dyn 505] (gas: 1)\n 28645: t0 = 1012, jump @1165\n      : @894 [@dyn 506] (gas: 1)\n 28651: ra = 1014, jump @1216\n      : @895 [@dyn 507] (gas: 1)\n 28657: t0 = 1016, jump @1154\n      : @896 [@dyn 508] (gas: 1)\n 28663: ra = 1018, jump @1216\n      : @897 [@dyn 509] (gas: 15)\n 28669: a4 = u64 [s1 + 0x1b8]\n 28673: a2 = a4 <u 0x80\n 28677: a3 = u64 [s1 + 0x170]\n 28681: a1 = a3 if a2 != 0\n 28684: a5 = u64 [s1 + 0x178]\n 28688: a3 = u64 [s1 + 0x188]\n 28692: a3 = a3 | a5\n 28695: a3 = a0 if a2 == 0\n 28698: a1 = 0xffffffffffffffff if a4 == 0\n 28701: a3 = 0xffffffffffffffff if a4 == 0\n 28704: a4 = u64 [s1 + 0x180]\n 28708: a4 = 0 if a2 == 0\n 28710: a5 = 0 if a2 == 0\n 28712: a0 = u64 [s1 + 0x198]\n 28716: t0 = 1020, jump @1187\n      : @898 [@dyn 510] (gas: 8)\n 28722: a5 = a4 + 0x600\n 28726: u64 [a5 + 0x60] = a3\n 28729: u64 [a5 + 0x58] = a2\n 28732: u64 [a5 + 0x50] = a1\n 28735: u64 [a5 + 0x48] = a0\n 28738: a1 = s1 + 0x2780\n 28742: a0 = u64 [s1 + 0x190]\n 28746: ra = 1022, jump @23\n      : @899 [@dyn 511] (gas: 23)\n 28752: a2 = u64 [s1 + 0xe0]\n 28756: a0 = a2 >> 0x3f\n 28759: a1 = u64 [s1 + 0xd0]\n 28763: a1 = a1 << 0x1\n 28766: a0 = a0 | a1\n 28769: a3 = u64 [s1 + 0xf0]\n 28773: a1 = a3 >> 0x3f\n 28776: a2 = a2 << 0x1\n 28779: a1 = a1 | a2\n 28782: a4 = u64 [s1 + 0x128]\n 28786: a2 = a4 >> 0x3f\n 28789: a3 = a3 << 0x1\n 28792: a2 = a2 | a3\n 28795: a3 = a4 << 0x1\n 28798: a3 = a3 + 0x1\n 28801: a4 = s1 + 0x2138\n 28805: a5 = a4 + 0x600\n 28809: u64 [a5 + 0x68] = a3\n 28812: u64 [a5 + 0x70] = a2\n 28815: u64 [a5 + 0x78] = a1\n 28818: u64 [a5 + 0x80] = a0\n 28822: a0 = 0x27a0\n 28826: jump @909\n      : @900 (gas: 11)\n 28829: a3 = s1 + 0x100\n 28833: a0 = u64 [a3 + 0x40]\n 28836: a1 = u64 [a3 + 0x38]\n 28839: a0 = a0 | a1\n 28842: a1 = 0xffffffe0\n 28852: a2 = u64 [a3 + 0x50]\n 28855: a1 = a2 <u a1\n 28858: a2 = u64 [a3 + 0x48]\n 28861: a1 = 0 if a2 != 0\n 28863: a1 = 0 if a0 != 0\n 28865: jump @929 if a1 == 0\n      : @901 (gas: 4)\n 28869: a0 = u64 [s1 + 0x150]\n 28873: i32 a1 = a0 + 0x20\n 28876: a0 = s1 + 0x640\n 28880: ra = 1024, jump @17\n      : @902 [@dyn 512] (gas: 11)\n 28886: a1 = s1 + 0x600\n 28890: a0 = u64 [a1 + 0x58]\n 28893: a2 = s1 + 0x100\n 28897: u64 [a2 + 0x70] = a0\n 28900: a0 = u64 [a1 + 0x50]\n 28903: u64 [a2 + 0x68] = a0\n 28906: a0 = u64 [a1 + 0x48]\n 28909: u64 [a2 + 0x58] = a0\n 28912: a0 = u64 [a1 + 0x40]\n 28915: u64 [a2 + 0x60] = a0\n 28918: fallthrough\n      : @903 (gas: 20)\n 28919: a2 = u64 [s1 + 0xf0]\n 28923: a0 = a2 >> 0x3f\n 28926: a3 = u64 [s1 + 0xe0]\n 28930: a1 = a3 << 0x1\n 28933: a0 = a0 | a1\n 28936: u64 [s1 + 0x1b0] = a0\n 28940: a0 = a3 >> 0x3f\n 28943: a1 = u64 [s1 + 0xd0]\n 28947: a1 = a1 << 0x1\n 28950: a0 = a0 | a1\n 28953: u64 [s1 + 0x1a8] = a0\n 28957: a3 = u64 [s1 + 0x128]\n 28961: a0 = a3 >> 0x3f\n 28964: a1 = a2 << 0x1\n 28967: a0 = a0 | a1\n 28970: u64 [s1 + 0x1a0] = a0\n 28974: a0 = a3 << 0x1\n 28977: u64 [s1 + 0x198] = a0\n 28981: a1 = a3 << 0x3\n 28984: t0 = 1026, jump @1168\n      : @904 [@dyn 513] (gas: 1)\n 28990: ra = 1028, jump @1221\n      : @905 [@dyn 514] (gas: 7)\n 28996: u64 [s1 + 0x178] = a0\n 29000: u64 [s1 + 0x190] = a1\n 29004: a0 = u64 [s1 + 0x128]\n 29008: i32 a2 = a0 << 0x3\n 29011: a0 = 0xffffffffffffffff\n 29014: a1 = 0xffffffffffffffff\n 29017: ra = 1030, jump @1216\n      : @906 [@dyn 515] (gas: 10)\n 29023: u64 [s1 + 0x188] = a0\n 29027: u64 [s1 + 0x180] = a1\n 29031: a1 = u64 [s1 + 0x178]\n 29035: a0 = a0 | a1\n 29038: u64 [s1 + 0x178] = a0\n 29042: a0 = u64 [s1 + 0x1b8]\n 29046: i32 a2 = a0 + 0xffffffffffffff80\n 29049: a0 = 0xffffffffffffffff\n 29052: a1 = 0xffffffffffffffff\n 29055: ra = 1032, jump @1216\n      : @907 [@dyn 516] (gas: 7)\n 29061: a4 = u64 [s1 + 0x1b8]\n 29065: a2 = a4 <u 0x80\n 29069: a3 = u64 [s1 + 0x178]\n 29073: a0 = a3 if a2 != 0\n 29076: a5 = u64 [s1 + 0x180]\n 29080: a3 = u64 [s1 + 0x190]\n 29084: t0 = 1034, jump @1213\n      : @908 [@dyn 517] (gas: 27)\n 29090: a4 = u64 [s1 + 0x188]\n 29094: a4 = 0 if a2 == 0\n 29096: a1 = u64 [s1 + 0x158]\n 29100: a1 = a1 & ~a3\n 29103: a2 = u64 [s1 + 0x160]\n 29107: a0 = a2 & ~a0\n 29110: a2 = u64 [s1 + 0x168]\n 29114: a2 = a2 & ~a4\n 29117: a3 = u64 [s1 + 0x170]\n 29121: a3 = a3 & ~a5\n 29124: a5 = s1 + 0x100\n 29128: a4 = u64 [a5 + 0x98]\n 29132: a0 = a0 | a4\n 29135: a4 = u64 [a5 + 0xa0]\n 29139: a1 = a1 | a4\n 29142: a4 = u64 [a5 + 0xa8]\n 29146: a3 = a3 | a4\n 29149: a4 = u64 [a5 + 0xb0]\n 29153: a2 = a2 | a4\n 29156: a4 = s1 + 0x2138\n 29160: a5 = a4 + 0x600\n 29164: u64 [a5 + 0x98] = a2\n 29168: u64 [a5 + 0xa0] = a3\n 29172: u64 [a5 + 0x90] = a1\n 29176: u64 [a5 + 0x88] = a0\n 29180: a0 = 0x27c0\n 29184: fallthrough\n      : @909 (gas: 3)\n 29185: a1 = s1 + a0\n 29188: a0 = u64 [s1 + 0xe8]\n 29192: ra = 1036, jump @23\n      : @910 [@dyn 518] (gas: 8)\n 29198: a0 = s1 + 0x2138\n 29202: u64 [a0 + 1728] = 0\n 29206: u64 [a0 + 1720] = 0\n 29210: u64 [a0 + 1712] = 0\n 29214: u64 [a0 + 1704] = 0x1\n 29219: a0 = s1 + 0x5e0\n 29223: a1 = s1 + 0x27e0\n 29227: ra = 1038, jump @21\n      : @911 [@dyn 519] (gas: 13)\n 29233: a0 = s1 + 0x500\n 29237: a5 = u64 [a0 + 0xf8]\n 29241: a3 = u64 [a0 + 0xf0]\n 29245: a2 = u64 [a0 + 0xe8]\n 29249: a0 = a5 >u 0\n 29251: a1 = a3 >u 0\n 29253: a1 = a0 if a5 != 0\n 29256: a4 = a3\n 29258: a0 = a3 | a5\n 29261: a3 = a2\n 29263: a2 = a2 >u 0\n 29265: a2 = a1 if a0 != 0\n 29268: jump @975 if a2 != 0\n      : @912 (gas: 26)\n 29272: a0 = u64 [s1 + 0x5e0]\n 29276: u64 [s1 + 0x1b8] = a0\n 29280: a0 = a0 + 0x1\n 29283: a1 = a0 <u 0x1\n 29286: u64 [s1 + 0x1b0] = a3\n 29290: a1 = a1 + a3\n 29293: a2 = a0 | a1\n 29296: a2 = a2 <u 0x1\n 29299: u64 [s1 + 0x1a8] = a4\n 29303: a2 = a2 + a4\n 29306: a3 = a2 <u a4\n 29309: u64 [s1 + 0x1a0] = a5\n 29313: a3 = a3 + a5\n 29316: a4 = s1 + 0x2138\n 29320: u64 [a4 + 1760] = 0\n 29324: u64 [a4 + 1752] = 0\n 29328: u64 [a4 + 1744] = 0\n 29332: u64 [a4 + 1736] = 0x1\n 29337: a5 = a4 + 0x600\n 29341: u64 [a5 + 0xe8] = a0\n 29345: u64 [a5 + 0xf0] = a1\n 29349: u64 [a5 + 0xf8] = a2\n 29353: u64 [a4 + 0x700] = a3\n 29357: a0 = s1 + 0x2800\n 29361: a1 = s1 + 0x2820\n 29365: ra = 1040, jump @23\n      : @913 [@dyn 520] (gas: 15)\n 29371: a0 = sp + 0xffffffffffffffe0\n 29374: a0 = a0 & 0xffffffffffffffe0\n 29377: u64 [s1 + 0x190] = a0\n 29381: sp = a0\n 29383: a0 = u64 [s1 + 0x1a0]\n 29387: u64 [s1 + 0x598] = a0\n 29391: a0 = u64 [s1 + 0x1a8]\n 29395: u64 [s1 + 0x590] = a0\n 29399: a0 = u64 [s1 + 0x1b0]\n 29403: u64 [s1 + 0x588] = a0\n 29407: a0 = s1 + 0x5a0\n 29411: a1 = s1 + 0x580\n 29415: a2 = u64 [s1 + 0x1b8]\n 29419: u64 [s1 + 0x580] = a2\n 29423: ra = 1042, jump @983\n      : @914 [@dyn 521] (gas: 19)\n 29429: a0 = u64 [s1 + 0x5d8]\n 29433: u64 [s1 + 0x1b8] = a0\n 29437: a0 = u64 [s1 + 0x5d0]\n 29441: u64 [s1 + 0x198] = a0\n 29445: a0 = u64 [s1 + 0x5c8]\n 29449: u64 [s1 + 0x1a8] = a0\n 29453: a0 = u64 [s1 + 0x5c0]\n 29457: u64 [s1 + 0x1b0] = a0\n 29461: a0 = u64 [s1 + 0x5b0]\n 29465: a4 = u64 [s1 + 0x5b8]\n 29469: a2 = u64 [s1 + 0x5a0]\n 29473: a3 = u64 [s1 + 0x5a8]\n 29477: a1 = u64 [s1 + 0x190]\n 29481: u64 [a1 + 0x10] = a0\n 29484: u64 [a1 + 0x18] = a4\n 29487: u64 [a1] = a2\n 29489: u64 [a1 + 0x8] = a3\n 29492: a0 = s1 + 0x560\n 29496: ra = 1044, jump @21\n      : @915 [@dyn 522] (gas: 64)\n 29502: a0 = u64 [s1 + 0x560]\n 29506: u64 [s1 + 0x170] = a0\n 29510: a0 = u64 [s1 + 0x568]\n 29514: u64 [s1 + 0x168] = a0\n 29518: a0 = u64 [s1 + 0x570]\n 29522: u64 [s1 + 0x160] = a0\n 29526: a0 = u64 [s1 + 0x578]\n 29530: u64 [s1 + 0x158] = a0\n 29534: a2 = u64 [s1 + 0x1b0]\n 29538: a0 = a2 >> 0x3d\n 29541: a3 = u64 [s1 + 0x1a8]\n 29545: a1 = a3 << 0x3\n 29548: a0 = a0 | a1\n 29551: u64 [s1 + 0x1a0] = a0\n 29555: a0 = a3 >> 0x3d\n 29558: a3 = u64 [s1 + 0x198]\n 29562: a1 = a3 << 0x3\n 29565: a0 = a0 | a1\n 29568: u64 [s1 + 0x1a8] = a0\n 29572: a0 = a3 >> 0x3d\n 29575: a1 = u64 [s1 + 0x1b8]\n 29579: a1 = a1 << 0x3\n 29582: a0 = a0 | a1\n 29585: u64 [s1 + 0x198] = a0\n 29589: a2 = a2 << 0x3\n 29592: u64 [s1 + 0x1b8] = a2\n 29596: a0 = u64 [s1 + 0x108]\n 29600: ecalli 3 // 'caller'\n 29602: a2 = u64 [s1 + 0x1a0]\n 29606: a0 = a2 >u 0\n 29608: a5 = u64 [s1 + 0x1b8]\n 29612: a1 = a5 <u 0x100\n 29616: a3 = a1 ^ 0x1\n 29619: a3 = a0 if a2 != 0\n 29622: a4 = u64 [s1 + 0x198]\n 29626: a0 = a4 >u 0\n 29628: a2 = u64 [s1 + 0x1a8]\n 29632: a1 = a2 >u 0\n 29634: a1 = a0 if a4 != 0\n 29637: a0 = a4\n 29639: a4 = u64 [s1 + 0x120]\n 29643: t1 = u64 [a4 + 0x8]\n 29646: a2 = a2 | a0\n 29649: t0 = i32 [a4 + 0x10]\n 29652: a3 = a1 if a2 != 0\n 29655: u64 [s1 + 0x188] = a3\n 29659: a1 = u64 [a4]\n 29661: a0 = reverse t1\n 29663: a2 = a0 << 0x20\n 29666: a3 = reverse t0\n 29668: a3 = a3 >> 0x20\n 29671: a3 = a3 | a2\n 29674: u64 [s1 + 0x180] = a3\n 29678: a0 = a0 >> 0x20\n 29681: a4 = reverse a1\n 29683: a2 = a4 << 0x20\n 29686: a1 = a2 | a0\n 29689: u64 [s1 + 0x178] = a1\n 29693: a4 = a4 >> 0x20\n 29696: u64 [s1 + 0x1a8] = a4\n 29700: i32 a2 = 0x80 - a5\n 29704: u64 [s1 + 0x150] = a2\n 29708: a0 = a3\n 29710: ra = 1046, jump @1216\n      : @916 [@dyn 523] (gas: 8)\n 29716: u64 [s1 + 0x198] = a0\n 29720: u64 [s1 + 0x140] = a1\n 29724: a0 = u64 [s1 + 0x1b0]\n 29728: i32 a2 = a0 << 0x3\n 29731: u64 [s1 + 0x1a0] = a2\n 29735: a0 = u64 [s1 + 0x1a8]\n 29739: a1 = 0\n 29741: ra = 1048, jump @1221\n      : @917 [@dyn 524] (gas: 10)\n 29747: u64 [s1 + 0x138] = a1\n 29751: a1 = u64 [s1 + 0x198]\n 29755: a0 = a0 | a1\n 29758: u64 [s1 + 0x1b0] = a0\n 29762: a0 = u64 [s1 + 0x1b8]\n 29766: i32 a2 = a0 + 0xffffffffffffff80\n 29769: u64 [s1 + 0x148] = a2\n 29773: a0 = u64 [s1 + 0x180]\n 29777: a1 = u64 [s1 + 0x178]\n 29781: ra = 1050, jump @1221\n      : @918 [@dyn 525] (gas: 18)\n 29787: a2 = u64 [s1 + 0x1b8]\n 29791: a4 = a2 <u 0x80\n 29795: u64 [s1 + 0x198] = a4\n 29799: a3 = u64 [s1 + 0x1b0]\n 29803: a0 = a3 if a4 != 0\n 29806: a3 = u64 [s1 + 0x1a8]\n 29810: a0 = a3 if a2 == 0\n 29813: u64 [s1 + 0x1b0] = a0\n 29817: a0 = u64 [s1 + 0x140]\n 29821: a3 = u64 [s1 + 0x138]\n 29825: a0 = a0 | a3\n 29828: a0 = a1 if a4 == 0\n 29831: a0 = 0 if a2 == 0\n 29833: u64 [s1 + 0x1a8] = a0\n 29837: a0 = u64 [s1 + 0x180]\n 29841: a1 = u64 [s1 + 0x178]\n 29845: a2 = u64 [s1 + 0x1a0]\n 29849: ra = 1052, jump @1221\n      : @919 [@dyn 526] (gas: 19)\n 29855: a2 = a1\n 29857: a1 = u64 [s1 + 0x198]\n 29861: a0 = 0 if a1 == 0\n 29863: a2 = 0 if a1 == 0\n 29865: a3 = u64 [s1 + 0x188]\n 29869: a1 = u64 [s1 + 0x1a8]\n 29873: a1 = 0 if a3 != 0\n 29875: u64 [s1 + 0x1a8] = a1\n 29879: a1 = u64 [s1 + 0x1b0]\n 29883: a1 = 0 if a3 != 0\n 29885: u64 [s1 + 0x1b0] = a1\n 29889: a2 = 0 if a3 != 0\n 29891: u64 [s1 + 0x180] = a2\n 29895: a0 = 0 if a3 != 0\n 29897: u64 [s1 + 0x178] = a0\n 29901: a0 = 0xffffffffffffffff\n 29904: a1 = 0xffffffffffffffff\n 29907: a2 = u64 [s1 + 0x148]\n 29911: ra = 1054, jump @1221\n      : @920 [@dyn 527] (gas: 6)\n 29917: u64 [s1 + 0x140] = a0\n 29921: u64 [s1 + 0x148] = a1\n 29925: a0 = u64 [s1 + 0xa0]\n 29929: a1 = 0\n 29931: a2 = u64 [s1 + 0x1a0]\n 29935: ra = 1056, jump @1221\n      : @921 [@dyn 528] (gas: 6)\n 29941: u64 [s1 + 0x130] = a0\n 29945: u64 [s1 + 0x138] = a1\n 29949: a0 = 0xffffffffffffffff\n 29952: a1 = 0xffffffffffffffff\n 29955: a2 = u64 [s1 + 0x150]\n 29959: ra = 1058, jump @1216\n      : @922 [@dyn 529] (gas: 19)\n 29965: a3 = u64 [s1 + 0x130]\n 29969: a3 = a3 | a0\n 29972: a2 = u64 [s1 + 0x198]\n 29976: a0 = u64 [s1 + 0x140]\n 29980: a3 = a0 if a2 == 0\n 29983: a0 = u64 [s1 + 0x1b8]\n 29987: a4 = u64 [s1 + 0xa0]\n 29991: a3 = a4 if a0 == 0\n 29994: u64 [s1 + 0x150] = a3\n 29998: a3 = u64 [s1 + 0x138]\n 30002: a3 = a3 | a1\n 30005: a1 = u64 [s1 + 0x148]\n 30009: a3 = a1 if a2 == 0\n 30012: a3 = 0 if a0 == 0\n 30014: u64 [s1 + 0x1b8] = a3\n 30018: a0 = 0xffffffffffffffff\n 30021: a1 = 0xffffffffffffffff\n 30024: a2 = u64 [s1 + 0x1a0]\n 30028: ra = 1060, jump @1221\n      : @923 [@dyn 530] (gas: 39)\n 30034: a2 = u64 [s1 + 0x198]\n 30038: a0 = 0 if a2 == 0\n 30040: a1 = 0 if a2 == 0\n 30042: a2 = u64 [s1 + 0x1b8]\n 30046: a2 = a2 ^ 0xffffffffffffffff\n 30049: a3 = u64 [s1 + 0x150]\n 30053: a3 = a3 ^ 0xffffffffffffffff\n 30056: a1 = a1 ^ 0xffffffffffffffff\n 30059: a0 = a0 ^ 0xffffffffffffffff\n 30062: a5 = u64 [s1 + 0x188]\n 30066: a3 = 0xffffffffffffffff if a5 != 0\n 30069: a2 = 0xffffffffffffffff if a5 != 0\n 30072: a0 = 0xffffffffffffffff if a5 != 0\n 30075: a1 = 0xffffffffffffffff if a5 != 0\n 30078: a4 = u64 [s1 + 0x158]\n 30082: a2 = a2 & a4\n 30085: a4 = u64 [s1 + 0x160]\n 30089: a3 = a3 & a4\n 30092: a4 = u64 [s1 + 0x168]\n 30096: a1 = a1 & a4\n 30099: a4 = u64 [s1 + 0x170]\n 30103: a0 = a0 & a4\n 30106: a4 = u64 [s1 + 0x1b0]\n 30110: a3 = a3 | a4\n 30113: a4 = u64 [s1 + 0x1a8]\n 30117: a2 = a2 | a4\n 30120: a4 = u64 [s1 + 0x178]\n 30124: a0 = a0 | a4\n 30127: a4 = u64 [s1 + 0x180]\n 30131: a1 = a1 | a4\n 30134: a4 = s1 + 0x2138\n 30138: a5 = a4 + 0x700\n 30142: u64 [a5 + 0x10] = a1\n 30145: u64 [a5 + 0x8] = a0\n 30148: u64 [a5 + 0x20] = a2\n 30151: u64 [a5 + 0x18] = a3\n 30154: a1 = s1 + 0x2840\n 30158: a0 = u64 [s1 + 0x190]\n 30162: ra = 1062, jump @23\n      : @924 [@dyn 531] (gas: 3)\n 30168: a0 = s1 + 0x540\n 30172: a1 = 0x40\n 30175: ra = 1064, jump @17\n      : @925 [@dyn 532] (gas: 42)\n 30181: a0 = u64 [s1 + 0x558]\n 30185: u64 [s1 + 0x1b0] = a0\n 30189: a0 = u64 [s1 + 0x550]\n 30193: u64 [s1 + 0x1a8] = a0\n 30197: a0 = u64 [s1 + 0x548]\n 30201: u64 [s1 + 0x1a0] = a0\n 30205: a0 = u64 [s1 + 0x540]\n 30209: u64 [s1 + 0x1b8] = a0\n 30213: a0 = u64 [s1 + 0x108]\n 30217: ecalli 3 // 'caller'\n 30219: a2 = u64 [s1 + 0x120]\n 30223: a0 = u64 [a2 + 0x8]\n 30226: a1 = i32 [a2 + 0x10]\n 30229: a2 = u64 [a2]\n 30231: a3 = reverse a0\n 30233: a0 = a3 << 0x20\n 30236: a1 = reverse a1\n 30238: a1 = a1 >> 0x20\n 30241: t0 = a1 | a0\n 30244: a3 = a3 >> 0x20\n 30247: a1 = reverse a2\n 30249: a2 = a1 << 0x20\n 30252: a2 = a2 | a3\n 30255: a1 = a1 >> 0x20\n 30258: u64 [s1 + 1304] = 0\n 30262: a3 = u64 [0x20038]\n 30267: a4 = u64 [0x20040]\n 30272: a5 = u64 [0x20048]\n 30277: a0 = u64 [0x20050]\n 30282: u64 [s1 + 0x538] = a3\n 30286: a3 = s1 + 0x500\n 30290: u64 [a3 + 0x30] = a4\n 30293: u64 [a3 + 0x28] = a5\n 30296: u64 [a3 + 0x20] = a0\n 30299: u64 [a3 + 0x10] = a1\n 30302: u64 [a3 + 0x8] = a2\n 30305: a2 = s1 + 0x520\n 30309: a3 = s1 + 0x500\n 30313: u64 [s1 + 0x500] = t0\n 30317: a0 = 0\n 30319: a1 = 0\n 30321: ra = 1066, jump @24\n      : @926 [@dyn 533] (gas: 30)\n 30327: a0 = u64 [s1 + 0x108]\n 30331: ecalli 3 // 'caller'\n 30333: a1 = u64 [s1 + 0x120]\n 30337: a0 = u32 [a1 + 0x10]\n 30340: u64 [s1 + 0x190] = a0\n 30344: a0 = u64 [a1 + 0x8]\n 30347: u64 [s1 + 0x188] = a0\n 30351: a0 = u64 [a1]\n 30353: u64 [s1 + 0x198] = a0\n 30357: a0 = u64 [s1 + 0xc8]\n 30361: a4 = s1 + 0x400\n 30365: u64 [a4 + 0xb8] = a0\n 30369: a0 = u64 [s1 + 0xd8]\n 30373: u64 [a4 + 0xb0] = a0\n 30377: a0 = u64 [s1 + 0x110]\n 30381: u64 [a4 + 0xa8] = a0\n 30385: a0 = u64 [s1 + 0x118]\n 30389: u64 [a4 + 0xa0] = a0\n 30393: a0 = u64 [s1 + 0x1b0]\n 30397: u64 [a4 + 0xd8] = a0\n 30401: a0 = u64 [s1 + 0x1a8]\n 30405: u64 [a4 + 0xd0] = a0\n 30409: a0 = u64 [s1 + 0x1a0]\n 30413: u64 [a4 + 0xc8] = a0\n 30417: a0 = s1 + 0x4e0\n 30421: a1 = s1 + 0x4c0\n 30425: a2 = s1 + 0x4a0\n 30429: a3 = u64 [s1 + 0x1b8]\n 30433: u64 [a4 + 0xc0] = a3\n 30437: ra = 1068, jump @1084\n      : @927 [@dyn 534] (gas: 14)\n 30443: a4 = s1 + 0x100\n 30447: a1 = u64 [a4 + 0xa0]\n 30451: a2 = a1\n 30453: a0 = u64 [a4 + 0xb0]\n 30457: a0 = a0 | a1\n 30460: a3 = u64 [a4 + 0xa8]\n 30464: a1 = u64 [a4 + 0xb8]\n 30468: a1 = a1 | a3\n 30471: a1 = a1 | a0\n 30474: a1 = a1 >> 0x20\n 30477: a0 = a0 | a3\n 30480: a0 = a0 << 0x20\n 30483: a0 = a0 | a1\n 30486: jump @929 if a0 != 0\n      : @928 (gas: 34)\n 30489: t0 = a3\n 30491: a4 = s1 + 0x400\n 30495: a0 = u64 [a4 + 0xe8]\n 30499: a1 = u64 [a4 + 0xf8]\n 30503: u64 [s1 + 0x180] = a1\n 30507: t1 = u64 [s1 + 0x4e0]\n 30511: a3 = u64 [a4 + 0xf0]\n 30515: ra = a0 ^ a2\n 30518: a5 = a0 <u a2\n 30521: t2 = u64 [s1 + 0x1b8]\n 30525: a1 = t1 <u t2\n 30528: a5 = a1 if ra == 0\n 30531: a4 = a3 - t0\n 30534: ra = a4 - a5\n 30537: a4 = a4 <u a5\n 30540: u64 [s1 + 0x178] = a4\n 30544: a3 = a3 <u t0\n 30547: a5 = u64 [s1 + 0x1b0]\n 30551: a4 = u64 [s1 + 0x180]\n 30555: a5 = a4 - a5\n 30558: a5 = a5 - a3\n 30561: a3 = u64 [s1 + 0x178]\n 30565: a5 = a5 - a3\n 30568: a0 = a0 - a2\n 30571: a0 = a0 - a1\n 30574: a1 = t1 - t2\n 30577: a0 = a0 | a5\n 30580: a3 = a1 | ra\n 30583: a3 = a3 | a0\n 30586: a0 = a0 | ra\n 30589: a3 = a3 >> 0x20\n 30592: a0 = a0 << 0x20\n 30595: a0 = a0 | a3\n 30598: jump @981 if a0 == 0\n      : @929 (gas: 1)\n 30602: trap\n      : @930 (gas: 4)\n 30603: a1 = 0x20070\n 30608: i32 a1 = a1 + 0\n 30610: a0 = 0x1\n 30613: jump @932\n      : @931 (gas: 6)\n 30615: i32 a1 = a1 + 0\n 30617: a0 = 0x1\n 30620: a2 = 0\n 30622: ecalli 7 // 'seal_return'\n 30624: a1 = 0x20070\n 30629: jump @931\n      : @932 (gas: 4)\n 30631: a2 = 0\n 30633: ecalli 7 // 'seal_return'\n 30635: a1 = 0x20070\n 30640: jump @931\n      : @933 (gas: 2)\n 30642: a1 = 0x20070\n 30647: jump @931\n      : @934 (gas: 2)\n 30649: a1 = 0x20070\n 30654: jump @931\n      : @935 (gas: 6)\n 30656: a1 = 0x20070\n 30661: i32 a1 = a1 + 0\n 30663: a0 = 0x1\n 30666: ecalli 7 // 'seal_return'\n 30668: a1 = 0x20070\n 30673: jump @931\n      : @936 (gas: 2)\n 30675: a1 = 0x20070\n 30680: jump @931\n      : @937 (gas: 2)\n 30682: a1 = 0x20070\n 30687: jump @931\n      : @938 (gas: 2)\n 30689: a1 = 0x20070\n 30694: jump @931\n      : @939 (gas: 2)\n 30696: a1 = 0x20070\n 30701: jump @931\n      : @940 (gas: 2)\n 30703: a1 = 0x20070\n 30708: jump @931\n      : @941 (gas: 2)\n 30710: a1 = 0x20070\n 30715: jump @931\n      : @942 (gas: 2)\n 30717: a1 = 0x20070\n 30722: jump @931\n      : @943 (gas: 2)\n 30724: a1 = 0x20070\n 30729: jump @931\n      : @944 (gas: 5)\n 30731: a0 = s1 + 0x1138\n 30735: u64 [a0 + 856] = 0\n 30739: u64 [a0 + 848] = 0\n 30743: u64 [a0 + 840] = 0\n 30747: t0 = 1070, jump @1199\n      : @945 [@dyn 535] (gas: 5)\n 30753: i32 a1 = a1 + 0x480\n 30757: a1 = a1 + s1\n 30760: u64 [a2 + 0x360] = a0\n 30764: a0 = 0\n 30766: ra = 1072, jump @19\n      : @946 [@dyn 536] (gas: 3)\n 30772: t0 = 0x432\n 30776: a1 = s1 + 0x1138\n 30780: fallthrough\n      : @947 [@dyn 537] (gas: 9)\n 30781: u64 [a1 + 832] = 0\n 30785: u64 [a1 + 824] = 0\n 30789: u64 [a1 + 808] = 0x41\n 30794: a2 = a1\n 30796: a0 = 0x4\n 30799: a1 = s1 + 0x1460\n 30803: u64 [a2 + 816] = 0\n 30807: ra = 0x44a\n 30811: jump @19\n      : @948 (gas: 5)\n 30814: a0 = s1 + 0x1138\n 30818: u64 [a0 + 952] = 0\n 30822: u64 [a0 + 944] = 0\n 30826: u64 [a0 + 936] = 0\n 30830: t0 = 1076, jump @1199\n      : @949 [@dyn 538] (gas: 5)\n 30836: i32 a1 = a1 + 0x4e0\n 30840: a1 = a1 + s1\n 30843: u64 [a2 + 0x3c0] = a0\n 30847: a0 = 0\n 30849: ra = 1078, jump @19\n      : @950 [@dyn 539] (gas: 3)\n 30855: t0 = 0x438\n 30859: a1 = s1 + 0x1138\n 30863: fallthrough\n      : @951 [@dyn 540] (gas: 9)\n 30864: u64 [a1 + 928] = 0\n 30868: u64 [a1 + 920] = 0\n 30872: u64 [a1 + 904] = 0x41\n 30877: a2 = a1\n 30879: a0 = 0x4\n 30882: a1 = s1 + 0x14c0\n 30886: u64 [a2 + 912] = 0\n 30890: ra = 0x44a\n 30894: jump @19\n      : @952 (gas: 6)\n 30897: u64 [s1 + 720] = 0\n 30901: u64 [s1 + 712] = 0\n 30905: u64 [s1 + 704] = 0\n 30909: t0 = 0x43a\n 30913: a0 = 0x4e487b7100000000\n 30923: fallthrough\n      : @953 [@dyn 541] (gas: 4)\n 30924: a1 = s1 + 0x2c0\n 30928: u64 [s1 + 0x2d8] = a0\n 30932: a0 = 0\n 30934: ra = 1084, jump @19\n      : @954 [@dyn 542] (gas: 8)\n 30940: u64 [s1 + 696] = 0\n 30944: u64 [s1 + 688] = 0\n 30948: u64 [s1 + 672] = 0x41\n 30953: a0 = 0x4\n 30956: a1 = s1 + 0x2a0\n 30960: u64 [s1 + 680] = 0\n 30964: ra = 0x45c\n 30968: jump @19\n      : @955 (gas: 5)\n 30971: a0 = s1 + 0x1138\n 30975: u64 [a0 + 1048] = 0\n 30979: u64 [a0 + 1040] = 0\n 30983: u64 [a0 + 1032] = 0\n 30987: t0 = 1086, jump @1199\n      : @956 [@dyn 543] (gas: 5)\n 30993: i32 a1 = a1 + 0x540\n 30997: a1 = a1 + s1\n 31000: u64 [a2 + 0x420] = a0\n 31004: a0 = 0\n 31006: ra = 1088, jump @19\n      : @957 [@dyn 544] (gas: 3)\n 31012: t0 = 0x442\n 31016: a1 = s1 + 0x1138\n 31020: fallthrough\n      : @958 [@dyn 545] (gas: 9)\n 31021: u64 [a1 + 1024] = 0\n 31025: u64 [a1 + 1016] = 0\n 31029: u64 [a1 + 1000] = 0x41\n 31034: a2 = a1\n 31036: a0 = 0x4\n 31039: a1 = s1 + 0x1520\n 31043: u64 [a2 + 1008] = 0\n 31047: ra = 0x44a\n 31051: jump @19\n      : @959 (gas: 5)\n 31054: a0 = s1 + 0x1138\n 31058: u64 [a0 + 1144] = 0\n 31062: u64 [a0 + 1136] = 0\n 31066: u64 [a0 + 1128] = 0\n 31070: t0 = 1092, jump @1199\n      : @960 [@dyn 546] (gas: 5)\n 31076: i32 a1 = a1 + 0x5a0\n 31080: a1 = a1 + s1\n 31083: u64 [a2 + 0x480] = a0\n 31087: a0 = 0\n 31089: ra = 1094, jump @19\n      : @961 [@dyn 547] (gas: 3)\n 31095: t0 = 0x448\n 31099: a1 = s1 + 0x1138\n 31103: fallthrough\n      : @962 [@dyn 548] (gas: 8)\n 31104: u64 [a1 + 1120] = 0\n 31108: u64 [a1 + 1112] = 0\n 31112: u64 [a1 + 1096] = 0x41\n 31117: a2 = a1\n 31119: a0 = 0x4\n 31122: a1 = s1 + 0x1580\n 31126: u64 [a2 + 1104] = 0\n 31130: ra = 1098, jump @19\n      : @963 [@dyn 549] (gas: 3)\n 31136: a0 = u64 [s1 + 0xa8]\n 31140: a0 = i32 [a0]\n 31142: jump @965 if a0 >u 63\n      : @964 (gas: 3)\n 31146: a1 = u64 [s1 + 0xa8]\n 31150: u32 [a1 + 0] = 0x40\n 31153: fallthrough\n      : @965 (gas: 5)\n 31154: a0 = 0x1\n 31157: a2 = 0x24\n 31160: a1 = u64 [s1 + 0xb0]\n 31164: ecalli 7 // 'seal_return'\n 31166: fallthrough\n      : @966 (gas: 6)\n 31167: u64 [s1 + 816] = 0\n 31171: u64 [s1 + 808] = 0\n 31175: u64 [s1 + 800] = 0\n 31179: t0 = 0x44c\n 31183: a0 = 0x4e487b7100000000\n 31193: fallthrough\n      : @967 [@dyn 550] (gas: 4)\n 31194: a1 = s1 + 0x320\n 31198: u64 [s1 + 0x338] = a0\n 31202: a0 = 0\n 31204: ra = 1102, jump @19\n      : @968 [@dyn 551] (gas: 8)\n 31210: u64 [s1 + 792] = 0\n 31214: u64 [s1 + 784] = 0\n 31218: u64 [s1 + 768] = 0x41\n 31223: a0 = 0x4\n 31226: a1 = s1 + 0x300\n 31230: u64 [s1 + 776] = 0\n 31234: ra = 0x45c\n 31238: jump @19\n      : @969 (gas: 6)\n 31241: u64 [s1 + 912] = 0\n 31245: u64 [s1 + 904] = 0\n 31249: u64 [s1 + 896] = 0\n 31253: t0 = 0x450\n 31257: a0 = 0x4e487b7100000000\n 31267: fallthrough\n      : @970 [@dyn 552] (gas: 4)\n 31268: a1 = s1 + 0x380\n 31272: u64 [s1 + 0x398] = a0\n 31276: a0 = 0\n 31278: ra = 1106, jump @19\n      : @971 [@dyn 553] (gas: 8)\n 31284: u64 [s1 + 888] = 0\n 31288: u64 [s1 + 880] = 0\n 31292: u64 [s1 + 864] = 0x41\n 31297: a0 = 0x4\n 31300: a1 = s1 + 0x360\n 31304: u64 [s1 + 872] = 0\n 31308: ra = 0x45c\n 31312: jump @19\n      : @972 (gas: 6)\n 31315: u64 [s1 + 1008] = 0\n 31319: u64 [s1 + 1000] = 0\n 31323: u64 [s1 + 992] = 0\n 31327: t0 = 0x454\n 31331: a0 = 0x4e487b7100000000\n 31341: fallthrough\n      : @973 [@dyn 554] (gas: 4)\n 31342: a1 = s1 + 0x3e0\n 31346: u64 [s1 + 0x3f8] = a0\n 31350: a0 = 0\n 31352: ra = 1110, jump @19\n      : @974 [@dyn 555] (gas: 8)\n 31358: u64 [s1 + 984] = 0\n 31362: u64 [s1 + 976] = 0\n 31366: u64 [s1 + 960] = 0x41\n 31371: a0 = 0x4\n 31374: a1 = s1 + 0x3c0\n 31378: u64 [s1 + 968] = 0\n 31382: ra = 0x45c\n 31386: jump @19\n      : @975 (gas: 6)\n 31389: u64 [s1 + 1104] = 0\n 31393: u64 [s1 + 1096] = 0\n 31397: u64 [s1 + 1088] = 0\n 31401: t0 = 0x458\n 31405: a0 = 0x4e487b7100000000\n 31415: fallthrough\n      : @976 [@dyn 556] (gas: 4)\n 31416: a1 = s1 + 0x440\n 31420: u64 [s1 + 0x458] = a0\n 31424: a0 = 0\n 31426: ra = 1114, jump @19\n      : @977 [@dyn 557] (gas: 7)\n 31432: u64 [s1 + 1080] = 0\n 31436: u64 [s1 + 1072] = 0\n 31440: u64 [s1 + 1056] = 0x41\n 31445: a0 = 0x4\n 31448: a1 = s1 + 0x420\n 31452: u64 [s1 + 1064] = 0\n 31456: ra = 1116, jump @19\n      : @978 [@dyn 558] (gas: 3)\n 31462: a0 = u64 [s1 + 0x100]\n 31466: a0 = i32 [a0]\n 31468: jump @980 if a0 >u 63\n      : @979 (gas: 3)\n 31472: a1 = u64 [s1 + 0x100]\n 31476: u32 [a1 + 0] = 0x40\n 31479: fallthrough\n      : @980 (gas: 5)\n 31480: a0 = 0x1\n 31483: a2 = 0x24\n 31486: a1 = u64 [s1 + 0xf8]\n 31490: ecalli 7 // 'seal_return'\n 31492: fallthrough\n      : @981 (gas: 30)\n 31493: a0 = u64 [s1 + 0x188]\n 31497: a2 = reverse a0\n 31499: a0 = a2 << 0x20\n 31502: a3 = u64 [s1 + 0x190]\n 31506: a3 = reverse a3\n 31508: a3 = a3 >> 0x20\n 31511: t0 = a3 | a0\n 31514: a0 = u64 [s1 + 0x198]\n 31518: a3 = reverse a0\n 31520: a4 = a3 << 0x20\n 31523: a2 = a2 >> 0x20\n 31526: t1 = a4 | a2\n 31529: a3 = a3 >> 0x20\n 31532: u64 [s1 + 1144] = 0\n 31536: a4 = u64 [0x20000]\n 31541: a5 = u64 [0x20008]\n 31546: a0 = u64 [0x20010]\n 31551: a2 = u64 [0x20018]\n 31556: u64 [s1 + 0x498] = a4\n 31560: a4 = s1 + 0x400\n 31564: u64 [a4 + 0x90] = a5\n 31568: u64 [a4 + 0x88] = a0\n 31572: u64 [a4 + 0x80] = a2\n 31576: u64 [a4 + 0x70] = a3\n 31579: u64 [s1 + 0x468] = t1\n 31583: a2 = s1 + 0x480\n 31587: a3 = s1 + 0x460\n 31591: u64 [s1 + 0x460] = t0\n 31595: a0 = u64 [s1 + 0x1b8]\n 31599: ra = 1118, jump @24\n      : @982 [@dyn 559] (gas: 3)\n 31605: a0 = 0\n 31607: a1 = u64 [s1 + 0xf8]\n 31611: jump @932\n      : @983 (gas: 23)\n 31614: sp = sp + 0xffffffffffffff00\n 31618: u64 [sp + 0xf8] = ra\n 31622: u64 [sp + 0xf0] = s0\n 31626: u64 [sp + 0xe8] = s1\n 31630: s0 = sp + 0x100\n 31634: sp = sp & 0xffffffffffffffe0\n 31637: s1 = sp\n 31639: u64 [s1 + 0x18] = a0\n 31642: a0 = u64 [a1]\n 31644: u64 [s1 + 0x28] = a0\n 31647: a0 = u64 [a1 + 0x8]\n 31650: u64 [s1 + 0x20] = a0\n 31653: a0 = u64 [a1 + 0x10]\n 31656: u64 [s1 + 0x30] = a0\n 31659: a0 = u64 [a1 + 0x18]\n 31662: u64 [s1 + 0x38] = a0\n 31665: u64 [s1 + 216] = 0\n 31669: u64 [s1 + 208] = 0\n 31673: u64 [s1 + 200] = 0\n 31677: u64 [s1 + 192] = 0x1\n 31682: a0 = s1 + 0xa0\n 31686: a1 = s1 + 0xc0\n 31690: ra = 1120, jump @21\n      : @984 [@dyn 560] (gas: 20)\n 31696: a0 = u64 [s1 + 0xb8]\n 31700: t0 = u64 [s1 + 0xa0]\n 31704: a2 = u64 [s1 + 0xb0]\n 31708: a3 = u64 [s1 + 0xa8]\n 31712: a1 = u64 [s1 + 0x38]\n 31715: a4 = a0 ^ a1\n 31718: a1 = a1 <u a0\n 31721: a0 = u64 [s1 + 0x30]\n 31724: a5 = a0 <u a2\n 31727: a5 = a1 if a4 != 0\n 31730: a1 = u64 [s1 + 0x20]\n 31733: t1 = a3 ^ a1\n 31736: a3 = a1 <u a3\n 31739: a1 = u64 [s1 + 0x28]\n 31742: a1 = a1 <u t0\n 31745: a1 = a3 if t1 != 0\n 31748: a0 = a0 ^ a2\n 31751: a0 = a0 | a4\n 31754: a1 = a5 if a0 != 0\n 31757: jump @989 if a1 == 0\n      : @985 (gas: 7)\n 31761: u64 [s1 + 88] = 0\n 31764: u64 [s1 + 80] = 0\n 31767: u64 [s1 + 72] = 0\n 31770: a1 = s1 + 0x40\n 31773: u64 [s1 + 64] = 0x1\n 31777: a0 = 0\n 31779: ra = 1122, jump @19\n      : @986 [@dyn 561] (gas: 2)\n 31785: a1 = i32 [0x2005c]\n 31790: jump @988 if a1 >u 31\n      : @987 (gas: 2)\n 31794: u32 [0x2005c] = 0x20\n 31800: fallthrough\n      : @988 (gas: 52)\n 31801: a0 = sp + 0xffffffffffffffe0\n 31804: a2 = a0 & 0xffffffffffffffe0\n 31807: u64 [s1 + 0x10] = a2\n 31810: sp = a2\n 31812: a0 = 0x20070\n 31817: i32 a0 = a0 + 0\n 31819: i32 a2 = a2 + 0\n 31821: a1 = 0x20\n 31824: ecalli 6 // 'hash_keccak_256'\n 31826: a3 = u64 [s1 + 0x10]\n 31829: a0 = u64 [a3]\n 31831: a1 = u64 [a3 + 0x8]\n 31834: a2 = u64 [a3 + 0x18]\n 31837: a3 = u64 [a3 + 0x10]\n 31840: t0 = reverse a0\n 31842: a1 = reverse a1\n 31844: a2 = reverse a2\n 31846: a3 = reverse a3\n 31848: a4 = u64 [s1 + 0x20]\n 31851: a4 = a4 + a3\n 31854: t1 = u64 [s1 + 0x28]\n 31857: t1 = t1 + a2\n 31860: a2 = t1 <u a2\n 31863: a4 = a4 + a2\n 31866: a0 = a4 ^ a3\n 31869: a3 = a4 <u a3\n 31872: a3 = a2 if a0 == 0\n 31875: a0 = u64 [s1 + 0x30]\n 31878: a0 = a0 + a1\n 31881: a3 = a3 + a0\n 31884: a2 = a3 <u a0\n 31887: a5 = u64 [s1 + 0x38]\n 31890: t0 = t0 + a5\n 31893: a0 = a0 <u a1\n 31896: a0 = a0 + t0\n 31899: a0 = a0 + a2\n 31902: a1 = u64 [s1 + 0x18]\n 31905: a2 = 0\n 31907: u64 [a1 + 56] = 0\n 31910: u64 [a1 + 48] = 0\n 31913: u64 [a1 + 40] = 0\n 31916: u64 [a1 + 32] = 0\n 31919: u64 [a1] = t1\n 31921: u64 [a1 + 0x8] = a4\n 31924: u64 [a1 + 0x10] = a3\n 31927: u64 [a1 + 0x18] = a0\n 31930: sp = s0 + 0xffffffffffffff00\n 31934: ra = u64 [sp + 0xf8]\n 31938: s0 = u64 [sp + 0xf0]\n 31942: s1 = u64 [sp + 0xe8]\n 31946: sp = sp + 0x100\n 31950: ret\n      : @989 (gas: 6)\n 31952: u64 [s1 + 144] = 0\n 31956: u64 [s1 + 136] = 0\n 31960: u64 [s1 + 128] = 0\n 31964: t0 = 0x464\n 31968: a0 = 0x4e487b7100000000\n 31978: fallthrough\n      : @990 [@dyn 562] (gas: 4)\n 31979: a1 = s1 + 0x80\n 31983: u64 [s1 + 0x98] = a0\n 31987: a0 = 0\n 31989: ra = 1126, jump @19\n      : @991 [@dyn 563] (gas: 7)\n 31995: u64 [s1 + 120] = 0\n 31998: u64 [s1 + 112] = 0\n 32001: u64 [s1 + 96] = 0x32\n 32005: a0 = 0x4\n 32008: a1 = s1 + 0x60\n 32011: u64 [s1 + 104] = 0\n 32014: ra = 1128, jump @19\n      : @992 [@dyn 564] (gas: 2)\n 32020: a1 = i32 [0x2005c]\n 32025: jump @994 if a1 >u 63\n      : @993 (gas: 2)\n 32029: u32 [0x2005c] = 0x40\n 32035: fallthrough\n      : @994 (gas: 7)\n 32036: a1 = 0x20070\n 32041: i32 a1 = a1 + 0\n 32043: a0 = 0x1\n 32046: a2 = 0x24\n 32049: ra = 0x46a\n 32053: ecalli 7 // 'seal_return'\n 32055: fallthrough\n      : @995 [@dyn 565] (gas: 19)\n 32056: sp = sp + 0xffffffffffffff90\n 32059: u64 [sp + 0x68] = ra\n 32062: u64 [sp + 0x60] = s0\n 32065: s0 = sp + 0x70\n 32068: sp = sp & 0xfffffffffffffff0\n 32071: a3 = u64 [a0 + 0x18]\n 32074: a2 = u64 [a0 + 0x10]\n 32077: t1 = u64 [a0]\n 32079: a0 = u64 [a0 + 0x8]\n 32082: a4 = a3 >u 0\n 32084: a5 = a2 >u 0\n 32086: a5 = a4 if a3 != 0\n 32089: t0 = a0 >u 0\n 32091: a4 = t1 <u 0xffffffffffffff40\n 32095: a4 = a4 ^ 0x1\n 32098: a4 = t0 if a0 != 0\n 32101: a1 = a2 | a3\n 32104: a4 = a5 if a1 != 0\n 32107: jump @998 if a4 != 0\n      : @996 (gas: 15)\n 32110: a1 = t1 + 0xc0\n 32114: a4 = a1 <u t1\n 32117: a5 = a0 + a4\n 32120: a0 = a5 <u a0\n 32123: a0 = a4 if a4 == 0\n 32126: a0 = a0 + a2\n 32129: a2 = a0 <u a2\n 32132: a2 = a2 + a3\n 32135: u64 [sp + 0x40] = a1\n 32138: u64 [sp + 0x48] = a5\n 32141: u64 [sp + 0x50] = a0\n 32144: a0 = 0x40\n 32147: a1 = sp + a0\n 32150: u64 [sp + 0x58] = a2\n 32153: ra = 1132, jump @19\n      : @997 [@dyn 566] (gas: 5)\n 32159: sp = s0 + 0xffffffffffffff90\n 32162: ra = u64 [sp + 0x68]\n 32165: s0 = u64 [sp + 0x60]\n 32168: sp = sp + 0x70\n 32171: ret\n      : @998 (gas: 1)\n 32173: t0 = 1134, jump @1205\n      : @999 [@dyn 567] (gas: 1)\n 32179: ra = 1136, jump @19\n      : @1000 [@dyn 568] (gas: 7)\n 32185: u64 [sp + 24] = 0\n 32188: u64 [sp + 16] = 0\n 32191: u64 [sp + 0] = 0x41\n 32194: a0 = 0x4\n 32197: a1 = sp\n 32199: u64 [sp + 8] = 0\n 32202: ra = 1138, jump @19\n      : @1001 [@dyn 569] (gas: 2)\n 32208: a1 = i32 [0x2005c]\n 32213: jump @1003 if a1 >u 63\n      : @1002 (gas: 2)\n 32217: u32 [0x2005c] = 0x40\n 32223: fallthrough\n      : @1003 (gas: 7)\n 32224: a1 = 0x20070\n 32229: i32 a1 = a1 + 0\n 32231: a0 = 0x1\n 32234: a2 = 0x24\n 32237: ra = 0x474\n 32241: ecalli 7 // 'seal_return'\n 32243: fallthrough\n      : @1004 [@dyn 570] (gas: 46)\n 32244: sp = sp + 0xffffffffffffff70\n 32248: u64 [sp + 0x88] = ra\n 32252: u64 [sp + 0x80] = s0\n 32256: u64 [sp + 0x78] = s1\n 32259: s0 = sp + 0x90\n 32263: sp = sp & 0xfffffffffffffff0\n 32266: t0 = a0\n 32268: a2 = u64 [a1]\n 32270: t2 = u64 [a0 + 0x8]\n 32273: a5 = u64 [a1 + 0x8]\n 32276: t1 = u64 [a0]\n 32278: a3 = a2 + 0x1f\n 32281: ra = a3 <u a2\n 32284: a2 = a5 + ra\n 32287: a3 = a3 & 0xffffffffffffffe0\n 32290: u64 [sp + 0x8] = t1\n 32293: t1 = t1 + a3\n 32296: a4 = t1 <u a3\n 32299: a3 = a2 + t2\n 32302: a3 = a3 + a4\n 32305: s1 = a3 ^ a2\n 32308: a0 = a3 <u a2\n 32311: a0 = a4 if s1 == 0\n 32314: a4 = u64 [t0 + 0x18]\n 32317: a5 = a2 <u a5\n 32320: s1 = u64 [a1 + 0x10]\n 32323: t0 = u64 [t0 + 0x10]\n 32326: a1 = u64 [a1 + 0x18]\n 32329: a5 = ra if ra == 0\n 32332: a5 = a5 + s1\n 32335: s1 = a5 <u s1\n 32338: a2 = a5 + t0\n 32341: a0 = a0 + a2\n 32344: a5 = a2 <u a5\n 32347: a2 = a0 <u a2\n 32350: a1 = a1 + a4\n 32353: a1 = a1 + s1\n 32356: a1 = a1 + a5\n 32359: a5 = a1 + a2\n 32362: a1 = a5 >u 0\n 32364: a2 = a0 >u 0\n 32366: a2 = a1 if a5 != 0\n 32369: a1 = a0 | a5\n 32372: s1 = a3 >u 0\n 32374: s1 = a2 if a1 != 0\n 32377: jump @1008 if s1 != 0\n      : @1005 (gas: 13)\n 32380: a1 = u64 [sp + 0x8]\n 32383: a1 = t1 <u a1\n 32386: a2 = a3 ^ t2\n 32389: s1 = a3 <u t2\n 32392: s1 = a1 if a2 == 0\n 32395: a1 = a0 <u t0\n 32398: a2 = a5 ^ a4\n 32401: a4 = a5 <u a4\n 32404: a4 = a1 if a2 == 0\n 32407: a1 = a0 ^ t0\n 32410: a1 = a1 | a2\n 32413: a4 = s1 if a1 == 0\n 32416: jump @1008 if a4 != 0\n      : @1006 (gas: 7)\n 32419: u64 [sp + 0x50] = t1\n 32422: u64 [sp + 0x58] = a3\n 32425: u64 [sp + 0x60] = a0\n 32428: a0 = 0x40\n 32431: a1 = sp + 0x50\n 32434: u64 [sp + 0x68] = a5\n 32437: ra = 1142, jump @19\n      : @1007 [@dyn 571] (gas: 6)\n 32443: sp = s0 + 0xffffffffffffff70\n 32447: ra = u64 [sp + 0x88]\n 32451: s0 = u64 [sp + 0x80]\n 32455: s1 = u64 [sp + 0x78]\n 32458: sp = sp + 0x90\n 32462: ret\n      : @1008 (gas: 6)\n 32464: u64 [sp + 64] = 0\n 32467: u64 [sp + 56] = 0\n 32470: u64 [sp + 48] = 0\n 32473: t0 = 0x478\n 32477: a0 = 0x4e487b7100000000\n 32487: fallthrough\n      : @1009 [@dyn 572] (gas: 4)\n 32488: a1 = sp + 0x30\n 32491: u64 [sp + 0x48] = a0\n 32494: a0 = 0\n 32496: ra = 1146, jump @19\n      : @1010 [@dyn 573] (gas: 7)\n 32502: u64 [sp + 40] = 0\n 32505: u64 [sp + 32] = 0\n 32508: u64 [sp + 16] = 0x41\n 32512: a0 = 0x4\n 32515: a1 = sp + 0x10\n 32518: u64 [sp + 24] = 0\n 32521: ra = 1148, jump @19\n      : @1011 [@dyn 574] (gas: 2)\n 32527: a1 = i32 [0x2005c]\n 32532: jump @1013 if a1 >u 63\n      : @1012 (gas: 2)\n 32536: u32 [0x2005c] = 0x40\n 32542: fallthrough\n      : @1013 (gas: 7)\n 32543: a1 = 0x20070\n 32548: i32 a1 = a1 + 0\n 32550: a0 = 0x1\n 32553: a2 = 0x24\n 32556: ra = 0x47e\n 32560: ecalli 7 // 'seal_return'\n 32562: fallthrough\n      : @1014 [@dyn 575] (gas: 37)\n 32563: sp = sp + 0xfffffffffffffe40\n 32567: u64 [sp + 0x1b8] = ra\n 32571: u64 [sp + 0x1b0] = s0\n 32575: u64 [sp + 0x1a8] = s1\n 32579: s0 = sp + 0x1c0\n 32583: sp = sp & 0xffffffffffffffe0\n 32586: ra = u64 [a1]\n 32588: a4 = u64 [a2 + 0x8]\n 32591: t2 = u64 [a1 + 0x8]\n 32594: s1 = u64 [a2]\n 32596: a3 = ra + 0x1f\n 32599: t0 = a3 <u ra\n 32602: a5 = t2 + t0\n 32605: u64 [sp + 0x30] = s1\n 32608: t1 = a3 <u s1\n 32611: a3 = a5 ^ a4\n 32614: u64 [sp + 0x40] = a4\n 32617: a4 = a5 <u a4\n 32620: a4 = t1 if a3 == 0\n 32623: s1 = u64 [a1 + 0x10]\n 32626: a3 = a5 <u t2\n 32629: a3 = t0 if t0 == 0\n 32632: a5 = u64 [a2 + 0x18]\n 32635: t0 = u64 [a1 + 0x18]\n 32638: t1 = u64 [a2 + 0x10]\n 32641: a3 = a3 + s1\n 32644: a1 = a3 <u s1\n 32647: a1 = a1 + t0\n 32650: a2 = a1 ^ a5\n 32653: u64 [sp + 0x20] = a5\n 32656: a1 = a1 <s a5\n 32659: a5 = a3 <u t1\n 32662: a1 = a5 if a2 == 0\n 32665: a3 = a3 ^ t1\n 32668: a2 = a2 | a3\n 32671: a4 = a1 if a2 != 0\n 32674: jump @1032 if a4 == 0\n      : @1015 (gas: 13)\n 32678: u64 [sp + 0x18] = a0\n 32681: u64 [sp + 0x28] = t1\n 32684: a0 = ra | s1\n 32687: u64 [sp + 0x50] = t2\n 32690: u64 [sp + 0x38] = t0\n 32693: a1 = t2 | t0\n 32696: a0 = a0 | a1\n 32699: a0 = a0 >> 0x20\n 32702: u64 [sp + 0x48] = s1\n 32705: a1 = a1 | s1\n 32708: a1 = a1 << 0x20\n 32711: a0 = a0 | a1\n 32714: jump @1031 if a0 != 0\n      : @1016 (gas: 6)\n 32718: u64 [sp + 0x60] = ra\n 32721: i32 a1 = ra + 0\n 32723: i32 a0 = sp + 0x180\n 32727: u64 [sp + 0x10] = a1\n 32730: ecalli 1 // 'call_data_load'\n 32732: fallthrough\n      : @1017 (gas: 13)\n 32733: a2 = u64 [sp + 0x198]\n 32737: a3 = u64 [sp + 0x190]\n 32741: a4 = u64 [sp + 0x188]\n 32745: a0 = a2 >u 0\n 32747: a1 = a3 >u 0\n 32749: a1 = a0 if a2 != 0\n 32752: u64 [sp + 0x90] = a2\n 32756: u64 [sp + 0x88] = a3\n 32760: a0 = a3 | a2\n 32763: u64 [sp + 0x98] = a4\n 32767: a2 = a4 >u 0\n 32769: a2 = a1 if a0 != 0\n 32772: jump @1033 if a2 != 0\n      : @1018 (gas: 4)\n 32776: s1 = u64 [sp + 0x180]\n 32780: a0 = sp + 0x160\n 32784: a1 = 0x40\n 32787: ra = 1152, jump @17\n      : @1019 [@dyn 576] (gas: 31)\n 32793: t0 = u64 [sp + 0x178]\n 32797: a5 = u64 [sp + 0x170]\n 32801: u64 [sp + 0x78] = a5\n 32804: t1 = u64 [sp + 0x168]\n 32808: u64 [sp + 0x80] = t1\n 32812: t2 = u64 [sp + 0x160]\n 32816: u64 [sp + 0x70] = t2\n 32819: a0 = s1 + 0x1f\n 32822: u64 [sp + 0x58] = s1\n 32825: a1 = a0 <u s1\n 32828: a2 = u64 [sp + 0x98]\n 32832: a1 = a1 + a2\n 32835: a1 = a1 & 0x1\n 32838: a0 = a0 & 0xffffffffffffffe0\n 32841: a2 = a0 + 0x20\n 32844: a0 = a2 <u a0\n 32847: a3 = a1 + a0\n 32850: a4 = a3 <u a1\n 32853: a4 = a0 if a0 == 0\n 32856: u64 [sp + 312] = 0\n 32860: u64 [sp + 0x120] = a2\n 32864: s1 = t0\n 32866: u64 [sp + 0x158] = t0\n 32870: u64 [sp + 0x150] = a5\n 32874: u64 [sp + 0x148] = t1\n 32878: u64 [sp + 0x140] = t2\n 32882: u64 [sp + 0x128] = a3\n 32886: a0 = sp + 0x140\n 32890: a1 = sp + 0x120\n 32894: u64 [sp + 0x130] = a4\n 32898: ra = 1154, jump @1004\n      : @1020 [@dyn 577] (gas: 12)\n 32904: a2 = u64 [sp + 0x70]\n 32907: u64 [sp + 0x68] = s1\n 32910: a1 = u64 [sp + 0x80]\n 32914: a0 = a1 | s1\n 32917: a3 = u64 [sp + 0x78]\n 32920: a1 = a2 | a3\n 32923: a1 = a1 | a0\n 32926: a1 = a1 >> 0x20\n 32929: a0 = a0 | a3\n 32932: a0 = a0 << 0x20\n 32935: a0 = a0 | a1\n 32938: jump @1031 if a0 != 0\n      : @1021 (gas: 11)\n 32942: s1 = u64 [sp + 0x58]\n 32945: u64 [sp + 0x100] = s1\n 32949: a0 = u64 [sp + 0x98]\n 32953: u64 [sp + 0x108] = a0\n 32957: a0 = u64 [sp + 0x88]\n 32961: u64 [sp + 0x110] = a0\n 32965: a1 = sp + 0x100\n 32969: a0 = u64 [sp + 0x90]\n 32973: u64 [sp + 0x118] = a0\n 32977: a0 = a2\n 32979: ra = 1156, jump @19\n      : @1022 [@dyn 578] (gas: 46)\n 32985: a0 = u64 [sp + 0x60]\n 32988: a3 = a0 + s1\n 32991: a2 = a3 <u a0\n 32994: t2 = u64 [sp + 0x50]\n 32997: a0 = u64 [sp + 0x98]\n 33001: a0 = a0 + t2\n 33004: a0 = a0 + a2\n 33007: a4 = a0 ^ t2\n 33010: a1 = a0 <u t2\n 33013: a1 = a2 if a4 == 0\n 33016: ra = u64 [sp + 0x48]\n 33019: a2 = u64 [sp + 0x88]\n 33023: a2 = a2 + ra\n 33026: a5 = a3 + 0x20\n 33029: t0 = a5 <u a3\n 33032: a4 = a0 + t0\n 33035: a3 = u64 [sp + 0x30]\n 33038: a5 = a3 <u a5\n 33041: a3 = u64 [sp + 0x40]\n 33044: s1 = a4 ^ a3\n 33047: a3 = a3 <u a4\n 33050: a5 = a3 if s1 != 0\n 33053: a3 = a2 <u ra\n 33056: t1 = u64 [sp + 0x38]\n 33059: s1 = u64 [sp + 0x90]\n 33063: s1 = s1 + t1\n 33066: a3 = a3 + s1\n 33069: a1 = a1 + a2\n 33072: a2 = a1 <u a2\n 33075: a2 = a2 + a3\n 33078: a0 = a4 <u a0\n 33081: a0 = t0 if t0 == 0\n 33084: a0 = a0 + a1\n 33087: a1 = a0 <u a1\n 33090: a1 = a1 + a2\n 33093: a3 = u64 [sp + 0x20]\n 33096: a2 = a1 ^ a3\n 33099: a1 = a3 <u a1\n 33102: a4 = u64 [sp + 0x28]\n 33105: a3 = a4 <u a0\n 33108: a1 = a3 if a2 == 0\n 33111: a0 = a0 ^ a4\n 33114: a0 = a0 | a2\n 33117: a5 = a1 if a0 != 0\n 33120: a3 = u64 [sp + 0x98]\n 33124: jump @1039 if a5 != 0\n      : @1023 (gas: 7)\n 33128: a0 = ra | t1\n 33131: a1 = 0xffffffe0\n 33141: a2 = u64 [sp + 0x60]\n 33144: a1 = a2 <u a1\n 33147: a1 = 0 if t2 != 0\n 33149: a1 = 0 if a0 != 0\n 33151: jump @1031 if a1 == 0\n      : @1024 (gas: 15)\n 33155: a2 = u64 [sp + 0x88]\n 33159: a5 = u64 [sp + 0x58]\n 33162: a0 = a5 | a2\n 33165: a1 = u64 [sp + 0x90]\n 33169: a1 = a1 | a3\n 33172: a0 = a0 | a1\n 33175: a0 = a0 >> 0x20\n 33178: a1 = a1 | a2\n 33181: a1 = a1 << 0x20\n 33184: a0 = a0 | a1\n 33187: s1 = u64 [sp + 0x70]\n 33190: a2 = u64 [sp + 0x80]\n 33194: a3 = u64 [sp + 0x78]\n 33197: a4 = u64 [sp + 0x68]\n 33200: jump @1031 if a0 != 0\n      : @1025 (gas: 7)\n 33204: a0 = a3 | a4\n 33207: a1 = 0xffffffe0\n 33217: u64 [sp + 0x60] = a1\n 33220: a1 = s1 <u a1\n 33223: a1 = 0 if a2 != 0\n 33225: a1 = 0 if a0 != 0\n 33227: jump @1031 if a1 == 0\n      : @1026 (gas: 7)\n 33231: a0 = u64 [sp + 0x10]\n 33234: i32 a0 = a0 + 0x20\n 33237: u64 [sp + 0x50] = a0\n 33240: i32 a0 = s1 + 0x20\n 33243: a1 = a5\n 33245: s1 = a5\n 33247: ra = 1158, jump @26\n      : @1027 [@dyn 579] (gas: 5)\n 33253: i32 a0 = a0 + 0\n 33255: i32 a1 = s1 + 0\n 33257: a2 = u64 [sp + 0x50]\n 33260: ecalli 0 // 'call_data_copy'\n 33261: fallthrough\n      : @1028 (gas: 27)\n 33262: t0 = u64 [sp + 0x70]\n 33265: a0 = t0 + s1\n 33268: a1 = a0 <u t0\n 33271: a2 = u64 [sp + 0x98]\n 33275: a4 = u64 [sp + 0x80]\n 33279: a2 = a2 + a4\n 33282: a2 = a2 + a1\n 33285: a3 = a2 ^ a4\n 33288: a4 = a2 <u a4\n 33291: a4 = a1 if a3 == 0\n 33294: a1 = u64 [sp + 0x88]\n 33298: a3 = u64 [sp + 0x78]\n 33301: a1 = a1 + a3\n 33304: a3 = a1 <u a3\n 33307: a5 = u64 [sp + 0x90]\n 33311: s1 = u64 [sp + 0x68]\n 33314: a5 = a5 + s1\n 33317: a3 = a3 + a5\n 33320: a4 = a4 + a1\n 33323: a1 = a4 <u a1\n 33326: a1 = a1 + a3\n 33329: a1 = a1 | a4\n 33332: a3 = u64 [sp + 0x60]\n 33335: a3 = a0 <u a3\n 33338: a3 = 0 if a2 != 0\n 33340: a3 = 0 if a1 != 0\n 33342: jump @1031 if a3 == 0\n      : @1029 (gas: 8)\n 33345: s1 = t0\n 33347: i32 a0 = a0 + 0x20\n 33350: u64 [sp + 248] = 0\n 33354: u64 [sp + 240] = 0\n 33358: u64 [sp + 232] = 0\n 33362: a1 = sp + 0xe0\n 33366: u64 [sp + 224] = 0\n 33370: ra = 1160, jump @19\n      : @1030 [@dyn 580] (gas: 14)\n 33377: a0 = u64 [sp + 0x18]\n 33380: a1 = u64 [sp + 0x68]\n 33383: u64 [a0 + 0x18] = a1\n 33386: a1 = u64 [sp + 0x78]\n 33389: u64 [a0 + 0x10] = a1\n 33392: a1 = u64 [sp + 0x80]\n 33396: u64 [a0 + 0x8] = a1\n 33399: u64 [a0] = s1\n 33401: sp = s0 + 0xfffffffffffffe40\n 33405: ra = u64 [sp + 0x1b8]\n 33409: s0 = u64 [sp + 0x1b0]\n 33413: s1 = u64 [sp + 0x1a8]\n 33417: sp = sp + 0x1c0\n 33421: ret\n      : @1031 (gas: 1)\n 33423: trap\n      : @1032 (gas: 2)\n 33424: a1 = 0x20070\n 33429: jump @1040\n      : @1033 (gas: 6)\n 33431: u64 [sp + 208] = 0\n 33435: u64 [sp + 200] = 0\n 33439: u64 [sp + 192] = 0\n 33443: t0 = 0x48a\n 33447: a0 = 0x4e487b7100000000\n 33457: fallthrough\n      : @1034 [@dyn 581] (gas: 4)\n 33458: a1 = sp + 0xc0\n 33462: u64 [sp + 0xd8] = a0\n 33466: a0 = 0\n 33468: ra = 1164, jump @19\n      : @1035 [@dyn 582] (gas: 7)\n 33475: u64 [sp + 184] = 0\n 33479: u64 [sp + 176] = 0\n 33483: u64 [sp + 160] = 0x41\n 33488: a0 = 0x4\n 33491: a1 = sp + 0xa0\n 33495: u64 [sp + 168] = 0\n 33499: ra = 1166, jump @19\n      : @1036 [@dyn 583] (gas: 2)\n 33506: a1 = i32 [0x2005c]\n 33511: jump @1038 if a1 >u 63\n      : @1037 (gas: 2)\n 33515: u32 [0x2005c] = 0x40\n 33521: fallthrough\n      : @1038 (gas: 7)\n 33522: a1 = 0x20070\n 33527: i32 a1 = a1 + 0\n 33529: a0 = 0x1\n 33532: a2 = 0x24\n 33535: ecalli 7 // 'seal_return'\n 33537: a1 = 0x20070\n 33542: jump @1040\n      : @1039 (gas: 2)\n 33544: a1 = 0x20070\n 33549: fallthrough\n      : @1040 (gas: 6)\n 33550: i32 a1 = a1 + 0\n 33552: a0 = 0x1\n 33555: a2 = 0\n 33557: ra = 0x490\n 33561: ecalli 7 // 'seal_return'\n 33563: fallthrough\n      : @1041 [@dyn 584] (gas: 38)\n 33564: sp = sp + 0xfffffffffffffd20\n 33568: a2 = sp + 0x200\n 33572: u64 [a2 + 0xd8] = ra\n 33576: u64 [a2 + 0xd0] = s0\n 33580: u64 [a2 + 0xc8] = s1\n 33584: s0 = sp + 0x2e0\n 33588: sp = sp & 0xffffffffffffffe0\n 33591: a2 = u64 [a1]\n 33593: s1 = u64 [a1 + 0x18]\n 33596: a5 = u64 [a1 + 0x8]\n 33599: a1 = u64 [a1 + 0x10]\n 33602: t0 = a2 + 0xfffffffffffffffc\n 33605: u64 [sp + 0x90] = a2\n 33609: a2 = t0 <u a2\n 33612: a3 = a5 + a2\n 33615: a3 = a3 + 0xffffffffffffffff\n 33618: a4 = a3 ^ a5\n 33621: u64 [sp + 0x80] = a5\n 33625: a5 = a3 <u a5\n 33628: a5 = a2 if a4 == 0\n 33631: a2 = a1 + 0xffffffffffffffff\n 33634: a5 = a5 + a2\n 33637: a2 = a5 <u a2\n 33640: u64 [sp + 0x88] = a1\n 33644: a4 = a1 <u 0x1\n 33647: u64 [sp + 0x98] = s1\n 33651: a4 = s1 - a4\n 33654: a2 = a2 + a4\n 33657: a4 = a2 >s 0\n 33659: s1 = a5 >u 0\n 33661: s1 = a4 if a2 != 0\n 33664: a2 = a2 | a5\n 33667: a4 = a3 >u 0\n 33669: a1 = t0 <u 0xa0\n 33673: a1 = a1 ^ 0x1\n 33676: a1 = a4 if a3 != 0\n 33679: a1 = s1 if a2 != 0\n 33682: jump @1063 if a1 == 0\n      : @1042 (gas: 6)\n 33686: s1 = a0\n 33688: i32 a0 = sp + 0x220\n 33692: a1 = 0x4\n 33695: ra = 0x492\n 33699: ecalli 1 // 'call_data_load'\n 33701: fallthrough\n      : @1043 [@dyn 585] (gas: 5)\n 33702: a3 = sp + 0x200\n 33706: a0 = u64 [a3 + 0x38]\n 33709: a1 = u64 [a3 + 0x30]\n 33712: a2 = u64 [a3 + 0x28]\n 33715: t0 = 1172, jump @1211\n      : @1044 [@dyn 586] (gas: 1)\n 33721: jump @1064 if a4 == 0\n      : @1045 (gas: 2)\n 33725: a3 = u64 [sp + 0x220]\n 33729: t0 = 1174, jump @1163\n      : @1046 [@dyn 587] (gas: 15)\n 33735: u64 [sp + 0x1c0] = a0\n 33739: a0 = u64 [sp + 0x80]\n 33743: u64 [sp + 0x1c8] = a0\n 33747: u64 [sp + 0x1e0] = a4\n 33751: a0 = u64 [sp + 0x88]\n 33755: u64 [sp + 0x1d0] = a0\n 33759: a0 = u64 [sp + 0x98]\n 33763: u64 [sp + 0x1d8] = a0\n 33767: u64 [sp + 0x1e8] = a5\n 33771: u64 [sp + 0x1f0] = a2\n 33775: a0 = sp + 0x200\n 33779: a1 = sp + 0x1e0\n 33783: a2 = sp + 0x1c0\n 33787: u64 [sp + 0x1f8] = a3\n 33791: ra = 1176, jump @1014\n      : @1047 [@dyn 588] (gas: 26)\n 33797: a1 = sp + 0x200\n 33801: a0 = u64 [a1 + 0x18]\n 33804: u64 [sp + 0x70] = a0\n 33807: a0 = u64 [a1 + 0x10]\n 33810: u64 [sp + 0x60] = a0\n 33813: a0 = u64 [a1 + 0x8]\n 33816: u64 [sp + 0x78] = a0\n 33819: a0 = u64 [a1]\n 33821: u64 [sp + 0x68] = a0\n 33824: i32 a0 = sp + 0x240\n 33828: a1 = 0x24\n 33831: ecalli 1 // 'call_data_load'\n 33833: a1 = sp + 0x200\n 33837: a0 = u64 [a1 + 0x58]\n 33840: u64 [sp + 0x50] = a0\n 33843: a0 = u64 [a1 + 0x50]\n 33846: u64 [sp + 0x40] = a0\n 33849: a0 = u64 [a1 + 0x48]\n 33852: u64 [sp + 0x58] = a0\n 33855: a0 = u64 [a1 + 0x40]\n 33858: u64 [sp + 0x48] = a0\n 33861: i32 a0 = sp + 0x260\n 33865: a1 = 0x44\n 33868: ra = 0x49a\n 33872: ecalli 1 // 'call_data_load'\n 33874: fallthrough\n      : @1048 [@dyn 589] (gas: 5)\n 33875: a3 = sp + 0x200\n 33879: a0 = u64 [a3 + 0x78]\n 33882: a1 = u64 [a3 + 0x70]\n 33885: a2 = u64 [a3 + 0x68]\n 33888: t0 = 1180, jump @1211\n      : @1049 [@dyn 590] (gas: 1)\n 33894: jump @1065 if a4 == 0\n      : @1050 (gas: 2)\n 33898: a3 = u64 [sp + 0x260]\n 33902: t0 = 1182, jump @1163\n      : @1051 [@dyn 591] (gas: 15)\n 33908: u64 [sp + 0x160] = a0\n 33912: a0 = u64 [sp + 0x80]\n 33916: u64 [sp + 0x168] = a0\n 33920: u64 [sp + 0x180] = a4\n 33924: a0 = u64 [sp + 0x88]\n 33928: u64 [sp + 0x170] = a0\n 33932: a0 = u64 [sp + 0x98]\n 33936: u64 [sp + 0x178] = a0\n 33940: u64 [sp + 0x188] = a5\n 33944: u64 [sp + 0x190] = a2\n 33948: a0 = sp + 0x1a0\n 33952: a1 = sp + 0x180\n 33956: a2 = sp + 0x160\n 33960: u64 [sp + 0x198] = a3\n 33964: ra = 1184, jump @1014\n      : @1052 [@dyn 592] (gas: 13)\n 33970: a0 = u64 [sp + 0x1b8]\n 33974: u64 [sp + 0x30] = a0\n 33977: a0 = u64 [sp + 0x1b0]\n 33981: u64 [sp + 0x20] = a0\n 33984: a0 = u64 [sp + 0x1a8]\n 33988: u64 [sp + 0x38] = a0\n 33991: a0 = u64 [sp + 0x1a0]\n 33995: u64 [sp + 0x28] = a0\n 33998: i32 a0 = sp + 0x280\n 34002: a1 = 0x64\n 34005: ra = 0x4a2\n 34009: ecalli 1 // 'call_data_load'\n 34011: fallthrough\n      : @1053 [@dyn 593] (gas: 5)\n 34012: a3 = sp + 0x200\n 34016: a0 = u64 [a3 + 0x98]\n 34020: a1 = u64 [a3 + 0x90]\n 34024: a2 = u64 [a3 + 0x88]\n 34028: t0 = 1188, jump @1211\n      : @1054 [@dyn 594] (gas: 1)\n 34034: jump @1066 if a4 == 0\n      : @1055 (gas: 2)\n 34038: a3 = u64 [sp + 0x280]\n 34042: t0 = 1190, jump @1163\n      : @1056 [@dyn 595] (gas: 15)\n 34048: u64 [sp + 0x100] = a0\n 34052: a0 = u64 [sp + 0x80]\n 34056: u64 [sp + 0x108] = a0\n 34060: u64 [sp + 0x120] = a4\n 34064: a0 = u64 [sp + 0x88]\n 34068: u64 [sp + 0x110] = a0\n 34072: a0 = u64 [sp + 0x98]\n 34076: u64 [sp + 0x118] = a0\n 34080: u64 [sp + 0x128] = a5\n 34084: u64 [sp + 0x130] = a2\n 34088: a0 = sp + 0x140\n 34092: a1 = sp + 0x120\n 34096: a2 = sp + 0x100\n 34100: u64 [sp + 0x138] = a3\n 34104: ra = 1192, jump @1014\n      : @1057 [@dyn 596] (gas: 13)\n 34110: a0 = u64 [sp + 0x158]\n 34114: u64 [sp + 0x10] = a0\n 34117: a0 = u64 [sp + 0x150]\n 34121: u64 [sp] = a0\n 34123: a0 = u64 [sp + 0x148]\n 34127: u64 [sp + 0x18] = a0\n 34130: a0 = u64 [sp + 0x140]\n 34134: u64 [sp + 0x8] = a0\n 34137: i32 a0 = sp + 0x2a0\n 34141: a1 = 0x84\n 34145: ra = 0x4aa\n 34149: ecalli 1 // 'call_data_load'\n 34151: fallthrough\n      : @1058 [@dyn 597] (gas: 5)\n 34152: a3 = sp + 0x200\n 34156: a0 = u64 [a3 + 0xb8]\n 34160: a1 = u64 [a3 + 0xb0]\n 34164: a2 = u64 [a3 + 0xa8]\n 34168: t0 = 1196, jump @1211\n      : @1059 [@dyn 598] (gas: 1)\n 34174: jump @1067 if a4 == 0\n      : @1060 (gas: 2)\n 34178: a3 = u64 [sp + 0x2a0]\n 34182: t0 = 1198, jump @1163\n      : @1061 [@dyn 599] (gas: 15)\n 34188: u64 [sp + 0xa0] = a0\n 34192: a0 = u64 [sp + 0x80]\n 34196: u64 [sp + 0xa8] = a0\n 34200: u64 [sp + 0xc0] = a4\n 34204: a0 = u64 [sp + 0x88]\n 34208: u64 [sp + 0xb0] = a0\n 34212: a0 = u64 [sp + 0x98]\n 34216: u64 [sp + 0xb8] = a0\n 34220: u64 [sp + 0xc8] = a5\n 34224: u64 [sp + 0xd0] = a2\n 34228: a0 = sp + 0xe0\n 34232: a1 = sp + 0xc0\n 34236: a2 = sp + 0xa0\n 34240: u64 [sp + 0xd8] = a3\n 34244: ra = 1200, jump @1014\n      : @1062 [@dyn 600] (gas: 47)\n 34250: a0 = u64 [sp + 0xf0]\n 34254: a1 = u64 [sp + 0xf8]\n 34258: a2 = u64 [sp + 0xe0]\n 34262: a3 = u64 [sp + 0xe8]\n 34266: u64 [s1 + 0x90] = a0\n 34270: u64 [s1 + 0x98] = a1\n 34274: u64 [s1 + 0x80] = a2\n 34278: u64 [s1 + 0x88] = a3\n 34282: a0 = u64 [sp]\n 34284: u64 [s1 + 0x70] = a0\n 34287: a0 = u64 [sp + 0x10]\n 34290: u64 [s1 + 0x78] = a0\n 34293: a0 = u64 [sp + 0x8]\n 34296: u64 [s1 + 0x60] = a0\n 34299: a0 = u64 [sp + 0x18]\n 34302: u64 [s1 + 0x68] = a0\n 34305: a0 = u64 [sp + 0x20]\n 34308: u64 [s1 + 0x50] = a0\n 34311: a0 = u64 [sp + 0x30]\n 34314: u64 [s1 + 0x58] = a0\n 34317: a0 = u64 [sp + 0x28]\n 34320: u64 [s1 + 0x40] = a0\n 34323: a0 = u64 [sp + 0x38]\n 34326: u64 [s1 + 0x48] = a0\n 34329: a0 = u64 [sp + 0x40]\n 34332: u64 [s1 + 0x30] = a0\n 34335: a0 = u64 [sp + 0x50]\n 34338: u64 [s1 + 0x38] = a0\n 34341: a0 = u64 [sp + 0x48]\n 34344: u64 [s1 + 0x20] = a0\n 34347: a0 = u64 [sp + 0x58]\n 34350: u64 [s1 + 0x28] = a0\n 34353: a0 = u64 [sp + 0x60]\n 34356: u64 [s1 + 0x10] = a0\n 34359: a0 = u64 [sp + 0x70]\n 34362: u64 [s1 + 0x18] = a0\n 34365: a0 = u64 [sp + 0x68]\n 34368: u64 [s1] = a0\n 34370: a0 = u64 [sp + 0x78]\n 34373: u64 [s1 + 0x8] = a0\n 34376: sp = s0 + 0xfffffffffffffd20\n 34380: a0 = sp + 0x200\n 34384: ra = u64 [a0 + 0xd8]\n 34388: s0 = u64 [a0 + 0xd0]\n 34392: s1 = u64 [a0 + 0xc8]\n 34396: sp = sp + 0x2e0\n 34400: ret\n      : @1063 (gas: 2)\n 34402: a1 = 0x20070\n 34407: jump @1068\n      : @1064 (gas: 2)\n 34409: a1 = 0x20070\n 34414: jump @1068\n      : @1065 (gas: 2)\n 34416: a1 = 0x20070\n 34421: jump @1068\n      : @1066 (gas: 2)\n 34423: a1 = 0x20070\n 34428: jump @1068\n      : @1067 (gas: 2)\n 34430: a1 = 0x20070\n 34435: fallthrough\n      : @1068 (gas: 6)\n 34436: i32 a1 = a1 + 0\n 34438: a0 = 0x1\n 34441: a2 = 0\n 34443: ra = 0x4b2\n 34447: ecalli 7 // 'seal_return'\n 34449: fallthrough\n      : @1069 [@dyn 601] (gas: 21)\n 34450: sp = sp + 0xffffffffffffff10\n 34454: u64 [sp + 0xe8] = ra\n 34458: u64 [sp + 0xe0] = s0\n 34462: u64 [sp + 0xd8] = s1\n 34466: s0 = sp + 0xf0\n 34470: sp = sp & 0xfffffffffffffff0\n 34473: a5 = u64 [a1 + 0x10]\n 34476: a4 = u64 [a1 + 0x18]\n 34479: a3 = u64 [a1 + 0x8]\n 34482: a1 = u64 [a1]\n 34484: u64 [sp + 0x28] = a3\n 34487: u64 [sp + 0x18] = a4\n 34490: a4 = a4 | a3\n 34493: a3 = a1 | a5\n 34496: a3 = a3 | a4\n 34499: a3 = a3 >> 0x20\n 34502: u64 [sp + 0x20] = a5\n 34505: a4 = a4 | a5\n 34508: a4 = a4 << 0x20\n 34511: a3 = a3 | a4\n 34514: jump @1083 if a3 != 0\n      : @1070 (gas: 11)\n 34518: u64 [sp + 0x8] = a0\n 34521: a0 = u64 [a2 + 0x18]\n 34524: u64 [sp + 0x68] = a0\n 34527: s1 = u64 [a2 + 0x10]\n 34530: a0 = u64 [a2 + 0x8]\n 34533: u64 [sp + 0x60] = a0\n 34536: a0 = u64 [a2]\n 34538: u64 [sp + 0x58] = a0\n 34541: a0 = sp + 0xb0\n 34545: u64 [sp + 0x10] = a1\n 34548: ra = 1204, jump @17\n      : @1071 [@dyn 602] (gas: 12)\n 34555: a0 = u64 [sp + 0x58]\n 34558: a2 = a0 | s1\n 34561: a1 = u64 [sp + 0x68]\n 34564: a3 = u64 [sp + 0x60]\n 34567: a1 = a1 | a3\n 34570: a2 = a2 | a1\n 34573: a2 = a2 >> 0x20\n 34576: u64 [sp + 0x50] = s1\n 34579: a1 = a1 | s1\n 34582: a1 = a1 << 0x20\n 34585: a1 = a1 | a2\n 34588: jump @1083 if a1 != 0\n      : @1072 (gas: 15)\n 34592: a2 = u64 [sp + 0xc8]\n 34596: a3 = u64 [sp + 0xc0]\n 34600: a4 = u64 [sp + 0xb8]\n 34604: a1 = u64 [sp + 0xb0]\n 34608: u64 [sp + 0x30] = a1\n 34611: u64 [sp + 0x90] = a1\n 34615: u64 [sp + 0x38] = a4\n 34618: u64 [sp + 0x98] = a4\n 34622: u64 [sp + 0x40] = a3\n 34625: u64 [sp + 0xa0] = a3\n 34629: a1 = sp + 0x90\n 34633: u64 [sp + 0x48] = a2\n 34636: u64 [sp + 0xa8] = a2\n 34640: s1 = a0\n 34642: ra = 1206, jump @19\n      : @1073 [@dyn 603] (gas: 9)\n 34649: a0 = u64 [sp + 0x68]\n 34652: a1 = u64 [sp + 0x50]\n 34655: a1 = a1 | a0\n 34658: a0 = 0xffffffe0\n 34668: a2 = s1 <u a0\n 34671: a3 = u64 [sp + 0x60]\n 34674: a2 = 0 if a3 != 0\n 34676: a2 = 0 if a1 != 0\n 34678: jump @1083 if a2 == 0\n      : @1074 (gas: 9)\n 34682: a1 = u64 [sp + 0x20]\n 34685: a2 = u64 [sp + 0x18]\n 34688: a1 = a1 | a2\n 34691: a2 = u64 [sp + 0x10]\n 34694: a0 = a2 <u a0\n 34697: a3 = u64 [sp + 0x28]\n 34700: a0 = 0 if a3 != 0\n 34702: a0 = 0 if a1 != 0\n 34704: jump @1083 if a0 == 0\n      : @1075 (gas: 13)\n 34708: a5 = s1\n 34710: s1 = u64 [sp + 0x30]\n 34713: a3 = u64 [sp + 0x40]\n 34716: a0 = s1 | a3\n 34719: a1 = u64 [sp + 0x48]\n 34722: a4 = u64 [sp + 0x38]\n 34725: a1 = a1 | a4\n 34728: a0 = a0 | a1\n 34731: a0 = a0 >> 0x20\n 34734: a1 = a1 | a3\n 34737: a1 = a1 << 0x20\n 34740: a0 = a0 | a1\n 34743: jump @1083 if a0 != 0\n      : @1076 (gas: 5)\n 34747: i32 a0 = a5 + 0x20\n 34750: i32 a1 = a2 + 0x20\n 34753: u64 [sp + 0x28] = a1\n 34756: a1 = s1\n 34758: ra = 1208, jump @26\n      : @1077 [@dyn 604] (gas: 4)\n 34765: u64 [sp + 0x20] = a0\n 34768: a0 = u64 [sp + 0x28]\n 34771: a1 = s1\n 34773: ra = 1210, jump @26\n      : @1078 [@dyn 605] (gas: 4)\n 34780: a1 = a0\n 34782: a0 = u64 [sp + 0x20]\n 34785: a2 = s1\n 34787: ra = 1212, jump @0\n      : @1079 [@dyn 606] (gas: 27)\n 34794: a0 = u64 [sp + 0x58]\n 34797: a0 = a0 + s1\n 34800: a1 = a0 <u s1\n 34803: a2 = u64 [sp + 0x60]\n 34806: a4 = u64 [sp + 0x38]\n 34809: a2 = a2 + a4\n 34812: a2 = a2 + a1\n 34815: a3 = a2 ^ a4\n 34818: a4 = a2 <u a4\n 34821: a4 = a1 if a3 == 0\n 34824: a1 = u64 [sp + 0x50]\n 34827: a3 = u64 [sp + 0x40]\n 34830: a1 = a1 + a3\n 34833: a3 = a1 <u a3\n 34836: a5 = u64 [sp + 0x68]\n 34839: s1 = u64 [sp + 0x48]\n 34842: a5 = a5 + s1\n 34845: a3 = a3 + a5\n 34848: a4 = a4 + a1\n 34851: a1 = a4 <u a1\n 34854: a1 = a1 + a3\n 34857: a1 = a1 | a4\n 34860: a3 = 0xffffffe0\n 34870: a3 = a0 <u a3\n 34873: a3 = 0 if a2 != 0\n 34875: a3 = 0 if a1 != 0\n 34877: jump @1083 if a3 == 0\n      : @1080 (gas: 7)\n 34881: i32 a0 = a0 + 0x20\n 34884: u64 [sp + 136] = 0\n 34888: u64 [sp + 128] = 0\n 34892: u64 [sp + 120] = 0\n 34895: a1 = sp + 0x70\n 34898: u64 [sp + 112] = 0\n 34901: ra = 1214, jump @19\n      : @1081 [@dyn 607] (gas: 9)\n 34908: s1 = u64 [sp + 0x30]\n 34911: s1 = s1 + 0x1f\n 34914: a0 = 0x1ffffffe0\n 34924: a0 = a0 & s1\n 34927: a1 = u64 [sp + 0x58]\n 34930: a0 = a0 + a1\n 34933: a1 = a0 <u a1\n 34936: a3 = u64 [sp + 0x60]\n 34939: t0 = 1216, jump @1204\n      : @1082 [@dyn 608] (gas: 24)\n 34945: a1 = u64 [sp + 0x50]\n 34948: a3 = a3 + a1\n 34951: a1 = a3 <u a1\n 34954: a4 = u64 [sp + 0x68]\n 34957: a1 = a1 + a4\n 34960: a4 = a0 + 0x20\n 34963: a0 = a4 <u a0\n 34966: a5 = a2 + a0\n 34969: a2 = a5 <u a2\n 34972: a2 = a0 if a0 == 0\n 34975: a2 = a2 + a3\n 34978: a0 = a2 <u a3\n 34981: a0 = a0 + a1\n 34984: a1 = u64 [sp + 0x8]\n 34987: u64 [a1] = a4\n 34989: u64 [a1 + 0x8] = a5\n 34992: u64 [a1 + 0x10] = a2\n 34995: u64 [a1 + 0x18] = a0\n 34998: sp = s0 + 0xffffffffffffff10\n 35002: ra = u64 [sp + 0xe8]\n 35006: s0 = u64 [sp + 0xe0]\n 35010: s1 = u64 [sp + 0xd8]\n 35014: sp = sp + 0xf0\n 35018: ret\n      : @1083 (gas: 1)\n 35020: trap\n      : @1084 (gas: 21)\n 35021: sp = sp + 0xfffffffffffffc30\n 35025: a3 = sp + 0x300\n 35029: u64 [a3 + 0xc8] = ra\n 35033: u64 [a3 + 0xc0] = s0\n 35037: u64 [a3 + 0xb8] = s1\n 35041: s0 = sp + 0x3d0\n 35045: sp = sp & 0xfffffffffffffff0\n 35048: a5 = u64 [a1 + 0x10]\n 35051: a3 = u64 [a1 + 0x18]\n 35054: s1 = u64 [a1 + 0x8]\n 35057: a4 = u64 [a1]\n 35059: u64 [sp + 0x60] = a3\n 35062: a1 = s1 | a3\n 35065: a3 = a4 | a5\n 35068: a3 = a3 | a1\n 35071: a3 = a3 >> 0x20\n 35074: u64 [sp + 0x68] = a5\n 35077: a1 = a1 | a5\n 35080: a1 = a1 << 0x20\n 35083: a1 = a1 | a3\n 35086: jump @1119 if a1 != 0\n      : @1085 (gas: 18)\n 35090: u64 [sp + 0x88] = s1\n 35094: u64 [sp + 0x20] = a0\n 35097: a0 = u64 [a2 + 0x18]\n 35100: u64 [sp + 0x50] = a0\n 35103: s1 = u64 [a2 + 0x10]\n 35106: a0 = u64 [a2 + 0x8]\n 35109: u64 [sp + 0x78] = a0\n 35112: a0 = u64 [a2]\n 35114: u64 [sp + 0x80] = a0\n 35118: a2 = sp + 0x300\n 35122: u64 [a2 + 168] = 0\n 35126: u64 [a2 + 160] = 0\n 35130: u64 [a2 + 152] = 0\n 35134: a1 = sp + 0x390\n 35138: u64 [a2 + 144] = 0x20\n 35143: u64 [sp + 0x70] = a4\n 35146: a0 = a4\n 35148: ra = 1218, jump @19\n      : @1086 [@dyn 609] (gas: 12)\n 35155: a1 = u64 [sp + 0x80]\n 35159: a0 = a1 | s1\n 35162: a2 = u64 [sp + 0x50]\n 35165: a3 = u64 [sp + 0x78]\n 35168: a2 = a2 | a3\n 35171: a0 = a0 | a2\n 35174: a0 = a0 >> 0x20\n 35177: u64 [sp + 0x48] = s1\n 35180: a2 = a2 | s1\n 35183: a2 = a2 << 0x20\n 35186: a0 = a0 | a2\n 35189: jump @1119 if a0 != 0\n      : @1087 (gas: 2)\n 35193: a0 = sp + 0x370\n 35197: ra = 1220, jump @17\n      : @1088 [@dyn 610] (gas: 11)\n 35204: a0 = u64 [sp + 0x68]\n 35207: a1 = u64 [sp + 0x60]\n 35210: a2 = a0 | a1\n 35213: s1 = 0xffffffe0\n 35223: a4 = u64 [sp + 0x70]\n 35226: a0 = a4 <u s1\n 35229: a1 = u64 [sp + 0x88]\n 35233: a0 = 0 if a1 != 0\n 35235: u64 [sp + 0x58] = a2\n 35238: a0 = 0 if a2 != 0\n 35240: jump @1119 if a0 == 0\n      : @1089 (gas: 13)\n 35244: a5 = sp + 0x300\n 35248: a0 = u64 [a5 + 0x80]\n 35252: a1 = u64 [a5 + 0x78]\n 35255: a2 = u64 [a5 + 0x70]\n 35258: a0 = a0 << 0x20\n 35261: a3 = a0 >> 0x20\n 35264: i32 a0 = a4 + 0x20\n 35267: u64 [a5 + 104] = 0\n 35270: u64 [a5 + 0x50] = a2\n 35273: u64 [a5 + 0x58] = a1\n 35276: a1 = sp + 0x350\n 35280: u64 [a5 + 0x60] = a3\n 35283: ra = 1222, jump @19\n      : @1090 [@dyn 611] (gas: 10)\n 35290: a0 = u64 [sp + 0x50]\n 35293: a3 = u64 [sp + 0x48]\n 35296: a3 = a3 | a0\n 35299: a1 = u64 [sp + 0x80]\n 35303: a0 = a1 <u s1\n 35306: a2 = u64 [sp + 0x78]\n 35309: a0 = 0 if a2 != 0\n 35311: u64 [sp + 0x50] = a3\n 35314: a0 = 0 if a3 != 0\n 35316: jump @1119 if a0 == 0\n      : @1091 (gas: 3)\n 35320: i32 a1 = a1 + 0x20\n 35323: a0 = sp + 0x330\n 35327: ra = 1224, jump @17\n      : @1092 [@dyn 612] (gas: 9)\n 35334: a0 = 0xffffffc0\n 35344: s1 = u64 [sp + 0x70]\n 35347: u64 [sp + 0x48] = a0\n 35350: a0 = s1 <u a0\n 35353: a1 = u64 [sp + 0x88]\n 35357: a0 = 0 if a1 != 0\n 35359: a1 = u64 [sp + 0x58]\n 35362: a0 = 0 if a1 != 0\n 35364: jump @1119 if a0 == 0\n      : @1093 (gas: 16)\n 35368: a2 = sp + 0x300\n 35372: a0 = u64 [a2 + 0x48]\n 35375: u64 [sp + 0x28] = a0\n 35378: a0 = u64 [a2 + 0x40]\n 35381: u64 [sp + 0x30] = a0\n 35384: a0 = u64 [a2 + 0x38]\n 35387: u64 [sp + 0x38] = a0\n 35390: a0 = u64 [a2 + 0x30]\n 35393: u64 [sp + 0x40] = a0\n 35396: i32 a0 = s1 + 0x40\n 35399: u64 [a2 + 40] = 0\n 35402: u64 [a2 + 32] = 0\n 35405: u64 [a2 + 16] = 0xc0\n 35410: a1 = sp + 0x310\n 35414: u64 [a2 + 24] = 0\n 35417: ra = 1226, jump @19\n      : @1094 [@dyn 613] (gas: 4)\n 35424: a0 = s1 + 0xe0\n 35428: a1 = a0 <u s1\n 35431: a3 = u64 [sp + 0x88]\n 35435: t0 = 1228, jump @1204\n      : @1095 [@dyn 614] (gas: 22)\n 35441: a1 = u64 [sp + 0x68]\n 35444: a3 = a3 + a1\n 35447: a1 = a3 <u a1\n 35450: a4 = u64 [sp + 0x60]\n 35453: a4 = a4 + a1\n 35456: a5 = sp + 0x200\n 35460: u64 [a5 + 0xb8] = a2\n 35464: u64 [a5 + 0xb0] = a0\n 35468: a0 = u64 [sp + 0x28]\n 35471: u64 [a5 + 0xe8] = a0\n 35475: a0 = u64 [sp + 0x30]\n 35478: u64 [a5 + 0xe0] = a0\n 35482: a0 = u64 [sp + 0x38]\n 35485: u64 [a5 + 0xd8] = a0\n 35489: a0 = u64 [sp + 0x40]\n 35492: u64 [a5 + 0xd0] = a0\n 35496: u64 [a5 + 0xc0] = a3\n 35500: a0 = sp + 0x2f0\n 35504: a1 = sp + 0x2d0\n 35508: a2 = sp + 0x2b0\n 35512: u64 [a5 + 0xc8] = a4\n 35516: ra = 1230, jump @1069\n      : @1096 [@dyn 615] (gas: 3)\n 35522: a1 = u64 [sp + 0x80]\n 35526: a0 = u64 [sp + 0x48]\n 35529: t0 = 1232, jump @1200\n      : @1097 [@dyn 616] (gas: 1)\n 35535: jump @1119 if a0 == 0\n      : @1098 (gas: 11)\n 35539: a0 = u64 [sp + 0x308]\n 35543: u64 [sp + 0x30] = a0\n 35546: a0 = u64 [sp + 0x300]\n 35550: u64 [sp + 0x38] = a0\n 35553: a0 = u64 [sp + 0x2f8]\n 35557: u64 [sp + 0x40] = a0\n 35560: a0 = u64 [sp + 0x2f0]\n 35564: u64 [sp + 0x48] = a0\n 35567: i32 a1 = a1 + 0x40\n 35570: a0 = sp + 0x290\n 35574: ra = 1234, jump @17\n      : @1099 [@dyn 617] (gas: 8)\n 35581: s1 = 0xffffffa0\n 35591: a5 = u64 [sp + 0x70]\n 35594: a0 = a5 <u s1\n 35597: a1 = u64 [sp + 0x88]\n 35601: a0 = 0 if a1 != 0\n 35603: a1 = u64 [sp + 0x58]\n 35606: a0 = 0 if a1 != 0\n 35608: jump @1119 if a0 == 0\n      : @1100 (gas: 12)\n 35612: a2 = u64 [sp + 0x2a8]\n 35616: a1 = u64 [sp + 0x2a0]\n 35620: a3 = u64 [sp + 0x298]\n 35624: a4 = u64 [sp + 0x290]\n 35628: i32 a0 = a5 + 0x60\n 35631: a5 = sp + 0x200\n 35635: u64 [a5 + 0x70] = a4\n 35638: u64 [a5 + 0x78] = a3\n 35641: u64 [a5 + 0x80] = a1\n 35645: a1 = sp + 0x270\n 35649: u64 [a5 + 0x88] = a2\n 35653: ra = 1236, jump @19\n      : @1101 [@dyn 618] (gas: 7)\n 35660: a1 = u64 [sp + 0x80]\n 35664: a0 = a1 <u s1\n 35667: a2 = u64 [sp + 0x78]\n 35670: a0 = 0 if a2 != 0\n 35672: a2 = u64 [sp + 0x50]\n 35675: a0 = 0 if a2 != 0\n 35677: jump @1119 if a0 == 0\n      : @1102 (gas: 3)\n 35681: i32 a1 = a1 + 0x60\n 35684: a0 = sp + 0x250\n 35688: ra = 1238, jump @17\n      : @1103 [@dyn 619] (gas: 9)\n 35695: a0 = 0xffffff80\n 35705: t0 = u64 [sp + 0x70]\n 35708: u64 [sp + 0x28] = a0\n 35711: a0 = t0 <u a0\n 35714: s1 = u64 [sp + 0x88]\n 35718: a0 = 0 if s1 != 0\n 35720: a1 = u64 [sp + 0x58]\n 35723: a0 = 0 if a1 != 0\n 35725: jump @1119 if a0 == 0\n      : @1104 (gas: 51)\n 35729: a0 = u64 [sp + 0x268]\n 35733: u64 [sp + 0x10] = a0\n 35736: a0 = u64 [sp + 0x260]\n 35740: u64 [sp + 0x18] = a0\n 35743: a0 = u64 [sp + 0x48]\n 35746: a2 = a0 <u t0\n 35749: a5 = a0\n 35751: a3 = u64 [sp + 0x40]\n 35754: a1 = a3 ^ s1\n 35757: a0 = a3 <u s1\n 35760: a4 = a3\n 35762: a0 = a2 if a1 == 0\n 35765: t2 = u64 [sp + 0x68]\n 35768: a3 = u64 [sp + 0x38]\n 35771: t1 = a3 - t2\n 35774: a1 = a3\n 35776: a3 = a4 - s1\n 35779: a3 = a3 - a2\n 35782: a4 = a5 - t0\n 35785: ra = a4 + 0xffffffffffffffe0\n 35788: a4 = ra <u a4\n 35791: a5 = a3 + a4\n 35794: a5 = a5 + 0xffffffffffffffff\n 35797: s1 = a5 ^ a3\n 35800: a3 = a5 <u a3\n 35803: a3 = a4 if s1 == 0\n 35806: a4 = a1 <u t2\n 35809: a1 = u64 [sp + 0x60]\n 35812: s1 = u64 [sp + 0x30]\n 35815: s1 = s1 - a1\n 35818: s1 = s1 - a4\n 35821: a4 = t1 <u a0\n 35824: a4 = s1 - a4\n 35827: a2 = sp + 0x200\n 35831: s1 = u64 [a2 + 0x58]\n 35834: a1 = t1 - a0\n 35837: a0 = a1 <u 0x1\n 35840: a4 = a4 - a0\n 35843: a0 = u64 [a2 + 0x50]\n 35846: u64 [sp + 0x8] = a0\n 35849: a1 = a1 + 0xffffffffffffffff\n 35852: a3 = a3 + a1\n 35855: a0 = a3 <u a1\n 35858: a4 = a4 + a0\n 35861: i32 a0 = t0 + 0x80\n 35865: u64 [a2 + 0x30] = ra\n 35868: u64 [a2 + 0x38] = a5\n 35871: u64 [a2 + 0x40] = a3\n 35874: a1 = sp + 0x230\n 35878: u64 [a2 + 0x48] = a4\n 35881: ra = 1240, jump @19\n      : @1105 [@dyn 620] (gas: 19)\n 35888: a0 = u64 [sp + 0x30]\n 35891: u64 [sp + 0x1e8] = a0\n 35895: a0 = u64 [sp + 0x38]\n 35898: u64 [sp + 0x1e0] = a0\n 35902: a0 = u64 [sp + 0x40]\n 35905: u64 [sp + 0x1d8] = a0\n 35909: a0 = u64 [sp + 0x48]\n 35912: u64 [sp + 0x1d0] = a0\n 35916: a0 = u64 [sp + 0x10]\n 35919: u64 [sp + 0x208] = a0\n 35923: a0 = u64 [sp + 0x18]\n 35926: u64 [sp + 0x200] = a0\n 35930: u64 [sp + 0x1f8] = s1\n 35934: a0 = sp + 0x210\n 35938: a1 = sp + 0x1f0\n 35942: a2 = sp + 0x1d0\n 35946: a3 = u64 [sp + 0x8]\n 35949: u64 [sp + 0x1f0] = a3\n 35953: ra = 1242, jump @1069\n      : @1106 [@dyn 621] (gas: 3)\n 35959: a1 = u64 [sp + 0x80]\n 35963: a0 = u64 [sp + 0x28]\n 35966: t0 = 1244, jump @1200\n      : @1107 [@dyn 622] (gas: 1)\n 35972: jump @1119 if a0 == 0\n      : @1108 (gas: 12)\n 35976: a2 = sp + 0x200\n 35980: a0 = u64 [a2 + 0x28]\n 35983: u64 [sp + 0x30] = a0\n 35986: a0 = u64 [a2 + 0x20]\n 35989: u64 [sp + 0x38] = a0\n 35992: a0 = u64 [a2 + 0x18]\n 35995: u64 [sp + 0x40] = a0\n 35998: a0 = u64 [a2 + 0x10]\n 36001: u64 [sp + 0x48] = a0\n 36004: i32 a1 = a1 + 0x80\n 36008: a0 = sp + 0x1b0\n 36012: ra = 1246, jump @17\n      : @1109 [@dyn 623] (gas: 9)\n 36019: a0 = 0xffffff60\n 36029: t0 = u64 [sp + 0x70]\n 36032: u64 [sp + 0x28] = a0\n 36035: a0 = t0 <u a0\n 36038: s1 = u64 [sp + 0x88]\n 36042: a0 = 0 if s1 != 0\n 36044: a1 = u64 [sp + 0x58]\n 36047: a0 = 0 if a1 != 0\n 36049: jump @1119 if a0 == 0\n      : @1110 (gas: 51)\n 36053: a0 = u64 [sp + 0x1c8]\n 36057: u64 [sp + 0x10] = a0\n 36060: a0 = u64 [sp + 0x1c0]\n 36064: u64 [sp + 0x18] = a0\n 36067: a0 = u64 [sp + 0x48]\n 36070: a2 = a0 <u t0\n 36073: a5 = a0\n 36075: a3 = u64 [sp + 0x40]\n 36078: a1 = a3 ^ s1\n 36081: a0 = a3 <u s1\n 36084: a4 = a3\n 36086: a0 = a2 if a1 == 0\n 36089: t2 = u64 [sp + 0x68]\n 36092: a3 = u64 [sp + 0x38]\n 36095: t1 = a3 - t2\n 36098: a1 = a3\n 36100: a3 = a4 - s1\n 36103: a3 = a3 - a2\n 36106: a4 = a5 - t0\n 36109: ra = a4 + 0xffffffffffffffe0\n 36112: a4 = ra <u a4\n 36115: a5 = a3 + a4\n 36118: a5 = a5 + 0xffffffffffffffff\n 36121: s1 = a5 ^ a3\n 36124: a3 = a5 <u a3\n 36127: a3 = a4 if s1 == 0\n 36130: a4 = a1 <u t2\n 36133: a1 = u64 [sp + 0x60]\n 36136: s1 = u64 [sp + 0x30]\n 36139: s1 = s1 - a1\n 36142: s1 = s1 - a4\n 36145: a4 = t1 <u a0\n 36148: s1 = s1 - a4\n 36151: a1 = u64 [sp + 0x1b8]\n 36155: u64 [sp] = a1\n 36157: a1 = t1 - a0\n 36160: a0 = a1 <u 0x1\n 36163: s1 = s1 - a0\n 36166: a0 = u64 [sp + 0x1b0]\n 36170: u64 [sp + 0x8] = a0\n 36173: a1 = a1 + 0xffffffffffffffff\n 36176: a3 = a3 + a1\n 36179: a0 = a3 <u a1\n 36182: s1 = s1 + a0\n 36185: i32 a0 = t0 + 0xa0\n 36189: u64 [sp + 0x190] = ra\n 36193: u64 [sp + 0x198] = a5\n 36197: u64 [sp + 0x1a0] = a3\n 36201: a1 = sp + 0x190\n 36205: u64 [sp + 0x1a8] = s1\n 36209: ra = 1248, jump @19\n      : @1111 [@dyn 624] (gas: 20)\n 36216: a0 = u64 [sp + 0x30]\n 36219: u64 [sp + 0x148] = a0\n 36223: a0 = u64 [sp + 0x38]\n 36226: u64 [sp + 0x140] = a0\n 36230: a0 = u64 [sp + 0x40]\n 36233: u64 [sp + 0x138] = a0\n 36237: a0 = u64 [sp + 0x48]\n 36240: u64 [sp + 0x130] = a0\n 36244: a0 = u64 [sp + 0x10]\n 36247: u64 [sp + 0x168] = a0\n 36251: a0 = u64 [sp + 0x18]\n 36254: u64 [sp + 0x160] = a0\n 36258: a0 = u64 [sp]\n 36260: u64 [sp + 0x158] = a0\n 36264: a0 = sp + 0x170\n 36268: a1 = sp + 0x150\n 36272: a2 = sp + 0x130\n 36276: a3 = u64 [sp + 0x8]\n 36279: u64 [sp + 0x150] = a3\n 36283: ra = 1250, jump @1069\n      : @1112 [@dyn 625] (gas: 3)\n 36289: a1 = u64 [sp + 0x80]\n 36293: a0 = u64 [sp + 0x28]\n 36296: t0 = 1252, jump @1200\n      : @1113 [@dyn 626] (gas: 1)\n 36302: jump @1119 if a0 == 0\n      : @1114 (gas: 10)\n 36306: a0 = u64 [sp + 0x188]\n 36310: u64 [sp + 0x48] = a0\n 36313: a0 = u64 [sp + 0x180]\n 36317: u64 [sp + 0x50] = a0\n 36320: a0 = u64 [sp + 0x178]\n 36324: u64 [sp + 0x78] = a0\n 36327: s1 = u64 [sp + 0x170]\n 36331: i32 a1 = a1 + 0xa0\n 36335: a0 = sp + 0x110\n 36339: ra = 1254, jump @17\n      : @1115 [@dyn 627] (gas: 8)\n 36346: a0 = 0xffffff40\n 36356: t0 = u64 [sp + 0x70]\n 36359: a0 = t0 <u a0\n 36362: a3 = u64 [sp + 0x88]\n 36366: a0 = 0 if a3 != 0\n 36368: a1 = u64 [sp + 0x58]\n 36371: a0 = 0 if a1 != 0\n 36373: jump @1119 if a0 == 0\n      : @1116 (gas: 48)\n 36377: a0 = u64 [sp + 0x128]\n 36381: u64 [sp + 0x80] = a0\n 36385: a1 = s1 <u t0\n 36388: a4 = u64 [sp + 0x78]\n 36391: a2 = a4 ^ a3\n 36394: a0 = a4 <u a3\n 36397: a0 = a1 if a2 == 0\n 36400: a2 = a4 - a3\n 36403: a3 = a2 - a1\n 36406: a2 = s1 - t0\n 36409: t1 = a2 + 0xffffffffffffffe0\n 36412: a4 = t1 <u a2\n 36415: a2 = a3 + a4\n 36418: a2 = a2 + 0xffffffffffffffff\n 36421: a5 = a2 ^ a3\n 36424: a3 = a2 <u a3\n 36427: a3 = a4 if a5 == 0\n 36430: a4 = u64 [sp + 0x120]\n 36434: u64 [sp + 0x88] = a4\n 36438: a5 = u64 [sp + 0x68]\n 36441: a4 = u64 [sp + 0x50]\n 36444: a1 = a4 - a5\n 36447: a5 = a4 <u a5\n 36450: u64 [sp + 0x58] = s1\n 36453: s1 = u64 [sp + 0x60]\n 36456: a4 = u64 [sp + 0x48]\n 36459: s1 = a4 - s1\n 36462: s1 = s1 - a5\n 36465: a5 = a1 <u a0\n 36468: s1 = s1 - a5\n 36471: a4 = u64 [sp + 0x118]\n 36475: u64 [sp + 0x60] = a4\n 36478: a4 = a1 - a0\n 36481: a0 = a4 <u 0x1\n 36484: s1 = s1 - a0\n 36487: a0 = u64 [sp + 0x110]\n 36491: u64 [sp + 0x68] = a0\n 36494: a4 = a4 + 0xffffffffffffffff\n 36497: a3 = a3 + a4\n 36500: a0 = a3 <u a4\n 36503: s1 = s1 + a0\n 36506: i32 a0 = t0 + 0xc0\n 36510: u64 [sp + 0xf0] = t1\n 36514: u64 [sp + 0xf8] = a2\n 36518: u64 [sp + 0x100] = a3\n 36522: a1 = sp + 0xf0\n 36526: u64 [sp + 0x108] = s1\n 36530: ra = 1256, jump @19\n      : @1117 [@dyn 628] (gas: 20)\n 36537: a0 = u64 [sp + 0x48]\n 36540: u64 [sp + 0xa8] = a0\n 36544: a0 = u64 [sp + 0x50]\n 36547: u64 [sp + 0xa0] = a0\n 36551: a0 = u64 [sp + 0x78]\n 36554: u64 [sp + 0x98] = a0\n 36558: a0 = u64 [sp + 0x58]\n 36561: u64 [sp + 0x90] = a0\n 36565: a0 = u64 [sp + 0x80]\n 36569: u64 [sp + 0xc8] = a0\n 36573: a0 = u64 [sp + 0x88]\n 36577: u64 [sp + 0xc0] = a0\n 36581: a0 = u64 [sp + 0x60]\n 36584: u64 [sp + 0xb8] = a0\n 36588: a0 = sp + 0xd0\n 36592: a1 = sp + 0xb0\n 36596: a2 = sp + 0x90\n 36600: a3 = u64 [sp + 0x68]\n 36603: u64 [sp + 0xb0] = a3\n 36607: ra = 1258, jump @1069\n      : @1118 [@dyn 629] (gas: 16)\n 36613: a0 = u64 [sp + 0xe0]\n 36617: a1 = u64 [sp + 0xe8]\n 36621: a2 = u64 [sp + 0xd0]\n 36625: a3 = u64 [sp + 0xd8]\n 36629: a4 = u64 [sp + 0x20]\n 36632: u64 [a4 + 0x10] = a0\n 36635: u64 [a4 + 0x18] = a1\n 36638: u64 [a4] = a2\n 36640: u64 [a4 + 0x8] = a3\n 36643: sp = s0 + 0xfffffffffffffc30\n 36647: a0 = sp + 0x300\n 36651: ra = u64 [a0 + 0xc8]\n 36655: s0 = u64 [a0 + 0xc0]\n 36659: s1 = u64 [a0 + 0xb8]\n 36663: sp = sp + 0x3d0\n 36667: ret\n      : @1119 (gas: 1)\n 36669: trap\n      : @1120 (gas: 33)\n 36670: sp = sp + 0xffffffffffffffa0\n 36673: u64 [sp + 0x58] = ra\n 36676: u64 [sp + 0x50] = s0\n 36679: u64 [sp + 0x48] = s1\n 36682: s0 = sp + 0x60\n 36685: sp = sp & 0xfffffffffffffff0\n 36688: a2 = u64 [a1 + 0x10]\n 36691: a5 = u64 [a1 + 0x8]\n 36694: a4 = u64 [a1]\n 36696: a1 = u64 [a1 + 0x18]\n 36699: t0 = a2 << 0x3f\n 36702: a3 = a5 >> 0x1\n 36705: t0 = a3 | t0\n 36708: a3 = a1 << 0x3f\n 36711: a2 = a2 >> 0x1\n 36714: a3 = a3 | a2\n 36717: a5 = a5 << 0x3f\n 36720: a2 = a4 >> 0x1\n 36723: a5 = a5 | a2\n 36726: t1 = a1 >> 0x1\n 36729: a4 = a4 & 0x1\n 36732: a1 = -a4\n 36734: s1 = a4 <u 0x1\n 36737: a2 = a5 & 0x7f\n 36740: t2 = a1 & a3\n 36743: a3 = a1 & t0\n 36746: a2 = a5 if a4 != 0\n 36749: a4 = a1 & t1\n 36752: a1 = a2 <u 0x20\n 36755: a1 = 0 if a3 != 0\n 36757: a5 = t2 | a4\n 36760: a1 = 0 if a5 != 0\n 36762: jump @1123 if s1 != a1\n      : @1121 (gas: 5)\n 36765: u64 [a0] = a2\n 36767: u64 [a0 + 0x8] = a3\n 36770: u64 [a0 + 0x10] = t2\n 36773: u64 [a0 + 0x18] = a4\n 36776: t0 = 1260, jump @1210\n      : @1122 [@dyn 630] (gas: 1)\n 36782: ret\n      : @1123 (gas: 1)\n 36784: t0 = 1262, jump @1205\n      : @1124 [@dyn 631] (gas: 1)\n 36790: ra = 1264, jump @19\n      : @1125 [@dyn 632] (gas: 7)\n 36797: u64 [sp + 24] = 0\n 36800: u64 [sp + 16] = 0\n 36803: u64 [sp + 0] = 0x22\n 36806: a0 = 0x4\n 36809: a1 = sp\n 36811: u64 [sp + 8] = 0\n 36814: ra = 1266, jump @19\n      : @1126 [@dyn 633] (gas: 2)\n 36821: a1 = i32 [0x2005c]\n 36826: jump @1128 if a1 >u 63\n      : @1127 (gas: 2)\n 36830: u32 [0x2005c] = 0x40\n 36836: fallthrough\n      : @1128 (gas: 7)\n 36837: a1 = 0x20070\n 36842: i32 a1 = a1 + 0\n 36844: a0 = 0x1\n 36847: a2 = 0x24\n 36850: ra = 0x4f4\n 36854: ecalli 7 // 'seal_return'\n 36856: fallthrough\n      : @1129 [@dyn 634] (gas: 31)\n 36857: sp = sp + 0xfffffffffffffe20\n 36861: u64 [sp + 0x1d8] = ra\n 36865: u64 [sp + 0x1d0] = s0\n 36869: u64 [sp + 0x1c8] = s1\n 36873: s0 = sp + 0x1e0\n 36877: sp = sp & 0xffffffffffffffe0\n 36880: s1 = sp\n 36882: u64 [s1 + 0x10] = a0\n 36885: a0 = u64 [a2 + 0x10]\n 36888: u64 [s1 + 0x98] = a0\n 36892: a0 = u64 [a2]\n 36894: u64 [s1 + 0x80] = a0\n 36898: a0 = u64 [a2 + 0x18]\n 36901: u64 [s1 + 0x90] = a0\n 36905: a0 = u64 [a2 + 0x8]\n 36908: u64 [s1 + 0x88] = a0\n 36912: a0 = u64 [a1 + 0x18]\n 36915: a2 = u64 [a1 + 0x10]\n 36918: a3 = u64 [a1 + 0x8]\n 36921: a1 = u64 [a1]\n 36923: u64 [s1 + 0x70] = a0\n 36926: u64 [s1 + 0x1b8] = a0\n 36930: u64 [s1 + 0x68] = a2\n 36933: u64 [s1 + 0x1b0] = a2\n 36937: u64 [s1 + 0x60] = a3\n 36940: u64 [s1 + 0x1a8] = a3\n 36944: u64 [s1 + 0x38] = a1\n 36947: u64 [s1 + 0x1a0] = a1\n 36951: a0 = s1 + 0x180\n 36955: a1 = s1 + 0x1a0\n 36959: ra = 1270, jump @21\n      : @1130 [@dyn 635] (gas: 16)\n 36966: a4 = s1 + 0x100\n 36970: a0 = u64 [a4 + 0x98]\n 36974: a1 = u64 [a4 + 0x90]\n 36978: a2 = u64 [a4 + 0x88]\n 36982: a3 = u64 [a4 + 0x80]\n 36986: u64 [s1 + 0x30] = a0\n 36989: u64 [a4 + 0x58] = a0\n 36992: u64 [s1 + 0x28] = a1\n 36995: u64 [a4 + 0x50] = a1\n 36998: u64 [s1 + 0x20] = a2\n 37001: u64 [a4 + 0x48] = a2\n 37004: a0 = s1 + 0x160\n 37008: a1 = s1 + 0x140\n 37012: u64 [s1 + 0x78] = a3\n 37015: u64 [a4 + 0x40] = a3\n 37018: ra = 1272, jump @1120\n      : @1131 [@dyn 636] (gas: 12)\n 37024: a0 = u64 [s1 + 0x80]\n 37028: a1 = u64 [s1 + 0x90]\n 37032: a2 = u64 [s1 + 0x88]\n 37036: a2 = a2 | a1\n 37039: a3 = u64 [s1 + 0x98]\n 37043: a1 = a0 | a3\n 37046: a1 = a1 | a2\n 37049: a1 = a1 >> 0x20\n 37052: a2 = a2 | a3\n 37055: a2 = a2 << 0x20\n 37058: a1 = a1 | a2\n 37061: jump @1148 if a1 != 0\n      : @1132 (gas: 15)\n 37065: a5 = s1 + 0x100\n 37069: a4 = u64 [a5 + 0x78]\n 37072: a2 = u64 [a5 + 0x70]\n 37075: a1 = u64 [a5 + 0x68]\n 37078: a3 = u64 [a5 + 0x60]\n 37081: u64 [s1 + 0x40] = a3\n 37084: u64 [a5 + 0x20] = a3\n 37087: u64 [s1 + 0x50] = a1\n 37090: u64 [a5 + 0x28] = a1\n 37093: u64 [s1 + 0x48] = a2\n 37096: u64 [a5 + 0x30] = a2\n 37099: a1 = s1 + 0x120\n 37103: u64 [s1 + 0x58] = a4\n 37106: u64 [a5 + 0x38] = a4\n 37109: ra = 1274, jump @19\n      : @1133 [@dyn 637] (gas: 3)\n 37116: a3 = u64 [s1 + 0x78]\n 37119: a0 = a3 & 0x1\n 37122: jump @1137 if a0 != 0\n      : @1134 (gas: 10)\n 37126: a0 = u64 [s1 + 0x90]\n 37130: a1 = u64 [s1 + 0x98]\n 37134: a0 = a0 | a1\n 37137: a1 = 0xffffffe0\n 37147: a4 = u64 [s1 + 0x80]\n 37151: a1 = a4 <u a1\n 37154: a2 = u64 [s1 + 0x88]\n 37158: a1 = 0 if a2 != 0\n 37160: a1 = 0 if a0 != 0\n 37162: jump @1148 if a1 == 0\n      : @1135 (gas: 11)\n 37166: a1 = a3 & 0xffffffffffffff00\n 37170: i32 a0 = a4 + 0x20\n 37173: a3 = u64 [s1 + 0x20]\n 37176: u64 [s1 + 0xa8] = a3\n 37180: u64 [s1 + 0xa0] = a1\n 37184: a1 = u64 [s1 + 0x28]\n 37187: u64 [s1 + 0xb0] = a1\n 37191: a1 = s1 + 0xa0\n 37195: a3 = u64 [s1 + 0x30]\n 37198: u64 [s1 + 0xb8] = a3\n 37202: ra = 1276, jump @19\n      : @1136 [@dyn 638] (gas: 26)\n 37209: ra = 0\n 37211: t1 = 0\n 37213: t0 = 0\n 37215: a0 = u64 [s1 + 0x48]\n 37218: a1 = u64 [s1 + 0x40]\n 37221: a0 = a0 | a1\n 37224: a1 = u64 [s1 + 0x58]\n 37227: a2 = u64 [s1 + 0x50]\n 37230: a1 = a1 | a2\n 37233: a0 = a0 | a1\n 37236: a1 = u64 [s1 + 0x80]\n 37240: a3 = a1 + 0x20\n 37243: a1 = a3 <u a1\n 37246: a2 = u64 [s1 + 0x88]\n 37250: a4 = a2 + a1\n 37253: a2 = a4 <u a2\n 37256: a2 = a1 if a1 == 0\n 37259: a1 = u64 [s1 + 0x98]\n 37263: a5 = a1 + a2\n 37266: a1 = a5 <u a1\n 37269: a2 = u64 [s1 + 0x90]\n 37273: a1 = a1 + a2\n 37276: u64 [s1 + 0x38] = a1\n 37279: a0 = a0 >u 0\n 37281: t2 = a0 << 0x5\n 37284: jump @1147\n      : @1137 (gas: 12)\n 37287: a0 = u64 [s1 + 0x38]\n 37290: a2 = s1 + 0x100\n 37294: u64 [a2] = a0\n 37296: a0 = u64 [s1 + 0x60]\n 37299: u64 [a2 + 0x8] = a0\n 37302: a0 = u64 [s1 + 0x68]\n 37305: u64 [a2 + 0x10] = a0\n 37308: a1 = s1 + 0x100\n 37312: a0 = u64 [s1 + 0x70]\n 37315: u64 [a2 + 0x18] = a0\n 37318: a0 = 0\n 37320: ra = 1278, jump @19\n      : @1138 [@dyn 639] (gas: 6)\n 37327: a0 = sp + 0xffffffffffffffe0\n 37330: a0 = a0 & 0xffffffffffffffe0\n 37333: u64 [s1 + 0x30] = a0\n 37336: sp = a0\n 37338: a1 = i32 [0x2005c]\n 37343: jump @1140 if a1 >u 31\n      : @1139 (gas: 2)\n 37347: u32 [0x2005c] = 0x20\n 37353: fallthrough\n      : @1140 (gas: 49)\n 37354: a0 = sp + 0xffffffffffffffe0\n 37357: a2 = a0 & 0xffffffffffffffe0\n 37360: u64 [s1 + 0x78] = a2\n 37363: sp = a2\n 37365: a0 = 0x20070\n 37370: i32 a0 = a0 + 0\n 37372: i32 a2 = a2 + 0\n 37374: a1 = 0x20\n 37377: ecalli 6 // 'hash_keccak_256'\n 37379: a5 = 0\n 37381: ra = 0\n 37383: t1 = 0\n 37385: t0 = 0\n 37387: a0 = u64 [s1 + 0x80]\n 37391: a1 = a0 + 0x20\n 37394: u64 [s1 + 0x28] = a1\n 37397: a0 = a1 <u a0\n 37400: a1 = u64 [s1 + 0x88]\n 37404: a2 = a1 + a0\n 37407: u64 [s1 + 0x20] = a2\n 37410: a1 = a2 <u a1\n 37413: a1 = a0 if a0 == 0\n 37416: a0 = u64 [s1 + 0x98]\n 37420: a1 = a1 + a0\n 37423: u64 [s1 + 0x18] = a1\n 37426: a0 = a1 <u a0\n 37429: a1 = u64 [s1 + 0x90]\n 37433: a0 = a0 + a1\n 37436: u64 [s1 + 0x38] = a0\n 37439: a3 = u64 [s1 + 0x78]\n 37442: a0 = u64 [a3 + 0x18]\n 37445: a1 = u64 [a3 + 0x10]\n 37448: a2 = u64 [a3 + 0x8]\n 37451: a3 = u64 [a3]\n 37453: a0 = reverse a0\n 37455: a4 = reverse a1\n 37457: t2 = reverse a2\n 37459: a2 = reverse a3\n 37461: a1 = u64 [s1 + 0x30]\n 37464: a3 = a2\n 37466: u64 [a1 + 0x18] = a2\n 37469: a2 = t2\n 37471: u64 [s1 + 0x60] = a2\n 37474: u64 [a1 + 0x10] = a2\n 37477: u64 [s1 + 0x70] = a4\n 37480: u64 [a1 + 0x8] = a4\n 37483: a2 = a0\n 37485: u64 [a1] = a0\n 37487: fallthrough\n      : @1141 (gas: 19)\n 37488: u64 [s1 + 0x68] = a3\n 37491: u64 [s1 + 0x78] = a2\n 37494: a0 = u64 [s1 + 0x40]\n 37497: a0 = a5 <u a0\n 37500: a2 = u64 [s1 + 0x50]\n 37503: a3 = ra ^ a2\n 37506: a2 = ra <u a2\n 37509: a2 = a0 if a3 == 0\n 37512: a4 = u64 [s1 + 0x48]\n 37515: a0 = t1 <u a4\n 37518: a3 = u64 [s1 + 0x58]\n 37521: t2 = a5\n 37523: a5 = t0 ^ a3\n 37526: a3 = t0 <u a3\n 37529: a3 = a0 if a5 == 0\n 37532: a0 = t1 ^ a4\n 37535: a0 = a0 | a5\n 37538: a3 = a2 if a0 == 0\n 37541: jump @1146 if a3 == 0\n      : @1142 (gas: 6)\n 37545: a0 = s1 + 0xe0\n 37549: u64 [s1 + 0x98] = t0\n 37553: u64 [s1 + 0x90] = t1\n 37557: u64 [s1 + 0x88] = ra\n 37561: u64 [s1 + 0x80] = t2\n 37565: ra = 1280, jump @21\n      : @1143 [@dyn 640] (gas: 30)\n 37572: a1 = u64 [s1 + 0x28]\n 37575: a0 = u64 [s1 + 0x80]\n 37579: a0 = a0 + a1\n 37582: a1 = a0 <u a1\n 37585: a4 = u64 [s1 + 0x20]\n 37588: a2 = u64 [s1 + 0x88]\n 37592: a2 = a2 + a4\n 37595: a2 = a2 + a1\n 37598: a3 = a2 ^ a4\n 37601: a4 = a2 <u a4\n 37604: a4 = a1 if a3 == 0\n 37607: a3 = u64 [s1 + 0x18]\n 37610: a1 = u64 [s1 + 0x90]\n 37614: a1 = a1 + a3\n 37617: t0 = a1 <u a3\n 37620: a5 = u64 [s1 + 0x38]\n 37623: a3 = u64 [s1 + 0x98]\n 37627: a5 = a5 + a3\n 37630: a3 = a5 + t0\n 37633: a4 = a4 + a1\n 37636: a1 = a4 <u a1\n 37639: a1 = a1 + a3\n 37642: a1 = a1 | a2\n 37645: a2 = a0 | a4\n 37648: a2 = a2 | a1\n 37651: a1 = a1 | a4\n 37654: a2 = a2 >> 0x20\n 37657: a1 = a1 << 0x20\n 37660: a1 = a1 | a2\n 37663: jump @1148 if a1 != 0\n      : @1144 (gas: 10)\n 37667: a2 = u64 [s1 + 0xf8]\n 37671: a1 = u64 [s1 + 0xf0]\n 37675: a3 = u64 [s1 + 0xe8]\n 37679: a4 = u64 [s1 + 0xe0]\n 37683: u64 [s1 + 0xc0] = a4\n 37687: u64 [s1 + 0xc8] = a3\n 37691: u64 [s1 + 0xd0] = a1\n 37695: a1 = s1 + 0xc0\n 37699: u64 [s1 + 0xd8] = a2\n 37703: ra = 1282, jump @19\n      : @1145 [@dyn 641] (gas: 37)\n 37710: a5 = u64 [s1 + 0x78]\n 37713: a5 = a5 + 0x1\n 37716: a0 = a5 <u 0x1\n 37719: a3 = u64 [s1 + 0x70]\n 37722: a3 = a3 + a0\n 37725: a0 = a5 | a3\n 37728: a0 = a0 <u 0x1\n 37731: a1 = u64 [s1 + 0x60]\n 37734: t1 = a1 + a0\n 37737: a1 = t1 <u a1\n 37740: a0 = u64 [s1 + 0x68]\n 37743: a0 = a0 + a1\n 37746: a1 = u64 [s1 + 0x80]\n 37750: t2 = a1 + 0x20\n 37753: a2 = t2 <u a1\n 37756: a1 = u64 [s1 + 0x88]\n 37760: ra = a1 + a2\n 37763: a4 = ra <u a1\n 37766: a4 = a2 if a2 == 0\n 37769: a1 = u64 [s1 + 0x90]\n 37773: a4 = a4 + a1\n 37776: a2 = a4 <u a1\n 37779: t0 = u64 [s1 + 0x98]\n 37783: t0 = t0 + a2\n 37786: u64 [s1 + 0x70] = a3\n 37789: a1 = u64 [s1 + 0x30]\n 37792: u64 [a1 + 0x8] = a3\n 37795: a2 = a5\n 37797: u64 [a1] = a5\n 37799: a5 = t1\n 37801: u64 [a1 + 0x10] = a5\n 37804: a3 = a0\n 37806: u64 [a1 + 0x18] = a0\n 37809: u64 [s1 + 0x60] = a5\n 37812: a5 = t2\n 37814: t1 = a4\n 37816: jump @1141\n      : @1146 (gas: 4)\n 37819: a3 = u64 [s1 + 0x28]\n 37822: a4 = u64 [s1 + 0x20]\n 37825: a5 = u64 [s1 + 0x18]\n 37828: fallthrough\n      : @1147 (gas: 26)\n 37829: a0 = a3 + t2\n 37832: a1 = a0 <u a3\n 37835: a2 = a4 + ra\n 37838: a2 = a2 + a1\n 37841: a3 = a2 ^ a4\n 37844: a4 = a2 <u a4\n 37847: a4 = a1 if a3 == 0\n 37850: a1 = a5 + t1\n 37853: a4 = a4 + a1\n 37856: a3 = a4 <u a1\n 37859: a1 = a1 <u a5\n 37862: a5 = u64 [s1 + 0x38]\n 37865: a5 = a5 + t0\n 37868: a1 = a1 + a5\n 37871: a1 = a1 + a3\n 37874: a3 = u64 [s1 + 0x10]\n 37877: u64 [a3] = a0\n 37879: u64 [a3 + 0x8] = a2\n 37882: u64 [a3 + 0x10] = a4\n 37885: u64 [a3 + 0x18] = a1\n 37888: sp = s0 + 0xfffffffffffffe20\n 37892: ra = u64 [sp + 0x1d8]\n 37896: s0 = u64 [sp + 0x1d0]\n 37900: s1 = u64 [sp + 0x1c8]\n 37904: sp = sp + 0x1e0\n 37908: ret\n      : @1148 (gas: 1)\n 37910: trap\n      : @1149 [export #0: 'call'] (gas: 2)\n 37911: a0 = 0\n 37913: ra = 1284, jump @32\n      : @1150 [@dyn 642] [export #1: 'deploy'] (gas: 2)\n 37920: a0 = 0x1\n 37923: ra = 1286, jump @32\n      : @1151 [@dyn 643] (gas: 22)\n 37930: a4 = u64 [s1 + 0x1b8]\n 37934: a2 = a4 <u 0x80\n 37938: a3 = u64 [s1 + 0x160]\n 37942: a0 = a3 if a2 != 0\n 37945: a5 = u64 [s1 + 0x168]\n 37949: a3 = u64 [s1 + 0x178]\n 37953: a3 = a3 | a5\n 37956: a3 = a1 if a2 == 0\n 37959: a0 = 0xffffffffffffffff if a4 == 0\n 37962: a3 = 0xffffffffffffffff if a4 == 0\n 37965: a5 = 0 if a2 == 0\n 37967: a4 = u64 [s1 + 0x170]\n 37971: a4 = 0 if a2 == 0\n 37973: a1 = u64 [s1 + 0x198]\n 37977: a1 = a1 & ~a3\n 37980: a2 = u64 [s1 + 0x1a0]\n 37984: a0 = a2 & ~a0\n 37987: a2 = u64 [s1 + 0x1a8]\n 37991: a2 = a2 & ~a4\n 37994: a3 = u64 [s1 + 0x1b0]\n 37998: a3 = a3 & ~a5\n 38001: jump [t0]\n      : @1152 (gas: 38)\n 38003: t1 = u64 [s1 + 0x168]\n 38007: t1 = t1 + 0x1\n 38010: a0 = t1 <u 0x1\n 38013: t2 = u64 [s1 + 0x160]\n 38017: t2 = t2 + a0\n 38020: a0 = t1 | t2\n 38023: a0 = a0 <u 0x1\n 38026: a1 = u64 [s1 + 0x170]\n 38030: ra = a1 + a0\n 38033: a1 = ra <u a1\n 38036: a0 = u64 [s1 + 0x188]\n 38040: a0 = a0 + a1\n 38043: a1 = u64 [s1 + 0x1b8]\n 38047: a2 = a1 + 0x20\n 38050: u64 [s1 + 0x188] = a2\n 38054: a3 = a2 <u a1\n 38057: a1 = u64 [s1 + 0x158]\n 38061: a2 = a1 + a3\n 38064: u64 [s1 + 0x168] = a2\n 38068: a4 = a2 <u a1\n 38071: a4 = a3 if a3 == 0\n 38074: a1 = u64 [s1 + 0x1b0]\n 38078: a3 = a1 + a4\n 38081: a4 = a3 <u a1\n 38084: a1 = u64 [s1 + 0x1a8]\n 38088: a1 = a1 + a4\n 38091: u64 [s1 + 0x1a8] = a1\n 38095: a1 = u64 [s1 + 0x198]\n 38099: a4 = a1 + 0x20\n 38102: a5 = a4 <u a1\n 38105: a2 = u64 [s1 + 0x178]\n 38109: a1 = a2 + a5\n 38112: a2 = a1 <u a2\n 38115: a2 = a5 if a5 == 0\n 38118: a5 = u64 [s1 + 0x180]\n 38122: a2 = a2 + a5\n 38125: a5 = a2 <u a5\n 38128: jump [t0]\n      : @1153 (gas: 23)\n 38130: a4 = u64 [s1 + 0x1b8]\n 38134: a2 = a4 <u 0x80\n 38138: a3 = u64 [s1 + 0x170]\n 38142: a1 = a3 if a2 != 0\n 38145: a5 = u64 [s1 + 0x178]\n 38149: a3 = u64 [s1 + 0x188]\n 38153: a3 = a3 | a5\n 38156: a3 = a0 if a2 == 0\n 38159: a1 = 0xffffffffffffffff if a4 == 0\n 38162: a3 = 0xffffffffffffffff if a4 == 0\n 38165: a4 = u64 [s1 + 0x180]\n 38169: a4 = 0 if a2 == 0\n 38171: a5 = 0 if a2 == 0\n 38173: a0 = u64 [s1 + 0x190]\n 38177: a0 = a0 & ~a3\n 38180: a2 = u64 [s1 + 0x1a0]\n 38184: a1 = a2 & ~a1\n 38187: a2 = u64 [s1 + 0x1a8]\n 38191: a2 = a2 & ~a5\n 38194: a3 = u64 [s1 + 0x1b0]\n 38198: a3 = a3 & ~a4\n 38201: a4 = s1 + 0x2938\n 38205: jump [t0]\n      : @1154 (gas: 10)\n 38207: u64 [s1 + 0x178] = a0\n 38211: u64 [s1 + 0x180] = a1\n 38215: a0 = u64 [s1 + 0x170]\n 38219: a0 = a0 | a1\n 38222: u64 [s1 + 0x170] = a0\n 38226: a0 = u64 [s1 + 0x1b8]\n 38230: a2 = a0 + 0xffffffffffffff80\n 38233: a0 = 0xffffffffffffffff\n 38236: a1 = 0xffffffffffffffff\n 38239: jump [t0]\n      : @1155 (gas: 20)\n 38241: a3 = a3 + a4\n 38244: u64 [s1 + 0x188] = a3\n 38248: a3 = a3 << 0x3b\n 38251: a4 = a2 >> 0x5\n 38254: a4 = a4 | a3\n 38257: a0 = u64 [s1 + 0x1a8]\n 38261: t1 = u64 [a0 + 0x18]\n 38264: a2 = a2 << 0x3b\n 38267: a3 = u64 [a0 + 0x10]\n 38270: a1 = a1 >> 0x5\n 38273: a0 = a1 | a2\n 38276: t2 = reverse t1\n 38278: a2 = reverse a3\n 38280: a1 = u64 [s1 + 0x158]\n 38284: a1 = 0 if a5 != 0\n 38286: a3 = u64 [s1 + 0x160]\n 38290: a1 = 0 if a3 != 0\n 38292: a4 = 0 if a1 != 0\n 38294: a0 = 0 if a1 != 0\n 38296: jump [t0]\n      : @1156 (gas: 10)\n 38298: u64 [s1 + 0x170] = a0\n 38302: u64 [s1 + 0x168] = a1\n 38306: a1 = u64 [s1 + 0x160]\n 38310: a0 = a0 | a1\n 38313: u64 [s1 + 0x160] = a0\n 38317: a0 = u64 [s1 + 0x1b8]\n 38321: i32 a2 = a0 + 0xffffffffffffff80\n 38324: a0 = 0xffffffffffffffff\n 38327: a1 = 0xffffffffffffffff\n 38330: jump [t0]\n      : @1157 (gas: 17)\n 38332: a0 = a3 >u 0\n 38334: a1 = a4 >u 0\n 38336: a1 = a0 if a3 != 0\n 38339: a0 = a5 >u 0\n 38341: u64 [s1 + 0x198] = a2\n 38345: a2 = a2 <u 0x20\n 38348: a2 = a2 ^ 0x1\n 38351: u64 [s1 + 0x1a0] = a5\n 38355: a2 = a0 if a5 != 0\n 38358: a5 = s1 + 0x100\n 38362: u64 [a5 + 0xa8] = a3\n 38366: u64 [a5 + 0xb0] = a4\n 38370: a0 = a4 | a3\n 38373: a2 = a1 if a0 != 0\n 38376: a0 = u64 [a5 + 0x28]\n 38379: a0 = a0 <u 0x20\n 38382: jump [t0]\n      : @1158 (gas: 7)\n 38384: a0 = a0 << 0x3b\n 38387: a1 = a0 >> 0x38\n 38390: u64 [s1 + 0x1b8] = a1\n 38394: a2 = 0x80 - a1\n 38398: a0 = 0xffffffffffffffff\n 38401: a1 = 0xffffffffffffffff\n 38404: jump [t0]\n      : @1159 (gas: 24)\n 38406: a4 = u64 [s1 + 0x1b8]\n 38410: a2 = a4 <u 0x80\n 38414: a3 = u64 [s1 + 0x170]\n 38418: a1 = a3 if a2 != 0\n 38421: a5 = u64 [s1 + 0x178]\n 38425: a3 = u64 [s1 + 0x188]\n 38429: a3 = a3 | a5\n 38432: a3 = a0 if a2 == 0\n 38435: a1 = 0xffffffffffffffff if a4 == 0\n 38438: a3 = 0xffffffffffffffff if a4 == 0\n 38441: a4 = u64 [s1 + 0x180]\n 38445: a4 = 0 if a2 == 0\n 38447: a5 = 0 if a2 == 0\n 38449: a0 = u64 [s1 + 0x198]\n 38453: a0 = a0 & ~a3\n 38456: a2 = u64 [s1 + 0x1a0]\n 38460: a1 = a2 & ~a1\n 38463: a2 = u64 [s1 + 0x1a8]\n 38467: a2 = a2 & ~a5\n 38470: a3 = u64 [s1 + 0x1b0]\n 38474: a3 = a3 & ~a4\n 38477: a4 = s1 + 0x2138\n 38481: a5 = a4 + 0x500\n 38485: jump [t0]\n      : @1160 (gas: 17)\n 38487: a2 = u64 [s1 + 0x120]\n 38491: a0 = u64 [a2 + 0x8]\n 38494: a1 = i32 [a2 + 0x10]\n 38497: a2 = u64 [a2]\n 38499: a0 = reverse a0\n 38501: a3 = a0 << 0x20\n 38504: a1 = reverse a1\n 38506: a1 = a1 >> 0x20\n 38509: a3 = a3 | a1\n 38512: a0 = a0 >> 0x20\n 38515: a1 = reverse a2\n 38517: a2 = a1 << 0x20\n 38520: a0 = a0 | a2\n 38523: a1 = a1 >> 0x20\n 38526: a2 = s1 + 0x7ff\n 38530: a2 = a2 + 0x139\n 38534: jump [t0]\n      : @1161 (gas: 9)\n 38536: a0 = a0 + a4\n 38539: a2 = a1 | a5\n 38542: a0 = a0 | a3\n 38545: a2 = a2 | a0\n 38548: a2 = a2 >> 0x20\n 38551: a0 = a0 | a5\n 38554: a0 = a0 << 0x20\n 38557: a0 = a0 | a2\n 38560: jump [t0]\n      : @1162 (gas: 23)\n 38562: a0 = u64 [s1 + 0x130]\n 38566: u64 [s1 + 0x198] = a4\n 38570: a0 = a4 <u a0\n 38573: a4 = a0 ^ 0x1\n 38576: u64 [s1 + 0x178] = a3\n 38580: a4 = 0x1 if a3 != 0\n 38583: u64 [s1 + 0x180] = a2\n 38587: a0 = u64 [s1 + 0x1a0]\n 38591: a0 = a0 | a2\n 38594: a4 = 0x1 if a0 != 0\n 38597: a1 = u64 [s1 + 0x138]\n 38601: a0 = u64 [s1 + 0x1b8]\n 38605: a1 = a1 + a0\n 38608: a3 = u64 [s1 + 0x150]\n 38612: ra = a5 + a3\n 38615: a2 = u64 [s1 + 0x140]\n 38619: a0 = u64 [s1 + 0x1b0]\n 38623: a2 = a2 + a0\n 38626: a0 = u64 [s1 + 0x148]\n 38630: a3 = a5\n 38632: a5 = u64 [s1 + 0x1a8]\n 38636: a0 = a0 + a5\n 38639: jump [t0]\n      : @1163 (gas: 10)\n 38641: a4 = a3 + 0x4\n 38644: a3 = a4 <u a3\n 38647: a5 = a2 + a3\n 38650: a2 = a5 <u a2\n 38653: a2 = a3 if a3 == 0\n 38656: a2 = a2 + a1\n 38659: a1 = a2 <u a1\n 38662: a3 = a0 + a1\n 38665: a0 = u64 [sp + 0x90]\n 38669: jump [t0]\n      : @1164 (gas: 14)\n 38671: u64 [s1 + 416] = 0\n 38675: a3 = u64 [s1 + 0x188]\n 38679: a0 = u64 [a3 + 0x18]\n 38682: a1 = u64 [a3 + 0x10]\n 38685: a2 = u64 [a3 + 0x8]\n 38688: a3 = u64 [a3]\n 38690: t1 = reverse a0\n 38692: t2 = reverse a1\n 38694: ra = reverse a2\n 38696: a2 = 0\n 38698: a4 = u64 [s1 + 0x198]\n 38702: a0 = reverse a3\n 38704: a3 = 0\n 38706: jump [t0]\n      : @1165 (gas: 6)\n 38708: u64 [s1 + 0x188] = a0\n 38712: u64 [s1 + 0x170] = a1\n 38716: a0 = 0xffffffffffffffff\n 38719: a1 = 0xffffffffffffffff\n 38722: a2 = u64 [s1 + 0x1b8]\n 38726: jump [t0]\n      : @1166 (gas: 8)\n 38728: t1 = u64 [a0 + 0x18]\n 38731: a2 = a2 << 0x3b\n 38734: a3 = u64 [a0 + 0x10]\n 38737: a1 = a1 >> 0x5\n 38740: a0 = a1 | a2\n 38743: t2 = reverse t1\n 38745: a2 = reverse a3\n 38747: jump [t0]\n      : @1167 (gas: 8)\n 38749: a0 = a0 + a4\n 38752: a3 = a3 + a1\n 38755: a5 = a3 <u a1\n 38758: a0 = a0 + a5\n 38761: ra = u64 [s1 + 0x180]\n 38765: ra = ra + a3\n 38768: a3 = ra <u a3\n 38771: jump [t0]\n      : @1168 (gas: 5)\n 38773: u64 [s1 + 0x1b8] = a1\n 38777: i32 a2 = 0x80 - a1\n 38781: a0 = 0xffffffffffffffff\n 38784: a1 = 0xffffffffffffffff\n 38787: jump [t0]\n      : @1169 (gas: 8)\n 38789: a1 = sp + 0xffffffffffffffe0\n 38792: a1 = a1 & 0xffffffffffffffe0\n 38795: u64 [s1 + 0x188] = a1\n 38799: sp = a1\n 38801: i32 a0 = a0 + 0\n 38803: i32 a2 = a1 + 0\n 38805: a1 = 0x20\n 38808: jump [t0]\n      : @1170 (gas: 8)\n 38810: a0 = sp + 0xffffffffffffffe0\n 38813: a0 = a0 & 0xffffffffffffffe0\n 38816: u64 [s1 + 0x1a8] = a0\n 38820: sp = a0\n 38822: i32 a2 = a0 + 0\n 38824: a1 = 0x20\n 38827: a0 = u64 [s1 + 0xb0]\n 38831: jump [t0]\n      : @1171 (gas: 17)\n 38833: a0 = a3 <u a0\n 38836: a1 = u64 [s1 + 0xe0]\n 38840: a4 = a1 + a0\n 38843: a1 = a4 <u a1\n 38846: a1 = a0 if a0 == 0\n 38849: a0 = u64 [s1 + 0xf0]\n 38853: a5 = a0 + a1\n 38856: a0 = a5 <u a0\n 38859: a1 = u64 [s1 + 0xe8]\n 38863: a0 = a0 + a1\n 38866: u64 [s1 + 0x158] = a5\n 38870: u64 [a2 + 0x10] = a5\n 38873: u64 [s1 + 0x168] = a4\n 38877: u64 [a2 + 0x8] = a4\n 38880: u64 [s1 + 0x170] = a3\n 38884: u64 [a2] = a3\n 38886: jump [t0]\n      : @1172 (gas: 5)\n 38888: u64 [s1 + 416] = 0\n 38892: u64 [s1 + 408] = 0\n 38896: u64 [s1 + 424] = 0\n 38900: u64 [s1 + 432] = 0\n 38904: jump [t0]\n      : @1173 (gas: 7)\n 38906: a1 = u64 [a2 + 0xb8]\n 38910: a0 = a1 <u a0\n 38913: a1 = u64 [a2 + 0xb0]\n 38917: a0 = 0 if a1 != 0\n 38919: a1 = u64 [a2 + 0x98]\n 38923: a0 = 0 if a1 != 0\n 38925: jump [t0]\n      : @1174 (gas: 16)\n 38927: a2 = u64 [s1 + 0xc0]\n 38931: a0 = u64 [a2 + 0x8]\n 38934: a1 = i32 [a2 + 0x10]\n 38937: a2 = u64 [a2]\n 38939: a0 = reverse a0\n 38941: a3 = a0 << 0x20\n 38944: a1 = reverse a1\n 38946: a1 = a1 >> 0x20\n 38949: a3 = a3 | a1\n 38952: a0 = a0 >> 0x20\n 38955: a1 = reverse a2\n 38957: a2 = a1 << 0x20\n 38960: a0 = a0 | a2\n 38963: a1 = a1 >> 0x20\n 38966: a2 = s1 + 0x1938\n 38970: jump [t0]\n      : @1175 (gas: 16)\n 38972: a1 = u64 [s1 + 0xd0]\n 38976: a2 = a1 >> 0x3f\n 38979: u64 [s1 + 0x98] = a2\n 38983: a2 = a4 << 0x1\n 38986: u64 [s1 + 0x90] = a2\n 38990: a2 = a3 >> 0x3f\n 38993: u64 [s1 + 0x80] = a2\n 38997: a1 = a1 << 0x1\n 39000: u64 [s1 + 0x68] = a1\n 39003: a1 = u64 [s1 + 0x128]\n 39007: a2 = a1 >> 0x3f\n 39010: u64 [s1 + 0x88] = a2\n 39014: a2 = a3 << 0x1\n 39017: u64 [s1 + 0x70] = a2\n 39020: a2 = a1 << 0x1\n 39023: jump [t0]\n      : @1176 (gas: 8)\n 39025: a4 = a2 + a0\n 39028: a4 = a4 + a3\n 39031: a3 = a4 ^ a2\n 39034: u64 [s1 + 0x190] = a4\n 39038: a2 = a4 <u a2\n 39041: a2 = a0 if a3 == 0\n 39044: a4 = u64 [s1 + 0x188]\n 39048: jump [t0]\n      : @1177 (gas: 8)\n 39050: a4 = u64 [a5 + 0x80]\n 39054: a1 = a1 | a4\n 39057: a4 = u64 [a5 + 0x88]\n 39061: a3 = a3 | a4\n 39064: a4 = u64 [a5 + 0x90]\n 39068: a2 = a2 | a4\n 39071: a4 = s1 + 0x2938\n 39075: jump [t0]\n      : @1178 (gas: 6)\n 39077: a0 = a0 + a3\n 39080: a3 = a4 >> 0x5\n 39083: a4 = a0 << 0x3b\n 39086: a3 = a3 | a4\n 39089: a4 = u64 [s1 + 0x1a8]\n 39093: jump [t0]\n      : @1179 (gas: 15)\n 39095: a5 = a5 + a2\n 39098: a4 = a5 <u a2\n 39101: a0 = u64 [s1 + 0x1b0]\n 39105: a2 = a2 <u a0\n 39108: a0 = t2 + a2\n 39111: a0 = a0 + a4\n 39114: a2 = a1 | a5\n 39117: a0 = a0 | a3\n 39120: a2 = a2 | a0\n 39123: a2 = a2 >> 0x20\n 39126: a0 = a0 | a5\n 39129: a0 = a0 << 0x20\n 39132: a0 = a0 | a2\n 39135: u64 [s1 + 0x168] = t1\n 39139: jump [t0]\n      : @1180 (gas: 7)\n 39141: a1 = a0 + 0x1f\n 39144: a0 = a1 <u a0\n 39147: a5 = u64 [s1 + 0x170]\n 39151: a2 = a5 + a0\n 39154: a3 = a2 <u a5\n 39157: a3 = a0 if a0 == 0\n 39160: jump [t0]\n      : @1181 (gas: 7)\n 39162: a0 = sp + 0xffffffffffffffe0\n 39165: a0 = a0 & 0xffffffffffffffe0\n 39168: u64 [s1 + 0x198] = a0\n 39172: sp = a0\n 39174: a1 = 0x20\n 39177: a0 = 0\n 39179: jump [t0]\n      : @1182 (gas: 7)\n 39181: a0 = sp + 0xffffffffffffffe0\n 39184: a0 = a0 & 0xffffffffffffffe0\n 39187: u64 [s1 + 0x190] = a0\n 39191: sp = a0\n 39193: a1 = 0x20\n 39196: a0 = 0\n 39198: jump [t0]\n      : @1183 (gas: 8)\n 39200: a1 = sp + 0xffffffffffffffe0\n 39203: a1 = a1 & 0xffffffffffffffe0\n 39206: u64 [s1 + 0x190] = a1\n 39210: sp = a1\n 39212: i32 a0 = a0 + 0\n 39214: i32 a2 = a1 + 0\n 39216: a1 = 0x20\n 39219: jump [t0]\n      : @1184 (gas: 7)\n 39221: a0 = 0x20\n 39224: u64 [s1 + 0x1b8] = a0\n 39228: a5 = 0\n 39230: u64 [s1 + 432] = 0\n 39234: u64 [s1 + 424] = 0\n 39238: u64 [s1 + 408] = 0\n 39242: jump [t0]\n      : @1185 (gas: 11)\n 39244: a3 = u64 [s1 + 0x1b8]\n 39248: a0 = u64 [a3 + 0x18]\n 39251: a1 = u64 [a3 + 0x10]\n 39254: a2 = u64 [a3 + 0x8]\n 39257: a3 = u64 [a3]\n 39259: a0 = reverse a0\n 39261: a1 = reverse a1\n 39263: a2 = reverse a2\n 39265: a3 = reverse a3\n 39267: a4 = s1 + 0x2138\n 39271: jump [t0]\n      : @1186 (gas: 4)\n 39273: a1 = 0 if a3 != 0\n 39275: a4 = 0 if a1 != 0\n 39277: a0 = 0 if a1 != 0\n 39279: jump [t0]\n      : @1187 (gas: 9)\n 39281: a0 = a0 & ~a3\n 39284: a2 = u64 [s1 + 0x1a0]\n 39288: a1 = a2 & ~a1\n 39291: a2 = u64 [s1 + 0x1a8]\n 39295: a2 = a2 & ~a5\n 39298: a3 = u64 [s1 + 0x1b0]\n 39302: a3 = a3 & ~a4\n 39305: a4 = s1 + 0x2138\n 39309: jump [t0]\n      : @1188 (gas: 11)\n 39311: t2 = u64 [s1 + 0x1a8]\n 39315: t2 = t2 + 0x1\n 39318: a0 = t2 <u 0x1\n 39321: a4 = u64 [s1 + 0x1b8]\n 39325: a4 = a4 + a0\n 39328: a0 = t2 | a4\n 39331: a0 = a0 <u 0x1\n 39334: a1 = u64 [s1 + 0x198]\n 39338: a0 = a0 + a1\n 39341: a1 = a0 <u a1\n 39344: jump [t0]\n      : @1189 (gas: 10)\n 39346: a4 = a2 + a0\n 39349: a4 = a4 + a3\n 39352: a3 = a4 ^ a2\n 39355: u64 [s1 + 0x190] = a4\n 39359: a2 = a4 <u a2\n 39362: a2 = a0 if a3 == 0\n 39365: a4 = u64 [s1 + 0x188]\n 39369: a0 = u64 [s1 + 0x138]\n 39373: a0 = a4 <u a0\n 39376: jump [t0]\n      : @1190 (gas: 13)\n 39378: a5 = a5 + a2\n 39381: a3 = a5 <u a2\n 39384: a2 = a2 <u ra\n 39387: a0 = t1 + a2\n 39390: a0 = a0 + a3\n 39393: a2 = a1 | a5\n 39396: a0 = a0 | a4\n 39399: a2 = a2 | a0\n 39402: a2 = a2 >> 0x20\n 39405: a0 = a0 | a5\n 39408: a0 = a0 << 0x20\n 39411: a0 = a0 | a2\n 39414: jump [t0]\n      : @1191 (gas: 11)\n 39416: a3 = s1 + 0x100\n 39420: a0 = u64 [a3 + 0x48]\n 39423: a1 = u64 [a3 + 0x40]\n 39426: a0 = a0 | a1\n 39429: a1 = 0xffffffe0\n 39439: a2 = u64 [a3 + 0x38]\n 39442: a1 = a2 <u a1\n 39445: a2 = u64 [a3 + 0x50]\n 39448: a1 = 0 if a2 != 0\n 39450: a1 = 0 if a0 != 0\n 39452: jump [t0]\n      : @1192 (gas: 10)\n 39454: a0 = u64 [s1 + 0x128]\n 39458: a1 = a0 + 0x1f\n 39461: a0 = a1 <u a0\n 39464: a5 = u64 [s1 + 0x130]\n 39468: a2 = a5 + a0\n 39471: a3 = a2 <u a5\n 39474: a3 = a0 if a0 == 0\n 39477: a4 = u64 [s1 + 0xd0]\n 39481: a3 = a3 + a4\n 39484: jump [t0]\n      : @1193 (gas: 10)\n 39486: a4 = u64 [a0 + 0xa0]\n 39490: a1 = u64 [a0 + 0x98]\n 39494: a3 = u64 [a0 + 0x90]\n 39498: a0 = a4 >u 0\n 39500: a5 = a1 >u 0\n 39502: a5 = a0 if a4 != 0\n 39505: u64 [s1 + 0x170] = a3\n 39509: a0 = a3 >u 0\n 39511: a3 = s1 + 0x100\n 39515: jump [t0]\n      : @1194 (gas: 9)\n 39517: a1 = a0 <u a1\n 39520: a3 = u64 [s1 + 0x1b0]\n 39524: a2 = a3 + a1\n 39527: a3 = a2 <u a3\n 39530: a3 = a1 if a1 == 0\n 39533: a1 = u64 [s1 + 0x1a0]\n 39537: a3 = a3 + a1\n 39540: a1 = a3 <u a1\n 39543: jump [t0]\n      : @1195 (gas: 8)\n 39545: a2 = a2 | a0\n 39548: a2 = a2 >> 0x20\n 39551: a0 = a0 | a5\n 39554: a0 = a0 << 0x20\n 39557: a0 = a0 | a2\n 39560: u64 [s1 + 0x168] = t1\n 39564: u64 [s1 + 0x160] = t2\n 39568: jump [t0]\n      : @1196 (gas: 7)\n 39570: a1 = u64 [a2 + 0xb8]\n 39574: a0 = a1 <u a0\n 39577: a1 = u64 [a2 + 0xa8]\n 39581: a0 = 0 if a1 != 0\n 39583: a1 = u64 [a2 + 0x58]\n 39586: a0 = 0 if a1 != 0\n 39588: jump [t0]\n      : @1197 (gas: 5)\n 39590: a0 = sp + 0xffffffffffffffe0\n 39593: a2 = a0 & 0xffffffffffffffe0\n 39596: u64 [s1 + 0x1b8] = a2\n 39600: sp = a2\n 39602: jump [t0]\n      : @1198 (gas: 8)\n 39604: a4 = a2 + a0\n 39607: a4 = a4 + a3\n 39610: a3 = a4 ^ a2\n 39613: u64 [s1 + 0x188] = a4\n 39617: a2 = a4 <u a2\n 39620: a2 = a0 if a3 == 0\n 39623: a4 = u64 [s1 + 0x178]\n 39627: jump [t0]\n      : @1199 (gas: 4)\n 39629: a2 = a0\n 39631: a0 = 0x4e487b7100000000\n 39641: a1 = 0x1000\n 39645: jump [t0]\n      : @1200 (gas: 6)\n 39647: a0 = a1 <u a0\n 39650: a2 = u64 [sp + 0x78]\n 39653: a0 = 0 if a2 != 0\n 39655: a2 = u64 [sp + 0x50]\n 39658: a0 = 0 if a2 != 0\n 39660: jump [t0]\n      : @1201 (gas: 9)\n 39662: a2 = u64 [a5 + 0x68]\n 39665: a0 = u64 [a5 + 0x70]\n 39668: a1 = u64 [a5 + 0x78]\n 39671: a3 = u64 [a5 + 0x80]\n 39675: u64 [a5 + 0x40] = a3\n 39678: u64 [a5 + 0x38] = a1\n 39681: u64 [a5 + 0x30] = a0\n 39684: a0 = 0x2000\n 39688: jump [t0]\n      : @1202 (gas: 5)\n 39690: a5 = u64 [s1 + 0x190]\n 39694: u64 [a5 + 0x8] = t2\n 39697: u64 [a5] = t1\n 39699: u64 [a5 + 0x10] = ra\n 39702: jump [t0]\n      : @1203 (gas: 9)\n 39704: a1 = u64 [a2 + 0xc0]\n 39708: u64 [s1 + 0x1b0] = a1\n 39712: a1 = u64 [a2 + 0xb8]\n 39716: u64 [s1 + 0x1a8] = a1\n 39720: a1 = u64 [a2 + 0xb0]\n 39724: u64 [s1 + 0x1a0] = a1\n 39728: a0 = u64 [a2 + 0xa8]\n 39732: u64 [s1 + 0x190] = a0\n 39736: jump [t0]\n      : @1204 (gas: 4)\n 39738: a2 = a3 + a1\n 39741: a3 = a2 <u a3\n 39744: a3 = a1 if a1 == 0\n 39747: jump [t0]\n      : @1205 (gas: 8)\n 39749: u64 [sp + 48] = 0\n 39752: u64 [sp + 40] = 0\n 39755: u64 [sp + 32] = 0\n 39758: a0 = 0x4e487b7100000000\n 39768: a1 = sp + 0x20\n 39771: u64 [sp + 0x38] = a0\n 39774: a0 = 0\n 39776: jump [t0]\n      : @1206 (gas: 8)\n 39778: a0 = sp + 0xffffffffffffffe0\n 39781: a0 = a0 & 0xffffffffffffffe0\n 39784: u64 [s1 + 0x180] = a0\n 39788: sp = a0\n 39790: i32 a2 = a0 + 0\n 39792: a1 = 0x20\n 39795: a0 = u64 [s1 + 0xf8]\n 39799: jump [t0]\n      : @1207 (gas: 6)\n 39801: a2 = s1 + a1\n 39804: u64 [a2 + 1824] = 0\n 39808: u64 [a2 + 1816] = 0\n 39812: u64 [a2 + 1800] = 0xc0\n 39818: a1 = 0x2000\n 39822: jump [t0]\n      : @1208 (gas: 7)\n 39824: a3 = 0x100000000\n 39834: a0 = 0xffffffe0\n 39844: a1 = u64 [a4 + 0xb8]\n 39848: a0 = a1 <u a0\n 39851: a1 = u64 [a4 + 0xb0]\n 39855: a0 = 0 if a1 != 0\n 39857: jump [t0]\n      : @1209 (gas: 7)\n 39859: a0 = a3 >u 0\n 39861: a4 = a1 >u 0\n 39863: a4 = a0 if a3 != 0\n 39866: u64 [s1 + 0x130] = a2\n 39870: a0 = a2 >u 0\n 39872: u64 [s1 + 0xd0] = a1\n 39876: jump [t0]\n      : @1210 (gas: 6)\n 39878: sp = s0 + 0xffffffffffffffa0\n 39881: ra = u64 [sp + 0x58]\n 39884: s0 = u64 [sp + 0x50]\n 39887: s1 = u64 [sp + 0x48]\n 39890: sp = sp + 0x60\n 39893: jump [t0]\n      : @1211 (gas: 4)\n 39895: a3 = a1 | a0\n 39898: a4 = a2 <u 0x1\n 39901: a4 = 0 if a3 != 0\n 39903: jump [t0]\n      : @1212 (gas: 7)\n 39905: u64 [s1 + 0x160] = a0\n 39909: u64 [s1 + 0x178] = a1\n 39913: a0 = u64 [s1 + 0x128]\n 39917: i32 a2 = a0 << 0x3\n 39920: a0 = 0xffffffffffffffff\n 39923: a1 = 0xffffffffffffffff\n 39926: jump [t0]\n      : @1213 (gas: 7)\n 39928: a3 = a3 | a5\n 39931: a3 = a1 if a2 == 0\n 39934: a1 = 0xffffffffffffffff\n 39937: a0 = a1 if a4 == 0\n 39940: a3 = a1 if a4 == 0\n 39943: a5 = 0 if a2 == 0\n 39945: jump [t0]\n      : @1214 (gas: 4)\n 39947: i32 a0 = a0 + 0x138\n 39951: a3 = s1 + a0\n 39954: a4 = a3 + 0x300\n 39958: jump [t0]\n      : @1215 (gas: 4)\n 39960: a0 = a0 | a1\n 39963: a1 = 0xffffffe0\n 39973: a1 = a2 <u a1\n 39976: jump [t0]\n      : @1216 (gas: 2)\n 39978: a3 = a2 & 0x40\n 39981: jump @1220 if a3 != 0\n      : @1217 (gas: 1)\n 39984: jump @1219 if a2 == 0\n      : @1218 (gas: 6)\n 39987: i32 a3 = 0x40 - a2\n 39990: a3 = a1 << a3\n 39993: a1 = a1 >> a2\n 39996: a0 = a0 >> a2\n 39999: a0 = a0 | a3\n 40002: ret\n      : @1219 (gas: 1)\n 40004: ret\n      : @1220 (gas: 4)\n 40006: a0 = a2 + 0xffffffffffffffc0\n 40009: a0 = a1 >> a0\n 40012: a1 = 0\n 40014: ret\n      : @1221 (gas: 2)\n 40016: a3 = a2 & 0x40\n 40019: jump @1225 if a3 != 0\n      : @1222 (gas: 1)\n 40022: jump @1224 if a2 == 0\n      : @1223 (gas: 6)\n 40025: i32 a3 = 0x40 - a2\n 40028: a3 = a0 >> a3\n 40031: a0 = a0 << a2\n 40034: a1 = a1 << a2\n 40037: a1 = a1 | a3\n 40040: ret\n      : @1224 (gas: 1)\n 40042: ret\n      : @1225 (gas: 4)\n 40044: a1 = a2 + 0xffffffffffffffc0\n 40047: a1 = a0 << a1\n 40050: a0 = 0\n 40052: ret\n","bytecode":{"object":"50564d00005bb6000000000000010700c19000c0008003586c618b194b13360ac14157c36795ff86cf7f6ea76e047485ceaaded1bd885c1561206e6120746f4e2079646165726c41726574736967657231c87ae4a834372d6e0ac931c20a506e070df48522ca4818e9a0b3e40520a5ea0480bd0b000000000e0000001c0000002a000000300000003d000000480000005700000062000000740000007f00000063616c6c5f646174615f636f707963616c6c5f646174615f6c6f616463616c6c5f646174615f73697a6563616c6c65726465706f7369745f6576656e746765745f73746f72616765686173685f6b656363616b5f3235367365616c5f72657475726e7365745f696d6d757461626c655f646174617365745f73746f7261676576616c75655f7472616e73666572726564051302c017940463616c6cc02094066465706c6f7906c011b5828302c0769c9b00e3012703dc038c049104b70421052d056c05910564069e06ee0603073a078207de0728088308af08d108fb084b0984099109000a0c0a830a060b840b980bcb0bdb0b1d0c290cab0c3f0daf0dbf0d4e0eee0efe0e450f550fe60f86109a10dd10ed1068114f125912cf1243138d13b8134b146c148a14da141915251559156415b715721678169c16c716f416121719173f176e17d417df1706182c189d18fc186f19cf19431a541a5a1a7e1aa91a221b651bad1b0e1c601cba1cf81c811dab1de01df01d4f1e601e761e371f1d2040206a20b820c120ea20682106221322402249227a22f8229523a2231d24af24bc244025de25eb2558269926b126ca2627279e2749289e284e29aa295a2aaf2a282bb52b6f2c752c922cb52ce02cfd2c032d252d4c2db02d122e582eaf2e082f652fb12f1730243040304630663089306431ba31c831dc315832723283328d329632f53205331b33d9339d34a334a934af34703584358e35bf359136ef36ff360d3717371d37233729372f3735373b3755379e37b83715381b3836383c3842384838583876389138b9383a394839793987399b391a3a343a453a4f3a593ab83ac23ad83a933b593c5f3c653c3c3d4c3d563d883d9b3eab3eb93ec33ec93ecf3ed53edb3ee13ee73e053f7e3fdf3fe53f004006400c40124022404440c440d240034111412541a141bb41cc41d641e0413f42504266422443e743ed43f343f943bc44d0440645d44533464346714677467d46834689468f469546b346ff461a4777477d4798479e47a447aa47ba47e0476148b248dd4854496e497549aa49ba49194a234a394af74a874b8d4b934b994b694c854cc34c194e1f4e254e2b4efc4e144f4a4f27503e509a50aa50dc50e250e850ee50f450fa506751c251dd514d5253526e529452b152e35205531253745382539753eb53fc531354245432548154b754d95415552655c4551f564156f956515763571e5897587859ce59e259105a165a1c5a225a285a2e5a635a815ad25af05a615b7c5b825b885b8e5bd45be65b5a5cbb5c095d245d5e5db45dda5d225e565e5c5e735e835ef25f4d609e60a460aa60b060bd60c360c960e8602261326168616e617f61b96103621662506256625c62626268626e6274628e62d562f0625d63636369636f6375637b638163c763dc63f86351646f64a564d364ed6425654365506556656d657d65dc65e066e66620675b67616767676d677a6780678667a567df67ef6729682f6840687e68c968d968036909690f6915691b692169276945699069a769046a0a6a106a166a1c6a226a286a726a876a9f6ae56a386b666b806bb46bd26bd96b0e6c1e6c7d6c816d876deb6df16df76dfd6d0a6e106e166eb76ec56ef66efc6e0d6fa86fb66fdf6fe56feb6ff16ff76ffd6f32705070d6703e7144715f718571a2710e723172bb72f5723e73147433745b749f74dd74f5740d755275d875e5757776eb76217834783d78747887789078cc78dc78117924792d79647977798079a079da79ea79247a347a6e7a7e7ab87ac87ae67a757bd07b297ceb7cfb7c147d387d9f7db37db97dd07df47dbb7ee87ef67e0f7f337f19808880d980e5816182b282c382e2821c83a683b983c7830584538466847484b284dc84f28400853e8568857e858c85ca859286fb865987cd87dc87ea875c88818853898489da89068a608a718ac28acf8afd8a4c8b6f8b308c778c848cb38c788dc18dce8dfa8db98e058fae8fb68fbd8fd58ff98f6690a090fc905991cf91c4924e9320942a94aa876e978a2098aa20977b2098bb20c89b0bc9ba0a979b019abbaeab20ae873751094ec87909647a017c8b95880195ac0178ab64caab9cf42836510934c87909647a017c8b95880195ac0178ab64caab9cf4281c51091a839aff01c8a80b7cbb9599ffc8a70c78cb83aaff5209f0320039086000025108a104330790000383770a082894049511f07b10087b15648964753308206497501002a7037c78017c797c7a027c7b03978808d4980897aa1097bb18d4ba0ad4a8087c79057c7a047c7b067c7c07979908d4a90997bb1097cc18d4cb0bd4b909979920d489027c79097c7a087c7b0a7c7c0b979908d4a90997bb1097cc18d4cb0bd4b9097c7a0d7c7b0c7c7c0e7c780f97aa08d4ba0a97cc10978818d4c808d4a808978820d498037c78117c7a107c7b127c7c13978808d4a80897bb1097cc18d4cb0bd4b8087c7a157c7b147c7c167c791797aa08d4ba0a97cc10979918d4c909d4a909979920d4890a7c78197c79187c7b1a7c7c1b978808d4980897bb1097cc18d4cb0bd4b8087c791d7c7b1c7c7c1e7c771f979908d4b90997cc10977718d4c707d49707977720d487076f776fa86f396f2a7b5a187b59107b58087b57821008821595111032009511d87b10207b15187b161082897b19088289087b198285108286183308205010045f026f686f59821a6faa821b086fbb787b18787a10787908787898bc38787c1f98bc30787c1e98bc28787c1d98bc20787c1c98bc18787c1b98bc10787c1a98bb08787b1998ab38787b1798ab30787b1698ab28787b1598ab20787b1498ab18787b1398ab10787b1298aa08787a11989a38787a0f989a30787a0e989a28787a0d989a20787a0c989a18787a0b989a10787a0a98990878790998893878790798893078790698892878790598892078790498891878790398891078790298880878780182102082151882161095112832009511a07b10587b15507b16489515608411e06476828718828910828a0882886f776f996faa6f887b18187b1a107b19087b17491138491130491128491120481140208318831a20831b403309ff33070a05821738821830821928821a206f776f886f996faa7b6a187b69107b68087b67501206a5980032009511a07b10587b15509515608411e08272827a08827b108277188283828908828c108288186f746fbb6faa6f276f826fcc6f996f387b17187b1a107b1b087b147b18387b19307b1c287b12208318831a203309ff330b2033070a099551a08210588215509511603200951160ff7b1098007b1590007b1688009515a0008411e082ab7b1b3882ab087b1b3082ab107b1b2882aa187b1a20829a7b1a18829a087b1a10829a107b1a088299187b1964865010086582186f888219086f99821a106faa821b186fbb7b1b587b1a507b19487b18408218206f888219286f99821a306faa821b386fbb7b1b787b1a707b19687b18608379836a8317403308020a04955160ff8210980082159000821688009511a00032008b7910520931c8780883881f8488e056380000012533095c0002390a5c0002ae8a093d085c00020133087000028377c887073200009511f07b10087b158475010a02013d0758000251050750100a0950100ca1009511a07b10587b15509515608411e049111849111049018000330740641849110850100e0dfd4911384911304911284911208317200a0a01821730821838821928821a20d49808d4a707d487075107163308700002838833070133093300120a07283b39085c000256187f0c20035c0002800001330770000283778000330833090a285dfb33078000330850101021ff8378330733093300120a0701951110fe7b10e8017b15e0017b16d8019515f0019511f0d58411e0641695693821492900034929f8024929e8028000330740956820244929f00250101458fc33075800027b67b801390758000255170407280d72956700208377400433083300160a0101956938218197240352471e0966fd0a28c81951474fc5802f840c52472dff5f640a287d0f5147a493dc780a2879254929400749293807492930074929280795670030837760f80a0a01956a382195ab000782b73882b84082b93082ba28d49808d4a707d4870751070628b8718267b80181775617230728b27195670030837780f83308040a0101956a382182a9580782a7600714080000000001000000d39808d478087b69880198992088990194799389520906287b7182a750077b67900182a748077b6798019567a01333084050101826fa95683811958c000282c780007b67a80182c9787b69a00182cb707b6bb00182ca687b6ab8017bc7607bc9587bcb50956780137bca4850101a9f76956a000182a7a80082a8b000d4870782a9a00082a8b800d49808d47808988820d49707977720d4870751070628c0709567381149274002492738024927300295686013492728028267b80150101cd6fa956b000182b7a80082b9a000d4790950121e93940094975207062882708267b801837720956838117b69a80164894928200249281802492908026095684013492910027b6aa0015010208afa956900018297a0009577c08298b800d878078298b00094878298a8009487520706282f708267b80183774095693811492900024929f8014929f001956820134929e80150102242fa140900000000010000001407a0ffffff00000000956a000182a8b800d8780782a8b000948782a8a800948752070628da6f8267b801837760956838117b69a00164894928e0014928d8014928d001956800134929c80160501024e6f9956a000182a9a80082a7a00095778082a8b800d8780782a8b00094879497520706288b6f8267b80183778000956938114929c0014929b8014929a801609568e0124929b0015010269cf9140760ffffff00000000956900018298b800d878078298b00094878298a8009487520706283e6f826788019777209877207b67b0018267b8018377a000956938114929a0014929980149298801609568c0124929900150102841f995693811492980018267b001959a00017ba778826790017ba7709568a012826798017ba768330750102a15f9956738114927600149275801492750016479330720956880124929480150102cf3f89517e08477e07b67b001647139085c000256183f133308403d085c000233022e28b5910050122eb191003307700002837783993308400a06826ab80182a71882a81082a90882aa6f7c6f8b6f976fa87b6888018269b0017b98187b6790017b97107b6b80017b9b087b6c78017b9c956760123308405010303ff795683811958c000182c7407b67980182ca387b6aa00182cb307b6ba80182c9287b69b8017bc7207bca187bcb10956740127bc908501032b973956720128268b00150103425f9956a000182a9a00082a7980082a8a800d4870782a8b800d49808d47808988820d49707977720d4870751070628cd6d956c381182c8f80082c9f00082cae800140bffffffff00000000d28b0b8499ff84a7ff492ce0007bc7c8007bc9d000956800127bcbd8008267b801501036c4f79567e0113308405010387ef6956c381182c3c0007b63b00182c4b8007b64700182c0b0007b60680182c2a8007b626001826a780195aa0188a70182688001c88707d47a0888880182699001c89808d89809826b8801c8b9097bc3607bc4587bc0507bc2487bc980007bc8787bc7709567c0119568a011956980117bca6850103a7c850095683811828790008289a000828b88007b6b5801828a980082626801d32700d8270c82636001d83b04da040c82687001c98a0bd88a0a64808268b001c98909c9a909d8cb0ac9a909c9cb0bc92707c94704826a5801c93a0a956738117b7a087b78407b70387b72307b73287b74107b7b18647a95676011956840117ba92050103cf372956b000182b7a00082b99800d47909140a00000000010000001407e0ffffff0000000082b8b800d8780782b8a80094879497520706284f6c8267b8018377209568ff07958839017b6a5001826a6001958b00077bbae800826a68017bbaf000826a70017bbaf80095682011956a3811826bb0017bab7b69580150103e40f682687801958702d88708826a8001501240a88f0082689001c88a0ad88a08826b8801c8b808956b382195bc00077bc9707bc7687bca787bc88000956700119568a028501042ebf6956900018297509577c0501244bd8e0052070628ac6b956cff0795cc390182c9e00782c8d80782cad00782cbc8078267b8018377407bcba80795cb00077bbab0007bb8b8009568e0107bb9c000501046a7f59567c01033084050104861f4956cff0795cc390182c3a0077b63b00182c498077b64700182c090077b60680182ca88077b6a600182677801957203d8720782698001c87908d89809da770982679001c87909d87907826b8801c8b7077bc340077bc438077bc0300795cb00077bba287bb7607bb9587bb8509567a01095688010956960107bc2480750104a5483009568ff0795883901958c000782c77082c9800082cb687b6b500182ca7882626801d32700d8270c82636001d83b04da040c82687001c98a0bd88a0a64808268b001c98909c9a909d8cb0ac9a909c9cb0bc92707c94704826a5001c93a0a9567ff07957739017b7ae8067b7820077b7018077b7210077b7308077b74f0067b7bf806647a95674010956820107ba9000750104cba70956b000182b958140a00000000010000001407a0ffffff0000000082b8b800d8780782b8a80094879497520706281e6a8267b801837760956cff0795cc39018268600195c900067b98c800826868017b98d000826870017b98d80095680010826bb0017b9be0007b6a500150104e15f49567ff079577e107330840501050cbf2956cff0795cc390182c3c0067b63b00182c4b8067b64700182c0b0067b60680182caa8067b6a600182677801957204d8720782698001c87908d89809da770982679001c87909d87907826b8801c8b7077bc360067bc458067bc0500695cb00067bba487bb780007bb9787bb8709567ff079577c1079568ff079588a1079569ff07959981077bc26806501052b181009568ff0795883901958c000682c7900082c9a00082cb88007b6b480182ca980082626801d32700d8270c82636001d83b04da040c82687001c98a0bd88a0a64808268b001c98909c9a909d8cb0ac9a909c9cb0bc92707c94704826a4801c93a0a9567ff0795773901957c00067bca087bc8407b7038067b7230067b7328067b7410067bcb18647a9567ff07957761079568ff07958841077ba920065010540b6f956900018297509577805012569a8b005207062889688267b80183778000956aff0795aa39018268600195a900057b98e800826868017b98f000826870017b98f8009568ff07958821078269b0017ba900065010587ff29567ff079577010733084050105a35f1956cff0795cc390182c3e0057b63b00182c4d8057b64700182c0d0057b60680182677801957205d8720782698001c87908d89809da770982cac8057b6a800182679001c87909d87907826b8801c8b7077bc380057bc478057bc0700595cb00057bba687bb7a0007bb998007bb890009567ff079577e1069568ff079588c1069569ff079599a1067bc2880550105c1980009568ff0795883901958c000582c7b00082c9c00082cba8007b6b900182cab80082626801d32700d8270c82638001d83b04da040c82687001c98a0bd88a0a64808268b001c98909c9a909d8cb0ac9a909c9cb0bc92707c94704826a9001c93a0a9567ff0795773901957c00057bca287bc8607b7058057b7250057b7348057b7430057bcb38647a9567ff07957781069568ff07958861067ba9400550105e736d140760ffffff0000000095690001501260fe890052070628ed668267b8018377a000956aff0795aa39018268800195ab00057bb808826868017bb810826870017bb8189568ff07958841068269b0017bb920501062e7f09567ff07957721063308405010649def9568ff0795883901828900057b699001828af8047b6a8801828cf0047b6c8001828be8047b6bb001826798017b87a0048267a0017b8798048267a8017b8790048267b8017b878804958700047b79c0007b7ab8007b7cb000648a9567ff07957701069568ff079588e1059569ff079599c1057baba8045010666a77956b000182b88000648982b79000d4870782ba880082b8b000d4a808d47808988820d4a707977720d4870751070628f46564a29568ff0795883901958b000482b7d00082bae0007b6ab8018283c80482bad800d39700d8970c8264b001d84308da080cc92a0bc9cb00d8cb0b7b6ba801d82a0a826c9001826bb801c9cb0cc9ac0c826aa801c9ac0cc99707c98707c94308d4c7076489d40808d47808d40707988820977720d487075107062877658267b00164987b69b801330012012819f24929400349293803492930034929280395670020837760043300680a0a3307002033026a28c089003307002050126ab8890082b73882b84082b93082ba28d49808d4a707d487075107062862658267b801817756172307285c6595670020837780043308040a0195683821958900038297607b67a8018297587b67b8018297507b67a0018297487b67980149288003492878034928700349196801956780029568a02450106ce7ef8264a8018263a0018262980195690002829798008298800082609002829a8800d3740bd874078269b801d8090cdbb70cd3a307d8a30ad88208db7a08d30907d4b707db7c0852080628ca649517e08477e07b67b00164717b6438027b6930027b63280295674002956820027b62200250106e4068826778027b678001826770027b679001826768027b678801826760027b679801826750028268580282694002826a4802826bb0017bb7107bb8187bb97bba0864b89567000250107029ef956800028287187b67b8018287107b67b0018287087b67a00182877b67a8019567e001330840501072d2ec956b000182b7f80082b8f00082b9e80082bae000d49707d48a09d47909989920d48707977720d4970751070628a6638267980198793d826c880197c803d49803826b900198b83d82698001979903d4980898c93d7b6a880197ba03d4a909977a037b6a90018e9c8e8bda8c0b8e3288ac000185cc01db320cd49808db8b0c7b6c800183a9808267b0018268b801501074e587007b6778017b687001826798018a79037b6998018267a8018268a001501076c487007b6760017b686801826890018d8980008267b0018268b801501078cc870082696801d4890982689001888a80007b6a6801826b7001daab09826ba001da8b097b69a00182696001d4970782697801daa9078269a801da89077b67a8018267b0018268b8018269980150107a568700330882696801939797772098772082698001826ba801949b826aa001949a949793987b68d8017b67d0017b6ac8019568c0017b6bc0018267880150107cabec3308208267880150107e1def837833092033070a07014929a003492998034929900349298803956700208377c004330080000a0a330700203302820028b686003307002050228200ae860082b7980082b8a00082b9900082ba8800d49808d4a707d487075107062868628267b80180779569ff07959939014929e0034929d8037b97c8039567ff07957721059568ff07958801054929d003502084006b6d9568ff07958839019589000482977b67a801958a000382a7f8007b67a00182a7f0007b67980182a7e8007b6790018297207b6788018297187b6780018297107b6778018297087b6770018297407b6768018297387b6760018297307b6758018297287b6750018297607b6748018297587b6740018297507b6738018297487b673001829780007b6728018297787b67f0008297707b67e8008297687b67e00033077000037b67200183777b670801330086000a033302880028e87f50228800e57f4929c003959b00037bb8b8007bb7b0009568ff079588e1047bbaa800330750208a0029eb9567ff07957739014927a003492798034927900364793307209568ff079588c1044929880350208c00feea33095c000239075c000233083fac781520035c0002407b69000133028e0028c183007b69000150228e00b983003307700002837783993308407b67f800330090000a0633029200283e8200502292003a820095bc00037bcac0007bc9b8007bc8b0007bc7a8009567ff079577a1049568e0245020940078eb9569ff0795993901809778038298680382997003d48707d497077b67b8019567ff0795778104330840502096001de9956cff0795cc390195c70003827b6082785882794882c35003d48904d4b30ad4b8028267b8015107062826177b62b0017bc9a8027bc3b0027bc8b8027b64b8019567ff079577e1037b6bc8007bcbc0027b6918017b6310017b68d8007b6ad000502098006a658267080133009a000a03018267b8018269d000d497079877208268d800d49808978820d48707510706288d5f50229c00577e4929a002959b00027bb898007bb790009568ff079588c1037bba88008267180150209e0099e9140900000000010000001407e0ffffff00000000956b000182ba18d87a0782b810948782b8b000948752070628325f83a720956cff0795cc39018268900195ca00027ba868826898017ba8708268a0017ba8789568ff079588a103826ba8017bab80007b67a8017b69b8015020a00028e9956a000182a81882a7b8009577c0d8780782a910949782a9b000949752070628ce5e83874082687001956aff0795aa390195ab00027bb848826878017bb850826880017bb8589568ff0795888103826988017bb9607b67d0005020a200c9e8956b000182b818140a00000000010000001407a0ffffff00000000d8780782b910949782b9b000949752070628625e838760826850019569ff07959939017b6ab801649a959b00027bb828826858017bb830826860017bb8389568ff0795886103826968017ba940027b67c0005020a40056e8956b000182bab00082b81882b7b800957780d8780782b910949794a752070628fc5d8387800082683001956bff0795bb390195ba00027ba808826838017ba810826840017ba8189568ff0795884103826948017ba9207b67a8005020a600f6e7956a000182a818140760ffffff00000000d8780782a910949782a9b000949752070628995d1407ffffffff000000007b67a0008387a0008268e000956aff0795aa390195a900017b98e8008268e8007b98f0008268f0007b98f8009568ff0795882103826928017ba900027b67785020a80082e7826708013300aa000a033302ac0028067c5022ac00037c4929e001959b00017bb8d8007bb7d0009568ff07958801037bbac80033075020ae0047e79567ff07957739014927c0014927b8014927b00164793307209568ff079588e1024929a8015020b0001ce79517e08477e07b67b801647182690001819756173f08480940019517e08477e07b67b001647183793308408267f8000a06826ab00182a71882a81082a90882aa6f7c7b6cb8006f8b7b6be0006f987b68f0006fa77b67e8008269b8017b97187b98107b9b087b9c9567ff079577c102826818015020b20069e59569ff0795993901959a000182a7880082a8900082a998008477ff7b67b0018488ff7b68a0018267a000d297077b6798019567ff079577a1028268b8015020b40052e79568ff079588390180877c019777208288800182699801d4970795693821826aa001959b00037bbad000826ab0017bbac8007bb8e0007bb7d800956800258267b8015020b60082e79517e08478e064818269b800959901889701826ae000c87a0ad4a907887701826cf000c87c0bd8cb07826ce800c8c7077b6768017b87187b6b58017b8b107b6a60017b8a087b6898007b6970017b899567ff07957781028268a8015020b8007de49567ff0795773901957c000182ca6082cb5882c95082c848956c00017bc9507bca48d4a907d4b809d479099899207bcb40d4b707977720d49707510706283f5b9567ff07957761027b6838015020ba002be49569ff079599390195970001827b40827838827a308eb78e8cdbb70c7b6a30018ea77b6890007b6b2801d4b8087b67687b6c707b688800db8c0751070628145c829728017b67b0009567ff0795774102826898005020bc00fde5956bff0795bb390195bc000182c90882c71082c81882ca207bbae0007bb8d8007bb7d0009567ff07957721029568ff07958801027bb9c8005020be004c729567ff0795773901827a0001827bf800827cf0008272e8008ea78eb8dba7088ec7882920859901dbc709d4ab07db78098267b0008877207b6780005209062849307b6290017b6c98017b6bb0017b6aa0019567ff0795773901826870017b78a800826860017b78b000826858017b78b8009568ff079588e101826968017b79c00033075020c00044e482690001819756171f08480920019517e08477e07b67a801647183793308208267f8003300c2000a06018267b00095781fd87807826c3001c87c09d8c90ada770a826b9000c8ba0a7b6a880197aa3b989b05d4ab0b8267a8015022c4006e798268800094c8826a88005022c6007f7bc87402d84207c8790cc8cb0b7b6bb801d39b0cd89b0adac70a7b6a80018267900195701fd8700b826a9801c8ba07d8a70cdabb0c8263b001c8c303973b3b987a05d4ba0a97773b980b05d4b707c847077b679801d8470764245022c800287a82679000d87b07826a28015022ca004b7a82b282bb08987705948a94876fb86f2b5022cc00ed78c8a7028267b001d87307826aa001c8a707983a05977c3bd4ca0a987705c8b707956c000182cbb800c88a0ad88a08c88707c8a9097bc98800d8a908c887077bc780009517e08473e064317b6378010182679801d8740782699001d39b08d89b09da8709826c8801d8c007826a8001d3a208d8a20ada870ad3c007d48707da790a7b347b3b087b30107b3218520a06287b2e95673821492700044927f8034927f0034927e8039568202564377b64b0017b6bb8017b62a8017b60a0015020ce00f8e3826378018262a801826bb8018264b001954401884701c87b0bd4b4078877018268a001c88707d88708c8820264702860ff956738294927600249275802492750024927480295670030837780fb0a0a01956a382995ab000282b75882b86082b95082ba48d49808d4a707d487075107062848588267b801817756172307284258956700308377a0fb3308040a0101956b382982b8780282b7800214090000000001000000d38909d47909988a2088aa01947a939a520a06280f5882b9700282ba6802956b382195bc00027bcac8007bc9d0007bc8d800956800247bc7e00033075020d000a8e1956738214927c0024927b8024927b00264793307209568e0234929a8025020d20085e19517e08477e07b679801647139085c000256183f133308403d085c00023302d40028457a5022d400427a3307700002837783993308400a06826ab80182a71882a81082a90882aa6f7b7b6ba8016f8c7b6cb0016f997b69a0016fa77b67b801826898017b87187b89107b8c087b8b9567c0235020d600ffe13302d800956838210195890002829798007b671001829790007b672001829788007b6718019567a0233308405020da00a1df956b382182b280027b62800182b478027b64880182b070027b60900182b368027b639801826aa80195aa0188a7018268b001c88707d47a088888018269a001c89808d89809826cb801c8c9097bb220027bb418027bb010027bb3080295bc00027bc9407bc8387bc7309567802395686023956940237bca285020dc00976e95683821958b000282b75082b9607b69780182b9487b69700182ba5882689001d3870bd8870c82639801d83904dab40c82698801c99a0bd89a0a64908262800182697801c92909c9a909d8cb0ac9a9097b697801c9cb0bc98707c9470782697001c93909956a382195ac00017bc9c8007ba200027ba0f8017bc8f0007ba3e8017bc7d0007bcbd8009567202395680023826978017bc9e0005020de00f45b8268a8019587025022e0005078826bb801c8b808956b382995bc00027bc8a0007bca98007bc990007bc788009567e0229568c02b5020e20077e03302e4009568382101958900018297c0007b6700018297b8007b67f8008297b0007b67f0008297a8007b67e8009567c0223308405020e60011de956c382182caa0017b6a600182c498017b64680182c090017b60700182c388017b6378018267a801957203d872078269b001c87908d89809da77098267a001c87909d87907826bb801c8b70795cb00017bba407bc438017bc030017bc328017bb7607bb9587bb8509567a02295688022956960227bc248015020e800076d95683821958b000182b77082b980007b69580182b9687b69500182ba7882687001d3870bd8870c82637801d83904dab40c82696801c99a0bd89a0a64908262600182695801c92909c9a909d8cb0ac9a9097b695801c9cb0bc98707c94707826c5001c93c0c956938217b9ce8007b9220017b9018017b9810017b9308017b97f0007b9bf800649a9567402295682022826958017ba900015020ea00655a956700223308405020ec00e9dc956c382182cae0007b6a400182c4d8007b64480182c0d0007b60500182c3c8007b6358018267a801957204d872078269b001c87908d89809da77098267a001c87909d87907826bb801c8b7077bca80007bc4787bc0707bc3687bc7a0007bc998007bc890009567e0219568c0219569a0217bc288005020ee00e26b956838218287b0008289c0007b6938018289a8007b693001828ab80082685001d3870bd8870c82635801d83904dab40c82694801c99a0bd89a0a64908262400182693801c92909c9a909d8cb0ac9a9097b693801c9cb0bc98707c9470782693001c93909956a38217ba9287ba2607ba0587ba8507ba3487ba7307bab389567802195686021826938017ba9405020f0004b59956740213308405020f200cfdb95673821827c207b6c28018273187b6330018274107b643801647a8267a801957205d872078269b001c87908d89809da770982aa087b6aa8018267a001c87909d87907826bb801c8b707956b38197bbcc0077bb3b8077bb4b00795bc00077bcaa8007bc7e0007bc9d8007bc8d00095672021956800219569e0207bb2c8075020f400bf6a95683821958b00ff82b7f00082897b69b80182b9e8007b69b00182baf80082683801d3870bd8870c8263a801d83904dab40c82693001c99a0bd89a0a6490826228018269b801c92909c9a909d8cb0ac9a9097b69b801c9cb0bc98707c94707826cb001c93c0c956a38197bac68077ba2a0077ba0980795ac00077bc890007ba388077bc7707bcb789567c0209568a0208269b8017bc980005020f6001c58956780203308405020f800a0da9569381995980007828b60828c58828750828a487b67b801d4b707d4ca08d47808988820d4c707977720d48707510706286f518267100197772098772049294007826818017b982807826820017b983007956860207b97380764a77b6ab0017b6ba0017b6c08015020fa006ddb82620801826aa0018268b001d4a20c140b00000000010000001407e0ffffff00000000d878078269b801949794c7520706280151838720330838195022fc00e674838840c86808492910077b6c20017b6b18015020fe0014db8267b0019577c0008268b001d88708826ab80150220001767482680801c88a0ad88a08826ba001c88b0b95683819958c00067bc9b0007bc7a800826780017bc7e000826788017bc7d800826790017bc7d000826798017bc7c8007bcab800648a95672020956800209569e01f7babc00650200201715f956a000182a8b00082a7189577c0d8780782a9b800949782a9209497520706284450956a381982a700077b67800195ab000682b7f8007b67880182b7f0007b67900182b7e8007b6798018387408268e8007bb888008268f0007bb890008268f8007bb898009568c01f826900017bb9a0005020040127da956b000182b8b000140a00000000010000001407a0ffffff00000000d8780782b9b800949782b920949752070628bf4f82699801d889036492826bb801826c9001d3bc08d8bc0964c764bcda83097b6a1801826a0801826b8801c9ab08d8ab04826ba001826a8001c9ba0bc94b0bd8980ac9ab0bc99808c9c709c939098267b001c9720a8267b001837760956c38197bca680695ca00067ba9707ba8789568a01f7bab8000502006017cd99568381982678001958900067b9720826788017b9718826790017b9710826798017b9708826760017b9740826768017b9738826770017b9730648b9567801f9568601f9569401f826a78017bba280650200801fa5d82642001956a000182a8b00082a718957780d8780782a9b8009497944752070628cc4e95673819957a000682a9488272500682ac607b6c900182a7587b679801d8890064937b698001826ab801d3a208d8a2097b62880164a7da8009826a0801826b9801c9ab08d8ab0a826ba001c9bc0bc9ab0bd8980ac9ab0bc99808c97209c909098267b001c9730a8267b00183778000956c38197bcae8057bc9f0057bc8f8059568201f7bcb000650200a0177d89568381982679001958900057b97a000826798017b979800826788017b979000826780017b978800826740017b97c000826748017b97b800826750017b97b000648b9567001f9568e01e9569c01e826a58017bbaa80550200c01ee5c956a000182a8b000140760ffffff00000000d8780782a9b800949782a920949752070628bd4d956738198273c805827bd0058274e0057b6490018270d805d883027b638001826ab801d3ab08d8ab0964b77b6b880164acda8209826a08017b609801c9a008d8a00a826ba001c9b40bc9ab0bd8980ac9ab0bc99808c9c709c929098267b001c9730a8267b0018377a000956c38197bca680595ca00057ba9707ba8789568a01e7bab800050200e016bd79568381982679001958900057b9720826798017b9718826788017b9710826780017b9708826728017b9740826730017b9738826738017b9730648b9567801e9568601e9569401e826aa8017bba280550201001e95b95673819827850058272600582734805827a58058267b801d3780bd8780c64708267b001d87304dab40c82670801c97a0bd87a0a8267a001c97209c9a909d8cb0ac9a9098267b001c9cb0bc90808c9480ac97308d4a909d4b80ad49a0ad4b90998aa20979920d4a909510906286f4c7b68b801502012011bd983788169b80133070a0728fde951474c92fd7f0a284f4c4929a007492998074929900749298807956700308377c0f80a0a01956a382195ab000782b7980082b8a00082b9900082ba8800d49808d4a707d4870751070628864c9517e08477e07b67b80064718267b80180779569381949296004492958047b9748049567a01d9568801d49295004502014016d57956a381995ab000482b78000956800017b874082b7787b873882b7707b874882b7687b875082b7c0007b870882b7b8007b871082b7b0007b871882b7a8007b872082b7e0007b67f00082b7d8007b67e80082b7d0007b67f80082b7c8007b8782a700057b67d00082b7f8007b67c80082b7f0007b67d80082b7e8007b67e00082b7980082b8a00082b9880082ba9000826bb8007bb7107bb8187bb97bba0833077000037b67c00083777b67a000330016010a033302180128a36b50221801a06b49294004959b00047bb8387bb7309568601d7bba28330750201a0133d59567381949272004492718044927100464793307209568401d4929080450201c0110d533095c000239075c000233083fac781420035c0002407b69a80033021e0128d36d7b69a80050221e01cc6d3307700002837783993308407b67b000330020010a063302220128526c502222014f6c95bc00077bcac0007bc9b8007bc8b0007bc7a8009567201d9568e0285020240192d5956938198097f8038298e8038299f003d48707d497075207f40295674014330840502026013fd3956938118292200395980003828c18828b10828708d42b0ad4c708d4a808988820d4ca0a97aa20d4a80851080628114a4929f8024929f0024929e802140a00000000a079c308956820147b9a00037b67b8017b6bb0017b62a0017b6ca8015020280115d4956c000182c8b80082c7a80082caa000d47a0a140b00000000010000001407fcffffff00000000d8780782c9b000949794a752070628a549838704956938114929e0024929d8024929c80220956800144929d0027b6aa8017b6ba00150202a01b3d3956b000182baa80082b9b00082b8b80082b7a0009577dcd87807949794a7520706285749838724956a3811492ac002492ab802492aa8020c9568e013492ab00250202c016dd3956a000182a9b8001407bcffffff00000000d8790782a8b000948782a8a8009487520706280e498397443a08200002956a3811492a90027ba8a002140800000000746e65677ba898029568c013492a880250202e0116d33308648267b801330038012883d5d4a407987720d4a808978820d4870751070628bb48492c3803492c3003492c2803140700000000a079c3089568ff07958861047bc7400364977b6918017b6310017b62b00150203001bdd2956b000182b818140a00000000010000001407fcffffff00000000d8780782b910949782b9b00094975207062856488387049569ff0795993901492920034929180349290803209568ff0795884104492910037b6ab8015020320160d2956b000182bab00082b91082b81882b7b8009577dcd87807949794a7520706280648838724956bff0795bb3901492b0003492bf802492be802129568ff0795882104492bf0025020340114d2956a000182a9181407bcffffff00000000d8790782a810948782a8b000948752070628b7478397443a082800023a09300002956aff0795aa390195ab00027bb8e0007bb9d800140800000000000064657bb8d0009568ff0795880104492ac80250203601aed133086482671801502038011fd483783307013309640a07018267a00033003a010a0333023c0128d26750223c01cf674929e003959b00037bb8d8007bb7d0009568001d7bbac800330750203e015fd1956738194927c0034927b8034927b00364793307209568e01c4929a803502040013cd19517e08477e07b67900064718269a800819756173f08480940019517e08477e07b67b801647183793308408267b0000a0601826ab80182a71882a81082a90882aa6f7b6f806f9c6fa8826790007b78187b7c10640a7b7a087b7b9517e08472e064217b6b7895b9018897017b6a8000c87000d40907887701c87c0b8263380182675001d43707826a480182644001d44a0ad4a707987720d43a0a97aa20d47a0ad8cb07c887077b2b107b20087b297b6288007b2718510a062849467b68607b6c687b67407b6b487b60507b69589567c01c826850015020420127cf9569381995970003827ba00082789800827a90008eb78e8cdbb70c7b6a70018ea77b6870956a00017bab68d4b8087ba7287bac307ba860db8c07510706286a46829788037b6798009567a01c8268880050204401fdd0956b381995bc0003502246012c69837780fcc867079568601c7bc92850204801685d9567381995780003828a60828b58828c50827248038ea78eb8dba7088ec7882920859901dbc709d4ab07db7809826798008877207b6758015109f6017b629001956700017b7c98007b7bb0007b7aa00095673819826858957a00037ba8088268507ba8108268487ba8189568401c8269407ba920330750204a016dcf8269a800819756171f0e48092033024c0128316550224c012e6533004e010a06826798003302500128656682679800502250015e66826b7050225201d162c87402d84207c8790cc8cb0b7b6bb801d39b0cd89b0adac70a7b6a80018267900195701fd8700b826a9801c8ba07d8a70cdabb0c8263b001c8c303973b3b987a05d4ba0a97773b980b05d4b707c847077b679801d847076424502254018265826770d87b07826a680150225601a66582b282bb08987705948a94876fb86f2b502258014864c8a7028267b001d87307826aa001c8a707983a05977c3bd4ca0a987705c8b707956c000182cbb800c88a0ad88a08c88707c8a9097bc98800d8a908c887077bc780009517e08473e064317b6378010182679801d8740782699001d39b08d89b09da8709826c8801d8c007826a8001d3a208d8a20ada870ad3c007d48707da790a7b347b3b087b30107b3218510a64956738214927e0074927d8074927d0074927c8079568002964377b64b0017b6bb8017b62a8017b60a00150205a0156cf826378018262a801826bb8018264b001954401884701c87b0bd4b4078877018268a001c88707d88708c8820264702863ff956a000182a7588577018260700182a828db080782a83082a960db980782636801d430087ba83082697098943f973301980c3f979b018268980098823f970001978a017b6a087b64207b63187b62107b6c387b60307b6b28510717028488e07b68280195673819826858957a00027ba8c8008268507ba8d0008268487ba8d8009568001c8269407ba9e000330750205c0128cd50225e015d64502060019acf5022620177640a064926b8012033024926b0014926a801330b330c33004926a001826a900182a71882a81082a90882a36f776f886f9a6f336434826998017b93187b6a88017b9a107b6890017b9808647a7b97017b64800164a3826728017b6b7801d87b07857b017b6c700194cb01956c000182c7a000d47007947b0182c85082c7b800c8780882ca48c82a0a82c93882c7b000c8790982c7408264a801c8740482c730520b56018267b801d8780bc8ba0a6427d32a027b676001d87a0cda2b0c502264014d635107062817429567a0147b6058015020660107cb3307001050226801836682b7800082b87882b97082ba68956b38297bb795b700ff7b78f8007b79f0007b7ae800956820298267980150206a0170cd8264680195440188470182629001c87202d4240788770182688801c87803d8830882678001c887078268b8019589207b698001d8890a82686001c8a8097b696801d8890bdaaa0b8268b001c8b800d8800b8268a801c8b8087b68a80182687801958b20d88b0c82697001c8c908d89809dacc09826a5801c8a909d8a90c826aa001c8ca0a7b6aa0017b629001826c98017bc208644a7bc47bc31064747bc7187b638801826780017b67b801826268017b60b001648c64902887fed4980782683001d48707826950015207070150226c015d61826920826218826b38826c288263302850016420826b9800826c2801d3cb0b826c70d4cb0bd47b0b826338826230826c28510b9d008267b801d8780bc8ba0ad30a02d80a0cda2b0cc89c0cd89c0b8267b001d87909c8940750226e019f5f5107062898409567e01b502070018cc995673819957900025022720111648267980050227401df5e50207601396550227801176050207a01076550227c01165e50207e01fb6450228001bd5d7bba207bb9187bb8107bb708956840298267980150208201dacb826c2882623082633801826720826818d48707d43c08826910d49209826a0895aa01956b38297bba287bb9307bb8387bb7403307602928de00956b000182b74082b83850228401806482ba4894a8947852080628e23f8398209567201c50208601d3c8826c28826330826b388262188269209567381982780003956a00017ba8b0008278f8027ba8a8008278f0027ba898008277e8027ba7a00001826810d4bc077b679001d492077b678801d483077b6780018268980097880350228801665f50208a013b647b6760017b687801826798008a79033307ff3308ff50208c01fa6350228e01645d50209001ee6350229201e85b826b08d4b707956c00015022940138607bb9587bba607bb8507bb7483307802901c876088267880050209601b9ca9517e08477e06471826878958b02d88b08826a800050229801af62826868c88a0ad88a08826c60c8c8087b7a107b79087b7b7b78187b6730018268b80050209a0176ca826a78826880008262689517e08474e0644195a303d8a307c87800d88008da7708c8820b8268200182691001d49807826c1801826a0801d4ac0cd4c707987720d49c0c97cc20d4c707d82b0c826260c8c2027b42187b4b107b40087b6440017b43510706286d3e7b6288007b6b98007b60b8007b6328019567c01b50209c0151c7956938199597000250229e01fc607ba8387bab68d4b8087b67707bac507ba860db8c0751070628fe3e829788027b6748019567a01b826840015020a0013ec9956b381995bc00025022a2016d61837780fbc867079568601b7bc9285020a401a9559567381995780002828a60828b58828c50827248028ea78eb8dba7088ec7882920859901dbc709d4ab07db7809826748018877207b6758015109f1017b629001956900017b9c98007b9bb0007b9aa00095673819829828957a00027ba8088268b8007ba810826898007ba8189568401b826988007ba92033075020a601abc78269a800819756171f0e4809203302a801286f5d5022a8016c5d3300aa010a06826748013302ac0128a35e826748015022ac019c5e826b38015022ae010e5bc87402d84207c8790cc8cb0b7b6bb801d39b0cd89b0adac70a7b6a80018267900195701fd8700b826a9801c8ba07d8a70cdabb0c8263b001c8c303973b3b987a05d4ba0a97773b980b05d4b707c847077b679801d8470764245022b001005f826a68015022b201e95d82b282bb08987705948a94876fb86f2b5022b4018b5cc8a7028267b001d87307826aa001c8a707983a05977c3bd4ca0a987705c8b707956c000182cbb800c88a0ad88a08c88707c8a9097bc98800d8a908c887077bc780009517e08473e064317b6378010182679801d8740782699001d39b08d89b09da8709826c8801d8c007826a8001d3a208d8a20ada870ad3c007d48707da790a7b347b3b087b30107b321895673829510a5d492780004917784917704917689568a02964377b64b0017b6bb8017b62a8017b60a0015020b6019cc7826378018262a801826bb8018264b001954401884701c87b0bd4b4078877018268a001c88707d88708c8820264702866ff956b000182b75885770182ba70826870dba80782b85082b960db980782646801d44a0c82b93898933f97440198a03f9798017b687082b84898823f97aa01978b01510739027b6c087b6a107b60187b62207b64287b63307b6b388488e07b6850019567381982682801957a00017ba8c8008268b8007ba8d000826898007ba8d8009568001b826988007ba9e00033075020b8016cc55022ba01a15c5020bc01dec79518e08488e07b68a0016481837783893308200a064926b80120330433034926b001330b330c33094926a801826aa00182a71882a81082a20882aa6f777b67a0016f806f286faa64a2826798017b7a187b6858017b78107b6090017b70088268a001648a7b78017b6288017b6aa001826750017b6b7001d87b07857b017b6c680194cb017b6980018267a801d49707947b01826c20018268b801c8c808826a18017b646001c84a02826010017b637801c83009826308018267b001c87303520b4701d8c804c8420bd3ab02d8ab0cda240c5022be019c5c510706284b3a956700155020c0013fc3330700105022c201bb5e82b7e00082b8d80082b9d00082bac800956b38297bb7a0007bb898007bb990007bba88009568c029826798015020c401a7c58262a00195220188270182639001c87303d4320788770182685801c87804d8840882678801c887078268b8019589207b69a001d8890a82686001c8a8097b698801d8890bdaaa0b82687801c8b800d8800b8268b001c8b8087b68b00182687001958b20d88b0c82696801c8c908d89809dacc09826a8001c8a909d8a90c826aa801c8ca0a7b6aa8017b639001826c98017bc308642a7bc27bc41064727bc7187b6458018267a0017b67b801826488016403648c2891fed49807d4c707826c200182691801826810015207f1007b6b384926a001492698014926a8014926b001285301826b480182675001d37b0b82673801d47b0b826708d47b0b510b8300d8c804c8420bd3ab02d8ab0cda240c5022c6013d5b51070628ec389567e01a5020c801e0c195673819957900015022ca01655c826748015022cc0133575020ce018d5d5022d0016b585020d2015b5d5022d4016a565020d6014f5d5022d80111567bbac0007bb9b8007bb8b0007bb7a8009568e029826798015020da012ac4826730826828d48707826818826970d49808826920826a10d4a909826a3895aa01956b38297bbac8007bb9d0007bb8d8007bb7e0003307002a28f90082670801d487071408e0ffffff00000000d88c0894989478520806282e387b6b3883c8209567201b7b63307b64287b62207b60187b6a105020dc010dc1826a108260188262208264288263309567381982780002956900017b98b000957b000182b8f8007b98a80082b8f0007b98980082b7e8007b97a00001826770d407077b679001d434077b678801d42a077b678001826848019788035022de019c575020e001715c7b6760017b687801826748018a79033307ff3308ff5020e201305c5022e4019a555020e601245c5022e8011e54826b38d4b707956c00015022ea016e587bb9f8007bba00017bb8f0007bb7e8003307202a01c87608826740015020ec01ebc29517e0847ce064c1826778957204d8720782688000c87803d88308da7708826068c88004826800018269e800d49807826af800826bf000d4ba0ad4a707987720d49a0a97aa20d4a707d8040a826960c8a9097bc4107bc3087bc27b6c38017bc91851070628e2367b69707b6408017b6310017b6218019567c01a5020ee01c7bf95693819959700015022f00172597ba8207bab68d4b8087ba7487bac507ba860db8c07510706281138829788017b6740019567a01a826838015020f201b4c1956b381995bc00015022f401e359837780fac867079568601a7bc9285020f6011f4e9567381995780001828a60828b58828c50827248018ea78eb8dba7088ec7882920859901dbc709d4ab07db7809826740018877207b6758015109f8017b629001956900017b9c98007b9bb0007b9aa00095673819829818957a00017ba8088298107ba8108298087ba8189568401a8269707ba92033075020f80124c08269a800819756171f0e4809203302fa0128e8555022fa01e5553300fc010a06826740013302fe01281c57826740015022fe011557826b2001502200028753c87402d84207c8790cc8cb0b7b6bb801d39b0cd89b0adac70a7b6a80018267900195701fd8700b826a9801c8ba07d8a70cdabb0c8263b001c8c303973b3b987a05d4ba0a97773b980b05d4b707c847077b679801d84707642450220202385682672001d87b07826a6801502204025b5682b282bb08987705948a94876fb86f2b50220602fd54c8a7028267b001d87307826aa001c8a707983a05977c3bd4ca0a987705c8b707956c000182cbb800c88a0ad88a08c88707c8a9097bc98800d8a908c887077bc780009517e08473e064317b6378010182679801d8740782699001d39b08d89b09da8709826c8801d8c007826a8001d3a208d8a20ada870ad3c007d48707da790a7b347b3b087b30107b321895673829510a60492720014927180149271001492708019568402a64377b64b0017b6bb8017b62a8017b60a001502008020bc0826378018262a801826bb8018264b001954401884701c87b0bd4b4078877018268a001c88707d88708c8820264702863ff956a000182a7588577018260700182a848db080782a85082a960db980782636801d4300282a92098983f7b6818973301980c3f979b0182a84098843f970001978a017b6a207b63107b64087b6c387b60307b6b28510717027b6248018488e07b68500195673819826818017b78c800826810017b78d000826808017b78d8009568001a8269707b79e000330750200a02debd50220c02135550200e0250c0502210022d550a064926b8012033024926b0014926a801330b330c33004926a001826a900182a71882a81082a90882a36f776f886f9a6f336434826998017b93187b6a70017b9a107b6890017b9808647a7b97017b64880164a3826750017b6b8001d87b07857b017b6c780194cb01956c000182c7a000d47007947b0182c882c7b800c87808826af800c82a0a8269e80082c7b000c879098267f0008264a801c8740482c748520b4d018267b801d8780bc8ba0a6427d32a027b676001d87a0cda2b0c50221202015451070628cb32956760157b60580150201402bbbb956a381195ab000482b74082b83882b93082ba28956b382995bc00017bc7407bc8387bc9307bca289568602a826798015020160229be8264680195440188470182629001c87202d4240788770182687001c87803d8830882678801c887078268b8019589207b698801d8890a82686001c8a8097b696801d8890bdaaa0b8268b001c8b800d8800b8268a801c8b8087b68a80182688001958b20d88b0c82697801c8c908d89809dacc09826a5801c8a909d8a90c826aa001c8ca0a7b6aa0017b629001826c98017bc208644a7bc47bc31064747bc7187b637001826788017b67b801826268017b60b001648c6490288afed49807d427078269000152072701502218021a52826918826210826b38826c28826330286f016420826b4001826c5001d3cb0b826c2001d4cb0bd47b0b826338826230826c28510bb7008267b801d8780bc8ba0ad30a02d80a0cda2b0cc89c0cd89c0b8267b001d87909c8940750221a025b505107062854319567e01950201c0248ba956738198278c0007b68b0018278b8007b68a8018278b0007b68a0018277a8007b6790018267400150221e02854f50202002df5550222202bd5050202402ad5550222602bc4e50202802a15550222a02634e95bc00017bca607bc9587bc8507bc7489568802a8267980150202c027cbc826c2882623082633801826718826810d48707d43c08826908d49209826a2095aa01956b382995bc00017bca687bc9707bc8787bc780003307a02a28e5008267f0008268e80050222e021f55826af80094a894785208062880308398209567201a5020300271b9826c28826330826b388262108269189567381982780001956a00017ba8b0008278f8007ba8a8008278f0007ba898008277e8007ba7a00001826808d4bc077b679001d492077b678801d483077b6780018268400197880350223202045050203402d9547b6760017b687801826740018a79033307ff3308ff50203602985450223802024e50203a028c5450223c02864c826b20d4b707956c000150223e02d65095bc00017bc998007bcaa0007bc890007bc788003307c02a01c8760882673801502040024fbb9517e0847ce064c1826778957205d8720782688000c87803d88308da7708826768c88700d87007826860c878048268e000826bc800d4b8078269d800826ad000d4a909d49707987720d4b909979920d497077bc0107bc3087bc27b6c40017bc41851070628462f7b6480007b60e8007b63f0007b62f8009567c019502042022ab895693819829ba000829a9800829890008eb78eacdbb70c7b6820018e87956800017b8a387b8bd4ba0a7b87587b8c607b8a70dbac0751070628b530829788007b6748019567a019826840015020440205ba956b381982b96882b77082b87882ba80007bba407bb8387bb73095678019956860197bb92850204602674695673819827a60827b58827c508272488ea78eb8dba7088ec7882920859901dbc709d4ab07db7809826748018877207b676801510918027b629001956700017b7c98007b7bb0007b7aa000956738198268f8007b78088268f0007b78108268e8007b781895684019826980007b792033075020480271b88269a800819756171f0e48092033024a0228354e50224a02324e33004c020a06018267480195781fd87807826c2001c87c09d8c90ada770a826b3801c8ba0a7b6a880197aa3b989b05d4ab0b8267a80150224e02a44d8268680194c8826a700150225002b54fc87402d84207c8790cc8cb0b7b6bb801d39b0cd89b0adac70a7b6a80018267900195701fd8700b826a9801c8ba07d8a70cdabb0c8263b001c8c303973b3b987a05d4ba0a97773b980b05d4b707c847077b679801d847076424502252029f4f826a000150225402884e82b282bb08987705948a94876fb86f2b502256022a4dc8a7028267b001d87307826aa001c8a707983a05977c3bd4ca0a987705c8b707956c000182cbb800c88a0ad88a08c88707c8a9097bc98800d8a908c887077bc780009517e08473e064317b6378010182679801d8740782699001d39b08d89b09da8709826c8801d8c007826a8001d3a208d8a20ada870ad3c007d48707da790a7b347b3b087b30107b321895673829510a604927c0014927b8014927b0014927a8019568e02a64377b64b0017b6bb8017b62a8017b60a0015020580238b8826378018262a801826bb8018264b001954401884701c87b0bd4b4078877018268a001c88707d88708c8820264702863ff956a000182a76885770182ab2082a858dbb80782a86082a970db98075107c004826748018477e07b675001956738118268f800957a00077ba8c8008268f0007ba8d0008268e8007ba8d80095680019826980007ba9e000330750205a023eb650225c02864d50205e02b0b850226002f24b0a064926b80120330c4926b0014926a801330b3300492698014926a001826a880182a71882a81082a90882a26f736f886f9a6f296492826790017b79187b6a70017b7a107b6888017b7808643a7b7301642364a4826750017b6b8001d87b07857b017b607801940b018267a00182699801d49707947b018268e0008267b801c87808826ad80064c2c8ca0a8269c8008260b001c809098267d000826ca801c8c707520b1504826bb801d8b80bc8ba0a642cd32a027b6c5801d8ca0cda2b0cc89c0cd89c0bd80909c8970750226202254a7b6468017b63600151070628162b9567c0157b60b0015020640206b4956a381195ab000482b7a00082b8980082b9900082ba8800956b382995bc00017bc7e0007bc8d8007bc9d0007bcac8009568002b82679001502066026cb68260680195000188070182628801c87202d4200788770182687001c87803d8830882676001c887078268b8019589207b696801d8890a82685801c8a8097b696001d8890bdaaa0b8268b001c8b804d8840b8268a801c8b8087b68a80182688001958b20d88b0c82697801c8c908d89809dacc09826a9801c8a909d8a90c826aa001c8ca0a7b6aa0017b628801826c90017bc208640a7bc07bc31064727bc7187b637001826768017b67b801826c60017b64b00164807b699801286dfe82678000857701826b3001826868dbb80782687082698800db980782632801d43b028269900098983f7b68880097330198bc3f9794018268b00098803f97bb01978a017b6a587b6380007b60707b6c687b6460510758027b6228017b6b508488e07b6830019567ff0795773901826870017b7868826860017b7870826858017b78789568ff079588a101826968017b798000330750206802acb350226a02e14a50206c021eb650226e02fb4a0a064926b8012033024926b0014926a801330b330c33044926a001826a900182a71882a81082a90882a36f776f886f9a6f336430826998017b93187b6a88017b9a107b6890017b9808647a7b97017b60800164a0826730017b6b7801d87b07857b017b6c700194cb01956c000182c7a000d47407947b0182c83882c7b800c8780882ca50c82a0a82c94082c7b000c8790982c7488263a801c8730382c728520bc10a8267b801d8780bc8ba0a6427d32a027b676001d87a0cda2b0cc89c0cd89c0b8267b001d87909c893075022700292477b6068015107062887289567e0027b6458015020720277b1956b000282b7f80082b8f00082b9e80082bae000956b382195bc00047bc7207bc8187bc9107bca08956840258267980150207402e5b38260680195000188070182629001c87202d4200788770182688801c87803d8830882678001c887078268b8019589207b698001d8890a82686001c8a8097b696801d8890bdaaa0b8268b001c8b804d8840b8268a801c8b8087b68a80182687801958b20d88b0c82697001c8c908d89809dacc09826a5801c8a909d8a90c826aa001c8ca0a7b6aa0017b629001826c98017bc208640a7bc07bc31064707bc7187b638801826780017b67b801826268017b64b001648c64942878fe95690001829a48829738d4a7078298d4b808d487078269e0005207970150227602c74728e701d49807d427078269380152078b0a50227802b04782628800826a800082697082676828e60a642482624801826b5001d32b0b826c3801d4cb03826c2001826b0001d4bc0cd4c30b510bfb00826bb801d8b80bc8ba0ad34a02d84a0cda2b0cc89c0cd89c0bd80909c8970750227a02f44551070628ed269567e01850207c02e1af95673811957900078298c0007b68b0018298b8007b68a8018298b0007b68a0018297a8007b6798018267480150227e021a4550208002744b50228202524650208402424b50228602514450208802364b826bb80188b98000826a7001db9a08826c7801826a8801d4ca0ada970a93b8ff93baff826b8001939b939c82679801e0a7078269a001e089088269a801e0c909826ab001e0ba0a956b38297bba000295ba00017ba9f8007ba8f0007ba7e8009568202b8267900150208a02c8b18262480101956b000182b93898973f82b8978801d4870782ba2098a83f979901d4980898293f97aa01d4a909972a0195aa01956b382995bc00027bca087bc9107bc8187bc7203307402b2847018267d0008268c80050228c025c4a826ad80094a8947852080628bd258398209567201950208e02aeae95690001829b20829a489567381982787b98b000957c00ff82c8f8007b98a80082c8f0007b98980082c7e8007b97a0000198b73f82693801979801d487077b67900198973f82680001978801d487077b67880198a73f97b801d487077b67800197a7017b67780197a803502290022e4550209202034a7b6758017b687001826748018a79033307ff3308ff50209402c2497b6768017b68600182685801d487077b6758018267b8018379803307ff3308ff502096029c49826bb80188b98000826a5801db9a07826c6001826a7001502298024d49826b6801939b82689801e0a8088269a001e079078269a801e0b909826ab001e0ca0a956c000182cb78d4b70750229a02ad4595bc00027bc9387bca407bc8307bc7283307602b01c876088267400150209c022ab09567c01833084050209e0279ad95693811959c000782caa00082cb980082c7900082c888007b67b001d4a7077b68b801d4b808d47808988820d4b707977720d487075107062840244929800749297807492970079568a01849296807208267b8017b6aa8017b6ba0015020a00251ae95678018826890005020a20235af956b000182b7a80082b8a000d478095022a402ff477bb99800949752070628ea23956c381182c8580782c950077b6a900182ca4807140bffffffff00000000d28b0b8499ff84aaff8267b801837720492c40077bca28077bc93007956860187bcb38075020a602daad95690001829790009577c05022a8020444520706288b238267b801837740330838115022aa026c47838840f8c86808492910075020ac02a1ad8268b8019587e0005022ae023146826ba801c88b0b95683811958c00067bc9b0007bc7a8008267407bc7e0008267487bc7d8008267507bc7d0008267587bc7c8007bcab800648a95672018956800189569e0177babc0065020b0027e3b95683811828700077b677001958900068297f8007b6778018297f0007b6780018297e8007b6788019567c017826830015020b20200ae14070000000001000000956900017b9790001407a0ffffff000000005022b402274352070628ae22956c381182c2a00695c9000682989800829a9000829b88008267b8018377607b9b687b9a707b98789568a0177bc280065020b602b0ac95690001829790009577805022b802da425207062861228267b80182688801d878096474826ab001826b8001d3ab02d8ab07da29078263a001826c7801c93c0264c0c9ab0ac99a0ac9480b95b9e0d8b90bc8ba0c95ccffd3ac08d8ac0ada8b0ad83003826ba80182687001c9b80bc93b0bd87208c98b0bc97207887801c98b0b9577ffc87a0ad87a07c87b0283478000956b381195b800067b89487b8c507b8a58956880177bb260065020ba0201ac9568381182677001958900067b9782677801958a00057ba7f800826780017ba7f000826788017ba7e800826788007b9720826798007b97188267b8007b9710648b956760179568401795692017826a28017bba08065020bc02e03914070000000001000000956900017b979000140760ffffff000000005022be02bf4152070628462195673811957a000682a92882ac3082a8407b688801827038067b6070018267b801d87908649b7b6978016472826ab001d3ac09d8ac077b6c8001da9807c9ac09c9890ac92b0964249592e0d8920bc8ba099599ffd3a90cd8a90adacb0a826ba001d8b0038268a801826c8801c98c0cc93c0cc9b00bd87b08c98c0cc97b0b88b701c97c0c95bbffc8ba0ad8ba07c87c0c8347a000956b38117bb2c8057bb9d0057bbad805956800177bbce0055020c002ccaa9568381182678801958900057b978000826770017b9778826780017b9770826778017b97688267707b97a000826708017b979800826710017b979000648b9567e0169568c0169569a016826a18017bba88055020c202ae389569000182979000957740ff5022c4029d4052070628242095673811957a000582a9a80082acb00082a8c0007b6898018270b8057b6080018267b801d87908649b7b6988016472826ab001d3ac09d8ac077b6c9001da9807c9ac09c9890ac92b0964239592e0d8920bc8ba099594ffd3a40cd8a40adacb0a8269a001d8900b8268a801826c9801c98c0cc9bc0cc9900bd87b08c98c0cc97b0b88b701c97c0c95bbffc8ba0ad8ba07c87c0c8337c000956938117b9248057b9450057b9a5805956880167b9c60055020c602a7a98267a0000a038267c0008078107b6870018278087b68680182777b6778019568381182679801958900057b9782678001958a00047ba7f800826790017ba7f000826788017ba7e800826780007b97208267e8007b97188267f0007b9710648b956760169568401695692016826af8007bba08055020c80268379568381101828730058282400582832805828a38058268b001d3870bd8870c64808264b801d84308dab80c8269a001c99a0bd89a0a8269a801c99209c9a909d8cb0ac9a909c9cb0bc90707c98707c94308d49707d4b809d47909d4b707989920977720d49707510706288a1e826768016f79979720826a70016faa98aa20d47a02826778016f7a97ab20989920d4b90998aa203a0b000002956338117b3be0043a0b0800023a0c1000023a071800027b3bd804953b00047bbcd0004923c0047bb7c8007bbab8007bb9b00095690016956ae0157b32a8048267b8015020ca0220aa33078268b00033090a07330870000228101e826bb000826c3001d3cb0b826c9000d4cb0bd47b0b510be2008267b801d8780bc8ba0a6427d32a02d87a0cda2b0cc89c0cd89c0b8267b001d87909c893075022cc02c03c51070628b91d9567ff07957781015020ce02a9a69567ff07957739018278607b68b0018278587b68a8018278507b68a0018277487b6790018267b0005022d002e63b5020d20240425022d4021e3d5020d6020e425022d8021d3b5020da020242826bb80188b98000826a7001db9a08826c7801826a8801d4ca0ada970a93b8ff93baff826b8001939b939c826790015022dc02143f95bc00047bca407bc9387bc8307bc72895686025826798015020de02aea88267880082688000d48707826868826960d49808826970826a50d4a909826a5895aa01956b382195bc00047bca487bc9507bc8587bc76033078025280b017b6b50956b000182b74882b8405022e0024c4182ba5094a8947852080628ae1c8398209567ff079577c1015020e2029ba59567ff07957739018278a000956900017b98b000827898007b98a800827890007b989800827788007b97a0008268b00082628800826a8000826970826768826b5001826c60d4c7077b679001d42a077b678801d49b077b6780019789037b69b8018d9980003307ff3308ff5020e402f5407b6760017b6878018267b0008a79033307ff3308ff5020e602b4405022e8021e3a5020ea02a8405022ec02a238826b58d4b707956c000182cb8000d4b80882cb8800d4ba0a82cb9000d4b909956b382195bc00047bc9787bca80007bc8707bc7683307a02501c87608826798005020ee025ba79567ff07957761018268d0005020f002a5a49567ff079577390182722882733082743864788267b800957a02d87a0b8267e000c8b709d87907dabb07828b4095683821958c00047bc990007bca88008269f000c897077bc79800d897078269e800c897077bc7a0007bcbc0007b84b8047b83b0047b82a8049567c0259568e0255020f202d5a69517e08479e064918267b800957a03d87a078268e000c8780bd88b08da77088267f000c87808d87807826ce800c8c7077b6760017b97187b6858017b98107b6b68017b9b087b69b0007b6a70017b9a9567ff07957741018268c0005020f402d0a39568ff0795883901828a20828b18828710828808956900017b97507b9a48d4a707d4b80ad47a0a98aa207b9b40d4b707977720d4a70751070628961a9567ff07957721017b6838015020f60282a39567ff0795773901827a8278f895670010827928f95022f802953e7b6ac000d4a8087b6780007b6b88007b689800db8b0751070628821c95670010827720f97b6728019567ff07957701018268b0005020fa0259a595670010827900f995670010827708f995680010828810f9956a001082aa18f9956b00107bbad8f8956a00107ba8d0f8956800107b87c8f89567ff079577e1009568ff079588c100956a00107ba9c0f85020fc02903195670010827af8f895670010827bf0f895670010827ce8f8956700108279e0f85022fe02e8377b6790005109450282677001956800107b87a0f882676801956800107b87a8f882675801956800107b87b0f89568ff079588a10082676001956900107b97b8f8330750200003a3a382670001817756171f0c82680001480820019517e08477e07b678801647183793308208267f800330002030a063302040328cb3b50220403c83b7b6a800197aa3b989b05d4ab0b8267880150220603db388268900094c8826a980050220803ec3ac87402d84207c8790cc8cb0b7b6bb801d39b0cd89b0adac70a7b6a78018267980195701fd8700b826aa001c8ba07d8a70cdabb0c8263b001c8c303973b3b987a05d4ba0a97773b980b05d4b707c847077b679801d847076424c8790bc8ab0bd39b0a7b6b9001d89b09daa709826b80018267d000d87b07826ac000c8a70798ba05977b3bd4ba0a826b880182b282bb08987705948a94876fb86f2bc8b707c88a0ad88a0cc8c70782607801c8a000d8a00ac8a7028267b001d87307826aa801c8a707983a05977c3bd4ca0a987705c8b707956c000182cbb800c88a0ad88a08c88707c8a9097bc98800d8a908c887077bc780009517e08473e064317b6378010182679801d8740782699001d39b08d89b09da8709826c8801d8c007826a8001d3a208d8a20ada870ad3c007d48707da790a7b64b0017b347b6bb8017b3b087b60a0017b30107b62a8017b3218510a54956738214927e0044927d8044927d0044927c80495680026643750200a033da3826378018264b001954401884701826bb801c87b0bd4b4078877018268a001c88707d887088262a801c8820264702863ff82679000857701826a300182688000dba8078268880082699800db9807826bc000d4ba0c50220c03f5377b69c000510754017b6c608488e07b68300182677001956800107b8760f882676801956800107b8768f882675801956800107b8770f89568ff0795886182676001956900107b9778f8330750200e0327a1502210036f385020120399a350221403db36330016030a0633021803287b3850221803783850221a034c366472826890017b87187b6070017b80107b84087b837b62880150221c03c035520bd400826bb801d8b80bc8b000d3a0027b6a5801d8a00cda2b0cc89c0cd89c02826ab001d8a909c89707c82707d4c809d4700750221e035d395107062865169567400350202003599f956b000382b75882b85082b94882ba40956b38217bb7000595b700047b78f8007b79f0007b7ae800956820268267900150202203c7a1502224030b338262a001c8c2027b62a00150222603913964727bc7187b607001826788017b67b801826c68017b6ab001648a7b62880133021c032800358267d000d48707d4c70752072001502228033536286c018263b0018262b801826b2801826c3001d3cb0b826cd000d4cb0b826c60d4cb0b510bb20064a4d8280bc8b00ad34a02d84a0cda2b0cc89c0cd89c0bd83909c8970750222a038b345107062884159567ff0795774150202c03759e95670010827758f87b67b00195670010827750f87b67a80195670010827748f87b67a00195670010827740f87b6798018267280150222e03a63350203003003a50223203de3450203403ce3950223603dd3250203803c23950223a0398337bca207bc9187bc8107bc708956840268267900150203c03a1a08267980082689000d4870782688000826968d4980882698800826a70d4a909826ac00095aa01956b382195bc00057bca287bc9307bc8387bc7403307602628ee0050223e03293752080628b214826738018378209567ff0795778100502040039b9d95670010827798f8956800017b87b00095670010827790f87b87a80095670010827788f87b87980095670010827780f87b87a0000182678000826868d487077b6790018267980082689000d487077b67880182678800826870d487077b67800182682801978803502242031e3450204403f338502246037e3850204803c13850224a032b3250204c03b53850224e03af30826bc000d4b707956c000182cb8000d4b80882cb8800d4ba0a82cb9000d4b909956b382195bc00057bc9587bca607bc8507bc7483307802601c876088267b00050205003689f9517e08479e064918267b800957a0450225203db337b69c0007b6760017b97189567ff079577218268a80050205403939c95670010827938f895670010827a30f895670010827728f895680010828820f8956b00017bb7507bb948d49707d4a809d479099899207bba40d4a707977720d49707510706284d139567ff079577017b683801502056033a9c95670010827a18f895670010827810f895670010827908f8502258034a377b6ab000d4a8087b6788007b6b90007b68a800db8b0751070628811595670010827700f87b6728019567e0078268c00050205a03129e8269e0078267e8078268f007826af8077b6ab8077b68b0077b67a8079567c0079568a0077b69a00750205c03712a95670007827ad800827bd000827cc8008279c00050225e03d5307b6798005109010282677001956900077b978000826768017b978800826758017b97900095688007826760017b979800330750206003a09c82670001817756171f128268000148082033026203282836502262032536330064030a063302660328d13450226603ce347b6a780197aa3b989b05d4ab0b8267800150226803e1318268980094c8826aa80050226a03f233c87402d84207c8790cc8cb0b7b6bb801d39b0cd89b0adac70a7b6a80008267980195701fd8700b826aa001c8ba07d8a70cdabb0c8263b001c8c303973b3b987a05d4ba0a97773b980b05d4b707c847077b679001d84707642450226c03de348267d000d87b07826ab000c8a70798ba05977b3bd4ba0a826b800182b282bb08987705948a94876fb86f2bc8b707c88a0ad88a0cc8c70782608000c8a000d8a00ac8a7028267b001d87307826aa801c8a707983a05977c3bd4ca0a987705c8b707956c000182cbb800c88a0ad88a08c88707c8a9097bc98000d8a908c887077bc7789517e08477e07bc7b00064710182679001d8740782698801d39b08d89b09da8709826c8001d8c007826a7801d3a208d8a20ada870ad3c007d48707da790a7b64a8018267b0017b747b6bb8017b7b087b6098017b70107b62a0017b7218510a3795673821492780054927780549277005492768059568a0268267b00150206e034f9c50227003af328262a001c882026470287cff82679800857701826a300182688800dba807826890008269a800db9807826bb000d4ba087b68a8005022720322317b69b000510742018488e07b68300182677001956900077b9740826768017b9748826758017b975095684007826760017b97583307502074036a9a50227603b23150207803dc9c50227a031e3033007c030a0633027e0328be3150227e03bb31502280038f2f6472826890017b87187b6070017b80107b84087b837b62880150228203032f520bdc00826bb801d8b80bc8b000d3a0027b6a5801d8a00cda2b0cc89c0cd89c02826ab001d8a909c89707c82707d4c809d4700750228403a03251070628a80f9567a003502086039c98956b000382b7b80082b8b00082b9a80082baa000956b382195bc00057bc7a0007bc898007bc990007bca88009568c0268267900150208803069b50228a034a2c8262a001c8c2027b62a00150228c03d03264727bc7187b607001826788017b67b801826c68017b6ab001648a7b62880133028203283f2e8267d000d487078268a800d487075207160150228e03702f284e018263b0018262b801826b2801826c3001d3cb0b826cd000d4cb0b826ca800d4cb0b510ba30064a4d8280bc8b00ad34a02d84a0cda2b0cc89c0cd89c0bd83909c8970750229003c52d51070628be0e9567200750209203b297956800078287387b67b0018287307b67a8018287287b67a0018287207b6798018267280150229403f32c502096034d33502298032b2e50209a031b3350229c032a2c50209e030f335022a003e52c7bcac0007bc9b8007bc8b0007bc7a8009568e026826790015020a203ea998267980082689000d4870782688000826968d4980882698800826a70d4a909826ab00095aa01956b382195bc00057bcac8007bc9d0007bc8d8007bc7e0003307002728de005022a4036e3052080628f70d82673801837820956760075020a603e49695680007828778956900017b97b0008287707b97a8008287687b9798008287607b97a0000182678000826868d487077b6790018267980082689000d487077b67880182678800826870d487077b678001826828019788035022a803772d5020aa034c325022ac03d7315020ae031a325022b003842b5020b2030e325022b403082a826bb000d4b707956c000182cb8000d4b80882cb8800d4ba0a82cb9000d4b909956b382195bc00057bc9f8007bba00067bc8f0007bc7e8003307202701c876088267c0005020b603bd989517e08479e064918267b800957a055022b803302d7b69e8007b6760017b9718956700078268785020ba03ec95956b000782b91882ba1082b70882b8956b00017bb7487bb940d497077bb850d4a808d478089888207bba38d4a707977720d487075207b70c9567e006826850015020bc03a69595670006827af8008279f0008278e8008ea78e9bdba70b7b68f0008e877b69e0007b6ad000d4a9097b67b0007b6bb8007b693001db9b0751070628340f8267e0067b6728019567c0068268e8005020be037f978269c0068267c8068268d006826ad8067b6a98067b6890067b6788069567a006956880067b6980065020c003de2395670006827ab800827bb000827ca8008279a0005022c203422a7b67c00051090f0282677001956900067b9760826768017b9768826758017b977095686006826760017b977833075020c403119682670001817756171f12826800014808203302c60328992f5022c603962f3300c8030a06018267280195781fd87807826cf000c87c09d8c90ada770a826be000c8ba0a7b6a780197aa3b989b05d4ab0b826780015022ca03402b8268c00094c8826a30015022cc03512dc87402d84207c8790cc8cb0b7b6bb801d39b0cd89b0adac70a7b6aa8008267980195701fd8700b826aa001c8ba07d8a70cdabb0c8263b001c8c303973b3b987a05d4ba0a97773b980b05d4b707c847077b679001d8470764245022ce033d2e8267e000d87b07826ad000c8a70798ba05977b3bd4ba0a826b800182b282bb08987705948a94876fb86f2bc8b707c88a0ad88a0cc8c7078260a800c8a000d8a00ac8a7028267b001d87307826aa801c8a707983a05977c3bd4ca0a987705c8b707956c000182cbb800c88a0ad88a08c88707c8a9097bc98000d8a908c887077bc7789517e08477e07bc7b00064710182679001d8740782698801d39b08d89b09da8709826c8001d8c007826a7801d3a208d8a20ada870ad3c007d48707da790a7b64a8018267b0017b747b6bb8017b7b087b6098017b70107b62a0017b7218510a379567382149272006492718064927100649270806956840278267b0015020d003ae955022d2030e2c8262a001c882026470287cff8267c0008577018268f0008269b000db89078268b80082693001db980751077b01826728018477e07b67300182677001956900067b9720826768017b9728826758017b973095682006826760017b973833075020d403da935022d603222b5020d8034c965022da038e293300dc030a063302de03282e2b5022de032b2b5022e003ff286472826890017b87187b6070017b80107b84087b83017b628801826730017b6b9801d87b07857b017b6a780194ab017b6980018267a001d49707947b01826850018267b801c87808826a4801c8ca0a826938018267b001c879098267400164c0826ca801c8c707520bde00826bb801d8b80bc8ba0ad30a027b605801d80a0cda2b0cc89c0cd89c02826bb001d8b909c89707c82707d4c809d4a7075022e203c82b5207d308956700045020e403c691956b000482b71882b81082b90882ba956b382195bc00067bc7407bc8387bc9307bca2895686027826790015020e60339945022e8037d258262a001c8c2027b62a0015022ea03032c64727bc7187b607001826788017b67b801826c68017b6ab001648a2804ff826728018268e000d487078268f0008269d000d49808d487075207590149266001492658014926680149267001289f018264b0018263b801826b2801826c3001d3cb0b826ce000d4cb02826cf000826bd000d4bc0cd4c20b510bcd00d8380bc8ba0ad30a02d80a0cda2b0cc89c0cd89c0bd84909c897075022ec03e6265207e207956700065020ee03d590956800068287187b67b0018287107b67a8018287087b67a00182877b679801826728015022f00317265020f203712c5022f4034f275020f6033f2c5022f8034e255020fa03332c826bb80188b98000826a7001db9a08826c7801826a8801d4ca0ada970a93b8ff93baff826b8001939b939c826798015022fc03452995bc00067bca607bc9587bc8507bc74895688027826790015020fe03df928269e00098973f8268d000978801d48707826af00098a83f979901d49808826b280198b93f97aa01d4a90997ba0195aa01956b382195bc00067bca687bc9707bc8787bc780003307a027286701956a000182a74082a838d487071408e0ffffff0000000082a950d8890882a948949894785108c906826750018378209567400650200004b58f95680006828758956900017b97708287507b97688287487b97588287407b9760018269f00098973f826ae00097a801d487077b67b00198a73f8268d000978801d487077b67a801826a280198a73f979801d487077b67a00197a7017b67980197a803502202043d2650200404122b7b6778017b689001826728018a79033307ff3308ff50200604d12a7b6788017b68800182687801d487077b6778018267b8018379803307ff3308ff50200804ab2a826bb80188b98000826a7801db9a07826c8001826a900150220a045c2a826b8801939b82685801e0a80882696001e0790782696801e0b909826a7001e0ca0a956c000182cb9800d4b70782cba000d4b80882cba800d4ba0a82cbb000d4b909956b382195bc00067bc998007bcaa0007bc890007bc788003307c02701c876088267e80050200c042191956738214927c0064927b8064927b0064927a806019567e0059568e02750200e04869095670005827cf800827af0008279e8008ec78ea8dbc70864abd4ca07649a8e99db7809520949088267e0057b67b8019577018878017b6ab001c8a808d487098899017b6ba801c8b909d8b90a7b6ca001c8ca0a956b3821492be006492bd806492bd006492bc8060195bc00067bc7e8007bc8f0007bc9f8007bba000795670028956820285020100474909517e08477e07b67900164718267a0017b6798058267a8017b6790058267b0017b6788059567a005956880058269b8017b698005502012048f088267d8057b67b8018267d0057b6798018267c8057b67a8018267c0057b67b0018267b005826bb8058269a005826aa805826890017b87107b8b187b897b8a089567600550201404798f826760057b677001826768057b676801826770057b676001826778057b6758018269b00198973d826aa80197a803d487077b67a00198a73d826a980197a803d487077b67a80198a73d8268b801978803d487077b6798019799037b69b801826708010a038269a0018e97826cb80188c80001858a01db970a826b98018eb78269a8018e98dbb70864b7826b200182b308d4790981b210db980a7b6a880182b86f379779206f2a98aa20d49a0a7b6a80019877206f8b97b920d479087b68780198bb207b6ba8018dc980007b69500164a7502016041c287b6798017b6840018267b0018a79037b69a0018267a80133085020180423287b68380182689801d487077b67b0018267b8018379807b694801826780018268780150201a04fb278269b801889b80007b6b9801826ab001dbba07826aa801da9a077b67b00182674001826a3801d4a707dab80793977b67a80182678001826878018269a00150201c04b72764898268980193879389826a88018268a80194a87b68a8018268b00194a87b68b00194a97b69800194a77b6778013307ff3308ff8269480150201e0479277b6740017b6848018267a00033088269a0015020200461277b6730017b6838013307ff3308ff82695001502022042327826a3001d47a0a8269980182674001da970a8267b801826ba000da7b0a7b6a5001826a3801d48a0a82684801da980a937a7b6ab8013307ff3308ff8269a00150202404042782699801939793988269b8018599ff826a500185aaff8588ff8577ff826c880194caff94c9ff94c7ff94c8ff826b5801d2b909826b6001d2ba0a826b6801d2b808826b7001d2b707826bb001d4ba0a826ba801d4b909826b7801d4b707826b8001d4b808956b382195bc00077bc8107bc7087bc9207bca18956840288267900150202604578d9567400533084050202804a68a826758057b67b001826750057b67a801826748057b67a001826740057b67b801826708010a038269200182970881981082996f7a97a7206f88988820d4780298aa206f98978920d4a909988820492618053a0a3800023a0b4000023a0c4800023a075000027b6a3805956a00057bab307bac287ba7207ba8107ba90895692005956a00057b6200053307330850202a04218d826708010a03826820018087107b6790018287087b67880182877b6798018267c800956b00047bb7b8008267d8007bb7b000826710017bb7a800826718017bb7a0008267b0017bb7d8008267a8017bb7d0008267a0017bb7c8009567e0049568c0049569a004826ab8017bbac00050202c04e811956b000182b8a000648982b7b000d4870782baa80082b8b800d4a808d47808988820d4a707977720d4870752077464a2956b000482b7e80082b8f8007b6880018263e00482baf000d39700d8970c8264b801d84308da080cc92a0bc9cb00d8cb0b7b6b7801d82a0a826cb001826b8001c9cb0cc9ac0c826a7801c9ac0cc99707c98707c94308d4c707d4080ad47a0ad4070798aa20977720d4a70751077f0300330870000283883307012812838833070133090a07330870000228f233090a07330870000228e7330870000228e0330870000228d9330870000283883307010a07330870000228c6330870000228bf330870000228b8330870000228b1330870000228aa330870000228a33308700002289c330870000228953308700002288e9567381149275803492750034927480350222e04b22283888004c868087b9760033307502030049189330232049568381101492840034928380349282803416489330704956860144929300333004a04286489956738114927b8034927b0034927a803502234045f228388e004c868087b97c0033307502036043e893302380495683811014928a00349289803492888034164893307049568c0144929900333004a042811894926d0024926c8024926c00233023a04140700000000717b484e019568c0027b67d802330750203c04e9884926b8024926b0024926a002413307049568a0024926a80233005c0428c7889567381149271804492710044927080450223e04c22183884005c868087b972004330750204004a188330242049568381101492800044928f8034928e803416489330704956820154929f00333004a0428748895673811492778044927700449276804502244046f218388a005c868087b9780043307502046044e88330248049568381101492860044928580449284804416489330704956880154929500450204a0425888267a800817756173f0c8268a800480840013307013309248268b0000a070149263003492628034926200333024c04140700000000717b484e01956820037b673803330750204e04db8749261803492610034926000341330704956800034926080333005c0428b98749269003492688034926800333025004140700000000717b484e01956880037b679803330750205204918749267803492670034926600341330704956860034926680333005c04286f874926f0034926e8034926e00333025404140700000000717b484e019568e0037b67f80333075020560447874926d8034926d0034926c003413307049568c0034926c80333005c0428258749265004492648044926400433025804140700000000717b484e01956840047b675804330750205a04fd8649263804492630044926200441330704956820044926280450205c04df8682670001817756173f0c82680001480840013307013309248268f8000a0701826788016f79979720826a90016faa98aa20d47a02826798016f7a97ab20989920d49b0398aa20492678043a0b0000023a0c0800023a071000023a091800027b6b9804956b00047bbc90007bb788007bb980007bba707b63680495698004956a60047b6260048267b80150205e04238833078268f800282cfc951100ff7b10f8007b15f0007b16e800951500018411e064167b671882877b67288287087b67208287107b67308287187b67384926d8004926d0004926c8004926c000019567a0009568c00050206004e7868267b8008262a0008269b000826aa800826838d3870bd87808826730d8970cdbb80c826820d38a03d8a80a826828d82808db3a08d39707d4b707db7c085108c300491658491650491648956840491640013307502062049c8539085c000256181f0b20035c000220019517e08479e07b691064913307700002837783993308200a06826a1082a782a80882a91882aa106f726f886f996faa826b20c8ab0b826328c89303d89309c89b0bd3ab07d8ab0ada790a826730c88707c87a0ad87a09826c38c8c202d88707c82707c8970782681833094918384918304918284918207b837b8b087b8a107b8718955100ff8210f8008215f0008216e80095110001320049269000492688004926800033026404140700000000717b484e01956880007b679800330750206604ca844916784916704916603233070495686049166850206804b18439085c000256183f0b20035c000240013308700002838833070133092433006a040a07019511907b10687b15609515708411f0827a1882791082738277088eab8e9cdbab0c8e72883b40ff85bb01db720bd4a908db8c0b520b429538c000d8380bc8b70cd87c07dabb07c89707d89709c8a9097b18407b1c487b1750330740c871087b195850206c042684955190821068821560951170320050226e04981d502070040c84491118491110490141330704641849110850207204f58339085c000256183f0b20035c0002400133087000028388330701330924330074040a0701951170ff7b1088007b1580007b1678951590008411f064728289827408828c088273959a1fd89a00c80c0984aae07b1308c8a303d8a30bc8490ac8ba0ad39a06d89a07da6b07822b18d8c90c828610822210828818da000cc86c0cd86c06c82c09c89707d8c90cd89709c8b808c86808c8c808c8980c8ec88e79dbc809d4c7088ea6db8906520657821808d88308d34a09d84a06da9806d82708d3bc09d8bc0bda980bd32708d49808da860b520b307b13507b1a587b17603307409518507b1c68502076040a83955170ff821088008215800082167895119000320049114049113849113033027804140700000000717b484e019518307b1748330750207a04cf824911284911204911104133070495181049111850207c04b68239085c000256183f0b20035c000240013308700002838833070133092433007e040a0701951140fe7b10b8017b15b0017b16a8019515c0018411e08280829b088284088296950a1fd80a02c8240c7b1630d86a03d3bc0a7b1b40d8bc0bdaa30b828610d84c0ada220a829c18828218829310c86a0ad86a08c82808d3c8097b1c20d9c808d83a0cda9c08d33a0ad4a909db980b510bee027b17187b1328d460077b14507b1238d42408d487079877207b1648d46808978820d487075207c5027b10608308831780017b18100a010182199801821a9001821b88018e978ea8db97087b1990007b1a8800d49a077b1b98008eb9db780952099302821680019517600133084050208004728082127801821c70017b1c78821368017b138000821460017b147095671f7b1658d8670882199800c898088488018477e0957920d87907c8780ad88a0bda770b492138017b19200164267b1258017b1c50017b1348017b1440017b1a280195174001951820017b1b30015020820472fd8219707b166882188000d46807821a78d4a908d47808988820d4a707977720d487075207e5018216587b160001821798007b170801821788007b17100195180001821790007b171801649750208404ec80821760c8670ad87a0982145082179800c84707c89707d3470bd84708dab90882104882198800c8090995ac20d8ac02c8270b821a30d8ca0c821a40d3ab06d8ba0adb6a0cd8090a82133882169000c83606c86a0ac89808d89809c8a909d87b07da2207c88707d88708c89808821a20d3a809d88a08821b28d87b0ada9a08d3b707d49707db780c821a9800520ca401d430071408e0ffffff00000000821960d88908944894785108100182198800821c58d49c0782189000d4a808d48707987720d49808978820d4870782167082198000821a78821b685207df00d4ba071408e0ffffff000000007b1860d88608949894785108c4008217108377207b175083672064c864c6502086045e82837783688219500a01821270c86207d8270882199800821b8000c8b909c88909d3b90ad8b90bdaa80b82188800821a78c8a808d8a80a821c9000821668c86c0cc8ca0ac88b0bd88b08c8a808d4b808821a60d8a70a949a948a510a5164268377204921f8004921f0004921e8009518e0004921e00050208804657fff8217188218687b78188218787b7810821880007b78087b76955140fe8210b8018215b0018216a8019511c001320000330870000228794921d0004921c8004921c00033028a04140700000000717b484e019518c0007b17d800330750208c04037fff4921b8004921b0004921a000413307049518a0004921a80050208e04e47eff39085c000256183f0b20035c00024001330870000283883307013309240a073308700002280833087000020183883307013309330090040a0701951120fd951900027b90d8007b95d0007b96c8009515e0028411e08289828618828c088288109592fc7b199000d89209c89c0a95aaffd3ca0b7b1c8000d8ca0cdab90c9589ffc89c0cd89c097b188800888b017b169800c9b60bc8b9098f9b8ec6db9b06d4c9098eab8828a000858801dbab08db96085108d002647683172002330804330092040a0101951a000282a73882a83082a928502294042418510bb002821a20025022960430137b17c001821780007b17c8017b1be001821788007b17d001821798007b17d8017b1ce8017b19f001951700029518e0019519c0017b1af8015020980434fb951800028287187b17708287107b17608287087b177882877b1768831740023308240a01951800028287587b17508287507b17408287487b17588287407b17488317600233084433009a040a0101951a000282a77882a87082a96850229c047717510b0a02821a600250229e0483127b176001821780007b1768017b1b8001821788007b177001821798007b1778017b1c88017b1990019517a00195188001951960017b1a98015020a00487fa8217b8017b17308217b0017b17208217a8017b17388217a0017b1728831780023308643300a2040a0101951a000282a7980082a8900082a988005022a404eb16510b8501821a80025022a604f7117b170001821780007b1708017b1b2001821788007b171001821798007b1718017b1c28017b1930019517400195182001951900017b1a38015020a804fbf9821758017b1710821750017b17821748017b1718821740017b17088317a002330884003300aa040a0101951a000282a7b80082a8b00082a9a8005022ac045f16510b0001821aa0025022ae046b117b17a000821780007b17a8007b1bc000821788007b17b000821798007b17b8007b1cc8007b19d0009517e0009518c0009519a0007b1ad8005020b0046ff98217f0008218f8008219e000821ae8007b6790007b6898007b6980007b6a880082177b67708217107b67788217087b67608217187b67688217207b67508217307b67588217287b67408217387b67488217407b67308217507b67388217487b67208217587b67288217607b67108217707b67188217687b678217787b6708955120fd951700028270d8008275d0008276c8009511e00232003308700002281d330870000228163308700002280f33087000022808330870000201838833070133093300b2040a0701951110ff7b10e8007b15e0007b16d8009515f0008411f0828c10828b18828a0882887b1a287b1b18d4ab0bd4c80ad4ba0a98aa207b1c20d4cb0b97bb20d4ba0a520afa017b17088297187b17688296108297087b176082977b17589517b0007b18105020b4049179ff821758d46709821868821a60d4a808d489099899207b1650d46808978820d498085208b0018219c800821ac000821bb8008218b0007b18307b1890007b1b387b1b98007b1a407b1aa000951890007b19487b19a80064765020b6046d7aff821768821850d478081407e0ffffff00000000d87609821a6094a9948951095601821820821918d49808821910d87907821a2894a7948751073c01646c821630821a40d4a607821848821b38d4b808d48707987720d4a808978820d487075207150183c7208398207b182864685020b804777cff7b172082172864685020ba04687cff647882172064695020bc041d78ff821758c86707d86708821960821b38c8b909c88909d3b90ad8b90bdaa80b821850821a40c8a808d8a80a821c68821648c86c0cc8ca0ac88b0bd88b08c8a808d4b808140ae0ffffff00000000d8a70a949a948a510a8f0083772049218800492180004911789518704911705020be046a79ff82163095661f1407e0ffffff01000000d26707821858c88707d88708821a605022c004bf12821850c88a0ad88a08821b68c8b808957b20d87b07c8790cd89c09da7709c8a909d8a907c887078218087b8b7b8c087b89107b8718955110ff8210e8008215e0008216d8009511f000320000951130fc951a00037ba0c8007ba5c0007ba6b8009515d0038411f0828c10828a18828608828b7b1a60d4a608d4cb0ad48a0a98aa207b1c68d4c808978820d4a80852082f067b1688007b17208297187b17508296108297087b177882977b178000951900034929a8004929a000492998009518900349299000207b1b7064b75020c2047378ff82188000d46807821950821a78d4a909d497079877207b1648d46909979920d497075207c805951770035020c4040877ff821768821860d487091406e0ffffff00000000821b70d86b078218880094877b1958949751079505951c000382c7800082c87882c970977720987a2083b720491c687bc9507bc858951850037bca605020c604ec77ff821750821a48d47a0a82188000d8680782197894977b1a5094a751074905838820951730035020c8048676ff1407c0ffffff000000008216707b1748d87607821888009487821858948751071905951900038297487b17288297407b17308297387b17388297307b1740836740491928491920491910c000951810034919185020ca046677ff9567e000d86708821a88005022cc04cf10821868c88a0ad88a08821b60c88b0b951c00027bc9b8007bc7b0008217287bc7e8008217307bc7e0008217387bc7d8008217407bc7d0007bcac0009517f0029518d0029519b0027bcbc8005020ce04d6fb821880008217485022d004161051076e04821708037b1730821700037b17388217f8027b17408217f0027b1748838840951790025020d2048f75ff1406a0ffffff00000000821c70d86c078218880094878218589487510725048219a8028218a002821a9802821b900283c760951c00027bcb707bca787bc88000951870027bc988005020d4047a76ff82188000d86807821978949782195094975107e003838860951750025020d6041d75ff140780ffffff000000008212707b1728d8720782168800946782185894875107b003821768027b1710821760027b1718821748d82709647c821a40d36a08d86a0764abda8907821468821a38c94a0364a8c96b0ac99a0ac92c0b95b0e0d8b00bc8ba0c95ccffd3ac06d8ac0ada6b0ad8480b821860821630c98606c9b606d8730bc9b60b95190002829658c97308888701c97b0b8297507b17089588ffc88a0ad88a07c87b0b832780007b90307b9c387b9a40951830027b9b485020d8049675ff8217307b17e8018217387b17e0018217407b17d8018217487b17d0018217107b1708028217187b1700027b16f801951710029518f0019519d001821a087b1af0015020da0421fa821880008217285022dc04610e5107b902951900028297287b17308297207b17388297187b17408297107b1748838880009517b0015020de04d973ff140760ffffff000000008212707b1728d87207821688009467821858948751076c028217c8017b17108217c0017b1718821748d82709647c821a40d36a08d86a0764abda8907821468821a38c94a0364a8c96b0ac99a0ac92c0b95b0e0d8b00bc8ba0c95ccffd3ac06d8ac0ada6b0ad8480b821860821630c98606c9b606d8730bc9b6068218b8017b18c97308888701c976068217b0017b17089588ffc88a0ad88a07c876068327a0007b1090017b1c98017b1aa001951890017b16a8015020e0044e74ff8217307b1748018217387b1740018217407b1738018217487b1730018217107b1768018217187b17600182177b175801951770019518500195193001821a087b1a50015020e204d7f8821880008217285022e404170d51076f01821788017b1748821780017b1750821778017b1778821670018388a000951710015020e6049272ff140740ffffff00000000821270d87207821a880094a7821858948751072801821728017b178000d82608821b78d3ab09d8ab07da9807c9ab09c9890ac926099593e0d8930bc8ba099599ffd3a90cd8a90adacb0a821b20017b1b8800821c68821b50c9cb08d8cb0c7b1658821660821b48c96b06c9c606d8780cc9c606821b18017b1b60c9780b88b701c97606821710017b176895bbffc8ba0ad8ba07c876068327c0007b13f0007b19f8007b1a00019518f0007b1608015020e8040d73ff8217487b17a8008217507b17a0008217787b1798008217587b179000821780007b17c800821788007b17c0008217607b17b8009517d0009518b00095199000821a687b1ab0005020ea0493f78217e0008218e8008219d000821ad800821b207bb7107bb8187bb97bba08955130fc951700038270c8008275c0008276b8009511d0033200009511a07b10587b15507b16489515608411f0828910828c08828b82881897923f98ca01d42a02978a3f989901d49a0a97cc3f98b901d49c0c98830184bb019ab888b60184c97fd2a804d2280adbbc09d2380b88982094a8d4b40c94c8ab86167b797b7a087b74107b7b185022ec041e0c32005022ee04950b5020f0040972ff49111849111049012233070464184911085020f204f171ff39085c000256183f0b20035c00024001330870000283883307013309243300f4040a0701951120fe7b10d8017b15d0017b16c8019515e0018411e064167b67108297107b67980082977b6780008297187b6790008297087b678800828718828910828a0882887b67707b67b8017b69687b69b0017b6a607b6aa8017b68387b68a001956780019568a0015020f6045272ff956b000182b7980082b8900082b9880082ba80007b67307bb7587b68287bb8507b69207bb94895676001956840017b6a787bba405020f804a4fe826780008268900082698800d48909826a9800d4a708d49808988820d4a909979920d4980852085103956c000182cb7882c97082c86882ca607b6a407bca207b68507bc8287b69487bc930956820017b6b587bcb385020fa04ca70ff826a7884a7015207a5008267900082689800d487071408e0ffffff00000000826b8000d88b0882698800949894785108ec0284a800ff83b720826a207b6aa8007b68a0008268287b68b0009568a000826a307b6ab8005020fc046d70ff330033033302826748826840d48707826858826950d49808d4870782688000958a20d88a0882698800c8890bd89b09da880982689800c8980cd88c0882699000c898087b68388e77977405282102826738956900017b978267607b97088267687b9710956800018267707b971833075020fe04f76fff9517e08477e07b6730647139085c000256181f0b20035c000220019517e08479e07b697864913307700002837783993308200a06330c330033033302826780009578207b6828d8780782688800c878097b6920d88908da770882679800c878087b6818d8780782689000c887077b6738826a7882a71882a81082a90882aa6f776f8b6f946fa9826830649a7b891864497b69607b89107b6b707b8b0864797b87017b6a687b6978826740d87c07826950d3900ad89009daa709826b48d8b307826a5864c4d3a20cd8a20adac70ad3b307d4c707da790a510a16019567e0007b6298007b6390007b6088007b64800050200005f46fff82682882678000c88707d88708826b2082698800c8b909c88909d3b90ad8b90bdaa80b826a1882689000c8a808d8a802826c38826a9800c8ac0cc82c0ac88b0bd88b08c8a808d49808d4b709d48909d4b808989920978820d498085208f7008269f8008268f000826ae800826be0007b6bc0007b6ac8007b68d0009568c0007b69d80050200205786eff826c7895cc0188c701826a70c87a0ad4ac07887701826860c87803d88308826768c8870782688000958420d8840982688800c89800d8800bda990b82689000c88b0bd88b0982629800c892027b6a708268307b8a0864c97b8c643c7b8c10647a7b87187b6c60644c64b328b8fe826a28826b20826c1801c84a07d8a708c80b09c88909d3b90ad8b90bdaa80bc83c08c88b0bd88b0ad8c808826c38c82c0cc8c808c8a808826a107ba77ba9087bab107ba818955120fe8210d8018215d0018216c8019511e0013200003307502004055970ff330701502006054f70ff826bb80188b98000826a6001db9a07826c6801826a7801d4ca0ada980a93b7ff93baff939c826b7001939b82689801e0a8088269a001e079078269a801e0b909826ab001e0ca0a32028263680195330188370182646001c87404d4430788770182687001c87800d8800882678801c887078268b8019589207b698801d8890a82685801c8a8097b696801d8890bdaaa0b8268b001c8b80ad88a0b8268a801c8b8087b68a80182689801958b20d88b0c82697801c8c908d89809dacc09826c8001c8c909d8c90c3202826bb80188b98000826a7001db9a08826c7801826a8801d4ca0ada970a93b8ff93baff826b8001939b939c82679001e0a7078269a001e089088269a801e0c909826ab001e0ba0a956b382932027b6778017b68800182677001d487077b6770018267b8019579803307ff3308ff3202c8ba0a7b6a880197aa3b989b05d4ab0b8267a80182731897993b827a10988805d498076f346fa98268580194c8826a600194a8948b948732027b6770017b68680182686001d487077b6760018267b8018379803307ff3308ff32028ea78eb8dba7088ec77b6998018899208599017b6ca001dbc709956c00017bcaa8007bcbb000d4ab07db780982c728887720320297773b9878387b68b8019a8980003307ff3308ff3202826bb80188b98000826a7001db9a08826c7801826a8801d4ca0ada970a93b8ff93baff826b8001939b939c82679801e0a7078269a001e089088269a801e0c909826ab001e0ba0a956b382195bc000532028269200182970881981082996f77977a206f88988820d48a0a9877206f98978920d497079888209569ff07959939013202c8b707d4c809d4a707d47909989920d4c707977720d497073202826730017b6b9801d87b07857b017b6a780194ab017b6980018267a001d49707947b01826838018267b801c87808826a5001c8ac00826940018267b001c879098267480164ca826ca801c8c707320295ab04d8ab0ac8a90cd89c09daaa09c88909d88908c8870a8217900032024926a001826a880182a71882a81082a90882aa6f736f846f903309826b98016fa7330a32027b6788017b6870013307ff3308ff8269b801320282731897993b827a10988805d498076f346fa93202c8b707c88a0ad88a0cc8c70782608001c8a000d8a00a32027b68b8018d8980003307ff3308ff32029518e08488e07b68880164818377838933082032029517e08477e07b67a801647183793308208267b0003202d87a078268e000c8780bd88b08da77088267f000c8870cd87c078268e800c887077b6c58017b9c107b6b68017b9b087b6a70017b9a32024926a001492698014926a8014926b00132028298b800d878078298b000948782989800948732028269c00082970881981082996f77977a206f88988820d48a0a9877206f98978920d497079888209569381932028268d00098893f7b69980097b9017b69900098a93f7b6980009788017b68688268280198893f7b69880097a9017b69709789013202c8790bc8ab0bd39b0a7b6b9001d89b09daa709826b8801320282cb8000d4b80882cb8800d4ba0a82cb9000d4b909956b38293202c8a70798ba05977b3bd4ba0a826ba8013202c89c0cd89c0b8267b001d87909c89407c8b707d4c809d4a707d47909989920d4c707977720d497077b636801320295781fd87807826c7001c87c09d8c90ada770a32029517e08477e07b6798016471330820330732029517e08477e07b6790016471330820330732029518e08488e07b68900164818377838933082032023307207b67b801330c4926b0014926a801492698013202826ab80182a71882a81082a90882aa6f776f886f996faa956b3821320294a8948b94873202e0a7078269a001e089088269a801e0c909826ab001e0ba0a956b382132028264a801954401884701826bb801c87b0bd4b40788770182689801c88707d887083202c8790bc8ab0bd39b0a7b6b9001d89b09daa709826b880182673801d87b073202c89c0cd89c0ad80909c89307c8a707d4c809d4b707d47909989920d4c707977720d497073202956a000182a74882a840d487071408e0ffffff0000000082a938d8890882a9509498947832028267280195781fd87807826c3001c87c09d8c90ada770a826bd000c8ba0a3202827ba00082789800827a90008eb78e8cdbb70c7b6a70018ea7956a00013202d88708826ab001c88a09d8a90ada880a8268a001c88a0ad88a083202d47909989920d4c707977720d497077b6368017b64600132028298b800d878078298a8009487829858948732029517e08479e07b69b80164913202c8790bc8ab0bd39b0a7b6b8801d89b09daa709826b780132026479140700000000717b484e330800103202d8780782197894978219509497320282c96882c77082c87882ca80007bca407bc8387bc730330700203202826c90017bc4087bc37bc01032028298c0007b68b0018298b8007b68a8018298b0007b68a0018297a8007b6790013202c88a09d8a90ada880a3202491130491128491120140700000000717b484e9518207b1738330732029517e08477e07b678001647183793308208267f8003202c88609492920074929180749290807c000330800203202140a00000000010000001407e0ffffff0000000082b8b800d8780782b8b000948732028ea78e8bdba70b7b6930018e977b68d00032029551a08210588215508216489511603202d4780a889b0194ab32027b6760017b687801826728018a79033307ff3308ff3202d4ca0ada980a3308ffdab807dab80a939c320283773801c8760a95ab00033202d487071408e0ffffff00000000d889083202849a40520a195109148d9a40cfa80ad09808d09707d4a707320032009597c0d0780733083200849a40520a195109148d9a40d0a70acf9707cf9808d4a808320032009598c0cf87083307320049922425494b2a252da9944c4949214225a952484992244992244992244992244992244992244992244992244992244992244992542529a524292949a84a494a922449922449922449922449922449922449922449929224294955494a9228492549559282922425294955559292a42495244544444a92242549525129a5244929a524a9a488882849128490309426a52111922449a48424499324494229152230444d14aa3422222245449088102244224a23020908249088888846244992248a44a411114012492511119110119148249244424424224992242222224244242889441411222244241245492422222204104044a2288944141111424424129544444488080144248a924822222242448888482422858888121192284442220895224955118944a248884824128924911011222212499224111101248988880891101111111191449248224912494424888888882492488a24491289244952444244248000225149242222222222228a104904914422924444882448222222221111112112222222222222892491442222922422228888442291441249912449221111111151448448000144a2924844444444444484888488888888884822492491888844121111114144444444249144522449924844241111292222422441121111111111111121222122222222924812114924222211111111114144444444249144522449924844241111292222420011241111118944222221222122222222222222222222a2888888081145229224498a8888884822491289482249529224491491888888148908922449124522524422914844444484888888882492244992245144444488888888888888a414211289441109111191244992482491481249a25224492422888844441011111144222212894824121111142511451511111112a1d48888882822221011912489222222222282882822222222914824128944229148242212894488228a04111111511011112522821092202222102a114504222222228288884822224144248924914444444444444410d188249224414444444410400091a42849444422918888882012498a924444241289884410092080a4284944449148242222828844924a222222914844248248004951124044444444444444248828124444444441444494880892288a4ca21245928aa22822491111444444241291888820221291888888888820299248124924128944141141442449244992244944041191a412452489241111114444924444444404111111959224914822222222222222220aa2c8242a118d24924422490451044912492292481249922491824804255541229124494492441249311249229124494992888888222282888824492429111111d18824499244918834220248924a22222222a22022a244044914222112844a91a4a2288a48520411232222221244444444442491249248444424898804114924124924911491249124121111111111114124884444444404112322222222124444444444249124924824229244440411894824924822292249224924222222a2888820124444444444249124924824898888882022222222892492229224924422499244448248108944a248224922924844444444444404115144442491445244924492484444442411114124884892489224492411111151440411910002485492089288082222114412898888888888882222828824514a2222222222121111111141440001244a49a488a412114944922489442222890822229148241289141111414424894a221289448a48a244249124492211111111414444444444444444111111440490282511111189488a12914492248944444412114444229148241229222282888888a44822892489244992244904452590888888464444244992288a8888882022224992442291484444441411111111111149095144912022891444449488208424884804a1125124888888882022228948101149922449121101444444041111092080442589881011114444445249222244041101248a928488082022824424499244440011514404910002488a924444848888202289a4924444848808220124454942888888002222824450d2882241444444414444890892288a4ca2128d245545524a4a1249129188244992a448922449441011119528912449121111440491481091242a254922111111118924492405512412441189204192449288249244922449a42089a0a42a4824922489489248222946224924922429492222228a88082222922491a44412499248922491244992442212914844a22008824211554492aa8a4422358a4822114922492289242229910449441041248922222282482249249148241249249188249244128988544a44445412890892242922499244244992488224828820822008822048928820c924499248924824412a4904499288888888884924129120888824411004490449121341529208922449890812494a9224221149922449122511111144044992248988082282482488481295922491888888884422918814449148104524820892249244249124922449220511945405894492241149124924c5482489449224258944922822228888489244921249922491244992249224492222222222220a8220892a858a2a224945552412891a1191442292884424221189244990441041444444444404914492482291482492482211492489241211a99488884a12119188884424924492244822880822088220088288888820499224494444442201a4922492244192242222222222269148448220229204411024114444c44490942492241189489224495224494444101124499224222288082291202249544a924422222222124992480aa248248822124104491249229248124992249182480425554122912449449244124931124922912449492211115144441011912489242592489244922449922449221211111111898220080a45541149aa2a1289d42822894424452211894822921249904404114912912411412491249248241289249248441249228944442a2522222a49449024491189244944922489244822888888888808822008822092242248324992242249442282a8241124492222222222269148448220229204411024114444444c044949224992242211499224459288880822222a51a4244912111144924812912092a45292241211111111894422521045224134924812892411441124492489482249244992440a2228a90a1289244922922492488a9148128924494a1289888822228288882449242991244912918888888888888220080a45544424a9aa4824522b228944241189129188442425922409229288202222222222222288249244128944229144128948224924918848a5444444914824894422912492249244241111894422220a82202814514524a9aa482452a388241291249224924822921249124910494410111111491211441249228944229148228944249124924844a4522222a212494a2282241141449222128948229224491224114444444444441004411044442292242a12894422222222821849499224492292241211442589209228222222622289441249229120888824414424224910118908a24824128924882489892012444444442249922422224444101144448228898888009244222222884890442288441011442222128944228a88082222222222228200220208928888884892882022411291229244a424499224114992244922224944101145444444241229222282002202089288241111298a2492a42449128948922449928888880822222291482222a2888808222248222222222245914492942449221149922449121111114114894411114544444424122922228218111149914412499224499224891225519284881042444444444404458544249288a42449244112114424128944044110044144242249a2228824890822922449129124914412a49244041111111111111149269148242209222249100441129148242291c444101141449222892489888844221111111124451249228944229188222288489248922449928808224a4410898824111111414444444444444444444410111111114444444444444444144411994425a248104922882248924812914492489224899424928844924449559244924824491291249144528c449248244912452291444444144424912492488944242291202289888888888844444110045124088a4452041149224922491224114492444444440441248212111145249208121191481225499224482241444444444444044110044190241141442289241291249120894404111111111111319288484412912008822008221189442292242682a44810914804111111119124499224910822222282484424898888202222222222888888202222222222a2208a48248822412489208a2049224944124922499224521089248992aa2489249148922422492249128d449248244912512412494444440441a4442212914804118988442211290882208a044191488a20224924492449822482888888888888088248042522228a48241241222212894449922409920822914824220882200882888888202291441289888888044924824844229118494424228948100441100491884422111111311124458288448248522449922489882022a21245242292444404111111111141444404111189442252104524124423892491481241144192449288249244922449a42012491225554912492291244944924492241a892491489224a248249288888808824889442422118988442211290882208a044191481a114924228948242251242249244924498288209214912411411089a04444448948441211118988482422892449920411412412892282200882202212912451114492440491482249244922924424920490a4221241249224c948249148229244224110114982884844922022121144914824129148241211111113414444880822222aa51211492489241211112222222248a288888888882022222222222292124144444444249248249148221145114914a54892a894444a221151101189288848442222888848242292222282a2228a288a228920228a20228920129188442452241144452249244924128944229148449244049120222222228aa452929244082144244922a28228128922222222222222222222228828129124498a888848224912894822499224490ca552a10a8542a1140a8542a15028148a8808225110312294884844441089828811a14444222202185110111211898808225110312294884844441089828811a14404514426d188880046144484444422220218511011121189880860444144484424222280110511211141149149344a944449122184101111898888a0484444a494244922224404111149922449922492240a420493142aa52455499224499224494a92924444441111018c284822491022184aa24992a4548a244924499224498224290892a4042182a1241a118954529224499224499224499254529224499224499224888844492280494112498210c150128d888894942449922449922449924492244992448a34222a118912110922121149124992241145444444044924499244222222220a9224922489244992248924499224499224110920a98824922449249100928a24a9a072928824492489244992544a4444049224912222a2a1888800461488088908840886924261291a11119192249224922491482a29924491682409228288888888888888209224299122499224128d244144101111111111111144229148241a111144041111111111111141248a4422a2111141441011111111111111444444449424499224499224499224251111118542a150588a4644449294244992449224251248922449121111894422120592049054244952519224499248522029500a244992244992244912402a129124900490240992244992242949444434222222494a9224494492244544448414882449922422902480244a1191244912092489a41489400049a21491244992244402910892241191482412111111448288442291442080244a1111914822221049291281009244292291a4242549499224499224892449922492440289442291484444248248109124491211082049942212494a52929424499224499228492449222222028944229148141191082241442291880804904429229224499224494492244992489248924444440412894422222211118920222249898888689224494992244952922429a524414120494a204430944423222225512412494a2412898840444424491291041191489224224992248924904444028844452411894804aa2449124924892492924449124981248508262954aa8a24912491249224a92aa524a9499224494a922422222290481249924492489224499288888888884092244992441249228924a9525249324992244992a4241111d1020944442292a4281289448a24924412894422914412894822492445442292242a128944a28848449212492249525154454422925429924844244949445244242249a222914824a2482a2529494449922445249188242291884491922449a28824554515914449922a4922292229892a25518912492289442251111145a2a8482a252949148944228944929244124522912849a2249224499228892425512a895249542951441449aa8aaa128944a2482249242589242225499224499124802455249124524454a22891249292241145a25412952492a800a2a454924812454a11111111252949004925518912114401041089aa445192a4a422224949928a4409202549925452499224951400"},"methodIdentifiers":{"agentList(uint256)":"2f80c54f","agents(address)":"fd66091e","getAgentProfile(address)":"78dc93a4","registerAsAgent(string,uint256,string,string,string)":"645fff2d","updateAgentProfile(string,uint256,string,string,string)":"7ffd924c"}},"hash":"6be77b73d76fe341a9d4ae2288efe7e09f0ae7e5ab0adc5e02cbc51f62c83040","factoryDependencies":{}}}}