{"contracts/BookingEscrow.sol":{"BookingEscrow":{"abi":[{"anonymous":false,"inputs":[{"indexed":true,"internalType":"uint256","name":"bookingId","type":"uint256"},{"indexed":true,"internalType":"address","name":"consumer","type":"address"},{"indexed":true,"internalType":"address","name":"agent","type":"address"},{"indexed":false,"internalType":"uint256","name":"amount","type":"uint256"},{"indexed":false,"internalType":"string","name":"message","type":"string"}],"name":"Booked","type":"event"},{"anonymous":false,"inputs":[{"indexed":true,"internalType":"uint256","name":"bookingId","type":"uint256"}],"name":"Completed","type":"event"},{"inputs":[{"internalType":"address","name":"agent","type":"address"},{"internalType":"string","name":"message","type":"string"}],"name":"bookAgent","outputs":[],"stateMutability":"payable","type":"function"},{"inputs":[{"internalType":"uint256","name":"","type":"uint256"}],"name":"bookings","outputs":[{"internalType":"uint256","name":"id","type":"uint256"},{"internalType":"address","name":"consumer","type":"address"},{"internalType":"address","name":"agent","type":"address"},{"internalType":"uint256","name":"amount","type":"uint256"},{"internalType":"bool","name":"completed","type":"bool"},{"internalType":"uint256","name":"timestamp","type":"uint256"},{"internalType":"string","name":"message","type":"string"}],"stateMutability":"view","type":"function"},{"inputs":[{"internalType":"address","name":"","type":"address"},{"internalType":"uint256","name":"","type":"uint256"}],"name":"bookingsByAgent","outputs":[{"internalType":"uint256","name":"","type":"uint256"}],"stateMutability":"view","type":"function"},{"inputs":[{"internalType":"address","name":"","type":"address"},{"internalType":"uint256","name":"","type":"uint256"}],"name":"bookingsByConsumer","outputs":[{"internalType":"uint256","name":"","type":"uint256"}],"stateMutability":"view","type":"function"},{"inputs":[{"internalType":"uint256","name":"bookingId","type":"uint256"}],"name":"completeService","outputs":[],"stateMutability":"nonpayable","type":"function"},{"inputs":[],"name":"getAllBookings","outputs":[{"components":[{"internalType":"uint256","name":"id","type":"uint256"},{"internalType":"address","name":"consumer","type":"address"},{"internalType":"address","name":"agent","type":"address"},{"internalType":"uint256","name":"amount","type":"uint256"},{"internalType":"bool","name":"completed","type":"bool"},{"internalType":"uint256","name":"timestamp","type":"uint256"},{"internalType":"string","name":"message","type":"string"}],"internalType":"struct BookingEscrow.Booking[]","name":"","type":"tuple[]"}],"stateMutability":"view","type":"function"},{"inputs":[{"internalType":"address","name":"agent","type":"address"}],"name":"getBookingsByAgent","outputs":[{"components":[{"internalType":"uint256","name":"id","type":"uint256"},{"internalType":"address","name":"consumer","type":"address"},{"internalType":"address","name":"agent","type":"address"},{"internalType":"uint256","name":"amount","type":"uint256"},{"internalType":"bool","name":"completed","type":"bool"},{"internalType":"uint256","name":"timestamp","type":"uint256"},{"internalType":"string","name":"message","type":"string"}],"internalType":"struct BookingEscrow.Booking[]","name":"","type":"tuple[]"}],"stateMutability":"view","type":"function"},{"inputs":[{"internalType":"address","name":"consumer","type":"address"}],"name":"getBookingsByConsumer","outputs":[{"components":[{"internalType":"uint256","name":"id","type":"uint256"},{"internalType":"address","name":"consumer","type":"address"},{"internalType":"address","name":"agent","type":"address"},{"internalType":"uint256","name":"amount","type":"uint256"},{"internalType":"bool","name":"completed","type":"bool"},{"internalType":"uint256","name":"timestamp","type":"uint256"},{"internalType":"string","name":"message","type":"string"}],"internalType":"struct BookingEscrow.Booking[]","name":"","type":"tuple[]"}],"stateMutability":"view","type":"function"}],"evm":{"assembly":"// RO data = 0/0 bytes\n// RW data = 112/65696 bytes\n// Stack size = 32768 bytes\n\n// Instructions = 7916\n// Code size = 27658 bytes\n\n      : @0 (gas: 1)\n     0: jump @14 if a0 == a1\n      : @1 (gas: 9)\n     3: a3 = a1 << 0x20\n     6: a3 = a3 >> 0x20\n     9: a4 = a0 << 0x20\n    12: a4 = a4 >> 0x20\n    15: a4 = a4 + a2\n    18: a3 = a3 - a4\n    21: a4 = a2 << 0x1\n    24: a4 = -a4\n    26: jump @7 if a4 >=u a3\n      : @2 (gas: 1)\n    29: jump @11 if a0 >=u a1\n      : @3 (gas: 1)\n    32: jump @14 if a2 == 0\n      : @4 (gas: 3)\n    35: a2 = a2 + a0\n    38: a3 = a0\n    40: fallthrough\n      : @5 (gas: 6)\n    41: a4 = u8 [a1]\n    43: a1 = a1 + 0x1\n    46: a5 = a3 + 0x1\n    49: u8 [a3] = a4\n    51: a3 = a5\n    53: jump @5 if a5 != a2\n      : @6 (gas: 1)\n    56: jump @14\n      : @7 (gas: 1)\n    58: jump @14 if a2 == 0\n      : @8 (gas: 3)\n    61: a2 = a2 + a0\n    64: a3 = a0\n    66: fallthrough\n      : @9 (gas: 6)\n    67: a4 = u8 [a1]\n    69: a1 = a1 + 0x1\n    72: a5 = a3 + 0x1\n    75: u8 [a3] = a4\n    77: a3 = a5\n    79: jump @9 if a5 != a2\n      : @10 (gas: 1)\n    82: jump @14\n      : @11 (gas: 1)\n    84: jump @14 if a2 == 0\n      : @12 (gas: 2)\n    87: i32 a3 = a2 + 0xffffffffffffffff\n    90: fallthrough\n      : @13 (gas: 7)\n    91: a4 = a1 + a3\n    94: a4 = u8 [a4]\n    96: a2 = a2 + 0xffffffffffffffff\n    99: a5 = a0 + a3\n   102: u8 [a5] = a4\n   104: i32 a3 = a3 + 0xffffffffffffffff\n   107: jump @13 if a2 != 0\n      : @14 (gas: 1)\n   110: ret\n      : @15 (gas: 2)\n   112: a1 = i32 [0x20078]\n   117: jump @44 if a1 == 0\n      : @16 (gas: 4)\n   121: a0 = 0x300a0\n   126: i32 a0 = a0 + 0\n   128: ecalli 9 // 'set_immutable_data'\n   130: jump @44\n      : @17 (gas: 8)\n   133: sp = sp + 0xfffffffffffffff0\n   136: u64 [sp + 0x8] = ra\n   139: u64 [sp] = s0\n   141: a2 = a1\n   143: s0 = a0\n   145: a1 = 0x20\n   148: a0 = a2\n   150: ra = 2, jump @27\n      : @18 [@dyn 1] (gas: 100)\n   155: a1 = u8 [a0 + 0x1]\n   158: a2 = u8 [a0]\n   160: a3 = u8 [a0 + 0x2]\n   163: a4 = u8 [a0 + 0x3]\n   166: a1 = a1 << 0x8\n   169: a1 = a1 | a2\n   172: a3 = a3 << 0x10\n   175: a4 = a4 << 0x18\n   178: a3 = a3 | a4\n   181: a1 = a1 | a3\n   184: a2 = u8 [a0 + 0x5]\n   187: a3 = u8 [a0 + 0x4]\n   190: a4 = u8 [a0 + 0x6]\n   193: a5 = u8 [a0 + 0x7]\n   196: a2 = a2 << 0x8\n   199: a2 = a2 | a3\n   202: a4 = a4 << 0x10\n   205: a5 = a5 << 0x18\n   208: a4 = a4 | a5\n   211: a2 = a2 | a4\n   214: a2 = a2 << 0x20\n   217: t0 = a2 | a1\n   220: a2 = u8 [a0 + 0x9]\n   223: a3 = u8 [a0 + 0x8]\n   226: a4 = u8 [a0 + 0xa]\n   229: a5 = u8 [a0 + 0xb]\n   232: a2 = a2 << 0x8\n   235: a2 = a2 | a3\n   238: a4 = a4 << 0x10\n   241: a5 = a5 << 0x18\n   244: a4 = a4 | a5\n   247: a2 = a2 | a4\n   250: a3 = u8 [a0 + 0xd]\n   253: a4 = u8 [a0 + 0xc]\n   256: a5 = u8 [a0 + 0xe]\n   259: a1 = u8 [a0 + 0xf]\n   262: a3 = a3 << 0x8\n   265: a3 = a3 | a4\n   268: a5 = a5 << 0x10\n   271: a1 = a1 << 0x18\n   274: a1 = a1 | a5\n   277: a1 = a1 | a3\n   280: a1 = a1 << 0x20\n   283: t1 = a1 | a2\n   286: a1 = u8 [a0 + 0x11]\n   289: a3 = u8 [a0 + 0x10]\n   292: a4 = u8 [a0 + 0x12]\n   295: a5 = u8 [a0 + 0x13]\n   298: a1 = a1 << 0x8\n   301: a1 = a1 | a3\n   304: a4 = a4 << 0x10\n   307: a5 = a5 << 0x18\n   310: a4 = a4 | a5\n   313: a1 = a1 | a4\n   316: a3 = u8 [a0 + 0x15]\n   319: a4 = u8 [a0 + 0x14]\n   322: a5 = u8 [a0 + 0x16]\n   325: a2 = u8 [a0 + 0x17]\n   328: a3 = a3 << 0x8\n   331: a3 = a3 | a4\n   334: a5 = a5 << 0x10\n   337: a2 = a2 << 0x18\n   340: a2 = a2 | a5\n   343: a2 = a2 | a3\n   346: a2 = a2 << 0x20\n   349: a3 = a2 | a1\n   352: a1 = u8 [a0 + 0x19]\n   355: a2 = u8 [a0 + 0x18]\n   358: a4 = u8 [a0 + 0x1a]\n   361: a5 = u8 [a0 + 0x1b]\n   364: a1 = a1 << 0x8\n   367: a1 = a1 | a2\n   370: a4 = a4 << 0x10\n   373: a5 = a5 << 0x18\n   376: a4 = a4 | a5\n   379: a1 = a1 | a4\n   382: a2 = u8 [a0 + 0x1d]\n   385: a4 = u8 [a0 + 0x1c]\n   388: a5 = u8 [a0 + 0x1e]\n   391: a0 = u8 [a0 + 0x1f]\n   394: a2 = a2 << 0x8\n   397: a2 = a2 | a4\n   400: a5 = a5 << 0x10\n   403: a0 = a0 << 0x18\n   406: a0 = a0 | a5\n   409: a0 = a0 | a2\n   412: a0 = a0 << 0x20\n   415: a0 = a0 | a1\n   418: a0 = reverse a0\n   420: a1 = reverse a3\n   422: a2 = reverse t1\n   424: a3 = reverse t0\n   426: u64 [s0 + 0x18] = a3\n   429: u64 [s0 + 0x10] = a2\n   432: u64 [s0 + 0x8] = a1\n   435: u64 [s0] = a0\n   437: ra = u64 [sp + 0x8]\n   440: s0 = u64 [sp]\n   442: sp = sp + 0x10\n   445: ret\n      : @19 (gas: 12)\n   447: sp = sp + 0xffffffffffffffd8\n   450: u64 [sp + 0x20] = ra\n   453: u64 [sp + 0x18] = s0\n   456: u64 [sp + 0x10] = s1\n   459: a2 = u64 [a1]\n   461: u64 [sp + 0x8] = a2\n   464: a2 = u64 [a1 + 0x8]\n   467: u64 [sp] = a2\n   469: s0 = u64 [a1 + 0x10]\n   472: s1 = u64 [a1 + 0x18]\n   475: a1 = 0x20\n   478: ra = 4, jump @27\n      : @20 [@dyn 2] (gas: 71)\n   483: a1 = reverse s1\n   485: a2 = reverse s0\n   487: a3 = u64 [sp]\n   489: a3 = reverse a3\n   491: a4 = u64 [sp + 0x8]\n   494: a4 = reverse a4\n   496: u8 [a0 + 0x18] = a4\n   499: u8 [a0 + 0x10] = a3\n   502: u8 [a0 + 0x8] = a2\n   505: u8 [a0] = a1\n   507: a5 = a4 >> 0x38\n   510: u8 [a0 + 0x1f] = a5\n   513: a5 = a4 >> 0x30\n   516: u8 [a0 + 0x1e] = a5\n   519: a5 = a4 >> 0x28\n   522: u8 [a0 + 0x1d] = a5\n   525: a5 = a4 >> 0x20\n   528: u8 [a0 + 0x1c] = a5\n   531: a5 = a4 >> 0x18\n   534: u8 [a0 + 0x1b] = a5\n   537: a5 = a4 >> 0x10\n   540: u8 [a0 + 0x1a] = a5\n   543: a4 = a4 >> 0x8\n   546: u8 [a0 + 0x19] = a4\n   549: a4 = a3 >> 0x38\n   552: u8 [a0 + 0x17] = a4\n   555: a4 = a3 >> 0x30\n   558: u8 [a0 + 0x16] = a4\n   561: a4 = a3 >> 0x28\n   564: u8 [a0 + 0x15] = a4\n   567: a4 = a3 >> 0x20\n   570: u8 [a0 + 0x14] = a4\n   573: a4 = a3 >> 0x18\n   576: u8 [a0 + 0x13] = a4\n   579: a4 = a3 >> 0x10\n   582: u8 [a0 + 0x12] = a4\n   585: a3 = a3 >> 0x8\n   588: u8 [a0 + 0x11] = a3\n   591: a3 = a2 >> 0x38\n   594: u8 [a0 + 0xf] = a3\n   597: a3 = a2 >> 0x30\n   600: u8 [a0 + 0xe] = a3\n   603: a3 = a2 >> 0x28\n   606: u8 [a0 + 0xd] = a3\n   609: a3 = a2 >> 0x20\n   612: u8 [a0 + 0xc] = a3\n   615: a3 = a2 >> 0x18\n   618: u8 [a0 + 0xb] = a3\n   621: a3 = a2 >> 0x10\n   624: u8 [a0 + 0xa] = a3\n   627: a2 = a2 >> 0x8\n   630: u8 [a0 + 0x9] = a2\n   633: a2 = a1 >> 0x38\n   636: u8 [a0 + 0x7] = a2\n   639: a2 = a1 >> 0x30\n   642: u8 [a0 + 0x6] = a2\n   645: a2 = a1 >> 0x28\n   648: u8 [a0 + 0x5] = a2\n   651: a2 = a1 >> 0x20\n   654: u8 [a0 + 0x4] = a2\n   657: a2 = a1 >> 0x18\n   660: u8 [a0 + 0x3] = a2\n   663: a2 = a1 >> 0x10\n   666: u8 [a0 + 0x2] = a2\n   669: a1 = a1 >> 0x8\n   672: u8 [a0 + 0x1] = a1\n   675: ra = u64 [sp + 0x20]\n   678: s0 = u64 [sp + 0x18]\n   681: s1 = u64 [sp + 0x10]\n   684: sp = sp + 0x28\n   687: ret\n      : @21 (gas: 43)\n   689: sp = sp + 0xffffffffffffffa0\n   692: u64 [sp + 0x58] = ra\n   695: u64 [sp + 0x50] = s0\n   698: u64 [sp + 0x48] = s1\n   701: s0 = sp + 0x60\n   704: sp = sp & 0xffffffffffffffe0\n   707: s1 = a0\n   709: a0 = u64 [a1 + 0x18]\n   712: a2 = u64 [a1 + 0x10]\n   715: a3 = u64 [a1 + 0x8]\n   718: a1 = u64 [a1]\n   720: a0 = reverse a0\n   722: a2 = reverse a2\n   724: a3 = reverse a3\n   726: a1 = reverse a1\n   728: u64 [sp + 0x18] = a1\n   731: u64 [sp + 0x10] = a3\n   734: u64 [sp + 0x8] = a2\n   737: u64 [sp] = a0\n   739: u64 [sp + 56] = 0\n   742: u64 [sp + 48] = 0\n   745: u64 [sp + 40] = 0\n   748: u64 [sp + 32] = 0\n   751: u32 [sp + 64] = 0x20\n   755: i32 a1 = sp + 0\n   757: i32 a3 = sp + 0x20\n   760: i32 a4 = sp + 0x40\n   763: a2 = 0xffffffffffffffff\n   766: a0 = 0\n   768: ecalli 5 // 'get_storage'\n   770: a0 = u64 [sp + 0x38]\n   773: a1 = u64 [sp + 0x30]\n   776: a2 = u64 [sp + 0x28]\n   779: a3 = u64 [sp + 0x20]\n   782: a0 = reverse a0\n   784: a1 = reverse a1\n   786: a2 = reverse a2\n   788: a3 = reverse a3\n   790: u64 [s1 + 0x18] = a3\n   793: u64 [s1 + 0x10] = a2\n   796: u64 [s1 + 0x8] = a1\n   799: u64 [s1] = a0\n   801: t0 = 6, jump @813\n      : @22 [@dyn 3] (gas: 1)\n   806: ret\n      : @23 (gas: 40)\n   808: sp = sp + 0xffffffffffffffa0\n   811: u64 [sp + 0x58] = ra\n   814: u64 [sp + 0x50] = s0\n   817: s0 = sp + 0x60\n   820: sp = sp & 0xffffffffffffffe0\n   823: t0 = u64 [a0]\n   825: a3 = u64 [a0 + 0x8]\n   828: a4 = u64 [a0 + 0x10]\n   831: a0 = u64 [a0 + 0x18]\n   834: t1 = u64 [a1]\n   836: a2 = u64 [a1 + 0x8]\n   839: a5 = u64 [a1 + 0x10]\n   842: a1 = u64 [a1 + 0x18]\n   845: t2 = reverse a0\n   847: a4 = reverse a4\n   849: a3 = reverse a3\n   851: a0 = reverse t0\n   853: t0 = reverse a1\n   855: a5 = reverse a5\n   857: a2 = reverse a2\n   859: a1 = reverse t1\n   861: u64 [sp + 0x18] = a0\n   864: u64 [sp + 0x10] = a3\n   867: u64 [sp + 0x8] = a4\n   870: u64 [sp] = t2\n   872: u64 [sp + 0x38] = a1\n   875: u64 [sp + 0x30] = a2\n   878: u64 [sp + 0x28] = a5\n   881: u64 [sp + 0x20] = t0\n   884: i32 a1 = sp + 0\n   886: i32 a3 = sp + 0x20\n   889: a2 = 0xffffffffffffffff\n   892: a4 = 0x20\n   895: a0 = 0\n   897: ecalli 10 // 'set_storage'\n   899: sp = s0 + 0xffffffffffffffa0\n   902: ra = u64 [sp + 0x58]\n   905: s0 = u64 [sp + 0x50]\n   908: sp = sp + 0x60\n   911: ret\n      : @24 [@dyn 4] (gas: 35)\n   913: a1 = u64 [sp]\n   915: a1 = reverse a1\n   917: a2 = u64 [sp + 0x8]\n   920: a2 = reverse a2\n   922: a3 = u64 [sp + 0x10]\n   925: a3 = reverse a3\n   927: a4 = u64 [sp + 0x18]\n   930: a4 = reverse a4\n   932: u64 [sp + 0x58] = a4\n   935: u64 [sp + 0x50] = a3\n   938: u64 [sp + 0x48] = a2\n   941: u64 [sp + 0x40] = a1\n   944: a1 = u64 [sp + 0x20]\n   947: a1 = reverse a1\n   949: a2 = u64 [sp + 0x28]\n   952: a2 = reverse a2\n   954: a3 = u64 [sp + 0x30]\n   957: a3 = reverse a3\n   959: a4 = u64 [sp + 0x38]\n   962: a4 = reverse a4\n   964: u64 [sp + 0x78] = a4\n   967: u64 [sp + 0x70] = a3\n   970: u64 [sp + 0x68] = a2\n   973: u64 [sp + 0x60] = a1\n   976: i32 a2 = a0 + 0\n   978: i32 a3 = s1 + 0\n   980: i32 a0 = sp + 0x40\n   983: a1 = 0x2\n   986: ecalli 4 // 'deposit_event'\n   988: sp = s0 + 0xffffffffffffff60\n   992: ra = u64 [sp + 0x98]\n   996: s0 = u64 [sp + 0x90]\n  1000: s1 = u64 [sp + 0x88]\n  1004: sp = sp + 0xa0\n  1008: ret\n      : @25 [@dyn 5] (gas: 2)\n  1010: u64 [sp + 0x58] = a1\n  1013: ra = 12, jump @27\n      : @26 [@dyn 6] (gas: 58)\n  1018: a1 = reverse s1\n  1020: u64 [sp + 0x98] = a1\n  1024: a1 = u64 [sp]\n  1026: a1 = reverse a1\n  1028: u64 [sp + 0x90] = a1\n  1032: a1 = u64 [sp + 0x8]\n  1035: a1 = reverse a1\n  1037: u64 [sp + 0x88] = a1\n  1041: a1 = u64 [sp + 0x10]\n  1044: a1 = reverse a1\n  1046: u64 [sp + 0x80] = a1\n  1050: a1 = u64 [sp + 0x18]\n  1053: a1 = reverse a1\n  1055: u64 [sp + 0xb8] = a1\n  1059: a1 = u64 [sp + 0x20]\n  1062: a1 = reverse a1\n  1064: u64 [sp + 0xb0] = a1\n  1068: a1 = u64 [sp + 0x28]\n  1071: a1 = reverse a1\n  1073: u64 [sp + 0xa8] = a1\n  1077: a1 = u64 [sp + 0x30]\n  1080: a1 = reverse a1\n  1082: u64 [sp + 0xa0] = a1\n  1086: a1 = u64 [sp + 0x38]\n  1089: a1 = reverse a1\n  1091: u64 [sp + 0xd8] = a1\n  1095: a1 = u64 [sp + 0x40]\n  1098: a1 = reverse a1\n  1100: u64 [sp + 0xd0] = a1\n  1104: a1 = u64 [sp + 0x48]\n  1107: a1 = reverse a1\n  1109: u64 [sp + 0xc8] = a1\n  1113: a1 = u64 [sp + 0x50]\n  1116: a1 = reverse a1\n  1118: u64 [sp + 0xc0] = a1\n  1122: a1 = u64 [sp + 0x60]\n  1125: a1 = reverse a1\n  1127: u64 [sp + 0xf8] = a1\n  1131: a1 = u64 [sp + 0x68]\n  1134: a1 = reverse a1\n  1136: u64 [sp + 0xf0] = a1\n  1140: a1 = u64 [sp + 0x70]\n  1143: a1 = reverse a1\n  1145: u64 [sp + 0xe8] = a1\n  1149: a1 = u64 [sp + 0x78]\n  1152: a1 = reverse a1\n  1154: u64 [sp + 0xe0] = a1\n  1158: i32 a2 = a0 + 0\n  1160: a3 = i32 [sp + 0x58]\n  1163: i32 a0 = sp + 0x80\n  1167: a1 = 0x4\n  1170: ecalli 4 // 'deposit_event'\n  1172: sp = s0 + 0xfffffffffffffee0\n  1176: ra = u64 [sp + 0x118]\n  1180: s0 = u64 [sp + 0x110]\n  1184: s1 = u64 [sp + 0x108]\n  1188: sp = sp + 0x120\n  1192: ret\n      : @27 (gas: 2)\n  1194: i32 a2 = a0 >> 0x10\n  1197: jump @32 if a2 != 0\n      : @28 (gas: 4)\n  1200: a1 = a1 + a0\n  1203: i32 a1 = a1 + 0x1f\n  1206: a1 = a1 & 0xffffffffffffffe0\n  1209: jump @32 if a1 >u 65536\n      : @29 (gas: 3)\n  1215: a2 = 0x20074\n  1220: a3 = i32 [0x20074]\n  1225: jump @31 if a3 >=u a1\n      : @30 (gas: 2)\n  1228: u32 [0x20074] = a1\n  1233: fallthrough\n      : @31 (gas: 4)\n  1234: a1 = 0x20080\n  1239: i32 a0 = a0 + 0\n  1241: a0 = a0 + a1\n  1244: ret\n      : @32 (gas: 1)\n  1246: trap\n      : @33 (gas: 6)\n  1247: sp = sp + 0xfffffffffffffff0\n  1250: u64 [sp + 0x8] = ra\n  1253: u64 [sp] = s0\n  1255: s0 = a0 & 0x1\n  1258: ecalli 2 // 'call_data_size'\n  1260: fallthrough\n      : @34 (gas: 2)\n  1261: u32 [0x20070] = a0\n  1266: jump @36 if s0 == 0\n      : @35 (gas: 1)\n  1269: ra = 14, jump @37\n      : @36 [@dyn 7] (gas: 1)\n  1273: ra = 16, jump @46\n      : @37 [@dyn 8] (gas: 12)\n  1278: sp = sp + 0xffffffffffffffa0\n  1281: u64 [sp + 0x58] = ra\n  1284: u64 [sp + 0x50] = s0\n  1287: s0 = sp + 0x60\n  1290: sp = sp & 0xffffffffffffffe0\n  1293: u64 [sp + 24] = 0\n  1296: u64 [sp + 16] = 0\n  1299: u64 [sp + 0] = 0x80\n  1303: a0 = 0x40\n  1306: a1 = sp\n  1308: u64 [sp + 8] = 0\n  1311: ra = 18, jump @19\n      : @38 [@dyn 9] (gas: 7)\n  1316: u64 [sp + 56] = 0\n  1319: u64 [sp + 48] = 0\n  1322: u64 [sp + 40] = 0\n  1325: u64 [sp + 32] = 0\n  1328: i32 a0 = sp + 0x20\n  1331: ecalli 11 // 'value_transferred'\n  1333: fallthrough\n      : @39 (gas: 8)\n  1334: a0 = u64 [sp + 0x30]\n  1337: a1 = u64 [sp + 0x38]\n  1340: a2 = u64 [sp + 0x28]\n  1343: a3 = u64 [sp + 0x20]\n  1346: a1 = a1 | a2\n  1349: a0 = a0 | a3\n  1352: a0 = a0 | a1\n  1355: jump @41 if a0 == 0\n      : @40 (gas: 7)\n  1358: a1 = 0x20080\n  1363: i32 a1 = a1 + 0\n  1365: a0 = 0x1\n  1368: a2 = 0\n  1370: ra = 0x16\n  1373: ecalli 8 // 'seal_return'\n  1375: jump @46\n      : @41 (gas: 2)\n  1377: a1 = i32 [0x20074]\n  1382: jump @43 if a1 >u 127\n      : @42 (gas: 2)\n  1386: u32 [0x20074] = 0x80\n  1393: fallthrough\n      : @43 (gas: 6)\n  1394: a0 = 0x20080\n  1399: i32 a0 = a0 + 0x80\n  1403: a1 = 0\n  1405: a2 = 0\n  1407: ecalli 0 // 'call_data_copy'\n  1408: jump @15\n      : @44 (gas: 3)\n  1411: a0 = 0x80\n  1415: a1 = 0\n  1417: ra = 20, jump @27\n      : @45 [@dyn 10] (gas: 6)\n  1422: i32 a1 = a0 + 0\n  1424: a0 = 0\n  1426: a2 = 0\n  1428: ra = 0x16\n  1431: ecalli 8 // 'seal_return'\n  1433: fallthrough\n      : @46 [@dyn 11] (gas: 16)\n  1434: sp = sp + 0xfffffffffffffe10\n  1438: u64 [sp + 0x1e8] = ra\n  1442: u64 [sp + 0x1e0] = s0\n  1446: u64 [sp + 0x1d8] = s1\n  1450: s0 = sp + 0x1f0\n  1454: sp = sp + 0xffffffffffffe310\n  1458: sp = sp & 0xffffffffffffffe0\n  1461: s1 = sp\n  1463: a2 = s1 + 0x18d8\n  1467: u64 [a2 + 160] = 0\n  1471: u64 [a2 + 152] = 0\n  1475: u64 [a2 + 136] = 0x80\n  1481: a0 = 0x40\n  1484: a1 = s1 + 0x1960\n  1488: u64 [a2 + 144] = 0\n  1492: ra = 24, jump @19\n      : @47 [@dyn 12] (gas: 4)\n  1497: a0 = 0x20070\n  1502: u64 [s1 + 0x138] = a0\n  1506: a0 = i32 [0x20070]\n  1511: jump @49 if a0 >=u 4\n      : @48 (gas: 1)\n  1515: jump @472\n      : @49 (gas: 6)\n  1518: a0 = s1 + 0x2000\n  1522: i32 a0 = a0 + 0xfffffffffffff980\n  1526: a1 = 0\n  1528: ra = 0x1a\n  1531: ecalli 1 // 'call_data_load'\n  1533: fallthrough\n      : @50 [@dyn 13] (gas: 3)\n  1534: a2 = s1 + 0x18d8\n  1538: a0 = i32 [a2 + 0xc4]\n  1542: jump @52 if a0 != 2158508237\n      : @51 (gas: 1)\n  1549: jump @194\n      : @52 (gas: 1)\n  1552: jump @54 if a0 != 2343672916\n      : @53 (gas: 1)\n  1559: jump @361\n      : @54 (gas: 1)\n  1562: jump @56 if a0 != 3940274994\n      : @55 (gas: 1)\n  1569: jump @328\n      : @56 (gas: 1)\n  1572: jump @99 if a0 == 497758238\n      : @57 (gas: 1)\n  1580: jump @59 if a0 != 792514237\n      : @58 (gas: 1)\n  1587: jump @169\n      : @59 (gas: 1)\n  1590: jump @148 if a0 == 1111880446\n      : @60 (gas: 1)\n  1598: jump @62 if a0 == 1276100221\n      : @61 (gas: 1)\n  1605: jump @227\n      : @62 (gas: 8)\n  1608: u64 [a2 + 672] = 0\n  1612: u64 [a2 + 664] = 0\n  1616: u64 [a2 + 656] = 0\n  1620: u64 [a2 + 648] = 0\n  1624: a0 = s1 + 0x2000\n  1628: i32 a0 = a0 + 0xfffffffffffffb60\n  1632: ecalli 11 // 'value_transferred'\n  1634: fallthrough\n      : @63 (gas: 10)\n  1635: a3 = s1 + 0x18d8\n  1639: a4 = a3 + 0x200\n  1643: a0 = u64 [a4 + 0x98]\n  1647: a1 = u64 [a4 + 0xa0]\n  1651: a2 = u64 [a4 + 0x90]\n  1655: a3 = u64 [a4 + 0x88]\n  1659: a1 = a1 | a2\n  1662: a0 = a0 | a3\n  1665: a0 = a0 | a1\n  1668: jump @65 if a0 == 0\n      : @64 (gas: 1)\n  1671: jump @476\n      : @65 (gas: 3)\n  1674: a0 = u64 [s1 + 0x138]\n  1678: a0 = i32 [a0]\n  1680: jump @67 if a0 >u 35\n      : @66 (gas: 1)\n  1684: jump @477\n      : @67 (gas: 3)\n  1687: a0 = s1 + 0x7ff\n  1691: a0 = a0 + 0x2c1\n  1695: ra = 28, jump @660\n      : @68 [@dyn 14] (gas: 14)\n  1700: a3 = s1 + 0x7ff\n  1704: a3 = a3 + 0xb9\n  1708: a0 = u64 [a3 + 0x208]\n  1712: a1 = u64 [a3 + 0x210]\n  1716: a2 = u32 [a3 + 0x218]\n  1720: u64 [a3 + 512] = 0\n  1724: a4 = a3 + 0x100\n  1728: u64 [a4 + 0xf8] = a2\n  1732: u64 [a4 + 0xf0] = a1\n  1736: a1 = s1 + 0x7ff\n  1740: a1 = a1 + 0x2a1\n  1744: u64 [a4 + 0xe8] = a0\n  1748: a0 = 0\n  1750: ra = 30, jump @19\n      : @69 [@dyn 15] (gas: 11)\n  1755: a1 = s1 + 0x7ff\n  1759: a1 = a1 + 0xb9\n  1763: u64 [a1 + 480] = 0\n  1767: u64 [a1 + 472] = 0\n  1771: u64 [a1 + 456] = 0x1\n  1776: a2 = a1\n  1778: a0 = 0x20\n  1781: a1 = s1 + 0x7ff\n  1785: a1 = a1 + 0x281\n  1789: u64 [a2 + 464] = 0\n  1793: ra = 32, jump @19\n      : @70 [@dyn 16] (gas: 6)\n  1798: a0 = sp + 0xffffffffffffffe0\n  1801: a0 = a0 & 0xffffffffffffffe0\n  1804: u64 [s1 + 0x138] = a0\n  1808: sp = a0\n  1810: a1 = i32 [0x20074]\n  1815: jump @72 if a1 >u 63\n      : @71 (gas: 4)\n  1819: a1 = 0x40\n  1822: u32 [0x20074] = a1\n  1827: t0 = 0x22\n  1830: jump @817\n      : @72 (gas: 1)\n  1833: t0 = 34, jump @817\n      : @73 [@dyn 17] (gas: 8)\n  1838: a0 = 0x20080\n  1843: i32 a0 = a0 + 0\n  1845: i32 a2 = a2 + 0\n  1847: a1 = 0x40\n  1850: ra = 0x24\n  1853: ecalli 6 // 'hash_keccak_256'\n  1855: t0 = 0x26\n  1858: jump @792\n      : @74 [@dyn 18] (gas: 1)\n  1861: t0 = 38, jump @792\n      : @75 [@dyn 19] (gas: 3)\n  1866: a0 = s1 + 0x7ff\n  1870: a0 = a0 + 0x261\n  1874: ra = 40, jump @21\n      : @76 [@dyn 20] (gas: 20)\n  1879: a4 = s1 + 0x7ff\n  1883: a4 = a4 + 0xb9\n  1887: a5 = a4 + 0x100\n  1891: a0 = u64 [a5 + 0xc0]\n  1895: a1 = u64 [a5 + 0xb8]\n  1899: a2 = u64 [a5 + 0xb0]\n  1903: a3 = u64 [a5 + 0xa8]\n  1907: u64 [s1 + 0xa0] = a0\n  1911: u64 [a5 + 0x80] = a0\n  1915: u64 [s1 + 0x98] = a1\n  1919: u64 [a5 + 0x78] = a1\n  1922: u64 [s1 + 0x90] = a2\n  1926: u64 [a5 + 0x70] = a2\n  1929: a0 = s1 + 0x7ff\n  1933: a0 = a0 + 0x241\n  1937: a1 = s1 + 0x7ff\n  1941: a1 = a1 + 0x221\n  1945: u64 [s1 + 0x88] = a3\n  1949: u64 [a5 + 0x68] = a3\n  1952: ra = 42, jump @717\n      : @77 [@dyn 21] (gas: 16)\n  1957: a4 = s1 + 0x7ff\n  1961: a4 = a4 + 0xb9\n  1965: a1 = a4 + 0x100\n  1969: a0 = u64 [a1 + 0xa0]\n  1973: u64 [s1 + 0xd0] = a0\n  1977: a0 = u64 [a1 + 0x98]\n  1981: u64 [s1 + 0xd8] = a0\n  1985: a0 = u64 [a1 + 0x90]\n  1989: u64 [s1 + 0xe0] = a0\n  1993: a0 = u64 [a1 + 0x88]\n  1997: u64 [s1 + 0xe8] = a0\n  2001: t0 = 0\n  2003: t1 = 0\n  2005: ra = 0\n  2007: t2 = 0\n  2009: fallthrough\n      : @78 (gas: 16)\n  2010: a0 = u64 [s1 + 0x88]\n  2014: a0 = t0 <u a0\n  2017: a2 = u64 [s1 + 0x90]\n  2021: a1 = t1 ^ a2\n  2024: a2 = t1 <u a2\n  2027: a2 = a0 if a1 == 0\n  2030: a5 = u64 [s1 + 0x98]\n  2034: a0 = ra <u a5\n  2037: a3 = u64 [s1 + 0xa0]\n  2041: a1 = t2 ^ a3\n  2044: a3 = t2 <u a3\n  2047: a3 = a0 if a1 == 0\n  2050: a0 = ra ^ a5\n  2053: a0 = a0 | a1\n  2056: a3 = a2 if a0 == 0\n  2059: jump @80 if a3 != 0\n      : @79 (gas: 1)\n  2062: jump @399\n      : @80 (gas: 27)\n  2065: a0 = sp + 0xffffffffffffffe0\n  2068: a0 = a0 & 0xffffffffffffffe0\n  2071: u64 [s1 + 0x118] = a0\n  2075: sp = a0\n  2077: u64 [a4 + 0x80] = t2\n  2081: u64 [a4 + 0x78] = ra\n  2084: u64 [a4 + 0x70] = t1\n  2087: u64 [a4 + 0x68] = t0\n  2090: a0 = u64 [s1 + 0x68]\n  2093: u64 [a4 + 0xa0] = a0\n  2097: a0 = u64 [s1 + 0x70]\n  2100: u64 [a4 + 0x98] = a0\n  2104: a0 = u64 [s1 + 0x78]\n  2107: u64 [a4 + 0x90] = a0\n  2111: a0 = s1 + 0x7ff\n  2115: a0 = a0 + 0x161\n  2119: a1 = s1 + 0x7ff\n  2123: a1 = a1 + 0x141\n  2127: a2 = s1 + 0x7ff\n  2131: a2 = a2 + 0x121\n  2135: a3 = u64 [s1 + 0x80]\n  2139: u64 [a4 + 0x88] = a3\n  2143: u64 [s1 + 0x138] = t0\n  2147: u64 [s1 + 0x130] = t1\n  2151: u64 [s1 + 0x128] = t2\n  2155: u64 [s1 + 0x120] = ra\n  2159: ra = 44, jump @664\n      : @81 [@dyn 22] (gas: 23)\n  2164: a3 = s1 + 0x7ff\n  2168: a3 = a3 + 0xb9\n  2172: a0 = u64 [a3 + 0xe0]\n  2176: u64 [s1 + 0xf8] = a0\n  2180: a0 = u64 [a3 + 0xd8]\n  2184: u64 [s1 + 0xc8] = a0\n  2188: a0 = u64 [a3 + 0xd0]\n  2192: u64 [s1 + 0xc0] = a0\n  2196: a0 = u64 [a3 + 0xc8]\n  2200: u64 [s1 + 0xf0] = a0\n  2204: a0 = u64 [a3 + 0xb8]\n  2208: a1 = u64 [a3 + 0xc0]\n  2212: a2 = u64 [a3 + 0xa8]\n  2216: a3 = u64 [a3 + 0xb0]\n  2220: a4 = u64 [s1 + 0x118]\n  2224: u64 [a4 + 0x10] = a0\n  2227: u64 [a4 + 0x18] = a1\n  2230: u64 [a4] = a2\n  2232: u64 [a4 + 0x8] = a3\n  2235: a1 = a4\n  2237: a0 = s1 + 0x7ff\n  2241: a0 = a0 + 0x101\n  2245: ra = 46, jump @21\n      : @82 [@dyn 23] (gas: 10)\n  2250: a2 = s1 + 0x7ff\n  2254: a2 = a2 + 0xb9\n  2258: a1 = u64 [a2 + 0x48]\n  2261: u64 [s1 + 0x118] = a1\n  2265: a0 = u64 [a2 + 0x50]\n  2268: u64 [s1 + 0x110] = a0\n  2272: a0 = u64 [a2 + 0x58]\n  2275: u64 [s1 + 0x108] = a0\n  2279: a1 = u64 [a2 + 0x60]\n  2282: t0 = 48, jump @802\n      : @83 [@dyn 24] (gas: 19)\n  2287: t0 = a2 | a3\n  2290: a2 = a5 >> 0x3d\n  2293: a3 = u64 [s1 + 0xf8]\n  2297: a3 = a3 << 0x3\n  2300: a2 = a2 | a3\n  2303: t2 = t2 << 0x3\n  2306: u64 [s1 + 0xf8] = t2\n  2310: a3 = t1 >u 0\n  2312: a4 = t2 <u 0x100\n  2316: a5 = a4 ^ 0x1\n  2319: a5 = a3 if t1 != 0\n  2322: a4 = a2 >u 0\n  2324: a3 = t0 >u 0\n  2326: a3 = a4 if a2 != 0\n  2329: a2 = t0 | a2\n  2332: a5 = a3 if a2 != 0\n  2335: u64 [s1 + 0xc8] = a5\n  2339: i32 a2 = t2 + 0xffffffffffffff80\n  2342: ra = 50, jump @820\n      : @84 [@dyn 25] (gas: 1)\n  2347: t0 = 52, jump @816\n      : @85 [@dyn 26] (gas: 1)\n  2352: ra = 54, jump @820\n      : @86 [@dyn 27] (gas: 1)\n  2357: t0 = 56, jump @810\n      : @87 [@dyn 28] (gas: 1)\n  2362: ra = 58, jump @825\n      : @88 [@dyn 29] (gas: 1)\n  2367: t0 = 60, jump @788\n      : @89 [@dyn 30] (gas: 1)\n  2372: ra = 62, jump @820\n      : @90 [@dyn 31] (gas: 1)\n  2377: t0 = 64, jump @796\n      : @91 [@dyn 32] (gas: 13)\n  2382: a2 = s1 + 0x7ff\n  2386: a2 = a2 + 0xb9\n  2390: u64 [a2] = a1\n  2392: u64 [a2 + 0xfffffffffffffff8] = a0\n  2395: a0 = s1 + 0x1000\n  2399: u64 [a0 + 0xfffffffffffff8a8] = a3\n  2403: a0 = s1 + 0x7ff\n  2407: a0 = a0 + 0xc1\n  2411: a1 = s1 + 0x7ff\n  2415: a1 = a1 + 0xa1\n  2419: a2 = s1 + 0x1000\n  2423: u64 [a2 + 0xfffffffffffff8a0] = a4\n  2427: ra = 66, jump @527\n      : @92 [@dyn 33] (gas: 19)\n  2432: a3 = s1 + 0x7ff\n  2436: a3 = a3 + 0xb9\n  2440: a2 = u64 [a3 + 0x8]\n  2443: a0 = u64 [a3 + 0x10]\n  2446: a1 = u64 [a3 + 0x18]\n  2449: a3 = u64 [a3 + 0x20]\n  2452: a4 = s1 + 0x1000\n  2456: u64 [a4 + 0xfffffffffffff878] = a3\n  2460: a3 = s1 + 0x1000\n  2464: u64 [a3 + 0xfffffffffffff870] = a1\n  2468: a1 = s1 + 0x1000\n  2472: u64 [a1 + 0xfffffffffffff868] = a0\n  2476: a0 = s1 + 0x7ff\n  2480: a0 = a0 + 0x81\n  2484: a1 = s1 + 0x7ff\n  2488: a1 = a1 + 0x61\n  2491: a3 = s1 + 0x1000\n  2495: u64 [a3 + 0xfffffffffffff860] = a2\n  2499: ra = 68, jump @683\n      : @93 [@dyn 34] (gas: 44)\n  2504: a0 = s1 + 0x1000\n  2508: a0 = u64 [a0 + 0xfffffffffffff898]\n  2512: a2 = s1 + 0x100\n  2516: u64 [a2 + 0x18] = a0\n  2519: a0 = s1 + 0x1000\n  2523: a0 = u64 [a0 + 0xfffffffffffff890]\n  2527: u64 [a2 + 0x10] = a0\n  2530: a0 = s1 + 0x1000\n  2534: a0 = u64 [a0 + 0xfffffffffffff888]\n  2538: u64 [a2 + 0x8] = a0\n  2541: a0 = s1 + 0x1000\n  2545: a0 = u64 [a0 + 0xfffffffffffff880]\n  2549: u64 [a2] = a0\n  2551: a0 = u64 [a2 + 0x28]\n  2554: a1 = s1 + 0x1000\n  2558: u64 [a1 + 0xfffffffffffff818] = a0\n  2562: a0 = u64 [a2 + 0x20]\n  2565: a1 = s1 + 0x1000\n  2569: u64 [a1 + 0xfffffffffffff810] = a0\n  2573: a0 = u64 [a2 + 0x30]\n  2576: a1 = s1 + 0x1000\n  2580: u64 [a1 + 0xfffffffffffff808] = a0\n  2584: a0 = u64 [a2 + 0x38]\n  2587: a1 = s1 + 0x1000\n  2591: u64 [a1 + 0xfffffffffffff800] = a0\n  2595: a0 = u64 [s1 + 0xd0]\n  2599: a1 = s1 + 0x1000\n  2603: u64 [a1 + 0xfffffffffffff838] = a0\n  2607: a0 = u64 [s1 + 0xd8]\n  2611: a1 = s1 + 0x1000\n  2615: u64 [a1 + 0xfffffffffffff830] = a0\n  2619: a0 = u64 [s1 + 0xe0]\n  2623: a1 = s1 + 0x1000\n  2627: u64 [a1 + 0xfffffffffffff828] = a0\n  2631: a0 = s1 + 0x7ff\n  2635: a0 = a0 + 0x41\n  2638: a1 = s1 + 0x7ff\n  2642: a1 = a1 + 0x21\n  2645: a2 = s1 + 0x7ff\n  2649: a2 = a2 + 0x1\n  2652: a3 = u64 [s1 + 0xe8]\n  2656: a4 = s1 + 0x1000\n  2660: u64 [a4 + 0xfffffffffffff820] = a3\n  2664: ra = 70, jump @754\n      : @94 [@dyn 35] (gas: 16)\n  2669: a0 = s1 + 0x1000\n  2673: a1 = u64 [a0 + 0xfffffffffffff858]\n  2677: a0 = s1 + 0x1000\n  2681: a2 = u64 [a0 + 0xfffffffffffff850]\n  2685: a0 = s1 + 0x1000\n  2689: a3 = u64 [a0 + 0xfffffffffffff848]\n  2693: a0 = s1 + 0x1000\n  2697: a0 = u64 [a0 + 0xfffffffffffff840]\n  2701: a1 = a1 | a3\n  2704: a3 = a0 | a2\n  2707: a3 = a3 | a1\n  2710: a3 = a3 >> 0x20\n  2713: a1 = a1 | a2\n  2716: a1 = a1 << 0x20\n  2719: a1 = a1 | a3\n  2722: jump @96 if a1 == 0\n      : @95 (gas: 1)\n  2725: jump @415\n      : @96 (gas: 10)\n  2728: a1 = u64 [s1 + 0x100]\n  2732: u64 [s1 + 0x7e0] = a1\n  2736: a1 = u64 [s1 + 0x108]\n  2740: u64 [s1 + 0x7e8] = a1\n  2744: a1 = u64 [s1 + 0x110]\n  2748: u64 [s1 + 0x7f0] = a1\n  2752: a1 = s1 + 0x7e0\n  2756: a2 = u64 [s1 + 0x118]\n  2760: u64 [s1 + 0x7f8] = a2\n  2764: ra = 72, jump @19\n      : @97 [@dyn 36] (gas: 21)\n  2769: a0 = u64 [s1 + 0x128]\n  2773: a4 = s1 + 0x700\n  2777: u64 [a4 + 0x98] = a0\n  2781: a0 = u64 [s1 + 0x120]\n  2785: u64 [a4 + 0x90] = a0\n  2789: a0 = u64 [s1 + 0x130]\n  2793: u64 [a4 + 0x88] = a0\n  2797: a0 = u64 [s1 + 0x138]\n  2801: u64 [a4 + 0x80] = a0\n  2805: a0 = u64 [s1 + 0xd0]\n  2809: u64 [a4 + 0xb8] = a0\n  2813: a0 = u64 [s1 + 0xd8]\n  2817: u64 [a4 + 0xb0] = a0\n  2821: a0 = u64 [s1 + 0xe0]\n  2825: u64 [a4 + 0xa8] = a0\n  2829: a0 = s1 + 0x7c0\n  2833: a1 = s1 + 0x7a0\n  2837: a2 = s1 + 0x780\n  2841: a3 = u64 [s1 + 0xe8]\n  2845: u64 [a4 + 0xa0] = a3\n  2849: ra = 74, jump @754\n      : @98 [@dyn 37] (gas: 16)\n  2854: t2 = u64 [s1 + 0x128]\n  2858: t1 = u64 [s1 + 0x130]\n  2862: t0 = u64 [s1 + 0x138]\n  2866: t0 = t0 + 0x1\n  2869: a0 = t0 <u 0x1\n  2872: t1 = t1 + a0\n  2875: a0 = t0 | t1\n  2878: a0 = a0 <u 0x1\n  2881: a1 = u64 [s1 + 0x120]\n  2885: a0 = a0 + a1\n  2888: a1 = a0 <u a1\n  2891: t2 = t2 + a1\n  2894: ra = a0\n  2896: a4 = s1 + 0x7ff\n  2900: a4 = a4 + 0xb9\n  2904: jump @78\n      : @99 (gas: 8)\n  2907: u64 [a2 + 224] = 0\n  2911: u64 [a2 + 216] = 0\n  2915: u64 [a2 + 208] = 0\n  2919: u64 [a2 + 200] = 0\n  2923: a0 = s1 + 0x2000\n  2927: i32 a0 = a0 + 0xfffffffffffff9a0\n  2931: ecalli 11 // 'value_transferred'\n  2933: fallthrough\n      : @100 (gas: 9)\n  2934: a3 = s1 + 0x18d8\n  2938: a0 = u64 [a3 + 0xd8]\n  2942: a1 = u64 [a3 + 0xe0]\n  2946: a2 = u64 [a3 + 0xd0]\n  2950: a3 = u64 [a3 + 0xc8]\n  2954: a1 = a1 | a2\n  2957: a0 = a0 | a3\n  2960: a0 = a0 | a1\n  2963: jump @102 if a0 == 0\n      : @101 (gas: 1)\n  2966: jump @478\n      : @102 (gas: 3)\n  2969: a0 = u64 [s1 + 0x138]\n  2973: a0 = i32 [a0]\n  2975: jump @104 if a0 >u 35\n      : @103 (gas: 1)\n  2979: jump @479\n      : @104 (gas: 20)\n  2982: a0 = s1 + 0x2000\n  2986: i32 a0 = a0 + 0xfffffffffffff9c0\n  2990: a1 = 0x4\n  2993: ecalli 1 // 'call_data_load'\n  2995: a0 = s1 + 0x18d8\n  2999: a1 = u64 [a0 + 0x100]\n  3003: u64 [s1 + 0x130] = a1\n  3007: a1 = u64 [a0 + 0xf8]\n  3011: u64 [s1 + 0x138] = a1\n  3015: a1 = u64 [a0 + 0xf0]\n  3019: u64 [s1 + 0x128] = a1\n  3023: a1 = u64 [a0 + 0xe8]\n  3027: u64 [s1 + 0x120] = a1\n  3031: u64 [a0 + 288] = 0\n  3035: u64 [a0 + 280] = 0\n  3039: u64 [a0 + 272] = 0\n  3043: u64 [a0 + 264] = 0\n  3047: a0 = s1 + 0x400\n  3051: a1 = s1 + 0x19e0\n  3055: ra = 76, jump @21\n      : @105 [@dyn 38] (gas: 21)\n  3060: t2 = u64 [s1 + 0x130]\n  3064: t1 = u64 [s1 + 0x128]\n  3068: t0 = u64 [s1 + 0x120]\n  3072: a2 = s1 + 0x400\n  3076: a0 = u64 [a2 + 0x18]\n  3079: a1 = u64 [a2]\n  3081: ra = u64 [s1 + 0x410]\n  3085: a3 = u64 [a2 + 0x8]\n  3088: a4 = t2 ^ a0\n  3091: a0 = t2 <u a0\n  3094: a2 = u64 [s1 + 0x138]\n  3098: a5 = a2 <u ra\n  3101: a5 = a0 if a4 != 0\n  3104: a0 = t1 ^ a3\n  3107: a3 = t1 <u a3\n  3110: a1 = t0 <u a1\n  3113: a1 = a3 if a0 != 0\n  3116: a0 = a2 ^ ra\n  3119: a0 = a0 | a4\n  3122: a1 = a5 if a0 != 0\n  3125: jump @107 if a1 != 0\n      : @106 (gas: 1)\n  3128: jump @480\n      : @107 (gas: 11)\n  3131: a0 = sp + 0xffffffffffffffe0\n  3134: a0 = a0 & 0xffffffffffffffe0\n  3137: u64 [s1 + 0x118] = a0\n  3141: sp = a0\n  3143: u64 [s1 + 0x3b8] = t2\n  3147: u64 [s1 + 0x3b0] = a2\n  3151: u64 [s1 + 0x3a8] = t1\n  3155: a0 = s1 + 0x3c0\n  3159: a1 = s1 + 0x3a0\n  3163: u64 [s1 + 0x3a0] = t0\n  3167: ra = 78, jump @527\n      : @108 [@dyn 39] (gas: 16)\n  3172: a3 = u64 [s1 + 0x3d0]\n  3176: u64 [s1 + 0x120] = a3\n  3180: a0 = u64 [s1 + 0x3d8]\n  3184: u64 [s1 + 0x138] = a0\n  3188: a2 = u64 [s1 + 0x3c0]\n  3192: u64 [s1 + 0x128] = a2\n  3196: a1 = u64 [s1 + 0x3c8]\n  3200: u64 [s1 + 0x130] = a1\n  3204: a4 = u64 [s1 + 0x118]\n  3208: u64 [a4 + 0x10] = a3\n  3211: u64 [a4 + 0x18] = a0\n  3214: u64 [a4] = a2\n  3216: u64 [a4 + 0x8] = a1\n  3219: a1 = a4\n  3221: a0 = s1 + 0x380\n  3225: ra = 80, jump @21\n      : @109 [@dyn 40] (gas: 29)\n  3230: a0 = u64 [s1 + 0x398]\n  3234: u64 [s1 + 0x118] = a0\n  3238: a0 = u64 [s1 + 0x390]\n  3242: u64 [s1 + 0x110] = a0\n  3246: a0 = u64 [s1 + 0x388]\n  3250: u64 [s1 + 0x108] = a0\n  3254: a0 = u64 [s1 + 0x380]\n  3258: u64 [s1 + 0x100] = a0\n  3262: a0 = u64 [s1 + 0x128]\n  3266: a0 = a0 + 0x1\n  3269: a1 = a0 <u 0x1\n  3272: a2 = u64 [s1 + 0x130]\n  3276: a1 = a1 + a2\n  3279: a2 = s1 + 0x18d8\n  3283: a3 = a2 + 0x100\n  3287: u64 [a3 + 0x30] = a1\n  3290: a1 = a1 | a0\n  3293: u64 [a3 + 0x28] = a0\n  3296: a0 = a1 <u 0x1\n  3299: a1 = u64 [s1 + 0x120]\n  3303: a0 = a0 + a1\n  3306: u64 [a3 + 0x38] = a0\n  3309: a0 = a0 <u a1\n  3312: a1 = u64 [s1 + 0x138]\n  3316: a0 = a0 + a1\n  3319: u64 [a3 + 0x40] = a0\n  3322: a0 = s1 + 0x360\n  3326: a1 = s1 + 0x1a00\n  3330: ra = 82, jump @21\n      : @110 [@dyn 41] (gas: 9)\n  3335: a0 = u32 [s1 + 0x370]\n  3339: u64 [s1 + 0xf8] = a0\n  3343: a0 = u64 [s1 + 0x368]\n  3347: u64 [s1 + 0xf0] = a0\n  3351: a0 = u64 [s1 + 0x360]\n  3355: u64 [s1 + 0xe8] = a0\n  3359: a1 = u64 [s1 + 0x128]\n  3363: a0 = a1 + 0x2\n  3366: t0 = 84, jump @785\n      : @111 [@dyn 42] (gas: 7)\n  3371: u64 [a5 + 0x60] = a1\n  3374: u64 [a5 + 0x58] = a3\n  3377: u64 [a5 + 0x50] = a2\n  3380: u64 [a5 + 0x48] = a0\n  3383: a0 = s1 + 0x340\n  3387: a1 = s1 + 0x1a20\n  3391: ra = 86, jump @21\n      : @112 [@dyn 43] (gas: 9)\n  3396: a0 = u32 [s1 + 0x350]\n  3400: u64 [s1 + 0xe0] = a0\n  3404: a0 = u64 [s1 + 0x348]\n  3408: u64 [s1 + 0xd8] = a0\n  3412: a0 = u64 [s1 + 0x340]\n  3416: u64 [s1 + 0xd0] = a0\n  3420: a1 = u64 [s1 + 0x128]\n  3424: a0 = a1 + 0x3\n  3427: t0 = 88, jump @785\n      : @113 [@dyn 44] (gas: 7)\n  3432: u64 [a5 + 0x80] = a1\n  3436: u64 [a5 + 0x78] = a3\n  3439: u64 [a5 + 0x70] = a2\n  3442: u64 [a5 + 0x68] = a0\n  3445: a0 = s1 + 0x320\n  3449: a1 = s1 + 0x1a40\n  3453: ra = 90, jump @21\n      : @114 [@dyn 45] (gas: 12)\n  3458: a1 = s1 + 0x300\n  3462: a0 = u64 [a1 + 0x38]\n  3465: u64 [s1 + 0xc8] = a0\n  3469: a0 = u64 [a1 + 0x30]\n  3472: u64 [s1 + 0xc0] = a0\n  3476: a0 = u64 [a1 + 0x28]\n  3479: u64 [s1 + 0xb8] = a0\n  3483: a0 = u64 [a1 + 0x20]\n  3486: u64 [s1 + 0xb0] = a0\n  3490: a1 = u64 [s1 + 0x128]\n  3494: a0 = a1 + 0x4\n  3497: t0 = 92, jump @785\n      : @115 [@dyn 46] (gas: 7)\n  3502: u64 [a5 + 0xa0] = a1\n  3506: u64 [a5 + 0x98] = a3\n  3510: u64 [a5 + 0x90] = a2\n  3514: u64 [a5 + 0x88] = a0\n  3518: a0 = s1 + 0x300\n  3522: a1 = s1 + 0x1a60\n  3526: ra = 94, jump @21\n      : @116 [@dyn 47] (gas: 5)\n  3531: a0 = u8 [s1 + 0x300]\n  3535: u64 [s1 + 0xa8] = a0\n  3539: a1 = u64 [s1 + 0x128]\n  3543: a0 = a1 + 0x5\n  3546: t0 = 96, jump @785\n      : @117 [@dyn 48] (gas: 7)\n  3551: u64 [a5 + 0xc0] = a1\n  3555: u64 [a5 + 0xb8] = a3\n  3559: u64 [a5 + 0xb0] = a2\n  3563: u64 [a5 + 0xa8] = a0\n  3567: a0 = s1 + 0x2e0\n  3571: a1 = s1 + 0x1a80\n  3575: ra = 98, jump @21\n      : @118 [@dyn 49] (gas: 28)\n  3580: a0 = u64 [s1 + 0x2f8]\n  3584: u64 [s1 + 0xa0] = a0\n  3588: a0 = u64 [s1 + 0x2f0]\n  3592: u64 [s1 + 0x98] = a0\n  3596: a0 = u64 [s1 + 0x2e8]\n  3600: u64 [s1 + 0x90] = a0\n  3604: a0 = u64 [s1 + 0x2e0]\n  3608: u64 [s1 + 0x88] = a0\n  3612: a5 = s1 + 0x100\n  3616: a0 = u64 [a5 + 0x28]\n  3619: a2 = a0 + 0x6\n  3622: a0 = a2 <u a0\n  3625: a3 = u64 [a5 + 0x30]\n  3628: a1 = a3 + a0\n  3631: a3 = a1 <u a3\n  3634: a3 = a0 if a0 == 0\n  3637: a0 = u64 [a5 + 0x20]\n  3640: a3 = a3 + a0\n  3643: a0 = a3 <u a0\n  3646: a4 = u64 [a5 + 0x38]\n  3649: a0 = a0 + a4\n  3652: u64 [s1 + 0x2b8] = a0\n  3656: u64 [s1 + 0x2b0] = a3\n  3660: u64 [s1 + 0x2a8] = a1\n  3664: a0 = s1 + 0x2c0\n  3668: a1 = s1 + 0x2a0\n  3672: u64 [s1 + 0x2a0] = a2\n  3676: ra = 100, jump @565\n      : @119 [@dyn 50] (gas: 11)\n  3681: a0 = u64 [s1 + 0x2d8]\n  3685: u64 [s1 + 0x68] = a0\n  3688: a0 = u64 [s1 + 0x2d0]\n  3692: u64 [s1 + 0x70] = a0\n  3695: a0 = u64 [s1 + 0x2c8]\n  3699: u64 [s1 + 0x78] = a0\n  3702: a0 = u64 [s1 + 0x2c0]\n  3706: u64 [s1 + 0x80] = a0\n  3710: a0 = s1 + 0x280\n  3714: a1 = 0x40\n  3717: ra = 102, jump @17\n      : @120 [@dyn 51] (gas: 7)\n  3722: a1 = s1 + 0x200\n  3726: a4 = u64 [a1 + 0x98]\n  3730: a5 = u64 [a1 + 0x90]\n  3734: a3 = u64 [a1 + 0x88]\n  3738: a0 = u64 [a1 + 0x80]\n  3742: a2 = a3 | a4\n  3745: t0 = 104, jump @818\n      : @121 [@dyn 52] (gas: 1)\n  3750: jump @123 if a1 == 0\n      : @122 (gas: 1)\n  3753: jump @415\n      : @123 (gas: 14)\n  3756: a1 = u64 [s1 + 0x100]\n  3760: u64 [s1 + 0x260] = a1\n  3764: a1 = u64 [s1 + 0x108]\n  3768: u64 [s1 + 0x268] = a1\n  3772: a1 = u64 [s1 + 0x110]\n  3776: u64 [s1 + 0x270] = a1\n  3780: a1 = s1 + 0x260\n  3784: a2 = u64 [s1 + 0x118]\n  3788: u64 [s1 + 0x278] = a2\n  3792: u64 [s1 + 0x138] = a0\n  3796: u64 [s1 + 0x130] = a3\n  3800: u64 [s1 + 0x128] = a4\n  3804: u64 [s1 + 0x120] = a5\n  3808: ra = 106, jump @19\n      : @124 [@dyn 53] (gas: 8)\n  3813: a5 = s1 + 0x100\n  3817: a1 = u64 [a5 + 0x38]\n  3820: a0 = u64 [a5 + 0x28]\n  3823: a2 = u64 [a5 + 0x20]\n  3826: a3 = a2 | a0\n  3829: a4 = 0x100000000\n  3839: a0 = 0xffffffe0\n  3849: t0 = 108, jump @815\n      : @125 [@dyn 54] (gas: 1)\n  3854: jump @127 if a0 != 0\n      : @126 (gas: 1)\n  3857: jump @415\n      : @127 (gas: 13)\n  3860: i32 a0 = a1 + 0x20\n  3863: u64 [s1 + 600] = 0\n  3867: a1 = u64 [s1 + 0xe8]\n  3871: a5 = s1 + 0x200\n  3875: u64 [a5 + 0x40] = a1\n  3878: a1 = u64 [s1 + 0xf0]\n  3882: u64 [a5 + 0x48] = a1\n  3885: a1 = s1 + 0x240\n  3889: a2 = u64 [s1 + 0xf8]\n  3893: u64 [a5 + 0x50] = a2\n  3896: u64 [s1 + 0x118] = a3\n  3900: u64 [s1 + 0x110] = a4\n  3904: ra = 110, jump @19\n      : @128 [@dyn 55] (gas: 10)\n  3909: a3 = s1 + 0x100\n  3913: a1 = u64 [a3 + 0x38]\n  3916: a0 = u64 [a3 + 0x10]\n  3919: a0 = a0 + 0xffffffffffffffc0\n  3922: a0 = a1 <u a0\n  3925: a2 = u64 [a3 + 0x30]\n  3928: a0 = 0 if a2 != 0\n  3930: a2 = u64 [a3 + 0x18]\n  3933: a0 = 0 if a2 != 0\n  3935: jump @130 if a0 != 0\n      : @129 (gas: 1)\n  3938: jump @415\n      : @130 (gas: 11)\n  3941: i32 a0 = a1 + 0x40\n  3944: u64 [s1 + 568] = 0\n  3948: a1 = u64 [s1 + 0xd0]\n  3952: a3 = s1 + 0x200\n  3956: u64 [a3 + 0x20] = a1\n  3959: a1 = u64 [s1 + 0xd8]\n  3963: u64 [a3 + 0x28] = a1\n  3966: a1 = s1 + 0x220\n  3970: a2 = u64 [s1 + 0xe0]\n  3974: u64 [a3 + 0x30] = a2\n  3977: ra = 112, jump @19\n      : @131 [@dyn 56] (gas: 10)\n  3982: a4 = s1 + 0x100\n  3986: a1 = u64 [a4 + 0x38]\n  3989: a3 = 0x100000000\n  3999: a0 = 0xffffffa0\n  4009: a0 = a1 <u a0\n  4012: a2 = u64 [a4 + 0x30]\n  4015: a0 = 0 if a2 != 0\n  4017: a2 = u64 [a4 + 0x18]\n  4020: a0 = 0 if a2 != 0\n  4022: jump @133 if a0 != 0\n      : @132 (gas: 1)\n  4025: jump @415\n      : @133 (gas: 13)\n  4028: i32 a0 = a1 + 0x60\n  4031: a1 = u64 [s1 + 0xb0]\n  4035: a4 = s1 + 0x200\n  4039: u64 [a4] = a1\n  4041: a1 = u64 [s1 + 0xb8]\n  4045: u64 [a4 + 0x8] = a1\n  4048: a1 = u64 [s1 + 0xc0]\n  4052: u64 [a4 + 0x10] = a1\n  4055: a1 = s1 + 0x200\n  4059: a2 = u64 [s1 + 0xc8]\n  4063: u64 [a4 + 0x18] = a2\n  4066: u64 [s1 + 0x110] = a3\n  4070: ra = 114, jump @19\n      : @134 [@dyn 57] (gas: 10)\n  4075: a3 = s1 + 0x100\n  4079: a2 = u64 [a3 + 0x38]\n  4082: a0 = u64 [a3 + 0x10]\n  4085: a0 = a0 + 0xffffffffffffff80\n  4088: a0 = a2 <u a0\n  4091: a1 = u64 [a3 + 0x30]\n  4094: a0 = 0 if a1 != 0\n  4096: a1 = u64 [a3 + 0x18]\n  4099: a0 = 0 if a1 != 0\n  4101: jump @136 if a0 != 0\n      : @135 (gas: 1)\n  4104: jump @415\n      : @136 (gas: 9)\n  4107: a0 = u64 [s1 + 0xa8]\n  4111: a1 = a0 >u 0\n  4113: i32 a0 = a2 + 0x80\n  4117: u64 [s1 + 504] = 0\n  4121: u64 [s1 + 496] = 0\n  4125: u64 [s1 + 0x1e0] = a1\n  4129: a1 = s1 + 0x1e0\n  4133: u64 [s1 + 488] = 0\n  4137: ra = 116, jump @19\n      : @137 [@dyn 58] (gas: 6)\n  4142: a5 = s1 + 0x100\n  4146: a3 = u64 [a5 + 0x18]\n  4149: a1 = u64 [a5 + 0x38]\n  4152: a4 = 0x100000000\n  4162: a0 = 0xffffff60\n  4172: t0 = 118, jump @815\n      : @138 [@dyn 59] (gas: 1)\n  4177: jump @140 if a0 != 0\n      : @139 (gas: 1)\n  4180: jump @415\n      : @140 (gas: 12)\n  4183: i32 a0 = a1 + 0xa0\n  4187: a1 = u64 [s1 + 0x88]\n  4191: u64 [s1 + 0x1c0] = a1\n  4195: a1 = u64 [s1 + 0x90]\n  4199: u64 [s1 + 0x1c8] = a1\n  4203: a1 = u64 [s1 + 0x98]\n  4207: u64 [s1 + 0x1d0] = a1\n  4211: a1 = s1 + 0x1c0\n  4215: a2 = u64 [s1 + 0xa0]\n  4219: u64 [s1 + 0x1d8] = a2\n  4223: u64 [s1 + 0x110] = a4\n  4227: ra = 120, jump @19\n      : @141 [@dyn 60] (gas: 10)\n  4232: a4 = s1 + 0x100\n  4236: a2 = u64 [a4 + 0x30]\n  4239: a1 = u64 [a4 + 0x38]\n  4242: a0 = u64 [a4 + 0x10]\n  4245: a0 = a0 + 0xffffffffffffff40\n  4249: a0 = a1 <u a0\n  4252: a0 = 0 if a2 != 0\n  4254: a3 = u64 [a4 + 0x18]\n  4257: a0 = 0 if a3 != 0\n  4259: jump @143 if a0 != 0\n      : @142 (gas: 1)\n  4262: jump @415\n      : @143 (gas: 7)\n  4265: i32 a0 = a1 + 0xc0\n  4269: u64 [s1 + 440] = 0\n  4273: u64 [s1 + 432] = 0\n  4277: u64 [s1 + 416] = 0xe0\n  4283: a1 = s1 + 0x1a0\n  4287: u64 [s1 + 424] = 0\n  4291: ra = 122, jump @19\n      : @144 [@dyn 61] (gas: 4)\n  4296: a0 = u64 [s1 + 0x138]\n  4300: a0 = a0 + 0xe0\n  4304: a1 = u64 [s1 + 0x138]\n  4308: t0 = 124, jump @798\n      : @145 [@dyn 62] (gas: 16)\n  4313: u64 [s1 + 0x148] = a2\n  4317: u64 [s1 + 0x140] = a0\n  4321: a0 = u64 [s1 + 0x68]\n  4324: u64 [s1 + 0x178] = a0\n  4328: a0 = u64 [s1 + 0x70]\n  4331: u64 [s1 + 0x170] = a0\n  4335: a0 = u64 [s1 + 0x78]\n  4338: u64 [s1 + 0x168] = a0\n  4342: a0 = u64 [s1 + 0x80]\n  4346: u64 [s1 + 0x160] = a0\n  4350: u64 [s1 + 0x150] = a3\n  4354: a0 = s1 + 0x180\n  4358: a1 = s1 + 0x160\n  4362: a2 = s1 + 0x140\n  4366: u64 [s1 + 0x158] = a4\n  4370: ra = 126, jump @588\n      : @146 [@dyn 63] (gas: 32)\n  4375: a1 = u64 [s1 + 0x188]\n  4379: t0 = u64 [s1 + 0x198]\n  4383: t1 = u64 [s1 + 0x180]\n  4387: a3 = u64 [s1 + 0x190]\n  4391: a0 = u64 [s1 + 0x130]\n  4395: a4 = a1 ^ a0\n  4398: a5 = a1 <u a0\n  4401: ra = a0\n  4403: a0 = u64 [s1 + 0x138]\n  4407: t2 = t1 <u a0\n  4410: a5 = t2 if a4 == 0\n  4413: a0 = u64 [s1 + 0x120]\n  4417: a4 = a3 - a0\n  4420: a3 = a3 <u a0\n  4423: a0 = u64 [s1 + 0x128]\n  4427: a2 = t0 - a0\n  4430: a2 = a2 - a3\n  4433: a3 = a4 <u a5\n  4436: a2 = a2 - a3\n  4439: a0 = u64 [s1 + 0x138]\n  4443: a4 = a4 - a5\n  4446: a1 = a1 - ra\n  4449: a3 = a1 - t2\n  4452: a1 = t1 - a0\n  4455: a2 = a2 | a3\n  4458: a3 = a1 | a4\n  4461: a3 = a3 | a2\n  4464: a2 = a2 | a4\n  4467: a3 = a3 >> 0x20\n  4470: a2 = a2 << 0x20\n  4473: a2 = a2 | a3\n  4476: jump @507 if a2 == 0\n      : @147 (gas: 1)\n  4480: jump @415\n      : @148 (gas: 8)\n  4483: u64 [a2 + 608] = 0\n  4487: u64 [a2 + 600] = 0\n  4491: u64 [a2 + 592] = 0\n  4495: u64 [a2 + 584] = 0\n  4499: a0 = s1 + 0x2000\n  4503: i32 a0 = a0 + 0xfffffffffffffb20\n  4507: ecalli 11 // 'value_transferred'\n  4509: fallthrough\n      : @149 (gas: 10)\n  4510: a3 = s1 + 0x18d8\n  4514: a4 = a3 + 0x200\n  4518: a0 = u64 [a4 + 0x58]\n  4521: a1 = u64 [a4 + 0x60]\n  4524: a2 = u64 [a4 + 0x50]\n  4527: a3 = u64 [a4 + 0x48]\n  4530: a1 = a1 | a2\n  4533: a0 = a0 | a3\n  4536: a0 = a0 | a1\n  4539: jump @151 if a0 == 0\n      : @150 (gas: 1)\n  4542: jump @481\n      : @151 (gas: 3)\n  4545: a0 = u64 [s1 + 0x138]\n  4549: a0 = i32 [a0]\n  4551: jump @153 if a0 >u 3\n      : @152 (gas: 1)\n  4555: jump @482\n      : @153 (gas: 8)\n  4558: a0 = s1 + 0x18d8\n  4562: u64 [a0 + 640] = 0\n  4566: u64 [a0 + 632] = 0\n  4570: u64 [a0 + 624] = 0\n  4574: u64 [a0 + 616] = 0\n  4578: a0 = s1 + 0x760\n  4582: a1 = s1 + 0x1b40\n  4586: ra = 128, jump @21\n      : @154 [@dyn 64] (gas: 15)\n  4592: a0 = u64 [s1 + 0x778]\n  4596: a1 = u64 [s1 + 0x770]\n  4600: a2 = u64 [s1 + 0x768]\n  4604: a3 = u64 [s1 + 0x760]\n  4608: u64 [s1 + 0xc0] = a0\n  4612: u64 [s1 + 0x738] = a0\n  4616: u64 [s1 + 0xb8] = a1\n  4620: u64 [s1 + 0x730] = a1\n  4624: u64 [s1 + 0xb0] = a2\n  4628: u64 [s1 + 0x728] = a2\n  4632: a0 = s1 + 0x740\n  4636: a1 = s1 + 0x720\n  4640: u64 [s1 + 0xa8] = a3\n  4644: u64 [s1 + 0x720] = a3\n  4648: ra = 130, jump @675\n      : @155 [@dyn 65] (gas: 11)\n  4654: a0 = u64 [s1 + 0x740]\n  4658: u64 [s1 + 0x138] = a0\n  4662: a0 = u64 [s1 + 0x748]\n  4666: u64 [s1 + 0x130] = a0\n  4670: a0 = u64 [s1 + 0x750]\n  4674: u64 [s1 + 0x128] = a0\n  4678: a0 = u64 [s1 + 0x758]\n  4682: u64 [s1 + 0x120] = a0\n  4686: a0 = s1 + 0x700\n  4690: a1 = 0x40\n  4693: ra = 132, jump @17\n      : @156 [@dyn 66] (gas: 26)\n  4699: a0 = s1 + 0x700\n  4703: a1 = u64 [a0 + 0x18]\n  4706: u64 [s1 + 0x80] = a1\n  4710: a2 = u64 [a0 + 0x10]\n  4713: u64 [s1 + 0x88] = a2\n  4717: a3 = u64 [a0 + 0x8]\n  4720: u64 [s1 + 0x90] = a3\n  4724: a4 = u64 [a0]\n  4726: u64 [s1 + 0x98] = a4\n  4730: a5 = s1 + 0x100\n  4734: a0 = u64 [a5 + 0x20]\n  4737: u64 [s1 + 0x6d8] = a0\n  4741: a0 = u64 [a5 + 0x28]\n  4744: u64 [s1 + 0x6d0] = a0\n  4748: a0 = u64 [a5 + 0x30]\n  4751: u64 [s1 + 0x6c8] = a0\n  4755: a0 = u64 [a5 + 0x38]\n  4758: a5 = s1 + 0x600\n  4762: u64 [a5 + 0xc0] = a0\n  4766: u64 [a5 + 0xf8] = a1\n  4770: u64 [a5 + 0xf0] = a2\n  4774: u64 [a5 + 0xe8] = a3\n  4778: a0 = s1 + 0x6e0\n  4782: a1 = s1 + 0x6c0\n  4786: u64 [a5 + 0xe0] = a4\n  4790: ra = 134, jump @556\n      : @157 [@dyn 67] (gas: 12)\n  4796: a2 = u64 [s1 + 0x80]\n  4800: a4 = u64 [s1 + 0x88]\n  4804: a1 = u64 [s1 + 0x90]\n  4808: a0 = u64 [s1 + 0x98]\n  4812: a2 = a2 | a1\n  4815: a1 = a0 | a4\n  4818: a1 = a1 | a2\n  4821: a1 = a1 >> 0x20\n  4824: a2 = a2 | a4\n  4827: a2 = a2 << 0x20\n  4830: a1 = a1 | a2\n  4833: jump @159 if a1 == 0\n      : @158 (gas: 1)\n  4836: jump @415\n      : @159 (gas: 11)\n  4839: a1 = u64 [s1 + 0xa8]\n  4843: a3 = s1 + 0x600\n  4847: u64 [a3 + 0xa0] = a1\n  4851: a1 = u64 [s1 + 0xb0]\n  4855: u64 [a3 + 0xa8] = a1\n  4859: a1 = u64 [s1 + 0xb8]\n  4863: u64 [a3 + 0xb0] = a1\n  4867: a1 = s1 + 0x6a0\n  4871: a2 = u64 [s1 + 0xc0]\n  4875: u64 [a3 + 0xb8] = a2\n  4879: ra = 136, jump @19\n      : @160 [@dyn 68] (gas: 7)\n  4885: u64 [s1 + 1688] = 0\n  4889: u64 [s1 + 1680] = 0\n  4893: u64 [s1 + 1672] = 0\n  4897: a1 = s1 + 0x680\n  4901: u64 [s1 + 1664] = 0\n  4905: a0 = 0\n  4907: ra = 138, jump @19\n      : @161 [@dyn 69] (gas: 23)\n  4913: t0 = 0\n  4915: a5 = 0\n  4917: ra = 0\n  4919: t1 = 0\n  4921: t2 = u64 [0x20020]\n  4926: a0 = u64 [0x20028]\n  4931: a1 = s1 + 0x100\n  4935: u64 [a1 + 0x38] = a0\n  4938: a0 = u64 [0x20030]\n  4943: u64 [a1 + 0x30] = a0\n  4946: a0 = u64 [0x20038]\n  4951: u64 [a1 + 0x28] = a0\n  4954: a0 = 0xffffffe0\n  4964: u64 [s1 + 0xa0] = a0\n  4968: a0 = u64 [s1 + 0x98]\n  4972: u64 [a1 + 0x10] = a0\n  4975: a0 = u64 [s1 + 0x90]\n  4979: u64 [a1 + 0x8] = a0\n  4982: a0 = u64 [s1 + 0x88]\n  4986: u64 [a1 + 0x18] = a0\n  4989: a0 = u64 [s1 + 0x80]\n  4993: u64 [a1 + 0x20] = a0\n  4996: fallthrough\n      : @162 (gas: 16)\n  4997: a0 = u64 [s1 + 0xa8]\n  5001: a0 = t0 <u a0\n  5004: a2 = u64 [s1 + 0xb0]\n  5008: a1 = a5 ^ a2\n  5011: a2 = a5 <u a2\n  5014: a2 = a0 if a1 == 0\n  5017: a4 = u64 [s1 + 0xb8]\n  5021: a0 = ra <u a4\n  5024: a3 = u64 [s1 + 0xc0]\n  5028: a1 = t1 ^ a3\n  5031: a3 = t1 <u a3\n  5034: a3 = a0 if a1 == 0\n  5037: a0 = ra ^ a4\n  5040: a0 = a0 | a1\n  5043: a3 = a2 if a0 == 0\n  5046: jump @164 if a3 != 0\n      : @163 (gas: 1)\n  5049: jump @409\n      : @164 (gas: 16)\n  5052: u64 [s1 + 0xe8] = ra\n  5056: u64 [s1 + 0xf0] = t1\n  5060: u64 [s1 + 0xf8] = a5\n  5064: u64 [s1 + 0x100] = t0\n  5068: a0 = u64 [s1 + 0x128]\n  5072: a1 = s1 + 0x500\n  5076: u64 [a1 + 0xc0] = a0\n  5080: a0 = u64 [s1 + 0x130]\n  5084: u64 [a1 + 0xc8] = a0\n  5088: a0 = u64 [s1 + 0x138]\n  5092: u64 [a1 + 0xd0] = a0\n  5096: a0 = s1 + 0x5e0\n  5100: a1 = s1 + 0x5c0\n  5104: u64 [s1 + 0x5d8] = t2\n  5108: u64 [s1 + 0xe0] = t2\n  5112: ra = 140, jump @683\n      : @165 [@dyn 70] (gas: 10)\n  5118: a5 = u64 [s1 + 0x120]\n  5122: a2 = u64 [s1 + 0x118]\n  5126: a0 = a2 | a5\n  5129: a1 = u64 [s1 + 0xa0]\n  5133: a3 = u64 [s1 + 0x110]\n  5137: a1 = a3 <u a1\n  5140: a4 = u64 [s1 + 0x108]\n  5144: a1 = 0 if a4 != 0\n  5146: a1 = 0 if a0 != 0\n  5148: jump @167 if a1 != 0\n      : @166 (gas: 1)\n  5151: jump @415\n      : @167 (gas: 23)\n  5154: a1 = a3 + 0x20\n  5157: t0 = a1 <u a3\n  5160: a0 = a1\n  5162: u64 [s1 + 0xc8] = a1\n  5166: a1 = a4 + t0\n  5169: u64 [s1 + 0xd8] = a1\n  5173: a1 = a1 <u a4\n  5176: a1 = t0 if t0 == 0\n  5179: t0 = u64 [s1 + 0x5f8]\n  5183: t1 = u64 [s1 + 0x5f0]\n  5187: t2 = u64 [s1 + 0x5e8]\n  5191: a4 = u64 [s1 + 0x5e0]\n  5195: a1 = a1 + a2\n  5198: u64 [s1 + 0xd0] = a1\n  5202: a1 = a1 <u a2\n  5205: a5 = a5 + a1\n  5208: u64 [s1 + 0x120] = a5\n  5212: u64 [s1 + 0x5a0] = a4\n  5216: u64 [s1 + 0x5a8] = t2\n  5220: u64 [s1 + 0x5b0] = t1\n  5224: a1 = s1 + 0x5a0\n  5228: u64 [s1 + 0x5b8] = t0\n  5232: ra = 142, jump @19\n      : @168 [@dyn 71] (gas: 36)\n  5238: a1 = u64 [s1 + 0x128]\n  5242: a0 = a1 + 0x7\n  5245: a1 = a0 <u a1\n  5248: a3 = u64 [s1 + 0x130]\n  5252: a2 = a3 + a1\n  5255: a3 = a2 <u a3\n  5258: a3 = a1 if a1 == 0\n  5261: a1 = u64 [s1 + 0x138]\n  5265: a3 = a3 + a1\n  5268: a1 = a3 <u a1\n  5271: t2 = u64 [s1 + 0xe0]\n  5275: t2 = t2 + a1\n  5278: t0 = u64 [s1 + 0x100]\n  5282: t0 = t0 + 0x1\n  5285: a1 = t0 <u 0x1\n  5288: a5 = u64 [s1 + 0xf8]\n  5292: a5 = a5 + a1\n  5295: a1 = t0 | a5\n  5298: a1 = a1 <u 0x1\n  5301: a4 = u64 [s1 + 0xe8]\n  5305: a1 = a1 + a4\n  5308: a4 = a1 <u a4\n  5311: t1 = u64 [s1 + 0xf0]\n  5315: t1 = t1 + a4\n  5318: a4 = u64 [s1 + 0xc8]\n  5322: u64 [s1 + 0x110] = a4\n  5326: a4 = u64 [s1 + 0xd8]\n  5330: u64 [s1 + 0x108] = a4\n  5334: a4 = u64 [s1 + 0xd0]\n  5338: u64 [s1 + 0x118] = a4\n  5342: a4 = s1 + 0x100\n  5346: u64 [a4 + 0x28] = a0\n  5349: u64 [a4 + 0x30] = a2\n  5352: u64 [a4 + 0x38] = a3\n  5355: ra = a1\n  5357: jump @162\n      : @169 (gas: 8)\n  5360: u64 [a2 + 480] = 0\n  5364: u64 [a2 + 472] = 0\n  5368: u64 [a2 + 464] = 0\n  5372: u64 [a2 + 456] = 0\n  5376: a0 = s1 + 0x2000\n  5380: i32 a0 = a0 + 0xfffffffffffffaa0\n  5384: ecalli 11 // 'value_transferred'\n  5386: fallthrough\n      : @170 (gas: 10)\n  5387: a3 = s1 + 0x18d8\n  5391: a4 = a3 + 0x100\n  5395: a0 = u64 [a4 + 0xd8]\n  5399: a1 = u64 [a4 + 0xe0]\n  5403: a2 = u64 [a4 + 0xd0]\n  5407: a3 = u64 [a4 + 0xc8]\n  5411: a1 = a1 | a2\n  5414: a0 = a0 | a3\n  5417: a0 = a0 | a1\n  5420: jump @172 if a0 == 0\n      : @171 (gas: 1)\n  5423: jump @483\n      : @172 (gas: 3)\n  5426: a0 = u64 [s1 + 0x138]\n  5430: a0 = i32 [a0]\n  5432: jump @174 if a0 >u 35\n      : @173 (gas: 1)\n  5436: jump @484\n      : @174 (gas: 21)\n  5439: a0 = s1 + 0x2000\n  5443: i32 a0 = a0 + 0xfffffffffffffac0\n  5447: a1 = 0x4\n  5450: ecalli 1 // 'call_data_load'\n  5452: a0 = s1 + 0x18d8\n  5456: a1 = u64 [a0 + 0x200]\n  5460: u64 [s1 + 0x120] = a1\n  5464: a2 = a0 + 0x100\n  5468: a1 = u64 [a2 + 0xf8]\n  5472: u64 [s1 + 0x128] = a1\n  5476: a1 = u64 [a2 + 0xf0]\n  5480: u64 [s1 + 0x130] = a1\n  5484: a1 = u64 [a2 + 0xe8]\n  5488: u64 [s1 + 0x138] = a1\n  5492: u64 [a0 + 544] = 0\n  5496: u64 [a0 + 536] = 0\n  5500: u64 [a0 + 528] = 0\n  5504: u64 [a0 + 520] = 0\n  5508: a0 = s1 + 0x580\n  5512: a1 = s1 + 0x1ae0\n  5516: ra = 144, jump @21\n      : @175 [@dyn 72] (gas: 22)\n  5522: a0 = u64 [s1 + 0x598]\n  5526: ra = u64 [s1 + 0x580]\n  5530: a2 = u64 [s1 + 0x590]\n  5534: t0 = u64 [s1 + 0x588]\n  5538: a1 = u64 [s1 + 0x120]\n  5542: a4 = a1 ^ a0\n  5545: a0 = a1 <u a0\n  5548: a3 = u64 [s1 + 0x128]\n  5552: a5 = a3 <u a2\n  5555: a5 = a0 if a4 != 0\n  5558: a1 = u64 [s1 + 0x130]\n  5562: a0 = a1 ^ t0\n  5565: t1 = a1\n  5567: t2 = a1 <u t0\n  5570: a1 = u64 [s1 + 0x138]\n  5574: t0 = a1\n  5576: a1 = a1 <u ra\n  5579: a1 = t2 if a0 != 0\n  5582: a0 = a3 ^ a2\n  5585: a0 = a0 | a4\n  5588: a1 = a5 if a0 != 0\n  5591: jump @177 if a1 == 0\n      : @176 (gas: 1)\n  5594: jump @485\n      : @177 (gas: 3)\n  5597: a0 = s1 + 0x560\n  5601: a1 = 0x40\n  5604: ra = 146, jump @17\n      : @178 [@dyn 73] (gas: 7)\n  5610: a1 = s1 + 0x500\n  5614: a4 = u64 [a1 + 0x78]\n  5617: a5 = u64 [a1 + 0x70]\n  5620: a3 = u64 [a1 + 0x68]\n  5623: a0 = u64 [a1 + 0x60]\n  5626: a2 = a3 | a4\n  5629: t0 = 148, jump @818\n      : @179 [@dyn 74] (gas: 1)\n  5635: jump @181 if a1 == 0\n      : @180 (gas: 1)\n  5638: jump @415\n      : @181 (gas: 11)\n  5641: u64 [s1 + 1360] = 0\n  5645: u64 [s1 + 1352] = 0\n  5649: u64 [s1 + 1344] = 0\n  5653: a2 = 0x8c379a000000000\n  5663: a1 = s1 + 0x540\n  5667: u64 [s1 + 0x558] = a2\n  5671: u64 [s1 + 0x138] = a0\n  5675: u64 [s1 + 0x130] = a3\n  5679: u64 [s1 + 0x128] = a4\n  5683: u64 [s1 + 0x120] = a5\n  5687: ra = 150, jump @19\n      : @182 [@dyn 75] (gas: 8)\n  5693: a5 = s1 + 0x100\n  5697: a1 = u64 [a5 + 0x38]\n  5700: a0 = u64 [a5 + 0x28]\n  5703: a3 = u64 [a5 + 0x20]\n  5706: a3 = a3 | a0\n  5709: a4 = 0x100000000\n  5719: a0 = 0xfffffffc\n  5729: t0 = 152, jump @815\n      : @183 [@dyn 76] (gas: 1)\n  5735: jump @185 if a0 != 0\n      : @184 (gas: 1)\n  5738: jump @415\n      : @185 (gas: 9)\n  5741: i32 a0 = a1 + 0x4\n  5744: u64 [s1 + 1336] = 0\n  5748: u64 [s1 + 1328] = 0\n  5752: u64 [s1 + 1312] = 0x20\n  5757: a1 = s1 + 0x520\n  5761: u64 [s1 + 1320] = 0\n  5765: u64 [s1 + 0x128] = a3\n  5769: u64 [s1 + 0x120] = a4\n  5773: ra = 154, jump @19\n      : @186 [@dyn 77] (gas: 10)\n  5779: a4 = s1 + 0x100\n  5783: a3 = u64 [a4 + 0x28]\n  5786: a2 = u64 [a4 + 0x30]\n  5789: a1 = u64 [a4 + 0x38]\n  5792: a0 = u64 [a4 + 0x20]\n  5795: a0 = a0 + 0xffffffffffffffdc\n  5798: a0 = a1 <u a0\n  5801: a0 = 0 if a2 != 0\n  5803: a0 = 0 if a3 != 0\n  5805: jump @188 if a0 != 0\n      : @187 (gas: 1)\n  5808: jump @415\n      : @188 (gas: 7)\n  5811: i32 a0 = a1 + 0x24\n  5814: u64 [s1 + 1304] = 0\n  5818: u64 [s1 + 1296] = 0\n  5822: u64 [s1 + 1280] = 0x11\n  5827: a1 = s1 + 0x500\n  5831: u64 [s1 + 1288] = 0\n  5835: ra = 156, jump @19\n      : @189 [@dyn 78] (gas: 9)\n  5841: a3 = s1 + 0x100\n  5845: a2 = u64 [a3 + 0x38]\n  5848: a0 = 0xffffffbc\n  5858: a0 = a2 <u a0\n  5861: a1 = u64 [a3 + 0x30]\n  5864: a0 = 0 if a1 != 0\n  5866: a1 = u64 [a3 + 0x28]\n  5869: a0 = 0 if a1 != 0\n  5871: jump @191 if a0 != 0\n      : @190 (gas: 1)\n  5874: jump @415\n      : @191 (gas: 11)\n  5877: i32 a0 = a2 + 0x44\n  5880: a1 = u64 [0x20040]\n  5885: a2 = u64 [0x20048]\n  5890: a3 = s1 + 0x400\n  5894: u64 [a3 + 0xf8] = a1\n  5898: u64 [a3 + 0xf0] = a2\n  5902: a1 = 0x6400000000000000\n  5912: u64 [a3 + 0xe8] = a1\n  5916: a1 = s1 + 0x4e0\n  5920: u64 [s1 + 1248] = 0\n  5924: ra = 158, jump @19\n      : @192 [@dyn 79] (gas: 3)\n  5930: a1 = 0x64\n  5933: a0 = u64 [s1 + 0x138]\n  5937: ra = 160, jump @27\n      : @193 [@dyn 80] (gas: 5)\n  5943: i32 a1 = a0 + 0\n  5945: a0 = 0x1\n  5948: a2 = 0x64\n  5951: ecalli 8 // 'seal_return'\n  5953: fallthrough\n      : @194 (gas: 10)\n  5954: u64 [a2 + 1376] = 0\n  5958: u64 [a2 + 1368] = 0\n  5962: u64 [a2 + 1360] = 0\n  5966: u64 [a2 + 1352] = 0\n  5970: a0 = s1 + 0x2000\n  5974: i32 a0 = a0 + 0xfffffffffffffe20\n  5978: ra = 0xa2\n  5982: ecalli 11 // 'value_transferred'\n  5984: t0 = 0xa4\n  5988: jump @803\n      : @195 [@dyn 81] (gas: 1)\n  5991: t0 = 164, jump @803\n      : @196 [@dyn 82] (gas: 8)\n  5997: a0 = u64 [a4 + 0x58]\n  6000: a1 = u64 [a4 + 0x60]\n  6003: a2 = u64 [a4 + 0x50]\n  6006: a3 = u64 [a4 + 0x48]\n  6009: a1 = a1 | a2\n  6012: a0 = a0 | a3\n  6015: a0 = a0 | a1\n  6018: jump @198 if a0 == 0\n      : @197 (gas: 1)\n  6021: jump @490\n      : @198 (gas: 3)\n  6024: a0 = u64 [s1 + 0x138]\n  6028: a0 = i32 [a0]\n  6030: jump @200 if a0 >u 67\n      : @199 (gas: 1)\n  6034: jump @491\n      : @200 (gas: 2)\n  6037: a0 = s1 + 0x1480\n  6041: ra = 166, jump @660\n      : @201 [@dyn 83] (gas: 33)\n  6047: a1 = s1 + 0x10b8\n  6051: a0 = u64 [a1 + 0x3c8]\n  6055: u64 [s1 + 0x118] = a0\n  6059: a0 = u64 [a1 + 0x3d0]\n  6063: u64 [s1 + 0x110] = a0\n  6067: a0 = u32 [a1 + 0x3d8]\n  6071: u64 [s1 + 0x108] = a0\n  6075: a0 = s1 + 0x2000\n  6079: i32 a0 = a0 + 0xfffffffffffffe40\n  6083: a1 = 0x24\n  6086: ecalli 1 // 'call_data_load'\n  6088: a0 = s1 + 0x18d8\n  6092: a2 = a0 + 0x500\n  6096: a1 = u64 [a2 + 0x80]\n  6100: u64 [s1 + 0x120] = a1\n  6104: a1 = u64 [a2 + 0x78]\n  6107: u64 [s1 + 0x128] = a1\n  6111: a1 = u64 [a2 + 0x70]\n  6114: u64 [s1 + 0x130] = a1\n  6118: a0 = u64 [a2 + 0x68]\n  6121: u64 [s1 + 0x138] = a0\n  6125: a0 = s1 + 0x10b8\n  6129: u64 [a0 + 960] = 0\n  6133: a1 = u64 [s1 + 0x108]\n  6137: a3 = a0 + 0x300\n  6141: u64 [a3 + 0xb8] = a1\n  6145: a1 = u64 [s1 + 0x110]\n  6149: u64 [a3 + 0xb0] = a1\n  6153: a1 = s1 + 0x1460\n  6157: a2 = u64 [s1 + 0x118]\n  6161: u64 [a3 + 0xa8] = a2\n  6165: a0 = 0\n  6167: ra = 168, jump @19\n      : @202 [@dyn 84] (gas: 3)\n  6173: t0 = 0xaa\n  6177: a1 = s1 + 0x10b8\n  6181: fallthrough\n      : @203 [@dyn 85] (gas: 8)\n  6182: u64 [a1 + 928] = 0\n  6186: u64 [a1 + 920] = 0\n  6190: u64 [a1 + 904] = 0x2\n  6195: a2 = a1\n  6197: a0 = 0x20\n  6200: a1 = s1 + 0x1440\n  6204: u64 [a2 + 912] = 0\n  6208: ra = 172, jump @19\n      : @204 [@dyn 86] (gas: 6)\n  6214: a0 = sp + 0xffffffffffffffe0\n  6217: a0 = a0 & 0xffffffffffffffe0\n  6220: u64 [s1 + 0x100] = a0\n  6224: sp = a0\n  6226: a1 = i32 [0x20074]\n  6231: jump @206 if a1 >u 63\n      : @205 (gas: 2)\n  6235: u32 [0x20074] = 0x40\n  6241: fallthrough\n      : @206 (gas: 13)\n  6242: a0 = sp + 0xffffffffffffffe0\n  6245: a2 = a0 & 0xffffffffffffffe0\n  6248: u64 [s1 + 0x118] = a2\n  6252: sp = a2\n  6254: a0 = 0x20080\n  6259: i32 a0 = a0 + 0\n  6261: i32 a2 = a2 + 0\n  6263: a1 = 0x40\n  6266: u64 [s1 + 0xf0] = a0\n  6270: ra = 0xae\n  6274: ecalli 6 // 'hash_keccak_256'\n  6276: t0 = 0xb0\n  6280: jump @789\n      : @207 [@dyn 87] (gas: 1)\n  6283: t0 = 176, jump @789\n      : @208 [@dyn 88] (gas: 2)\n  6289: a0 = s1 + 0x1420\n  6293: ra = 178, jump @21\n      : @209 [@dyn 89] (gas: 22)\n  6299: ra = s1 + 0x10b8\n  6303: a2 = ra + 0x300\n  6307: a0 = u64 [a2 + 0x70]\n  6310: a1 = u64 [a2 + 0x68]\n  6313: t2 = u64 [ra + 0x378]\n  6317: a3 = u64 [a2 + 0x80]\n  6321: t1 = u64 [s1 + 0x130]\n  6325: a4 = t1 ^ a0\n  6328: a0 = t1 <u a0\n  6331: t0 = u64 [s1 + 0x138]\n  6335: a1 = t0 <u a1\n  6338: a1 = a0 if a4 != 0\n  6341: a5 = u64 [s1 + 0x120]\n  6345: a0 = a5 ^ a3\n  6348: a2 = a5 <u a3\n  6351: a3 = u64 [s1 + 0x128]\n  6355: a4 = a3 <u t2\n  6358: a4 = a2 if a0 != 0\n  6361: a2 = a3 ^ t2\n  6364: a0 = a0 | a2\n  6367: a1 = a4 if a0 != 0\n  6370: jump @211 if a1 != 0\n      : @210 (gas: 1)\n  6373: jump @475\n      : @211 (gas: 21)\n  6376: a0 = sp + 0xffffffffffffffe0\n  6379: a0 = a0 & 0xffffffffffffffe0\n  6382: u64 [s1 + 0x100] = a0\n  6386: sp = a0\n  6388: a4 = ra + 0x300\n  6392: u64 [a4] = a5\n  6394: u64 [ra + 0x2f8] = a3\n  6398: u64 [ra + 0x2f0] = t1\n  6402: u64 [ra + 0x2e8] = t0\n  6406: a0 = u64 [s1 + 0xf8]\n  6410: u64 [a4 + 0x20] = a0\n  6413: a0 = u64 [s1 + 0x108]\n  6417: u64 [a4 + 0x18] = a0\n  6420: a0 = u64 [s1 + 0x110]\n  6424: u64 [a4 + 0x10] = a0\n  6427: a0 = s1 + 0x13e0\n  6431: a1 = s1 + 0x13c0\n  6435: a2 = s1 + 0x13a0\n  6439: a3 = u64 [s1 + 0x118]\n  6443: u64 [a4 + 0x8] = a3\n  6446: ra = 180, jump @664\n      : @212 [@dyn 90] (gas: 28)\n  6452: a0 = s1 + 0x10b8\n  6456: a0 = u64 [a0 + 0x360]\n  6460: u64 [s1 + 0xf8] = a0\n  6464: a0 = s1 + 0x10b8\n  6468: a0 = u64 [a0 + 0x358]\n  6472: u64 [s1 + 0x110] = a0\n  6476: a0 = s1 + 0x10b8\n  6480: a0 = u64 [a0 + 0x350]\n  6484: u64 [s1 + 0x108] = a0\n  6488: a0 = s1 + 0x10b8\n  6492: a0 = u64 [a0 + 0x348]\n  6496: u64 [s1 + 0x118] = a0\n  6500: a0 = s1 + 0x10b8\n  6504: a0 = u64 [a0 + 0x338]\n  6508: a1 = s1 + 0x10b8\n  6512: a1 = u64 [a1 + 0x340]\n  6516: a2 = s1 + 0x10b8\n  6520: a2 = u64 [a2 + 0x328]\n  6524: a3 = s1 + 0x10b8\n  6528: a3 = u64 [a3 + 0x330]\n  6532: a4 = u64 [s1 + 0x100]\n  6536: u64 [a4 + 0x10] = a0\n  6539: u64 [a4 + 0x18] = a1\n  6542: u64 [a4] = a2\n  6544: u64 [a4 + 0x8] = a3\n  6547: a1 = a4\n  6549: a0 = s1 + 0x1380\n  6553: ra = 182, jump @21\n      : @213 [@dyn 91] (gas: 16)\n  6559: a0 = s1 + 0x10b8\n  6563: a0 = u64 [a0 + 0x2e0]\n  6567: a1 = s1 + 0x100\n  6571: u64 [a1 + 0x38] = a0\n  6574: a0 = s1 + 0x10b8\n  6578: a0 = u64 [a0 + 0x2d8]\n  6582: u64 [a1 + 0x30] = a0\n  6585: a0 = s1 + 0x10b8\n  6589: a0 = u64 [a0 + 0x2d0]\n  6593: u64 [a1 + 0x20] = a0\n  6596: a0 = s1 + 0x10b8\n  6600: a0 = u64 [a0 + 0x2c8]\n  6604: u64 [a1 + 0x28] = a0\n  6607: a0 = s1 + 0x1360\n  6611: a1 = 0x40\n  6614: ra = 184, jump @17\n      : @214 [@dyn 92] (gas: 14)\n  6620: a3 = s1 + 0x10b8\n  6624: a4 = a3 + 0x200\n  6628: a0 = u64 [a4 + 0xc0]\n  6632: a1 = u64 [a4 + 0xb8]\n  6636: a2 = u64 [a4 + 0xb0]\n  6640: a3 = u64 [a4 + 0xa8]\n  6644: a0 = a0 | a2\n  6647: a2 = a3 | a1\n  6650: a2 = a2 | a0\n  6653: a2 = a2 >> 0x20\n  6656: a0 = a0 | a1\n  6659: a0 = a0 << 0x20\n  6662: a0 = a0 | a2\n  6665: jump @216 if a0 == 0\n      : @215 (gas: 1)\n  6668: jump @415\n      : @216 (gas: 1)\n  6671: t0 = 186, jump @786\n      : @217 [@dyn 93] (gas: 5)\n  6677: t0 = t1 >u 0\n  6679: a5 = a3 <u 0x100\n  6683: a5 = a5 ^ 0x1\n  6686: a5 = t0 if t1 != 0\n  6689: t0 = 188, jump @811\n      : @218 [@dyn 94] (gas: 1)\n  6695: ra = 190, jump @820\n      : @219 [@dyn 95] (gas: 1)\n  6701: t0 = 192, jump @806\n      : @220 [@dyn 96] (gas: 1)\n  6707: ra = 194, jump @820\n      : @221 [@dyn 97] (gas: 1)\n  6713: t0 = 196, jump @807\n      : @222 [@dyn 98] (gas: 1)\n  6719: ra = 198, jump @825\n      : @223 [@dyn 99] (gas: 1)\n  6725: t0 = 200, jump @787\n      : @224 [@dyn 100] (gas: 1)\n  6731: ra = 202, jump @820\n      : @225 [@dyn 101] (gas: 1)\n  6737: t0 = 204, jump @793\n      : @226 [@dyn 102] (gas: 9)\n  6743: a5 = a2 + 0x200\n  6747: u64 [a5 + 0xa0] = a1\n  6751: u64 [a5 + 0x98] = a0\n  6755: u64 [a5 + 0x90] = a3\n  6759: a1 = s1 + 0x1340\n  6763: u64 [a5 + 0x88] = a4\n  6767: a0 = u64 [s1 + 0x108]\n  6771: ra = 0x158\n  6775: jump @19\n      : @227 (gas: 1)\n  6778: jump @229 if a0 == 1911220206\n      : @228 (gas: 1)\n  6785: jump @472\n      : @229 (gas: 3)\n  6788: a0 = u64 [s1 + 0x138]\n  6792: a0 = i32 [a0]\n  6794: jump @231 if a0 >u 67\n      : @230 (gas: 1)\n  6798: jump @492\n      : @231 (gas: 2)\n  6801: a0 = s1 + 0x1320\n  6805: ra = 206, jump @660\n      : @232 [@dyn 103] (gas: 13)\n  6811: a1 = s1 + 0x10b8\n  6815: a2 = a1 + 0x200\n  6819: a0 = u64 [a2 + 0x78]\n  6822: u64 [s1 + 0xf0] = a0\n  6826: a0 = u64 [a2 + 0x70]\n  6829: u64 [s1 + 0x88] = a0\n  6833: a0 = u64 [a2 + 0x68]\n  6836: u64 [s1 + 0x80] = a0\n  6840: a0 = s1 + 0x2000\n  6844: i32 a0 = a0 + 0xfffffffffffffb80\n  6848: a1 = 0x24\n  6851: ecalli 1 // 'call_data_load'\n  6853: fallthrough\n      : @233 (gas: 8)\n  6854: a2 = s1 + 0x18d8\n  6858: t1 = u64 [a2 + 0x2c0]\n  6862: a3 = u64 [a2 + 0x2b8]\n  6866: a4 = u64 [a2 + 0x2b0]\n  6870: a0 = a3 | t1\n  6873: a1 = a4 <u 0x1\n  6876: a1 = 0 if a0 != 0\n  6878: jump @235 if a1 != 0\n      : @234 (gas: 1)\n  6881: jump @493\n      : @235 (gas: 19)\n  6884: a5 = u64 [a2 + 0x2a8]\n  6888: a0 = u64 [s1 + 0x138]\n  6892: a0 = u32 [a0]\n  6894: a1 = a5 + 0x23\n  6897: a2 = a1 <u a5\n  6900: t0 = a4 + a2\n  6903: u64 [s1 + 0xf8] = a4\n  6907: a4 = t0 <u a4\n  6910: a4 = a2 if a2 == 0\n  6913: a4 = a4 + a3\n  6916: u64 [s1 + 0x100] = a3\n  6920: a2 = a4 <u a3\n  6923: u64 [s1 + 0x108] = t1\n  6927: a2 = a2 + t1\n  6930: a2 = a2 | a4\n  6933: a0 = a1 <u a0\n  6936: a0 = 0 if t0 != 0\n  6938: a0 = 0 if a2 != 0\n  6940: jump @237 if a0 != 0\n      : @236 (gas: 1)\n  6943: jump @494\n      : @237 (gas: 7)\n  6946: u64 [s1 + 0x110] = a5\n  6950: i32 a1 = a5 + 0x4\n  6953: a0 = s1 + 0x2000\n  6957: i32 a0 = a0 + 0xfffffffffffffba0\n  6961: ra = 0xd0\n  6965: ecalli 1 // 'call_data_load'\n  6967: fallthrough\n      : @238 [@dyn 104] (gas: 15)\n  6968: a5 = s1 + 0x18d8\n  6972: a0 = a5 + 0x200\n  6976: a2 = u64 [a0 + 0xe0]\n  6980: a3 = u64 [a0 + 0xd8]\n  6984: a4 = u64 [a0 + 0xd0]\n  6988: a0 = a2 >u 0\n  6990: a1 = a3 >u 0\n  6992: a1 = a0 if a2 != 0\n  6995: u64 [s1 + 0x120] = a2\n  6999: u64 [s1 + 0x118] = a3\n  7003: a0 = a3 | a2\n  7006: u64 [s1 + 0x128] = a4\n  7010: a2 = a4 >u 0\n  7012: a2 = a1 if a0 != 0\n  7015: jump @240 if a2 == 0\n      : @239 (gas: 1)\n  7018: jump @495\n      : @240 (gas: 5)\n  7021: a0 = u64 [a5 + 0x2c8]\n  7025: u64 [s1 + 0x130] = a0\n  7029: a0 = s1 + 0x1300\n  7033: a1 = 0x40\n  7036: ra = 210, jump @17\n      : @241 [@dyn 105] (gas: 32)\n  7042: a5 = s1 + 0x10b8\n  7046: t1 = u64 [a5 + 0x260]\n  7050: u64 [s1 + 0x98] = t1\n  7054: t0 = u64 [a5 + 0x258]\n  7058: u64 [s1 + 0xa0] = t0\n  7062: t2 = u64 [a5 + 0x250]\n  7066: u64 [s1 + 0xa8] = t2\n  7070: ra = u64 [a5 + 0x248]\n  7074: u64 [s1 + 0x90] = ra\n  7078: a1 = u64 [s1 + 0x130]\n  7082: a0 = a1 + 0x1f\n  7085: a1 = a0 <u a1\n  7088: a2 = u64 [s1 + 0x128]\n  7092: a1 = a1 + a2\n  7095: a1 = a1 & 0x1\n  7098: a0 = a0 & 0xffffffffffffffe0\n  7101: a2 = a0 + 0x20\n  7104: a0 = a2 <u a0\n  7107: a3 = a1 + a0\n  7110: a4 = a3 <u a1\n  7113: a4 = a0 if a0 == 0\n  7116: u64 [a5 + 544] = 0\n  7120: u64 [a5 + 0x208] = a2\n  7124: u64 [a5 + 0x240] = t1\n  7128: u64 [a5 + 0x238] = t0\n  7132: u64 [a5 + 0x230] = t2\n  7136: u64 [a5 + 0x228] = ra\n  7140: u64 [a5 + 0x210] = a3\n  7144: a0 = s1 + 0x12e0\n  7148: a1 = s1 + 0x12c0\n  7152: u64 [a5 + 0x218] = a4\n  7156: ra = 212, jump @556\n      : @242 [@dyn 106] (gas: 6)\n  7162: a2 = u64 [s1 + 0x98]\n  7166: a1 = u64 [s1 + 0xa8]\n  7170: a0 = u64 [s1 + 0x90]\n  7174: a2 = a2 | a1\n  7177: a5 = u64 [s1 + 0xa0]\n  7181: t0 = 214, jump @818\n      : @243 [@dyn 107] (gas: 1)\n  7187: jump @245 if a1 == 0\n      : @244 (gas: 1)\n  7190: jump @415\n      : @245 (gas: 12)\n  7193: a2 = s1 + 0x10b8\n  7197: a1 = u64 [s1 + 0x130]\n  7201: a3 = a2 + 0x100\n  7205: u64 [a3 + 0xe8] = a1\n  7209: a1 = u64 [s1 + 0x128]\n  7213: u64 [a3 + 0xf0] = a1\n  7217: a1 = u64 [s1 + 0x118]\n  7221: u64 [a3 + 0xf8] = a1\n  7225: a1 = s1 + 0x12a0\n  7229: a3 = u64 [s1 + 0x120]\n  7233: u64 [a2 + 0x200] = a3\n  7237: ra = 216, jump @19\n      : @246 [@dyn 108] (gas: 41)\n  7243: t2 = u64 [s1 + 0x120]\n  7247: t1 = u64 [s1 + 0x118]\n  7251: a1 = u64 [s1 + 0x110]\n  7255: ra = u64 [s1 + 0x130]\n  7259: a0 = a1 + ra\n  7262: a1 = a0 <u a1\n  7265: a4 = u64 [s1 + 0xf8]\n  7269: t0 = u64 [s1 + 0x128]\n  7273: a2 = a4 + t0\n  7276: a2 = a2 + a1\n  7279: a3 = a2 ^ a4\n  7282: a4 = a2 <u a4\n  7285: a4 = a1 if a3 == 0\n  7288: a3 = u64 [s1 + 0x100]\n  7292: a1 = a3 + t1\n  7295: a4 = a4 + a1\n  7298: a3 = a1 <u a3\n  7301: a1 = a4 <u a1\n  7304: a5 = u64 [s1 + 0x108]\n  7308: a5 = a5 + t2\n  7311: a3 = a3 + a5\n  7314: a1 = a1 + a3\n  7317: a3 = a0 + 0x24\n  7320: a0 = a3 <u a0\n  7323: a5 = a2 + a0\n  7326: a2 = a5 <u a2\n  7329: a2 = a0 if a0 == 0\n  7332: a0 = u64 [s1 + 0x138]\n  7336: a0 = u32 [a0]\n  7338: a2 = a2 + a4\n  7341: a4 = a2 <u a4\n  7344: a1 = a1 + a4\n  7347: a0 = a0 <u a3\n  7350: a3 = a5 >u 0\n  7352: a0 = a3 if a5 != 0\n  7355: a3 = a2 >u 0\n  7357: a4 = a1 >u 0\n  7359: a4 = a3 if a1 == 0\n  7362: a1 = a1 | a2\n  7365: a0 = a4 if a1 != 0\n  7368: jump @248 if a0 == 0\n      : @247 (gas: 1)\n  7371: jump @509\n      : @248 (gas: 13)\n  7374: a5 = t0\n  7376: a1 = ra\n  7378: a0 = ra | t1\n  7381: a2 = t0 | t2\n  7384: a0 = a0 | a2\n  7387: a0 = a0 >> 0x20\n  7390: a2 = a2 | t1\n  7393: a2 = a2 << 0x20\n  7396: a0 = a0 | a2\n  7399: a3 = u64 [s1 + 0xa8]\n  7403: a2 = u64 [s1 + 0xa0]\n  7407: a4 = u64 [s1 + 0x98]\n  7411: jump @250 if a0 == 0\n      : @249 (gas: 1)\n  7414: jump @415\n      : @250 (gas: 7)\n  7417: a0 = a2 | a4\n  7420: t0 = 0xffffffe0\n  7430: a2 = u64 [s1 + 0x90]\n  7434: a4 = a2 <u t0\n  7437: a4 = 0 if a3 != 0\n  7439: a4 = 0 if a0 != 0\n  7441: jump @252 if a4 != 0\n      : @251 (gas: 1)\n  7444: jump @415\n      : @252 (gas: 6)\n  7447: a0 = u64 [s1 + 0x110]\n  7451: i32 a0 = a0 + 0x24\n  7454: u64 [s1 + 0x110] = a0\n  7458: i32 a0 = a2 + 0x20\n  7461: u64 [s1 + 0x138] = t0\n  7465: ra = 218, jump @27\n      : @253 [@dyn 109] (gas: 5)\n  7471: i32 a0 = a0 + 0\n  7473: a1 = i32 [s1 + 0x130]\n  7477: a2 = u64 [s1 + 0x110]\n  7481: ecalli 0 // 'call_data_copy'\n  7482: fallthrough\n      : @254 (gas: 28)\n  7483: a4 = u64 [s1 + 0xa8]\n  7487: a0 = u64 [s1 + 0x90]\n  7491: t0 = u64 [s1 + 0x130]\n  7495: t0 = t0 + a0\n  7498: a1 = t0 <u a0\n  7501: a2 = u64 [s1 + 0x128]\n  7505: a2 = a2 + a4\n  7508: a2 = a2 + a1\n  7511: a3 = a2 ^ a4\n  7514: a4 = a2 <u a4\n  7517: a4 = a1 if a3 == 0\n  7520: a0 = u64 [s1 + 0xa0]\n  7524: a1 = u64 [s1 + 0x118]\n  7528: a1 = a1 + a0\n  7531: a3 = a1 <u a0\n  7534: a5 = u64 [s1 + 0x98]\n  7538: a0 = u64 [s1 + 0x120]\n  7542: a5 = a5 + a0\n  7545: a3 = a3 + a5\n  7548: a4 = a4 + a1\n  7551: a1 = a4 <u a1\n  7554: a1 = a1 + a3\n  7557: a1 = a1 | a4\n  7560: a3 = u64 [s1 + 0x138]\n  7564: a3 = t0 <u a3\n  7567: a3 = 0 if a2 != 0\n  7569: a3 = 0 if a1 != 0\n  7571: jump @256 if a3 != 0\n      : @255 (gas: 1)\n  7574: jump @415\n      : @256 (gas: 8)\n  7577: i32 a0 = t0 + 0x20\n  7580: a2 = s1 + 0x10b8\n  7584: u64 [a2 + 480] = 0\n  7588: u64 [a2 + 472] = 0\n  7592: u64 [a2 + 464] = 0\n  7596: a1 = s1 + 0x1280\n  7600: u64 [a2 + 456] = 0\n  7604: ra = 220, jump @19\n      : @257 [@dyn 110] (gas: 8)\n  7610: a0 = s1 + 0x18d8\n  7614: u64 [a0 + 768] = 0\n  7618: u64 [a0 + 760] = 0\n  7622: u64 [a0 + 752] = 0\n  7626: u64 [a0 + 744] = 0\n  7630: a0 = s1 + 0x1260\n  7634: a1 = s1 + 0x1bc0\n  7638: ra = 222, jump @21\n      : @258 [@dyn 111] (gas: 3)\n  7644: t0 = 0xe0\n  7648: a1 = s1 + 0x10b8\n  7652: fallthrough\n      : @259 [@dyn 112] (gas: 12)\n  7653: a2 = a1 + 0x100\n  7657: a0 = u64 [a2 + 0xc0]\n  7661: u64 [s1 + 0x110] = a0\n  7665: a0 = u64 [a2 + 0xb8]\n  7669: u64 [s1 + 0x118] = a0\n  7673: a0 = u64 [a2 + 0xb0]\n  7677: u64 [s1 + 0x120] = a0\n  7681: a0 = u64 [a2 + 0xa8]\n  7685: u64 [s1 + 0x108] = a0\n  7689: a0 = s1 + 0x1240\n  7693: a1 = 0x40\n  7696: ra = 226, jump @17\n      : @260 [@dyn 113] (gas: 17)\n  7702: a0 = s1 + 0x10b8\n  7706: a5 = a0 + 0x100\n  7710: a1 = u64 [a5 + 0xa0]\n  7714: u64 [s1 + 0x130] = a1\n  7718: a2 = u64 [a5 + 0x98]\n  7722: u64 [s1 + 0x128] = a2\n  7726: a3 = u64 [a5 + 0x90]\n  7730: u64 [s1 + 0x138] = a3\n  7734: a4 = u64 [a5 + 0x88]\n  7738: u64 [s1 + 0x78] = a4\n  7741: u64 [a5 + 0x80] = a1\n  7745: u64 [a5 + 0x78] = a2\n  7748: u64 [a5 + 0x70] = a3\n  7751: a1 = a0\n  7753: a0 = s1 + 0x1220\n  7757: u64 [a1 + 0x168] = a4\n  7761: ra = 228, jump @547\n      : @261 [@dyn 114] (gas: 13)\n  7767: a0 = u64 [s1 + 0x78]\n  7770: a4 = s1 + 0x100\n  7774: a1 = u64 [a4 + 0x30]\n  7777: a2 = u64 [a4 + 0x38]\n  7780: a2 = a2 | a1\n  7783: a3 = u64 [a4 + 0x28]\n  7786: a1 = a0 | a3\n  7789: a1 = a1 | a2\n  7792: a1 = a1 >> 0x20\n  7795: a2 = a2 | a3\n  7798: a2 = a2 << 0x20\n  7801: a1 = a1 | a2\n  7804: jump @263 if a1 == 0\n      : @262 (gas: 1)\n  7807: jump @415\n      : @263 (gas: 12)\n  7810: a2 = s1 + 0x10b8\n  7814: a1 = u64 [s1 + 0x108]\n  7818: a4 = a2 + 0x100\n  7822: u64 [a4 + 0x48] = a1\n  7825: a1 = u64 [s1 + 0x120]\n  7829: u64 [a4 + 0x50] = a1\n  7832: a1 = u64 [s1 + 0x118]\n  7836: u64 [a4 + 0x58] = a1\n  7839: a1 = s1 + 0x1200\n  7843: a3 = u64 [s1 + 0x110]\n  7847: u64 [a4 + 0x60] = a3\n  7850: ra = 230, jump @19\n      : @264 [@dyn 115] (gas: 7)\n  7856: a0 = 0x30080\n  7861: u64 [s1 + 0x70] = a0\n  7864: i32 a0 = a0 + 0\n  7866: u64 [s1 + 0x68] = a0\n  7869: ra = 0xe8\n  7873: ecalli 3 // 'caller'\n  7875: fallthrough\n      : @265 [@dyn 116] (gas: 12)\n  7876: a4 = u64 [s1 + 0x78]\n  7879: a5 = s1 + 0x100\n  7883: a0 = u64 [a5 + 0x30]\n  7886: a2 = u64 [a5 + 0x28]\n  7889: a2 = a2 | a0\n  7892: a3 = 0x100000000\n  7902: a0 = 0xffffffe0\n  7912: a0 = a4 <u a0\n  7915: a1 = u64 [a5 + 0x38]\n  7918: a0 = 0 if a1 != 0\n  7920: a0 = 0 if a2 != 0\n  7922: jump @267 if a0 != 0\n      : @266 (gas: 1)\n  7925: jump @415\n      : @267 (gas: 8)\n  7928: a5 = u64 [s1 + 0x70]\n  7931: a0 = u64 [a5 + 0x8]\n  7934: a1 = i32 [a5 + 0x10]\n  7937: u64 [s1 + 0x130] = a2\n  7941: a2 = u64 [a5]\n  7943: a0 = reverse a0\n  7945: u64 [s1 + 0x128] = a3\n  7949: t0 = 234, jump @812\n      : @268 [@dyn 117] (gas: 12)\n  7955: a2 = a2 | a0\n  7958: a1 = a1 >> 0x20\n  7961: i32 a0 = a4 + 0x20\n  7964: a4 = s1 + 0x10b8\n  7968: u64 [a4 + 320] = 0\n  7972: a5 = a4 + 0x100\n  7976: u64 [a5 + 0x38] = a1\n  7979: u64 [a5 + 0x30] = a2\n  7982: a1 = s1 + 0x11e0\n  7986: u64 [a5 + 0x28] = a3\n  7989: u64 [s1 + 0x100] = a0\n  7993: ra = 236, jump @19\n      : @269 [@dyn 118] (gas: 10)\n  7999: a1 = u64 [s1 + 0x78]\n  8002: a3 = s1 + 0x100\n  8006: a0 = u64 [a3 + 0x28]\n  8009: a0 = a0 + 0xffffffffffffffc0\n  8012: a0 = a1 <u a0\n  8015: a2 = u64 [a3 + 0x38]\n  8018: a0 = 0 if a2 != 0\n  8020: a2 = u64 [a3 + 0x30]\n  8023: a0 = 0 if a2 != 0\n  8025: jump @271 if a0 != 0\n      : @270 (gas: 1)\n  8028: jump @415\n      : @271 (gas: 17)\n  8031: a0 = u64 [s1 + 0xf0]\n  8035: a0 = a0 << 0x20\n  8038: a2 = a0 >> 0x20\n  8041: i32 a3 = a1 + 0x40\n  8044: a4 = s1 + 0x10b8\n  8048: u64 [a4 + 288] = 0\n  8052: a0 = u64 [s1 + 0x80]\n  8056: a5 = a4 + 0x100\n  8060: u64 [a5 + 0x8] = a0\n  8063: a0 = u64 [s1 + 0x88]\n  8067: u64 [a5 + 0x10] = a0\n  8070: a1 = s1 + 0x11c0\n  8074: u64 [s1 + 0x60] = a2\n  8077: u64 [a5 + 0x18] = a2\n  8080: u64 [s1 + 0x128] = a3\n  8084: a0 = a3\n  8086: ra = 238, jump @19\n      : @272 [@dyn 119] (gas: 9)\n  8092: a0 = s1 + 0x18d8\n  8096: u64 [a0 + 800] = 0\n  8100: u64 [a0 + 792] = 0\n  8104: u64 [a0 + 784] = 0\n  8108: u64 [a0 + 776] = 0\n  8112: a0 = s1 + 0x2000\n  8116: i32 a0 = a0 + 0xfffffffffffffbe0\n  8120: ecalli 11 // 'value_transferred'\n  8122: fallthrough\n      : @273 (gas: 9)\n  8123: a4 = u64 [s1 + 0x78]\n  8126: a2 = 0x100000000\n  8136: a0 = 0xffffffa0\n  8146: a0 = a4 <u a0\n  8149: a1 = u64 [s1 + 0x138]\n  8153: a0 = 0 if a1 != 0\n  8155: a1 = u64 [s1 + 0x130]\n  8159: a0 = 0 if a1 != 0\n  8161: jump @275 if a0 != 0\n      : @274 (gas: 1)\n  8164: jump @415\n      : @275 (gas: 15)\n  8167: a0 = s1 + 0x18d8\n  8171: a5 = u64 [a0 + 0x308]\n  8175: a1 = u64 [a0 + 0x310]\n  8179: u64 [s1 + 0xf8] = a2\n  8183: a2 = u64 [a0 + 0x318]\n  8187: a3 = u64 [a0 + 0x320]\n  8191: i32 a0 = a4 + 0x60\n  8194: a4 = s1 + 0x10b8\n  8198: u64 [a4 + 0x100] = a3\n  8202: u64 [a4 + 0xf8] = a2\n  8206: u64 [a4 + 0xf0] = a1\n  8210: a1 = s1 + 0x11a0\n  8214: u64 [a4 + 0xe8] = a5\n  8218: u64 [s1 + 0xf0] = a0\n  8222: ra = 240, jump @19\n      : @276 [@dyn 120] (gas: 4)\n  8228: a1 = u64 [s1 + 0x78]\n  8231: a0 = u64 [s1 + 0xf8]\n  8235: a0 = a0 + 0xffffffffffffff80\n  8238: t0 = 242, jump @814\n      : @277 [@dyn 121] (gas: 1)\n  8244: jump @279 if a0 != 0\n      : @278 (gas: 1)\n  8247: jump @415\n      : @279 (gas: 9)\n  8250: i32 a0 = a1 + 0x80\n  8254: a2 = s1 + 0x10b8\n  8258: u64 [a2 + 224] = 0\n  8262: u64 [a2 + 216] = 0\n  8266: u64 [a2 + 208] = 0\n  8270: a1 = s1 + 0x1180\n  8274: u64 [a2 + 200] = 0\n  8278: u64 [s1 + 0xf8] = a0\n  8282: ra = 244, jump @19\n      : @280 [@dyn 122] (gas: 4)\n  8288: a0 = s1 + 0x2000\n  8292: i32 a0 = a0 + 0xfffffffffffffc00\n  8296: ecalli 7 // 'now'\n  8298: fallthrough\n      : @281 (gas: 9)\n  8299: a2 = u64 [s1 + 0x130]\n  8303: a4 = u64 [s1 + 0x78]\n  8306: a3 = 0x100000000\n  8316: a0 = 0xffffff60\n  8326: a0 = a4 <u a0\n  8329: a1 = u64 [s1 + 0x138]\n  8333: a0 = 0 if a1 != 0\n  8335: a0 = 0 if a2 != 0\n  8337: jump @283 if a0 != 0\n      : @282 (gas: 1)\n  8340: jump @415\n      : @283 (gas: 15)\n  8343: a0 = s1 + 0x18d8\n  8347: u64 [s1 + 0xe8] = a3\n  8351: a5 = u64 [a0 + 0x328]\n  8355: a1 = u64 [a0 + 0x330]\n  8359: a2 = u64 [a0 + 0x338]\n  8363: a3 = u64 [a0 + 0x340]\n  8367: i32 a0 = a4 + 0xa0\n  8371: a4 = s1 + 0x10b8\n  8375: u64 [a4 + 0xc0] = a3\n  8379: u64 [a4 + 0xb8] = a2\n  8383: u64 [a4 + 0xb0] = a1\n  8387: a1 = s1 + 0x1160\n  8391: u64 [a4 + 0xa8] = a5\n  8395: u64 [s1 + 0xe0] = a0\n  8399: ra = 246, jump @19\n      : @284 [@dyn 123] (gas: 4)\n  8405: a1 = u64 [s1 + 0x78]\n  8408: a0 = u64 [s1 + 0xe8]\n  8412: a0 = a0 + 0xffffffffffffff40\n  8416: t0 = 248, jump @814\n      : @285 [@dyn 124] (gas: 1)\n  8422: jump @287 if a0 != 0\n      : @286 (gas: 1)\n  8425: jump @415\n      : @287 (gas: 14)\n  8428: i32 a2 = a1 + 0xc0\n  8432: a0 = u64 [s1 + 0x90]\n  8436: a3 = s1 + 0x10b8\n  8440: u64 [a3 + 0x88] = a0\n  8444: a0 = u64 [s1 + 0xa8]\n  8448: u64 [a3 + 0x90] = a0\n  8452: a0 = u64 [s1 + 0xa0]\n  8456: u64 [a3 + 0x98] = a0\n  8460: a1 = s1 + 0x1140\n  8464: a0 = u64 [s1 + 0x98]\n  8468: u64 [a3 + 0xa0] = a0\n  8472: u64 [s1 + 0xd8] = a2\n  8476: a0 = a2\n  8478: ra = 250, jump @19\n      : @288 [@dyn 125] (gas: 11)\n  8484: a4 = s1 + 0x100\n  8488: a2 = u64 [a4 + 0x18]\n  8491: a0 = a2 >u 0\n  8493: a3 = u64 [a4 + 0x10]\n  8496: a1 = a3 >u 0\n  8498: a1 = a0 if a3 == 0\n  8501: a0 = a2 | a3\n  8504: a2 = u64 [a4 + 0x20]\n  8507: a2 = a2 >u 0\n  8509: a2 = a1 if a0 != 0\n  8512: jump @290 if a2 == 0\n      : @289 (gas: 1)\n  8515: jump @510\n      : @290 (gas: 25)\n  8518: a0 = u64 [s1 + 0x108]\n  8522: a0 = a0 + 0x1\n  8525: a1 = a0 <u 0x1\n  8528: a2 = u64 [s1 + 0x120]\n  8532: a1 = a1 + a2\n  8535: a2 = a0 | a1\n  8538: a2 = a2 <u 0x1\n  8541: a3 = u64 [s1 + 0x118]\n  8545: a2 = a2 + a3\n  8548: a3 = a2 <u a3\n  8551: a4 = u64 [s1 + 0x110]\n  8555: a3 = a3 + a4\n  8558: a4 = s1 + 0x18d8\n  8562: u64 [a4 + 864] = 0\n  8566: u64 [a4 + 856] = 0\n  8570: u64 [a4 + 848] = 0\n  8574: u64 [a4 + 840] = 0\n  8578: a5 = a4 + 0x300\n  8582: u64 [a5 + 0x68] = a0\n  8585: u64 [a5 + 0x70] = a1\n  8588: u64 [a5 + 0x78] = a2\n  8591: u64 [a5 + 0x80] = a3\n  8595: a0 = s1 + 0x1c20\n  8599: a1 = s1 + 0x1c40\n  8603: ra = 252, jump @23\n      : @291 [@dyn 126] (gas: 16)\n  8609: a0 = sp + 0xffffffffffffffe0\n  8612: a0 = a0 & 0xffffffffffffffe0\n  8615: u64 [s1 + 0xe8] = a0\n  8619: sp = a0\n  8621: a3 = s1 + 0x10b8\n  8625: a0 = u64 [s1 + 0x110]\n  8629: u64 [a3 + 0x40] = a0\n  8632: a0 = u64 [s1 + 0x118]\n  8636: u64 [a3 + 0x38] = a0\n  8639: a0 = u64 [s1 + 0x120]\n  8643: u64 [a3 + 0x30] = a0\n  8646: a0 = s1 + 0x1100\n  8650: a1 = s1 + 0x10e0\n  8654: a2 = u64 [s1 + 0x108]\n  8658: u64 [a3 + 0x28] = a2\n  8661: ra = 254, jump @527\n      : @292 [@dyn 127] (gas: 2)\n  8667: a1 = s1 + 0x10b8\n  8671: fallthrough\n      : @293 (gas: 22)\n  8672: t0 = u64 [a1 + 0x78]\n  8675: t1 = u64 [a1 + 0x68]\n  8678: t2 = u64 [a1 + 0x80]\n  8682: a2 = u64 [a1 + 0x70]\n  8685: a4 = u64 [a1 + 0x58]\n  8688: a5 = u64 [a1 + 0x60]\n  8691: a0 = u64 [a1 + 0x48]\n  8694: a1 = u64 [a1 + 0x50]\n  8697: u64 [s1 + 0x138] = a4\n  8701: a3 = u64 [s1 + 0xe8]\n  8705: u64 [a3 + 0x10] = a4\n  8708: a4 = s1 + 0x100\n  8712: u64 [a4 + 0x30] = a5\n  8715: u64 [a3 + 0x18] = a5\n  8718: u64 [a4 + 0x18] = a0\n  8721: u64 [a3] = a0\n  8723: a2 = a2 | t2\n  8726: a0 = t1 | t0\n  8729: a0 = a0 | a2\n  8732: u64 [a4 + 0x20] = a1\n  8735: u64 [a3 + 0x8] = a1\n  8738: jump @295 if a0 == 0\n      : @294 (gas: 1)\n  8741: jump @516\n      : @295 (gas: 5)\n  8744: a0 = 0xffffffff\n  8754: u64 [s1 + 0x110] = a0\n  8758: a0 = s1 + 0x1080\n  8762: a1 = u64 [s1 + 0x78]\n  8765: ra = 256, jump @17\n      : @296 [@dyn 128] (gas: 16)\n  8771: a3 = s1 + 0x7ff\n  8775: a3 = a3 + 0xb9\n  8779: a4 = a3 + 0x700\n  8783: a0 = u64 [a4 + 0xe0]\n  8787: a1 = u64 [a4 + 0xd8]\n  8791: a2 = u64 [a4 + 0xd0]\n  8795: a3 = u64 [a4 + 0xc8]\n  8799: a4 = s1 + 0x18d8\n  8803: a5 = a4 + 0x300\n  8807: u64 [a5 + 0xa0] = a0\n  8811: u64 [a5 + 0x98] = a1\n  8815: u64 [a5 + 0x90] = a2\n  8819: u64 [a5 + 0x88] = a3\n  8823: a1 = s1 + 0x1c60\n  8827: a0 = u64 [s1 + 0xe8]\n  8831: ra = 258, jump @23\n      : @297 [@dyn 129] (gas: 3)\n  8837: a0 = s1 + 0x1060\n  8841: a1 = u64 [s1 + 0x100]\n  8845: ra = 260, jump @17\n      : @298 [@dyn 130] (gas: 37)\n  8851: a2 = s1 + 0x7ff\n  8855: a2 = a2 + 0xb9\n  8859: a3 = a2 + 0x700\n  8863: a0 = u64 [a3 + 0xa8]\n  8867: a1 = u64 [a3 + 0xb0]\n  8871: a2 = u64 [a3 + 0xb8]\n  8875: a0 = a0 & 0xffffffffffffffff\n  8878: u64 [s1 + 0x108] = a0\n  8882: a1 = a1 & 0xffffffffffffffff\n  8885: u64 [s1 + 0x100] = a1\n  8889: a0 = u64 [s1 + 0x110]\n  8893: a0 = a0 & a2\n  8896: u64 [s1 + 0xe8] = a0\n  8900: a0 = sp + 0xffffffffffffffe0\n  8903: t0 = a0 & 0xffffffffffffffe0\n  8906: sp = t0\n  8908: a0 = u64 [s1 + 0x118]\n  8912: a0 = a0 + 0x1\n  8915: a1 = a0 <u 0x1\n  8918: a2 = u64 [s1 + 0x120]\n  8922: a5 = a2 + a1\n  8925: a2 = a0 | a5\n  8928: a2 = a2 <u 0x1\n  8931: a3 = u64 [s1 + 0x138]\n  8935: a2 = a2 + a3\n  8938: a3 = a2 <u a3\n  8941: a4 = u64 [s1 + 0x130]\n  8945: a3 = a3 + a4\n  8948: a1 = t0\n  8950: a4 = t0\n  8952: u64 [s1 + 0xd0] = a4\n  8956: u64 [a4 + 0x18] = a3\n  8959: u64 [a4 + 0x10] = a2\n  8962: u64 [a4 + 0x8] = a5\n  8965: u64 [a4] = a0\n  8967: a0 = s1 + 0x1040\n  8971: ra = 262, jump @21\n      : @299 [@dyn 131] (gas: 18)\n  8977: a1 = s1 + 0x7ff\n  8981: a1 = a1 + 0xb9\n  8985: a0 = u32 [a1 + 0x79c]\n  8989: a0 = a0 << 0x20\n  8992: a1 = u64 [a1 + 0x7a0]\n  8996: a2 = u64 [s1 + 0xe8]\n  9000: a0 = a0 | a2\n  9003: a2 = s1 + 0x18d8\n  9007: a3 = u64 [s1 + 0x100]\n  9011: a4 = a2 + 0x300\n  9015: u64 [a4 + 0xb0] = a3\n  9019: a3 = u64 [s1 + 0x108]\n  9023: u64 [a4 + 0xa8] = a3\n  9027: u64 [a4 + 0xc0] = a1\n  9031: u64 [a4 + 0xb8] = a0\n  9035: a1 = s1 + 0x1c80\n  9039: a0 = u64 [s1 + 0xd0]\n  9043: ra = 264, jump @23\n      : @300 [@dyn 132] (gas: 3)\n  9049: a0 = s1 + 0x1020\n  9053: a1 = u64 [s1 + 0x128]\n  9057: ra = 266, jump @17\n      : @301 [@dyn 133] (gas: 19)\n  9063: a2 = s1 + 0x7ff\n  9067: a2 = a2 + 0xb9\n  9071: a3 = a2 + 0x700\n  9075: a0 = u64 [a3 + 0x68]\n  9078: a1 = u64 [a3 + 0x70]\n  9081: a2 = u64 [a3 + 0x78]\n  9084: a0 = a0 & 0xffffffffffffffff\n  9087: u64 [s1 + 0x128] = a0\n  9091: a1 = a1 & 0xffffffffffffffff\n  9094: u64 [s1 + 0x108] = a1\n  9098: a0 = u64 [s1 + 0x110]\n  9102: a0 = a0 & a2\n  9105: u64 [s1 + 0x110] = a0\n  9109: a0 = sp + 0xffffffffffffffe0\n  9112: a5 = a0 & 0xffffffffffffffe0\n  9115: sp = a5\n  9117: a1 = u64 [s1 + 0x118]\n  9121: a0 = a1 + 0x2\n  9124: t0 = 268, jump @799\n      : @302 [@dyn 134] (gas: 9)\n  9130: a4 = a4 + a1\n  9133: a1 = a5\n  9135: u64 [s1 + 0x100] = a5\n  9139: u64 [a5 + 0x18] = a4\n  9142: u64 [a5 + 0x10] = a3\n  9145: u64 [a5 + 0x8] = a2\n  9148: u64 [a5] = a0\n  9150: a0 = s1 + 0x1000\n  9154: ra = 270, jump @21\n      : @303 [@dyn 135] (gas: 18)\n  9160: a1 = s1 + 0x7ff\n  9164: a1 = a1 + 0xb9\n  9168: a0 = u32 [a1 + 0x75c]\n  9172: a0 = a0 << 0x20\n  9175: a1 = u64 [a1 + 0x760]\n  9179: a2 = u64 [s1 + 0x110]\n  9183: a0 = a0 | a2\n  9186: a2 = s1 + 0x18d8\n  9190: a3 = u64 [s1 + 0x108]\n  9194: a4 = a2 + 0x300\n  9198: u64 [a4 + 0xd0] = a3\n  9202: a3 = u64 [s1 + 0x128]\n  9206: u64 [a4 + 0xc8] = a3\n  9210: u64 [a4 + 0xe0] = a1\n  9214: u64 [a4 + 0xd8] = a0\n  9218: a1 = s1 + 0x1ca0\n  9222: a0 = u64 [s1 + 0x100]\n  9226: ra = 272, jump @23\n      : @304 [@dyn 136] (gas: 4)\n  9232: a0 = s1 + 0x7ff\n  9236: a0 = a0 + 0x7e1\n  9240: a1 = u64 [s1 + 0xf0]\n  9244: ra = 274, jump @17\n      : @305 [@dyn 137] (gas: 31)\n  9250: a0 = s1 + 0x7ff\n  9254: a0 = a0 + 0xb9\n  9258: t0 = u64 [a0 + 0x728]\n  9262: t1 = u64 [a0 + 0x730]\n  9266: t2 = u64 [a0 + 0x738]\n  9270: a3 = u64 [a0 + 0x740]\n  9274: a0 = u64 [s1 + 0x118]\n  9278: a4 = a0 + 0x3\n  9281: a5 = a4 <u a0\n  9284: a1 = u64 [s1 + 0x120]\n  9288: a0 = a1 + a5\n  9291: a1 = a0 <u a1\n  9294: a1 = a5 if a5 == 0\n  9297: a2 = u64 [s1 + 0x138]\n  9301: a1 = a1 + a2\n  9304: a5 = a1 <u a2\n  9307: a2 = u64 [s1 + 0x130]\n  9311: a5 = a5 + a2\n  9314: a2 = s1 + 0x18d8\n  9318: u64 [a2 + 0x400] = a5\n  9322: a5 = a2 + 0x300\n  9326: u64 [a5 + 0xf8] = a1\n  9330: u64 [a5 + 0xf0] = a0\n  9334: u64 [a5 + 0xe8] = a4\n  9338: u64 [a2 + 0x420] = a3\n  9342: u64 [a2 + 0x418] = t2\n  9346: u64 [a2 + 0x410] = t1\n  9350: u64 [a2 + 0x408] = t0\n  9354: a0 = s1 + 0x1cc0\n  9358: a1 = s1 + 0x1ce0\n  9362: ra = 276, jump @23\n      : @306 [@dyn 138] (gas: 6)\n  9368: a0 = sp + 0xffffffffffffffe0\n  9371: a5 = a0 & 0xffffffffffffffe0\n  9374: sp = a5\n  9376: a1 = u64 [s1 + 0x118]\n  9380: a0 = a1 + 0x4\n  9383: t0 = 278, jump @799\n      : @307 [@dyn 139] (gas: 10)\n  9389: a1 = a1 + a4\n  9392: u64 [s1 + 0x128] = a5\n  9396: u64 [a5 + 0x18] = a1\n  9399: u64 [a5 + 0x10] = a3\n  9402: u64 [a5 + 0x8] = a2\n  9405: u64 [a5] = a0\n  9407: a0 = s1 + 0x7ff\n  9411: a0 = a0 + 0x7c1\n  9415: a1 = u64 [s1 + 0xf8]\n  9419: ra = 280, jump @17\n      : @308 [@dyn 140] (gas: 16)\n  9425: a3 = s1 + 0x7ff\n  9429: a3 = a3 + 0xb9\n  9433: a4 = a3 + 0x700\n  9437: a0 = u64 [a4 + 0x18]\n  9440: a1 = u64 [a4 + 0x20]\n  9443: a2 = u64 [a4 + 0x10]\n  9446: a3 = u64 [a4 + 0x8]\n  9449: a1 = a1 | a2\n  9452: a0 = a0 | a3\n  9455: a0 = a0 | a1\n  9458: a0 = a0 >u 0\n  9460: u64 [s1 + 0x110] = a0\n  9464: a0 = s1 + 0x7ff\n  9468: a0 = a0 + 0x7a1\n  9472: a1 = u64 [s1 + 0x128]\n  9476: ra = 282, jump @21\n      : @309 [@dyn 141] (gas: 19)\n  9482: a3 = s1 + 0x7ff\n  9486: a3 = a3 + 0xb9\n  9490: a4 = a3 + 0x600\n  9494: a0 = u64 [a4 + 0xe8]\n  9498: a1 = u64 [a4 + 0xf0]\n  9502: a2 = u64 [a3 + 0x700]\n  9506: a3 = u64 [a4 + 0xf8]\n  9510: a0 = a0 & 0xffffffffffffff00\n  9514: a4 = u64 [s1 + 0x110]\n  9518: a0 = a0 | a4\n  9521: a4 = s1 + 0x18d8\n  9525: a5 = a4 + 0x400\n  9529: u64 [a5 + 0x40] = a2\n  9532: u64 [a5 + 0x38] = a3\n  9535: u64 [a5 + 0x30] = a1\n  9538: u64 [a5 + 0x28] = a0\n  9541: a1 = s1 + 0x1d00\n  9545: a0 = u64 [s1 + 0x128]\n  9549: ra = 284, jump @23\n      : @310 [@dyn 142] (gas: 4)\n  9555: a0 = s1 + 0x7ff\n  9559: a0 = a0 + 0x781\n  9563: a1 = u64 [s1 + 0xe0]\n  9567: ra = 286, jump @17\n      : @311 [@dyn 143] (gas: 31)\n  9573: a0 = s1 + 0x7ff\n  9577: a0 = a0 + 0xb9\n  9581: t0 = u64 [a0 + 0x6c8]\n  9585: t1 = u64 [a0 + 0x6d0]\n  9589: t2 = u64 [a0 + 0x6d8]\n  9593: a3 = u64 [a0 + 0x6e0]\n  9597: a0 = u64 [s1 + 0x118]\n  9601: a4 = a0 + 0x5\n  9604: a5 = a4 <u a0\n  9607: a1 = u64 [s1 + 0x120]\n  9611: a0 = a1 + a5\n  9614: a1 = a0 <u a1\n  9617: a1 = a5 if a5 == 0\n  9620: a2 = u64 [s1 + 0x138]\n  9624: a1 = a1 + a2\n  9627: a5 = a1 <u a2\n  9630: a2 = u64 [s1 + 0x130]\n  9634: a5 = a5 + a2\n  9637: a2 = s1 + 0x18d8\n  9641: u64 [a2 + 0x460] = a5\n  9645: a5 = a2 + 0x400\n  9649: u64 [a5 + 0x58] = a1\n  9652: u64 [a5 + 0x50] = a0\n  9655: u64 [a5 + 0x48] = a4\n  9658: u64 [a5 + 0x80] = a3\n  9662: u64 [a2 + 0x478] = t2\n  9666: u64 [a2 + 0x470] = t1\n  9670: u64 [a2 + 0x468] = t0\n  9674: a0 = s1 + 0x1d20\n  9678: a1 = s1 + 0x1d40\n  9682: ra = 288, jump @23\n      : @312 [@dyn 144] (gas: 28)\n  9688: a0 = sp + 0xffffffffffffffe0\n  9691: a2 = a0 & 0xffffffffffffffe0\n  9694: sp = a2\n  9696: a0 = u64 [s1 + 0x118]\n  9700: a3 = a0 + 0x6\n  9703: a0 = a3 <u a0\n  9706: a1 = u64 [s1 + 0x120]\n  9710: a4 = a1 + a0\n  9713: a1 = a4 <u a1\n  9716: a1 = a0 if a0 == 0\n  9719: a0 = u64 [s1 + 0x138]\n  9723: a1 = a1 + a0\n  9726: a0 = a1 <u a0\n  9729: a5 = u64 [s1 + 0x130]\n  9733: a0 = a0 + a5\n  9736: u64 [s1 + 0xe0] = a0\n  9740: u64 [a2 + 0x18] = a0\n  9743: u64 [s1 + 0x38] = a1\n  9746: u64 [a2 + 0x10] = a1\n  9749: u64 [s1 + 0xe8] = a4\n  9753: u64 [a2 + 0x8] = a4\n  9756: u64 [s1 + 0x48] = a2\n  9759: u64 [s1 + 0xf0] = a3\n  9763: u64 [a2] = a3\n  9765: a0 = s1 + 0x7ff\n  9769: a0 = a0 + 0x761\n  9773: a1 = u64 [s1 + 0xd8]\n  9777: ra = 290, jump @17\n      : @313 [@dyn 145] (gas: 19)\n  9783: a1 = s1 + 0x7ff\n  9787: a1 = a1 + 0xb9\n  9791: a4 = a1 + 0x600\n  9795: a2 = u64 [a4 + 0xc0]\n  9799: a3 = u64 [a4 + 0xb8]\n  9803: a0 = u64 [a4 + 0xb0]\n  9807: a1 = u64 [a4 + 0xa8]\n  9811: u64 [s1 + 0xc8] = a0\n  9815: u64 [s1 + 0xc0] = a2\n  9819: a0 = a0 | a2\n  9822: u64 [s1 + 0xd0] = a1\n  9826: a1 = a1 | a3\n  9829: a1 = a1 | a0\n  9832: a1 = a1 >> 0x20\n  9835: u64 [s1 + 0xb8] = a3\n  9839: a0 = a0 | a3\n  9842: a0 = a0 << 0x20\n  9845: a0 = a0 | a1\n  9848: jump @315 if a0 == 0\n      : @314 (gas: 1)\n  9851: jump @415\n      : @315 (gas: 4)\n  9854: a0 = s1 + 0x7ff\n  9858: a0 = a0 + 0x741\n  9862: a1 = u64 [s1 + 0xd0]\n  9866: ra = 292, jump @17\n      : @316 [@dyn 146] (gas: 19)\n  9872: a0 = s1 + 0x7ff\n  9876: a0 = a0 + 0xb9\n  9880: a4 = a0 + 0x600\n  9884: a3 = u64 [a4 + 0xa0]\n  9888: a2 = u64 [a4 + 0x98]\n  9892: a1 = u64 [a4 + 0x90]\n  9896: a0 = a3 >u 0\n  9898: a4 = a2 >u 0\n  9900: a4 = a0 if a3 != 0\n  9903: u64 [s1 + 0x50] = a1\n  9906: a0 = a1 >u 0\n  9908: u64 [s1 + 0x40] = a2\n  9911: u64 [s1 + 0x30] = a3\n  9914: a2 = a2 | a3\n  9917: u64 [s1 + 0x20] = a0\n  9920: u64 [s1 + 0x28] = a4\n  9923: u64 [s1 + 0xd8] = a2\n  9927: a0 = a4 if a2 != 0\n  9930: jump @318 if a0 == 0\n      : @317 (gas: 1)\n  9933: jump @521\n      : @318 (gas: 8)\n  9936: a0 = s1 + 0x7ff\n  9940: a0 = a0 + 0xb9\n  9944: a0 = u64 [a0 + 0x688]\n  9948: u64 [s1 + 0x58] = a0\n  9951: a0 = s1 + 0x7ff\n  9955: a0 = a0 + 0x721\n  9959: a1 = u64 [s1 + 0x48]\n  9962: ra = 294, jump @21\n      : @319 [@dyn 147] (gas: 16)\n  9968: a4 = s1 + 0x7ff\n  9972: a4 = a4 + 0xb9\n  9976: a5 = a4 + 0x600\n  9980: a2 = u64 [a5 + 0x68]\n  9983: a0 = u64 [a5 + 0x70]\n  9986: a1 = u64 [a5 + 0x78]\n  9989: a3 = u64 [a5 + 0x80]\n  9993: u64 [a5 + 0x40] = a3\n  9996: u64 [a5 + 0x38] = a1\n  9999: u64 [a5 + 0x30] = a0\n 10002: a0 = s1 + 0x7ff\n 10006: a0 = a0 + 0x701\n 10010: a1 = s1 + 0x7ff\n 10014: a1 = a1 + 0x6e1\n 10018: u64 [a5 + 0x28] = a2\n 10021: ra = 296, jump @538\n      : @320 [@dyn 148] (gas: 24)\n 10027: a0 = s1 + 0x7ff\n 10031: a0 = a0 + 0xb9\n 10035: a1 = a0 + 0x600\n 10039: a3 = u64 [a1 + 0x60]\n 10042: a4 = u64 [a1 + 0x58]\n 10045: a5 = u64 [a1 + 0x50]\n 10048: a2 = u64 [a1 + 0x48]\n 10051: a0 = a3 >u 0\n 10053: a1 = a4 >u 0\n 10055: a1 = a0 if a3 != 0\n 10058: a0 = a5 >u 0\n 10060: u64 [s1 + 0x118] = a2\n 10064: a2 = a2 <u 0x20\n 10067: a2 = a2 ^ 0x1\n 10070: u64 [s1 + 0x120] = a5\n 10074: a2 = a0 if a5 != 0\n 10077: u64 [s1 + 0x128] = a3\n 10081: u64 [s1 + 0x130] = a4\n 10085: a0 = a4 | a3\n 10088: a2 = a1 if a0 != 0\n 10091: a0 = u64 [s1 + 0x58]\n 10094: a0 = a0 <u 0x20\n 10097: u64 [s1 + 0xb0] = a0\n 10101: jump @416 if a2 == 0\n      : @321 (gas: 15)\n 10105: a0 = s1 + 0x7ff\n 10109: a0 = a0 + 0xb9\n 10113: a1 = u64 [s1 + 0xf0]\n 10117: a3 = a0 + 0x600\n 10121: u64 [a3 + 0x8] = a1\n 10124: a1 = u64 [s1 + 0xe8]\n 10128: u64 [a3 + 0x10] = a1\n 10131: a1 = u64 [s1 + 0x38]\n 10134: u64 [a3 + 0x18] = a1\n 10137: a1 = s1 + 0x7ff\n 10141: a1 = a1 + 0x6c1\n 10145: a2 = u64 [s1 + 0xe0]\n 10149: u64 [a3 + 0x20] = a2\n 10152: a0 = 0\n 10154: ra = 298, jump @19\n      : @322 [@dyn 149] (gas: 2)\n 10160: a1 = i32 [0x20074]\n 10165: jump @324 if a1 >u 31\n      : @323 (gas: 2)\n 10169: u32 [0x20074] = 0x20\n 10175: fallthrough\n      : @324 (gas: 118)\n 10176: a0 = sp + 0xffffffffffffffe0\n 10179: a2 = a0 & 0xffffffffffffffe0\n 10182: u64 [s1 + 0x100] = a2\n 10186: sp = a2\n 10188: a0 = 0x20080\n 10193: i32 a0 = a0 + 0\n 10195: i32 a2 = a2 + 0\n 10197: a1 = 0x20\n 10200: ecalli 6 // 'hash_keccak_256'\n 10202: a0 = u64 [s1 + 0x58]\n 10205: a1 = a0 + 0x1f\n 10208: a0 = a1 <u a0\n 10211: a5 = u64 [s1 + 0x50]\n 10214: a2 = a5 + a0\n 10217: a3 = a2 <u a5\n 10220: a3 = a0 if a0 == 0\n 10223: a4 = u64 [s1 + 0x40]\n 10226: a3 = a3 + a4\n 10229: u64 [s1 + 0xf8] = a3\n 10233: a3 = a3 << 0x3b\n 10236: a4 = a2 >> 0x5\n 10239: a4 = a4 | a3\n 10242: a0 = u64 [s1 + 0x100]\n 10246: t1 = u64 [a0 + 0x18]\n 10249: a2 = a2 << 0x3b\n 10252: a3 = u64 [a0 + 0x10]\n 10255: a1 = a1 >> 0x5\n 10258: a0 = a1 | a2\n 10261: t2 = reverse t1\n 10263: a2 = reverse a3\n 10265: a1 = u64 [s1 + 0xb0]\n 10269: a1 = 0 if a5 != 0\n 10271: a3 = u64 [s1 + 0xd8]\n 10275: a1 = 0 if a3 != 0\n 10277: a4 = 0 if a1 != 0\n 10279: a0 = 0 if a1 != 0\n 10281: t0 = t2 + a0\n 10284: a0 = t0 <u t2\n 10287: a5 = a2 + a0\n 10290: a4 = a4 + a5\n 10293: u64 [s1 + 0x138] = a4\n 10297: a5 = a4 ^ a2\n 10300: a3 = a4 <u a2\n 10303: a3 = a0 if a5 == 0\n 10306: u64 [s1 + 0x18] = a3\n 10309: a0 = u64 [s1 + 0x118]\n 10313: ra = a0 + 0x1f\n 10316: a4 = ra <u a0\n 10319: a3 = u64 [s1 + 0x120]\n 10323: a0 = a3 + a4\n 10326: a5 = a0 <u a3\n 10329: a5 = a4 if a4 == 0\n 10332: t1 = u64 [s1 + 0x130]\n 10336: t1 = t1 + a5\n 10339: a4 = t1 << 0x3b\n 10342: a3 = a0 >> 0x5\n 10345: a3 = a3 | a4\n 10348: a0 = a0 << 0x3b\n 10351: a4 = ra >> 0x5\n 10354: a0 = a0 | a4\n 10357: a0 = a0 + t2\n 10360: u64 [s1 + 0x110] = a0\n 10364: a0 = a0 <u t2\n 10367: t2 = t0\n 10369: a4 = a2 + a0\n 10372: a4 = a4 + a3\n 10375: a3 = a4 ^ a2\n 10378: u64 [s1 + 0x108] = a4\n 10382: a2 = a4 <u a2\n 10385: a2 = a0 if a3 == 0\n 10388: a4 = u64 [s1 + 0xf8]\n 10392: a0 = u64 [s1 + 0x40]\n 10395: a0 = a4 <u a0\n 10398: a3 = u64 [s1 + 0x30]\n 10401: a0 = a0 + a3\n 10404: a3 = a4 >> 0x5\n 10407: a4 = a0 << 0x3b\n 10410: a3 = a3 | a4\n 10413: a4 = u64 [s1 + 0x100]\n 10417: t0 = u64 [a4]\n 10419: a4 = u64 [a4 + 0x8]\n 10422: a0 = a0 >> 0x5\n 10425: a3 = 0 if a1 != 0\n 10427: a0 = 0 if a1 != 0\n 10429: a1 = reverse a4\n 10431: a4 = reverse t0\n 10433: a0 = a0 + a4\n 10436: a3 = a3 + a1\n 10439: a5 = a3 <u a1\n 10442: a0 = a0 + a5\n 10445: ra = u64 [s1 + 0x18]\n 10448: ra = ra + a3\n 10451: a3 = ra <u a3\n 10454: t0 = a0 + a3\n 10457: a0 = u64 [s1 + 0x130]\n 10461: a0 = t1 <u a0\n 10464: a3 = u64 [s1 + 0x128]\n 10468: a0 = a0 + a3\n 10471: a3 = t1 >> 0x5\n 10474: a5 = a0 << 0x3b\n 10477: a3 = a3 | a5\n 10480: a0 = a0 >> 0x5\n 10483: a0 = a0 + a4\n 10486: a5 = s1 + 0x100\n 10490: a4 = u64 [a5 + 0x38]\n 10493: a3 = a3 + a1\n 10496: a1 = a3 <u a1\n 10499: a0 = a0 + a1\n 10502: a2 = a2 + a3\n 10505: u64 [a5] = a2\n 10507: a1 = a2 <u a3\n 10510: a0 = a0 + a1\n 10513: u64 [s1 + 0xf8] = a0\n 10517: a0 = sp + 0xffffffffffffffe0\n 10520: a0 = a0 & 0xffffffffffffffe0\n 10523: u64 [a5 + 0x30] = a0\n 10526: sp = a0\n 10528: fallthrough\n      : @325 (gas: 25)\n 10529: a0 = u64 [s1 + 0x110]\n 10533: a0 = t2 <u a0\n 10536: a2 = u64 [s1 + 0x108]\n 10540: a1 = a4 ^ a2\n 10543: a2 = a4 <u a2\n 10546: a2 = a0 if a1 == 0\n 10549: a5 = u64 [s1 + 0x100]\n 10553: a0 = ra <u a5\n 10556: a3 = u64 [s1 + 0xf8]\n 10560: a1 = t0 ^ a3\n 10563: a3 = t0 <u a3\n 10566: a3 = a0 if a1 == 0\n 10569: a0 = ra ^ a5\n 10572: a0 = a0 | a1\n 10575: a3 = a2 if a0 == 0\n 10578: u64 [s1 + 0x128] = t2\n 10582: a0 = u64 [s1 + 0x130]\n 10586: u64 [a0] = t2\n 10588: u64 [s1 + 0x138] = a4\n 10592: u64 [a0 + 0x8] = a4\n 10595: u64 [s1 + 0x118] = ra\n 10599: u64 [a0 + 0x10] = ra\n 10602: u64 [s1 + 0x120] = t0\n 10606: u64 [a0 + 0x18] = t0\n 10609: jump @416 if a3 == 0\n      : @326 (gas: 8)\n 10613: a0 = s1 + 0x18d8\n 10617: u64 [a0 + 1184] = 0\n 10621: u64 [a0 + 1176] = 0\n 10625: u64 [a0 + 1168] = 0\n 10629: u64 [a0 + 1160] = 0\n 10633: a1 = s1 + 0x1d60\n 10637: a0 = u64 [s1 + 0x130]\n 10641: ra = 300, jump @23\n      : @327 [@dyn 150] (gas: 14)\n 10647: t2 = u64 [s1 + 0x128]\n 10651: t2 = t2 + 0x1\n 10654: a0 = t2 <u 0x1\n 10657: a4 = u64 [s1 + 0x138]\n 10661: a4 = a4 + a0\n 10664: a0 = t2 | a4\n 10667: a0 = a0 <u 0x1\n 10670: a1 = u64 [s1 + 0x118]\n 10674: a0 = a0 + a1\n 10677: a1 = a0 <u a1\n 10680: t0 = u64 [s1 + 0x120]\n 10684: t0 = t0 + a1\n 10687: ra = a0\n 10689: jump @325\n      : @328 (gas: 10)\n 10692: u64 [a2 + 1472] = 0\n 10696: u64 [a2 + 1464] = 0\n 10700: u64 [a2 + 1456] = 0\n 10704: u64 [a2 + 1448] = 0\n 10708: a0 = s1 + 0x2000\n 10712: i32 a0 = a0 + 0xfffffffffffffe80\n 10716: ra = 0x12e\n 10720: ecalli 11 // 'value_transferred'\n 10722: t0 = 0x130\n 10726: jump @803\n      : @329 [@dyn 151] (gas: 1)\n 10729: t0 = 304, jump @803\n      : @330 [@dyn 152] (gas: 8)\n 10735: a0 = u64 [a4 + 0xb8]\n 10739: a1 = u64 [a4 + 0xc0]\n 10743: a2 = u64 [a4 + 0xb0]\n 10747: a3 = u64 [a4 + 0xa8]\n 10751: a1 = a1 | a2\n 10754: a0 = a0 | a3\n 10757: a0 = a0 | a1\n 10760: jump @332 if a0 == 0\n      : @331 (gas: 1)\n 10763: jump @502\n      : @332 (gas: 3)\n 10766: a0 = u64 [s1 + 0x138]\n 10770: a0 = i32 [a0]\n 10772: jump @334 if a0 >u 67\n      : @333 (gas: 1)\n 10776: jump @503\n      : @334 (gas: 2)\n 10779: a0 = s1 + 0x1940\n 10783: ra = 306, jump @660\n      : @335 [@dyn 153] (gas: 32)\n 10789: a1 = s1 + 0x18d8\n 10793: a0 = u64 [a1 + 0x68]\n 10796: u64 [s1 + 0x118] = a0\n 10800: a0 = u64 [a1 + 0x70]\n 10803: u64 [s1 + 0x110] = a0\n 10807: a0 = u32 [a1 + 0x78]\n 10810: u64 [s1 + 0x108] = a0\n 10814: a0 = s1 + 0x2000\n 10818: i32 a0 = a0 + 0xfffffffffffffea0\n 10822: a1 = 0x24\n 10825: ecalli 1 // 'call_data_load'\n 10827: a1 = s1 + 0x18d8\n 10831: a2 = a1 + 0x500\n 10835: a0 = u64 [a2 + 0xe0]\n 10839: u64 [s1 + 0x120] = a0\n 10843: a0 = u64 [a2 + 0xd8]\n 10847: u64 [s1 + 0x128] = a0\n 10851: a0 = u64 [a2 + 0xd0]\n 10855: u64 [s1 + 0x130] = a0\n 10859: a0 = u64 [a2 + 0xc8]\n 10863: u64 [s1 + 0x138] = a0\n 10867: u64 [a1 + 96] = 0\n 10870: a0 = u64 [s1 + 0x108]\n 10874: u64 [a1 + 0x58] = a0\n 10877: a0 = u64 [s1 + 0x110]\n 10881: u64 [a1 + 0x50] = a0\n 10884: a2 = a1\n 10886: a1 = s1 + 0x1920\n 10890: a0 = u64 [s1 + 0x118]\n 10894: u64 [a2 + 0x48] = a0\n 10897: a0 = 0\n 10899: ra = 308, jump @19\n      : @336 [@dyn 154] (gas: 9)\n 10905: a1 = s1 + 0x18d8\n 10909: u64 [a1 + 64] = 0\n 10912: u64 [a1 + 56] = 0\n 10915: u64 [a1 + 40] = 0x1\n 10919: a2 = a1\n 10921: a0 = 0x20\n 10924: a1 = s1 + 0x1900\n 10928: u64 [a2 + 48] = 0\n 10931: ra = 310, jump @19\n      : @337 [@dyn 155] (gas: 6)\n 10937: a0 = sp + 0xffffffffffffffe0\n 10940: a0 = a0 & 0xffffffffffffffe0\n 10943: u64 [s1 + 0x100] = a0\n 10947: sp = a0\n 10949: a1 = i32 [0x20074]\n 10954: jump @339 if a1 >u 63\n      : @338 (gas: 2)\n 10958: u32 [0x20074] = 0x40\n 10964: fallthrough\n      : @339 (gas: 13)\n 10965: a0 = sp + 0xffffffffffffffe0\n 10968: a2 = a0 & 0xffffffffffffffe0\n 10971: u64 [s1 + 0x118] = a2\n 10975: sp = a2\n 10977: a0 = 0x20080\n 10982: i32 a0 = a0 + 0\n 10984: i32 a2 = a2 + 0\n 10986: a1 = 0x40\n 10989: u64 [s1 + 0xf0] = a0\n 10993: ra = 0x138\n 10997: ecalli 6 // 'hash_keccak_256'\n 10999: t0 = 0x13a\n 11003: jump @789\n      : @340 [@dyn 156] (gas: 1)\n 11006: t0 = 314, jump @789\n      : @341 [@dyn 157] (gas: 2)\n 11012: a0 = s1 + 0x18e0\n 11016: ra = 316, jump @21\n      : @342 [@dyn 158] (gas: 21)\n 11022: a2 = s1 + 0x18d8\n 11026: a0 = u64 [a2 + 0x10]\n 11029: a1 = u64 [a2 + 0x8]\n 11032: t1 = u64 [a2 + 0x18]\n 11035: a3 = u64 [a2 + 0x20]\n 11038: t2 = u64 [s1 + 0x130]\n 11042: a4 = t2 ^ a0\n 11045: a0 = t2 <u a0\n 11048: t0 = u64 [s1 + 0x138]\n 11052: a1 = t0 <u a1\n 11055: a1 = a0 if a4 != 0\n 11058: a5 = u64 [s1 + 0x120]\n 11062: a0 = a5 ^ a3\n 11065: a2 = a5 <u a3\n 11068: a3 = u64 [s1 + 0x128]\n 11072: a4 = a3 <u t1\n 11075: a4 = a2 if a0 != 0\n 11078: a2 = a3 ^ t1\n 11081: a0 = a0 | a2\n 11084: a1 = a4 if a0 != 0\n 11087: jump @344 if a1 != 0\n      : @343 (gas: 1)\n 11090: jump @475\n      : @344 (gas: 23)\n 11093: a0 = sp + 0xffffffffffffffe0\n 11096: a0 = a0 & 0xffffffffffffffe0\n 11099: u64 [s1 + 0x100] = a0\n 11103: sp = a0\n 11105: a1 = s1 + 0x10b8\n 11109: a2 = a1 + 0x700\n 11113: u64 [a2 + 0xc0] = a5\n 11117: u64 [a2 + 0xb8] = a3\n 11121: u64 [a1 + 0x7b0] = t2\n 11125: u64 [a1 + 0x7a8] = t0\n 11129: a0 = u64 [s1 + 0xf8]\n 11133: u64 [a2 + 0xe0] = a0\n 11137: a0 = u64 [s1 + 0x108]\n 11141: u64 [a2 + 0xd8] = a0\n 11145: a0 = u64 [s1 + 0x110]\n 11149: u64 [a2 + 0xd0] = a0\n 11153: a4 = a1\n 11155: a0 = s1 + 0x18a0\n 11159: a1 = s1 + 0x1880\n 11163: a2 = s1 + 0x1860\n 11167: a3 = u64 [s1 + 0x118]\n 11171: u64 [a4 + 0x7c8] = a3\n 11175: ra = 318, jump @664\n      : @345 [@dyn 159] (gas: 22)\n 11181: a3 = s1 + 0x18d8\n 11185: a0 = u64 [a3]\n 11187: u64 [s1 + 0xf8] = a0\n 11191: a4 = a3 + 0xffffffffffffff00\n 11195: a0 = u64 [a4 + 0xf8]\n 11199: u64 [s1 + 0x110] = a0\n 11203: a0 = u64 [a4 + 0xf0]\n 11207: u64 [s1 + 0x108] = a0\n 11211: a0 = u64 [a4 + 0xe8]\n 11215: u64 [s1 + 0x118] = a0\n 11219: a0 = u64 [a4 + 0xd8]\n 11223: a1 = u64 [a4 + 0xe0]\n 11227: a2 = u64 [a4 + 0xc8]\n 11231: a3 = u64 [a4 + 0xd0]\n 11235: a4 = u64 [s1 + 0x100]\n 11239: u64 [a4 + 0x10] = a0\n 11242: u64 [a4 + 0x18] = a1\n 11245: u64 [a4] = a2\n 11247: u64 [a4 + 0x8] = a3\n 11250: a1 = a4\n 11252: a0 = s1 + 0x1840\n 11256: ra = 320, jump @21\n      : @346 [@dyn 160] (gas: 14)\n 11262: a1 = s1 + 0x10b8\n 11266: a2 = a1 + 0x700\n 11270: a0 = u64 [a2 + 0xa0]\n 11274: a1 = s1 + 0x100\n 11278: u64 [a1 + 0x38] = a0\n 11281: a0 = u64 [a2 + 0x98]\n 11285: u64 [a1 + 0x30] = a0\n 11288: a0 = u64 [a2 + 0x90]\n 11292: u64 [a1 + 0x20] = a0\n 11295: a0 = u64 [a2 + 0x88]\n 11299: u64 [a1 + 0x28] = a0\n 11302: a0 = s1 + 0x1820\n 11306: a1 = 0x40\n 11309: ra = 322, jump @17\n      : @347 [@dyn 161] (gas: 14)\n 11315: a3 = s1 + 0x10b8\n 11319: a4 = a3 + 0x700\n 11323: a0 = u64 [a4 + 0x80]\n 11327: a1 = u64 [a4 + 0x78]\n 11330: a2 = u64 [a4 + 0x70]\n 11333: a3 = u64 [a4 + 0x68]\n 11336: a0 = a0 | a2\n 11339: a2 = a3 | a1\n 11342: a2 = a2 | a0\n 11345: a2 = a2 >> 0x20\n 11348: a0 = a0 | a1\n 11351: a0 = a0 << 0x20\n 11354: a0 = a0 | a2\n 11357: jump @415 if a0 != 0\n      : @348 (gas: 1)\n 11361: t0 = 324, jump @786\n      : @349 [@dyn 162] (gas: 5)\n 11367: t0 = t1 >u 0\n 11369: a5 = a3 <u 0x100\n 11373: a5 = a5 ^ 0x1\n 11376: a5 = t0 if t1 != 0\n 11379: t0 = 326, jump @811\n      : @350 [@dyn 163] (gas: 1)\n 11385: ra = 328, jump @820\n      : @351 [@dyn 164] (gas: 1)\n 11391: t0 = 330, jump @806\n      : @352 [@dyn 165] (gas: 1)\n 11397: ra = 332, jump @820\n      : @353 [@dyn 166] (gas: 1)\n 11403: t0 = 334, jump @807\n      : @354 [@dyn 167] (gas: 1)\n 11409: ra = 336, jump @825\n      : @355 [@dyn 168] (gas: 1)\n 11415: t0 = 338, jump @787\n      : @356 [@dyn 169] (gas: 1)\n 11421: ra = 340, jump @820\n      : @357 [@dyn 170] (gas: 1)\n 11427: t0 = 342, jump @793\n      : @358 [@dyn 171] (gas: 8)\n 11433: a5 = a2 + 0x700\n 11437: u64 [a5 + 0x60] = a1\n 11440: u64 [a5 + 0x58] = a0\n 11443: u64 [a5 + 0x50] = a3\n 11446: a1 = s1 + 0x1800\n 11450: u64 [a5 + 0x48] = a4\n 11453: a0 = u64 [s1 + 0x108]\n 11457: ra = 344, jump @19\n      : @359 [@dyn 172] (gas: 3)\n 11463: a1 = 0x20\n 11466: a0 = u64 [s1 + 0x108]\n 11470: ra = 346, jump @27\n      : @360 [@dyn 173] (gas: 6)\n 11476: i32 a1 = a0 + 0\n 11478: a2 = 0x20\n 11481: a0 = 0\n 11483: ecalli 8 // 'seal_return'\n 11485: a1 = 0x20080\n 11490: jump @473\n      : @361 (gas: 10)\n 11493: u64 [a2 + 1440] = 0\n 11497: u64 [a2 + 1432] = 0\n 11501: u64 [a2 + 1424] = 0\n 11505: u64 [a2 + 1416] = 0\n 11509: a0 = s1 + 0x2000\n 11513: i32 a0 = a0 + 0xfffffffffffffe60\n 11517: ra = 0x15c\n 11521: ecalli 11 // 'value_transferred'\n 11523: t0 = 0x15e\n 11527: jump @803\n      : @362 [@dyn 174] (gas: 1)\n 11530: t0 = 350, jump @803\n      : @363 [@dyn 175] (gas: 8)\n 11536: a0 = u64 [a4 + 0x98]\n 11540: a1 = u64 [a4 + 0xa0]\n 11544: a2 = u64 [a4 + 0x90]\n 11548: a3 = u64 [a4 + 0x88]\n 11552: a1 = a1 | a2\n 11555: a0 = a0 | a3\n 11558: a0 = a0 | a1\n 11561: jump @365 if a0 == 0\n      : @364 (gas: 1)\n 11564: jump @504\n      : @365 (gas: 3)\n 11567: a0 = u64 [s1 + 0x138]\n 11571: a0 = i32 [a0]\n 11573: jump @367 if a0 >u 35\n      : @366 (gas: 1)\n 11577: jump @505\n      : @367 (gas: 2)\n 11580: a0 = s1 + 0x17e0\n 11584: ra = 352, jump @660\n      : @368 [@dyn 176] (gas: 12)\n 11590: a3 = s1 + 0x10b8\n 11594: a4 = a3 + 0x700\n 11598: a0 = u64 [a4 + 0x28]\n 11601: a1 = u64 [a4 + 0x30]\n 11604: a2 = u32 [a3 + 0x738]\n 11608: u64 [a3 + 1824] = 0\n 11612: u64 [a4 + 0x18] = a2\n 11615: u64 [a4 + 0x10] = a1\n 11618: a1 = s1 + 0x17c0\n 11622: u64 [a4 + 0x8] = a0\n 11625: a0 = 0\n 11627: ra = 354, jump @19\n      : @369 [@dyn 177] (gas: 3)\n 11633: t0 = 0x164\n 11637: a1 = s1 + 0x10b8\n 11641: fallthrough\n      : @370 [@dyn 178] (gas: 8)\n 11642: u64 [a1 + 1792] = 0\n 11646: u64 [a1 + 1784] = 0\n 11650: u64 [a1 + 1768] = 0x2\n 11655: a2 = a1\n 11657: a0 = 0x20\n 11660: a1 = s1 + 0x17a0\n 11664: u64 [a2 + 1776] = 0\n 11668: ra = 358, jump @19\n      : @371 [@dyn 179] (gas: 6)\n 11674: a0 = sp + 0xffffffffffffffe0\n 11677: a0 = a0 & 0xffffffffffffffe0\n 11680: u64 [s1 + 0x138] = a0\n 11684: sp = a0\n 11686: a1 = i32 [0x20074]\n 11691: jump @373 if a1 >u 63\n      : @372 (gas: 4)\n 11695: a1 = 0x40\n 11698: u32 [0x20074] = a1\n 11703: t0 = 0x168\n 11707: jump @817\n      : @373 (gas: 1)\n 11710: t0 = 360, jump @817\n      : @374 [@dyn 180] (gas: 8)\n 11716: a0 = 0x20080\n 11721: i32 a0 = a0 + 0\n 11723: i32 a2 = a2 + 0\n 11725: a1 = 0x40\n 11728: ra = 0x16a\n 11732: ecalli 6 // 'hash_keccak_256'\n 11734: t0 = 0x16c\n 11738: jump @792\n      : @375 [@dyn 181] (gas: 1)\n 11741: t0 = 364, jump @792\n      : @376 [@dyn 182] (gas: 2)\n 11747: a0 = s1 + 0x1780\n 11751: ra = 366, jump @21\n      : @377 [@dyn 183] (gas: 17)\n 11757: a4 = s1 + 0x10b8\n 11761: a5 = a4 + 0x600\n 11765: a0 = u64 [a5 + 0xe0]\n 11769: a1 = u64 [a5 + 0xd8]\n 11773: a2 = u64 [a5 + 0xd0]\n 11777: a3 = u64 [a5 + 0xc8]\n 11781: u64 [s1 + 0xa0] = a0\n 11785: u64 [a5 + 0xa0] = a0\n 11789: u64 [s1 + 0x98] = a1\n 11793: u64 [a5 + 0x98] = a1\n 11797: u64 [s1 + 0x90] = a2\n 11801: u64 [a5 + 0x90] = a2\n 11805: a0 = s1 + 0x1760\n 11809: a1 = s1 + 0x1740\n 11813: u64 [s1 + 0x88] = a3\n 11817: u64 [a5 + 0x88] = a3\n 11821: ra = 368, jump @717\n      : @378 [@dyn 184] (gas: 15)\n 11827: a1 = s1 + 0x10b8\n 11831: a2 = a1 + 0x600\n 11835: a0 = u64 [a2 + 0xc0]\n 11839: u64 [s1 + 0xd0] = a0\n 11843: a0 = u64 [a2 + 0xb8]\n 11847: u64 [s1 + 0xd8] = a0\n 11851: a0 = u64 [a2 + 0xb0]\n 11855: u64 [s1 + 0xe0] = a0\n 11859: a0 = u64 [a2 + 0xa8]\n 11863: u64 [s1 + 0xe8] = a0\n 11867: t0 = 0\n 11869: a5 = 0\n 11871: t2 = 0\n 11873: t1 = 0\n 11875: fallthrough\n      : @379 (gas: 16)\n 11876: a0 = u64 [s1 + 0x88]\n 11880: a0 = t0 <u a0\n 11883: a2 = u64 [s1 + 0x90]\n 11887: a1 = a5 ^ a2\n 11890: a2 = a5 <u a2\n 11893: a2 = a0 if a1 == 0\n 11896: a4 = u64 [s1 + 0x98]\n 11900: a0 = t2 <u a4\n 11903: a3 = u64 [s1 + 0xa0]\n 11907: a1 = t1 ^ a3\n 11910: a3 = t1 <u a3\n 11913: a3 = a0 if a1 == 0\n 11916: a0 = t2 ^ a4\n 11919: a0 = a0 | a1\n 11922: a3 = a2 if a0 == 0\n 11925: jump @404 if a3 == 0\n      : @380 (gas: 27)\n 11929: a0 = sp + 0xffffffffffffffe0\n 11932: a0 = a0 & 0xffffffffffffffe0\n 11935: u64 [s1 + 0x118] = a0\n 11939: sp = a0\n 11941: a1 = s1 + 0x10b8\n 11945: u64 [a1 + 0x5a0] = t1\n 11949: u64 [a1 + 0x598] = t2\n 11953: a2 = a1 + 0x500\n 11957: u64 [a2 + 0x90] = a5\n 11961: u64 [a1 + 0x588] = t0\n 11965: a0 = u64 [s1 + 0x68]\n 11968: u64 [a2 + 0xc0] = a0\n 11972: a0 = u64 [s1 + 0x70]\n 11975: u64 [a2 + 0xb8] = a0\n 11979: a0 = u64 [s1 + 0x78]\n 11982: u64 [a2 + 0xb0] = a0\n 11986: a4 = a1\n 11988: a0 = s1 + 0x1680\n 11992: a1 = s1 + 0x1660\n 11996: a2 = s1 + 0x1640\n 12000: a3 = u64 [s1 + 0x80]\n 12004: u64 [a4 + 0x5a8] = a3\n 12008: u64 [s1 + 0x138] = t0\n 12012: u64 [s1 + 0x130] = a5\n 12016: u64 [s1 + 0x128] = t1\n 12020: u64 [s1 + 0x120] = t2\n 12024: ra = 370, jump @664\n      : @381 [@dyn 185] (gas: 22)\n 12030: a3 = s1 + 0x10b8\n 12034: a0 = u64 [a3 + 0x600]\n 12038: u64 [s1 + 0xf8] = a0\n 12042: a4 = a3 + 0x500\n 12046: a0 = u64 [a4 + 0xf8]\n 12050: u64 [s1 + 0xc8] = a0\n 12054: a0 = u64 [a4 + 0xf0]\n 12058: u64 [s1 + 0xc0] = a0\n 12062: a0 = u64 [a4 + 0xe8]\n 12066: u64 [s1 + 0xf0] = a0\n 12070: a0 = u64 [a4 + 0xd8]\n 12074: a1 = u64 [a4 + 0xe0]\n 12078: a2 = u64 [a4 + 0xc8]\n 12082: a3 = u64 [a4 + 0xd0]\n 12086: a4 = u64 [s1 + 0x118]\n 12090: u64 [a4 + 0x10] = a0\n 12093: u64 [a4 + 0x18] = a1\n 12096: u64 [a4] = a2\n 12098: u64 [a4 + 0x8] = a3\n 12101: a1 = a4\n 12103: a0 = s1 + 0x1620\n 12107: ra = 372, jump @21\n      : @382 [@dyn 186] (gas: 10)\n 12113: a2 = s1 + 0x10b8\n 12117: a3 = a2 + 0x500\n 12121: a1 = u64 [a3 + 0x68]\n 12124: u64 [s1 + 0x118] = a1\n 12128: a0 = u64 [a3 + 0x70]\n 12131: u64 [s1 + 0x110] = a0\n 12135: a0 = u64 [a3 + 0x78]\n 12138: u64 [s1 + 0x108] = a0\n 12142: a1 = u64 [a3 + 0x80]\n 12146: t0 = 374, jump @802\n      : @383 [@dyn 187] (gas: 19)\n 12152: t0 = a2 | a3\n 12155: a2 = a5 >> 0x3d\n 12158: a3 = u64 [s1 + 0xf8]\n 12162: a3 = a3 << 0x3\n 12165: a2 = a2 | a3\n 12168: t2 = t2 << 0x3\n 12171: u64 [s1 + 0xf8] = t2\n 12175: a3 = t1 >u 0\n 12177: a4 = t2 <u 0x100\n 12181: a5 = a4 ^ 0x1\n 12184: a5 = a3 if t1 != 0\n 12187: a4 = a2 >u 0\n 12189: a3 = t0 >u 0\n 12191: a3 = a4 if a2 != 0\n 12194: a2 = t0 | a2\n 12197: a5 = a3 if a2 != 0\n 12200: u64 [s1 + 0xc8] = a5\n 12204: i32 a2 = t2 + 0xffffffffffffff80\n 12207: ra = 376, jump @820\n      : @384 [@dyn 188] (gas: 1)\n 12213: t0 = 378, jump @816\n      : @385 [@dyn 189] (gas: 1)\n 12219: ra = 380, jump @820\n      : @386 [@dyn 190] (gas: 1)\n 12225: t0 = 382, jump @810\n      : @387 [@dyn 191] (gas: 1)\n 12231: ra = 384, jump @825\n      : @388 [@dyn 192] (gas: 1)\n 12237: t0 = 386, jump @788\n      : @389 [@dyn 193] (gas: 1)\n 12243: ra = 388, jump @820\n      : @390 [@dyn 194] (gas: 1)\n 12249: t0 = 390, jump @796\n      : @391 [@dyn 195] (gas: 9)\n 12255: a2 = s1 + 0x10b8\n 12259: a5 = a2 + 0x500\n 12263: u64 [a5 + 0x20] = a1\n 12266: u64 [a5 + 0x18] = a0\n 12269: u64 [a5 + 0x10] = a3\n 12272: a0 = s1 + 0x15e0\n 12276: a1 = s1 + 0x15c0\n 12280: u64 [a5 + 0x8] = a4\n 12283: ra = 392, jump @527\n      : @392 [@dyn 196] (gas: 14)\n 12289: a4 = s1 + 0x10b8\n 12293: a5 = a4 + 0x500\n 12297: a2 = u64 [a5 + 0x28]\n 12300: a0 = u64 [a5 + 0x30]\n 12303: a1 = u64 [a5 + 0x38]\n 12306: a3 = u64 [a5 + 0x40]\n 12309: a5 = a4 + 0x400\n 12313: u64 [a5 + 0xe0] = a3\n 12317: u64 [a5 + 0xd8] = a1\n 12321: u64 [a5 + 0xd0] = a0\n 12325: a0 = s1 + 0x15a0\n 12329: a1 = s1 + 0x1580\n 12333: u64 [a5 + 0xc8] = a2\n 12337: ra = 394, jump @683\n      : @393 [@dyn 197] (gas: 32)\n 12343: a0 = s1 + 0x10b8\n 12347: a1 = u64 [a0 + 0x500]\n 12351: a2 = s1 + 0x100\n 12355: u64 [a2 + 0x18] = a1\n 12358: a3 = a0 + 0x400\n 12362: a1 = u64 [a3 + 0xf8]\n 12366: u64 [a2 + 0x10] = a1\n 12369: a1 = u64 [a3 + 0xf0]\n 12373: u64 [a2 + 0x8] = a1\n 12376: a1 = u64 [a3 + 0xe8]\n 12380: u64 [a2] = a1\n 12382: a1 = u64 [a2 + 0x28]\n 12385: u64 [a3 + 0x80] = a1\n 12389: a1 = u64 [a2 + 0x20]\n 12392: u64 [a3 + 0x78] = a1\n 12395: a1 = u64 [a2 + 0x30]\n 12398: u64 [a3 + 0x70] = a1\n 12401: a1 = u64 [a2 + 0x38]\n 12404: u64 [a3 + 0x68] = a1\n 12407: a1 = u64 [s1 + 0xd0]\n 12411: u64 [a3 + 0xa0] = a1\n 12415: a1 = u64 [s1 + 0xd8]\n 12419: u64 [a3 + 0x98] = a1\n 12423: a1 = u64 [s1 + 0xe0]\n 12427: u64 [a3 + 0x90] = a1\n 12431: a4 = a0\n 12433: a0 = s1 + 0x1560\n 12437: a1 = s1 + 0x1540\n 12441: a2 = s1 + 0x1520\n 12445: a3 = u64 [s1 + 0xe8]\n 12449: u64 [a4 + 0x488] = a3\n 12453: ra = 396, jump @754\n      : @394 [@dyn 198] (gas: 14)\n 12459: a4 = s1 + 0x10b8\n 12463: a5 = a4 + 0x400\n 12467: a1 = u64 [a5 + 0xc0]\n 12471: a2 = u64 [a5 + 0xb8]\n 12475: a3 = u64 [a5 + 0xb0]\n 12479: a0 = u64 [a5 + 0xa8]\n 12483: a1 = a1 | a3\n 12486: a3 = a0 | a2\n 12489: a3 = a3 | a1\n 12492: a3 = a3 >> 0x20\n 12495: a1 = a1 | a2\n 12498: a1 = a1 << 0x20\n 12501: a1 = a1 | a3\n 12504: jump @415 if a1 != 0\n      : @395 (gas: 11)\n 12508: a1 = u64 [s1 + 0x100]\n 12512: a3 = a4 + 0x400\n 12516: u64 [a3 + 0x48] = a1\n 12519: a1 = u64 [s1 + 0x108]\n 12523: u64 [a3 + 0x50] = a1\n 12526: a1 = u64 [s1 + 0x110]\n 12530: u64 [a3 + 0x58] = a1\n 12533: a1 = s1 + 0x1500\n 12537: a2 = u64 [s1 + 0x118]\n 12541: u64 [a3 + 0x60] = a2\n 12544: ra = 398, jump @19\n      : @396 [@dyn 199] (gas: 3)\n 12550: t0 = 0x190\n 12554: a1 = s1 + 0x10b8\n 12558: fallthrough\n      : @397 [@dyn 200] (gas: 23)\n 12559: a0 = u64 [s1 + 0x128]\n 12563: a2 = a1 + 0x400\n 12567: u64 [a2] = a0\n 12569: a0 = u64 [s1 + 0x120]\n 12573: a3 = a1 + 0x300\n 12577: u64 [a3 + 0xf8] = a0\n 12581: a0 = u64 [s1 + 0x130]\n 12585: u64 [a3 + 0xf0] = a0\n 12589: a0 = u64 [s1 + 0x138]\n 12593: u64 [a3 + 0xe8] = a0\n 12597: a0 = u64 [s1 + 0xd0]\n 12601: u64 [a2 + 0x20] = a0\n 12604: a0 = u64 [s1 + 0xd8]\n 12608: u64 [a2 + 0x18] = a0\n 12611: a0 = u64 [s1 + 0xe0]\n 12615: u64 [a2 + 0x10] = a0\n 12618: a4 = a1\n 12620: a0 = s1 + 0x14e0\n 12624: a1 = s1 + 0x14c0\n 12628: a2 = s1 + 0x14a0\n 12632: a3 = u64 [s1 + 0xe8]\n 12636: u64 [a4 + 0x408] = a3\n 12640: ra = 402, jump @754\n      : @398 [@dyn 201] (gas: 14)\n 12646: t1 = u64 [s1 + 0x128]\n 12650: a5 = u64 [s1 + 0x130]\n 12654: t0 = u64 [s1 + 0x138]\n 12658: t0 = t0 + 0x1\n 12661: a0 = t0 <u 0x1\n 12664: a5 = a5 + a0\n 12667: a0 = t0 | a5\n 12670: a0 = a0 <u 0x1\n 12673: a1 = u64 [s1 + 0x120]\n 12677: a0 = a0 + a1\n 12680: a1 = a0 <u a1\n 12683: t1 = t1 + a1\n 12686: t2 = a0\n 12688: jump @379\n      : @399 (gas: 4)\n 12691: a0 = s1 + 0x7ff\n 12695: a0 = a0 + 0x201\n 12699: a1 = 0x40\n 12702: ra = 404, jump @17\n      : @400 [@dyn 202] (gas: 31)\n 12708: a1 = s1 + 0x7ff\n 12712: a1 = a1 + 0xb9\n 12716: a3 = u64 [a1 + 0x160]\n 12720: u64 [s1 + 0x138] = a3\n 12724: a2 = u64 [a1 + 0x158]\n 12728: u64 [s1 + 0x130] = a2\n 12732: a4 = u64 [a1 + 0x150]\n 12736: u64 [s1 + 0x128] = a4\n 12740: a5 = u64 [a1 + 0x148]\n 12744: u64 [s1 + 0x120] = a5\n 12748: a0 = u64 [s1 + 0xd0]\n 12752: u64 [a1 + 0x100] = a0\n 12756: a0 = u64 [s1 + 0xd8]\n 12760: u64 [a1 + 0xf8] = a0\n 12764: a0 = u64 [s1 + 0xe0]\n 12768: u64 [a1 + 0xf0] = a0\n 12772: a0 = u64 [s1 + 0xe8]\n 12776: u64 [a1 + 0xe8] = a0\n 12780: a0 = a1 + 0x100\n 12784: u64 [a0 + 0x20] = a3\n 12787: u64 [a0 + 0x18] = a2\n 12790: u64 [a0 + 0x10] = a4\n 12793: a3 = a1\n 12795: a0 = s1 + 0x7ff\n 12799: a0 = a0 + 0x1e1\n 12803: a1 = s1 + 0x7ff\n 12807: a1 = a1 + 0x1c1\n 12811: a2 = s1 + 0x7ff\n 12815: a2 = a2 + 0x1a1\n 12819: u64 [a3 + 0x108] = a5\n 12823: ra = 406, jump @604\n      : @401 [@dyn 203] (gas: 1)\n 12829: t0 = 408, jump @791\n      : @402 [@dyn 204] (gas: 1)\n 12835: jump @415 if a0 != 0\n      : @403 (gas: 10)\n 12839: t0 = a3\n 12841: a1 = s1 + 0x7ff\n 12845: a1 = a1 + 0xb9\n 12849: a5 = a1 + 0x100\n 12853: a0 = u64 [a5 + 0x30]\n 12856: a3 = u64 [a5 + 0x40]\n 12859: u64 [s1 + 0x118] = a3\n 12863: t1 = u64 [a1 + 0x128]\n 12867: a3 = u64 [a5 + 0x38]\n 12870: jump @414\n      : @404 (gas: 3)\n 12873: a0 = s1 + 0x1720\n 12877: a1 = 0x40\n 12880: ra = 410, jump @17\n      : @405 [@dyn 205] (gas: 25)\n 12886: a3 = s1 + 0x10b8\n 12890: a2 = u64 [a3 + 0x680]\n 12894: u64 [s1 + 0x138] = a2\n 12898: a1 = u64 [a3 + 0x678]\n 12902: u64 [s1 + 0x130] = a1\n 12906: a4 = u64 [a3 + 0x670]\n 12910: u64 [s1 + 0x128] = a4\n 12914: a5 = u64 [a3 + 0x668]\n 12918: u64 [s1 + 0x120] = a5\n 12922: a0 = u64 [s1 + 0xd0]\n 12926: u64 [a3 + 0x620] = a0\n 12930: a0 = u64 [s1 + 0xd8]\n 12934: u64 [a3 + 0x618] = a0\n 12938: a0 = u64 [s1 + 0xe0]\n 12942: u64 [a3 + 0x610] = a0\n 12946: a0 = u64 [s1 + 0xe8]\n 12950: u64 [a3 + 0x608] = a0\n 12954: u64 [a3 + 0x640] = a2\n 12958: u64 [a3 + 0x638] = a1\n 12962: u64 [a3 + 0x630] = a4\n 12966: a0 = s1 + 0x1700\n 12970: a1 = s1 + 0x16e0\n 12974: a2 = s1 + 0x16c0\n 12978: u64 [a3 + 0x628] = a5\n 12982: ra = 412, jump @604\n      : @406 [@dyn 206] (gas: 1)\n 12988: t0 = 414, jump @791\n      : @407 [@dyn 207] (gas: 1)\n 12994: jump @415 if a0 != 0\n      : @408 (gas: 9)\n 12998: t0 = a3\n 13000: a1 = s1 + 0x10b8\n 13004: a5 = a1 + 0x600\n 13008: a0 = u64 [a5 + 0x50]\n 13011: a3 = u64 [a5 + 0x60]\n 13014: u64 [s1 + 0x118] = a3\n 13018: t1 = u64 [a1 + 0x648]\n 13022: a3 = u64 [a5 + 0x58]\n 13025: jump @414\n      : @409 (gas: 3)\n 13028: a0 = s1 + 0x660\n 13032: a1 = 0x40\n 13035: ra = 416, jump @17\n      : @410 [@dyn 208] (gas: 25)\n 13041: a5 = s1 + 0x600\n 13045: a2 = u64 [a5 + 0x78]\n 13048: u64 [s1 + 0x138] = a2\n 13052: a1 = u64 [a5 + 0x70]\n 13055: u64 [s1 + 0x130] = a1\n 13059: a3 = u64 [a5 + 0x68]\n 13062: u64 [s1 + 0x128] = a3\n 13066: a4 = u64 [a5 + 0x60]\n 13069: u64 [s1 + 0x120] = a4\n 13073: a0 = u64 [s1 + 0x80]\n 13077: u64 [a5 + 0x18] = a0\n 13080: a0 = u64 [s1 + 0x88]\n 13084: u64 [a5 + 0x10] = a0\n 13087: a0 = u64 [s1 + 0x90]\n 13091: u64 [a5 + 0x8] = a0\n 13094: a0 = u64 [s1 + 0x98]\n 13098: u64 [a5] = a0\n 13100: u64 [a5 + 0x38] = a2\n 13103: u64 [a5 + 0x30] = a1\n 13106: u64 [a5 + 0x28] = a3\n 13109: a0 = s1 + 0x640\n 13113: a1 = s1 + 0x620\n 13117: a2 = s1 + 0x600\n 13121: u64 [a5 + 0x20] = a4\n 13124: ra = 418, jump @604\n      : @411 [@dyn 209] (gas: 1)\n 13130: t0 = 420, jump @791\n      : @412 [@dyn 210] (gas: 1)\n 13136: jump @415 if a0 != 0\n      : @413 (gas: 8)\n 13139: t0 = a3\n 13141: a5 = s1 + 0x600\n 13145: a0 = u64 [a5 + 0x48]\n 13148: a1 = u64 [a5 + 0x58]\n 13151: u64 [s1 + 0x118] = a1\n 13155: t1 = u64 [s1 + 0x640]\n 13159: a3 = u64 [a5 + 0x50]\n 13162: fallthrough\n      : @414 (gas: 26)\n 13163: t2 = a0 ^ a4\n 13166: a5 = a0 <u a4\n 13169: ra = t1 <u a2\n 13172: a5 = ra if t2 == 0\n 13175: a1 = a3 - t0\n 13178: t2 = a1 - a5\n 13181: a1 = a1 <u a5\n 13184: u64 [s1 + 0x110] = a1\n 13188: a3 = a3 <u t0\n 13191: a5 = u64 [s1 + 0x138]\n 13195: a1 = u64 [s1 + 0x118]\n 13199: a5 = a1 - a5\n 13202: a5 = a5 - a3\n 13205: a1 = u64 [s1 + 0x110]\n 13209: a5 = a5 - a1\n 13212: a0 = a0 - a4\n 13215: a0 = a0 - ra\n 13218: a1 = t1 - a2\n 13221: a0 = a0 | a5\n 13224: a3 = a1 | t2\n 13227: a3 = a3 | a0\n 13230: a0 = a0 | t2\n 13233: a3 = a3 >> 0x20\n 13236: a0 = a0 << 0x20\n 13239: a0 = a0 | a3\n 13242: jump @506 if a0 == 0\n      : @415 (gas: 1)\n 13246: trap\n      : @416 (gas: 9)\n 13247: a0 = u64 [s1 + 0xb0]\n 13251: a0 = a0 ^ 0x1\n 13254: a1 = u64 [s1 + 0x50]\n 13257: a2 = u64 [s1 + 0x20]\n 13260: a0 = a2 if a1 != 0\n 13263: a1 = u64 [s1 + 0x28]\n 13266: a2 = u64 [s1 + 0xd8]\n 13270: a0 = a1 if a2 != 0\n 13273: jump @425 if a0 == 0\n      : @417 (gas: 18)\n 13277: a0 = u64 [s1 + 0x58]\n 13280: a0 = a0 & 0xffffffffffffffe0\n 13283: u64 [s1 + 0xb0] = a0\n 13287: a0 = s1 + 0x7ff\n 13291: a0 = a0 + 0xb9\n 13295: a1 = u64 [s1 + 0xf0]\n 13299: a3 = a0 + 0x500\n 13303: u64 [a3 + 0xc8] = a1\n 13307: a1 = u64 [s1 + 0xe8]\n 13311: u64 [a3 + 0xd0] = a1\n 13315: a1 = u64 [s1 + 0x38]\n 13318: u64 [a3 + 0xd8] = a1\n 13322: a1 = s1 + 0x7ff\n 13326: a1 = a1 + 0x681\n 13330: a2 = u64 [s1 + 0xe0]\n 13334: u64 [a3 + 0xe0] = a2\n 13338: a0 = 0\n 13340: ra = 422, jump @19\n      : @418 [@dyn 211] (gas: 7)\n 13346: a0 = sp + 0xffffffffffffffe0\n 13349: a0 = a0 & 0xffffffffffffffe0\n 13352: u64 [s1 + 0x110] = a0\n 13356: sp = a0\n 13358: a1 = 0x20\n 13361: a0 = 0\n 13363: ra = 424, jump @27\n      : @419 [@dyn 212] (gas: 35)\n 13369: a1 = sp + 0xffffffffffffffe0\n 13372: a1 = a1 & 0xffffffffffffffe0\n 13375: u64 [s1 + 0x108] = a1\n 13379: sp = a1\n 13381: i32 a0 = a0 + 0\n 13383: i32 a2 = a1 + 0\n 13385: a1 = 0x20\n 13388: ecalli 6 // 'hash_keccak_256'\n 13390: u64 [s1 + 312] = 0x20\n 13395: a5 = 0\n 13397: u64 [s1 + 304] = 0\n 13401: u64 [s1 + 296] = 0\n 13405: u64 [s1 + 280] = 0\n 13409: u64 [s1 + 288] = 0\n 13413: a3 = u64 [s1 + 0x108]\n 13417: a0 = u64 [a3 + 0x18]\n 13420: a1 = u64 [a3 + 0x10]\n 13423: a2 = u64 [a3 + 0x8]\n 13426: a3 = u64 [a3]\n 13428: t1 = reverse a0\n 13430: t2 = reverse a1\n 13432: ra = reverse a2\n 13434: a2 = 0\n 13436: a4 = u64 [s1 + 0x118]\n 13440: a0 = reverse a3\n 13442: a3 = 0\n 13444: t0 = a0\n 13446: a1 = u64 [s1 + 0x110]\n 13450: u64 [a1 + 0x18] = a0\n 13453: a0 = ra\n 13455: u64 [s1 + 0xf0] = a0\n 13459: u64 [a1 + 0x10] = a0\n 13462: u64 [a1 + 0x8] = t2\n 13465: u64 [a1] = t1\n 13467: fallthrough\n      : @420 (gas: 24)\n 13468: u64 [s1 + 0x108] = t0\n 13472: a0 = u64 [s1 + 0xb0]\n 13476: u64 [s1 + 0x118] = a4\n 13480: a0 = a4 <u a0\n 13483: a4 = a0 ^ 0x1\n 13486: u64 [s1 + 0xf8] = a3\n 13490: a4 = 0x1 if a3 != 0\n 13493: u64 [s1 + 0x100] = a2\n 13497: a0 = u64 [s1 + 0x120]\n 13501: a0 = a0 | a2\n 13504: a4 = 0x1 if a0 != 0\n 13507: a1 = u64 [s1 + 0xd0]\n 13511: a0 = u64 [s1 + 0x138]\n 13515: a1 = a1 + a0\n 13518: a3 = u64 [s1 + 0xc8]\n 13522: a3 = a3 + a5\n 13525: a2 = u64 [s1 + 0xb8]\n 13529: a0 = u64 [s1 + 0x130]\n 13533: a2 = a2 + a0\n 13536: a0 = u64 [s1 + 0xc0]\n 13540: ra = a5\n 13542: a5 = u64 [s1 + 0x128]\n 13546: a0 = a0 + a5\n 13549: jump @427 if a4 != 0\n      : @421 (gas: 23)\n 13553: a4 = u64 [s1 + 0x138]\n 13557: a4 = a1 <u a4\n 13560: a3 = a3 + a4\n 13563: t0 = a3 ^ ra\n 13566: u64 [s1 + 0xd8] = ra\n 13570: a5 = a3 <u ra\n 13573: a5 = a4 if t0 == 0\n 13576: a5 = a5 + a2\n 13579: t0 = a5 <u a2\n 13582: a4 = u64 [s1 + 0x130]\n 13586: a2 = a2 <u a4\n 13589: a0 = a0 + a2\n 13592: a0 = a0 + t0\n 13595: a2 = a1 | a5\n 13598: a0 = a0 | a3\n 13601: a2 = a2 | a0\n 13604: a2 = a2 >> 0x20\n 13607: a0 = a0 | a5\n 13610: a0 = a0 << 0x20\n 13613: a0 = a0 | a2\n 13616: u64 [s1 + 0xe8] = t1\n 13620: u64 [s1 + 0xe0] = t2\n 13624: jump @415 if a0 != 0\n      : @422 (gas: 3)\n 13628: a0 = s1 + 0x7ff\n 13632: a0 = a0 + 0x3a1\n 13636: ra = 426, jump @17\n      : @423 [@dyn 213] (gas: 16)\n 13642: a3 = s1 + 0x7ff\n 13646: a3 = a3 + 0xb9\n 13650: a0 = u64 [a3 + 0x300]\n 13654: a4 = a3 + 0x200\n 13658: a1 = u64 [a4 + 0xf8]\n 13662: a2 = u64 [a4 + 0xf0]\n 13666: a3 = u64 [a4 + 0xe8]\n 13670: a4 = s1 + 0x18d8\n 13674: a5 = a4 + 0x400\n 13678: u64 [a5 + 0xc0] = a0\n 13682: u64 [a5 + 0xb8] = a1\n 13686: u64 [a5 + 0xb0] = a2\n 13690: u64 [a5 + 0xa8] = a3\n 13694: a1 = s1 + 0x1d80\n 13698: a0 = u64 [s1 + 0x110]\n 13702: ra = 428, jump @23\n      : @424 [@dyn 214] (gas: 53)\n 13708: t1 = u64 [s1 + 0xe8]\n 13712: t1 = t1 + 0x1\n 13715: a0 = t1 <u 0x1\n 13718: t2 = u64 [s1 + 0xe0]\n 13722: t2 = t2 + a0\n 13725: a0 = t1 | t2\n 13728: a0 = a0 <u 0x1\n 13731: a1 = u64 [s1 + 0xf0]\n 13735: ra = a1 + a0\n 13738: a1 = ra <u a1\n 13741: a0 = u64 [s1 + 0x108]\n 13745: a0 = a0 + a1\n 13748: a1 = u64 [s1 + 0x138]\n 13752: a2 = a1 + 0x20\n 13755: u64 [s1 + 0x108] = a2\n 13759: a3 = a2 <u a1\n 13762: a1 = u64 [s1 + 0xd8]\n 13766: a2 = a1 + a3\n 13769: u64 [s1 + 0xe8] = a2\n 13773: a4 = a2 <u a1\n 13776: a4 = a3 if a3 == 0\n 13779: a1 = u64 [s1 + 0x130]\n 13783: a3 = a1 + a4\n 13786: a4 = a3 <u a1\n 13789: a1 = u64 [s1 + 0x128]\n 13793: a1 = a1 + a4\n 13796: u64 [s1 + 0x128] = a1\n 13800: a1 = u64 [s1 + 0x118]\n 13804: a4 = a1 + 0x20\n 13807: a5 = a4 <u a1\n 13810: a2 = u64 [s1 + 0xf8]\n 13814: a1 = a2 + a5\n 13817: a2 = a1 <u a2\n 13820: a2 = a5 if a5 == 0\n 13823: a5 = u64 [s1 + 0x100]\n 13827: a2 = a2 + a5\n 13830: a5 = a2 <u a5\n 13833: t0 = u64 [s1 + 0x120]\n 13837: t0 = t0 + a5\n 13840: u64 [s1 + 0x120] = t0\n 13844: a5 = u64 [s1 + 0x110]\n 13848: u64 [a5 + 0x8] = t2\n 13851: u64 [a5] = t1\n 13853: u64 [a5 + 0x10] = ra\n 13856: t0 = a0\n 13858: u64 [a5 + 0x18] = a0\n 13861: u64 [s1 + 0xf0] = ra\n 13865: a0 = u64 [s1 + 0x108]\n 13869: u64 [s1 + 0x138] = a0\n 13873: a5 = u64 [s1 + 0xe8]\n 13877: u64 [s1 + 0x130] = a3\n 13881: a3 = a1\n 13883: jump @420\n      : @425 (gas: 8)\n 13886: a0 = u64 [s1 + 0x58]\n 13889: a1 = u64 [s1 + 0x40]\n 13892: a0 = a0 | a1\n 13895: a1 = u64 [s1 + 0x50]\n 13898: a2 = u64 [s1 + 0x30]\n 13901: a1 = a1 | a2\n 13904: a0 = a0 | a1\n 13907: jump @435 if a0 != 0\n      : @426 (gas: 5)\n 13911: u64 [s1 + 224] = 0\n 13915: u64 [s1 + 216] = 0\n 13919: u64 [s1 + 232] = 0\n 13923: u64 [s1 + 240] = 0\n 13927: jump @438\n      : @427 (gas: 12)\n 13930: t2 = u64 [s1 + 0x130]\n 13934: t1 = u64 [s1 + 0x138]\n 13938: a4 = u64 [s1 + 0x58]\n 13941: a5 = u64 [s1 + 0xb0]\n 13945: a4 = a4 ^ a5\n 13948: a5 = u64 [s1 + 0x40]\n 13951: t0 = a4 | a5\n 13954: a5 = u64 [s1 + 0x50]\n 13957: a4 = u64 [s1 + 0x30]\n 13960: a5 = a5 | a4\n 13963: a4 = t0 | a5\n 13966: jump @434 if a4 == 0\n      : @428 (gas: 18)\n 13970: a4 = a1 <u t1\n 13973: a3 = a3 + a4\n 13976: t0 = a3 ^ ra\n 13979: a5 = a3 <u ra\n 13982: a5 = a4 if t0 == 0\n 13985: a5 = a5 + a2\n 13988: a4 = a5 <u a2\n 13991: a2 = a2 <u t2\n 13994: a0 = a0 + a2\n 13997: a0 = a0 + a4\n 14000: a2 = a1 | a5\n 14003: a0 = a0 | a3\n 14006: a2 = a2 | a0\n 14009: a2 = a2 >> 0x20\n 14012: a0 = a0 | a5\n 14015: a0 = a0 << 0x20\n 14018: a0 = a0 | a2\n 14021: jump @415 if a0 != 0\n      : @429 (gas: 3)\n 14025: a0 = s1 + 0x7ff\n 14029: a0 = a0 + 0x661\n 14033: ra = 430, jump @17\n      : @430 [@dyn 215] (gas: 19)\n 14039: a0 = s1 + 0x7ff\n 14043: a0 = a0 + 0xb9\n 14047: a2 = a0 + 0x500\n 14051: a1 = u64 [a2 + 0xc0]\n 14055: u64 [s1 + 0x130] = a1\n 14059: a1 = u64 [a2 + 0xb8]\n 14063: u64 [s1 + 0x128] = a1\n 14067: a1 = u64 [a2 + 0xb0]\n 14071: u64 [s1 + 0x120] = a1\n 14075: a0 = u64 [a2 + 0xa8]\n 14079: u64 [s1 + 0x118] = a0\n 14083: a0 = u64 [s1 + 0x58]\n 14086: a0 = a0 << 0x3b\n 14089: a1 = a0 >> 0x38\n 14092: u64 [s1 + 0x138] = a1\n 14096: a2 = 0x80 - a1\n 14100: a0 = 0xffffffffffffffff\n 14103: a1 = 0xffffffffffffffff\n 14106: ra = 432, jump @825\n      : @431 [@dyn 216] (gas: 6)\n 14112: u64 [s1 + 0x108] = a0\n 14116: u64 [s1 + 0xf0] = a1\n 14120: a0 = 0xffffffffffffffff\n 14123: a1 = 0xffffffffffffffff\n 14126: a2 = u64 [s1 + 0x138]\n 14130: ra = 434, jump @820\n      : @432 [@dyn 217] (gas: 10)\n 14136: u64 [s1 + 0xf8] = a0\n 14140: u64 [s1 + 0x100] = a1\n 14144: a0 = u64 [s1 + 0xf0]\n 14148: a0 = a0 | a1\n 14151: u64 [s1 + 0xf0] = a0\n 14155: a0 = u64 [s1 + 0x138]\n 14159: a2 = a0 + 0xffffffffffffff80\n 14162: a0 = 0xffffffffffffffff\n 14165: a1 = 0xffffffffffffffff\n 14168: ra = 436, jump @820\n      : @433 [@dyn 218] (gas: 30)\n 14174: a4 = u64 [s1 + 0x138]\n 14178: a2 = a4 <u 0x80\n 14182: a3 = u64 [s1 + 0xf0]\n 14186: a1 = a3 if a2 != 0\n 14189: a5 = u64 [s1 + 0xf8]\n 14193: a3 = u64 [s1 + 0x108]\n 14197: a3 = a3 | a5\n 14200: a3 = a0 if a2 == 0\n 14203: a1 = 0xffffffffffffffff if a4 == 0\n 14206: a3 = 0xffffffffffffffff if a4 == 0\n 14209: a4 = u64 [s1 + 0x100]\n 14213: a4 = 0 if a2 == 0\n 14215: a5 = 0 if a2 == 0\n 14217: a0 = u64 [s1 + 0x118]\n 14221: a0 = a0 & ~a3\n 14224: a2 = u64 [s1 + 0x120]\n 14228: a1 = a2 & ~a1\n 14231: a2 = u64 [s1 + 0x128]\n 14235: a2 = a2 & ~a5\n 14238: a3 = u64 [s1 + 0x130]\n 14242: a3 = a3 & ~a4\n 14245: a4 = s1 + 0x18d8\n 14249: a5 = a4 + 0x400\n 14253: u64 [a5 + 0xe0] = a3\n 14257: u64 [a5 + 0xd8] = a2\n 14261: u64 [a5 + 0xd0] = a1\n 14265: u64 [a5 + 0xc8] = a0\n 14269: a1 = s1 + 0x1da0\n 14273: a0 = u64 [s1 + 0x110]\n 14277: ra = 438, jump @23\n      : @434 [@dyn 219] (gas: 23)\n 14283: a2 = u64 [s1 + 0x40]\n 14286: a0 = a2 >> 0x3f\n 14289: a1 = u64 [s1 + 0x30]\n 14292: a1 = a1 << 0x1\n 14295: a0 = a0 | a1\n 14298: a3 = u64 [s1 + 0x50]\n 14301: a1 = a3 >> 0x3f\n 14304: a2 = a2 << 0x1\n 14307: a1 = a1 | a2\n 14310: a4 = u64 [s1 + 0x58]\n 14313: a2 = a4 >> 0x3f\n 14316: a3 = a3 << 0x1\n 14319: a2 = a2 | a3\n 14322: a3 = a4 << 0x1\n 14325: a3 = a3 + 0x1\n 14328: a4 = s1 + 0x18d8\n 14332: a5 = a4 + 0x400\n 14336: u64 [a5 + 0xe8] = a3\n 14340: u64 [a5 + 0xf0] = a2\n 14344: u64 [a5 + 0xf8] = a1\n 14348: u64 [a4 + 0x500] = a0\n 14352: a0 = 0x1dc0\n 14356: jump @442\n      : @435 (gas: 10)\n 14359: a0 = u64 [s1 + 0xc0]\n 14363: a1 = u64 [s1 + 0xb8]\n 14367: a0 = a0 | a1\n 14370: a1 = 0xffffffe0\n 14380: a2 = u64 [s1 + 0xd0]\n 14384: a1 = a2 <u a1\n 14387: a2 = u64 [s1 + 0xc8]\n 14391: a1 = 0 if a2 != 0\n 14393: a1 = 0 if a0 != 0\n 14395: jump @415 if a1 == 0\n      : @436 (gas: 5)\n 14399: a0 = u64 [s1 + 0xd0]\n 14403: i32 a1 = a0 + 0x20\n 14406: a0 = s1 + 0x7ff\n 14410: a0 = a0 + 0x6a1\n 14414: ra = 440, jump @17\n      : @437 [@dyn 220] (gas: 12)\n 14420: a0 = s1 + 0x7ff\n 14424: a0 = a0 + 0xb9\n 14428: a1 = u64 [a0 + 0x600]\n 14432: u64 [s1 + 0xf0] = a1\n 14436: a2 = a0 + 0x500\n 14440: a1 = u64 [a2 + 0xf8]\n 14444: u64 [s1 + 0xe8] = a1\n 14448: a1 = u64 [a2 + 0xf0]\n 14452: u64 [s1 + 0xd8] = a1\n 14456: a0 = u64 [a2 + 0xe8]\n 14460: u64 [s1 + 0xe0] = a0\n 14464: fallthrough\n      : @438 (gas: 24)\n 14465: a2 = u64 [s1 + 0x50]\n 14468: a0 = a2 >> 0x3f\n 14471: a3 = u64 [s1 + 0x40]\n 14474: a1 = a3 << 0x1\n 14477: a0 = a0 | a1\n 14480: u64 [s1 + 0x130] = a0\n 14484: a0 = a3 >> 0x3f\n 14487: a1 = u64 [s1 + 0x30]\n 14490: a1 = a1 << 0x1\n 14493: a0 = a0 | a1\n 14496: u64 [s1 + 0x128] = a0\n 14500: a3 = u64 [s1 + 0x58]\n 14503: a0 = a3 >> 0x3f\n 14506: a1 = a2 << 0x1\n 14509: a0 = a0 | a1\n 14512: u64 [s1 + 0x120] = a0\n 14516: a0 = a3 << 0x1\n 14519: u64 [s1 + 0x118] = a0\n 14523: a1 = a3 << 0x3\n 14526: u64 [s1 + 0x138] = a1\n 14530: i32 a2 = 0x80 - a1\n 14534: a0 = 0xffffffffffffffff\n 14537: a1 = 0xffffffffffffffff\n 14540: ra = 442, jump @825\n      : @439 [@dyn 221] (gas: 7)\n 14546: u64 [s1 + 0xf8] = a0\n 14550: u64 [s1 + 0x110] = a1\n 14554: a0 = u64 [s1 + 0x58]\n 14557: i32 a2 = a0 << 0x3\n 14560: a0 = 0xffffffffffffffff\n 14563: a1 = 0xffffffffffffffff\n 14566: ra = 444, jump @820\n      : @440 [@dyn 222] (gas: 10)\n 14572: u64 [s1 + 0x108] = a0\n 14576: u64 [s1 + 0x100] = a1\n 14580: a1 = u64 [s1 + 0xf8]\n 14584: a0 = a0 | a1\n 14587: u64 [s1 + 0xf8] = a0\n 14591: a0 = u64 [s1 + 0x138]\n 14595: i32 a2 = a0 + 0xffffffffffffff80\n 14598: a0 = 0xffffffffffffffff\n 14601: a1 = 0xffffffffffffffff\n 14604: ra = 446, jump @820\n      : @441 [@dyn 223] (gas: 38)\n 14610: a4 = u64 [s1 + 0x138]\n 14614: a2 = a4 <u 0x80\n 14618: a3 = u64 [s1 + 0xf8]\n 14622: a0 = a3 if a2 != 0\n 14625: a5 = u64 [s1 + 0x100]\n 14629: a3 = u64 [s1 + 0x110]\n 14633: a3 = a3 | a5\n 14636: a3 = a1 if a2 == 0\n 14639: a0 = 0xffffffffffffffff if a4 == 0\n 14642: a3 = 0xffffffffffffffff if a4 == 0\n 14645: a5 = 0 if a2 == 0\n 14647: a4 = u64 [s1 + 0x108]\n 14651: a4 = 0 if a2 == 0\n 14653: a1 = u64 [s1 + 0xd8]\n 14657: a1 = a1 & ~a3\n 14660: a2 = u64 [s1 + 0xe0]\n 14664: a0 = a2 & ~a0\n 14667: a2 = u64 [s1 + 0xe8]\n 14671: a2 = a2 & ~a4\n 14674: a3 = u64 [s1 + 0xf0]\n 14678: a3 = a3 & ~a5\n 14681: a5 = s1 + 0x100\n 14685: a4 = u64 [a5 + 0x18]\n 14688: a0 = a0 | a4\n 14691: a4 = u64 [a5 + 0x20]\n 14694: a1 = a1 | a4\n 14697: a4 = u64 [a5 + 0x28]\n 14700: a3 = a3 | a4\n 14703: a4 = u64 [a5 + 0x30]\n 14706: a2 = a2 | a4\n 14709: a4 = s1 + 0x18d8\n 14713: a5 = a4 + 0x500\n 14717: u64 [a5 + 0x18] = a2\n 14720: u64 [a5 + 0x20] = a3\n 14723: u64 [a5 + 0x10] = a1\n 14726: u64 [a5 + 0x8] = a0\n 14729: a0 = 0x1de0\n 14733: fallthrough\n      : @442 (gas: 3)\n 14734: a1 = s1 + a0\n 14737: a0 = u64 [s1 + 0x48]\n 14740: ra = 448, jump @23\n      : @443 [@dyn 224] (gas: 14)\n 14746: a2 = s1 + 0x7ff\n 14750: a2 = a2 + 0xb9\n 14754: u64 [a2 + 1440] = 0\n 14758: a0 = u64 [s1 + 0x60]\n 14761: a3 = a2 + 0x500\n 14765: u64 [a3 + 0x98] = a0\n 14769: a0 = u64 [s1 + 0x88]\n 14773: u64 [a3 + 0x90] = a0\n 14777: a1 = s1 + 0x7ff\n 14781: a1 = a1 + 0x641\n 14785: a0 = u64 [s1 + 0x80]\n 14789: u64 [a3 + 0x88] = a0\n 14793: a0 = 0\n 14795: ra = 450, jump @19\n      : @444 [@dyn 225] (gas: 11)\n 14801: a1 = s1 + 0x7ff\n 14805: a1 = a1 + 0xb9\n 14809: u64 [a1 + 1408] = 0\n 14813: u64 [a1 + 1400] = 0\n 14817: u64 [a1 + 1384] = 0x1\n 14822: a2 = a1\n 14824: a0 = 0x20\n 14827: a1 = s1 + 0x7ff\n 14831: a1 = a1 + 0x621\n 14835: u64 [a2 + 1392] = 0\n 14839: ra = 452, jump @19\n      : @445 [@dyn 226] (gas: 5)\n 14845: a0 = 0x20074\n 14850: u64 [s1 + 0x138] = a0\n 14854: a0 = i32 [0x20074]\n 14859: a1 = 0x3f\n 14862: jump @447 if a1 <u a0\n      : @446 (gas: 4)\n 14865: a1 = u64 [s1 + 0x138]\n 14869: u32 [a1 + 0] = 0x40\n 14872: t0 = 0x1c6\n 14876: jump @817\n      : @447 (gas: 1)\n 14879: t0 = 454, jump @817\n      : @448 [@dyn 227] (gas: 23)\n 14885: a0 = 0x20080\n 14890: i32 a0 = a0 + 0\n 14892: i32 a2 = a2 + 0\n 14894: a1 = 0x40\n 14897: u64 [s1 + 0x118] = a0\n 14901: ecalli 6 // 'hash_keccak_256'\n 14903: a3 = u64 [s1 + 0x130]\n 14907: a0 = u64 [a3 + 0x18]\n 14910: a1 = u64 [a3 + 0x10]\n 14913: a2 = u64 [a3 + 0x8]\n 14916: a3 = u64 [a3]\n 14918: a0 = reverse a0\n 14920: u64 [s1 + 0x130] = a0\n 14924: a0 = reverse a1\n 14926: u64 [s1 + 0x128] = a0\n 14930: a0 = reverse a2\n 14932: u64 [s1 + 0x120] = a0\n 14936: a0 = reverse a3\n 14938: u64 [s1 + 0x110] = a0\n 14942: a0 = s1 + 0x7ff\n 14946: a0 = a0 + 0x601\n 14950: a1 = u64 [s1 + 0x78]\n 14953: ra = 456, jump @17\n      : @449 [@dyn 228] (gas: 24)\n 14959: a4 = s1 + 0x7ff\n 14963: a4 = a4 + 0xb9\n 14967: a5 = a4 + 0x500\n 14971: a0 = u64 [a5 + 0x48]\n 14974: a1 = u64 [a5 + 0x50]\n 14977: a2 = u64 [a5 + 0x58]\n 14980: a3 = u64 [a5 + 0x60]\n 14983: u64 [a5 + 0x20] = a3\n 14986: u64 [a5 + 0x18] = a2\n 14989: u64 [a5 + 0x10] = a1\n 14992: u64 [a5 + 0x8] = a0\n 14995: a0 = u64 [s1 + 0x110]\n 14999: u64 [a5 + 0x40] = a0\n 15002: a0 = u64 [s1 + 0x120]\n 15006: u64 [a5 + 0x38] = a0\n 15009: a0 = u64 [s1 + 0x128]\n 15013: u64 [a5 + 0x30] = a0\n 15016: a0 = s1 + 0x7ff\n 15020: a0 = a0 + 0x5e1\n 15024: a1 = s1 + 0x7ff\n 15028: a1 = a1 + 0x5c1\n 15032: a2 = u64 [s1 + 0x130]\n 15036: u64 [a5 + 0x28] = a2\n 15039: ra = 458, jump @764\n      : @450 [@dyn 229] (gas: 4)\n 15045: a0 = u64 [s1 + 0x68]\n 15048: ra = 0x1cc\n 15052: ecalli 3 // 'caller'\n 15054: fallthrough\n      : @451 [@dyn 230] (gas: 6)\n 15055: a2 = u64 [s1 + 0x70]\n 15058: a0 = u64 [a2 + 0x8]\n 15061: a1 = i32 [a2 + 0x10]\n 15064: a2 = u64 [a2]\n 15066: a0 = reverse a0\n 15068: t0 = 462, jump @812\n      : @452 [@dyn 231] (gas: 13)\n 15074: a0 = a0 | a2\n 15077: a1 = a1 >> 0x20\n 15080: a2 = s1 + 0x7ff\n 15084: a2 = a2 + 0xb9\n 15088: u64 [a2 + 1280] = 0\n 15092: a4 = a2 + 0x400\n 15096: u64 [a4 + 0xf8] = a1\n 15100: u64 [a4 + 0xf0] = a0\n 15104: a1 = s1 + 0x7ff\n 15108: a1 = a1 + 0x5a1\n 15112: u64 [a4 + 0xe8] = a3\n 15116: a0 = 0\n 15118: ra = 464, jump @19\n      : @453 [@dyn 232] (gas: 11)\n 15124: a1 = s1 + 0x7ff\n 15128: a1 = a1 + 0xb9\n 15132: u64 [a1 + 1248] = 0\n 15136: u64 [a1 + 1240] = 0\n 15140: u64 [a1 + 1224] = 0x2\n 15145: a2 = a1\n 15147: a0 = 0x20\n 15150: a1 = s1 + 0x7ff\n 15154: a1 = a1 + 0x581\n 15158: u64 [a2 + 1232] = 0\n 15162: ra = 466, jump @19\n      : @454 [@dyn 233] (gas: 3)\n 15168: a0 = u64 [s1 + 0x138]\n 15172: a0 = i32 [a0]\n 15174: jump @456 if a0 >u 63\n      : @455 (gas: 3)\n 15178: a0 = u64 [s1 + 0x138]\n 15182: u32 [a0 + 0] = 0x40\n 15185: fallthrough\n      : @456 (gas: 25)\n 15186: a0 = sp + 0xffffffffffffffe0\n 15189: a0 = a0 & 0xffffffffffffffe0\n 15192: u64 [s1 + 0x138] = a0\n 15196: sp = a0\n 15198: i32 a2 = a0 + 0\n 15200: a1 = 0x40\n 15203: a0 = u64 [s1 + 0x118]\n 15207: ecalli 6 // 'hash_keccak_256'\n 15209: a3 = u64 [s1 + 0x138]\n 15213: a0 = u64 [a3 + 0x18]\n 15216: a1 = u64 [a3 + 0x10]\n 15219: a2 = u64 [a3 + 0x8]\n 15222: a3 = u64 [a3]\n 15224: a0 = reverse a0\n 15226: u64 [s1 + 0x138] = a0\n 15230: a0 = reverse a1\n 15232: u64 [s1 + 0x130] = a0\n 15236: a0 = reverse a2\n 15238: u64 [s1 + 0x128] = a0\n 15242: a0 = reverse a3\n 15244: u64 [s1 + 0x120] = a0\n 15248: a0 = s1 + 0x7ff\n 15252: a0 = a0 + 0x561\n 15256: a1 = u64 [s1 + 0x78]\n 15259: ra = 468, jump @17\n      : @457 [@dyn 234] (gas: 24)\n 15265: a4 = s1 + 0x7ff\n 15269: a4 = a4 + 0xb9\n 15273: a5 = a4 + 0x400\n 15277: a0 = u64 [a5 + 0xa8]\n 15281: a1 = u64 [a5 + 0xb0]\n 15285: a2 = u64 [a5 + 0xb8]\n 15289: a3 = u64 [a5 + 0xc0]\n 15293: u64 [a5 + 0x80] = a3\n 15297: u64 [a5 + 0x78] = a2\n 15300: u64 [a5 + 0x70] = a1\n 15303: u64 [a5 + 0x68] = a0\n 15306: a0 = u64 [s1 + 0x120]\n 15310: u64 [a5 + 0xa0] = a0\n 15314: a0 = u64 [s1 + 0x128]\n 15318: u64 [a5 + 0x98] = a0\n 15322: a0 = u64 [s1 + 0x130]\n 15326: u64 [a5 + 0x90] = a0\n 15330: a0 = s1 + 0x7ff\n 15334: a0 = a0 + 0x541\n 15338: a1 = s1 + 0x7ff\n 15342: a1 = a1 + 0x521\n 15346: a2 = u64 [s1 + 0x138]\n 15350: u64 [a5 + 0x88] = a2\n 15354: ra = 470, jump @764\n      : @458 [@dyn 235] (gas: 4)\n 15360: a0 = s1 + 0x7ff\n 15364: a0 = a0 + 0x501\n 15368: a1 = u64 [s1 + 0x78]\n 15371: ra = 472, jump @17\n      : @459 [@dyn 236] (gas: 15)\n 15377: a1 = s1 + 0x7ff\n 15381: a1 = a1 + 0xb9\n 15385: a2 = a1 + 0x400\n 15389: a0 = u64 [a2 + 0x60]\n 15392: u64 [s1 + 0x110] = a0\n 15396: a0 = u64 [a2 + 0x58]\n 15399: u64 [s1 + 0x108] = a0\n 15403: a0 = u64 [a2 + 0x50]\n 15406: u64 [s1 + 0x100] = a0\n 15410: a0 = u64 [a2 + 0x48]\n 15413: u64 [s1 + 0xf8] = a0\n 15417: a0 = s1 + 0x7ff\n 15421: a0 = a0 + 0x4e1\n 15425: a1 = 0x40\n 15428: ra = 474, jump @17\n      : @460 [@dyn 237] (gas: 21)\n 15434: a1 = s1 + 0x7ff\n 15438: a1 = a1 + 0xb9\n 15442: a2 = a1 + 0x400\n 15446: a0 = u64 [a2 + 0x40]\n 15449: u64 [s1 + 0x128] = a0\n 15453: a0 = u64 [a2 + 0x38]\n 15456: u64 [s1 + 0x120] = a0\n 15460: a0 = u64 [a2 + 0x30]\n 15463: u64 [s1 + 0x130] = a0\n 15467: a0 = u64 [a2 + 0x28]\n 15470: u64 [s1 + 0x138] = a0\n 15474: a0 = s1 + 0x18d8\n 15478: u64 [a0 + 1344] = 0\n 15482: u64 [a0 + 1336] = 0\n 15486: u64 [a0 + 1328] = 0\n 15490: u64 [a0 + 1320] = 0\n 15494: a0 = s1 + 0x2000\n 15498: i32 a0 = a0 + 0xfffffffffffffe00\n 15502: ra = 0x1dc\n 15506: ecalli 11 // 'value_transferred'\n 15508: fallthrough\n      : @461 [@dyn 238] (gas: 13)\n 15509: a3 = s1 + 0x100\n 15513: a0 = u64 [a3 + 0x28]\n 15516: a1 = u64 [a3 + 0x30]\n 15519: a0 = a0 | a1\n 15522: a2 = u64 [a3 + 0x20]\n 15525: a1 = u64 [a3 + 0x38]\n 15528: a1 = a1 | a2\n 15531: a1 = a1 | a0\n 15534: a1 = a1 >> 0x20\n 15537: a0 = a0 | a2\n 15540: a0 = a0 << 0x20\n 15543: a0 = a0 | a1\n 15546: jump @415 if a0 != 0\n      : @462 (gas: 1)\n 15550: t0 = 478, jump @803\n      : @463 [@dyn 239] (gas: 15)\n 15556: a0 = u64 [a4 + 0x28]\n 15559: a1 = u64 [a4 + 0x30]\n 15562: a2 = u64 [a4 + 0x38]\n 15565: a3 = u64 [a4 + 0x40]\n 15568: a4 = s1 + 0x7ff\n 15572: a4 = a4 + 0xb9\n 15576: a5 = a4 + 0x400\n 15580: u64 [a5 + 0x20] = a3\n 15583: u64 [a5 + 0x18] = a2\n 15586: u64 [a5 + 0x10] = a1\n 15589: a1 = s1 + 0x7ff\n 15593: a1 = a1 + 0x4c1\n 15597: u64 [a5 + 0x8] = a0\n 15600: a0 = u64 [s1 + 0x138]\n 15604: ra = 480, jump @19\n      : @464 [@dyn 240] (gas: 11)\n 15610: a3 = s1 + 0x100\n 15614: a0 = u64 [a3 + 0x28]\n 15617: a1 = u64 [a3 + 0x20]\n 15620: a0 = a0 | a1\n 15623: a1 = 0xffffffe0\n 15633: a2 = u64 [a3 + 0x38]\n 15636: a1 = a2 <u a1\n 15639: a2 = u64 [a3 + 0x30]\n 15642: a1 = 0 if a2 != 0\n 15644: a1 = 0 if a0 != 0\n 15646: jump @415 if a1 == 0\n      : @465 (gas: 11)\n 15650: a0 = u64 [s1 + 0x138]\n 15654: i32 a0 = a0 + 0x20\n 15657: a2 = s1 + 0x7ff\n 15661: a2 = a2 + 0xb9\n 15665: u64 [a2 + 1024] = 0\n 15669: u64 [a2 + 1016] = 0\n 15673: u64 [a2 + 1000] = 0x40\n 15678: a1 = s1 + 0x7ff\n 15682: a1 = a1 + 0x4a1\n 15686: u64 [a2 + 1008] = 0\n 15690: ra = 482, jump @19\n      : @466 [@dyn 241] (gas: 4)\n 15696: a0 = u64 [s1 + 0x68]\n 15699: ra = 0x1e4\n 15703: ecalli 3 // 'caller'\n 15705: fallthrough\n      : @467 [@dyn 242] (gas: 10)\n 15706: a0 = u64 [s1 + 0x70]\n 15709: a1 = u32 [a0 + 0x10]\n 15712: u64 [s1 + 0xe8] = a1\n 15716: a1 = u64 [a0 + 0x8]\n 15719: u64 [s1 + 0xe0] = a1\n 15723: a0 = u64 [a0]\n 15725: u64 [s1 + 0xf0] = a0\n 15729: a1 = u64 [s1 + 0x138]\n 15733: a0 = a1 + 0x40\n 15736: t0 = 486, jump @798\n      : @468 [@dyn 243] (gas: 23)\n 15742: a1 = s1 + 0x7ff\n 15746: a1 = a1 + 0xb9\n 15750: a5 = a1 + 0x300\n 15754: u64 [a5 + 0x98] = a3\n 15758: u64 [a5 + 0x90] = a2\n 15762: u64 [a5 + 0x88] = a0\n 15766: a0 = u64 [s1 + 0x98]\n 15770: u64 [a5 + 0xc0] = a0\n 15774: a0 = u64 [s1 + 0xa0]\n 15778: u64 [a5 + 0xb8] = a0\n 15782: a0 = u64 [s1 + 0xa8]\n 15786: u64 [a5 + 0xb0] = a0\n 15790: a0 = u64 [s1 + 0x90]\n 15794: u64 [a5 + 0xa8] = a0\n 15798: a3 = a1\n 15800: a0 = s1 + 0x7ff\n 15804: a0 = a0 + 0x481\n 15808: a1 = s1 + 0x7ff\n 15812: a1 = a1 + 0x461\n 15816: a2 = s1 + 0x7ff\n 15820: a2 = a2 + 0x441\n 15824: u64 [a3 + 0x3a0] = a4\n 15828: ra = 488, jump @588\n      : @469 [@dyn 244] (gas: 33)\n 15834: a1 = s1 + 0x7ff\n 15838: a1 = a1 + 0xb9\n 15842: a0 = u64 [a1 + 0x3d0]\n 15846: t0 = u64 [a1 + 0x3e0]\n 15850: t1 = u64 [a1 + 0x3c8]\n 15854: a3 = u64 [a1 + 0x3d8]\n 15858: a1 = u64 [s1 + 0x130]\n 15862: a4 = a0 ^ a1\n 15865: a5 = a0 <u a1\n 15868: ra = a1\n 15870: t2 = u64 [s1 + 0x138]\n 15874: a1 = t1 <u t2\n 15877: a5 = a1 if a4 == 0\n 15880: a2 = u64 [s1 + 0x120]\n 15884: a4 = a3 - a2\n 15887: a3 = a3 <u a2\n 15890: a2 = u64 [s1 + 0x128]\n 15894: a2 = t0 - a2\n 15897: a2 = a2 - a3\n 15900: a3 = a4 <u a5\n 15903: a2 = a2 - a3\n 15906: a4 = a4 - a5\n 15909: a0 = a0 - ra\n 15912: a0 = a0 - a1\n 15915: a1 = t1 - t2\n 15918: a0 = a0 | a2\n 15921: a2 = a1 | a4\n 15924: a2 = a2 | a0\n 15927: a0 = a0 | a4\n 15930: a2 = a2 >> 0x20\n 15933: a0 = a0 << 0x20\n 15936: a0 = a0 | a2\n 15939: jump @415 if a0 != 0\n      : @470 (gas: 94)\n 15943: a0 = u64 [s1 + 0xe0]\n 15947: a2 = reverse a0\n 15949: a0 = a2 << 0x20\n 15952: a3 = u64 [s1 + 0xe8]\n 15956: a3 = reverse a3\n 15958: a3 = a3 >> 0x20\n 15961: t0 = a3 | a0\n 15964: a0 = u64 [s1 + 0xf0]\n 15968: a3 = reverse a0\n 15970: a4 = a3 << 0x20\n 15973: a2 = a2 >> 0x20\n 15976: t1 = a4 | a2\n 15979: a3 = a3 >> 0x20\n 15982: t2 = s1 + 0x7ff\n 15986: t2 = t2 + 0xb9\n 15990: a0 = u64 [s1 + 0x80]\n 15994: u64 [t2 + 0x308] = a0\n 15998: a0 = u64 [s1 + 0xf8]\n 16002: u64 [t2 + 0x348] = a0\n 16006: a0 = u64 [s1 + 0x88]\n 16010: u64 [t2 + 0x310] = a0\n 16014: a0 = u64 [s1 + 0x100]\n 16018: u64 [t2 + 0x350] = a0\n 16022: a4 = u64 [0x20000]\n 16027: a5 = u64 [0x20008]\n 16032: a0 = u64 [0x20010]\n 16037: a2 = u64 [0x20018]\n 16042: u64 [t2 + 0x380] = a4\n 16046: a4 = t2 + 0x300\n 16050: u64 [a4 + 0x78] = a5\n 16053: u64 [a4 + 0x70] = a0\n 16056: u64 [a4 + 0x68] = a2\n 16059: a0 = u64 [s1 + 0x60]\n 16062: u64 [a4 + 0x18] = a0\n 16065: u64 [a4 + 0x38] = a3\n 16068: u64 [t2 + 800] = 0\n 16072: a0 = u64 [s1 + 0x108]\n 16076: u64 [a4 + 0x58] = a0\n 16079: a0 = u64 [s1 + 0x110]\n 16083: u64 [a4 + 0x60] = a0\n 16086: u64 [t2 + 0x330] = t1\n 16090: u64 [t2 + 0x328] = t0\n 16094: a2 = s1 + 0x7ff\n 16098: a2 = a2 + 0x421\n 16102: a3 = s1 + 0x7ff\n 16106: a3 = a3 + 0x401\n 16110: a4 = s1 + 0x7ff\n 16114: a4 = a4 + 0x3e1\n 16118: a5 = s1 + 0x7ff\n 16122: a5 = a5 + 0x3c1\n 16126: u64 [t2 + 832] = 0\n 16130: a0 = u64 [s1 + 0x138]\n 16134: ra = 0x1ea\n 16138: sp = sp + 0xfffffffffffffee0\n 16142: u64 [sp + 0x118] = ra\n 16146: u64 [sp + 0x110] = s0\n 16150: u64 [sp + 0x108] = s1\n 16154: s0 = sp + 0x120\n 16158: sp = sp & 0xffffffffffffffe0\n 16161: s1 = u64 [a5]\n 16163: u64 [sp + 0x60] = s1\n 16166: s1 = u64 [a5 + 0x8]\n 16169: u64 [sp + 0x68] = s1\n 16172: s1 = u64 [a5 + 0x10]\n 16175: u64 [sp + 0x70] = s1\n 16178: a5 = u64 [a5 + 0x18]\n 16181: u64 [sp + 0x78] = a5\n 16184: a5 = u64 [a4]\n 16186: u64 [sp + 0x38] = a5\n 16189: a5 = u64 [a4 + 0x8]\n 16192: u64 [sp + 0x40] = a5\n 16195: a5 = u64 [a4 + 0x10]\n 16198: u64 [sp + 0x48] = a5\n 16201: a4 = u64 [a4 + 0x18]\n 16204: u64 [sp + 0x50] = a4\n 16207: t0 = 0xa\n 16210: a4 = u64 [a3]\n 16212: u64 [sp + 0x18] = a4\n 16215: a4 = u64 [a3 + 0x8]\n 16218: u64 [sp + 0x20] = a4\n 16221: a4 = u64 [a3 + 0x10]\n 16224: u64 [sp + 0x28] = a4\n 16227: a3 = u64 [a3 + 0x18]\n 16230: u64 [sp + 0x30] = a3\n 16233: s1 = u64 [a2]\n 16235: a3 = u64 [a2 + 0x8]\n 16238: u64 [sp] = a3\n 16240: a3 = u64 [a2 + 0x10]\n 16243: u64 [sp + 0x8] = a3\n 16246: a2 = u64 [a2 + 0x18]\n 16249: u64 [sp + 0x10] = a2\n 16252: u64 [sp + 0x58] = a1\n 16255: ra = 0xc\n 16258: jump @27\n      : @471 [@dyn 245] (gas: 7)\n 16261: a0 = 0\n 16263: a1 = u64 [s1 + 0x118]\n 16267: a2 = 0\n 16269: ecalli 8 // 'seal_return'\n 16271: a0 = 0x1\n 16274: a1 = u64 [s1 + 0xf0]\n 16278: jump @474\n      : @472 (gas: 4)\n 16280: a1 = 0x20080\n 16285: i32 a1 = a1 + 0\n 16287: a0 = 0x1\n 16290: jump @474\n      : @473 (gas: 7)\n 16292: i32 a1 = a1 + 0\n 16294: a0 = 0x1\n 16297: a2 = 0\n 16299: ecalli 8 // 'seal_return'\n 16301: a0 = 0x1\n 16304: a1 = u64 [s1 + 0xf0]\n 16308: fallthrough\n      : @474 (gas: 5)\n 16309: a2 = 0\n 16311: ecalli 8 // 'seal_return'\n 16313: a0 = 0x1\n 16316: a1 = u64 [s1 + 0xf0]\n 16320: jump @474\n      : @475 (gas: 3)\n 16322: a0 = 0x1\n 16325: a1 = u64 [s1 + 0xf0]\n 16329: jump @474\n      : @476 (gas: 2)\n 16331: a1 = 0x20080\n 16336: jump @473\n      : @477 (gas: 2)\n 16338: a1 = 0x20080\n 16343: jump @473\n      : @478 (gas: 2)\n 16345: a1 = 0x20080\n 16350: jump @473\n      : @479 (gas: 2)\n 16352: a1 = 0x20080\n 16357: jump @473\n      : @480 (gas: 2)\n 16359: a1 = 0x20080\n 16364: jump @473\n      : @481 (gas: 2)\n 16366: a1 = 0x20080\n 16371: jump @473\n      : @482 (gas: 2)\n 16373: a1 = 0x20080\n 16378: jump @473\n      : @483 (gas: 2)\n 16380: a1 = 0x20080\n 16385: jump @473\n      : @484 (gas: 2)\n 16387: a1 = 0x20080\n 16392: jump @473\n      : @485 (gas: 9)\n 16394: ra = a3\n 16396: u64 [s1 + 0x480] = t0\n 16400: u64 [s1 + 0x488] = t1\n 16404: u64 [s1 + 0x490] = ra\n 16408: a0 = s1 + 0x4a0\n 16412: a1 = s1 + 0x480\n 16416: a2 = u64 [s1 + 0x120]\n 16420: u64 [s1 + 0x498] = a2\n 16424: ra = 492, jump @527\n      : @486 [@dyn 246] (gas: 23)\n 16430: t0 = u64 [s1 + 0x4b8]\n 16434: a1 = u64 [s1 + 0x4b0]\n 16438: a2 = u64 [s1 + 0x4a8]\n 16442: a3 = u64 [s1 + 0x4a0]\n 16446: a4 = sp + 0xffffffffffffffe0\n 16449: a0 = a4 & 0xffffffffffffffe0\n 16452: sp = a0\n 16454: a4 = a3 + 0x4\n 16457: a3 = a4 <u a3\n 16460: a5 = a2 + a3\n 16463: a2 = a5 <u a2\n 16466: a2 = a3 if a3 == 0\n 16469: a2 = a2 + a1\n 16472: a1 = a2 <u a1\n 16475: t0 = t0 + a1\n 16478: a1 = a0\n 16480: u64 [s1 + 0x118] = a0\n 16484: u64 [a0 + 0x10] = a2\n 16487: u64 [a0 + 0x8] = a5\n 16490: u64 [a0] = a4\n 16492: u64 [a0 + 0x18] = t0\n 16495: a0 = s1 + 0x460\n 16499: ra = 494, jump @21\n      : @487 [@dyn 247] (gas: 15)\n 16505: a0 = u64 [s1 + 0x460]\n 16509: a1 = u64 [s1 + 0x468]\n 16513: a2 = u64 [s1 + 0x478]\n 16517: a3 = u64 [s1 + 0x470]\n 16521: a0 = a0 & 0xffffffffffffff00\n 16525: a0 = a0 | 0x1\n 16528: a4 = s1 + 0x18d8\n 16532: a5 = a4 + 0x200\n 16536: u64 [a5 + 0x40] = a2\n 16539: u64 [a5 + 0x38] = a3\n 16542: u64 [a5 + 0x30] = a1\n 16545: u64 [a5 + 0x28] = a0\n 16548: a1 = s1 + 0x1b00\n 16552: a0 = u64 [s1 + 0x118]\n 16556: ra = 496, jump @23\n      : @488 [@dyn 248] (gas: 48)\n 16562: a2 = s1 + 0x100\n 16566: a0 = u64 [a2 + 0x20]\n 16569: a4 = s1 + 0x400\n 16573: u64 [a4 + 0x38] = a0\n 16576: a0 = u64 [a2 + 0x28]\n 16579: u64 [a4 + 0x30] = a0\n 16582: a0 = u64 [a2 + 0x30]\n 16585: u64 [a4 + 0x28] = a0\n 16588: a0 = u64 [0x20050]\n 16593: a1 = u64 [a2 + 0x38]\n 16596: u64 [a4 + 0x20] = a1\n 16599: a1 = u64 [0x20058]\n 16604: u64 [a4 + 0x58] = a0\n 16607: a0 = u64 [0x20060]\n 16612: u64 [a4 + 0x50] = a1\n 16615: a1 = u64 [0x20068]\n 16620: u64 [a4 + 0x48] = a0\n 16623: a2 = s1 + 0x440\n 16627: a3 = s1 + 0x420\n 16631: u64 [a4 + 0x40] = a1\n 16634: a0 = 0\n 16636: a1 = 0\n 16638: ra = 0x1f2\n 16642: sp = sp + 0xffffffffffffff60\n 16646: u64 [sp + 0x98] = ra\n 16650: u64 [sp + 0x90] = s0\n 16654: u64 [sp + 0x88] = s1\n 16658: s0 = sp + 0xa0\n 16662: sp = sp & 0xffffffffffffffe0\n 16665: a4 = u64 [a3]\n 16667: u64 [sp + 0x38] = a4\n 16670: a4 = u64 [a3 + 0x8]\n 16673: u64 [sp + 0x30] = a4\n 16676: a4 = u64 [a3 + 0x10]\n 16679: u64 [sp + 0x28] = a4\n 16682: a3 = u64 [a3 + 0x18]\n 16685: u64 [sp + 0x20] = a3\n 16688: a3 = u64 [a2]\n 16690: u64 [sp + 0x18] = a3\n 16693: a3 = u64 [a2 + 0x8]\n 16696: u64 [sp + 0x10] = a3\n 16699: a3 = u64 [a2 + 0x10]\n 16702: u64 [sp + 0x8] = a3\n 16705: a2 = u64 [a2 + 0x18]\n 16708: u64 [sp] = a2\n 16710: s1 = a1\n 16712: ra = 0x8\n 16715: jump @27\n      : @489 [@dyn 249] (gas: 4)\n 16718: a1 = 0x20080\n 16723: i32 a1 = a1 + 0\n 16725: a0 = 0\n 16727: jump @474\n      : @490 (gas: 2)\n 16730: a1 = 0x20080\n 16735: jump @473\n      : @491 (gas: 2)\n 16738: a1 = 0x20080\n 16743: jump @473\n      : @492 (gas: 2)\n 16746: a1 = 0x20080\n 16751: jump @473\n      : @493 (gas: 2)\n 16754: a1 = 0x20080\n 16759: jump @473\n      : @494 (gas: 2)\n 16762: a1 = 0x20080\n 16767: jump @473\n      : @495 (gas: 6)\n 16770: a0 = s1 + 0x7ff\n 16774: a0 = a0 + 0xb9\n 16778: u64 [a0 + 600] = 0\n 16782: u64 [a0 + 592] = 0\n 16786: u64 [a0 + 584] = 0\n 16790: t0 = 500, jump @809\n      : @496 [@dyn 250] (gas: 4)\n 16796: a1 = a1 + 0x301\n 16800: u64 [a2 + 0x260] = a0\n 16804: a0 = 0\n 16806: ra = 502, jump @19\n      : @497 [@dyn 251] (gas: 11)\n 16812: a1 = s1 + 0x7ff\n 16816: a1 = a1 + 0xb9\n 16820: u64 [a1 + 576] = 0\n 16824: u64 [a1 + 568] = 0\n 16828: u64 [a1 + 552] = 0x41\n 16833: a2 = a1\n 16835: a0 = 0x4\n 16838: a1 = s1 + 0x7ff\n 16842: a1 = a1 + 0x2e1\n 16846: u64 [a2 + 560] = 0\n 16850: ra = 504, jump @19\n      : @498 [@dyn 252] (gas: 2)\n 16856: a1 = i32 [0x20074]\n 16861: jump @500 if a1 >u 63\n      : @499 (gas: 3)\n 16865: u32 [0x20074] = 0x40\n 16871: a1 = 0x20080\n 16876: jump @501\n      : @500 (gas: 2)\n 16878: a1 = 0x20080\n 16883: fallthrough\n      : @501 (gas: 6)\n 16884: i32 a1 = a1 + 0\n 16886: a0 = 0x1\n 16889: a2 = 0x24\n 16892: ecalli 8 // 'seal_return'\n 16894: a1 = 0x20080\n 16899: jump @473\n      : @502 (gas: 2)\n 16902: a1 = 0x20080\n 16907: jump @473\n      : @503 (gas: 2)\n 16910: a1 = 0x20080\n 16915: jump @473\n      : @504 (gas: 2)\n 16918: a1 = 0x20080\n 16923: jump @473\n      : @505 (gas: 2)\n 16926: a1 = 0x20080\n 16931: jump @473\n      : @506 (gas: 4)\n 16934: a0 = a2\n 16936: u64 [s1 + 0x138] = a1\n 16940: ra = 0x1fa\n 16944: jump @27\n      : @507 (gas: 2)\n 16947: u64 [s1 + 0x138] = a1\n 16951: ra = 506, jump @27\n      : @508 [@dyn 253] (gas: 6)\n 16957: i32 a1 = a0 + 0\n 16959: a2 = i32 [s1 + 0x138]\n 16963: a0 = 0\n 16965: ecalli 8 // 'seal_return'\n 16967: a1 = 0x20080\n 16972: jump @473\n      : @509 (gas: 2)\n 16975: a1 = 0x20080\n 16980: jump @473\n      : @510 (gas: 6)\n 16983: a0 = s1 + 0x7ff\n 16987: a0 = a0 + 0xb9\n 16991: u64 [a0 + 664] = 0\n 16995: u64 [a0 + 656] = 0\n 16999: u64 [a0 + 648] = 0\n 17003: t0 = 508, jump @809\n      : @511 [@dyn 254] (gas: 4)\n 17009: a1 = a1 + 0x341\n 17013: u64 [a2 + 0x2a0] = a0\n 17017: a0 = 0\n 17019: ra = 510, jump @19\n      : @512 [@dyn 255] (gas: 11)\n 17025: a1 = s1 + 0x7ff\n 17029: a1 = a1 + 0xb9\n 17033: u64 [a1 + 640] = 0\n 17037: u64 [a1 + 632] = 0\n 17041: u64 [a1 + 616] = 0x41\n 17046: a2 = a1\n 17048: a0 = 0x4\n 17051: a1 = s1 + 0x7ff\n 17055: a1 = a1 + 0x321\n 17059: u64 [a2 + 624] = 0\n 17063: ra = 512, jump @19\n      : @513 [@dyn 256] (gas: 2)\n 17069: a1 = i32 [0x20074]\n 17074: jump @515 if a1 >u 63\n      : @514 (gas: 3)\n 17078: u32 [0x20074] = 0x40\n 17084: a1 = 0x20080\n 17089: jump @501\n      : @515 (gas: 2)\n 17092: a1 = 0x20080\n 17097: jump @501\n      : @516 (gas: 10)\n 17100: a0 = s1 + 0x10b8\n 17104: u64 [a0 + 24] = 0\n 17107: u64 [a0 + 16] = 0\n 17110: u64 [a0 + 8] = 0\n 17113: a2 = a0\n 17115: a0 = 0x4e487b7100000000\n 17125: a1 = s1 + 0x10c0\n 17129: u64 [a2 + 0x20] = a0\n 17132: a0 = 0\n 17134: ra = 514, jump @19\n      : @517 [@dyn 257] (gas: 9)\n 17140: a0 = s1 + 0x10b8\n 17144: u64 [a0 + 0] = 0\n 17146: u64 [a0 + 4294967288] = 0\n 17149: u64 [a0 + 4294967280] = 0\n 17152: a2 = a0\n 17154: a0 = 0x4\n 17157: a1 = s1 + 0x10a0\n 17161: u64 [a2 + 4294967272] = 0\n 17164: ra = 516, jump @19\n      : @518 [@dyn 258] (gas: 2)\n 17170: a1 = i32 [0x20074]\n 17175: jump @520 if a1 >u 63\n      : @519 (gas: 3)\n 17179: u32 [0x20074] = 0x40\n 17185: a1 = 0x20080\n 17190: jump @501\n      : @520 (gas: 2)\n 17193: a1 = 0x20080\n 17198: jump @501\n      : @521 (gas: 6)\n 17201: a0 = s1 + 0x7ff\n 17205: a0 = a0 + 0xb9\n 17209: u64 [a0 + 728] = 0\n 17213: u64 [a0 + 720] = 0\n 17217: u64 [a0 + 712] = 0\n 17221: t0 = 518, jump @809\n      : @522 [@dyn 259] (gas: 4)\n 17227: a1 = a1 + 0x381\n 17231: u64 [a2 + 0x2e0] = a0\n 17235: a0 = 0\n 17237: ra = 520, jump @19\n      : @523 [@dyn 260] (gas: 11)\n 17243: a1 = s1 + 0x7ff\n 17247: a1 = a1 + 0xb9\n 17251: u64 [a1 + 704] = 0\n 17255: u64 [a1 + 696] = 0\n 17259: u64 [a1 + 680] = 0x41\n 17264: a2 = a1\n 17266: a0 = 0x4\n 17269: a1 = s1 + 0x7ff\n 17273: a1 = a1 + 0x361\n 17277: u64 [a2 + 688] = 0\n 17281: ra = 522, jump @19\n      : @524 [@dyn 261] (gas: 2)\n 17287: a1 = i32 [0x20074]\n 17292: jump @526 if a1 >u 63\n      : @525 (gas: 3)\n 17296: u32 [0x20074] = 0x40\n 17302: a1 = 0x20080\n 17307: jump @501\n      : @526 (gas: 2)\n 17310: a1 = 0x20080\n 17315: jump @501\n      : @527 (gas: 23)\n 17318: sp = sp + 0xffffffffffffff00\n 17322: u64 [sp + 0xf8] = ra\n 17326: u64 [sp + 0xf0] = s0\n 17330: u64 [sp + 0xe8] = s1\n 17334: s0 = sp + 0x100\n 17338: sp = sp & 0xffffffffffffffe0\n 17341: s1 = sp\n 17343: u64 [s1 + 0x18] = a0\n 17346: a0 = u64 [a1]\n 17348: u64 [s1 + 0x20] = a0\n 17351: a0 = u64 [a1 + 0x8]\n 17354: u64 [s1 + 0x28] = a0\n 17357: a0 = u64 [a1 + 0x10]\n 17360: u64 [s1 + 0x30] = a0\n 17363: a0 = u64 [a1 + 0x18]\n 17366: u64 [s1 + 0x38] = a0\n 17369: u64 [s1 + 216] = 0\n 17373: u64 [s1 + 208] = 0\n 17377: u64 [s1 + 200] = 0\n 17381: u64 [s1 + 192] = 0\n 17385: a0 = s1 + 0xa0\n 17389: a1 = s1 + 0xc0\n 17393: ra = 524, jump @21\n      : @528 [@dyn 262] (gas: 20)\n 17399: a0 = u64 [s1 + 0xb8]\n 17403: t0 = u64 [s1 + 0xa0]\n 17407: a2 = u64 [s1 + 0xb0]\n 17411: a3 = u64 [s1 + 0xa8]\n 17415: a1 = u64 [s1 + 0x38]\n 17418: a4 = a0 ^ a1\n 17421: a1 = a1 <u a0\n 17424: a0 = u64 [s1 + 0x30]\n 17427: a5 = a0 <u a2\n 17430: a5 = a1 if a4 != 0\n 17433: a1 = u64 [s1 + 0x28]\n 17436: t1 = a3 ^ a1\n 17439: a3 = a1 <u a3\n 17442: a1 = u64 [s1 + 0x20]\n 17445: a1 = a1 <u t0\n 17448: a1 = a3 if t1 != 0\n 17451: a0 = a0 ^ a2\n 17454: a0 = a0 | a4\n 17457: a1 = a5 if a0 != 0\n 17460: jump @533 if a1 == 0\n      : @529 (gas: 7)\n 17464: u64 [s1 + 88] = 0\n 17467: u64 [s1 + 80] = 0\n 17470: u64 [s1 + 72] = 0\n 17473: a1 = s1 + 0x40\n 17476: u64 [s1 + 64] = 0\n 17479: a0 = 0\n 17481: ra = 526, jump @19\n      : @530 [@dyn 263] (gas: 2)\n 17487: a1 = i32 [0x20074]\n 17492: jump @532 if a1 >u 31\n      : @531 (gas: 2)\n 17496: u32 [0x20074] = 0x20\n 17502: fallthrough\n      : @532 (gas: 72)\n 17503: a0 = sp + 0xffffffffffffffe0\n 17506: a2 = a0 & 0xffffffffffffffe0\n 17509: u64 [s1 + 0x10] = a2\n 17512: sp = a2\n 17514: a0 = 0x20080\n 17519: i32 a0 = a0 + 0\n 17521: i32 a2 = a2 + 0\n 17523: a1 = 0x20\n 17526: ecalli 6 // 'hash_keccak_256'\n 17528: t0 = u64 [s1 + 0x10]\n 17531: a0 = u64 [t0 + 0x18]\n 17534: a1 = u64 [t0 + 0x10]\n 17537: a3 = reverse a0\n 17539: a1 = reverse a1\n 17541: a4 = 0x7\n 17544: a0 = u64 [s1 + 0x20]\n 17547: a2 = a0 << 0x3\n 17550: t1 = a2 - a0\n 17553: a4 = a0 mulhu a4\n 17556: a2 = u64 [s1 + 0x28]\n 17559: a5 = a2 << 0x3\n 17562: a5 = a5 - a2\n 17565: a4 = a4 + a5\n 17568: t1 = t1 + a3\n 17571: a3 = t1 <u a3\n 17574: a0 = a1 + a4\n 17577: ra = a0 + a3\n 17580: a0 = ra ^ a1\n 17583: a1 = ra <u a1\n 17586: a1 = a3 if a0 == 0\n 17589: a0 = a4 <u a5\n 17592: a4 = 0x7\n 17595: a3 = a2 mulhu a4\n 17598: a0 = a0 + a3\n 17601: a2 = u64 [s1 + 0x30]\n 17604: a3 = a2 << 0x3\n 17607: t2 = a3 - a2\n 17610: a4 = a2 mulhu a4\n 17613: a5 = u64 [t0]\n 17615: a2 = u64 [s1 + 0x38]\n 17618: a3 = a2 << 0x3\n 17621: a3 = a3 - a2\n 17624: a3 = a3 + a4\n 17627: a4 = reverse a5\n 17629: a3 = a3 + a4\n 17632: a4 = u64 [t0 + 0x8]\n 17635: t2 = t2 + a0\n 17638: a0 = t2 <u a0\n 17641: a0 = a0 + a3\n 17644: a3 = reverse a4\n 17646: t2 = t2 + a3\n 17649: a3 = t2 <u a3\n 17652: a0 = a0 + a3\n 17655: a1 = a1 + t2\n 17658: a3 = a1 <u t2\n 17661: a0 = a0 + a3\n 17664: a3 = u64 [s1 + 0x18]\n 17667: u64 [a3] = t1\n 17669: u64 [a3 + 0x8] = ra\n 17672: u64 [a3 + 0x10] = a1\n 17675: u64 [a3 + 0x18] = a0\n 17678: a0 = 0\n 17680: u64 [a3 + 56] = 0\n 17683: u64 [a3 + 48] = 0\n 17686: u64 [a3 + 40] = 0\n 17689: u64 [a3 + 32] = 0\n 17692: sp = s0 + 0xffffffffffffff00\n 17696: ra = u64 [sp + 0xf8]\n 17700: s0 = u64 [sp + 0xf0]\n 17704: s1 = u64 [sp + 0xe8]\n 17708: sp = sp + 0x100\n 17712: ret\n      : @533 (gas: 8)\n 17714: u64 [s1 + 144] = 0\n 17718: u64 [s1 + 136] = 0\n 17722: u64 [s1 + 128] = 0\n 17726: a0 = 0x4e487b7100000000\n 17736: a1 = s1 + 0x80\n 17740: u64 [s1 + 0x98] = a0\n 17744: a0 = 0\n 17746: ra = 528, jump @19\n      : @534 [@dyn 264] (gas: 7)\n 17752: u64 [s1 + 120] = 0\n 17755: u64 [s1 + 112] = 0\n 17758: u64 [s1 + 96] = 0x32\n 17762: a0 = 0x4\n 17765: a1 = s1 + 0x60\n 17768: u64 [s1 + 104] = 0\n 17771: ra = 530, jump @19\n      : @535 [@dyn 265] (gas: 2)\n 17777: a1 = i32 [0x20074]\n 17782: jump @537 if a1 >u 63\n      : @536 (gas: 2)\n 17786: u32 [0x20074] = 0x40\n 17792: fallthrough\n      : @537 (gas: 7)\n 17793: a1 = 0x20080\n 17798: i32 a1 = a1 + 0\n 17800: a0 = 0x1\n 17803: a2 = 0x24\n 17806: ra = 0x214\n 17810: ecalli 8 // 'seal_return'\n 17812: fallthrough\n      : @538 [@dyn 266] (gas: 33)\n 17813: sp = sp + 0xffffffffffffffa0\n 17816: u64 [sp + 0x58] = ra\n 17819: u64 [sp + 0x50] = s0\n 17822: u64 [sp + 0x48] = s1\n 17825: s0 = sp + 0x60\n 17828: sp = sp & 0xfffffffffffffff0\n 17831: a2 = u64 [a1 + 0x10]\n 17834: a5 = u64 [a1 + 0x8]\n 17837: a4 = u64 [a1]\n 17839: a1 = u64 [a1 + 0x18]\n 17842: t0 = a2 << 0x3f\n 17845: a3 = a5 >> 0x1\n 17848: t0 = a3 | t0\n 17851: a3 = a1 << 0x3f\n 17854: a2 = a2 >> 0x1\n 17857: a3 = a3 | a2\n 17860: a5 = a5 << 0x3f\n 17863: a2 = a4 >> 0x1\n 17866: a5 = a5 | a2\n 17869: t1 = a1 >> 0x1\n 17872: a4 = a4 & 0x1\n 17875: a1 = -a4\n 17877: s1 = a4 <u 0x1\n 17880: a2 = a5 & 0x7f\n 17883: t2 = a1 & a3\n 17886: a3 = a1 & t0\n 17889: a2 = a5 if a4 != 0\n 17892: a4 = a1 & t1\n 17895: a1 = a2 <u 0x20\n 17898: a1 = 0 if a3 != 0\n 17900: a5 = t2 | a4\n 17903: a1 = 0 if a5 != 0\n 17905: jump @541 if s1 != a1\n      : @539 (gas: 5)\n 17908: u64 [a0] = a2\n 17910: u64 [a0 + 0x8] = a3\n 17913: u64 [a0 + 0x10] = t2\n 17916: u64 [a0 + 0x18] = a4\n 17919: t0 = 534, jump @813\n      : @540 [@dyn 267] (gas: 1)\n 17925: ret\n      : @541 (gas: 1)\n 17927: t0 = 536, jump @797\n      : @542 [@dyn 268] (gas: 1)\n 17933: ra = 538, jump @19\n      : @543 [@dyn 269] (gas: 7)\n 17939: u64 [sp + 24] = 0\n 17942: u64 [sp + 16] = 0\n 17945: u64 [sp + 0] = 0x22\n 17948: a0 = 0x4\n 17951: a1 = sp\n 17953: u64 [sp + 8] = 0\n 17956: ra = 540, jump @19\n      : @544 [@dyn 270] (gas: 2)\n 17962: a1 = i32 [0x20074]\n 17967: jump @546 if a1 >u 63\n      : @545 (gas: 2)\n 17971: u32 [0x20074] = 0x40\n 17977: fallthrough\n      : @546 (gas: 7)\n 17978: a1 = 0x20080\n 17983: i32 a1 = a1 + 0\n 17985: a0 = 0x1\n 17988: a2 = 0x24\n 17991: ra = 0x21e\n 17995: ecalli 8 // 'seal_return'\n 17997: fallthrough\n      : @547 [@dyn 271] (gas: 19)\n 17998: sp = sp + 0xffffffffffffff90\n 18001: u64 [sp + 0x68] = ra\n 18004: u64 [sp + 0x60] = s0\n 18007: s0 = sp + 0x70\n 18010: sp = sp & 0xfffffffffffffff0\n 18013: a3 = u64 [a0 + 0x18]\n 18016: a2 = u64 [a0 + 0x10]\n 18019: t1 = u64 [a0]\n 18021: a0 = u64 [a0 + 0x8]\n 18024: a4 = a3 >u 0\n 18026: a5 = a2 >u 0\n 18028: a5 = a4 if a3 != 0\n 18031: t0 = a0 >u 0\n 18033: a4 = t1 <u 0xffffffffffffff20\n 18037: a4 = a4 ^ 0x1\n 18040: a4 = t0 if a0 != 0\n 18043: a1 = a2 | a3\n 18046: a4 = a5 if a1 != 0\n 18049: jump @550 if a4 != 0\n      : @548 (gas: 15)\n 18052: a1 = t1 + 0xe0\n 18056: a4 = a1 <u t1\n 18059: a5 = a0 + a4\n 18062: a0 = a5 <u a0\n 18065: a0 = a4 if a4 == 0\n 18068: a0 = a0 + a2\n 18071: a2 = a0 <u a2\n 18074: a2 = a2 + a3\n 18077: u64 [sp + 0x40] = a1\n 18080: u64 [sp + 0x48] = a5\n 18083: u64 [sp + 0x50] = a0\n 18086: a0 = 0x40\n 18089: a1 = sp + a0\n 18092: u64 [sp + 0x58] = a2\n 18095: ra = 544, jump @19\n      : @549 [@dyn 272] (gas: 5)\n 18101: sp = s0 + 0xffffffffffffff90\n 18104: ra = u64 [sp + 0x68]\n 18107: s0 = u64 [sp + 0x60]\n 18110: sp = sp + 0x70\n 18113: ret\n      : @550 (gas: 1)\n 18115: t0 = 546, jump @797\n      : @551 [@dyn 273] (gas: 1)\n 18121: ra = 548, jump @19\n      : @552 [@dyn 274] (gas: 7)\n 18127: u64 [sp + 24] = 0\n 18130: u64 [sp + 16] = 0\n 18133: u64 [sp + 0] = 0x41\n 18136: a0 = 0x4\n 18139: a1 = sp\n 18141: u64 [sp + 8] = 0\n 18144: ra = 550, jump @19\n      : @553 [@dyn 275] (gas: 2)\n 18150: a1 = i32 [0x20074]\n 18155: jump @555 if a1 >u 63\n      : @554 (gas: 2)\n 18159: u32 [0x20074] = 0x40\n 18165: fallthrough\n      : @555 (gas: 7)\n 18166: a1 = 0x20080\n 18171: i32 a1 = a1 + 0\n 18173: a0 = 0x1\n 18176: a2 = 0x24\n 18179: ra = 0x228\n 18183: ecalli 8 // 'seal_return'\n 18185: fallthrough\n      : @556 [@dyn 276] (gas: 46)\n 18186: sp = sp + 0xffffffffffffff70\n 18190: u64 [sp + 0x88] = ra\n 18194: u64 [sp + 0x80] = s0\n 18198: u64 [sp + 0x78] = s1\n 18201: s0 = sp + 0x90\n 18205: sp = sp & 0xfffffffffffffff0\n 18208: t0 = a0\n 18210: a2 = u64 [a1]\n 18212: t2 = u64 [a0 + 0x8]\n 18215: a5 = u64 [a1 + 0x8]\n 18218: t1 = u64 [a0]\n 18220: a3 = a2 + 0x1f\n 18223: ra = a3 <u a2\n 18226: a2 = a5 + ra\n 18229: a3 = a3 & 0xffffffffffffffe0\n 18232: u64 [sp + 0x8] = t1\n 18235: t1 = t1 + a3\n 18238: a4 = t1 <u a3\n 18241: a3 = a2 + t2\n 18244: a3 = a3 + a4\n 18247: s1 = a3 ^ a2\n 18250: a0 = a3 <u a2\n 18253: a0 = a4 if s1 == 0\n 18256: a4 = u64 [t0 + 0x18]\n 18259: a5 = a2 <u a5\n 18262: s1 = u64 [a1 + 0x10]\n 18265: t0 = u64 [t0 + 0x10]\n 18268: a1 = u64 [a1 + 0x18]\n 18271: a5 = ra if ra == 0\n 18274: a5 = a5 + s1\n 18277: s1 = a5 <u s1\n 18280: a2 = a5 + t0\n 18283: a0 = a0 + a2\n 18286: a5 = a2 <u a5\n 18289: a2 = a0 <u a2\n 18292: a1 = a1 + a4\n 18295: a1 = a1 + s1\n 18298: a1 = a1 + a5\n 18301: a5 = a1 + a2\n 18304: a1 = a5 >u 0\n 18306: a2 = a0 >u 0\n 18308: a2 = a1 if a5 != 0\n 18311: a1 = a0 | a5\n 18314: s1 = a3 >u 0\n 18316: s1 = a2 if a1 != 0\n 18319: jump @560 if s1 != 0\n      : @557 (gas: 13)\n 18322: a1 = u64 [sp + 0x8]\n 18325: a1 = t1 <u a1\n 18328: a2 = a3 ^ t2\n 18331: s1 = a3 <u t2\n 18334: s1 = a1 if a2 == 0\n 18337: a1 = a0 <u t0\n 18340: a2 = a5 ^ a4\n 18343: a4 = a5 <u a4\n 18346: a4 = a1 if a2 == 0\n 18349: a1 = a0 ^ t0\n 18352: a1 = a1 | a2\n 18355: a4 = s1 if a1 == 0\n 18358: jump @560 if a4 != 0\n      : @558 (gas: 7)\n 18361: u64 [sp + 0x50] = t1\n 18364: u64 [sp + 0x58] = a3\n 18367: u64 [sp + 0x60] = a0\n 18370: a0 = 0x40\n 18373: a1 = sp + 0x50\n 18376: u64 [sp + 0x68] = a5\n 18379: ra = 554, jump @19\n      : @559 [@dyn 277] (gas: 6)\n 18385: sp = s0 + 0xffffffffffffff70\n 18389: ra = u64 [sp + 0x88]\n 18393: s0 = u64 [sp + 0x80]\n 18397: s1 = u64 [sp + 0x78]\n 18400: sp = sp + 0x90\n 18404: ret\n      : @560 (gas: 8)\n 18406: u64 [sp + 64] = 0\n 18409: u64 [sp + 56] = 0\n 18412: u64 [sp + 48] = 0\n 18415: a0 = 0x4e487b7100000000\n 18425: a1 = sp + 0x30\n 18428: u64 [sp + 0x48] = a0\n 18431: a0 = 0\n 18433: ra = 556, jump @19\n      : @561 [@dyn 278] (gas: 7)\n 18439: u64 [sp + 40] = 0\n 18442: u64 [sp + 32] = 0\n 18445: u64 [sp + 16] = 0x41\n 18449: a0 = 0x4\n 18452: a1 = sp + 0x10\n 18455: u64 [sp + 24] = 0\n 18458: ra = 558, jump @19\n      : @562 [@dyn 279] (gas: 2)\n 18464: a1 = i32 [0x20074]\n 18469: jump @564 if a1 >u 63\n      : @563 (gas: 2)\n 18473: u32 [0x20074] = 0x40\n 18479: fallthrough\n      : @564 (gas: 7)\n 18480: a1 = 0x20080\n 18485: i32 a1 = a1 + 0\n 18487: a0 = 0x1\n 18490: a2 = 0x24\n 18493: ra = 0x230\n 18497: ecalli 8 // 'seal_return'\n 18499: fallthrough\n      : @565 [@dyn 280] (gas: 24)\n 18500: sp = sp + 0xfffffffffffffda0\n 18504: a2 = sp + 0x200\n 18508: u64 [a2 + 0x58] = ra\n 18511: u64 [a2 + 0x50] = s0\n 18514: u64 [a2 + 0x48] = s1\n 18517: s0 = sp + 0x260\n 18521: sp = sp & 0xffffffffffffffe0\n 18524: s1 = sp\n 18526: u64 [s1 + 0x10] = a0\n 18529: a0 = u64 [a1 + 0x18]\n 18532: a2 = u64 [a1 + 0x10]\n 18535: a3 = u64 [a1 + 0x8]\n 18538: a1 = u64 [a1]\n 18540: u64 [s1 + 0xb0] = a0\n 18544: u64 [s1 + 0x238] = a0\n 18548: u64 [s1 + 0xa8] = a2\n 18552: u64 [s1 + 0x230] = a2\n 18556: u64 [s1 + 0xa0] = a3\n 18560: u64 [s1 + 0x228] = a3\n 18564: u64 [s1 + 0x98] = a1\n 18568: u64 [s1 + 0x220] = a1\n 18572: a0 = s1 + 0x200\n 18576: a1 = 0x40\n 18579: ra = 562, jump @17\n      : @566 [@dyn 281] (gas: 12)\n 18585: a1 = s1 + 0x200\n 18589: a0 = u64 [a1 + 0x18]\n 18592: u64 [s1 + 0x18] = a0\n 18595: a0 = u64 [a1 + 0x10]\n 18598: u64 [s1 + 0x20] = a0\n 18601: a0 = u64 [a1 + 0x8]\n 18604: u64 [s1 + 0x28] = a0\n 18607: a0 = u64 [a1]\n 18609: u64 [s1 + 0x30] = a0\n 18612: a0 = s1 + 0x1e0\n 18616: a1 = s1 + 0x220\n 18620: ra = 564, jump @21\n      : @567 [@dyn 282] (gas: 16)\n 18626: a4 = s1 + 0x100\n 18630: a0 = u64 [a4 + 0xf8]\n 18634: a1 = u64 [a4 + 0xf0]\n 18638: a2 = u64 [a4 + 0xe8]\n 18642: a3 = u64 [a4 + 0xe0]\n 18646: u64 [s1 + 0x90] = a0\n 18650: u64 [a4 + 0xb8] = a0\n 18654: u64 [s1 + 0x88] = a1\n 18658: u64 [a4 + 0xb0] = a1\n 18662: u64 [s1 + 0x80] = a2\n 18666: u64 [a4 + 0xa8] = a2\n 18670: a0 = s1 + 0x1c0\n 18674: a1 = s1 + 0x1a0\n 18678: u64 [s1 + 0xb8] = a3\n 18682: u64 [a4 + 0xa0] = a3\n 18686: ra = 566, jump @538\n      : @568 [@dyn 283] (gas: 12)\n 18692: a0 = u64 [s1 + 0x30]\n 18695: a1 = u64 [s1 + 0x18]\n 18698: a2 = u64 [s1 + 0x28]\n 18701: a2 = a2 | a1\n 18704: a3 = u64 [s1 + 0x20]\n 18707: a1 = a0 | a3\n 18710: a1 = a1 | a2\n 18713: a1 = a1 >> 0x20\n 18716: a2 = a2 | a3\n 18719: a2 = a2 << 0x20\n 18722: a1 = a1 | a2\n 18725: jump @587 if a1 != 0\n      : @569 (gas: 15)\n 18729: a5 = s1 + 0x100\n 18733: a2 = u64 [a5 + 0xd8]\n 18737: a3 = u64 [a5 + 0xd0]\n 18741: a1 = u64 [a5 + 0xc8]\n 18745: a4 = u64 [a5 + 0xc0]\n 18749: u64 [s1 + 0x60] = a4\n 18752: u64 [a5 + 0x80] = a4\n 18756: u64 [s1 + 0x70] = a1\n 18759: u64 [a5 + 0x88] = a1\n 18763: u64 [s1 + 0x68] = a3\n 18766: u64 [a5 + 0x90] = a3\n 18770: a1 = s1 + 0x180\n 18774: u64 [s1 + 0x78] = a2\n 18777: u64 [a5 + 0x98] = a2\n 18781: ra = 568, jump @19\n      : @570 [@dyn 284] (gas: 3)\n 18787: a3 = u64 [s1 + 0xb8]\n 18791: a0 = a3 & 0x1\n 18794: jump @576 if a0 != 0\n      : @571 (gas: 10)\n 18798: a0 = u64 [s1 + 0x20]\n 18801: a1 = u64 [s1 + 0x18]\n 18804: a0 = a0 | a1\n 18807: a1 = 0xffffffe0\n 18817: a4 = u64 [s1 + 0x30]\n 18820: a1 = a4 <u a1\n 18823: a2 = u64 [s1 + 0x28]\n 18826: a1 = 0 if a2 != 0\n 18828: a1 = 0 if a0 != 0\n 18830: jump @587 if a1 == 0\n      : @572 (gas: 12)\n 18834: a1 = a3 & 0xffffffffffffff00\n 18838: i32 a0 = a4 + 0x20\n 18841: a3 = u64 [s1 + 0x80]\n 18845: a2 = s1 + 0x100\n 18849: u64 [a2 + 0x8] = a3\n 18852: u64 [a2] = a1\n 18854: a1 = u64 [s1 + 0x88]\n 18858: u64 [a2 + 0x10] = a1\n 18861: a1 = s1 + 0x100\n 18865: a3 = u64 [s1 + 0x90]\n 18869: u64 [a2 + 0x18] = a3\n 18872: ra = 570, jump @19\n      : @573 [@dyn 285] (gas: 14)\n 18878: t2 = 0\n 18880: t1 = 0\n 18882: t0 = 0\n 18884: a0 = u64 [s1 + 0x68]\n 18887: a1 = u64 [s1 + 0x60]\n 18890: a0 = a0 | a1\n 18893: a1 = u64 [s1 + 0x78]\n 18896: a2 = u64 [s1 + 0x70]\n 18899: a1 = a1 | a2\n 18902: a0 = a0 | a1\n 18905: a0 = a0 >u 0\n 18907: a0 = a0 << 0x5\n 18910: u64 [s1 + 0xb8] = a0\n 18914: fallthrough\n      : @574 (gas: 24)\n 18915: a1 = u64 [s1 + 0xb8]\n 18919: a0 = a1 + 0x20\n 18922: a1 = a0 <u a1\n 18925: a2 = t2 + a1\n 18928: a3 = a2 <u t2\n 18931: a3 = a1 if a1 == 0\n 18934: a3 = a3 + t1\n 18937: a1 = a3 <u t1\n 18940: a4 = t0 + a1\n 18943: a1 = u64 [s1 + 0x30]\n 18946: u64 [s1 + 0xe0] = a1\n 18950: u64 [s1 + 0xc0] = a0\n 18954: a0 = u64 [s1 + 0x28]\n 18957: u64 [s1 + 0xe8] = a0\n 18961: a0 = u64 [s1 + 0x20]\n 18964: u64 [s1 + 0xf0] = a0\n 18968: u64 [s1 + 0xc8] = a2\n 18972: a0 = u64 [s1 + 0x18]\n 18975: u64 [s1 + 0xf8] = a0\n 18979: u64 [s1 + 0xd0] = a3\n 18983: a0 = s1 + 0xe0\n 18987: a1 = s1 + 0xc0\n 18991: u64 [s1 + 0xd8] = a4\n 18995: ra = 572, jump @556\n      : @575 [@dyn 286] (gas: 16)\n 19001: a0 = u64 [s1 + 0x10]\n 19004: a1 = u64 [s1 + 0x18]\n 19007: u64 [a0 + 0x18] = a1\n 19010: a1 = u64 [s1 + 0x20]\n 19013: u64 [a0 + 0x10] = a1\n 19016: a1 = u64 [s1 + 0x28]\n 19019: u64 [a0 + 0x8] = a1\n 19022: a1 = u64 [s1 + 0x30]\n 19025: u64 [a0] = a1\n 19027: sp = s0 + 0xfffffffffffffda0\n 19031: a0 = sp + 0x200\n 19035: ra = u64 [a0 + 0x58]\n 19038: s0 = u64 [a0 + 0x50]\n 19041: s1 = u64 [a0 + 0x48]\n 19044: sp = sp + 0x260\n 19048: ret\n      : @576 (gas: 12)\n 19050: a0 = u64 [s1 + 0x98]\n 19054: a2 = s1 + 0x100\n 19058: u64 [a2 + 0x60] = a0\n 19061: a0 = u64 [s1 + 0xa0]\n 19065: u64 [a2 + 0x68] = a0\n 19068: a0 = u64 [s1 + 0xa8]\n 19072: u64 [a2 + 0x70] = a0\n 19075: a1 = s1 + 0x160\n 19079: a0 = u64 [s1 + 0xb0]\n 19083: u64 [a2 + 0x78] = a0\n 19086: a0 = 0\n 19088: ra = 574, jump @19\n      : @577 [@dyn 287] (gas: 6)\n 19094: a0 = sp + 0xffffffffffffffe0\n 19097: a0 = a0 & 0xffffffffffffffe0\n 19100: u64 [s1 + 0x58] = a0\n 19103: sp = a0\n 19105: a1 = i32 [0x20074]\n 19110: jump @579 if a1 >u 31\n      : @578 (gas: 2)\n 19114: u32 [0x20074] = 0x20\n 19120: fallthrough\n      : @579 (gas: 49)\n 19121: a0 = sp + 0xffffffffffffffe0\n 19124: a2 = a0 & 0xffffffffffffffe0\n 19127: u64 [s1 + 0xb0] = a2\n 19131: sp = a2\n 19133: a0 = 0x20080\n 19138: i32 a0 = a0 + 0\n 19140: i32 a2 = a2 + 0\n 19142: a1 = 0x20\n 19145: ecalli 6 // 'hash_keccak_256'\n 19147: u64 [s1 + 184] = 0\n 19151: t2 = 0\n 19153: t1 = 0\n 19155: t0 = 0\n 19157: a5 = u64 [s1 + 0xb0]\n 19161: a0 = u64 [a5 + 0x18]\n 19164: a1 = u64 [s1 + 0x30]\n 19167: a2 = a1 + 0x20\n 19170: u64 [s1 + 0x50] = a2\n 19173: a1 = a2 <u a1\n 19176: a2 = u64 [s1 + 0x28]\n 19179: a3 = a2 + a1\n 19182: u64 [s1 + 0x48] = a3\n 19185: a4 = a3 <u a2\n 19188: a4 = a1 if a1 == 0\n 19191: a1 = u64 [a5 + 0x10]\n 19194: a2 = u64 [a5 + 0x8]\n 19197: a3 = u64 [a5]\n 19199: a0 = reverse a0\n 19201: a1 = reverse a1\n 19203: ra = reverse a2\n 19205: a2 = reverse a3\n 19207: a5 = u64 [s1 + 0x58]\n 19210: a3 = a2\n 19212: u64 [a5 + 0x18] = a2\n 19215: a2 = ra\n 19217: u64 [s1 + 0x80] = a2\n 19221: u64 [a5 + 0x10] = a2\n 19224: u64 [s1 + 0x90] = a1\n 19228: u64 [a5 + 0x8] = a1\n 19231: a2 = a0\n 19233: u64 [a5] = a0\n 19235: a0 = u64 [s1 + 0x20]\n 19238: a4 = a4 + a0\n 19241: u64 [s1 + 0x40] = a4\n 19244: a0 = a4 <u a0\n 19247: a1 = u64 [s1 + 0x18]\n 19250: a0 = a0 + a1\n 19253: u64 [s1 + 0x38] = a0\n 19256: fallthrough\n      : @580 (gas: 19)\n 19257: u64 [s1 + 0x88] = a3\n 19261: u64 [s1 + 0x98] = a2\n 19265: a0 = u64 [s1 + 0x60]\n 19268: a1 = u64 [s1 + 0xb8]\n 19272: a0 = a1 <u a0\n 19275: a2 = u64 [s1 + 0x70]\n 19278: a1 = t2 ^ a2\n 19281: a2 = t2 <u a2\n 19284: a2 = a0 if a1 == 0\n 19287: a4 = u64 [s1 + 0x68]\n 19290: a0 = t1 <u a4\n 19293: a3 = u64 [s1 + 0x78]\n 19296: a1 = t0 ^ a3\n 19299: a3 = t0 <u a3\n 19302: a3 = a0 if a1 == 0\n 19305: a0 = t1 ^ a4\n 19308: a0 = a0 | a1\n 19311: a3 = a2 if a0 == 0\n 19314: jump @574 if a3 == 0\n      : @581 (gas: 6)\n 19318: a0 = s1 + 0x140\n 19322: a1 = a5\n 19324: u64 [s1 + 0xb0] = t0\n 19328: u64 [s1 + 0xa8] = t1\n 19332: u64 [s1 + 0xa0] = t2\n 19336: ra = 576, jump @21\n      : @582 [@dyn 288] (gas: 7)\n 19342: a1 = u64 [s1 + 0x50]\n 19345: a0 = u64 [s1 + 0xb8]\n 19349: a0 = a0 + a1\n 19352: a1 = a0 <u a1\n 19355: a4 = u64 [s1 + 0x48]\n 19358: a2 = u64 [s1 + 0xa0]\n 19362: t0 = 578, jump @808\n      : @583 [@dyn 289] (gas: 9)\n 19368: a3 = u64 [s1 + 0x40]\n 19371: a1 = u64 [s1 + 0xa8]\n 19375: a1 = a1 + a3\n 19378: t0 = a1 <u a3\n 19381: a5 = u64 [s1 + 0x38]\n 19384: a3 = u64 [s1 + 0xb0]\n 19388: a5 = a5 + a3\n 19391: a3 = a5 + t0\n 19394: t0 = 580, jump @805\n      : @584 [@dyn 290] (gas: 1)\n 19400: jump @587 if a1 != 0\n      : @585 (gas: 11)\n 19404: a5 = s1 + 0x100\n 19408: a2 = u64 [a5 + 0x58]\n 19411: a1 = u64 [a5 + 0x50]\n 19414: a3 = u64 [a5 + 0x48]\n 19417: a4 = u64 [a5 + 0x40]\n 19420: u64 [a5 + 0x20] = a4\n 19423: u64 [a5 + 0x28] = a3\n 19426: u64 [a5 + 0x30] = a1\n 19429: a1 = s1 + 0x120\n 19433: u64 [a5 + 0x38] = a2\n 19436: ra = 582, jump @19\n      : @586 [@dyn 291] (gas: 38)\n 19442: a3 = u64 [s1 + 0x98]\n 19446: a3 = a3 + 0x1\n 19449: a0 = a3 <u 0x1\n 19452: t2 = u64 [s1 + 0x90]\n 19456: t2 = t2 + a0\n 19459: a0 = a3 | t2\n 19462: a0 = a0 <u 0x1\n 19465: a1 = u64 [s1 + 0x80]\n 19469: t1 = a1 + a0\n 19472: a1 = t1 <u a1\n 19475: a0 = u64 [s1 + 0x88]\n 19479: a0 = a0 + a1\n 19482: a1 = u64 [s1 + 0xb8]\n 19486: ra = a1 + 0x20\n 19489: a2 = ra <u a1\n 19492: a4 = u64 [s1 + 0xa0]\n 19496: a1 = a4 + a2\n 19499: a4 = a1 <u a4\n 19502: a4 = a2 if a2 == 0\n 19505: a2 = u64 [s1 + 0xa8]\n 19509: a4 = a4 + a2\n 19512: a2 = a4 <u a2\n 19515: t0 = u64 [s1 + 0xb0]\n 19519: t0 = t0 + a2\n 19522: a2 = t2\n 19524: u64 [s1 + 0x90] = a2\n 19528: a5 = u64 [s1 + 0x58]\n 19531: u64 [a5 + 0x8] = a2\n 19534: a2 = a3\n 19536: u64 [a5] = a3\n 19538: u64 [a5 + 0x10] = t1\n 19541: a3 = a0\n 19543: u64 [a5 + 0x18] = a0\n 19546: u64 [s1 + 0x80] = t1\n 19550: u64 [s1 + 0xb8] = ra\n 19554: t2 = a1\n 19556: t1 = a4\n 19558: jump @580\n      : @587 (gas: 1)\n 19561: trap\n      : @588 (gas: 21)\n 19562: sp = sp + 0xffffffffffffff10\n 19566: u64 [sp + 0xe8] = ra\n 19570: u64 [sp + 0xe0] = s0\n 19574: u64 [sp + 0xd8] = s1\n 19578: s0 = sp + 0xf0\n 19582: sp = sp & 0xfffffffffffffff0\n 19585: a5 = u64 [a1 + 0x10]\n 19588: a4 = u64 [a1 + 0x18]\n 19591: a3 = u64 [a1 + 0x8]\n 19594: a1 = u64 [a1]\n 19596: u64 [sp + 0x28] = a3\n 19599: u64 [sp + 0x18] = a4\n 19602: a4 = a4 | a3\n 19605: a3 = a1 | a5\n 19608: a3 = a3 | a4\n 19611: a3 = a3 >> 0x20\n 19614: u64 [sp + 0x20] = a5\n 19617: a4 = a4 | a5\n 19620: a4 = a4 << 0x20\n 19623: a3 = a3 | a4\n 19626: jump @603 if a3 != 0\n      : @589 (gas: 11)\n 19630: u64 [sp + 0x8] = a0\n 19633: a0 = u64 [a2 + 0x18]\n 19636: u64 [sp + 0x68] = a0\n 19639: s1 = u64 [a2 + 0x10]\n 19642: a0 = u64 [a2 + 0x8]\n 19645: u64 [sp + 0x60] = a0\n 19648: a0 = u64 [a2]\n 19650: u64 [sp + 0x58] = a0\n 19653: a0 = sp + 0xb0\n 19657: u64 [sp + 0x10] = a1\n 19660: ra = 584, jump @17\n      : @590 [@dyn 292] (gas: 12)\n 19666: a0 = u64 [sp + 0x58]\n 19669: a2 = a0 | s1\n 19672: a1 = u64 [sp + 0x68]\n 19675: a3 = u64 [sp + 0x60]\n 19678: a1 = a1 | a3\n 19681: a2 = a2 | a1\n 19684: a2 = a2 >> 0x20\n 19687: u64 [sp + 0x50] = s1\n 19690: a1 = a1 | s1\n 19693: a1 = a1 << 0x20\n 19696: a1 = a1 | a2\n 19699: jump @603 if a1 != 0\n      : @591 (gas: 15)\n 19703: a2 = u64 [sp + 0xc8]\n 19707: a3 = u64 [sp + 0xc0]\n 19711: a4 = u64 [sp + 0xb8]\n 19715: a1 = u64 [sp + 0xb0]\n 19719: u64 [sp + 0x30] = a1\n 19722: u64 [sp + 0x90] = a1\n 19726: u64 [sp + 0x38] = a4\n 19729: u64 [sp + 0x98] = a4\n 19733: u64 [sp + 0x40] = a3\n 19736: u64 [sp + 0xa0] = a3\n 19740: a1 = sp + 0x90\n 19744: u64 [sp + 0x48] = a2\n 19747: u64 [sp + 0xa8] = a2\n 19751: s1 = a0\n 19753: ra = 586, jump @19\n      : @592 [@dyn 293] (gas: 9)\n 19759: a0 = u64 [sp + 0x68]\n 19762: a1 = u64 [sp + 0x50]\n 19765: a1 = a1 | a0\n 19768: a0 = 0xffffffe0\n 19778: a2 = s1 <u a0\n 19781: a3 = u64 [sp + 0x60]\n 19784: a2 = 0 if a3 != 0\n 19786: a2 = 0 if a1 != 0\n 19788: jump @603 if a2 == 0\n      : @593 (gas: 9)\n 19792: a1 = u64 [sp + 0x20]\n 19795: a2 = u64 [sp + 0x18]\n 19798: a1 = a1 | a2\n 19801: a2 = u64 [sp + 0x10]\n 19804: a0 = a2 <u a0\n 19807: a3 = u64 [sp + 0x28]\n 19810: a0 = 0 if a3 != 0\n 19812: a0 = 0 if a1 != 0\n 19814: jump @603 if a0 == 0\n      : @594 (gas: 13)\n 19818: a5 = s1\n 19820: s1 = u64 [sp + 0x30]\n 19823: a3 = u64 [sp + 0x40]\n 19826: a0 = s1 | a3\n 19829: a1 = u64 [sp + 0x48]\n 19832: a4 = u64 [sp + 0x38]\n 19835: a1 = a1 | a4\n 19838: a0 = a0 | a1\n 19841: a0 = a0 >> 0x20\n 19844: a1 = a1 | a3\n 19847: a1 = a1 << 0x20\n 19850: a0 = a0 | a1\n 19853: jump @603 if a0 != 0\n      : @595 (gas: 5)\n 19857: i32 a0 = a5 + 0x20\n 19860: i32 a1 = a2 + 0x20\n 19863: u64 [sp + 0x28] = a1\n 19866: a1 = s1\n 19868: ra = 588, jump @27\n      : @596 [@dyn 294] (gas: 4)\n 19874: u64 [sp + 0x20] = a0\n 19877: a0 = u64 [sp + 0x28]\n 19880: a1 = s1\n 19882: ra = 590, jump @27\n      : @597 [@dyn 295] (gas: 4)\n 19888: a1 = a0\n 19890: a0 = u64 [sp + 0x20]\n 19893: a2 = s1\n 19895: ra = 592, jump @0\n      : @598 [@dyn 296] (gas: 6)\n 19901: a0 = u64 [sp + 0x58]\n 19904: a0 = a0 + s1\n 19907: a1 = a0 <u s1\n 19910: a2 = u64 [sp + 0x60]\n 19913: a4 = u64 [sp + 0x38]\n 19916: t0 = 594, jump @808\n      : @599 [@dyn 297] (gas: 17)\n 19922: a1 = u64 [sp + 0x50]\n 19925: a3 = u64 [sp + 0x40]\n 19928: a1 = a1 + a3\n 19931: a3 = a1 <u a3\n 19934: a5 = u64 [sp + 0x68]\n 19937: s1 = u64 [sp + 0x48]\n 19940: a5 = a5 + s1\n 19943: a3 = a3 + a5\n 19946: a4 = a4 + a1\n 19949: a1 = a4 <u a1\n 19952: a1 = a1 + a3\n 19955: a1 = a1 | a4\n 19958: a3 = 0xffffffe0\n 19968: a3 = a0 <u a3\n 19971: a3 = 0 if a2 != 0\n 19973: a3 = 0 if a1 != 0\n 19975: jump @603 if a3 == 0\n      : @600 (gas: 7)\n 19979: i32 a0 = a0 + 0x20\n 19982: u64 [sp + 136] = 0\n 19986: u64 [sp + 128] = 0\n 19990: u64 [sp + 120] = 0\n 19993: a1 = sp + 0x70\n 19996: u64 [sp + 112] = 0\n 19999: ra = 596, jump @19\n      : @601 [@dyn 298] (gas: 9)\n 20005: s1 = u64 [sp + 0x30]\n 20008: s1 = s1 + 0x1f\n 20011: a0 = 0x1ffffffe0\n 20021: a0 = a0 & s1\n 20024: a1 = u64 [sp + 0x58]\n 20027: a0 = a0 + a1\n 20030: a1 = a0 <u a1\n 20033: a3 = u64 [sp + 0x60]\n 20036: t0 = 598, jump @819\n      : @602 [@dyn 299] (gas: 24)\n 20042: a1 = u64 [sp + 0x50]\n 20045: a3 = a3 + a1\n 20048: a1 = a3 <u a1\n 20051: a4 = u64 [sp + 0x68]\n 20054: a1 = a1 + a4\n 20057: a4 = a0 + 0x20\n 20060: a0 = a4 <u a0\n 20063: a5 = a2 + a0\n 20066: a2 = a5 <u a2\n 20069: a2 = a0 if a0 == 0\n 20072: a2 = a2 + a3\n 20075: a0 = a2 <u a3\n 20078: a0 = a0 + a1\n 20081: a1 = u64 [sp + 0x8]\n 20084: u64 [a1] = a4\n 20086: u64 [a1 + 0x8] = a5\n 20089: u64 [a1 + 0x10] = a2\n 20092: u64 [a1 + 0x18] = a0\n 20095: sp = s0 + 0xffffffffffffff10\n 20099: ra = u64 [sp + 0xe8]\n 20103: s0 = u64 [sp + 0xe0]\n 20107: s1 = u64 [sp + 0xd8]\n 20111: sp = sp + 0xf0\n 20115: ret\n      : @603 (gas: 1)\n 20117: trap\n      : @604 (gas: 23)\n 20118: sp = sp + 0xfffffffffffffc10\n 20122: a3 = sp + 0x300\n 20126: u64 [a3 + 0xe8] = ra\n 20130: u64 [a3 + 0xe0] = s0\n 20134: u64 [a3 + 0xd8] = s1\n 20138: s0 = sp + 0x3f0\n 20142: sp = sp & 0xfffffffffffffff0\n 20145: a3 = u64 [a1 + 0x18]\n 20148: a4 = u64 [a1 + 0x10]\n 20151: s1 = u64 [a1 + 0x8]\n 20154: a5 = u64 [a1]\n 20156: u64 [sp + 0x40] = a3\n 20159: u64 [sp + 0x48] = s1\n 20162: a1 = s1 | a3\n 20165: a3 = a5 | a4\n 20168: a3 = a3 | a1\n 20171: a3 = a3 >> 0x20\n 20174: u64 [sp + 0x38] = a4\n 20177: a1 = a1 | a4\n 20180: a1 = a1 << 0x20\n 20183: a1 = a1 | a3\n 20186: u64 [sp + 0x8] = a0\n 20189: jump @659 if a1 != 0\n      : @605 (gas: 16)\n 20193: a0 = u64 [a2 + 0x18]\n 20196: u64 [sp + 0xc0] = a0\n 20200: s1 = u64 [a2 + 0x10]\n 20203: a0 = u64 [a2 + 0x8]\n 20206: u64 [sp + 0xb8] = a0\n 20210: a0 = u64 [a2]\n 20212: u64 [sp + 0xb0] = a0\n 20216: a2 = sp + 0x300\n 20220: u64 [a2 + 200] = 0\n 20224: u64 [a2 + 192] = 0\n 20228: u64 [a2 + 184] = 0\n 20232: a1 = sp + 0x3b0\n 20236: u64 [a2 + 176] = 0x20\n 20241: a0 = a5\n 20243: u64 [sp + 0x30] = a5\n 20246: ra = 600, jump @19\n      : @606 [@dyn 300] (gas: 12)\n 20252: a1 = u64 [sp + 0xb0]\n 20256: a0 = a1 | s1\n 20259: a2 = u64 [sp + 0xc0]\n 20263: a3 = u64 [sp + 0xb8]\n 20267: a2 = a2 | a3\n 20270: a0 = a0 | a2\n 20273: a0 = a0 >> 0x20\n 20276: u64 [sp + 0x90] = s1\n 20280: a2 = a2 | s1\n 20283: a2 = a2 << 0x20\n 20286: a0 = a0 | a2\n 20289: jump @659 if a0 != 0\n      : @607 (gas: 17)\n 20293: a0 = u64 [sp + 0x30]\n 20296: a2 = a0 + 0x20\n 20299: u64 [sp + 0x100] = a2\n 20303: a0 = a2 <u a0\n 20306: a2 = u64 [sp + 0x48]\n 20309: a3 = a2 + a0\n 20312: u64 [sp + 0x108] = a3\n 20316: s1 = a3 <u a2\n 20319: s1 = a0 if a0 == 0\n 20322: a0 = u64 [sp + 0x38]\n 20325: s1 = s1 + a0\n 20328: a0 = s1 <u a0\n 20331: a2 = u64 [sp + 0x40]\n 20334: a0 = a0 + a2\n 20337: u64 [sp + 0xf8] = a0\n 20341: a0 = sp + 0x390\n 20345: ra = 602, jump @17\n      : @608 [@dyn 301] (gas: 11)\n 20351: a4 = u64 [sp + 0x100]\n 20355: a0 = a4 | s1\n 20358: a1 = u64 [sp + 0x108]\n 20362: a2 = u64 [sp + 0xf8]\n 20366: a1 = a1 | a2\n 20369: a0 = a0 | a1\n 20372: a0 = a0 >> 0x20\n 20375: a1 = a1 | s1\n 20378: a1 = a1 << 0x20\n 20381: a0 = a0 | a1\n 20384: jump @659 if a0 != 0\n      : @609 (gas: 17)\n 20388: a5 = sp + 0x300\n 20392: a2 = u64 [a5 + 0xa8]\n 20396: u64 [sp + 0x28] = a2\n 20399: a3 = u64 [a5 + 0xa0]\n 20403: u64 [sp + 0x20] = a3\n 20406: a1 = u64 [a5 + 0x98]\n 20410: u64 [sp + 0x18] = a1\n 20413: s1 = u64 [a5 + 0x90]\n 20417: a0 = 0xffffffff\n 20427: u64 [sp + 0x70] = a0\n 20430: u64 [a5 + 0x70] = s1\n 20433: u64 [a5 + 0x78] = a1\n 20436: u64 [a5 + 0x80] = a3\n 20440: a1 = sp + 0x370\n 20444: u64 [a5 + 0x88] = a2\n 20448: a0 = a4\n 20450: ra = 604, jump @19\n      : @610 [@dyn 302] (gas: 59)\n 20456: ra = 0\n 20458: a5 = 0\n 20460: u64 [sp + 128] = 0\n 20464: t0 = 0\n 20466: a0 = u64 [sp + 0x30]\n 20469: a3 = a0 + 0x40\n 20472: t1 = a3 <u a0\n 20475: a1 = u64 [sp + 0x48]\n 20478: a0 = a1 + t1\n 20481: a4 = a1\n 20483: a1 = s1 >> 0x3b\n 20486: t2 = u64 [sp + 0x18]\n 20489: a2 = t2 << 0x5\n 20492: a1 = a1 | a2\n 20495: u64 [sp + 0x10] = s1\n 20498: a2 = s1 << 0x5\n 20501: a1 = a1 + a0\n 20504: a2 = a2 + a3\n 20507: u64 [sp + 0xa8] = a3\n 20511: u64 [sp + 0x108] = a2\n 20515: a2 = a2 <u a3\n 20518: a3 = a1 + a2\n 20521: a1 = a3 ^ a0\n 20524: u64 [sp + 0x100] = a3\n 20528: a3 = a3 <u a0\n 20531: a3 = a2 if a1 == 0\n 20534: a1 = a0 <u a4\n 20537: a1 = t1 if t1 == 0\n 20540: a4 = u64 [sp + 0x20]\n 20543: t1 = a4 >> 0x3b\n 20546: a2 = u64 [sp + 0x28]\n 20549: a2 = a2 << 0x5\n 20552: t1 = a2 | t1\n 20555: a2 = t2 >> 0x3b\n 20558: a4 = a4 << 0x5\n 20561: s1 = a4 | a2\n 20564: a4 = a0\n 20566: a0 = u64 [sp + 0x38]\n 20569: a2 = a0 + a1\n 20572: a1 = a2 <u a0\n 20575: a0 = u64 [sp + 0x40]\n 20578: a0 = a0 + a1\n 20581: s1 = s1 + a2\n 20584: u64 [sp + 0xa0] = a0\n 20588: a0 = a0 + t1\n 20591: u64 [sp + 0x98] = a2\n 20595: a1 = s1 <u a2\n 20598: a0 = a0 + a1\n 20601: a1 = s1 + a3\n 20604: a3 = u64 [sp + 0x80]\n 20608: u64 [sp + 0xd0] = a1\n 20612: a1 = a1 <u s1\n 20615: a0 = a0 + a1\n 20618: u64 [sp + 0xd8] = a0\n 20622: a0 = 0x100000000\n 20632: u64 [sp + 0xc8] = a0\n 20636: a0 = 0xffffffe0\n 20646: u64 [sp + 0x78] = a0\n 20649: fallthrough\n      : @611 (gas: 20)\n 20650: t2 = u64 [sp + 0x48]\n 20653: a0 = u64 [sp + 0x10]\n 20656: a0 = ra <u a0\n 20659: a2 = u64 [sp + 0x18]\n 20662: a1 = a5 ^ a2\n 20665: a2 = a5 <u a2\n 20668: a2 = a0 if a1 == 0\n 20671: s1 = u64 [sp + 0x20]\n 20674: t1 = a3 <u s1\n 20677: a0 = a3\n 20679: a3 = u64 [sp + 0x28]\n 20682: a1 = t0 ^ a3\n 20685: u64 [sp + 0x68] = t0\n 20688: a3 = t0 <u a3\n 20691: a3 = t1 if a1 == 0\n 20694: u64 [sp + 0x80] = a0\n 20698: a0 = a0 ^ s1\n 20701: a0 = a0 | a1\n 20704: a3 = a2 if a0 == 0\n 20707: jump @658 if a3 == 0\n      : @612 (gas: 15)\n 20711: u64 [sp + 0x58] = a5\n 20714: u64 [sp + 0x60] = ra\n 20717: a0 = u64 [sp + 0xa8]\n 20721: a3 = u64 [sp + 0x98]\n 20725: a2 = a0 | a3\n 20728: u64 [sp + 0x50] = a4\n 20731: a1 = u64 [sp + 0xa0]\n 20735: a1 = a1 | a4\n 20738: a2 = a2 | a1\n 20741: a2 = a2 >> 0x20\n 20744: a1 = a1 | a3\n 20747: a1 = a1 << 0x20\n 20750: a1 = a1 | a2\n 20753: a3 = u64 [sp + 0x100]\n 20757: jump @659 if a1 != 0\n      : @613 (gas: 40)\n 20761: a5 = u64 [sp + 0x108]\n 20765: s1 = u64 [sp + 0x30]\n 20768: a2 = a5 <u s1\n 20771: a1 = a3 ^ t2\n 20774: a4 = a3 <u t2\n 20777: a4 = a2 if a1 == 0\n 20780: ra = u64 [sp + 0xd0]\n 20784: a1 = u64 [sp + 0x38]\n 20787: t1 = ra - a1\n 20790: a3 = a3 - t2\n 20793: a3 = a3 - a2\n 20796: a2 = a5 - s1\n 20799: t0 = a2 + 0xffffffffffffffc0\n 20802: a2 = t0 <u a2\n 20805: a5 = a3 + a2\n 20808: a5 = a5 + 0xffffffffffffffff\n 20811: s1 = a5 ^ a3\n 20814: a3 = a5 <u a3\n 20817: a3 = a2 if s1 == 0\n 20820: a2 = ra <u a1\n 20823: s1 = u64 [sp + 0xd8]\n 20827: a1 = u64 [sp + 0x40]\n 20830: s1 = s1 - a1\n 20833: s1 = s1 - a2\n 20836: a2 = t1 <u a4\n 20839: s1 = s1 - a2\n 20842: a1 = t1 - a4\n 20845: a2 = a1 <u 0x1\n 20848: s1 = s1 - a2\n 20851: a1 = a1 + 0xffffffffffffffff\n 20854: a3 = a3 + a1\n 20857: a1 = a3 <u a1\n 20860: s1 = s1 + a1\n 20863: a2 = sp + 0x300\n 20867: u64 [a2 + 0x50] = t0\n 20870: u64 [a2 + 0x58] = a5\n 20873: u64 [a2 + 0x60] = a3\n 20876: a1 = sp + 0x350\n 20880: u64 [a2 + 0x68] = s1\n 20883: ra = 606, jump @19\n      : @614 [@dyn 303] (gas: 10)\n 20889: a0 = u64 [sp + 0xc0]\n 20893: a1 = u64 [sp + 0x90]\n 20897: a0 = a0 | a1\n 20900: a3 = u64 [sp + 0xb0]\n 20904: a1 = u64 [sp + 0x78]\n 20907: a1 = a3 <u a1\n 20910: a2 = u64 [sp + 0xb8]\n 20914: a1 = 0 if a2 != 0\n 20916: a1 = 0 if a0 != 0\n 20918: jump @659 if a1 == 0\n      : @615 (gas: 4)\n 20922: a1 = a3 + 0x20\n 20925: a0 = sp + 0x330\n 20929: u64 [sp + 0x88] = a1\n 20933: ra = 608, jump @17\n      : @616 [@dyn 304] (gas: 15)\n 20939: a3 = sp + 0x300\n 20943: a2 = u64 [a3 + 0x48]\n 20946: s1 = u64 [a3 + 0x40]\n 20949: a0 = u64 [a3 + 0x38]\n 20952: a1 = u64 [a3 + 0x30]\n 20955: u64 [sp + 0xf8] = a0\n 20959: u64 [sp + 0xe8] = a2\n 20963: a0 = a0 | a2\n 20966: a2 = a1 | s1\n 20969: a2 = a2 | a0\n 20972: a2 = a2 >> 0x20\n 20975: a0 = a0 | s1\n 20978: a0 = a0 << 0x20\n 20981: a0 = a0 | a2\n 20984: jump @659 if a0 != 0\n      : @617 (gas: 3)\n 20988: a0 = sp + 0x310\n 20992: u64 [sp + 0xf0] = a1\n 20996: ra = 610, jump @17\n      : @618 [@dyn 305] (gas: 12)\n 21002: a3 = u64 [sp + 0xd0]\n 21006: a0 = u64 [sp + 0x108]\n 21010: a4 = a0 | a3\n 21013: a1 = u64 [sp + 0x100]\n 21017: a2 = u64 [sp + 0xd8]\n 21021: a1 = a1 | a2\n 21024: a4 = a4 | a1\n 21027: a4 = a4 >> 0x20\n 21030: a1 = a1 | a3\n 21033: a1 = a1 << 0x20\n 21036: a1 = a1 | a4\n 21039: jump @659 if a1 != 0\n      : @619 (gas: 12)\n 21043: a5 = sp + 0x300\n 21047: a4 = u64 [a5 + 0x28]\n 21050: a1 = u64 [a5 + 0x20]\n 21053: a2 = u64 [a5 + 0x18]\n 21056: a3 = u64 [a5 + 0x10]\n 21059: u64 [sp + 0x2f0] = a3\n 21063: u64 [sp + 0x2f8] = a2\n 21067: u64 [a5] = a1\n 21069: a1 = sp + 0x2f0\n 21073: u64 [a5 + 0x8] = a4\n 21076: u64 [sp + 0x108] = a0\n 21080: ra = 612, jump @19\n      : @620 [@dyn 306] (gas: 10)\n 21086: a3 = u64 [sp + 0xe8]\n 21090: a3 = a3 | s1\n 21093: s1 = u64 [sp + 0x78]\n 21096: a1 = u64 [sp + 0xf0]\n 21100: a0 = a1 <u s1\n 21103: a2 = u64 [sp + 0xf8]\n 21107: a0 = 0 if a2 != 0\n 21109: u64 [sp + 0xe8] = a3\n 21113: a0 = 0 if a3 != 0\n 21115: jump @659 if a0 == 0\n      : @621 (gas: 3)\n 21119: i32 a1 = a1 + 0x20\n 21122: a0 = sp + 0x2d0\n 21126: ra = 614, jump @17\n      : @622 [@dyn 307] (gas: 10)\n 21132: a0 = u64 [sp + 0xd8]\n 21136: a1 = u64 [sp + 0xd0]\n 21140: a2 = a1 | a0\n 21143: a4 = u64 [sp + 0x108]\n 21147: a0 = a4 <u s1\n 21150: a1 = u64 [sp + 0x100]\n 21154: a0 = 0 if a1 != 0\n 21156: u64 [sp + 0xe0] = a2\n 21160: a0 = 0 if a2 != 0\n 21162: jump @659 if a0 == 0\n      : @623 (gas: 15)\n 21166: a5 = sp + 0x200\n 21170: a0 = u64 [a5 + 0xe0]\n 21174: a1 = u64 [a5 + 0xd8]\n 21178: a2 = u64 [a5 + 0xd0]\n 21182: a3 = u64 [sp + 0x70]\n 21185: a3 = a3 & a0\n 21188: a1 = a1 & 0xffffffffffffffff\n 21191: a2 = a2 & 0xffffffffffffffff\n 21194: i32 a0 = a4 + 0x20\n 21197: u64 [a5 + 200] = 0\n 21201: u64 [a5 + 0xb0] = a2\n 21205: u64 [a5 + 0xb8] = a1\n 21209: a1 = sp + 0x2b0\n 21213: u64 [a5 + 0xc0] = a3\n 21217: ra = 616, jump @19\n      : @624 [@dyn 308] (gas: 3)\n 21223: a0 = u64 [sp + 0xc8]\n 21227: s1 = a0 + 0xffffffffffffffc0\n 21230: t0 = 618, jump @790\n      : @625 [@dyn 309] (gas: 1)\n 21236: jump @659 if a0 == 0\n      : @626 (gas: 3)\n 21240: i32 a1 = a1 + 0x40\n 21243: a0 = sp + 0x290\n 21247: ra = 620, jump @17\n      : @627 [@dyn 310] (gas: 3)\n 21253: a4 = u64 [sp + 0x108]\n 21257: a0 = a4 <u s1\n 21260: t0 = 622, jump @804\n      : @628 [@dyn 311] (gas: 1)\n 21266: jump @659 if a0 == 0\n      : @629 (gas: 15)\n 21270: a5 = sp + 0x200\n 21274: a0 = u64 [a5 + 0xa0]\n 21278: a1 = u64 [a5 + 0x98]\n 21282: a2 = u64 [a5 + 0x90]\n 21286: a3 = u64 [sp + 0x70]\n 21289: a3 = a3 & a0\n 21292: a1 = a1 & 0xffffffffffffffff\n 21295: a2 = a2 & 0xffffffffffffffff\n 21298: i32 a0 = a4 + 0x40\n 21301: u64 [a5 + 136] = 0\n 21305: u64 [a5 + 0x70] = a2\n 21308: u64 [a5 + 0x78] = a1\n 21311: a1 = sp + 0x270\n 21315: u64 [a5 + 0x80] = a3\n 21319: ra = 624, jump @19\n      : @630 [@dyn 312] (gas: 3)\n 21325: a0 = u64 [sp + 0xc8]\n 21329: s1 = a0 + 0xffffffffffffffa0\n 21332: t0 = 626, jump @790\n      : @631 [@dyn 313] (gas: 1)\n 21338: jump @659 if a0 == 0\n      : @632 (gas: 3)\n 21342: i32 a1 = a1 + 0x60\n 21345: a0 = sp + 0x250\n 21349: ra = 628, jump @17\n      : @633 [@dyn 314] (gas: 3)\n 21355: a5 = u64 [sp + 0x108]\n 21359: a0 = a5 <u s1\n 21362: t0 = 630, jump @804\n      : @634 [@dyn 315] (gas: 1)\n 21368: jump @659 if a0 == 0\n      : @635 (gas: 12)\n 21372: s1 = sp + 0x200\n 21376: a2 = u64 [s1 + 0x68]\n 21379: a1 = u64 [s1 + 0x60]\n 21382: a3 = u64 [s1 + 0x58]\n 21385: a4 = u64 [s1 + 0x50]\n 21388: i32 a0 = a5 + 0x60\n 21391: u64 [s1 + 0x30] = a4\n 21394: u64 [s1 + 0x38] = a3\n 21397: u64 [s1 + 0x40] = a1\n 21400: a1 = sp + 0x230\n 21404: u64 [s1 + 0x48] = a2\n 21407: ra = 632, jump @19\n      : @636 [@dyn 316] (gas: 3)\n 21413: a0 = u64 [sp + 0xc8]\n 21417: s1 = a0 + 0xffffffffffffff80\n 21420: t0 = 634, jump @790\n      : @637 [@dyn 317] (gas: 1)\n 21426: jump @659 if a0 == 0\n      : @638 (gas: 3)\n 21430: i32 a1 = a1 + 0x80\n 21434: a0 = sp + 0x210\n 21438: ra = 636, jump @17\n      : @639 [@dyn 318] (gas: 3)\n 21444: a4 = u64 [sp + 0x108]\n 21448: a0 = a4 <u s1\n 21451: t0 = 638, jump @804\n      : @640 [@dyn 319] (gas: 1)\n 21457: jump @659 if a0 == 0\n      : @641 (gas: 16)\n 21461: a5 = sp + 0x200\n 21465: a0 = u64 [a5 + 0x28]\n 21468: a1 = u64 [a5 + 0x20]\n 21471: a2 = u64 [a5 + 0x10]\n 21474: a3 = u64 [a5 + 0x18]\n 21477: a1 = a1 | a2\n 21480: a0 = a0 | a3\n 21483: a0 = a0 | a1\n 21486: a1 = a0 >u 0\n 21488: i32 a0 = a4 + 0x80\n 21492: u64 [a5 + 8] = 0\n 21495: u64 [a5 + 0] = 0\n 21497: u64 [sp + 0x1f0] = a1\n 21501: a1 = sp + 0x1f0\n 21505: u64 [sp + 504] = 0\n 21509: ra = 640, jump @19\n      : @642 [@dyn 320] (gas: 3)\n 21515: a0 = u64 [sp + 0xc8]\n 21519: s1 = a0 + 0xffffffffffffff60\n 21523: t0 = 642, jump @790\n      : @643 [@dyn 321] (gas: 1)\n 21529: jump @659 if a0 == 0\n      : @644 (gas: 3)\n 21533: i32 a1 = a1 + 0xa0\n 21537: a0 = sp + 0x1d0\n 21541: ra = 644, jump @17\n      : @645 [@dyn 322] (gas: 3)\n 21547: a5 = u64 [sp + 0x108]\n 21551: a0 = a5 <u s1\n 21554: t0 = 646, jump @804\n      : @646 [@dyn 323] (gas: 1)\n 21560: jump @659 if a0 == 0\n      : @647 (gas: 11)\n 21564: a2 = u64 [sp + 0x1e8]\n 21568: a1 = u64 [sp + 0x1e0]\n 21572: a3 = u64 [sp + 0x1d8]\n 21576: a4 = u64 [sp + 0x1d0]\n 21580: i32 a0 = a5 + 0xa0\n 21584: u64 [sp + 0x1b0] = a4\n 21588: u64 [sp + 0x1b8] = a3\n 21592: u64 [sp + 0x1c0] = a1\n 21596: a1 = sp + 0x1b0\n 21600: u64 [sp + 0x1c8] = a2\n 21604: ra = 648, jump @19\n      : @648 [@dyn 324] (gas: 3)\n 21610: a0 = u64 [sp + 0xc8]\n 21614: s1 = a0 + 0xffffffffffffff40\n 21618: t0 = 650, jump @790\n      : @649 [@dyn 325] (gas: 1)\n 21624: jump @659 if a0 == 0\n      : @650 (gas: 3)\n 21628: i32 a1 = a1 + 0xc0\n 21632: a0 = sp + 0x190\n 21636: ra = 652, jump @17\n      : @651 [@dyn 326] (gas: 3)\n 21642: a3 = u64 [sp + 0x108]\n 21646: a0 = a3 <u s1\n 21649: t0 = 654, jump @804\n      : @652 [@dyn 327] (gas: 1)\n 21655: jump @659 if a0 == 0\n      : @653 (gas: 31)\n 21659: a0 = u64 [sp + 0xb0]\n 21663: a1 = u64 [sp + 0x88]\n 21667: a0 = a1 <u a0\n 21670: a1 = u64 [sp + 0xb8]\n 21674: a2 = a1 + a0\n 21677: u64 [sp + 0xf8] = a2\n 21681: a1 = a2 <u a1\n 21684: a1 = a0 if a0 == 0\n 21687: a0 = u64 [sp + 0x90]\n 21691: a1 = a1 + a0\n 21694: u64 [sp + 0xf0] = a1\n 21698: a2 = u64 [sp + 0x1a8]\n 21702: u64 [sp + 0xb0] = a2\n 21706: a2 = u64 [sp + 0x1a0]\n 21710: u64 [sp + 0xb8] = a2\n 21714: a2 = u64 [sp + 0x198]\n 21718: u64 [sp + 0xe0] = a2\n 21722: a2 = u64 [sp + 0x190]\n 21726: u64 [sp + 0xe8] = a2\n 21730: a0 = a1 <u a0\n 21733: a1 = u64 [sp + 0xc0]\n 21737: a1 = a1 + a0\n 21740: u64 [sp + 0xc0] = a1\n 21744: i32 a0 = a3 + 0xc0\n 21748: u64 [sp + 392] = 0\n 21752: u64 [sp + 384] = 0\n 21756: u64 [sp + 376] = 0\n 21760: a1 = sp + 0x170\n 21764: u64 [sp + 368] = 0xe0\n 21770: s1 = a3\n 21772: ra = 656, jump @19\n      : @654 [@dyn 328] (gas: 4)\n 21778: a0 = s1 + 0xe0\n 21782: a1 = a0 <u s1\n 21785: a3 = u64 [sp + 0x100]\n 21789: t0 = 658, jump @819\n      : @655 [@dyn 329] (gas: 21)\n 21795: a1 = u64 [sp + 0xd0]\n 21799: a3 = a3 + a1\n 21802: a1 = a3 <u a1\n 21805: a4 = u64 [sp + 0xd8]\n 21809: a4 = a4 + a1\n 21812: u64 [sp + 0x118] = a2\n 21816: u64 [sp + 0x110] = a0\n 21820: a0 = u64 [sp + 0xb0]\n 21824: u64 [sp + 0x148] = a0\n 21828: a0 = u64 [sp + 0xb8]\n 21832: u64 [sp + 0x140] = a0\n 21836: a0 = u64 [sp + 0xe0]\n 21840: u64 [sp + 0x138] = a0\n 21844: a0 = u64 [sp + 0xe8]\n 21848: u64 [sp + 0x130] = a0\n 21852: u64 [sp + 0x120] = a3\n 21856: a0 = sp + 0x150\n 21860: a1 = sp + 0x130\n 21864: a2 = sp + 0x110\n 21868: u64 [sp + 0x128] = a4\n 21872: ra = 660, jump @588\n      : @656 [@dyn 330] (gas: 9)\n 21878: a0 = u64 [sp + 0x168]\n 21882: u64 [sp + 0xd8] = a0\n 21886: a0 = u64 [sp + 0x160]\n 21890: u64 [sp + 0xd0] = a0\n 21894: a1 = u64 [sp + 0xa8]\n 21898: a0 = a1 + 0x20\n 21901: a1 = a0 <u a1\n 21904: a3 = u64 [sp + 0x50]\n 21907: t0 = 662, jump @819\n      : @657 [@dyn 331] (gas: 33)\n 21913: a1 = u64 [sp + 0x158]\n 21917: u64 [sp + 0x100] = a1\n 21921: a1 = u64 [sp + 0x98]\n 21925: a3 = a3 + a1\n 21928: a1 = a3 <u a1\n 21931: a4 = u64 [sp + 0xa0]\n 21935: a4 = a4 + a1\n 21938: u64 [sp + 0xa0] = a4\n 21942: ra = u64 [sp + 0x60]\n 21945: ra = ra + 0x1\n 21948: a1 = ra <u 0x1\n 21951: a5 = u64 [sp + 0x58]\n 21954: a5 = a5 + a1\n 21957: a1 = ra | a5\n 21960: a1 = a1 <u 0x1\n 21963: a4 = u64 [sp + 0x150]\n 21967: u64 [sp + 0x108] = a4\n 21971: a4 = u64 [sp + 0x80]\n 21975: a1 = a1 + a4\n 21978: a4 = a1 <u a4\n 21981: t0 = u64 [sp + 0x68]\n 21984: t0 = t0 + a4\n 21987: u64 [sp + 0xa8] = a0\n 21991: a4 = a2\n 21993: u64 [sp + 0x98] = a3\n 21997: a0 = u64 [sp + 0x88]\n 22001: u64 [sp + 0xb0] = a0\n 22005: a0 = u64 [sp + 0xf8]\n 22009: u64 [sp + 0xb8] = a0\n 22013: a0 = u64 [sp + 0xf0]\n 22017: u64 [sp + 0x90] = a0\n 22021: a3 = a1\n 22023: jump @611\n      : @658 (gas: 16)\n 22026: a0 = u64 [sp + 0x8]\n 22029: a1 = u64 [sp + 0x108]\n 22033: u64 [a0] = a1\n 22035: a1 = u64 [sp + 0x100]\n 22039: u64 [a0 + 0x8] = a1\n 22042: a1 = u64 [sp + 0xd0]\n 22046: u64 [a0 + 0x10] = a1\n 22049: a1 = u64 [sp + 0xd8]\n 22053: u64 [a0 + 0x18] = a1\n 22056: sp = s0 + 0xfffffffffffffc10\n 22060: a0 = sp + 0x300\n 22064: ra = u64 [a0 + 0xe8]\n 22068: s0 = u64 [a0 + 0xe0]\n 22072: s1 = u64 [a0 + 0xd8]\n 22076: sp = sp + 0x3f0\n 22080: ret\n      : @659 (gas: 1)\n 22082: trap\n      : @660 (gas: 11)\n 22083: sp = sp + 0xffffffffffffffc0\n 22086: u64 [sp + 0x38] = ra\n 22089: u64 [sp + 0x30] = s0\n 22092: u64 [sp + 0x28] = s1\n 22095: s0 = sp + 0x40\n 22098: sp = sp & 0xffffffffffffffe0\n 22101: s1 = a0\n 22103: i32 a0 = sp + 0\n 22105: a1 = 0x4\n 22108: ecalli 1 // 'call_data_load'\n 22110: fallthrough\n      : @661 (gas: 10)\n 22111: a0 = u64 [sp + 0x10]\n 22114: a1 = u64 [sp + 0x18]\n 22117: a2 = 0x100000000\n 22127: a2 = a2 ^ a0\n 22130: a2 = a2 | a1\n 22133: a3 = a0 >> 0x20\n 22136: a3 = a3 <u 0x1\n 22139: a3 = 0 if a1 != 0\n 22141: a3 = 0 if a2 == 0\n 22143: jump @663 if a3 == 0\n      : @662 (gas: 12)\n 22146: a2 = u64 [sp]\n 22148: a3 = u64 [sp + 0x8]\n 22151: u64 [s1] = a2\n 22153: u64 [s1 + 0x8] = a3\n 22156: u64 [s1 + 0x10] = a0\n 22159: u64 [s1 + 0x18] = a1\n 22162: sp = s0 + 0xffffffffffffffc0\n 22165: ra = u64 [sp + 0x38]\n 22168: s0 = u64 [sp + 0x30]\n 22171: s1 = u64 [sp + 0x28]\n 22174: sp = sp + 0x40\n 22177: ret\n      : @663 (gas: 7)\n 22179: a1 = 0x20080\n 22184: i32 a1 = a1 + 0\n 22186: a0 = 0x1\n 22189: a2 = 0\n 22191: ra = 0x298\n 22195: ecalli 8 // 'seal_return'\n 22197: fallthrough\n      : @664 [@dyn 332] (gas: 31)\n 22198: sp = sp + 0xfffffffffffffee0\n 22202: u64 [sp + 0x118] = ra\n 22206: u64 [sp + 0x110] = s0\n 22210: u64 [sp + 0x108] = s1\n 22214: s0 = sp + 0x120\n 22218: sp = sp & 0xffffffffffffffe0\n 22221: s1 = sp\n 22223: u64 [s1 + 0x38] = a0\n 22226: a0 = u64 [a2]\n 22228: u64 [s1 + 0x48] = a0\n 22231: a0 = u64 [a2 + 0x8]\n 22234: u64 [s1 + 0x40] = a0\n 22237: a0 = u64 [a2 + 0x10]\n 22240: u64 [s1 + 0x50] = a0\n 22243: a0 = u64 [a2 + 0x18]\n 22246: u64 [s1 + 0x58] = a0\n 22249: a0 = u64 [a1 + 0x18]\n 22252: a2 = u64 [a1 + 0x10]\n 22255: a3 = u64 [a1 + 0x8]\n 22258: a1 = u64 [a1]\n 22260: u64 [s1 + 0x30] = a0\n 22263: u64 [s1 + 0xf8] = a0\n 22267: u64 [s1 + 0x28] = a2\n 22270: u64 [s1 + 0xf0] = a2\n 22274: u64 [s1 + 0x20] = a3\n 22277: u64 [s1 + 0xe8] = a3\n 22281: u64 [s1 + 0x18] = a1\n 22284: u64 [s1 + 0xe0] = a1\n 22288: a0 = s1 + 0xc0\n 22292: a1 = s1 + 0xe0\n 22296: ra = 666, jump @21\n      : @665 [@dyn 333] (gas: 20)\n 22302: a0 = u64 [s1 + 0xd8]\n 22306: t0 = u64 [s1 + 0xc0]\n 22310: a2 = u64 [s1 + 0xd0]\n 22314: a3 = u64 [s1 + 0xc8]\n 22318: a1 = u64 [s1 + 0x58]\n 22321: a4 = a0 ^ a1\n 22324: a1 = a1 <u a0\n 22327: a0 = u64 [s1 + 0x50]\n 22330: a5 = a0 <u a2\n 22333: a5 = a1 if a4 != 0\n 22336: a1 = u64 [s1 + 0x40]\n 22339: t1 = a3 ^ a1\n 22342: a3 = a1 <u a3\n 22345: a1 = u64 [s1 + 0x48]\n 22348: a1 = a1 <u t0\n 22351: a1 = a3 if t1 != 0\n 22354: a0 = a0 ^ a2\n 22357: a0 = a0 | a4\n 22360: a1 = a5 if a0 != 0\n 22363: jump @670 if a1 == 0\n      : @666 (gas: 11)\n 22367: a0 = u64 [s1 + 0x18]\n 22370: u64 [s1 + 0x60] = a0\n 22373: a0 = u64 [s1 + 0x20]\n 22376: u64 [s1 + 0x68] = a0\n 22379: a0 = u64 [s1 + 0x28]\n 22382: u64 [s1 + 0x70] = a0\n 22385: a1 = s1 + 0x60\n 22388: a0 = u64 [s1 + 0x30]\n 22391: u64 [s1 + 0x78] = a0\n 22394: a0 = 0\n 22396: ra = 668, jump @19\n      : @667 [@dyn 334] (gas: 2)\n 22402: a1 = i32 [0x20074]\n 22407: jump @669 if a1 >u 31\n      : @668 (gas: 2)\n 22411: u32 [0x20074] = 0x20\n 22417: fallthrough\n      : @669 (gas: 52)\n 22418: a0 = sp + 0xffffffffffffffe0\n 22421: a2 = a0 & 0xffffffffffffffe0\n 22424: u64 [s1 + 0x30] = a2\n 22427: sp = a2\n 22429: a0 = 0x20080\n 22434: i32 a0 = a0 + 0\n 22436: i32 a2 = a2 + 0\n 22438: a1 = 0x20\n 22441: ecalli 6 // 'hash_keccak_256'\n 22443: a3 = u64 [s1 + 0x30]\n 22446: a0 = u64 [a3]\n 22448: a1 = u64 [a3 + 0x8]\n 22451: a2 = u64 [a3 + 0x18]\n 22454: a3 = u64 [a3 + 0x10]\n 22457: t0 = reverse a0\n 22459: a1 = reverse a1\n 22461: a2 = reverse a2\n 22463: a3 = reverse a3\n 22465: a4 = u64 [s1 + 0x40]\n 22468: a4 = a4 + a3\n 22471: t1 = u64 [s1 + 0x48]\n 22474: t1 = t1 + a2\n 22477: a2 = t1 <u a2\n 22480: a4 = a4 + a2\n 22483: a0 = a4 ^ a3\n 22486: a3 = a4 <u a3\n 22489: a3 = a2 if a0 == 0\n 22492: a0 = u64 [s1 + 0x50]\n 22495: a0 = a0 + a1\n 22498: a3 = a3 + a0\n 22501: a2 = a3 <u a0\n 22504: a5 = u64 [s1 + 0x58]\n 22507: t0 = t0 + a5\n 22510: a0 = a0 <u a1\n 22513: a0 = a0 + t0\n 22516: a0 = a0 + a2\n 22519: a1 = u64 [s1 + 0x38]\n 22522: a2 = 0\n 22524: u64 [a1 + 56] = 0\n 22527: u64 [a1 + 48] = 0\n 22530: u64 [a1 + 40] = 0\n 22533: u64 [a1 + 32] = 0\n 22536: u64 [a1] = t1\n 22538: u64 [a1 + 0x8] = a4\n 22541: u64 [a1 + 0x10] = a3\n 22544: u64 [a1 + 0x18] = a0\n 22547: sp = s0 + 0xfffffffffffffee0\n 22551: ra = u64 [sp + 0x118]\n 22555: s0 = u64 [sp + 0x110]\n 22559: s1 = u64 [sp + 0x108]\n 22563: sp = sp + 0x120\n 22567: ret\n      : @670 (gas: 8)\n 22569: u64 [s1 + 176] = 0\n 22573: u64 [s1 + 168] = 0\n 22577: u64 [s1 + 160] = 0\n 22581: a0 = 0x4e487b7100000000\n 22591: a1 = s1 + 0xa0\n 22595: u64 [s1 + 0xb8] = a0\n 22599: a0 = 0\n 22601: ra = 670, jump @19\n      : @671 [@dyn 335] (gas: 7)\n 22607: u64 [s1 + 152] = 0\n 22611: u64 [s1 + 144] = 0\n 22615: u64 [s1 + 128] = 0x32\n 22620: a0 = 0x4\n 22623: a1 = s1 + 0x80\n 22627: u64 [s1 + 136] = 0\n 22631: ra = 672, jump @19\n      : @672 [@dyn 336] (gas: 2)\n 22637: a1 = i32 [0x20074]\n 22642: jump @674 if a1 >u 63\n      : @673 (gas: 2)\n 22646: u32 [0x20074] = 0x40\n 22652: fallthrough\n      : @674 (gas: 7)\n 22653: a1 = 0x20080\n 22658: i32 a1 = a1 + 0\n 22660: a0 = 0x1\n 22663: a2 = 0x24\n 22666: ra = 0x2a2\n 22670: ecalli 8 // 'seal_return'\n 22672: fallthrough\n      : @675 [@dyn 337] (gas: 10)\n 22673: a4 = u64 [a1 + 0x18]\n 22676: a3 = u64 [a1 + 0x10]\n 22679: t1 = u64 [a1 + 0x8]\n 22682: t0 = a4 >u 0\n 22684: a5 = a3 >u 0\n 22686: a5 = t0 if a4 != 0\n 22689: t0 = a3 | a4\n 22692: a2 = t1 >u 0\n 22694: a2 = a5 if t0 != 0\n 22697: jump @677 if a2 != 0\n      : @676 (gas: 24)\n 22700: a1 = u64 [a1]\n 22702: a2 = a3 >> 0x3b\n 22705: a4 = a4 << 0x5\n 22708: t0 = a4 | a2\n 22711: a4 = t1 >> 0x3b\n 22714: a3 = a3 << 0x5\n 22717: a3 = a3 | a4\n 22720: a4 = a1 >> 0x3b\n 22723: t1 = t1 << 0x5\n 22726: a4 = t1 | a4\n 22729: a1 = a1 << 0x5\n 22732: a5 = a1 + 0x20\n 22735: a1 = a5 <u a1\n 22738: a2 = a4 + a1\n 22741: a4 = a2 <u a4\n 22744: a4 = a1 if a1 == 0\n 22747: a4 = a4 + a3\n 22750: a1 = a4 <u a3\n 22753: a1 = a1 + t0\n 22756: u64 [a0] = a5\n 22758: u64 [a0 + 0x8] = a2\n 22761: u64 [a0 + 0x10] = a4\n 22764: u64 [a0 + 0x18] = a1\n 22767: ret\n      : @677 (gas: 6)\n 22769: sp = sp + 0xffffffffffffffb0\n 22772: u64 [sp + 0x48] = ra\n 22775: u64 [sp + 0x40] = s0\n 22778: s0 = sp + 0x50\n 22781: sp = sp & 0xfffffffffffffff0\n 22784: t0 = 676, jump @797\n      : @678 [@dyn 338] (gas: 1)\n 22790: ra = 678, jump @19\n      : @679 [@dyn 339] (gas: 7)\n 22796: u64 [sp + 24] = 0\n 22799: u64 [sp + 16] = 0\n 22802: u64 [sp + 0] = 0x41\n 22805: a0 = 0x4\n 22808: a1 = sp\n 22810: u64 [sp + 8] = 0\n 22813: ra = 680, jump @19\n      : @680 [@dyn 340] (gas: 2)\n 22819: a1 = i32 [0x20074]\n 22824: jump @682 if a1 >u 63\n      : @681 (gas: 2)\n 22828: u32 [0x20074] = 0x40\n 22834: fallthrough\n      : @682 (gas: 7)\n 22835: a1 = 0x20080\n 22840: i32 a1 = a1 + 0\n 22842: a0 = 0x1\n 22845: a2 = 0x24\n 22848: ra = 0x2aa\n 22852: ecalli 8 // 'seal_return'\n 22854: fallthrough\n      : @683 [@dyn 341] (gas: 24)\n 22855: sp = sp + 0xfffffffffffffca0\n 22859: a2 = sp + 0x300\n 22863: u64 [a2 + 0x58] = ra\n 22866: u64 [a2 + 0x50] = s0\n 22869: u64 [a2 + 0x48] = s1\n 22872: s0 = sp + 0x360\n 22876: sp = sp & 0xffffffffffffffe0\n 22879: u64 [sp + 0x8] = a0\n 22882: a0 = u64 [a1 + 0x18]\n 22885: a2 = u64 [a1 + 0x10]\n 22888: a3 = u64 [a1 + 0x8]\n 22891: a1 = u64 [a1]\n 22893: u64 [sp + 0x48] = a0\n 22896: a4 = sp + 0x200\n 22900: u64 [a4 + 0x98] = a0\n 22904: u64 [sp + 0x40] = a2\n 22907: u64 [a4 + 0x90] = a2\n 22911: u64 [sp + 0x38] = a3\n 22914: u64 [a4 + 0x88] = a3\n 22918: u64 [sp + 0x30] = a1\n 22921: u64 [a4 + 0x80] = a1\n 22925: a0 = sp + 0x260\n 22929: a1 = 0x40\n 22932: ra = 684, jump @17\n      : @684 [@dyn 342] (gas: 14)\n 22938: a3 = sp + 0x200\n 22942: a0 = u64 [a3 + 0x78]\n 22945: u64 [sp + 0x20] = a0\n 22948: s1 = u64 [a3 + 0x70]\n 22951: a2 = u64 [a3 + 0x68]\n 22954: u64 [sp + 0x58] = a2\n 22957: a1 = u64 [a3 + 0x60]\n 22960: u64 [sp + 0x50] = a1\n 22963: u64 [a3 + 0x58] = a0\n 22966: u64 [a3 + 0x50] = s1\n 22969: u64 [a3 + 0x48] = a2\n 22972: a0 = sp + 0x240\n 22976: u64 [a3 + 0x40] = a1\n 22979: ra = 686, jump @547\n      : @685 [@dyn 343] (gas: 3)\n 22985: a0 = sp + 0x220\n 22989: a1 = sp + 0x280\n 22993: ra = 688, jump @21\n      : @686 [@dyn 344] (gas: 12)\n 22999: a0 = u64 [sp + 0x20]\n 23002: a1 = u64 [sp + 0x58]\n 23005: a0 = a0 | a1\n 23008: a1 = u64 [sp + 0x50]\n 23011: a1 = a1 | s1\n 23014: a1 = a1 | a0\n 23017: a1 = a1 >> 0x20\n 23020: u64 [sp + 0x18] = s1\n 23023: a0 = a0 | s1\n 23026: a0 = a0 << 0x20\n 23029: a0 = a0 | a1\n 23032: jump @716 if a0 != 0\n      : @687 (gas: 13)\n 23036: a4 = sp + 0x200\n 23040: a0 = u64 [a4 + 0x38]\n 23043: a1 = u64 [a4 + 0x30]\n 23046: a2 = u64 [a4 + 0x28]\n 23049: a3 = u64 [a4 + 0x20]\n 23052: u64 [a4] = a3\n 23054: u64 [a4 + 0x8] = a2\n 23057: u64 [a4 + 0x10] = a1\n 23060: a1 = sp + 0x200\n 23064: u64 [a4 + 0x18] = a0\n 23067: s1 = u64 [sp + 0x50]\n 23070: a0 = s1\n 23072: ra = 690, jump @19\n      : @688 [@dyn 345] (gas: 20)\n 23078: a0 = u64 [sp + 0x30]\n 23081: a0 = a0 + 0x1\n 23084: a1 = a0 <u 0x1\n 23087: a2 = u64 [sp + 0x38]\n 23090: a1 = a1 + a2\n 23093: a2 = a0 | a1\n 23096: a2 = a2 <u 0x1\n 23099: a3 = u64 [sp + 0x40]\n 23102: a2 = a2 + a3\n 23105: a3 = a2 <u a3\n 23108: a4 = u64 [sp + 0x48]\n 23111: a3 = a3 + a4\n 23114: a4 = sp + 0x200\n 23118: u64 [a4 + 0xa8] = a1\n 23122: u64 [a4 + 0xa0] = a0\n 23126: u64 [a4 + 0xb0] = a2\n 23130: u64 [a4 + 0xb8] = a3\n 23134: a0 = sp + 0x1e0\n 23138: a1 = sp + 0x2a0\n 23142: ra = 692, jump @21\n      : @689 [@dyn 346] (gas: 12)\n 23148: a0 = u64 [sp + 0x20]\n 23151: a2 = u64 [sp + 0x18]\n 23154: a2 = a2 | a0\n 23157: a0 = 0x100000000\n 23167: u64 [sp + 0x10] = a0\n 23170: a0 = 0xffffffe0\n 23180: a0 = s1 <u a0\n 23183: a1 = u64 [sp + 0x58]\n 23186: a0 = 0 if a1 != 0\n 23188: u64 [sp + 0x28] = a2\n 23191: a0 = 0 if a2 != 0\n 23193: jump @716 if a0 == 0\n      : @690 (gas: 13)\n 23197: a0 = u64 [sp + 0x1f0]\n 23201: a1 = u64 [sp + 0x1e8]\n 23205: a2 = u64 [sp + 0x1e0]\n 23209: a0 = a0 << 0x20\n 23212: a3 = a0 >> 0x20\n 23215: s1 = u64 [sp + 0x50]\n 23218: i32 a0 = s1 + 0x20\n 23221: u64 [sp + 472] = 0\n 23225: u64 [sp + 0x1c0] = a2\n 23229: u64 [sp + 0x1c8] = a1\n 23233: a1 = sp + 0x1c0\n 23237: u64 [sp + 0x1d0] = a3\n 23241: ra = 694, jump @19\n      : @691 [@dyn 347] (gas: 3)\n 23247: a1 = u64 [sp + 0x30]\n 23250: a0 = a1 + 0x2\n 23253: t0 = 696, jump @800\n      : @692 [@dyn 348] (gas: 7)\n 23259: u64 [a4 + 0xd0] = a3\n 23263: u64 [a4 + 0xc8] = a2\n 23267: u64 [a4 + 0xc0] = a0\n 23271: u64 [a4 + 0xd8] = a1\n 23275: a0 = sp + 0x1a0\n 23279: a1 = sp + 0x2c0\n 23283: ra = 698, jump @21\n      : @693 [@dyn 349] (gas: 3)\n 23289: a0 = u64 [sp + 0x10]\n 23292: a0 = a0 + 0xffffffffffffffc0\n 23295: t0 = 700, jump @794\n      : @694 [@dyn 350] (gas: 1)\n 23301: jump @716 if a0 == 0\n      : @695 (gas: 15)\n 23305: a1 = u64 [sp + 0x1b0]\n 23309: a2 = u64 [sp + 0x1a8]\n 23313: a3 = u64 [sp + 0x1a0]\n 23317: a4 = 0xffffffff\n 23327: a4 = a4 & a1\n 23330: a2 = a2 & 0xffffffffffffffff\n 23333: a3 = a3 & 0xffffffffffffffff\n 23336: s1 = u64 [sp + 0x50]\n 23339: i32 a0 = s1 + 0x40\n 23342: u64 [sp + 408] = 0\n 23346: u64 [sp + 0x180] = a3\n 23350: u64 [sp + 0x188] = a2\n 23354: a1 = sp + 0x180\n 23358: u64 [sp + 0x190] = a4\n 23362: ra = 702, jump @19\n      : @696 [@dyn 351] (gas: 3)\n 23368: a1 = u64 [sp + 0x30]\n 23371: a0 = a1 + 0x3\n 23374: t0 = 704, jump @800\n      : @697 [@dyn 352] (gas: 7)\n 23380: u64 [a4 + 0xe8] = a2\n 23384: u64 [a4 + 0xe0] = a0\n 23388: u64 [a4 + 0xf0] = a3\n 23392: u64 [a4 + 0xf8] = a1\n 23396: a0 = sp + 0x160\n 23400: a1 = sp + 0x2e0\n 23404: ra = 706, jump @21\n      : @698 [@dyn 353] (gas: 4)\n 23410: a0 = 0x100000000\n 23420: u64 [sp + 0x10] = a0\n 23423: a0 = 0xffffffa0\n 23433: t0 = 708, jump @794\n      : @699 [@dyn 354] (gas: 1)\n 23439: jump @716 if a0 == 0\n      : @700 (gas: 12)\n 23443: a2 = u64 [sp + 0x178]\n 23447: a1 = u64 [sp + 0x170]\n 23451: a3 = u64 [sp + 0x168]\n 23455: a4 = u64 [sp + 0x160]\n 23459: s1 = u64 [sp + 0x50]\n 23462: i32 a0 = s1 + 0x60\n 23465: u64 [sp + 0x140] = a4\n 23469: u64 [sp + 0x148] = a3\n 23473: u64 [sp + 0x150] = a1\n 23477: a1 = sp + 0x140\n 23481: u64 [sp + 0x158] = a2\n 23485: ra = 710, jump @19\n      : @701 [@dyn 355] (gas: 3)\n 23491: a1 = u64 [sp + 0x30]\n 23494: a0 = a1 + 0x4\n 23497: t0 = 712, jump @801\n      : @702 [@dyn 356] (gas: 7)\n 23503: u64 [a4 + 0x8] = a2\n 23506: u64 [a4] = a0\n 23508: u64 [a4 + 0x10] = a3\n 23511: u64 [a4 + 0x18] = a1\n 23514: a0 = sp + 0x120\n 23518: a1 = sp + 0x300\n 23522: ra = 714, jump @21\n      : @703 [@dyn 357] (gas: 3)\n 23528: a0 = u64 [sp + 0x10]\n 23531: a0 = a0 + 0xffffffffffffff80\n 23534: t0 = 716, jump @794\n      : @704 [@dyn 358] (gas: 1)\n 23540: jump @716 if a0 == 0\n      : @705 (gas: 11)\n 23544: a0 = u64 [sp + 0x120]\n 23548: a0 = a0 & 0xff\n 23552: a1 = a0 >u 0\n 23554: s1 = u64 [sp + 0x50]\n 23557: i32 a0 = s1 + 0x80\n 23561: u64 [sp + 280] = 0\n 23565: u64 [sp + 272] = 0\n 23569: u64 [sp + 0x100] = a1\n 23573: a1 = sp + 0x100\n 23577: u64 [sp + 264] = 0\n 23581: ra = 718, jump @19\n      : @706 [@dyn 359] (gas: 3)\n 23587: a1 = u64 [sp + 0x30]\n 23590: a0 = a1 + 0x5\n 23593: t0 = 720, jump @801\n      : @707 [@dyn 360] (gas: 7)\n 23599: u64 [a4 + 0x28] = a2\n 23602: u64 [a4 + 0x20] = a0\n 23605: u64 [a4 + 0x30] = a3\n 23608: u64 [a4 + 0x38] = a1\n 23611: a0 = sp + 0xe0\n 23615: a1 = sp + 0x320\n 23619: ra = 722, jump @21\n      : @708 [@dyn 361] (gas: 4)\n 23625: a0 = 0x100000000\n 23635: u64 [sp + 0x10] = a0\n 23638: a0 = 0xffffff60\n 23648: t0 = 724, jump @794\n      : @709 [@dyn 362] (gas: 1)\n 23654: jump @716 if a0 == 0\n      : @710 (gas: 12)\n 23658: a2 = u64 [sp + 0xf8]\n 23662: a1 = u64 [sp + 0xf0]\n 23666: a3 = u64 [sp + 0xe8]\n 23670: a4 = u64 [sp + 0xe0]\n 23674: s1 = u64 [sp + 0x50]\n 23677: i32 a0 = s1 + 0xa0\n 23681: u64 [sp + 0xc0] = a4\n 23685: u64 [sp + 0xc8] = a3\n 23689: u64 [sp + 0xd0] = a1\n 23693: a1 = sp + 0xc0\n 23697: u64 [sp + 0xd8] = a2\n 23701: ra = 726, jump @19\n      : @711 [@dyn 363] (gas: 19)\n 23707: a1 = u64 [sp + 0x30]\n 23710: a0 = a1 + 0x6\n 23713: a1 = a0 <u a1\n 23716: a3 = u64 [sp + 0x38]\n 23719: a2 = a3 + a1\n 23722: a3 = a2 <u a3\n 23725: a3 = a1 if a1 == 0\n 23728: a1 = u64 [sp + 0x40]\n 23731: a3 = a3 + a1\n 23734: a1 = a3 <u a1\n 23737: a4 = u64 [sp + 0x48]\n 23740: a4 = a4 + a1\n 23743: u64 [sp + 0x90] = a3\n 23747: u64 [sp + 0x88] = a2\n 23751: u64 [sp + 0x80] = a0\n 23755: a0 = sp + 0xa0\n 23759: a1 = sp + 0x80\n 23763: u64 [sp + 0x98] = a4\n 23767: ra = 728, jump @565\n      : @712 [@dyn 364] (gas: 3)\n 23773: a0 = u64 [sp + 0x10]\n 23776: a0 = a0 + 0xffffffffffffff40\n 23780: t0 = 730, jump @794\n      : @713 [@dyn 365] (gas: 1)\n 23786: jump @716 if a0 == 0\n      : @714 (gas: 12)\n 23789: a2 = u64 [sp + 0xb8]\n 23793: a1 = u64 [sp + 0xb0]\n 23797: a3 = u64 [sp + 0xa8]\n 23801: a4 = u64 [sp + 0xa0]\n 23805: s1 = u64 [sp + 0x50]\n 23808: i32 a0 = s1 + 0xc0\n 23812: u64 [sp + 0x60] = a4\n 23815: u64 [sp + 0x68] = a3\n 23818: u64 [sp + 0x70] = a1\n 23821: a1 = sp + 0x60\n 23824: u64 [sp + 0x78] = a2\n 23827: ra = 732, jump @19\n      : @715 [@dyn 366] (gas: 15)\n 23833: a0 = u64 [sp + 0x8]\n 23836: a1 = u64 [sp + 0x20]\n 23839: u64 [a0 + 0x18] = a1\n 23842: a1 = u64 [sp + 0x18]\n 23845: u64 [a0 + 0x10] = a1\n 23848: a1 = u64 [sp + 0x58]\n 23851: u64 [a0 + 0x8] = a1\n 23854: u64 [a0] = s1\n 23856: sp = s0 + 0xfffffffffffffca0\n 23860: a0 = sp + 0x300\n 23864: ra = u64 [a0 + 0x58]\n 23867: s0 = u64 [a0 + 0x50]\n 23870: s1 = u64 [a0 + 0x48]\n 23873: sp = sp + 0x360\n 23877: ret\n      : @716 (gas: 1)\n 23879: trap\n      : @717 (gas: 24)\n 23880: sp = sp + 0xfffffffffffffce0\n 23884: a2 = sp + 0x300\n 23888: u64 [a2 + 0x18] = ra\n 23891: u64 [a2 + 0x10] = s0\n 23894: u64 [a2 + 0x8] = s1\n 23897: s0 = sp + 0x320\n 23901: sp = sp & 0xfffffffffffffff0\n 23904: a2 = u64 [a1]\n 23906: a3 = u64 [a1 + 0x8]\n 23909: a4 = u64 [a1 + 0x10]\n 23912: a1 = u64 [a1 + 0x18]\n 23915: u64 [sp] = a0\n 23917: u64 [sp + 0x80] = a1\n 23921: a5 = sp + 0x200\n 23925: u64 [a5 + 0xd8] = a1\n 23929: u64 [sp + 0xa8] = a4\n 23933: u64 [a5 + 0xd0] = a4\n 23937: u64 [sp + 0xb0] = a3\n 23941: u64 [a5 + 0xc8] = a3\n 23945: a0 = sp + 0x2e0\n 23949: a1 = sp + 0x2c0\n 23953: u64 [sp + 0xb8] = a2\n 23957: u64 [a5 + 0xc0] = a2\n 23961: ra = 734, jump @675\n      : @718 [@dyn 367] (gas: 12)\n 23967: a1 = sp + 0x200\n 23971: a0 = u64 [a1 + 0xe0]\n 23975: u64 [sp + 0xa0] = a0\n 23979: a0 = u64 [a1 + 0xe8]\n 23983: u64 [sp + 0x98] = a0\n 23987: a0 = u64 [a1 + 0xf0]\n 23991: u64 [sp + 0x90] = a0\n 23995: a0 = u64 [a1 + 0xf8]\n 23999: u64 [sp + 0x88] = a0\n 24003: a0 = sp + 0x2a0\n 24007: a1 = 0x40\n 24010: ra = 736, jump @17\n      : @719 [@dyn 368] (gas: 24)\n 24016: a4 = sp + 0x200\n 24020: a0 = u64 [a4 + 0xb8]\n 24024: s1 = u64 [a4 + 0xb0]\n 24028: a1 = u64 [a4 + 0xa8]\n 24032: u64 [sp + 0x68] = a1\n 24035: a2 = u64 [a4 + 0xa0]\n 24039: u64 [sp + 0x8] = a2\n 24042: a3 = u64 [sp + 0x88]\n 24046: u64 [a4 + 0x78] = a3\n 24049: a3 = a0\n 24051: u64 [sp + 0x10] = a0\n 24054: a0 = u64 [sp + 0x90]\n 24058: u64 [a4 + 0x70] = a0\n 24061: a0 = u64 [sp + 0x98]\n 24065: u64 [a4 + 0x68] = a0\n 24068: a0 = u64 [sp + 0xa0]\n 24072: u64 [a4 + 0x60] = a0\n 24075: u64 [a4 + 0x98] = a3\n 24079: u64 [a4 + 0x90] = s1\n 24083: u64 [a4 + 0x88] = a1\n 24087: a0 = sp + 0x280\n 24091: a1 = sp + 0x260\n 24095: u64 [a4 + 0x80] = a2\n 24099: ra = 738, jump @556\n      : @720 [@dyn 369] (gas: 12)\n 24105: a0 = u64 [sp + 0x8]\n 24108: a2 = u64 [sp + 0x10]\n 24111: a1 = u64 [sp + 0x68]\n 24114: a2 = a2 | a1\n 24117: a1 = a0 | s1\n 24120: a1 = a1 | a2\n 24123: a1 = a1 >> 0x20\n 24126: u64 [sp + 0x60] = s1\n 24129: a2 = a2 | s1\n 24132: a2 = a2 << 0x20\n 24135: a1 = a1 | a2\n 24138: jump @753 if a1 != 0\n      : @721 (gas: 11)\n 24142: a1 = u64 [sp + 0xb8]\n 24146: a2 = sp + 0x200\n 24150: u64 [a2 + 0x40] = a1\n 24153: a1 = u64 [sp + 0xb0]\n 24157: u64 [a2 + 0x48] = a1\n 24160: a1 = u64 [sp + 0xa8]\n 24164: u64 [a2 + 0x50] = a1\n 24167: a1 = sp + 0x240\n 24171: s1 = u64 [sp + 0x80]\n 24175: u64 [a2 + 0x58] = s1\n 24178: ra = 740, jump @19\n      : @722 [@dyn 370] (gas: 11)\n 24184: a3 = sp + 0x200\n 24188: u64 [a3 + 0x18] = s1\n 24191: a0 = u64 [sp + 0xa8]\n 24195: u64 [a3 + 0x10] = a0\n 24198: a0 = u64 [sp + 0xb0]\n 24202: u64 [a3 + 0x8] = a0\n 24205: a0 = sp + 0x220\n 24209: a1 = sp + 0x200\n 24213: a2 = u64 [sp + 0xb8]\n 24217: u64 [a3] = a2\n 24219: ra = 742, jump @675\n      : @723 [@dyn 371] (gas: 47)\n 24225: t1 = 0\n 24227: t2 = 0\n 24229: a5 = 0\n 24231: s1 = 0\n 24233: a1 = sp + 0x200\n 24237: a0 = u64 [a1 + 0x20]\n 24240: t0 = u64 [a1 + 0x38]\n 24243: a2 = u64 [a1 + 0x28]\n 24246: a3 = u64 [a1 + 0x30]\n 24249: a4 = a0 + 0xffffffffffffffe0\n 24252: u64 [sp + 0x58] = a4\n 24255: a0 = a4 <u a0\n 24258: a4 = a2 + a0\n 24261: a4 = a4 + 0xffffffffffffffff\n 24264: a1 = a4 ^ a2\n 24267: u64 [sp + 0x50] = a4\n 24270: a2 = a4 <u a2\n 24273: a2 = a0 if a1 == 0\n 24276: a0 = a3 + 0xffffffffffffffff\n 24279: a2 = a2 + a0\n 24282: u64 [sp + 0x48] = a2\n 24285: a0 = a2 <u a0\n 24288: a2 = a3 <u 0x1\n 24291: a1 = t0 - a2\n 24294: a0 = a0 + a1\n 24297: u64 [sp + 0x40] = a0\n 24300: a1 = u64 [sp + 0x8]\n 24303: a0 = a1 + 0x20\n 24306: u64 [sp + 0x30] = a0\n 24309: a0 = a0 <u a1\n 24312: ra = u64 [sp + 0x68]\n 24315: a1 = ra + a0\n 24318: u64 [sp + 0x28] = a1\n 24321: a1 = a1 <u ra\n 24324: a1 = a0 if a0 == 0\n 24327: t0 = u64 [sp + 0x60]\n 24330: a1 = a1 + t0\n 24333: u64 [sp + 0x20] = a1\n 24336: a0 = a1 <u t0\n 24339: a1 = u64 [sp + 0x10]\n 24342: a0 = a0 + a1\n 24345: u64 [sp + 0x18] = a0\n 24348: a0 = 0x100000000\n 24358: u64 [sp + 0xa0] = a0\n 24362: a0 = 0xffffffe0\n 24372: u64 [sp + 0x38] = a0\n 24375: fallthrough\n      : @724 (gas: 16)\n 24376: a0 = u64 [sp + 0x58]\n 24379: a0 = t1 <u a0\n 24382: a2 = u64 [sp + 0x50]\n 24385: a1 = t2 ^ a2\n 24388: a2 = t2 <u a2\n 24391: a2 = a0 if a1 == 0\n 24394: a0 = u64 [sp + 0x48]\n 24397: a4 = a5 <u a0\n 24400: a3 = u64 [sp + 0x40]\n 24403: a1 = s1 ^ a3\n 24406: a3 = s1 <u a3\n 24409: a3 = a4 if a1 == 0\n 24412: a0 = a0 ^ a5\n 24415: a0 = a0 | a1\n 24418: a3 = a2 if a0 == 0\n 24421: jump @752 if a3 == 0\n      : @725 (gas: 7)\n 24425: u64 [sp + 0x80] = t2\n 24429: u64 [sp + 0x88] = t1\n 24433: u64 [sp + 0x90] = a5\n 24437: u64 [sp + 0x78] = s1\n 24440: a0 = sp + 0x1e0\n 24444: a1 = 0x40\n 24447: ra = 744, jump @17\n      : @726 [@dyn 372] (gas: 13)\n 24453: a0 = u64 [sp + 0x1f8]\n 24457: u64 [sp + 0x98] = a0\n 24461: s1 = u64 [sp + 0x1f0]\n 24465: a2 = u64 [sp + 0x1e8]\n 24469: u64 [sp + 0xb0] = a2\n 24473: a1 = u64 [sp + 0x1e0]\n 24477: u64 [sp + 0xb8] = a1\n 24481: u64 [sp + 0x1d8] = a0\n 24485: u64 [sp + 0x1d0] = s1\n 24489: u64 [sp + 0x1c8] = a2\n 24493: a0 = sp + 0x1c0\n 24497: u64 [sp + 0x1c0] = a1\n 24501: ra = 746, jump @547\n      : @727 [@dyn 373] (gas: 11)\n 24507: a0 = u64 [sp + 0x98]\n 24511: a1 = u64 [sp + 0xb0]\n 24515: a0 = a0 | a1\n 24518: a1 = u64 [sp + 0xb8]\n 24522: a1 = a1 | s1\n 24525: a1 = a1 | a0\n 24528: a1 = a1 >> 0x20\n 24531: a0 = a0 | s1\n 24534: a0 = a0 << 0x20\n 24537: a0 = a0 | a1\n 24540: jump @753 if a0 != 0\n      : @728 (gas: 7)\n 24544: u64 [sp + 440] = 0\n 24548: u64 [sp + 432] = 0\n 24552: u64 [sp + 424] = 0\n 24556: a1 = sp + 0x1a0\n 24560: u64 [sp + 416] = 0\n 24564: a0 = u64 [sp + 0xb8]\n 24568: ra = 748, jump @19\n      : @729 [@dyn 374] (gas: 11)\n 24574: u64 [sp + 0x70] = s1\n 24577: a2 = u64 [sp + 0x98]\n 24581: a2 = a2 | s1\n 24584: a0 = u64 [sp + 0x38]\n 24587: a1 = u64 [sp + 0xb8]\n 24591: a0 = a1 <u a0\n 24594: a1 = u64 [sp + 0xb0]\n 24598: a0 = 0 if a1 != 0\n 24600: u64 [sp + 0xa8] = a2\n 24604: a0 = 0 if a2 != 0\n 24606: jump @753 if a0 == 0\n      : @730 (gas: 8)\n 24610: s1 = u64 [sp + 0xb8]\n 24614: i32 a0 = s1 + 0x20\n 24617: u64 [sp + 408] = 0\n 24621: u64 [sp + 400] = 0\n 24625: u64 [sp + 392] = 0\n 24629: a1 = sp + 0x180\n 24633: u64 [sp + 384] = 0\n 24637: ra = 750, jump @19\n      : @731 [@dyn 375] (gas: 3)\n 24643: a0 = u64 [sp + 0xa0]\n 24647: a0 = a0 + 0xffffffffffffffc0\n 24650: t0 = 752, jump @795\n      : @732 [@dyn 376] (gas: 1)\n 24656: jump @753 if a0 == 0\n      : @733 (gas: 8)\n 24660: s1 = u64 [sp + 0xb8]\n 24664: i32 a0 = s1 + 0x40\n 24667: u64 [sp + 376] = 0\n 24671: u64 [sp + 368] = 0\n 24675: u64 [sp + 360] = 0\n 24679: a1 = sp + 0x160\n 24683: u64 [sp + 352] = 0\n 24687: ra = 754, jump @19\n      : @734 [@dyn 377] (gas: 3)\n 24693: a0 = u64 [sp + 0xa0]\n 24697: a0 = a0 + 0xffffffffffffffa0\n 24700: t0 = 756, jump @795\n      : @735 [@dyn 378] (gas: 1)\n 24706: jump @753 if a0 == 0\n      : @736 (gas: 8)\n 24710: s1 = u64 [sp + 0xb8]\n 24714: i32 a0 = s1 + 0x60\n 24717: u64 [sp + 344] = 0\n 24721: u64 [sp + 336] = 0\n 24725: u64 [sp + 328] = 0\n 24729: a1 = sp + 0x140\n 24733: u64 [sp + 320] = 0\n 24737: ra = 758, jump @19\n      : @737 [@dyn 379] (gas: 3)\n 24743: a0 = u64 [sp + 0xa0]\n 24747: a0 = a0 + 0xffffffffffffff80\n 24750: t0 = 760, jump @795\n      : @738 [@dyn 380] (gas: 1)\n 24756: jump @753 if a0 == 0\n      : @739 (gas: 8)\n 24760: s1 = u64 [sp + 0xb8]\n 24764: i32 a0 = s1 + 0x80\n 24768: u64 [sp + 312] = 0\n 24772: u64 [sp + 304] = 0\n 24776: u64 [sp + 296] = 0\n 24780: a1 = sp + 0x120\n 24784: u64 [sp + 288] = 0\n 24788: ra = 762, jump @19\n      : @740 [@dyn 381] (gas: 3)\n 24794: a0 = u64 [sp + 0xa0]\n 24798: a0 = a0 + 0xffffffffffffff60\n 24802: t0 = 764, jump @795\n      : @741 [@dyn 382] (gas: 1)\n 24808: jump @753 if a0 == 0\n      : @742 (gas: 8)\n 24812: s1 = u64 [sp + 0xb8]\n 24816: i32 a0 = s1 + 0xa0\n 24820: u64 [sp + 280] = 0\n 24824: u64 [sp + 272] = 0\n 24828: u64 [sp + 264] = 0\n 24832: a1 = sp + 0x100\n 24836: u64 [sp + 256] = 0\n 24840: ra = 766, jump @19\n      : @743 [@dyn 383] (gas: 3)\n 24846: a0 = u64 [sp + 0xa0]\n 24850: a0 = a0 + 0xffffffffffffff40\n 24854: t0 = 768, jump @795\n      : @744 [@dyn 384] (gas: 1)\n 24860: jump @753 if a0 == 0\n      : @745 (gas: 8)\n 24864: a0 = u64 [sp + 0xb8]\n 24868: i32 a0 = a0 + 0xc0\n 24872: u64 [sp + 248] = 0\n 24876: u64 [sp + 240] = 0\n 24880: u64 [sp + 232] = 0\n 24884: a1 = sp + 0xe0\n 24888: u64 [sp + 224] = 0x60\n 24893: ra = 770, jump @19\n      : @746 [@dyn 385] (gas: 7)\n 24899: a1 = u64 [sp + 0x30]\n 24902: a0 = u64 [sp + 0x88]\n 24906: a0 = a0 + a1\n 24909: a1 = a0 <u a1\n 24912: a4 = u64 [sp + 0x28]\n 24915: a2 = u64 [sp + 0x80]\n 24919: t0 = 772, jump @808\n      : @747 [@dyn 386] (gas: 9)\n 24925: a3 = u64 [sp + 0x20]\n 24928: a1 = u64 [sp + 0x90]\n 24932: a1 = a1 + a3\n 24935: a3 = a1 <u a3\n 24938: s1 = u64 [sp + 0x78]\n 24941: a5 = u64 [sp + 0x18]\n 24944: a5 = a5 + s1\n 24947: a3 = a3 + a5\n 24950: t0 = 774, jump @805\n      : @748 [@dyn 387] (gas: 1)\n 24956: jump @753 if a1 != 0\n      : @749 (gas: 10)\n 24960: a1 = u64 [sp + 0xb8]\n 24964: u64 [sp + 0xc0] = a1\n 24968: a1 = u64 [sp + 0xb0]\n 24972: u64 [sp + 0xc8] = a1\n 24976: a1 = u64 [sp + 0x70]\n 24979: u64 [sp + 0xd0] = a1\n 24983: a1 = sp + 0xc0\n 24987: a2 = u64 [sp + 0x98]\n 24991: u64 [sp + 0xd8] = a2\n 24995: ra = 776, jump @19\n      : @750 [@dyn 388] (gas: 5)\n 25001: a1 = u64 [sp + 0x88]\n 25005: a0 = a1 + 0x20\n 25008: a1 = a0 <u a1\n 25011: a3 = u64 [sp + 0x80]\n 25015: t0 = 778, jump @819\n      : @751 [@dyn 389] (gas: 10)\n 25021: a1 = u64 [sp + 0x90]\n 25025: a3 = a3 + a1\n 25028: a1 = a3 <u a1\n 25031: s1 = s1 + a1\n 25034: t1 = a0\n 25036: t2 = a2\n 25038: a5 = a3\n 25040: t0 = u64 [sp + 0x60]\n 25043: ra = u64 [sp + 0x68]\n 25046: jump @724\n      : @752 (gas: 14)\n 25049: a0 = u64 [sp]\n 25051: a1 = u64 [sp + 0x8]\n 25054: u64 [a0] = a1\n 25056: u64 [a0 + 0x8] = ra\n 25059: u64 [a0 + 0x10] = t0\n 25062: a1 = u64 [sp + 0x10]\n 25065: u64 [a0 + 0x18] = a1\n 25068: sp = s0 + 0xfffffffffffffce0\n 25072: a0 = sp + 0x300\n 25076: ra = u64 [a0 + 0x18]\n 25079: s0 = u64 [a0 + 0x10]\n 25082: s1 = u64 [a0 + 0x8]\n 25085: sp = sp + 0x320\n 25089: ret\n      : @753 (gas: 1)\n 25091: trap\n      : @754 (gas: 22)\n 25092: sp = sp + 0xffffffffffffff40\n 25096: u64 [sp + 0xb8] = ra\n 25100: u64 [sp + 0xb0] = s0\n 25104: u64 [sp + 0xa8] = s1\n 25108: s0 = sp + 0xc0\n 25112: sp = sp & 0xfffffffffffffff0\n 25115: a4 = u64 [a1 + 0x10]\n 25118: a3 = u64 [a1 + 0x18]\n 25121: a5 = u64 [a1 + 0x8]\n 25124: a1 = u64 [a1]\n 25126: u64 [sp + 0x28] = a3\n 25129: u64 [sp + 0x20] = a5\n 25132: a5 = a5 | a3\n 25135: a3 = a1 | a4\n 25138: a3 = a3 | a5\n 25141: a3 = a3 >> 0x20\n 25144: u64 [sp + 0x30] = a4\n 25147: a4 = a4 | a5\n 25150: a4 = a4 << 0x20\n 25153: a3 = a3 | a4\n 25156: u64 [sp + 0x38] = a0\n 25159: jump @758 if a3 != 0\n      : @755 (gas: 10)\n 25163: a0 = u64 [a2 + 0x18]\n 25166: u64 [sp + 0x10] = a0\n 25169: s1 = u64 [a2 + 0x10]\n 25172: a0 = u64 [a2 + 0x8]\n 25175: u64 [sp + 0x8] = a0\n 25178: a0 = u64 [a2]\n 25180: u64 [sp] = a0\n 25182: a0 = sp + 0x80\n 25186: u64 [sp + 0x18] = a1\n 25189: ra = 780, jump @17\n      : @756 [@dyn 390] (gas: 19)\n 25195: t0 = u64 [sp + 0x10]\n 25198: a5 = u64 [sp + 0x8]\n 25201: t1 = u64 [sp]\n 25203: a0 = u64 [sp + 0x88]\n 25207: a1 = u64 [sp + 0x98]\n 25211: a2 = u64 [sp + 0x80]\n 25215: a3 = u64 [sp + 0x90]\n 25219: a4 = a0 ^ a5\n 25222: a0 = a5 <u a0\n 25225: a2 = t1 <u a2\n 25228: a2 = a0 if a4 != 0\n 25231: a0 = s1 <u a3\n 25234: a4 = a1 ^ t0\n 25237: a1 = t0 <u a1\n 25240: a1 = a0 if a4 == 0\n 25243: a3 = a3 ^ s1\n 25246: a3 = a3 | a4\n 25249: a1 = a2 if a3 == 0\n 25252: jump @759 if a1 == 0\n      : @757 (gas: 47)\n 25256: a0 = s1 >> 0x3b\n 25259: a1 = t0 << 0x5\n 25262: t0 = a1 | a0\n 25265: a1 = a5 >> 0x3b\n 25268: s1 = s1 << 0x5\n 25271: a1 = a1 | s1\n 25274: a2 = t1 >> 0x3b\n 25277: a3 = a5 << 0x5\n 25280: a2 = a2 | a3\n 25283: a3 = t1 << 0x5\n 25286: a0 = u64 [sp + 0x18]\n 25289: a3 = a3 + a0\n 25292: a4 = a3 <u a0\n 25295: a5 = u64 [sp + 0x20]\n 25298: a2 = a2 + a5\n 25301: a2 = a2 + a4\n 25304: a0 = a2 ^ a5\n 25307: s1 = a2 <u a5\n 25310: s1 = a4 if a0 == 0\n 25313: a5 = u64 [sp + 0x30]\n 25316: a1 = a1 + a5\n 25319: s1 = s1 + a1\n 25322: a4 = s1 <u a1\n 25325: a1 = a1 <u a5\n 25328: a5 = u64 [sp + 0x28]\n 25331: a0 = a5 + t0\n 25334: a0 = a0 + a1\n 25337: a0 = a0 + a4\n 25340: a1 = a3 + 0x20\n 25343: a3 = a1 <u a3\n 25346: a4 = a2 + a3\n 25349: a2 = a4 <u a2\n 25352: a2 = a3 if a3 == 0\n 25355: a2 = a2 + s1\n 25358: a3 = a2 <u s1\n 25361: a0 = a0 + a3\n 25364: a3 = u64 [sp + 0x38]\n 25367: u64 [a3] = a1\n 25369: u64 [a3 + 0x8] = a4\n 25372: u64 [a3 + 0x10] = a2\n 25375: u64 [a3 + 0x18] = a0\n 25378: sp = s0 + 0xffffffffffffff40\n 25382: ra = u64 [sp + 0xb8]\n 25386: s0 = u64 [sp + 0xb0]\n 25390: s1 = u64 [sp + 0xa8]\n 25394: sp = sp + 0xc0\n 25398: ret\n      : @758 (gas: 1)\n 25400: trap\n      : @759 (gas: 8)\n 25401: u64 [sp + 112] = 0\n 25404: u64 [sp + 104] = 0\n 25407: u64 [sp + 96] = 0\n 25410: a0 = 0x4e487b7100000000\n 25420: a1 = sp + 0x60\n 25423: u64 [sp + 0x78] = a0\n 25426: a0 = 0\n 25428: ra = 782, jump @19\n      : @760 [@dyn 391] (gas: 7)\n 25434: u64 [sp + 88] = 0\n 25437: u64 [sp + 80] = 0\n 25440: u64 [sp + 64] = 0x32\n 25444: a0 = 0x4\n 25447: a1 = sp + 0x40\n 25450: u64 [sp + 72] = 0\n 25453: ra = 784, jump @19\n      : @761 [@dyn 392] (gas: 2)\n 25459: a1 = i32 [0x20074]\n 25464: jump @763 if a1 >u 63\n      : @762 (gas: 2)\n 25468: u32 [0x20074] = 0x40\n 25474: fallthrough\n      : @763 (gas: 7)\n 25475: a1 = 0x20080\n 25480: i32 a1 = a1 + 0\n 25482: a0 = 0x1\n 25485: a2 = 0x24\n 25488: ra = 0x312\n 25492: ecalli 8 // 'seal_return'\n 25494: fallthrough\n      : @764 [@dyn 393] (gas: 31)\n 25495: sp = sp + 0xfffffffffffffde0\n 25499: a2 = sp + 0x200\n 25503: u64 [a2 + 0x18] = ra\n 25506: u64 [a2 + 0x10] = s0\n 25509: u64 [a2 + 0x8] = s1\n 25512: s0 = sp + 0x220\n 25516: sp = sp & 0xffffffffffffffe0\n 25519: s1 = sp\n 25521: a2 = u64 [a1 + 0x18]\n 25524: u64 [s1 + 0x80] = a2\n 25528: a2 = u64 [a1 + 0x10]\n 25531: u64 [s1 + 0x88] = a2\n 25535: a2 = u64 [a1 + 0x8]\n 25538: u64 [s1 + 0x98] = a2\n 25542: a1 = u64 [a1]\n 25544: u64 [s1 + 0x90] = a1\n 25548: a3 = u64 [a0 + 0x18]\n 25551: a2 = u64 [a0 + 0x10]\n 25554: a1 = u64 [a0 + 0x8]\n 25557: a0 = u64 [a0]\n 25559: u64 [s1 + 0x58] = a3\n 25562: u64 [s1 + 0x1b8] = a3\n 25566: u64 [s1 + 0x60] = a2\n 25569: u64 [s1 + 0x1b0] = a2\n 25573: u64 [s1 + 0x68] = a1\n 25576: u64 [s1 + 0x1a8] = a1\n 25580: u64 [s1 + 0x78] = a0\n 25583: u64 [s1 + 0x1a0] = a0\n 25587: a0 = s1 + 0x180\n 25591: a1 = s1 + 0x1a0\n 25595: ra = 788, jump @21\n      : @765 [@dyn 394] (gas: 11)\n 25601: a0 = s1 + 0x100\n 25605: a5 = u64 [a0 + 0x98]\n 25609: a4 = u64 [a0 + 0x90]\n 25613: a3 = u64 [a0 + 0x88]\n 25617: a0 = a5 >u 0\n 25619: a1 = a4 >u 0\n 25621: a1 = a0 if a5 != 0\n 25624: a0 = a4 | a5\n 25627: a2 = a3 >u 0\n 25629: a2 = a1 if a0 != 0\n 25632: jump @778 if a2 != 0\n      : @766 (gas: 20)\n 25636: a0 = u64 [s1 + 0x180]\n 25640: u64 [s1 + 0x50] = a0\n 25643: a0 = a0 + 0x1\n 25646: a1 = a0 <u 0x1\n 25649: a1 = a1 + a3\n 25652: a2 = a0 | a1\n 25655: a2 = a2 <u 0x1\n 25658: a2 = a2 + a4\n 25661: u64 [s1 + 0x48] = a3\n 25664: a3 = a2 <u a4\n 25667: a3 = a3 + a5\n 25670: u64 [s1 + 0x1c0] = a0\n 25674: u64 [s1 + 0x1c8] = a1\n 25678: u64 [s1 + 0x1d0] = a2\n 25682: u64 [s1 + 0x1d8] = a3\n 25686: a0 = s1 + 0x1a0\n 25690: a1 = s1 + 0x1c0\n 25694: u64 [s1 + 0x40] = a4\n 25697: u64 [s1 + 0x38] = a5\n 25700: ra = 790, jump @23\n      : @767 [@dyn 395] (gas: 24)\n 25706: a0 = sp + 0xffffffffffffffe0\n 25709: a0 = a0 & 0xffffffffffffffe0\n 25712: u64 [s1 + 0x70] = a0\n 25715: sp = a0\n 25717: a0 = u64 [s1 + 0x38]\n 25720: u64 [s1 + 0x118] = a0\n 25724: a0 = u64 [s1 + 0x40]\n 25727: u64 [s1 + 0x110] = a0\n 25731: a0 = u64 [s1 + 0x48]\n 25734: u64 [s1 + 0x108] = a0\n 25738: a0 = u64 [s1 + 0x50]\n 25741: u64 [s1 + 0x100] = a0\n 25745: a0 = u64 [s1 + 0x58]\n 25748: u64 [s1 + 0x138] = a0\n 25752: a0 = u64 [s1 + 0x60]\n 25755: u64 [s1 + 0x130] = a0\n 25759: a0 = u64 [s1 + 0x68]\n 25762: u64 [s1 + 0x128] = a0\n 25766: a0 = s1 + 0x140\n 25770: a1 = s1 + 0x120\n 25774: a2 = s1 + 0x100\n 25778: a3 = u64 [s1 + 0x78]\n 25781: u64 [s1 + 0x120] = a3\n 25785: ra = 792, jump @664\n      : @768 [@dyn 396] (gas: 19)\n 25791: a0 = u64 [s1 + 0x178]\n 25795: u64 [s1 + 0x78] = a0\n 25798: a0 = u64 [s1 + 0x170]\n 25802: u64 [s1 + 0x60] = a0\n 25805: a0 = u64 [s1 + 0x168]\n 25809: u64 [s1 + 0x58] = a0\n 25812: a0 = u64 [s1 + 0x160]\n 25816: u64 [s1 + 0x68] = a0\n 25819: a0 = u64 [s1 + 0x150]\n 25823: a4 = u64 [s1 + 0x158]\n 25827: a2 = u64 [s1 + 0x140]\n 25831: a3 = u64 [s1 + 0x148]\n 25835: a1 = u64 [s1 + 0x70]\n 25838: u64 [a1 + 0x10] = a0\n 25841: u64 [a1 + 0x18] = a4\n 25844: u64 [a1] = a2\n 25846: u64 [a1 + 0x8] = a3\n 25849: a0 = s1 + 0xe0\n 25853: ra = 794, jump @21\n      : @769 [@dyn 397] (gas: 38)\n 25859: a0 = u64 [s1 + 0xf0]\n 25863: u64 [s1 + 0x50] = a0\n 25866: a0 = u64 [s1 + 0xf8]\n 25870: u64 [s1 + 0x48] = a0\n 25873: a0 = u64 [s1 + 0xe0]\n 25877: u64 [s1 + 0x40] = a0\n 25880: a0 = u64 [s1 + 0xe8]\n 25884: u64 [s1 + 0x38] = a0\n 25887: a5 = u64 [s1 + 0x68]\n 25890: a0 = a5 >> 0x3d\n 25893: a2 = u64 [s1 + 0x58]\n 25896: a1 = a2 << 0x3\n 25899: a0 = a0 | a1\n 25902: a1 = a2 >> 0x3d\n 25905: a3 = u64 [s1 + 0x60]\n 25908: a2 = a3 << 0x3\n 25911: a1 = a1 | a2\n 25914: a2 = a3 >> 0x3d\n 25917: a3 = u64 [s1 + 0x78]\n 25920: a3 = a3 << 0x3\n 25923: a2 = a2 | a3\n 25926: a5 = a5 << 0x3\n 25929: u64 [s1 + 0x78] = a5\n 25932: a3 = a0 >u 0\n 25934: a4 = a5 <u 0x100\n 25938: a4 = a4 ^ 0x1\n 25941: a4 = a3 if a0 != 0\n 25944: a0 = a2 >u 0\n 25946: a3 = a1 >u 0\n 25948: a3 = a0 if a2 != 0\n 25951: a1 = a1 | a2\n 25954: a4 = a3 if a1 != 0\n 25957: u64 [s1 + 0x60] = a4\n 25960: i32 a2 = a5 + 0xffffffffffffff80\n 25963: u64 [s1 + 0x30] = a2\n 25966: a0 = u64 [s1 + 0x90]\n 25970: a1 = u64 [s1 + 0x98]\n 25974: ra = 796, jump @825\n      : @770 [@dyn 398] (gas: 8)\n 25980: u64 [s1 + 0x18] = a0\n 25983: u64 [s1 + 0x20] = a1\n 25986: a0 = u64 [s1 + 0x68]\n 25989: i32 a2 = a0 << 0x3\n 25992: u64 [s1 + 0x68] = a2\n 25995: a0 = u64 [s1 + 0x88]\n 25999: a1 = u64 [s1 + 0x80]\n 26003: ra = 798, jump @825\n      : @771 [@dyn 399] (gas: 8)\n 26009: u64 [s1 + 0x58] = a0\n 26012: u64 [s1 + 0x10] = a1\n 26015: a1 = u64 [s1 + 0x78]\n 26018: i32 a2 = 0x80 - a1\n 26022: u64 [s1 + 0x28] = a2\n 26025: a0 = u64 [s1 + 0x90]\n 26029: a1 = u64 [s1 + 0x98]\n 26033: ra = 800, jump @820\n      : @772 [@dyn 400] (gas: 21)\n 26039: a2 = u64 [s1 + 0x58]\n 26042: a2 = a2 | a0\n 26045: a0 = u64 [s1 + 0x78]\n 26048: a4 = a0 <u 0x80\n 26052: u64 [s1 + 0x58] = a4\n 26055: a3 = u64 [s1 + 0x18]\n 26058: a2 = a3 if a4 == 0\n 26061: a3 = u64 [s1 + 0x88]\n 26065: a2 = a3 if a0 == 0\n 26068: u64 [s1 + 0x88] = a2\n 26072: a2 = u64 [s1 + 0x10]\n 26075: a1 = a1 | a2\n 26078: a2 = u64 [s1 + 0x20]\n 26081: a1 = a2 if a4 == 0\n 26084: a2 = u64 [s1 + 0x80]\n 26088: a1 = a2 if a0 == 0\n 26091: u64 [s1 + 0x80] = a1\n 26095: a0 = u64 [s1 + 0x90]\n 26099: a1 = u64 [s1 + 0x98]\n 26103: a2 = u64 [s1 + 0x68]\n 26106: ra = 802, jump @825\n      : @773 [@dyn 401] (gas: 19)\n 26112: a2 = a1\n 26114: a1 = u64 [s1 + 0x58]\n 26117: a0 = 0 if a1 == 0\n 26119: a2 = 0 if a1 == 0\n 26121: a3 = u64 [s1 + 0x60]\n 26124: a1 = u64 [s1 + 0x80]\n 26128: a1 = 0 if a3 != 0\n 26130: u64 [s1 + 0x80] = a1\n 26134: a1 = u64 [s1 + 0x88]\n 26138: a1 = 0 if a3 != 0\n 26140: u64 [s1 + 0x88] = a1\n 26144: a2 = 0 if a3 != 0\n 26146: u64 [s1 + 0x98] = a2\n 26150: a0 = 0 if a3 != 0\n 26152: u64 [s1 + 0x90] = a0\n 26156: a0 = 0xffffffffffffffff\n 26159: a1 = 0xffffffffffffffff\n 26162: a2 = u64 [s1 + 0x28]\n 26165: ra = 804, jump @820\n      : @774 [@dyn 402] (gas: 6)\n 26171: u64 [s1 + 0x18] = a0\n 26174: u64 [s1 + 0x28] = a1\n 26177: a0 = 0xffffffffffffffff\n 26180: a1 = 0xffffffffffffffff\n 26183: a2 = u64 [s1 + 0x68]\n 26186: ra = 806, jump @825\n      : @775 [@dyn 403] (gas: 9)\n 26192: u64 [s1 + 0x68] = a0\n 26195: u64 [s1 + 0x20] = a1\n 26198: a1 = u64 [s1 + 0x18]\n 26201: a0 = a0 | a1\n 26204: u64 [s1 + 0x18] = a0\n 26207: a0 = 0xffffffffffffffff\n 26210: a1 = 0xffffffffffffffff\n 26213: a2 = u64 [s1 + 0x30]\n 26216: ra = 808, jump @825\n      : @776 [@dyn 404] (gas: 46)\n 26222: a3 = u64 [s1 + 0x58]\n 26225: a2 = u64 [s1 + 0x18]\n 26228: a0 = a2 if a3 != 0\n 26231: a4 = u64 [s1 + 0x20]\n 26234: a2 = u64 [s1 + 0x28]\n 26237: a2 = a2 | a4\n 26240: a2 = a1 if a3 == 0\n 26243: a1 = u64 [s1 + 0x78]\n 26246: a0 = 0xffffffffffffffff if a1 == 0\n 26249: a2 = 0xffffffffffffffff if a1 == 0\n 26252: a5 = u64 [s1 + 0x68]\n 26255: a5 = 0 if a3 == 0\n 26257: a4 = 0 if a3 == 0\n 26259: a1 = a2 ^ 0xffffffffffffffff\n 26262: a0 = a0 ^ 0xffffffffffffffff\n 26265: a2 = a4 ^ 0xffffffffffffffff\n 26268: a3 = a5 ^ 0xffffffffffffffff\n 26271: a4 = u64 [s1 + 0x60]\n 26274: a0 = 0xffffffffffffffff if a4 != 0\n 26277: a1 = 0xffffffffffffffff if a4 != 0\n 26280: a3 = 0xffffffffffffffff if a4 != 0\n 26283: a2 = 0xffffffffffffffff if a4 != 0\n 26286: a4 = u64 [s1 + 0x38]\n 26289: a2 = a2 & a4\n 26292: a4 = u64 [s1 + 0x40]\n 26295: a3 = a3 & a4\n 26298: a4 = u64 [s1 + 0x48]\n 26301: a1 = a1 & a4\n 26304: a4 = u64 [s1 + 0x50]\n 26307: a0 = a0 & a4\n 26310: a4 = u64 [s1 + 0x88]\n 26314: a0 = a0 | a4\n 26317: a4 = u64 [s1 + 0x80]\n 26321: a1 = a1 | a4\n 26324: a4 = u64 [s1 + 0x90]\n 26328: a3 = a3 | a4\n 26331: a4 = u64 [s1 + 0x98]\n 26335: a2 = a2 | a4\n 26338: a4 = s1 + 0x100\n 26342: u64 [a4 + 0xe8] = a2\n 26346: u64 [a4 + 0xe0] = a3\n 26350: u64 [a4 + 0xf8] = a1\n 26354: u64 [a4 + 0xf0] = a0\n 26358: a1 = s1 + 0x1e0\n 26362: a0 = u64 [s1 + 0x70]\n 26365: ra = 810, jump @23\n      : @777 [@dyn 405] (gas: 7)\n 26371: sp = s0 + 0xfffffffffffffde0\n 26375: a0 = sp + 0x200\n 26379: ra = u64 [a0 + 0x18]\n 26382: s0 = u64 [a0 + 0x10]\n 26385: s1 = u64 [a0 + 0x8]\n 26388: sp = sp + 0x220\n 26392: ret\n      : @778 (gas: 8)\n 26394: u64 [s1 + 208] = 0\n 26398: u64 [s1 + 200] = 0\n 26402: u64 [s1 + 192] = 0\n 26406: a0 = 0x4e487b7100000000\n 26416: a1 = s1 + 0xc0\n 26420: u64 [s1 + 0xd8] = a0\n 26424: a0 = 0\n 26426: ra = 812, jump @19\n      : @779 [@dyn 406] (gas: 7)\n 26432: u64 [s1 + 184] = 0\n 26436: u64 [s1 + 176] = 0\n 26440: u64 [s1 + 160] = 0x41\n 26445: a0 = 0x4\n 26448: a1 = s1 + 0xa0\n 26452: u64 [s1 + 168] = 0\n 26456: ra = 814, jump @19\n      : @780 [@dyn 407] (gas: 2)\n 26462: a1 = i32 [0x20074]\n 26467: jump @782 if a1 >u 63\n      : @781 (gas: 2)\n 26471: u32 [0x20074] = 0x40\n 26477: fallthrough\n      : @782 (gas: 8)\n 26478: a1 = 0x20080\n 26483: i32 a1 = a1 + 0\n 26485: a0 = 0x1\n 26488: a2 = 0x24\n 26491: ecalli 8 // 'seal_return'\n 26493: a0 = 0\n 26495: ra = 0x330\n 26499: jump @33\n      : @783 [export #0: 'call'] (gas: 2)\n 26502: a0 = 0\n 26504: ra = 816, jump @33\n      : @784 [@dyn 408] [export #1: 'deploy'] (gas: 2)\n 26510: a0 = 0x1\n 26513: ra = 818, jump @33\n      : @785 [@dyn 409] (gas: 13)\n 26519: a1 = a0 <u a1\n 26522: a3 = u64 [s1 + 0x130]\n 26526: a2 = a3 + a1\n 26529: a3 = a2 <u a3\n 26532: a3 = a1 if a1 == 0\n 26535: a1 = u64 [s1 + 0x120]\n 26539: a3 = a3 + a1\n 26542: a1 = a3 <u a1\n 26545: a4 = u64 [s1 + 0x138]\n 26549: a1 = a1 + a4\n 26552: a4 = s1 + 0x18d8\n 26556: a5 = a4 + 0x100\n 26560: jump [t0]\n      : @786 (gas: 20)\n 26562: a0 = u64 [s1 + 0x118]\n 26566: a2 = a0 >> 0x3d\n 26569: a5 = u64 [s1 + 0x108]\n 26573: a1 = a5 << 0x3\n 26576: t1 = a1 | a2\n 26579: a4 = u64 [s1 + 0x110]\n 26583: a1 = a4 >> 0x3d\n 26586: a2 = u64 [s1 + 0xf8]\n 26590: a2 = a2 << 0x3\n 26593: a1 = a1 | a2\n 26596: a2 = a5 >> 0x3d\n 26599: u64 [s1 + 0x108] = a3\n 26603: a3 = a4 << 0x3\n 26606: a2 = a2 | a3\n 26609: a3 = a0 << 0x3\n 26612: u64 [s1 + 0x110] = a3\n 26616: a5 = a2 >u 0\n 26618: a4 = a1 >u 0\n 26620: a4 = a5 if a1 == 0\n 26623: jump [t0]\n      : @787 (gas: 21)\n 26625: a2 = u64 [s1 + 0xe0]\n 26629: a2 = a2 | a1\n 26632: a1 = u64 [s1 + 0x110]\n 26636: a4 = a1 <u 0x80\n 26640: u64 [s1 + 0xe0] = a4\n 26644: a3 = u64 [s1 + 0xf0]\n 26648: a2 = a3 if a4 == 0\n 26651: a3 = u64 [s1 + 0x120]\n 26655: a2 = a3 if a1 == 0\n 26658: u64 [s1 + 0x120] = a2\n 26662: a2 = u64 [s1 + 0xe8]\n 26666: a0 = a0 | a2\n 26669: a2 = u64 [s1 + 0xf8]\n 26673: a0 = a2 if a4 == 0\n 26676: a2 = u64 [s1 + 0x128]\n 26680: a0 = a2 if a1 == 0\n 26683: u64 [s1 + 0x128] = a0\n 26687: a0 = u64 [s1 + 0x130]\n 26691: a1 = u64 [s1 + 0x138]\n 26695: a2 = u64 [s1 + 0x118]\n 26699: jump [t0]\n      : @788 (gas: 21)\n 26701: a3 = u64 [s1 + 0xa8]\n 26705: a3 = a3 | a1\n 26708: a2 = u64 [s1 + 0xf8]\n 26712: a4 = a2 <u 0x80\n 26716: u64 [s1 + 0xa8] = a4\n 26720: a1 = u64 [s1 + 0xb8]\n 26724: a3 = a1 if a4 == 0\n 26727: a1 = u64 [s1 + 0x110]\n 26731: a3 = a1 if a2 == 0\n 26734: u64 [s1 + 0x110] = a3\n 26738: a1 = u64 [s1 + 0xb0]\n 26742: a1 = a1 | a0\n 26745: a0 = u64 [s1 + 0xc0]\n 26749: a1 = a0 if a4 == 0\n 26752: a0 = u64 [s1 + 0x118]\n 26756: a1 = a0 if a2 == 0\n 26759: u64 [s1 + 0x118] = a1\n 26763: a0 = u64 [s1 + 0x108]\n 26767: a1 = u64 [s1 + 0x100]\n 26771: a2 = u64 [s1 + 0xf0]\n 26775: jump [t0]\n      : @789 (gas: 19)\n 26777: a3 = u64 [s1 + 0x118]\n 26781: a0 = u64 [a3 + 0x18]\n 26784: a1 = u64 [a3 + 0x10]\n 26787: a2 = u64 [a3 + 0x8]\n 26790: a3 = u64 [a3]\n 26792: a0 = reverse a0\n 26794: a4 = reverse a1\n 26796: a2 = reverse a2\n 26798: a3 = reverse a3\n 26800: a1 = u64 [s1 + 0x100]\n 26804: u64 [s1 + 0xf8] = a3\n 26808: u64 [a1 + 0x18] = a3\n 26811: u64 [s1 + 0x108] = a2\n 26815: u64 [a1 + 0x10] = a2\n 26818: u64 [s1 + 0x110] = a4\n 26822: u64 [a1 + 0x8] = a4\n 26825: u64 [s1 + 0x118] = a0\n 26829: u64 [a1] = a0\n 26831: jump [t0]\n      : @790 (gas: 7)\n 26833: a1 = u64 [sp + 0xf0]\n 26837: a0 = a1 <u s1\n 26840: a2 = u64 [sp + 0xf8]\n 26844: a0 = 0 if a2 != 0\n 26846: a2 = u64 [sp + 0xe8]\n 26850: a0 = 0 if a2 != 0\n 26852: jump [t0]\n      : @791 (gas: 13)\n 26854: a1 = s1 + 0x100\n 26858: a4 = u64 [a1 + 0x28]\n 26861: a2 = u64 [a1 + 0x20]\n 26864: a0 = u64 [a1 + 0x38]\n 26867: a0 = a0 | a4\n 26870: a3 = u64 [a1 + 0x30]\n 26873: a1 = a2 | a3\n 26876: a1 = a1 | a0\n 26879: a1 = a1 >> 0x20\n 26882: a0 = a0 | a3\n 26885: a0 = a0 << 0x20\n 26888: a0 = a0 | a1\n 26891: jump [t0]\n      : @792 (gas: 19)\n 26893: a3 = u64 [s1 + 0x130]\n 26897: a0 = u64 [a3 + 0x18]\n 26900: a1 = u64 [a3 + 0x10]\n 26903: a2 = u64 [a3 + 0x8]\n 26906: a3 = u64 [a3]\n 26908: a0 = reverse a0\n 26910: a4 = reverse a1\n 26912: a2 = reverse a2\n 26914: a3 = reverse a3\n 26916: u64 [s1 + 0x68] = a3\n 26919: a1 = u64 [s1 + 0x138]\n 26923: u64 [a1 + 0x18] = a3\n 26926: u64 [s1 + 0x70] = a2\n 26929: u64 [a1 + 0x10] = a2\n 26932: u64 [s1 + 0x78] = a4\n 26935: u64 [a1 + 0x8] = a4\n 26938: u64 [s1 + 0x80] = a0\n 26942: u64 [a1] = a0\n 26944: jump [t0]\n      : @793 (gas: 13)\n 26946: a2 = u64 [s1 + 0xe0]\n 26950: a1 = 0 if a2 == 0\n 26952: a0 = 0 if a2 == 0\n 26954: a5 = s1 + 0x100\n 26958: a2 = u64 [a5]\n 26960: a4 = u64 [a5 + 0x28]\n 26963: a4 = 0 if a2 != 0\n 26965: a3 = u64 [a5 + 0x20]\n 26968: a3 = 0 if a2 != 0\n 26970: a0 = 0 if a2 != 0\n 26972: a1 = 0 if a2 != 0\n 26974: a2 = s1 + 0x10b8\n 26978: jump [t0]\n      : @794 (gas: 6)\n 26980: a0 = s1 <u a0\n 26983: a1 = u64 [sp + 0x58]\n 26986: a0 = 0 if a1 != 0\n 26988: a1 = u64 [sp + 0x28]\n 26991: a0 = 0 if a1 != 0\n 26993: jump [t0]\n      : @795 (gas: 6)\n 26995: a0 = s1 <u a0\n 26998: a1 = u64 [sp + 0xb0]\n 27002: a0 = 0 if a1 != 0\n 27004: a1 = u64 [sp + 0xa8]\n 27008: a0 = 0 if a1 != 0\n 27010: jump [t0]\n      : @796 (gas: 11)\n 27012: a2 = u64 [s1 + 0xa8]\n 27016: a1 = 0 if a2 == 0\n 27018: a0 = 0 if a2 == 0\n 27020: a2 = u64 [s1 + 0xc8]\n 27024: a4 = u64 [s1 + 0x118]\n 27028: a4 = 0 if a2 != 0\n 27030: a3 = u64 [s1 + 0x110]\n 27034: a3 = 0 if a2 != 0\n 27036: a0 = 0 if a2 != 0\n 27038: a1 = 0 if a2 != 0\n 27040: jump [t0]\n      : @797 (gas: 8)\n 27042: u64 [sp + 48] = 0\n 27045: u64 [sp + 40] = 0\n 27048: u64 [sp + 32] = 0\n 27051: a0 = 0x4e487b7100000000\n 27061: a1 = sp + 0x20\n 27064: u64 [sp + 0x38] = a0\n 27067: a0 = 0\n 27069: jump [t0]\n      : @798 (gas: 11)\n 27071: a1 = a0 <u a1\n 27074: a3 = u64 [s1 + 0x130]\n 27078: a2 = a3 + a1\n 27081: a3 = a2 <u a3\n 27084: a3 = a1 if a1 == 0\n 27087: a1 = u64 [s1 + 0x120]\n 27091: a3 = a3 + a1\n 27094: a1 = a3 <u a1\n 27097: a4 = u64 [s1 + 0x128]\n 27101: a4 = a4 + a1\n 27104: jump [t0]\n      : @799 (gas: 10)\n 27106: a1 = a0 <u a1\n 27109: a3 = u64 [s1 + 0x120]\n 27113: a2 = a3 + a1\n 27116: a3 = a2 <u a3\n 27119: a3 = a1 if a1 == 0\n 27122: a1 = u64 [s1 + 0x138]\n 27126: a3 = a3 + a1\n 27129: a1 = a3 <u a1\n 27132: a4 = u64 [s1 + 0x130]\n 27136: jump [t0]\n      : @800 (gas: 12)\n 27138: a1 = a0 <u a1\n 27141: a3 = u64 [sp + 0x38]\n 27144: a2 = a3 + a1\n 27147: a3 = a2 <u a3\n 27150: a3 = a1 if a1 == 0\n 27153: a1 = u64 [sp + 0x40]\n 27156: a3 = a3 + a1\n 27159: a1 = a3 <u a1\n 27162: a4 = u64 [sp + 0x48]\n 27165: a1 = a1 + a4\n 27168: a4 = sp + 0x200\n 27172: jump [t0]\n      : @801 (gas: 12)\n 27174: a1 = a0 <u a1\n 27177: a3 = u64 [sp + 0x38]\n 27180: a2 = a3 + a1\n 27183: a3 = a2 <u a3\n 27186: a3 = a1 if a1 == 0\n 27189: a1 = u64 [sp + 0x40]\n 27192: a3 = a3 + a1\n 27195: a1 = a3 <u a1\n 27198: a4 = u64 [sp + 0x48]\n 27201: a1 = a1 + a4\n 27204: a4 = sp + 0x300\n 27208: jump [t0]\n      : @802 (gas: 10)\n 27210: u64 [s1 + 0x100] = a1\n 27214: t2 = u64 [s1 + 0xf0]\n 27218: a2 = t2 >> 0x3d\n 27221: a3 = u64 [s1 + 0xc0]\n 27225: a5 = a3 << 0x3\n 27228: t1 = a5 | a2\n 27231: a3 = a3 >> 0x3d\n 27234: a5 = u64 [s1 + 0xc8]\n 27238: a2 = a5 << 0x3\n 27241: jump [t0]\n      : @803 (gas: 4)\n 27243: a0 = 0x18d8\n 27247: a3 = s1 + a0\n 27250: a4 = a3 + 0x500\n 27254: jump [t0]\n      : @804 (gas: 5)\n 27256: a1 = u64 [sp + 0x100]\n 27260: a0 = 0 if a1 != 0\n 27262: a1 = u64 [sp + 0xe0]\n 27266: a0 = 0 if a1 != 0\n 27268: jump [t0]\n      : @805 (gas: 11)\n 27270: a4 = a4 + a1\n 27273: a1 = a4 <u a1\n 27276: a1 = a1 + a3\n 27279: a1 = a1 | a2\n 27282: a2 = a0 | a4\n 27285: a2 = a2 | a1\n 27288: a1 = a1 | a4\n 27291: a2 = a2 >> 0x20\n 27294: a1 = a1 << 0x20\n 27297: a1 = a1 | a2\n 27300: jump [t0]\n      : @806 (gas: 8)\n 27302: u64 [s1 + 0xf8] = a0\n 27306: u64 [s1 + 0xf0] = a1\n 27310: a0 = u64 [s1 + 0x118]\n 27314: i32 a2 = a0 << 0x3\n 27317: u64 [s1 + 0x118] = a2\n 27321: a0 = u64 [s1 + 0x128]\n 27325: a1 = u64 [s1 + 0x120]\n 27329: jump [t0]\n      : @807 (gas: 7)\n 27331: u64 [s1 + 0xe8] = a0\n 27335: u64 [s1 + 0xe0] = a1\n 27339: a1 = u64 [s1 + 0x110]\n 27343: i32 a2 = 0x80 - a1\n 27347: a0 = u64 [s1 + 0x130]\n 27351: a1 = u64 [s1 + 0x138]\n 27355: jump [t0]\n      : @808 (gas: 6)\n 27357: a2 = a2 + a4\n 27360: a2 = a2 + a1\n 27363: a3 = a2 ^ a4\n 27366: a4 = a2 <u a4\n 27369: a4 = a1 if a3 == 0\n 27372: jump [t0]\n      : @809 (gas: 4)\n 27374: a2 = a0\n 27376: a0 = 0x4e487b7100000000\n 27386: a1 = s1 + 0x7ff\n 27390: jump [t0]\n      : @810 (gas: 7)\n 27392: u64 [s1 + 0xb0] = a0\n 27396: u64 [s1 + 0xa8] = a1\n 27400: a1 = u64 [s1 + 0xf8]\n 27404: i32 a2 = 0x80 - a1\n 27408: a0 = u64 [s1 + 0x108]\n 27412: a1 = u64 [s1 + 0x100]\n 27416: jump [t0]\n      : @811 (gas: 7)\n 27418: a1 = a1 | a2\n 27421: a5 = a4 if a1 != 0\n 27424: u64 [s1 + 0x100] = a5\n 27428: i32 a2 = a3 + 0xffffffffffffff80\n 27431: a0 = u64 [s1 + 0x130]\n 27435: a1 = u64 [s1 + 0x138]\n 27439: jump [t0]\n      : @812 (gas: 8)\n 27441: a3 = a0 << 0x20\n 27444: a1 = reverse a1\n 27446: a1 = a1 >> 0x20\n 27449: a3 = a3 | a1\n 27452: a0 = a0 >> 0x20\n 27455: a1 = reverse a2\n 27457: a2 = a1 << 0x20\n 27460: jump [t0]\n      : @813 (gas: 6)\n 27462: sp = s0 + 0xffffffffffffffa0\n 27465: ra = u64 [sp + 0x58]\n 27468: s0 = u64 [sp + 0x50]\n 27471: s1 = u64 [sp + 0x48]\n 27474: sp = sp + 0x60\n 27477: jump [t0]\n      : @814 (gas: 6)\n 27479: a0 = a1 <u a0\n 27482: a2 = u64 [s1 + 0x138]\n 27486: a0 = 0 if a2 != 0\n 27488: a2 = u64 [s1 + 0x130]\n 27492: a0 = 0 if a2 != 0\n 27494: jump [t0]\n      : @815 (gas: 5)\n 27496: a0 = a1 <u a0\n 27499: a2 = u64 [a5 + 0x30]\n 27502: a0 = 0 if a2 != 0\n 27504: a0 = 0 if a3 != 0\n 27506: jump [t0]\n      : @816 (gas: 8)\n 27508: u64 [s1 + 0xc0] = a0\n 27512: u64 [s1 + 0xb8] = a1\n 27516: a0 = u64 [s1 + 0xf0]\n 27520: i32 a2 = a0 << 0x3\n 27523: u64 [s1 + 0xf0] = a2\n 27527: a0 = u64 [s1 + 0x118]\n 27531: a1 = u64 [s1 + 0x110]\n 27535: jump [t0]\n      : @817 (gas: 5)\n 27537: a0 = sp + 0xffffffffffffffe0\n 27540: a2 = a0 & 0xffffffffffffffe0\n 27543: u64 [s1 + 0x130] = a2\n 27547: sp = a2\n 27549: jump [t0]\n      : @818 (gas: 7)\n 27551: a1 = a0 | a5\n 27554: a1 = a1 | a2\n 27557: a1 = a1 >> 0x20\n 27560: a2 = a2 | a5\n 27563: a2 = a2 << 0x20\n 27566: a1 = a1 | a2\n 27569: jump [t0]\n      : @819 (gas: 4)\n 27571: a2 = a3 + a1\n 27574: a3 = a2 <u a3\n 27577: a3 = a1 if a1 == 0\n 27580: jump [t0]\n      : @820 (gas: 2)\n 27582: a3 = a2 & 0x40\n 27585: jump @824 if a3 != 0\n      : @821 (gas: 1)\n 27588: jump @823 if a2 == 0\n      : @822 (gas: 6)\n 27591: i32 a3 = 0x40 - a2\n 27594: a3 = a1 << a3\n 27597: a1 = a1 >> a2\n 27600: a0 = a0 >> a2\n 27603: a0 = a0 | a3\n 27606: ret\n      : @823 (gas: 1)\n 27608: ret\n      : @824 (gas: 4)\n 27610: a0 = a2 + 0xffffffffffffffc0\n 27613: a0 = a1 >> a0\n 27616: a1 = 0\n 27618: ret\n      : @825 (gas: 2)\n 27620: a3 = a2 & 0x40\n 27623: jump @829 if a3 != 0\n      : @826 (gas: 1)\n 27626: jump @828 if a2 == 0\n      : @827 (gas: 6)\n 27629: i32 a3 = 0x40 - a2\n 27632: a3 = a0 >> a3\n 27635: a0 = a0 << a2\n 27638: a1 = a1 << a2\n 27641: a1 = a1 | a3\n 27644: ret\n      : @828 (gas: 1)\n 27646: ret\n      : @829 (gas: 4)\n 27648: a1 = a2 + 0xffffffffffffffc0\n 27651: a1 = a0 << a1\n 27654: a0 = 0\n 27656: ret\n","bytecode":{"object":"50564d00002d7e000000000000010700c1a000c0008003701aea06dd4e3e2c8a52adedf2d365d6572e268ecd50630d5c828226ae459be57aa8628b54d9ec0d29c86f3888a94503d6f608404895bca64b63e5f30e16932f362064696c61766e4949676e696b6f6f62a5a0f869ed17d5dffa64484e49fe497dbfc0145c58e3cfc3fdc33e46729ff3dd0480c40c000000000e0000001c0000002a000000300000003d00000048000000570000005a00000065000000770000008200000063616c6c5f646174615f636f707963616c6c5f646174615f6c6f616463616c6c5f646174615f73697a6563616c6c65726465706f7369745f6576656e746765745f73746f72616765686173685f6b656363616b5f3235366e6f777365616c5f72657475726e7365745f696d6d757461626c655f646174617365745f73746f7261676576616c75655f7472616e73666572726564051302c086670463616c6cc08e67066465706c6f7906c0c47c819902c00a6c9b00e30126039103f203fa03f904fe0424058e059a05d905fe05a406db0606072e0745074a075707a5077408ca08ef082b09300935093a093f09440949094e098009c8096d0ad10a260bf40b640c9e0c070d2b0d440d680d820dae0dcb0ddf0dfc0d610e8a0ea60ee50e0e0f450f8e0feb0f2e1051108810c810d9101711f0112e125b12bc1215133113fe1376149215ea1503163d1667169316d1162a17371767176d179f171d18261846188b1891189b1834199f19dc19151a271a2d1a331a391a3f1a451a4b1a511a571a9b1a381b821bfa1b131c4b1c2f1dba1ddc1de51d161e571eb01ec41e131f3f1f9c1f242034206020d520e6202421a121db21432285229322112359236723aa23c823102422249824ad24d1240a2553256525d82537269026f0262b27b0279729e929ef29252a992ab92afe2a042b0e2bad2bfe2b332c672c792c7f2c852c8b2c912c972c9d2ca32ca92cc72cd42c0a2d102d462d712d7a2d9a2dc42ddd2de32ded2d332efe2e512f782fb52fbb2fc12fc72fcd2fd32fd92fdf2f01303730ab3006310f316631a4311d3223325632bc32c232f1324a335033223439344a358c35d736203738375e37cb375438d238ec3812399a39d139fd39253a6f3ac53acf3ae23a143b403ba13b003c113c4a3c953cc43cfa3c503d5a3d7e3dda3d853f2e407940b2404e419c41ac41d8413d4271428142ad42f44212434b435b438743f7434f4458457145954505460d4613462a464e46b546c946cf46e6460a47d1470748204844489948c24804496349be49394a964a8e4ba84bc84bf24bd24c2f4da24db04dbd4dd24d254e4a4e1c4f7f4fe84f9951cb510a525e528c52e752f452055312534d535a536b537853a553b253c453d1530b5419542b5438546a5478548a5497541255235576559955b6561e5782574f586d58915806590c59235947599a59c959d759265a6c5acf5adb5af95a055b485b545b725b8f5bc35bcf5be85bf45b235c2f5c495c665c9b5cdd5cea5c195d9f5dd05d295e785ea15e855fbb5ffe5f4360506075608260a760b460da60e8600e611c6143615d617c61a961bd616b625a637363976301646a64bf6403657c659965b76500663b6650666e66036740675e678e679767aa876e978a2098aa20977b2098bb20c89b0bc9ba0a979b019abbaeab20ae873751094ec87909647a017c8b95880195ac0178ab64caab9cf42836510934c87909647a017c8b95880195ac0178ab64caab9cf4281c51091a839aff01c8a80b7cbb9599ffc8a70c78cb83aaff5209f03200390878000251080e053307a0000383770a092801059511f07b10087b1564896475330820649750100214047c78017c797c7a027c7b03978808d4980897aa1097bb18d4ba0ad4a8087c79057c7a047c7b067c7c07979908d4a90997bb1097cc18d4cb0bd4b909979920d489027c79097c7a087c7b0a7c7c0b979908d4a90997bb1097cc18d4cb0bd4b9097c7a0d7c7b0c7c7c0e7c780f97aa08d4ba0a97cc10978818d4c808d4a808978820d498037c78117c7a107c7b127c7c13978808d4a80897bb1097cc18d4cb0bd4b8087c7a157c7b147c7c167c791797aa08d4ba0a97cc10979918d4c909d4a909979920d4890a7c78197c79187c7b1a7c7c1b978808d4980897bb1097cc18d4cb0bd4b8087c791d7c7b1c7c7c1e7c771f979908d4b90997cc10977718d4c707d49707977720d487076f776fa86f396f2a7b5a187b59107b58087b57821008821595111032009511d87b10207b15187b161082897b19088289087b19828510828618330820501004cc026f686f59821a6faa821b086fbb787b18787a10787908787898bc38787c1f98bc30787c1e98bc28787c1d98bc20787c1c98bc18787c1b98bc10787c1a98bb08787b1998ab38787b1798ab30787b1698ab28787b1598ab20787b1498ab18787b1398ab10787b1298aa08787a11989a38787a0f989a30787a0e989a28787a0d989a20787a0c989a18787a0b989a10787a0a98990878790998893878790798893078790698892878790598892078790498891878790398891078790298880878780182102082151882161095112832009511a07b10587b15507b16489515608411e06476828718828910828a0882886f776f996faa6f887b18187b1a107b19087b17491138491130491128491120481140208318831a20831b403309ff33070a05821738821830821928821a206f776f886f996faa7b6a187b69107b68087b67501206256832009511a07b10587b15509515608411e08272827a08827b108277188283828908828c108288186f746fbb6faa6f276f826fcc6f996f387b17187b1a107b1b087b147b18387b19307b1c287b12208318831a203309ff330b2033070a0a9551a0821058821550951160320082186f888219086f99821a106faa821b186fbb7b1b587b1a507b19487b18408218206f888219286f99821a306faa821b386fbb7b1b787b1a707b19687b18608379836a8317403308020a04955160ff8210980082159000821688009511a00032007b185850100cb5006f687b18980082186f887b1890008218086f887b1888008218106f887b1880008218186f887b18b8008218206f887b18b0008218286f887b18a8008218306f887b18a0008218386f887b18d8008218406f887b18d0008218486f887b18c8008218506f887b18c0008218606f887b18f8008218686f887b18f0008218706f887b18e8008218786f887b18e0008379811a58831780003308040a049551e0fe8210180182151001821608019511200132008b7910520931c8780883881f8488e05638000001253309740002390a740002ae8a093d087400020133088000028377c887073200009511f07b10087b158475010a02013d0770000251050750100e09501010a1009511a07b10587b15509515608411e0491118491110490180003307406418491108501012a0fc4911384911304911284911208317200a0b01821730821838821928821a20d49808d4a707d487075107163308800002838833070133093300160a08283b390874000256187f0c2003740002800001330780000283778000330833090a28f0fa33078000330850101421ff8378330733093300160a0801951110fe7b10e8017b15e0017b16d8019515f001951110e38411e064169569d8184929a000492998004929880080003307409568601949299000501018ebfb33077000027b67380139077000025517040728ad3995670020837780f9330833001a0a01019569d8188197c4005247cd38a8800a2835115247549cb18b0a28ce26524732d3dbea0a28a32351471e30ab1d37055247bdce3c2f0a28bd0e5147fef245424d0b51477dbe0f4c0a2835144929a00249299802492990024929880295670020837760fb0a0b01956ad81895ab000282b7980082b8a00082b9900082ba8800d49808d4a707d4870751070628443982673801817756172307283e399567ff079577c10250101ca44f956aff0795aab90082a7080282a8100280a91802492a000295ab00017bb9f8007bb8f0009568ff079588a1027bb7e800330750101ee9fa9568ff079588b9004928e0014928d8014928c8010164893307209568ff07958881024929d001501020befa9517e08477e07b6738016471390874000256183f123308403d08740002330222286b6450122268643307800002837783993308403300240a0633022628cb61501226c8619567ff07957761025010285ffb956bff0795bbb90095bc000182c7c00082c8b80082c9b00082caa8007b67a0007bc780007b6898007bc8787b6990007bc9709567ff07957741029568ff07958821027b6a88007bca6850102aa855956bff0795bbb90095b800018287a0007b67d000828798007b67d800828790007b67e000828788007b67e80033023303330033040182678800d8720782699000d39308d89309da8709826c9800d8c007826aa000d3a408d8a40ada870ad3c007d48707da790a520a062885299517e08477e07b67180164717bb480007bb0787bb3707bb2688267687bb7a0008267707bb798008267787bb790009567ff07957761019568ff07958841019569ff0795992101826a80007bba88007b6238017b6330017b6428017b60200150102c474e956aff0795aab90082a7e0007b67f80082a7d8007b67c80082a7d0007b67c00082a7c8007b67f00082a7b80082a8c00082a9a80082aab000826b18017bb7107bb8187bb97bba0864b89567ff079577010150102eecf99569ff079599b9008298487b6818018297507b6710018297587b6708018298605012306061d4a90298c93d826af80097aa03d4a9099744037b64f8008e3a884b000185bc01db3a0c8e9b8e2adb9b0ad49209db9a0c7b6cc800834980501032986250123449625010368e62501238cb6150103aaa6250123c0e5f50103e7a625012403b609569ff079599b9007b987b97f8956700107b7aa8f89567ff079577c1009568ff079588a100956900107b9ba0f85010422b3a956aff0795aab90082a90882a71082a81882aa20956b00107bba78f8956a00107ba870f8956800107b8768f89567ff07957781009568ff07958861956a00107ba960f8501044844f95670010827798f8956900017b971895670010827790f87b971095670010827788f87b970895670010827780f87b97829728956800107b8718f8829720956800107b8710f8829730956800107b8708f8829738956800107b8700f88267d000956800107b8738f88267d800956800107b8730f88267e000956800107b8728f89567ff079577419568ff079588219569ff07959901826ae800956b00107bba20f85010469c5795670010827858f895670010827950f895670010827a48f895670010827740f8d4a808d4970ad48a0a98aa20d49808978820d4a808510806281929826800017b68e007826808017b68e807826810017b68f0079568e007826918017b69f807501048f3f682672801956b00077bb79800826720017bb79000826730017bb78800826738017bb780008267d0007bb7b8008267d8007bb7b0008267e0007bb7a8009567c0079568a00795698007826ae8007bbaa00050104ae356826428018263300182623801952201882701c87303d4320788770182682001c88707d88708c884046470956bff0795bbb9002882fc4929e0004929d8004929d0004929c800956700208377a0f90a0b01956ad81882a7d80082a8e00082a9d00082aac800d49808d4a707d4870751070628433482673801817756172307283d34956700208377c0f93308040a019567d818827800017b6830018278f8007b6838018278f0007b6828018278e8007b68200149272001492718014927100149270801956700049568e01950104cc2f682643001826328018262200195690004829718829882601004829a08d3740bd8740782693801d8090cdbb70cd3a307d8a30ad88208db7a08d30907d4b707db7c0852080628af339517e08477e07b67180164717b64b8037b69b0037b63a8039567c0039568a0037b62a00350104e4737826ad0037b6a20018267d8037b6738018269c0037b6928018268c8037b683001826b18017bba107bb7187bb97bb80864b89567800350105018f6826798037b671801826790037b671001826788037b670801826780037b6700018267280195770188780182693001c898089569d818959a00017ba830d478087ba72888870182682001c887077ba738d8870782683801c887077ba740956760039568001a501052aff5806770037b67f800826768037b67f000826760037b67e80082682801958702501254715a7bc8607bca587bc9507bc748956740039568201a50105672f5806750037b67e000826748037b67d800826740037b67d00082682801958703501258345a7bc880007bca787bc9707bc768956720039568401a50105a34f5956800038287387b67c8008287307b67c0008287287b67b8008287207b67b0008268280195870450125cee597bc8a0007bca98007bc990007bc78800956700039568601a50105eebf47c6700037b67a80082682801958705501260bd597bc8c0007bcab8007bc9b0007bc7a8009567e0029568801a501062baf48267f8027b67a0008267f0027b6798008267e8027b6790008267e0027b678800956c000182c728957906d8790782ca30c87a08d8a80ada770a82c720c87a0ad87a0782cb38c8b7077b67b8027b6ab0027b68a8029567c0029568a0027b69a002501064e8398267d8027b67688267d0027b67708267c8027b67788267c0027b6780009567800233084050106600f295680002828b9800828c9000828a880082878000d4ba09501268fe5c510806281525826800017b686002826808017b686802826810017b68700295686002826918017b6978027b6738017b6a30017b6b28017b6c200150106adff2956c000182c83882c72882c920d4790a140b00000000010000001407e0ffffff0000000050126c5f5c52070628ad24838720492658028268e800956c00027bc8408268f0007bc848956840028269f8007bc9507b6a18017b6b100150106e7ff2956a000182a83882a7109577c0d8780782a930949782a9189497520706285c24838740492638028268d000956a00027ba8208268d8007ba828956820028269e0007ba93050107036f2956b000182b838140a00000000010000001407a0ffffff00000000d8780782b930949782b91894975207062805248387608268b000956b00027bb88268b8007bb8088268c0007bb810956800028269c8007bb9187b6a1001501072d9f1956a000182a93882a710957780d8790782a830948782a818948752070628b6238267a8008e78839780004926f8014926f0017b68e0019568e0014926e80150107496f1956c000182ca1882c838140b0000000001000000140760ffffff000000005012761c5b520706286a238387a000826888007b68c001826890007b68c801826898007b68d0019568c0018269a0007b69d8017b6b10015010783cf1956b000182b93082b83882b710957740ffd87807949782ba1894a75207062818238387c0004926b8014926b0014926a001e0009568a0014926a80150107afcf0826738019577e0008268380150127ceb587b6948017b6740018267687b6778018267707b6770018267787b676801826780007b6760017b6a50019567800195686001956940017b6b580150107e583b826888018262980182638001826a900182673001d3780bd8780c647082673801d87304dab40c82672001c97a0bd87a0a82672801c97209c9a909d8cb0ac9a90982673801c9cb0bc90808c9480ac97308d4a909d4b80ad49a0ad4b90998aa20979920d4a9095109b730283e224929600249295802492950024929480295670020837720fb0a0b01956ad81895ab000282b75882b86082b95082ba48d49808d4a707d4870751070628302e82673801817756170307282a2e9567d81849278002492778024927700249276802956760079568401b50208000c7f0826778078268700782696807826a60077b67c0007b6738077b68b8007b6830077b69b0007b69280795674007956820077b6aa8007b6a2007502082006946826740077b673801826748077b673001826750077b672801826758077b672001956700073308405020840030ee956700078278187b6880008279107b698800827a087b6a9000827b7b6b9800956c000182c7207b67d80682c7287b67d00682c7307b67c80682c738956c00067bc7c0007bc8f8007bc9f0007bcae8009567e0069568c0067bcbe00050208600543482698000826b88008268900082679800d48909d4b708d49808988820d4b909979920d4980851080628da208268a800956a00067ba8a0008268b0007ba8a8008268b8007ba8b0009568a0068269c0007ba9b80050208800b0ee4926980649269006492688069568800649268006330750208a0094ee3302330c330033033a042000023a07280002956800017b87383a073000027b87303a073800027b87281407e0ffffff000000007b67a000826798007b8710826790007b8708826788007b8718826780007b8720018267a800d872078269b000d39c08d89c09da8709826bb800d8b007826ac000d3a308d8a30ada870ad3b007d48707da790a520a06282b1f7b60e8007b63f0007b6cf8007b62000182672801956800057b87c000826730017b87c800826738017b87d0009567e0059568c0057b64d8057b64e00050208c004f45826c200182691801d4c9078268a000826a1001d88a08826b080194b89478520806289f1f95a820d8a80264877b68c800c82b087b68d800d8b808da22088262f8058263f0058264e805826be005c898087b68d000d89808c88c0c7b6c20017b6ba0057b64a8057b63b0059568a0057b62b80550208e004fed82682801958707d88708826a3001c88a09d8a90ada880a82683801c88a0ad88a088264e000c8840482620001952201882801826cf800c88c0cd4c208888801826be800c8b808d8b80b8263f000c8b303826bc8007b6b1001826bd8007b6b0801826bd0007b6b1801956b00017bb7287bb9307bba3864802898fe4929e0014929d8014929d0014929c801956700208377a0fa0a0b01956ad81895ab000182b7d80082b8e00082b9d00082bac800d49808d4a707d4870751070628cd2a8267380181775617230728c72a956700208377c0fa3308040a019567d818827800027b682001957900018298f8007b6828018298f0007b6830018298e8007b68380149272002492718024927100249270802956780059568e01a5020900025ed8267980582608005826990058262880582682001d3780bd87807826a2801d89a0cdbb70c82683001d328076483d82804826838016482d80808db7408d39a07d4b707db7c0851080628302a9567600533084050209200a1ea95680005828b78828c70828a68828760d4ba0950229400a25551080628b81d492650054926480549264005140900000000a079c308956840057b6958057b6738017b6a30017b6b28017b6c20015020960088eb956c000182c83882c72882ca20d47a0a140b00000000010000001407fcffffff0000000050229800075552070628541d8387044926380549263005492620052095682005492628057b6a28017b6b200150209a0032eb956b000182ba2882b93082b83882b7209577dcd87807949794a7520706280e1d83872449261805492610054926000511956800054926080550209c00f4ea956a000182a9381407bcffffff00000000d8790782a830948782a828948752070628cc1c8397443a084000023a09480002956a00047ba8f8007ba9f000140800000000000000647ba8e8009568e0044926e00450209e009bea330864826738015020a00079ed83783307013309640a08014929600549295805492950054929480595670020837720fe3300a2000a0b3302a4002807535022a400045382b75882b86082b95082ba48d49808d4a707d4870751070628d5298267380181775617430728d029956780145020a600aa3e9568b8108287c8037b6718018287d0037b6710018087d8037b67080195670020837740fe3308240a019567d81895790005829880007b6820018298787b6828018298707b6830018297687b6738019567b8104927c00382680801957a00037ba8b800826810017ba8b00095686014826918017ba9a80033075020a800a8e93302aa009568b810014928a003492898034928880302648933072095684014492990035020ac007fe99517e08477e07b6700016471390874000256183f0b200374000240019517e08479e07b69180164913307800002837783993308407b67f0003300ae000a063302b0002811505022b0000e50956720145020b2001cea9560b8109509000382977082986882047803829a800082633001d3730bd8730782623801d88208dbb708826c2001d3ac07d8ac09826a2801d84a0bdb790bd34a09d49707db7b0852080628dd269517e08477e07b6700016471950b00037bbc7b0af8027b03f0027b02e8028267f8007bb720826708017bb718826710017bb7109567e0139568c0139569a013826a18017bba085020b400883d9567b810827760037b67f8009567b810827758037b6710019567b810827750037b6708019567b810827748037b6718019567b810827738039568b810828840039569b81082992803956ab81082aa3003826b00017bb7107bb8187bb97bba0864b8956780135020b60018e99567b8108277e002956800017b87389567b8108277d8027b87309567b8108277d0027b87209567b8108277c8027b8728956760133308405020b800afe6956ab81095ab000282b7c00082b8b80082b9b00082baa800d49707d48a09d47909989920d48707977720d4970751070628b2195022ba00b34d8e3288ac000185cc01db320c5022bc00f9505020be0097515022c00079505020c2008b515022c4008a505020c600a5515022c800bc4d5020ca0073515022cc00f14e959c00027bc8a0007bc798007bca9000956840137bcb880082670801330058012848e75147eee7ea710a2817258267380181775617430728dc26956720135020ce00ae3b9568b810958900028297787b67f0008297707b6788008297687b67800095670020837780fb3308240a01019569d8188293c002829ab802829bb002d43a0788b8019478520806289126829ca80282673801807795c823d8c809c89b027b6bf800d8b20bda990bc8ab0b7b6a0001d8ab097b630801c83909d4b909d8780794279497520706285b267b6c100183c804956700208377a0fb3300d0000a0101956cd81895c700028279e000827ad800827bd0008e978ea8db97087b6920017b6a1801d49a077b6b28018eb9db780951090628182682c7c8027b673001956700133308405020d20009e5956cb81082c360027b63980082c258027b62a00082c450027b64a80082c048027b6090008268300195871fd8870882692801c898088488018477e0957920d87907c8780ad88a0bda770b492c20027bc908027bc340027bc238027bc430027bc028027bca10029567e0129568c0127bcb18025020d400162b826998008268a80082679000d48909826ca0005022d600924f51080628a8179569b81082683001959a00017ba8e800826828017ba8f000826818017ba8f8009568a012826a20017b9a00025020d8007ae582642001826318018268100182603001c80807d88708826bf80082622801c82b09c88909d3b90ad8b90bdaa80b826a0001c83a08c88b0bd8a80ad88b08826c0801c84c0cc8ca0ac8a808957a24d87a07c8790cd89c09da7709826738018077c8b909d8b90bc8b808d8a7078ecadbca078e9a8e8bda8a0bd49808db8b07510706288425642c6408d43007d44209d49707987720d43909979920d49707826aa8008269a000826b980051070628c816d4b9071402e0ffffff0000000082699000d8290b94ab947b520b0628aa16826710018377247b6710018397207b6238015020da0081e7837781683001826910010a01826ba8008267900082623001c87202d8720882692801c8b909c88909d3b90ad8b90bdaa80b8267a00082681801c87808d8780a826c980082672001c87c0cc8ca0ac88b0bd88b08c8a808d4b808826a3801d8a20a949a948a520a062828168327209569b8104929e0014929d8014929d001956880124929c8015020dc000be49567d818492700034927f8024927f0024927e802956760129568c01b5020de00dbe43302e0009568b81001958900018297c0007b6710018297b8007b6718018297b0007b6720018297a8007b670801956740123308405020e20075e29567b810957c000182c8a0007b68300182c998007b69280182ca90007b6a380182cb88007b6b787bc880007bc9787bca706478956720127b8b68015020e400fd27826778956b000182b83082b938d4890982ba28d4a708d49808988820d4a909979920d49808510806283f159569b81082680801959b00017bb848826820017bb850826818017bb85895680012826a10017bba605020e60015e333078000037b677083777b67683300e8000a0301826b78956c000182c73082c928d47909140a00000000010000001407e0ffffff00000000d87b0782c8389487949752070628c914826c7082c70881c8107b69300182c96f777b6a28015022ea00244cd4790998882083b720956bb810492b400195bc00017bc8387bc9309568e0117bca287b6700015020ec0086e2826878956a000182a7289577c0d8780782a938949782a93094975207062862148267f000977720987920838a40956bb810492b20018267800095bc00017bc708826788007bc7109568c0117b69607bc9187b6a280164a75020ee0029e29567d81849272003492718034927100349270803956700208377e0fb0a0b01826b78140900000000010000001407a0ffffff00000000d87b0782683801948782683001948752070628da139567d818827c0803827810037b69f80082791803827a200383b760956bb8107bba00017bb9f8007bb8f0009568a0117bbce8007b67f0005020f000a1e18268788267f8009577805022f200294b520706288713838780009569b8104929e0004929d8004929d000956880114929c8007b67f8005020f40065e195670020837700fc0a070182693001826b78140a0000000001000000140760ffffff00000000d87b078268380194879497520706282a139567d8187b6ae800827c28038278300382793803827a400383b7a000956bb8107bbac0007bb9b8007bb8b000956860117bbca8007b67e0005020f600f0e08268788267e800957740ff5022f800774a52070628d5128389c00082679000956ab8107ba788008267a8007ba790008267a0007ba7980095684011826798007ba7a0007b69d80064975020fa00a1e0956b000182b9188e9782ba108ea8daa708d4a90782b9208e99db78095109062814218267080195770188780182692001c89808d48709889901826a1801c8a909d8a90a826b1001c8ba0a956bd818492b6003492b5803492b5003492b480395bc00037bc7687bc8707bc9787bca80009567201c9568401c5020fc008de19517e08477e07b67e8006471956ab810826710017ba740826718017ba738826720017ba730956700119568e010826908017ba9285020fe00d1219568b8100182827882836882848000828970828b58828c608287488288507b6b3801826ae8007bab10956b00017bbc307bac187bb7187ba7d44909d42307d497077bb8207ba80851070628a7201407ffffffff000000007b671001956780108268785020000148de956aff0795aab90095ab000782b7e00082b8d80082b9d00082bac800956bd81895bc00037bc7a0007bc898007bc990007bca88009568601c8267e80050200201a9e0956760108268000150200401f8dd9569ff079599b900959a000782a7a80082a8b00082a9b8008477ff7b6708018488ff7b68000182671001d297077b67e8009517e08472e064218267180195770188780182692001c8890cd4c709889901826a3801c8a909d8a90a826b3001c8ba0a6428642b7b6bd0007bba187bb9107bbc087bb79567401050200601a6df9568ff079588b90080879c079777208288a0078269e800d497079569d818826a0001959b00037bbab000826a08017bbaa8007bb8c0007bb7b8009568801c8267d00050200801d5df956720108268280150200a0124dd9569ff079599b900959a000782a76882a87082a9788477ff7b6728018488ff7b68080182671001d297077b6710019517e0847ce064c18268180195870250220c013e46c88b0b64c87b6c00017bcb187bca107bc9087bc79567001050200e01efde9568ff079588b90080875c079777208288600782691001d497079569d818826a0801959b00037bbad000826a28017bbac8007bb8e0007bb7d8009568a01c82670001502010011edf9567ff079577e1078268f0005020120169dc9567ff079577b900827228078273300782743807827a400782671801957b03d87b0c82682001c8c807d88708dacc0882693801c89808d8980c82693001c89c0c9569d8187b9c0004959c00037bc8f8007bc7f0007bcbe8007b9a20047b9418047b9310047b9208049567c01c9568e01c5020140196de9517e0847ce064c182681801958704502216013b45c8b8087b6c28017bc8187bca107bc9087bc79567ff079577c1078268f80050201801badb956aff0795aab90095ab000782b71882b82082b91082ba08d49808d4a707d487078e777b6710019567ff079577a1078268280150201a01addd956aff0795aab90095ab000682b7e80082b8f00082a9000782baf800847700ff826b1001d4b707956bd81895bc00047bc9407bca387bc8307bc7289568001d8267280150201c01dbdd9567ff07957781078268e00050201e0126db9567ff079577b9008272c8068273d0068274d806827ae00682671801957b05d87b0c82682001c8c807d88708dacc0882693801c89808d8980c82693001c89c0c9569d8187b9c6004959c00047bc8587bc7507bcb487bca80007b9478047b9370047b9268049567201d9568401d5020200156dd9517e08479e0649182671801957a06d87a0782682001c8780bd88b08da770882673801c87808d87807826c3001c8c7077b67e0007b97187b68387b98107b6be8007b9b087b69487b6af0007b9a9567ff07957761078268d8005020220154da9568ff079588b900958b000682b9c00082bab80082b7b00082b8a8007b67c8007b69c000d497077b68d000d4a808d478089888207b6ab800d4a707977720d4870751070628430d9567ff07957741078268d00050202401fbd99567ff079577b900957b000682baa00082b9980082b890008ea78e9bdba70b7b68508e877b69407b6a30d4a9097b67207b6b287b69d800db9b0751070628641c9567ff079577b900827788067b67589567ff079577210782684850202601c7db956bff0795bbb90095bc000682c96882c77082c87882ca80007bca407bc8387bc7309567ff07957701079568ff079588e1067bc92850202801701e9567ff079577b90095780006828a60828b58828c508289488ea78eb8dba7088ec77b6918018899208599017b6c2001dbc7097b6a28017b6b3001d4ab07db78098267588877207b67b00051094a0c9567ff079577b9008268f000957a00067ba8088268e8007ba8108268387ba8189568ff079588c1068269e0007ba920330750202a0115da390874000256181f0b200374000220019517e08479e07b69000164913307800002837783993308200a0682675895781fd87807826c50c87c09d8c90ada770a826b40c8ba0a7b6af80097aa3b989b05d4ab0b8267000182731897993b827a10988805d498076f346fa98268b00094c8826ad80094a8948b9487c87402d84207c8790cc8cb0b7b6b3801d39b0cd89b0adac70a7b6a188267180195701fd8700b826a2001c8ba07d8a70cdabb0c82633001c8c303973b3b987a05d4ba0a97773b980b05d4b707c847077b671001d847076424c8790bc8ab0bd39b0a7b6b0801d89b09daa709826bf800826740d87b07826a30c8a70798ba05977b3bd4ba0a826b000182b282bb08987705948a94876fb86f2bc8b707c88a0ad88a0cc8c707826018c8a000d8a00ac8a70282673001d87307826a2801c8a707983a05977c3bd4ca0a987705c8b707956c000182cb38c88a0ad88a08c88707c8a9097bc9d8a908c887077b67f8009517e08477e07bc73064710182671001d8740782690801d39b08d89b09da8709826c0001d8c007826af800d3a208d8a20ada870ad3c007d48707da790a7b642801826730017b747b6b38017b7b087b6018017b70107b6220017b7218510a4e0a9567d8184927a0044927980449279004492788049568601d8267300150202c0197d982642801954401884701826b3801c87b0bd4b40788770182681801c88707d8870882622001c8820264702860ff4929c0054929b8054929b0054929a80595670020837780fe33002e010a0b3302300128854050223001824082b7b80082b8c00082b9b00082baa800d49808d4a707d4870751070628fb178267380181775617430728f6179567401950203201242c9568d8188287687b6718018287707b6710018087787b670801956700208377a0fe3308240a019568d818958900058297e0007b6720018297d8007b6728018297d0007b6730018297c8007b673801491860826708017b8758826710017b8750648995682019826718017b97483307502034012cd79568d81849184049183849182801648933072095680019491930502036010cd79517e08477e07b6700016471390874000256183f0b200374000240019517e08479e07b69180164913307800002837783993308407b67f000330038010a0633023a01289e3d50223a019b3d9567e01850203c01a9d79569d818829710829808829318829a2082643001d3740bd8740782623801d88208dbb708826c2001d3ac07d8ac09826a2801d83a0bdb790bd33a09d49707db7b085208062870149517e08477e07b67000164719568b810958900077b9cc0007b9ab8007b84b0077b82a8078267f8007b97e000826708017b97d800826710017b97d000648b9567a0189568801895696018826a18017bbac80750203e010f2b956ad81882a77b67f80095ab00ff82b7f8007b67100182b7f0007b67080182b7e8007b67180182b7d80082b8e00082b9c80082bad000826b00017bb7107bb8187bb97bba0864b89567401850204001b9d69568b810958900078297a000956800017b8738829798007b8730829790007b8720829788007b8728956720183308405020420158d4956ab81095ab000782b7800082b87882b97082ba68d49707d48a09d47909989920d48707977720d497075207610750224401613b8e3288ac000185cc01db320c50224601a73e50204801453f50224a01273e50204c01393f50224e01383e50205001533f502252016a3b50205401213f502256019f3c959c00077bc8607bc7587bca50956800187bcb488267080150205801fed43308208267080150205a01dcd7837833092033070a08330880000228c2124929a00549299805492990054929880595670020837760fe33005c010a0b33025e0128643d50225e01613d82b7980082b8a00082b9900082ba8800d49808d4a707d4870751070628ea148267380181775617230728e5149567e017502060010329956ab81095ab000782b72882b83080a93807492a20077bb9187bb8109568c0177bb70833075020620154d4330264019568b81001492800074928f8064928e8060264893307209568a0174929f006502066012bd49517e08477e07b6738016471390874000256183f133308403d087400023302680128d63d50226801d33d33078000028377839933084033006a010a0633026c0128333b50226c01303b9567801750206e01cad4956bb81095bc000682c7e00082c8d80082c9d00082cac8007b67a0007bc7a0007b6898007bc898007b6990007bc9900095676017956840177b6a88007bca8800502070011b2f9568b810958900068297c0007b67d0008297b8007b67d8008297b0007b67e0008297a8007b67e8003302330c330433030182678800d8720782699000d39c08d89c09da8709826b9800d8b407826aa000d3a308d8a30ada870ad3b407d48707da790a510ab4039517e08477e07b67180164719568b8107b83a0057b849805958900057b9c90007b8288058267687b97c0008267707b97b8008267787b97b000648b956780169568601695694016826a80007bbaa8057b6238017b6c30017b6328017b64200150207201be27956ab81082a700067b67f80095ab000582b7f8007b67c80082b7f0007b67c00082b7e8007b67f00082b7d80082b8e00082b9c80082bad000826b18017bb7107bb8187bb97bba0864b8956720165020740166d39569b810959a000582a8687b68180182a7707b67100182a7787b67080182a8800050227601d83ad4a90298c93d826af80097aa03d4a9099744037b64f8008e3a884b000185bc01db3a0c8e9b8e2adb9b0ad49209db9a0c7b6cc800834980502078010f3c50227a01bf3b50207c01033c50227e013f3b502080011d3c50228201803850208401eb3b50228601ab399569b810959c00057bc8207bc7187bca109567e0159568c0157bcb0850208801ab13956bb81095bc000582c92882c73082c83882ca4095bc00047bcae0007bc8d8007bc7d0009567a015956880157bc9c80050208a0116299567b81082780005956900017b9818957a000482a8f8007b981082a8f0007b980882a8e8007b988298287ba880008298207ba8788298307ba8708298387ba8688268d0007ba8a0008268d8007ba898008268e0007ba89000647b956760159568401595692015826ae8007bba880450208c015f31956bb81095bc000482c8c00082c9b80082cab00082c7a800d4a808d4970ad48a0a98aa20d49808978820d4a8085208e6028268000195ba00047ba848826808017ba850826810017ba85895680015826918017ba96050208e01bfd0330290019568b8100182672801958900047b9782672001958a00037ba7f800826730017ba7f000826738017ba7e8008267d0007b97208267d8007b97188267e0007b9710648b9567e0149568c0149569a014826ae8007bba080450209201a43082632801826c300182623801952201882701c87c0cd4c20788770182682001c88707d88708c88303647428d4fc9567ff079577010233084050209401e7ce9568ff079588b900828a60017b6a3801828958017b693001828b50017b6b2801828c48017b6c20018267d0007b8700018267d8007b87f8008267e0007b87f0008267e8007b87e800958700017b7a207b79187b7b10648a9567ff079577e1019568ff079588c1019569ff079599a1017bac0801502096017f1c50229801c93652079b0164a29568ff079588b900958c000182c73082ca407b6a18018283280182ca382825019567201733084050209a0135ce956ab81082a980067b69380182a878067b68300182ab70067b6b280182ac68067b6c20018267d0007ba720068267d8007ba718068267e0007ba710068267e8007ba708067ba940067ba838067bab3006956700179568e0169569c0167bac280650209c01e01b50229e012a365207fc0064a29568b810958c000682c75082ca607b6a18018283480682ca58288a00956760063308405020a0019acd956c000682c9787b69380182c8707b68300182ca687b6a280182cb607b6b2001826780007bc718826788007bc710826790007bc708826798007bc77bc9387bc8307bca289567400695682006956900067bcb205020a201521b5022a4019c3552076e64a2956c000682c74882c8587b6818018263400682ca5001d3b704d8b70cd89300da400cc92a08c9c804d8c8087b681001d82a0a826c380182681801c9c80cc9ac0c82681001c98c0cc9b707c90707c99308d4c707d4480ad47a0ad4470798aa20977720d4a70751076c0e008267b000857701826850826920db89078268288269d800db9807510765028267588477e07b67b0009567ff079577b9008268f000957a00057ba8c8008268e8007ba8d0008268387ba8d8009568ff07958881068269e0007ba9e00033075020a601a3cd9517e08477e07b671001647133082033075020a80177d09518e08488e07b6808016481837783893308200a064926380120330c49263001492628014926180149262001826a080182a71882a81082a90882aa6f736f846f903309826b18016fa7330a6472826810017b871864077b67f0007b87107b84087b83017b6208018267b0007b6b1801d87b07857b017b6af80094ab017b69000182672001d49707947b018268d00082673801c87808826ac800c8ca0a8269b80082673001c879098267c00064c0826c2801c8c707520b7d01826b3801d8b80bc8ba0ad30a027b60d800d80a0cda2b0cc89c0cd89c02826b3001d8b909c89707c82707d4c809d4a707d47909989920d4c707977720d497077b63e8007b64e000520786fe9567ff079577a1035020aa0141cb956aff0795aab90082a7000395ab000282b8f80082b9f00082bae800956bd81895bc00047bc7c0007bc8b8007bc9b0007bcaa8009568801d826710015020ac01a2cd8263e8009533018837018264e000c87404d443078877018268f000c87800d8800882670801c88707826838019589207b690801d8890a8268d800c8a8097b69e800d8890bdaaa0b82683001c8b80ad88a0b82682801c8b8087b68280182681801958b20d88b0c8269f800c8c908d89809dacc09826c0001c8c909d8c90c82622001c8c2027b622001826c10017bc4087bc37bc01064727bc7187b60f000826708017b673801826ce8007b6a3001648a2861fe826758826840d48707826850826930d49808d487075207c4014926e0004926d8004926e8004926f000281a028264300182633801826b58826cb000d3cb0b826c40d4cb02826c50826b30d4bc0cd4c20b510b3d01d8380bc8ba0ad30a02d80a0cda2b0cc89c0cd89c0bd84909c89707c8b707d4c809d4a707d47909989920d4c707977720d497075207f9fc9567ff07957761065020ae01b4c99567ff079577b900957900058298c0007b6830018298b8007b6828018298b0007b6820018297a8007b67180182675897773b9878387b6838019a8980003307ff3308ff5020b001ca347b6708017b68f0003307ff3308ff826938015020b2018c347b67f8007b6800018267f000d487077b67f000826738019579803307ff3308ff5020b4016634826b380188b98000826af000db9a08826cf800826a0801d4ca0ada970a93b8ff93baff826b0001939b939c82671801e0a70782692001e0890882692801e0c909826a3001e0ba0a956bd81895bc00047bcae0007bc9d8007bc8d0007bc7c8009568a01d826710015020b60163cb82694098973f826830978801d48707826a5098a83f979901d49808826b5898b93f97aa01d4a90997ba0195aa01956bd81895bc00047bcae8007bc9f0007bc8f8007bb700053307c01d287a018267c0008268b800d487071408e0ffffff000000008269d000d889088269c80094989478510883fb8267d0008378209567ff079577a1065020b80137c89567ff079577b900827800067b68f000957900058298f8007b68e8008298f0007b68d8008297e8007b67e0000182695098973f826a4097a801d487077b67300198a73f826830978801d487077b672801826a5898a73f979801d487077b67200197a7017b67180197a8037b6838018d8980003307ff3308ff5020ba0118337b67f8007b6810018267588a79033307ff3308ff5020bc01d8327b6708017b6800018268f800d487077b67f800826738018379803307ff3308ff5020be01b232826b380188b98000826af800db9a07826c0001826a1001d4ca0ada980a93b7ff93baff939c826b0801939b8268d800e0a8088269e000e079078269e800e0b909826af000e0ca0a956c000182cb18d4b70782cb20d4b80882cb28d4ba0a82cb30d4b909956bd81895bc00057bc9187bca207bc8107bc7083307e01d01c876088267485020c00194c99569ff079599b9004929a005826760959a00057ba79800826788007ba790009568ff0795884106826780007ba7880033075020c201f4c79568ff079588b9004928800549287805492868050164893307209568ff0795882106492970055020c401c8c733077400027b673801390774000233083fac7811826838014808403302c6012875315022c60172313307800002837783993308407b6718010a06826a300182a71882a81082a90882aa6f777b6730016f877b6728016f977b6720016fa77b6710019567ff07957701068268785020c8011cc6956bff0795bbb90095bc000582c74882c85082c95882ca607bca207bc9187bc8107bc708826710017bc740826720017bc738826728017bc7309567ff079577e1059568ff079588c105826930017bc9285020ca01d8288267683300cc010a030182697082970881981082996f775022ce015530d497079888209569ff079599b90049290005959b00047bb8f8007bb7f0009568ff079588a1057bbae80033075020d001b1c69568ff079588b9004928e0044928d8044928c8040264893307209568ff07958881054929d0045020d20185c682673801817756173f0c82673801480740019517e08477e07b67380164718379330840826718010a06826a380182a71882a81082a90882aa6f777b6738016f877b6730016f977b6728016fa77b6720019567ff07957761058268785020d401eac4956bff0795bbb90095bc000482c7a80082c8b00082c9b80082cac0007bca80007bc9787bc8707bc768826720017bc7a000826728017bc79800826730017bc790009567ff07957741059568ff0795882105826938017bc988005020d6019d279567ff07957701058268785020d8017ac49568ff079588b900958900048297607b6710018297587b6708018297507b6700018297487b67f8009567ff079577e1043308405020da0141c49568ff079588b900958900048297407b6728018297387b6720018297307b6730018297287b6738019567d8184927400549273805492730054927280595670020837700fe3300dc010a0b01956a000182a72882a830d4870782a92082a838d49808d47808988820d49707977720d48707520704f75022de01ad2d82b72882b83082b93882ba40956bff0795bbb90095bc00047bca207bc9187bc8109568ff079588c1047bc708826738015020e001cbc4956a000182a72882a820d487071408e0ffffff0000000082a938d8890882a930949894785108a0f6826738018377209569ff079599b900492900044929f8034929e803409568ff079588a1044929f0035020e20175c48267683300e4010a03018267708078107b68e8008278087b68e00082777b67f000826838019587405022e601472c9568ff079588b900958c00037bca98007bc990007bc78800826798007bc7c0008267a0007bc7b8008267a8007bc7b000826790007bc7a800648a9567ff07957781049568ff07958861049569ff07959941047baba0035020e801960e9568ff079588b9008287d0038282e0038283c803828ad80382683001d3870bd8870c648082643801d84308dab80c82692001c99a0bd89a0a82692801c99209c9a909d8cb0ac9a909c9cb0bc90707c98707c94308d49707d4b809d47909d4b707989920977720d4970752077bf58267e0006f79979720826ae8006faa98aa20d47a028267f0006f7a97ab20989920d49b0398aa209564ff079544b900826780007b4708038267f8007b474803826788007b471003826700017b4750033a0b0000023a0c0800023a071000023a091800027b4b8003954b00037bbc787bb7707bb9688267607bb7187bba3849242003826708017bb758826710017bb7607b4330037b4228039569ff0795992104956aff0795aa0104956bff0795bbe103956cff0795ccc10349244003826738013300ea019511e0fe7b1018017b1510017b160801951520018411e082c67b166082c6087b166882c6107b167082cc187b1c7882bc7b1c3882bc087b1c4082bc107b1c4882bb187b1b5033020a82ab7b1b1882ab087b1b2082ab107b1b2882aa187b1a308296829a087b1a829a107b1a088299187b19107b185833000c2828c533078268180133090a083307018268f000281f330880000283883307012813838833070133090a083307018268f0000133090a083307018268f00028f53307018268f00028ec330880000228d4330880000228cd330880000228c6330880000228bf330880000228b8330880000228b1330880000228aa330880000228a33308800002289c64a07b6280047b6388047b6090049567a00495688004826920017b6998045020ec017e038262b8048268b0048269a804826aa004951be084b7e0647195ab04d8ab0ac8a90cd89c09daaa09c88909d88908c8820264787b6718017b79107b7c087b7b7b7218956760045020ee013ec2826760048268680482697804826a7004847700ff867701956bd81895bc00027bc9407bca387bc8307bc7289568001b826718015020f0017cc295690001829720956b00047bb7388297287bb7308297307bb7283a075000028298387bb8203a085800027bb7583a076000027bb8503a086800027bb74895694004956a20047bb840330733083300f201951160ff7b1098007b1590007b1688009515a0008411e082ab7b1b3882ab087b1b3082ab107b1b2882aa187b1a20829a7b1a18829a087b1a10829a107b1a088299187b196486330008285fc3330880000283883307285efe33088000022845fe3308800002283dfe33088000022835fe3308800002282dfe33088000022825fe9567ff079577b9004927580249275002492748025022f4015829958801037b97600233075020f60119c09568ff079588b9004928400249283802492828024164893307049568ff079588e102492930025020f801edbf390874000256183f112003740002403308800002280833088000020183883307013309240a08330880000228a1fd33088000022899fd33088000022891fd33088000022889fd33088000022881fd64977b6838013300fa01287ac27b6838015020fa0173c283788169380133070a0833088000022858fd33088000022850fd9567ff079577b9004927980249279002492788025022fc018328958841037b97a00233075020fe0144bf9568ff079588b9004928800249287802492868024164893307049568ff0795882103492970025020000218bf390874000256183f1220037400024033088000022833ff3308800002282bff9567b8104917184917104917086479140700000000717b484e9568c0107b9720330750200202d1be9567b81049074917f84917f064793307049568a0104919e850200402b3be390874000256183f12200374000240330880000228cefe330880000228c6fe9567ff079577b9004927d8024927d0024927c80250220602a927958881037b97e0023307502008026abe9568ff079588b9004928c0024928b8024928a8024164893307049568ff07958861034929b00250200a023ebe390874000256183f1220037400024033088000022859fe33088000022851fe951100ff7b10f8007b15f0007b16e800951500018411e064167b671882877b67208287087b67288287107b67308287187b67384926d8004926d0004926c8004926c0009567a0009568c00050200c02c0be8267b8008262a0008269b000826aa800826838d3870bd87808826730d8970cdbb80c826828d38a03d8a80a826820d82808db3a08d39707d4b707db7c085108fe00491658491650491648956840491640330750200e0276bd390874000256181f0b200374000220019517e08479e07b691064913307800002837783993308200a068262108227188228106f7a6f88330b07826720977903c97903d6b70b826928979c03c99c0cc8cb0bc8a303d8a30ac8b807c8a700d38007d88008da7a08d8cb07330b07d6b90ac8a707826930979a03c99a04d6b90b822c826938979a03c99a0ac8ba0a6fcbc8ba0a822b08c87404d87407c8a7076fbac8a404d8a40ac8a707c84808d8480ac8a707826a187ba37ba0087ba8107ba7183307491a38491a30491a28491a20955100ff8210f8008215f0008216e800951100013200492690004926880049268000140700000000717b484e956880007b6798003307502010026dbc491678491670491660323307049568604916685020120254bc390874000256183f0b2003740002400133088000028388330701330924330014020a08019511a07b10587b15507b16489515608411f0828910828c08828b82881897923f98ca01d42a02978a3f989901d49a0a97cc3f98b901d49c0c98830184bb019ab888b60184c97fd2a804d2280adbbc09d2380b88982094a8d4b40c94c8ab86167b797b7a087b74107b7b185022160247253200502218029b2350201a02b2bb491118491110490122330704641849110850201c029bbb390874000256183f0b200374000240013308800002838833070133092433001e020a08019511907b10687b15609515708411f0827a1882791082738277088eab8e9cdbab0c8e72883b20ff85bb01db720bd4a908db8c0b520b429538e000d8380bc8b70cd87c07dabb07c89707d89709c8a9097b18407b1c487b1750330740c871087b19585020200210bb955190821068821560951170320050222202df2250202402f6ba491118491110490141330704641849110850202602dfba390874000256183f0b2003740002400133088000028388330701330924330028020a0801951170ff7b1088007b1580007b1678951590008411f064728289827408828c088273959a1fd89a00c80c0984aae07b1308c8a303d8a30bc8490ac8ba0ad39a06d89a07da6b07822b18d8c90c828610822210828818da000cc86c0cd86c06c82c09c89707d8c90cd89709c8b808c86808c8c808c8980c8ec88e79dbc809d4c7088ea6db8906520657821808d88308d34a09d84a06da9806d82708d3bc09d8bc0bda980bd32708d49808da860b520b307b13507b1a587b17603307409518507b1c6850202a02f4b9955170ff8210880082158000821678951190003200491140491138491130140700000000717b484e9518307b1748330750202c02beb94911284911204911104133070495181049111850202e02a5b9390874000256183f0b2003740002400133088000028388330701330924330030020a08019511a0fd951900027b90587b95507b9648951560028411e064167b6710828718828910828a0882887b67b0007b6738027b69a8007b6930027b6aa0007b6a28027b6898007b6820029567000233084050203202f2b7956800028287187b67188287107b67208287087b672882877b67309567e0019568200250203402f5b9956b000182b7f80082b8f00082b9e80082bae0007b6790007bb7b8007b6888007bb8b0007b6980007bb9a8009567c0019568a0017b6ab8007bbaa0005020360297fc826730826818826928d48909826a20d4a708d49808988820d4a909979920d4980852084403956c000182c9d80082cad00082c8c80082cbc0007b6b607bcb80007b68707bc888007b6a687bca9000956880017b69787bc998005020380262b8826ab80084a70152070001826720826818d487071408e0ffffff00000000826b30d88b08826928949894785108db0284a800ff83b720826a8000956900017b9a087b98826888007b981095680001826a90007b9a1850203a0207b8330433033302826768826860d48707826878826970d49808d487078e779777057b67b800018268b800958720d88708c88409d8490ada880ac83a0ad83a08c8820b8268307b68e0007b67c0008267287b67e8008267207b67f0007b69c8008267187b67f8007b6ad0009567e0009568c0007b6bd80050203c02d7fc8267108268187b78188268207b78108268287b78088268307b789551a0fd9517000282705882755082764895116002320082679800956900017b97608267a0007b97688267a8007b9770956860018267b0007b9778330750203e022fb79517e08477e07b67586471390874000256181f0b200374000220019517e08479e07b69b00064913307800002837783993308200a064926b800330433033302826cb00082c7188268309589207b6950d88908826928c8890a7b6a48d89a0bda880b82c81082c90882ca6f776f886f906fa9826c58649a7bc91864097b6980007bc9107b6890007bc80864797bc7826720c87b0b7b6b40d87b07826818c887077b6738017b6a88007b6998008267608268b800d87807826970d39408d89409da8709826b68d8b307826a78d3a208d8a20ada870ad3b307d48707da790a510a71fe9567400164c87b62b0007b63a8007b64a0005020400229b78268508267b800c88707d88708826b488269a000502242023b1f826a408268a800c8a808d8a802826c38826ab000c8ac0cc82c0a50224402c41e5208a100956c000182c95882c85082ca4882cb407bcb207bca287bc830956820017bc93850204602d3b5826a980095aa0188a70182649000c87404d44a0788770182688000c87803d8830882678800c887078268b800958020d88009826ba000c89b08d8b80bda990b8269a800c89b0bd89b098262b000c8920264497b699000826c587bc90864a97bca7bc310647a7bc7187b6380007b60b800648464b328d3fe00951110ff7b10e8007b15e0007b16d8009515f0008411f0828c10828b18828a0882887b1a287b1b18d4ab0bd4c80ad4ba0a98aa207b1c20d4cb0b97bb20d4ba0a520aeb017b17088297187b17688296108297087b176082977b17589517b0007b181050204802b9b3821758d46709821868821a60d4a808d489099899207b1650d46808978820d498085208a2018219c800821ac000821bb8008218b0007b18307b1890007b1b387b1b98007b1a407b1aa000951890007b19487b19a800647650204a0296b4821768821850d478081407e0ffffff00000000d87609821a6094a9948951094901821820821918d49808821910d87907821a2894a7948751072f01646c821630821a40d4a607821848821b38d4b808d48707987720d4a808978820d487075207080183c7208398207b1828646850204c020eb77b1720821728646850204e0200b7647882172064695020500249b2821758c86707d86708821960821b3850225202111d821850821a40c8a808d8a80a821c68821648c86c0cc8ca0ac88b0bd88b08c8a808d4b808140ae0ffffff00000000d8a70a949a948a510a8e00837720492188004921800049117895187049117050205402a0b382163095661f1407e0ffffff01000000d26707821858c88707d88708821a60502256026f1d821850c88a0ad88a08821b68c8b808957b20d87b07c8790cd89c09da7709c8a909d8a907c887078218087b8b7b8c087b89107b8718955110ff8210e8008215e0008216d8009511f000320000951110fc951a00037ba0e8007ba5e0007ba6d8009515f0038411f0828a18828b10828608828c7b1a407b1648d4a608d4bc0ad48a0a98aa207b1b38d4b808978820d4a8087b1708520865078297187b17c0008296108297087b17b80082977b17b000951900034929c8004929c0004929b8009518b0034929b0002064c77b1c3050205802a9b28218b000d468078219c000821ab800d4a909d497079877207b169000d46909979920d49707520701078217309579207b190001d87907821948c8790a7b1a0801d89a06da7706821738c87606d87607821940c897077b17f8009517900350205a020cb1821b0001d46b07821808018219f800d49808d48707987720d46808978820d487075207a206951c000382c9a8007b192882caa0007b1a2082c898007b181882c690001407ffffffff000000007b17707bc6707bc8787bca8000951870037bc9880064b750205c02ddb13300330c492180003302821730957a40d87a03821848c83807648b98683b821418974905d498087b1610976905c87808c8a9097b1aa8007b190801d8a909c8980ad37a087b1a0001d87a0ada890ad8b708da3308821b2098b33b821928979905d4390398493b97bb05d49b06647b821738c88709d87908821740c88707c896067b17a000c837077b199800d89608c88707c8a608821a80007b18d000d86808c887077b17d800140700000000010000007b17c8001407e0ffffff000000007b177801821448821710d87007821918d39c08d89c09da8709821620d86a0364a7821a28d3a2087b1268d8a20ada830a7b178000d36707d48707da790a510a27057b1c587b10608217a800821a9800d4a7097b1b508218a000d4b808d48909989920d4a808978820d49808821a000152082d05821c0801821630d86c09d34a08d84a0bda890b8210d000821838c98003c94a0ac99a0ac96c099592c0d89209c89a0c95ccffd3ac06d8ac0ada690ad880098216d800821840c98606c99606d8b309c99606c9b308888901c996069588ffc88a0ad88a08c88606951900037b92507b9c587b9a60951850037b966850205e022cb08217c00082189000d48707821ab000821878d88a088219b8009498947851088c0495a820951730037b18880050206002c0ae951a000382a94882a64082a73882a8307b17f8007b19e800d49707d46809d47909989920d46707977720d4970752074a04951710037b18f0005020620281ae821ad00082170801d4a70b821800018219d800d49808d48b0b98bb20d4a808978820d4b80852081304951c000382cb2882c82082c91882ca107b1af0027b19f8027bc89518f0027bcb087b1708015020640267af821ae800d46a0a8216788218f000d868078219f80094977b1ae80094a75107c7038388209517d00250206602ffad8217d8008218d000d47809821b0801d86b078218000194877b19e000949751079803951c000282c7e00082c8d80082c9d000821a70d27a0a8488ff8499ff83b720492cc8007bc9b0007bc8b8009518b0027bcac00050206802deae8217c8009576c050226a02e31551074e038388409517900250206c0286ad821b0801d86b0750226e026c1751073003951c000282c7a00082c8980082c99000821a70d27a0a8488ff8499ff83b740492c88007bc9707bc878951870027bca80005020700278ae8217c8009576a0502272027d155107e802838860951750025020740220ad821c0801d86c075022760206175107ca0295160002826968826860826a58826b5083c7607b6b307b6a387b6840951830027b69485020780220ae8217c80095768050227a02251551079002838880009517100250207c02c7ac821b0801d86b0750227e02ad1651077102951c000282c72882c82082c91082ca18d49808d4a707d487078e7883b78000491c08490c7b18f0019518f0014921f80150208002baad8217c800957660ff50228202be14510729028388a0009517d0015020840260ac821c0801d86c0750228602461651070a028219e8018218e001821ad801821bd00183c7a0007b1bb0017b1ab8017b18c0019518b0017b19c801502088025bad8217c800957640ff50228a025f145107ca018388c0009517900150208c0201ac821a0801d86a0750228e02e7155107ab018217b00082188800d878078218b800c878097b19f800d88908da770882179000c878087b18f0008219a8017b19b0008219a0017b19b800821998017b19e000821990017b19e800d878078218c000c878087b18c00083a7c0004921880149218001492178019518700149217001e00064a650209002b3ac9567e000d86708821a00015022920296168218d000c88a0ad88a08821bd800c88b0b7b1918017b1710018217b0007b1748018217b8007b1740018217e0007b1738018217e8007b1730017b1a20019517500195183001951910017b1b280150209402faf6821768017b17d800821760017b17d0008218a800958720d88708821a50502296022016821858017b18000182189800c88a0ad88a08821ba000c88b0b7b1ba000821060950001880801821c58c88c0cd4c008888801821b50017b1b0801821b8000c8b808d8b80b821268c8b2027b17a800649b7b1a9800821788007b17b0008217f8007b17b8008217f0007b179000648a28a3fa821708821808017b78821800017b78088218d0007b78108218d8007b7818955110fc951700038270e8008275e0008276d8009511f0033200009511c07b10387b15307b16289515408411e0647683173308040a010182171082181814090000000001000000d37909d48909987a2088aa01948a939a510a248219821a087b697b6a087b67107b68189551c08210388215308216289511403200330880000283883307013309330098020a08019511e0fe7b1018017b1510017b160801951520018411e064167b673882977b67488297087b67408297107b67508297187b6758828718828910828a0882887b67307b67f8007b69287b69f0007b6a207b6ae8007b68187b68e0009567c0009568e00050209a0299ab8267d8008262c0008269d000826ac800826858d3870bd87808826750d8970cdbb80c826840d38a03d8a80a826848d82808db3a08d39707d4b707db7c085108ce008267187b67608267207b67688267287b67709568608267307b6778330750209c0243aa390874000256181f0b200374000220019517e08479e07b693064913307800002837783993308200a06826a3082a782a80882a91882aa106f726f886f996faa826b40c8ab0b826348c89303d89309c89b0bd3ab07d8ab0ada790a826750c88707c87a0ad87a09826c58c8c202d88707c82707c8970782683833094918384918304918284918207b837b8b087b8a107b87189551e0fe8210180182151001821608019511200132004926b0004926a8004926a000140700000000717b484e9568a0007b67b800330750209e0276a94926980049269000492680003233070495688000492688005020a00258a9390874000256183f0b20037400024001330880000283883307013309243300a2020a0801828b18828a108283088eb28eacdbb20cd4ba028e39db2c09520948828898a93b97bb05d49b02983b3b97aa05d4ba0a988b3b973305d4b30b978805958c20d88c08c88b09d8b90bda880bc8ab0bd8ab08c828087b7c7b79087b7b107b781832009511b07b10487b15409515508411f05022a402a2105020a602b9a849111849111049014133070464184911085020a802a2a8390874000256183f0b20037400024001330880000283883307013309243300aa020a08019511a0fc951900037b90587b95507b9648951560038411e07b1708828718828910828a0882887b1748951b00027bb798007b19407bb990007b1a387bba88007b18307bb88000951760023308405020ac02f1a6951a000282a7787b172082a67082a9687b195882a8607b18507ba7587ba6507ba948951740027ba8405020ae028bec95172002951880025020b002e0a8821720821858d48707821850d46808d478089888207b1618d46707977720d4870752074f03951b000282b73882b83082b92882ba207bba7bb9087bb810951800027bb71882165064675020b2029fa7821730957701887801821938c89808d48709889901821a40c8a909d8a90a821b48c8ba0a951b00027bb8a8007bb7a0007bb9b0007bbab8009517e0019518a0025020b4024ba8821720821918d47909140700000000010000007b17101407e0ffffff00000000d8760782185894877b192894975107ae028217f0018218e8018219e001977720987a208216508367204921d8017b19c0017b18c8019518c0017b1ad0015020b602f6a68218309587025022b8022d0f7bbad0007bb9c8007bb7c0007bb8d8009517a0019518c0025020ba02bea78217109577c05022bc02650e510742028218b0018219a801821aa001140bffffffff00000000d28b0b8499ff84aaff821650836740492198017b1a80017b198801951880017b1b90015020be027da68218309587035022c002b40e7bb9e8007bb7e0007bbaf0007bb8f800951760019518e0025020c20245a7140700000000010000007b17101407a0ffffff000000005022c402db0d5107b8018219780182187001821a6801821b60018216508367607b1b40017b1a48017b185001951840017b1958015020c60202a68218309587045022c8025d0e7bb9087bb77bba107bb81895172001951800035020ca02cfa68217109577805022cc02760d51075301821720018477ff008e788216508367800049211801492110017b18000195180001492108015020ce02a2a58218309587055022d002fd0d7bb9287bb7207bba307bb8389517e000951820035020d2026ea6140700000000010000007b1710140760ffffff000000005022d402040d5107e1008219f8008218f000821ae800821be0008216508367a0007b1bc0007b1ac8007b18d0009518c0007b19d8005020d6022aa5821830958706d88708821a38c88a09d8a90ada880a821840c88a0ad88a08821b48c88b0b7b1a90007b1988007b1780009517a000951880007b1b98005020d8026deb821710957740ff5022da02800c51075d8219b8008218b000821aa800821ba0008216508367c0007b1b607b1a687b18709518607b19785020dc02aca48217088218207b78188218187b78108218587b78087b769551a0fc95170003827058827550827648951160033200009511e0fc951900037b90187b95107b9608951520038411f08289828a08828b108288187b177b188000951c00027bc8d8007b1ba8007bcbd0007b1ab0007bcac8009517e0029518c0027b19b8007bc9c0005020de02f8fa951800028287e0007b17a0008287e8007b1798008287f0007b1790008287f8007b1788009517a0023308405020e002bba2951b000282b7b80082b6b00082b8a8007b186882b9a0007b1908821a88007bba78647a7b1710821790007bb770821798007bb7688217a0007bb7607bba98007bb690007bb8880095178002951860027bb980005020e202e7e8821708821910821868d48909d46708d498089888207b1660d46909979920d498085208b9038218b800951900027b98408218b0007b98488218a8007b985095184002821680007b96585020e4024da3951a00027ba6188217a8007ba7108217b0007ba70895172002951800028219b8007ba95020e602f6f933033304330c330695180002828720828238828928828a30957be07b1b58d87b07c8790b95bbffd39b087b1b50d89b09da870995a7ffc879097b1948d8790788a901c99208c887077b17408218089587207b1730d88707821068c870087b1828d80808da7708821260c828087b1820d82807821810c887077b1718140700000000010000007b17a0001407e0ffffff000000007b173801821758d87307821950d39408d89409da8709821748d87c0b821a40d3a608d8a60ada8b0ad3c707d48707da790a510a74027b1480007b1388007b1c90007b16789517e0013308405020e80206a18217f8017b1798008216f0018219e8017b19b0008218e0017b18b8007b17d8017b16d0017b19c8019517c0017b18c0015020ea0299e6821798008218b000d487078218b800d46808d47808988820d46707977720d48707520727024921b8014921b0014921a8019518a0014921a0018217b8005020ec02c7a17b167082199800d469098217388218b800d878078218b00094877b19a80094975107e5018216b80083672049219801492190014921880195188001492180015020ee0282a18217a0009577c05022f00229095107b3018216b80083674049217801492170014921680195186001492160015020f20250a18217a0009577a05022f402f708510781018216b80083676049215801492150014921480195184001492140015020f6021ea18217a0009577805022f802c50851074f018216b8008367800049213801492130014921280195182001492120015020fa02eba08217a000957760ff5022fc02910851071b018216b8008367a00049211801492110014921080195180001492100015020fe02b7a08217a000957740ff502200035d085107e7008217b8008377c0004921f8004921f0004921e8009518e0004921e000605020020382a082183082178800c88707d88708821b2882198000502204038609821a2082189000c8a808d8a80a821678821c18c86c0cc8ca0a502206031009520887008218b8007b18c0008218b0007b18c8008218707b18d0009518c000821998007b19d800502008031ca082188800958720d88708821a800050220a03fc0982189000c88a0ad88a08c886066473649464ac8212608210682862fd82178218087b787b70087b72108218107b78189551e0fc9517000382701882751082760895112003320000951140ff7b10b8007b15b0007b16a8009515c0008411f0828b10828a18828c0882887b1a287b1c20d4ac0cd4b80ad4ca0a98aa207b1b30d4cb0b97bb20d4ba0a7b1738520af1008297187b17108296108297087b170882977b17951780007b181850200c03209e821210821c088213821788008218980082198000821a9000d3c70bd87c07d89309dbb709d8a607d3280bd88208dab708d36a0ad4ba0adaa9085108950098673b972805d4780298c83b976605d4680898393b97ca05d4a909973a05821718c87a0ad87a0b821c20c8c909c8b909d3c907d8c906da7b06821c30c8c808c88606d8860bd8c808821c28c82c07c88707c8b70795a820d8a80ac8a90bd89b09daaa09c86909d8690ac8a707821a387ba87bab087ba9107ba718955140ff8210b8008215b0008216a8009511c000320000491170491168491160140700000000717b484e9518607b1778330750200e036b9e4911584911504911403233070495184049114850201003529e390874000256183f0b2003740002400133088000028388330701330924330012030a08019511e0fd951900027b90187b95107b9608951520028411e064168289187b6980008289107b6988008289087b69980082887b689000827a1882791082780882777b6a587b6ab8017b69607b69b0017b68687b68a8017b67787b67a001956780019568a00150201403b69e95670001827c9800827b9000827a88008ec78eb8dbc708d4cb078ea9db78095209fa02826780017b6750957701887801c8a808d48709889901c8b9097b6a48d8b90ac8ca0a7b67c0017b68c8017b69d0017b6ad8019567a0019568c0017b6b407b6c3850201603c49e9517e08477e07b677064718267387b6718018267407b6710018267487b6708018267507b6700018267587b6738018267607b6730018267687b672801956740019568200195690001826a787b6a200150201803fdf1826778017b6778826770017b6760826768017b6758826760017b676882675001826b580182694001826a48018268707b87107b8b187b897b8a089567e00050201a03b49d8267f0007b67508267f8007b67488267e0007b67408267e8007b6738826c6898c73d826958979803d4870798983d826a6097a903d4980898a93d826a7897aa03d4a90997cc037b6c788e7a88cb000185bb01db7a0b8e978e8adb970ad49808db8a0b7b6b6083c9807b6930826790008268980050201c036e067b67187b68208267688a79037b6968826788008268800050201e0351067b67587b68108268788d8980007b69288267900082689800502020030d06826958d47909826778887b80007b6b58826a18daba09826a8800da7a097b698800826910d49808826920dab90882698000da79087b688000826790008268980082696850202203ea05648982685893879389826a608268800094a87b6880008268880094a87b68880094a97b69980094a77b6790003307ff3308ff8269285020240389057b67187b68283307ff3308ff826968502026039a057b67687b6820826818d487077b67183307ff3308ff826930502028037c05826a58826918dba907826b20826928d4b909daa8098268789387ff9389ff826c6893ac93ab8598ff8577ff85b9ff85caff826b6094b7ff94b8ff94baff94b9ff826b38d2b909826b40d2ba0a826b48d2b808826b50d2b707826b8800d4b707826b8000d4b808826b9000d4ba0a826b9800d4b909956b00017bb9e8007bbae0007bb8f8007bb7f0009568e00182677050202a032b9c9551e0fd951700028270188275108276089511200232004926d0004926c8004926c000140700000000717b484e9568c0007b67d800330750202c03859a4926b8004926b0004926a000413307049568a0004926a80050202e03679a390874000256183f0b20037400024001330880000283883307013309240a08330733003003285c9d330750203003579d330701502032034e9dd88708826a3001c88a09d8a90ada880a82682001c88a0ad88a08826b3801c8b808956bd81895bc000132028267180198793d826c080197c803d49803826b100198b83d8269f800979903d4980898c93d7b6a080197ba03d4a909977a037b6a10018e9c8e8bda8c0b32028269e000d4890982681001888b80007b6be000826af000daba09826a2001da8a097b6920018269e800d497078269f800dab90782692801da89077b6728018267300182683801826918013202826aa800d48a0a8269f800889b80007b6ba8008268b800dab80a82681001da980a7b6a10018268b000d478088267c000dab70882671801da97087b68180182670801826800018269f0003202826a180182a71882a81082a90882aa6f776f8b6f996faa826800017b6af8007b8a187b6908017b89107b6b10017b8b087b6718017b8732028218f000d868078219f80094978219e8009497320295680001828b28828920828738d4b707828a30d4a908d47808988820d4a707977720d487073202826a300182a71882a81082a90882aa6f776f8b6f996faa7b6a68826838017b8a187b69707b89107b6b787b8b087b6780007b8732028269e00093989397956c000182c982cb28949b82ca20949a949794989569b8103202d87607821858948782182894873202d876078218b00094878218a800948732028269a800939893978269c800826b1801949b826a1001949a949794983202491130491128491120140700000000717b484e9518207b173833073202d88708826a3001c88a09d8a90ada880a82682001c88a0ad88a08826b2801c88b0b3202d88708826a2001c88a09d8a90ada880a82683801c88a0ad88a08826b30013202d88708821a38c88a09d8a90ada880a821840c88a0ad88a08821b48c8b808951b00023202d88708821a38c88a09d8a90ada880a821840c88a0ad88a08821b48c8b808951b000332027b6800018264f00098493d826ac00097ac03d49c0398aa3d826cc80097c90332023307d818c8760a95ab000532028218000194878218e00094873202c88b0bd88b08c8a808d49808d4b709d48909d4b808989920978820d4980832027b67f8007b68f000826718018a79037b691801826728018268200132027b67e8007b68e000826810018d89800082673001826838013202c8b909c88909d3b90ad8b90bdaa80b32026479140700000000717b484e9568ff0732027b67b0007b68a8008268f8008d89800082670801826800013202d49808db8b0c7b6c000183a98082673001826838013202977a206f88988820d48a0a9877206f9897892032029551a08210588215508216489511603202d878078269380194978269300194973202d8780782c930949794a732027b67c0007b68b8008267f0008a79037b69f000826718018268100132029517e08479e07b69300164913202d4c708d49808988820d4c909979920d498083202c88a09d8a90ada880a3202849a40520a195109148d9a40cfa80ad09808d09707d4a707320032009597c0d0780733083200849a40520a195109148d9a40d0a70acf9707cf9808d4a808320032009598c0cf87083307320049922425494b2a252da9944c4949214225a952484992244992244992244992244992244992244992244992244992244992244992542529a524292949a84a494a922449922449922449922449922449922449922449929224294955494a922849254955924249929294a4aa2a494952924a922aa5942429a59424951411112514152952a4489122458a142952a44891224589141111254982101286d2a43424429224899490246992244928a5420486a8894295464444a48808121142844844694420810412104840201111118d88884892449188101111111111518888082522421285484842a8a4244484888888888844222222212222222222aa46224924922449922892241289888888888888101111111111111149292244241289842492449154924808218410424489888888081149121111111189081191884424a244242211898888888888482412112122222222499224111111111122222222222222222222424424492249118988886844442449a248448a8888888888888810119122492449922449a28888881011111111492942444444442491882489249144848888884848928810111111099124224422914844424444448888848888881011111111499224491211111122914844244444444212111111111111219224800042928848242211219224a5241191484442248000925292882291884488244929892222224224010410928888888888089124524a22228808111122128944444444848888488a2492489248922449128988886844922449a248444444041111111111111141444444442488442251442291484444444410119124499288888888882022220aaa428884840410914824321249229124491211111111111111414422129524452289884824111111412491249248249124924844444424291111118d888848924491881411111111111111114444441249a444499224124492244822228088888820922480008224112122228824492a49448808220124a5242144440011112482924644444491204992245124828888888848111189442222222222a22062442811411285082651a8441409228848222289249248922449144544241289884810111111111111111111114929828848442212914810111191244992a04882200882200882888888880412452288482412116944445212519248128924954422a2111151894894242212444444444424912449121111111111444422482222222222228888482292249124912449122549a9244925499288481240a492482482228e882492241149449224914a121111114444444410312222222222414444444424922282449224499244442291880421259a48124000492549a2224812114924824492949248121191482451101111114d0001248a92888888444444449048904444444404118d041040a29288888888888888201141121111111111511029252949249124924844444492880892282291484424884924492212494a9224014424888888888888888820228888884824229114492489245291a40822221189888888880822828848924844222912a4485204119188444444444404111144444444124922894444444444440449912091a48808222249921411114444444444229224228888202222229248124924229244444404499144924822912492282282888888884824892449440411111195942489241191880411912492444424888824a914492422492222221249222205218249142a25499224924492a4a2a892249224924812499224919244124992244aaa9224492291244924494a2249239124124992441489442222222282482249249112111111458288882449148920128944448a88888888482452440a2289120992284430894225a2481041244924914412499224892222222222228a8888208a888888888888a414414444229148248888244992248222098220088220082249248244502a242222228a0411114992281241441291440a22468412112451888448102a5124882022222222222222228888888888a81a892491489224922822222291481411111111414444444444444424a508221289440449248922a9249120088220088288241109229224222222828848442251224992888888222222888888489224119148242241c488222222221289141111414424492249894810111111111111111111498a8888882088222289482241444444444444444444444444104411494412092291482422914894242212042992884c922491882492244992c448924422898888884844441424510a92a85228222292541555a4481a1149242289482422512422492449244992241111114444444444444444104924892412894422892412914492482211292522224a92248988884424922449244992244992242282888888888848129104114904119188244144242249a2229148242222222248922449922411111191880410898a484410111111111193249124912491484412442449101189481244442292a42812894422499224224962124444222222220a222242898820444822912054a2485251144544828848922489442211119120d124152411111111511011114a4404514426518922494551141109222222229244444444444404110922229148242212444422914844444444349224499244902411912422114492009254442222424404892691282241444444444444441111111144444444522491449224499224892851122549444444444408214424491291484444444444444444444a92242549929424494a4992a4a844a1542ab112250a8542a15028140a151111114144445292244991940822222211491211442249129290909088544444444a922425495249a8848484848444444410511011114a4404218250585248484848481189a0a89090888808220a22224289882044101212490a205210252512840842422222228828888808252282104148484444a494244922222282888824499224491249928210c124854a492a4992244992244992a4242949529224294949121111454400110549240942044349344992a424499224294992945292a020489212840886926892242995224912499224499220490a822429418860288946442295942449922449922449922495942449922449922409222251920092822492042182a1241a91245292141111111109224992121144444444444444449024499224222222914844228844920092544422522422419524494a8c244992442412918888089224498a48124524128948419242049328548a2a92244992a4aa9422914a92242312499224499244141141224904892491041149922412441249228944124922891449a544544644449294244992449224251224499224898888442211898224012415499254942449922492142405a5204912244992244900a94844922009204912244992244952928888684444449294244992241249141111114a10894812492289249124492282484492241191482402481211051525494a9224894812499224495292249148129144001140264992a42449248924228924492222491249922449924892244992481209221249542422882489489224111144242249928824892812412491288a44109148144544449224222282481089201244444492249288201244228804114992249120124444100922922449912222880822228804111111111111440411114482884824924844444444241211111114442288241211111111111111414444240922228944922489882489222222a2248a44221111114d92a4d2248024a9949224490aa5684444a49424499294482412114144449224499224892449921484082629544a49aa922449922449929424258988882222808882889088204430944493545252922449922449529292244190242508110c25d188249124291189442212449224491209228224499224114952124941922449924444444490248004909422229224222282248888880892202222802449444404491011111104900082888848222222488294440449101125222222488224890802480041444424222222489224499288888820112422229124099224491149a21149222529222222222282888888888804111189444a24128988880892244992444422918804914824220aaa2249922449922449922449922449124004904992244992242222912022222222222288482449121111114122894451442222228804118988882012442422228248101111111144041111111141441011111121482489209124491011118988082289209254494a491291241a111149529224499248925424488a8848922449124992244992244992244992244992924444449304901424912408110c25d188249112894491a4442291880822222a29114992244944444412242991482412894444248248241289884852228844229124499224495224952449449024890892442282249124124912898804a512451445912448920449922441922449924a92244992244924128944444424884812454400110511211141886028a94841824492482211452289449248129522111189442412898828121191484422918888224955118944a222515424499224299254954892444545295594944a1415155154250920a94492482225924412254992245192244912452492448a445154922449524424228a8888284952014411111125918852925292a44451491511898892a824494a529224492595244952490100"},"methodIdentifiers":{"bookAgent(address,string)":"71eae7ee","bookings(uint256)":"1dab301e","bookingsByAgent(address,uint256)":"eadbd332","bookingsByConsumer(address,uint256)":"80a838cd","completeService(uint256)":"2f3ccebd","getAllBookings()":"4245f2fe","getBookingsByAgent(address)":"4c0fbe7d","getBookingsByConsumer(address)":"8bb19c54"}},"hash":"3d229171b051b465234d41ffa59b3058cef862402c4ccf34c7043b665241bc93","factoryDependencies":{}}}}