{"contracts/Token.sol":{"MyToken":{"abi":[{"inputs":[{"internalType":"uint256","name":"initialSupply","type":"uint256"}],"stateMutability":"nonpayable","type":"constructor"},{"inputs":[],"name":"AccessControlBadConfirmation","type":"error"},{"inputs":[{"internalType":"address","name":"account","type":"address"},{"internalType":"bytes32","name":"neededRole","type":"bytes32"}],"name":"AccessControlUnauthorizedAccount","type":"error"},{"inputs":[{"internalType":"address","name":"spender","type":"address"},{"internalType":"uint256","name":"allowance","type":"uint256"},{"internalType":"uint256","name":"needed","type":"uint256"}],"name":"ERC20InsufficientAllowance","type":"error"},{"inputs":[{"internalType":"address","name":"sender","type":"address"},{"internalType":"uint256","name":"balance","type":"uint256"},{"internalType":"uint256","name":"needed","type":"uint256"}],"name":"ERC20InsufficientBalance","type":"error"},{"inputs":[{"internalType":"address","name":"approver","type":"address"}],"name":"ERC20InvalidApprover","type":"error"},{"inputs":[{"internalType":"address","name":"receiver","type":"address"}],"name":"ERC20InvalidReceiver","type":"error"},{"inputs":[{"internalType":"address","name":"sender","type":"address"}],"name":"ERC20InvalidSender","type":"error"},{"inputs":[{"internalType":"address","name":"spender","type":"address"}],"name":"ERC20InvalidSpender","type":"error"},{"inputs":[],"name":"EnforcedPause","type":"error"},{"inputs":[],"name":"ExpectedPause","type":"error"},{"anonymous":false,"inputs":[{"indexed":true,"internalType":"address","name":"owner","type":"address"},{"indexed":true,"internalType":"address","name":"spender","type":"address"},{"indexed":false,"internalType":"uint256","name":"value","type":"uint256"}],"name":"Approval","type":"event"},{"anonymous":false,"inputs":[{"indexed":false,"internalType":"address","name":"account","type":"address"}],"name":"Paused","type":"event"},{"anonymous":false,"inputs":[{"indexed":true,"internalType":"bytes32","name":"role","type":"bytes32"},{"indexed":true,"internalType":"bytes32","name":"previousAdminRole","type":"bytes32"},{"indexed":true,"internalType":"bytes32","name":"newAdminRole","type":"bytes32"}],"name":"RoleAdminChanged","type":"event"},{"anonymous":false,"inputs":[{"indexed":true,"internalType":"bytes32","name":"role","type":"bytes32"},{"indexed":true,"internalType":"address","name":"account","type":"address"},{"indexed":true,"internalType":"address","name":"sender","type":"address"}],"name":"RoleGranted","type":"event"},{"anonymous":false,"inputs":[{"indexed":true,"internalType":"bytes32","name":"role","type":"bytes32"},{"indexed":true,"internalType":"address","name":"account","type":"address"},{"indexed":true,"internalType":"address","name":"sender","type":"address"}],"name":"RoleRevoked","type":"event"},{"anonymous":false,"inputs":[{"indexed":true,"internalType":"address","name":"from","type":"address"},{"indexed":true,"internalType":"address","name":"to","type":"address"},{"indexed":false,"internalType":"uint256","name":"value","type":"uint256"}],"name":"Transfer","type":"event"},{"anonymous":false,"inputs":[{"indexed":false,"internalType":"address","name":"account","type":"address"}],"name":"Unpaused","type":"event"},{"inputs":[],"name":"DEFAULT_ADMIN_ROLE","outputs":[{"internalType":"bytes32","name":"","type":"bytes32"}],"stateMutability":"view","type":"function"},{"inputs":[],"name":"MINTER_ROLE","outputs":[{"internalType":"bytes32","name":"","type":"bytes32"}],"stateMutability":"view","type":"function"},{"inputs":[],"name":"PAUSER_ROLE","outputs":[{"internalType":"bytes32","name":"","type":"bytes32"}],"stateMutability":"view","type":"function"},{"inputs":[{"internalType":"address","name":"owner","type":"address"},{"internalType":"address","name":"spender","type":"address"}],"name":"allowance","outputs":[{"internalType":"uint256","name":"","type":"uint256"}],"stateMutability":"view","type":"function"},{"inputs":[{"internalType":"address","name":"spender","type":"address"},{"internalType":"uint256","name":"value","type":"uint256"}],"name":"approve","outputs":[{"internalType":"bool","name":"","type":"bool"}],"stateMutability":"nonpayable","type":"function"},{"inputs":[{"internalType":"address","name":"account","type":"address"}],"name":"balanceOf","outputs":[{"internalType":"uint256","name":"","type":"uint256"}],"stateMutability":"view","type":"function"},{"inputs":[{"internalType":"uint256","name":"value","type":"uint256"}],"name":"burn","outputs":[],"stateMutability":"nonpayable","type":"function"},{"inputs":[{"internalType":"address","name":"account","type":"address"},{"internalType":"uint256","name":"value","type":"uint256"}],"name":"burnFrom","outputs":[],"stateMutability":"nonpayable","type":"function"},{"inputs":[],"name":"decimals","outputs":[{"internalType":"uint8","name":"","type":"uint8"}],"stateMutability":"view","type":"function"},{"inputs":[{"internalType":"bytes32","name":"role","type":"bytes32"}],"name":"getRoleAdmin","outputs":[{"internalType":"bytes32","name":"","type":"bytes32"}],"stateMutability":"view","type":"function"},{"inputs":[{"internalType":"bytes32","name":"role","type":"bytes32"},{"internalType":"address","name":"account","type":"address"}],"name":"grantRole","outputs":[],"stateMutability":"nonpayable","type":"function"},{"inputs":[{"internalType":"bytes32","name":"role","type":"bytes32"},{"internalType":"address","name":"account","type":"address"}],"name":"hasRole","outputs":[{"internalType":"bool","name":"","type":"bool"}],"stateMutability":"view","type":"function"},{"inputs":[{"internalType":"address","name":"to","type":"address"},{"internalType":"uint256","name":"amount","type":"uint256"}],"name":"mint","outputs":[],"stateMutability":"nonpayable","type":"function"},{"inputs":[],"name":"minter","outputs":[{"internalType":"address","name":"","type":"address"}],"stateMutability":"view","type":"function"},{"inputs":[],"name":"name","outputs":[{"internalType":"string","name":"","type":"string"}],"stateMutability":"view","type":"function"},{"inputs":[],"name":"pause","outputs":[],"stateMutability":"nonpayable","type":"function"},{"inputs":[],"name":"paused","outputs":[{"internalType":"bool","name":"","type":"bool"}],"stateMutability":"view","type":"function"},{"inputs":[{"internalType":"bytes32","name":"role","type":"bytes32"},{"internalType":"address","name":"callerConfirmation","type":"address"}],"name":"renounceRole","outputs":[],"stateMutability":"nonpayable","type":"function"},{"inputs":[{"internalType":"bytes32","name":"role","type":"bytes32"},{"internalType":"address","name":"account","type":"address"}],"name":"revokeRole","outputs":[],"stateMutability":"nonpayable","type":"function"},{"inputs":[{"internalType":"bytes4","name":"interfaceId","type":"bytes4"}],"name":"supportsInterface","outputs":[{"internalType":"bool","name":"","type":"bool"}],"stateMutability":"view","type":"function"},{"inputs":[],"name":"symbol","outputs":[{"internalType":"string","name":"","type":"string"}],"stateMutability":"view","type":"function"},{"inputs":[],"name":"totalSupply","outputs":[{"internalType":"uint256","name":"","type":"uint256"}],"stateMutability":"view","type":"function"},{"inputs":[{"internalType":"address","name":"to","type":"address"},{"internalType":"uint256","name":"value","type":"uint256"}],"name":"transfer","outputs":[{"internalType":"bool","name":"","type":"bool"}],"stateMutability":"nonpayable","type":"function"},{"inputs":[{"internalType":"address","name":"from","type":"address"},{"internalType":"address","name":"to","type":"address"},{"internalType":"uint256","name":"value","type":"uint256"}],"name":"transferFrom","outputs":[{"internalType":"bool","name":"","type":"bool"}],"stateMutability":"nonpayable","type":"function"},{"inputs":[],"name":"unpause","outputs":[],"stateMutability":"nonpayable","type":"function"}],"evm":{"assembly":"// RO data = 0/0 bytes\n// RW data = 616/66208 bytes\n// Stack size = 32768 bytes\n\n// Instructions = 10027\n// Code size = 35182 bytes\n\n      : @0 (gas: 1)\n     0: jump @14 if a0 == a1\n      : @1 (gas: 9)\n     3: a3 = a1 << 0x20\n     6: a3 = a3 >> 0x20\n     9: a4 = a0 << 0x20\n    12: a4 = a4 >> 0x20\n    15: a4 = a4 + a2\n    18: a3 = a3 - a4\n    21: a4 = a2 << 0x1\n    24: a4 = -a4\n    26: jump @7 if a4 >=u a3\n      : @2 (gas: 1)\n    29: jump @11 if a0 >=u a1\n      : @3 (gas: 1)\n    32: jump @14 if a2 == 0\n      : @4 (gas: 3)\n    35: a2 = a2 + a0\n    38: a3 = a0\n    40: fallthrough\n      : @5 (gas: 6)\n    41: a4 = u8 [a1]\n    43: a1 = a1 + 0x1\n    46: a5 = a3 + 0x1\n    49: u8 [a3] = a4\n    51: a3 = a5\n    53: jump @5 if a5 != a2\n      : @6 (gas: 1)\n    56: jump @14\n      : @7 (gas: 1)\n    58: jump @14 if a2 == 0\n      : @8 (gas: 3)\n    61: a2 = a2 + a0\n    64: a3 = a0\n    66: fallthrough\n      : @9 (gas: 6)\n    67: a4 = u8 [a1]\n    69: a1 = a1 + 0x1\n    72: a5 = a3 + 0x1\n    75: u8 [a3] = a4\n    77: a3 = a5\n    79: jump @9 if a5 != a2\n      : @10 (gas: 1)\n    82: jump @14\n      : @11 (gas: 1)\n    84: jump @14 if a2 == 0\n      : @12 (gas: 2)\n    87: i32 a3 = a2 + 0xffffffffffffffff\n    90: fallthrough\n      : @13 (gas: 7)\n    91: a4 = a1 + a3\n    94: a4 = u8 [a4]\n    96: a2 = a2 + 0xffffffffffffffff\n    99: a5 = a0 + a3\n   102: u8 [a5] = a4\n   104: i32 a3 = a3 + 0xffffffffffffffff\n   107: jump @13 if a2 != 0\n      : @14 (gas: 1)\n   110: ret\n      : @15 (gas: 2)\n   112: a1 = i32 [0x20270]\n   117: jump @263 if a1 == 0\n      : @16 (gas: 4)\n   121: a0 = 0x302a0\n   126: i32 a0 = a0 + 0\n   128: ecalli 8 // 'set_immutable_data'\n   130: jump @263\n      : @17 (gas: 8)\n   133: sp = sp + 0xfffffffffffffff0\n   136: u64 [sp + 0x8] = ra\n   139: u64 [sp] = s0\n   141: a2 = a1\n   143: s0 = a0\n   145: a1 = 0x20\n   148: a0 = a2\n   150: ra = 2, jump @33\n      : @18 [@dyn 1] (gas: 100)\n   155: a1 = u8 [a0 + 0x1]\n   158: a2 = u8 [a0]\n   160: a3 = u8 [a0 + 0x2]\n   163: a4 = u8 [a0 + 0x3]\n   166: a1 = a1 << 0x8\n   169: a1 = a1 | a2\n   172: a3 = a3 << 0x10\n   175: a4 = a4 << 0x18\n   178: a3 = a3 | a4\n   181: a1 = a1 | a3\n   184: a2 = u8 [a0 + 0x5]\n   187: a3 = u8 [a0 + 0x4]\n   190: a4 = u8 [a0 + 0x6]\n   193: a5 = u8 [a0 + 0x7]\n   196: a2 = a2 << 0x8\n   199: a2 = a2 | a3\n   202: a4 = a4 << 0x10\n   205: a5 = a5 << 0x18\n   208: a4 = a4 | a5\n   211: a2 = a2 | a4\n   214: a2 = a2 << 0x20\n   217: t0 = a2 | a1\n   220: a2 = u8 [a0 + 0x9]\n   223: a3 = u8 [a0 + 0x8]\n   226: a4 = u8 [a0 + 0xa]\n   229: a5 = u8 [a0 + 0xb]\n   232: a2 = a2 << 0x8\n   235: a2 = a2 | a3\n   238: a4 = a4 << 0x10\n   241: a5 = a5 << 0x18\n   244: a4 = a4 | a5\n   247: a2 = a2 | a4\n   250: a3 = u8 [a0 + 0xd]\n   253: a4 = u8 [a0 + 0xc]\n   256: a5 = u8 [a0 + 0xe]\n   259: a1 = u8 [a0 + 0xf]\n   262: a3 = a3 << 0x8\n   265: a3 = a3 | a4\n   268: a5 = a5 << 0x10\n   271: a1 = a1 << 0x18\n   274: a1 = a1 | a5\n   277: a1 = a1 | a3\n   280: a1 = a1 << 0x20\n   283: t1 = a1 | a2\n   286: a1 = u8 [a0 + 0x11]\n   289: a3 = u8 [a0 + 0x10]\n   292: a4 = u8 [a0 + 0x12]\n   295: a5 = u8 [a0 + 0x13]\n   298: a1 = a1 << 0x8\n   301: a1 = a1 | a3\n   304: a4 = a4 << 0x10\n   307: a5 = a5 << 0x18\n   310: a4 = a4 | a5\n   313: a1 = a1 | a4\n   316: a3 = u8 [a0 + 0x15]\n   319: a4 = u8 [a0 + 0x14]\n   322: a5 = u8 [a0 + 0x16]\n   325: a2 = u8 [a0 + 0x17]\n   328: a3 = a3 << 0x8\n   331: a3 = a3 | a4\n   334: a5 = a5 << 0x10\n   337: a2 = a2 << 0x18\n   340: a2 = a2 | a5\n   343: a2 = a2 | a3\n   346: a2 = a2 << 0x20\n   349: a3 = a2 | a1\n   352: a1 = u8 [a0 + 0x19]\n   355: a2 = u8 [a0 + 0x18]\n   358: a4 = u8 [a0 + 0x1a]\n   361: a5 = u8 [a0 + 0x1b]\n   364: a1 = a1 << 0x8\n   367: a1 = a1 | a2\n   370: a4 = a4 << 0x10\n   373: a5 = a5 << 0x18\n   376: a4 = a4 | a5\n   379: a1 = a1 | a4\n   382: a2 = u8 [a0 + 0x1d]\n   385: a4 = u8 [a0 + 0x1c]\n   388: a5 = u8 [a0 + 0x1e]\n   391: a0 = u8 [a0 + 0x1f]\n   394: a2 = a2 << 0x8\n   397: a2 = a2 | a4\n   400: a5 = a5 << 0x10\n   403: a0 = a0 << 0x18\n   406: a0 = a0 | a5\n   409: a0 = a0 | a2\n   412: a0 = a0 << 0x20\n   415: a0 = a0 | a1\n   418: a0 = reverse a0\n   420: a1 = reverse a3\n   422: a2 = reverse t1\n   424: a3 = reverse t0\n   426: u64 [s0 + 0x18] = a3\n   429: u64 [s0 + 0x10] = a2\n   432: u64 [s0 + 0x8] = a1\n   435: u64 [s0] = a0\n   437: ra = u64 [sp + 0x8]\n   440: s0 = u64 [sp]\n   442: sp = sp + 0x10\n   445: ret\n      : @19 (gas: 12)\n   447: sp = sp + 0xffffffffffffffd8\n   450: u64 [sp + 0x20] = ra\n   453: u64 [sp + 0x18] = s0\n   456: u64 [sp + 0x10] = s1\n   459: a2 = u64 [a1]\n   461: u64 [sp + 0x8] = a2\n   464: a2 = u64 [a1 + 0x8]\n   467: u64 [sp] = a2\n   469: s0 = u64 [a1 + 0x10]\n   472: s1 = u64 [a1 + 0x18]\n   475: a1 = 0x20\n   478: ra = 4, jump @33\n      : @20 [@dyn 2] (gas: 71)\n   483: a1 = reverse s1\n   485: a2 = reverse s0\n   487: a3 = u64 [sp]\n   489: a3 = reverse a3\n   491: a4 = u64 [sp + 0x8]\n   494: a4 = reverse a4\n   496: u8 [a0 + 0x18] = a4\n   499: u8 [a0 + 0x10] = a3\n   502: u8 [a0 + 0x8] = a2\n   505: u8 [a0] = a1\n   507: a5 = a4 >> 0x38\n   510: u8 [a0 + 0x1f] = a5\n   513: a5 = a4 >> 0x30\n   516: u8 [a0 + 0x1e] = a5\n   519: a5 = a4 >> 0x28\n   522: u8 [a0 + 0x1d] = a5\n   525: a5 = a4 >> 0x20\n   528: u8 [a0 + 0x1c] = a5\n   531: a5 = a4 >> 0x18\n   534: u8 [a0 + 0x1b] = a5\n   537: a5 = a4 >> 0x10\n   540: u8 [a0 + 0x1a] = a5\n   543: a4 = a4 >> 0x8\n   546: u8 [a0 + 0x19] = a4\n   549: a4 = a3 >> 0x38\n   552: u8 [a0 + 0x17] = a4\n   555: a4 = a3 >> 0x30\n   558: u8 [a0 + 0x16] = a4\n   561: a4 = a3 >> 0x28\n   564: u8 [a0 + 0x15] = a4\n   567: a4 = a3 >> 0x20\n   570: u8 [a0 + 0x14] = a4\n   573: a4 = a3 >> 0x18\n   576: u8 [a0 + 0x13] = a4\n   579: a4 = a3 >> 0x10\n   582: u8 [a0 + 0x12] = a4\n   585: a3 = a3 >> 0x8\n   588: u8 [a0 + 0x11] = a3\n   591: a3 = a2 >> 0x38\n   594: u8 [a0 + 0xf] = a3\n   597: a3 = a2 >> 0x30\n   600: u8 [a0 + 0xe] = a3\n   603: a3 = a2 >> 0x28\n   606: u8 [a0 + 0xd] = a3\n   609: a3 = a2 >> 0x20\n   612: u8 [a0 + 0xc] = a3\n   615: a3 = a2 >> 0x18\n   618: u8 [a0 + 0xb] = a3\n   621: a3 = a2 >> 0x10\n   624: u8 [a0 + 0xa] = a3\n   627: a2 = a2 >> 0x8\n   630: u8 [a0 + 0x9] = a2\n   633: a2 = a1 >> 0x38\n   636: u8 [a0 + 0x7] = a2\n   639: a2 = a1 >> 0x30\n   642: u8 [a0 + 0x6] = a2\n   645: a2 = a1 >> 0x28\n   648: u8 [a0 + 0x5] = a2\n   651: a2 = a1 >> 0x20\n   654: u8 [a0 + 0x4] = a2\n   657: a2 = a1 >> 0x18\n   660: u8 [a0 + 0x3] = a2\n   663: a2 = a1 >> 0x10\n   666: u8 [a0 + 0x2] = a2\n   669: a1 = a1 >> 0x8\n   672: u8 [a0 + 0x1] = a1\n   675: ra = u64 [sp + 0x20]\n   678: s0 = u64 [sp + 0x18]\n   681: s1 = u64 [sp + 0x10]\n   684: sp = sp + 0x28\n   687: ret\n      : @21 (gas: 32)\n   689: sp = sp + 0xffffffffffffffa0\n   692: u64 [sp + 0x58] = ra\n   695: u64 [sp + 0x50] = s0\n   698: u64 [sp + 0x48] = s1\n   701: s0 = sp + 0x60\n   704: sp = sp & 0xffffffffffffffe0\n   707: s1 = a0\n   709: a0 = u64 [a1 + 0x18]\n   712: a2 = u64 [a1 + 0x10]\n   715: a3 = u64 [a1 + 0x8]\n   718: a1 = u64 [a1]\n   720: a0 = reverse a0\n   722: a2 = reverse a2\n   724: a3 = reverse a3\n   726: a1 = reverse a1\n   728: u64 [sp + 0x18] = a1\n   731: u64 [sp + 0x10] = a3\n   734: u64 [sp + 0x8] = a2\n   737: u64 [sp] = a0\n   739: u64 [sp + 56] = 0\n   742: u64 [sp + 48] = 0\n   745: u64 [sp + 40] = 0\n   748: u64 [sp + 32] = 0\n   751: u32 [sp + 64] = 0x20\n   755: i32 a1 = sp + 0\n   757: i32 a3 = sp + 0x20\n   760: i32 a4 = sp + 0x40\n   763: a2 = 0xffffffffffffffff\n   766: a0 = 0\n   768: ra = 0x6\n   771: ecalli 5 // 'get_storage'\n   773: fallthrough\n      : @22 [@dyn 3] (gas: 5)\n   774: a0 = u64 [sp + 0x38]\n   777: a1 = u64 [sp + 0x30]\n   780: a2 = u64 [sp + 0x28]\n   783: a3 = u64 [sp + 0x20]\n   786: t0 = 8, jump @1373\n      : @23 [@dyn 4] (gas: 10)\n   792: u64 [s1 + 0x18] = a3\n   795: u64 [s1 + 0x10] = a2\n   798: u64 [s1 + 0x8] = a1\n   801: u64 [s1] = a0\n   803: sp = s0 + 0xffffffffffffffa0\n   806: ra = u64 [sp + 0x58]\n   809: s0 = u64 [sp + 0x50]\n   812: s1 = u64 [sp + 0x48]\n   815: sp = sp + 0x60\n   818: ret\n      : @24 (gas: 40)\n   820: sp = sp + 0xffffffffffffffa0\n   823: u64 [sp + 0x58] = ra\n   826: u64 [sp + 0x50] = s0\n   829: s0 = sp + 0x60\n   832: sp = sp & 0xffffffffffffffe0\n   835: t0 = u64 [a0]\n   837: a3 = u64 [a0 + 0x8]\n   840: a4 = u64 [a0 + 0x10]\n   843: a0 = u64 [a0 + 0x18]\n   846: t1 = u64 [a1]\n   848: a2 = u64 [a1 + 0x8]\n   851: a5 = u64 [a1 + 0x10]\n   854: a1 = u64 [a1 + 0x18]\n   857: t2 = reverse a0\n   859: a4 = reverse a4\n   861: a3 = reverse a3\n   863: a0 = reverse t0\n   865: t0 = reverse a1\n   867: a5 = reverse a5\n   869: a2 = reverse a2\n   871: a1 = reverse t1\n   873: u64 [sp + 0x18] = a0\n   876: u64 [sp + 0x10] = a3\n   879: u64 [sp + 0x8] = a4\n   882: u64 [sp] = t2\n   884: u64 [sp + 0x38] = a1\n   887: u64 [sp + 0x30] = a2\n   890: u64 [sp + 0x28] = a5\n   893: u64 [sp + 0x20] = t0\n   896: i32 a1 = sp + 0\n   898: i32 a3 = sp + 0x20\n   901: a2 = 0xffffffffffffffff\n   904: a4 = 0x20\n   907: a0 = 0\n   909: ecalli 9 // 'set_storage'\n   911: sp = s0 + 0xffffffffffffffa0\n   914: ra = u64 [sp + 0x58]\n   917: s0 = u64 [sp + 0x50]\n   920: sp = sp + 0x60\n   923: ret\n      : @25 (gas: 16)\n   925: sp = sp + 0xffffffffffffffa0\n   928: u64 [sp + 0x58] = ra\n   931: u64 [sp + 0x50] = s0\n   934: u64 [sp + 0x48] = s1\n   937: s0 = sp + 0x60\n   940: sp = sp & 0xffffffffffffffe0\n   943: a3 = u64 [a2]\n   945: u64 [sp + 0x18] = a3\n   948: a3 = u64 [a2 + 0x8]\n   951: u64 [sp + 0x10] = a3\n   954: a3 = u64 [a2 + 0x10]\n   957: u64 [sp + 0x8] = a3\n   960: a2 = u64 [a2 + 0x18]\n   963: u64 [sp] = a2\n   965: s1 = a1\n   967: ra = 10, jump @33\n      : @26 [@dyn 5] (gas: 23)\n   972: a1 = u64 [sp]\n   974: a1 = reverse a1\n   976: a2 = u64 [sp + 0x8]\n   979: a2 = reverse a2\n   981: a3 = u64 [sp + 0x10]\n   984: a3 = reverse a3\n   986: a4 = u64 [sp + 0x18]\n   989: a4 = reverse a4\n   991: u64 [sp + 0x38] = a4\n   994: u64 [sp + 0x30] = a3\n   997: u64 [sp + 0x28] = a2\n  1000: u64 [sp + 0x20] = a1\n  1003: i32 a2 = a0 + 0\n  1005: i32 a3 = s1 + 0\n  1007: i32 a0 = sp + 0x20\n  1010: a1 = 0x1\n  1013: ecalli 4 // 'deposit_event'\n  1015: sp = s0 + 0xffffffffffffffa0\n  1018: ra = u64 [sp + 0x58]\n  1021: s0 = u64 [sp + 0x50]\n  1024: s1 = u64 [sp + 0x48]\n  1027: sp = sp + 0x60\n  1030: ret\n      : @27 (gas: 15)\n  1032: sp = sp + 0xffffffffffffff20\n  1036: u64 [sp + 0xd8] = ra\n  1040: u64 [sp + 0xd0] = s0\n  1044: u64 [sp + 0xc8] = s1\n  1048: s0 = sp + 0xe0\n  1052: sp = sp & 0xffffffffffffffe0\n  1055: a5 = u64 [a4]\n  1057: u64 [sp + 0x40] = a5\n  1060: a5 = u64 [a4 + 0x8]\n  1063: u64 [sp + 0x48] = a5\n  1066: a5 = u64 [a4 + 0x10]\n  1069: u64 [sp + 0x50] = a5\n  1072: a4 = u64 [a4 + 0x18]\n  1075: u64 [sp + 0x58] = a4\n  1078: t0 = 12, jump @1389\n      : @28 [@dyn 6] (gas: 2)\n  1084: u64 [sp + 0x38] = a1\n  1087: ra = 14, jump @33\n      : @29 [@dyn 7] (gas: 46)\n  1092: a1 = reverse s1\n  1094: u64 [sp + 0x78] = a1\n  1097: a1 = u64 [sp]\n  1099: a1 = reverse a1\n  1101: u64 [sp + 0x70] = a1\n  1104: a1 = u64 [sp + 0x8]\n  1107: a1 = reverse a1\n  1109: u64 [sp + 0x68] = a1\n  1112: a1 = u64 [sp + 0x10]\n  1115: a1 = reverse a1\n  1117: u64 [sp + 0x60] = a1\n  1120: a1 = u64 [sp + 0x18]\n  1123: a1 = reverse a1\n  1125: u64 [sp + 0x98] = a1\n  1129: a1 = u64 [sp + 0x20]\n  1132: a1 = reverse a1\n  1134: u64 [sp + 0x90] = a1\n  1138: a1 = u64 [sp + 0x28]\n  1141: a1 = reverse a1\n  1143: u64 [sp + 0x88] = a1\n  1147: a1 = u64 [sp + 0x30]\n  1150: a1 = reverse a1\n  1152: u64 [sp + 0x80] = a1\n  1156: a1 = u64 [sp + 0x40]\n  1159: a1 = reverse a1\n  1161: u64 [sp + 0xb8] = a1\n  1165: a1 = u64 [sp + 0x48]\n  1168: a1 = reverse a1\n  1170: u64 [sp + 0xb0] = a1\n  1174: a1 = u64 [sp + 0x50]\n  1177: a1 = reverse a1\n  1179: u64 [sp + 0xa8] = a1\n  1183: a1 = u64 [sp + 0x58]\n  1186: a1 = reverse a1\n  1188: u64 [sp + 0xa0] = a1\n  1192: i32 a2 = a0 + 0\n  1194: a3 = i32 [sp + 0x38]\n  1197: i32 a0 = sp + 0x60\n  1200: a1 = 0x3\n  1203: ecalli 4 // 'deposit_event'\n  1205: sp = s0 + 0xffffffffffffff20\n  1209: ra = u64 [sp + 0xd8]\n  1213: s0 = u64 [sp + 0xd0]\n  1217: s1 = u64 [sp + 0xc8]\n  1221: sp = sp + 0xe0\n  1225: ret\n      : @30 (gas: 23)\n  1227: sp = sp + 0xfffffffffffffee0\n  1231: u64 [sp + 0x118] = ra\n  1235: u64 [sp + 0x110] = s0\n  1239: u64 [sp + 0x108] = s1\n  1243: s0 = sp + 0x120\n  1247: sp = sp & 0xffffffffffffffe0\n  1250: s1 = u64 [a5]\n  1252: u64 [sp + 0x60] = s1\n  1255: s1 = u64 [a5 + 0x8]\n  1258: u64 [sp + 0x68] = s1\n  1261: s1 = u64 [a5 + 0x10]\n  1264: u64 [sp + 0x70] = s1\n  1267: a5 = u64 [a5 + 0x18]\n  1270: u64 [sp + 0x78] = a5\n  1273: a5 = u64 [a4]\n  1275: u64 [sp + 0x38] = a5\n  1278: a5 = u64 [a4 + 0x8]\n  1281: u64 [sp + 0x40] = a5\n  1284: a5 = u64 [a4 + 0x10]\n  1287: u64 [sp + 0x48] = a5\n  1290: a4 = u64 [a4 + 0x18]\n  1293: u64 [sp + 0x50] = a4\n  1296: t0 = 16, jump @1389\n      : @31 [@dyn 8] (gas: 2)\n  1302: u64 [sp + 0x58] = a1\n  1305: ra = 18, jump @33\n      : @32 [@dyn 9] (gas: 58)\n  1310: a1 = reverse s1\n  1312: u64 [sp + 0x98] = a1\n  1316: a1 = u64 [sp]\n  1318: a1 = reverse a1\n  1320: u64 [sp + 0x90] = a1\n  1324: a1 = u64 [sp + 0x8]\n  1327: a1 = reverse a1\n  1329: u64 [sp + 0x88] = a1\n  1333: a1 = u64 [sp + 0x10]\n  1336: a1 = reverse a1\n  1338: u64 [sp + 0x80] = a1\n  1342: a1 = u64 [sp + 0x18]\n  1345: a1 = reverse a1\n  1347: u64 [sp + 0xb8] = a1\n  1351: a1 = u64 [sp + 0x20]\n  1354: a1 = reverse a1\n  1356: u64 [sp + 0xb0] = a1\n  1360: a1 = u64 [sp + 0x28]\n  1363: a1 = reverse a1\n  1365: u64 [sp + 0xa8] = a1\n  1369: a1 = u64 [sp + 0x30]\n  1372: a1 = reverse a1\n  1374: u64 [sp + 0xa0] = a1\n  1378: a1 = u64 [sp + 0x38]\n  1381: a1 = reverse a1\n  1383: u64 [sp + 0xd8] = a1\n  1387: a1 = u64 [sp + 0x40]\n  1390: a1 = reverse a1\n  1392: u64 [sp + 0xd0] = a1\n  1396: a1 = u64 [sp + 0x48]\n  1399: a1 = reverse a1\n  1401: u64 [sp + 0xc8] = a1\n  1405: a1 = u64 [sp + 0x50]\n  1408: a1 = reverse a1\n  1410: u64 [sp + 0xc0] = a1\n  1414: a1 = u64 [sp + 0x60]\n  1417: a1 = reverse a1\n  1419: u64 [sp + 0xf8] = a1\n  1423: a1 = u64 [sp + 0x68]\n  1426: a1 = reverse a1\n  1428: u64 [sp + 0xf0] = a1\n  1432: a1 = u64 [sp + 0x70]\n  1435: a1 = reverse a1\n  1437: u64 [sp + 0xe8] = a1\n  1441: a1 = u64 [sp + 0x78]\n  1444: a1 = reverse a1\n  1446: u64 [sp + 0xe0] = a1\n  1450: i32 a2 = a0 + 0\n  1452: a3 = i32 [sp + 0x58]\n  1455: i32 a0 = sp + 0x80\n  1459: a1 = 0x4\n  1462: ecalli 4 // 'deposit_event'\n  1464: sp = s0 + 0xfffffffffffffee0\n  1468: ra = u64 [sp + 0x118]\n  1472: s0 = u64 [sp + 0x110]\n  1476: s1 = u64 [sp + 0x108]\n  1480: sp = sp + 0x120\n  1484: ret\n      : @33 (gas: 2)\n  1486: i32 a2 = a0 >> 0x10\n  1489: jump @38 if a2 != 0\n      : @34 (gas: 4)\n  1492: a1 = a1 + a0\n  1495: i32 a1 = a1 + 0x1f\n  1498: a1 = a1 & 0xffffffffffffffe0\n  1501: jump @38 if a1 >u 65536\n      : @35 (gas: 3)\n  1507: a2 = 0x2026c\n  1512: a3 = i32 [0x2026c]\n  1517: jump @37 if a3 >=u a1\n      : @36 (gas: 2)\n  1520: u32 [0x2026c] = a1\n  1525: fallthrough\n      : @37 (gas: 4)\n  1526: a1 = 0x20280\n  1531: i32 a0 = a0 + 0\n  1533: a0 = a0 + a1\n  1536: ret\n      : @38 (gas: 1)\n  1538: trap\n      : @39 (gas: 6)\n  1539: sp = sp + 0xfffffffffffffff0\n  1542: u64 [sp + 0x8] = ra\n  1545: u64 [sp] = s0\n  1547: s0 = a0 & 0x1\n  1550: ecalli 2 // 'call_data_size'\n  1552: fallthrough\n      : @40 (gas: 2)\n  1553: u32 [0x20268] = a0\n  1558: jump @42 if s0 == 0\n      : @41 (gas: 1)\n  1561: ra = 20, jump @43\n      : @42 [@dyn 10] (gas: 18)\n  1565: ra = 0x16\n  1568: sp = sp + 0xfffffffffffffe10\n  1572: u64 [sp + 0x1e8] = ra\n  1576: u64 [sp + 0x1e0] = s0\n  1580: u64 [sp + 0x1d8] = s1\n  1584: s0 = sp + 0x1f0\n  1588: sp = sp + 0xffffffffffffe5b0\n  1592: sp = sp & 0xffffffffffffffe0\n  1595: s1 = sp\n  1597: a2 = s1 + 0x1038\n  1601: u64 [a2 + 1344] = 0\n  1605: u64 [a2 + 1336] = 0\n  1609: u64 [a2 + 1320] = 0x80\n  1615: a0 = 0x40\n  1618: a1 = s1 + 0x1560\n  1622: u64 [a2 + 1328] = 0\n  1626: ra = 0x116\n  1630: jump @19\n      : @43 [@dyn 11] (gas: 21)\n  1633: sp = sp + 0xfffffffffffff808\n  1637: a0 = sp + 0x700\n  1641: u64 [a0 + 0xf0] = ra\n  1645: u64 [a0 + 0xe8] = s0\n  1649: u64 [a0 + 0xe0] = s1\n  1653: s0 = sp + 0x7f8\n  1657: sp = sp + 0xfffffffffffffc78\n  1661: sp = sp & 0xffffffffffffffe0\n  1664: s1 = sp\n  1666: a0 = s1 + 0x1000\n  1670: u64 [a0 + 4294965336] = 0\n  1674: a0 = s1 + 0x1000\n  1678: u64 [a0 + 4294965328] = 0\n  1682: a1 = s1 + 0x1000\n  1686: u64 [a1 + 4294965312] = 0x80\n  1692: a0 = 0x40\n  1695: a1 = s1 + 0x7ff\n  1699: a1 = a1 + 0x41\n  1702: a2 = s1 + 0x1000\n  1706: u64 [a2 + 4294965320] = 0\n  1710: ra = 24, jump @19\n      : @44 [@dyn 12] (gas: 12)\n  1715: a0 = s1 + 0x1000\n  1719: u64 [a0 + 4294965368] = 0\n  1723: a0 = s1 + 0x1000\n  1727: u64 [a0 + 4294965360] = 0\n  1731: a0 = s1 + 0x1000\n  1735: u64 [a0 + 4294965352] = 0\n  1739: a0 = s1 + 0x1000\n  1743: u64 [a0 + 4294965344] = 0\n  1747: a0 = s1 + 0x1000\n  1751: i32 a0 = a0 + 0xfffffffffffff860\n  1755: ecalli 10 // 'value_transferred'\n  1757: fallthrough\n      : @45 (gas: 12)\n  1758: a0 = s1 + 0x1000\n  1762: a0 = u64 [a0 + 0xfffffffffffff870]\n  1766: a1 = s1 + 0x1000\n  1770: a1 = u64 [a1 + 0xfffffffffffff878]\n  1774: a2 = s1 + 0x1000\n  1778: a2 = u64 [a2 + 0xfffffffffffff868]\n  1782: a3 = s1 + 0x1000\n  1786: a3 = u64 [a3 + 0xfffffffffffff860]\n  1790: a1 = a1 | a2\n  1793: a0 = a0 | a3\n  1796: a0 = a0 | a1\n  1799: jump @47 if a0 == 0\n      : @46 (gas: 1)\n  1802: jump @219\n      : @47 (gas: 15)\n  1805: a2 = u32 [0x20268]\n  1810: a0 = s1 + 0x1000\n  1814: u64 [a0 + 4294965272] = 0\n  1818: a0 = s1 + 0x1000\n  1822: u64 [a0 + 4294965264] = 0\n  1826: a0 = s1 + 0x1000\n  1830: u64 [a0 + 4294965256] = 0\n  1834: a0 = s1 + 0x7ff\n  1838: a0 = a0 + 0x21\n  1841: a1 = s1 + 0x7ff\n  1845: a1 = a1 + 0x1\n  1848: u64 [s1 + 0x138] = a2\n  1852: a3 = s1 + 0x1000\n  1856: u64 [a3 + 0xfffffffffffff800] = a2\n  1860: ra = 26, jump @879\n      : @48 [@dyn 13] (gas: 9)\n  1865: a0 = s1 + 0x1000\n  1869: a3 = u64 [a0 + 0xfffffffffffff838]\n  1873: a0 = s1 + 0x1000\n  1877: a1 = u64 [a0 + 0xfffffffffffff830]\n  1881: a0 = s1 + 0x1000\n  1885: a2 = u64 [a0 + 0xfffffffffffff828]\n  1889: a0 = s1 + 0x1000\n  1893: a0 = u64 [a0 + 0xfffffffffffff820]\n  1897: t0 = 28, jump @1356\n      : @49 [@dyn 14] (gas: 1)\n  1902: jump @51 if a1 == 0\n      : @50 (gas: 1)\n  1905: jump @218\n      : @51 (gas: 3)\n  1908: u64 [s1 + 0x130] = a0\n  1912: a1 = u64 [s1 + 0x138]\n  1916: ra = 30, jump @33\n      : @52 [@dyn 15] (gas: 5)\n  1921: i32 a0 = a0 + 0\n  1923: a1 = i32 [s1 + 0x138]\n  1927: a2 = 0\n  1929: ecalli 0 // 'call_data_copy'\n  1930: fallthrough\n      : @53 (gas: 2)\n  1931: a1 = u64 [s1 + 0x138]\n  1935: jump @55 if a1 >u 31\n      : @54 (gas: 1)\n  1939: jump @220\n      : @55 (gas: 3)\n  1942: a0 = s1 + 0x7e0\n  1946: a1 = u64 [s1 + 0x130]\n  1950: ra = 32, jump @17\n      : @56 [@dyn 16] (gas: 15)\n  1955: a0 = u64 [s1 + 0x7f8]\n  1959: u64 [s1 + 0x80] = a0\n  1963: a0 = u64 [s1 + 0x7f0]\n  1967: u64 [s1 + 0x78] = a0\n  1970: a0 = u64 [s1 + 0x7e8]\n  1974: u64 [s1 + 0x70] = a0\n  1977: a0 = u64 [s1 + 0x7e0]\n  1981: u64 [s1 + 0x68] = a0\n  1984: u64 [s1 + 1976] = 0\n  1988: u64 [s1 + 1968] = 0\n  1992: u64 [s1 + 1952] = 0x40\n  1997: a0 = s1 + 0x7c0\n  2001: a1 = s1 + 0x7a0\n  2005: u64 [s1 + 1960] = 0\n  2009: ra = 34, jump @879\n      : @57 [@dyn 17] (gas: 13)\n  2014: a1 = s1 + 0x700\n  2018: a2 = u64 [a1 + 0xd8]\n  2022: a3 = u64 [a1 + 0xd0]\n  2026: a4 = u64 [a1 + 0xc8]\n  2030: a0 = u64 [a1 + 0xc0]\n  2034: a5 = a4 | a2\n  2037: a1 = a0 | a3\n  2040: a1 = a1 | a5\n  2043: a1 = a1 >> 0x20\n  2046: a5 = a5 | a3\n  2049: a5 = a5 << 0x20\n  2052: a1 = a1 | a5\n  2055: jump @59 if a1 == 0\n      : @58 (gas: 1)\n  2058: jump @218\n      : @59 (gas: 11)\n  2061: u64 [s1 + 1944] = 0\n  2065: u64 [s1 + 1936] = 0\n  2069: u64 [s1 + 1928] = 0\n  2073: a5 = 0x7\n  2076: a1 = s1 + 0x780\n  2080: u64 [s1 + 0x780] = a5\n  2084: u64 [s1 + 0xc8] = a2\n  2088: u64 [s1 + 0xc0] = a3\n  2092: u64 [s1 + 0xb8] = a4\n  2096: u64 [s1 + 0xd0] = a0\n  2100: ra = 36, jump @19\n      : @60 [@dyn 18] (gas: 10)\n  2105: a3 = u64 [s1 + 0xd0]\n  2109: a0 = u64 [s1 + 0xc8]\n  2113: a1 = u64 [s1 + 0xc0]\n  2117: a0 = a0 | a1\n  2120: a1 = 0xffffffe0\n  2130: a1 = a3 <u a1\n  2133: a2 = u64 [s1 + 0xb8]\n  2137: a1 = 0 if a2 != 0\n  2139: a1 = 0 if a0 != 0\n  2141: jump @62 if a1 != 0\n      : @61 (gas: 1)\n  2144: jump @218\n      : @62 (gas: 9)\n  2147: i32 a0 = a3 + 0x20\n  2150: u64 [s1 + 1904] = 0\n  2154: a2 = u64 [0x20000]\n  2159: u64 [s1 + 1896] = 0\n  2163: u64 [s1 + 1888] = 0\n  2167: a1 = s1 + 0x760\n  2171: u64 [s1 + 0x778] = a2\n  2175: u64 [s1 + 0xf0] = a0\n  2179: ra = 38, jump @19\n      : @63 [@dyn 19] (gas: 7)\n  2184: u64 [s1 + 1848] = 0\n  2188: u64 [s1 + 1840] = 0\n  2192: u64 [s1 + 1824] = 0x40\n  2197: a0 = s1 + 0x740\n  2201: a1 = s1 + 0x720\n  2205: u64 [s1 + 1832] = 0\n  2209: ra = 40, jump @879\n      : @64 [@dyn 20] (gas: 13)\n  2214: a1 = s1 + 0x700\n  2218: a5 = u64 [a1 + 0x58]\n  2221: a2 = u64 [a1 + 0x50]\n  2224: a3 = u64 [a1 + 0x48]\n  2227: a0 = u64 [a1 + 0x40]\n  2230: a4 = a3 | a5\n  2233: a1 = a0 | a2\n  2236: a1 = a1 | a4\n  2239: a1 = a1 >> 0x20\n  2242: a4 = a4 | a2\n  2245: a4 = a4 << 0x20\n  2248: a1 = a1 | a4\n  2251: jump @66 if a1 == 0\n      : @65 (gas: 1)\n  2254: jump @218\n      : @66 (gas: 11)\n  2257: u64 [s1 + 1816] = 0\n  2261: u64 [s1 + 1808] = 0\n  2265: u64 [s1 + 1800] = 0\n  2269: a4 = 0x3\n  2272: a1 = s1 + 0x700\n  2276: u64 [s1 + 0x700] = a4\n  2280: u64 [s1 + 0x98] = a2\n  2284: u64 [s1 + 0x90] = a3\n  2288: u64 [s1 + 0xa0] = a0\n  2292: u64 [s1 + 0x88] = a5\n  2296: ra = 42, jump @19\n      : @67 [@dyn 21] (gas: 10)\n  2301: a3 = u64 [s1 + 0xa0]\n  2305: a0 = u64 [s1 + 0x98]\n  2309: a1 = u64 [s1 + 0x88]\n  2313: a0 = a0 | a1\n  2316: a1 = 0xffffffe0\n  2326: a1 = a3 <u a1\n  2329: a2 = u64 [s1 + 0x90]\n  2333: a1 = 0 if a2 != 0\n  2335: a1 = 0 if a0 != 0\n  2337: jump @69 if a1 != 0\n      : @68 (gas: 1)\n  2340: jump @218\n      : @69 (gas: 9)\n  2343: i32 a0 = a3 + 0x20\n  2346: u64 [s1 + 1776] = 0\n  2350: u64 [s1 + 1768] = 0\n  2354: u64 [s1 + 1760] = 0\n  2358: a2 = 0x4d544b0000000000\n  2368: a1 = s1 + 0x6e0\n  2372: u64 [s1 + 0x6f8] = a2\n  2376: u64 [s1 + 0x18] = a0\n  2379: ra = 44, jump @19\n      : @70 [@dyn 22] (gas: 3)\n  2384: a0 = s1 + 0x6c0\n  2388: a1 = u64 [s1 + 0xd0]\n  2392: ra = 46, jump @17\n      : @71 [@dyn 23] (gas: 17)\n  2397: a0 = s1 + 0x600\n  2401: a3 = u64 [a0 + 0xd8]\n  2405: a1 = u64 [a0 + 0xd0]\n  2409: a2 = u64 [a0 + 0xc8]\n  2413: a0 = a3 >u 0\n  2415: a4 = a1 >u 0\n  2417: a4 = a0 if a3 != 0\n  2420: u64 [s1 + 0xe8] = a2\n  2424: a0 = a2 >u 0\n  2426: u64 [s1 + 0x58] = a1\n  2429: u64 [s1 + 0xe0] = a3\n  2433: a1 = a1 | a3\n  2436: u64 [s1 + 0x50] = a0\n  2439: u64 [s1 + 0xa8] = a4\n  2443: u64 [s1 + 0xd8] = a1\n  2447: a0 = a4 if a1 != 0\n  2450: jump @73 if a0 == 0\n      : @72 (gas: 1)\n  2453: jump @221\n      : @73 (gas: 14)\n  2456: a0 = u64 [s1 + 0x6c0]\n  2460: u64 [s1 + 0x60] = a0\n  2463: a0 = s1 + 0x1000\n  2467: u64 [a0 + 4294965400] = 0\n  2471: a0 = s1 + 0x1000\n  2475: u64 [a0 + 4294965392] = 0\n  2479: a0 = s1 + 0x1000\n  2483: u64 [a0 + 4294965384] = 0\n  2487: a1 = s1 + 0x1000\n  2491: u64 [a1 + 4294965376] = 0x3\n  2496: a0 = s1 + 0x6a0\n  2500: a1 = s1 + 0x7ff\n  2504: a1 = a1 + 0x81\n  2508: ra = 48, jump @21\n      : @74 [@dyn 24] (gas: 6)\n  2513: a4 = s1 + 0x600\n  2517: a0 = u64 [a4 + 0xb0]\n  2521: a1 = u64 [a4 + 0xa8]\n  2525: a2 = u64 [a4 + 0xa0]\n  2529: a3 = u64 [a4 + 0xb8]\n  2533: t0 = 50, jump @1378\n      : @75 [@dyn 25] (gas: 12)\n  2538: t0 = a2 <u 0x1\n  2541: ra = a1 & 0x7f\n  2544: t2 = a5 & a0\n  2547: a4 = a5 & t1\n  2550: ra = a1 if a2 != 0\n  2553: a1 = ra <u 0x20\n  2556: a5 = a5 & a3\n  2559: a2 = a1\n  2561: a2 = 0 if a4 != 0\n  2563: a0 = t2 | a5\n  2566: a2 = 0 if a0 != 0\n  2568: jump @77 if t0 == a2\n      : @76 (gas: 1)\n  2571: jump @227\n      : @77 (gas: 1)\n  2574: t0 = 52, jump @1392\n      : @78 [@dyn 26] (gas: 4)\n  2579: a0 = u64 [s1 + 0x60]\n  2582: a0 = a0 <u 0x20\n  2585: u64 [s1 + 0xb0] = a0\n  2589: jump @90 if a3 == 0\n      : @79 (gas: 11)\n  2593: u64 [s1 + 0x110] = a4\n  2597: u64 [s1 + 0x118] = ra\n  2601: u64 [s1 + 0x120] = a5\n  2605: u64 [s1 + 0x130] = t2\n  2609: u64 [s1 + 1688] = 0\n  2613: u64 [s1 + 1680] = 0\n  2617: u64 [s1 + 1672] = 0\n  2621: a1 = s1 + 0x680\n  2625: u64 [s1 + 1664] = 0x3\n  2630: a0 = 0\n  2632: ra = 54, jump @19\n      : @80 [@dyn 27] (gas: 2)\n  2637: a1 = i32 [0x2026c]\n  2642: jump @82 if a1 >u 31\n      : @81 (gas: 2)\n  2646: u32 [0x2026c] = 0x20\n  2652: fallthrough\n      : @82 (gas: 11)\n  2653: a0 = sp + 0xffffffffffffffe0\n  2656: a2 = a0 & 0xffffffffffffffe0\n  2659: u64 [s1 + 0x128] = a2\n  2663: sp = a2\n  2665: a0 = 0x20280\n  2670: i32 a0 = a0 + 0\n  2672: i32 a2 = a2 + 0\n  2674: a1 = 0x20\n  2677: ra = 0x38\n  2680: ecalli 6 // 'hash_keccak_256'\n  2682: fallthrough\n      : @83 [@dyn 28] (gas: 9)\n  2683: a0 = u64 [s1 + 0x60]\n  2686: a1 = a0 + 0x1f\n  2689: a0 = a1 <u a0\n  2692: a5 = u64 [s1 + 0xe8]\n  2696: a2 = a5 + a0\n  2699: a3 = a2 <u a5\n  2702: a3 = a0 if a0 == 0\n  2705: a4 = u64 [s1 + 0x58]\n  2708: t0 = 58, jump @1374\n      : @84 [@dyn 29] (gas: 35)\n  2713: a1 = u64 [s1 + 0xb0]\n  2717: a1 = 0 if a5 != 0\n  2719: a3 = u64 [s1 + 0xd8]\n  2723: a1 = 0 if a3 != 0\n  2725: a4 = 0 if a1 != 0\n  2727: a0 = 0 if a1 != 0\n  2729: t0 = t2 + a0\n  2732: a0 = t0 <u t2\n  2735: a5 = a2 + a0\n  2738: a4 = a4 + a5\n  2741: u64 [s1 + 0x138] = a4\n  2745: a5 = a4 ^ a2\n  2748: a3 = a4 <u a2\n  2751: a3 = a0 if a5 == 0\n  2754: u64 [s1 + 0x100] = a3\n  2758: a0 = u64 [s1 + 0x118]\n  2762: ra = a0 + 0x1f\n  2765: a4 = ra <u a0\n  2768: a3 = u64 [s1 + 0x110]\n  2772: a0 = a3 + a4\n  2775: a5 = a0 <u a3\n  2778: a5 = a4 if a4 == 0\n  2781: t1 = u64 [s1 + 0x130]\n  2785: t1 = t1 + a5\n  2788: a4 = t1 << 0x3b\n  2791: a3 = a0 >> 0x5\n  2794: a3 = a3 | a4\n  2797: a0 = a0 << 0x3b\n  2800: a4 = ra >> 0x5\n  2803: a0 = a0 | a4\n  2806: a0 = a0 + t2\n  2809: u64 [s1 + 0x118] = a0\n  2813: a0 = a0 <u t2\n  2816: t2 = t0\n  2818: t0 = 60, jump @1397\n      : @85 [@dyn 30] (gas: 16)\n  2823: a0 = u64 [s1 + 0x58]\n  2826: a0 = a4 <u a0\n  2829: a3 = u64 [s1 + 0xe0]\n  2833: a0 = a0 + a3\n  2836: a3 = a4 >> 0x5\n  2839: a4 = a0 << 0x3b\n  2842: a3 = a3 | a4\n  2845: a4 = u64 [s1 + 0x128]\n  2849: t0 = u64 [a4]\n  2851: a4 = u64 [a4 + 0x8]\n  2854: a0 = a0 >> 0x5\n  2857: a3 = 0 if a1 != 0\n  2859: a0 = 0 if a1 != 0\n  2861: a1 = reverse a4\n  2863: a4 = reverse t0\n  2865: t0 = 62, jump @1416\n      : @86 [@dyn 31] (gas: 25)\n  2870: t0 = a0 + a3\n  2873: a0 = u64 [s1 + 0x130]\n  2877: a0 = t1 <u a0\n  2880: a3 = u64 [s1 + 0x120]\n  2884: a0 = a0 + a3\n  2887: a3 = t1 >> 0x5\n  2890: a5 = a0 << 0x3b\n  2893: a3 = a3 | a5\n  2896: a0 = a0 >> 0x5\n  2899: a0 = a0 + a4\n  2902: a5 = s1 + 0x100\n  2906: a4 = u64 [a5 + 0x38]\n  2909: a3 = a3 + a1\n  2912: a1 = a3 <u a1\n  2915: a0 = a0 + a1\n  2918: a2 = a2 + a3\n  2921: u64 [a5 + 0x8] = a2\n  2924: a1 = a2 <u a3\n  2927: a0 = a0 + a1\n  2930: u64 [a5] = a0\n  2932: a0 = sp + 0xffffffffffffffe0\n  2935: t1 = a0 & 0xffffffffffffffe0\n  2938: sp = t1\n  2940: u64 [s1 + 0xf8] = t1\n  2944: fallthrough\n      : @87 (gas: 22)\n  2945: a0 = u64 [s1 + 0x118]\n  2949: a0 = t2 <u a0\n  2952: a2 = u64 [s1 + 0x110]\n  2956: a1 = a4 ^ a2\n  2959: a2 = a4 <u a2\n  2962: a2 = a0 if a1 == 0\n  2965: a5 = u64 [s1 + 0x108]\n  2969: a0 = ra <u a5\n  2972: a3 = u64 [s1 + 0x100]\n  2976: a1 = t0 ^ a3\n  2979: a3 = t0 <u a3\n  2982: a3 = a0 if a1 == 0\n  2985: a0 = ra ^ a5\n  2988: a0 = a0 | a1\n  2991: a3 = a2 if a0 == 0\n  2994: u64 [t1] = t2\n  2996: u64 [t1 + 0x8] = a4\n  2999: u64 [t1 + 0x10] = ra\n  3002: u64 [t1 + 0x18] = t0\n  3005: a0 = s1 + 0x7ff\n  3009: a0 = a0 + 0xb9\n  3013: jump @90 if a3 == 0\n      : @88 (gas: 14)\n  3016: u64 [a0 + 0] = 0\n  3018: u64 [a0 + 4294967288] = 0\n  3021: a0 = s1 + 0x1000\n  3025: u64 [a0 + 4294965416] = 0\n  3029: a0 = s1 + 0x1000\n  3033: u64 [a0 + 4294965408] = 0\n  3037: a1 = s1 + 0x7ff\n  3041: a1 = a1 + 0xa1\n  3045: a0 = t1\n  3047: u64 [s1 + 0x130] = t2\n  3051: u64 [s1 + 0x138] = a4\n  3055: u64 [s1 + 0x128] = t0\n  3059: u64 [s1 + 0x120] = ra\n  3063: ra = 64, jump @24\n      : @89 [@dyn 32] (gas: 15)\n  3068: t1 = u64 [s1 + 0xf8]\n  3072: t0 = u64 [s1 + 0x128]\n  3076: a4 = u64 [s1 + 0x138]\n  3080: t2 = u64 [s1 + 0x130]\n  3084: t2 = t2 + 0x1\n  3087: a0 = t2 <u 0x1\n  3090: a4 = a4 + a0\n  3093: a0 = t2 | a4\n  3096: a0 = a0 <u 0x1\n  3099: a1 = u64 [s1 + 0x120]\n  3103: a0 = a0 + a1\n  3106: a1 = a0 <u a1\n  3109: t0 = t0 + a1\n  3112: ra = a0\n  3114: jump @87\n      : @90 (gas: 26)\n  3117: a0 = u64 [s1 + 0xb0]\n  3121: a0 = a0 ^ 0x1\n  3124: a4 = u64 [s1 + 0xe8]\n  3128: a1 = u64 [s1 + 0x50]\n  3131: a0 = a1 if a4 != 0\n  3134: a1 = u64 [s1 + 0xa8]\n  3138: a2 = u64 [s1 + 0xd8]\n  3142: a0 = a1 if a2 != 0\n  3145: t1 = u64 [s1 + 0xe0]\n  3149: a1 = a4 | t1\n  3152: u64 [s1 + 0xb0] = a1\n  3156: a1 = u64 [s1 + 0x58]\n  3159: t2 = a1 >> 0x3f\n  3162: t1 = t1 << 0x1\n  3165: a5 = a4 >> 0x3f\n  3168: t0 = a1 << 0x1\n  3171: a3 = u64 [s1 + 0x60]\n  3174: ra = a3 >> 0x3f\n  3177: a4 = a4 << 0x1\n  3180: a2 = a3 << 0x1\n  3183: u64 [s1 + 0x48] = a2\n  3186: u64 [s1 + 0x40] = t1\n  3189: u64 [s1 + 0x38] = ra\n  3192: u64 [s1 + 0x30] = a5\n  3195: u64 [s1 + 0x50] = t0\n  3198: jump @101 if a0 == 0\n      : @91 (gas: 11)\n  3202: u64 [s1 + 0x28] = a4\n  3205: u64 [s1 + 0x20] = t2\n  3208: a3 = a3 & 0xffffffffffffffe0\n  3211: u64 [s1 + 0xa8] = a3\n  3215: u64 [s1 + 1624] = 0\n  3219: u64 [s1 + 1616] = 0\n  3223: u64 [s1 + 1608] = 0\n  3227: a1 = s1 + 0x640\n  3231: u64 [s1 + 1600] = 0x3\n  3236: a0 = 0\n  3238: ra = 66, jump @19\n      : @92 [@dyn 33] (gas: 7)\n  3243: a0 = sp + 0xffffffffffffffe0\n  3246: a0 = a0 & 0xffffffffffffffe0\n  3249: u64 [s1 + 0x118] = a0\n  3253: sp = a0\n  3255: a1 = 0x20\n  3258: a0 = 0\n  3260: ra = 68, jump @33\n      : @93 [@dyn 34] (gas: 35)\n  3265: a1 = sp + 0xffffffffffffffe0\n  3268: a1 = a1 & 0xffffffffffffffe0\n  3271: u64 [s1 + 0x110] = a1\n  3275: sp = a1\n  3277: i32 a0 = a0 + 0\n  3279: i32 a2 = a1 + 0\n  3281: a1 = 0x20\n  3284: ecalli 6 // 'hash_keccak_256'\n  3286: u64 [s1 + 312] = 0x20\n  3291: t0 = 0\n  3293: u64 [s1 + 304] = 0\n  3297: u64 [s1 + 296] = 0\n  3301: a4 = 0\n  3303: a5 = 0\n  3305: ra = 0\n  3307: u64 [s1 + 288] = 0\n  3311: a3 = u64 [s1 + 0x110]\n  3315: a0 = u64 [a3 + 0x18]\n  3318: a1 = u64 [a3 + 0x10]\n  3321: a2 = u64 [a3 + 0x8]\n  3324: t1 = u64 [a3]\n  3326: a0 = reverse a0\n  3328: a1 = reverse a1\n  3330: a3 = reverse a2\n  3332: t1 = reverse t1\n  3334: t2 = t1\n  3336: a2 = u64 [s1 + 0x118]\n  3340: u64 [a2 + 0x18] = t1\n  3343: u64 [s1 + 0xf0] = a3\n  3347: u64 [a2 + 0x10] = a3\n  3350: u64 [s1 + 0x110] = a1\n  3354: u64 [a2 + 0x8] = a1\n  3357: a3 = a0\n  3359: u64 [a2] = a0\n  3361: fallthrough\n      : @94 (gas: 25)\n  3362: u64 [s1 + 0x108] = t2\n  3366: t1 = a3\n  3368: a0 = u64 [s1 + 0xa8]\n  3372: u64 [s1 + 0x100] = a4\n  3376: a0 = a4 <u a0\n  3379: a4 = a0 ^ 0x1\n  3382: u64 [s1 + 0xf8] = a5\n  3386: a4 = 0x1 if a5 != 0\n  3389: a5 = s1 + 0x100\n  3393: a0 = u64 [a5 + 0x20]\n  3396: a0 = ra | a0\n  3399: a4 = 0x1 if a0 != 0\n  3402: a1 = u64 [s1 + 0xd0]\n  3406: a0 = u64 [a5 + 0x38]\n  3409: a1 = a1 + a0\n  3412: a3 = u64 [s1 + 0xb8]\n  3416: a3 = a3 + t0\n  3419: a2 = u64 [s1 + 0xc0]\n  3423: a0 = u64 [a5 + 0x30]\n  3426: a2 = a2 + a0\n  3429: a0 = u64 [s1 + 0xc8]\n  3433: t2 = u64 [s1 + 0x128]\n  3437: t2 = t2 + a0\n  3440: a0 = u64 [s1 + 0xb0]\n  3444: jump @103 if a4 != 0\n      : @95 (gas: 9)\n  3448: a0 = u64 [s1 + 0x138]\n  3452: a4 = a1 <u a0\n  3455: a3 = a3 + a4\n  3458: a0 = t0\n  3460: t0 = a3 ^ t0\n  3463: u64 [s1 + 0xe0] = a0\n  3467: a5 = a3 <u a0\n  3470: a5 = a4 if t0 == 0\n  3473: t0 = 70, jump @1376\n      : @96 [@dyn 35] (gas: 2)\n  3478: u64 [s1 + 0xe8] = t1\n  3482: jump @98 if a0 == 0\n      : @97 (gas: 1)\n  3485: jump @218\n      : @98 (gas: 3)\n  3488: a0 = s1 + 0x1c0\n  3492: u64 [s1 + 0xd8] = ra\n  3496: ra = 72, jump @17\n      : @99 [@dyn 36] (gas: 14)\n  3501: a0 = u64 [s1 + 0x1d8]\n  3505: a1 = u64 [s1 + 0x1d0]\n  3509: a2 = u64 [s1 + 0x1c8]\n  3513: a3 = u64 [s1 + 0x1c0]\n  3517: a4 = s1 + 0x7ff\n  3521: a4 = a4 + 0xb9\n  3525: u64 [a4 + 0x20] = a0\n  3528: u64 [a4 + 0x18] = a1\n  3531: u64 [a4 + 0x10] = a2\n  3534: u64 [a4 + 0x8] = a3\n  3537: a1 = s1 + 0x7ff\n  3541: a1 = a1 + 0xc1\n  3545: a0 = u64 [s1 + 0x118]\n  3549: ra = 74, jump @24\n      : @100 [@dyn 37] (gas: 56)\n  3554: t2 = u64 [s1 + 0xe8]\n  3558: t2 = t2 + 0x1\n  3561: a0 = t2 <u 0x1\n  3564: t0 = u64 [s1 + 0x110]\n  3568: t0 = t0 + a0\n  3571: a0 = t2 | t0\n  3574: a0 = a0 <u 0x1\n  3577: a1 = u64 [s1 + 0xf0]\n  3581: t1 = a1 + a0\n  3584: a1 = t1 <u a1\n  3587: a0 = u64 [s1 + 0x108]\n  3591: a0 = a0 + a1\n  3594: a1 = u64 [s1 + 0x138]\n  3598: a2 = a1 + 0x20\n  3601: u64 [s1 + 0x108] = a2\n  3605: a3 = a2 <u a1\n  3608: a1 = u64 [s1 + 0xe0]\n  3612: a2 = a1 + a3\n  3615: u64 [s1 + 0xe8] = a2\n  3619: a4 = a2 <u a1\n  3622: a4 = a3 if a3 == 0\n  3625: a1 = u64 [s1 + 0x130]\n  3629: ra = a1 + a4\n  3632: a4 = ra <u a1\n  3635: a1 = u64 [s1 + 0x128]\n  3639: a1 = a1 + a4\n  3642: u64 [s1 + 0x128] = a1\n  3646: a1 = u64 [s1 + 0x100]\n  3650: a4 = a1 + 0x20\n  3653: a5 = a4 <u a1\n  3656: a2 = u64 [s1 + 0xf8]\n  3660: a1 = a2 + a5\n  3663: a2 = a1 <u a2\n  3666: a2 = a5 if a5 == 0\n  3669: a3 = u64 [s1 + 0xd8]\n  3673: a2 = a2 + a3\n  3676: a5 = a2 <u a3\n  3679: a3 = u64 [s1 + 0x120]\n  3683: a3 = a3 + a5\n  3686: u64 [s1 + 0x120] = a3\n  3690: u64 [s1 + 0x110] = t0\n  3694: a5 = u64 [s1 + 0x118]\n  3698: u64 [a5 + 0x8] = t0\n  3701: a3 = t2\n  3703: u64 [a5] = t2\n  3705: u64 [a5 + 0x10] = t1\n  3708: t2 = a0\n  3710: u64 [a5 + 0x18] = a0\n  3713: u64 [s1 + 0xf0] = t1\n  3717: a0 = u64 [s1 + 0x108]\n  3721: u64 [s1 + 0x138] = a0\n  3725: t0 = u64 [s1 + 0xe8]\n  3729: u64 [s1 + 0x130] = ra\n  3733: a5 = a1\n  3735: ra = a2\n  3737: jump @94\n      : @101 (gas: 4)\n  3740: a0 = a3 | a1\n  3743: a1 = u64 [s1 + 0xb0]\n  3747: a0 = a0 | a1\n  3750: jump @118 if a0 != 0\n      : @102 (gas: 9)\n  3754: u64 [s1 + 288] = 0\n  3758: u64 [s1 + 280] = 0\n  3762: u64 [s1 + 296] = 0\n  3766: u64 [s1 + 304] = 0\n  3770: t1 = u64 [s1 + 0x40]\n  3773: t0 = u64 [s1 + 0x38]\n  3776: a1 = u64 [s1 + 0x30]\n  3779: a5 = u64 [s1 + 0x50]\n  3782: jump @120\n      : @103 (gas: 10)\n  3785: ra = t0\n  3787: t1 = u64 [s1 + 0x60]\n  3790: a4 = u64 [s1 + 0xa8]\n  3794: a4 = a4 ^ t1\n  3797: a5 = u64 [s1 + 0x58]\n  3800: a4 = a4 | a5\n  3803: a4 = a4 | a0\n  3806: t0 = u64 [s1 + 0x28]\n  3809: a5 = u64 [s1 + 0x50]\n  3812: jump @117 if a4 == 0\n      : @104 (gas: 7)\n  3816: a0 = u64 [s1 + 0x138]\n  3820: a4 = a1 <u a0\n  3823: a3 = a3 + a4\n  3826: t0 = a3 ^ ra\n  3829: a5 = a3 <u ra\n  3832: a5 = a4 if t0 == 0\n  3835: t0 = 76, jump @1376\n      : @105 [@dyn 38] (gas: 1)\n  3840: jump @107 if a0 == 0\n      : @106 (gas: 1)\n  3843: jump @218\n      : @107 (gas: 2)\n  3846: a0 = s1 + 0x620\n  3850: ra = 78, jump @17\n      : @108 [@dyn 39] (gas: 11)\n  3855: a1 = s1 + 0x600\n  3859: a0 = u64 [a1 + 0x38]\n  3862: u64 [s1 + 0x130] = a0\n  3866: a0 = u64 [a1 + 0x30]\n  3869: u64 [s1 + 0x128] = a0\n  3873: a0 = u64 [a1 + 0x28]\n  3876: u64 [s1 + 0x120] = a0\n  3880: a0 = u64 [a1 + 0x20]\n  3883: u64 [s1 + 0x110] = a0\n  3887: a0 = u64 [s1 + 0x60]\n  3890: t0 = 80, jump @1410\n      : @109 [@dyn 40] (gas: 1)\n  3895: ra = 82, jump @1427\n      : @110 [@dyn 41] (gas: 6)\n  3900: u64 [s1 + 0x108] = a0\n  3904: u64 [s1 + 0xf0] = a1\n  3908: a0 = 0xffffffffffffffff\n  3911: a1 = 0xffffffffffffffff\n  3914: a2 = u64 [s1 + 0x138]\n  3918: ra = 84, jump @1422\n      : @111 [@dyn 42] (gas: 1)\n  3923: t0 = 86, jump @1402\n      : @112 [@dyn 43] (gas: 1)\n  3928: ra = 88, jump @1422\n      : @113 [@dyn 44] (gas: 1)\n  3933: t0 = 90, jump @1364\n      : @114 [@dyn 45] (gas: 2)\n  3938: a2 = u64 [s1 + 0x120]\n  3942: t0 = 92, jump @1395\n      : @115 [@dyn 46] (gas: 8)\n  3947: u64 [a4 + 0x40] = a3\n  3950: u64 [a4 + 0x38] = a2\n  3953: u64 [a4 + 0x30] = a1\n  3956: u64 [a4 + 0x28] = a0\n  3959: a1 = s1 + 0x7ff\n  3963: a1 = a1 + 0xe1\n  3967: a0 = u64 [s1 + 0x118]\n  3971: ra = 94, jump @24\n      : @116 [@dyn 47] (gas: 3)\n  3976: a5 = u64 [s1 + 0x50]\n  3979: t0 = u64 [s1 + 0x28]\n  3982: fallthrough\n      : @117 (gas: 25)\n  3983: a0 = u64 [s1 + 0x20]\n  3986: a1 = u64 [s1 + 0x40]\n  3989: a0 = a0 | a1\n  3992: a1 = u64 [s1 + 0x30]\n  3995: a1 = a1 | a5\n  3998: a2 = u64 [s1 + 0x38]\n  4001: a2 = t0 | a2\n  4004: a3 = u64 [s1 + 0x48]\n  4007: a3 = a3 + 0x1\n  4010: a5 = s1 + 0x7ff\n  4014: a5 = a5 + 0xb9\n  4018: u64 [a5 + 96] = 0\n  4021: u64 [a5 + 88] = 0\n  4024: u64 [a5 + 80] = 0\n  4027: u64 [a5 + 72] = 0x3\n  4031: u64 [a5 + 0x68] = a3\n  4034: u64 [a5 + 0x70] = a2\n  4037: u64 [a5 + 0x78] = a1\n  4040: u64 [a5 + 0x80] = a0\n  4044: a0 = s1 + 0x7ff\n  4048: a0 = a0 + 0x101\n  4052: a1 = s1 + 0x7ff\n  4056: a1 = a1 + 0x121\n  4060: ra = 0x6e\n  4063: jump @24\n      : @118 (gas: 5)\n  4066: a0 = s1 + 0x660\n  4070: a1 = u64 [s1 + 0xf0]\n  4074: u64 [s1 + 0x20] = t2\n  4077: u64 [s1 + 0x28] = a4\n  4080: ra = 96, jump @17\n      : @119 [@dyn 48] (gas: 17)\n  4085: a5 = u64 [s1 + 0x50]\n  4088: a4 = u64 [s1 + 0x28]\n  4091: a1 = u64 [s1 + 0x30]\n  4094: t0 = u64 [s1 + 0x38]\n  4097: t1 = u64 [s1 + 0x40]\n  4100: t2 = u64 [s1 + 0x20]\n  4103: a3 = u64 [s1 + 0x60]\n  4106: a2 = s1 + 0x600\n  4110: a0 = u64 [a2 + 0x78]\n  4113: u64 [s1 + 0x130] = a0\n  4117: a0 = u64 [a2 + 0x70]\n  4120: u64 [s1 + 0x128] = a0\n  4124: a0 = u64 [a2 + 0x68]\n  4127: u64 [s1 + 0x118] = a0\n  4131: a0 = u64 [a2 + 0x60]\n  4134: u64 [s1 + 0x120] = a0\n  4138: fallthrough\n      : @120 (gas: 7)\n  4139: a0 = a5 | a1\n  4142: u64 [s1 + 0x110] = a0\n  4146: a0 = t1 | t2\n  4149: u64 [s1 + 0x108] = a0\n  4153: a0 = a4 | t0\n  4156: u64 [s1 + 0x100] = a0\n  4160: t0 = 98, jump @1418\n      : @121 [@dyn 49] (gas: 1)\n  4165: ra = 100, jump @1427\n      : @122 [@dyn 50] (gas: 7)\n  4170: u64 [s1 + 0xe0] = a0\n  4174: u64 [s1 + 0xf8] = a1\n  4178: a0 = u64 [s1 + 0x60]\n  4181: i32 a2 = a0 << 0x3\n  4184: a0 = 0xffffffffffffffff\n  4187: a1 = 0xffffffffffffffff\n  4190: ra = 102, jump @1422\n      : @123 [@dyn 51] (gas: 10)\n  4195: u64 [s1 + 0xf0] = a0\n  4199: u64 [s1 + 0xe8] = a1\n  4203: a1 = u64 [s1 + 0xe0]\n  4207: a0 = a0 | a1\n  4210: u64 [s1 + 0xe0] = a0\n  4214: a0 = u64 [s1 + 0x138]\n  4218: i32 a2 = a0 + 0xffffffffffffff80\n  4221: a0 = 0xffffffffffffffff\n  4224: a1 = 0xffffffffffffffff\n  4227: ra = 104, jump @1422\n      : @124 [@dyn 52] (gas: 7)\n  4232: a4 = u64 [s1 + 0x138]\n  4236: a2 = a4 <u 0x80\n  4240: a3 = u64 [s1 + 0xe0]\n  4244: a0 = a3 if a2 != 0\n  4247: a5 = u64 [s1 + 0xe8]\n  4251: a3 = u64 [s1 + 0xf8]\n  4255: t0 = 106, jump @1420\n      : @125 [@dyn 53] (gas: 2)\n  4260: a4 = u64 [s1 + 0xf0]\n  4264: t0 = 108, jump @1377\n      : @126 [@dyn 54] (gas: 24)\n  4269: a4 = u64 [s1 + 0x48]\n  4272: a0 = a0 | a4\n  4275: a5 = s1 + 0x100\n  4279: a4 = u64 [a5]\n  4281: a1 = a1 | a4\n  4284: a4 = u64 [a5 + 0x8]\n  4287: a3 = a3 | a4\n  4290: a4 = u64 [a5 + 0x10]\n  4293: a2 = a2 | a4\n  4296: a5 = s1 + 0x7ff\n  4300: a5 = a5 + 0xb9\n  4304: u64 [a5 + 136] = 0x3\n  4309: u64 [a5 + 0xb8] = a2\n  4313: u64 [a5 + 0xc0] = a3\n  4317: u64 [a5 + 0xb0] = a1\n  4321: u64 [a5 + 0xa8] = a0\n  4325: u64 [a5 + 160] = 0\n  4329: u64 [a5 + 152] = 0\n  4333: u64 [a5 + 144] = 0\n  4337: a0 = s1 + 0x7ff\n  4341: a0 = a0 + 0x141\n  4345: a1 = s1 + 0x7ff\n  4349: a1 = a1 + 0x161\n  4353: ra = 110, jump @24\n      : @127 [@dyn 55] (gas: 3)\n  4358: a0 = s1 + 0x600\n  4362: a1 = u64 [s1 + 0xa0]\n  4366: ra = 112, jump @17\n      : @128 [@dyn 56] (gas: 17)\n  4371: a0 = s1 + 0x600\n  4375: a3 = u64 [a0 + 0x18]\n  4378: a2 = u64 [a0 + 0x10]\n  4381: a1 = u64 [a0 + 0x8]\n  4384: a0 = a3 >u 0\n  4386: a4 = a2 >u 0\n  4388: a4 = a0 if a3 != 0\n  4391: u64 [s1 + 0xb8] = a1\n  4395: a0 = a1 >u 0\n  4397: u64 [s1 + 0xb0] = a2\n  4401: u64 [s1 + 0xa8] = a3\n  4405: a2 = a2 | a3\n  4408: u64 [s1 + 0xd8] = a0\n  4412: u64 [s1 + 0xe0] = a4\n  4416: u64 [s1 + 0xf0] = a2\n  4420: a0 = a4 if a2 != 0\n  4423: jump @233 if a0 != 0\n      : @129 (gas: 12)\n  4427: a0 = u64 [s1 + 0x600]\n  4431: u64 [s1 + 0xc0] = a0\n  4435: a1 = s1 + 0x7ff\n  4439: a1 = a1 + 0xb9\n  4443: u64 [a1 + 224] = 0\n  4447: u64 [a1 + 216] = 0\n  4451: u64 [a1 + 208] = 0\n  4455: u64 [a1 + 200] = 0x4\n  4460: a0 = s1 + 0x5e0\n  4464: a1 = s1 + 0x7ff\n  4468: a1 = a1 + 0x181\n  4472: ra = 114, jump @21\n      : @130 [@dyn 57] (gas: 6)\n  4477: a4 = s1 + 0x500\n  4481: a0 = u64 [a4 + 0xf0]\n  4485: a1 = u64 [a4 + 0xe8]\n  4489: a2 = u64 [a4 + 0xe0]\n  4493: a3 = u64 [a4 + 0xf8]\n  4497: t0 = 116, jump @1378\n      : @131 [@dyn 58] (gas: 12)\n  4502: t0 = a2 <u 0x1\n  4505: ra = a1 & 0x7f\n  4508: t2 = a5 & a0\n  4511: a4 = a5 & t1\n  4514: ra = a1 if a2 != 0\n  4517: a1 = ra <u 0x20\n  4520: a5 = a5 & a3\n  4523: a2 = a1\n  4525: a2 = 0 if a4 != 0\n  4527: a0 = t2 | a5\n  4530: a2 = 0 if a0 != 0\n  4532: jump @239 if t0 != a2\n      : @132 (gas: 1)\n  4536: t0 = 118, jump @1392\n      : @133 [@dyn 59] (gas: 4)\n  4541: a0 = u64 [s1 + 0xc0]\n  4545: a0 = a0 <u 0x20\n  4548: u64 [s1 + 0xe8] = a0\n  4552: jump @145 if a3 == 0\n      : @134 (gas: 11)\n  4556: u64 [s1 + 0x110] = a4\n  4560: u64 [s1 + 0x118] = ra\n  4564: u64 [s1 + 0x120] = a5\n  4568: u64 [s1 + 0x130] = t2\n  4572: u64 [s1 + 1496] = 0\n  4576: u64 [s1 + 1488] = 0\n  4580: u64 [s1 + 1480] = 0\n  4584: a1 = s1 + 0x5c0\n  4588: u64 [s1 + 1472] = 0x4\n  4593: a0 = 0\n  4595: ra = 120, jump @19\n      : @135 [@dyn 60] (gas: 2)\n  4600: a1 = i32 [0x2026c]\n  4605: jump @137 if a1 >u 31\n      : @136 (gas: 2)\n  4609: u32 [0x2026c] = 0x20\n  4615: fallthrough\n      : @137 (gas: 11)\n  4616: a0 = sp + 0xffffffffffffffe0\n  4619: a2 = a0 & 0xffffffffffffffe0\n  4622: u64 [s1 + 0x128] = a2\n  4626: sp = a2\n  4628: a0 = 0x20280\n  4633: i32 a0 = a0 + 0\n  4635: i32 a2 = a2 + 0\n  4637: a1 = 0x20\n  4640: ra = 0x7a\n  4643: ecalli 6 // 'hash_keccak_256'\n  4645: fallthrough\n      : @138 [@dyn 61] (gas: 9)\n  4646: a0 = u64 [s1 + 0xc0]\n  4650: a1 = a0 + 0x1f\n  4653: a0 = a1 <u a0\n  4656: a5 = u64 [s1 + 0xb8]\n  4660: a2 = a5 + a0\n  4663: a3 = a2 <u a5\n  4666: a3 = a0 if a0 == 0\n  4669: a4 = u64 [s1 + 0xb0]\n  4673: t0 = 124, jump @1374\n      : @139 [@dyn 62] (gas: 35)\n  4678: a1 = u64 [s1 + 0xe8]\n  4682: a1 = 0 if a5 != 0\n  4684: a3 = u64 [s1 + 0xf0]\n  4688: a1 = 0 if a3 != 0\n  4690: a4 = 0 if a1 != 0\n  4692: a0 = 0 if a1 != 0\n  4694: t0 = t2 + a0\n  4697: a0 = t0 <u t2\n  4700: a5 = a2 + a0\n  4703: a4 = a4 + a5\n  4706: u64 [s1 + 0x138] = a4\n  4710: a5 = a4 ^ a2\n  4713: a3 = a4 <u a2\n  4716: a3 = a0 if a5 == 0\n  4719: u64 [s1 + 0x100] = a3\n  4723: a0 = u64 [s1 + 0x118]\n  4727: ra = a0 + 0x1f\n  4730: a4 = ra <u a0\n  4733: a3 = u64 [s1 + 0x110]\n  4737: a0 = a3 + a4\n  4740: a5 = a0 <u a3\n  4743: a5 = a4 if a4 == 0\n  4746: t1 = u64 [s1 + 0x130]\n  4750: t1 = t1 + a5\n  4753: a4 = t1 << 0x3b\n  4756: a3 = a0 >> 0x5\n  4759: a3 = a3 | a4\n  4762: a0 = a0 << 0x3b\n  4765: a4 = ra >> 0x5\n  4768: a0 = a0 | a4\n  4771: a0 = a0 + t2\n  4774: u64 [s1 + 0x118] = a0\n  4778: a0 = a0 <u t2\n  4781: t2 = t0\n  4783: t0 = 126, jump @1397\n      : @140 [@dyn 63] (gas: 16)\n  4788: a0 = u64 [s1 + 0xb0]\n  4792: a0 = a4 <u a0\n  4795: a3 = u64 [s1 + 0xa8]\n  4799: a0 = a0 + a3\n  4802: a3 = a4 >> 0x5\n  4805: a4 = a0 << 0x3b\n  4808: a3 = a3 | a4\n  4811: a4 = u64 [s1 + 0x128]\n  4815: t0 = u64 [a4]\n  4817: a4 = u64 [a4 + 0x8]\n  4820: a0 = a0 >> 0x5\n  4823: a3 = 0 if a1 != 0\n  4825: a0 = 0 if a1 != 0\n  4827: a1 = reverse a4\n  4829: a4 = reverse t0\n  4831: t0 = 128, jump @1416\n      : @141 [@dyn 64] (gas: 25)\n  4837: t0 = a0 + a3\n  4840: a0 = u64 [s1 + 0x130]\n  4844: a0 = t1 <u a0\n  4847: a3 = u64 [s1 + 0x120]\n  4851: a0 = a0 + a3\n  4854: a3 = t1 >> 0x5\n  4857: a5 = a0 << 0x3b\n  4860: a3 = a3 | a5\n  4863: a0 = a0 >> 0x5\n  4866: a0 = a0 + a4\n  4869: a5 = s1 + 0x100\n  4873: a4 = u64 [a5 + 0x38]\n  4876: a3 = a3 + a1\n  4879: a1 = a3 <u a1\n  4882: a0 = a0 + a1\n  4885: a2 = a2 + a3\n  4888: u64 [a5 + 0x8] = a2\n  4891: a1 = a2 <u a3\n  4894: a0 = a0 + a1\n  4897: u64 [a5] = a0\n  4899: a0 = sp + 0xffffffffffffffe0\n  4902: t1 = a0 & 0xffffffffffffffe0\n  4905: sp = t1\n  4907: u64 [s1 + 0xf8] = t1\n  4911: fallthrough\n      : @142 (gas: 22)\n  4912: a0 = u64 [s1 + 0x118]\n  4916: a0 = t2 <u a0\n  4919: a2 = u64 [s1 + 0x110]\n  4923: a1 = a4 ^ a2\n  4926: a2 = a4 <u a2\n  4929: a2 = a0 if a1 == 0\n  4932: a5 = u64 [s1 + 0x108]\n  4936: a0 = ra <u a5\n  4939: a3 = u64 [s1 + 0x100]\n  4943: a1 = t0 ^ a3\n  4946: a3 = t0 <u a3\n  4949: a3 = a0 if a1 == 0\n  4952: a0 = ra ^ a5\n  4955: a0 = a0 | a1\n  4958: a3 = a2 if a0 == 0\n  4961: u64 [t1] = t2\n  4963: u64 [t1 + 0x8] = a4\n  4966: u64 [t1 + 0x10] = ra\n  4969: u64 [t1 + 0x18] = t0\n  4972: a0 = s1 + 0x7ff\n  4976: a0 = a0 + 0xb9\n  4980: jump @145 if a3 == 0\n      : @143 (gas: 12)\n  4983: u64 [a0 + 256] = 0\n  4987: u64 [a0 + 248] = 0\n  4991: u64 [a0 + 240] = 0\n  4995: u64 [a0 + 232] = 0\n  4999: a1 = s1 + 0x7ff\n  5003: a1 = a1 + 0x1a1\n  5007: a0 = t1\n  5009: u64 [s1 + 0x130] = t2\n  5013: u64 [s1 + 0x138] = a4\n  5017: u64 [s1 + 0x128] = t0\n  5021: u64 [s1 + 0x120] = ra\n  5025: ra = 130, jump @24\n      : @144 [@dyn 65] (gas: 15)\n  5031: t1 = u64 [s1 + 0xf8]\n  5035: t0 = u64 [s1 + 0x128]\n  5039: a4 = u64 [s1 + 0x138]\n  5043: t2 = u64 [s1 + 0x130]\n  5047: t2 = t2 + 0x1\n  5050: a0 = t2 <u 0x1\n  5053: a4 = a4 + a0\n  5056: a0 = t2 | a4\n  5059: a0 = a0 <u 0x1\n  5062: a1 = u64 [s1 + 0x120]\n  5066: a0 = a0 + a1\n  5069: a1 = a0 <u a1\n  5072: t0 = t0 + a1\n  5075: ra = a0\n  5077: jump @142\n      : @145 (gas: 9)\n  5080: a0 = u64 [s1 + 0xe8]\n  5084: a0 = a0 ^ 0x1\n  5087: a2 = u64 [s1 + 0xb8]\n  5091: a1 = u64 [s1 + 0xd8]\n  5095: a0 = a1 if a2 != 0\n  5098: a1 = u64 [s1 + 0xe0]\n  5102: a3 = u64 [s1 + 0xf0]\n  5106: a0 = a1 if a3 != 0\n  5109: jump @155 if a0 == 0\n      : @146 (gas: 10)\n  5113: a0 = u64 [s1 + 0xc0]\n  5117: a0 = a0 & 0xffffffffffffffe0\n  5120: u64 [s1 + 0xc8] = a0\n  5124: u64 [s1 + 1432] = 0\n  5128: u64 [s1 + 1424] = 0\n  5132: u64 [s1 + 1416] = 0\n  5136: a1 = s1 + 0x580\n  5140: u64 [s1 + 1408] = 0x4\n  5145: a0 = 0\n  5147: ra = 132, jump @19\n      : @147 [@dyn 66] (gas: 7)\n  5153: a0 = sp + 0xffffffffffffffe0\n  5156: a0 = a0 & 0xffffffffffffffe0\n  5159: u64 [s1 + 0x120] = a0\n  5163: sp = a0\n  5165: a1 = 0x20\n  5168: a0 = 0\n  5170: ra = 134, jump @33\n      : @148 [@dyn 67] (gas: 39)\n  5176: a1 = sp + 0xffffffffffffffe0\n  5179: a1 = a1 & 0xffffffffffffffe0\n  5182: u64 [s1 + 0x118] = a1\n  5186: sp = a1\n  5188: i32 a0 = a0 + 0\n  5190: i32 a2 = a1 + 0\n  5192: a1 = 0x20\n  5195: ecalli 6 // 'hash_keccak_256'\n  5197: u64 [s1 + 312] = 0x20\n  5202: a5 = 0\n  5204: u64 [s1 + 296] = 0\n  5208: u64 [s1 + 304] = 0\n  5212: a4 = 0\n  5214: a3 = 0\n  5216: a2 = 0\n  5218: t1 = 0\n  5220: a0 = u64 [s1 + 0x118]\n  5224: t0 = u64 [a0 + 0x18]\n  5227: a1 = u64 [a0 + 0x10]\n  5230: ra = u64 [a0 + 0x8]\n  5233: a0 = u64 [a0]\n  5235: u64 [s1 + 0x110] = a0\n  5239: a0 = reverse t0\n  5241: u64 [s1 + 0x118] = a0\n  5245: t2 = reverse a1\n  5247: t0 = reverse ra\n  5249: a0 = u64 [s1 + 0x110]\n  5253: a1 = reverse a0\n  5255: ra = a1\n  5257: a0 = u64 [s1 + 0x120]\n  5261: u64 [a0 + 0x18] = a1\n  5264: a1 = t0\n  5266: u64 [s1 + 0xd8] = a1\n  5270: u64 [a0 + 0x10] = a1\n  5273: u64 [s1 + 0x108] = t2\n  5277: u64 [a0 + 0x8] = t2\n  5280: a1 = u64 [s1 + 0x118]\n  5284: u64 [a0] = a1\n  5286: fallthrough\n      : @149 (gas: 24)\n  5287: u64 [s1 + 0x100] = ra\n  5291: a0 = u64 [s1 + 0xc8]\n  5295: u64 [s1 + 0xf0] = a4\n  5299: a0 = a4 <u a0\n  5302: a4 = a0 ^ 0x1\n  5305: u64 [s1 + 0xe8] = a3\n  5309: a4 = 0x1 if a3 != 0\n  5312: u64 [s1 + 0x110] = t1\n  5316: u64 [s1 + 0xf8] = a2\n  5320: a0 = a2 | t1\n  5323: a4 = 0x1 if a0 != 0\n  5326: a0 = u64 [s1 + 0xa0]\n  5330: a1 = u64 [s1 + 0x138]\n  5334: a1 = a1 + a0\n  5337: a3 = u64 [s1 + 0x90]\n  5341: u64 [s1 + 0xe0] = a5\n  5345: t0 = a3 + a5\n  5348: t2 = u64 [s1 + 0x98]\n  5352: a2 = u64 [s1 + 0x128]\n  5356: a2 = a2 + t2\n  5359: t1 = u64 [s1 + 0x88]\n  5363: a5 = u64 [s1 + 0x130]\n  5367: t1 = t1 + a5\n  5370: jump @157 if a4 != 0\n      : @150 (gas: 6)\n  5374: ra = a1 <u a0\n  5377: a4 = t0 + ra\n  5380: t0 = a4 ^ a3\n  5383: a5 = a4 <u a3\n  5386: a5 = ra if t0 == 0\n  5389: t0 = 136, jump @1383\n      : @151 [@dyn 68] (gas: 1)\n  5395: jump @218 if a0 != 0\n      : @152 (gas: 2)\n  5399: a0 = s1 + 0x260\n  5403: ra = 138, jump @17\n      : @153 [@dyn 69] (gas: 16)\n  5409: a4 = s1 + 0x200\n  5413: a0 = u64 [a4 + 0x78]\n  5416: a1 = u64 [a4 + 0x70]\n  5419: a2 = u64 [a4 + 0x68]\n  5422: a3 = u64 [a4 + 0x60]\n  5425: a4 = s1 + 0x7ff\n  5429: a4 = a4 + 0xb9\n  5433: a5 = a4 + 0x100\n  5437: u64 [a5 + 0x20] = a0\n  5440: u64 [a5 + 0x18] = a1\n  5443: u64 [a5 + 0x10] = a2\n  5446: u64 [a5 + 0x8] = a3\n  5449: a1 = s1 + 0x7ff\n  5453: a1 = a1 + 0x1c1\n  5457: a0 = u64 [s1 + 0x120]\n  5461: ra = 140, jump @24\n      : @154 [@dyn 70] (gas: 54)\n  5467: ra = u64 [s1 + 0x118]\n  5471: ra = ra + 0x1\n  5474: a0 = ra <u 0x1\n  5477: a3 = u64 [s1 + 0x108]\n  5481: a3 = a3 + a0\n  5484: a0 = ra | a3\n  5487: a0 = a0 <u 0x1\n  5490: a1 = u64 [s1 + 0xd8]\n  5494: a0 = a0 + a1\n  5497: a1 = a0 <u a1\n  5500: t0 = u64 [s1 + 0x100]\n  5504: t0 = t0 + a1\n  5507: a1 = u64 [s1 + 0x138]\n  5511: a2 = a1 + 0x20\n  5514: u64 [s1 + 0x100] = a2\n  5518: a1 = a2 <u a1\n  5521: a2 = u64 [s1 + 0xe0]\n  5525: a4 = a2 + a1\n  5528: u64 [s1 + 0xd0] = a4\n  5532: a4 = a4 <u a2\n  5535: a4 = a1 if a1 == 0\n  5538: a1 = u64 [s1 + 0x128]\n  5542: t2 = a1 + a4\n  5545: a4 = t2 <u a1\n  5548: a1 = u64 [s1 + 0x130]\n  5552: a1 = a1 + a4\n  5555: u64 [s1 + 0x130] = a1\n  5559: a1 = u64 [s1 + 0xf0]\n  5563: a4 = a1 + 0x20\n  5566: a5 = a4 <u a1\n  5569: a2 = u64 [s1 + 0xe8]\n  5573: a1 = a2 + a5\n  5576: a2 = a1 <u a2\n  5579: a2 = a5 if a5 == 0\n  5582: a5 = u64 [s1 + 0xf8]\n  5586: a2 = a2 + a5\n  5589: a5 = a2 <u a5\n  5592: t1 = u64 [s1 + 0x110]\n  5596: t1 = t1 + a5\n  5599: u64 [s1 + 0x108] = a3\n  5603: a5 = u64 [s1 + 0x120]\n  5607: u64 [a5 + 0x8] = a3\n  5610: u64 [s1 + 0x118] = ra\n  5614: u64 [a5] = ra\n  5616: u64 [a5 + 0x10] = a0\n  5619: ra = t0\n  5621: u64 [a5 + 0x18] = t0\n  5624: u64 [s1 + 0xd8] = a0\n  5628: a0 = u64 [s1 + 0x100]\n  5632: u64 [s1 + 0x138] = a0\n  5636: a5 = u64 [s1 + 0xd0]\n  5640: u64 [s1 + 0x128] = t2\n  5644: a3 = a1\n  5646: jump @149\n      : @155 (gas: 7)\n  5649: a3 = u64 [s1 + 0xc0]\n  5653: a4 = u64 [s1 + 0xb0]\n  5657: a0 = a3 | a4\n  5660: a5 = u64 [s1 + 0xa8]\n  5664: a1 = a2 | a5\n  5667: a0 = a0 | a1\n  5670: jump @171 if a0 != 0\n      : @156 (gas: 5)\n  5674: u64 [s1 + 288] = 0\n  5678: u64 [s1 + 280] = 0\n  5682: u64 [s1 + 296] = 0\n  5686: u64 [s1 + 304] = 0\n  5690: jump @173\n      : @157 (gas: 12)\n  5693: a4 = u64 [s1 + 0xc8]\n  5697: a5 = u64 [s1 + 0xc0]\n  5701: a4 = a4 ^ a5\n  5704: ra = u64 [s1 + 0xb0]\n  5708: a4 = a4 | ra\n  5711: u64 [s1 + 0x138] = a4\n  5715: a5 = u64 [s1 + 0xb8]\n  5719: a4 = u64 [s1 + 0xa8]\n  5723: a5 = a5 | a4\n  5726: a4 = u64 [s1 + 0x138]\n  5730: a4 = a4 | a5\n  5733: jump @170 if a4 == 0\n      : @158 (gas: 6)\n  5737: ra = a1 <u a0\n  5740: a4 = t0 + ra\n  5743: t0 = a4 ^ a3\n  5746: a5 = a4 <u a3\n  5749: a5 = ra if t0 == 0\n  5752: t0 = 142, jump @1383\n      : @159 [@dyn 71] (gas: 1)\n  5758: jump @218 if a0 != 0\n      : @160 (gas: 2)\n  5762: a0 = s1 + 0x560\n  5766: ra = 144, jump @17\n      : @161 [@dyn 72] (gas: 11)\n  5772: a1 = s1 + 0x500\n  5776: a0 = u64 [a1 + 0x78]\n  5779: u64 [s1 + 0x130] = a0\n  5783: a0 = u64 [a1 + 0x70]\n  5786: u64 [s1 + 0x128] = a0\n  5790: a0 = u64 [a1 + 0x68]\n  5793: u64 [s1 + 0x118] = a0\n  5797: a0 = u64 [a1 + 0x60]\n  5800: u64 [s1 + 0x110] = a0\n  5804: a0 = u64 [s1 + 0xc0]\n  5808: t0 = 146, jump @1410\n      : @162 [@dyn 73] (gas: 1)\n  5814: ra = 148, jump @1427\n      : @163 [@dyn 74] (gas: 6)\n  5820: u64 [s1 + 0x108] = a0\n  5824: u64 [s1 + 0xf0] = a1\n  5828: a0 = 0xffffffffffffffff\n  5831: a1 = 0xffffffffffffffff\n  5834: a2 = u64 [s1 + 0x138]\n  5838: ra = 150, jump @1422\n      : @164 [@dyn 75] (gas: 1)\n  5844: t0 = 152, jump @1402\n      : @165 [@dyn 76] (gas: 1)\n  5850: ra = 154, jump @1422\n      : @166 [@dyn 77] (gas: 1)\n  5856: t0 = 156, jump @1364\n      : @167 [@dyn 78] (gas: 2)\n  5862: a2 = u64 [s1 + 0x118]\n  5866: t0 = 158, jump @1395\n      : @168 [@dyn 79] (gas: 9)\n  5872: a5 = a4 + 0x100\n  5876: u64 [a5 + 0x40] = a3\n  5879: u64 [a5 + 0x38] = a2\n  5882: u64 [a5 + 0x30] = a1\n  5885: u64 [a5 + 0x28] = a0\n  5888: a1 = s1 + 0x7ff\n  5892: a1 = a1 + 0x1e1\n  5896: a0 = u64 [s1 + 0x120]\n  5900: ra = 160, jump @24\n      : @169 [@dyn 80] (gas: 2)\n  5906: ra = u64 [s1 + 0xb0]\n  5910: fallthrough\n      : @170 (gas: 31)\n  5911: a0 = ra >> 0x3f\n  5914: a1 = u64 [s1 + 0xa8]\n  5918: a1 = a1 << 0x1\n  5921: a0 = a0 | a1\n  5924: a3 = u64 [s1 + 0xb8]\n  5928: a1 = a3 >> 0x3f\n  5931: a2 = ra << 0x1\n  5934: a1 = a1 | a2\n  5937: a4 = u64 [s1 + 0xc0]\n  5941: a2 = a4 >> 0x3f\n  5944: a3 = a3 << 0x1\n  5947: a2 = a2 | a3\n  5950: a3 = a4 << 0x1\n  5953: a3 = a3 + 0x1\n  5956: a5 = s1 + 0x7ff\n  5960: a5 = a5 + 0xb9\n  5964: u64 [a5 + 352] = 0\n  5968: u64 [a5 + 344] = 0\n  5972: u64 [a5 + 336] = 0\n  5976: u64 [a5 + 328] = 0x4\n  5981: a4 = a5 + 0x100\n  5985: u64 [a4 + 0x68] = a3\n  5988: u64 [a4 + 0x70] = a2\n  5991: u64 [a4 + 0x78] = a1\n  5994: u64 [a4 + 0x80] = a0\n  5998: a0 = s1 + 0x7ff\n  6002: a0 = a0 + 0x201\n  6006: a1 = s1 + 0x7ff\n  6010: a1 = a1 + 0x221\n  6014: ra = 0xb0\n  6018: jump @24\n      : @171 (gas: 3)\n  6021: a0 = s1 + 0x5a0\n  6025: a1 = u64 [s1 + 0x18]\n  6028: ra = 162, jump @17\n      : @172 [@dyn 81] (gas: 14)\n  6034: a5 = u64 [s1 + 0xa8]\n  6038: a4 = u64 [s1 + 0xb0]\n  6042: a2 = u64 [s1 + 0xb8]\n  6046: a3 = u64 [s1 + 0xc0]\n  6050: a1 = s1 + 0x500\n  6054: a0 = u64 [a1 + 0xb8]\n  6058: u64 [s1 + 0x130] = a0\n  6062: a0 = u64 [a1 + 0xb0]\n  6066: u64 [s1 + 0x128] = a0\n  6070: a0 = u64 [a1 + 0xa8]\n  6074: u64 [s1 + 0x118] = a0\n  6078: a0 = u64 [a1 + 0xa0]\n  6082: u64 [s1 + 0x120] = a0\n  6086: fallthrough\n      : @173 (gas: 15)\n  6087: a0 = a2 >> 0x3f\n  6090: a1 = a4 << 0x1\n  6093: a0 = a0 | a1\n  6096: u64 [s1 + 0x110] = a0\n  6100: a0 = a4 >> 0x3f\n  6103: a1 = a5 << 0x1\n  6106: a0 = a0 | a1\n  6109: u64 [s1 + 0x108] = a0\n  6113: a0 = a3 >> 0x3f\n  6116: a1 = a2 << 0x1\n  6119: a0 = a0 | a1\n  6122: u64 [s1 + 0x100] = a0\n  6126: a0 = a3 << 0x1\n  6129: u64 [s1 + 0xf8] = a0\n  6133: t0 = 164, jump @1418\n      : @174 [@dyn 82] (gas: 1)\n  6139: ra = 166, jump @1427\n      : @175 [@dyn 83] (gas: 7)\n  6145: u64 [s1 + 0xd8] = a0\n  6149: u64 [s1 + 0xf0] = a1\n  6153: a0 = u64 [s1 + 0xc0]\n  6157: i32 a2 = a0 << 0x3\n  6160: a0 = 0xffffffffffffffff\n  6163: a1 = 0xffffffffffffffff\n  6166: ra = 168, jump @1422\n      : @176 [@dyn 84] (gas: 10)\n  6172: u64 [s1 + 0xe8] = a0\n  6176: u64 [s1 + 0xe0] = a1\n  6180: a1 = u64 [s1 + 0xd8]\n  6184: a0 = a0 | a1\n  6187: u64 [s1 + 0xd8] = a0\n  6191: a0 = u64 [s1 + 0x138]\n  6195: i32 a2 = a0 + 0xffffffffffffff80\n  6198: a0 = 0xffffffffffffffff\n  6201: a1 = 0xffffffffffffffff\n  6204: ra = 170, jump @1422\n      : @177 [@dyn 85] (gas: 7)\n  6210: a4 = u64 [s1 + 0x138]\n  6214: a2 = a4 <u 0x80\n  6218: a3 = u64 [s1 + 0xd8]\n  6222: a0 = a3 if a2 != 0\n  6225: a5 = u64 [s1 + 0xe0]\n  6229: a3 = u64 [s1 + 0xf0]\n  6233: t0 = 172, jump @1420\n      : @178 [@dyn 86] (gas: 2)\n  6239: a4 = u64 [s1 + 0xe8]\n  6243: t0 = 174, jump @1377\n      : @179 [@dyn 87] (gas: 25)\n  6249: a4 = u64 [s1 + 0xf8]\n  6253: a0 = a0 | a4\n  6256: a5 = s1 + 0x100\n  6260: a4 = u64 [a5]\n  6262: a1 = a1 | a4\n  6265: a4 = u64 [a5 + 0x8]\n  6268: a3 = a3 | a4\n  6271: a4 = u64 [a5 + 0x10]\n  6274: a2 = a2 | a4\n  6277: a5 = s1 + 0x7ff\n  6281: a5 = a5 + 0xb9\n  6285: u64 [a5 + 392] = 0x4\n  6290: a4 = a5 + 0x100\n  6294: u64 [a4 + 0xb8] = a2\n  6298: u64 [a4 + 0xc0] = a3\n  6302: u64 [a4 + 0xb0] = a1\n  6306: u64 [a4 + 0xa8] = a0\n  6310: u64 [a5 + 416] = 0\n  6314: u64 [a5 + 408] = 0\n  6318: u64 [a5 + 400] = 0\n  6322: a0 = s1 + 0x7ff\n  6326: a0 = a0 + 0x241\n  6330: a1 = s1 + 0x7ff\n  6334: a1 = a1 + 0x261\n  6338: ra = 176, jump @24\n      : @180 [@dyn 88] (gas: 32)\n  6344: a0 = 0x30280\n  6349: u64 [s1 + 0x138] = a0\n  6353: i32 a0 = a0 + 0\n  6355: u64 [s1 + 0x130] = a0\n  6359: ecalli 3 // 'caller'\n  6361: a2 = u64 [s1 + 0x138]\n  6365: a0 = u64 [a2 + 0x8]\n  6368: a1 = i32 [a2 + 0x10]\n  6371: a2 = u64 [a2]\n  6373: a0 = reverse a0\n  6375: a3 = a0 << 0x20\n  6378: a1 = reverse a1\n  6380: a1 = a1 >> 0x20\n  6383: a1 = a1 | a3\n  6386: u64 [s1 + 0x128] = a1\n  6390: a0 = a0 >> 0x20\n  6393: a1 = reverse a2\n  6395: a2 = a1 << 0x20\n  6398: a0 = a0 | a2\n  6401: u64 [s1 + 0x120] = a0\n  6405: a1 = a1 >> 0x20\n  6408: u64 [s1 + 0x118] = a1\n  6412: a1 = s1 + 0x7ff\n  6416: a1 = a1 + 0xb9\n  6420: u64 [a1 + 480] = 0\n  6424: u64 [a1 + 472] = 0\n  6428: u64 [a1 + 464] = 0\n  6432: u64 [a1 + 456] = 0x7\n  6437: a0 = s1 + 0x540\n  6441: a1 = s1 + 0x7ff\n  6445: a1 = a1 + 0x281\n  6449: ra = 178, jump @21\n      : @181 [@dyn 89] (gas: 23)\n  6455: a0 = u32 [s1 + 0x554]\n  6459: a0 = a0 << 0x20\n  6462: a1 = u64 [s1 + 0x558]\n  6466: a2 = u64 [s1 + 0x118]\n  6470: a0 = a0 | a2\n  6473: a2 = s1 + 0x7ff\n  6477: a2 = a2 + 0xb9\n  6481: u64 [a2 + 512] = 0\n  6485: u64 [a2 + 504] = 0\n  6489: u64 [a2 + 496] = 0\n  6493: u64 [a2 + 488] = 0x7\n  6498: a3 = a2 + 0x200\n  6502: u64 [a3 + 0x20] = a1\n  6505: a1 = u64 [s1 + 0x120]\n  6509: u64 [a3 + 0x10] = a1\n  6512: a1 = u64 [s1 + 0x128]\n  6516: u64 [a3 + 0x8] = a1\n  6519: u64 [a3 + 0x18] = a0\n  6522: a0 = s1 + 0x7ff\n  6526: a0 = a0 + 0x2a1\n  6530: a1 = s1 + 0x7ff\n  6534: a1 = a1 + 0x2c1\n  6538: ra = 180, jump @24\n      : @182 [@dyn 90] (gas: 6)\n  6544: a0 = u64 [s1 + 0x130]\n  6548: ra = 0xb6\n  6552: ecalli 3 // 'caller'\n  6554: a2 = u64 [s1 + 0x138]\n  6558: t0 = 0xb8\n  6562: jump @1344\n      : @183 [@dyn 91] (gas: 2)\n  6565: a2 = u64 [s1 + 0x138]\n  6569: t0 = 184, jump @1344\n      : @184 [@dyn 92] (gas: 8)\n  6575: u64 [s1 + 1304] = 0\n  6579: a2 = s1 + 0x500\n  6583: u64 [a2 + 0x10] = a1\n  6586: u64 [a2 + 0x8] = a0\n  6589: a0 = s1 + 0x520\n  6593: a1 = s1 + 0x500\n  6597: u64 [a2] = a3\n  6599: ra = 186, jump @890\n      : @185 [@dyn 93] (gas: 6)\n  6605: a0 = u64 [s1 + 0x130]\n  6609: ra = 0xbc\n  6613: ecalli 3 // 'caller'\n  6615: a2 = u64 [s1 + 0x138]\n  6619: t0 = 0xbe\n  6623: jump @1344\n      : @186 [@dyn 94] (gas: 2)\n  6626: a2 = u64 [s1 + 0x138]\n  6630: t0 = 190, jump @1344\n      : @187 [@dyn 95] (gas: 9)\n  6636: u64 [s1 + 1240] = 0\n  6640: u64 [s1 + 0x4d0] = a1\n  6644: u64 [s1 + 0x4c8] = a0\n  6648: a0 = s1 + 0x4e0\n  6652: a1 = s1 + 0x4c0\n  6656: u64 [s1 + 0x4c0] = a3\n  6660: ra = 0xc0\n  6664: t0 = 0x37c\n  6668: jump @1379\n      : @188 [@dyn 96] (gas: 6)\n  6671: a0 = u64 [s1 + 0x130]\n  6675: ra = 0xc2\n  6679: ecalli 3 // 'caller'\n  6681: a2 = u64 [s1 + 0x138]\n  6685: t0 = 0xc4\n  6689: jump @1344\n      : @189 [@dyn 97] (gas: 2)\n  6692: a2 = u64 [s1 + 0x138]\n  6696: t0 = 196, jump @1344\n      : @190 [@dyn 98] (gas: 10)\n  6702: u64 [s1 + 1176] = 0\n  6706: a2 = s1 + 0x400\n  6710: u64 [a2 + 0x90] = a1\n  6714: u64 [a2 + 0x88] = a0\n  6718: a0 = s1 + 0x4a0\n  6722: a1 = s1 + 0x480\n  6726: u64 [a2 + 0x80] = a3\n  6730: ra = 0xc6\n  6734: t0 = 0x3c2\n  6738: jump @1379\n      : @191 [@dyn 99] (gas: 3)\n  6741: a0 = u64 [s1 + 0x130]\n  6745: ecalli 3 // 'caller'\n  6747: fallthrough\n      : @192 (gas: 7)\n  6748: a2 = u64 [s1 + 0x138]\n  6752: a0 = u32 [a2 + 0x10]\n  6755: a1 = u64 [a2]\n  6757: a2 = u64 [a2 + 0x8]\n  6760: a0 = a0 | a1\n  6763: a0 = a0 | a2\n  6766: jump @245 if a0 == 0\n      : @193 (gas: 10)\n  6770: a1 = s1 + 0x7ff\n  6774: a1 = a1 + 0xb9\n  6778: u64 [a1 + 576] = 0\n  6782: u64 [a1 + 568] = 0\n  6786: u64 [a1 + 560] = 0\n  6790: u64 [a1 + 552] = 0x5\n  6795: a0 = s1 + 0x460\n  6799: a1 = s1 + 0x7ff\n  6803: a1 = a1 + 0x2e1\n  6807: ra = 200, jump @21\n      : @194 [@dyn 100] (gas: 2)\n  6813: a0 = u8 [s1 + 0x460]\n  6817: jump @250 if a0 != 0\n      : @195 (gas: 10)\n  6821: a0 = s1 + 0x7ff\n  6825: a0 = a0 + 0xb9\n  6829: u64 [a0 + 608] = 0\n  6833: u64 [a0 + 600] = 0\n  6837: u64 [a0 + 592] = 0\n  6841: u64 [a0 + 584] = 0x2\n  6846: a0 = s1 + 0x420\n  6850: a1 = s1 + 0x7ff\n  6854: a1 = a1 + 0x301\n  6858: ra = 202, jump @21\n      : @196 [@dyn 101] (gas: 43)\n  6864: t2 = u64 [s1 + 0x438]\n  6868: t1 = u64 [s1 + 0x430]\n  6872: ra = u64 [s1 + 0x420]\n  6876: u64 [s1 + 0x128] = ra\n  6880: a5 = u64 [s1 + 0x428]\n  6884: a1 = sp + 0xffffffffffffffe0\n  6887: a1 = a1 & 0xffffffffffffffe0\n  6890: sp = a1\n  6892: a2 = u64 [s1 + 0x70]\n  6895: a4 = a2 + a5\n  6898: a0 = u64 [s1 + 0x68]\n  6901: ra = ra + a0\n  6904: a0 = ra <u a0\n  6907: a4 = a4 + a0\n  6910: a3 = a4 ^ a2\n  6913: a2 = a4 <u a2\n  6916: a2 = a0 if a3 == 0\n  6919: t0 = u64 [s1 + 0x78]\n  6922: a0 = t0 + t1\n  6925: a3 = u64 [s1 + 0x80]\n  6929: a3 = a3 + t2\n  6932: t0 = a0 <u t0\n  6935: a3 = a3 + t0\n  6938: a2 = a2 + a0\n  6941: a0 = a2 <u a0\n  6944: t0 = a3 + a0\n  6947: a0 = a5 ^ a4\n  6950: a5 = a4 <u a5\n  6953: a3 = u64 [s1 + 0x128]\n  6957: a3 = ra <u a3\n  6960: a3 = a5 if a0 != 0\n  6963: a0 = a2 <u t1\n  6966: a5 = t2 ^ t0\n  6969: t2 = t0 <u t2\n  6972: t2 = a0 if a5 == 0\n  6975: a0 = t1 ^ a2\n  6978: a0 = a0 | a5\n  6981: a3 = t2 if a0 != 0\n  6984: u64 [a1 + 0x10] = a2\n  6987: u64 [a1 + 0x8] = a4\n  6990: u64 [a1] = ra\n  6992: u64 [a1 + 0x18] = t0\n  6995: jump @254 if a3 != 0\n      : @197 (gas: 9)\n  6999: a0 = s1 + 0x7ff\n  7003: a0 = a0 + 0xb9\n  7007: u64 [a0 + 640] = 0\n  7011: u64 [a0 + 632] = 0\n  7015: u64 [a0 + 624] = 0\n  7019: u64 [a0 + 616] = 0x2\n  7024: a0 = s1 + 0x7ff\n  7028: a0 = a0 + 0x321\n  7032: ra = 204, jump @24\n      : @198 [@dyn 102] (gas: 6)\n  7038: a0 = u64 [s1 + 0x130]\n  7042: ra = 0xce\n  7046: ecalli 3 // 'caller'\n  7048: a2 = u64 [s1 + 0x138]\n  7052: t0 = 0xd0\n  7056: jump @1344\n      : @199 [@dyn 103] (gas: 2)\n  7059: a2 = u64 [s1 + 0x138]\n  7063: t0 = 208, jump @1344\n      : @200 [@dyn 104] (gas: 8)\n  7069: u64 [s1 + 1048] = 0\n  7073: a2 = s1 + 0x400\n  7077: u64 [a2 + 0x10] = a1\n  7080: u64 [a2 + 0x8] = a0\n  7083: a1 = s1 + 0x400\n  7087: u64 [a2] = a3\n  7089: a0 = 0\n  7091: ra = 210, jump @19\n      : @201 [@dyn 105] (gas: 7)\n  7097: u64 [s1 + 1016] = 0\n  7101: u64 [s1 + 1008] = 0\n  7105: u64 [s1 + 1000] = 0\n  7109: a0 = 0x20\n  7112: a1 = s1 + 0x3e0\n  7116: u64 [s1 + 992] = 0\n  7120: ra = 212, jump @19\n      : @202 [@dyn 106] (gas: 6)\n  7126: a0 = sp + 0xffffffffffffffe0\n  7129: a0 = a0 & 0xffffffffffffffe0\n  7132: u64 [s1 + 0x128] = a0\n  7136: sp = a0\n  7138: a1 = i32 [0x2026c]\n  7143: jump @204 if a1 >u 63\n      : @203 (gas: 2)\n  7147: u32 [0x2026c] = 0x40\n  7153: fallthrough\n      : @204 (gas: 13)\n  7154: a0 = sp + 0xffffffffffffffe0\n  7157: a2 = a0 & 0xffffffffffffffe0\n  7160: u64 [s1 + 0x120] = a2\n  7164: sp = a2\n  7166: a0 = 0x20280\n  7171: i32 a0 = a0 + 0\n  7173: i32 a2 = a2 + 0\n  7175: a1 = 0x40\n  7178: ra = 0xd6\n  7182: ecalli 6 // 'hash_keccak_256'\n  7184: a3 = u64 [s1 + 0x120]\n  7188: t0 = 0xd8\n  7192: jump @1352\n      : @205 [@dyn 107] (gas: 2)\n  7195: a3 = u64 [s1 + 0x120]\n  7199: t0 = 216, jump @1352\n      : @206 [@dyn 108] (gas: 7)\n  7205: a1 = u64 [s1 + 0x128]\n  7209: u64 [a1 + 0x18] = a3\n  7212: u64 [a1 + 0x10] = a2\n  7215: u64 [a1 + 0x8] = a4\n  7218: u64 [a1] = a0\n  7220: a0 = s1 + 0x3c0\n  7224: ra = 218, jump @21\n      : @207 [@dyn 109] (gas: 33)\n  7230: a0 = u64 [s1 + 0x3c8]\n  7234: a1 = u64 [s1 + 0x3c0]\n  7238: t0 = u64 [s1 + 0x3d8]\n  7242: a3 = u64 [s1 + 0x3d0]\n  7246: a4 = u64 [s1 + 0x70]\n  7249: a4 = a4 + a0\n  7252: a5 = u64 [s1 + 0x68]\n  7255: a5 = a5 + a1\n  7258: a1 = a5 <u a1\n  7261: a4 = a4 + a1\n  7264: a2 = a4 ^ a0\n  7267: a0 = a4 <u a0\n  7270: a0 = a1 if a2 == 0\n  7273: a1 = u64 [s1 + 0x78]\n  7276: a1 = a1 + a3\n  7279: a2 = u64 [s1 + 0x80]\n  7283: t0 = t0 + a2\n  7286: a2 = a1 <u a3\n  7289: a2 = a2 + t0\n  7292: a0 = a0 + a1\n  7295: a1 = a0 <u a1\n  7298: a1 = a1 + a2\n  7301: a2 = s1 + 0x7ff\n  7305: a2 = a2 + 0xb9\n  7309: a3 = a2 + 0x200\n  7313: u64 [a3 + 0x88] = a5\n  7317: u64 [a3 + 0x90] = a4\n  7321: u64 [a3 + 0x98] = a0\n  7325: u64 [a3 + 0xa0] = a1\n  7329: a1 = s1 + 0x7ff\n  7333: a1 = a1 + 0x341\n  7337: a0 = u64 [s1 + 0x128]\n  7341: ra = 220, jump @24\n      : @208 [@dyn 110] (gas: 3)\n  7347: a0 = s1 + 0x3a0\n  7351: a1 = 0x40\n  7354: ra = 222, jump @17\n      : @209 [@dyn 111] (gas: 6)\n  7360: a4 = s1 + 0x300\n  7364: a3 = u64 [a4 + 0xb8]\n  7368: a1 = u64 [a4 + 0xb0]\n  7372: a2 = u64 [a4 + 0xa8]\n  7376: a0 = u64 [a4 + 0xa0]\n  7380: t0 = 224, jump @1356\n      : @210 [@dyn 112] (gas: 1)\n  7386: jump @218 if a1 != 0\n      : @211 (gas: 11)\n  7390: a1 = u64 [s1 + 0x68]\n  7393: u64 [s1 + 0x380] = a1\n  7397: a1 = u64 [s1 + 0x70]\n  7400: u64 [s1 + 0x388] = a1\n  7404: a1 = u64 [s1 + 0x78]\n  7407: u64 [s1 + 0x390] = a1\n  7411: a1 = s1 + 0x380\n  7415: a2 = u64 [s1 + 0x80]\n  7419: u64 [s1 + 0x398] = a2\n  7423: u64 [s1 + 0x128] = a0\n  7427: ra = 226, jump @19\n      : @212 [@dyn 113] (gas: 6)\n  7433: a0 = u64 [s1 + 0x130]\n  7437: ra = 0xe4\n  7441: ecalli 3 // 'caller'\n  7443: a2 = u64 [s1 + 0x138]\n  7447: t0 = 0xe6\n  7451: jump @1347\n      : @213 [@dyn 114] (gas: 2)\n  7454: a2 = u64 [s1 + 0x138]\n  7458: t0 = 230, jump @1347\n      : @214 [@dyn 115] (gas: 28)\n  7464: t0 = a1 | a0\n  7467: a3 = a3 >> 0x20\n  7470: a2 = reverse a2\n  7472: a1 = a2 << 0x20\n  7475: a1 = a1 | a3\n  7478: a2 = a2 >> 0x20\n  7481: u64 [s1 + 824] = 0\n  7485: u64 [s1 + 856] = 0\n  7489: u64 [s1 + 848] = 0\n  7493: u64 [s1 + 840] = 0\n  7497: u64 [s1 + 832] = 0\n  7501: a3 = u64 [0x20008]\n  7506: a4 = u64 [0x20010]\n  7511: a5 = u64 [0x20018]\n  7516: a0 = u64 [0x20020]\n  7521: u64 [s1 + 0x378] = a3\n  7525: u64 [s1 + 0x370] = a4\n  7529: u64 [s1 + 0x368] = a5\n  7533: u64 [s1 + 0x360] = a0\n  7537: u64 [s1 + 0x330] = a2\n  7541: u64 [s1 + 0x328] = a1\n  7545: a1 = 0x20\n  7548: a2 = s1 + 0x360\n  7552: a3 = s1 + 0x340\n  7556: a4 = s1 + 0x320\n  7560: u64 [s1 + 0x320] = t0\n  7564: a0 = u64 [s1 + 0x128]\n  7568: ra = 232, jump @27\n      : @215 [@dyn 116] (gas: 3)\n  7574: a0 = s1 + 0x300\n  7578: a1 = 0x40\n  7581: ra = 234, jump @17\n      : @216 [@dyn 117] (gas: 6)\n  7587: a4 = s1 + 0x300\n  7591: a3 = u64 [a4 + 0x18]\n  7594: a1 = u64 [a4 + 0x10]\n  7597: a2 = u64 [a4 + 0x8]\n  7600: a0 = u64 [a4]\n  7602: t0 = 236, jump @1356\n      : @217 [@dyn 118] (gas: 1)\n  7608: jump @261 if a1 == 0\n      : @218 (gas: 1)\n  7612: trap\n      : @219 (gas: 6)\n  7613: a1 = 0x20280\n  7618: i32 a1 = a1 + 0\n  7620: a0 = 0x1\n  7623: a2 = 0\n  7625: ecalli 7 // 'seal_return'\n  7627: jump @221\n      : @220 (gas: 6)\n  7629: a1 = 0x20280\n  7634: i32 a1 = a1 + 0\n  7636: a0 = 0x1\n  7639: a2 = 0\n  7641: ecalli 7 // 'seal_return'\n  7643: fallthrough\n      : @221 (gas: 6)\n  7644: u64 [s1 + 368] = 0\n  7648: u64 [s1 + 360] = 0\n  7652: u64 [s1 + 352] = 0\n  7656: t0 = 0xee\n  7660: a0 = 0x4e487b7100000000\n  7670: fallthrough\n      : @222 [@dyn 119] (gas: 4)\n  7671: a1 = s1 + 0x160\n  7675: u64 [s1 + 0x178] = a0\n  7679: a0 = 0\n  7681: ra = 240, jump @19\n      : @223 [@dyn 120] (gas: 7)\n  7687: u64 [s1 + 344] = 0\n  7691: u64 [s1 + 336] = 0\n  7695: u64 [s1 + 320] = 0x41\n  7700: a0 = 0x4\n  7703: a1 = s1 + 0x140\n  7707: u64 [s1 + 328] = 0\n  7711: ra = 242, jump @19\n      : @224 [@dyn 121] (gas: 2)\n  7717: a1 = i32 [0x2026c]\n  7722: jump @226 if a1 >u 63\n      : @225 (gas: 3)\n  7726: u32 [0x2026c] = 0x40\n  7732: a1 = 0x20280\n  7737: jump @260\n      : @226 (gas: 2)\n  7740: a1 = 0x20280\n  7745: jump @260\n      : @227 (gas: 6)\n  7748: u64 [s1 + 432] = 0\n  7752: u64 [s1 + 424] = 0\n  7756: u64 [s1 + 416] = 0\n  7760: t0 = 0xf4\n  7764: a0 = 0x4e487b7100000000\n  7774: fallthrough\n      : @228 [@dyn 122] (gas: 4)\n  7775: a1 = s1 + 0x1a0\n  7779: u64 [s1 + 0x1b8] = a0\n  7783: a0 = 0\n  7785: ra = 246, jump @19\n      : @229 [@dyn 123] (gas: 7)\n  7791: u64 [s1 + 408] = 0\n  7795: u64 [s1 + 400] = 0\n  7799: u64 [s1 + 384] = 0x22\n  7804: a0 = 0x4\n  7807: a1 = s1 + 0x180\n  7811: u64 [s1 + 392] = 0\n  7815: ra = 248, jump @19\n      : @230 [@dyn 124] (gas: 2)\n  7821: a1 = i32 [0x2026c]\n  7826: jump @232 if a1 >u 63\n      : @231 (gas: 3)\n  7830: u32 [0x2026c] = 0x40\n  7836: a1 = 0x20280\n  7841: jump @260\n      : @232 (gas: 2)\n  7844: a1 = 0x20280\n  7849: jump @260\n      : @233 (gas: 6)\n  7852: u64 [s1 + 528] = 0\n  7856: u64 [s1 + 520] = 0\n  7860: u64 [s1 + 512] = 0\n  7864: t0 = 0xfa\n  7868: a0 = 0x4e487b7100000000\n  7878: fallthrough\n      : @234 [@dyn 125] (gas: 4)\n  7879: a1 = s1 + 0x200\n  7883: u64 [s1 + 0x218] = a0\n  7887: a0 = 0\n  7889: ra = 252, jump @19\n      : @235 [@dyn 126] (gas: 7)\n  7895: u64 [s1 + 504] = 0\n  7899: u64 [s1 + 496] = 0\n  7903: u64 [s1 + 480] = 0x41\n  7908: a0 = 0x4\n  7911: a1 = s1 + 0x1e0\n  7915: u64 [s1 + 488] = 0\n  7919: ra = 254, jump @19\n      : @236 [@dyn 127] (gas: 2)\n  7925: a1 = i32 [0x2026c]\n  7930: jump @238 if a1 >u 63\n      : @237 (gas: 3)\n  7934: u32 [0x2026c] = 0x40\n  7940: a1 = 0x20280\n  7945: jump @260\n      : @238 (gas: 2)\n  7948: a1 = 0x20280\n  7953: jump @260\n      : @239 (gas: 6)\n  7956: u64 [s1 + 592] = 0\n  7960: u64 [s1 + 584] = 0\n  7964: u64 [s1 + 576] = 0\n  7968: t0 = 0x100\n  7972: a0 = 0x4e487b7100000000\n  7982: fallthrough\n      : @240 [@dyn 128] (gas: 4)\n  7983: a1 = s1 + 0x240\n  7987: u64 [s1 + 0x258] = a0\n  7991: a0 = 0\n  7993: ra = 258, jump @19\n      : @241 [@dyn 129] (gas: 7)\n  7999: u64 [s1 + 568] = 0\n  8003: u64 [s1 + 560] = 0\n  8007: u64 [s1 + 544] = 0x22\n  8012: a0 = 0x4\n  8015: a1 = s1 + 0x220\n  8019: u64 [s1 + 552] = 0\n  8023: ra = 260, jump @19\n      : @242 [@dyn 130] (gas: 2)\n  8029: a1 = i32 [0x2026c]\n  8034: jump @244 if a1 >u 63\n      : @243 (gas: 3)\n  8038: u32 [0x2026c] = 0x40\n  8044: a1 = 0x20280\n  8049: jump @260\n      : @244 (gas: 2)\n  8052: a1 = 0x20280\n  8057: jump @260\n      : @245 (gas: 8)\n  8060: u64 [s1 + 688] = 0\n  8064: u64 [s1 + 680] = 0\n  8068: u64 [s1 + 672] = 0\n  8072: a0 = 0xec442f0500000000\n  8082: a1 = s1 + 0x2a0\n  8086: u64 [s1 + 0x2b8] = a0\n  8090: a0 = 0\n  8092: ra = 262, jump @19\n      : @246 [@dyn 131] (gas: 7)\n  8098: u64 [s1 + 664] = 0\n  8102: u64 [s1 + 656] = 0\n  8106: u64 [s1 + 648] = 0\n  8110: a0 = 0x4\n  8113: a1 = s1 + 0x280\n  8117: u64 [s1 + 640] = 0\n  8121: ra = 264, jump @19\n      : @247 [@dyn 132] (gas: 2)\n  8127: a1 = i32 [0x2026c]\n  8132: jump @249 if a1 >u 63\n      : @248 (gas: 3)\n  8136: u32 [0x2026c] = 0x40\n  8142: a1 = 0x20280\n  8147: jump @260\n      : @249 (gas: 2)\n  8150: a1 = 0x20280\n  8155: jump @260\n      : @250 (gas: 8)\n  8158: u64 [s1 + 1104] = 0\n  8162: u64 [s1 + 1096] = 0\n  8166: u64 [s1 + 1088] = 0\n  8170: a0 = 0xd93c066500000000\n  8180: a1 = s1 + 0x440\n  8184: u64 [s1 + 0x458] = a0\n  8188: a0 = 0\n  8190: ra = 266, jump @19\n      : @251 [@dyn 133] (gas: 2)\n  8196: a1 = i32 [0x2026c]\n  8201: jump @253 if a1 >u 31\n      : @252 (gas: 2)\n  8205: u32 [0x2026c] = 0x20\n  8211: fallthrough\n      : @253 (gas: 6)\n  8212: a1 = 0x20280\n  8217: i32 a1 = a1 + 0\n  8219: a0 = 0x1\n  8222: a2 = 0x4\n  8225: ecalli 7 // 'seal_return'\n  8227: fallthrough\n      : @254 (gas: 6)\n  8228: u64 [s1 + 752] = 0\n  8232: u64 [s1 + 744] = 0\n  8236: u64 [s1 + 736] = 0\n  8240: t0 = 0x10c\n  8244: a0 = 0x4e487b7100000000\n  8254: fallthrough\n      : @255 [@dyn 134] (gas: 4)\n  8255: a1 = s1 + 0x2e0\n  8259: u64 [s1 + 0x2f8] = a0\n  8263: a0 = 0\n  8265: ra = 270, jump @19\n      : @256 [@dyn 135] (gas: 7)\n  8271: u64 [s1 + 728] = 0\n  8275: u64 [s1 + 720] = 0\n  8279: u64 [s1 + 704] = 0x11\n  8284: a0 = 0x4\n  8287: a1 = s1 + 0x2c0\n  8291: u64 [s1 + 712] = 0\n  8295: ra = 272, jump @19\n      : @257 [@dyn 136] (gas: 2)\n  8301: a1 = i32 [0x2026c]\n  8306: jump @259 if a1 >u 63\n      : @258 (gas: 3)\n  8310: u32 [0x2026c] = 0x40\n  8316: a1 = 0x20280\n  8321: jump @260\n      : @259 (gas: 2)\n  8323: a1 = 0x20280\n  8328: fallthrough\n      : @260 (gas: 7)\n  8329: i32 a1 = a1 + 0\n  8331: a0 = 0x1\n  8334: a2 = 0x24\n  8337: ecalli 7 // 'seal_return'\n  8339: u64 [s1 + 0x138] = a0\n  8343: ra = 0x112\n  8347: jump @33\n      : @261 (gas: 2)\n  8350: u64 [s1 + 0x138] = a0\n  8354: ra = 274, jump @33\n      : @262 [@dyn 137] (gas: 5)\n  8360: i32 a0 = a0 + 0\n  8362: a1 = 0\n  8364: a2 = 0\n  8366: ecalli 0 // 'call_data_copy'\n  8367: jump @15\n      : @263 (gas: 3)\n  8370: a0 = u64 [s1 + 0x138]\n  8374: a1 = 0\n  8376: ra = 276, jump @33\n      : @264 [@dyn 138] (gas: 5)\n  8382: i32 a1 = a0 + 0\n  8384: a0 = 0\n  8386: a2 = 0\n  8388: ecalli 7 // 'seal_return'\n  8390: jump @221\n      : @265 [@dyn 139] (gas: 4)\n  8393: a0 = 0x20268\n  8398: u64 [s1 + 0xb8] = a0\n  8402: a0 = i32 [0x20268]\n  8407: jump @267 if a0 >=u 4\n      : @266 (gas: 1)\n  8411: jump @845\n      : @267 (gas: 6)\n  8414: a0 = s1 + 0x1000\n  8418: i32 a0 = a0 + 0x580\n  8422: a1 = 0\n  8424: ra = 0x118\n  8428: ecalli 1 // 'call_data_load'\n  8430: fallthrough\n      : @268 [@dyn 140] (gas: 3)\n  8431: a2 = s1 + 0x1038\n  8435: a0 = i32 [a2 + 0x564]\n  8439: jump @270 if a0 != 2220280665\n      : @269 (gas: 1)\n  8446: jump @597\n      : @270 (gas: 1)\n  8449: jump @272 if a0 != 2446411860\n      : @271 (gas: 1)\n  8456: jump @530\n      : @272 (gas: 1)\n  8459: jump @310 if a0 == 2514000705\n      : @273 (gas: 1)\n  8467: jump @275 if a0 != 2719481311\n      : @274 (gas: 1)\n  8474: jump @466\n      : @275 (gas: 1)\n  8477: jump @342 if a0 == 2835717307\n      : @276 (gas: 1)\n  8485: jump @278 if a0 != 3577287571\n      : @277 (gas: 1)\n  8492: jump @570\n      : @278 (gas: 1)\n  8495: jump @380 if a0 == 3714247998\n      : @279 (gas: 1)\n  8503: jump @357 if a0 == 3862606313\n      : @280 (gas: 1)\n  8511: jump @282 if a0 != 117300739\n      : @281 (gas: 1)\n  8518: jump @616\n      : @282 (gas: 1)\n  8521: jump @408 if a0 == 122970482\n      : @283 (gas: 1)\n  8529: jump @285 if a0 != 157198259\n      : @284 (gas: 1)\n  8536: jump @641\n      : @285 (gas: 1)\n  8539: jump @287 if a0 != 404098525\n      : @286 (gas: 1)\n  8546: jump @497\n      : @287 (gas: 1)\n  8549: jump @289 if a0 != 599290589\n      : @288 (gas: 1)\n  8556: jump @580\n      : @289 (gas: 1)\n  8559: jump @291 if a0 != 613063843\n      : @290 (gas: 1)\n  8566: jump @557\n      : @291 (gas: 1)\n  8569: jump @368 if a0 == 826074471\n      : @292 (gas: 1)\n  8577: jump @294 if a0 != 1061922874\n      : @293 (gas: 1)\n  8584: jump @477\n      : @294 (gas: 1)\n  8587: jump @419 if a0 == 1086394137\n      : @295 (gas: 2)\n  8595: a2 = s1 + 0x1838\n  8599: jump @297 if a0 == 1553423035\n      : @296 (gas: 1)\n  8606: jump @508\n      : @297 (gas: 10)\n  8609: u64 [a2 + 320] = 0\n  8613: u64 [a2 + 312] = 0\n  8617: u64 [a2 + 304] = 0\n  8621: u64 [a2 + 296] = 0\n  8625: a0 = s1 + 0x2000\n  8629: i32 a0 = a0 + 0xfffffffffffff960\n  8633: ra = 0x11a\n  8637: ecalli 10 // 'value_transferred'\n  8639: t0 = 0x11c\n  8643: jump @1399\n      : @298 [@dyn 141] (gas: 1)\n  8646: t0 = 284, jump @1399\n      : @299 [@dyn 142] (gas: 1)\n  8652: t0 = 286, jump @1415\n      : @300 [@dyn 143] (gas: 1)\n  8658: jump @302 if a0 == 0\n      : @301 (gas: 1)\n  8661: jump @699\n      : @302 (gas: 3)\n  8664: a0 = u64 [s1 + 0xb8]\n  8668: a0 = i32 [a0]\n  8670: jump @304 if a0 >u 3\n      : @303 (gas: 1)\n  8674: jump @700\n      : @304 (gas: 9)\n  8677: a1 = s1 + 0x1838\n  8681: u64 [a1 + 352] = 0\n  8685: u64 [a1 + 344] = 0\n  8689: u64 [a1 + 336] = 0\n  8693: u64 [a1 + 328] = 0x5\n  8698: a0 = s1 + 0x7ff\n  8702: a0 = a0 + 0x4e1\n  8706: a1 = s1 + 0x1980\n  8710: ra = 288, jump @21\n      : @305 [@dyn 144] (gas: 8)\n  8716: a0 = s1 + 0x7ff\n  8720: a0 = a0 + 0x39\n  8723: a0 = u64 [a0 + 0x4a8]\n  8727: u64 [s1 + 0xb8] = a0\n  8731: a0 = s1 + 0x7ff\n  8735: a0 = a0 + 0x4c1\n  8739: a1 = 0x40\n  8742: ra = 290, jump @17\n      : @306 [@dyn 145] (gas: 8)\n  8748: a3 = s1 + 0x7ff\n  8752: a3 = a3 + 0x39\n  8755: a5 = a3 + 0x400\n  8759: a4 = u64 [a5 + 0xa0]\n  8763: a1 = u64 [a5 + 0x98]\n  8767: a2 = u64 [a5 + 0x90]\n  8771: a0 = u64 [a5 + 0x88]\n  8775: t0 = 292, jump @1354\n      : @307 [@dyn 146] (gas: 1)\n  8781: jump @309 if a1 == 0\n      : @308 (gas: 1)\n  8784: jump @673\n      : @309 (gas: 11)\n  8787: a1 = u8 [s1 + 0xb8]\n  8791: a1 = a1 >u 0\n  8793: u64 [a3 + 1152] = 0\n  8797: u64 [a3 + 1144] = 0\n  8801: u64 [a3 + 0x468] = a1\n  8805: a1 = s1 + 0x7ff\n  8809: a1 = a1 + 0x4a1\n  8813: u64 [a3 + 1136] = 0\n  8817: u64 [s1 + 0xb8] = a0\n  8821: ra = 0x2f8\n  8825: jump @19\n      : @310 (gas: 11)\n  8828: a0 = s1 + 0x1838\n  8832: u64 [a0 + 704] = 0\n  8836: u64 [a0 + 696] = 0\n  8840: u64 [a0 + 688] = 0\n  8844: u64 [a0 + 680] = 0\n  8848: a0 = s1 + 0x2000\n  8852: i32 a0 = a0 + 0xfffffffffffffae0\n  8856: ra = 0x126\n  8860: ecalli 10 // 'value_transferred'\n  8862: t0 = 0x128\n  8866: jump @1398\n      : @311 [@dyn 147] (gas: 1)\n  8869: t0 = 296, jump @1398\n      : @312 [@dyn 148] (gas: 1)\n  8875: t0 = 298, jump @1381\n      : @313 [@dyn 149] (gas: 1)\n  8881: jump @315 if a0 == 0\n      : @314 (gas: 1)\n  8884: jump @701\n      : @315 (gas: 3)\n  8887: a0 = u64 [s1 + 0xb8]\n  8891: a0 = i32 [a0]\n  8893: jump @317 if a0 >u 3\n      : @316 (gas: 1)\n  8897: jump @702\n      : @317 (gas: 3)\n  8900: a0 = s1 + 0x11c0\n  8904: a1 = 0x40\n  8907: ra = 300, jump @17\n      : @318 [@dyn 150] (gas: 18)\n  8913: a1 = s1 + 0x1038\n  8917: a2 = a1 + 0x100\n  8921: a0 = u64 [a2 + 0xa0]\n  8925: u64 [s1 + 0x18] = a0\n  8928: a0 = u64 [a2 + 0x98]\n  8932: u64 [s1 + 0x28] = a0\n  8935: a0 = u64 [a2 + 0x90]\n  8939: u64 [s1 + 0x20] = a0\n  8942: a0 = u64 [a2 + 0x88]\n  8946: u64 [s1 + 0x30] = a0\n  8949: a1 = s1 + 0x1838\n  8953: u64 [a1 + 736] = 0\n  8957: u64 [a1 + 728] = 0\n  8961: u64 [a1 + 720] = 0\n  8965: u64 [a1 + 712] = 0x4\n  8970: a0 = s1 + 0x11a0\n  8974: a1 = s1 + 0x1b00\n  8978: ra = 302, jump @21\n      : @319 [@dyn 151] (gas: 35)\n  8984: a0 = s1 + 0x1038\n  8988: t2 = u64 [a0 + 0x178]\n  8992: ra = u64 [a0 + 0x170]\n  8996: t1 = u64 [a0 + 0x180]\n  9000: a4 = u64 [a0 + 0x168]\n  9004: a0 = t2 << 0x3f\n  9007: a1 = ra >> 0x1\n  9010: a0 = a0 | a1\n  9013: a1 = t1 << 0x3f\n  9016: a2 = t2 >> 0x1\n  9019: a1 = a1 | a2\n  9022: a2 = ra << 0x3f\n  9025: a3 = a4 >> 0x1\n  9028: a5 = a3 | a2\n  9031: a2 = t1 >> 0x1\n  9034: u64 [s1 + 0xb0] = a4\n  9038: a4 = a4 & 0x1\n  9041: a3 = -a4\n  9043: a1 = a1 & a3\n  9046: t0 = a3 & a0\n  9049: a2 = a2 & a3\n  9052: a0 = a5 & 0x7f\n  9055: u64 [s1 + 0xa8] = a0\n  9059: a5 = a0 if a4 == 0\n  9062: u64 [s1 + 0x70] = a5\n  9065: a0 = a5 <u 0x20\n  9068: u64 [s1 + 0x60] = t0\n  9071: a0 = 0 if t0 != 0\n  9073: u64 [s1 + 0x68] = a1\n  9076: u64 [s1 + 0x58] = a2\n  9079: a1 = a1 | a2\n  9082: a0 = 0 if a1 != 0\n  9084: u64 [s1 + 0xb8] = a4\n  9088: a1 = a4 <u 0x1\n  9091: jump @321 if a1 == a0\n      : @320 (gas: 1)\n  9094: jump @703\n      : @321 (gas: 12)\n  9097: a2 = u64 [s1 + 0x28]\n  9100: a3 = u64 [s1 + 0x30]\n  9103: a0 = a3 | a2\n  9106: a1 = u64 [s1 + 0x20]\n  9109: a4 = u64 [s1 + 0x18]\n  9112: a1 = a1 | a4\n  9115: a0 = a0 | a1\n  9118: a0 = a0 >> 0x20\n  9121: a1 = a1 | a2\n  9124: a1 = a1 << 0x20\n  9127: a1 = a1 | a0\n  9130: jump @323 if a1 == 0\n      : @322 (gas: 1)\n  9133: jump @673\n      : @323 (gas: 16)\n  9136: a0 = a3\n  9138: u64 [s1 + 0x90] = ra\n  9142: u64 [s1 + 0x98] = t2\n  9146: u64 [s1 + 0xa0] = t1\n  9150: a1 = u64 [s1 + 0x70]\n  9153: a3 = s1 + 0x1038\n  9157: a4 = a3 + 0x100\n  9161: u64 [a4 + 0x48] = a1\n  9164: a1 = u64 [s1 + 0x60]\n  9167: u64 [a4 + 0x50] = a1\n  9170: a1 = u64 [s1 + 0x68]\n  9173: u64 [a4 + 0x58] = a1\n  9176: a1 = s1 + 0x1180\n  9180: a2 = u64 [s1 + 0x58]\n  9183: u64 [a4 + 0x60] = a2\n  9186: ra = 304, jump @19\n      : @324 [@dyn 152] (gas: 2)\n  9192: a0 = u64 [s1 + 0xb8]\n  9196: jump @326 if a0 == 0\n      : @325 (gas: 1)\n  9199: jump @674\n      : @326 (gas: 1)\n  9202: t0 = 306, jump @1391\n      : @327 [@dyn 153] (gas: 1)\n  9208: jump @329 if a1 != 0\n      : @328 (gas: 1)\n  9211: jump @673\n      : @329 (gas: 13)\n  9214: a1 = u64 [s1 + 0xb0]\n  9218: a1 = a1 & 0xffffffffffffff00\n  9222: i32 a0 = a3 + 0x20\n  9225: a2 = s1 + 0x1038\n  9229: a3 = u64 [s1 + 0x90]\n  9233: u64 [a2 + 0xd0] = a3\n  9237: u64 [a2 + 0xc8] = a1\n  9241: a1 = u64 [s1 + 0x98]\n  9245: u64 [a2 + 0xd8] = a1\n  9249: a1 = s1 + 0x1100\n  9253: a3 = u64 [s1 + 0xa0]\n  9257: u64 [a2 + 0xe0] = a3\n  9261: ra = 308, jump @19\n      : @330 [@dyn 154] (gas: 9)\n  9267: t2 = 0\n  9269: t1 = 0\n  9271: u64 [s1 + 176] = 0\n  9275: a0 = u64 [s1 + 0xa8]\n  9279: a0 = a0 >u 0\n  9281: a0 = a0 << 0x5\n  9284: u64 [s1 + 0xb8] = a0\n  9288: t0 = 0x136\n  9292: jump @1390\n      : @331 (gas: 1)\n  9295: t0 = 310, jump @1390\n      : @332 [@dyn 155] (gas: 28)\n  9301: t0 = u64 [s1 + 0x20]\n  9304: a3 = a2 + t0\n  9307: ra = a3 + a0\n  9310: a3 = ra ^ a2\n  9313: a4 = ra <u a2\n  9316: a4 = a0 if a3 == 0\n  9319: a0 = a2 <u t2\n  9322: a0 = a1 if a1 == 0\n  9325: a0 = a0 + t1\n  9328: a1 = a0 <u t1\n  9331: a2 = u64 [s1 + 0x28]\n  9334: a2 = a2 + a0\n  9337: a4 = a4 + a2\n  9340: a0 = a2 <u a0\n  9343: a2 = a4 <u a2\n  9346: t1 = u64 [s1 + 0x18]\n  9349: a3 = u64 [s1 + 0xb0]\n  9353: a3 = a3 + t1\n  9356: a1 = a1 + a3\n  9359: a0 = a0 + a1\n  9362: a5 = a0 + a2\n  9365: a0 = a5 >u 0\n  9367: a1 = a4 >u 0\n  9369: a1 = a0 if a5 != 0\n  9372: a0 = a4 | a5\n  9375: a2 = ra >u 0\n  9377: a2 = a1 if a0 != 0\n  9380: jump @334 if a2 == 0\n      : @333 (gas: 1)\n  9383: jump @785\n      : @334 (gas: 6)\n  9386: a0 = u64 [s1 + 0x30]\n  9389: a1 = u64 [s1 + 0xb8]\n  9393: a0 = a1 <u a0\n  9396: a1 = ra ^ t0\n  9399: a2 = ra <u t0\n  9402: t0 = 312, jump @1387\n      : @335 [@dyn 156] (gas: 1)\n  9408: jump @337 if a3 == 0\n      : @336 (gas: 1)\n  9411: jump @785\n      : @337 (gas: 13)\n  9414: a2 = s1 + 0x1038\n  9418: a0 = u64 [s1 + 0xb8]\n  9422: u64 [a2 + 0xa8] = a0\n  9426: a3 = ra\n  9428: u64 [a2 + 0xb0] = a3\n  9432: u64 [a2 + 0xb8] = a4\n  9436: a0 = 0x40\n  9439: a1 = s1 + 0x10e0\n  9443: u64 [a2 + 0xc0] = a5\n  9447: u64 [s1 + 0xa8] = a3\n  9451: u64 [s1 + 0xa0] = a4\n  9455: u64 [s1 + 0xb0] = a5\n  9459: ra = 314, jump @19\n      : @338 [@dyn 157] (gas: 22)\n  9465: a1 = s1 + 0x1038\n  9469: a0 = u64 [s1 + 0x18]\n  9472: u64 [a1 + 0x60] = a0\n  9475: a0 = u64 [s1 + 0x28]\n  9478: u64 [a1 + 0x58] = a0\n  9481: a0 = u64 [s1 + 0x20]\n  9484: u64 [a1 + 0x50] = a0\n  9487: a0 = u64 [s1 + 0x30]\n  9490: u64 [a1 + 0x48] = a0\n  9493: a0 = u64 [s1 + 0xb0]\n  9497: u64 [a1 + 0x80] = a0\n  9501: a0 = u64 [s1 + 0xa0]\n  9505: u64 [a1 + 0x78] = a0\n  9508: a0 = u64 [s1 + 0xa8]\n  9512: u64 [a1 + 0x70] = a0\n  9515: a4 = a1\n  9517: a0 = s1 + 0x10c0\n  9521: a1 = s1 + 0x10a0\n  9525: a2 = s1 + 0x1080\n  9529: a3 = u64 [s1 + 0xb8]\n  9533: u64 [a4 + 0x68] = a3\n  9536: ra = 316, jump @1017\n      : @339 [@dyn 158] (gas: 12)\n  9542: a3 = u64 [s1 + 0xa0]\n  9546: a4 = u64 [s1 + 0xa8]\n  9550: t0 = u64 [s1 + 0xb8]\n  9554: a0 = t0 | a3\n  9557: a1 = u64 [s1 + 0xb0]\n  9561: a1 = a1 | a4\n  9564: a0 = a0 | a1\n  9567: a0 = a0 >> 0x20\n  9570: a1 = a1 | a3\n  9573: a1 = a1 << 0x20\n  9576: a0 = a0 | a1\n  9579: jump @341 if a0 == 0\n      : @340 (gas: 1)\n  9582: jump @673\n      : @341 (gas: 8)\n  9585: a1 = s1 + 0x1038\n  9589: a0 = u64 [a1 + 0x90]\n  9593: a2 = u64 [a1 + 0xa0]\n  9597: u64 [s1 + 0x98] = a2\n  9601: a2 = a3\n  9603: t1 = u64 [a1 + 0x88]\n  9607: a3 = u64 [a1 + 0x98]\n  9611: jump @638\n      : @342 (gas: 11)\n  9614: a0 = s1 + 0x1838\n  9618: u64 [a0 + 800] = 0\n  9622: u64 [a0 + 792] = 0\n  9626: u64 [a0 + 784] = 0\n  9630: u64 [a0 + 776] = 0\n  9634: a0 = s1 + 0x2000\n  9638: i32 a0 = a0 + 0xfffffffffffffb40\n  9642: ra = 0x13e\n  9646: ecalli 10 // 'value_transferred'\n  9648: t0 = 0x140\n  9652: jump @1384\n      : @343 [@dyn 159] (gas: 1)\n  9655: t0 = 320, jump @1384\n      : @344 [@dyn 160] (gas: 8)\n  9661: a0 = u64 [a4 + 0x18]\n  9664: a1 = u64 [a4 + 0x20]\n  9667: a2 = u64 [a4 + 0x10]\n  9670: a3 = u64 [a4 + 0x8]\n  9673: a1 = a1 | a2\n  9676: a0 = a0 | a3\n  9679: a0 = a0 | a1\n  9682: jump @346 if a0 == 0\n      : @345 (gas: 1)\n  9685: jump @708\n      : @346 (gas: 4)\n  9688: a0 = u64 [s1 + 0xb8]\n  9692: a0 = i32 [a0]\n  9694: a1 = 0x43\n  9697: jump @348 if a1 <u a0\n      : @347 (gas: 1)\n  9700: jump @709\n      : @348 (gas: 4)\n  9703: a0 = s1 + 0x12c0\n  9707: ra = 0x142\n  9711: t0 = 0x416\n  9715: jump @1417\n      : @349 [@dyn 161] (gas: 31)\n  9718: a1 = s1 + 0x1038\n  9722: a2 = a1 + 0x200\n  9726: a0 = u64 [a2 + 0x88]\n  9730: u64 [s1 + 0xb8] = a0\n  9734: a0 = u64 [a2 + 0x90]\n  9738: u64 [s1 + 0xb0] = a0\n  9742: a0 = u64 [a2 + 0x98]\n  9746: u64 [s1 + 0xa8] = a0\n  9750: a0 = u64 [a2 + 0xa0]\n  9754: u64 [s1 + 0xa0] = a0\n  9758: a0 = s1 + 0x2000\n  9762: i32 a0 = a0 + 0xfffffffffffffb60\n  9766: a1 = 0x24\n  9769: ecalli 1 // 'call_data_load'\n  9771: a0 = s1 + 0x1838\n  9775: a2 = a0 + 0x300\n  9779: a1 = u64 [a2 + 0x28]\n  9782: u64 [s1 + 0x98] = a1\n  9786: a1 = u64 [a2 + 0x30]\n  9789: u64 [s1 + 0x90] = a1\n  9793: a1 = u64 [a2 + 0x38]\n  9796: u64 [s1 + 0x88] = a1\n  9800: a0 = u64 [a2 + 0x40]\n  9803: u64 [s1 + 0x80] = a0\n  9807: a0 = 0x30280\n  9812: u64 [s1 + 0x78] = a0\n  9815: i32 a0 = a0 + 0\n  9817: ra = 0x144\n  9821: ecalli 3 // 'caller'\n  9823: t0 = 0x146\n  9827: jump @1375\n      : @350 [@dyn 162] (gas: 1)\n  9830: t0 = 326, jump @1375\n      : @351 [@dyn 163] (gas: 26)\n  9836: a3 = s1 + 0x1038\n  9840: a4 = u64 [s1 + 0x80]\n  9844: a5 = a3 + 0x200\n  9848: u64 [a5 + 0x40] = a4\n  9851: a4 = u64 [s1 + 0x88]\n  9855: u64 [a5 + 0x38] = a4\n  9858: a4 = u64 [s1 + 0x90]\n  9862: u64 [a5 + 0x30] = a4\n  9865: a4 = u64 [s1 + 0x98]\n  9869: u64 [a5 + 0x28] = a4\n  9872: a4 = u64 [s1 + 0xa0]\n  9876: u64 [a5 + 0x60] = a4\n  9879: a4 = u64 [s1 + 0xa8]\n  9883: u64 [a5 + 0x58] = a4\n  9886: a4 = u64 [s1 + 0xb0]\n  9890: u64 [a5 + 0x50] = a4\n  9893: a4 = u64 [s1 + 0xb8]\n  9897: u64 [a5 + 0x48] = a4\n  9900: u64 [a5 + 0x78] = a2\n  9903: u64 [a5 + 0x70] = a0\n  9906: u64 [a5 + 0x68] = a1\n  9909: a0 = s1 + 0x12a0\n  9913: a1 = s1 + 0x1280\n  9917: a2 = s1 + 0x1260\n  9921: u64 [a3 + 640] = 0\n  9925: ra = 328, jump @1101\n      : @352 [@dyn 164] (gas: 3)\n  9931: a0 = s1 + 0x1240\n  9935: a1 = 0x40\n  9938: ra = 330, jump @17\n      : @353 [@dyn 165] (gas: 7)\n  9944: a3 = s1 + 0x1038\n  9948: a5 = a3 + 0x200\n  9952: a4 = u64 [a5 + 0x20]\n  9955: a1 = u64 [a5 + 0x18]\n  9958: a2 = u64 [a5 + 0x10]\n  9961: a0 = u64 [a5 + 0x8]\n  9964: t0 = 332, jump @1354\n      : @354 [@dyn 166] (gas: 1)\n  9970: jump @356 if a1 == 0\n      : @355 (gas: 1)\n  9973: jump @673\n      : @356 (gas: 8)\n  9976: u64 [a3 + 512] = 0\n  9980: u64 [a3 + 504] = 0\n  9984: u64 [a3 + 488] = 0x1\n  9989: a1 = s1 + 0x1220\n  9993: u64 [a3 + 496] = 0\n  9997: u64 [s1 + 0xb8] = a0\n 10001: ra = 0x2f8\n 10005: jump @19\n      : @357 (gas: 11)\n 10008: a0 = s1 + 0x1838\n 10012: u64 [a0 + 992] = 0\n 10016: u64 [a0 + 984] = 0\n 10020: u64 [a0 + 976] = 0\n 10024: u64 [a0 + 968] = 0\n 10028: a0 = s1 + 0x2000\n 10032: i32 a0 = a0 + 0xfffffffffffffc00\n 10036: ra = 0x14e\n 10040: ecalli 10 // 'value_transferred'\n 10042: t0 = 0x150\n 10046: jump @1384\n      : @358 [@dyn 167] (gas: 1)\n 10049: t0 = 336, jump @1384\n      : @359 [@dyn 168] (gas: 8)\n 10055: a0 = u64 [a4 + 0xd8]\n 10059: a1 = u64 [a4 + 0xe0]\n 10063: a2 = u64 [a4 + 0xd0]\n 10067: a3 = u64 [a4 + 0xc8]\n 10071: a1 = a1 | a2\n 10074: a0 = a0 | a3\n 10077: a0 = a0 | a1\n 10080: jump @361 if a0 == 0\n      : @360 (gas: 1)\n 10083: jump @710\n      : @361 (gas: 3)\n 10086: a0 = u64 [s1 + 0xb8]\n 10090: a0 = i32 [a0]\n 10092: jump @363 if a0 >u 3\n      : @362 (gas: 1)\n 10096: jump @711\n      : @363 (gas: 3)\n 10099: a0 = s1 + 0x1540\n 10103: a1 = 0x40\n 10106: ra = 338, jump @17\n      : @364 [@dyn 169] (gas: 7)\n 10112: a3 = s1 + 0x1038\n 10116: a5 = a3 + 0x500\n 10120: a4 = u64 [a5 + 0x20]\n 10123: a1 = u64 [a5 + 0x18]\n 10126: a2 = u64 [a5 + 0x10]\n 10129: a0 = u64 [a5 + 0x8]\n 10132: t0 = 340, jump @1354\n      : @365 [@dyn 170] (gas: 1)\n 10138: jump @367 if a1 == 0\n      : @366 (gas: 1)\n 10141: jump @673\n      : @367 (gas: 13)\n 10144: a1 = u64 [0x20028]\n 10149: u64 [a3 + 0x500] = a1\n 10153: a4 = u64 [0x20030]\n 10158: a1 = u64 [0x20038]\n 10163: a2 = u64 [0x20040]\n 10168: a5 = a3 + 0x400\n 10172: u64 [a5 + 0xf8] = a4\n 10176: u64 [a5 + 0xf0] = a1\n 10180: a1 = s1 + 0x1520\n 10184: u64 [a5 + 0xe8] = a2\n 10188: u64 [s1 + 0xb8] = a0\n 10192: ra = 0x2f8\n 10196: jump @19\n      : @368 (gas: 10)\n 10199: u64 [a2 + 1920] = 0\n 10203: u64 [a2 + 1912] = 0\n 10207: u64 [a2 + 1904] = 0\n 10211: u64 [a2 + 1896] = 0\n 10215: a0 = s1 + 0x1000\n 10219: i32 a0 = a0 + 0x7a0\n 10223: ra = 0x156\n 10227: ecalli 10 // 'value_transferred'\n 10229: t0 = 0x158\n 10233: jump @1385\n      : @369 [@dyn 171] (gas: 1)\n 10236: t0 = 344, jump @1385\n      : @370 [@dyn 172] (gas: 1)\n 10242: t0 = 346, jump @1382\n      : @371 [@dyn 173] (gas: 1)\n 10248: jump @373 if a0 == 0\n      : @372 (gas: 1)\n 10251: jump @712\n      : @373 (gas: 3)\n 10254: a0 = u64 [s1 + 0xb8]\n 10258: a0 = i32 [a0]\n 10260: jump @375 if a0 >u 3\n      : @374 (gas: 1)\n 10264: jump @713\n      : @375 (gas: 4)\n 10267: a0 = s1 + 0x7ff\n 10271: a0 = a0 + 0x41\n 10274: a1 = 0x40\n 10277: ra = 348, jump @17\n      : @376 [@dyn 174] (gas: 7)\n 10283: a3 = s1 + 0x7ff\n 10287: a3 = a3 + 0x39\n 10290: a4 = u64 [a3 + 0x20]\n 10293: a1 = u64 [a3 + 0x18]\n 10296: a2 = u64 [a3 + 0x10]\n 10299: a0 = u64 [a3 + 0x8]\n 10302: t0 = 350, jump @1354\n      : @377 [@dyn 175] (gas: 1)\n 10308: jump @379 if a1 == 0\n      : @378 (gas: 1)\n 10311: jump @673\n      : @379 (gas: 11)\n 10314: u64 [a3 + 0] = 0\n 10316: u64 [a3 + 4294967288] = 0\n 10319: a1 = s1 + 0x1000\n 10323: u64 [a1 + 4294965288] = 0\n 10327: a1 = s1 + 0x7ff\n 10331: a1 = a1 + 0x21\n 10334: a3 = s1 + 0x1000\n 10338: u64 [a3 + 4294965280] = 0x12\n 10343: u64 [s1 + 0xb8] = a0\n 10347: ra = 0x2f8\n 10351: jump @19\n      : @380 (gas: 11)\n 10354: a0 = s1 + 0x1838\n 10358: u64 [a0 + 960] = 0\n 10362: u64 [a0 + 952] = 0\n 10366: u64 [a0 + 944] = 0\n 10370: u64 [a0 + 936] = 0\n 10374: a0 = s1 + 0x2000\n 10378: i32 a0 = a0 + 0xfffffffffffffbe0\n 10382: ra = 0x160\n 10386: ecalli 10 // 'value_transferred'\n 10388: t0 = 0x162\n 10392: jump @1384\n      : @381 [@dyn 176] (gas: 1)\n 10395: t0 = 354, jump @1384\n      : @382 [@dyn 177] (gas: 1)\n 10401: t0 = 356, jump @1381\n      : @383 [@dyn 178] (gas: 1)\n 10407: jump @385 if a0 == 0\n      : @384 (gas: 1)\n 10410: jump @714\n      : @385 (gas: 4)\n 10413: a0 = u64 [s1 + 0xb8]\n 10417: a0 = i32 [a0]\n 10419: a1 = 0x43\n 10422: jump @387 if a1 <u a0\n      : @386 (gas: 1)\n 10425: jump @715\n      : @387 (gas: 6)\n 10428: a0 = 0xffffffff\n 10438: u64 [s1 + 0xb8] = a0\n 10442: a0 = s1 + 0x1500\n 10446: ra = 0x166\n 10450: t0 = 0x416\n 10454: jump @1417\n      : @388 [@dyn 179] (gas: 11)\n 10457: a1 = s1 + 0x1038\n 10461: a0 = u64 [a1 + 0x4c8]\n 10465: u64 [s1 + 0xb0] = a0\n 10469: a0 = u64 [a1 + 0x4d0]\n 10473: u64 [s1 + 0x90] = a0\n 10477: a0 = u32 [a1 + 0x4d8]\n 10481: u64 [s1 + 0x88] = a0\n 10485: a0 = s1 + 0x14e0\n 10489: ra = 0x168\n 10493: t0 = 0x420\n 10497: jump @1417\n      : @389 [@dyn 180] (gas: 19)\n 10500: a1 = s1 + 0x1038\n 10504: a2 = a1 + 0x400\n 10508: a0 = u64 [a2 + 0xb8]\n 10512: u64 [s1 + 0xa8] = a0\n 10516: a0 = u64 [a2 + 0xb0]\n 10520: u64 [s1 + 0xa0] = a0\n 10524: a0 = u64 [a2 + 0xa8]\n 10528: u64 [s1 + 0x98] = a0\n 10532: u64 [a1 + 1184] = 0\n 10536: a0 = u64 [s1 + 0x88]\n 10540: u64 [a2 + 0x98] = a0\n 10544: a0 = u64 [s1 + 0x90]\n 10548: u64 [a2 + 0x90] = a0\n 10552: a2 = a1\n 10554: a1 = s1 + 0x14c0\n 10558: a0 = u64 [s1 + 0xb0]\n 10562: u64 [a2 + 0x488] = a0\n 10566: a0 = 0\n 10568: ra = 362, jump @19\n      : @390 [@dyn 181] (gas: 3)\n 10574: t0 = 0x16c\n 10578: a1 = s1 + 0x1038\n 10582: fallthrough\n      : @391 [@dyn 182] (gas: 8)\n 10583: u64 [a1 + 1152] = 0\n 10587: u64 [a1 + 1144] = 0\n 10591: u64 [a1 + 1128] = 0x1\n 10596: a2 = a1\n 10598: a0 = 0x20\n 10601: a1 = s1 + 0x14a0\n 10605: u64 [a2 + 1136] = 0\n 10609: ra = 366, jump @19\n      : @392 [@dyn 183] (gas: 3)\n 10615: a1 = 0x2026c\n 10620: a0 = i32 [0x2026c]\n 10625: jump @394 if a0 >u 63\n      : @393 (gas: 2)\n 10629: u32 [0x2026c] = 0x40\n 10635: fallthrough\n      : @394 (gas: 15)\n 10636: a0 = sp + 0xffffffffffffffe0\n 10639: a2 = a0 & 0xffffffffffffffe0\n 10642: u64 [s1 + 0x88] = a2\n 10646: sp = a2\n 10648: a0 = 0x20280\n 10653: i32 a0 = a0 + 0\n 10655: i32 a2 = a2 + 0\n 10657: u64 [s1 + 0xb0] = a1\n 10661: a1 = 0x40\n 10664: u64 [s1 + 0x90] = a0\n 10668: ra = 0x170\n 10672: ecalli 6 // 'hash_keccak_256'\n 10674: a3 = u64 [s1 + 0x88]\n 10678: t0 = 0x172\n 10682: jump @1406\n      : @395 [@dyn 184] (gas: 2)\n 10685: a3 = u64 [s1 + 0x88]\n 10689: t0 = 370, jump @1406\n      : @396 [@dyn 185] (gas: 27)\n 10695: u64 [s1 + 0x80] = a0\n 10699: a0 = reverse a1\n 10701: u64 [s1 + 0x78] = a0\n 10704: a0 = reverse a2\n 10706: u64 [s1 + 0x70] = a0\n 10709: a0 = reverse a3\n 10711: u64 [s1 + 0x68] = a0\n 10714: a0 = sp + 0xffffffffffffffe0\n 10717: a0 = a0 & 0xffffffffffffffe0\n 10720: u64 [s1 + 0x88] = a0\n 10724: sp = a0\n 10726: a0 = u64 [s1 + 0x98]\n 10730: a0 = a0 & 0xffffffffffffffff\n 10733: a2 = u64 [s1 + 0xa0]\n 10737: a1 = a2 & 0xffffffffffffffff\n 10740: a2 = u64 [s1 + 0xb8]\n 10744: a3 = u64 [s1 + 0xa8]\n 10748: a2 = a2 & a3\n 10751: a3 = s1 + 0x1038\n 10755: u64 [a3 + 1120] = 0\n 10759: a4 = a3 + 0x400\n 10763: u64 [a4 + 0x58] = a2\n 10766: u64 [a4 + 0x50] = a1\n 10769: a1 = s1 + 0x1480\n 10773: u64 [a4 + 0x48] = a0\n 10776: a0 = 0\n 10778: ra = 372, jump @19\n      : @397 [@dyn 186] (gas: 14)\n 10784: a0 = u64 [s1 + 0x68]\n 10787: a1 = s1 + 0x1038\n 10791: a2 = a1 + 0x400\n 10795: u64 [a2 + 0x40] = a0\n 10798: a0 = u64 [s1 + 0x70]\n 10801: u64 [a2 + 0x38] = a0\n 10804: a0 = u64 [s1 + 0x78]\n 10807: u64 [a2 + 0x30] = a0\n 10810: a3 = a1\n 10812: a0 = 0x20\n 10815: a1 = s1 + 0x1460\n 10819: a2 = u64 [s1 + 0x80]\n 10823: u64 [a3 + 0x428] = a2\n 10827: ra = 374, jump @19\n      : @398 [@dyn 187] (gas: 3)\n 10833: a1 = u64 [s1 + 0xb0]\n 10837: a0 = i32 [a1]\n 10839: jump @400 if a0 >u 63\n      : @399 (gas: 2)\n 10843: u32 [a1 + 0] = 0x40\n 10846: fallthrough\n      : @400 (gas: 12)\n 10847: a0 = sp + 0xffffffffffffffe0\n 10850: a0 = a0 & 0xffffffffffffffe0\n 10853: u64 [s1 + 0xb8] = a0\n 10857: sp = a0\n 10859: i32 a2 = a0 + 0\n 10861: a1 = 0x40\n 10864: a0 = u64 [s1 + 0x90]\n 10868: ra = 0x178\n 10872: ecalli 6 // 'hash_keccak_256'\n 10874: a3 = u64 [s1 + 0xb8]\n 10878: t0 = 0x17a\n 10882: jump @1352\n      : @401 [@dyn 188] (gas: 2)\n 10885: a3 = u64 [s1 + 0xb8]\n 10889: t0 = 378, jump @1352\n      : @402 [@dyn 189] (gas: 7)\n 10895: a1 = u64 [s1 + 0x88]\n 10899: u64 [a1 + 0x18] = a3\n 10902: u64 [a1 + 0x10] = a2\n 10905: u64 [a1 + 0x8] = a4\n 10908: u64 [a1] = a0\n 10910: a0 = s1 + 0x1440\n 10914: ra = 380, jump @21\n      : @403 [@dyn 190] (gas: 13)\n 10920: a1 = s1 + 0x1038\n 10924: a2 = a1 + 0x400\n 10928: a0 = u64 [a2 + 0x20]\n 10931: u64 [s1 + 0xb8] = a0\n 10935: a0 = u64 [a2 + 0x18]\n 10938: u64 [s1 + 0xb0] = a0\n 10942: a0 = u64 [a2 + 0x10]\n 10945: u64 [s1 + 0xa8] = a0\n 10949: a0 = u64 [a2 + 0x8]\n 10952: u64 [s1 + 0xa0] = a0\n 10956: a0 = s1 + 0x1420\n 10960: a1 = 0x40\n 10963: ra = 382, jump @17\n      : @404 [@dyn 191] (gas: 4)\n 10969: a3 = s1 + 0x1038\n 10973: a0 = u64 [a3 + 0x400]\n 10977: a5 = a3 + 0x300\n 10981: t0 = 384, jump @1411\n      : @405 [@dyn 192] (gas: 1)\n 10987: jump @407 if a0 == 0\n      : @406 (gas: 1)\n 10990: jump @673\n      : @407 (gas: 14)\n 10993: a0 = u64 [s1 + 0xa0]\n 10997: a2 = a3 + 0x300\n 11001: u64 [a2 + 0xc8] = a0\n 11005: a0 = u64 [s1 + 0xa8]\n 11009: u64 [a2 + 0xd0] = a0\n 11013: a0 = u64 [s1 + 0xb0]\n 11017: u64 [a2 + 0xd8] = a0\n 11021: a1 = s1 + 0x1400\n 11025: a0 = u64 [s1 + 0xb8]\n 11029: u64 [a2 + 0xe0] = a0\n 11033: a0 = a4\n 11035: u64 [s1 + 0xb8] = a4\n 11039: ra = 0x2f8\n 11043: jump @19\n      : @408 (gas: 8)\n 11046: u64 [a2 + 1536] = 0\n 11050: u64 [a2 + 1528] = 0\n 11054: u64 [a2 + 1520] = 0\n 11058: u64 [a2 + 1512] = 0\n 11062: a0 = s1 + 0x1000\n 11066: i32 a0 = a0 + 0x620\n 11070: ecalli 10 // 'value_transferred'\n 11072: fallthrough\n      : @409 (gas: 10)\n 11073: a4 = s1 + 0x1038\n 11077: a5 = a4 + 0x500\n 11081: a0 = u64 [a5 + 0xf8]\n 11085: a1 = u64 [a4 + 0x600]\n 11089: a2 = u64 [a5 + 0xf0]\n 11093: a3 = u64 [a5 + 0xe8]\n 11097: a1 = a1 | a2\n 11100: a0 = a0 | a3\n 11103: a0 = a0 | a1\n 11106: jump @411 if a0 == 0\n      : @410 (gas: 1)\n 11109: jump @716\n      : @411 (gas: 3)\n 11112: a0 = u64 [s1 + 0xb8]\n 11116: a0 = i32 [a0]\n 11118: jump @413 if a0 >u 3\n      : @412 (gas: 1)\n 11122: jump @717\n      : @413 (gas: 7)\n 11125: u64 [a4 + 1568] = 0\n 11129: u64 [a4 + 1560] = 0\n 11133: u64 [a4 + 1552] = 0\n 11137: u64 [a4 + 1544] = 0x7\n 11142: a0 = s1 + 0x300\n 11146: a1 = s1 + 0x1640\n 11150: ra = 386, jump @21\n      : @414 [@dyn 193] (gas: 10)\n 11156: a1 = s1 + 0x300\n 11160: a0 = u64 [a1 + 0x10]\n 11163: u64 [s1 + 0xa8] = a0\n 11167: a0 = u64 [a1 + 0x8]\n 11170: u64 [s1 + 0xb8] = a0\n 11174: a0 = u64 [a1]\n 11176: u64 [s1 + 0xb0] = a0\n 11180: a0 = s1 + 0x2e0\n 11184: a1 = 0x40\n 11187: ra = 388, jump @17\n      : @415 [@dyn 194] (gas: 6)\n 11193: a4 = s1 + 0x200\n 11197: a3 = u64 [a4 + 0xf8]\n 11201: a1 = u64 [a4 + 0xf0]\n 11205: a2 = u64 [a4 + 0xe8]\n 11209: a0 = u64 [a4 + 0xe0]\n 11213: t0 = 390, jump @1356\n      : @416 [@dyn 195] (gas: 1)\n 11219: jump @418 if a1 == 0\n      : @417 (gas: 1)\n 11222: jump @673\n      : @418 (gas: 14)\n 11225: a1 = u64 [s1 + 0xa8]\n 11229: a1 = a1 << 0x20\n 11232: a2 = a1 >> 0x20\n 11235: u64 [s1 + 728] = 0\n 11239: a1 = u64 [s1 + 0xb0]\n 11243: a3 = s1 + 0x200\n 11247: u64 [a3 + 0xc0] = a1\n 11251: a1 = u64 [s1 + 0xb8]\n 11255: u64 [a3 + 0xc8] = a1\n 11259: a1 = s1 + 0x2c0\n 11263: u64 [a3 + 0xd0] = a2\n 11267: u64 [s1 + 0xb8] = a0\n 11271: ra = 0x2f8\n 11275: jump @19\n      : @419 (gas: 9)\n 11278: a0 = s1 + 0x1838\n 11282: u64 [a0 + 96] = 0\n 11285: u64 [a0 + 88] = 0\n 11288: u64 [a0 + 80] = 0\n 11291: u64 [a0 + 72] = 0\n 11294: a0 = s1 + 0x2000\n 11298: i32 a0 = a0 + 0xfffffffffffff880\n 11302: ecalli 10 // 'value_transferred'\n 11304: fallthrough\n      : @420 (gas: 9)\n 11305: a3 = s1 + 0x1838\n 11309: a0 = u64 [a3 + 0x58]\n 11312: a1 = u64 [a3 + 0x60]\n 11315: a2 = u64 [a3 + 0x50]\n 11318: a3 = u64 [a3 + 0x48]\n 11321: a1 = a1 | a2\n 11324: a0 = a0 | a3\n 11327: a0 = a0 | a1\n 11330: jump @422 if a0 == 0\n      : @421 (gas: 1)\n 11333: jump @718\n      : @422 (gas: 4)\n 11336: a0 = u64 [s1 + 0xb8]\n 11340: a0 = i32 [a0]\n 11342: a1 = 0x43\n 11345: jump @424 if a1 <u a0\n      : @423 (gas: 1)\n 11348: jump @719\n      : @424 (gas: 5)\n 11351: a0 = s1 + 0x7ff\n 11355: a0 = a0 + 0x441\n 11359: ra = 0x188\n 11363: t0 = 0x416\n 11367: jump @1417\n      : @425 [@dyn 196] (gas: 41)\n 11370: a1 = s1 + 0x7ff\n 11374: a1 = a1 + 0x39\n 11377: a2 = a1 + 0x400\n 11381: a0 = u64 [a2 + 0x18]\n 11384: u64 [s1 + 0x78] = a0\n 11387: a0 = u64 [a2 + 0x10]\n 11390: u64 [s1 + 0xa8] = a0\n 11394: a0 = u64 [a2 + 0x8]\n 11397: u64 [s1 + 0xb0] = a0\n 11401: a0 = s1 + 0x2000\n 11405: i32 a0 = a0 + 0xfffffffffffff8a0\n 11409: a1 = 0x24\n 11412: ecalli 1 // 'call_data_load'\n 11414: a0 = s1 + 0x1838\n 11418: a1 = u64 [a0 + 0x80]\n 11422: u64 [s1 + 0xa0] = a1\n 11426: a1 = u64 [a0 + 0x78]\n 11429: u64 [s1 + 0x90] = a1\n 11433: a1 = u64 [a0 + 0x70]\n 11436: u64 [s1 + 0x88] = a1\n 11440: a0 = u64 [a0 + 0x68]\n 11443: u64 [s1 + 0x80] = a0\n 11447: a0 = u64 [0x20048]\n 11452: u64 [s1 + 0x40] = a0\n 11455: a3 = s1 + 0x7ff\n 11459: a3 = a3 + 0x39\n 11462: u64 [a3 + 0x400] = a0\n 11466: a1 = u64 [0x20050]\n 11471: a2 = u64 [0x20058]\n 11476: a0 = u64 [0x20060]\n 11481: u64 [s1 + 0x30] = a1\n 11484: a4 = a3 + 0x300\n 11488: u64 [a4 + 0xf8] = a1\n 11492: u64 [s1 + 0x28] = a2\n 11495: u64 [a4 + 0xf0] = a2\n 11499: a1 = s1 + 0x7ff\n 11503: a1 = a1 + 0x421\n 11507: u64 [s1 + 0x38] = a0\n 11510: u64 [a4 + 0xe8] = a0\n 11514: a0 = 0\n 11516: ra = 394, jump @19\n      : @426 [@dyn 197] (gas: 11)\n 11522: a1 = s1 + 0x7ff\n 11526: a1 = a1 + 0x39\n 11529: u64 [a1 + 992] = 0\n 11533: u64 [a1 + 984] = 0\n 11537: u64 [a1 + 968] = 0x6\n 11542: a2 = a1\n 11544: a0 = 0x20\n 11547: a1 = s1 + 0x7ff\n 11551: a1 = a1 + 0x401\n 11555: u64 [a2 + 976] = 0\n 11559: ra = 396, jump @19\n      : @427 [@dyn 198] (gas: 3)\n 11565: a1 = 0x2026c\n 11570: a0 = i32 [0x2026c]\n 11575: jump @429 if a0 >u 63\n      : @428 (gas: 2)\n 11579: u32 [0x2026c] = 0x40\n 11585: fallthrough\n      : @429 (gas: 15)\n 11586: a0 = sp + 0xffffffffffffffe0\n 11589: a2 = a0 & 0xffffffffffffffe0\n 11592: u64 [s1 + 0x70] = a2\n 11595: sp = a2\n 11597: a0 = 0x20280\n 11602: i32 a0 = a0 + 0\n 11604: u64 [s1 + 0x98] = a1\n 11608: i32 a2 = a2 + 0\n 11610: a1 = 0x40\n 11613: u64 [s1 + 0xb8] = a0\n 11617: ra = 0x18e\n 11621: ecalli 6 // 'hash_keccak_256'\n 11623: a3 = u64 [s1 + 0x70]\n 11626: t0 = 0x190\n 11630: jump @1371\n      : @430 [@dyn 199] (gas: 2)\n 11633: a3 = u64 [s1 + 0x70]\n 11636: t0 = 400, jump @1371\n      : @431 [@dyn 200] (gas: 9)\n 11642: a0 = 0x30280\n 11647: u64 [s1 + 0x70] = a0\n 11650: i32 a0 = a0 + 0\n 11652: u64 [s1 + 0x20] = a0\n 11655: ra = 0x192\n 11659: ecalli 3 // 'caller'\n 11661: a2 = u64 [s1 + 0x70]\n 11664: t0 = 0x194\n 11668: jump @1343\n      : @432 [@dyn 201] (gas: 2)\n 11671: a2 = u64 [s1 + 0x70]\n 11674: t0 = 404, jump @1343\n      : @433 [@dyn 202] (gas: 9)\n 11680: u64 [a2 + 960] = 0\n 11684: a4 = a2 + 0x300\n 11688: u64 [a4 + 0xb8] = a1\n 11692: u64 [a4 + 0xb0] = a0\n 11696: a1 = s1 + 0x7ff\n 11700: a1 = a1 + 0x3e1\n 11704: u64 [a4 + 0xa8] = a3\n 11708: a0 = 0\n 11710: ra = 406, jump @19\n      : @434 [@dyn 203] (gas: 16)\n 11716: a0 = u64 [s1 + 0x48]\n 11719: a1 = s1 + 0x7ff\n 11723: a1 = a1 + 0x39\n 11726: a2 = a1 + 0x300\n 11730: u64 [a2 + 0xa0] = a0\n 11734: a0 = u64 [s1 + 0x50]\n 11737: u64 [a2 + 0x98] = a0\n 11741: a0 = u64 [s1 + 0x58]\n 11744: u64 [a2 + 0x90] = a0\n 11748: a3 = a1\n 11750: a0 = 0x20\n 11753: a1 = s1 + 0x7ff\n 11757: a1 = a1 + 0x3c1\n 11761: a2 = u64 [s1 + 0x60]\n 11764: u64 [a3 + 0x388] = a2\n 11768: ra = 408, jump @19\n      : @435 [@dyn 204] (gas: 3)\n 11774: a1 = u64 [s1 + 0x98]\n 11778: a0 = i32 [a1]\n 11780: jump @437 if a0 >u 63\n      : @436 (gas: 2)\n 11784: u32 [a1 + 0] = 0x40\n 11787: fallthrough\n      : @437 (gas: 4)\n 11788: a0 = sp + 0xffffffffffffffe0\n 11791: a0 = a0 & 0xffffffffffffffe0\n 11794: u64 [s1 + 0x60] = a0\n 11797: t0 = 410, jump @1408\n      : @438 [@dyn 205] (gas: 5)\n 11803: ra = 0x19c\n 11807: ecalli 6 // 'hash_keccak_256'\n 11809: a3 = u64 [s1 + 0x60]\n 11812: t0 = 0x19e\n 11816: jump @1380\n      : @439 [@dyn 206] (gas: 2)\n 11819: a3 = u64 [s1 + 0x60]\n 11822: t0 = 414, jump @1380\n      : @440 [@dyn 207] (gas: 3)\n 11828: a0 = s1 + 0x7ff\n 11832: a0 = a0 + 0x3a1\n 11836: ra = 416, jump @21\n      : @441 [@dyn 208] (gas: 4)\n 11842: a2 = s1 + 0x7ff\n 11846: a2 = a2 + 0x39\n 11849: a0 = u8 [a2 + 0x368]\n 11853: jump @443 if a0 != 0\n      : @442 (gas: 1)\n 11856: jump @720\n      : @443 (gas: 9)\n 11859: a0 = u64 [s1 + 0x78]\n 11862: a0 = a0 << 0x20\n 11865: a2 = a0 >> 0x20\n 11868: a0 = u64 [s1 + 0xb0]\n 11872: a1 = u64 [s1 + 0xa8]\n 11876: a0 = a0 | a1\n 11879: u64 [s1 + 0x70] = a2\n 11882: a0 = a0 | a2\n 11885: jump @445 if a0 != 0\n      : @444 (gas: 1)\n 11888: jump @728\n      : @445 (gas: 1)\n 11891: ra = 418, jump @1334\n      : @446 [@dyn 209] (gas: 9)\n 11897: a0 = s1 + 0x1838\n 11901: u64 [a0 + 160] = 0\n 11905: u64 [a0 + 152] = 0\n 11909: u64 [a0 + 144] = 0\n 11913: u64 [a0 + 136] = 0x2\n 11918: a0 = s1 + 0x7ff\n 11922: a0 = a0 + 0x381\n 11926: a1 = s1 + 0x18c0\n 11930: ra = 420, jump @21\n      : @447 [@dyn 210] (gas: 40)\n 11936: a1 = s1 + 0x7ff\n 11940: a1 = a1 + 0x39\n 11943: t2 = u64 [a1 + 0x360]\n 11947: a2 = a1 + 0x300\n 11951: a0 = u64 [a2 + 0x58]\n 11954: a4 = u64 [a2 + 0x48]\n 11957: a5 = u64 [a2 + 0x50]\n 11960: a1 = sp + 0xffffffffffffffe0\n 11963: a1 = a1 & 0xffffffffffffffe0\n 11966: sp = a1\n 11968: a3 = u64 [s1 + 0x88]\n 11972: a3 = a3 + a5\n 11975: t0 = u64 [s1 + 0x80]\n 11979: t0 = t0 + a4\n 11982: a4 = t0 <u a4\n 11985: a3 = a3 + a4\n 11988: t1 = a3 ^ a5\n 11991: a2 = a3 <u a5\n 11994: a2 = a4 if t1 == 0\n 11997: a4 = u64 [s1 + 0x90]\n 12001: a4 = a4 + a0\n 12004: a5 = a4 + a2\n 12007: t1 = a5 <u a4\n 12010: ra = u64 [s1 + 0xa0]\n 12014: ra = ra + t2\n 12017: a4 = a4 <u a0\n 12020: a4 = a4 + ra\n 12023: ra = a4 + t1\n 12026: t1 = a5 <u a0\n 12029: a4 = t2 ^ ra\n 12032: t2 = ra <u t2\n 12035: t2 = t1 if a4 == 0\n 12038: a0 = a0 ^ a5\n 12041: a0 = a0 | a4\n 12044: t2 = a2 if a0 == 0\n 12047: u64 [a1 + 0x10] = a5\n 12050: u64 [a1 + 0x8] = a3\n 12053: u64 [a1] = t0\n 12055: u64 [a1 + 0x18] = ra\n 12058: jump @449 if t2 == 0\n      : @448 (gas: 1)\n 12061: jump @730\n      : @449 (gas: 7)\n 12064: a0 = s1 + 0x1838\n 12068: u64 [a0 + 192] = 0\n 12072: u64 [a0 + 184] = 0\n 12076: u64 [a0 + 176] = 0\n 12080: u64 [a0 + 168] = 0x2\n 12085: a0 = s1 + 0x18e0\n 12089: ra = 422, jump @24\n      : @450 [@dyn 211] (gas: 14)\n 12095: a2 = s1 + 0x7ff\n 12099: a2 = a2 + 0x39\n 12102: u64 [a2 + 832] = 0\n 12106: a0 = u64 [s1 + 0x70]\n 12109: a3 = a2 + 0x300\n 12113: u64 [a3 + 0x38] = a0\n 12116: a0 = u64 [s1 + 0xa8]\n 12120: u64 [a3 + 0x30] = a0\n 12123: a1 = s1 + 0x7ff\n 12127: a1 = a1 + 0x361\n 12131: a0 = u64 [s1 + 0xb0]\n 12135: u64 [a3 + 0x28] = a0\n 12138: a0 = 0\n 12140: ra = 424, jump @19\n      : @451 [@dyn 212] (gas: 11)\n 12146: a0 = s1 + 0x7ff\n 12150: a0 = a0 + 0x39\n 12153: u64 [a0 + 800] = 0\n 12157: u64 [a0 + 792] = 0\n 12161: u64 [a0 + 784] = 0\n 12165: a2 = a0\n 12167: a0 = 0x20\n 12170: a1 = s1 + 0x7ff\n 12174: a1 = a1 + 0x341\n 12178: u64 [a2 + 776] = 0\n 12182: ra = 426, jump @19\n      : @452 [@dyn 213] (gas: 7)\n 12188: a0 = sp + 0xffffffffffffffe0\n 12191: a0 = a0 & 0xffffffffffffffe0\n 12194: u64 [s1 + 0x78] = a0\n 12197: sp = a0\n 12199: a2 = u64 [s1 + 0x98]\n 12203: a0 = i32 [a2]\n 12205: jump @454 if a0 >u 63\n      : @453 (gas: 2)\n 12209: u32 [a2 + 0] = 0x40\n 12212: fallthrough\n      : @454 (gas: 4)\n 12213: a0 = sp + 0xffffffffffffffe0\n 12216: a0 = a0 & 0xffffffffffffffe0\n 12219: u64 [s1 + 0x98] = a0\n 12223: t0 = 428, jump @1408\n      : @455 [@dyn 214] (gas: 5)\n 12229: ra = 0x1ae\n 12233: ecalli 6 // 'hash_keccak_256'\n 12235: a3 = u64 [s1 + 0x98]\n 12239: t0 = 0x1b0\n 12243: jump @1352\n      : @456 [@dyn 215] (gas: 2)\n 12246: a3 = u64 [s1 + 0x98]\n 12250: t0 = 432, jump @1352\n      : @457 [@dyn 216] (gas: 8)\n 12256: a1 = u64 [s1 + 0x78]\n 12259: u64 [a1 + 0x18] = a3\n 12262: u64 [a1 + 0x10] = a2\n 12265: u64 [a1 + 0x8] = a4\n 12268: u64 [a1] = a0\n 12270: a0 = s1 + 0x7ff\n 12274: a0 = a0 + 0x321\n 12278: ra = 434, jump @21\n      : @458 [@dyn 217] (gas: 33)\n 12284: a2 = s1 + 0x7ff\n 12288: a2 = a2 + 0x39\n 12291: a4 = a2 + 0x200\n 12295: a0 = u64 [a4 + 0xf0]\n 12299: a1 = u64 [a4 + 0xe8]\n 12303: t0 = u64 [a2 + 0x300]\n 12307: a3 = u64 [a4 + 0xf8]\n 12311: a4 = u64 [s1 + 0x88]\n 12315: a4 = a4 + a0\n 12318: a5 = u64 [s1 + 0x80]\n 12322: a5 = a5 + a1\n 12325: a1 = a5 <u a1\n 12328: a4 = a4 + a1\n 12331: a2 = a4 ^ a0\n 12334: a0 = a4 <u a0\n 12337: a0 = a1 if a2 == 0\n 12340: a1 = u64 [s1 + 0x90]\n 12344: a1 = a1 + a3\n 12347: a2 = u64 [s1 + 0xa0]\n 12351: t0 = t0 + a2\n 12354: a2 = a1 <u a3\n 12357: a2 = a2 + t0\n 12360: a0 = a0 + a1\n 12363: a1 = a0 <u a1\n 12366: a1 = a1 + a2\n 12369: a2 = s1 + 0x1838\n 12373: u64 [a2 + 0xc8] = a5\n 12377: u64 [a2 + 0xd0] = a4\n 12381: u64 [a2 + 0xd8] = a0\n 12385: u64 [a2 + 0xe0] = a1\n 12389: a1 = s1 + 0x1900\n 12393: a0 = u64 [s1 + 0x78]\n 12396: ra = 436, jump @24\n      : @459 [@dyn 218] (gas: 4)\n 12402: a0 = s1 + 0x7ff\n 12406: a0 = a0 + 0x301\n 12410: a1 = 0x40\n 12413: ra = 438, jump @17\n      : @460 [@dyn 219] (gas: 8)\n 12419: a3 = s1 + 0x7ff\n 12423: a3 = a3 + 0x39\n 12426: a5 = a3 + 0x200\n 12430: a4 = u64 [a5 + 0xe0]\n 12434: a1 = u64 [a5 + 0xd8]\n 12438: a2 = u64 [a5 + 0xd0]\n 12442: a0 = u64 [a5 + 0xc8]\n 12446: t0 = 440, jump @1354\n      : @461 [@dyn 220] (gas: 1)\n 12452: jump @463 if a1 == 0\n      : @462 (gas: 1)\n 12455: jump @673\n      : @463 (gas: 13)\n 12458: a1 = u64 [s1 + 0x80]\n 12462: a4 = a3 + 0x200\n 12466: u64 [a4 + 0xa8] = a1\n 12470: a1 = u64 [s1 + 0x88]\n 12474: u64 [a4 + 0xb0] = a1\n 12478: a1 = u64 [s1 + 0x90]\n 12482: u64 [a4 + 0xb8] = a1\n 12486: a1 = s1 + 0x7ff\n 12490: a1 = a1 + 0x2e1\n 12494: a2 = u64 [s1 + 0xa0]\n 12498: u64 [a4 + 0xc0] = a2\n 12502: u64 [s1 + 0xa0] = a0\n 12506: ra = 442, jump @19\n      : @464 [@dyn 221] (gas: 31)\n 12512: a5 = s1 + 0x7ff\n 12516: a5 = a5 + 0x39\n 12519: u64 [a5 + 608] = 0\n 12523: a0 = u64 [s1 + 0x70]\n 12526: a4 = a5 + 0x200\n 12530: u64 [a4 + 0x58] = a0\n 12533: a0 = u64 [s1 + 0xa8]\n 12537: u64 [a4 + 0x50] = a0\n 12540: a0 = u64 [s1 + 0xb0]\n 12544: u64 [a4 + 0x48] = a0\n 12547: u64 [a5 + 640] = 0\n 12551: u64 [a5 + 632] = 0\n 12555: u64 [a5 + 624] = 0\n 12559: a0 = u64 [0x200a8]\n 12564: a1 = u64 [0x200b0]\n 12569: a2 = u64 [0x200b8]\n 12574: a3 = u64 [0x200c0]\n 12579: u64 [a4 + 0xa0] = a0\n 12583: u64 [a4 + 0x98] = a1\n 12587: u64 [a4 + 0x90] = a2\n 12591: u64 [a4 + 0x88] = a3\n 12595: a1 = 0x20\n 12598: a2 = s1 + 0x7ff\n 12602: a2 = a2 + 0x2c1\n 12606: a3 = s1 + 0x7ff\n 12610: a3 = a3 + 0x2a1\n 12614: a4 = s1 + 0x7ff\n 12618: a4 = a4 + 0x281\n 12622: u64 [a5 + 616] = 0\n 12626: a0 = u64 [s1 + 0xa0]\n 12630: ra = 444, jump @27\n      : @465 [@dyn 222] (gas: 5)\n 12636: a0 = 0\n 12638: a1 = u64 [s1 + 0xb8]\n 12642: a2 = 0\n 12644: ecalli 7 // 'seal_return'\n 12646: jump @847\n      : @466 (gas: 11)\n 12649: a0 = s1 + 0x1838\n 12653: u64 [a0 + 768] = 0\n 12657: u64 [a0 + 760] = 0\n 12661: u64 [a0 + 752] = 0\n 12665: u64 [a0 + 744] = 0\n 12669: a0 = s1 + 0x2000\n 12673: i32 a0 = a0 + 0xfffffffffffffb20\n 12677: ra = 0x1be\n 12681: ecalli 10 // 'value_transferred'\n 12683: t0 = 0x1c0\n 12687: jump @1398\n      : @467 [@dyn 223] (gas: 1)\n 12690: t0 = 448, jump @1398\n      : @468 [@dyn 224] (gas: 8)\n 12696: a0 = u64 [a4 + 0xf8]\n 12700: a1 = u64 [a3 + 0x300]\n 12704: a2 = u64 [a4 + 0xf0]\n 12708: a3 = u64 [a4 + 0xe8]\n 12712: a1 = a1 | a2\n 12715: a0 = a0 | a3\n 12718: a0 = a0 | a1\n 12721: jump @470 if a0 == 0\n      : @469 (gas: 1)\n 12724: jump @736\n      : @470 (gas: 3)\n 12727: a0 = u64 [s1 + 0xb8]\n 12731: a0 = i32 [a0]\n 12733: jump @472 if a0 >u 3\n      : @471 (gas: 1)\n 12737: jump @737\n      : @472 (gas: 3)\n 12740: a0 = s1 + 0x1200\n 12744: a1 = 0x40\n 12747: ra = 450, jump @17\n      : @473 [@dyn 225] (gas: 7)\n 12753: a3 = s1 + 0x1038\n 12757: a5 = a3 + 0x100\n 12761: a4 = u64 [a5 + 0xe0]\n 12765: a1 = u64 [a5 + 0xd8]\n 12769: a2 = u64 [a5 + 0xd0]\n 12773: a0 = u64 [a5 + 0xc8]\n 12777: t0 = 452, jump @1354\n      : @474 [@dyn 226] (gas: 1)\n 12783: jump @476 if a1 == 0\n      : @475 (gas: 1)\n 12786: jump @673\n      : @476 (gas: 8)\n 12789: u64 [a3 + 448] = 0\n 12793: u64 [a3 + 440] = 0\n 12797: u64 [a3 + 432] = 0\n 12801: a1 = s1 + 0x11e0\n 12805: u64 [a3 + 424] = 0\n 12809: u64 [s1 + 0xb8] = a0\n 12813: ra = 0x2f8\n 12817: jump @19\n      : @477 (gas: 10)\n 12820: u64 [a2 + 2016] = 0\n 12824: u64 [a2 + 2008] = 0\n 12828: u64 [a2 + 2000] = 0\n 12832: u64 [a2 + 1992] = 0\n 12836: a0 = s1 + 0x2000\n 12840: i32 a0 = a0 + 0xfffffffffffff800\n 12844: ra = 0x1c6\n 12848: ecalli 10 // 'value_transferred'\n 12850: t0 = 0x1c8\n 12854: jump @1385\n      : @478 [@dyn 227] (gas: 1)\n 12857: t0 = 456, jump @1385\n      : @479 [@dyn 228] (gas: 8)\n 12863: a0 = u64 [a4 + 0xd8]\n 12867: a1 = u64 [a4 + 0xe0]\n 12871: a2 = u64 [a4 + 0xd0]\n 12875: a3 = u64 [a4 + 0xc8]\n 12879: a1 = a1 | a2\n 12882: a0 = a0 | a3\n 12885: a0 = a0 | a1\n 12888: jump @481 if a0 == 0\n      : @480 (gas: 1)\n 12891: jump @738\n      : @481 (gas: 3)\n 12894: a0 = u64 [s1 + 0xb8]\n 12898: a0 = i32 [a0]\n 12900: jump @483 if a0 >u 3\n      : @482 (gas: 1)\n 12904: jump @739\n      : @483 (gas: 1)\n 12907: ra = 458, jump @1153\n      : @484 [@dyn 229] (gas: 9)\n 12913: a0 = s1 + 0x1838\n 12917: u64 [a0 + 0] = 0\n 12919: u64 [a0 + 4294967288] = 0\n 12922: u64 [a0 + 4294967280] = 0\n 12925: u64 [a0 + 4294967272] = 0x5\n 12929: a0 = s1 + 0x7ff\n 12933: a0 = a0 + 0x181\n 12937: a1 = s1 + 0x1820\n 12941: ra = 460, jump @21\n      : @485 [@dyn 230] (gas: 5)\n 12947: a3 = s1 + 0x7ff\n 12951: a3 = a3 + 0x39\n 12954: a0 = u64 [a3 + 0x148]\n 12958: a1 = a0 & 0xff\n 12962: jump @487 if a1 != 0\n      : @486 (gas: 1)\n 12965: jump @740\n      : @487 (gas: 17)\n 12968: a4 = a3 + 0x100\n 12972: a1 = u64 [a4 + 0x60]\n 12975: a2 = u64 [a4 + 0x58]\n 12978: a3 = u64 [a4 + 0x50]\n 12981: a0 = a0 & 0xffffffffffffff00\n 12985: a4 = s1 + 0x1838\n 12989: u64 [a4 + 32] = 0\n 12992: u64 [a4 + 24] = 0\n 12995: u64 [a4 + 16] = 0\n 12998: u64 [a4 + 8] = 0x5\n 13002: u64 [a4 + 0x30] = a3\n 13005: u64 [a4 + 0x28] = a0\n 13008: u64 [a4 + 0x38] = a2\n 13011: u64 [a4 + 0x40] = a1\n 13014: a0 = s1 + 0x1840\n 13018: a1 = s1 + 0x1860\n 13022: ra = 462, jump @24\n      : @488 [@dyn 231] (gas: 4)\n 13028: a0 = s1 + 0x7ff\n 13032: a0 = a0 + 0x161\n 13036: a1 = 0x40\n 13039: ra = 464, jump @17\n      : @489 [@dyn 232] (gas: 18)\n 13045: a0 = s1 + 0x7ff\n 13049: a0 = a0 + 0x39\n 13052: a2 = a0 + 0x100\n 13056: a1 = u64 [a2 + 0x40]\n 13059: u64 [s1 + 0xb0] = a1\n 13063: a1 = u64 [a2 + 0x38]\n 13066: u64 [s1 + 0xa8] = a1\n 13070: a1 = u64 [a2 + 0x30]\n 13073: u64 [s1 + 0xa0] = a1\n 13077: a0 = u64 [a2 + 0x28]\n 13080: u64 [s1 + 0xb8] = a0\n 13084: a0 = 0x30280\n 13089: u64 [s1 + 0x98] = a0\n 13093: i32 a0 = a0 + 0\n 13095: ra = 0x1d2\n 13099: ecalli 3 // 'caller'\n 13101: t0 = 0x1d4\n 13105: jump @1409\n      : @490 [@dyn 233] (gas: 1)\n 13108: t0 = 468, jump @1409\n      : @491 [@dyn 234] (gas: 1)\n 13114: jump @493 if a0 == 0\n      : @492 (gas: 1)\n 13117: jump @673\n      : @493 (gas: 2)\n 13120: a2 = u64 [s1 + 0x98]\n 13124: t0 = 470, jump @1343\n      : @494 [@dyn 235] (gas: 9)\n 13130: u64 [a2 + 288] = 0\n 13134: a5 = a2 + 0x100\n 13138: u64 [a5 + 0x18] = a1\n 13141: u64 [a5 + 0x10] = a0\n 13144: a1 = s1 + 0x7ff\n 13148: a1 = a1 + 0x141\n 13152: u64 [a5 + 0x8] = a3\n 13155: a0 = a4\n 13157: ra = 472, jump @19\n      : @495 [@dyn 236] (gas: 16)\n 13163: a0 = u64 [0x200c8]\n 13168: a1 = u64 [0x200d0]\n 13173: a2 = s1 + 0x7ff\n 13177: a2 = a2 + 0x39\n 13180: u64 [a2 + 0x100] = a0\n 13184: a0 = u64 [0x200d8]\n 13189: u64 [a2 + 0xf8] = a1\n 13193: a3 = u64 [0x200e0]\n 13198: u64 [a2 + 0xf0] = a0\n 13202: a0 = a2\n 13204: a1 = 0x20\n 13207: a2 = s1 + 0x7ff\n 13211: a2 = a2 + 0x121\n 13215: u64 [a0 + 0xe8] = a3\n 13219: a0 = u64 [s1 + 0xb8]\n 13223: ra = 474, jump @25\n      : @496 [@dyn 237] (gas: 6)\n 13229: a1 = 0x20280\n 13234: i32 a1 = a1 + 0\n 13236: a0 = 0\n 13238: a2 = 0\n 13240: ecalli 7 // 'seal_return'\n 13242: jump @847\n      : @497 (gas: 8)\n 13245: u64 [a2 + 1664] = 0\n 13249: u64 [a2 + 1656] = 0\n 13253: u64 [a2 + 1648] = 0\n 13257: u64 [a2 + 1640] = 0\n 13261: a0 = s1 + 0x1000\n 13265: i32 a0 = a0 + 0x6a0\n 13269: ecalli 10 // 'value_transferred'\n 13271: fallthrough\n      : @498 (gas: 10)\n 13272: a4 = s1 + 0x1038\n 13276: a5 = a4 + 0x600\n 13280: a0 = u64 [a5 + 0x78]\n 13283: a1 = u64 [a5 + 0x80]\n 13287: a2 = u64 [a5 + 0x70]\n 13290: a3 = u64 [a5 + 0x68]\n 13293: a1 = a1 | a2\n 13296: a0 = a0 | a3\n 13299: a0 = a0 | a1\n 13302: jump @500 if a0 == 0\n      : @499 (gas: 1)\n 13305: jump @745\n      : @500 (gas: 3)\n 13308: a0 = u64 [s1 + 0xb8]\n 13312: a0 = i32 [a0]\n 13314: jump @502 if a0 >u 3\n      : @501 (gas: 1)\n 13318: jump @746\n      : @502 (gas: 7)\n 13321: u64 [a4 + 1696] = 0\n 13325: u64 [a4 + 1688] = 0\n 13329: u64 [a4 + 1680] = 0\n 13333: u64 [a4 + 1672] = 0x2\n 13338: a0 = s1 + 0x560\n 13342: a1 = s1 + 0x16c0\n 13346: ra = 476, jump @21\n      : @503 [@dyn 238] (gas: 11)\n 13352: a0 = u64 [s1 + 0x578]\n 13356: u64 [s1 + 0xb8] = a0\n 13360: a0 = u64 [s1 + 0x570]\n 13364: u64 [s1 + 0xb0] = a0\n 13368: a0 = u64 [s1 + 0x568]\n 13372: u64 [s1 + 0xa8] = a0\n 13376: a0 = u64 [s1 + 0x560]\n 13380: u64 [s1 + 0xa0] = a0\n 13384: a0 = s1 + 0x540\n 13388: a1 = 0x40\n 13391: ra = 478, jump @17\n      : @504 [@dyn 239] (gas: 6)\n 13397: a4 = s1 + 0x500\n 13401: a0 = u64 [a4 + 0x58]\n 13404: a1 = u64 [a4 + 0x50]\n 13407: a2 = u64 [a4 + 0x48]\n 13410: a3 = u64 [a4 + 0x40]\n 13413: t0 = 480, jump @1407\n      : @505 [@dyn 240] (gas: 1)\n 13419: jump @507 if a0 == 0\n      : @506 (gas: 1)\n 13422: jump @673\n      : @507 (gas: 14)\n 13425: a0 = u64 [s1 + 0xa0]\n 13429: a2 = s1 + 0x500\n 13433: u64 [a2 + 0x20] = a0\n 13436: a0 = u64 [s1 + 0xa8]\n 13440: u64 [a2 + 0x28] = a0\n 13443: a0 = u64 [s1 + 0xb0]\n 13447: u64 [a2 + 0x30] = a0\n 13450: a1 = s1 + 0x520\n 13454: a0 = u64 [s1 + 0xb8]\n 13458: u64 [a2 + 0x38] = a0\n 13461: a0 = a3\n 13463: u64 [s1 + 0xb8] = a3\n 13467: ra = 0x2f8\n 13471: jump @19\n      : @508 (gas: 1)\n 13474: jump @510 if a0 == 1889567281\n      : @509 (gas: 1)\n 13481: jump @747\n      : @510 (gas: 10)\n 13484: u64 [a2 + 384] = 0\n 13488: u64 [a2 + 376] = 0\n 13492: u64 [a2 + 368] = 0\n 13496: u64 [a2 + 360] = 0\n 13500: a0 = s1 + 0x2000\n 13504: i32 a0 = a0 + 0xfffffffffffff9a0\n 13508: ra = 0x1e2\n 13512: ecalli 10 // 'value_transferred'\n 13514: t0 = 0x1e4\n 13518: jump @1399\n      : @511 [@dyn 241] (gas: 1)\n 13521: t0 = 484, jump @1399\n      : @512 [@dyn 242] (gas: 1)\n 13527: t0 = 486, jump @1382\n      : @513 [@dyn 243] (gas: 1)\n 13533: jump @515 if a0 == 0\n      : @514 (gas: 1)\n 13536: jump @753\n      : @515 (gas: 4)\n 13539: a0 = u64 [s1 + 0xb8]\n 13543: a0 = i32 [a0]\n 13545: a1 = 0x23\n 13548: jump @517 if a1 <u a0\n      : @516 (gas: 1)\n 13551: jump @754\n      : @517 (gas: 5)\n 13554: a0 = s1 + 0x7ff\n 13558: a0 = a0 + 0x5a1\n 13562: ra = 0x1e8\n 13566: t0 = 0x416\n 13570: jump @1417\n      : @518 [@dyn 244] (gas: 14)\n 13573: a3 = s1 + 0x7ff\n 13577: a3 = a3 + 0x39\n 13580: a4 = a3 + 0x500\n 13584: a0 = u64 [a4 + 0x68]\n 13587: a1 = u64 [a4 + 0x70]\n 13590: a2 = u32 [a3 + 0x578]\n 13594: u64 [a3 + 1376] = 0\n 13598: u64 [a4 + 0x58] = a2\n 13601: u64 [a4 + 0x50] = a1\n 13604: a1 = s1 + 0x7ff\n 13608: a1 = a1 + 0x581\n 13612: u64 [a4 + 0x48] = a0\n 13615: a0 = 0\n 13617: ra = 490, jump @19\n      : @519 [@dyn 245] (gas: 11)\n 13623: a0 = s1 + 0x7ff\n 13627: a0 = a0 + 0x39\n 13630: u64 [a0 + 1344] = 0\n 13634: u64 [a0 + 1336] = 0\n 13638: u64 [a0 + 1328] = 0\n 13642: a2 = a0\n 13644: a0 = 0x20\n 13647: a1 = s1 + 0x7ff\n 13651: a1 = a1 + 0x561\n 13655: u64 [a2 + 1320] = 0\n 13659: ra = 492, jump @19\n      : @520 [@dyn 246] (gas: 2)\n 13665: a1 = i32 [0x2026c]\n 13670: jump @522 if a1 >u 63\n      : @521 (gas: 2)\n 13674: u32 [0x2026c] = 0x40\n 13680: fallthrough\n      : @522 (gas: 11)\n 13681: a0 = sp + 0xffffffffffffffe0\n 13684: a2 = a0 & 0xffffffffffffffe0\n 13687: u64 [s1 + 0xb8] = a2\n 13691: sp = a2\n 13693: a0 = 0x20280\n 13698: i32 a0 = a0 + 0\n 13700: i32 a2 = a2 + 0\n 13702: a1 = 0x40\n 13705: ra = 0x1ee\n 13709: ecalli 6 // 'hash_keccak_256'\n 13711: fallthrough\n      : @523 [@dyn 247] (gas: 6)\n 13712: a3 = u64 [s1 + 0xb8]\n 13716: a0 = u64 [a3 + 0x18]\n 13719: a1 = u64 [a3 + 0x10]\n 13722: a2 = u64 [a3 + 0x8]\n 13725: a3 = u64 [a3]\n 13727: t0 = 496, jump @1373\n      : @524 [@dyn 248] (gas: 10)\n 13733: a4 = s1 + 0x1838\n 13737: a5 = a4 + 0x100\n 13741: u64 [a5 + 0xa0] = a3\n 13745: u64 [a5 + 0x98] = a2\n 13749: u64 [a5 + 0x90] = a1\n 13753: u64 [a5 + 0x88] = a0\n 13757: a0 = s1 + 0x7ff\n 13761: a0 = a0 + 0x541\n 13765: a1 = s1 + 0x19c0\n 13769: ra = 498, jump @21\n      : @525 [@dyn 249] (gas: 15)\n 13775: a1 = s1 + 0x7ff\n 13779: a1 = a1 + 0x39\n 13782: a2 = a1 + 0x500\n 13786: a0 = u64 [a2 + 0x20]\n 13789: u64 [s1 + 0xb8] = a0\n 13793: a0 = u64 [a2 + 0x18]\n 13796: u64 [s1 + 0xb0] = a0\n 13800: a0 = u64 [a2 + 0x10]\n 13803: u64 [s1 + 0xa8] = a0\n 13807: a0 = u64 [a2 + 0x8]\n 13810: u64 [s1 + 0xa0] = a0\n 13814: a0 = s1 + 0x7ff\n 13818: a0 = a0 + 0x521\n 13822: a1 = 0x40\n 13825: ra = 500, jump @17\n      : @526 [@dyn 250] (gas: 5)\n 13831: a3 = s1 + 0x7ff\n 13835: a3 = a3 + 0x39\n 13838: a0 = u64 [a3 + 0x500]\n 13842: a5 = a3 + 0x400\n 13846: t0 = 502, jump @1411\n      : @527 [@dyn 251] (gas: 1)\n 13852: jump @529 if a0 == 0\n      : @528 (gas: 1)\n 13855: jump @673\n      : @529 (gas: 15)\n 13858: a0 = u64 [s1 + 0xa0]\n 13862: a2 = a3 + 0x400\n 13866: u64 [a2 + 0xc8] = a0\n 13870: a0 = u64 [s1 + 0xa8]\n 13874: u64 [a2 + 0xd0] = a0\n 13878: a0 = u64 [s1 + 0xb0]\n 13882: u64 [a2 + 0xd8] = a0\n 13886: a1 = s1 + 0x7ff\n 13890: a1 = a1 + 0x501\n 13894: a0 = u64 [s1 + 0xb8]\n 13898: u64 [a2 + 0xe0] = a0\n 13902: a0 = a4\n 13904: u64 [s1 + 0xb8] = a4\n 13908: ra = 0x2f8\n 13912: jump @19\n      : @530 (gas: 11)\n 13915: a0 = s1 + 0x1838\n 13919: u64 [a0 + 640] = 0\n 13923: u64 [a0 + 632] = 0\n 13927: u64 [a0 + 624] = 0\n 13931: u64 [a0 + 616] = 0\n 13935: a0 = s1 + 0x2000\n 13939: i32 a0 = a0 + 0xfffffffffffffaa0\n 13943: ra = 0x1f8\n 13947: ecalli 10 // 'value_transferred'\n 13949: t0 = 0x1fa\n 13953: jump @1398\n      : @531 [@dyn 252] (gas: 1)\n 13956: t0 = 506, jump @1398\n      : @532 [@dyn 253] (gas: 1)\n 13962: t0 = 508, jump @1382\n      : @533 [@dyn 254] (gas: 1)\n 13968: jump @535 if a0 == 0\n      : @534 (gas: 1)\n 13971: jump @755\n      : @535 (gas: 4)\n 13974: a0 = u64 [s1 + 0xb8]\n 13978: a0 = i32 [a0]\n 13980: a1 = 0x43\n 13983: jump @537 if a1 <u a0\n      : @536 (gas: 1)\n 13986: jump @756\n      : @537 (gas: 5)\n 13989: a0 = s1 + 0x7ff\n 13993: a0 = a0 + 0x7e1\n 13997: ra = 0x1fe\n 14001: t0 = 0x420\n 14005: jump @1417\n      : @538 [@dyn 255] (gas: 16)\n 14008: a1 = s1 + 0x7ff\n 14012: a1 = a1 + 0x39\n 14015: a2 = a1 + 0x700\n 14019: a0 = u64 [a2 + 0xb8]\n 14023: u64 [s1 + 0xa8] = a0\n 14027: a0 = u64 [a2 + 0xb0]\n 14031: u64 [s1 + 0xb0] = a0\n 14035: a0 = u64 [a2 + 0xa8]\n 14039: u64 [s1 + 0xb8] = a0\n 14043: a0 = s1 + 0x2000\n 14047: i32 a0 = a0 + 0xfffffffffffffac0\n 14051: a1 = 0x4\n 14054: ra = 0x200\n 14058: ecalli 1 // 'call_data_load'\n 14060: t0 = 0x202\n 14064: jump @1398\n      : @539 [@dyn 256] (gas: 1)\n 14067: t0 = 514, jump @1398\n      : @540 [@dyn 257] (gas: 15)\n 14073: a0 = u64 [a4 + 0x88]\n 14077: a1 = u64 [a4 + 0x90]\n 14081: a2 = u64 [a4 + 0x98]\n 14085: a3 = u64 [a4 + 0xa0]\n 14089: a4 = s1 + 0x7ff\n 14093: a4 = a4 + 0x39\n 14096: a5 = a4 + 0x700\n 14100: u64 [a5 + 0xa0] = a3\n 14104: u64 [a5 + 0x98] = a2\n 14108: u64 [a5 + 0x90] = a1\n 14112: a1 = s1 + 0x7ff\n 14116: a1 = a1 + 0x7c1\n 14120: u64 [a5 + 0x88] = a0\n 14124: a0 = 0\n 14126: ra = 516, jump @19\n      : @541 [@dyn 258] (gas: 11)\n 14132: a1 = s1 + 0x7ff\n 14136: a1 = a1 + 0x39\n 14139: u64 [a1 + 1920] = 0\n 14143: u64 [a1 + 1912] = 0\n 14147: u64 [a1 + 1896] = 0x6\n 14152: a2 = a1\n 14154: a0 = 0x20\n 14157: a1 = s1 + 0x7ff\n 14161: a1 = a1 + 0x7a1\n 14165: u64 [a2 + 1904] = 0\n 14169: ra = 518, jump @19\n      : @542 [@dyn 259] (gas: 3)\n 14175: a1 = 0x2026c\n 14180: a0 = i32 [0x2026c]\n 14185: jump @544 if a0 >u 63\n      : @543 (gas: 2)\n 14189: u32 [0x2026c] = 0x40\n 14195: fallthrough\n      : @544 (gas: 15)\n 14196: a0 = sp + 0xffffffffffffffe0\n 14199: a2 = a0 & 0xffffffffffffffe0\n 14202: u64 [s1 + 0x90] = a2\n 14206: sp = a2\n 14208: a0 = 0x20280\n 14213: i32 a0 = a0 + 0\n 14215: i32 a2 = a2 + 0\n 14217: u64 [s1 + 0xa0] = a1\n 14221: a1 = 0x40\n 14224: u64 [s1 + 0x98] = a0\n 14228: ra = 0x208\n 14232: ecalli 6 // 'hash_keccak_256'\n 14234: a3 = u64 [s1 + 0x90]\n 14238: t0 = 0x20a\n 14242: jump @1406\n      : @545 [@dyn 260] (gas: 2)\n 14245: a3 = u64 [s1 + 0x90]\n 14249: t0 = 522, jump @1406\n      : @546 [@dyn 261] (gas: 27)\n 14255: u64 [s1 + 0x88] = a0\n 14259: a0 = reverse a1\n 14261: u64 [s1 + 0x80] = a0\n 14265: a0 = reverse a2\n 14267: u64 [s1 + 0x78] = a0\n 14270: a0 = reverse a3\n 14272: u64 [s1 + 0x70] = a0\n 14275: a0 = sp + 0xffffffffffffffe0\n 14278: a0 = a0 & 0xffffffffffffffe0\n 14281: u64 [s1 + 0x90] = a0\n 14285: sp = a0\n 14287: a0 = u64 [s1 + 0xa8]\n 14291: a0 = a0 << 0x20\n 14294: a0 = a0 >> 0x20\n 14297: a2 = s1 + 0x7ff\n 14301: a2 = a2 + 0x39\n 14304: u64 [a2 + 1888] = 0\n 14308: a3 = a2 + 0x700\n 14312: u64 [a3 + 0x58] = a0\n 14315: a0 = u64 [s1 + 0xb0]\n 14319: u64 [a3 + 0x50] = a0\n 14322: a1 = s1 + 0x7ff\n 14326: a1 = a1 + 0x781\n 14330: a0 = u64 [s1 + 0xb8]\n 14334: u64 [a3 + 0x48] = a0\n 14337: a0 = 0\n 14339: ra = 524, jump @19\n      : @547 [@dyn 262] (gas: 16)\n 14345: a0 = u64 [s1 + 0x70]\n 14348: a1 = s1 + 0x7ff\n 14352: a1 = a1 + 0x39\n 14355: a2 = a1 + 0x700\n 14359: u64 [a2 + 0x40] = a0\n 14362: a0 = u64 [s1 + 0x78]\n 14365: u64 [a2 + 0x38] = a0\n 14368: a0 = u64 [s1 + 0x80]\n 14372: u64 [a2 + 0x30] = a0\n 14375: a3 = a1\n 14377: a0 = 0x20\n 14380: a1 = s1 + 0x7ff\n 14384: a1 = a1 + 0x761\n 14388: a2 = u64 [s1 + 0x88]\n 14392: u64 [a3 + 0x728] = a2\n 14396: ra = 526, jump @19\n      : @548 [@dyn 263] (gas: 3)\n 14402: a1 = u64 [s1 + 0xa0]\n 14406: a0 = i32 [a1]\n 14408: jump @550 if a0 >u 63\n      : @549 (gas: 2)\n 14412: u32 [a1 + 0] = 0x40\n 14415: fallthrough\n      : @550 (gas: 12)\n 14416: a0 = sp + 0xffffffffffffffe0\n 14419: a0 = a0 & 0xffffffffffffffe0\n 14422: u64 [s1 + 0xb8] = a0\n 14426: sp = a0\n 14428: i32 a2 = a0 + 0\n 14430: a1 = 0x40\n 14433: a0 = u64 [s1 + 0x98]\n 14437: ra = 0x210\n 14441: ecalli 6 // 'hash_keccak_256'\n 14443: a3 = u64 [s1 + 0xb8]\n 14447: t0 = 0x212\n 14451: jump @1352\n      : @551 [@dyn 264] (gas: 2)\n 14454: a3 = u64 [s1 + 0xb8]\n 14458: t0 = 530, jump @1352\n      : @552 [@dyn 265] (gas: 8)\n 14464: a1 = u64 [s1 + 0x90]\n 14468: u64 [a1 + 0x18] = a3\n 14471: u64 [a1 + 0x10] = a2\n 14474: u64 [a1 + 0x8] = a4\n 14477: u64 [a1] = a0\n 14479: a0 = s1 + 0x7ff\n 14483: a0 = a0 + 0x741\n 14487: ra = 532, jump @21\n      : @553 [@dyn 266] (gas: 8)\n 14493: a0 = s1 + 0x7ff\n 14497: a0 = a0 + 0x39\n 14500: a0 = u64 [a0 + 0x708]\n 14504: u64 [s1 + 0xb8] = a0\n 14508: a0 = s1 + 0x7ff\n 14512: a0 = a0 + 0x721\n 14516: a1 = 0x40\n 14519: ra = 534, jump @17\n      : @554 [@dyn 267] (gas: 8)\n 14525: a3 = s1 + 0x7ff\n 14529: a3 = a3 + 0x39\n 14532: a4 = u64 [a3 + 0x700]\n 14536: a5 = a3 + 0x600\n 14540: a1 = u64 [a5 + 0xf8]\n 14544: a2 = u64 [a5 + 0xf0]\n 14548: a0 = u64 [a5 + 0xe8]\n 14552: t0 = 536, jump @1354\n      : @555 [@dyn 268] (gas: 1)\n 14558: jump @673 if a1 != 0\n      : @556 (gas: 11)\n 14562: a1 = u8 [s1 + 0xb8]\n 14566: a1 = a1 >u 0\n 14568: u64 [a3 + 1760] = 0\n 14572: u64 [a3 + 1752] = 0\n 14576: u64 [a3 + 0x6c8] = a1\n 14580: a1 = s1 + 0x7ff\n 14584: a1 = a1 + 0x701\n 14588: u64 [a3 + 1744] = 0\n 14592: u64 [s1 + 0xb8] = a0\n 14596: ra = 0x2f8\n 14600: jump @19\n      : @557 (gas: 10)\n 14603: u64 [a2 + 1792] = 0\n 14607: u64 [a2 + 1784] = 0\n 14611: u64 [a2 + 1776] = 0\n 14615: u64 [a2 + 1768] = 0\n 14619: a0 = s1 + 0x1000\n 14623: i32 a0 = a0 + 0x720\n 14627: ra = 0x21a\n 14631: ecalli 10 // 'value_transferred'\n 14633: t0 = 0x21c\n 14637: jump @1421\n      : @558 [@dyn 269] (gas: 1)\n 14640: t0 = 540, jump @1421\n      : @559 [@dyn 270] (gas: 8)\n 14646: a0 = u64 [a4 + 0xf8]\n 14650: a1 = u64 [a3 + 0x700]\n 14654: a2 = u64 [a4 + 0xf0]\n 14658: a3 = u64 [a4 + 0xe8]\n 14662: a1 = a1 | a2\n 14665: a0 = a0 | a3\n 14668: a0 = a0 | a1\n 14671: jump @561 if a0 == 0\n      : @560 (gas: 1)\n 14674: jump @757\n      : @561 (gas: 3)\n 14677: a0 = u64 [s1 + 0xb8]\n 14681: a0 = i32 [a0]\n 14683: jump @563 if a0 >u 35\n      : @562 (gas: 1)\n 14687: jump @758\n      : @563 (gas: 7)\n 14690: a0 = s1 + 0x1000\n 14694: i32 a0 = a0 + 0x740\n 14698: a1 = 0x4\n 14701: ra = 0x21e\n 14705: ecalli 1 // 'call_data_load'\n 14707: t0 = 0x220\n 14711: jump @1385\n      : @564 [@dyn 271] (gas: 1)\n 14714: t0 = 544, jump @1385\n      : @565 [@dyn 272] (gas: 11)\n 14720: a2 = u64 [a4 + 0x8]\n 14723: a0 = u64 [a4 + 0x10]\n 14726: a1 = u64 [a4 + 0x18]\n 14729: a3 = u64 [a4 + 0x20]\n 14732: u64 [s1 + 0x718] = a3\n 14736: u64 [s1 + 0x710] = a1\n 14740: u64 [s1 + 0x708] = a0\n 14744: a0 = s1 + 0x720\n 14748: a1 = s1 + 0x700\n 14752: u64 [s1 + 0x700] = a2\n 14756: ra = 546, jump @1046\n      : @566 [@dyn 273] (gas: 12)\n 14762: a1 = s1 + 0x700\n 14766: a0 = u64 [a1 + 0x38]\n 14769: u64 [s1 + 0xb8] = a0\n 14773: a0 = u64 [a1 + 0x30]\n 14776: u64 [s1 + 0xb0] = a0\n 14780: a0 = u64 [a1 + 0x28]\n 14783: u64 [s1 + 0xa8] = a0\n 14787: a0 = u64 [a1 + 0x20]\n 14790: u64 [s1 + 0xa0] = a0\n 14794: a0 = s1 + 0x6e0\n 14798: a1 = 0x40\n 14801: ra = 548, jump @17\n      : @567 [@dyn 274] (gas: 6)\n 14807: a4 = s1 + 0x600\n 14811: a0 = u64 [a4 + 0xf8]\n 14815: a1 = u64 [a4 + 0xf0]\n 14819: a2 = u64 [a4 + 0xe8]\n 14823: a3 = u64 [a4 + 0xe0]\n 14827: t0 = 550, jump @1407\n      : @568 [@dyn 275] (gas: 1)\n 14833: jump @673 if a0 != 0\n      : @569 (gas: 14)\n 14837: a0 = u64 [s1 + 0xa0]\n 14841: a2 = s1 + 0x600\n 14845: u64 [a2 + 0xc0] = a0\n 14849: a0 = u64 [s1 + 0xa8]\n 14853: u64 [a2 + 0xc8] = a0\n 14857: a0 = u64 [s1 + 0xb0]\n 14861: u64 [a2 + 0xd0] = a0\n 14865: a1 = s1 + 0x6c0\n 14869: a0 = u64 [s1 + 0xb8]\n 14873: u64 [a2 + 0xd8] = a0\n 14877: a0 = a3\n 14879: u64 [s1 + 0xb8] = a3\n 14883: ra = 0x2f8\n 14887: jump @19\n      : @570 (gas: 11)\n 14890: a0 = s1 + 0x1838\n 14894: u64 [a0 + 864] = 0\n 14898: u64 [a0 + 856] = 0\n 14902: u64 [a0 + 848] = 0\n 14906: u64 [a0 + 840] = 0\n 14910: a0 = s1 + 0x2000\n 14914: i32 a0 = a0 + 0xfffffffffffffb80\n 14918: ra = 0x228\n 14922: ecalli 10 // 'value_transferred'\n 14924: t0 = 0x22a\n 14928: jump @1384\n      : @571 [@dyn 276] (gas: 1)\n 14931: t0 = 554, jump @1384\n      : @572 [@dyn 277] (gas: 8)\n 14937: a0 = u64 [a4 + 0x58]\n 14940: a1 = u64 [a4 + 0x60]\n 14943: a2 = u64 [a4 + 0x50]\n 14946: a3 = u64 [a4 + 0x48]\n 14949: a1 = a1 | a2\n 14952: a0 = a0 | a3\n 14955: a0 = a0 | a1\n 14958: jump @574 if a0 == 0\n      : @573 (gas: 1)\n 14961: jump @759\n      : @574 (gas: 3)\n 14964: a0 = u64 [s1 + 0xb8]\n 14968: a0 = i32 [a0]\n 14970: jump @576 if a0 >u 3\n      : @575 (gas: 1)\n 14974: jump @760\n      : @576 (gas: 3)\n 14977: a0 = s1 + 0x1300\n 14981: a1 = 0x40\n 14984: ra = 556, jump @17\n      : @577 [@dyn 278] (gas: 7)\n 14990: a3 = s1 + 0x1038\n 14994: a5 = a3 + 0x200\n 14998: a4 = u64 [a5 + 0xe0]\n 15002: a1 = u64 [a5 + 0xd8]\n 15006: a2 = u64 [a5 + 0xd0]\n 15010: a0 = u64 [a5 + 0xc8]\n 15014: t0 = 558, jump @1354\n      : @578 [@dyn 279] (gas: 1)\n 15020: jump @673 if a1 != 0\n      : @579 (gas: 13)\n 15024: a1 = u64 [0x20048]\n 15029: a5 = a3 + 0x200\n 15033: u64 [a5 + 0xc0] = a1\n 15037: a4 = u64 [0x20050]\n 15042: a1 = u64 [0x20058]\n 15047: a2 = u64 [0x20060]\n 15052: u64 [a5 + 0xb8] = a4\n 15056: u64 [a5 + 0xb0] = a1\n 15060: a1 = s1 + 0x12e0\n 15064: u64 [a5 + 0xa8] = a2\n 15068: u64 [s1 + 0xb8] = a0\n 15072: ra = 0x2f8\n 15076: jump @19\n      : @580 (gas: 10)\n 15079: u64 [a2 + 1728] = 0\n 15083: u64 [a2 + 1720] = 0\n 15087: u64 [a2 + 1712] = 0\n 15091: u64 [a2 + 1704] = 0\n 15095: a0 = s1 + 0x1000\n 15099: i32 a0 = a0 + 0x6e0\n 15103: ra = 0x230\n 15107: ecalli 10 // 'value_transferred'\n 15109: t0 = 0x232\n 15113: jump @1421\n      : @581 [@dyn 280] (gas: 1)\n 15116: t0 = 562, jump @1421\n      : @582 [@dyn 281] (gas: 1)\n 15122: t0 = 564, jump @1381\n      : @583 [@dyn 282] (gas: 1)\n 15128: jump @585 if a0 == 0\n      : @584 (gas: 1)\n 15131: jump @761\n      : @585 (gas: 4)\n 15134: a0 = u64 [s1 + 0xb8]\n 15138: a0 = i32 [a0]\n 15140: a1 = 0x63\n 15143: jump @587 if a1 <u a0\n      : @586 (gas: 1)\n 15146: jump @762\n      : @587 (gas: 4)\n 15149: a0 = s1 + 0x6a0\n 15153: ra = 0x236\n 15157: t0 = 0x416\n 15161: jump @1417\n      : @588 [@dyn 283] (gas: 12)\n 15164: a0 = u64 [s1 + 0x6a0]\n 15168: u64 [s1 + 0xb8] = a0\n 15172: a0 = u64 [s1 + 0x6a8]\n 15176: u64 [s1 + 0xb0] = a0\n 15180: a0 = u64 [s1 + 0x6b0]\n 15184: u64 [s1 + 0xa8] = a0\n 15188: a0 = u64 [s1 + 0x6b8]\n 15192: u64 [s1 + 0xa0] = a0\n 15196: a0 = s1 + 0x680\n 15200: ra = 0x238\n 15204: t0 = 0x420\n 15208: jump @1417\n      : @589 [@dyn 284] (gas: 30)\n 15211: a0 = u64 [s1 + 0x680]\n 15215: u64 [s1 + 0x78] = a0\n 15218: a0 = u64 [s1 + 0x688]\n 15222: u64 [s1 + 0x70] = a0\n 15225: a0 = u64 [s1 + 0x690]\n 15229: u64 [s1 + 0x68] = a0\n 15232: a0 = u64 [s1 + 0x698]\n 15236: u64 [s1 + 0x60] = a0\n 15239: a0 = s1 + 0x1000\n 15243: i32 a0 = a0 + 0x700\n 15247: a1 = 0x44\n 15250: ecalli 1 // 'call_data_load'\n 15252: a0 = s1 + 0x1038\n 15256: a2 = a0 + 0x600\n 15260: a1 = u64 [a2 + 0xc8]\n 15264: u64 [s1 + 0x98] = a1\n 15268: a1 = u64 [a2 + 0xd0]\n 15272: u64 [s1 + 0x90] = a1\n 15276: a1 = u64 [a2 + 0xd8]\n 15280: u64 [s1 + 0x88] = a1\n 15284: a0 = u64 [a2 + 0xe0]\n 15288: u64 [s1 + 0x80] = a0\n 15292: a0 = 0x30280\n 15297: u64 [s1 + 0x58] = a0\n 15300: i32 a0 = a0 + 0\n 15302: ra = 0x23a\n 15306: ecalli 3 // 'caller'\n 15308: a2 = u64 [s1 + 0x58]\n 15311: t0 = 0x23c\n 15315: jump @1344\n      : @590 [@dyn 285] (gas: 2)\n 15318: a2 = u64 [s1 + 0x58]\n 15321: t0 = 572, jump @1344\n      : @591 [@dyn 286] (gas: 24)\n 15327: a2 = u64 [s1 + 0x80]\n 15331: u64 [s1 + 0x638] = a2\n 15335: a2 = u64 [s1 + 0x88]\n 15339: u64 [s1 + 0x630] = a2\n 15343: a2 = u64 [s1 + 0x90]\n 15347: u64 [s1 + 0x628] = a2\n 15351: a2 = u64 [s1 + 0x98]\n 15355: u64 [s1 + 0x620] = a2\n 15359: u64 [s1 + 1624] = 0\n 15363: a2 = u64 [s1 + 0xa0]\n 15367: u64 [s1 + 0x678] = a2\n 15371: a2 = u64 [s1 + 0xa8]\n 15375: u64 [s1 + 0x670] = a2\n 15379: a2 = u64 [s1 + 0xb0]\n 15383: u64 [s1 + 0x668] = a2\n 15387: a2 = u64 [s1 + 0xb8]\n 15391: u64 [s1 + 0x660] = a2\n 15395: u64 [s1 + 0x650] = a1\n 15399: u64 [s1 + 0x648] = a0\n 15403: a0 = s1 + 0x660\n 15407: a1 = s1 + 0x640\n 15411: a2 = s1 + 0x620\n 15415: u64 [s1 + 0x640] = a3\n 15419: ra = 574, jump @1054\n      : @592 [@dyn 287] (gas: 29)\n 15425: a0 = u64 [s1 + 0x80]\n 15429: u64 [s1 + 0x5d8] = a0\n 15433: a0 = u64 [s1 + 0x88]\n 15437: u64 [s1 + 0x5d0] = a0\n 15441: a0 = u64 [s1 + 0x90]\n 15445: u64 [s1 + 0x5c8] = a0\n 15449: a0 = u64 [s1 + 0x98]\n 15453: u64 [s1 + 0x5c0] = a0\n 15457: a0 = u64 [s1 + 0x60]\n 15460: u64 [s1 + 0x5f8] = a0\n 15464: a0 = u64 [s1 + 0x68]\n 15467: u64 [s1 + 0x5f0] = a0\n 15471: a0 = u64 [s1 + 0x70]\n 15474: u64 [s1 + 0x5e8] = a0\n 15478: a0 = u64 [s1 + 0x78]\n 15481: u64 [s1 + 0x5e0] = a0\n 15485: a0 = u64 [s1 + 0xa0]\n 15489: a4 = s1 + 0x600\n 15493: u64 [a4 + 0x18] = a0\n 15496: a0 = u64 [s1 + 0xa8]\n 15500: u64 [a4 + 0x10] = a0\n 15503: a0 = u64 [s1 + 0xb0]\n 15507: u64 [a4 + 0x8] = a0\n 15510: a0 = s1 + 0x600\n 15514: a1 = s1 + 0x5e0\n 15518: a2 = s1 + 0x5c0\n 15522: a3 = u64 [s1 + 0xb8]\n 15526: u64 [a4] = a3\n 15528: ra = 576, jump @1101\n      : @593 [@dyn 288] (gas: 3)\n 15534: a0 = s1 + 0x5a0\n 15538: a1 = 0x40\n 15541: ra = 578, jump @17\n      : @594 [@dyn 289] (gas: 6)\n 15547: a4 = s1 + 0x500\n 15551: a3 = u64 [a4 + 0xb8]\n 15555: a1 = u64 [a4 + 0xb0]\n 15559: a2 = u64 [a4 + 0xa8]\n 15563: a0 = u64 [a4 + 0xa0]\n 15567: t0 = 580, jump @1356\n      : @595 [@dyn 290] (gas: 1)\n 15573: jump @673 if a1 != 0\n      : @596 (gas: 8)\n 15577: u64 [s1 + 1432] = 0\n 15581: u64 [s1 + 1424] = 0\n 15585: u64 [s1 + 1416] = 0\n 15589: a1 = s1 + 0x580\n 15593: u64 [s1 + 1408] = 0x1\n 15598: u64 [s1 + 0xb8] = a0\n 15602: ra = 0x2f8\n 15606: jump @19\n      : @597 (gas: 11)\n 15609: a0 = s1 + 0x1838\n 15613: u64 [a0 + 512] = 0\n 15617: u64 [a0 + 504] = 0\n 15621: u64 [a0 + 496] = 0\n 15625: u64 [a0 + 488] = 0\n 15629: a0 = s1 + 0x2000\n 15633: i32 a0 = a0 + 0xfffffffffffffa20\n 15637: ra = 0x246\n 15641: ecalli 10 // 'value_transferred'\n 15643: t0 = 0x248\n 15647: jump @1399\n      : @598 [@dyn 291] (gas: 1)\n 15650: t0 = 584, jump @1399\n      : @599 [@dyn 292] (gas: 8)\n 15656: a0 = u64 [a4 + 0xf8]\n 15660: a1 = u64 [a3 + 0x200]\n 15664: a2 = u64 [a4 + 0xf0]\n 15668: a3 = u64 [a4 + 0xe8]\n 15672: a1 = a1 | a2\n 15675: a0 = a0 | a3\n 15678: a0 = a0 | a1\n 15681: jump @601 if a0 == 0\n      : @600 (gas: 1)\n 15684: jump @763\n      : @601 (gas: 3)\n 15687: a0 = u64 [s1 + 0xb8]\n 15691: a0 = i32 [a0]\n 15693: jump @603 if a0 >u 3\n      : @602 (gas: 1)\n 15697: jump @764\n      : @603 (gas: 1)\n 15700: ra = 586, jump @1153\n      : @604 [@dyn 293] (gas: 1)\n 15706: ra = 588, jump @1334\n      : @605 [@dyn 294] (gas: 9)\n 15712: a1 = s1 + 0x1838\n 15716: u64 [a1 + 544] = 0\n 15720: u64 [a1 + 536] = 0\n 15724: u64 [a1 + 528] = 0\n 15728: u64 [a1 + 520] = 0x5\n 15733: a0 = s1 + 0x7ff\n 15737: a0 = a0 + 0x6e1\n 15741: a1 = s1 + 0x1a40\n 15745: ra = 590, jump @21\n      : @606 [@dyn 295] (gas: 22)\n 15751: a3 = s1 + 0x7ff\n 15755: a3 = a3 + 0x39\n 15758: a4 = a3 + 0x600\n 15762: a0 = u64 [a4 + 0xa8]\n 15766: a1 = u64 [a4 + 0xb0]\n 15770: a2 = u64 [a4 + 0xb8]\n 15774: a3 = u64 [a4 + 0xc0]\n 15778: a0 = a0 & 0xffffffffffffff00\n 15782: a0 = a0 | 0x1\n 15785: a4 = s1 + 0x1838\n 15789: u64 [a4 + 576] = 0\n 15793: u64 [a4 + 568] = 0\n 15797: u64 [a4 + 560] = 0\n 15801: u64 [a4 + 552] = 0x5\n 15806: a5 = a4 + 0x200\n 15810: u64 [a5 + 0x60] = a3\n 15813: u64 [a5 + 0x58] = a2\n 15816: u64 [a5 + 0x50] = a1\n 15819: u64 [a5 + 0x48] = a0\n 15822: a0 = s1 + 0x1a60\n 15826: a1 = s1 + 0x1a80\n 15830: ra = 592, jump @24\n      : @607 [@dyn 296] (gas: 4)\n 15836: a0 = s1 + 0x7ff\n 15840: a0 = a0 + 0x6c1\n 15844: a1 = 0x40\n 15847: ra = 594, jump @17\n      : @608 [@dyn 297] (gas: 18)\n 15853: a0 = s1 + 0x7ff\n 15857: a0 = a0 + 0x39\n 15860: a2 = a0 + 0x600\n 15864: a1 = u64 [a2 + 0xa0]\n 15868: u64 [s1 + 0xb0] = a1\n 15872: a1 = u64 [a2 + 0x98]\n 15876: u64 [s1 + 0xa8] = a1\n 15880: a1 = u64 [a2 + 0x90]\n 15884: u64 [s1 + 0xa0] = a1\n 15888: a0 = u64 [a2 + 0x88]\n 15892: u64 [s1 + 0xb8] = a0\n 15896: a0 = 0x30280\n 15901: u64 [s1 + 0x98] = a0\n 15905: i32 a0 = a0 + 0\n 15907: ra = 0x254\n 15911: ecalli 3 // 'caller'\n 15913: t0 = 0x256\n 15917: jump @1409\n      : @609 [@dyn 298] (gas: 1)\n 15920: t0 = 598, jump @1409\n      : @610 [@dyn 299] (gas: 1)\n 15926: jump @673 if a0 != 0\n      : @611 (gas: 2)\n 15930: a2 = u64 [s1 + 0x98]\n 15934: t0 = 600, jump @1343\n      : @612 [@dyn 300] (gas: 9)\n 15940: u64 [a2 + 1664] = 0\n 15944: a5 = a2 + 0x600\n 15948: u64 [a5 + 0x78] = a1\n 15951: u64 [a5 + 0x70] = a0\n 15954: a1 = s1 + 0x7ff\n 15958: a1 = a1 + 0x6a1\n 15962: u64 [a5 + 0x68] = a3\n 15965: a0 = a4\n 15967: ra = 602, jump @19\n      : @613 [@dyn 301] (gas: 17)\n 15973: a0 = u64 [0x20088]\n 15978: a1 = u64 [0x20090]\n 15983: a2 = s1 + 0x7ff\n 15987: a2 = a2 + 0x39\n 15990: a4 = a2 + 0x600\n 15994: u64 [a4 + 0x60] = a0\n 15997: a0 = u64 [0x20098]\n 16002: u64 [a4 + 0x58] = a1\n 16005: a3 = u64 [0x200a0]\n 16010: u64 [a4 + 0x50] = a0\n 16013: a0 = a2\n 16015: a1 = 0x20\n 16018: a2 = s1 + 0x7ff\n 16022: a2 = a2 + 0x681\n 16026: u64 [a0 + 0x648] = a3\n 16030: a0 = u64 [s1 + 0xb8]\n 16034: ra = 604, jump @25\n      : @614 [@dyn 302] (gas: 6)\n 16040: a1 = 0x20280\n 16045: i32 a1 = a1 + 0\n 16047: a0 = 0\n 16049: a2 = 0\n 16051: ecalli 7 // 'seal_return'\n 16053: jump @847\n      : @615 (gas: 5)\n 16056: i32 a1 = a1 + 0\n 16058: a0 = 0\n 16060: a2 = 0\n 16062: ecalli 7 // 'seal_return'\n 16064: jump @847\n      : @616 (gas: 9)\n 16067: u64 [a2 + 1472] = 0\n 16071: u64 [a2 + 1464] = 0\n 16075: u64 [a2 + 1456] = 0\n 16079: u64 [a2 + 1448] = 0\n 16083: a0 = s1 + 0x1000\n 16087: i32 a0 = a0 + 0x5e0\n 16091: ra = 0x25e\n 16095: ecalli 10 // 'value_transferred'\n 16097: fallthrough\n      : @617 [@dyn 303] (gas: 3)\n 16098: a3 = s1 + 0x1038\n 16102: a4 = a3 + 0x500\n 16106: t0 = 608, jump @1381\n      : @618 [@dyn 304] (gas: 1)\n 16112: jump @765 if a0 != 0\n      : @619 (gas: 3)\n 16116: a0 = u64 [s1 + 0xb8]\n 16120: a0 = i32 [a0]\n 16122: jump @766 if a0 <=u 3\n      : @620 (gas: 3)\n 16127: a0 = s1 + 0x2a0\n 16131: a1 = 0x40\n 16134: ra = 610, jump @17\n      : @621 [@dyn 305] (gas: 16)\n 16140: a0 = u64 [s1 + 0x2b8]\n 16144: u64 [s1 + 0x18] = a0\n 16147: a0 = u64 [s1 + 0x2b0]\n 16151: u64 [s1 + 0x28] = a0\n 16154: a0 = u64 [s1 + 0x2a8]\n 16158: u64 [s1 + 0x20] = a0\n 16161: a0 = u64 [s1 + 0x2a0]\n 16165: u64 [s1 + 0x30] = a0\n 16168: a0 = s1 + 0x1038\n 16172: u64 [a0 + 1504] = 0\n 16176: u64 [a0 + 1496] = 0\n 16180: u64 [a0 + 1488] = 0\n 16184: u64 [a0 + 1480] = 0x3\n 16189: a0 = s1 + 0x280\n 16193: a1 = s1 + 0x1600\n 16197: ra = 612, jump @21\n      : @622 [@dyn 306] (gas: 34)\n 16203: a2 = u64 [s1 + 0x290]\n 16207: t2 = u64 [s1 + 0x288]\n 16211: t0 = u64 [s1 + 0x298]\n 16215: a5 = u64 [s1 + 0x280]\n 16219: a0 = a2 << 0x3f\n 16222: a1 = t2 >> 0x1\n 16225: a0 = a0 | a1\n 16228: a1 = t0 << 0x3f\n 16231: u64 [s1 + 0xb0] = a2\n 16235: a2 = a2 >> 0x1\n 16238: a1 = a1 | a2\n 16241: a2 = t2 << 0x3f\n 16244: a3 = a5 >> 0x1\n 16247: a4 = a3 | a2\n 16250: a2 = t0 >> 0x1\n 16253: u64 [s1 + 0xa8] = a5\n 16257: a5 = a5 & 0x1\n 16260: a3 = -a5\n 16262: a1 = a1 & a3\n 16265: t1 = a3 & a0\n 16268: a2 = a2 & a3\n 16271: ra = a4 & 0x7f\n 16274: a4 = ra if a5 == 0\n 16277: u64 [s1 + 0x70] = a4\n 16280: a0 = a4 <u 0x20\n 16283: u64 [s1 + 0x60] = t1\n 16286: a0 = 0 if t1 != 0\n 16288: u64 [s1 + 0x68] = a1\n 16291: u64 [s1 + 0x58] = a2\n 16294: a1 = a1 | a2\n 16297: a0 = 0 if a1 != 0\n 16299: u64 [s1 + 0xb8] = a5\n 16303: a1 = a5 <u 0x1\n 16306: jump @767 if a1 != a0\n      : @623 (gas: 12)\n 16310: a2 = u64 [s1 + 0x28]\n 16313: a4 = u64 [s1 + 0x30]\n 16316: a0 = a4 | a2\n 16319: a1 = u64 [s1 + 0x18]\n 16322: a3 = u64 [s1 + 0x20]\n 16325: a1 = a1 | a3\n 16328: a0 = a0 | a1\n 16331: a0 = a0 >> 0x20\n 16334: a1 = a1 | a2\n 16337: a1 = a1 << 0x20\n 16340: a1 = a1 | a0\n 16343: jump @673 if a1 != 0\n      : @624 (gas: 15)\n 16347: a0 = a4\n 16349: u64 [s1 + 0x90] = ra\n 16353: u64 [s1 + 0x98] = t2\n 16357: u64 [s1 + 0xa0] = t0\n 16361: a1 = u64 [s1 + 0x70]\n 16364: a3 = s1 + 0x200\n 16368: u64 [a3 + 0x60] = a1\n 16371: a1 = u64 [s1 + 0x60]\n 16374: u64 [a3 + 0x68] = a1\n 16377: a1 = u64 [s1 + 0x68]\n 16380: u64 [a3 + 0x70] = a1\n 16383: a1 = s1 + 0x260\n 16387: a2 = u64 [s1 + 0x58]\n 16390: u64 [a3 + 0x78] = a2\n 16393: ra = 614, jump @19\n      : @625 [@dyn 307] (gas: 2)\n 16399: a0 = u64 [s1 + 0xb8]\n 16403: jump @687 if a0 != 0\n      : @626 (gas: 1)\n 16407: t0 = 616, jump @1391\n      : @627 [@dyn 308] (gas: 1)\n 16413: jump @673 if a1 == 0\n      : @628 (gas: 13)\n 16417: a1 = u64 [s1 + 0xa8]\n 16421: a1 = a1 & 0xffffffffffffff00\n 16425: i32 a0 = a3 + 0x20\n 16428: a3 = u64 [s1 + 0x98]\n 16432: a2 = s1 + 0x100\n 16436: u64 [a2 + 0xe8] = a3\n 16440: u64 [a2 + 0xe0] = a1\n 16444: a1 = u64 [s1 + 0xb0]\n 16448: u64 [a2 + 0xf0] = a1\n 16452: a1 = s1 + 0x1e0\n 16456: a3 = u64 [s1 + 0xa0]\n 16460: u64 [a2 + 0xf8] = a3\n 16464: ra = 618, jump @19\n      : @629 [@dyn 309] (gas: 9)\n 16470: t2 = 0\n 16472: t1 = 0\n 16474: u64 [s1 + 176] = 0\n 16478: a0 = u64 [s1 + 0x90]\n 16482: a0 = a0 >u 0\n 16484: a0 = a0 << 0x5\n 16487: u64 [s1 + 0xb8] = a0\n 16491: t0 = 0x26c\n 16495: jump @1390\n      : @630 (gas: 1)\n 16498: t0 = 620, jump @1390\n      : @631 [@dyn 310] (gas: 28)\n 16504: t0 = u64 [s1 + 0x20]\n 16507: a3 = a2 + t0\n 16510: ra = a3 + a0\n 16513: a3 = ra ^ a2\n 16516: a4 = ra <u a2\n 16519: a4 = a0 if a3 == 0\n 16522: a0 = a2 <u t2\n 16525: a0 = a1 if a1 == 0\n 16528: a0 = a0 + t1\n 16531: a1 = a0 <u t1\n 16534: a2 = u64 [s1 + 0x28]\n 16537: a2 = a2 + a0\n 16540: a4 = a4 + a2\n 16543: a0 = a2 <u a0\n 16546: a2 = a4 <u a2\n 16549: t1 = u64 [s1 + 0x18]\n 16552: a3 = u64 [s1 + 0xb0]\n 16556: a3 = a3 + t1\n 16559: a1 = a1 + a3\n 16562: a0 = a0 + a1\n 16565: a5 = a0 + a2\n 16568: a0 = a5 >u 0\n 16570: a1 = a4 >u 0\n 16572: a1 = a0 if a5 != 0\n 16575: a0 = a4 | a5\n 16578: a2 = ra >u 0\n 16580: a2 = a1 if a0 != 0\n 16583: jump @791 if a2 != 0\n      : @632 (gas: 6)\n 16587: a0 = u64 [s1 + 0x30]\n 16590: a1 = u64 [s1 + 0xb8]\n 16594: a0 = a1 <u a0\n 16597: a1 = ra ^ t0\n 16600: a2 = ra <u t0\n 16603: t0 = 622, jump @1387\n      : @633 [@dyn 311] (gas: 1)\n 16609: jump @791 if a3 != 0\n      : @634 (gas: 11)\n 16613: a0 = u64 [s1 + 0xb8]\n 16617: u64 [s1 + 0x1c0] = a0\n 16621: u64 [s1 + 0x1c8] = ra\n 16625: u64 [s1 + 0x1d0] = a4\n 16629: a0 = 0x40\n 16632: a1 = s1 + 0x1c0\n 16636: u64 [s1 + 0x1d8] = a5\n 16640: u64 [s1 + 0xa8] = ra\n 16644: u64 [s1 + 0xa0] = a4\n 16648: u64 [s1 + 0xb0] = a5\n 16652: ra = 624, jump @19\n      : @635 [@dyn 312] (gas: 21)\n 16658: a0 = u64 [s1 + 0x18]\n 16661: a4 = s1 + 0x100\n 16665: u64 [a4 + 0x78] = a0\n 16668: a0 = u64 [s1 + 0x28]\n 16671: u64 [a4 + 0x70] = a0\n 16674: a0 = u64 [s1 + 0x20]\n 16677: u64 [a4 + 0x68] = a0\n 16680: a0 = u64 [s1 + 0x30]\n 16683: u64 [a4 + 0x60] = a0\n 16686: a0 = u64 [s1 + 0xb0]\n 16690: u64 [a4 + 0x98] = a0\n 16694: a0 = u64 [s1 + 0xa0]\n 16698: u64 [a4 + 0x90] = a0\n 16702: a0 = u64 [s1 + 0xa8]\n 16706: u64 [a4 + 0x88] = a0\n 16710: a0 = s1 + 0x1a0\n 16714: a1 = s1 + 0x180\n 16718: a2 = s1 + 0x160\n 16722: a3 = u64 [s1 + 0xb8]\n 16726: u64 [a4 + 0x80] = a3\n 16730: ra = 626, jump @1017\n      : @636 [@dyn 313] (gas: 12)\n 16736: a2 = u64 [s1 + 0xa0]\n 16740: a4 = u64 [s1 + 0xa8]\n 16744: t0 = u64 [s1 + 0xb8]\n 16748: a0 = t0 | a2\n 16751: a1 = u64 [s1 + 0xb0]\n 16755: a1 = a1 | a4\n 16758: a0 = a0 | a1\n 16761: a0 = a0 >> 0x20\n 16764: a1 = a1 | a2\n 16767: a1 = a1 << 0x20\n 16770: a0 = a0 | a1\n 16773: jump @673 if a0 != 0\n      : @637 (gas: 7)\n 16777: a5 = s1 + 0x100\n 16781: a0 = u64 [a5 + 0xa8]\n 16785: a1 = u64 [a5 + 0xb8]\n 16789: u64 [s1 + 0x98] = a1\n 16793: t1 = u64 [s1 + 0x1a0]\n 16797: a3 = u64 [a5 + 0xb0]\n 16801: fallthrough\n      : @638 (gas: 24)\n 16802: t2 = a0 ^ a4\n 16805: a5 = a0 <u a4\n 16808: ra = t1 <u t0\n 16811: a5 = ra if t2 == 0\n 16814: a1 = a3 - a2\n 16817: t2 = a1 - a5\n 16820: a1 = a1 <u a5\n 16823: a3 = a3 <u a2\n 16826: a2 = u64 [s1 + 0x98]\n 16830: a3 = a2 - a3\n 16833: a2 = u64 [s1 + 0xb0]\n 16837: a3 = a3 - a2\n 16840: a3 = a3 - a1\n 16843: a0 = a0 - a4\n 16846: a0 = a0 - ra\n 16849: a1 = t1 - t0\n 16852: a0 = a0 | a3\n 16855: a2 = a1 | t2\n 16858: a2 = a2 | a0\n 16861: a0 = a0 | t2\n 16864: a2 = a2 >> 0x20\n 16867: a0 = a0 << 0x20\n 16870: a0 = a0 | a2\n 16873: jump @673 if a0 != 0\n      : @639 (gas: 3)\n 16877: a0 = t0\n 16879: u64 [s1 + 0xb8] = a1\n 16883: ra = 628, jump @33\n      : @640 [@dyn 314] (gas: 6)\n 16889: i32 a1 = a0 + 0\n 16891: a2 = i32 [s1 + 0xb8]\n 16895: a0 = 0\n 16897: ra = 0x2fc\n 16901: ecalli 7 // 'seal_return'\n 16903: jump @802\n      : @641 (gas: 10)\n 16906: u64 [a2 + 1600] = 0\n 16910: u64 [a2 + 1592] = 0\n 16914: u64 [a2 + 1584] = 0\n 16918: u64 [a2 + 1576] = 0\n 16922: a0 = s1 + 0x1000\n 16926: i32 a0 = a0 + 0x660\n 16930: ra = 0x276\n 16934: ecalli 10 // 'value_transferred'\n 16936: t0 = 0x278\n 16940: jump @1421\n      : @642 [@dyn 315] (gas: 1)\n 16943: t0 = 632, jump @1421\n      : @643 [@dyn 316] (gas: 1)\n 16949: t0 = 634, jump @1415\n      : @644 [@dyn 317] (gas: 1)\n 16955: jump @773 if a0 != 0\n      : @645 (gas: 4)\n 16959: a0 = u64 [s1 + 0xb8]\n 16963: a0 = i32 [a0]\n 16965: a1 = 0x43\n 16968: jump @774 if a1 >=u a0\n      : @646 (gas: 4)\n 16972: a0 = s1 + 0x500\n 16976: ra = 0x27c\n 16980: t0 = 0x416\n 16984: jump @1417\n      : @647 [@dyn 318] (gas: 36)\n 16987: a1 = s1 + 0x500\n 16991: a0 = u64 [a1 + 0x10]\n 16994: u64 [s1 + 0x98] = a0\n 16998: a0 = u64 [a1 + 0x8]\n 17001: u64 [s1 + 0xb0] = a0\n 17005: a0 = u64 [a1]\n 17007: u64 [s1 + 0xb8] = a0\n 17011: a0 = sp + 0xffffffffffffffe0\n 17014: a0 = a0 & 0xffffffffffffffe0\n 17017: u64 [s1 + 0xa0] = a0\n 17021: sp = a0\n 17023: a0 = s1 + 0x1000\n 17027: i32 a0 = a0 + 0x680\n 17031: a1 = 0x24\n 17034: ecalli 1 // 'call_data_load'\n 17036: a0 = s1 + 0x1038\n 17040: a4 = a0 + 0x600\n 17044: a1 = u64 [a4 + 0x60]\n 17047: a2 = u64 [a4 + 0x58]\n 17050: a3 = u64 [a4 + 0x50]\n 17053: a0 = u64 [a4 + 0x48]\n 17056: u64 [s1 + 0x50] = a1\n 17059: a4 = u64 [s1 + 0xa0]\n 17063: u64 [a4 + 0x18] = a1\n 17066: u64 [s1 + 0x48] = a2\n 17069: u64 [a4 + 0x10] = a2\n 17072: u64 [s1 + 0x40] = a3\n 17075: u64 [a4 + 0x8] = a3\n 17078: u64 [s1 + 0x38] = a0\n 17081: u64 [a4] = a0\n 17083: a0 = 0x30280\n 17088: u64 [s1 + 0xa8] = a0\n 17092: i32 a0 = a0 + 0\n 17094: u64 [s1 + 0x90] = a0\n 17098: ecalli 3 // 'caller'\n 17100: fallthrough\n      : @648 (gas: 7)\n 17101: a2 = u64 [s1 + 0xa8]\n 17105: a0 = u32 [a2 + 0x10]\n 17108: a1 = u64 [a2]\n 17110: a2 = u64 [a2 + 0x8]\n 17113: a0 = a0 | a1\n 17116: a0 = a0 | a2\n 17119: jump @775 if a0 == 0\n      : @649 (gas: 9)\n 17123: a0 = u64 [s1 + 0x98]\n 17127: a0 = a0 << 0x20\n 17130: a1 = a0 >> 0x20\n 17133: a0 = u64 [s1 + 0xb0]\n 17137: a2 = u64 [s1 + 0xb8]\n 17141: a0 = a0 | a2\n 17144: u64 [s1 + 0x98] = a1\n 17148: a0 = a0 | a1\n 17151: jump @780 if a0 == 0\n      : @650 (gas: 6)\n 17155: a0 = u64 [s1 + 0x90]\n 17159: ra = 0x27e\n 17163: ecalli 3 // 'caller'\n 17165: a2 = u64 [s1 + 0xa8]\n 17169: t0 = 0x280\n 17173: jump @1344\n      : @651 [@dyn 319] (gas: 2)\n 17176: a2 = u64 [s1 + 0xa8]\n 17180: t0 = 640, jump @1344\n      : @652 [@dyn 320] (gas: 7)\n 17186: u64 [s1 + 1272] = 0\n 17190: u64 [s1 + 0x4f0] = a1\n 17194: u64 [s1 + 0x4e8] = a0\n 17198: a1 = s1 + 0x4e0\n 17202: u64 [s1 + 0x4e0] = a3\n 17206: a0 = 0\n 17208: ra = 642, jump @19\n      : @653 [@dyn 321] (gas: 7)\n 17214: u64 [s1 + 1240] = 0\n 17218: u64 [s1 + 1232] = 0\n 17222: u64 [s1 + 1216] = 0x1\n 17227: a0 = 0x20\n 17230: a1 = s1 + 0x4c0\n 17234: u64 [s1 + 1224] = 0\n 17238: ra = 644, jump @19\n      : @654 [@dyn 322] (gas: 3)\n 17244: a1 = 0x2026c\n 17249: a0 = i32 [0x2026c]\n 17254: jump @656 if a0 >u 63\n      : @655 (gas: 2)\n 17258: u32 [0x2026c] = 0x40\n 17264: fallthrough\n      : @656 (gas: 15)\n 17265: a0 = sp + 0xffffffffffffffe0\n 17268: a2 = a0 & 0xffffffffffffffe0\n 17271: u64 [s1 + 0x78] = a2\n 17274: sp = a2\n 17276: a0 = 0x20280\n 17281: i32 a0 = a0 + 0\n 17283: i32 a2 = a2 + 0\n 17285: u64 [s1 + 0x88] = a1\n 17289: a1 = 0x40\n 17292: u64 [s1 + 0x80] = a0\n 17296: ra = 0x286\n 17300: ecalli 6 // 'hash_keccak_256'\n 17302: a3 = u64 [s1 + 0x78]\n 17305: t0 = 0x288\n 17309: jump @1406\n      : @657 [@dyn 323] (gas: 2)\n 17312: a3 = u64 [s1 + 0x78]\n 17315: t0 = 648, jump @1406\n      : @658 [@dyn 324] (gas: 21)\n 17321: u64 [s1 + 0x70] = a0\n 17324: a0 = reverse a1\n 17326: u64 [s1 + 0x68] = a0\n 17329: a0 = reverse a2\n 17331: u64 [s1 + 0x60] = a0\n 17334: a0 = reverse a3\n 17336: u64 [s1 + 0x58] = a0\n 17339: a0 = sp + 0xffffffffffffffe0\n 17342: a0 = a0 & 0xffffffffffffffe0\n 17345: u64 [s1 + 0x78] = a0\n 17348: sp = a0\n 17350: u64 [s1 + 1208] = 0\n 17354: a0 = u64 [s1 + 0x98]\n 17358: u64 [s1 + 0x4b0] = a0\n 17362: a0 = u64 [s1 + 0xb0]\n 17366: u64 [s1 + 0x4a8] = a0\n 17370: a1 = s1 + 0x4a0\n 17374: a0 = u64 [s1 + 0xb8]\n 17378: u64 [s1 + 0x4a0] = a0\n 17382: a0 = 0\n 17384: ra = 650, jump @19\n      : @659 [@dyn 325] (gas: 12)\n 17390: a0 = u64 [s1 + 0x58]\n 17393: a3 = s1 + 0x400\n 17397: u64 [a3 + 0x98] = a0\n 17401: a0 = u64 [s1 + 0x60]\n 17404: u64 [a3 + 0x90] = a0\n 17408: a0 = u64 [s1 + 0x68]\n 17411: u64 [a3 + 0x88] = a0\n 17415: a0 = 0x20\n 17418: a1 = s1 + 0x480\n 17422: a2 = u64 [s1 + 0x70]\n 17425: u64 [a3 + 0x80] = a2\n 17429: ra = 652, jump @19\n      : @660 [@dyn 326] (gas: 3)\n 17435: a1 = u64 [s1 + 0x88]\n 17439: a0 = i32 [a1]\n 17441: jump @662 if a0 >u 63\n      : @661 (gas: 2)\n 17445: u32 [a1 + 0] = 0x40\n 17448: fallthrough\n      : @662 (gas: 24)\n 17449: a0 = sp + 0xffffffffffffffe0\n 17452: a0 = a0 & 0xffffffffffffffe0\n 17455: u64 [s1 + 0x88] = a0\n 17459: sp = a0\n 17461: i32 a2 = a0 + 0\n 17463: a1 = 0x40\n 17466: a0 = u64 [s1 + 0x80]\n 17470: ecalli 6 // 'hash_keccak_256'\n 17472: a3 = u64 [s1 + 0x88]\n 17476: a0 = u64 [a3 + 0x18]\n 17479: a1 = u64 [a3 + 0x10]\n 17482: a2 = u64 [a3 + 0x8]\n 17485: a3 = u64 [a3]\n 17487: a4 = reverse a0\n 17489: a1 = reverse a1\n 17491: a2 = reverse a2\n 17493: a3 = reverse a3\n 17495: a0 = u64 [s1 + 0x78]\n 17498: u64 [a0 + 0x18] = a3\n 17501: u64 [a0 + 0x10] = a2\n 17504: u64 [a0 + 0x8] = a1\n 17507: u64 [a0] = a4\n 17509: a1 = u64 [s1 + 0xa0]\n 17513: ra = 654, jump @24\n      : @663 [@dyn 327] (gas: 3)\n 17519: a0 = s1 + 0x460\n 17523: a1 = 0x40\n 17526: ra = 656, jump @17\n      : @664 [@dyn 328] (gas: 6)\n 17532: a4 = s1 + 0x400\n 17536: a0 = u64 [a4 + 0x78]\n 17539: a1 = u64 [a4 + 0x70]\n 17542: a2 = u64 [a4 + 0x68]\n 17545: a3 = u64 [a4 + 0x60]\n 17548: t0 = 658, jump @1407\n      : @665 [@dyn 329] (gas: 1)\n 17554: jump @673 if a0 != 0\n      : @666 (gas: 12)\n 17558: a0 = u64 [s1 + 0x38]\n 17561: u64 [s1 + 0x440] = a0\n 17565: a0 = u64 [s1 + 0x40]\n 17568: u64 [s1 + 0x448] = a0\n 17572: a0 = u64 [s1 + 0x48]\n 17575: u64 [s1 + 0x450] = a0\n 17579: a1 = s1 + 0x440\n 17583: a0 = u64 [s1 + 0x50]\n 17586: u64 [s1 + 0x458] = a0\n 17590: a0 = a3\n 17592: u64 [s1 + 0xa0] = a3\n 17596: ra = 660, jump @19\n      : @667 [@dyn 330] (gas: 6)\n 17602: a0 = u64 [s1 + 0x90]\n 17606: ra = 0x296\n 17610: ecalli 3 // 'caller'\n 17612: a2 = u64 [s1 + 0xa8]\n 17616: t0 = 0x298\n 17620: jump @1347\n      : @668 [@dyn 331] (gas: 2)\n 17623: a2 = u64 [s1 + 0xa8]\n 17627: t0 = 664, jump @1347\n      : @669 [@dyn 332] (gas: 32)\n 17633: t0 = a1 | a0\n 17636: a3 = a3 >> 0x20\n 17639: a2 = reverse a2\n 17641: a1 = a2 << 0x20\n 17644: a1 = a1 | a3\n 17647: a2 = a2 >> 0x20\n 17650: u64 [s1 + 1016] = 0\n 17654: a0 = u64 [s1 + 0x98]\n 17658: u64 [s1 + 0x3f0] = a0\n 17662: a0 = u64 [s1 + 0xb0]\n 17666: u64 [s1 + 0x3e8] = a0\n 17670: a0 = u64 [s1 + 0xb8]\n 17674: u64 [s1 + 0x3e0] = a0\n 17678: u64 [s1 + 1048] = 0\n 17682: a3 = u64 [0x200e8]\n 17687: a4 = u64 [0x200f0]\n 17692: a5 = u64 [0x200f8]\n 17697: a0 = u64 [0x20100]\n 17702: u64 [s1 + 0x438] = a3\n 17706: a3 = s1 + 0x400\n 17710: u64 [a3 + 0x30] = a4\n 17713: u64 [a3 + 0x28] = a5\n 17716: u64 [a3 + 0x20] = a0\n 17719: u64 [a3 + 0x10] = a2\n 17722: u64 [a3 + 0x8] = a1\n 17725: a1 = 0x20\n 17728: a2 = s1 + 0x420\n 17732: a3 = s1 + 0x400\n 17736: a4 = s1 + 0x3e0\n 17740: u64 [s1 + 0x400] = t0\n 17744: a0 = u64 [s1 + 0xa0]\n 17748: ra = 666, jump @27\n      : @670 [@dyn 333] (gas: 3)\n 17754: a0 = s1 + 0x3c0\n 17758: a1 = 0x40\n 17761: ra = 668, jump @17\n      : @671 [@dyn 334] (gas: 6)\n 17767: a4 = s1 + 0x300\n 17771: a3 = u64 [a4 + 0xd8]\n 17775: a1 = u64 [a4 + 0xd0]\n 17779: a2 = u64 [a4 + 0xc8]\n 17783: a0 = u64 [a4 + 0xc0]\n 17787: t0 = 670, jump @1356\n      : @672 [@dyn 335] (gas: 1)\n 17793: jump @798 if a1 == 0\n      : @673 (gas: 1)\n 17797: trap\n      : @674 (gas: 8)\n 17798: a2 = s1 + 0x1038\n 17802: u64 [a2 + 320] = 0\n 17806: u64 [a2 + 312] = 0\n 17810: u64 [a2 + 304] = 0\n 17814: a1 = s1 + 0x1160\n 17818: u64 [a2 + 296] = 0x4\n 17823: a0 = 0\n 17825: ra = 672, jump @19\n      : @675 [@dyn 336] (gas: 1)\n 17831: t0 = 674, jump @1414\n      : @676 [@dyn 337] (gas: 30)\n 17837: t0 = u64 [0x20068]\n 17842: a3 = u64 [0x20070]\n 17847: a1 = u64 [s1 + 0x30]\n 17850: a0 = a1 + 0x20\n 17853: u64 [s1 + 0x50] = a0\n 17856: a0 = a0 <u a1\n 17859: a1 = u64 [s1 + 0x20]\n 17862: a2 = a1 + a0\n 17865: u64 [s1 + 0x48] = a2\n 17868: a1 = a2 <u a1\n 17871: a1 = a0 if a0 == 0\n 17874: a5 = u64 [0x20078]\n 17879: a0 = u64 [0x20080]\n 17884: ra = t0\n 17886: u64 [a4 + 0x18] = t0\n 17889: u64 [s1 + 0x78] = a3\n 17892: u64 [a4 + 0x10] = a3\n 17895: t0 = a5\n 17897: u64 [a4 + 0x8] = a5\n 17900: u64 [s1 + 0x98] = a4\n 17904: a2 = a0\n 17906: u64 [a4] = a0\n 17908: a0 = u64 [s1 + 0x28]\n 17911: a1 = a1 + a0\n 17914: u64 [s1 + 0x40] = a1\n 17917: a0 = a1 <u a0\n 17920: a1 = u64 [s1 + 0x18]\n 17923: a0 = a0 + a1\n 17926: u64 [s1 + 0x38] = a0\n 17929: fallthrough\n      : @677 (gas: 3)\n 17930: u64 [s1 + 0x80] = a2\n 17934: u64 [s1 + 0x88] = t0\n 17938: t0 = 676, jump @1363\n      : @678 [@dyn 338] (gas: 1)\n 17944: jump @680 if a3 != 0\n      : @679 (gas: 1)\n 17947: jump @331\n      : @680 (gas: 5)\n 17950: a0 = s1 + 0x1140\n 17954: a1 = u64 [s1 + 0x98]\n 17958: u64 [s1 + 0xa8] = t1\n 17962: u64 [s1 + 0xa0] = t2\n 17966: ra = 678, jump @21\n      : @681 [@dyn 339] (gas: 1)\n 17972: t0 = 680, jump @1367\n      : @682 [@dyn 340] (gas: 6)\n 17978: t0 = a1 <u a5\n 17981: a5 = u64 [s1 + 0xb0]\n 17985: a3 = u64 [s1 + 0x38]\n 17988: a5 = a5 + a3\n 17991: a5 = a5 + t0\n 17994: t0 = 682, jump @1401\n      : @683 [@dyn 341] (gas: 1)\n 18000: jump @673 if a1 != 0\n      : @684 (gas: 13)\n 18004: a5 = s1 + 0x1038\n 18008: t0 = u64 [a5 + 0x120]\n 18012: a3 = a5 + 0x100\n 18016: a1 = u64 [a3 + 0x18]\n 18019: a2 = u64 [a3 + 0x10]\n 18022: a4 = u64 [a3 + 0x8]\n 18025: u64 [a5 + 0xe8] = a4\n 18029: u64 [a5 + 0xf0] = a2\n 18033: u64 [a5 + 0xf8] = a1\n 18037: a1 = s1 + 0x1120\n 18041: u64 [a5 + 0x100] = t0\n 18045: u64 [s1 + 0xb8] = t2\n 18049: ra = 684, jump @19\n      : @685 [@dyn 342] (gas: 1)\n 18055: t0 = 686, jump @1349\n      : @686 [@dyn 343] (gas: 14)\n 18061: t0 = ra\n 18063: a5 = u64 [s1 + 0x98]\n 18067: u64 [a5 + 0x8] = ra\n 18070: a2 = a3\n 18072: u64 [a5] = a3\n 18074: a3 = t2\n 18076: u64 [a5 + 0x10] = a3\n 18079: ra = a0\n 18081: u64 [a5 + 0x18] = a0\n 18084: u64 [s1 + 0x78] = a3\n 18087: u64 [s1 + 0xb8] = t1\n 18091: t2 = a1\n 18093: t1 = a4\n 18095: jump @677\n      : @687 (gas: 7)\n 18098: u64 [s1 + 600] = 0\n 18102: u64 [s1 + 592] = 0\n 18106: u64 [s1 + 584] = 0\n 18110: a1 = s1 + 0x240\n 18114: u64 [s1 + 576] = 0x3\n 18119: a0 = 0\n 18121: ra = 688, jump @19\n      : @688 [@dyn 344] (gas: 1)\n 18127: t0 = 690, jump @1414\n      : @689 [@dyn 345] (gas: 30)\n 18133: t0 = u64 [0x20108]\n 18138: a3 = u64 [0x20110]\n 18143: a1 = u64 [s1 + 0x30]\n 18146: a0 = a1 + 0x20\n 18149: u64 [s1 + 0x50] = a0\n 18152: a0 = a0 <u a1\n 18155: a1 = u64 [s1 + 0x20]\n 18158: a2 = a1 + a0\n 18161: u64 [s1 + 0x48] = a2\n 18164: a1 = a2 <u a1\n 18167: a1 = a0 if a0 == 0\n 18170: a5 = u64 [0x20118]\n 18175: a0 = u64 [0x20120]\n 18180: ra = t0\n 18182: u64 [a4 + 0x18] = t0\n 18185: u64 [s1 + 0x78] = a3\n 18188: u64 [a4 + 0x10] = a3\n 18191: t0 = a5\n 18193: u64 [a4 + 0x8] = a5\n 18196: u64 [s1 + 0x98] = a4\n 18200: a2 = a0\n 18202: u64 [a4] = a0\n 18204: a0 = u64 [s1 + 0x28]\n 18207: a1 = a1 + a0\n 18210: u64 [s1 + 0x40] = a1\n 18213: a0 = a1 <u a0\n 18216: a1 = u64 [s1 + 0x18]\n 18219: a0 = a0 + a1\n 18222: u64 [s1 + 0x38] = a0\n 18225: fallthrough\n      : @690 (gas: 3)\n 18226: u64 [s1 + 0x80] = a2\n 18230: u64 [s1 + 0x88] = t0\n 18234: t0 = 692, jump @1363\n      : @691 [@dyn 346] (gas: 1)\n 18240: jump @630 if a3 == 0\n      : @692 (gas: 5)\n 18244: a0 = s1 + 0x220\n 18248: a1 = u64 [s1 + 0x98]\n 18252: u64 [s1 + 0xa8] = t1\n 18256: u64 [s1 + 0xa0] = t2\n 18260: ra = 694, jump @21\n      : @693 [@dyn 347] (gas: 1)\n 18266: t0 = 696, jump @1367\n      : @694 [@dyn 348] (gas: 6)\n 18272: t0 = a1 <u a5\n 18275: a5 = u64 [s1 + 0xb0]\n 18279: a3 = u64 [s1 + 0x38]\n 18282: a5 = a5 + a3\n 18285: a5 = a5 + t0\n 18288: t0 = 698, jump @1401\n      : @695 [@dyn 349] (gas: 1)\n 18294: jump @673 if a1 != 0\n      : @696 (gas: 12)\n 18298: a3 = s1 + 0x200\n 18302: a2 = u64 [a3 + 0x38]\n 18305: a1 = u64 [a3 + 0x30]\n 18308: a5 = u64 [a3 + 0x28]\n 18311: a4 = u64 [a3 + 0x20]\n 18314: u64 [a3] = a4\n 18316: u64 [a3 + 0x8] = a5\n 18319: u64 [a3 + 0x10] = a1\n 18322: a1 = s1 + 0x200\n 18326: u64 [a3 + 0x18] = a2\n 18329: u64 [s1 + 0xb8] = t2\n 18333: ra = 700, jump @19\n      : @697 [@dyn 350] (gas: 1)\n 18339: t0 = 702, jump @1349\n      : @698 [@dyn 351] (gas: 14)\n 18345: t0 = ra\n 18347: a5 = u64 [s1 + 0x98]\n 18351: u64 [a5 + 0x8] = ra\n 18354: a2 = a3\n 18356: u64 [a5] = a3\n 18358: a3 = t2\n 18360: u64 [a5 + 0x10] = a3\n 18363: ra = a0\n 18365: u64 [a5 + 0x18] = a0\n 18368: u64 [s1 + 0x78] = a3\n 18371: u64 [s1 + 0xb8] = t1\n 18375: t2 = a1\n 18377: t1 = a4\n 18379: jump @690\n      : @699 (gas: 6)\n 18382: a1 = 0x20280\n 18387: i32 a1 = a1 + 0\n 18389: a0 = 0x1\n 18392: a2 = 0\n 18394: ecalli 7 // 'seal_return'\n 18396: jump @847\n      : @700 (gas: 6)\n 18399: a1 = 0x20280\n 18404: i32 a1 = a1 + 0\n 18406: a0 = 0x1\n 18409: a2 = 0\n 18411: ecalli 7 // 'seal_return'\n 18413: jump @847\n      : @701 (gas: 6)\n 18416: a1 = 0x20280\n 18421: i32 a1 = a1 + 0\n 18423: a0 = 0x1\n 18426: a2 = 0\n 18428: ecalli 7 // 'seal_return'\n 18430: jump @847\n      : @702 (gas: 6)\n 18433: a1 = 0x20280\n 18438: i32 a1 = a1 + 0\n 18440: a0 = 0x1\n 18443: a2 = 0\n 18445: ecalli 7 // 'seal_return'\n 18447: jump @847\n      : @703 (gas: 11)\n 18450: a0 = s1 + 0x7ff\n 18454: a0 = a0 + 0x39\n 18457: u64 [a0 + 2040] = 0\n 18461: u64 [a0 + 2032] = 0\n 18465: u64 [a0 + 2024] = 0\n 18469: a0 = 0x4e487b7100000000\n 18479: a1 = s1 + 0x1020\n 18483: a2 = s1 + 0x1038\n 18487: u64 [a2] = a0\n 18489: a0 = 0\n 18491: ra = 704, jump @19\n      : @704 [@dyn 352] (gas: 10)\n 18497: a1 = s1 + 0x7ff\n 18501: a1 = a1 + 0x39\n 18504: u64 [a1 + 2016] = 0\n 18508: u64 [a1 + 2008] = 0\n 18512: u64 [a1 + 1992] = 0x22\n 18517: a2 = a1\n 18519: a0 = 0x4\n 18522: a1 = s1 + 0x1000\n 18526: u64 [a2 + 2000] = 0\n 18530: ra = 706, jump @19\n      : @705 [@dyn 353] (gas: 2)\n 18536: a1 = i32 [0x2026c]\n 18541: jump @707 if a1 >u 63\n      : @706 (gas: 3)\n 18545: u32 [0x2026c] = 0x40\n 18551: a1 = 0x20280\n 18556: jump @797\n      : @707 (gas: 2)\n 18559: a1 = 0x20280\n 18564: jump @797\n      : @708 (gas: 6)\n 18567: a1 = 0x20280\n 18572: i32 a1 = a1 + 0\n 18574: a0 = 0x1\n 18577: a2 = 0\n 18579: ecalli 7 // 'seal_return'\n 18581: jump @847\n      : @709 (gas: 6)\n 18584: a1 = 0x20280\n 18589: i32 a1 = a1 + 0\n 18591: a0 = 0x1\n 18594: a2 = 0\n 18596: ecalli 7 // 'seal_return'\n 18598: jump @847\n      : @710 (gas: 6)\n 18601: a1 = 0x20280\n 18606: i32 a1 = a1 + 0\n 18608: a0 = 0x1\n 18611: a2 = 0\n 18613: ecalli 7 // 'seal_return'\n 18615: jump @847\n      : @711 (gas: 6)\n 18618: a1 = 0x20280\n 18623: i32 a1 = a1 + 0\n 18625: a0 = 0x1\n 18628: a2 = 0\n 18630: ecalli 7 // 'seal_return'\n 18632: jump @847\n      : @712 (gas: 6)\n 18635: a1 = 0x20280\n 18640: i32 a1 = a1 + 0\n 18642: a0 = 0x1\n 18645: a2 = 0\n 18647: ecalli 7 // 'seal_return'\n 18649: jump @847\n      : @713 (gas: 6)\n 18652: a1 = 0x20280\n 18657: i32 a1 = a1 + 0\n 18659: a0 = 0x1\n 18662: a2 = 0\n 18664: ecalli 7 // 'seal_return'\n 18666: jump @847\n      : @714 (gas: 6)\n 18669: a1 = 0x20280\n 18674: i32 a1 = a1 + 0\n 18676: a0 = 0x1\n 18679: a2 = 0\n 18681: ecalli 7 // 'seal_return'\n 18683: jump @847\n      : @715 (gas: 6)\n 18686: a1 = 0x20280\n 18691: i32 a1 = a1 + 0\n 18693: a0 = 0x1\n 18696: a2 = 0\n 18698: ecalli 7 // 'seal_return'\n 18700: jump @847\n      : @716 (gas: 6)\n 18703: a1 = 0x20280\n 18708: i32 a1 = a1 + 0\n 18710: a0 = 0x1\n 18713: a2 = 0\n 18715: ecalli 7 // 'seal_return'\n 18717: jump @847\n      : @717 (gas: 6)\n 18720: a1 = 0x20280\n 18725: i32 a1 = a1 + 0\n 18727: a0 = 0x1\n 18730: a2 = 0\n 18732: ecalli 7 // 'seal_return'\n 18734: jump @847\n      : @718 (gas: 6)\n 18737: a1 = 0x20280\n 18742: i32 a1 = a1 + 0\n 18744: a0 = 0x1\n 18747: a2 = 0\n 18749: ecalli 7 // 'seal_return'\n 18751: jump @847\n      : @719 (gas: 6)\n 18754: a1 = 0x20280\n 18759: i32 a1 = a1 + 0\n 18761: a0 = 0x1\n 18764: a2 = 0\n 18766: ecalli 7 // 'seal_return'\n 18768: jump @847\n      : @720 (gas: 9)\n 18771: u64 [a2 + 440] = 0\n 18775: u64 [a2 + 432] = 0\n 18779: u64 [a2 + 424] = 0\n 18783: a0 = 0xe2517d3f00000000\n 18793: a1 = s1 + 0x7ff\n 18797: a1 = a1 + 0x1e1\n 18801: u64 [a2 + 0x1c0] = a0\n 18805: a0 = 0\n 18807: ra = 708, jump @19\n      : @721 [@dyn 354] (gas: 6)\n 18813: a0 = u64 [s1 + 0x20]\n 18816: ra = 0x2c6\n 18820: ecalli 3 // 'caller'\n 18822: a2 = u64 [s1 + 0x70]\n 18825: t0 = 0x2c8\n 18829: jump @1343\n      : @722 [@dyn 355] (gas: 2)\n 18832: a2 = u64 [s1 + 0x70]\n 18835: t0 = 712, jump @1343\n      : @723 [@dyn 356] (gas: 9)\n 18841: u64 [a2 + 416] = 0\n 18845: a4 = a2 + 0x100\n 18849: u64 [a4 + 0x98] = a1\n 18853: u64 [a4 + 0x90] = a0\n 18857: a0 = 0x4\n 18860: a1 = s1 + 0x7ff\n 18864: a1 = a1 + 0x1c1\n 18868: u64 [a4 + 0x88] = a3\n 18872: ra = 714, jump @19\n      : @724 [@dyn 357] (gas: 16)\n 18878: a0 = u64 [s1 + 0x40]\n 18881: a1 = s1 + 0x7ff\n 18885: a1 = a1 + 0x39\n 18888: a2 = a1 + 0x100\n 18892: u64 [a2 + 0x80] = a0\n 18896: a0 = u64 [s1 + 0x30]\n 18899: u64 [a2 + 0x78] = a0\n 18902: a0 = u64 [s1 + 0x28]\n 18905: u64 [a2 + 0x70] = a0\n 18908: a3 = a1\n 18910: a0 = 0x24\n 18913: a1 = s1 + 0x7ff\n 18917: a1 = a1 + 0x1a1\n 18921: a2 = u64 [s1 + 0x38]\n 18924: u64 [a3 + 0x168] = a2\n 18928: ra = 716, jump @19\n      : @725 [@dyn 358] (gas: 3)\n 18934: a0 = u64 [s1 + 0x98]\n 18938: a0 = i32 [a0]\n 18940: jump @727 if a0 >u 95\n      : @726 (gas: 7)\n 18944: a1 = u64 [s1 + 0x98]\n 18948: u32 [a1 + 0] = 0x60\n 18951: a0 = 0x1\n 18954: a2 = 0x44\n 18957: a1 = u64 [s1 + 0xb8]\n 18961: ecalli 7 // 'seal_return'\n 18963: jump @736\n      : @727 (gas: 5)\n 18966: a0 = 0x1\n 18969: a2 = 0x44\n 18972: a1 = u64 [s1 + 0xb8]\n 18976: ecalli 7 // 'seal_return'\n 18978: jump @736\n      : @728 (gas: 12)\n 18981: a0 = s1 + 0x7ff\n 18985: a0 = a0 + 0x39\n 18988: u64 [a0 + 504] = 0\n 18992: u64 [a0 + 496] = 0\n 18996: u64 [a0 + 488] = 0\n 19000: a2 = a0\n 19002: a0 = 0xec442f0500000000\n 19012: a1 = s1 + 0x7ff\n 19016: a1 = a1 + 0x221\n 19020: u64 [a2 + 0x200] = a0\n 19024: a0 = 0\n 19026: ra = 718, jump @19\n      : @729 [@dyn 359] (gas: 12)\n 19032: a0 = s1 + 0x7ff\n 19036: a0 = a0 + 0x39\n 19039: u64 [a0 + 480] = 0\n 19043: u64 [a0 + 472] = 0\n 19047: u64 [a0 + 464] = 0\n 19051: a2 = a0\n 19053: a0 = 0x4\n 19056: a1 = s1 + 0x7ff\n 19060: a1 = a1 + 0x201\n 19064: u64 [a2 + 456] = 0\n 19068: ra = 0x2d4\n 19072: jump @19\n      : @730 (gas: 9)\n 19075: a0 = s1 + 0x7ff\n 19079: a0 = a0 + 0x39\n 19082: u64 [a0 + 568] = 0\n 19086: u64 [a0 + 560] = 0\n 19090: u64 [a0 + 552] = 0\n 19094: a2 = a0\n 19096: t0 = 0x2d0\n 19100: a0 = 0x4e487b7100000000\n 19110: fallthrough\n      : @731 [@dyn 360] (gas: 5)\n 19111: a1 = s1 + 0x7ff\n 19115: a1 = a1 + 0x261\n 19119: u64 [a2 + 0x240] = a0\n 19123: a0 = 0\n 19125: ra = 722, jump @19\n      : @732 [@dyn 361] (gas: 11)\n 19131: a1 = s1 + 0x7ff\n 19135: a1 = a1 + 0x39\n 19138: u64 [a1 + 544] = 0\n 19142: u64 [a1 + 536] = 0\n 19146: u64 [a1 + 520] = 0x11\n 19151: a2 = a1\n 19153: a0 = 0x4\n 19156: a1 = s1 + 0x7ff\n 19160: a1 = a1 + 0x241\n 19164: u64 [a2 + 528] = 0\n 19168: ra = 724, jump @19\n      : @733 [@dyn 362] (gas: 3)\n 19174: a0 = u64 [s1 + 0x98]\n 19178: a0 = i32 [a0]\n 19180: jump @735 if a0 >u 63\n      : @734 (gas: 7)\n 19184: a1 = u64 [s1 + 0x98]\n 19188: u32 [a1 + 0] = 0x40\n 19191: a0 = 0x1\n 19194: a2 = 0x24\n 19197: a1 = u64 [s1 + 0xb8]\n 19201: ecalli 7 // 'seal_return'\n 19203: jump @736\n      : @735 (gas: 5)\n 19205: a0 = 0x1\n 19208: a2 = 0x24\n 19211: a1 = u64 [s1 + 0xb8]\n 19215: ecalli 7 // 'seal_return'\n 19217: fallthrough\n      : @736 (gas: 6)\n 19218: a1 = 0x20280\n 19223: i32 a1 = a1 + 0\n 19225: a0 = 0x1\n 19228: a2 = 0\n 19230: ecalli 7 // 'seal_return'\n 19232: jump @847\n      : @737 (gas: 6)\n 19235: a1 = 0x20280\n 19240: i32 a1 = a1 + 0\n 19242: a0 = 0x1\n 19245: a2 = 0\n 19247: ecalli 7 // 'seal_return'\n 19249: jump @847\n      : @738 (gas: 6)\n 19252: a1 = 0x20280\n 19257: i32 a1 = a1 + 0\n 19259: a0 = 0x1\n 19262: a2 = 0\n 19264: ecalli 7 // 'seal_return'\n 19266: jump @847\n      : @739 (gas: 6)\n 19269: a1 = 0x20280\n 19274: i32 a1 = a1 + 0\n 19276: a0 = 0x1\n 19279: a2 = 0\n 19281: ecalli 7 // 'seal_return'\n 19283: jump @847\n      : @740 (gas: 9)\n 19286: u64 [a3 + 216] = 0\n 19290: u64 [a3 + 208] = 0\n 19294: a0 = 0x8dfc202b00000000\n 19304: u64 [a3 + 0xe0] = a0\n 19308: a1 = s1 + 0x7ff\n 19312: a1 = a1 + 0x101\n 19316: u64 [a3 + 200] = 0\n 19320: a0 = 0\n 19322: ra = 726, jump @19\n      : @741 [@dyn 363] (gas: 2)\n 19328: a1 = i32 [0x2026c]\n 19333: jump @743 if a1 >u 31\n      : @742 (gas: 3)\n 19337: u32 [0x2026c] = 0x20\n 19343: a1 = 0x20280\n 19348: jump @744\n      : @743 (gas: 2)\n 19350: a1 = 0x20280\n 19355: fallthrough\n      : @744 (gas: 5)\n 19356: i32 a1 = a1 + 0\n 19358: a0 = 0x1\n 19361: a2 = 0x4\n 19364: ecalli 7 // 'seal_return'\n 19366: fallthrough\n      : @745 (gas: 6)\n 19367: a1 = 0x20280\n 19372: i32 a1 = a1 + 0\n 19374: a0 = 0x1\n 19377: a2 = 0\n 19379: ecalli 7 // 'seal_return'\n 19381: jump @847\n      : @746 (gas: 6)\n 19384: a1 = 0x20280\n 19389: i32 a1 = a1 + 0\n 19391: a0 = 0x1\n 19394: a2 = 0\n 19396: ecalli 7 // 'seal_return'\n 19398: jump @847\n      : @747 (gas: 1)\n 19401: jump @802 if a0 != 3578229791\n      : @748 (gas: 11)\n 19409: a0 = s1 + 0x1838\n 19413: u64 [a0 + 896] = 0\n 19417: u64 [a0 + 888] = 0\n 19421: u64 [a0 + 880] = 0\n 19425: u64 [a0 + 872] = 0\n 19429: a0 = s1 + 0x2000\n 19433: i32 a0 = a0 + 0xfffffffffffffba0\n 19437: ra = 0x2d8\n 19441: ecalli 10 // 'value_transferred'\n 19443: t0 = 0x2da\n 19447: jump @1384\n      : @749 [@dyn 364] (gas: 1)\n 19450: t0 = 730, jump @1384\n      : @750 [@dyn 365] (gas: 1)\n 19456: t0 = 732, jump @1382\n      : @751 [@dyn 366] (gas: 1)\n 19462: jump @813 if a0 == 0\n      : @752 (gas: 6)\n 19466: a1 = 0x20280\n 19471: i32 a1 = a1 + 0\n 19473: a0 = 0x1\n 19476: a2 = 0\n 19478: ecalli 7 // 'seal_return'\n 19480: jump @847\n      : @753 (gas: 6)\n 19483: a1 = 0x20280\n 19488: i32 a1 = a1 + 0\n 19490: a0 = 0x1\n 19493: a2 = 0\n 19495: ecalli 7 // 'seal_return'\n 19497: jump @847\n      : @754 (gas: 6)\n 19500: a1 = 0x20280\n 19505: i32 a1 = a1 + 0\n 19507: a0 = 0x1\n 19510: a2 = 0\n 19512: ecalli 7 // 'seal_return'\n 19514: jump @847\n      : @755 (gas: 6)\n 19517: a1 = 0x20280\n 19522: i32 a1 = a1 + 0\n 19524: a0 = 0x1\n 19527: a2 = 0\n 19529: ecalli 7 // 'seal_return'\n 19531: jump @847\n      : @756 (gas: 6)\n 19534: a1 = 0x20280\n 19539: i32 a1 = a1 + 0\n 19541: a0 = 0x1\n 19544: a2 = 0\n 19546: ecalli 7 // 'seal_return'\n 19548: jump @847\n      : @757 (gas: 6)\n 19551: a1 = 0x20280\n 19556: i32 a1 = a1 + 0\n 19558: a0 = 0x1\n 19561: a2 = 0\n 19563: ecalli 7 // 'seal_return'\n 19565: jump @847\n      : @758 (gas: 6)\n 19568: a1 = 0x20280\n 19573: i32 a1 = a1 + 0\n 19575: a0 = 0x1\n 19578: a2 = 0\n 19580: ecalli 7 // 'seal_return'\n 19582: jump @847\n      : @759 (gas: 6)\n 19585: a1 = 0x20280\n 19590: i32 a1 = a1 + 0\n 19592: a0 = 0x1\n 19595: a2 = 0\n 19597: ecalli 7 // 'seal_return'\n 19599: jump @847\n      : @760 (gas: 6)\n 19602: a1 = 0x20280\n 19607: i32 a1 = a1 + 0\n 19609: a0 = 0x1\n 19612: a2 = 0\n 19614: ecalli 7 // 'seal_return'\n 19616: jump @847\n      : @761 (gas: 6)\n 19619: a1 = 0x20280\n 19624: i32 a1 = a1 + 0\n 19626: a0 = 0x1\n 19629: a2 = 0\n 19631: ecalli 7 // 'seal_return'\n 19633: jump @847\n      : @762 (gas: 6)\n 19636: a1 = 0x20280\n 19641: i32 a1 = a1 + 0\n 19643: a0 = 0x1\n 19646: a2 = 0\n 19648: ecalli 7 // 'seal_return'\n 19650: jump @847\n      : @763 (gas: 6)\n 19653: a1 = 0x20280\n 19658: i32 a1 = a1 + 0\n 19660: a0 = 0x1\n 19663: a2 = 0\n 19665: ecalli 7 // 'seal_return'\n 19667: jump @847\n      : @764 (gas: 6)\n 19670: a1 = 0x20280\n 19675: i32 a1 = a1 + 0\n 19677: a0 = 0x1\n 19680: a2 = 0\n 19682: ecalli 7 // 'seal_return'\n 19684: jump @847\n      : @765 (gas: 6)\n 19687: a1 = 0x20280\n 19692: i32 a1 = a1 + 0\n 19694: a0 = 0x1\n 19697: a2 = 0\n 19699: ecalli 7 // 'seal_return'\n 19701: jump @847\n      : @766 (gas: 6)\n 19704: a1 = 0x20280\n 19709: i32 a1 = a1 + 0\n 19711: a0 = 0x1\n 19714: a2 = 0\n 19716: ecalli 7 // 'seal_return'\n 19718: jump @847\n      : @767 (gas: 6)\n 19721: u64 [s1 + 272] = 0\n 19725: u64 [s1 + 264] = 0\n 19729: u64 [s1 + 256] = 0\n 19733: t0 = 0x2de\n 19737: a0 = 0x4e487b7100000000\n 19747: fallthrough\n      : @768 [@dyn 367] (gas: 4)\n 19748: a1 = s1 + 0x100\n 19752: u64 [s1 + 0x118] = a0\n 19756: a0 = 0\n 19758: ra = 736, jump @19\n      : @769 [@dyn 368] (gas: 7)\n 19764: u64 [s1 + 248] = 0\n 19768: u64 [s1 + 240] = 0\n 19772: u64 [s1 + 224] = 0x22\n 19777: a0 = 0x4\n 19780: a1 = s1 + 0xe0\n 19784: u64 [s1 + 232] = 0\n 19788: ra = 738, jump @19\n      : @770 [@dyn 369] (gas: 2)\n 19794: a1 = i32 [0x2026c]\n 19799: jump @772 if a1 >u 63\n      : @771 (gas: 3)\n 19803: u32 [0x2026c] = 0x40\n 19809: a1 = 0x20280\n 19814: jump @797\n      : @772 (gas: 2)\n 19817: a1 = 0x20280\n 19822: jump @797\n      : @773 (gas: 6)\n 19825: a1 = 0x20280\n 19830: i32 a1 = a1 + 0\n 19832: a0 = 0x1\n 19835: a2 = 0\n 19837: ecalli 7 // 'seal_return'\n 19839: jump @847\n      : @774 (gas: 6)\n 19842: a1 = 0x20280\n 19847: i32 a1 = a1 + 0\n 19849: a0 = 0x1\n 19852: a2 = 0\n 19854: ecalli 7 // 'seal_return'\n 19856: jump @847\n      : @775 (gas: 8)\n 19859: u64 [s1 + 848] = 0\n 19863: u64 [s1 + 840] = 0\n 19867: u64 [s1 + 832] = 0\n 19871: a0 = 0xe602df0500000000\n 19881: a1 = s1 + 0x340\n 19885: u64 [s1 + 0x358] = a0\n 19889: a0 = 0\n 19891: ra = 740, jump @19\n      : @776 [@dyn 370] (gas: 7)\n 19897: u64 [s1 + 824] = 0\n 19901: u64 [s1 + 816] = 0\n 19905: u64 [s1 + 808] = 0\n 19909: a0 = 0x4\n 19912: a1 = s1 + 0x320\n 19916: u64 [s1 + 800] = 0\n 19920: ra = 742, jump @19\n      : @777 [@dyn 371] (gas: 2)\n 19926: a1 = i32 [0x2026c]\n 19931: jump @779 if a1 >u 63\n      : @778 (gas: 3)\n 19935: u32 [0x2026c] = 0x40\n 19941: a1 = 0x20280\n 19946: jump @797\n      : @779 (gas: 2)\n 19949: a1 = 0x20280\n 19954: jump @797\n      : @780 (gas: 8)\n 19957: u64 [s1 + 912] = 0\n 19961: u64 [s1 + 904] = 0\n 19965: u64 [s1 + 896] = 0\n 19969: a0 = 0x94280d6200000000\n 19979: a1 = s1 + 0x380\n 19983: u64 [s1 + 0x398] = a0\n 19987: a0 = 0\n 19989: ra = 744, jump @19\n      : @781 [@dyn 372] (gas: 7)\n 19995: u64 [s1 + 888] = 0\n 19999: u64 [s1 + 880] = 0\n 20003: u64 [s1 + 872] = 0\n 20007: a0 = 0x4\n 20010: a1 = s1 + 0x360\n 20014: u64 [s1 + 864] = 0\n 20018: ra = 746, jump @19\n      : @782 [@dyn 373] (gas: 2)\n 20024: a1 = i32 [0x2026c]\n 20029: jump @784 if a1 >u 63\n      : @783 (gas: 3)\n 20033: u32 [0x2026c] = 0x40\n 20039: a1 = 0x20280\n 20044: jump @797\n      : @784 (gas: 2)\n 20047: a1 = 0x20280\n 20052: jump @797\n      : @785 (gas: 10)\n 20055: a0 = s1 + 0x1038\n 20059: u64 [a0 + 56] = 0\n 20062: u64 [a0 + 48] = 0\n 20065: u64 [a0 + 40] = 0\n 20068: a2 = a0\n 20070: a0 = 0x4e487b7100000000\n 20080: a1 = s1 + 0x1060\n 20084: u64 [a2 + 0x40] = a0\n 20087: a0 = 0\n 20089: ra = 748, jump @19\n      : @786 [@dyn 374] (gas: 3)\n 20095: t0 = 0x2ee\n 20099: a1 = s1 + 0x1038\n 20103: fallthrough\n      : @787 [@dyn 375] (gas: 8)\n 20104: u64 [a1 + 32] = 0\n 20107: u64 [a1 + 24] = 0\n 20110: u64 [a1 + 8] = 0x41\n 20114: a2 = a1\n 20116: a0 = 0x4\n 20119: a1 = s1 + 0x1040\n 20123: u64 [a2 + 16] = 0\n 20126: ra = 752, jump @19\n      : @788 [@dyn 376] (gas: 2)\n 20132: a1 = i32 [0x2026c]\n 20137: jump @790 if a1 >u 63\n      : @789 (gas: 3)\n 20141: u32 [0x2026c] = 0x40\n 20147: a1 = 0x20280\n 20152: jump @797\n      : @790 (gas: 2)\n 20154: a1 = 0x20280\n 20159: jump @797\n      : @791 (gas: 6)\n 20161: u64 [s1 + 336] = 0\n 20165: u64 [s1 + 328] = 0\n 20169: u64 [s1 + 320] = 0\n 20173: t0 = 0x2f2\n 20177: a0 = 0x4e487b7100000000\n 20187: fallthrough\n      : @792 [@dyn 377] (gas: 4)\n 20188: a1 = s1 + 0x140\n 20192: u64 [s1 + 0x158] = a0\n 20196: a0 = 0\n 20198: ra = 756, jump @19\n      : @793 [@dyn 378] (gas: 7)\n 20204: u64 [s1 + 312] = 0\n 20208: u64 [s1 + 304] = 0\n 20212: u64 [s1 + 288] = 0x41\n 20217: a0 = 0x4\n 20220: a1 = s1 + 0x120\n 20224: u64 [s1 + 296] = 0\n 20228: ra = 758, jump @19\n      : @794 [@dyn 379] (gas: 2)\n 20234: a1 = i32 [0x2026c]\n 20239: jump @796 if a1 >u 63\n      : @795 (gas: 3)\n 20243: u32 [0x2026c] = 0x40\n 20249: a1 = 0x20280\n 20254: jump @797\n      : @796 (gas: 2)\n 20256: a1 = 0x20280\n 20261: fallthrough\n      : @797 (gas: 5)\n 20262: i32 a1 = a1 + 0\n 20264: a0 = 0x1\n 20267: a2 = 0x24\n 20270: ecalli 7 // 'seal_return'\n 20272: fallthrough\n      : @798 (gas: 7)\n 20273: u64 [s1 + 952] = 0\n 20277: u64 [s1 + 944] = 0\n 20281: u64 [s1 + 936] = 0\n 20285: a1 = s1 + 0x3a0\n 20289: u64 [s1 + 928] = 0x1\n 20294: u64 [s1 + 0xb8] = a0\n 20298: ra = 760, jump @19\n      : @799 [@dyn 380] (gas: 3)\n 20304: a1 = 0x20\n 20307: a0 = u64 [s1 + 0xb8]\n 20311: ra = 762, jump @33\n      : @800 [@dyn 381] (gas: 6)\n 20317: i32 a1 = a0 + 0\n 20319: a2 = 0x20\n 20322: a0 = 0\n 20324: ra = 0x2fc\n 20328: ecalli 7 // 'seal_return'\n 20330: jump @802\n      : @801 (gas: 5)\n 20332: a2 = 0x20\n 20335: a0 = 0\n 20337: ra = 0x2fc\n 20341: ecalli 7 // 'seal_return'\n 20343: fallthrough\n      : @802 [@dyn 382] (gas: 1)\n 20344: jump @807 if a0 != 33540519\n      : @803 (gas: 10)\n 20351: a0 = s1 + 0x1038\n 20355: u64 [a0 + 1408] = 0\n 20359: u64 [a0 + 1400] = 0\n 20363: u64 [a0 + 1392] = 0\n 20367: u64 [a0 + 1384] = 0\n 20371: a0 = s1 + 0x1000\n 20375: i32 a0 = a0 + 0x5a0\n 20379: ra = 0x2fe\n 20383: ecalli 10 // 'value_transferred'\n 20385: fallthrough\n      : @804 [@dyn 383] (gas: 3)\n 20386: a3 = s1 + 0x1038\n 20390: a4 = a3 + 0x500\n 20394: t0 = 768, jump @1382\n      : @805 [@dyn 384] (gas: 1)\n 20400: jump @820 if a0 == 0\n      : @806 (gas: 6)\n 20404: a1 = 0x20280\n 20409: i32 a1 = a1 + 0\n 20411: a0 = 0x1\n 20414: a2 = 0\n 20416: ecalli 7 // 'seal_return'\n 20418: jump @847\n      : @807 (gas: 1)\n 20421: jump @815 if a0 != 791671133\n      : @808 (gas: 11)\n 20428: a0 = s1 + 0x1038\n 20432: u64 [a0 + 1856] = 0\n 20436: u64 [a0 + 1848] = 0\n 20440: u64 [a0 + 1840] = 0\n 20444: u64 [a0 + 1832] = 0\n 20448: a0 = s1 + 0x1000\n 20452: i32 a0 = a0 + 0x760\n 20456: ra = 0x302\n 20460: ecalli 10 // 'value_transferred'\n 20462: t0 = 0x304\n 20466: jump @1385\n      : @809 [@dyn 385] (gas: 1)\n 20469: t0 = 772, jump @1385\n      : @810 [@dyn 386] (gas: 1)\n 20475: t0 = 774, jump @1415\n      : @811 [@dyn 387] (gas: 1)\n 20481: jump @832 if a0 == 0\n      : @812 (gas: 6)\n 20485: a1 = 0x20280\n 20490: i32 a1 = a1 + 0\n 20492: a0 = 0x1\n 20495: a2 = 0\n 20497: ecalli 7 // 'seal_return'\n 20499: jump @847\n      : @813 (gas: 3)\n 20502: a0 = u64 [s1 + 0xb8]\n 20506: a0 = i32 [a0]\n 20508: jump @822 if a0 >u 67\n      : @814 (gas: 6)\n 20513: a1 = 0x20280\n 20518: i32 a1 = a1 + 0\n 20520: a0 = 0x1\n 20523: a2 = 0\n 20525: ecalli 7 // 'seal_return'\n 20527: jump @847\n      : @815 (gas: 1)\n 20530: jump @828 if a0 != 911641278\n      : @816 (gas: 11)\n 20538: a0 = s1 + 0x1038\n 20542: u64 [a0 + 1952] = 0\n 20546: u64 [a0 + 1944] = 0\n 20550: u64 [a0 + 1936] = 0\n 20554: u64 [a0 + 1928] = 0\n 20558: a0 = s1 + 0x1000\n 20562: i32 a0 = a0 + 0x7c0\n 20566: ra = 0x308\n 20570: ecalli 10 // 'value_transferred'\n 20572: t0 = 0x30a\n 20576: jump @1385\n      : @817 [@dyn 388] (gas: 1)\n 20579: t0 = 778, jump @1385\n      : @818 [@dyn 389] (gas: 8)\n 20585: a0 = u64 [a4 + 0x98]\n 20589: a1 = u64 [a4 + 0xa0]\n 20593: a2 = u64 [a4 + 0x90]\n 20597: a3 = u64 [a4 + 0x88]\n 20601: a1 = a1 | a2\n 20604: a0 = a0 | a3\n 20607: a0 = a0 | a1\n 20610: jump @837 if a0 == 0\n      : @819 (gas: 6)\n 20614: a1 = 0x20280\n 20619: i32 a1 = a1 + 0\n 20621: a0 = 0x1\n 20624: a2 = 0\n 20626: ecalli 7 // 'seal_return'\n 20628: jump @847\n      : @820 (gas: 3)\n 20631: a0 = u64 [s1 + 0xb8]\n 20635: a0 = i32 [a0]\n 20637: jump @834 if a0 >u 35\n      : @821 (gas: 6)\n 20642: a1 = 0x20280\n 20647: i32 a1 = a1 + 0\n 20649: a0 = 0x1\n 20652: a2 = 0\n 20654: ecalli 7 // 'seal_return'\n 20656: jump @847\n      : @822 (gas: 18)\n 20659: a0 = s1 + 0x2000\n 20663: i32 a0 = a0 + 0xfffffffffffffbc0\n 20667: a1 = 0x4\n 20670: ecalli 1 // 'call_data_load'\n 20672: a0 = s1 + 0x1838\n 20676: a2 = a0 + 0x300\n 20680: a1 = u64 [a2 + 0x88]\n 20684: u64 [s1 + 0xb8] = a1\n 20688: a1 = u64 [a2 + 0x90]\n 20692: u64 [s1 + 0xb0] = a1\n 20696: a1 = u64 [a2 + 0x98]\n 20700: u64 [s1 + 0xa8] = a1\n 20704: a0 = u64 [a2 + 0xa0]\n 20708: u64 [s1 + 0xa0] = a0\n 20712: a0 = s1 + 0x13e0\n 20716: ra = 0x30c\n 20720: t0 = 0x420\n 20724: jump @1417\n      : @823 [@dyn 390] (gas: 3)\n 20727: t0 = 0x30e\n 20731: a1 = s1 + 0x1038\n 20735: fallthrough\n      : @824 [@dyn 391] (gas: 21)\n 20736: a2 = a1 + 0x300\n 20740: a0 = u64 [a2 + 0xa8]\n 20744: u64 [s1 + 0x98] = a0\n 20748: a0 = u64 [a2 + 0xb0]\n 20752: u64 [s1 + 0x90] = a0\n 20756: a0 = u64 [a2 + 0xb8]\n 20760: u64 [s1 + 0x88] = a0\n 20764: a0 = u64 [a2 + 0xc0]\n 20768: u64 [s1 + 0x80] = a0\n 20772: a0 = u64 [s1 + 0xa0]\n 20776: u64 [a2 + 0x80] = a0\n 20780: a0 = u64 [s1 + 0xa8]\n 20784: u64 [a2 + 0x78] = a0\n 20787: a0 = u64 [s1 + 0xb0]\n 20791: u64 [a2 + 0x70] = a0\n 20794: a3 = a1\n 20796: a0 = s1 + 0x13c0\n 20800: a1 = s1 + 0x13a0\n 20804: a2 = u64 [s1 + 0xb8]\n 20808: u64 [a3 + 0x368] = a2\n 20812: ra = 784, jump @1046\n      : @825 [@dyn 392] (gas: 12)\n 20818: a4 = s1 + 0x1038\n 20822: a5 = a4 + 0x300\n 20826: a1 = u64 [a5 + 0x88]\n 20830: a0 = u64 [a5 + 0x90]\n 20834: a2 = u64 [a5 + 0x98]\n 20838: a3 = u64 [a5 + 0xa0]\n 20842: u64 [a5 + 0x60] = a3\n 20845: u64 [a5 + 0x58] = a2\n 20848: u64 [a5 + 0x50] = a0\n 20851: a0 = s1 + 0x1380\n 20855: u64 [a5 + 0x48] = a1\n 20858: ra = 786, jump @1182\n      : @826 [@dyn 393] (gas: 26)\n 20864: a0 = s1 + 0x1038\n 20868: a1 = u64 [s1 + 0x80]\n 20872: a2 = a0 + 0x300\n 20876: u64 [a2] = a1\n 20878: a1 = u64 [s1 + 0x88]\n 20882: a3 = a0 + 0x200\n 20886: u64 [a3 + 0xf8] = a1\n 20890: a1 = u64 [s1 + 0x90]\n 20894: u64 [a3 + 0xf0] = a1\n 20898: a1 = u64 [s1 + 0x98]\n 20902: u64 [a3 + 0xe8] = a1\n 20906: a1 = u64 [s1 + 0xa0]\n 20910: u64 [a2 + 0x20] = a1\n 20913: a1 = u64 [s1 + 0xa8]\n 20917: u64 [a2 + 0x18] = a1\n 20920: a1 = u64 [s1 + 0xb0]\n 20924: u64 [a2 + 0x10] = a1\n 20927: a4 = a0\n 20929: a0 = s1 + 0x1360\n 20933: a1 = s1 + 0x1340\n 20937: a2 = s1 + 0x1320\n 20941: a3 = u64 [s1 + 0xb8]\n 20945: u64 [a4 + 0x308] = a3\n 20949: ra = 0x314\n 20953: t0 = 0x53e\n 20957: jump @1404\n      : @827 [@dyn 394] (gas: 2)\n 20960: a1 = 0x20280\n 20965: jump @615\n      : @828 (gas: 1)\n 20968: jump @839 if a0 != 1117154408\n      : @829 (gas: 9)\n 20976: a0 = s1 + 0x1838\n 20980: u64 [a0 + 256] = 0\n 20984: u64 [a0 + 248] = 0\n 20988: u64 [a0 + 240] = 0\n 20992: u64 [a0 + 232] = 0\n 20996: a0 = s1 + 0x2000\n 21000: i32 a0 = a0 + 0xfffffffffffff920\n 21004: ecalli 10 // 'value_transferred'\n 21006: fallthrough\n      : @830 (gas: 9)\n 21007: a3 = s1 + 0x1838\n 21011: a0 = u64 [a3 + 0xf8]\n 21015: a1 = u64 [a3 + 0x100]\n 21019: a2 = u64 [a3 + 0xf0]\n 21023: a3 = u64 [a3 + 0xe8]\n 21027: a1 = a1 | a2\n 21030: a0 = a0 | a3\n 21033: a0 = a0 | a1\n 21036: jump @847 if a0 == 0\n      : @831 (gas: 6)\n 21040: a1 = 0x20280\n 21045: i32 a1 = a1 + 0\n 21047: a0 = 0x1\n 21050: a2 = 0\n 21052: ecalli 7 // 'seal_return'\n 21054: jump @847\n      : @832 (gas: 3)\n 21057: a0 = u64 [s1 + 0xb8]\n 21061: a0 = i32 [a0]\n 21063: jump @849 if a0 >u 67\n      : @833 (gas: 6)\n 21068: a1 = 0x20280\n 21073: i32 a1 = a1 + 0\n 21075: a0 = 0x1\n 21078: a2 = 0\n 21080: ecalli 7 // 'seal_return'\n 21082: jump @847\n      : @834 (gas: 7)\n 21085: a0 = s1 + 0x1000\n 21089: i32 a0 = a0 + 0x5c0\n 21093: a1 = 0x4\n 21096: ecalli 1 // 'call_data_load'\n 21098: t0 = 0x316\n 21102: a1 = s1 + 0x1038\n 21106: fallthrough\n      : @835 [@dyn 395] (gas: 11)\n 21107: a4 = a1 + 0x500\n 21111: a0 = u64 [a4 + 0xa0]\n 21115: a2 = u64 [a4 + 0x98]\n 21119: a3 = u64 [a4 + 0x88]\n 21123: a1 = u64 [a4 + 0x90]\n 21127: a4 = a0 << 0x20\n 21130: a4 = a4 >> 0x20\n 21133: a2 = a2 | a3\n 21136: a4 = a4 | a1\n 21139: a4 = a4 | a2\n 21142: jump @854 if a4 == 0\n      : @836 (gas: 6)\n 21146: a1 = 0x20280\n 21151: i32 a1 = a1 + 0\n 21153: a0 = 0x1\n 21156: a2 = 0\n 21158: ecalli 7 // 'seal_return'\n 21160: jump @847\n      : @837 (gas: 4)\n 21163: a0 = u64 [s1 + 0xb8]\n 21167: a0 = i32 [a0]\n 21169: a1 = 0x43\n 21172: jump @858 if a1 <u a0\n      : @838 (gas: 6)\n 21176: a1 = 0x20280\n 21181: i32 a1 = a1 + 0\n 21183: a0 = 0x1\n 21186: a2 = 0\n 21188: ecalli 7 // 'seal_return'\n 21190: jump @847\n      : @839 (gas: 1)\n 21192: jump @845 if a0 != 2043438992\n      : @840 (gas: 11)\n 21199: a0 = s1 + 0x1838\n 21203: u64 [a0 + 448] = 0\n 21207: u64 [a0 + 440] = 0\n 21211: u64 [a0 + 432] = 0\n 21215: u64 [a0 + 424] = 0\n 21219: a0 = s1 + 0x2000\n 21223: i32 a0 = a0 + 0xfffffffffffff9e0\n 21227: ra = 0x318\n 21231: ecalli 10 // 'value_transferred'\n 21233: t0 = 0x31a\n 21237: jump @1399\n      : @841 [@dyn 396] (gas: 1)\n 21240: t0 = 794, jump @1399\n      : @842 [@dyn 397] (gas: 1)\n 21246: t0 = 796, jump @1381\n      : @843 [@dyn 398] (gas: 1)\n 21252: jump @863 if a0 == 0\n      : @844 (gas: 6)\n 21256: a1 = 0x20280\n 21261: i32 a1 = a1 + 0\n 21263: a0 = 0x1\n 21266: a2 = 0\n 21268: ecalli 7 // 'seal_return'\n 21270: jump @847\n      : @845 (gas: 6)\n 21272: a1 = 0x20280\n 21277: i32 a1 = a1 + 0\n 21279: a0 = 0x1\n 21282: a2 = 0\n 21284: ecalli 7 // 'seal_return'\n 21286: jump @847\n      : @846 (gas: 5)\n 21288: i32 a1 = a1 + 0\n 21290: a0 = 0x1\n 21293: a2 = 0\n 21295: ecalli 7 // 'seal_return'\n 21297: fallthrough\n      : @847 (gas: 3)\n 21298: a0 = u64 [s1 + 0xb8]\n 21302: a0 = i32 [a0]\n 21304: jump @865 if a0 >u 35\n      : @848 (gas: 2)\n 21309: a1 = 0x20280\n 21314: jump @846\n      : @849 (gas: 19)\n 21316: a0 = s1 + 0x1000\n 21320: i32 a0 = a0 + 0x780\n 21324: a1 = 0x4\n 21327: ecalli 1 // 'call_data_load'\n 21329: a0 = s1 + 0x1038\n 21333: a2 = a0 + 0x700\n 21337: a1 = u64 [a2 + 0x48]\n 21340: u64 [s1 + 0xb8] = a1\n 21344: a1 = u64 [a2 + 0x50]\n 21347: u64 [s1 + 0xb0] = a1\n 21351: a1 = u64 [a2 + 0x58]\n 21354: u64 [s1 + 0xa8] = a1\n 21358: a0 = u64 [a2 + 0x60]\n 21361: u64 [s1 + 0xa0] = a0\n 21365: a0 = s1 + 0x7ff\n 21369: a0 = a0 + 0x1\n 21372: ra = 0x31e\n 21376: t0 = 0x420\n 21380: jump @1417\n      : @850 [@dyn 399] (gas: 23)\n 21383: a0 = s1 + 0x1000\n 21387: a0 = u64 [a0 + 0xfffffffffffff800]\n 21391: u64 [s1 + 0x98] = a0\n 21395: a0 = s1 + 0x1000\n 21399: a0 = u64 [a0 + 0xfffffffffffff808]\n 21403: u64 [s1 + 0x90] = a0\n 21407: a0 = s1 + 0x1000\n 21411: a0 = u64 [a0 + 0xfffffffffffff810]\n 21415: u64 [s1 + 0x88] = a0\n 21419: a0 = s1 + 0x1000\n 21423: a0 = u64 [a0 + 0xfffffffffffff818]\n 21427: u64 [s1 + 0x80] = a0\n 21431: a0 = u64 [s1 + 0xa0]\n 21435: u64 [s1 + 0x7d8] = a0\n 21439: a0 = u64 [s1 + 0xa8]\n 21443: u64 [s1 + 0x7d0] = a0\n 21447: a0 = u64 [s1 + 0xb0]\n 21451: u64 [s1 + 0x7c8] = a0\n 21455: a0 = s1 + 0x7e0\n 21459: a1 = s1 + 0x7c0\n 21463: a2 = u64 [s1 + 0xb8]\n 21467: u64 [s1 + 0x7c0] = a2\n 21471: ra = 800, jump @1046\n      : @851 [@dyn 400] (gas: 10)\n 21477: a1 = u64 [s1 + 0x7e0]\n 21481: a0 = u64 [s1 + 0x7e8]\n 21485: a2 = u64 [s1 + 0x7f0]\n 21489: a3 = u64 [s1 + 0x7f8]\n 21493: u64 [s1 + 0x7b8] = a3\n 21497: u64 [s1 + 0x7b0] = a2\n 21501: u64 [s1 + 0x7a8] = a0\n 21505: a0 = s1 + 0x7a0\n 21509: u64 [s1 + 0x7a0] = a1\n 21513: ra = 802, jump @1182\n      : @852 [@dyn 401] (gas: 23)\n 21519: a0 = u64 [s1 + 0x80]\n 21523: a4 = s1 + 0x700\n 21527: u64 [a4 + 0x58] = a0\n 21530: a0 = u64 [s1 + 0x88]\n 21534: u64 [a4 + 0x50] = a0\n 21537: a0 = u64 [s1 + 0x90]\n 21541: u64 [a4 + 0x48] = a0\n 21544: a0 = u64 [s1 + 0x98]\n 21548: u64 [a4 + 0x40] = a0\n 21551: a0 = u64 [s1 + 0xa0]\n 21555: u64 [a4 + 0x78] = a0\n 21558: a0 = u64 [s1 + 0xa8]\n 21562: u64 [a4 + 0x70] = a0\n 21565: a0 = u64 [s1 + 0xb0]\n 21569: u64 [a4 + 0x68] = a0\n 21572: a0 = s1 + 0x780\n 21576: a1 = s1 + 0x760\n 21580: a2 = s1 + 0x740\n 21584: a3 = u64 [s1 + 0xb8]\n 21588: u64 [a4 + 0x60] = a3\n 21591: ra = 0x324\n 21595: t0 = 0x4fc\n 21599: jump @1404\n      : @853 [@dyn 402] (gas: 2)\n 21602: a1 = 0x20280\n 21607: jump @615\n      : @854 (gas: 18)\n 21610: a3 = 0x7965db0b00000000\n 21620: a3 = a3 ^ a0\n 21623: a3 = a3 | a1\n 21626: a3 = a3 | a2\n 21629: a3 = a3 <u 0x1\n 21632: a4 = 0x1ffc9a700000000\n 21642: a0 = a0 ^ a4\n 21645: a0 = a0 | a1\n 21648: a0 = a0 | a2\n 21651: a0 = a0 <u 0x1\n 21654: a0 = a0 | a3\n 21657: u64 [s1 + 216] = 0\n 21661: u64 [s1 + 208] = 0\n 21665: u64 [s1 + 0xc0] = a0\n 21669: a0 = 0x80\n 21673: a1 = s1 + 0xc0\n 21677: u64 [s1 + 200] = 0\n 21681: ra = 806, jump @19\n      : @855 [@dyn 403] (gas: 2)\n 21687: a1 = i32 [0x2026c]\n 21692: jump @857 if a1 >u 159\n      : @856 (gas: 4)\n 21697: u32 [0x2026c] = 0xa0\n 21704: a0 = 0x20280\n 21709: i32 a1 = a0 + 0x80\n 21713: jump @801\n      : @857 (gas: 3)\n 21716: a0 = 0x20280\n 21721: i32 a1 = a0 + 0x80\n 21725: jump @801\n      : @858 (gas: 5)\n 21728: a0 = s1 + 0x7ff\n 21732: a0 = a0 + 0xe1\n 21736: ra = 0x328\n 21740: t0 = 0x420\n 21744: jump @1417\n      : @859 [@dyn 404] (gas: 15)\n 21747: a0 = s1 + 0x7ff\n 21751: a0 = a0 + 0x39\n 21754: a1 = u64 [a0 + 0xc0]\n 21758: u64 [s1 + 0xa0] = a1\n 21762: a1 = u64 [a0 + 0xb8]\n 21766: u64 [s1 + 0xa8] = a1\n 21770: a1 = u64 [a0 + 0xb0]\n 21774: u64 [s1 + 0xb0] = a1\n 21778: a0 = u64 [a0 + 0xa8]\n 21782: u64 [s1 + 0xb8] = a0\n 21786: a0 = 0x30280\n 21791: u64 [s1 + 0x98] = a0\n 21795: i32 a0 = a0 + 0\n 21797: ecalli 3 // 'caller'\n 21799: fallthrough\n      : @860 (gas: 25)\n 21800: a2 = u64 [s1 + 0x98]\n 21804: a0 = u64 [a2 + 0x8]\n 21807: a1 = u64 [a2]\n 21809: a2 = i32 [a2 + 0x10]\n 21812: a0 = reverse a0\n 21814: a3 = a0 >> 0x20\n 21817: a1 = reverse a1\n 21819: a4 = a1 << 0x20\n 21822: a3 = a3 | a4\n 21825: a0 = a0 << 0x20\n 21828: a2 = reverse a2\n 21830: a2 = a2 >> 0x20\n 21833: a0 = a0 | a2\n 21836: a1 = a1 >> 0x20\n 21839: a2 = u64 [s1 + 0xa8]\n 21843: a2 = a2 << 0x20\n 21846: a2 = a2 >> 0x20\n 21849: a1 = a1 ^ a2\n 21852: a2 = u64 [s1 + 0xb8]\n 21856: a0 = a0 ^ a2\n 21859: a0 = a0 | a1\n 21862: a1 = u64 [s1 + 0xb0]\n 21866: a1 = a1 ^ a3\n 21869: a0 = a0 | a1\n 21872: jump @869 if a0 != 0\n      : @861 (gas: 33)\n 21876: a0 = s1 + 0x1000\n 21880: i32 a0 = a0 + 0x7e0\n 21884: a1 = 0x4\n 21887: ecalli 1 // 'call_data_load'\n 21889: a2 = s1 + 0x1038\n 21893: a4 = a2 + 0x700\n 21897: a3 = u64 [a4 + 0xa8]\n 21901: a0 = u64 [a4 + 0xb0]\n 21905: a1 = u64 [a4 + 0xb8]\n 21909: a2 = u64 [a4 + 0xc0]\n 21913: a4 = s1 + 0x7ff\n 21917: a4 = a4 + 0x39\n 21920: a5 = u64 [s1 + 0xa0]\n 21924: u64 [a4 + 0x40] = a5\n 21927: a5 = u64 [s1 + 0xa8]\n 21931: u64 [a4 + 0x38] = a5\n 21934: a5 = u64 [s1 + 0xb0]\n 21938: u64 [a4 + 0x30] = a5\n 21941: a5 = u64 [s1 + 0xb8]\n 21945: u64 [a4 + 0x28] = a5\n 21948: u64 [a4 + 0x60] = a2\n 21951: u64 [a4 + 0x58] = a1\n 21954: u64 [a4 + 0x50] = a0\n 21957: a0 = s1 + 0x7ff\n 21961: a0 = a0 + 0xa1\n 21965: a1 = s1 + 0x7ff\n 21969: a1 = a1 + 0x81\n 21973: a2 = s1 + 0x7ff\n 21977: a2 = a2 + 0x61\n 21980: u64 [a4 + 0x48] = a3\n 21983: ra = 0x32a\n 21987: t0 = 0x53e\n 21991: jump @1404\n      : @862 [@dyn 405] (gas: 2)\n 21994: a1 = 0x20280\n 21999: jump @615\n      : @863 (gas: 4)\n 22002: a0 = u64 [s1 + 0xb8]\n 22006: a0 = i32 [a0]\n 22008: a1 = 0x43\n 22011: jump @873 if a1 <u a0\n      : @864 (gas: 2)\n 22015: a1 = 0x20280\n 22020: jump @846\n      : @865 (gas: 22)\n 22023: a0 = s1 + 0x2000\n 22027: i32 a0 = a0 + 0xfffffffffffff940\n 22031: a1 = 0x4\n 22034: ecalli 1 // 'call_data_load'\n 22036: a0 = s1 + 0x1838\n 22040: a2 = a0 + 0x100\n 22044: a1 = u64 [a2 + 0x8]\n 22047: u64 [s1 + 0xb8] = a1\n 22051: a1 = u64 [a2 + 0x10]\n 22054: u64 [s1 + 0xb0] = a1\n 22058: a1 = u64 [a2 + 0x18]\n 22061: u64 [s1 + 0xa8] = a1\n 22065: a0 = u64 [a2 + 0x20]\n 22068: u64 [s1 + 0xa0] = a0\n 22072: a0 = 0x30280\n 22077: u64 [s1 + 0x98] = a0\n 22081: i32 a0 = a0 + 0\n 22083: ra = 0x32c\n 22087: ecalli 3 // 'caller'\n 22089: a2 = u64 [s1 + 0x98]\n 22093: t0 = 0x32e\n 22097: jump @1343\n      : @866 [@dyn 406] (gas: 2)\n 22100: a2 = u64 [s1 + 0x98]\n 22104: t0 = 814, jump @1343\n      : @867 [@dyn 407] (gas: 18)\n 22110: a4 = u64 [s1 + 0xa0]\n 22114: a5 = a2 + 0x400\n 22118: u64 [a5 + 0x40] = a4\n 22121: a4 = u64 [s1 + 0xa8]\n 22125: u64 [a5 + 0x38] = a4\n 22128: a4 = u64 [s1 + 0xb0]\n 22132: u64 [a5 + 0x30] = a4\n 22135: a4 = u64 [s1 + 0xb8]\n 22139: u64 [a5 + 0x28] = a4\n 22142: u64 [a2 + 1120] = 0\n 22146: u64 [a5 + 0x58] = a1\n 22149: u64 [a5 + 0x50] = a0\n 22152: a0 = s1 + 0x7ff\n 22156: a0 = a0 + 0x481\n 22160: a1 = s1 + 0x7ff\n 22164: a1 = a1 + 0x461\n 22168: u64 [a5 + 0x48] = a3\n 22171: ra = 816, jump @1295\n      : @868 [@dyn 408] (gas: 2)\n 22177: a1 = 0x20280\n 22182: jump @615\n      : @869 (gas: 11)\n 22185: a2 = s1 + 0x7ff\n 22189: a2 = a2 + 0x39\n 22192: u64 [a2 + 152] = 0\n 22196: u64 [a2 + 144] = 0\n 22200: a0 = 0x6697b23200000000\n 22210: u64 [a2 + 0xa0] = a0\n 22214: a1 = s1 + 0x7ff\n 22218: a1 = a1 + 0xc1\n 22222: u64 [a2 + 136] = 0\n 22226: a0 = 0\n 22228: ra = 818, jump @19\n      : @870 [@dyn 409] (gas: 2)\n 22234: a1 = i32 [0x2026c]\n 22239: jump @872 if a1 >u 31\n      : @871 (gas: 3)\n 22243: u32 [0x2026c] = 0x20\n 22249: a1 = 0x20280\n 22254: jump @744\n      : @872 (gas: 2)\n 22257: a1 = 0x20280\n 22262: jump @744\n      : @873 (gas: 5)\n 22265: a0 = s1 + 0x7ff\n 22269: a0 = a0 + 0x661\n 22273: ra = 0x334\n 22277: t0 = 0x416\n 22281: jump @1417\n      : @874 [@dyn 410] (gas: 32)\n 22284: a1 = s1 + 0x7ff\n 22288: a1 = a1 + 0x39\n 22291: a2 = a1 + 0x600\n 22295: a0 = u64 [a2 + 0x28]\n 22298: u64 [s1 + 0xb8] = a0\n 22302: a0 = u64 [a2 + 0x30]\n 22305: u64 [s1 + 0xb0] = a0\n 22309: a0 = u64 [a2 + 0x38]\n 22312: u64 [s1 + 0xa8] = a0\n 22316: a0 = u64 [a2 + 0x40]\n 22319: u64 [s1 + 0xa0] = a0\n 22323: a0 = s1 + 0x2000\n 22327: i32 a0 = a0 + 0xfffffffffffffa00\n 22331: a1 = 0x24\n 22334: ecalli 1 // 'call_data_load'\n 22336: a0 = s1 + 0x1838\n 22340: a2 = a0 + 0x100\n 22344: a1 = u64 [a2 + 0xc8]\n 22348: u64 [s1 + 0x98] = a1\n 22352: a1 = u64 [a2 + 0xd0]\n 22356: u64 [s1 + 0x90] = a1\n 22360: a1 = u64 [a2 + 0xd8]\n 22364: u64 [s1 + 0x88] = a1\n 22368: a0 = u64 [a2 + 0xe0]\n 22372: u64 [s1 + 0x80] = a0\n 22376: a0 = 0x30280\n 22381: u64 [s1 + 0x78] = a0\n 22384: i32 a0 = a0 + 0\n 22386: ra = 0x336\n 22390: ecalli 3 // 'caller'\n 22392: t0 = 0x338\n 22396: jump @1375\n      : @875 [@dyn 411] (gas: 1)\n 22399: t0 = 824, jump @1375\n      : @876 [@dyn 412] (gas: 31)\n 22405: a3 = s1 + 0x7ff\n 22409: a3 = a3 + 0x39\n 22412: a4 = u64 [s1 + 0x80]\n 22416: a5 = a3 + 0x500\n 22420: u64 [a5 + 0xe0] = a4\n 22424: a4 = u64 [s1 + 0x88]\n 22428: u64 [a5 + 0xd8] = a4\n 22432: a4 = u64 [s1 + 0x90]\n 22436: u64 [a5 + 0xd0] = a4\n 22440: a4 = u64 [s1 + 0x98]\n 22444: u64 [a5 + 0xc8] = a4\n 22448: u64 [a3 + 1536] = 0\n 22452: a4 = u64 [s1 + 0xa0]\n 22456: u64 [a3 + 0x620] = a4\n 22460: a4 = u64 [s1 + 0xa8]\n 22464: u64 [a3 + 0x618] = a4\n 22468: a4 = u64 [s1 + 0xb0]\n 22472: u64 [a3 + 0x610] = a4\n 22476: u64 [a5 + 0xf8] = a2\n 22480: u64 [a5 + 0xf0] = a0\n 22484: u64 [a5 + 0xe8] = a1\n 22488: a4 = a3\n 22490: a0 = s1 + 0x7ff\n 22494: a0 = a0 + 0x641\n 22498: a1 = s1 + 0x7ff\n 22502: a1 = a1 + 0x621\n 22506: a2 = s1 + 0x7ff\n 22510: a2 = a2 + 0x601\n 22514: a3 = u64 [s1 + 0xb8]\n 22518: u64 [a4 + 0x608] = a3\n 22522: ra = 826, jump @1054\n      : @877 [@dyn 413] (gas: 25)\n 22528: a0 = u64 [s1 + 0x80]\n 22532: a1 = s1 + 0x7ff\n 22536: a1 = a1 + 0x39\n 22539: a2 = a1 + 0x500\n 22543: u64 [a2 + 0xa0] = a0\n 22547: a0 = u64 [s1 + 0x88]\n 22551: u64 [a2 + 0x98] = a0\n 22555: a0 = u64 [s1 + 0x90]\n 22559: u64 [a2 + 0x90] = a0\n 22563: a0 = u64 [s1 + 0x98]\n 22567: u64 [a2 + 0x88] = a0\n 22571: a0 = u64 [s1 + 0xa0]\n 22575: u64 [a2 + 0xc0] = a0\n 22579: a0 = u64 [s1 + 0xa8]\n 22583: u64 [a2 + 0xb8] = a0\n 22587: a0 = u64 [s1 + 0xb0]\n 22591: u64 [a2 + 0xb0] = a0\n 22595: a3 = a1\n 22597: a0 = s1 + 0x7ff\n 22601: a0 = a0 + 0x5e1\n 22605: a1 = s1 + 0x7ff\n 22609: a1 = a1 + 0x5c1\n 22613: a2 = u64 [s1 + 0xb8]\n 22617: u64 [a3 + 0x5a8] = a2\n 22621: ra = 828, jump @1295\n      : @878 [@dyn 414] (gas: 2)\n 22627: a1 = 0x20280\n 22632: jump @615\n      : @879 (gas: 17)\n 22635: sp = sp + 0xffffffffffffff30\n 22639: u64 [sp + 0xc8] = ra\n 22643: u64 [sp + 0xc0] = s0\n 22647: u64 [sp + 0xb8] = s1\n 22651: s0 = sp + 0xd0\n 22655: sp = sp & 0xfffffffffffffff0\n 22658: a2 = u64 [a1 + 0x18]\n 22661: u64 [sp + 0x10] = a2\n 22664: a2 = u64 [a1 + 0x10]\n 22667: u64 [sp + 0x8] = a2\n 22670: a2 = u64 [a1 + 0x8]\n 22673: u64 [sp] = a2\n 22675: s1 = u64 [a1]\n 22677: u64 [sp + 0x28] = a0\n 22680: a0 = sp + 0x90\n 22684: a1 = 0x40\n 22687: ra = 830, jump @17\n      : @880 [@dyn 415] (gas: 39)\n 22693: a1 = u64 [sp + 0x98]\n 22697: a2 = u64 [sp + 0x90]\n 22701: a0 = s1 + 0x1f\n 22704: ra = a0 <u s1\n 22707: a3 = u64 [sp]\n 22709: a4 = a3 + ra\n 22712: a0 = a0 & 0xffffffffffffffe0\n 22715: t1 = a1 + a4\n 22718: t0 = a2 + a0\n 22721: u64 [sp + 0x20] = a2\n 22724: a5 = t0 <u a2\n 22727: t1 = t1 + a5\n 22730: s1 = t1 ^ a1\n 22733: u64 [sp + 0x18] = a1\n 22736: a2 = t1 <u a1\n 22739: a2 = a5 if s1 == 0\n 22742: t2 = u64 [sp + 0xa8]\n 22746: a4 = a4 <u a3\n 22749: s1 = u64 [sp + 0xa0]\n 22753: a4 = ra if ra == 0\n 22756: a0 = u64 [sp + 0x8]\n 22759: a4 = a4 + a0\n 22762: a5 = a4 <u a0\n 22765: a4 = a4 + s1\n 22768: a3 = a4 + a2\n 22771: a0 = u64 [sp + 0x10]\n 22774: a0 = a0 + t2\n 22777: a0 = a0 + a5\n 22780: a5 = a3 <u a4\n 22783: a4 = a4 <u s1\n 22786: a0 = a0 + a4\n 22789: a4 = a0 + a5\n 22792: a0 = a4 >u 0\n 22794: a5 = a3 >u 0\n 22796: a5 = a0 if a4 != 0\n 22799: a0 = a3 | a4\n 22802: a1 = t1 >u 0\n 22804: a1 = a5 if a0 != 0\n 22807: jump @884 if a1 != 0\n      : @881 (gas: 8)\n 22810: a0 = a3 <u s1\n 22813: a1 = a4 ^ t2\n 22816: a5 = a4 <u t2\n 22819: a5 = a0 if a1 == 0\n 22822: a0 = a3 ^ s1\n 22825: a0 = a0 | a1\n 22828: a2 = a5 if a0 != 0\n 22831: jump @884 if a2 != 0\n      : @882 (gas: 8)\n 22834: u64 [sp + 0x70] = t0\n 22837: u64 [sp + 0x78] = t1\n 22840: u64 [sp + 0x80] = a3\n 22844: a0 = 0x40\n 22847: a1 = sp + 0x70\n 22850: u64 [sp + 0x88] = a4\n 22854: u64 [sp + 0x10] = t2\n 22857: ra = 832, jump @19\n      : @883 [@dyn 416] (gas: 14)\n 22863: a0 = u64 [sp + 0x28]\n 22866: a1 = u64 [sp + 0x10]\n 22869: u64 [a0 + 0x18] = a1\n 22872: u64 [a0 + 0x10] = s1\n 22875: a1 = u64 [sp + 0x18]\n 22878: u64 [a0 + 0x8] = a1\n 22881: a1 = u64 [sp + 0x20]\n 22884: u64 [a0] = a1\n 22886: sp = s0 + 0xffffffffffffff30\n 22890: ra = u64 [sp + 0xc8]\n 22894: s0 = u64 [sp + 0xc0]\n 22898: s1 = u64 [sp + 0xb8]\n 22902: sp = sp + 0xd0\n 22906: ret\n      : @884 (gas: 6)\n 22908: u64 [sp + 96] = 0\n 22911: u64 [sp + 88] = 0\n 22914: u64 [sp + 80] = 0\n 22917: t0 = 0x342\n 22921: a0 = 0x4e487b7100000000\n 22931: fallthrough\n      : @885 [@dyn 417] (gas: 4)\n 22932: a1 = sp + 0x50\n 22935: u64 [sp + 0x68] = a0\n 22938: a0 = 0\n 22940: ra = 836, jump @19\n      : @886 [@dyn 418] (gas: 7)\n 22946: u64 [sp + 72] = 0\n 22949: u64 [sp + 64] = 0\n 22952: u64 [sp + 48] = 0x41\n 22956: a0 = 0x4\n 22959: a1 = sp + 0x30\n 22962: u64 [sp + 56] = 0\n 22965: ra = 838, jump @19\n      : @887 [@dyn 419] (gas: 2)\n 22971: a1 = i32 [0x2026c]\n 22976: jump @889 if a1 >u 63\n      : @888 (gas: 2)\n 22980: u32 [0x2026c] = 0x40\n 22986: fallthrough\n      : @889 (gas: 7)\n 22987: a1 = 0x20280\n 22992: i32 a1 = a1 + 0\n 22994: a0 = 0x1\n 22997: a2 = 0x24\n 23000: ra = 0x348\n 23004: ecalli 7 // 'seal_return'\n 23006: fallthrough\n      : @890 [@dyn 420] (gas: 22)\n 23007: sp = sp + 0xfffffffffffffda0\n 23011: a2 = sp + 0x200\n 23015: u64 [a2 + 0x58] = ra\n 23018: u64 [a2 + 0x50] = s0\n 23021: u64 [a2 + 0x48] = s1\n 23024: s0 = sp + 0x260\n 23028: sp = sp & 0xffffffffffffffe0\n 23031: s1 = sp\n 23033: a2 = u64 [a1 + 0x10]\n 23036: u64 [s1 + 0x30] = a2\n 23039: a2 = u64 [a1 + 0x8]\n 23042: u64 [s1 + 0x50] = a2\n 23045: a1 = u64 [a1]\n 23047: u64 [s1 + 0x58] = a1\n 23050: u64 [s1 + 0x38] = a0\n 23053: u64 [s1 + 536] = 0\n 23057: u64 [s1 + 528] = 0\n 23061: u64 [s1 + 520] = 0\n 23065: a1 = s1 + 0x200\n 23069: u64 [s1 + 512] = 0\n 23073: a0 = 0\n 23075: ra = 842, jump @19\n      : @891 [@dyn 421] (gas: 7)\n 23081: u64 [s1 + 504] = 0\n 23085: u64 [s1 + 496] = 0\n 23089: u64 [s1 + 480] = 0x6\n 23094: a0 = 0x20\n 23097: a1 = s1 + 0x1e0\n 23101: u64 [s1 + 488] = 0\n 23105: ra = 844, jump @19\n      : @892 [@dyn 422] (gas: 3)\n 23111: a1 = 0x2026c\n 23116: a0 = i32 [0x2026c]\n 23121: jump @894 if a0 >u 63\n      : @893 (gas: 2)\n 23125: u32 [0x2026c] = 0x40\n 23131: fallthrough\n      : @894 (gas: 14)\n 23132: a0 = sp + 0xffffffffffffffe0\n 23135: a2 = a0 & 0xffffffffffffffe0\n 23138: u64 [s1 + 0x28] = a2\n 23141: sp = a2\n 23143: a0 = 0x20280\n 23148: i32 a0 = a0 + 0\n 23150: i32 a2 = a2 + 0\n 23152: u64 [s1 + 0x48] = a1\n 23155: a1 = 0x40\n 23158: u64 [s1 + 0x40] = a0\n 23161: ra = 0x34e\n 23165: ecalli 6 // 'hash_keccak_256'\n 23167: t0 = 0x350\n 23171: jump @1348\n      : @895 [@dyn 423] (gas: 1)\n 23174: t0 = 848, jump @1348\n      : @896 [@dyn 424] (gas: 13)\n 23180: a0 = u64 [s1 + 0x30]\n 23183: a0 = a0 << 0x20\n 23186: a0 = a0 >> 0x20\n 23189: u64 [s1 + 472] = 0\n 23193: u64 [s1] = a0\n 23195: u64 [s1 + 0x1d0] = a0\n 23199: a0 = u64 [s1 + 0x50]\n 23202: u64 [s1 + 0x1c8] = a0\n 23206: a1 = s1 + 0x1c0\n 23210: a0 = u64 [s1 + 0x58]\n 23213: u64 [s1 + 0x1c0] = a0\n 23217: a0 = 0\n 23219: ra = 850, jump @19\n      : @897 [@dyn 425] (gas: 12)\n 23225: a0 = u64 [s1 + 0x8]\n 23228: a3 = s1 + 0x100\n 23232: u64 [a3 + 0xb8] = a0\n 23236: a0 = u64 [s1 + 0x10]\n 23239: u64 [a3 + 0xb0] = a0\n 23243: a0 = u64 [s1 + 0x18]\n 23246: u64 [a3 + 0xa8] = a0\n 23250: a0 = 0x20\n 23253: a1 = s1 + 0x1a0\n 23257: a2 = u64 [s1 + 0x20]\n 23260: u64 [a3 + 0xa0] = a2\n 23264: ra = 852, jump @19\n      : @898 [@dyn 426] (gas: 3)\n 23270: a1 = u64 [s1 + 0x48]\n 23273: a0 = i32 [a1]\n 23275: jump @900 if a0 >u 63\n      : @899 (gas: 3)\n 23279: u32 [a1 + 0] = 0x40\n 23282: t0 = 0x356\n 23286: jump @1413\n      : @900 (gas: 1)\n 23289: t0 = 854, jump @1413\n      : @901 [@dyn 427] (gas: 5)\n 23295: ra = 0x358\n 23299: ecalli 6 // 'hash_keccak_256'\n 23301: a3 = u64 [s1 + 0x30]\n 23304: t0 = 0x35a\n 23308: jump @1361\n      : @902 [@dyn 428] (gas: 2)\n 23311: a3 = u64 [s1 + 0x30]\n 23314: t0 = 858, jump @1361\n      : @903 [@dyn 429] (gas: 2)\n 23320: a0 = s1 + 0x180\n 23324: ra = 860, jump @21\n      : @904 [@dyn 430] (gas: 2)\n 23330: a0 = u8 [s1 + 0x180]\n 23334: jump @906 if a0 == 0\n      : @905 (gas: 2)\n 23337: a1 = 0\n 23339: jump @926\n      : @906 (gas: 6)\n 23342: u64 [s1 + 376] = 0\n 23346: u64 [s1 + 368] = 0\n 23350: u64 [s1 + 360] = 0\n 23354: a1 = s1 + 0x160\n 23358: u64 [s1 + 352] = 0\n 23362: ra = 862, jump @19\n      : @907 [@dyn 431] (gas: 1)\n 23368: t0 = 864, jump @1369\n      : @908 [@dyn 432] (gas: 1)\n 23374: ra = 866, jump @19\n      : @909 [@dyn 433] (gas: 3)\n 23380: a1 = u64 [s1 + 0x48]\n 23383: a0 = i32 [a1]\n 23385: jump @911 if a0 >u 63\n      : @910 (gas: 3)\n 23389: u32 [a1 + 0] = 0x40\n 23392: t0 = 0x364\n 23396: jump @1413\n      : @911 (gas: 1)\n 23399: t0 = 868, jump @1413\n      : @912 [@dyn 434] (gas: 5)\n 23405: ra = 0x366\n 23409: ecalli 6 // 'hash_keccak_256'\n 23411: a3 = u64 [s1 + 0x30]\n 23414: t0 = 0x368\n 23418: jump @1406\n      : @913 [@dyn 435] (gas: 2)\n 23421: a3 = u64 [s1 + 0x30]\n 23424: t0 = 872, jump @1406\n      : @914 [@dyn 436] (gas: 21)\n 23430: u64 [s1 + 0x28] = a0\n 23433: a0 = reverse a1\n 23435: u64 [s1 + 0x20] = a0\n 23438: a0 = reverse a2\n 23440: u64 [s1 + 0x18] = a0\n 23443: a0 = reverse a3\n 23445: u64 [s1 + 0x10] = a0\n 23448: a0 = sp + 0xffffffffffffffe0\n 23451: a0 = a0 & 0xffffffffffffffe0\n 23454: u64 [s1 + 0x30] = a0\n 23457: sp = a0\n 23459: u64 [s1 + 312] = 0\n 23463: a0 = u64 [s1]\n 23465: u64 [s1 + 0x130] = a0\n 23469: a0 = u64 [s1 + 0x50]\n 23472: u64 [s1 + 0x128] = a0\n 23476: a1 = s1 + 0x120\n 23480: a0 = u64 [s1 + 0x58]\n 23483: u64 [s1 + 0x120] = a0\n 23487: a0 = 0\n 23489: ra = 874, jump @19\n      : @915 [@dyn 437] (gas: 12)\n 23495: a0 = u64 [s1 + 0x10]\n 23498: a3 = s1 + 0x100\n 23502: u64 [a3 + 0x18] = a0\n 23505: a0 = u64 [s1 + 0x18]\n 23508: u64 [a3 + 0x10] = a0\n 23511: a0 = u64 [s1 + 0x20]\n 23514: u64 [a3 + 0x8] = a0\n 23517: a0 = 0x20\n 23520: a1 = s1 + 0x100\n 23524: a2 = u64 [s1 + 0x28]\n 23527: u64 [a3] = a2\n 23529: ra = 876, jump @19\n      : @916 [@dyn 438] (gas: 3)\n 23535: a1 = u64 [s1 + 0x48]\n 23538: a0 = i32 [a1]\n 23540: jump @918 if a0 >u 63\n      : @917 (gas: 2)\n 23544: u32 [a1 + 0] = 0x40\n 23547: fallthrough\n      : @918 (gas: 12)\n 23548: a0 = sp + 0xffffffffffffffe0\n 23551: a0 = a0 & 0xffffffffffffffe0\n 23554: u64 [s1 + 0x48] = a0\n 23557: sp = a0\n 23559: i32 a2 = a0 + 0\n 23561: a1 = 0x40\n 23564: a0 = u64 [s1 + 0x40]\n 23567: ra = 0x36e\n 23571: ecalli 6 // 'hash_keccak_256'\n 23573: a3 = u64 [s1 + 0x48]\n 23576: t0 = 0x370\n 23580: jump @1352\n      : @919 [@dyn 439] (gas: 2)\n 23583: a3 = u64 [s1 + 0x48]\n 23586: t0 = 880, jump @1352\n      : @920 [@dyn 440] (gas: 7)\n 23592: a1 = u64 [s1 + 0x30]\n 23595: u64 [a1 + 0x18] = a3\n 23598: u64 [a1 + 0x10] = a2\n 23601: u64 [a1 + 0x8] = a4\n 23604: u64 [a1] = a0\n 23606: a0 = s1 + 0xe0\n 23610: ra = 882, jump @21\n      : @921 [@dyn 441] (gas: 14)\n 23616: a0 = u64 [s1 + 0xe0]\n 23620: a1 = u64 [s1 + 0xe8]\n 23624: a2 = u64 [s1 + 0xf8]\n 23628: a3 = u64 [s1 + 0xf0]\n 23632: a0 = a0 & 0xffffffffffffff00\n 23636: a0 = a0 | 0x1\n 23639: a4 = s1 + 0x200\n 23643: u64 [a4 + 0x38] = a2\n 23646: u64 [a4 + 0x30] = a3\n 23649: u64 [a4 + 0x28] = a1\n 23652: u64 [a4 + 0x20] = a0\n 23655: a1 = s1 + 0x220\n 23659: a0 = u64 [s1 + 0x30]\n 23662: ra = 884, jump @24\n      : @922 [@dyn 442] (gas: 8)\n 23668: a0 = 0x30280\n 23673: u64 [s1 + 0x48] = a0\n 23676: i32 a0 = a0 + 0\n 23678: ra = 0x376\n 23682: ecalli 3 // 'caller'\n 23684: a2 = u64 [s1 + 0x48]\n 23687: t0 = 0x378\n 23691: jump @1347\n      : @923 [@dyn 443] (gas: 2)\n 23694: a2 = u64 [s1 + 0x48]\n 23697: t0 = 888, jump @1347\n      : @924 [@dyn 444] (gas: 36)\n 23703: t0 = a1 | a0\n 23706: a3 = a3 >> 0x20\n 23709: a2 = reverse a2\n 23711: a1 = a2 << 0x20\n 23714: a1 = a1 | a3\n 23717: a2 = a2 >> 0x20\n 23720: u64 [s1 + 120] = 0\n 23723: u64 [s1 + 152] = 0\n 23727: a0 = u64 [s1]\n 23729: u64 [s1 + 0x90] = a0\n 23733: a0 = u64 [s1 + 0x50]\n 23736: u64 [s1 + 0x88] = a0\n 23740: a0 = u64 [s1 + 0x58]\n 23743: u64 [s1 + 0x80] = a0\n 23747: u64 [s1 + 184] = 0\n 23751: u64 [s1 + 176] = 0\n 23755: u64 [s1 + 168] = 0\n 23759: u64 [s1 + 160] = 0\n 23763: a3 = u64 [0x20128]\n 23768: a4 = u64 [0x20130]\n 23773: a5 = u64 [0x20138]\n 23778: a0 = u64 [0x20140]\n 23783: u64 [s1 + 0xd8] = a3\n 23787: u64 [s1 + 0xd0] = a4\n 23791: u64 [s1 + 0xc8] = a5\n 23795: u64 [s1 + 0xc0] = a0\n 23799: u64 [s1 + 0x70] = a2\n 23802: u64 [s1 + 0x68] = a1\n 23805: a2 = s1 + 0xc0\n 23809: a3 = s1 + 0xa0\n 23813: a4 = s1 + 0x80\n 23817: a5 = s1 + 0x60\n 23820: u64 [s1 + 0x60] = t0\n 23823: a0 = 0\n 23825: a1 = 0\n 23827: ra = 890, jump @30\n      : @925 [@dyn 445] (gas: 2)\n 23833: a1 = 0x1\n 23836: fallthrough\n      : @926 (gas: 12)\n 23837: a2 = u64 [s1 + 0x38]\n 23840: u64 [a2] = a1\n 23842: u64 [a2 + 8] = 0\n 23845: u64 [a2 + 16] = 0\n 23848: u64 [a2 + 24] = 0\n 23851: sp = s0 + 0xfffffffffffffda0\n 23855: a0 = sp + 0x200\n 23859: ra = u64 [a0 + 0x58]\n 23862: s0 = u64 [a0 + 0x50]\n 23865: s1 = u64 [a0 + 0x48]\n 23868: sp = sp + 0x260\n 23872: ret\n      : @927 [@dyn 446] (gas: 7)\n 23874: a0 = u64 [0x20148]\n 23879: u64 [s1 + 0x20] = a0\n 23882: u64 [s1 + 0x238] = a0\n 23886: a1 = u64 [0x20150]\n 23891: a2 = u64 [0x20158]\n 23896: a0 = u64 [0x20160]\n 23901: t0 = 894, jump @1403\n      : @928 [@dyn 447] (gas: 1)\n 23907: ra = 896, jump @19\n      : @929 [@dyn 448] (gas: 1)\n 23913: t0 = 898, jump @1359\n      : @930 [@dyn 449] (gas: 1)\n 23919: ra = 900, jump @19\n      : @931 [@dyn 450] (gas: 3)\n 23925: a1 = 0x2026c\n 23930: a0 = i32 [0x2026c]\n 23935: jump @933 if a0 >u 63\n      : @932 (gas: 2)\n 23939: u32 [0x2026c] = 0x40\n 23945: fallthrough\n      : @933 (gas: 6)\n 23946: a0 = sp + 0xffffffffffffffe0\n 23949: a2 = a0 & 0xffffffffffffffe0\n 23952: u64 [s1 + 0x48] = a2\n 23955: sp = a2\n 23957: a0 = 0x20280\n 23962: t0 = 902, jump @1419\n      : @934 [@dyn 451] (gas: 4)\n 23968: ra = 0x388\n 23972: ecalli 6 // 'hash_keccak_256'\n 23974: t0 = 0x38a\n 23978: jump @1345\n      : @935 [@dyn 452] (gas: 1)\n 23981: t0 = 906, jump @1345\n      : @936 [@dyn 453] (gas: 1)\n 23987: ra = 908, jump @19\n      : @937 [@dyn 454] (gas: 1)\n 23993: t0 = 910, jump @1366\n      : @938 [@dyn 455] (gas: 1)\n 23999: ra = 912, jump @19\n      : @939 [@dyn 456] (gas: 3)\n 24005: a1 = u64 [s1 + 0x68]\n 24008: a0 = i32 [a1]\n 24010: jump @941 if a0 >u 63\n      : @940 (gas: 3)\n 24014: u32 [a1 + 0] = 0x40\n 24017: t0 = 0x392\n 24021: jump @1353\n      : @941 (gas: 1)\n 24024: t0 = 914, jump @1353\n      : @942 [@dyn 457] (gas: 4)\n 24030: ra = 0x394\n 24034: ecalli 6 // 'hash_keccak_256'\n 24036: t0 = 0x396\n 24040: jump @1351\n      : @943 [@dyn 458] (gas: 1)\n 24043: t0 = 918, jump @1351\n      : @944 [@dyn 459] (gas: 1)\n 24049: ra = 920, jump @21\n      : @945 [@dyn 460] (gas: 2)\n 24055: a0 = u8 [s1 + 0x1a0]\n 24059: jump @947 if a0 == 0\n      : @946 (gas: 5)\n 24062: a1 = 0\n 24064: a0 = 0\n 24066: a2 = u64 [s1 + 0x58]\n 24069: t0 = 0x3c0\n 24073: jump @1357\n      : @947 (gas: 1)\n 24076: t0 = 922, jump @1388\n      : @948 [@dyn 461] (gas: 1)\n 24082: ra = 924, jump @19\n      : @949 [@dyn 462] (gas: 1)\n 24088: t0 = 926, jump @1358\n      : @950 [@dyn 463] (gas: 1)\n 24094: ra = 928, jump @19\n      : @951 [@dyn 464] (gas: 3)\n 24100: a1 = u64 [s1 + 0x68]\n 24103: a0 = i32 [a1]\n 24105: jump @953 if a0 >u 63\n      : @952 (gas: 3)\n 24109: u32 [a1 + 0] = 0x40\n 24112: t0 = 0x3a2\n 24116: jump @1353\n      : @953 (gas: 1)\n 24119: t0 = 930, jump @1353\n      : @954 [@dyn 465] (gas: 4)\n 24125: ra = 0x3a4\n 24129: ecalli 6 // 'hash_keccak_256'\n 24131: t0 = 0x3a6\n 24135: jump @1346\n      : @955 [@dyn 466] (gas: 1)\n 24138: t0 = 934, jump @1346\n      : @956 [@dyn 467] (gas: 1)\n 24144: ra = 936, jump @19\n      : @957 [@dyn 468] (gas: 1)\n 24150: t0 = 938, jump @1368\n      : @958 [@dyn 469] (gas: 1)\n 24156: ra = 940, jump @19\n      : @959 [@dyn 470] (gas: 3)\n 24162: a1 = u64 [s1 + 0x68]\n 24165: a0 = i32 [a1]\n 24167: jump @961 if a0 >u 63\n      : @960 (gas: 2)\n 24171: u32 [a1 + 0] = 0x40\n 24174: fallthrough\n      : @961 (gas: 4)\n 24175: a0 = sp + 0xffffffffffffffe0\n 24178: a0 = a0 & 0xffffffffffffffe0\n 24181: u64 [s1 + 0x68] = a0\n 24184: t0 = 942, jump @1362\n      : @962 [@dyn 471] (gas: 4)\n 24190: ra = 0x3b0\n 24194: ecalli 6 // 'hash_keccak_256'\n 24196: t0 = 0x3b2\n 24200: jump @1350\n      : @963 [@dyn 472] (gas: 1)\n 24203: t0 = 946, jump @1350\n      : @964 [@dyn 473] (gas: 1)\n 24209: ra = 948, jump @21\n      : @965 [@dyn 474] (gas: 1)\n 24215: t0 = 950, jump @1355\n      : @966 [@dyn 475] (gas: 1)\n 24221: ra = 952, jump @24\n      : @967 [@dyn 476] (gas: 8)\n 24227: a0 = 0x30280\n 24232: u64 [s1 + 0x68] = a0\n 24235: i32 a0 = a0 + 0\n 24237: ra = 0x3ba\n 24241: ecalli 3 // 'caller'\n 24243: a2 = u64 [s1 + 0x68]\n 24246: t0 = 0x3bc\n 24250: jump @1347\n      : @968 [@dyn 477] (gas: 2)\n 24253: a2 = u64 [s1 + 0x68]\n 24256: t0 = 956, jump @1347\n      : @969 [@dyn 478] (gas: 40)\n 24262: t0 = a1 | a0\n 24265: a3 = a3 >> 0x20\n 24268: a2 = reverse a2\n 24270: a1 = a2 << 0x20\n 24273: a1 = a1 | a3\n 24276: a2 = a2 >> 0x20\n 24279: u64 [s1 + 152] = 0\n 24283: u64 [s1 + 184] = 0\n 24287: a0 = u64 [s1]\n 24289: u64 [s1 + 0xb0] = a0\n 24293: a0 = u64 [s1 + 0x70]\n 24296: u64 [s1 + 0xa8] = a0\n 24300: a0 = u64 [s1 + 0x78]\n 24303: u64 [s1 + 0xa0] = a0\n 24307: a0 = u64 [s1 + 0x20]\n 24310: u64 [s1 + 0xd8] = a0\n 24314: a0 = u64 [s1 + 0x18]\n 24317: u64 [s1 + 0xd0] = a0\n 24321: a0 = u64 [s1 + 0x10]\n 24324: u64 [s1 + 0xc8] = a0\n 24328: a0 = u64 [s1 + 0x8]\n 24331: u64 [s1 + 0xc0] = a0\n 24335: a3 = u64 [0x20168]\n 24340: a4 = u64 [0x20170]\n 24345: a5 = u64 [0x20178]\n 24350: a0 = u64 [0x20180]\n 24355: u64 [s1 + 0xf8] = a3\n 24359: u64 [s1 + 0xf0] = a4\n 24363: u64 [s1 + 0xe8] = a5\n 24367: u64 [s1 + 0xe0] = a0\n 24371: u64 [s1 + 0x90] = a2\n 24375: u64 [s1 + 0x88] = a1\n 24379: a2 = s1 + 0xe0\n 24383: a3 = s1 + 0xc0\n 24387: a4 = s1 + 0xa0\n 24391: a5 = s1 + 0x80\n 24395: u64 [s1 + 0x80] = t0\n 24399: a0 = 0\n 24401: a1 = 0\n 24403: ra = 958, jump @30\n      : @970 [@dyn 479] (gas: 4)\n 24409: a0 = 0\n 24411: a1 = 0x1\n 24414: a2 = u64 [s1 + 0x58]\n 24417: t0 = 960, jump @1357\n      : @971 [@dyn 480] (gas: 1)\n 24423: ret\n      : @972 [@dyn 481] (gas: 7)\n 24425: a0 = u64 [0x20188]\n 24430: u64 [s1 + 0x20] = a0\n 24433: u64 [s1 + 0x238] = a0\n 24437: a1 = u64 [0x20190]\n 24442: a2 = u64 [0x20198]\n 24447: a0 = u64 [0x201a0]\n 24452: t0 = 964, jump @1403\n      : @973 [@dyn 482] (gas: 1)\n 24458: ra = 966, jump @19\n      : @974 [@dyn 483] (gas: 1)\n 24464: t0 = 968, jump @1359\n      : @975 [@dyn 484] (gas: 1)\n 24470: ra = 970, jump @19\n      : @976 [@dyn 485] (gas: 3)\n 24476: a1 = 0x2026c\n 24481: a0 = i32 [0x2026c]\n 24486: jump @978 if a0 >u 63\n      : @977 (gas: 2)\n 24490: u32 [0x2026c] = 0x40\n 24496: fallthrough\n      : @978 (gas: 6)\n 24497: a0 = sp + 0xffffffffffffffe0\n 24500: a2 = a0 & 0xffffffffffffffe0\n 24503: u64 [s1 + 0x48] = a2\n 24506: sp = a2\n 24508: a0 = 0x20280\n 24513: t0 = 972, jump @1419\n      : @979 [@dyn 486] (gas: 4)\n 24519: ra = 0x3ce\n 24523: ecalli 6 // 'hash_keccak_256'\n 24525: t0 = 0x3d0\n 24529: jump @1345\n      : @980 [@dyn 487] (gas: 1)\n 24532: t0 = 976, jump @1345\n      : @981 [@dyn 488] (gas: 1)\n 24538: ra = 978, jump @19\n      : @982 [@dyn 489] (gas: 1)\n 24544: t0 = 980, jump @1366\n      : @983 [@dyn 490] (gas: 1)\n 24550: ra = 982, jump @19\n      : @984 [@dyn 491] (gas: 3)\n 24556: a1 = u64 [s1 + 0x68]\n 24559: a0 = i32 [a1]\n 24561: jump @986 if a0 >u 63\n      : @985 (gas: 3)\n 24565: u32 [a1 + 0] = 0x40\n 24568: t0 = 0x3d8\n 24572: jump @1353\n      : @986 (gas: 1)\n 24575: t0 = 984, jump @1353\n      : @987 [@dyn 492] (gas: 4)\n 24581: ra = 0x3da\n 24585: ecalli 6 // 'hash_keccak_256'\n 24587: t0 = 0x3dc\n 24591: jump @1351\n      : @988 [@dyn 493] (gas: 1)\n 24594: t0 = 988, jump @1351\n      : @989 [@dyn 494] (gas: 1)\n 24600: ra = 990, jump @21\n      : @990 [@dyn 495] (gas: 2)\n 24606: a0 = u8 [s1 + 0x1a0]\n 24610: jump @992 if a0 == 0\n      : @991 (gas: 5)\n 24613: a1 = 0\n 24615: a0 = 0\n 24617: a2 = u64 [s1 + 0x58]\n 24620: t0 = 0x406\n 24624: jump @1357\n      : @992 (gas: 1)\n 24627: t0 = 992, jump @1388\n      : @993 [@dyn 496] (gas: 1)\n 24633: ra = 994, jump @19\n      : @994 [@dyn 497] (gas: 1)\n 24639: t0 = 996, jump @1358\n      : @995 [@dyn 498] (gas: 1)\n 24645: ra = 998, jump @19\n      : @996 [@dyn 499] (gas: 3)\n 24651: a1 = u64 [s1 + 0x68]\n 24654: a0 = i32 [a1]\n 24656: jump @998 if a0 >u 63\n      : @997 (gas: 3)\n 24660: u32 [a1 + 0] = 0x40\n 24663: t0 = 0x3e8\n 24667: jump @1353\n      : @998 (gas: 1)\n 24670: t0 = 1000, jump @1353\n      : @999 [@dyn 500] (gas: 4)\n 24676: ra = 0x3ea\n 24680: ecalli 6 // 'hash_keccak_256'\n 24682: t0 = 0x3ec\n 24686: jump @1346\n      : @1000 [@dyn 501] (gas: 1)\n 24689: t0 = 1004, jump @1346\n      : @1001 [@dyn 502] (gas: 1)\n 24695: ra = 1006, jump @19\n      : @1002 [@dyn 503] (gas: 1)\n 24701: t0 = 1008, jump @1368\n      : @1003 [@dyn 504] (gas: 1)\n 24707: ra = 1010, jump @19\n      : @1004 [@dyn 505] (gas: 3)\n 24713: a1 = u64 [s1 + 0x68]\n 24716: a0 = i32 [a1]\n 24718: jump @1006 if a0 >u 63\n      : @1005 (gas: 2)\n 24722: u32 [a1 + 0] = 0x40\n 24725: fallthrough\n      : @1006 (gas: 4)\n 24726: a0 = sp + 0xffffffffffffffe0\n 24729: a0 = a0 & 0xffffffffffffffe0\n 24732: u64 [s1 + 0x68] = a0\n 24735: t0 = 1012, jump @1362\n      : @1007 [@dyn 506] (gas: 4)\n 24741: ra = 0x3f6\n 24745: ecalli 6 // 'hash_keccak_256'\n 24747: t0 = 0x3f8\n 24751: jump @1350\n      : @1008 [@dyn 507] (gas: 1)\n 24754: t0 = 1016, jump @1350\n      : @1009 [@dyn 508] (gas: 1)\n 24760: ra = 1018, jump @21\n      : @1010 [@dyn 509] (gas: 1)\n 24766: t0 = 1020, jump @1355\n      : @1011 [@dyn 510] (gas: 1)\n 24772: ra = 1022, jump @24\n      : @1012 [@dyn 511] (gas: 8)\n 24778: a0 = 0x30280\n 24783: u64 [s1 + 0x68] = a0\n 24786: i32 a0 = a0 + 0\n 24788: ra = 0x400\n 24792: ecalli 3 // 'caller'\n 24794: a2 = u64 [s1 + 0x68]\n 24797: t0 = 0x402\n 24801: jump @1347\n      : @1013 [@dyn 512] (gas: 2)\n 24804: a2 = u64 [s1 + 0x68]\n 24807: t0 = 1026, jump @1347\n      : @1014 [@dyn 513] (gas: 40)\n 24813: t0 = a1 | a0\n 24816: a3 = a3 >> 0x20\n 24819: a2 = reverse a2\n 24821: a1 = a2 << 0x20\n 24824: a1 = a1 | a3\n 24827: a2 = a2 >> 0x20\n 24830: u64 [s1 + 152] = 0\n 24834: u64 [s1 + 184] = 0\n 24838: a0 = u64 [s1]\n 24840: u64 [s1 + 0xb0] = a0\n 24844: a0 = u64 [s1 + 0x70]\n 24847: u64 [s1 + 0xa8] = a0\n 24851: a0 = u64 [s1 + 0x78]\n 24854: u64 [s1 + 0xa0] = a0\n 24858: a0 = u64 [s1 + 0x20]\n 24861: u64 [s1 + 0xd8] = a0\n 24865: a0 = u64 [s1 + 0x18]\n 24868: u64 [s1 + 0xd0] = a0\n 24872: a0 = u64 [s1 + 0x10]\n 24875: u64 [s1 + 0xc8] = a0\n 24879: a0 = u64 [s1 + 0x8]\n 24882: u64 [s1 + 0xc0] = a0\n 24886: a3 = u64 [0x201a8]\n 24891: a4 = u64 [0x201b0]\n 24896: a5 = u64 [0x201b8]\n 24901: a0 = u64 [0x201c0]\n 24906: u64 [s1 + 0xf8] = a3\n 24910: u64 [s1 + 0xf0] = a4\n 24914: u64 [s1 + 0xe8] = a5\n 24918: u64 [s1 + 0xe0] = a0\n 24922: u64 [s1 + 0x90] = a2\n 24926: u64 [s1 + 0x88] = a1\n 24930: a2 = s1 + 0xe0\n 24934: a3 = s1 + 0xc0\n 24938: a4 = s1 + 0xa0\n 24942: a5 = s1 + 0x80\n 24946: u64 [s1 + 0x80] = t0\n 24950: a0 = 0\n 24952: a1 = 0\n 24954: ra = 1028, jump @30\n      : @1015 [@dyn 514] (gas: 4)\n 24960: a0 = 0\n 24962: a1 = 0x1\n 24965: a2 = u64 [s1 + 0x58]\n 24968: t0 = 1030, jump @1357\n      : @1016 [@dyn 515] (gas: 1)\n 24974: ret\n      : @1017 (gas: 22)\n 24976: sp = sp + 0xfffffffffffffee0\n 24980: u64 [sp + 0x118] = ra\n 24984: u64 [sp + 0x110] = s0\n 24988: u64 [sp + 0x108] = s1\n 24992: s0 = sp + 0x120\n 24996: sp = sp & 0xfffffffffffffff0\n 24999: a4 = u64 [a1 + 0x10]\n 25002: a3 = u64 [a1 + 0x18]\n 25005: a5 = u64 [a1 + 0x8]\n 25008: t0 = u64 [a1]\n 25010: u64 [sp + 0x68] = a3\n 25013: u64 [sp + 0x78] = a5\n 25016: a1 = a5 | a3\n 25019: a3 = t0 | a4\n 25022: a3 = a3 | a1\n 25025: a3 = a3 >> 0x20\n 25028: u64 [sp + 0x70] = a4\n 25031: a1 = a1 | a4\n 25034: a1 = a1 << 0x20\n 25037: a1 = a1 | a3\n 25040: u64 [sp + 0x8] = a0\n 25043: jump @1032 if a1 != 0\n      : @1018 (gas: 15)\n 25047: a0 = u64 [a2 + 0x18]\n 25050: u64 [sp + 0x48] = a0\n 25053: s1 = u64 [a2 + 0x10]\n 25056: a0 = u64 [a2 + 0x8]\n 25059: u64 [sp + 0x50] = a0\n 25062: a0 = u64 [a2]\n 25064: u64 [sp + 0x58] = a0\n 25067: u64 [sp + 248] = 0\n 25071: u64 [sp + 240] = 0\n 25075: u64 [sp + 232] = 0\n 25079: a1 = sp + 0xe0\n 25083: u64 [sp + 224] = 0x20\n 25088: a0 = t0\n 25090: u64 [sp + 0x60] = t0\n 25093: ra = 1032, jump @19\n      : @1019 [@dyn 516] (gas: 12)\n 25099: a1 = u64 [sp + 0x58]\n 25102: a0 = a1 | s1\n 25105: a2 = u64 [sp + 0x48]\n 25108: a3 = u64 [sp + 0x50]\n 25111: a2 = a2 | a3\n 25114: a0 = a0 | a2\n 25117: a0 = a0 >> 0x20\n 25120: u64 [sp + 0x20] = s1\n 25123: a2 = a2 | s1\n 25126: a2 = a2 << 0x20\n 25129: a0 = a0 | a2\n 25132: jump @1032 if a0 != 0\n      : @1020 (gas: 2)\n 25136: a0 = sp + 0xc0\n 25140: ra = 1034, jump @17\n      : @1021 [@dyn 517] (gas: 13)\n 25146: a0 = u64 [sp + 0x70]\n 25149: a1 = u64 [sp + 0x68]\n 25152: a1 = a1 | a0\n 25155: a0 = 0x100000000\n 25165: u64 [sp + 0x10] = a0\n 25168: a0 = 0xffffffe0\n 25178: a2 = u64 [sp + 0x60]\n 25181: a0 = a2 <u a0\n 25184: a3 = u64 [sp + 0x78]\n 25187: a0 = 0 if a3 != 0\n 25189: u64 [sp + 0x18] = a1\n 25192: a0 = 0 if a1 != 0\n 25194: jump @1032 if a0 == 0\n      : @1022 (gas: 16)\n 25198: a3 = u64 [sp + 0xd8]\n 25202: a4 = u64 [sp + 0xd0]\n 25206: a5 = u64 [sp + 0xc8]\n 25210: a1 = u64 [sp + 0xc0]\n 25214: i32 a0 = a2 + 0x20\n 25217: u64 [sp + 0x28] = a1\n 25220: u64 [sp + 0xa0] = a1\n 25224: u64 [sp + 0x30] = a5\n 25227: u64 [sp + 0xa8] = a5\n 25231: u64 [sp + 0x38] = a4\n 25234: u64 [sp + 0xb0] = a4\n 25238: a1 = sp + 0xa0\n 25242: u64 [sp + 0x40] = a3\n 25245: u64 [sp + 0xb8] = a3\n 25249: s1 = a2\n 25251: ra = 1036, jump @19\n      : @1023 [@dyn 518] (gas: 8)\n 25257: a0 = u64 [sp + 0x10]\n 25260: a0 = a0 + 0xffffffffffffffc0\n 25263: a0 = s1 <u a0\n 25266: a1 = u64 [sp + 0x78]\n 25269: a0 = 0 if a1 != 0\n 25271: a1 = u64 [sp + 0x18]\n 25274: a0 = 0 if a1 != 0\n 25276: jump @1032 if a0 == 0\n      : @1024 (gas: 10)\n 25280: a0 = u64 [sp + 0x48]\n 25283: a1 = u64 [sp + 0x20]\n 25286: a0 = a0 | a1\n 25289: a1 = 0xffffffe0\n 25299: a3 = u64 [sp + 0x58]\n 25302: a1 = a3 <u a1\n 25305: a4 = u64 [sp + 0x50]\n 25308: a1 = 0 if a4 != 0\n 25310: a1 = 0 if a0 != 0\n 25312: jump @1032 if a1 == 0\n      : @1025 (gas: 13)\n 25316: a2 = s1\n 25318: a1 = u64 [sp + 0x28]\n 25321: a5 = u64 [sp + 0x38]\n 25324: a0 = a1 | a5\n 25327: a4 = u64 [sp + 0x40]\n 25330: s1 = u64 [sp + 0x30]\n 25333: a4 = a4 | s1\n 25336: a0 = a0 | a4\n 25339: a0 = a0 >> 0x20\n 25342: a4 = a4 | a5\n 25345: a4 = a4 << 0x20\n 25348: a0 = a0 | a4\n 25351: jump @1032 if a0 != 0\n      : @1026 (gas: 5)\n 25355: i32 a0 = a2 + 0x40\n 25358: i32 a3 = a3 + 0x20\n 25361: u64 [sp + 0x58] = a3\n 25364: s1 = a1\n 25366: ra = 1038, jump @33\n      : @1027 [@dyn 519] (gas: 4)\n 25372: u64 [sp + 0x50] = a0\n 25375: a0 = u64 [sp + 0x58]\n 25378: a1 = s1\n 25380: ra = 1040, jump @33\n      : @1028 [@dyn 520] (gas: 4)\n 25386: a1 = a0\n 25388: a0 = u64 [sp + 0x50]\n 25391: a2 = s1\n 25393: ra = 1042, jump @0\n      : @1029 [@dyn 521] (gas: 27)\n 25399: a0 = u64 [sp + 0x60]\n 25402: a0 = a0 + s1\n 25405: a1 = a0 <u s1\n 25408: a2 = u64 [sp + 0x78]\n 25411: a4 = u64 [sp + 0x30]\n 25414: a2 = a2 + a4\n 25417: a2 = a2 + a1\n 25420: a3 = a2 ^ a4\n 25423: a4 = a2 <u a4\n 25426: a4 = a1 if a3 == 0\n 25429: a1 = u64 [sp + 0x70]\n 25432: a3 = u64 [sp + 0x38]\n 25435: a1 = a1 + a3\n 25438: a3 = a1 <u a3\n 25441: a5 = u64 [sp + 0x68]\n 25444: s1 = u64 [sp + 0x40]\n 25447: a5 = a5 + s1\n 25450: a3 = a3 + a5\n 25453: a4 = a4 + a1\n 25456: a1 = a4 <u a1\n 25459: a1 = a1 + a3\n 25462: a1 = a1 | a4\n 25465: a3 = 0xffffffc0\n 25475: a3 = a0 <u a3\n 25478: a3 = 0 if a2 != 0\n 25480: a3 = 0 if a1 != 0\n 25482: jump @1032 if a3 == 0\n      : @1030 (gas: 7)\n 25486: i32 a0 = a0 + 0x40\n 25489: u64 [sp + 152] = 0\n 25493: u64 [sp + 144] = 0\n 25497: u64 [sp + 136] = 0\n 25501: a1 = sp + 0x80\n 25505: u64 [sp + 128] = 0\n 25509: ra = 1044, jump @19\n      : @1031 [@dyn 522] (gas: 35)\n 25515: s1 = u64 [sp + 0x28]\n 25518: s1 = s1 + 0x1f\n 25521: a0 = 0x1ffffffe0\n 25531: a0 = a0 & s1\n 25534: a1 = u64 [sp + 0x60]\n 25537: a0 = a0 + a1\n 25540: a1 = a0 <u a1\n 25543: a3 = u64 [sp + 0x78]\n 25546: a2 = a3 + a1\n 25549: a3 = a2 <u a3\n 25552: a3 = a1 if a1 == 0\n 25555: a1 = u64 [sp + 0x70]\n 25558: a3 = a3 + a1\n 25561: a1 = a3 <u a1\n 25564: a4 = u64 [sp + 0x68]\n 25567: a1 = a1 + a4\n 25570: a4 = a0 + 0x40\n 25573: a0 = a4 <u a0\n 25576: a5 = a2 + a0\n 25579: a2 = a5 <u a2\n 25582: a2 = a0 if a0 == 0\n 25585: a2 = a2 + a3\n 25588: a0 = a2 <u a3\n 25591: a0 = a0 + a1\n 25594: a1 = u64 [sp + 0x8]\n 25597: u64 [a1] = a4\n 25599: u64 [a1 + 0x8] = a5\n 25602: u64 [a1 + 0x10] = a2\n 25605: u64 [a1 + 0x18] = a0\n 25608: sp = s0 + 0xfffffffffffffee0\n 25612: ra = u64 [sp + 0x118]\n 25616: s0 = u64 [sp + 0x110]\n 25620: s1 = u64 [sp + 0x108]\n 25624: sp = sp + 0x120\n 25628: ret\n      : @1032 (gas: 1)\n 25630: trap\n      : @1033 [@dyn 523] (gas: 5)\n 25631: a1 = 0x4\n 25634: ra = 0x418\n 25638: ecalli 1 // 'call_data_load'\n 25640: t0 = 0x41a\n 25644: jump @1394\n      : @1034 [@dyn 524] (gas: 1)\n 25647: t0 = 1050, jump @1394\n      : @1035 [@dyn 525] (gas: 1)\n 25653: jump @1038 if a3 == 0\n      : @1036 (gas: 1)\n 25656: t0 = 1052, jump @1405\n      : @1037 [@dyn 526] (gas: 1)\n 25662: ret\n      : @1038 (gas: 8)\n 25664: a1 = 0x20280\n 25669: i32 a1 = a1 + 0\n 25671: a0 = 0x1\n 25674: a2 = 0\n 25676: ra = 0x41e\n 25680: ecalli 7 // 'seal_return'\n 25682: t0 = 0x420\n 25686: jump @1417\n      : @1039 [@dyn 527] (gas: 1)\n 25689: t0 = 1056, jump @1417\n      : @1040 [@dyn 528] (gas: 5)\n 25695: a1 = 0x24\n 25698: ra = 0x422\n 25702: ecalli 1 // 'call_data_load'\n 25704: t0 = 0x424\n 25708: jump @1394\n      : @1041 [@dyn 529] (gas: 1)\n 25711: t0 = 1060, jump @1394\n      : @1042 [@dyn 530] (gas: 1)\n 25717: jump @1045 if a3 == 0\n      : @1043 (gas: 1)\n 25720: t0 = 1062, jump @1405\n      : @1044 [@dyn 531] (gas: 1)\n 25726: ret\n      : @1045 (gas: 7)\n 25728: a1 = 0x20280\n 25733: i32 a1 = a1 + 0\n 25735: a0 = 0x1\n 25738: a2 = 0\n 25740: ra = 0x428\n 25744: ecalli 7 // 'seal_return'\n 25746: fallthrough\n      : @1046 [@dyn 532] (gas: 19)\n 25747: sp = sp + 0xffffffffffffff40\n 25751: u64 [sp + 0xb8] = ra\n 25755: u64 [sp + 0xb0] = s0\n 25759: u64 [sp + 0xa8] = s1\n 25763: s0 = sp + 0xc0\n 25767: sp = sp & 0xffffffffffffffe0\n 25770: s1 = sp\n 25772: a2 = u64 [a1]\n 25774: a3 = u64 [a1 + 0x8]\n 25777: a4 = u64 [a1 + 0x10]\n 25780: a1 = u64 [a1 + 0x18]\n 25783: u64 [s1 + 0x18] = a0\n 25786: u64 [s1 + 0x78] = a1\n 25789: u64 [s1 + 0x70] = a4\n 25792: u64 [s1 + 0x68] = a3\n 25795: a1 = s1 + 0x60\n 25798: u64 [s1 + 0x60] = a2\n 25801: a0 = 0\n 25803: ra = 1066, jump @19\n      : @1047 [@dyn 533] (gas: 7)\n 25809: u64 [s1 + 88] = 0\n 25812: u64 [s1 + 80] = 0\n 25815: u64 [s1 + 64] = 0x6\n 25819: a0 = 0x20\n 25822: a1 = s1 + 0x40\n 25825: u64 [s1 + 72] = 0\n 25828: ra = 1068, jump @19\n      : @1048 [@dyn 534] (gas: 2)\n 25834: a1 = i32 [0x2026c]\n 25839: jump @1050 if a1 >u 63\n      : @1049 (gas: 2)\n 25843: u32 [0x2026c] = 0x40\n 25849: fallthrough\n      : @1050 (gas: 11)\n 25850: a0 = sp + 0xffffffffffffffe0\n 25853: a2 = a0 & 0xffffffffffffffe0\n 25856: u64 [s1 + 0x10] = a2\n 25859: sp = a2\n 25861: a0 = 0x20280\n 25866: i32 a0 = a0 + 0\n 25868: i32 a2 = a2 + 0\n 25870: a1 = 0x40\n 25873: ra = 0x42e\n 25877: ecalli 6 // 'hash_keccak_256'\n 25879: fallthrough\n      : @1051 [@dyn 535] (gas: 6)\n 25880: a3 = u64 [s1 + 0x10]\n 25883: a0 = u64 [a3]\n 25885: a1 = u64 [a3 + 0x8]\n 25888: a2 = u64 [a3 + 0x10]\n 25891: a3 = u64 [a3 + 0x18]\n 25894: t0 = 1072, jump @1373\n      : @1052 [@dyn 536] (gas: 15)\n 25900: a3 = a3 + 0x1\n 25903: a4 = a3 <u 0x1\n 25906: a2 = a2 + a4\n 25909: a4 = a3 | a2\n 25912: a4 = a4 <u 0x1\n 25915: a4 = a4 + a1\n 25918: a1 = a4 <u a1\n 25921: a0 = a0 + a1\n 25924: u64 [s1 + 0x80] = a3\n 25928: u64 [s1 + 0x88] = a2\n 25932: u64 [s1 + 0x90] = a4\n 25936: u64 [s1 + 0x98] = a0\n 25940: a0 = s1 + 0x20\n 25943: a1 = s1 + 0x80\n 25947: ra = 1074, jump @21\n      : @1053 [@dyn 537] (gas: 15)\n 25953: a0 = u64 [s1 + 0x30]\n 25956: a1 = u64 [s1 + 0x38]\n 25959: a2 = u64 [s1 + 0x20]\n 25962: a3 = u64 [s1 + 0x28]\n 25965: a4 = u64 [s1 + 0x18]\n 25968: u64 [a4 + 0x10] = a0\n 25971: u64 [a4 + 0x18] = a1\n 25974: u64 [a4] = a2\n 25976: u64 [a4 + 0x8] = a3\n 25979: sp = s0 + 0xffffffffffffff40\n 25983: ra = u64 [sp + 0xb8]\n 25987: s0 = u64 [sp + 0xb0]\n 25991: s1 = u64 [sp + 0xa8]\n 25995: sp = sp + 0xc0\n 25999: ret\n      : @1054 (gas: 37)\n 26001: sp = sp + 0xfffffffffffffce0\n 26005: a3 = sp + 0x300\n 26009: u64 [a3 + 0x18] = ra\n 26012: u64 [a3 + 0x10] = s0\n 26015: u64 [a3 + 0x8] = s1\n 26018: s0 = sp + 0x320\n 26022: sp = sp & 0xffffffffffffffe0\n 26025: s1 = sp\n 26027: a3 = u64 [a2 + 0x18]\n 26030: u64 [s1 + 0x98] = a3\n 26034: a3 = u64 [a2 + 0x10]\n 26037: u64 [s1 + 0x90] = a3\n 26041: a3 = u64 [a2 + 0x8]\n 26044: u64 [s1 + 0xa0] = a3\n 26048: a2 = u64 [a2]\n 26050: u64 [s1 + 0xa8] = a2\n 26054: a2 = u64 [a1 + 0x10]\n 26057: u64 [s1 + 0x88] = a2\n 26061: a2 = u64 [a1 + 0x8]\n 26064: u64 [s1 + 0x80] = a2\n 26068: a1 = u64 [a1]\n 26070: u64 [s1 + 0x78] = a1\n 26073: a2 = u64 [a0]\n 26075: a1 = u64 [a0 + 0x8]\n 26078: a0 = u32 [a0 + 0x10]\n 26081: a3 = 0xffffffff\n 26091: u64 [s1 + 0x70] = a3\n 26094: u64 [s1 + 728] = 0\n 26098: u64 [s1 + 0x40] = a0\n 26101: u64 [s1 + 0x2d0] = a0\n 26105: u64 [s1 + 0x30] = a1\n 26108: u64 [s1 + 0x2c8] = a1\n 26112: a1 = s1 + 0x2c0\n 26116: u64 [s1 + 0x38] = a2\n 26119: u64 [s1 + 0x2c0] = a2\n 26123: a0 = 0\n 26125: ra = 1076, jump @19\n      : @1055 [@dyn 538] (gas: 7)\n 26131: u64 [s1 + 696] = 0\n 26135: u64 [s1 + 688] = 0\n 26139: u64 [s1 + 672] = 0x1\n 26144: a0 = 0x20\n 26147: a1 = s1 + 0x2a0\n 26151: u64 [s1 + 680] = 0\n 26155: ra = 1078, jump @19\n      : @1056 [@dyn 539] (gas: 3)\n 26161: a1 = 0x2026c\n 26166: a0 = i32 [0x2026c]\n 26171: jump @1058 if a0 >u 63\n      : @1057 (gas: 2)\n 26175: u32 [0x2026c] = 0x40\n 26181: fallthrough\n      : @1058 (gas: 15)\n 26182: a0 = sp + 0xffffffffffffffe0\n 26185: a2 = a0 & 0xffffffffffffffe0\n 26188: u64 [s1 + 0x68] = a2\n 26191: sp = a2\n 26193: a0 = 0x20280\n 26198: i32 a0 = a0 + 0\n 26200: i32 a2 = a2 + 0\n 26202: u64 [s1 + 0xb0] = a1\n 26206: a1 = 0x40\n 26209: u64 [s1 + 0xb8] = a0\n 26213: ra = 0x438\n 26217: ecalli 6 // 'hash_keccak_256'\n 26219: a3 = u64 [s1 + 0x68]\n 26222: t0 = 0x43a\n 26226: jump @1371\n      : @1059 [@dyn 540] (gas: 2)\n 26229: a3 = u64 [s1 + 0x68]\n 26232: t0 = 1082, jump @1371\n      : @1060 [@dyn 541] (gas: 17)\n 26238: a0 = u64 [s1 + 0x78]\n 26241: a0 = a0 & 0xffffffffffffffff\n 26244: a1 = u64 [s1 + 0x80]\n 26248: a1 = a1 & 0xffffffffffffffff\n 26251: a2 = u64 [s1 + 0x88]\n 26255: a3 = u64 [s1 + 0x70]\n 26258: a2 = a2 & a3\n 26261: u64 [s1 + 664] = 0\n 26265: u64 [s1 + 0x78] = a2\n 26268: u64 [s1 + 0x290] = a2\n 26272: u64 [s1 + 0x80] = a1\n 26276: u64 [s1 + 0x288] = a1\n 26280: a1 = s1 + 0x280\n 26284: u64 [s1 + 0x88] = a0\n 26288: u64 [s1 + 0x280] = a0\n 26292: a0 = 0\n 26294: ra = 1084, jump @19\n      : @1061 [@dyn 542] (gas: 12)\n 26300: a0 = u64 [s1 + 0x48]\n 26303: a3 = s1 + 0x200\n 26307: u64 [a3 + 0x78] = a0\n 26310: a0 = u64 [s1 + 0x50]\n 26313: u64 [a3 + 0x70] = a0\n 26316: a0 = u64 [s1 + 0x58]\n 26319: u64 [a3 + 0x68] = a0\n 26322: a0 = 0x20\n 26325: a1 = s1 + 0x260\n 26329: a2 = u64 [s1 + 0x60]\n 26332: u64 [a3 + 0x60] = a2\n 26335: ra = 1086, jump @19\n      : @1062 [@dyn 543] (gas: 3)\n 26341: a1 = u64 [s1 + 0xb0]\n 26345: a0 = i32 [a1]\n 26347: jump @1064 if a0 >u 63\n      : @1063 (gas: 2)\n 26351: u32 [a1 + 0] = 0x40\n 26354: fallthrough\n      : @1064 (gas: 4)\n 26355: a0 = sp + 0xffffffffffffffe0\n 26358: a0 = a0 & 0xffffffffffffffe0\n 26361: u64 [s1 + 0x70] = a0\n 26364: t0 = 1088, jump @1408\n      : @1065 [@dyn 544] (gas: 5)\n 26370: ra = 0x442\n 26374: ecalli 6 // 'hash_keccak_256'\n 26376: a3 = u64 [s1 + 0x70]\n 26379: t0 = 0x444\n 26383: jump @1380\n      : @1066 [@dyn 545] (gas: 2)\n 26386: a3 = u64 [s1 + 0x70]\n 26389: t0 = 1092, jump @1380\n      : @1067 [@dyn 546] (gas: 2)\n 26395: a0 = s1 + 0x240\n 26399: ra = 1094, jump @21\n      : @1068 [@dyn 547] (gas: 9)\n 26405: ra = u64 [s1 + 0x258]\n 26409: t1 = u64 [s1 + 0x250]\n 26413: a4 = u64 [s1 + 0x248]\n 26417: t0 = u64 [s1 + 0x240]\n 26421: a0 = a4 & ra\n 26424: a1 = t0 & t1\n 26427: a0 = a0 & a1\n 26430: a1 = 0xffffffffffffffff\n 26433: jump @1085 if a0 == a1\n      : @1069 (gas: 23)\n 26437: a0 = u64 [s1 + 0xa8]\n 26441: a2 = t0 <u a0\n 26444: a1 = u64 [s1 + 0xa0]\n 26448: a0 = a4 ^ a1\n 26451: a5 = a4 <u a1\n 26454: u64 [s1 + 0x50] = a2\n 26457: a5 = a2 if a0 == 0\n 26460: a2 = u64 [s1 + 0x90]\n 26464: a3 = t1 <u a2\n 26467: a1 = u64 [s1 + 0x98]\n 26471: a0 = ra ^ a1\n 26474: a1 = ra <u a1\n 26477: u64 [s1 + 0x28] = a3\n 26480: a1 = a3 if a0 == 0\n 26483: a2 = t1 ^ a2\n 26486: a0 = a0 | a2\n 26489: u64 [s1 + 0x48] = a5\n 26492: a1 = a5 if a0 == 0\n 26495: u64 [s1 + 0x70] = t0\n 26498: u64 [s1 + 0x68] = a4\n 26501: u64 [s1 + 0x60] = ra\n 26504: u64 [s1 + 0x58] = t1\n 26507: jump @1086 if a1 != 0\n      : @1070 (gas: 6)\n 26511: a3 = u64 [s1 + 0x40]\n 26514: a2 = u64 [s1 + 0x38]\n 26517: a0 = a2 | a3\n 26520: t2 = u64 [s1 + 0x30]\n 26523: a0 = a0 | t2\n 26526: jump @1093 if a0 == 0\n      : @1071 (gas: 6)\n 26530: a0 = u64 [s1 + 0x88]\n 26534: a1 = u64 [s1 + 0x78]\n 26537: a0 = a0 | a1\n 26540: a1 = u64 [s1 + 0x80]\n 26544: a0 = a0 | a1\n 26547: jump @1095 if a0 == 0\n      : @1072 (gas: 7)\n 26551: u64 [s1 + 568] = 0\n 26555: u64 [s1 + 0x220] = a2\n 26559: u64 [s1 + 0x228] = t2\n 26563: a1 = s1 + 0x220\n 26567: u64 [s1 + 0x230] = a3\n 26571: a0 = 0\n 26573: ra = 1096, jump @19\n      : @1073 [@dyn 548] (gas: 7)\n 26579: u64 [s1 + 536] = 0\n 26583: u64 [s1 + 528] = 0\n 26587: u64 [s1 + 512] = 0x1\n 26592: a0 = 0x20\n 26595: a1 = s1 + 0x200\n 26599: u64 [s1 + 520] = 0\n 26603: ra = 1098, jump @19\n      : @1074 [@dyn 549] (gas: 3)\n 26609: a1 = u64 [s1 + 0xb0]\n 26613: a0 = i32 [a1]\n 26615: jump @1076 if a0 >u 63\n      : @1075 (gas: 2)\n 26619: u32 [a1 + 0] = 0x40\n 26622: fallthrough\n      : @1076 (gas: 4)\n 26623: a0 = sp + 0xffffffffffffffe0\n 26626: a0 = a0 & 0xffffffffffffffe0\n 26629: u64 [s1 + 0x40] = a0\n 26632: t0 = 1100, jump @1408\n      : @1077 [@dyn 550] (gas: 5)\n 26638: ra = 0x44e\n 26642: ecalli 6 // 'hash_keccak_256'\n 26644: a3 = u64 [s1 + 0x40]\n 26647: t0 = 0x450\n 26651: jump @1406\n      : @1078 [@dyn 551] (gas: 2)\n 26654: a3 = u64 [s1 + 0x40]\n 26657: t0 = 1104, jump @1406\n      : @1079 [@dyn 552] (gas: 21)\n 26663: u64 [s1 + 0x38] = a0\n 26666: a0 = reverse a1\n 26668: u64 [s1 + 0x30] = a0\n 26671: a0 = reverse a2\n 26673: u64 [s1 + 0x20] = a0\n 26676: a0 = reverse a3\n 26678: u64 [s1 + 0x18] = a0\n 26681: a0 = sp + 0xffffffffffffffe0\n 26684: a0 = a0 & 0xffffffffffffffe0\n 26687: u64 [s1 + 0x40] = a0\n 26690: sp = a0\n 26692: u64 [s1 + 504] = 0\n 26696: a0 = u64 [s1 + 0x78]\n 26699: u64 [s1 + 0x1f0] = a0\n 26703: a0 = u64 [s1 + 0x80]\n 26707: u64 [s1 + 0x1e8] = a0\n 26711: a1 = s1 + 0x1e0\n 26715: a0 = u64 [s1 + 0x88]\n 26719: u64 [s1 + 0x1e0] = a0\n 26723: a0 = 0\n 26725: ra = 1106, jump @19\n      : @1080 [@dyn 553] (gas: 12)\n 26731: a0 = u64 [s1 + 0x18]\n 26734: a3 = s1 + 0x100\n 26738: u64 [a3 + 0xd8] = a0\n 26742: a0 = u64 [s1 + 0x20]\n 26745: u64 [a3 + 0xd0] = a0\n 26749: a0 = u64 [s1 + 0x30]\n 26752: u64 [a3 + 0xc8] = a0\n 26756: a0 = 0x20\n 26759: a1 = s1 + 0x1c0\n 26763: a2 = u64 [s1 + 0x38]\n 26766: u64 [a3 + 0xc0] = a2\n 26770: ra = 1108, jump @19\n      : @1081 [@dyn 554] (gas: 3)\n 26776: a1 = u64 [s1 + 0xb0]\n 26780: a0 = i32 [a1]\n 26782: jump @1083 if a0 >u 63\n      : @1082 (gas: 2)\n 26786: u32 [a1 + 0] = 0x40\n 26789: fallthrough\n      : @1083 (gas: 4)\n 26790: a0 = sp + 0xffffffffffffffe0\n 26793: a0 = a0 & 0xffffffffffffffe0\n 26796: u64 [s1 + 0xb0] = a0\n 26800: t0 = 1110, jump @1408\n      : @1084 [@dyn 555] (gas: 43)\n 26806: ecalli 6 // 'hash_keccak_256'\n 26808: a2 = u64 [s1 + 0xb0]\n 26812: a0 = u64 [a2]\n 26814: a0 = reverse a0\n 26816: a1 = u64 [a2 + 0x8]\n 26819: a5 = u64 [s1 + 0x40]\n 26822: u64 [a5 + 0x18] = a0\n 26825: a0 = u64 [a2 + 0x10]\n 26828: a2 = u64 [a2 + 0x18]\n 26831: a1 = reverse a1\n 26833: u64 [a5 + 0x10] = a1\n 26836: a0 = reverse a0\n 26838: u64 [a5 + 0x8] = a0\n 26841: a0 = reverse a2\n 26843: u64 [a5] = a0\n 26845: a0 = u64 [s1 + 0x90]\n 26849: a1 = u64 [s1 + 0x58]\n 26852: a0 = a1 - a0\n 26855: a2 = u64 [s1 + 0x48]\n 26858: a1 = a0 - a2\n 26861: a0 = a0 <u a2\n 26864: a2 = u64 [s1 + 0x98]\n 26868: a3 = u64 [s1 + 0x60]\n 26871: a2 = a3 - a2\n 26874: a3 = u64 [s1 + 0x28]\n 26877: a2 = a2 - a3\n 26880: a2 = a2 - a0\n 26883: a0 = u64 [s1 + 0xa0]\n 26887: a3 = u64 [s1 + 0x68]\n 26890: a0 = a3 - a0\n 26893: a3 = u64 [s1 + 0x50]\n 26896: a0 = a0 - a3\n 26899: a3 = u64 [s1 + 0xa8]\n 26903: a4 = u64 [s1 + 0x70]\n 26906: a3 = a4 - a3\n 26909: a4 = s1 + 0x200\n 26913: u64 [a4 + 0xf8] = a2\n 26917: u64 [a4 + 0xf0] = a1\n 26921: u64 [a4 + 0xe8] = a0\n 26925: u64 [a4 + 0xe0] = a3\n 26929: a1 = s1 + 0x2e0\n 26933: a0 = a5\n 26935: ra = 1112, jump @24\n      : @1085 [@dyn 556] (gas: 7)\n 26941: sp = s0 + 0xfffffffffffffce0\n 26945: a0 = sp + 0x300\n 26949: ra = u64 [a0 + 0x18]\n 26952: s0 = u64 [a0 + 0x10]\n 26955: s1 = u64 [a0 + 0x8]\n 26958: sp = sp + 0x320\n 26962: ret\n      : @1086 (gas: 8)\n 26964: u64 [s1 + 304] = 0\n 26968: u64 [s1 + 296] = 0\n 26972: u64 [s1 + 288] = 0\n 26976: a0 = 0xfb8f41b200000000\n 26986: a1 = s1 + 0x120\n 26990: u64 [s1 + 0x138] = a0\n 26994: a0 = 0\n 26996: ra = 1114, jump @19\n      : @1087 [@dyn 557] (gas: 11)\n 27002: u64 [s1 + 280] = 0\n 27006: a0 = u64 [s1 + 0x78]\n 27009: a3 = s1 + 0x100\n 27013: u64 [a3 + 0x10] = a0\n 27016: a0 = u64 [s1 + 0x80]\n 27020: u64 [a3 + 0x8] = a0\n 27023: a0 = 0x4\n 27026: a1 = s1 + 0x100\n 27030: a2 = u64 [s1 + 0x88]\n 27034: u64 [a3] = a2\n 27036: ra = 1116, jump @19\n      : @1088 [@dyn 558] (gas: 11)\n 27042: a0 = u64 [s1 + 0x60]\n 27045: u64 [s1 + 0xf8] = a0\n 27049: a0 = u64 [s1 + 0x58]\n 27052: u64 [s1 + 0xf0] = a0\n 27056: a0 = u64 [s1 + 0x68]\n 27059: u64 [s1 + 0xe8] = a0\n 27063: a0 = 0x24\n 27066: a1 = s1 + 0xe0\n 27070: a2 = u64 [s1 + 0x70]\n 27073: u64 [s1 + 0xe0] = a2\n 27077: ra = 1118, jump @19\n      : @1089 [@dyn 559] (gas: 11)\n 27083: a0 = u64 [s1 + 0x98]\n 27087: u64 [s1 + 0xd8] = a0\n 27091: a0 = u64 [s1 + 0x90]\n 27095: u64 [s1 + 0xd0] = a0\n 27099: a0 = u64 [s1 + 0xa0]\n 27103: u64 [s1 + 0xc8] = a0\n 27107: a0 = 0x44\n 27110: a1 = s1 + 0xc0\n 27114: a2 = u64 [s1 + 0xa8]\n 27118: u64 [s1 + 0xc0] = a2\n 27122: ra = 1120, jump @19\n      : @1090 [@dyn 560] (gas: 3)\n 27128: a0 = u64 [s1 + 0xb0]\n 27132: a0 = i32 [a0]\n 27134: jump @1092 if a0 >u 127\n      : @1091 (gas: 5)\n 27138: a1 = u64 [s1 + 0xb0]\n 27142: u32 [a1 + 0] = 0x80\n 27146: a0 = 0x1\n 27149: a2 = 0x64\n 27152: jump @1100\n      : @1092 (gas: 6)\n 27155: a0 = 0x1\n 27158: a2 = 0x64\n 27161: a1 = u64 [s1 + 0xb8]\n 27165: ra = 0x468\n 27169: ecalli 7 // 'seal_return'\n 27171: jump @1101\n      : @1093 (gas: 8)\n 27174: u64 [s1 + 368] = 0\n 27178: u64 [s1 + 360] = 0\n 27182: u64 [s1 + 352] = 0\n 27186: a0 = 0xe602df0500000000\n 27196: a1 = s1 + 0x160\n 27200: u64 [s1 + 0x178] = a0\n 27204: a0 = 0\n 27206: ra = 1122, jump @19\n      : @1094 [@dyn 561] (gas: 8)\n 27212: u64 [s1 + 344] = 0\n 27216: u64 [s1 + 336] = 0\n 27220: u64 [s1 + 328] = 0\n 27224: a0 = 0x4\n 27227: a1 = s1 + 0x140\n 27231: u64 [s1 + 320] = 0\n 27235: ra = 0x466\n 27239: jump @19\n      : @1095 (gas: 8)\n 27242: u64 [s1 + 432] = 0\n 27246: u64 [s1 + 424] = 0\n 27250: u64 [s1 + 416] = 0\n 27254: a0 = 0x94280d6200000000\n 27264: a1 = s1 + 0x1a0\n 27268: u64 [s1 + 0x1b8] = a0\n 27272: a0 = 0\n 27274: ra = 1124, jump @19\n      : @1096 [@dyn 562] (gas: 7)\n 27280: u64 [s1 + 408] = 0\n 27284: u64 [s1 + 400] = 0\n 27288: u64 [s1 + 392] = 0\n 27292: a0 = 0x4\n 27295: a1 = s1 + 0x180\n 27299: u64 [s1 + 384] = 0\n 27303: ra = 1126, jump @19\n      : @1097 [@dyn 563] (gas: 3)\n 27309: a0 = u64 [s1 + 0xb0]\n 27313: a0 = i32 [a0]\n 27315: jump @1099 if a0 >u 63\n      : @1098 (gas: 5)\n 27319: a1 = u64 [s1 + 0xb0]\n 27323: u32 [a1 + 0] = 0x40\n 27326: a0 = 0x1\n 27329: a2 = 0x24\n 27332: jump @1100\n      : @1099 (gas: 6)\n 27334: a0 = 0x1\n 27337: a2 = 0x24\n 27340: a1 = u64 [s1 + 0xb8]\n 27344: ra = 0x468\n 27348: ecalli 7 // 'seal_return'\n 27350: jump @1101\n      : @1100 (gas: 4)\n 27352: a1 = u64 [s1 + 0xb8]\n 27356: ra = 0x468\n 27360: ecalli 7 // 'seal_return'\n 27362: fallthrough\n      : @1101 [@dyn 564] (gas: 17)\n 27363: sp = sp + 0xfffffffffffffc20\n 27367: a3 = sp + 0x300\n 27371: u64 [a3 + 0xd8] = ra\n 27375: u64 [a3 + 0xd0] = s0\n 27379: u64 [a3 + 0xc8] = s1\n 27383: s0 = sp + 0x3e0\n 27387: sp = sp & 0xffffffffffffffe0\n 27390: s1 = sp\n 27392: a5 = u32 [a0 + 0x10]\n 27395: a3 = u64 [a0]\n 27397: a4 = u64 [a0 + 0x8]\n 27400: u64 [s1 + 0x78] = a3\n 27403: u64 [s1 + 0x68] = a5\n 27406: a0 = a3 | a5\n 27409: u64 [s1 + 0x70] = a4\n 27412: a0 = a0 | a4\n 27415: jump @1135 if a0 == 0\n      : @1102 (gas: 14)\n 27419: a0 = u64 [a1 + 0x10]\n 27422: a3 = u64 [a1 + 0x8]\n 27425: a1 = u64 [a1]\n 27427: a4 = 0xffffffffffffffff\n 27430: a5 = 0xffffffff\n 27440: a3 = a3 & a4\n 27443: a1 = a1 & a4\n 27446: a0 = a0 & a5\n 27449: u64 [s1 + 0x48] = a1\n 27452: u64 [s1 + 0x38] = a0\n 27455: a0 = a0 | a1\n 27458: u64 [s1 + 0x40] = a3\n 27461: a0 = a0 | a3\n 27464: jump @1140 if a0 == 0\n      : @1103 (gas: 9)\n 27468: a0 = u64 [a2 + 0x18]\n 27471: u64 [s1 + 0x98] = a0\n 27475: a0 = u64 [a2 + 0x10]\n 27478: u64 [s1 + 0x88] = a0\n 27482: a0 = u64 [a2 + 0x8]\n 27485: u64 [s1 + 0x80] = a0\n 27489: a0 = u64 [a2]\n 27491: u64 [s1 + 0x90] = a0\n 27495: ra = 1130, jump @1334\n      : @1104 [@dyn 565] (gas: 11)\n 27501: u64 [s1 + 824] = 0\n 27505: a0 = u64 [s1 + 0x68]\n 27508: a2 = s1 + 0x300\n 27512: u64 [a2 + 0x30] = a0\n 27515: a0 = u64 [s1 + 0x70]\n 27518: u64 [a2 + 0x28] = a0\n 27521: a1 = s1 + 0x320\n 27525: a0 = u64 [s1 + 0x78]\n 27528: u64 [a2 + 0x20] = a0\n 27531: a0 = 0\n 27533: ra = 1132, jump @19\n      : @1105 [@dyn 566] (gas: 7)\n 27539: u64 [s1 + 792] = 0\n 27543: u64 [s1 + 784] = 0\n 27547: u64 [s1 + 776] = 0\n 27551: a0 = 0x20\n 27554: a1 = s1 + 0x300\n 27558: u64 [s1 + 768] = 0\n 27562: ra = 1134, jump @19\n      : @1106 [@dyn 567] (gas: 3)\n 27568: a2 = 0x2026c\n 27573: a0 = i32 [0x2026c]\n 27578: jump @1108 if a0 >u 63\n      : @1107 (gas: 2)\n 27582: u32 [0x2026c] = 0x40\n 27588: fallthrough\n      : @1108 (gas: 15)\n 27589: u64 [s1 + 0x58] = a2\n 27592: a0 = sp + 0xffffffffffffffe0\n 27595: a2 = a0 & 0xffffffffffffffe0\n 27598: u64 [s1 + 0x50] = a2\n 27601: sp = a2\n 27603: a0 = 0x20280\n 27608: i32 a0 = a0 + 0\n 27610: i32 a2 = a2 + 0\n 27612: a1 = 0x40\n 27615: u64 [s1 + 0x60] = a0\n 27618: ra = 0x470\n 27622: ecalli 6 // 'hash_keccak_256'\n 27624: a3 = u64 [s1 + 0x50]\n 27627: t0 = 0x472\n 27631: jump @1396\n      : @1109 [@dyn 568] (gas: 2)\n 27634: a3 = u64 [s1 + 0x50]\n 27637: t0 = 1138, jump @1396\n      : @1110 [@dyn 569] (gas: 7)\n 27643: u64 [a4 + 0x58] = a3\n 27646: u64 [a4 + 0x50] = a2\n 27649: u64 [a4 + 0x48] = a1\n 27652: u64 [a4 + 0x40] = a0\n 27655: a0 = s1 + 0x2e0\n 27659: a1 = s1 + 0x340\n 27663: ra = 1140, jump @21\n      : @1111 [@dyn 570] (gas: 28)\n 27669: a1 = s1 + 0x200\n 27673: a2 = u64 [a1 + 0xf8]\n 27677: a0 = u64 [a1 + 0xf0]\n 27681: a5 = u64 [a1 + 0xe8]\n 27685: a4 = u64 [a1 + 0xe0]\n 27689: a1 = u64 [s1 + 0x98]\n 27693: t1 = a2 ^ a1\n 27696: u64 [s1 + 0x28] = a2\n 27699: a1 = a2 <u a1\n 27702: a2 = u64 [s1 + 0x88]\n 27706: a3 = a0 <u a2\n 27709: u64 [s1 + 0x10] = a3\n 27712: a1 = a3 if t1 == 0\n 27715: a3 = u64 [s1 + 0x80]\n 27719: t0 = a5 ^ a3\n 27722: u64 [s1 + 0x30] = a5\n 27725: a5 = a5 <u a3\n 27728: a3 = u64 [s1 + 0x90]\n 27732: u64 [s1 + 0x50] = a4\n 27735: a3 = a4 <u a3\n 27738: u64 [s1 + 0x18] = a3\n 27741: a5 = a3 if t0 == 0\n 27744: u64 [s1 + 0x20] = a0\n 27747: a2 = a2 ^ a0\n 27750: a0 = a2 | t1\n 27753: u64 [s1 + 0x8] = a5\n 27756: a1 = a5 if a0 == 0\n 27759: jump @1146 if a1 != 0\n      : @1112 (gas: 11)\n 27763: u64 [s1 + 728] = 0\n 27767: a0 = u64 [s1 + 0x78]\n 27770: a2 = s1 + 0x200\n 27774: u64 [a2 + 0xc0] = a0\n 27778: a0 = u64 [s1 + 0x70]\n 27781: u64 [a2 + 0xc8] = a0\n 27785: a1 = s1 + 0x2c0\n 27789: a0 = u64 [s1 + 0x68]\n 27792: u64 [a2 + 0xd0] = a0\n 27796: a0 = 0\n 27798: ra = 1142, jump @19\n      : @1113 [@dyn 571] (gas: 7)\n 27804: u64 [s1 + 696] = 0\n 27808: u64 [s1 + 688] = 0\n 27812: u64 [s1 + 680] = 0\n 27816: a0 = 0x20\n 27819: a1 = s1 + 0x2a0\n 27823: u64 [s1 + 672] = 0\n 27827: ra = 1144, jump @19\n      : @1114 [@dyn 572] (gas: 28)\n 27833: a0 = u64 [s1 + 0x88]\n 27837: a1 = u64 [s1 + 0x20]\n 27840: a0 = a1 - a0\n 27843: a2 = u64 [s1 + 0x8]\n 27846: a1 = a0 - a2\n 27849: u64 [s1 + 0x20] = a1\n 27852: a0 = a0 <u a2\n 27855: a1 = u64 [s1 + 0x98]\n 27859: a2 = u64 [s1 + 0x28]\n 27862: a1 = a2 - a1\n 27865: a2 = u64 [s1 + 0x10]\n 27868: a1 = a1 - a2\n 27871: a1 = a1 - a0\n 27874: u64 [s1 + 0x28] = a1\n 27877: a2 = u64 [s1 + 0x58]\n 27880: a0 = i32 [a2]\n 27882: a1 = u64 [s1 + 0x80]\n 27886: a3 = u64 [s1 + 0x30]\n 27889: a1 = a3 - a1\n 27892: a3 = u64 [s1 + 0x18]\n 27895: a1 = a1 - a3\n 27898: u64 [s1 + 0x30] = a1\n 27901: a4 = 0x3f\n 27904: a1 = u64 [s1 + 0x90]\n 27908: a3 = u64 [s1 + 0x50]\n 27911: a3 = a3 - a1\n 27914: u64 [s1 + 0x50] = a3\n 27917: jump @1116 if a4 <u a0\n      : @1115 (gas: 2)\n 27920: u32 [a2 + 0] = 0x40\n 27923: fallthrough\n      : @1116 (gas: 4)\n 27924: a0 = sp + 0xffffffffffffffe0\n 27927: a0 = a0 & 0xffffffffffffffe0\n 27930: u64 [s1 + 0x18] = a0\n 27933: t0 = 1146, jump @1362\n      : @1117 [@dyn 573] (gas: 5)\n 27939: ra = 0x47c\n 27943: ecalli 6 // 'hash_keccak_256'\n 27945: a3 = u64 [s1 + 0x18]\n 27948: t0 = 0x47e\n 27952: jump @1396\n      : @1118 [@dyn 574] (gas: 2)\n 27955: a3 = u64 [s1 + 0x18]\n 27958: t0 = 1150, jump @1396\n      : @1119 [@dyn 575] (gas: 15)\n 27964: u64 [a4 + 0x78] = a3\n 27967: u64 [a4 + 0x70] = a2\n 27970: u64 [a4 + 0x68] = a1\n 27973: u64 [a4 + 0x60] = a0\n 27976: a0 = u64 [s1 + 0x28]\n 27979: u64 [a4 + 0x98] = a0\n 27983: a0 = u64 [s1 + 0x20]\n 27986: u64 [a4 + 0x90] = a0\n 27990: a0 = u64 [s1 + 0x30]\n 27993: u64 [a4 + 0x88] = a0\n 27997: a0 = u64 [s1 + 0x50]\n 28000: u64 [a4 + 0x80] = a0\n 28004: a0 = s1 + 0x360\n 28008: a1 = s1 + 0x380\n 28012: ra = 1152, jump @24\n      : @1120 [@dyn 576] (gas: 11)\n 28018: u64 [s1 + 664] = 0\n 28022: a0 = u64 [s1 + 0x38]\n 28025: a2 = s1 + 0x200\n 28029: u64 [a2 + 0x90] = a0\n 28033: a0 = u64 [s1 + 0x40]\n 28036: u64 [a2 + 0x88] = a0\n 28040: a1 = s1 + 0x280\n 28044: a0 = u64 [s1 + 0x48]\n 28047: u64 [a2 + 0x80] = a0\n 28051: a0 = 0\n 28053: ra = 1154, jump @19\n      : @1121 [@dyn 577] (gas: 1)\n 28059: t0 = 1156, jump @1400\n      : @1122 [@dyn 578] (gas: 1)\n 28065: ra = 1158, jump @19\n      : @1123 [@dyn 579] (gas: 7)\n 28071: a1 = u64 [s1 + 0x58]\n 28074: a0 = sp + 0xffffffffffffffe0\n 28077: a0 = a0 & 0xffffffffffffffe0\n 28080: u64 [s1 + 0x50] = a0\n 28083: sp = a0\n 28085: a0 = i32 [a1]\n 28087: jump @1125 if a0 >u 63\n      : @1124 (gas: 2)\n 28091: u32 [a1 + 0] = 0x40\n 28094: fallthrough\n      : @1125 (gas: 4)\n 28095: a0 = sp + 0xffffffffffffffe0\n 28098: a0 = a0 & 0xffffffffffffffe0\n 28101: u64 [s1 + 0x58] = a0\n 28104: t0 = 1160, jump @1362\n      : @1126 [@dyn 580] (gas: 17)\n 28110: ecalli 6 // 'hash_keccak_256'\n 28112: a3 = u64 [s1 + 0x58]\n 28115: a0 = u64 [a3 + 0x18]\n 28118: a1 = u64 [a3 + 0x10]\n 28121: a2 = u64 [a3 + 0x8]\n 28124: a3 = u64 [a3]\n 28126: a0 = reverse a0\n 28128: a4 = reverse a1\n 28130: a2 = reverse a2\n 28132: a3 = reverse a3\n 28134: a1 = u64 [s1 + 0x50]\n 28137: u64 [a1 + 0x18] = a3\n 28140: u64 [a1 + 0x10] = a2\n 28143: u64 [a1 + 0x8] = a4\n 28146: u64 [a1] = a0\n 28148: a0 = s1 + 0x240\n 28152: ra = 1162, jump @21\n      : @1127 [@dyn 581] (gas: 30)\n 28158: a0 = u64 [s1 + 0x248]\n 28162: a1 = u64 [s1 + 0x240]\n 28166: t0 = u64 [s1 + 0x258]\n 28170: a3 = u64 [s1 + 0x250]\n 28174: a4 = u64 [s1 + 0x80]\n 28178: a4 = a4 + a0\n 28181: a5 = u64 [s1 + 0x90]\n 28185: a5 = a5 + a1\n 28188: a1 = a5 <u a1\n 28191: a4 = a4 + a1\n 28194: a2 = a4 ^ a0\n 28197: a0 = a4 <u a0\n 28200: a0 = a1 if a2 == 0\n 28203: a1 = u64 [s1 + 0x88]\n 28207: a1 = a1 + a3\n 28210: a2 = u64 [s1 + 0x98]\n 28214: t0 = t0 + a2\n 28217: a2 = a1 <u a3\n 28220: a2 = a2 + t0\n 28223: a0 = a0 + a1\n 28226: a1 = a0 <u a1\n 28229: a1 = a1 + a2\n 28232: a2 = s1 + 0x300\n 28236: u64 [a2 + 0xa0] = a5\n 28240: u64 [a2 + 0xa8] = a4\n 28244: u64 [a2 + 0xb0] = a0\n 28248: u64 [a2 + 0xb8] = a1\n 28252: a1 = s1 + 0x3a0\n 28256: a0 = u64 [s1 + 0x50]\n 28259: ra = 1164, jump @24\n      : @1128 [@dyn 582] (gas: 3)\n 28265: a0 = s1 + 0x220\n 28269: a1 = 0x40\n 28272: ra = 1166, jump @17\n      : @1129 [@dyn 583] (gas: 6)\n 28278: a4 = s1 + 0x200\n 28282: a3 = u64 [a4 + 0x38]\n 28285: a1 = u64 [a4 + 0x30]\n 28288: a2 = u64 [a4 + 0x28]\n 28291: a0 = u64 [a4 + 0x20]\n 28294: t0 = 1168, jump @1356\n      : @1130 [@dyn 584] (gas: 1)\n 28300: jump @1134 if a1 != 0\n      : @1131 (gas: 12)\n 28304: a1 = u64 [s1 + 0x90]\n 28308: a3 = s1 + 0x200\n 28312: u64 [a3] = a1\n 28314: a1 = u64 [s1 + 0x80]\n 28318: u64 [a3 + 0x8] = a1\n 28321: a1 = u64 [s1 + 0x88]\n 28325: u64 [a3 + 0x10] = a1\n 28328: a1 = s1 + 0x200\n 28332: a2 = u64 [s1 + 0x98]\n 28336: u64 [a3 + 0x18] = a2\n 28339: u64 [s1 + 0x98] = a0\n 28343: ra = 1170, jump @19\n      : @1132 [@dyn 585] (gas: 29)\n 28349: u64 [s1 + 440] = 0\n 28353: a0 = u64 [s1 + 0x38]\n 28356: a5 = s1 + 0x100\n 28360: u64 [a5 + 0xb0] = a0\n 28364: a0 = u64 [s1 + 0x40]\n 28367: u64 [a5 + 0xa8] = a0\n 28371: a0 = u64 [s1 + 0x48]\n 28374: u64 [a5 + 0xa0] = a0\n 28378: u64 [s1 + 472] = 0\n 28382: a0 = u64 [s1 + 0x68]\n 28385: u64 [a5 + 0xd0] = a0\n 28389: a0 = u64 [s1 + 0x70]\n 28392: u64 [a5 + 0xc8] = a0\n 28396: a0 = u64 [0x201c8]\n 28401: a1 = u64 [0x201d0]\n 28406: a2 = u64 [0x201d8]\n 28411: a3 = u64 [s1 + 0x78]\n 28414: u64 [a5 + 0xc0] = a3\n 28418: u64 [a5 + 0xf8] = a0\n 28422: u64 [a5 + 0xf0] = a1\n 28426: u64 [a5 + 0xe8] = a2\n 28430: a0 = u64 [0x201e0]\n 28435: a1 = 0x20\n 28438: a2 = s1 + 0x1e0\n 28442: a3 = s1 + 0x1c0\n 28446: a4 = s1 + 0x1a0\n 28450: u64 [a5 + 0xe0] = a0\n 28454: a0 = u64 [s1 + 0x98]\n 28458: ra = 1172, jump @27\n      : @1133 [@dyn 586] (gas: 7)\n 28464: sp = s0 + 0xfffffffffffffc20\n 28468: a0 = sp + 0x300\n 28472: ra = u64 [a0 + 0xd8]\n 28476: s0 = u64 [a0 + 0xd0]\n 28480: s1 = u64 [a0 + 0xc8]\n 28484: sp = sp + 0x3e0\n 28488: ret\n      : @1134 (gas: 1)\n 28490: trap\n      : @1135 (gas: 8)\n 28491: u64 [s1 + 208] = 0\n 28495: u64 [s1 + 200] = 0\n 28499: u64 [s1 + 192] = 0\n 28503: a0 = 0x96c6fd1e00000000\n 28513: a1 = s1 + 0xc0\n 28517: u64 [s1 + 0xd8] = a0\n 28521: a0 = 0\n 28523: ra = 1174, jump @19\n      : @1136 [@dyn 587] (gas: 7)\n 28529: u64 [s1 + 184] = 0\n 28533: u64 [s1 + 176] = 0\n 28537: u64 [s1 + 168] = 0\n 28541: a0 = 0x4\n 28544: a1 = s1 + 0xa0\n 28548: u64 [s1 + 160] = 0\n 28552: ra = 1176, jump @19\n      : @1137 [@dyn 588] (gas: 2)\n 28558: a1 = i32 [0x2026c]\n 28563: jump @1139 if a1 >u 63\n      : @1138 (gas: 3)\n 28567: u32 [0x2026c] = 0x40\n 28573: a1 = 0x20280\n 28578: jump @1145\n      : @1139 (gas: 2)\n 28580: a1 = 0x20280\n 28585: jump @1145\n      : @1140 (gas: 8)\n 28587: u64 [s1 + 272] = 0\n 28591: u64 [s1 + 264] = 0\n 28595: u64 [s1 + 256] = 0\n 28599: a0 = 0xec442f0500000000\n 28609: a1 = s1 + 0x100\n 28613: u64 [s1 + 0x118] = a0\n 28617: a0 = 0\n 28619: ra = 1178, jump @19\n      : @1141 [@dyn 589] (gas: 7)\n 28625: u64 [s1 + 248] = 0\n 28629: u64 [s1 + 240] = 0\n 28633: u64 [s1 + 232] = 0\n 28637: a0 = 0x4\n 28640: a1 = s1 + 0xe0\n 28644: u64 [s1 + 224] = 0\n 28648: ra = 1180, jump @19\n      : @1142 [@dyn 590] (gas: 2)\n 28654: a1 = i32 [0x2026c]\n 28659: jump @1144 if a1 >u 63\n      : @1143 (gas: 3)\n 28663: u32 [0x2026c] = 0x40\n 28669: a1 = 0x20280\n 28674: jump @1145\n      : @1144 (gas: 2)\n 28676: a1 = 0x20280\n 28681: fallthrough\n      : @1145 (gas: 5)\n 28682: i32 a1 = a1 + 0\n 28684: a0 = 0x1\n 28687: a2 = 0x24\n 28690: ecalli 7 // 'seal_return'\n 28692: fallthrough\n      : @1146 (gas: 8)\n 28693: u64 [s1 + 400] = 0\n 28697: u64 [s1 + 392] = 0\n 28701: u64 [s1 + 384] = 0\n 28705: a0 = 0xe450d38c00000000\n 28715: a1 = s1 + 0x180\n 28719: u64 [s1 + 0x198] = a0\n 28723: a0 = 0\n 28725: ra = 1182, jump @19\n      : @1147 [@dyn 591] (gas: 10)\n 28731: u64 [s1 + 376] = 0\n 28735: a0 = u64 [s1 + 0x68]\n 28738: u64 [s1 + 0x170] = a0\n 28742: a0 = u64 [s1 + 0x70]\n 28745: u64 [s1 + 0x168] = a0\n 28749: a0 = 0x4\n 28752: a1 = s1 + 0x160\n 28756: a2 = u64 [s1 + 0x78]\n 28759: u64 [s1 + 0x160] = a2\n 28763: ra = 1184, jump @19\n      : @1148 [@dyn 592] (gas: 11)\n 28769: a0 = u64 [s1 + 0x28]\n 28772: u64 [s1 + 0x158] = a0\n 28776: a0 = u64 [s1 + 0x20]\n 28779: u64 [s1 + 0x150] = a0\n 28783: a0 = u64 [s1 + 0x30]\n 28786: u64 [s1 + 0x148] = a0\n 28790: a0 = 0x24\n 28793: a1 = s1 + 0x140\n 28797: a2 = u64 [s1 + 0x50]\n 28800: u64 [s1 + 0x140] = a2\n 28804: ra = 1186, jump @19\n      : @1149 [@dyn 593] (gas: 12)\n 28810: a0 = u64 [s1 + 0x98]\n 28814: a3 = s1 + 0x100\n 28818: u64 [a3 + 0x38] = a0\n 28821: a0 = u64 [s1 + 0x88]\n 28825: u64 [a3 + 0x30] = a0\n 28828: a0 = u64 [s1 + 0x80]\n 28832: u64 [a3 + 0x28] = a0\n 28835: a0 = 0x44\n 28838: a1 = s1 + 0x120\n 28842: a2 = u64 [s1 + 0x90]\n 28846: u64 [a3 + 0x20] = a2\n 28849: ra = 1188, jump @19\n      : @1150 [@dyn 594] (gas: 3)\n 28855: a0 = u64 [s1 + 0x58]\n 28858: a0 = i32 [a0]\n 28860: jump @1152 if a0 >u 127\n      : @1151 (gas: 3)\n 28864: a1 = u64 [s1 + 0x58]\n 28867: u32 [a1 + 0] = 0x80\n 28871: fallthrough\n      : @1152 (gas: 6)\n 28872: a0 = 0x1\n 28875: a2 = 0x64\n 28878: a1 = u64 [s1 + 0x60]\n 28881: ra = 0x4a6\n 28885: ecalli 7 // 'seal_return'\n 28887: fallthrough\n      : @1153 [@dyn 595] (gas: 22)\n 28888: sp = sp + 0xfffffffffffffe60\n 28892: u64 [sp + 0x198] = ra\n 28896: u64 [sp + 0x190] = s0\n 28900: u64 [sp + 0x188] = s1\n 28904: s0 = sp + 0x1a0\n 28908: sp = sp & 0xffffffffffffffe0\n 28911: s1 = sp\n 28913: a0 = u64 [0x201e8]\n 28918: u64 [s1 + 0x38] = a0\n 28921: u64 [s1 + 0x178] = a0\n 28925: a1 = u64 [0x201f0]\n 28930: a2 = u64 [0x201f8]\n 28935: a0 = u64 [0x20200]\n 28940: u64 [s1 + 0x28] = a1\n 28943: u64 [s1 + 0x170] = a1\n 28947: u64 [s1 + 0x20] = a2\n 28950: u64 [s1 + 0x168] = a2\n 28954: a1 = s1 + 0x160\n 28958: u64 [s1 + 0x30] = a0\n 28961: u64 [s1 + 0x160] = a0\n 28965: a0 = 0\n 28967: ra = 1192, jump @19\n      : @1154 [@dyn 596] (gas: 1)\n 28973: t0 = 1194, jump @1369\n      : @1155 [@dyn 597] (gas: 1)\n 28979: ra = 1196, jump @19\n      : @1156 [@dyn 598] (gas: 3)\n 28985: a1 = 0x2026c\n 28990: a0 = i32 [0x2026c]\n 28995: jump @1158 if a0 >u 63\n      : @1157 (gas: 2)\n 28999: u32 [0x2026c] = 0x40\n 29005: fallthrough\n      : @1158 (gas: 14)\n 29006: a0 = sp + 0xffffffffffffffe0\n 29009: a2 = a0 & 0xffffffffffffffe0\n 29012: u64 [s1 + 0x68] = a2\n 29015: sp = a2\n 29017: a0 = 0x20280\n 29022: i32 a0 = a0 + 0\n 29024: i32 a2 = a2 + 0\n 29026: u64 [s1 + 0x78] = a1\n 29029: a1 = 0x40\n 29032: u64 [s1 + 0x70] = a0\n 29035: ra = 0x4ae\n 29039: ecalli 6 // 'hash_keccak_256'\n 29041: t0 = 0x4b0\n 29045: jump @1370\n      : @1159 [@dyn 599] (gas: 1)\n 29048: t0 = 1200, jump @1370\n      : @1160 [@dyn 600] (gas: 8)\n 29054: a0 = 0x30280\n 29059: u64 [s1 + 0x68] = a0\n 29062: i32 a0 = a0 + 0\n 29064: u64 [s1 + 0x18] = a0\n 29067: ra = 0x4b2\n 29071: ecalli 3 // 'caller'\n 29073: t0 = 0x4b4\n 29077: jump @1360\n      : @1161 [@dyn 601] (gas: 1)\n 29080: t0 = 1204, jump @1360\n      : @1162 [@dyn 602] (gas: 1)\n 29086: ra = 1206, jump @19\n      : @1163 [@dyn 603] (gas: 1)\n 29092: t0 = 1208, jump @1393\n      : @1164 [@dyn 604] (gas: 1)\n 29098: ra = 1210, jump @19\n      : @1165 [@dyn 605] (gas: 3)\n 29104: a1 = u64 [s1 + 0x78]\n 29107: a0 = i32 [a1]\n 29109: jump @1167 if a0 >u 63\n      : @1166 (gas: 3)\n 29113: u32 [a1 + 0] = 0x40\n 29116: t0 = 0x4bc\n 29120: jump @1412\n      : @1167 (gas: 1)\n 29123: t0 = 1212, jump @1412\n      : @1168 [@dyn 606] (gas: 4)\n 29129: ra = 0x4be\n 29133: ecalli 6 // 'hash_keccak_256'\n 29135: t0 = 0x4c0\n 29139: jump @1372\n      : @1169 [@dyn 607] (gas: 1)\n 29142: t0 = 1216, jump @1372\n      : @1170 [@dyn 608] (gas: 1)\n 29148: ra = 1218, jump @21\n      : @1171 [@dyn 609] (gas: 2)\n 29154: a0 = u8 [s1 + 0xe0]\n 29158: jump @1173 if a0 == 0\n      : @1172 (gas: 6)\n 29161: sp = s0 + 0xfffffffffffffe60\n 29165: ra = u64 [sp + 0x198]\n 29169: s0 = u64 [sp + 0x190]\n 29173: s1 = u64 [sp + 0x188]\n 29177: sp = sp + 0x1a0\n 29181: ret\n      : @1173 (gas: 1)\n 29183: t0 = 1220, jump @1386\n      : @1174 [@dyn 610] (gas: 1)\n 29189: ra = 1222, jump @19\n      : @1175 [@dyn 611] (gas: 5)\n 29195: a0 = u64 [s1 + 0x18]\n 29198: ra = 0x4c8\n 29202: ecalli 3 // 'caller'\n 29204: t0 = 0x4ca\n 29208: jump @1365\n      : @1176 [@dyn 612] (gas: 1)\n 29211: t0 = 1226, jump @1365\n      : @1177 [@dyn 613] (gas: 1)\n 29217: ra = 1228, jump @19\n      : @1178 [@dyn 614] (gas: 11)\n 29223: a0 = u64 [s1 + 0x38]\n 29226: u64 [s1 + 0x98] = a0\n 29230: a0 = u64 [s1 + 0x28]\n 29233: u64 [s1 + 0x90] = a0\n 29237: a0 = u64 [s1 + 0x20]\n 29240: u64 [s1 + 0x88] = a0\n 29244: a0 = 0x24\n 29247: a1 = s1 + 0x80\n 29251: a2 = u64 [s1 + 0x30]\n 29254: u64 [s1 + 0x80] = a2\n 29258: ra = 1230, jump @19\n      : @1179 [@dyn 615] (gas: 3)\n 29264: a0 = u64 [s1 + 0x78]\n 29267: a0 = i32 [a0]\n 29269: jump @1181 if a0 >u 95\n      : @1180 (gas: 3)\n 29273: a1 = u64 [s1 + 0x78]\n 29276: u32 [a1 + 0] = 0x60\n 29279: fallthrough\n      : @1181 (gas: 6)\n 29280: a0 = 0x1\n 29283: a2 = 0x44\n 29286: a1 = u64 [s1 + 0x70]\n 29289: ra = 0x4d0\n 29293: ecalli 7 // 'seal_return'\n 29295: fallthrough\n      : @1182 [@dyn 616] (gas: 22)\n 29296: sp = sp + 0xfffffffffffffe60\n 29300: u64 [sp + 0x198] = ra\n 29304: u64 [sp + 0x190] = s0\n 29308: u64 [sp + 0x188] = s1\n 29312: s0 = sp + 0x1a0\n 29316: sp = sp & 0xffffffffffffffe0\n 29319: s1 = sp\n 29321: a2 = u64 [a0]\n 29323: a1 = u64 [a0 + 0x8]\n 29326: a3 = u64 [a0 + 0x10]\n 29329: a0 = u64 [a0 + 0x18]\n 29332: u64 [s1 + 0x20] = a0\n 29335: u64 [s1 + 0x178] = a0\n 29339: u64 [s1 + 0x28] = a3\n 29342: u64 [s1 + 0x170] = a3\n 29346: u64 [s1 + 0x30] = a1\n 29349: u64 [s1 + 0x168] = a1\n 29353: a1 = s1 + 0x160\n 29357: u64 [s1 + 0x38] = a2\n 29360: u64 [s1 + 0x160] = a2\n 29364: a0 = 0\n 29366: ra = 1234, jump @19\n      : @1183 [@dyn 617] (gas: 1)\n 29372: t0 = 1236, jump @1369\n      : @1184 [@dyn 618] (gas: 1)\n 29378: ra = 1238, jump @19\n      : @1185 [@dyn 619] (gas: 3)\n 29384: a1 = 0x2026c\n 29389: a0 = i32 [0x2026c]\n 29394: jump @1187 if a0 >u 63\n      : @1186 (gas: 2)\n 29398: u32 [0x2026c] = 0x40\n 29404: fallthrough\n      : @1187 (gas: 14)\n 29405: a0 = sp + 0xffffffffffffffe0\n 29408: a2 = a0 & 0xffffffffffffffe0\n 29411: u64 [s1 + 0x68] = a2\n 29414: sp = a2\n 29416: a0 = 0x20280\n 29421: i32 a0 = a0 + 0\n 29423: i32 a2 = a2 + 0\n 29425: u64 [s1 + 0x78] = a1\n 29428: a1 = 0x40\n 29431: u64 [s1 + 0x70] = a0\n 29434: ra = 0x4d8\n 29438: ecalli 6 // 'hash_keccak_256'\n 29440: t0 = 0x4da\n 29444: jump @1370\n      : @1188 [@dyn 620] (gas: 1)\n 29447: t0 = 1242, jump @1370\n      : @1189 [@dyn 621] (gas: 8)\n 29453: a0 = 0x30280\n 29458: u64 [s1 + 0x68] = a0\n 29461: i32 a0 = a0 + 0\n 29463: u64 [s1 + 0x18] = a0\n 29466: ra = 0x4dc\n 29470: ecalli 3 // 'caller'\n 29472: t0 = 0x4de\n 29476: jump @1360\n      : @1190 [@dyn 622] (gas: 1)\n 29479: t0 = 1246, jump @1360\n      : @1191 [@dyn 623] (gas: 1)\n 29485: ra = 1248, jump @19\n      : @1192 [@dyn 624] (gas: 1)\n 29491: t0 = 1250, jump @1393\n      : @1193 [@dyn 625] (gas: 1)\n 29497: ra = 1252, jump @19\n      : @1194 [@dyn 626] (gas: 3)\n 29503: a1 = u64 [s1 + 0x78]\n 29506: a0 = i32 [a1]\n 29508: jump @1196 if a0 >u 63\n      : @1195 (gas: 3)\n 29512: u32 [a1 + 0] = 0x40\n 29515: t0 = 0x4e6\n 29519: jump @1412\n      : @1196 (gas: 1)\n 29522: t0 = 1254, jump @1412\n      : @1197 [@dyn 627] (gas: 4)\n 29528: ra = 0x4e8\n 29532: ecalli 6 // 'hash_keccak_256'\n 29534: t0 = 0x4ea\n 29538: jump @1372\n      : @1198 [@dyn 628] (gas: 1)\n 29541: t0 = 1258, jump @1372\n      : @1199 [@dyn 629] (gas: 1)\n 29547: ra = 1260, jump @21\n      : @1200 [@dyn 630] (gas: 2)\n 29553: a0 = u8 [s1 + 0xe0]\n 29557: jump @1202 if a0 == 0\n      : @1201 (gas: 6)\n 29560: sp = s0 + 0xfffffffffffffe60\n 29564: ra = u64 [sp + 0x198]\n 29568: s0 = u64 [sp + 0x190]\n 29572: s1 = u64 [sp + 0x188]\n 29576: sp = sp + 0x1a0\n 29580: ret\n      : @1202 (gas: 1)\n 29582: t0 = 1262, jump @1386\n      : @1203 [@dyn 631] (gas: 1)\n 29588: ra = 1264, jump @19\n      : @1204 [@dyn 632] (gas: 5)\n 29594: a0 = u64 [s1 + 0x18]\n 29597: ra = 0x4f2\n 29601: ecalli 3 // 'caller'\n 29603: t0 = 0x4f4\n 29607: jump @1365\n      : @1205 [@dyn 633] (gas: 1)\n 29610: t0 = 1268, jump @1365\n      : @1206 [@dyn 634] (gas: 1)\n 29616: ra = 1270, jump @19\n      : @1207 [@dyn 635] (gas: 11)\n 29622: a0 = u64 [s1 + 0x20]\n 29625: u64 [s1 + 0x98] = a0\n 29629: a0 = u64 [s1 + 0x28]\n 29632: u64 [s1 + 0x90] = a0\n 29636: a0 = u64 [s1 + 0x30]\n 29639: u64 [s1 + 0x88] = a0\n 29643: a0 = 0x24\n 29646: a1 = s1 + 0x80\n 29650: a2 = u64 [s1 + 0x38]\n 29653: u64 [s1 + 0x80] = a2\n 29657: ra = 1272, jump @19\n      : @1208 [@dyn 636] (gas: 3)\n 29663: a0 = u64 [s1 + 0x78]\n 29666: a0 = i32 [a0]\n 29668: jump @1210 if a0 >u 95\n      : @1209 (gas: 3)\n 29672: a1 = u64 [s1 + 0x78]\n 29675: u32 [a1 + 0] = 0x60\n 29678: fallthrough\n      : @1210 (gas: 7)\n 29679: a0 = 0x1\n 29682: a2 = 0x44\n 29685: a1 = u64 [s1 + 0x70]\n 29688: ra = 0x4fa\n 29692: ecalli 7 // 'seal_return'\n 29694: t0 = 0x4fc\n 29698: jump @1404\n      : @1211 [@dyn 637] (gas: 1)\n 29701: t0 = 1276, jump @1404\n      : @1212 [@dyn 638] (gas: 21)\n 29707: u64 [s1 + 0x50] = a3\n 29710: a3 = u64 [a2 + 0x8]\n 29713: u64 [s1 + 0x70] = a3\n 29716: a2 = u64 [a2]\n 29718: u64 [s1 + 0x78] = a2\n 29721: a2 = u64 [a1]\n 29723: a3 = u64 [a1 + 0x8]\n 29726: a4 = u64 [a1 + 0x10]\n 29729: a1 = u64 [a1 + 0x18]\n 29732: u64 [s1 + 0x58] = a0\n 29735: u64 [s1 + 0x8] = a1\n 29738: u64 [s1 + 0x238] = a1\n 29742: u64 [s1 + 0x10] = a4\n 29745: u64 [s1 + 0x230] = a4\n 29749: u64 [s1 + 0x18] = a3\n 29752: u64 [s1 + 0x228] = a3\n 29756: a1 = s1 + 0x220\n 29760: u64 [s1 + 0x20] = a2\n 29763: u64 [s1 + 0x220] = a2\n 29767: a0 = 0\n 29769: ra = 1278, jump @19\n      : @1213 [@dyn 639] (gas: 1)\n 29775: t0 = 1280, jump @1359\n      : @1214 [@dyn 640] (gas: 1)\n 29781: ra = 1282, jump @19\n      : @1215 [@dyn 641] (gas: 3)\n 29787: a1 = 0x2026c\n 29792: a0 = i32 [0x2026c]\n 29797: jump @1217 if a0 >u 63\n      : @1216 (gas: 2)\n 29801: u32 [0x2026c] = 0x40\n 29807: fallthrough\n      : @1217 (gas: 6)\n 29808: a0 = sp + 0xffffffffffffffe0\n 29811: a2 = a0 & 0xffffffffffffffe0\n 29814: u64 [s1 + 0x48] = a2\n 29817: sp = a2\n 29819: a0 = 0x20280\n 29824: t0 = 1284, jump @1419\n      : @1218 [@dyn 642] (gas: 4)\n 29830: ra = 0x506\n 29834: ecalli 6 // 'hash_keccak_256'\n 29836: t0 = 0x508\n 29840: jump @1345\n      : @1219 [@dyn 643] (gas: 1)\n 29843: t0 = 1288, jump @1345\n      : @1220 [@dyn 644] (gas: 1)\n 29849: ra = 1290, jump @19\n      : @1221 [@dyn 645] (gas: 1)\n 29855: t0 = 1292, jump @1366\n      : @1222 [@dyn 646] (gas: 1)\n 29861: ra = 1294, jump @19\n      : @1223 [@dyn 647] (gas: 3)\n 29867: a1 = u64 [s1 + 0x68]\n 29870: a0 = i32 [a1]\n 29872: jump @1225 if a0 >u 63\n      : @1224 (gas: 3)\n 29876: u32 [a1 + 0] = 0x40\n 29879: t0 = 0x510\n 29883: jump @1353\n      : @1225 (gas: 1)\n 29886: t0 = 1296, jump @1353\n      : @1226 [@dyn 648] (gas: 4)\n 29892: ra = 0x512\n 29896: ecalli 6 // 'hash_keccak_256'\n 29898: t0 = 0x514\n 29902: jump @1351\n      : @1227 [@dyn 649] (gas: 1)\n 29905: t0 = 1300, jump @1351\n      : @1228 [@dyn 650] (gas: 1)\n 29911: ra = 1302, jump @21\n      : @1229 [@dyn 651] (gas: 2)\n 29917: a0 = u8 [s1 + 0x1a0]\n 29921: jump @1231 if a0 == 0\n      : @1230 (gas: 5)\n 29924: a1 = 0\n 29926: a0 = 0\n 29928: a2 = u64 [s1 + 0x58]\n 29931: t0 = 0x53c\n 29935: jump @1357\n      : @1231 (gas: 11)\n 29938: a0 = u64 [s1 + 0x20]\n 29941: u64 [s1 + 0x180] = a0\n 29945: a0 = u64 [s1 + 0x18]\n 29948: u64 [s1 + 0x188] = a0\n 29952: a0 = u64 [s1 + 0x10]\n 29955: u64 [s1 + 0x190] = a0\n 29959: a1 = s1 + 0x180\n 29963: a0 = u64 [s1 + 0x8]\n 29966: u64 [s1 + 0x198] = a0\n 29970: a0 = 0\n 29972: ra = 1304, jump @19\n      : @1232 [@dyn 652] (gas: 1)\n 29978: t0 = 1306, jump @1358\n      : @1233 [@dyn 653] (gas: 1)\n 29984: ra = 1308, jump @19\n      : @1234 [@dyn 654] (gas: 3)\n 29990: a1 = u64 [s1 + 0x68]\n 29993: a0 = i32 [a1]\n 29995: jump @1236 if a0 >u 63\n      : @1235 (gas: 3)\n 29999: u32 [a1 + 0] = 0x40\n 30002: t0 = 0x51e\n 30006: jump @1353\n      : @1236 (gas: 1)\n 30009: t0 = 1310, jump @1353\n      : @1237 [@dyn 655] (gas: 4)\n 30015: ra = 0x520\n 30019: ecalli 6 // 'hash_keccak_256'\n 30021: t0 = 0x522\n 30025: jump @1346\n      : @1238 [@dyn 656] (gas: 1)\n 30028: t0 = 1314, jump @1346\n      : @1239 [@dyn 657] (gas: 1)\n 30034: ra = 1316, jump @19\n      : @1240 [@dyn 658] (gas: 1)\n 30040: t0 = 1318, jump @1368\n      : @1241 [@dyn 659] (gas: 1)\n 30046: ra = 1320, jump @19\n      : @1242 [@dyn 660] (gas: 3)\n 30052: a1 = u64 [s1 + 0x68]\n 30055: a0 = i32 [a1]\n 30057: jump @1244 if a0 >u 63\n      : @1243 (gas: 2)\n 30061: u32 [a1 + 0] = 0x40\n 30064: fallthrough\n      : @1244 (gas: 4)\n 30065: a0 = sp + 0xffffffffffffffe0\n 30068: a0 = a0 & 0xffffffffffffffe0\n 30071: u64 [s1 + 0x68] = a0\n 30074: t0 = 1322, jump @1362\n      : @1245 [@dyn 661] (gas: 4)\n 30080: ra = 0x52c\n 30084: ecalli 6 // 'hash_keccak_256'\n 30086: t0 = 0x52e\n 30090: jump @1350\n      : @1246 [@dyn 662] (gas: 1)\n 30093: t0 = 1326, jump @1350\n      : @1247 [@dyn 663] (gas: 1)\n 30099: ra = 1328, jump @21\n      : @1248 [@dyn 664] (gas: 1)\n 30105: t0 = 1330, jump @1355\n      : @1249 [@dyn 665] (gas: 1)\n 30111: ra = 1332, jump @24\n      : @1250 [@dyn 666] (gas: 8)\n 30117: a0 = 0x30280\n 30122: u64 [s1 + 0x68] = a0\n 30125: i32 a0 = a0 + 0\n 30127: ra = 0x536\n 30131: ecalli 3 // 'caller'\n 30133: a2 = u64 [s1 + 0x68]\n 30136: t0 = 0x538\n 30140: jump @1347\n      : @1251 [@dyn 667] (gas: 2)\n 30143: a2 = u64 [s1 + 0x68]\n 30146: t0 = 1336, jump @1347\n      : @1252 [@dyn 668] (gas: 40)\n 30152: t0 = a1 | a0\n 30155: a3 = a3 >> 0x20\n 30158: a2 = reverse a2\n 30160: a1 = a2 << 0x20\n 30163: a1 = a1 | a3\n 30166: a2 = a2 >> 0x20\n 30169: u64 [s1 + 152] = 0\n 30173: u64 [s1 + 184] = 0\n 30177: a0 = u64 [s1]\n 30179: u64 [s1 + 0xb0] = a0\n 30183: a0 = u64 [s1 + 0x70]\n 30186: u64 [s1 + 0xa8] = a0\n 30190: a0 = u64 [s1 + 0x78]\n 30193: u64 [s1 + 0xa0] = a0\n 30197: a0 = u64 [s1 + 0x8]\n 30200: u64 [s1 + 0xd8] = a0\n 30204: a0 = u64 [s1 + 0x10]\n 30207: u64 [s1 + 0xd0] = a0\n 30211: a0 = u64 [s1 + 0x18]\n 30214: u64 [s1 + 0xc8] = a0\n 30218: a0 = u64 [s1 + 0x20]\n 30221: u64 [s1 + 0xc0] = a0\n 30225: a3 = u64 [0x20208]\n 30230: a4 = u64 [0x20210]\n 30235: a5 = u64 [0x20218]\n 30240: a0 = u64 [0x20220]\n 30245: u64 [s1 + 0xf8] = a3\n 30249: u64 [s1 + 0xf0] = a4\n 30253: u64 [s1 + 0xe8] = a5\n 30257: u64 [s1 + 0xe0] = a0\n 30261: u64 [s1 + 0x90] = a2\n 30265: u64 [s1 + 0x88] = a1\n 30269: a2 = s1 + 0xe0\n 30273: a3 = s1 + 0xc0\n 30277: a4 = s1 + 0xa0\n 30281: a5 = s1 + 0x80\n 30285: u64 [s1 + 0x80] = t0\n 30289: a0 = 0\n 30291: a1 = 0\n 30293: ra = 1338, jump @30\n      : @1253 [@dyn 669] (gas: 4)\n 30299: a0 = 0\n 30301: a1 = 0x1\n 30304: a2 = u64 [s1 + 0x58]\n 30307: t0 = 1340, jump @1357\n      : @1254 [@dyn 670] (gas: 1)\n 30313: ret\n      : @1255 [@dyn 671] (gas: 21)\n 30315: u64 [s1 + 0x38] = a3\n 30318: a3 = u64 [a2 + 0x8]\n 30321: u64 [s1 + 0x70] = a3\n 30324: a2 = u64 [a2]\n 30326: u64 [s1 + 0x78] = a2\n 30329: a2 = u64 [a1]\n 30331: a3 = u64 [a1 + 0x8]\n 30334: a4 = u64 [a1 + 0x10]\n 30337: a1 = u64 [a1 + 0x18]\n 30340: u64 [s1 + 0x30] = a0\n 30343: u64 [s1 + 0x40] = a1\n 30346: u64 [s1 + 0x238] = a1\n 30350: u64 [s1 + 0x48] = a4\n 30353: u64 [s1 + 0x230] = a4\n 30357: u64 [s1 + 0x50] = a3\n 30360: u64 [s1 + 0x228] = a3\n 30364: a1 = s1 + 0x220\n 30368: u64 [s1 + 0x58] = a2\n 30371: u64 [s1 + 0x220] = a2\n 30375: a0 = 0\n 30377: ra = 1344, jump @19\n      : @1256 [@dyn 672] (gas: 1)\n 30383: t0 = 1346, jump @1359\n      : @1257 [@dyn 673] (gas: 1)\n 30389: ra = 1348, jump @19\n      : @1258 [@dyn 674] (gas: 3)\n 30395: a1 = 0x2026c\n 30400: a0 = i32 [0x2026c]\n 30405: jump @1260 if a0 >u 63\n      : @1259 (gas: 2)\n 30409: u32 [0x2026c] = 0x40\n 30415: fallthrough\n      : @1260 (gas: 6)\n 30416: a0 = sp + 0xffffffffffffffe0\n 30419: a2 = a0 & 0xffffffffffffffe0\n 30422: u64 [s1 + 0x28] = a2\n 30425: sp = a2\n 30427: a0 = 0x20280\n 30432: t0 = 1350, jump @1419\n      : @1261 [@dyn 675] (gas: 4)\n 30438: ra = 0x548\n 30442: ecalli 6 // 'hash_keccak_256'\n 30444: t0 = 0x54a\n 30448: jump @1348\n      : @1262 [@dyn 676] (gas: 1)\n 30451: t0 = 1354, jump @1348\n      : @1263 [@dyn 677] (gas: 13)\n 30457: a0 = u64 [s1 + 0x38]\n 30460: a0 = a0 << 0x20\n 30463: a0 = a0 >> 0x20\n 30466: u64 [s1 + 504] = 0\n 30470: u64 [s1 + 0x38] = a0\n 30473: u64 [s1 + 0x1f0] = a0\n 30477: a0 = u64 [s1 + 0x70]\n 30480: u64 [s1 + 0x1e8] = a0\n 30484: a1 = s1 + 0x1e0\n 30488: a0 = u64 [s1 + 0x78]\n 30491: u64 [s1 + 0x1e0] = a0\n 30495: a0 = 0\n 30497: ra = 1356, jump @19\n      : @1264 [@dyn 678] (gas: 12)\n 30503: a0 = u64 [s1 + 0x8]\n 30506: a3 = s1 + 0x100\n 30510: u64 [a3 + 0xd8] = a0\n 30514: a0 = u64 [s1 + 0x10]\n 30517: u64 [a3 + 0xd0] = a0\n 30521: a0 = u64 [s1 + 0x18]\n 30524: u64 [a3 + 0xc8] = a0\n 30528: a0 = 0x20\n 30531: a1 = s1 + 0x1c0\n 30535: a2 = u64 [s1 + 0x20]\n 30538: u64 [a3 + 0xc0] = a2\n 30542: ra = 1358, jump @19\n      : @1265 [@dyn 679] (gas: 3)\n 30548: a1 = u64 [s1 + 0x68]\n 30551: a0 = i32 [a1]\n 30553: jump @1267 if a0 >u 63\n      : @1266 (gas: 2)\n 30557: u32 [a1 + 0] = 0x40\n 30560: fallthrough\n      : @1267 (gas: 4)\n 30561: a0 = sp + 0xffffffffffffffe0\n 30564: a0 = a0 & 0xffffffffffffffe0\n 30567: u64 [s1 + 0x20] = a0\n 30570: t0 = 1360, jump @1362\n      : @1268 [@dyn 680] (gas: 5)\n 30576: ra = 0x552\n 30580: ecalli 6 // 'hash_keccak_256'\n 30582: a3 = u64 [s1 + 0x20]\n 30585: t0 = 0x554\n 30589: jump @1361\n      : @1269 [@dyn 681] (gas: 2)\n 30592: a3 = u64 [s1 + 0x20]\n 30595: t0 = 1364, jump @1361\n      : @1270 [@dyn 682] (gas: 2)\n 30601: a0 = s1 + 0x1a0\n 30605: ra = 1366, jump @21\n      : @1271 [@dyn 683] (gas: 2)\n 30611: a0 = u8 [s1 + 0x1a0]\n 30615: jump @1293 if a0 == 0\n      : @1272 (gas: 11)\n 30619: a0 = u64 [s1 + 0x58]\n 30622: u64 [s1 + 0x180] = a0\n 30626: a0 = u64 [s1 + 0x50]\n 30629: u64 [s1 + 0x188] = a0\n 30633: a0 = u64 [s1 + 0x48]\n 30636: u64 [s1 + 0x190] = a0\n 30640: a1 = s1 + 0x180\n 30644: a0 = u64 [s1 + 0x40]\n 30647: u64 [s1 + 0x198] = a0\n 30651: a0 = 0\n 30653: ra = 1368, jump @19\n      : @1273 [@dyn 684] (gas: 1)\n 30659: t0 = 1370, jump @1358\n      : @1274 [@dyn 685] (gas: 1)\n 30665: ra = 1372, jump @19\n      : @1275 [@dyn 686] (gas: 3)\n 30671: a1 = u64 [s1 + 0x68]\n 30674: a0 = i32 [a1]\n 30676: jump @1277 if a0 >u 63\n      : @1276 (gas: 2)\n 30680: u32 [a1 + 0] = 0x40\n 30683: fallthrough\n      : @1277 (gas: 4)\n 30684: a0 = sp + 0xffffffffffffffe0\n 30687: a0 = a0 & 0xffffffffffffffe0\n 30690: u64 [s1 + 0x28] = a0\n 30693: t0 = 1374, jump @1362\n      : @1278 [@dyn 687] (gas: 4)\n 30699: ra = 0x560\n 30703: ecalli 6 // 'hash_keccak_256'\n 30705: t0 = 0x562\n 30709: jump @1348\n      : @1279 [@dyn 688] (gas: 1)\n 30712: t0 = 1378, jump @1348\n      : @1280 [@dyn 689] (gas: 10)\n 30718: u64 [s1 + 344] = 0\n 30722: a0 = u64 [s1 + 0x38]\n 30725: u64 [s1 + 0x150] = a0\n 30729: a0 = u64 [s1 + 0x70]\n 30732: u64 [s1 + 0x148] = a0\n 30736: a1 = s1 + 0x140\n 30740: a0 = u64 [s1 + 0x78]\n 30743: u64 [s1 + 0x140] = a0\n 30747: a0 = 0\n 30749: ra = 1380, jump @19\n      : @1281 [@dyn 690] (gas: 12)\n 30755: a0 = u64 [s1 + 0x8]\n 30758: a3 = s1 + 0x100\n 30762: u64 [a3 + 0x38] = a0\n 30765: a0 = u64 [s1 + 0x10]\n 30768: u64 [a3 + 0x30] = a0\n 30771: a0 = u64 [s1 + 0x18]\n 30774: u64 [a3 + 0x28] = a0\n 30777: a0 = 0x20\n 30780: a1 = s1 + 0x120\n 30784: a2 = u64 [s1 + 0x20]\n 30787: u64 [a3 + 0x20] = a2\n 30790: ra = 1382, jump @19\n      : @1282 [@dyn 691] (gas: 3)\n 30796: a1 = u64 [s1 + 0x68]\n 30799: a0 = i32 [a1]\n 30801: jump @1284 if a0 >u 63\n      : @1283 (gas: 2)\n 30805: u32 [a1 + 0] = 0x40\n 30808: fallthrough\n      : @1284 (gas: 4)\n 30809: a0 = sp + 0xffffffffffffffe0\n 30812: a0 = a0 & 0xffffffffffffffe0\n 30815: u64 [s1 + 0x68] = a0\n 30818: t0 = 1384, jump @1362\n      : @1285 [@dyn 692] (gas: 5)\n 30824: ra = 0x56a\n 30828: ecalli 6 // 'hash_keccak_256'\n 30830: a3 = u64 [s1 + 0x68]\n 30833: t0 = 0x56c\n 30837: jump @1361\n      : @1286 [@dyn 693] (gas: 2)\n 30840: a3 = u64 [s1 + 0x68]\n 30843: t0 = 1388, jump @1361\n      : @1287 [@dyn 694] (gas: 2)\n 30849: a0 = s1 + 0x100\n 30853: ra = 1390, jump @21\n      : @1288 [@dyn 695] (gas: 14)\n 30859: a4 = s1 + 0x100\n 30863: a0 = u64 [a4]\n 30865: a1 = u64 [a4 + 0x18]\n 30868: a2 = u64 [a4 + 0x10]\n 30871: a3 = u64 [a4 + 0x8]\n 30874: a0 = a0 & 0xffffffffffffff00\n 30878: a4 = s1 + 0x200\n 30882: u64 [a4 + 0x58] = a1\n 30885: u64 [a4 + 0x50] = a2\n 30888: u64 [a4 + 0x48] = a3\n 30891: u64 [a4 + 0x40] = a0\n 30894: a1 = s1 + 0x240\n 30898: a0 = u64 [s1 + 0x28]\n 30901: ra = 1392, jump @24\n      : @1289 [@dyn 696] (gas: 8)\n 30907: a0 = 0x30280\n 30912: u64 [s1 + 0x68] = a0\n 30915: i32 a0 = a0 + 0\n 30917: ra = 0x572\n 30921: ecalli 3 // 'caller'\n 30923: a2 = u64 [s1 + 0x68]\n 30926: t0 = 0x574\n 30930: jump @1347\n      : @1290 [@dyn 697] (gas: 2)\n 30933: a2 = u64 [s1 + 0x68]\n 30936: t0 = 1396, jump @1347\n      : @1291 [@dyn 698] (gas: 40)\n 30942: t0 = a1 | a0\n 30945: a3 = a3 >> 0x20\n 30948: a2 = reverse a2\n 30950: a1 = a2 << 0x20\n 30953: a1 = a1 | a3\n 30956: a2 = a2 >> 0x20\n 30959: u64 [s1 + 152] = 0\n 30963: u64 [s1 + 184] = 0\n 30967: a0 = u64 [s1 + 0x38]\n 30970: u64 [s1 + 0xb0] = a0\n 30974: a0 = u64 [s1 + 0x70]\n 30977: u64 [s1 + 0xa8] = a0\n 30981: a0 = u64 [s1 + 0x78]\n 30984: u64 [s1 + 0xa0] = a0\n 30988: a0 = u64 [s1 + 0x40]\n 30991: u64 [s1 + 0xd8] = a0\n 30995: a0 = u64 [s1 + 0x48]\n 30998: u64 [s1 + 0xd0] = a0\n 31002: a0 = u64 [s1 + 0x50]\n 31005: u64 [s1 + 0xc8] = a0\n 31009: a0 = u64 [s1 + 0x58]\n 31012: u64 [s1 + 0xc0] = a0\n 31016: a3 = u64 [0x20228]\n 31021: a4 = u64 [0x20230]\n 31026: a5 = u64 [0x20238]\n 31031: a0 = u64 [0x20240]\n 31036: u64 [s1 + 0xf8] = a3\n 31040: u64 [s1 + 0xf0] = a4\n 31044: u64 [s1 + 0xe8] = a5\n 31048: u64 [s1 + 0xe0] = a0\n 31052: u64 [s1 + 0x90] = a2\n 31056: u64 [s1 + 0x88] = a1\n 31060: a2 = s1 + 0xe0\n 31064: a3 = s1 + 0xc0\n 31068: a4 = s1 + 0xa0\n 31072: a5 = s1 + 0x80\n 31076: u64 [s1 + 0x80] = t0\n 31080: a0 = 0\n 31082: a1 = 0\n 31084: ra = 1398, jump @30\n      : @1292 [@dyn 699] (gas: 5)\n 31090: a0 = 0\n 31092: a1 = 0x1\n 31095: a2 = u64 [s1 + 0x30]\n 31098: t0 = 0x578\n 31102: jump @1357\n      : @1293 (gas: 3)\n 31105: a1 = 0\n 31107: a2 = u64 [s1 + 0x30]\n 31110: t0 = 1400, jump @1357\n      : @1294 [@dyn 700] (gas: 1)\n 31116: ret\n      : @1295 (gas: 17)\n 31118: sp = sp + 0xfffffffffffffc80\n 31122: a2 = sp + 0x300\n 31126: u64 [a2 + 0x78] = ra\n 31129: u64 [a2 + 0x70] = s0\n 31132: u64 [a2 + 0x68] = s1\n 31135: s0 = sp + 0x380\n 31139: sp = sp & 0xffffffffffffffe0\n 31142: s1 = sp\n 31144: a3 = u32 [a0 + 0x10]\n 31147: a2 = u64 [a0]\n 31149: a4 = u64 [a0 + 0x8]\n 31152: u64 [s1 + 0x58] = a2\n 31155: u64 [s1 + 0x48] = a3\n 31158: a0 = a2 | a3\n 31161: u64 [s1 + 0x50] = a4\n 31164: a0 = a0 | a4\n 31167: jump @1322 if a0 == 0\n      : @1296 (gas: 9)\n 31171: a0 = u64 [a1 + 0x18]\n 31174: u64 [s1 + 0x78] = a0\n 31177: a0 = u64 [a1 + 0x10]\n 31180: u64 [s1 + 0x68] = a0\n 31183: a0 = u64 [a1 + 0x8]\n 31186: u64 [s1 + 0x60] = a0\n 31189: a0 = u64 [a1]\n 31191: u64 [s1 + 0x70] = a0\n 31194: ra = 1402, jump @1334\n      : @1297 [@dyn 701] (gas: 11)\n 31200: u64 [s1 + 664] = 0\n 31204: a0 = u64 [s1 + 0x48]\n 31207: a2 = s1 + 0x200\n 31211: u64 [a2 + 0x90] = a0\n 31215: a0 = u64 [s1 + 0x50]\n 31218: u64 [a2 + 0x88] = a0\n 31222: a1 = s1 + 0x280\n 31226: a0 = u64 [s1 + 0x58]\n 31229: u64 [a2 + 0x80] = a0\n 31233: a0 = 0\n 31235: ra = 1404, jump @19\n      : @1298 [@dyn 702] (gas: 1)\n 31241: t0 = 1406, jump @1400\n      : @1299 [@dyn 703] (gas: 1)\n 31247: ra = 1408, jump @19\n      : @1300 [@dyn 704] (gas: 3)\n 31253: a2 = 0x2026c\n 31258: a0 = i32 [0x2026c]\n 31263: jump @1302 if a0 >u 63\n      : @1301 (gas: 2)\n 31267: u32 [0x2026c] = 0x40\n 31273: fallthrough\n      : @1302 (gas: 13)\n 31274: u64 [s1 + 0x38] = a2\n 31277: a0 = sp + 0xffffffffffffffe0\n 31280: a2 = a0 & 0xffffffffffffffe0\n 31283: u64 [s1 + 0x30] = a2\n 31286: sp = a2\n 31288: a0 = 0x20280\n 31293: i32 a0 = a0 + 0\n 31295: i32 a2 = a2 + 0\n 31297: a1 = 0x40\n 31300: u64 [s1 + 0x40] = a0\n 31303: ra = 0x582\n 31307: ecalli 6 // 'hash_keccak_256'\n 31309: fallthrough\n      : @1303 [@dyn 705] (gas: 6)\n 31310: a3 = u64 [s1 + 0x30]\n 31313: a0 = u64 [a3 + 0x18]\n 31316: a1 = u64 [a3 + 0x10]\n 31319: a2 = u64 [a3 + 0x8]\n 31322: a3 = u64 [a3]\n 31324: t0 = 1412, jump @1373\n      : @1304 [@dyn 706] (gas: 7)\n 31330: u64 [s1 + 0x2b8] = a3\n 31334: u64 [s1 + 0x2b0] = a2\n 31338: u64 [s1 + 0x2a8] = a1\n 31342: u64 [s1 + 0x2a0] = a0\n 31346: a0 = s1 + 0x240\n 31350: a1 = s1 + 0x2a0\n 31354: ra = 1414, jump @21\n      : @1305 [@dyn 707] (gas: 28)\n 31360: a1 = s1 + 0x200\n 31364: a2 = u64 [a1 + 0x58]\n 31367: a0 = u64 [a1 + 0x50]\n 31370: a5 = u64 [a1 + 0x48]\n 31373: a4 = u64 [a1 + 0x40]\n 31376: a1 = u64 [s1 + 0x78]\n 31379: t1 = a2 ^ a1\n 31382: u64 [s1 + 0x20] = a2\n 31385: a1 = a2 <u a1\n 31388: a2 = u64 [s1 + 0x68]\n 31391: a3 = a0 <u a2\n 31394: u64 [s1 + 0x8] = a3\n 31397: a1 = a3 if t1 == 0\n 31400: a3 = u64 [s1 + 0x60]\n 31403: t0 = a5 ^ a3\n 31406: u64 [s1 + 0x28] = a5\n 31409: a5 = a5 <u a3\n 31412: a3 = u64 [s1 + 0x70]\n 31415: u64 [s1 + 0x30] = a4\n 31418: a3 = a4 <u a3\n 31421: u64 [s1 + 0x10] = a3\n 31424: a5 = a3 if t0 == 0\n 31427: u64 [s1 + 0x18] = a0\n 31430: a2 = a2 ^ a0\n 31433: a0 = a2 | t1\n 31436: u64 [s1] = a5\n 31438: a1 = a5 if a0 == 0\n 31441: jump @1327 if a1 != 0\n      : @1306 (gas: 11)\n 31445: u64 [s1 + 568] = 0\n 31449: a0 = u64 [s1 + 0x58]\n 31452: a2 = s1 + 0x200\n 31456: u64 [a2 + 0x20] = a0\n 31459: a0 = u64 [s1 + 0x50]\n 31462: u64 [a2 + 0x28] = a0\n 31465: a1 = s1 + 0x220\n 31469: a0 = u64 [s1 + 0x48]\n 31472: u64 [a2 + 0x30] = a0\n 31475: a0 = 0\n 31477: ra = 1416, jump @19\n      : @1307 [@dyn 708] (gas: 7)\n 31483: u64 [s1 + 536] = 0\n 31487: u64 [s1 + 528] = 0\n 31491: u64 [s1 + 520] = 0\n 31495: a0 = 0x20\n 31498: a1 = s1 + 0x200\n 31502: u64 [s1 + 512] = 0\n 31506: ra = 1418, jump @19\n      : @1308 [@dyn 709] (gas: 27)\n 31512: a0 = u64 [s1 + 0x68]\n 31515: a1 = u64 [s1 + 0x18]\n 31518: a0 = a1 - a0\n 31521: a2 = u64 [s1]\n 31523: a1 = a0 - a2\n 31526: u64 [s1 + 0x18] = a1\n 31529: a0 = a0 <u a2\n 31532: a1 = u64 [s1 + 0x78]\n 31535: a2 = u64 [s1 + 0x20]\n 31538: a1 = a2 - a1\n 31541: a2 = u64 [s1 + 0x8]\n 31544: a1 = a1 - a2\n 31547: a1 = a1 - a0\n 31550: u64 [s1 + 0x20] = a1\n 31553: a2 = u64 [s1 + 0x38]\n 31556: a0 = i32 [a2]\n 31558: a1 = u64 [s1 + 0x60]\n 31561: a3 = u64 [s1 + 0x28]\n 31564: a1 = a3 - a1\n 31567: a3 = u64 [s1 + 0x10]\n 31570: a1 = a1 - a3\n 31573: u64 [s1 + 0x28] = a1\n 31576: a3 = u64 [s1 + 0x70]\n 31579: a4 = u64 [s1 + 0x30]\n 31582: a4 = a4 - a3\n 31585: u64 [s1 + 0x30] = a4\n 31588: jump @1310 if a0 >u 63\n      : @1309 (gas: 2)\n 31592: u32 [a2 + 0] = 0x40\n 31595: fallthrough\n      : @1310 (gas: 10)\n 31596: a0 = sp + 0xffffffffffffffe0\n 31599: a0 = a0 & 0xffffffffffffffe0\n 31602: u64 [s1 + 0x38] = a0\n 31605: sp = a0\n 31607: i32 a2 = a0 + 0\n 31609: a1 = 0x40\n 31612: a0 = u64 [s1 + 0x40]\n 31615: ra = 0x58c\n 31619: ecalli 6 // 'hash_keccak_256'\n 31621: fallthrough\n      : @1311 [@dyn 710] (gas: 6)\n 31622: a3 = u64 [s1 + 0x38]\n 31625: a0 = u64 [a3 + 0x18]\n 31628: a1 = u64 [a3 + 0x10]\n 31631: a2 = u64 [a3 + 0x8]\n 31634: a3 = u64 [a3]\n 31636: t0 = 1422, jump @1373\n      : @1312 [@dyn 711] (gas: 16)\n 31642: a4 = s1 + 0x200\n 31646: u64 [a4 + 0xd8] = a3\n 31650: u64 [a4 + 0xd0] = a2\n 31654: u64 [a4 + 0xc8] = a1\n 31658: u64 [a4 + 0xc0] = a0\n 31662: a0 = u64 [s1 + 0x20]\n 31665: u64 [a4 + 0xf8] = a0\n 31669: a0 = u64 [s1 + 0x18]\n 31672: u64 [a4 + 0xf0] = a0\n 31676: a0 = u64 [s1 + 0x28]\n 31679: u64 [a4 + 0xe8] = a0\n 31683: a0 = u64 [s1 + 0x30]\n 31686: u64 [a4 + 0xe0] = a0\n 31690: a0 = s1 + 0x2c0\n 31694: a1 = s1 + 0x2e0\n 31698: ra = 1424, jump @24\n      : @1313 [@dyn 712] (gas: 7)\n 31704: u64 [s1 + 792] = 0\n 31708: u64 [s1 + 784] = 0\n 31712: u64 [s1 + 776] = 0\n 31716: u64 [s1 + 768] = 0x2\n 31721: a0 = s1 + 0x1e0\n 31725: a1 = s1 + 0x300\n 31729: ra = 1426, jump @21\n      : @1314 [@dyn 713] (gas: 34)\n 31735: a1 = u64 [s1 + 0x1e8]\n 31739: t0 = u64 [s1 + 0x1f8]\n 31743: t1 = u64 [s1 + 0x1e0]\n 31747: a3 = u64 [s1 + 0x1f0]\n 31751: a4 = u64 [s1 + 0x60]\n 31754: a0 = a1 ^ a4\n 31757: a5 = a1 <u a4\n 31760: ra = u64 [s1 + 0x70]\n 31763: t2 = t1 <u ra\n 31766: a5 = t2 if a0 == 0\n 31769: a0 = u64 [s1 + 0x68]\n 31772: a2 = a3 - a0\n 31775: a3 = a3 <u a0\n 31778: a0 = u64 [s1 + 0x78]\n 31781: a0 = t0 - a0\n 31784: a0 = a0 - a3\n 31787: a3 = a2 <u a5\n 31790: a0 = a0 - a3\n 31793: a3 = a2 - a5\n 31796: a1 = a1 - a4\n 31799: a1 = a1 - t2\n 31802: a4 = s1 + 0x300\n 31806: u64 [a4 + 32] = 0x2\n 31810: a2 = t1 - ra\n 31813: u64 [a4 + 0x40] = a2\n 31816: u64 [a4 + 0x48] = a1\n 31819: u64 [a4 + 0x50] = a3\n 31822: u64 [a4 + 0x58] = a0\n 31825: u64 [s1 + 824] = 0\n 31829: u64 [s1 + 816] = 0\n 31833: u64 [s1 + 808] = 0\n 31837: a0 = s1 + 0x320\n 31841: a1 = s1 + 0x340\n 31845: ra = 1428, jump @24\n      : @1315 [@dyn 714] (gas: 3)\n 31851: a0 = s1 + 0x1c0\n 31855: a1 = 0x40\n 31858: ra = 1430, jump @17\n      : @1316 [@dyn 715] (gas: 6)\n 31864: a4 = s1 + 0x100\n 31868: a3 = u64 [a4 + 0xd8]\n 31872: a1 = u64 [a4 + 0xd0]\n 31876: a2 = u64 [a4 + 0xc8]\n 31880: a0 = u64 [a4 + 0xc0]\n 31884: t0 = 1432, jump @1356\n      : @1317 [@dyn 716] (gas: 1)\n 31890: jump @1321 if a1 != 0\n      : @1318 (gas: 11)\n 31894: a1 = u64 [s1 + 0x70]\n 31897: u64 [s1 + 0x1a0] = a1\n 31901: a1 = u64 [s1 + 0x60]\n 31904: u64 [s1 + 0x1a8] = a1\n 31908: a1 = u64 [s1 + 0x68]\n 31911: u64 [s1 + 0x1b0] = a1\n 31915: a1 = s1 + 0x1a0\n 31919: a2 = u64 [s1 + 0x78]\n 31922: u64 [s1 + 0x1b8] = a2\n 31926: u64 [s1 + 0x78] = a0\n 31929: ra = 1434, jump @19\n      : @1319 [@dyn 717] (gas: 26)\n 31935: u64 [s1 + 344] = 0\n 31939: u64 [s1 + 336] = 0\n 31943: u64 [s1 + 328] = 0\n 31947: u64 [s1 + 320] = 0\n 31951: u64 [s1 + 376] = 0\n 31955: a0 = u64 [s1 + 0x48]\n 31958: a5 = s1 + 0x100\n 31962: u64 [a5 + 0x70] = a0\n 31965: a0 = u64 [s1 + 0x50]\n 31968: u64 [a5 + 0x68] = a0\n 31971: a0 = u64 [0x20248]\n 31976: a1 = u64 [0x20250]\n 31981: a2 = u64 [0x20258]\n 31986: a3 = u64 [s1 + 0x58]\n 31989: u64 [a5 + 0x60] = a3\n 31992: u64 [a5 + 0x98] = a0\n 31996: u64 [a5 + 0x90] = a1\n 32000: u64 [a5 + 0x88] = a2\n 32004: a0 = u64 [0x20260]\n 32009: a1 = 0x20\n 32012: a2 = s1 + 0x180\n 32016: a3 = s1 + 0x160\n 32020: a4 = s1 + 0x140\n 32024: u64 [a5 + 0x80] = a0\n 32028: a0 = u64 [s1 + 0x78]\n 32031: ra = 1436, jump @27\n      : @1320 [@dyn 718] (gas: 7)\n 32037: sp = s0 + 0xfffffffffffffc80\n 32041: a0 = sp + 0x300\n 32045: ra = u64 [a0 + 0x78]\n 32048: s0 = u64 [a0 + 0x70]\n 32051: s1 = u64 [a0 + 0x68]\n 32054: sp = sp + 0x380\n 32058: ret\n      : @1321 (gas: 1)\n 32060: trap\n      : @1322 (gas: 8)\n 32061: u64 [s1 + 176] = 0\n 32065: u64 [s1 + 168] = 0\n 32069: u64 [s1 + 160] = 0\n 32073: a0 = 0x96c6fd1e00000000\n 32083: a1 = s1 + 0xa0\n 32087: u64 [s1 + 0xb8] = a0\n 32091: a0 = 0\n 32093: ra = 1438, jump @19\n      : @1323 [@dyn 719] (gas: 7)\n 32099: u64 [s1 + 152] = 0\n 32103: u64 [s1 + 144] = 0\n 32107: u64 [s1 + 136] = 0\n 32111: a0 = 0x4\n 32114: a1 = s1 + 0x80\n 32118: u64 [s1 + 128] = 0\n 32122: ra = 1440, jump @19\n      : @1324 [@dyn 720] (gas: 2)\n 32128: a1 = i32 [0x2026c]\n 32133: jump @1326 if a1 >u 63\n      : @1325 (gas: 2)\n 32137: u32 [0x2026c] = 0x40\n 32143: fallthrough\n      : @1326 (gas: 6)\n 32144: a1 = 0x20280\n 32149: i32 a1 = a1 + 0\n 32151: a0 = 0x1\n 32154: a2 = 0x24\n 32157: ecalli 7 // 'seal_return'\n 32159: fallthrough\n      : @1327 (gas: 8)\n 32160: u64 [s1 + 304] = 0\n 32164: u64 [s1 + 296] = 0\n 32168: u64 [s1 + 288] = 0\n 32172: a0 = 0xe450d38c00000000\n 32182: a1 = s1 + 0x120\n 32186: u64 [s1 + 0x138] = a0\n 32190: a0 = 0\n 32192: ra = 1442, jump @19\n      : @1328 [@dyn 721] (gas: 11)\n 32198: u64 [s1 + 280] = 0\n 32202: a0 = u64 [s1 + 0x48]\n 32205: a3 = s1 + 0x100\n 32209: u64 [a3 + 0x10] = a0\n 32212: a0 = u64 [s1 + 0x50]\n 32215: u64 [a3 + 0x8] = a0\n 32218: a0 = 0x4\n 32221: a1 = s1 + 0x100\n 32225: a2 = u64 [s1 + 0x58]\n 32228: u64 [a3] = a2\n 32230: ra = 1444, jump @19\n      : @1329 [@dyn 722] (gas: 11)\n 32236: a0 = u64 [s1 + 0x20]\n 32239: u64 [s1 + 0xf8] = a0\n 32243: a0 = u64 [s1 + 0x18]\n 32246: u64 [s1 + 0xf0] = a0\n 32250: a0 = u64 [s1 + 0x28]\n 32253: u64 [s1 + 0xe8] = a0\n 32257: a0 = 0x24\n 32260: a1 = s1 + 0xe0\n 32264: a2 = u64 [s1 + 0x30]\n 32267: u64 [s1 + 0xe0] = a2\n 32271: ra = 1446, jump @19\n      : @1330 [@dyn 723] (gas: 11)\n 32277: a0 = u64 [s1 + 0x78]\n 32280: u64 [s1 + 0xd8] = a0\n 32284: a0 = u64 [s1 + 0x68]\n 32287: u64 [s1 + 0xd0] = a0\n 32291: a0 = u64 [s1 + 0x60]\n 32294: u64 [s1 + 0xc8] = a0\n 32298: a0 = 0x44\n 32301: a1 = s1 + 0xc0\n 32305: a2 = u64 [s1 + 0x70]\n 32308: u64 [s1 + 0xc0] = a2\n 32312: ra = 1448, jump @19\n      : @1331 [@dyn 724] (gas: 3)\n 32318: a0 = u64 [s1 + 0x38]\n 32321: a0 = i32 [a0]\n 32323: jump @1333 if a0 >u 127\n      : @1332 (gas: 3)\n 32327: a1 = u64 [s1 + 0x38]\n 32330: u32 [a1 + 0] = 0x80\n 32334: fallthrough\n      : @1333 (gas: 6)\n 32335: a0 = 0x1\n 32338: a2 = 0x64\n 32341: a1 = u64 [s1 + 0x40]\n 32344: ra = 0x5aa\n 32348: ecalli 7 // 'seal_return'\n 32350: fallthrough\n      : @1334 [@dyn 725] (gas: 12)\n 32351: sp = sp + 0xffffffffffffff80\n 32354: u64 [sp + 0x78] = ra\n 32357: u64 [sp + 0x70] = s0\n 32360: s0 = sp + 0x80\n 32364: sp = sp & 0xffffffffffffffe0\n 32367: u64 [sp + 88] = 0\n 32370: u64 [sp + 80] = 0\n 32373: u64 [sp + 72] = 0\n 32376: u64 [sp + 64] = 0x5\n 32380: a0 = sp + 0x20\n 32383: a1 = sp + 0x40\n 32386: ra = 1452, jump @21\n      : @1335 [@dyn 726] (gas: 2)\n 32392: a0 = u8 [sp + 0x20]\n 32395: jump @1337 if a0 != 0\n      : @1336 (gas: 5)\n 32398: sp = s0 + 0xffffffffffffff80\n 32401: ra = u64 [sp + 0x78]\n 32404: s0 = u64 [sp + 0x70]\n 32407: sp = sp + 0x80\n 32411: ret\n      : @1337 (gas: 8)\n 32413: u64 [sp + 16] = 0\n 32416: u64 [sp + 8] = 0\n 32419: u64 [sp + 0] = 0\n 32421: a0 = 0xd93c066500000000\n 32431: a1 = sp\n 32433: u64 [sp + 0x18] = a0\n 32436: a0 = 0\n 32438: ra = 1454, jump @19\n      : @1338 [@dyn 727] (gas: 2)\n 32444: a1 = i32 [0x2026c]\n 32449: jump @1340 if a1 >u 31\n      : @1339 (gas: 2)\n 32453: u32 [0x2026c] = 0x20\n 32459: fallthrough\n      : @1340 (gas: 8)\n 32460: a1 = 0x20280\n 32465: i32 a1 = a1 + 0\n 32467: a0 = 0x1\n 32470: a2 = 0x4\n 32473: ecalli 7 // 'seal_return'\n 32475: a0 = 0\n 32477: ra = 0x5b0\n 32481: jump @39\n      : @1341 [export #0: 'call'] (gas: 2)\n 32484: a0 = 0\n 32486: ra = 1456, jump @39\n      : @1342 [@dyn 728] [export #1: 'deploy'] (gas: 2)\n 32492: a0 = 0x1\n 32495: ra = 1458, jump @39\n      : @1343 [@dyn 729] (gas: 16)\n 32501: a0 = u64 [a2 + 0x8]\n 32504: a1 = i32 [a2 + 0x10]\n 32507: a2 = u64 [a2]\n 32509: a0 = reverse a0\n 32511: a3 = a0 << 0x20\n 32514: a1 = reverse a1\n 32516: a1 = a1 >> 0x20\n 32519: a3 = a3 | a1\n 32522: a0 = a0 >> 0x20\n 32525: a1 = reverse a2\n 32527: a2 = a1 << 0x20\n 32530: a0 = a0 | a2\n 32533: a1 = a1 >> 0x20\n 32536: a2 = s1 + 0x7ff\n 32540: a2 = a2 + 0x39\n 32543: jump [t0]\n      : @1344 (gas: 14)\n 32545: a0 = u64 [a2 + 0x8]\n 32548: a1 = i32 [a2 + 0x10]\n 32551: a2 = u64 [a2]\n 32553: a0 = reverse a0\n 32555: a3 = a0 << 0x20\n 32558: a1 = reverse a1\n 32560: a1 = a1 >> 0x20\n 32563: a3 = a3 | a1\n 32566: a0 = a0 >> 0x20\n 32569: a1 = reverse a2\n 32571: a2 = a1 << 0x20\n 32574: a0 = a0 | a2\n 32577: a1 = a1 >> 0x20\n 32580: jump [t0]\n      : @1345 (gas: 30)\n 32582: a3 = u64 [s1 + 0x48]\n 32585: a0 = u64 [a3 + 0x18]\n 32588: a1 = u64 [a3 + 0x10]\n 32591: a2 = u64 [a3 + 0x8]\n 32594: a3 = u64 [a3]\n 32596: a0 = reverse a0\n 32598: u64 [s1 + 0x40] = a0\n 32601: a0 = reverse a1\n 32603: u64 [s1 + 0x38] = a0\n 32606: a0 = reverse a2\n 32608: u64 [s1 + 0x30] = a0\n 32611: a0 = reverse a3\n 32613: u64 [s1 + 0x28] = a0\n 32616: a0 = sp + 0xffffffffffffffe0\n 32619: a0 = a0 & 0xffffffffffffffe0\n 32622: u64 [s1 + 0x48] = a0\n 32625: sp = a0\n 32627: a0 = u64 [s1 + 0x50]\n 32630: a0 = a0 << 0x20\n 32633: a0 = a0 >> 0x20\n 32636: u64 [s1 + 504] = 0\n 32640: u64 [s1] = a0\n 32642: u64 [s1 + 0x1f0] = a0\n 32646: a0 = u64 [s1 + 0x70]\n 32649: u64 [s1 + 0x1e8] = a0\n 32653: a1 = s1 + 0x1e0\n 32657: a0 = u64 [s1 + 0x78]\n 32660: u64 [s1 + 0x1e0] = a0\n 32664: a0 = 0\n 32666: jump [t0]\n      : @1346 (gas: 27)\n 32668: a3 = u64 [s1 + 0x50]\n 32671: a0 = u64 [a3 + 0x18]\n 32674: a1 = u64 [a3 + 0x10]\n 32677: a2 = u64 [a3 + 0x8]\n 32680: a3 = u64 [a3]\n 32682: a0 = reverse a0\n 32684: u64 [s1 + 0x48] = a0\n 32687: a0 = reverse a1\n 32689: u64 [s1 + 0x40] = a0\n 32692: a0 = reverse a2\n 32694: u64 [s1 + 0x38] = a0\n 32697: a0 = reverse a3\n 32699: u64 [s1 + 0x30] = a0\n 32702: a0 = sp + 0xffffffffffffffe0\n 32705: a0 = a0 & 0xffffffffffffffe0\n 32708: u64 [s1 + 0x50] = a0\n 32711: sp = a0\n 32713: u64 [s1 + 344] = 0\n 32717: a0 = u64 [s1]\n 32719: u64 [s1 + 0x150] = a0\n 32723: a0 = u64 [s1 + 0x70]\n 32726: u64 [s1 + 0x148] = a0\n 32730: a1 = s1 + 0x140\n 32734: a0 = u64 [s1 + 0x78]\n 32737: u64 [s1 + 0x140] = a0\n 32741: a0 = 0\n 32743: jump [t0]\n      : @1347 (gas: 8)\n 32745: a0 = u64 [a2 + 0x8]\n 32748: a1 = i32 [a2 + 0x10]\n 32751: a2 = u64 [a2]\n 32753: a3 = reverse a0\n 32755: a0 = a3 << 0x20\n 32758: a1 = reverse a1\n 32760: a1 = a1 >> 0x20\n 32763: jump [t0]\n      : @1348 (gas: 18)\n 32765: a3 = u64 [s1 + 0x28]\n 32768: a0 = u64 [a3 + 0x18]\n 32771: a1 = u64 [a3 + 0x10]\n 32774: a2 = u64 [a3 + 0x8]\n 32777: a3 = u64 [a3]\n 32779: a0 = reverse a0\n 32781: u64 [s1 + 0x20] = a0\n 32784: a0 = reverse a1\n 32786: u64 [s1 + 0x18] = a0\n 32789: a0 = reverse a2\n 32791: u64 [s1 + 0x10] = a0\n 32794: a0 = reverse a3\n 32796: u64 [s1 + 0x8] = a0\n 32799: a0 = sp + 0xffffffffffffffe0\n 32802: a0 = a0 & 0xffffffffffffffe0\n 32805: u64 [s1 + 0x28] = a0\n 32808: sp = a0\n 32810: jump [t0]\n      : @1349 (gas: 26)\n 32812: a3 = u64 [s1 + 0x80]\n 32816: a3 = a3 + 0x1\n 32819: a0 = a3 <u 0x1\n 32822: ra = u64 [s1 + 0x88]\n 32826: ra = ra + a0\n 32829: a0 = a3 | ra\n 32832: a0 = a0 <u 0x1\n 32835: a1 = u64 [s1 + 0x78]\n 32838: t2 = a1 + a0\n 32841: a1 = t2 <u a1\n 32844: a0 = u64 [s1 + 0x90]\n 32848: a0 = a0 + a1\n 32851: a1 = u64 [s1 + 0xb8]\n 32855: t1 = a1 + 0x20\n 32858: a2 = t1 <u a1\n 32861: a4 = u64 [s1 + 0xa0]\n 32865: a1 = a4 + a2\n 32868: a4 = a1 <u a4\n 32871: a4 = a2 if a2 == 0\n 32874: a2 = u64 [s1 + 0xa8]\n 32878: a4 = a4 + a2\n 32881: a2 = a4 <u a2\n 32884: a5 = u64 [s1 + 0xb0]\n 32888: a5 = a5 + a2\n 32891: u64 [s1 + 0xb0] = a5\n 32895: jump [t0]\n      : @1350 (gas: 16)\n 32897: a3 = u64 [s1 + 0x68]\n 32900: a0 = u64 [a3 + 0x18]\n 32903: a1 = u64 [a3 + 0x10]\n 32906: a2 = u64 [a3 + 0x8]\n 32909: a3 = u64 [a3]\n 32911: a0 = reverse a0\n 32913: a4 = reverse a1\n 32915: a2 = reverse a2\n 32917: a3 = reverse a3\n 32919: a1 = u64 [s1 + 0x50]\n 32922: u64 [a1 + 0x18] = a3\n 32925: u64 [a1 + 0x10] = a2\n 32928: u64 [a1 + 0x8] = a4\n 32931: u64 [a1] = a0\n 32933: a0 = s1 + 0x100\n 32937: jump [t0]\n      : @1351 (gas: 16)\n 32939: a3 = u64 [s1 + 0x50]\n 32942: a0 = u64 [a3 + 0x18]\n 32945: a1 = u64 [a3 + 0x10]\n 32948: a2 = u64 [a3 + 0x8]\n 32951: a3 = u64 [a3]\n 32953: a0 = reverse a0\n 32955: a4 = reverse a1\n 32957: a2 = reverse a2\n 32959: a3 = reverse a3\n 32961: a1 = u64 [s1 + 0x48]\n 32964: u64 [a1 + 0x18] = a3\n 32967: u64 [a1 + 0x10] = a2\n 32970: u64 [a1 + 0x8] = a4\n 32973: u64 [a1] = a0\n 32975: a0 = s1 + 0x1a0\n 32979: jump [t0]\n      : @1352 (gas: 9)\n 32981: a0 = u64 [a3 + 0x18]\n 32984: a1 = u64 [a3 + 0x10]\n 32987: a2 = u64 [a3 + 0x8]\n 32990: a3 = u64 [a3]\n 32992: a0 = reverse a0\n 32994: a4 = reverse a1\n 32996: a2 = reverse a2\n 32998: a3 = reverse a3\n 33000: jump [t0]\n      : @1353 (gas: 8)\n 33002: a0 = sp + 0xffffffffffffffe0\n 33005: a0 = a0 & 0xffffffffffffffe0\n 33008: u64 [s1 + 0x50] = a0\n 33011: sp = a0\n 33013: i32 a2 = a0 + 0\n 33015: a1 = 0x40\n 33018: a0 = u64 [s1 + 0x60]\n 33021: jump [t0]\n      : @1354 (gas: 8)\n 33023: a4 = a4 | a2\n 33026: a2 = a0 | a1\n 33029: a2 = a2 | a4\n 33032: a2 = a2 >> 0x20\n 33035: a1 = a1 | a4\n 33038: a1 = a1 << 0x20\n 33041: a1 = a1 | a2\n 33044: jump [t0]\n      : @1355 (gas: 15)\n 33046: a4 = s1 + 0x100\n 33050: a0 = u64 [a4]\n 33052: a1 = u64 [a4 + 0x8]\n 33055: a2 = u64 [a4 + 0x18]\n 33058: a3 = u64 [a4 + 0x10]\n 33061: a0 = a0 & 0xffffffffffffff00\n 33065: a0 = a0 | 0x1\n 33068: a4 = s1 + 0x200\n 33072: u64 [a4 + 0x58] = a2\n 33075: u64 [a4 + 0x50] = a3\n 33078: u64 [a4 + 0x48] = a1\n 33081: u64 [a4 + 0x40] = a0\n 33084: a1 = s1 + 0x240\n 33088: a0 = u64 [s1 + 0x50]\n 33091: jump [t0]\n      : @1356 (gas: 8)\n 33093: a3 = a3 | a2\n 33096: a2 = a0 | a1\n 33099: a2 = a2 | a3\n 33102: a2 = a2 >> 0x20\n 33105: a1 = a1 | a3\n 33108: a1 = a1 << 0x20\n 33111: a1 = a1 | a2\n 33114: jump [t0]\n      : @1357 (gas: 11)\n 33116: u64 [a2] = a1\n 33118: u64 [a2 + 0x8] = a0\n 33121: u64 [a2 + 0x10] = a0\n 33124: u64 [a2 + 0x18] = a0\n 33127: sp = s0 + 0xfffffffffffffd80\n 33131: a0 = sp + 0x200\n 33135: ra = u64 [a0 + 0x78]\n 33138: s0 = u64 [a0 + 0x70]\n 33141: s1 = u64 [a0 + 0x68]\n 33144: sp = sp + 0x280\n 33148: jump [t0]\n      : @1358 (gas: 7)\n 33150: u64 [s1 + 376] = 0\n 33154: u64 [s1 + 368] = 0\n 33158: u64 [s1 + 352] = 0x6\n 33163: a0 = 0x20\n 33166: a1 = s1 + 0x160\n 33170: u64 [s1 + 360] = 0\n 33174: jump [t0]\n      : @1359 (gas: 7)\n 33176: u64 [s1 + 536] = 0\n 33180: u64 [s1 + 528] = 0\n 33184: u64 [s1 + 512] = 0x6\n 33189: a0 = 0x20\n 33192: a1 = s1 + 0x200\n 33196: u64 [s1 + 520] = 0\n 33200: jump [t0]\n      : @1360 (gas: 21)\n 33202: a2 = u64 [s1 + 0x68]\n 33205: a0 = u64 [a2 + 0x8]\n 33208: a1 = i32 [a2 + 0x10]\n 33211: a2 = u64 [a2]\n 33213: a0 = reverse a0\n 33215: a3 = a0 << 0x20\n 33218: a1 = reverse a1\n 33220: a1 = a1 >> 0x20\n 33223: a3 = a3 | a1\n 33226: a0 = a0 >> 0x20\n 33229: a1 = reverse a2\n 33231: a2 = a1 << 0x20\n 33234: a0 = a0 | a2\n 33237: a1 = a1 >> 0x20\n 33240: u64 [s1 + 312] = 0\n 33244: u64 [s1 + 0x130] = a1\n 33248: u64 [s1 + 0x128] = a0\n 33252: a1 = s1 + 0x120\n 33256: u64 [s1 + 0x120] = a3\n 33260: a0 = 0\n 33262: jump [t0]\n      : @1361 (gas: 14)\n 33264: a0 = u64 [a3 + 0x18]\n 33267: a1 = u64 [a3 + 0x10]\n 33270: a2 = u64 [a3 + 0x8]\n 33273: a3 = u64 [a3]\n 33275: a0 = reverse a0\n 33277: a4 = reverse a1\n 33279: a2 = reverse a2\n 33281: a3 = reverse a3\n 33283: a1 = u64 [s1 + 0x28]\n 33286: u64 [a1 + 0x18] = a3\n 33289: u64 [a1 + 0x10] = a2\n 33292: u64 [a1 + 0x8] = a4\n 33295: u64 [a1] = a0\n 33297: jump [t0]\n      : @1362 (gas: 5)\n 33299: sp = a0\n 33301: i32 a2 = a0 + 0\n 33303: a1 = 0x40\n 33306: a0 = u64 [s1 + 0x60]\n 33309: jump [t0]\n      : @1363 (gas: 19)\n 33311: u64 [s1 + 0x90] = ra\n 33315: a0 = u64 [s1 + 0x70]\n 33318: a1 = u64 [s1 + 0xb8]\n 33322: a0 = a1 <u a0\n 33325: a2 = u64 [s1 + 0x60]\n 33328: a1 = t2 ^ a2\n 33331: a2 = t2 <u a2\n 33334: a2 = a0 if a1 == 0\n 33337: a4 = u64 [s1 + 0x68]\n 33340: a0 = t1 <u a4\n 33343: a3 = u64 [s1 + 0x58]\n 33346: a1 = u64 [s1 + 0xb0]\n 33350: a5 = a1 ^ a3\n 33353: a3 = a1 <u a3\n 33356: a3 = a0 if a5 == 0\n 33359: a0 = t1 ^ a4\n 33362: a0 = a0 | a5\n 33365: a3 = a2 if a0 == 0\n 33368: jump [t0]\n      : @1364 (gas: 16)\n 33370: a4 = u64 [s1 + 0x138]\n 33374: a2 = a4 <u 0x80\n 33378: a3 = u64 [s1 + 0xf0]\n 33382: a1 = a3 if a2 != 0\n 33385: a5 = u64 [s1 + 0xf8]\n 33389: a3 = u64 [s1 + 0x108]\n 33393: a3 = a3 | a5\n 33396: a3 = a0 if a2 == 0\n 33399: a1 = 0xffffffffffffffff if a4 == 0\n 33402: a3 = 0xffffffffffffffff if a4 == 0\n 33405: a4 = u64 [s1 + 0x100]\n 33409: a4 = 0 if a2 == 0\n 33411: a5 = 0 if a2 == 0\n 33413: a0 = u64 [s1 + 0x110]\n 33417: a0 = a0 & ~a3\n 33420: jump [t0]\n      : @1365 (gas: 21)\n 33422: a2 = u64 [s1 + 0x68]\n 33425: a0 = u64 [a2 + 0x8]\n 33428: a1 = i32 [a2 + 0x10]\n 33431: a2 = u64 [a2]\n 33433: a0 = reverse a0\n 33435: a3 = a0 << 0x20\n 33438: a1 = reverse a1\n 33440: a1 = a1 >> 0x20\n 33443: a3 = a3 | a1\n 33446: a0 = a0 >> 0x20\n 33449: a1 = reverse a2\n 33451: a2 = a1 << 0x20\n 33454: a0 = a0 | a2\n 33457: a1 = a1 >> 0x20\n 33460: u64 [s1 + 184] = 0\n 33464: u64 [s1 + 0xb0] = a1\n 33468: u64 [s1 + 0xa8] = a0\n 33472: a0 = 0x4\n 33475: a1 = s1 + 0xa0\n 33479: u64 [s1 + 0xa0] = a3\n 33483: jump [t0]\n      : @1366 (gas: 12)\n 33485: a0 = u64 [s1 + 0x28]\n 33488: a3 = s1 + 0x100\n 33492: u64 [a3 + 0xd8] = a0\n 33496: a0 = u64 [s1 + 0x30]\n 33499: u64 [a3 + 0xd0] = a0\n 33503: a0 = u64 [s1 + 0x38]\n 33506: u64 [a3 + 0xc8] = a0\n 33510: a0 = 0x20\n 33513: a1 = s1 + 0x1c0\n 33517: a2 = u64 [s1 + 0x40]\n 33520: u64 [a3 + 0xc0] = a2\n 33524: jump [t0]\n      : @1367 (gas: 15)\n 33526: t2 = u64 [s1 + 0xb8]\n 33530: t1 = u64 [s1 + 0xa0]\n 33534: ra = u64 [s1 + 0xa8]\n 33538: a1 = u64 [s1 + 0x50]\n 33541: a0 = a1 + t2\n 33544: a1 = a0 <u a1\n 33547: a4 = u64 [s1 + 0x48]\n 33550: a2 = a4 + t1\n 33553: a2 = a2 + a1\n 33556: a5 = a2 ^ a4\n 33559: a4 = a2 <u a4\n 33562: a4 = a1 if a5 == 0\n 33565: a5 = u64 [s1 + 0x40]\n 33568: a1 = a5 + ra\n 33571: jump [t0]\n      : @1368 (gas: 12)\n 33573: a0 = u64 [s1 + 0x30]\n 33576: a3 = s1 + 0x100\n 33580: u64 [a3 + 0x38] = a0\n 33583: a0 = u64 [s1 + 0x38]\n 33586: u64 [a3 + 0x30] = a0\n 33589: a0 = u64 [s1 + 0x40]\n 33592: u64 [a3 + 0x28] = a0\n 33595: a0 = 0x20\n 33598: a1 = s1 + 0x120\n 33602: a2 = u64 [s1 + 0x48]\n 33605: u64 [a3 + 0x20] = a2\n 33608: jump [t0]\n      : @1369 (gas: 7)\n 33610: u64 [s1 + 344] = 0\n 33614: u64 [s1 + 336] = 0\n 33618: u64 [s1 + 320] = 0x6\n 33623: a0 = 0x20\n 33626: a1 = s1 + 0x140\n 33630: u64 [s1 + 328] = 0\n 33634: jump [t0]\n      : @1370 (gas: 18)\n 33636: a3 = u64 [s1 + 0x68]\n 33639: a0 = u64 [a3 + 0x18]\n 33642: a1 = u64 [a3 + 0x10]\n 33645: a2 = u64 [a3 + 0x8]\n 33648: a3 = u64 [a3]\n 33650: a0 = reverse a0\n 33652: u64 [s1 + 0x58] = a0\n 33655: a0 = reverse a1\n 33657: u64 [s1 + 0x50] = a0\n 33660: a0 = reverse a2\n 33662: u64 [s1 + 0x48] = a0\n 33665: a0 = reverse a3\n 33667: u64 [s1 + 0x40] = a0\n 33670: a0 = sp + 0xffffffffffffffe0\n 33673: a0 = a0 & 0xffffffffffffffe0\n 33676: u64 [s1 + 0x60] = a0\n 33679: sp = a0\n 33681: jump [t0]\n      : @1371 (gas: 17)\n 33683: a0 = u64 [a3 + 0x18]\n 33686: a1 = u64 [a3 + 0x10]\n 33689: a2 = u64 [a3 + 0x8]\n 33692: a3 = u64 [a3]\n 33694: a0 = reverse a0\n 33696: u64 [s1 + 0x60] = a0\n 33699: a0 = reverse a1\n 33701: u64 [s1 + 0x58] = a0\n 33704: a0 = reverse a2\n 33706: u64 [s1 + 0x50] = a0\n 33709: a0 = reverse a3\n 33711: u64 [s1 + 0x48] = a0\n 33714: a0 = sp + 0xffffffffffffffe0\n 33717: a0 = a0 & 0xffffffffffffffe0\n 33720: u64 [s1 + 0x68] = a0\n 33723: sp = a0\n 33725: jump [t0]\n      : @1372 (gas: 16)\n 33727: a3 = u64 [s1 + 0x58]\n 33730: a0 = u64 [a3 + 0x18]\n 33733: a1 = u64 [a3 + 0x10]\n 33736: a2 = u64 [a3 + 0x8]\n 33739: a3 = u64 [a3]\n 33741: a0 = reverse a0\n 33743: a4 = reverse a1\n 33745: a2 = reverse a2\n 33747: a3 = reverse a3\n 33749: a1 = u64 [s1 + 0x60]\n 33752: u64 [a1 + 0x18] = a3\n 33755: u64 [a1 + 0x10] = a2\n 33758: u64 [a1 + 0x8] = a4\n 33761: u64 [a1] = a0\n 33763: a0 = s1 + 0xe0\n 33767: jump [t0]\n      : @1373 (gas: 5)\n 33769: a0 = reverse a0\n 33771: a1 = reverse a1\n 33773: a2 = reverse a2\n 33775: a3 = reverse a3\n 33777: jump [t0]\n      : @1374 (gas: 14)\n 33779: a3 = a3 + a4\n 33782: u64 [s1 + 0x108] = a3\n 33786: a3 = a3 << 0x3b\n 33789: a4 = a2 >> 0x5\n 33792: a4 = a4 | a3\n 33795: a0 = u64 [s1 + 0x128]\n 33799: t1 = u64 [a0 + 0x18]\n 33802: a2 = a2 << 0x3b\n 33805: a3 = u64 [a0 + 0x10]\n 33808: a1 = a1 >> 0x5\n 33811: a0 = a1 | a2\n 33814: t2 = reverse t1\n 33816: a2 = reverse a3\n 33818: jump [t0]\n      : @1375 (gas: 15)\n 33820: a2 = u64 [s1 + 0x78]\n 33823: a0 = u64 [a2 + 0x8]\n 33826: a1 = i32 [a2 + 0x10]\n 33829: a2 = u64 [a2]\n 33831: a0 = reverse a0\n 33833: a3 = a0 << 0x20\n 33836: a1 = reverse a1\n 33838: a1 = a1 >> 0x20\n 33841: a1 = a1 | a3\n 33844: a0 = a0 >> 0x20\n 33847: a2 = reverse a2\n 33849: a3 = a2 << 0x20\n 33852: a0 = a0 | a3\n 33855: a2 = a2 >> 0x20\n 33858: jump [t0]\n      : @1376 (gas: 14)\n 33860: a5 = a5 + a2\n 33863: a4 = a5 <u a2\n 33866: a0 = u64 [s1 + 0x130]\n 33870: a2 = a2 <u a0\n 33873: a0 = t2 + a2\n 33876: a0 = a0 + a4\n 33879: a2 = a1 | a5\n 33882: a0 = a0 | a3\n 33885: a2 = a2 | a0\n 33888: a2 = a2 >> 0x20\n 33891: a0 = a0 | a5\n 33894: a0 = a0 << 0x20\n 33897: a0 = a0 | a2\n 33900: jump [t0]\n      : @1377 (gas: 10)\n 33902: a4 = 0 if a2 == 0\n 33904: a1 = u64 [s1 + 0x118]\n 33908: a1 = a1 & ~a3\n 33911: a2 = u64 [s1 + 0x120]\n 33915: a0 = a2 & ~a0\n 33918: a2 = u64 [s1 + 0x128]\n 33922: a2 = a2 & ~a4\n 33925: a3 = u64 [s1 + 0x130]\n 33929: a3 = a3 & ~a5\n 33932: jump [t0]\n      : @1378 (gas: 13)\n 33934: a4 = a0 << 0x3f\n 33937: a5 = a1 >> 0x1\n 33940: t1 = a5 | a4\n 33943: a5 = a3 << 0x3f\n 33946: a0 = a0 >> 0x1\n 33949: a0 = a0 | a5\n 33952: a1 = a1 << 0x3f\n 33955: a5 = a2 >> 0x1\n 33958: a1 = a1 | a5\n 33961: a3 = a3 >> 0x1\n 33964: a2 = a2 & 0x1\n 33967: a5 = -a2\n 33969: jump [t0]\n      : @1379 (gas: 16)\n 33971: sp = sp + 0xfffffffffffffd80\n 33975: a2 = sp + 0x200\n 33979: u64 [a2 + 0x78] = ra\n 33982: u64 [a2 + 0x70] = s0\n 33985: u64 [a2 + 0x68] = s1\n 33988: s0 = sp + 0x280\n 33992: sp = sp & 0xffffffffffffffe0\n 33995: s1 = sp\n 33997: a2 = u64 [a1 + 0x10]\n 34000: u64 [s1 + 0x50] = a2\n 34003: a2 = u64 [a1 + 0x8]\n 34006: u64 [s1 + 0x70] = a2\n 34009: a1 = u64 [a1]\n 34011: u64 [s1 + 0x78] = a1\n 34014: u64 [s1 + 0x58] = a0\n 34017: jump [t0]\n      : @1380 (gas: 14)\n 34019: a0 = u64 [a3 + 0x18]\n 34022: a1 = u64 [a3 + 0x10]\n 34025: a2 = u64 [a3 + 0x8]\n 34028: a3 = u64 [a3]\n 34030: a0 = reverse a0\n 34032: a4 = reverse a1\n 34034: a2 = reverse a2\n 34036: a3 = reverse a3\n 34038: a1 = u64 [s1 + 0x68]\n 34041: u64 [a1 + 0x18] = a3\n 34044: u64 [a1 + 0x10] = a2\n 34047: u64 [a1 + 0x8] = a4\n 34050: u64 [a1] = a0\n 34052: jump [t0]\n      : @1381 (gas: 8)\n 34054: a0 = u64 [a4 + 0xb8]\n 34058: a1 = u64 [a4 + 0xc0]\n 34062: a2 = u64 [a4 + 0xb0]\n 34066: a3 = u64 [a4 + 0xa8]\n 34070: a1 = a1 | a2\n 34073: a0 = a0 | a3\n 34076: a0 = a0 | a1\n 34079: jump [t0]\n      : @1382 (gas: 8)\n 34081: a0 = u64 [a4 + 0x78]\n 34084: a1 = u64 [a4 + 0x80]\n 34088: a2 = u64 [a4 + 0x70]\n 34091: a3 = u64 [a4 + 0x68]\n 34094: a1 = a1 | a2\n 34097: a0 = a0 | a3\n 34100: a0 = a0 | a1\n 34103: jump [t0]\n      : @1383 (gas: 13)\n 34105: a5 = a5 + a2\n 34108: a3 = a5 <u a2\n 34111: a2 = a2 <u t2\n 34114: a0 = t1 + a2\n 34117: a0 = a0 + a3\n 34120: a2 = a1 | a5\n 34123: a0 = a0 | a4\n 34126: a2 = a2 | a0\n 34129: a2 = a2 >> 0x20\n 34132: a0 = a0 | a5\n 34135: a0 = a0 << 0x20\n 34138: a0 = a0 | a2\n 34141: jump [t0]\n      : @1384 (gas: 4)\n 34143: a0 = 0x1838\n 34147: a3 = s1 + a0\n 34150: a4 = a3 + 0x300\n 34154: jump [t0]\n      : @1385 (gas: 4)\n 34156: a0 = 0x1038\n 34160: a3 = s1 + a0\n 34163: a4 = a3 + 0x700\n 34167: jump [t0]\n      : @1386 (gas: 8)\n 34169: u64 [s1 + 208] = 0\n 34173: u64 [s1 + 200] = 0\n 34177: u64 [s1 + 192] = 0\n 34181: a0 = 0xe2517d3f00000000\n 34191: a1 = s1 + 0xc0\n 34195: u64 [s1 + 0xd8] = a0\n 34199: a0 = 0\n 34201: jump [t0]\n      : @1387 (gas: 10)\n 34203: a2 = a0 if a1 == 0\n 34206: a0 = u64 [s1 + 0x28]\n 34209: t2 = a4 <u a0\n 34212: a1 = a5 ^ t1\n 34215: a3 = a5 <u t1\n 34218: a3 = t2 if a1 == 0\n 34221: a0 = a0 ^ a4\n 34224: a0 = a0 | a1\n 34227: a3 = a2 if a0 == 0\n 34230: jump [t0]\n      : @1388 (gas: 11)\n 34232: a0 = u64 [s1 + 0x20]\n 34235: u64 [s1 + 0x198] = a0\n 34239: a0 = u64 [s1 + 0x18]\n 34242: u64 [s1 + 0x190] = a0\n 34246: a0 = u64 [s1 + 0x10]\n 34249: u64 [s1 + 0x188] = a0\n 34253: a1 = s1 + 0x180\n 34257: a0 = u64 [s1 + 0x8]\n 34260: u64 [s1 + 0x180] = a0\n 34264: a0 = 0\n 34266: jump [t0]\n      : @1389 (gas: 16)\n 34268: a4 = u64 [a3]\n 34270: u64 [sp + 0x18] = a4\n 34273: a4 = u64 [a3 + 0x8]\n 34276: u64 [sp + 0x20] = a4\n 34279: a4 = u64 [a3 + 0x10]\n 34282: u64 [sp + 0x28] = a4\n 34285: a3 = u64 [a3 + 0x18]\n 34288: u64 [sp + 0x30] = a3\n 34291: s1 = u64 [a2]\n 34293: a3 = u64 [a2 + 0x8]\n 34296: u64 [sp] = a3\n 34298: a3 = u64 [a2 + 0x10]\n 34301: u64 [sp + 0x8] = a3\n 34304: a2 = u64 [a2 + 0x18]\n 34307: u64 [sp + 0x10] = a2\n 34310: jump [t0]\n      : @1390 (gas: 10)\n 34312: a1 = u64 [s1 + 0xb8]\n 34316: a0 = a1 + 0x3f\n 34319: a1 = a0 <u a1\n 34322: a2 = t2 + a1\n 34325: a0 = a0 & 0xffffffffffffffe0\n 34328: ra = u64 [s1 + 0x30]\n 34331: ra = ra + a0\n 34334: u64 [s1 + 0xb8] = ra\n 34338: a0 = ra <u a0\n 34341: jump [t0]\n      : @1391 (gas: 10)\n 34343: a0 = u64 [s1 + 0x28]\n 34346: a1 = u64 [s1 + 0x18]\n 34349: a0 = a0 | a1\n 34352: a1 = 0xffffffe0\n 34362: a3 = u64 [s1 + 0x30]\n 34365: a1 = a3 <u a1\n 34368: a2 = u64 [s1 + 0x20]\n 34371: a1 = 0 if a2 != 0\n 34373: a1 = 0 if a0 != 0\n 34375: jump [t0]\n      : @1392 (gas: 8)\n 34377: a2 = a4 >u 0\n 34379: a1 = a1 ^ 0x1\n 34382: a1 = a2 if a4 != 0\n 34385: a2 = t2 >u 0\n 34387: a3 = a5 >u 0\n 34389: a3 = a2 if a5 == 0\n 34392: a3 = a1 if a0 == 0\n 34395: jump [t0]\n      : @1393 (gas: 12)\n 34397: a0 = u64 [s1 + 0x40]\n 34400: a3 = s1 + 0x100\n 34404: u64 [a3 + 0x18] = a0\n 34407: a0 = u64 [s1 + 0x48]\n 34410: u64 [a3 + 0x10] = a0\n 34413: a0 = u64 [s1 + 0x50]\n 34416: u64 [a3 + 0x8] = a0\n 34419: a0 = 0x20\n 34422: a1 = s1 + 0x100\n 34426: a2 = u64 [s1 + 0x58]\n 34429: u64 [a3] = a2\n 34431: jump [t0]\n      : @1394 (gas: 10)\n 34433: a0 = u64 [sp + 0x10]\n 34436: a1 = u64 [sp + 0x18]\n 34439: a2 = 0x100000000\n 34449: a2 = a2 ^ a0\n 34452: a2 = a2 | a1\n 34455: a3 = a0 >> 0x20\n 34458: a3 = a3 <u 0x1\n 34461: a3 = 0 if a1 != 0\n 34463: a3 = 0 if a2 == 0\n 34465: jump [t0]\n      : @1395 (gas: 8)\n 34467: a1 = a2 & ~a1\n 34470: a2 = u64 [s1 + 0x128]\n 34474: a2 = a2 & ~a5\n 34477: a3 = u64 [s1 + 0x130]\n 34481: a3 = a3 & ~a4\n 34484: a4 = s1 + 0x7ff\n 34488: a4 = a4 + 0xb9\n 34492: jump [t0]\n      : @1396 (gas: 10)\n 34494: a0 = u64 [a3 + 0x18]\n 34497: a1 = u64 [a3 + 0x10]\n 34500: a2 = u64 [a3 + 0x8]\n 34503: a3 = u64 [a3]\n 34505: a0 = reverse a0\n 34507: a1 = reverse a1\n 34509: a2 = reverse a2\n 34511: a3 = reverse a3\n 34513: a4 = s1 + 0x300\n 34517: jump [t0]\n      : @1397 (gas: 8)\n 34519: a4 = a2 + a0\n 34522: a4 = a4 + a3\n 34525: a3 = a4 ^ a2\n 34528: u64 [s1 + 0x110] = a4\n 34532: a2 = a4 <u a2\n 34535: a2 = a0 if a3 == 0\n 34538: a4 = u64 [s1 + 0x108]\n 34542: jump [t0]\n      : @1398 (gas: 4)\n 34544: a0 = 0x1838\n 34548: a3 = s1 + a0\n 34551: a4 = a3 + 0x200\n 34555: jump [t0]\n      : @1399 (gas: 4)\n 34557: a0 = 0x1838\n 34561: a3 = s1 + a0\n 34564: a4 = a3 + 0x100\n 34568: jump [t0]\n      : @1400 (gas: 7)\n 34570: u64 [s1 + 632] = 0\n 34574: u64 [s1 + 624] = 0\n 34578: u64 [s1 + 616] = 0\n 34582: a0 = 0x20\n 34585: a1 = s1 + 0x260\n 34589: u64 [s1 + 608] = 0\n 34593: jump [t0]\n      : @1401 (gas: 11)\n 34595: a4 = a4 + a1\n 34598: a1 = a4 <u a1\n 34601: a1 = a1 + a5\n 34604: a1 = a1 | a2\n 34607: a2 = a0 | a4\n 34610: a2 = a2 | a1\n 34613: a1 = a1 | a4\n 34616: a2 = a2 >> 0x20\n 34619: a1 = a1 << 0x20\n 34622: a1 = a1 | a2\n 34625: jump [t0]\n      : @1402 (gas: 10)\n 34627: u64 [s1 + 0xf8] = a0\n 34631: u64 [s1 + 0x100] = a1\n 34635: a0 = u64 [s1 + 0xf0]\n 34639: a0 = a0 | a1\n 34642: u64 [s1 + 0xf0] = a0\n 34646: a0 = u64 [s1 + 0x138]\n 34650: a2 = a0 + 0xffffffffffffff80\n 34653: a0 = 0xffffffffffffffff\n 34656: a1 = 0xffffffffffffffff\n 34659: jump [t0]\n      : @1403 (gas: 9)\n 34661: u64 [s1 + 0x18] = a1\n 34664: u64 [s1 + 0x230] = a1\n 34668: u64 [s1 + 0x10] = a2\n 34671: u64 [s1 + 0x228] = a2\n 34675: a1 = s1 + 0x220\n 34679: u64 [s1 + 0x8] = a0\n 34682: u64 [s1 + 0x220] = a0\n 34686: a0 = 0\n 34688: jump [t0]\n      : @1404 (gas: 10)\n 34690: sp = sp + 0xfffffffffffffd80\n 34694: a3 = sp + 0x200\n 34698: u64 [a3 + 0x78] = ra\n 34701: u64 [a3 + 0x70] = s0\n 34704: u64 [a3 + 0x68] = s1\n 34707: s0 = sp + 0x280\n 34711: sp = sp & 0xffffffffffffffe0\n 34714: s1 = sp\n 34716: a3 = u64 [a2 + 0x10]\n 34719: jump [t0]\n      : @1405 (gas: 12)\n 34721: a2 = u64 [sp]\n 34723: a3 = u64 [sp + 0x8]\n 34726: u64 [s1] = a2\n 34728: u64 [s1 + 0x8] = a3\n 34731: u64 [s1 + 0x10] = a0\n 34734: u64 [s1 + 0x18] = a1\n 34737: sp = s0 + 0xffffffffffffffc0\n 34740: ra = u64 [sp + 0x38]\n 34743: s0 = u64 [sp + 0x30]\n 34746: s1 = u64 [sp + 0x28]\n 34749: sp = sp + 0x40\n 34752: jump [t0]\n      : @1406 (gas: 6)\n 34754: a0 = u64 [a3 + 0x18]\n 34757: a1 = u64 [a3 + 0x10]\n 34760: a2 = u64 [a3 + 0x8]\n 34763: a3 = u64 [a3]\n 34765: a0 = reverse a0\n 34767: jump [t0]\n      : @1407 (gas: 8)\n 34769: a0 = a0 | a2\n 34772: a2 = a3 | a1\n 34775: a2 = a2 | a0\n 34778: a2 = a2 >> 0x20\n 34781: a0 = a0 | a1\n 34784: a0 = a0 << 0x20\n 34787: a0 = a0 | a2\n 34790: jump [t0]\n      : @1408 (gas: 5)\n 34792: sp = a0\n 34794: i32 a2 = a0 + 0\n 34796: a1 = 0x40\n 34799: a0 = u64 [s1 + 0xb8]\n 34803: jump [t0]\n      : @1409 (gas: 13)\n 34805: a0 = u64 [s1 + 0xb0]\n 34809: a1 = u64 [s1 + 0xa0]\n 34813: a0 = a0 | a1\n 34816: a1 = u64 [s1 + 0xb8]\n 34820: a4 = a1\n 34822: a2 = u64 [s1 + 0xa8]\n 34826: a1 = a1 | a2\n 34829: a1 = a1 | a0\n 34832: a1 = a1 >> 0x20\n 34835: a0 = a0 | a2\n 34838: a0 = a0 << 0x20\n 34841: a0 = a0 | a1\n 34844: jump [t0]\n      : @1410 (gas: 7)\n 34846: a0 = a0 << 0x3b\n 34849: a1 = a0 >> 0x38\n 34852: u64 [s1 + 0x138] = a1\n 34856: a2 = 0x80 - a1\n 34860: a0 = 0xffffffffffffffff\n 34863: a1 = 0xffffffffffffffff\n 34866: jump [t0]\n      : @1411 (gas: 11)\n 34868: a1 = u64 [a5 + 0xf8]\n 34872: a2 = u64 [a5 + 0xf0]\n 34876: a4 = u64 [a5 + 0xe8]\n 34880: a0 = a0 | a2\n 34883: a2 = a4 | a1\n 34886: a2 = a2 | a0\n 34889: a2 = a2 >> 0x20\n 34892: a0 = a0 | a1\n 34895: a0 = a0 << 0x20\n 34898: a0 = a0 | a2\n 34901: jump [t0]\n      : @1412 (gas: 8)\n 34903: a0 = sp + 0xffffffffffffffe0\n 34906: a0 = a0 & 0xffffffffffffffe0\n 34909: u64 [s1 + 0x58] = a0\n 34912: sp = a0\n 34914: i32 a2 = a0 + 0\n 34916: a1 = 0x40\n 34919: a0 = u64 [s1 + 0x70]\n 34922: jump [t0]\n      : @1413 (gas: 8)\n 34924: a0 = sp + 0xffffffffffffffe0\n 34927: a0 = a0 & 0xffffffffffffffe0\n 34930: u64 [s1 + 0x30] = a0\n 34933: sp = a0\n 34935: i32 a2 = a0 + 0\n 34937: a1 = 0x40\n 34940: a0 = u64 [s1 + 0x40]\n 34943: jump [t0]\n      : @1414 (gas: 9)\n 34945: a0 = sp + 0xffffffffffffffe0\n 34948: a4 = a0 & 0xffffffffffffffe0\n 34951: sp = a4\n 34953: a0 = 0\n 34955: u64 [s1 + 184] = 0\n 34959: t2 = 0\n 34961: t1 = 0\n 34963: u64 [s1 + 176] = 0\n 34967: jump [t0]\n      : @1415 (gas: 8)\n 34969: a0 = u64 [a4 + 0x38]\n 34972: a1 = u64 [a4 + 0x40]\n 34975: a2 = u64 [a4 + 0x30]\n 34978: a3 = u64 [a4 + 0x28]\n 34981: a1 = a1 | a2\n 34984: a0 = a0 | a3\n 34987: a0 = a0 | a1\n 34990: jump [t0]\n      : @1416 (gas: 8)\n 34992: a0 = a0 + a4\n 34995: a3 = a3 + a1\n 34998: a5 = a3 <u a1\n 35001: a0 = a0 + a5\n 35004: ra = u64 [s1 + 0x100]\n 35008: ra = ra + a3\n 35011: a3 = ra <u a3\n 35014: jump [t0]\n      : @1417 (gas: 9)\n 35016: sp = sp + 0xffffffffffffffc0\n 35019: u64 [sp + 0x38] = ra\n 35022: u64 [sp + 0x30] = s0\n 35025: u64 [sp + 0x28] = s1\n 35028: s0 = sp + 0x40\n 35031: sp = sp & 0xffffffffffffffe0\n 35034: s1 = a0\n 35036: i32 a0 = sp + 0\n 35038: jump [t0]\n      : @1418 (gas: 6)\n 35040: a1 = a3 << 0x3\n 35043: u64 [s1 + 0x138] = a1\n 35047: i32 a2 = 0x80 - a1\n 35051: a0 = 0xffffffffffffffff\n 35054: a1 = 0xffffffffffffffff\n 35057: jump [t0]\n      : @1419 (gas: 6)\n 35059: i32 a0 = a0 + 0\n 35061: i32 a2 = a2 + 0\n 35063: u64 [s1 + 0x68] = a1\n 35066: a1 = 0x40\n 35069: u64 [s1 + 0x60] = a0\n 35072: jump [t0]\n      : @1420 (gas: 7)\n 35074: a3 = a3 | a5\n 35077: a3 = a1 if a2 == 0\n 35080: a1 = 0xffffffffffffffff\n 35083: a0 = a1 if a4 == 0\n 35086: a3 = a1 if a4 == 0\n 35089: a5 = 0 if a2 == 0\n 35091: jump [t0]\n      : @1421 (gas: 4)\n 35093: a0 = 0x1038\n 35097: a3 = s1 + a0\n 35100: a4 = a3 + 0x600\n 35104: jump [t0]\n      : @1422 (gas: 2)\n 35106: a3 = a2 & 0x40\n 35109: jump @1426 if a3 != 0\n      : @1423 (gas: 1)\n 35112: jump @1425 if a2 == 0\n      : @1424 (gas: 6)\n 35115: i32 a3 = 0x40 - a2\n 35118: a3 = a1 << a3\n 35121: a1 = a1 >> a2\n 35124: a0 = a0 >> a2\n 35127: a0 = a0 | a3\n 35130: ret\n      : @1425 (gas: 1)\n 35132: ret\n      : @1426 (gas: 4)\n 35134: a0 = a2 + 0xffffffffffffffc0\n 35137: a0 = a1 >> a0\n 35140: a1 = 0\n 35142: ret\n      : @1427 (gas: 2)\n 35144: a3 = a2 & 0x40\n 35147: jump @1431 if a3 != 0\n      : @1428 (gas: 1)\n 35150: jump @1430 if a2 == 0\n      : @1429 (gas: 6)\n 35153: i32 a3 = 0x40 - a2\n 35156: a3 = a0 >> a3\n 35159: a0 = a0 << a2\n 35162: a1 = a1 << a2\n 35165: a1 = a1 | a3\n 35168: ret\n      : @1430 (gas: 1)\n 35170: ret\n      : @1431 (gas: 4)\n 35172: a1 = a2 + 0xffffffffffffffc0\n 35175: a1 = a0 << a1\n 35178: a0 = 0\n 35180: ret\n","bytecode":{"object":"50564d0000afa3000000000000010700c1a002c00080038268006e656b6f54794d9bc8e21bad52f2ddaa8d37fc68b0c26916a1c463f1a72b95efb323f54d5af5287ab365328ea2d765b32165339f927464b96c3f931b68c1322a860d44736637f34876c7d2fef02d9fd08c50cca46058de4caba1b8b8858c81a656891c988defee1af85fc1fbac358af209d74f347dae39c6658caab400868e9bd16be37ffe4bb620e3be01ea8ce76274eab57002424ecd5447f7c9b0110d0058a2054b54fcdbeb9bc8e21bad52f2ddaa8d37fc68b0c26916a1c463f1a72b95efb323f54d5af528e6f25b490aeeb95da41b4c83a7919cff534eaae8a544d2fdaa73b0e4ea8ad37b5b7decebe5e15b8cf3841e7d42714fd11e29b2f7c01403dd25b9c3c7c80a205b003c599e0e5a57c228db122fc9f859f9d002053b5a39c3695bf8716f4416255e1dff7e7e1188872fd1014979ec26e982400927504a02787c0d6f6533a74045307ab365328ea2d765b32165339f927464b96c3f931b68c1322a860d44736637f31dff7e7e1188872fd1014979ec26e982400927504a02787c0d6f6533a74045304876c7d2fef02d9fd08c50cca46058de4caba1b8b8858c81a656891c988defee1dff7e7e1188872fd1014979ec26e982400927504a02787c0d6f6533a74045309bc8e21bad52f2ddaa8d37fc68b0c26916a1c463f1a72b95efb323f54d5af5287ab365328ea2d765b32165339f927464b96c3f931b68c1322a860d44736637f31dff7e7e1188872fd1014979ec26e982400927504a02787c0d6f6533a74045309dc6d9325c1f39f67429440b67ea472a64fdc7edd13539b51b1739a847e021eb9bc8e21bad52f2ddaa8d37fc68b0c26916a1c463f1a72b95efb323f54d5af5280480bd0b000000000e0000001c0000002a000000300000003d000000480000005700000062000000740000007f00000063616c6c5f646174615f636f707963616c6c5f646174615f6c6f616463616c6c5f646174615f73697a6563616c6c65726465706f7369745f6576656e746765745f73746f72616765686173685f6b656363616b5f3235367365616c5f72657475726e7365745f696d6d757461626c655f646174617365745f73746f7261676576616c75655f7472616e73666572726564051302c0e47e0463616c6cc0ec7e066465706c6f7906c054a082d902c06e899b00e30106031803cc033c04440416051e051d066106b30649076e078107a307de0739088808a608fd0850095d09d109ea09130a4d0a7b0a990a070b360bfc0bab0cc10c960dad0de20d000f0f0f370f3c0f530f580f5d0f620f6b0f880ff50f45104a1063108810a410ad10061113117d119611bd11f81126124612b412e512a71321143814131521155b157e168c16b616bc16d416da16e016e616f01612179217fb1701181c1842185f186918c81837199019a519af19cd19e219ec190f1a241a2e1a551a9d1ad01a7e1b931b9d1bb91bd61b1b1c251c3e1cb31cc01cda1c091d1e1d281d961da31db81df71d071e251e5f1e6f1e8d1ec71ed71ef51e2f1f3f1f5d1fa21fbf1f04203f204f206d20a820be20c920ef20c621cc21d2210c222c224d22a522ab22b122d1221823e823f82333245524c024f9244625b725bd25f62566266c26cb26d826f2264127472780279a27fc27022808282b2844289b28a128a728d92804294e2957297729bd29c729202a512a852a8f2aa82ad92aeb2a942bb92bd32b6a2c022d2d2d712d7a2d972da02dc42dfe2d1b2e2b2e342e422e792ea02e3f2f722f9c2fc52fd62fe02ffc2f72308330a430e0305c3192319831d131ef3139323f3271329332e432f53234333a334a336b33ad33283455346b34d134d734dd340535373561359035a535cf3507361c3684368a369036b836f336f93634375f37a537af3709384238763880389d38bd38de38303936397a398039aa39d739f139533a593a8e3aac3a0c3b123b183b3c3b6b3bd63bdf3b413cae3cbb3cd53c223d283d5a3d603d873ddc3ded3d303e363e443e653ea83ee23ef03e0c3f4b3f0f401d4056407840e14012416041f9412f4235423b425b42184322433e435c43a043a943ee431b446f447c449244c244d744e1445a4567458145a745ad45184634463a46504687468d46cf46d54640475a4760477647a347a947414868487d4990499949be49f649584aa74abb4ae64a804bfa4b004c064c244d344d524db94dd64d1b4e384e7f4e884ea44edc4eec4e0a4f504f5d4f784fa24fb04ff54ffb4f015063506950f750005152518051e0517352f852fe5204538753e5530f546254b754f354ea5554565e56a156da560c577f57855700586358a5584f599459a259bb59df59295a475a865a8c5ab95ae65aff5a0f5b185b225b485b4e5b545b6d5b7d5b865bc75bef5b1f5c285c405c745c8e5c975c195d425d635d695d6f5d755da05dad5db35db95dbf5dc55dde5deb5df15df75d125e185e1e5e245e3d5e4a5e505e565e5c5e625e7e5e8b5e915e975e9d5ea35ebd5ec65e595f675f695f8a5f905f965f9c5fc75fd45fda5fe05fe65fec5f0560126018601e6039603f6045604b606460716077607d6083608960a560b260b860be60c460ca60e460ed6080618e610b623a62a9621c632a633763ab631f642f6435643e6459645f646f6475647e649364d164ea6418652c6561651366316675667e66bc66e566026712671b672567d367f1670e681e6827686b689868b6683d697a69a269cb69f8694c6a906aad6ae36a6d6b936bb06bf26bfb6b156c9c6cb96c236d336d3c6d726d9b6da16da76dce6dfe6d696e766e8c6ebd6e306f716f8e6fd16fee6f3b7061708a70b770d8702d713371397178717e7198719e71a471aa71b071c971d671dc71e27105720b721b722172277250727072bc72c272c87207730d7327732d73337339733f73587365736b73717394739a73aa73b073b673df7305740b744f7455745b748674937499749f74a574ab74c474d174d774dd741a75207526753f754c75527558755e75647580758d75937599759f75a575bf75c8755b7669766b76af76b576bb76e676f376f976277754777077807789779377c377c977cf77eb77f877fe7723784c786878787881788b78bb78d578de7872798c79e079097a0f7a157a4e7a627a807afb7a187b867b9a7bd87bf77b6b7c787c927cbf7c257d637d807dc67dec7d157e3e7e5f7e887ebc7eec7ef57eaa876e978a2098aa20977b2098bb20c89b0bc9ba0a979b019abbaeab20ae873751094ec87909647a017c8b95880195ac0178ab64caab9cf42836510934c87909647a017c8b95880195ac0178ab64caab9cf4281c51091a839aff01c8a80b7cbb9599ffc8a70c78cb83aaff5209f03200390870020251083d203307a0020383770a082830209511f07b10087b1564896475330820649750100238057c78017c797c7a027c7b03978808d4980897aa1097bb18d4ba0ad4a8087c79057c7a047c7b067c7c07979908d4a90997bb1097cc18d4cb0bd4b909979920d489027c79097c7a087c7b0a7c7c0b979908d4a90997bb1097cc18d4cb0bd4b9097c7a0d7c7b0c7c7c0e7c780f97aa08d4ba0a97cc10978818d4c808d4a808978820d498037c78117c7a107c7b127c7c13978808d4a80897bb1097cc18d4cb0bd4b8087c7a157c7b147c7c167c791797aa08d4ba0a97cc10979918d4c909d4a909979920d4890a7c78197c79187c7b1a7c7c1b978808d4980897bb1097cc18d4cb0bd4b8087c791d7c7b1c7c7c1e7c771f979908d4b90997cc10977718d4c707d49707977720d487076f776fa86f396f2a7b5a187b59107b58087b57821008821595111032009511d87b10207b15187b161082897b19088289087b19828510828618330820501004f0036f686f59821a6faa821b086fbb787b18787a10787908787898bc38787c1f98bc30787c1e98bc28787c1d98bc20787c1c98bc18787c1b98bc10787c1a98bb08787b1998ab38787b1798ab30787b1698ab28787b1598ab20787b1498ab18787b1398ab10787b1298aa08787a11989a38787a0f989a30787a0e989a28787a0d989a20787a0c989a18787a0b989a10787a0a98990878790998893878790798893078790698892878790598892078790498891878790398891078790298880878780182102082151882161095112832009511a07b10587b15507b16489515608411e06476828718828910828a0882886f776f996faa6f887b18187b1a107b19087b17491138491130491128491120481140208318831a20831b403309ff33073300060a0501821738821830821928821a20501208d780007b6a187b69107b68087b679551a082105882155082164895116032009511a07b10587b15509515608411e08272827a08827b108277188283828908828c108288186f746fbb6faa6f276f826fcc6f996f387b17187b1a107b1b087b147b18387b19307b1c287b12208318831a203309ff330b2033070a099551a082105882155095116032009511a07b10587b15507b16489515608411e0829a7b1a18829a087b1a10829a107b1a088299187b19648650100a070282186f888219086f99821a106faa821b186fbb7b1b387b1a307b19287b18208379836a8317203308010a049551a08210588215508216489511603200951120ff7b10d8007b15d0007b16c8009515e0008411e082bc7b1c4082bc087b1c4882bc107b1c5082bb187b1b5850120ca681007b183850100e8f016f687b187882186f887b18708218086f887b18688218106f887b18608218186f887b1898008218206f887b1890008218286f887b1888008218306f887b1880008218406f887b18b8008218486f887b18b0008218506f887b18a8008218586f887b18a0008379811a388317603308030a04955120ff8210d8008215d0008216c8009511e00032009511e0fe7b1018017b1510017b160801951520018411e082c67b166082c6087b166882c6107b167082cc187b1c7882bc7b1c3882bc087b1c4082bc107b1c4882bb187b1b50501210cc80007b1858501012b5006f687b18980082186f887b1890008218086f887b1888008218106f887b1880008218186f887b18b8008218206f887b18b0008218286f887b18a8008218306f887b18a0008218386f887b18d8008218406f887b18d0008218486f887b18c8008218506f887b18c0008218606f887b18f8008218686f887b18f0008218706f887b18e8008218786f887b18e0008379811a58831780003308040a049551e0fe8210180182151001821608019511200132008b7910520931c8780883881f8488e056380000012533096c0202390a6c0202ae8a093d086c02020133088002028377c887073200009511f07b10087b158475010a02013d0768020251050750101448330016951110fe7b10e8017b15e0017b16d8019515f0019511b0e58411e064169569381049294005492938054929280580003307409568601549293005330016012861fb951108f8951700077b70f0007b75e8007b76e0009515f807951178fc8411e0641695670010492758f895670010492750f895680010492840f880003307409568ff0795884195690010492948f850101811fb95670010492778f895670010492770f895670010492768f895670010492760f895670010837760f80a0a0195670010827770f895680010828878f895690010829968f8956a001082aa60f8d49808d4a707d4870751070628b316380968020295670010492718f895670010492710f895670010492708f89567ff079577219568ff079588017b693801956a00107ba900f850101a275195670010827a38f895670010827830f895670010827928f895670010827720f850121cdc79510806284b167b6730018268380150101e52fe83778168380133090a018268380156181f07283a169567e00782683001501020e7f88267f8077b6780008267f0077b67788267e8077b67708267e0077b67684926b8074926b0074926a007409567c0079568a0074926a8075010229250956800078289d800828ad000828bc8008287c000d49b0cd4a708d4c808988820d4ac0c97cc20d4c80851080628b215492698074926900749268807330c07956880077b6c80077b69c8007b6ac0007b6bb8007b67d0005010248bf9826ad0008267c8008268c000d487071408e0ffffff00000000d88a088269b80094989478520806285c1583a720492670073a090000024926680749266007956860077b6978077b67f0005010263cf949263807492630074926200740956740079568200749262807501028ca4f95680007828c58828950828a48828740d4ca0bd49708d4b808988820d49b0b97bb20d4b80851080628ee14492618074926100749260807330b03956800077b6b00077b6998007b6a90007b67a0007b6c880050102ac7f8826aa0008267980082688800d487071408e0ffffff00000000d88a08826990009498947852080628981483a7204926f0064926e8064926e006140900000000004b544d9568e0067b69f8067b671850102c74f89567c0068268d00050102e2df795670006827ad8008278d0008279c8008ea78e8bdba70b7b69e8008e977b68587b6ae000d4a8087b67507b6ba8007b68d800db8b075107062847148267c0067b676095670010492798f895670010492790f895670010492788f895680010492880f8039567a0069568ff0795888100501030e5f8956b000682b7b00082b8a80082b9a00082bab800501232a97a88920184807fd27c04d23c0bdb9800880820d2ac0c648994b9d4c4079479aa92062839145012343b7c8267608877207b67b000510a10027b6b10017b6018017b6c20017b643001492698064926900649268806956880064926800603330750103677f739086c020256181f0b20036c020220019517e08479e07b69280164913307800202837783993308203300380a060182676095781fd87807826ce800c87c09d8c90ada770a826b5850123a5f798268b00094c8826ad80094a8948b9487c87402d84207c8790cc8cb0b7b6b3801d39b0cd89b0adac70a7b6a00018267180195701fd8700b826a1001c8ba07d8a70cdabb0c82633001c8c303973b3b987a05d4ba0a97773b980b05d4b707c847077b671801d84707642450123cd57b826758d87b07826ae000c8a70798ba05977b3bd4ba0a826b280182b282bb08987705948a94876fb86f2b50123e7f7dc8a70282673001d87307826a2001c8a707983a05977c3bd4ca0a987705c8b707956c000182cb38c88a0ad88a08c88707c8a9097bc908d8a908c887077bc79517e08473e064317b63f8000182671801d8740782691001d39b08d89b09da8709826c0801d8c007826a0001d3a208d8a20ada870ad3c007d48707da790a7b347b3b087b30107b32189567ff079577b900510a6849074917f8956700104927a8f8956700104927a0f89568ff079588a10064377b6430017b6b38017b6228017b6020015010403df78263f80082622801826b380182643001954401884701c87b0bd4b40788770182682001c88707d88708c8820264702857ff8267b000857701826be800826850dbb8078268a8008269d800db98078263e000d43b087b68b00082685898843f97330198bc3f978201826a6098a03f97bb0197a9017b69487b63407b60387b6c307b625051071e027b6b287b642084aae07b6aa800492658064926500649264806956840064926400603330750104219f59517e08477e07b6718016471330820330750104412f99518e08488e07b6810016481837783893308200a06492638012033024926300149262801330b330c330049262001826a100182a71882a81082a90882a36f776f886f9a6f336434826918017b93187b6af0007b9a107b6810017b9808647a7b97017b64080164a38267a8007b6b0001d87b07857b017b6cf80094cb01956c000182c720d47007947b018268d00082c738c87808826ab800c82a0a8269c00082c730c879098267c80082642801c874048267b000520b550182673801d8780bc8ba0a6427d32a027b67e000d87a0cda2b0c501246b3767b63e800510706281f109567c0017b60d800501048ddf28267d8018268d0018269c801826ac001956bff0795bbb9007bb7207bb8187bb9107bba089568ff079588c1008267180150104a57f58264e80095440188470182621001c87202d424078877018268f000c87803d8830882670801c88707826838019589207b690801d8890a8268e000c8a8097b69e800d8890bdaaa0b82683001c8b800d8800b82682801c8b8087b68280182680001958b20d88b0c8269f800c8c908d89809dacc09826ad800c8a909d8a90c826a2001c8ca0a7b6a20017b621001826c18017bc208644a7bc47bc31064747bc7187b63f000826708017b6738018262e8007b603001648c64902889fed48a078268b000d4870752073c0149262001492618014926280149263001826340826238826830826c502865016420826360826ba800d33b0b826c58d4cb0bd47b0b826228826c50510bab0082673801d8780bc8ba0ad30a02d80a0cda2b0c50124c497551070628b90e9567200650104e7bf1956800068287387b6730018287307b6728018287287b6720018287207b671001826760501250ec78501052117a7b6708017b68f0003307ff3308ff82693801501054d479501256f077501058ca7950125afd728269200150125c3d777bba407bb9387bb8307bb7289568ff079588e1008267180150105eb1f3826c5082622801826720826840d48707826830d4c808826938d49209826a4895aa01956cff0795ccb900491c60491c58491c50491c48037bca687bc9707bc8787bc780009567ff07957701019568ff079588210133006e2855f3956760068268f0007b64207b6b2850106095f0826c50826b28826830826238826340826420826a60956900068297787b6730018297707b6728018297687b6718018297607b67200101d48c077b671001d443077b670801d42b077b670001501262a07850106403797b67e0007b68f8008267608a79033307ff3308ff501066c4787b67f0007b68e8008268e000d487077b67e000826738018379803307ff3308ff5010689f78826b380188b98000826ae000db9a07826ce800826af80050126a6378826bf00050126cc673826b48d4b707956c000182cbd4b80882cb08d4ba0a82cb10d4b909956cff0795ccb900492c8800037bc9b8007bcac0007bc8b0007bc7a800492ca000492c9800492c90009567ff07957741019568ff079588610150106e33f2956700068268a00050107077ef95670006827a188279108278088ea78e9bdba70b7b68b8008e877b69b0007b6aa800d4a9097b67d8007b6be0007b69f000db9b075207650d826700067b67c0009568ff079588b9004928e0004928d8004928d0004928c800049567e0059568ff079588810150107239f1956b000582b7f00082b8e80082b9e00082baf800501274fd7288920184807fd27c04d23c0bdb9800880820d2ac0c648994b9d4c4079479ab92600d50127691748267c0008877207b67e800510a10027b6b10017b6018017b6c20017b6430014926d8054926d0054926c8059568c0054926c005043307501078ccef39086c020256181f0b20036c020220019517e08479e07b692801649133078002028377839933082033007a0a06018267c00095781fd87807826cb800c87c09d8c90ada770a826bb00050127cb2718268e80094c8826af00094a8948b9487c87402d84207c8790cc8cb0b7b6b3801d39b0cd89b0adac70a7b6a00018267180195701fd8700b826a1001c8ba07d8a70cdabb0c82633001c8c303973b3b987a05d4ba0a97773b980b05d4b707c847077b671801d84707642450127e28748267b000d87b07826aa800c8a70798ba05977b3bd4ba0a826b280182b282bb08987705948a94876fb86f2b50228000d175c8a70282673001d87307826a2001c8a707983a05977c3bd4ca0a987705c8b707956c000182cb38c88a0ad88a08c88707c8a9097bc908d8a908c887077bc79517e08473e064317b63f8000182671801d8740782691001d39b08d89b09da8709826c0801d8c007826a0001d3a208d8a20ada870ad3c007d48707da790a7b347b3b087b30107b32189567ff079577b900510a64492700014927f8004927f0004927e8009568ff079588a10164377b6430017b6b38017b6228017b6020015020820093ef8263f80082622801826b380182643001954401884701c87b0bd4b40788770182682001c88707d88708c882026470285bff8267e8008577018269b8008268d800db98078268e000826af000dba80751071c028267c0008477e07b67c800492698054926900549268805956880054926800504330750208400a4ed9517e08477e07b67200164713308203307502086009cf19518e08488e07b6818016481837783893308200a064926380120330c4926280149263001330b330a330933038267180182721882781082700882777b6710016f277b6718016f846f02826710016f786480826720017b781864287b68d8007b78107b6408017b7408826818017b78017b6000018267c8007b6bf000d87b07857b017b6ae80094ab017b6310017b69f800d43907947b018267a00082683801c87808826a90007b6ce000c8ca028264980082692801c8490982638800826c3001c8c303520b4301d87800c8020bd3ab02d8ab0cda200c502288002c705207a9089567600250208a006aeb956b000282b77882b87082b96882ba60956bff0795bbb90095bc00017bc7207bc8187bc9107bca089568ff079588c1018267200150208c00dfed82601801950001880701826a0801c87a0ad4a0078877018268d800c88707d8870882620001c88202826838019589207b690001d889088269e000c8890b7b6bd000d89b0bda880b82682801c8b804d8840b82683001c8b8087b6830018268f000958b20d88b0c8269e800c8c908d89809dacc09826cf800c8c909d8c90c82631001c8c3037b6a0801826c20017bca087b6018017bc07bc71064207bc2187b67d800826700017b673801826cd0007b642801648a2899fe826ac000826bb000d4ba07826ca800d4c908d4870752075f0149262001492618014926280149263001288d01826bc800826cc000d3cb0b8260b000d40b0b7b6b3801826cb800826ba800d4bc0c826b3801d4cb0b510bb200d87800c8020bd3ab02d8ab0cda200c50228e00c16e52073e079567600550209000ffe9956800058287787b6730018287707b6728018287687b6718018287607b6710018267c000502292006e715020940092727b6708017b68f0003307ff3308ff82693801502096005472502298006f7050209a00487250229c007a6b8269180150229e00b96f95bc00017bca407bc9387bc8307bc7289568ff079588e101826720015020a00028ec8260b0000198073f8268a800978801d48707826ab80098a83f970901d49808826bc00098b93f97aa01d4a90997ba0195aa01956cff0795ccb900492c6001492c5801492c5001492c48010495cb00017bba687bb9707bb8787bb780009567ff07957701029568ff07958821023300b00028b2eb9567a0058268185020a200f9e8826ca800826bb0008269b800826ac000956800058287b8007b6730018287b0007b6728018287a8007b6718018287a0007b6720010198973f97b801d487077b67100198b73f97c801d487077b67080198a73f979801d487077b67000197a7017b67f8005022a400eb705020a6004d717b67d8007b68f0008267c0008a79033307ff3308ff5020a8000c717b67e8007b68e0008268d800d487077b67d800826738018379803307ff3308ff5020aa00e670826b380188b98000826ad800db9a07826ce000826af0005022ac00a970826be8005022ae000b6c826bf800d4b707956c000182cbd4b80882cb08d4ba0a82cb10d4b909956cff0795ccb900492c88010495cb00017bb9b8007bbac0007bb8b0007bb7a800492ca001492c9801492c90019567ff07957741029568ff07958861025020b00072ea33078002037b67380183777b6730010a038269380182970881981082996f77977a206f88988820d4a8087b6828019877206f98978920d497077b6720019888207b6818019568ff079588b9004928e0014928d8014928d0014928c80107956740059568ff07958881025020b20080e9806754059777208268580582691801d497079569ff079599b900492900024929f8014929f0014929e80107959a00027ba820826820017ba810826828017ba8087ba7189567ff079577a1029568ff079588c1025020b400aae9826730013300b6000a03826938013302b800287f65826938015022b800786549261805956900057b98107b970895672005956800057b9a5020ba001840826730013300bc000a03826938013302be00284265826938015022be003b654926d8047b68d0047b67c8049567e0049568c0047b6ac0043300c00033027c0328a76a826730013300c2000a03826938013302c400280065826938015022c400f96449269804956900047b9890007b9788009567a004956880047b9a80003300c6003302c20328616a826730010a0301826938018097108298829908d48707d4970751070e059568ff079588b9004928400249283802492830024928280205956760049568ff079588e1025020c8001ae87c67600452073d059567ff079577b9004927600249275802492750024927480202956720049568ff07958801035020ca00e7e78264380482633004826020047b602801826c28049518e08488e06481826970c8c90b826768c87000d87007c87b0bd39b0ad89b09daa709826278c83207826a8000c84a0ad82702c82a0ac87909d87907c87a02d3bc07d8cb0c826a2801d8a00adb7c0ad83907d3240cd84204dac704d39307d4c707db740a7b89107b8b087b807b8218520ad1049567ff079577b90049278002492778024927700249276802029567ff07957721035020cc00bce7826730013300ce000a03826938013302d000289163826938015022d0008a6349261804956900047b98107b9708956800047b9a33075020d2000ce64926f8034926f0034926e8033307209568e0034926e0035020d400efe59517e08477e07b672801647139086c020256183f0b20036c020240019517e08479e07b69200164913307800202837783993308403300d6000a06826a20013302d80028bd64826a20015022d800b664826828017b8a187b89107b8b087b879567c0035020da0079e68267c8038268c0038262d803826ad003826b70c87b0b826c68c88c0cd88c08c88b0bd37b09d87b07da9807826878c8a80882698000c89202d8a809c82909c88707d88708c898089569ff079599b900959a00027bac88007bab90007ba798007ba8a0009568ff0795884103826728015020dc0087e69567a0033308405020de00cbe3956b000382bab80082b8b00082b9a80082b7a0005022e00071645208e2008268687b6880038268707b6888038268787b68900395688003826980007b6998037b6728015020e200bce4826730013300e4000a03826938013302e60028ce62826938015022e600c762d4780298aa206f99979820d4a80898992049263803492658034926500349264803492640033a0a0800023a0b1000023a0c1800023a072000027b6a78037b6b70037b6c68037b6760037b6930037b68280333082095696003956a4003956b20037b622003826728015020e80078e6956700033308405020ea00e8e2956b000382ba1882b81082b90882b75022ec0093635108e602003308800202838833070133090a0728113308800202838833070133090a07014926700149266801492660013302ee00140700000000717b484e01956860017b67780133075020f000bee34926580149265001492640014133070495684001492648015020f200a0e339086c020256183f1220036c020240330880020228500233088002022848024926b0014926a8014926a0013302f400140700000000717b484e019568a0017b67b80133075020f60056e34926980149269001492680012233070495688001492688015020f80038e339086c020256183f1220036c020240330880020228e801330880020228e0014926100249260802492600023302fa00140700000000717b484e01956800027b67180233075020fc00eee24926f8014926f0014926e001413307049568e0014926e8015020fe00d0e239086c020256183f1220036c0202403308800202288001330880020228780149265002492648024926400233020001140700000000717b484e01956840027b67580233075020020186e24926380249263002492620022233070495682002492628025020040168e239086c020256183f1220036c020240330880020228180133088002022810014926b0024926a8024926a002140700000000052f44ec9568a0027b67b80233075020060123e249269802492690024926880233070495688002492680025020080106e239086c020256183f1220036c020240330880020228b600330880020228ae0049265004492648044926400414070000000065063cd9956840047b675804330750200a01c1e139086c020256181f0b20036c02022001330880020283883307013309040a07014926f0024926e8024926e00233020c01140700000000717b484e019568e0027b67f802330750200e0176e14926d8024926d0024926c002113307049568c0024926c8025020100158e139086c020256183f1120036c0202403308800202280833088002020183883307013309240a077b673801330012012833e57b673801502012012ce58377330833090a28c1df8267380133085020140116e58378330733090a072816fd33076802027b67b800390768020255170407283d3295670010837780053308330018010a01019569381081976405524759cb56840a28fb1b52475448d1910a2853155147419bd89571015247dffd17a20a284f105147bb9c05a971045247931339d50a28fe1851473eed62dd43075147e9b13ae6e105524703defd060a287d1d514772615407dd095247b3a75e090a28b2205247dd0d16180a285b125247dd72b8230a287b195247a39c8a240a289517514767e53c315e0652473aa84b3f0a288c105147190fc140830a956938185147bb5a975c0a2804134929400149293801492930014929280195670020837760f933001a010a0a33021c01283a6550221c01376550221e01cd6651070628f9258267b80081775617030728fd259568381849286001492858014928500149284801059567ff079577e1049568801950202001abe09567ff079577398277a8047b67b8009567ff079577c104330840502022015fde956aff0795aa3995ac000482cba00082c8980082c9900082c7880050222401b85e5108062835237c68b8008e88492a8004492a78047ba868049568ff079588a104492a70047b67b8003300f8022846df956738184927c0024927b8024927b0024927a802956700208377e0fa330026010a0a33022801284e64502228014b6450222a015b62510706283c258267b8008177561703072840259567c01133084050202c01badd95683810958900018297a0007b6718829798007b6728829790007b6720829788007b6730956838184928e0024928d8024928d0024928c802049567a0119568001b50202e019fdf95673810827478018270700182738001827b680197473f980801d4870797383f984901d4980897093f98ba01d49a0c9839017b6bb00084bb019abad2a808d27a02d2a90984c77f7b67a800dab70c7b6c7088c7207b626094277b68687b6958d4980894877b6bb80088b801aa7806288c24826928826a30d49a07826820826b18d4b808d48707987720d49808978820d4780851080628d82164a77b6090007b6498007b63a000826870956a381095ab00017bb8488268607bb8508268687bb858956880118269587bb96050203001dddd8267b800510706289721502232013562520806288a218268b000848800ff83a72095693810826a90007b9ad0007b98c800826898007b98d80095680011826aa0007b9ae0005020340192dd330433034926b0008267a8008e779777057b67b8003302360128bc6150223601b961826220c8290ac87a00d3900ad8900bdaa70bd84907da8807c83707d83708826928c87909c89b0bd87907d89b09826318826ab000c83a0ac8a808c88707c8970c8ec78eb8dbc708d4cb078e09db780951090628b0298267308268b800d87807d32008d8200950223801e160510a06289429956938108267b8007b97a800640a7b9ab0007b9bb8003307409568e0107b9cc0007b6aa8007b6ba0007b6cb00050203a01ccdc956838108267187b87608267287b87588267207b87508267307b87488267b0007b8780008267a0007b87788267a8007b8770648b9567c0109568a01095698010826ab8007bba6850203c01503c826aa000826ba8008262b800d4a2078268b000d4b808d48707987720d4a808978820d4870751070628172095683810828790008289a0007b69980064a982838800828a980028171c956738184927200349271803492710034927080395670020837740fb33003e010a0a3302400128ab5f50224001a85f82b71882b82082b91082ba08d49808d4a707d4870751070628b2228267b8008177330843ac780628b4229567c012330042013302160428d5629568381095890002829788007b67b800829790007b67b000829798007b67a8008297a0007b67a00095670020837760fb3308240a0195673818957900038298287b6898008298307b6890008298387b6888008297407b67800033078002037b67788377330044010a033302460128b95d50224601b65d956a3810826b800095ac00027bcb40826b88007bcb38826b90007bcb30826b98007bcb28826ba0007bcb60826ba8007bcb58826bb0007bcb50826bb8007bcb487bc9787bc7707bc8689567a0129568801295696012492a8002502048011e449567401233084050204a01b3d9956a381095ac000282cb2082c81882c91082c70850224c01135a51080628901e492a0002492af801492ae8010195682012492af0017b67b8003300f80228aada956738184927e0034927d8034927d0034927c80395670020837700fc33004e010a0a3302500128215e502250011e5e82b7d80082b8e00082b9d00082bac800d49808d4a707d487075107062846218267b800817756170307284a2195674015330840502052010bd9956a381095ac000582cb2082c81882c91082c708502254016b5951080628e81d3a082800027ba800053a0b3000023a083800023a0940000295ac00047bcbf8007bc8f000956820157bc9e8007b67b8003300f80228ebd949298007492978074929700749296807956700108377a007330056010a0a3302580128735d50225801705d50225a011f5d51070628c0208267b80081775617030728c4209567ff0795774133084050205c0160d8956aff0795aa3982ab2082a81882a91082a70850225e01c158510806283e1d490a491af895680010492828f89568ff07958821956a0010492a20f8127b67b8003300f8022850d9956738184927c0034927b8034927b0034927a803956700208377e0fb330060010a0a3302620128c75c50226201c45c50226401655c5107062843208267b8008177330843ac78062845201407ffffffff000000007b67b80095670015330066013302160428f25f956838108287c8047b67b0008287d0047b6790008087d8047b6788009567e014330068013302200428c75f95683810958900048297b8007b67a8008297b0007b67a0008297a8007b6798004928a004826788007b979800826790007b97900064899568c0148267b0007b978804330750206a0177d833026c0195683810014928800449287804492868040164893307209568a0144929700450206e014ed833086c020239076c020256173f0b20036c020240019517e08479e07b69880064913307800202837783997b68b0003308407b679000330070010a06826a88003302720128085e826a880050227201015e7b6780006f877b67786f977b67706fa77b67689517e08477e07b6788006471826798008477ff8269a0008498ff8269b800826aa800d2a909956a3810492a600495ab00047bb9587bb850956880147bb748330750207401a5d782676895683810958900047b97408267707b97388267787b9730648a33072095686014826980007ba928045020760174d78268b000818756173f08480840019517e08477e07b67b8006471837933084082679000330078010a06826ab80033027a01285356826ab80050227a014c56826888007b8a187b89107b8b087b879567401450207c010fd895683810958900048297207b67b8008297187b67b0008297107b67a8008297087b67a0009567201433084050207e01b2d5956a381082a7000495ac0003502280014f5d51070628971a8267a00095a900037b97c8008267a8007b97d0008267b0007b97d800956800148267b8007b97e00064b77b6bb8003300f802289cd6492900064929f8054929f0054929e80595670010837720060a0a01956b381095bc000582c7f80082b8000682c9f00082cae800d49808d4a707d4870751070628aa1d8267b80081775617030728ae1d492b2006492b1806492b1006492b08060795670003956840165020820123d7956800038287107b67a8008287087b67b80082877b67b0009567e00233084050208401d2d4956b000282baf80082b8f00082b9e80082b7e00050228601785551080628af198268a8009788209889204926d8028268b000956a00027ba8c0008268b8007ba8c8009568c0027ba9d0007b67b8003300f80228b4d59567381849176049175849175049174895670020837780f80a0a01956a381882a75882a86082a95082aa48d49808d4a707d4870751070628ec1c8267b8008177330843ac780628ee1c9567ff0795774104330088013302160428615c9568ff07958839958900048297187b67788297107b67a8008297087b67b000956700208377a0f83308240a0195673818827880007b68a0008278787b6890008278707b6888008277687b6780003a074800027b6740956aff0795aa397ba700043a085000023a095800023a076000027b683095ab00037bb8f8007b69287bb9f0009568ff07958821047b67387bb7e800330750208a01c3d49568ff079588394928e0034928d8034928c8030664893307209568ff07958801044929d00350208c0198d433086c020239076c020256173f0b20036c020240019517e08479e07b69706491330780020283777b68980083993308407b67b80033008e010a06826a7033029001282556826a70502290011f5633078002037b677083777b6720330092010a0382697033029401286151826970502294015b514929c003959b00037bb8b8007bb7b0009568ff079588e1037bbaa80033075020960101d48267489568ff07958839958900037b97a0008267507b9798008267587b979000648a3307209568ff079588c1038269607ba9880350209801c7d382689800818756173f08480840019517e08477e07b676050229a01d35933009c010a06826a6033029e0128bb56826a6050229e01b5569567ff079577a1035020a00175d49569ff079599397c97680352070628031b8267789777209879208267b0008268a800d487077b6970d4970752070628b51b5020a201ec4f956738184927a000492798004927900049278800029567ff07957781039568c0185020a40117d49568ff079588398284600395890003829758829b48829c509518e08488e06481826a8800c8ca0a82628000c8b202d8b20bc8ba0ad3ca03d8ca09da3b09826b9000c87b0bc89b0cd8bc038260a000c84000d87b0bc80b0bc83b00d87c03d3040bd84004dab304d3c707d4b707da79047b8c107b8a087b827b801851040628661b956738184927c0004927b8004927b0004927a800029567e0185020a601fbd39569ff0795993949294003826770959a00037ba7388267a8007ba7309568ff07958861038267b0007ba72833075020a80153d29567ff0795773949272003492718034927100364793307209568ff0795884103492908035020aa0129d29517e08477e07b6778647182699800819756173f08480940019517e08477e07b6798005022ac0129583300ae010a06826a98003302b001280251826a98005022b001fb508268787b8a187b89107b8b087b879567ff07957721035020b201bbd29569ff07959939959b000282b7f00082b8e8008292000382baf800826b8800c87b0b826c8000c88c0cd88c08c88b0bd37b09d87b07da980782689000c8a8088269a000c89202d8a809c82909c88707d88708c89808956938187b9cc8007b9bd0007b97d8007b98e000956800198267785020b401c8d29567ff07957701033308405020b60108d0956aff0795aa3995ac000282cbe00082c8d80082c9d00082c7c8005022b801615051080628de148268800095ab00027bb8a800826888007bb8b000826890007bb8b8009568ff079588e1028269a0007bb9c0007b67a0005020ba01e5d0956cff0795cc39492c600282677095cb00027bb7588267a8007bb7508267b0007bb748492c8002492c7802492c70023a07a800023a08b000023a09b800023a0ac000027bb7a0007bb898007bb990007bba88003308209569ff079599c102956aff0795aaa102956bff0795bb8102492c68028267a0005020bc01b2d233078268b80033090a0728cc2195673818492700034927f8024927f0024927e80295670020837720fb3300be010a0a3302c0012861555022c0015e5582b7f80082a8000382b9f00082bae800d49808d4a707d48707510706285e198267b800817756170307286219956700123308405020c201bace956a381095ac000182cbe00082c8d80082c9d00082c7c8005022c401164f510806289313492ac001492ab801492ab0019568e011492aa8017b67b8003300f80228aecf4929e0074929d8074929d0074929c80795670020837700f83300c6010a0a3302c8012836535022c801335382b7d80082b8e00082b9d00082bac800d49808d4a707d4870751070628d9188267b80081775617030728dd185020ca016d3e9567381849074917f84917f04917e8059567ff0795778101956820185020cc0124d0956aff0795aa3982a748018478ff0052080628b11895ab000182b86082b95882ba50847700ff956b3818491b20491b18491b10491b08057bba307bb7287bb9387bb84095674018956860185020ce0156d09567ff07957761013308405020d00196cd9567ff07957739957900018298407b68b0008298387b68a8008298307b68a0008297287b67b80033078002037b67980083773300d2010a033302d40128c4545022d401c154510706284812826998005022d601b14b49292001959c00017bc8187bc7109568ff07958841017bca0864b75020d8015ace3a07c800023a08d000029569ff079599397b9700013a07d800027b98f8003a0ae000027b97f00064973308209569ff07959921017b7ae8008267b8005020da01f6cf33088002028388330733090a0728781f49298006492978064929700649296806956700108377a0060a0a01956b381095bc000682c77882c8800082c97082ca68d49808d4a707d4870751070628ae178267b80081775617030728b217492ba006492b9806492b9006492b880602956760059568c0165020dc018fce826778057b67b800826770057b67b000826768057b67a800826760057b67a000956740053308405020de0136cc956b000582b75882b85082b94882ba405022e0016c535107062817118267a000956900057b97208267a8007b97288267b0007b9730956820058267b8007b973864a77b6ab8003300f8022820cd51473182a0700a28201749298001492978014929700149296801956700208377a0f93300e2010a0a3302e401282f525022e4012c525022e6014a50510706283b178267b8008177330823ac7806283d179567ff079577a1053300e8013302160428c653956aff0795aa3995ab000582b76882b87080a97805492a60057bb9587bb8509568ff07958881057bb74833075020ea018ecc9567ff0795773949274005492738054927300564793307209568ff0795886105492928055020ec0164cc39086c020256183f0b20036c020240019517e08479e07b69b80064913307800202837783993308403300ee010a0601826ab80082a71882a81082a90882aa5022f0014a4e956b381895bc00017bcaa0007bc998007bc890007bc788009567ff07957741059568c0195020f201e8cc9568ff07958839958900058297207b67b8008297187b67b0008297107b67a8008297087b67a0009567ff07957721053308405020f40184ca956aff0795aa3982a7000595ac00045022f6011e5251070628660f8267a00095a900047b97c8008267a8007b97d0008267b0007b97d8009568ff07958801058267b8007b97e00064b77b6bb8003300f8022867cb9567381849278002492778024927700249276802956700208377a0fa3300f8010a0a3302fa01286f505022fa016c505022fc01974e51070628aa158267b8008177330843ac780628ac159567ff079577e1073300fe01330220042813529568ff07958839958900078297b8007b67a8008297b0007b67b0008297a8007b67b800956700208377c0fa330804330000020a013302020228005050220202fd4f82b7880082b8900082b9980082baa000956bff0795bb3995bc00077bcaa0007bc998007bc890009568ff079588c1077bc7880033075020040291ca9568ff079588394928800749287807492868070664893307209568ff079588a107492970075020060266ca33086c020239076c020256173f0b20036c020240019517e08479e07b69900064913307800202837783997b68a0003308407b679800330008020a06826a900033020a02282050826a900050220a0219507b6788006f877b6780006f977b67786fa77b67709517e08477e07b67900064718267a8009777209877209569ff0795993949296007959a00077ba7588267b0007ba7509568ff07958881078267b8007ba748330750200c02bcc98267709568ff07958839958900077b97408267787b9738826780007b9730648a3307209568ff0795886107826988007ba9280750200e0283c98268a000818756173f08480840019517e08477e07b67b8006471837933084082679800330010020a06826ab80033021202286248826ab800502212025b48826890007b8a187b89107b8b087b879567ff0795774107502014021aca9567ff07957739827708077b67b8009567ff079577210733084050201602cec7956aff0795aa3982ab000795ac000682c8f80082c9f00082c7e8005022180227485208a70c7c68b8008e88492ae006492ad8067ba8c8069568ff0795880107492ad0067b67b8003300f80228b7c8492900074929f8064929f0064929e806956700108377200733001a020a0a33021c0228e84f50221c02e54f82b7f80082a8000782b9f00082bae800d49808d4a707d48707510706280d138267b800817756172307281113956700108377400733080433001e020a013302200228f54b50222002f24b82b90882b71082b81882ba207b6a18077b6810077b67080795672007956800077b69000750202202ef2a956800078287387b67b8008287307b67b0008287287b67a8008287207b67a0009567e00633084050202402b4c6956b000682b7f80082b8f00082b9e80082bae00050222602e64d5207940b8267a000956900067b97c0008267a8007b97c8008267b0007b97d0009568c0068267b8007b97d80064a77b6ab8003300f8022898c7956738184927600349275803492750034927480395670020837780fb330028020a0a33022a02280f4b50222a020c4b82b75882b86082b95082ba48d49808d4a707d487075107062810128267b8008177561703072814129567001333084050202c02fdc5956a381095ac000282cbe00082c8d80082c9d00082c7c80050222e0259465208d90a3a0848000295ac00027bc8c0003a0b5000023a085800023a096000027bcbb8007bc8b0009568e0127bc9a8007b67b8003300f80228dbc64929c0064929b8064929b0064929a806956700108377e006330030020a0a33023202280c4e50223202094e50223402f4495107062888118267b8008177330863ac7806288a119567a0063300360233021604288f4d8267a0067b67b8008267a8067b67b0008267b0067b67a8008267b8067b67a00095678006330038023302200428604d826780067b6778826788067b6770826790067b6768826798067b676095670010837700073308440a0195673810957900068298c8007b6898008298d0007b6890008298d8007b6888008297e0007b67800033078002037b6758837733003a020a0382695833023c02284e4382695850223c024843826980007b693806826988007b693006826990007b692806826998007b692006492658068269a0007b6978068269a8007b6970068269b0007b6968068269b8007b6960067b6850067b6748069567600695684006956920067b6a400650203e025629826780007b67d805826788007b67d005826790007b67c805826798007b67c0058267607b67f8058267687b67f0058267707b67e8058267787b67e0058267a000956b00067bb7188267a8007bb7108267b0007bb708956700069568e0059569c005826ab8007bba502040023b2e9567a00533084050204202d0c3956b000582bab80082b8b00082b9a80082b7a0005022440276445208b0084926980549269005492688059568800549268005017b67b8003300f80228c9c495673818492700024927f8014927f0014927e80195670020837720fa330046020a0a3302480228de4950224802db4982b7f80082a8000282b9f00082bae800d49808d4a707d4870751070628810f8267b80081775617030728850f50204a02843350204c0205419568381849282002492818024928100249280802059567ff079577e1069568401a50204e0230c5956aff0795aa3995ab000682b7a80082b8b00082b9b80082bac000847700ff867701956b3818492b4002492b3802492b3002492b28020595bc00027bca607bc9587bc8507bc7489567601a9568801a502050025ec59567ff079577c106330840502052029ec29567ff07957739957900068298a0007b68b000829898007b68a800829890007b68a000829788007b67b80033078002037b6798008377330054020a033302560228c84950225602c54952074f078269980050225802b74049298006959c00067bc8787bc7709568ff079588a1067bca6864b750205a0260c33a078800023a089000029569ff07959939959b00067bb7603a079800027bb8583a0aa000027bb75064973308209569ff07959981067b7a48068267b80050205c02fbc433088002028388330733090a07287d148388330733090a072872144929c0054929b8054929b0054929a805956700108377e00533005e020a0a01956a381095ab0005502260021c465207f70d8267b8008177541703fe0d9567a002330840502062027fc18267b8027b67188267b0027b67288267a8027b67208267a0027b6730956738104927e0054927d8054927d0054927c805039567800295680016502064026cc3826990028264880282629802826c800297973f984801d4870797283f7b69b000989901d4980897493f98ca01d49a0b9829017b6ca80084cc019acad2a808d27a03d2a90984b07fdac00b7b6b7088b7207b636094377b68687b6958d4980894877b6cb80088c801ab78570d826928826b30d49b07826818826a20d4a808d48707987720d49808978820d478085208ae0564b77b6090007b6498007b62a000826870956a00027ba8608268607ba8688268687ba870956860028269587ba97850206602b6c18267b80052079f06502268021046510868058268a800848800ff83a720826a9800956900017b9ae8007b98e0008268b0007b98f0009568e001826aa0007b9af80050206a026fc1330433034926b000826790008e779777057b67b80033026c0228994550226c029645826220c8290ac87a00d3900ad8900bdaa70bd84907da8807c83707d83708826928c87909c89b0bd87907d89b09826318826ab000c83a0ac8a808c88707c8970c8ec78eb8dbc708d4cb078e09db78095209fa0d8267308268b800d87807d32008d8200950226e02c044520ae00d8267b8007b67c0017b60c8017b6bd0013307409568c0017b6cd8017b60a8007b6ba0007b6cb00050207002b3c0826718956b00017bb7788267287bb7708267207bb7688267307bb7608267b0007bb798008267a0007bb790008267a8007bb788009567a0019568800195696001826ab8007bba80005020720236208269a000826ba8008262b800d492078268b000d4b808d48707987720d49808978820d4870752070004956c000182c7a80082c8b8007b6898008263a00182cab00001d3b704d8b70cd82300da400cc99a08c9c804d8c808d89a0a82699800c9a90a8269b000c99a0ac98a0ac9b707c90707c92308d4a707d44809d47909d44707989920977720d4970752079c0364277b68b80050207402dbc383788169b80033073300fc020a0728710d492940064929380649293006492928069567001083776006330076020a0a3302780228e94650227802e64650227a0264465207360b8267b8008177330843ae783a0b9567000533007c0233021604287046956800058287107b6798008287087b67b00082877b67b8009517e08477e07b67a000647195670010837780063308240a0195673810957b000682b86082b95882ba5082b7487b6850826ba0007bb8187b69487bb9107b6a407bba087b67387bb733078002037b67a80083777b6790000a03018269a8008097108298829908d48707d497075107b40a826798009777209878208267b0008269b800d497077b689800d487075107f60a8267900033007e020a038269a80033028002280c3c8269a80050228002053c4926f8047b68f0047b67e8049568e0047b6ae00433075020820287be4926d8044926d0044926c004013307209568c0044926c8045020840269be33086c020239076c020256173f0b20036c020240019517e08479e07b697864913307800202837783997b6888003308407b678000330086020a06826a7833028802282544826a78502288021f447b67706f877b67686f977b67606fa77b67589517e08477e07b677864714926b804826798007b67b0048267b0007b67a8049568a0048267b8007b67a004330750208a02d7bd826758956a00047ba798008267607ba790008267687ba78800330720956880048269707ba9800050208c02aabd82688800818756173f08480840019517e08477e07b67880064718379330840826780000a06826a880082a71882a81082a90882aa6f7b6f886f996faa8267787b7a187b79107b78087b7b8268a00050208e02cbbe95676004330840502090020fbc956b000482b77882b87082b96882ba605022920245435207f3008267387b6740048267407b6748048267487b675004956840048267507b67580464a77b6aa0005020940203bd82679000330096020a038269a8003302980228153b8269a800502298020e3bd4780298aa206f99979820d4a8089899204926f803826798007b67f0038267b0007b67e8038267b8007b67e003492618043a0ae800023a0bf000023a0cf800023a070001027b6a3804956a00047bab307bac287ba7207ba9107ba80833082095692004956a0004956be0037b6200048267a00050209a02b4be9567c00333084050209c0224bb956b000382bad80082b8d00082b9c80082b7c00050229e02ca3b5108b009009569381049294001492938014929300195686011492928010433075020a0021ebc5022a202da423a026800023a0a7000028268309587207b6750d88707826820c878097b6948d88908da77083a0c7800023a0780000264207bb2187b6a787bba1064c27bbc087b6b980064797bb7826728c878087b6840d87807826818c887077b6738017b6980007b6288005022a4020d3c520a062834de95674011826898007b63a8007b64a0005020a60283bc5022a802c23cd8c802826cb000826a38c8ac0cc82c0c5022aa02d940520835ff956c381082c2200195ca000182a81882a91082ab087bcbe8007bc9f0007bc8f800956820117bc200017b64b8005020ac023ebb5022ae02a5396402826c98007bc00864a97bca644a7bca1064707bc7187b6a787b63b800648464b3285bff49265802492650024926480295684002492640020333075020b002f6ba5022b202b2413a020801023a0a1001028268309587207b6750d88707826820c878097b6948d88908da77083a0c1801023a0720010264207bb2187b6a787bba1064c27bbc087b6b980064797bb7826728c878087b6840d87807826818c887077b6738017b6980007b6288005022b402e53a510a32f995672002826898007b63a8007b64a0005020b6025dbb5022b8029c3bd8c802826cb000826a38c8ac0cc82c0c5022ba02b33f52080ffe956a000282a93882a83082ac2882ab207bab7bac087ba810956800027ba9187b64b8005020bc0222ba5022be0289386402826c98007bc00864a97bca644a7bca1064707bc7187b6a787b63b800648464b32867ff3308800202838833070133090a0728560b3308800202838833070133090a0728450b3308800202838833070133090a0728340b3308800202838833070133090a0728230b9567ff079577394927f8074927f0074927e807140700000000717b484e95682010956938107b9733075020c00284b99568ff079588394928e0074928d8074928c807226489330704956800104929d0075020c2025db939086c020256183f1220036c020240330880020228aa06330880020228a2063308800202838833070133090a07289d0a3308800202838833070133090a07288c0a3308800202838833070133090a07287b0a3308800202838833070133090a07286a0a3308800202838833070133090a0728590a3308800202838833070133090a0728480a3308800202838833070133090a0728370a3308800202838833070133090a0728260a3308800202838833070133090a0728150a3308800202838833070133090a0728040a3308800202838833070133090a0728f3093308800202838833070133090a0728e2094929b8014929b0014929a8011407000000003f7d51e29568ff079588e1017b97c00133075020c40248b88267203300c6020a038269703302c8022868358269705022c80262354929a001959b00017bb898007bb790003307049568ff079588c1017bba88005020ca0207b88267409568ff07958839958900017b9780008267307b97788267287b9770648a3307249568ff079588a1018269387ba968015020cc02cfb782679800817756175f1a826898004808603307013309448268b8000a0728ff003307013309448268b8000a0728f0009567ff079577394927f8014927f0014927e8016479140700000000052f44ec9568ff07958821027b97000233075020ce026db79567ff079577394927e0014927d8014927d00164793307049568ff07958801024929c8013300d402283fb79567ff0795773949273802492730024927280264793302d002140700000000717b484e019568ff07958861027b97400233075020d2020ab79568ff079588394928200249281802492808021164893307049568ff0795884102492910025020d402dfb682679800817756173f19826898004808403307013309248268b8000a07280f3307013309248268b8000a07013308800202838833070133090a072812083308800202838833070133090a072801083308800202838833070133090a0728f0073308800202838833070133090a0728df07492ad800492ad0001407000000002b20fc8d7ba7e0009568ff0795880101492ac80033075020d60245b639086c020256181f1120036c0202203308800202280833088002020183883307013309040a07013308800202838833070133090a07287d073308800202838833070133090a07286c0752471f7447d5af039567381849278003492778034927700349276803956700208377a0fb3300d8020a0a3302da022868395022da0265395022dc022139510710043308800202838833070133090a07281a073308800202838833070133090a072809073308800202838833070133090a0728f8063308800202838833070133090a0728e7063308800202838833070133090a0728d6063308800202838833070133090a0728c5063308800202838833070133090a0728b4063308800202838833070133090a0728a3063308800202838833070133090a072892063308800202838833070133090a072881063308800202838833070133090a072870063308800202838833070133090a07285f063308800202838833070133090a07284e063308800202838833070133090a07283d063308800202838833070133090a07282c064926100149260801492600013302de02140700000000717b484e01956800017b67180133075020e00291b44926f8004926f0004926e000223307049568e0004926e8005020e20273b439086c020256183f1220036c020240330880020228c001330880020228b8013308800202838833070133090a0728b3053308800202838833070133090a0728a20549265003492648034926400314070000000005df02e6956840037b67580333075020e4020cb449263803492630034926280333070495682003492620035020e602efb339086c020256183f1220036c0202403308800202283c013308800202283401492690034926880349268003140700000000620d2894956880037b67980333075020e802aab349267803492670034926680333070495686003492660035020ea028db339086c020256183f1220036c020240330880020228da00330880020228d200956738104917384917304917286479140700000000717b484e956860107b974033075020ec0246b33302ee029568381001491820491818491808416489330704956840104919105020f00221b339086c020256183f1120036c0202403308800202286e330880020228674926500149264801492640013302f202140700000000717b484e01956840017b67580133075020f402d9b24926380149263001492620014133070495682001492628015020f602bbb239086c020256183f1120036c0202403308800202280833088002020183883307013309240a07014926b8034926b0034926a8039568a0034926a003017b67b8005020f80275b23308208267b8005020fa0277b6837833092033073300fc020a07280e33092033073300fc020a07015247a7c9ff014d9567381049278005492778054927700549276805956700108377a0053300fe020a0a01956a381095ab00055022000377355107e7003308800202838833070133090a0728700352475df12f2f6d95673810492740074927380749273007492728079567001083776007330002030a0a33020403287a35502204037735502206039e38510740023308800202838833070133090a07281f038267b800817756174397003308800202838833070133090a072803035247be8a5636b601956738104927a007492798074927900749278807956700108377c007330008030a0a33020a03280c3550220a03093582b7980082b8a00082b9900082ba8800d49808d4a707d48707510729023308800202838833070133090a07289e028267b8008177561723c0013308800202838833070133090a07288202956700208377c0fb3308040a019567381895790003829888007b68b800829890007b68b000829898007b68a8008297a0007b67a0009567e01333000c033302200428d43733020e039568381001958900038297a8007b6798008297b0007b6790008297b8007b6788008297c0007b6780008267a0007b9780008267a8007b97788267b0007b9770648a9567c0139568a0138269b8007ba96803502010034713956b381095bc000382c8880082c7900082c9980082caa0007bca607bc9587bc750956780137bc84850201203f6209567381082688000957900037b9882688800957a00027ba8f800826890007ba8f000826898007ba8e8008268a0007b98208268a8007b98188268b0007b9810647b956760139568401395692013826ab8007bba08033300140333023e0528a535330880020228d3ec5247686c9642e00095673818492700014927f8004927f0004927e80095670020837720f90a0a01956a381882a7f80082a8000182a9f00082aae800d49808d4a707d48707510706013308800202838833070133090a0728f4008267b8008177561743fd003308800202838833070133090a0728d800956700108377c0053308040a01330216039568381001958b000582b7a00082b9980082ba880082b89000977b2098bb20d4a909d48b0bd49b0b510bd4013308800202838833070133090a07288a008267b8008177330843ac782c023308800202838833070133090a07286c52479067cc7950956738184927c0014927b8014927b0014927a801956700208377e0f9330018030a0a33021a0328083450221a03053450221c0308325107ee023308800202838833070133090a07281c3308800202838833070133090a07280c838833070133090a07018267b8008177561723cf02330880020228e695670010837780073308040a0195673810957900078298487b68b8008298507b68b0008298587b68a8008297607b67a0009567ff0795770133001e033302200428443595670010827700f87b67980095670010827708f87b67900095670010827710f87b67880095670010827718f87b6780008267a0007b67d8078267a8007b67d0078267b0007b67c8079567e0079568c0078269b8007b69c00750202003b4108268e0078267e8078269f007826af8077b6ab8077b69b0077b67a8079567a0077b68a00750202203671e82678000956b00077bb758826788007bb750826790007bb748826798007bb7408267a0007bb7788267a8007bb7708267b0007bb768956780079568600795694007826ab8007bba60330024033302fc0428233333088002022851ea140a000000000bdb6579d37a0ad48a0ad49a0a88aa01140b00000000a7c9ff01d3b707d48707d49707887701d4a7074926d8004926d0007b67c000330780009568c0004926c800502026030ead39086c020256289f001820036c0202a000330780020283788000289bfa330780020283788000288ffa9567ff079577e100330028033302200428d8339567ff079577398278c0007b68a0008278b8007b68a8008278b0007b68b0008277a8007b67b80033078002037b67980083770a03018269980082970882988199106f77987a206f88978b20d4ba0a9777206f99989920d497079888208269a800979920989920d398088269b800d39707d487078268b000d3a808d4870752073901956700108377e0073308040a0195693810959b000782baa80082b7b00082b8b80082b9c000956bff0795bb39826ca0007bbc40826ca8007bbc38826cb0007bbc30826cb8007bbc287bb9607bb8587bb7509567ff079577a1009568ff07958881009569ff079599617bba4833002a0333023e05289b31330880020228c9e88267b8008177330843ac78fe0033088002022824fd95670020837740f93308040a0195673818957900018298087b68b8008298107b68b0008298187b68a8008297207b67a00033078002037b679800837733002c030a038269980033022e0328a4288269980050222e039d28826ba000959c00047bcb40826ba8007bcb38826bb0007bcb30826bb8007bcb28492960047bc8587bc7509567ff07957781049568ff07958861047bca4850203003f32233088002022812e89569ff07959939492998004929900014070000000032b297667b97a0009568ff079588c10049298800330750203203ebaa39086c020256181f1220036c020220330880020228aef4330880020228a6f49567ff0795776106330034033302160428bf319568ff07958839958900068297287b67b8008297307b67b0008297387b67a8008297407b67a00095670020837700fa3308240a0195673818957900018298c8007b6898008298d0007b6890008298d8007b6888008297e0007b67800033078002037b67788377330036030a033302380328a02c502238039d2c956aff0795aa39826b800095ac00057bcbe000826b88007bcbd800826b90007bcbd000826b98007bcbc800492a0006826ba0007bab2006826ba8007bab1806826bb0007bab10067bc9f8007bc7f0007bc8e80064ab9567ff07957741069568ff07958821069569ff0795990106826ab8007bba080650203a03970d826780009568ff07958839958900057b97a000826788007b979800826790007b979000826798007b9788008267a0007b97c0008267a8007b97b8008267b0007b97b000648a9567ff079577e1059568ff079588c1058269b8007ba9a80550203c03312133088002022850e6951130ff7b10c8007b15c0007b16b8009515d0008411f08289187b19108289107b19088289087b1982867b17289517900033084050203e03e6a7821898008219900095671fd86700821ac80a0b8477e0c8b803c879027b1920d8920cc8c303d383067b1818d88309da6c098214a800d8ab0b8216a000da000b821708c87b0bd87b0cc86b0bc89b0a821710c84707c8c707d8ba0cd86b0bc8b707c8c70b8eb78eacdbb70cd4ba078e38db7c08520865d86a07d34b08d84b0cda870cd36a07d48707db7c0952094d7b12707b13787b1a80003307409518707b1b88007b14105020400376a88217288218107b78187b76108218187b78088218207b78955130ff8210c8008215c0008216b8009511d000320049116049115849115033024203140700000000717b484e019518507b176833075020440323a849114849114049113041330704951830491138502046030aa839086c020256183f0b20036c0202400133088002028388330701330924330048030a07019511a0fd951900027b90587b95507b9648951560028411e064168289107b69308289087b695082887b68587b67384926180249261002492608029568000249260002330750204a039ca74926f8014926f0014926e001063307209568e0014926e80150204c037ea733086c020239076c020256173f0b20036c020240019517e08479e07b692864913307800202837783997b68483308407b674033004e030a0633025003287a255022500377258267309777209877204926d8017b677b67d0018267507b67c8019568c0018267587b67c0013307502052030ca7826708956a00017ba7b8008267107ba7b0008267187ba7a8003307209568a0018269207ba9a00050205403dfa6826848818756173f0e4808403302560328762d50225603732d330058030a06826a3033025a0328e426826a3050225a03de269567800150205c0395a77c678001510708330828f201492678014926700149266801956860014926600150205e037da65022600302285020620371a6826848818756173f0e4808403302640328082d50226403052d330066030a06826a303302680328482c826a3050226803422c7b67286f877b67206f977b67186fa77b67109517e08477e07b673064714926380182677b6730018267507b672801956820018267587b672001330750206a03fea5826710956a00017ba7188267187ba7108267207ba708330720956800018269287ba950206c03d6a5826848818756173f08480840019517e08477e07b67486471837933084082674033006e030a06826a483302700328b924826a4850227003b3248268307b8a187b89107b8b087b879567e0005020720377a68267e0008268e8008269f800826af000847700ff867701956b00027bb9387bba307bb8287bb7209568200282673050207403c6a633078002037b67488377330076030a0382694833027803285e23826948502278035823d4780298aa206f99979820d4a8089899204916784926980082677b6790008267507b6788008267587b6780004926b8004926b0004926a8004926a0003a0a2801023a0b3001023a0c3801023a074001027b6ad8007b6bd0007b6cc8007b67c0007b69707b68689569c000956aa000956b8000956c607b62603307330850207a03b8a7330801018269387b984919084919104919189551a0fd951700028270588275508276489511600232003a074801027b67207b6738023a085001023a095801023a0760010250227e03082a502080035ca4502282032f245020840350a433086c020239076c020256173f0b20036c020240019517e08479e07b69486491330780020250228603592b330088030a0633028a03289c2150228a03992150208c030ca450228e0314255020900300a4826868818756173f0e48084033029203281523502292031223330094030a063302960328c32250229603c02250209803c0a47c67a001510711330833078269583302c00328532350229a03ac2750209c03ada350229e0366235020a003a1a3826868818756173f0e4808403302a20328b6225022a203b3223300a4030a063302a6032855215022a60352215020a8036fa35022aa03cf245020ac0363a3826868818756173f08480840019517e08477e07b67685022ae039b233300b0030a063302b20328f9215022b203f6215020b40320a45022b6037f225020b80397a433078002037b676883773300ba030a038269683302bc03282f218269685022bc032921d4780298aa206f99979820d4a808989920492698004926b80082677b67b0008267707b67a8008267787b67a0008267207b67d8008267187b67d0008267107b67c8008267087b67c0003a0a6801023a0b7001023a0c7801023a078001027b6af8007b6bf0007b6ce8007b67e0007b6990007b6888009569e000956ac000956ba000956c80007b628000330733085020be0378a533073308018269585022c003fb2132003a078801027b67207b6738023a089001023a099801023a07a001025022c403e1275020c60335a25022c80308225020ca0329a233086c020239076c020256173f0b20036c020240019517e08479e07b6948649133078002025022cc0332293300ce030a063302d00328751f5022d003721f5020d203e5a15022d403ed225020d603d9a1826868818756173f0e4808403302d80328ee205022d803eb203300da030a063302dc03289c205022dc0399205020de0399a27c67a0015107113308330782695833020604282c215022e00385255020e20386a15022e4033f215020e6037aa1826868818756173f0e4808403302e803288f205022e8038c203300ea030a063302ec03282e1f5022ec032b1f5020ee0348a15022f003a8225020f2033ca1826868818756173f08480840019517e08477e07b67685022f40374213300f6030a063302f80328d21f5022f803cf1f5020fa03f9a15022fc0358205020fe0370a233078002037b67688377330000040a038269683302020428081f82696850220204021fd4780298aa206f99979820d4a808989920492698004926b80082677b67b0008267707b67a8008267787b67a0008267207b67d8008267187b67d0008267107b67c8008267087b67c0003a0aa801023a0bb001023a0cb801023a07c001027b6af8007b6bf0007b6ce8007b67e0007b6990007b6888009569e000956ac000956ba000956c80007b628000330733085020040451a3330733080182695850220604d41f32009511e0fe7b1018017b1510017b160801951520018411f0828b10828a18828c0882827b1a687b1c78d4ac08d4b20ad48a0a98aa207b1b70d4b808978820d4a8087b170852084b028297187b17488296108297087b175082977b17584921f8004921f0004921e8009518e0004921e0002064277b126050200804ba9f821858d46807821948821a50d4a909d497079877207b1620d46909979920d497075207f2019517c00050200a04519e821770821868d47808140700000000010000007b17101407e0ffffff00000000821960d87907821a7894a77b181894875107b401821ad800821bd000821cc8008218c0008397207b18287b18a0007b1c307b1ca8007b1b387b1bb0009518a0007b1a407b1ab800649650200c041c9f8217109577c0d876078218789487821818948751076201821748821820d487071408e0ffffff00000000821a58d88a08821b5094b8947851083e016469821828821c38d4c807821b40821630d46b0bd4b707987720d4cb0b97bb20d4b7075207170183974083aa207b1a58648650200e04b8a27b1750821758646850201004aaa26478821750646950201204cf9c821760c86707d86708821978821b30c8b909c88909d3b90ad8b90bdaa80b821870821a38c8a808d8a80a821c68821640c86c0cc8ca0ac88b0bd88b08c8a808d4b808140ac0ffffff00000000d8a70a949a948a510a94008377404921980049219000492188009518800049218000502014041a9e82162895661f1407e0ffffff01000000d26707821860c88707d88708821a78c88a09d8a90ada880a821870c88a0ad88a08821b68c8b808957b40d87b07c8790cd89c09da7709c8a909d8a907c887078218087b8b7b8c087b89107b87189551e0fe82101801821510018216080195112001320000330804330018040a0133021a0428552250221a045222510a0b50221c046923320033088002028388330701330933001e040a0733022004287224502220046f24330824330022040a0133022404281522502224041222510a0b5022260429233200330880020283883307013309330028040a0701951140ff7b10b8007b15b0007b16a8009515c0008411e064168289828a08828b108288187b67187b68787b6b707b6a689568607b6960330750202a04f49c4916584916504916400633072095684049164850202c04db9c39086c020256183f0b20036c020240019517e08479e07b6910649133078002028377839933084033002e040a0601826a1082a782a80882a91082aa1850223004c31e95aa0188ab01c8b909d49a0b88bb01c88b0bd88b08c887077b6a80007b6988007b6b90007b6798009567209568800050203204569d826730826838826920826a28826b187bb7107bb8187bb97bba08955140ff8210b8008215b0008216a8009511c00032009511e0fc951a00037ba0187ba5107ba608951520038411e06416829a187b6a9800829a107b6a9000829a087b6aa00082997b69a8008289107b6988008289087b69800082887b68788279827808807710140affffffff000000007b6a704926d8027b67407b67d0027b68307b68c8029568c0027b69387b69c002330750203404b29b4926b8024926b0024926a002013307209568a0024926a80250203604949b33086c020239076c020256173f0b20036c020240019517e08479e07b696864913307800202837783997b68b0003308407b67b800330038040a06826a6833023a0428211d826a6850223a041b1d8267788477ff826880008488ff82698800826a70d2a909492698027b69787b6990027b6880007b688802956880027b6788007b678002330750203c04099b826748956a00027ba7788267507ba7708267587ba768330720956860028269607ba96050203e04e09a8268b000818756173f08480840019517e08477e07b677050224004ec20330042040a06826a703302440428d41d826a7050224404ce1d9567400250204604929b8260580282635002826b480282624002d20b07d23208d287073308ffaa87fc018267a800d872098268a000d38b07d88b0c7b6950da790c82699000d8930a82689800d38007d880087b6a28da7a08d39309d497077b6c48da7c087b62707b6b687b60607b63585208c901826a40826938d4a907826430d447075107880282678800826878d4870782688000d487075107b702492638027b6920027b642802956820027b6a3002330750204804f29949261802492610024926000201330720956800024926080250204a04d4998268b000818756173f08480840019517e08477e07b674050224c04e01f33004e040a06826a403302500428a71f826a4050225004a11f7b67386f877b67306f977b67206fa77b67189517e08477e07b674064714926f8018267787b67f001826780007b67e8019568e001826788007b67e0013307502052045a99826718956a00017ba7d8008267207ba7d0008267307ba7c8003307209568c0018269387ba9c000502054042d998268b000818756173f08480840019517e08477e07b67b00050225604381f0a068269b00082976f77829808826c407bc7188297108299186f887bc8106f777bc7086f977bc782679000826858c97807826948c99708d8970782699800826a60c99a09826a28c9a909c979098267a000826a68c97a07826a50c9a707826aa800826b70c9ab0a956b00027bb9f8007bb8f0007bb7e8007bbae0009568e00264c750205804fd999551e0fc95170003827018827510827608951120033200492630014926280149262001140700000000b2418ffb956820017b673801330750205a044b9849261801826778956a00017ba710826780007ba70833070495680001826988007ba950205c0423988267607b67f8008267587b67f0008267687b67e8003307249568e0008269707b69e00050205e04fa97826798007b67d800826790007b67d0008267a0007b67c8003307449568c0008269a8007b69c00050206004cd978267b000817756177f158268b0004808800033070133096428c8003307013309648268b800330068040a0728c00049267001492668014926600114070000000005df02e6956860017b67780133075020620479974926580149265001492648013307049568400149264001330066042858974926b0014926a8014926a001140700000000620d28949568a0017b67b801330750206404359749269801492690014926880133070495688001492680015020660418978267b000817756173f138268b00048084033070133092428143307013309248268b800330068040a07280d8268b800330068040a0701951120fc951a00037ba0d8007ba5d0007ba6c8009515e0038411e06416807c10827a827b087b6a787b6c68d4ca077b6b70d4b70751073404828710828a088288330bff140cffffffff00000000d2ba0ad2b808d2c7077b68487b6738d487077b6a40d4a707510763048297187b6798008297107b6788008297087b67800082977b67900050206a04f81249263803826768956900037b97308267707b9728956820038267787b9720330750206c043296492618034926100349260803330720956800034926000350206e04159633096c020239076c020256173f0b20036c020240017b69589517e08479e07b695064913307800202837783993308407b6760330070040a06826a503302720428cf1a826a5050227204c91a7bba587bb9507bb8487bb7409567e0029568400350207404a296956800028289f8008287f000828ce800828be00082689800d389037b6928d8890882698800d8970a7b6a10da3a08826a8000d3ac027b6c30d8ac0c826a90007b6b50d8ab0a7b6a18da2a0c7b6720d37909d439077b6c08da7c085208a6034926d802826778956900027b97c0008267707b97c8009568c0028267687b97d00033075020760429954926b8024926b0024926a8023307209568a0024926a002502078040c9582678800826820c97807826908c997087b6820d8970782689800826928c98908826910c99808c978087b6828826958819782688000826a30c98a08826a18c9a8087b6830330b3f82689000826a50c98a0a7b6a50ac7b07480940019517e08477e07b671850227a04f61433007c040a06826a1833027e04288e19826a1850227e0488197bba787bb9707bb8687bb7608267287bb798008267207bb790008267307bb788008267507bb78000956760039568800350208004c89549269802826738956900027b9790008267407b978800956880028267487b9780003307502082042a94502284046f19502086041e948268589517e08477e07b67506471818756173f08480840019517e08477e07b6758502288044b140a06826a5882a71882a81082a90882aa6f776f8b6f996faa8268507b8a187b89107b8b087b879567400250208a04b994826748028268400282625802826a5002826b8000c87b0b826c9000c88c0cd88c08c88b0bd37b09d87b07da980782688800c8a80882699800c89202d8a809c82909c88707d88708c89808956900037b9ca0007b9ba8007b97b0007b98b8009568a00382675050208c04d1949567200233084050208e041592956b000282ba3882b83082b92882b72050229004bf125208be0082689000956a00027ba8826880007ba808826888007ba81095680002826998007ba9187b6798005020920408934926b801826738956c00017bc7b0008267407bc7a8008267487bc7a0004926d8018267687bc7d0008267707bc7c8003a07c801023a08d001023a09d80102826a787bcac0007bc7f8007bc8f0007bc9e8003a07e001023308209569e001956ac001956ba0017bc7e0008267980050209404de94955120fc951700038270d8008275d0008276c8009511e0033200004926d0004926c8004926c0001407000000001efdc6969568c0007b67d80033075020960454924926b8004926b0004926a8003307049568a0004926a00050209804379239086c020256183f1120036c0202403308800202286833088002022861492610014926080149260001140700000000052f44ec956800017b671801330750209a04f4914926f8004926f0004926e8003307049568e0004926e00050209c04d79139086c020256183f1120036c0202403308800202280833088002020183883307013309240a07014926900149268801492680011407000000008cd350e4956880017b679801330750209e048a91492678018267687b6770018267707b676801330704956860018269787b6960015020a00464918267287b6758018267207b6750018267307b674801330724956840018269507b6940015020a2043b9182679800956a00017ba738826788007ba730826780007ba72833074495682001826990007ba9205020a4040e91826758817756177f0c82685848088000013307013309648268603300a6040a0701951160fe7b1098017b1590017b1688019515a0018411e064163a07e801027b67387b6778013a08f001023a09f801023a070002027b68287b6870017b69207b696801956860017b67307b67600133075020a80498905022aa041d125020ac048c9033086c020239076c020256173f0b20036c020240019517e08479e07b696864913307800202837783997b68783308407b67703300ae040a063302b00428ef115022b004ec1133078002037b676883777b67183300b2040a033302b404281d105022b4041a105020b60421905022b804b9145020ba041590826878818756173f0e4808403302bc042897165022bc0494163300be040a063302c00428ec115022c004e9115020c204d5907c67e000510719955160fe8210980182159001821688019511a00132005022c4047a135020c604ba8f8267183300c8040a033302ca042876105022ca0473105020cc049e8f8267387b6798008267287b6790008267207b678800330724956880008269307b6980005020ce04758f826778817756175f0b826878480860013307013309448268703300d0040a0701951160fe7b1098017b1590017b1688019515a0018411e064168279827808827a108277187b67207b6778017b6a287b6a70017b68307b686801956860017b69387b69600133075020d204098f5022d4048e105020d604fd8e33086c020239076c020256173f0b20036c020240019517e08479e07b696864913307800202837783997b68783308407b67703300d8040a063302da042860105022da045d1033078002037b676883777b67183300dc040a033302de04288e0e5022de048b0e5020e004928e5022e2042a135020e404868e826878818756173f0e4808403302e6042808155022e60405153300e8040a063302ea04285d105022ea045a105020ec04468f7c67e000510719955160fe8210980182159001821688019511a00132005022ee04eb115020f0042b8e8267183300f2040a033302f40428e70e5022f404e40e5020f6040f8e8267207b6798008267287b6790008267307b678800330724956880008269387b6980005020f804e68d826778817756175f0b826878480860013307013309448268703300fa040a073302fc042880135022fc047d137b6a50829a087b6a7082997b69788289828a08828b108288187b67587b68087b6838027b6b107b6b30027b6a187b6a2802956820027b69207b69200233075020fe04768d50220005490d502002056a8d33086c020239076c020256173f0b20036c020240019517e08479e07b694864913307800202502204057314330006050a063302080528b60a50220805b30a50200a05268d50220c052e0e50200e051a8d826868818756173f0e48084033021005282f0c502210052c0c330012050a063302140528dd0b50221405da0b50201605da8d7c67a0015107113308330782695833023c05286d0c8267207b6780018267187b6788018267107b679001956880018267087b679801330750201805ab8c50221a05640c50201c059f8c826868818756173f0e48084033021e0528b40b50221e05b10b330020050a063302220528530a50222205500a502024056d8c50222605cd0d50202805618c826868818756173f08480840019517e08477e07b676850222a05990c33002c050a0633022e0528f70a50222e05f40a502030051e8d502232057d0b50203405958d33078002037b67688377330036050a0382696833023805282d0a82696850223805270ad4780298aa206f99979820d4a808989920492698004926b80082677b67b0008267707b67a8008267787b67a0008267087b67d8008267107b67d0008267187b67c8008267207b67c0003a0a0802023a0b1002023a0c1802023a072002027b6af8007b6bf0007b6ce8007b67e0007b6990007b6888009569e000956ac000956ba000956c80007b6280003307330850203a05768e330733080182695850223c05f90a32007b6a38829a087b6a7082997b69788289828a08828b108288187b67307b68407b6838027b6b487b6b30027b6a507b6a2802956820027b69587b692002330750204005168b50224205e90a502044050a8b33086c020239076c020256173f0b20036c020240019517e08479e07b692864913307800202502246051312330048050a0633024a05280d0950224a050a098267389777209877204926f8017b67387b67f0018267707b67e8019568e0018267787b67e001330750204c059e8a826708956a00017ba7d8008267107ba7d0008267187ba7c8003307209568c0018269207ba9c00050204e05718a826868818756173f08480840019517e08477e07b672050225005a90a330052050a06826a203302540528730a826a20502254056d0a9567a00150205605248b7c67a0015107ea018267587b6780018267507b6788018267487b679001956880018267407b679801330750205805028a50225a05bb0950205c05f689826868818756173f08480840019517e08477e07b672850225e052e0a330060050a0633026205280808502262050508492658018267387b6750018267707b674801956840018267787b674001330750206405a289826708956a00017ba7388267107ba7308267187ba728330720956820018269207ba920502066057989826868818756173f08480840019517e08477e07b676850226805b10933006a050a06826a6833026c05287b09826a6850226c0575099567000150206e052c8a956b000182b782b81882b91082ba08847700ff956b00027bb8587bb9507bba487bb74095684002826728502070057f8a33078002037b67688377330072050a0382696833027405281707826968502274051107d4780298aa206f99979820d4a808989920492698004926b8008267387b67b0008267707b67a8008267787b67a0008267407b67d8008267487b67d0008267507b67c8008267587b67c0003a0a2802023a0b3002023a0c3802023a074002027b6af8007b6bf0007b6ce8007b67e0007b6990007b6888009569e000956ac000956ba000956c80007b62800033073308502076055f8b33073308018269303302780528de07330882693050227805d6073200951180fc951900037b90787b95707b9668951580038411e06416807a108279827b087b69587b6a48d4a9077b6b50d4b70751077e038287187b67788287107b67688287087b676082877b677050207a05850449269802826748956900027b9790008267507b978800956880028267587b978000330750207c05bc8750227e05010d50208005b08733096c020239076c020256173f0b20036c020240017b69389517e08479e07b693064913307800202837783993308407b6740330082050a0601826a3082a71882a81082a90882aa502284058d097b6ab8027b69b0027b68a8027b67a002956740029568a00250208605378895680002828958828750828c48828b40826878d389037b6920d88908826968d8970a7b6a08da3a08826a60d3ac027b6c28d8ac0c826a707b6b30d8ab0a7b6a10da2a0c7b6718d37909d439077b6cda7c085208cf0249263802826758956900027b97208267507b9728956820028267487b9730330750208805ca86492618024926100249260802330720956800024926000250208a05ad86826768826818c978078269c997087b6818d89707826878826920c98908826908c99808c978087b68208269388197826860826a28c98a08826a10c9a8087b6828826a70826b30c9ab0b7b6b3056173f08480940019517e08477e07b67386471837933084082674033008c050a0601826a3882a71882a81082a90882aa50228e055508956b00027bbad8007bb9d0007bb8c8007bb7c0008267207bb7f8008267187bb7f0008267287bb7e8008267307bb7e0009567c0029568e00250209005628749261803492610034926080349260003029567e0019568000350209205c0868268e8018262f8018263e001826af001826b60d3b807d8b80c826070d80304da740c826768c97a09d87a0a826778c97207c9a707d8c90ac9a707c9c90ac9b808c94808956b0003491b2002c903097bb9407bb8487bba507bb758492638034926300349262803956720039568400350209405cf869567c001330840502096051384956b000182bad80082b8d00082b9c80082b7c00050229805b9045208aa008268707b68a0018268607b68a8018268687b68b0019568a0018269787b69b8017b677850209a0506854926580149265001492648014926400149267801826748956c00017bc7708267507bc7683a074802023a085002023a09580202826a587bca607bc798007bc890007bc988003a0760020233082095698001956a6001956b40017bc7800082677850209c05e986955180fc95170003827078827570827668951180033200004926b0004926a8004926a0001407000000001efdc6969568a0007b67b800330750209e05628449269800492690004926880033070495688000492680005020a005458439086c020256183f0b20036c02024001330880020283883307013309240a07014926300149262801492620011407000000008cd350e4956820017b67380133075020a205ff8349261801826748956a00017ba7108267507ba708330704956800018269587ba95020a405d9838267207b67f8008267187b67f0008267287b67e8003307249568e0008269307b69e0005020a605b0838267787b67d8008267687b67d0008267607b67c8003307449568c0008269707b69c0005020a8058783826738817756177f0c82683848088000013307013309648268403300aa050a07019511807b10787b1570951580008411e0491158491150491148491140059517209518405020ac052f847c1720520712955180821078821570951180003200491110491108490114070000000065063cd964187b171833075020ae05098339086c020256181f0b20036c02022001330880020283883307013309040a0733073300b00528228733075020b0051d873307015020b205148782970881981082996f77977a206f88988820d48a0a9877206f98978920d497079888209569ff07959939320282970881981082996f77977a206f88988820d48a0a9877206f98978920d497079888203202826a4882a71882a81082a90882aa6f777b67406f877b67386f977b67306fa77b67289517e08477e07b674864718267509777209877204926f8017b677b67f0018267707b67e8019568e0018267787b67e00133073202826a5082a71882a81082a90882aa6f777b67486f877b67406f977b67386fa77b67309517e08477e07b675064714926580182677b6750018267707b674801956840018267787b6740013307320282970881981082996f7a97a7206f889888203202826a2882a71882a81082a90882aa6f777b67206f877b67186f977b67106fa77b67089517e08477e07b672864713202826a800095aa0188a70182608800c87000d40a07887701826878c87804d8840882679000c887078268b800958320d88309826ba000c89b08d8b80bda990b8269a800c89b0bd89b09826cb000c89c0c7b6cb0003202826a6882a71882a81082a90882aa6f776f8b6f996faa8268507b8a187b89107b8b087b87956700013202826a5082a71882a81082a90882aa6f776f8b6f996faa8268487b8a187b89107b8b087b879567a001320282a71882a81082a90882aa6f776f8b6f996faa32029517e08477e07b6750647183793308408267603202d49b0bd48709d4b909989920d4b808978820d498083202956b000182b782b80882b91882ba10847700ff867701956b00027bb9587bba507bb8487bb740956840028267503202d49a0ad48709d4a909989920d4a808978820d4980832027b987b97087b97107b9718955180fd951700028270788275708276689511800232024926780149267001492660010633072095686001492668013202492618024926100249260002063307209568000249260802320282696882970881981082996f77977a206f88988820d48a0a9877206f98978920d49707988820492638017b6830017b672801956820017b6a20013307320282a71882a81082a90882aa6f776f8b6f996faa8268287b8a187b89107b8b087b8732026471837933084082676032027b6090008267708268b800d87807826960d39408d89409da8709826b68d8b307826a588268b000d3a80cd8a80adac70ad3b307d4c707da790a3202826b380188b98000826af000db9a08826cf800826a0801d4ca0ada970a93b8ff93baff826b0001939b939c82671001e0a707320282696882970881981082996f77977a206f88988820d48a0a9877206f98978920d497079888204926b8007b68b0007b67a8003307049568a0007b6aa0003202826728956a00017ba7d8008267307ba7d0008267387ba7c8003307209568c0018269407ba9c00032028264b8008263a0008260a800826850c84807d88708826b48c83b09c88909d3b90cd8b90bdac80b826c40c80c083202826730956a00017ba7388267387ba7308267407ba728330720956820018269487ba92032024926580149265001492640010633072095684001492648013202826a6882a71882a81082a90882aa6f777b67586f877b67506f977b67486fa77b67409517e08477e07b67606471320282a71882a81082a90882aa6f777b67606f877b67586f977b67506fa77b67489517e08477e07b676864713202826a5882a71882a81082a90882aa6f776f8b6f996faa8268607b8a187b89107b8b087b879567e00032026f776f886f996faa3202c8ba0a7b6a080197aa3b989b05d4ab0b8267280182731897993b827a10988805d498076f346fa9320282697882970881981082996f77977a206f88988820d4a8089877206f99979a20d4a7079899203202c89c0cd89c0b82673001d87909c89407c8b707d4c809d4a707d47909989920d4c707977720d497073202939b82681801e0a80882692001e0790782692801e0b909826a3001e0ca0a3202977b3f988c01d4bc0397ac3f987701d4c70797883f989c01d4c80898aa018499019a9c3202951180fd951900027b90787b95707b9668951580028411e064168289107b69508289087b697082887b68787b6758320282a71882a81082a90882aa6f776f8b6f996faa8268687b8a187b89107b8b087b87320282b7b80082b8c00082b9b00082baa800d49808d4a707d48707320282b77882b8800082b97082ba68d49808d4a707d487073202c89c0cd89c0ad84909c89307c8a707d4c809d4b707d47909989920d4c707977720d49707320233073818c8760a95ab0003320233073810c8760a95ab000732024926d0004926c8004926c0001407000000003f7d51e29568c0007b67d80033073202da8709826728d87b04d33c08d83c0ada840ad3b707d48707da790a32028267207b6798018267187b6790018267107b678801956880018267087b6780013307320282ab7b1b1882ab087b1b2082ab107b1b2882aa187b1a308296829a087b1a829a107b1a088299187b191032028268b80095873fd88708c884098477e0826030c870007b60b800d870073202826728826818d487071408e0ffffff00000000826a30d88a088269209498947832028eb9858801dbb9088e498ecadac90ada780a3202826740956a00017ba7188267487ba7108267507ba708330720956800018269587ba9320282171082181814090000000001000000d37909d48909987a2088aa01948a939a3202e0890882692801e0c909826a3001e0ba0a956bff0795bbb900320282a71882a81082a90882aa6f776f886f996faa956b00033202c8790bc8ab0bd39b0a7b6b1001d89b09daa709826b0801320233073818c8760a95ab0002320233073818c8760a95ab0001320249267802492670024926680233072095686002492660023202c88b0bd88b08c8c808d49808d4b709d48909d4b808989920978820d4980832027b67f8007b6800018267f000d487077b67f000826738019579803307ff3308ff32027b68187b6830027b69107b692802956820027b67087b67200233073202951180fd951a00027ba0787ba5707ba668951580028411e06416829a1032028219821a087b697b6a087b67107b68189551c0821038821530821628951140320282a71882a81082a90882aa6f773202d49707d48a09d47909989920d48707977720d497073202647183793308408267b80032028267b0008268a000d487078268b800648b8269a800d49808d47808988820d49707977720d48707320297773b9878387b6838019a8980003307ff3308ff320282c8f80082c9f00082cbe800d49707d48b09d47909989920d48707977720d4970732029517e08477e07b67586471837933084082677032029517e08477e07b67306471837933084082674032029517e0847be064b133074926b800330433034926b000320282b73882b84082b93082ba28d49808d4a707d487073202c8b707c88a0ad88a0cc8c70782600001c8a000d8a00a32029511c07b10387b15307b16289515408411e064768317320297a8037b6838018d8980003307ff3308ff3202837783997b68683308407b67603202d4ca0ada980a3308ffdab807dab80a939c320233073810c8760a95ab00063202849a40520a195109148d9a40cfa80ad09808d09707d4a707320032009597c0d0780733083200849a40520a195109148d9a40d0a70acf9707cf9808d4a808320032009598c0cf87083307320049922425494b2a252da9944c4949214225a952484992244992244992244992244992244992244992244992244992244992244992542529a524292949a84a494a922449922449922449922449922449922449922449929224294955494a922849699204494a929424294949aaaa92942425a9242949929224a95029a524a9a4244911119192244990502a29292952a4489122458a14252922228a88889424494a92244142519122458a142952a4489122458a14295294481111519224082161284d4a432211111129228244442222222245444490484488888888886844444444922444444444221111222222224212118a8e484488884422112122424444244992242212111111222201242a4984888808112122422449922449222211111121221240a2924444001109112122a21225928824918888880811112222222449924a49482222222222422144308942254d124912a2a89224924424912492244922852492244aaa42229124492449929414239124124992942422252222a288881011912489242512494422912449922449248988885048a21492a85228a28a4852559148a4461149249244128924221191944842241121222222492222441249228944229148228944249124924844a4522222a29248444424494a2449129124094984482412898410914408214448928808c9244992442489241111914424214992442291484c2412214424498888442409119188102189922411212222222222424488249528221191888888881011212222429224a914211211111111110a218249142a6924912442145592449288249244922449a41089248992aa20914892249224494a8a9148128924494a129188888822228288882449242991884424221111110a922805495429145115498aa2a2224522d18848221149442212918844922488082249222249222288249244128944229144128948224924918844291111512212494444242291884824922441441089442211411091441004410491241111c4441249224912111121924444442412444444444444c42491249244220822224910118948124444228208225192242244444444444404218a22a994444a221111112122824844222222442291444404114524828824a220a2884410111111918822124144444444241a2949444444888820222222424404111191942449922492244922499224498988880811414411892022890a222211411285082651a84411892092144144449224499248922422222222228804111111442291888808228a480449492222228410222222121111412488240531942a941a1111c0888288908820441012121111c0888288908820441012121111c0888288908820441012121111c088828890882044101212110144144444228210414848440410511022184a1a1111c088828890882044100a4b8a4804d544415542844844d188400209082420908080400202092490400202098840222222a248102451242222444410898848108988882089222222221211111151240892281209222291482422224404111191244992444a924892921449922449922445442292249104910449442222222222a88812912049922449922492a492922492044944149188880822499224221229222241442492244922228a48444444449120499224519288484444444444448a4824128990a248101189442291482492242222880411491224112122221111111145828888244914890411491224214208111111918888882812044914892488244990948848848844444444140982244a12404444222222222212111111111111454441c48850228210229844a1221145248228a5245124129188482205894892948808a2c8242a1145248248520411894422110922224822222222228a484444442322229224512422424410894411092222224822898888888848244944234992245192888844224924225244241289904884101291884814442242898820840826291425a24412849428910411111151904844225122124114992488124910114422491291240922224244049188244991489224924492244992a424111121824824128988144422a2444490a4283289208a480449524410898888482449128924492222221244248844444490444444444444049148241289881042888848444444445054222222228a04111149922812092222228224222222121111114582888824491409a2242222884424912422492449441091201289442211a2281224114424112908211221429488882054252222a21189244912452222440411111111912092244822128944a4880412111111458220899244442412494412918248449488084204932854a291a4202222222282482412894444824844904444444444441189888888281204499424222291888888884814092222221111115110890825228210229844a12211452482284a49a24822118944440a1289249112111144914954228a480491a4882012119120121111414411111111898888882241444492248a44248a0449121111114422914844828888082222222222a288444444441409922449124522414444441021228410111191888888281204499424221211111111118944229188141111111111529448828888888888888888888888082222222212894422229148444441248888882022224244222222228a04111149922812041111212282484444442222422449441091201211111111218a224144109144a42084482424a4444404a12a5589888888460411854810894422111121228888489248922452922449498a4492244992282212499248828820221211111111414594880449922449922491249594482409222222111111249224494444444444041191489224222222264992442249922449a2088aa2444444449120882811118944a248a2881491248924490a5134529288242291882822114444444144484410420493142a12512209524a495244444444412212894422882293a84491a4aa24298248104912442291884411441491089292444444448410424492241111114482888808624444848220842449928450921295244946044944441024920411114922222282a0489592a8444484822084244992845092129524494604111111048924414492944422088a5429894a2895502aa15442a944222280880a2211a1440421829090502aa15442a9845209a5124a25944a2895502aa15442a9845289880022a2205122092222121141221149522212411491244a1225121105101105918828111189444411c088288844841211411491242a89865209a5124a25944a440011110521825058d2502aa15402222222228a0441845209a5124a25944a2895502aa15442a9845209a5124a25944a2895502aa1542222021851101112118408424242a98452898800220a22221141882024242202882888884404218290904852009182884994481022088522220218511011121184084261492322420489a01495a281888888884604114a251011111151240822944a1442a90444444444140922229244289528845289481111111111119188111111111111891411114444442489041151444444442291222222222101111111d188884812a154a2104a2522458c8888244984528912a1548188888888224110a154a154a54621149122128944221291888888888888888888888820222222228288442291482412119188840490240124492222228210022112221111894444444484a891524a52924812492411912222222291482492242222928884448990881491482412218a221241442291482411110942221101444414840842422222128944229188481111111111214591201211111111111111111145444444041189888888888888282222220889888824492a91202229499224492492244992249594244992249144822449524444942402981424912408110c25d188249192a42422220a22422282102298a45049a24890248a44240a1291482412418a448228910411444a44440441902291204a24414a29498a2211898244922491821499a4922891044952041111914892481052944882a424892291888808218488882422920a322589481285440821088220840826290451240882204522411409824825120441902291208a044110a4c824411409822008294a244152928822914824128910428888888888880a4a8242228410044110420493148228120441902291208a0441a4120982204891481045822008526492208a04411084142592202949449148241289440821444444444444052541111191242549922489244989880825489224491211240920012429454444128944240a92a414490248525192244992485290149482244992244992244902484522222248024892244992244992a4241111d144912041a114458244912041a1148d8888549224490a9248128408262954a22949902449121191089224498988882292444a24124522514a02482412912888088908428860924245224a2441128924121111519048922492208a4c12448924882022224922124912892449922489244944128988882888088908a2c82441944882945292148988882848442291480451641241514992522a92249124892489242222a220224914110144144422914414241289442288888848440451442449224a44041051101189884444001105119188208a48521251118d888848294992484a004992249148248a201249222988884404214430490a9544892448928820222222492489249124499288442422511011890822499248922445922491249924881249902489442211114422129128088224a9c8244149525592144144442492248944922411111109224124491011452211892012914844221142484444484444041111118d8800220a222211418820148a8800220a2222114188201496342202882888442291081289442211442412494482148949a2111191422284904844a22008428860924225892241488922411004291209a24810442222a220481409824422914804299249a21111914a9248242251100421443049a192449120a444912008821489045124082211115110248a0441229148248214c924512448524a92442211898220082182490a4114098220489148104582205289241289481404418a448228120441902293045124088220a42891044949228a442291482442082122222222222a28094a524a92442211898220082182490a411409924422118982442412894490229304512209228848241291280882149924882241241291284824491249902293045122092288924424492408294a244152928844229148241221841011111111111594444a504492482949924892a404918844240a822084082649a1926892144444440491244992244992244952221249222988884404494a922449529224491299a492689214444444229148440411112282888824499224499244244922222288041111114422918844828888482409212411111211912022493422028828888844042182a1a411114044412492245290482412892091482412418ac424d124912491044992282980521022184a2a529020a994a42491924a494a5292544a29494a12452212952495524a92a24844a2924a29492aa59424154924491289249244128992a4aa24294a92aa92a428495525a9a42449529424124912294992549288245144484411211125a994a42411115149aa4a92aaa44824499244922445442292242a52924a494a12118928118944225144244992242991244924458444942495524a924a5229a524a924a92a498aaa4a2489244995a452929294449224495291482452922449928a481229494a4a5255925444449212499292244992a4481489222280884a92244989442212559224292549912449a4240124a94a2a29912449a4920092a44a24125192aaa22491449128124544224a9224498a88442429918844452489944a49922425a992244995282251244952129114114992a4249594a492928a8a9224494912494992548948aa2425492a122549925452499224951400"},"methodIdentifiers":{"DEFAULT_ADMIN_ROLE()":"a217fddf","MINTER_ROLE()":"d5391393","PAUSER_ROLE()":"e63ab1e9","allowance(address,address)":"dd62ed3e","approve(address,uint256)":"095ea7b3","balanceOf(address)":"70a08231","burn(uint256)":"42966c68","burnFrom(address,uint256)":"79cc6790","decimals()":"313ce567","getRoleAdmin(bytes32)":"248a9ca3","grantRole(bytes32,address)":"2f2ff15d","hasRole(bytes32,address)":"91d14854","mint(address,uint256)":"40c10f19","minter()":"07546172","name()":"06fdde03","pause()":"8456cb59","paused()":"5c975abb","renounceRole(bytes32,address)":"36568abe","revokeRole(bytes32,address)":"d547741f","supportsInterface(bytes4)":"01ffc9a7","symbol()":"95d89b41","totalSupply()":"18160ddd","transfer(address,uint256)":"a9059cbb","transferFrom(address,address,uint256)":"23b872dd","unpause()":"3f4ba83a"}},"hash":"e5bc81d5b472e3ff653f41af215ec4049911a2cbf3b44ee3b78f98d85ed7feb3","factoryDependencies":{}}}}