{"contracts/ConsumerRegistry.sol":{"ConsumerRegistry":{"abi":[{"anonymous":false,"inputs":[{"indexed":true,"internalType":"address","name":"consumer","type":"address"},{"components":[{"internalType":"address","name":"consumer","type":"address"},{"internalType":"string","name":"name","type":"string"},{"internalType":"string","name":"avatar","type":"string"}],"indexed":false,"internalType":"struct ConsumerRegistry.ConsumerProfile","name":"profile","type":"tuple"}],"name":"ConsumerProfileUpdated","type":"event"},{"anonymous":false,"inputs":[{"indexed":true,"internalType":"address","name":"consumer","type":"address"}],"name":"Registered","type":"event"},{"inputs":[{"internalType":"uint256","name":"","type":"uint256"}],"name":"consumerList","outputs":[{"internalType":"address","name":"","type":"address"}],"stateMutability":"view","type":"function"},{"inputs":[{"internalType":"address","name":"","type":"address"}],"name":"consumers","outputs":[{"internalType":"address","name":"consumer","type":"address"},{"internalType":"string","name":"name","type":"string"},{"internalType":"string","name":"avatar","type":"string"}],"stateMutability":"view","type":"function"},{"inputs":[{"internalType":"address","name":"consumer","type":"address"}],"name":"getConsumerProfile","outputs":[{"components":[{"internalType":"address","name":"consumer","type":"address"},{"internalType":"string","name":"name","type":"string"},{"internalType":"string","name":"avatar","type":"string"}],"internalType":"struct ConsumerRegistry.ConsumerProfile","name":"","type":"tuple"}],"stateMutability":"view","type":"function"},{"inputs":[{"internalType":"string","name":"name","type":"string"},{"internalType":"string","name":"avatar","type":"string"}],"name":"registerAsConsumer","outputs":[],"stateMutability":"nonpayable","type":"function"},{"inputs":[{"internalType":"string","name":"name","type":"string"},{"internalType":"string","name":"avatar","type":"string"}],"name":"updateConsumerProfile","outputs":[],"stateMutability":"nonpayable","type":"function"}],"evm":{"assembly":"// RO data = 0/0 bytes\n// RW data = 96/65680 bytes\n// Stack size = 32768 bytes\n\n// Instructions = 7565\n// Code size = 25975 bytes\n\n      : @0 (gas: 1)\n     0: jump @14 if a0 == a1\n      : @1 (gas: 9)\n     3: a3 = a1 << 0x20\n     6: a3 = a3 >> 0x20\n     9: a4 = a0 << 0x20\n    12: a4 = a4 >> 0x20\n    15: a4 = a4 + a2\n    18: a3 = a3 - a4\n    21: a4 = a2 << 0x1\n    24: a4 = -a4\n    26: jump @7 if a4 >=u a3\n      : @2 (gas: 1)\n    29: jump @11 if a0 >=u a1\n      : @3 (gas: 1)\n    32: jump @14 if a2 == 0\n      : @4 (gas: 3)\n    35: a2 = a2 + a0\n    38: a3 = a0\n    40: fallthrough\n      : @5 (gas: 6)\n    41: a4 = u8 [a1]\n    43: a1 = a1 + 0x1\n    46: a5 = a3 + 0x1\n    49: u8 [a3] = a4\n    51: a3 = a5\n    53: jump @5 if a5 != a2\n      : @6 (gas: 1)\n    56: jump @14\n      : @7 (gas: 1)\n    58: jump @14 if a2 == 0\n      : @8 (gas: 3)\n    61: a2 = a2 + a0\n    64: a3 = a0\n    66: fallthrough\n      : @9 (gas: 6)\n    67: a4 = u8 [a1]\n    69: a1 = a1 + 0x1\n    72: a5 = a3 + 0x1\n    75: u8 [a3] = a4\n    77: a3 = a5\n    79: jump @9 if a5 != a2\n      : @10 (gas: 1)\n    82: jump @14\n      : @11 (gas: 1)\n    84: jump @14 if a2 == 0\n      : @12 (gas: 2)\n    87: i32 a3 = a2 + 0xffffffffffffffff\n    90: fallthrough\n      : @13 (gas: 7)\n    91: a4 = a1 + a3\n    94: a4 = u8 [a4]\n    96: a2 = a2 + 0xffffffffffffffff\n    99: a5 = a0 + a3\n   102: u8 [a5] = a4\n   104: i32 a3 = a3 + 0xffffffffffffffff\n   107: jump @13 if a2 != 0\n      : @14 (gas: 1)\n   110: ret\n      : @15 (gas: 2)\n   112: a1 = i32 [0x20068]\n   117: jump @43 if a1 == 0\n      : @16 (gas: 4)\n   121: a0 = 0x30090\n   126: i32 a0 = a0 + 0\n   128: ecalli 8 // 'set_immutable_data'\n   130: jump @43\n      : @17 (gas: 8)\n   133: sp = sp + 0xfffffffffffffff0\n   136: u64 [sp + 0x8] = ra\n   139: u64 [sp] = s0\n   141: a2 = a1\n   143: s0 = a0\n   145: a1 = 0x20\n   148: a0 = a2\n   150: ra = 2, jump @26\n      : @18 [@dyn 1] (gas: 100)\n   155: a1 = u8 [a0 + 0x1]\n   158: a2 = u8 [a0]\n   160: a3 = u8 [a0 + 0x2]\n   163: a4 = u8 [a0 + 0x3]\n   166: a1 = a1 << 0x8\n   169: a1 = a1 | a2\n   172: a3 = a3 << 0x10\n   175: a4 = a4 << 0x18\n   178: a3 = a3 | a4\n   181: a1 = a1 | a3\n   184: a2 = u8 [a0 + 0x5]\n   187: a3 = u8 [a0 + 0x4]\n   190: a4 = u8 [a0 + 0x6]\n   193: a5 = u8 [a0 + 0x7]\n   196: a2 = a2 << 0x8\n   199: a2 = a2 | a3\n   202: a4 = a4 << 0x10\n   205: a5 = a5 << 0x18\n   208: a4 = a4 | a5\n   211: a2 = a2 | a4\n   214: a2 = a2 << 0x20\n   217: t0 = a2 | a1\n   220: a2 = u8 [a0 + 0x9]\n   223: a3 = u8 [a0 + 0x8]\n   226: a4 = u8 [a0 + 0xa]\n   229: a5 = u8 [a0 + 0xb]\n   232: a2 = a2 << 0x8\n   235: a2 = a2 | a3\n   238: a4 = a4 << 0x10\n   241: a5 = a5 << 0x18\n   244: a4 = a4 | a5\n   247: a2 = a2 | a4\n   250: a3 = u8 [a0 + 0xd]\n   253: a4 = u8 [a0 + 0xc]\n   256: a5 = u8 [a0 + 0xe]\n   259: a1 = u8 [a0 + 0xf]\n   262: a3 = a3 << 0x8\n   265: a3 = a3 | a4\n   268: a5 = a5 << 0x10\n   271: a1 = a1 << 0x18\n   274: a1 = a1 | a5\n   277: a1 = a1 | a3\n   280: a1 = a1 << 0x20\n   283: t1 = a1 | a2\n   286: a1 = u8 [a0 + 0x11]\n   289: a3 = u8 [a0 + 0x10]\n   292: a4 = u8 [a0 + 0x12]\n   295: a5 = u8 [a0 + 0x13]\n   298: a1 = a1 << 0x8\n   301: a1 = a1 | a3\n   304: a4 = a4 << 0x10\n   307: a5 = a5 << 0x18\n   310: a4 = a4 | a5\n   313: a1 = a1 | a4\n   316: a3 = u8 [a0 + 0x15]\n   319: a4 = u8 [a0 + 0x14]\n   322: a5 = u8 [a0 + 0x16]\n   325: a2 = u8 [a0 + 0x17]\n   328: a3 = a3 << 0x8\n   331: a3 = a3 | a4\n   334: a5 = a5 << 0x10\n   337: a2 = a2 << 0x18\n   340: a2 = a2 | a5\n   343: a2 = a2 | a3\n   346: a2 = a2 << 0x20\n   349: a3 = a2 | a1\n   352: a1 = u8 [a0 + 0x19]\n   355: a2 = u8 [a0 + 0x18]\n   358: a4 = u8 [a0 + 0x1a]\n   361: a5 = u8 [a0 + 0x1b]\n   364: a1 = a1 << 0x8\n   367: a1 = a1 | a2\n   370: a4 = a4 << 0x10\n   373: a5 = a5 << 0x18\n   376: a4 = a4 | a5\n   379: a1 = a1 | a4\n   382: a2 = u8 [a0 + 0x1d]\n   385: a4 = u8 [a0 + 0x1c]\n   388: a5 = u8 [a0 + 0x1e]\n   391: a0 = u8 [a0 + 0x1f]\n   394: a2 = a2 << 0x8\n   397: a2 = a2 | a4\n   400: a5 = a5 << 0x10\n   403: a0 = a0 << 0x18\n   406: a0 = a0 | a5\n   409: a0 = a0 | a2\n   412: a0 = a0 << 0x20\n   415: a0 = a0 | a1\n   418: a0 = reverse a0\n   420: a1 = reverse a3\n   422: a2 = reverse t1\n   424: a3 = reverse t0\n   426: u64 [s0 + 0x18] = a3\n   429: u64 [s0 + 0x10] = a2\n   432: u64 [s0 + 0x8] = a1\n   435: u64 [s0] = a0\n   437: ra = u64 [sp + 0x8]\n   440: s0 = u64 [sp]\n   442: sp = sp + 0x10\n   445: ret\n      : @19 (gas: 12)\n   447: sp = sp + 0xffffffffffffffd8\n   450: u64 [sp + 0x20] = ra\n   453: u64 [sp + 0x18] = s0\n   456: u64 [sp + 0x10] = s1\n   459: a2 = u64 [a1]\n   461: u64 [sp + 0x8] = a2\n   464: a2 = u64 [a1 + 0x8]\n   467: u64 [sp] = a2\n   469: s0 = u64 [a1 + 0x10]\n   472: s1 = u64 [a1 + 0x18]\n   475: a1 = 0x20\n   478: ra = 4, jump @26\n      : @20 [@dyn 2] (gas: 71)\n   483: a1 = reverse s1\n   485: a2 = reverse s0\n   487: a3 = u64 [sp]\n   489: a3 = reverse a3\n   491: a4 = u64 [sp + 0x8]\n   494: a4 = reverse a4\n   496: u8 [a0 + 0x18] = a4\n   499: u8 [a0 + 0x10] = a3\n   502: u8 [a0 + 0x8] = a2\n   505: u8 [a0] = a1\n   507: a5 = a4 >> 0x38\n   510: u8 [a0 + 0x1f] = a5\n   513: a5 = a4 >> 0x30\n   516: u8 [a0 + 0x1e] = a5\n   519: a5 = a4 >> 0x28\n   522: u8 [a0 + 0x1d] = a5\n   525: a5 = a4 >> 0x20\n   528: u8 [a0 + 0x1c] = a5\n   531: a5 = a4 >> 0x18\n   534: u8 [a0 + 0x1b] = a5\n   537: a5 = a4 >> 0x10\n   540: u8 [a0 + 0x1a] = a5\n   543: a4 = a4 >> 0x8\n   546: u8 [a0 + 0x19] = a4\n   549: a4 = a3 >> 0x38\n   552: u8 [a0 + 0x17] = a4\n   555: a4 = a3 >> 0x30\n   558: u8 [a0 + 0x16] = a4\n   561: a4 = a3 >> 0x28\n   564: u8 [a0 + 0x15] = a4\n   567: a4 = a3 >> 0x20\n   570: u8 [a0 + 0x14] = a4\n   573: a4 = a3 >> 0x18\n   576: u8 [a0 + 0x13] = a4\n   579: a4 = a3 >> 0x10\n   582: u8 [a0 + 0x12] = a4\n   585: a3 = a3 >> 0x8\n   588: u8 [a0 + 0x11] = a3\n   591: a3 = a2 >> 0x38\n   594: u8 [a0 + 0xf] = a3\n   597: a3 = a2 >> 0x30\n   600: u8 [a0 + 0xe] = a3\n   603: a3 = a2 >> 0x28\n   606: u8 [a0 + 0xd] = a3\n   609: a3 = a2 >> 0x20\n   612: u8 [a0 + 0xc] = a3\n   615: a3 = a2 >> 0x18\n   618: u8 [a0 + 0xb] = a3\n   621: a3 = a2 >> 0x10\n   624: u8 [a0 + 0xa] = a3\n   627: a2 = a2 >> 0x8\n   630: u8 [a0 + 0x9] = a2\n   633: a2 = a1 >> 0x38\n   636: u8 [a0 + 0x7] = a2\n   639: a2 = a1 >> 0x30\n   642: u8 [a0 + 0x6] = a2\n   645: a2 = a1 >> 0x28\n   648: u8 [a0 + 0x5] = a2\n   651: a2 = a1 >> 0x20\n   654: u8 [a0 + 0x4] = a2\n   657: a2 = a1 >> 0x18\n   660: u8 [a0 + 0x3] = a2\n   663: a2 = a1 >> 0x10\n   666: u8 [a0 + 0x2] = a2\n   669: a1 = a1 >> 0x8\n   672: u8 [a0 + 0x1] = a1\n   675: ra = u64 [sp + 0x20]\n   678: s0 = u64 [sp + 0x18]\n   681: s1 = u64 [sp + 0x10]\n   684: sp = sp + 0x28\n   687: ret\n      : @21 (gas: 43)\n   689: sp = sp + 0xffffffffffffffa0\n   692: u64 [sp + 0x58] = ra\n   695: u64 [sp + 0x50] = s0\n   698: u64 [sp + 0x48] = s1\n   701: s0 = sp + 0x60\n   704: sp = sp & 0xffffffffffffffe0\n   707: s1 = a0\n   709: a0 = u64 [a1 + 0x18]\n   712: a2 = u64 [a1 + 0x10]\n   715: a3 = u64 [a1 + 0x8]\n   718: a1 = u64 [a1]\n   720: a0 = reverse a0\n   722: a2 = reverse a2\n   724: a3 = reverse a3\n   726: a1 = reverse a1\n   728: u64 [sp + 0x18] = a1\n   731: u64 [sp + 0x10] = a3\n   734: u64 [sp + 0x8] = a2\n   737: u64 [sp] = a0\n   739: u64 [sp + 56] = 0\n   742: u64 [sp + 48] = 0\n   745: u64 [sp + 40] = 0\n   748: u64 [sp + 32] = 0\n   751: u32 [sp + 64] = 0x20\n   755: i32 a1 = sp + 0\n   757: i32 a3 = sp + 0x20\n   760: i32 a4 = sp + 0x40\n   763: a2 = 0xffffffffffffffff\n   766: a0 = 0\n   768: ecalli 5 // 'get_storage'\n   770: a0 = u64 [sp + 0x38]\n   773: a1 = u64 [sp + 0x30]\n   776: a2 = u64 [sp + 0x28]\n   779: a3 = u64 [sp + 0x20]\n   782: a0 = reverse a0\n   784: a1 = reverse a1\n   786: a2 = reverse a2\n   788: a3 = reverse a3\n   790: u64 [s1 + 0x18] = a3\n   793: u64 [s1 + 0x10] = a2\n   796: u64 [s1 + 0x8] = a1\n   799: u64 [s1] = a0\n   801: t0 = 6, jump @746\n      : @22 [@dyn 3] (gas: 1)\n   806: ret\n      : @23 (gas: 40)\n   808: sp = sp + 0xffffffffffffffa0\n   811: u64 [sp + 0x58] = ra\n   814: u64 [sp + 0x50] = s0\n   817: s0 = sp + 0x60\n   820: sp = sp & 0xffffffffffffffe0\n   823: t0 = u64 [a0]\n   825: a3 = u64 [a0 + 0x8]\n   828: a4 = u64 [a0 + 0x10]\n   831: a0 = u64 [a0 + 0x18]\n   834: t1 = u64 [a1]\n   836: a2 = u64 [a1 + 0x8]\n   839: a5 = u64 [a1 + 0x10]\n   842: a1 = u64 [a1 + 0x18]\n   845: t2 = reverse a0\n   847: a4 = reverse a4\n   849: a3 = reverse a3\n   851: a0 = reverse t0\n   853: t0 = reverse a1\n   855: a5 = reverse a5\n   857: a2 = reverse a2\n   859: a1 = reverse t1\n   861: u64 [sp + 0x18] = a0\n   864: u64 [sp + 0x10] = a3\n   867: u64 [sp + 0x8] = a4\n   870: u64 [sp] = t2\n   872: u64 [sp + 0x38] = a1\n   875: u64 [sp + 0x30] = a2\n   878: u64 [sp + 0x28] = a5\n   881: u64 [sp + 0x20] = t0\n   884: i32 a1 = sp + 0\n   886: i32 a3 = sp + 0x20\n   889: a2 = 0xffffffffffffffff\n   892: a4 = 0x20\n   895: a0 = 0\n   897: ecalli 9 // 'set_storage'\n   899: sp = s0 + 0xffffffffffffffa0\n   902: ra = u64 [sp + 0x58]\n   905: s0 = u64 [sp + 0x50]\n   908: sp = sp + 0x60\n   911: ret\n      : @24 (gas: 24)\n   913: sp = sp + 0xffffffffffffff60\n   917: u64 [sp + 0x98] = ra\n   921: u64 [sp + 0x90] = s0\n   925: u64 [sp + 0x88] = s1\n   929: s0 = sp + 0xa0\n   933: sp = sp & 0xffffffffffffffe0\n   936: a4 = u64 [a3]\n   938: u64 [sp + 0x38] = a4\n   941: a4 = u64 [a3 + 0x8]\n   944: u64 [sp + 0x30] = a4\n   947: a4 = u64 [a3 + 0x10]\n   950: u64 [sp + 0x28] = a4\n   953: a3 = u64 [a3 + 0x18]\n   956: u64 [sp + 0x20] = a3\n   959: a3 = u64 [a2]\n   961: u64 [sp + 0x18] = a3\n   964: a3 = u64 [a2 + 0x8]\n   967: u64 [sp + 0x10] = a3\n   970: a3 = u64 [a2 + 0x10]\n   973: u64 [sp + 0x8] = a3\n   976: a2 = u64 [a2 + 0x18]\n   979: u64 [sp] = a2\n   981: s1 = a1\n   983: ra = 8, jump @26\n      : @25 [@dyn 4] (gas: 35)\n   987: a1 = u64 [sp]\n   989: a1 = reverse a1\n   991: a2 = u64 [sp + 0x8]\n   994: a2 = reverse a2\n   996: a3 = u64 [sp + 0x10]\n   999: a3 = reverse a3\n  1001: a4 = u64 [sp + 0x18]\n  1004: a4 = reverse a4\n  1006: u64 [sp + 0x58] = a4\n  1009: u64 [sp + 0x50] = a3\n  1012: u64 [sp + 0x48] = a2\n  1015: u64 [sp + 0x40] = a1\n  1018: a1 = u64 [sp + 0x20]\n  1021: a1 = reverse a1\n  1023: a2 = u64 [sp + 0x28]\n  1026: a2 = reverse a2\n  1028: a3 = u64 [sp + 0x30]\n  1031: a3 = reverse a3\n  1033: a4 = u64 [sp + 0x38]\n  1036: a4 = reverse a4\n  1038: u64 [sp + 0x78] = a4\n  1041: u64 [sp + 0x70] = a3\n  1044: u64 [sp + 0x68] = a2\n  1047: u64 [sp + 0x60] = a1\n  1050: i32 a2 = a0 + 0\n  1052: i32 a3 = s1 + 0\n  1054: i32 a0 = sp + 0x40\n  1057: a1 = 0x2\n  1060: ecalli 4 // 'deposit_event'\n  1062: sp = s0 + 0xffffffffffffff60\n  1066: ra = u64 [sp + 0x98]\n  1070: s0 = u64 [sp + 0x90]\n  1074: s1 = u64 [sp + 0x88]\n  1078: sp = sp + 0xa0\n  1082: ret\n      : @26 (gas: 2)\n  1084: i32 a2 = a0 >> 0x10\n  1087: jump @31 if a2 != 0\n      : @27 (gas: 4)\n  1090: a1 = a1 + a0\n  1093: i32 a1 = a1 + 0x1f\n  1096: a1 = a1 & 0xffffffffffffffe0\n  1099: jump @31 if a1 >u 65536\n      : @28 (gas: 3)\n  1105: a2 = 0x20064\n  1110: a3 = i32 [0x20064]\n  1115: jump @30 if a3 >=u a1\n      : @29 (gas: 2)\n  1118: u32 [0x20064] = a1\n  1123: fallthrough\n      : @30 (gas: 4)\n  1124: a1 = 0x20070\n  1129: i32 a0 = a0 + 0\n  1131: a0 = a0 + a1\n  1134: ret\n      : @31 (gas: 1)\n  1136: trap\n      : @32 (gas: 6)\n  1137: sp = sp + 0xfffffffffffffff0\n  1140: u64 [sp + 0x8] = ra\n  1143: u64 [sp] = s0\n  1145: s0 = a0 & 0x1\n  1148: ecalli 2 // 'call_data_size'\n  1150: fallthrough\n      : @33 (gas: 2)\n  1151: u32 [0x20060] = a0\n  1156: jump @35 if s0 == 0\n      : @34 (gas: 1)\n  1159: ra = 10, jump @36\n      : @35 [@dyn 5] (gas: 1)\n  1163: ra = 12, jump @45\n      : @36 [@dyn 6] (gas: 12)\n  1168: sp = sp + 0xffffffffffffffa0\n  1171: u64 [sp + 0x58] = ra\n  1174: u64 [sp + 0x50] = s0\n  1177: s0 = sp + 0x60\n  1180: sp = sp & 0xffffffffffffffe0\n  1183: u64 [sp + 24] = 0\n  1186: u64 [sp + 16] = 0\n  1189: u64 [sp + 0] = 0x80\n  1193: a0 = 0x40\n  1196: a1 = sp\n  1198: u64 [sp + 8] = 0\n  1201: ra = 14, jump @19\n      : @37 [@dyn 7] (gas: 7)\n  1206: u64 [sp + 56] = 0\n  1209: u64 [sp + 48] = 0\n  1212: u64 [sp + 40] = 0\n  1215: u64 [sp + 32] = 0\n  1218: i32 a0 = sp + 0x20\n  1221: ecalli 10 // 'value_transferred'\n  1223: fallthrough\n      : @38 (gas: 8)\n  1224: a0 = u64 [sp + 0x30]\n  1227: a1 = u64 [sp + 0x38]\n  1230: a2 = u64 [sp + 0x28]\n  1233: a3 = u64 [sp + 0x20]\n  1236: a1 = a1 | a2\n  1239: a0 = a0 | a3\n  1242: a0 = a0 | a1\n  1245: jump @40 if a0 == 0\n      : @39 (gas: 7)\n  1248: a1 = 0x20070\n  1253: i32 a1 = a1 + 0\n  1255: a0 = 0x1\n  1258: a2 = 0\n  1260: ra = 0x12\n  1263: ecalli 7 // 'seal_return'\n  1265: jump @45\n      : @40 (gas: 2)\n  1267: a1 = i32 [0x20064]\n  1272: jump @42 if a1 >u 127\n      : @41 (gas: 2)\n  1276: u32 [0x20064] = 0x80\n  1283: fallthrough\n      : @42 (gas: 6)\n  1284: a0 = 0x20070\n  1289: i32 a0 = a0 + 0x80\n  1293: a1 = 0\n  1295: a2 = 0\n  1297: ecalli 0 // 'call_data_copy'\n  1298: jump @15\n      : @43 (gas: 3)\n  1301: a0 = 0x80\n  1305: a1 = 0\n  1307: ra = 16, jump @26\n      : @44 [@dyn 8] (gas: 6)\n  1312: i32 a1 = a0 + 0\n  1314: a0 = 0\n  1316: a2 = 0\n  1318: ra = 0x12\n  1321: ecalli 7 // 'seal_return'\n  1323: fallthrough\n      : @45 [@dyn 9] (gas: 16)\n  1324: sp = sp + 0xfffffffffffffe10\n  1328: u64 [sp + 0x1e8] = ra\n  1332: u64 [sp + 0x1e0] = s0\n  1336: u64 [sp + 0x1d8] = s1\n  1340: s0 = sp + 0x1f0\n  1344: sp = sp + 0xffffffffffffe6b0\n  1348: sp = sp & 0xffffffffffffffe0\n  1351: s1 = sp\n  1353: a2 = s1 + 0x10d8\n  1357: u64 [a2 + 1440] = 0\n  1361: u64 [a2 + 1432] = 0\n  1365: u64 [a2 + 1416] = 0x80\n  1371: a0 = 0x40\n  1374: a1 = s1 + 0x1660\n  1378: u64 [a2 + 1424] = 0\n  1382: ra = 20, jump @19\n      : @46 [@dyn 10] (gas: 4)\n  1387: a0 = 0x20060\n  1392: u64 [s1 + 0x178] = a0\n  1396: a0 = i32 [0x20060]\n  1401: jump @48 if a0 >=u 4\n      : @47 (gas: 1)\n  1405: jump @550\n      : @48 (gas: 6)\n  1408: a0 = s1 + 0x1000\n  1412: i32 a0 = a0 + 0x680\n  1416: a1 = 0\n  1418: ra = 0x16\n  1421: ecalli 1 // 'call_data_load'\n  1423: fallthrough\n      : @49 [@dyn 11] (gas: 3)\n  1424: a2 = s1 + 0x10d8\n  1428: a0 = i32 [a2 + 0x5c4]\n  1432: jump @51 if a0 != 2832525844\n      : @50 (gas: 1)\n  1439: jump @161\n      : @51 (gas: 1)\n  1442: jump @76 if a0 == 200619624\n      : @52 (gas: 1)\n  1450: jump @109 if a0 == 320949534\n      : @53 (gas: 1)\n  1458: jump @55 if a0 == 364554432\n      : @54 (gas: 1)\n  1465: jump @190\n      : @55 (gas: 10)\n  1468: u64 [a2 + 1632] = 0\n  1472: u64 [a2 + 1624] = 0\n  1476: u64 [a2 + 1616] = 0\n  1480: u64 [a2 + 1608] = 0\n  1484: a0 = s1 + 0x1000\n  1488: i32 a0 = a0 + 0x720\n  1492: ra = 0x18\n  1495: ecalli 10 // 'value_transferred'\n  1497: t0 = 0x1a\n  1500: jump @745\n      : @56 [@dyn 12] (gas: 1)\n  1503: t0 = 26, jump @745\n      : @57 [@dyn 13] (gas: 8)\n  1508: a0 = u64 [a4 + 0x58]\n  1511: a1 = u64 [a4 + 0x60]\n  1514: a2 = u64 [a4 + 0x50]\n  1517: a3 = u64 [a4 + 0x48]\n  1520: a1 = a1 | a2\n  1523: a0 = a0 | a3\n  1526: a0 = a0 | a1\n  1529: jump @59 if a0 == 0\n      : @58 (gas: 1)\n  1532: jump @553\n      : @59 (gas: 3)\n  1535: a0 = u64 [s1 + 0x178]\n  1539: a0 = i32 [a0]\n  1541: jump @61 if a0 >u 35\n      : @60 (gas: 1)\n  1545: jump @554\n      : @61 (gas: 22)\n  1548: a0 = s1 + 0x1000\n  1552: i32 a0 = a0 + 0x740\n  1556: a1 = 0x4\n  1559: ecalli 1 // 'call_data_load'\n  1561: a1 = s1 + 0x10d8\n  1565: a2 = a1 + 0x600\n  1569: a0 = u64 [a2 + 0x80]\n  1573: u64 [s1 + 0x168] = a0\n  1577: a0 = u64 [a2 + 0x78]\n  1580: u64 [s1 + 0x178] = a0\n  1584: a0 = u64 [a2 + 0x70]\n  1587: u64 [s1 + 0x160] = a0\n  1591: a0 = u64 [a2 + 0x68]\n  1594: u64 [s1 + 0x158] = a0\n  1598: u64 [a1 + 1696] = 0\n  1602: u64 [a1 + 1688] = 0\n  1606: u64 [a1 + 1680] = 0\n  1610: u64 [a2 + 136] = 0x1\n  1615: a0 = s1 + 0x7ff\n  1619: a0 = a0 + 0xe1\n  1623: a1 = s1 + 0x1760\n  1627: ra = 28, jump @21\n      : @62 [@dyn 14] (gas: 24)\n  1632: t2 = u64 [s1 + 0x168]\n  1636: t1 = u64 [s1 + 0x160]\n  1640: t0 = u64 [s1 + 0x158]\n  1644: a0 = s1 + 0x1000\n  1648: a0 = u64 [a0 + 0xfffffffffffff8e8]\n  1652: a1 = s1 + 0x1000\n  1656: a1 = u64 [a1 + 0xfffffffffffff8e0]\n  1660: a3 = s1 + 0x7ff\n  1664: a3 = a3 + 0xd9\n  1668: a2 = u64 [a3 + 0x18]\n  1671: a3 = u64 [a3 + 0x20]\n  1674: a4 = t1 ^ a0\n  1677: a0 = t1 <u a0\n  1680: a1 = t0 <u a1\n  1683: a1 = a0 if a4 != 0\n  1686: a0 = t2 ^ a3\n  1689: a5 = t2 <u a3\n  1692: a3 = u64 [s1 + 0x178]\n  1696: a4 = a3 <u a2\n  1699: a4 = a5 if a0 != 0\n  1702: a2 = a2 ^ a3\n  1705: a0 = a0 | a2\n  1708: a1 = a4 if a0 != 0\n  1711: jump @64 if a1 != 0\n      : @63 (gas: 1)\n  1714: jump @555\n      : @64 (gas: 17)\n  1717: a0 = sp + 0xffffffffffffffe0\n  1720: a0 = a0 & 0xffffffffffffffe0\n  1723: u64 [s1 + 0x170] = a0\n  1727: sp = a0\n  1729: a0 = s1 + 0x1000\n  1733: u64 [a0 + 0xfffffffffffff898] = t2\n  1737: a0 = s1 + 0x1000\n  1741: u64 [a0 + 0xfffffffffffff890] = a3\n  1745: a0 = s1 + 0x1000\n  1749: u64 [a0 + 0xfffffffffffff888] = t1\n  1753: a0 = s1 + 0x7ff\n  1757: a0 = a0 + 0xa1\n  1761: a1 = s1 + 0x7ff\n  1765: a1 = a1 + 0x81\n  1769: a2 = s1 + 0x1000\n  1773: u64 [a2 + 0xfffffffffffff880] = t0\n  1777: ra = 30, jump @661\n      : @65 [@dyn 15] (gas: 29)\n  1782: a1 = s1 + 0x7ff\n  1786: a1 = a1 + 0xd9\n  1790: a0 = u64 [a1]\n  1792: u64 [s1 + 0x140] = a0\n  1796: a0 = u64 [a1 + 0xfffffffffffffff8]\n  1799: u64 [s1 + 0x150] = a0\n  1803: a0 = s1 + 0x1000\n  1807: a0 = u64 [a0 + 0xfffffffffffff8c8]\n  1811: u64 [s1 + 0x148] = a0\n  1815: a0 = s1 + 0x1000\n  1819: a0 = u64 [a0 + 0xfffffffffffff8c0]\n  1823: u64 [s1 + 0x158] = a0\n  1827: a0 = s1 + 0x1000\n  1831: a0 = u64 [a0 + 0xfffffffffffff8b0]\n  1835: a1 = s1 + 0x1000\n  1839: a1 = u64 [a1 + 0xfffffffffffff8b8]\n  1843: a2 = s1 + 0x1000\n  1847: a2 = u64 [a2 + 0xfffffffffffff8a0]\n  1851: a3 = s1 + 0x1000\n  1855: a3 = u64 [a3 + 0xfffffffffffff8a8]\n  1859: a4 = u64 [s1 + 0x170]\n  1863: u64 [a4 + 0x10] = a0\n  1866: u64 [a4 + 0x18] = a1\n  1869: u64 [a4] = a2\n  1871: u64 [a4 + 0x8] = a3\n  1874: a1 = a4\n  1876: a0 = s1 + 0x7ff\n  1880: a0 = a0 + 0x61\n  1883: ra = 32, jump @21\n      : @66 [@dyn 16] (gas: 17)\n  1888: a0 = s1 + 0x1000\n  1892: a0 = u64 [a0 + 0xfffffffffffff878]\n  1896: a1 = s1 + 0x100\n  1900: u64 [a1 + 0x78] = a0\n  1903: a0 = s1 + 0x1000\n  1907: a0 = u64 [a0 + 0xfffffffffffff870]\n  1911: u64 [a1 + 0x70] = a0\n  1914: a0 = s1 + 0x1000\n  1918: a0 = u64 [a0 + 0xfffffffffffff868]\n  1922: u64 [a1 + 0x60] = a0\n  1925: a0 = s1 + 0x1000\n  1929: a0 = u64 [a0 + 0xfffffffffffff860]\n  1933: u64 [a1 + 0x68] = a0\n  1936: a0 = s1 + 0x7ff\n  1940: a0 = a0 + 0x41\n  1943: a1 = 0x40\n  1946: ra = 34, jump @17\n      : @67 [@dyn 17] (gas: 16)\n  1951: a0 = s1 + 0x1000\n  1955: a0 = u64 [a0 + 0xfffffffffffff858]\n  1959: a1 = s1 + 0x1000\n  1963: a1 = u64 [a1 + 0xfffffffffffff850]\n  1967: a2 = s1 + 0x1000\n  1971: a2 = u64 [a2 + 0xfffffffffffff848]\n  1975: a3 = s1 + 0x1000\n  1979: a3 = u64 [a3 + 0xfffffffffffff840]\n  1983: a0 = a0 | a2\n  1986: a2 = a3 | a1\n  1989: a2 = a2 | a0\n  1992: a2 = a2 >> 0x20\n  1995: a0 = a0 | a1\n  1998: a0 = a0 << 0x20\n  2001: a0 = a0 | a2\n  2004: jump @69 if a0 == 0\n      : @68 (gas: 1)\n  2007: jump @549\n      : @69 (gas: 30)\n  2010: a0 = u64 [s1 + 0x158]\n  2014: a2 = a0 >> 0x3d\n  2017: a5 = u64 [s1 + 0x148]\n  2021: a1 = a5 << 0x3\n  2024: t1 = a1 | a2\n  2027: a4 = u64 [s1 + 0x150]\n  2031: a1 = a4 >> 0x3d\n  2034: a2 = u64 [s1 + 0x140]\n  2038: a2 = a2 << 0x3\n  2041: a1 = a1 | a2\n  2044: a2 = a5 >> 0x3d\n  2047: u64 [s1 + 0x148] = a3\n  2051: a3 = a4 << 0x3\n  2054: a2 = a2 | a3\n  2057: a3 = a0 << 0x3\n  2060: u64 [s1 + 0x150] = a3\n  2064: a5 = a2 >u 0\n  2066: a4 = a1 >u 0\n  2068: a4 = a5 if a1 == 0\n  2071: t0 = t1 >u 0\n  2073: a5 = a3 <u 0x100\n  2077: a5 = a5 ^ 0x1\n  2080: a5 = t0 if t1 != 0\n  2083: a1 = a1 | a2\n  2086: a5 = a4 if a1 != 0\n  2089: u64 [s1 + 0x140] = a5\n  2093: i32 a2 = a3 + 0xffffffffffffff80\n  2096: a0 = u64 [s1 + 0x170]\n  2100: a1 = u64 [s1 + 0x178]\n  2104: ra = 36, jump @748\n      : @70 [@dyn 18] (gas: 8)\n  2109: u64 [s1 + 0x138] = a0\n  2113: u64 [s1 + 0x130] = a1\n  2117: a0 = u64 [s1 + 0x158]\n  2121: i32 a2 = a0 << 0x3\n  2124: u64 [s1 + 0x158] = a2\n  2128: a0 = u64 [s1 + 0x168]\n  2132: a1 = u64 [s1 + 0x160]\n  2136: ra = 38, jump @748\n      : @71 [@dyn 19] (gas: 7)\n  2141: u64 [s1 + 0x120] = a0\n  2145: u64 [s1 + 0x128] = a1\n  2149: a1 = u64 [s1 + 0x150]\n  2153: i32 a2 = 0x80 - a1\n  2157: a0 = u64 [s1 + 0x170]\n  2161: a1 = u64 [s1 + 0x178]\n  2165: ra = 40, jump @753\n      : @72 [@dyn 20] (gas: 21)\n  2170: a2 = u64 [s1 + 0x128]\n  2174: a2 = a2 | a1\n  2177: a1 = u64 [s1 + 0x150]\n  2181: a3 = a1 <u 0x80\n  2185: u64 [s1 + 0x128] = a3\n  2189: a4 = u64 [s1 + 0x130]\n  2193: a2 = a4 if a3 == 0\n  2196: a4 = u64 [s1 + 0x160]\n  2200: a2 = a4 if a1 == 0\n  2203: u64 [s1 + 0x160] = a2\n  2207: a2 = u64 [s1 + 0x120]\n  2211: a0 = a0 | a2\n  2214: a2 = u64 [s1 + 0x138]\n  2218: a0 = a2 if a3 == 0\n  2221: a2 = u64 [s1 + 0x168]\n  2225: a0 = a2 if a1 == 0\n  2228: u64 [s1 + 0x168] = a0\n  2232: a0 = u64 [s1 + 0x170]\n  2236: a1 = u64 [s1 + 0x178]\n  2240: a2 = u64 [s1 + 0x158]\n  2244: ra = 42, jump @748\n      : @73 [@dyn 21] (gas: 24)\n  2249: a1 = 0\n  2251: a2 = u64 [s1 + 0x128]\n  2255: a0 = 0 if a2 == 0\n  2257: a0 = a0 << 0x20\n  2260: a0 = a0 >> 0x20\n  2263: a2 = u64 [s1 + 0x140]\n  2267: a4 = u64 [s1 + 0x168]\n  2271: a4 = 0 if a2 != 0\n  2273: a3 = u64 [s1 + 0x160]\n  2277: a3 = 0 if a2 != 0\n  2279: a0 = 0 if a2 != 0\n  2281: a1 = 0 if a2 == 0\n  2283: a2 = s1 + 0x1000\n  2287: u64 [a2 + 0xfffffffffffff838] = a1\n  2291: a1 = s1 + 0x1000\n  2295: u64 [a1 + 0xfffffffffffff830] = a0\n  2299: a0 = s1 + 0x1000\n  2303: u64 [a0 + 0xfffffffffffff828] = a3\n  2307: a1 = s1 + 0x7ff\n  2311: a1 = a1 + 0x21\n  2314: a0 = s1 + 0x1000\n  2318: u64 [a0 + 0xfffffffffffff820] = a4\n  2322: a0 = u64 [s1 + 0x148]\n  2326: ra = 44, jump @19\n      : @74 [@dyn 22] (gas: 3)\n  2331: a1 = 0x20\n  2334: a0 = u64 [s1 + 0x148]\n  2338: ra = 46, jump @26\n      : @75 [@dyn 23] (gas: 5)\n  2343: i32 a1 = a0 + 0\n  2345: a2 = 0x20\n  2348: a0 = 0\n  2350: ecalli 7 // 'seal_return'\n  2352: fallthrough\n      : @76 (gas: 8)\n  2353: u64 [a2 + 1504] = 0\n  2357: u64 [a2 + 1496] = 0\n  2361: u64 [a2 + 1488] = 0\n  2365: u64 [a2 + 1480] = 0\n  2369: a0 = s1 + 0x1000\n  2373: i32 a0 = a0 + 0x6a0\n  2377: ecalli 10 // 'value_transferred'\n  2379: fallthrough\n      : @77 (gas: 10)\n  2380: a3 = s1 + 0x10d8\n  2384: a4 = a3 + 0x500\n  2388: a0 = u64 [a4 + 0xd8]\n  2392: a1 = u64 [a4 + 0xe0]\n  2396: a2 = u64 [a4 + 0xd0]\n  2400: a3 = u64 [a4 + 0xc8]\n  2404: a1 = a1 | a2\n  2407: a0 = a0 | a3\n  2410: a0 = a0 | a1\n  2413: jump @79 if a0 == 0\n      : @78 (gas: 1)\n  2416: jump @556\n      : @79 (gas: 3)\n  2419: a0 = u64 [s1 + 0x178]\n  2423: a0 = i32 [a0]\n  2425: jump @81 if a0 >u 35\n      : @80 (gas: 1)\n  2429: jump @557\n      : @81 (gas: 5)\n  2432: a0 = s1 + 0x1000\n  2436: i32 a0 = a0 + 0x6c0\n  2440: a1 = 0x4\n  2443: ecalli 1 // 'call_data_load'\n  2445: fallthrough\n      : @82 (gas: 11)\n  2446: a4 = s1 + 0x10d8\n  2450: a1 = u64 [a4 + 0x5f8]\n  2454: a0 = u64 [a4 + 0x600]\n  2458: a2 = 0x100000000\n  2468: a2 = a2 ^ a1\n  2471: a2 = a2 | a0\n  2474: a3 = a1 >> 0x20\n  2477: a3 = a3 <u 0x1\n  2480: a3 = 0 if a0 != 0\n  2482: a3 = 0 if a2 == 0\n  2484: jump @84 if a3 != 0\n      : @83 (gas: 1)\n  2487: jump @558\n      : @84 (gas: 10)\n  2490: a2 = u64 [a4 + 0x5f0]\n  2494: a3 = u64 [a4 + 0x5e8]\n  2498: a4 = s1 + 0x400\n  2502: u64 [a4 + 0x60] = a3\n  2505: u64 [a4 + 0x68] = a2\n  2508: u64 [a4 + 0x70] = a1\n  2511: a1 = s1 + 0x460\n  2515: u64 [a4 + 0x78] = a0\n  2518: a0 = 0\n  2520: ra = 48, jump @19\n      : @85 [@dyn 24] (gas: 7)\n  2525: u64 [s1 + 1112] = 0\n  2529: u64 [s1 + 1104] = 0\n  2533: u64 [s1 + 1096] = 0\n  2537: a0 = 0x20\n  2540: a1 = s1 + 0x440\n  2544: u64 [s1 + 1088] = 0\n  2548: ra = 50, jump @19\n      : @86 [@dyn 25] (gas: 6)\n  2553: a0 = sp + 0xffffffffffffffe0\n  2556: a0 = a0 & 0xffffffffffffffe0\n  2559: u64 [s1 + 0x158] = a0\n  2563: sp = a0\n  2565: a1 = i32 [0x20064]\n  2570: jump @88 if a1 >u 63\n      : @87 (gas: 4)\n  2574: a1 = 0x40\n  2577: u32 [0x20064] = a1\n  2582: t0 = 0x34\n  2585: jump @737\n      : @88 (gas: 1)\n  2588: t0 = 52, jump @737\n      : @89 [@dyn 26] (gas: 25)\n  2593: a0 = 0x20070\n  2598: i32 a0 = a0 + 0\n  2600: i32 a2 = a2 + 0\n  2602: a1 = 0x40\n  2605: ecalli 6 // 'hash_keccak_256'\n  2607: a3 = u64 [s1 + 0x178]\n  2611: a0 = u64 [a3 + 0x18]\n  2614: a1 = u64 [a3 + 0x10]\n  2617: a2 = u64 [a3 + 0x8]\n  2620: a3 = u64 [a3]\n  2622: a4 = reverse a0\n  2624: u64 [s1 + 0x168] = a4\n  2628: a5 = reverse a1\n  2630: u64 [s1 + 0x170] = a5\n  2634: a2 = reverse a2\n  2636: u64 [s1 + 0x160] = a2\n  2640: a0 = reverse a3\n  2642: u64 [s1 + 0x178] = a0\n  2646: a1 = u64 [s1 + 0x158]\n  2650: u64 [a1 + 0x18] = a0\n  2653: u64 [a1 + 0x10] = a2\n  2656: u64 [a1 + 0x8] = a5\n  2659: u64 [a1] = a4\n  2661: a0 = s1 + 0x420\n  2665: ra = 54, jump @21\n      : @90 [@dyn 27] (gas: 30)\n  2670: a0 = u64 [s1 + 0x430]\n  2674: u64 [s1 + 0x128] = a0\n  2678: a0 = u64 [s1 + 0x428]\n  2682: u64 [s1 + 0x138] = a0\n  2686: a0 = u64 [s1 + 0x420]\n  2690: u64 [s1 + 0x130] = a0\n  2694: a0 = u64 [s1 + 0x168]\n  2698: a0 = a0 + 0x1\n  2701: a1 = a0 <u 0x1\n  2704: a2 = u64 [s1 + 0x170]\n  2708: a1 = a1 + a2\n  2711: a2 = a0 | a1\n  2714: a2 = a2 <u 0x1\n  2717: a3 = u64 [s1 + 0x160]\n  2721: a2 = a2 + a3\n  2724: a3 = a2 <u a3\n  2727: a4 = u64 [s1 + 0x178]\n  2731: a3 = a3 + a4\n  2734: u64 [s1 + 984] = 0\n  2738: u64 [s1 + 976] = 0\n  2742: u64 [s1 + 968] = 0\n  2746: u64 [s1 + 960] = 0x80\n  2752: u64 [s1 + 0x3e8] = a1\n  2756: u64 [s1 + 0x3e0] = a0\n  2760: u64 [s1 + 0x3f0] = a2\n  2764: a0 = s1 + 0x400\n  2768: a1 = s1 + 0x3e0\n  2772: a2 = s1 + 0x3c0\n  2776: u64 [s1 + 0x3f8] = a3\n  2780: ra = 56, jump @591\n      : @91 [@dyn 28] (gas: 29)\n  2785: a1 = s1 + 0x400\n  2789: a0 = u64 [a1]\n  2791: t0 = u64 [s1 + 0x418]\n  2795: a2 = u64 [a1 + 0x8]\n  2798: a3 = u64 [a1 + 0x10]\n  2801: a4 = a0 + 0xffffffffffffff80\n  2804: a0 = a4 <u a0\n  2807: a5 = a2 + a0\n  2810: a5 = a5 + 0xffffffffffffffff\n  2813: a1 = a5 ^ a2\n  2816: a2 = a5 <u a2\n  2819: a2 = a0 if a1 == 0\n  2822: a0 = a3 + 0xffffffffffffffff\n  2825: a2 = a2 + a0\n  2828: a0 = a2 <u a0\n  2831: a1 = a3 <u 0x1\n  2834: a1 = t0 - a1\n  2837: a3 = a1 + a0\n  2840: u64 [s1 + 0x380] = a4\n  2844: u64 [s1 + 952] = 0\n  2848: u64 [s1 + 944] = 0\n  2852: u64 [s1 + 936] = 0\n  2856: u64 [s1 + 928] = 0x80\n  2862: u64 [s1 + 0x388] = a5\n  2866: u64 [s1 + 0x390] = a2\n  2870: a0 = s1 + 0x3a0\n  2874: a1 = s1 + 0x380\n  2878: u64 [s1 + 0x398] = a3\n  2882: ra = 58, jump @620\n      : @92 [@dyn 29] (gas: 3)\n  2887: a0 = s1 + 0x360\n  2891: a1 = 0x40\n  2894: ra = 60, jump @17\n      : @93 [@dyn 30] (gas: 32)\n  2899: a5 = u64 [s1 + 0x378]\n  2903: u64 [s1 + 0x140] = a5\n  2907: t1 = u64 [s1 + 0x370]\n  2911: u64 [s1 + 0x148] = t1\n  2915: t2 = u64 [s1 + 0x368]\n  2919: u64 [s1 + 0x150] = t2\n  2923: a3 = u64 [s1 + 0x360]\n  2927: u64 [s1 + 0x158] = a3\n  2931: a0 = u64 [s1 + 0x168]\n  2935: t0 = a0 + 0x2\n  2938: a0 = t0 <u a0\n  2941: a2 = u64 [s1 + 0x170]\n  2945: a1 = a2 + a0\n  2948: a2 = a1 <u a2\n  2951: a2 = a0 if a0 == 0\n  2954: a0 = u64 [s1 + 0x160]\n  2958: a2 = a2 + a0\n  2961: a0 = a2 <u a0\n  2964: a4 = u64 [s1 + 0x178]\n  2968: a0 = a0 + a4\n  2971: u64 [s1 + 0x318] = a5\n  2975: u64 [s1 + 0x310] = t1\n  2979: u64 [s1 + 0x308] = t2\n  2983: u64 [s1 + 0x300] = a3\n  2987: u64 [s1 + 0x338] = a0\n  2991: u64 [s1 + 0x330] = a2\n  2995: u64 [s1 + 0x328] = a1\n  2999: a0 = s1 + 0x340\n  3003: a1 = s1 + 0x320\n  3007: a2 = s1 + 0x300\n  3011: u64 [s1 + 0x320] = t0\n  3015: ra = 62, jump @591\n      : @94 [@dyn 31] (gas: 39)\n  3020: a4 = s1 + 0x300\n  3024: a0 = u64 [a4 + 0x48]\n  3027: a1 = u64 [a4 + 0x58]\n  3030: u64 [s1 + 0x170] = a1\n  3034: a2 = u64 [a4 + 0x40]\n  3037: u64 [s1 + 0x178] = a2\n  3041: a3 = u64 [a4 + 0x50]\n  3044: a1 = u64 [s1 + 0x150]\n  3048: a4 = a0 ^ a1\n  3051: a5 = a0 <u a1\n  3054: t1 = u64 [s1 + 0x158]\n  3058: t2 = a2 <u t1\n  3061: a5 = t2 if a4 == 0\n  3064: a2 = u64 [s1 + 0x148]\n  3068: a4 = a3 - a2\n  3071: a3 = a3 <u a2\n  3074: ra = a2\n  3076: t0 = u64 [s1 + 0x140]\n  3080: a2 = u64 [s1 + 0x170]\n  3084: a2 = a2 - t0\n  3087: a2 = a2 - a3\n  3090: a3 = a4 <u a5\n  3093: a2 = a2 - a3\n  3096: a4 = a4 - a5\n  3099: a0 = a0 - a1\n  3102: a0 = a0 - t2\n  3105: a5 = u64 [s1 + 0x178]\n  3109: a5 = a5 - t1\n  3112: u64 [s1 + 0x2c0] = a5\n  3116: u64 [s1 + 0x2f8] = t0\n  3120: u64 [s1 + 0x2f0] = ra\n  3124: u64 [s1 + 0x2e8] = a1\n  3128: u64 [s1 + 0x2e0] = t1\n  3132: u64 [s1 + 0x2c8] = a0\n  3136: u64 [s1 + 0x2d0] = a4\n  3140: a0 = s1 + 0x2e0\n  3144: a1 = s1 + 0x2c0\n  3148: u64 [s1 + 0x2d8] = a2\n  3152: ra = 64, jump @620\n      : @95 [@dyn 32] (gas: 3)\n  3157: a0 = s1 + 0x2a0\n  3161: a1 = 0x40\n  3164: ra = 66, jump @17\n      : @96 [@dyn 33] (gas: 14)\n  3169: a1 = s1 + 0x200\n  3173: a4 = u64 [a1 + 0xb8]\n  3177: a5 = u64 [a1 + 0xb0]\n  3181: a3 = u64 [a1 + 0xa8]\n  3185: a0 = u64 [a1 + 0xa0]\n  3189: a2 = a3 | a4\n  3192: a1 = a0 | a5\n  3195: a1 = a1 | a2\n  3198: a1 = a1 >> 0x20\n  3201: u64 [s1 + 0x170] = a5\n  3205: a2 = a2 | a5\n  3208: a2 = a2 << 0x20\n  3211: a1 = a1 | a2\n  3214: jump @98 if a1 == 0\n      : @97 (gas: 1)\n  3217: jump @549\n      : @98 (gas: 15)\n  3220: a1 = u64 [s1 + 0x128]\n  3224: a1 = a1 << 0x20\n  3227: a2 = a1 >> 0x20\n  3230: u64 [s1 + 664] = 0\n  3234: a1 = u64 [s1 + 0x130]\n  3238: a5 = s1 + 0x200\n  3242: u64 [a5 + 0x80] = a1\n  3246: a1 = u64 [s1 + 0x138]\n  3250: u64 [a5 + 0x88] = a1\n  3254: a1 = s1 + 0x280\n  3258: u64 [a5 + 0x90] = a2\n  3262: u64 [s1 + 0x178] = a0\n  3266: u64 [s1 + 0x168] = a3\n  3270: u64 [s1 + 0x160] = a4\n  3274: ra = 68, jump @19\n      : @99 [@dyn 34] (gas: 11)\n  3279: a3 = u64 [s1 + 0x160]\n  3283: a1 = u64 [s1 + 0x178]\n  3287: a0 = u64 [s1 + 0x170]\n  3291: a4 = a0 | a3\n  3294: a5 = 0x100000000\n  3304: a0 = 0xffffffe0\n  3314: a0 = a1 <u a0\n  3317: a2 = u64 [s1 + 0x168]\n  3321: a0 = 0 if a2 != 0\n  3323: a0 = 0 if a4 != 0\n  3325: jump @101 if a0 != 0\n      : @100 (gas: 1)\n  3328: jump @549\n      : @101 (gas: 9)\n  3331: i32 a0 = a1 + 0x20\n  3334: u64 [s1 + 632] = 0\n  3338: u64 [s1 + 624] = 0\n  3342: u64 [s1 + 608] = 0x60\n  3347: a1 = s1 + 0x260\n  3351: u64 [s1 + 616] = 0\n  3355: u64 [s1 + 0x138] = a4\n  3359: u64 [s1 + 0x130] = a5\n  3363: ra = 70, jump @19\n      : @102 [@dyn 35] (gas: 27)\n  3368: a0 = u64 [s1 + 0x178]\n  3372: a0 = a0 + 0x60\n  3375: a1 = u64 [s1 + 0x178]\n  3379: a1 = a0 <u a1\n  3382: a2 = u64 [s1 + 0x168]\n  3386: a2 = a2 + a1\n  3389: a3 = u64 [s1 + 0x168]\n  3393: a3 = a2 <u a3\n  3396: a3 = a1 if a1 == 0\n  3399: a1 = u64 [s1 + 0x170]\n  3403: a3 = a3 + a1\n  3406: a1 = a3 <u a1\n  3409: a4 = u64 [s1 + 0x160]\n  3413: a4 = a4 + a1\n  3416: a5 = s1 + 0x200\n  3420: u64 [a5 + 0x8] = a2\n  3423: u64 [a5] = a0\n  3425: u64 [s1 + 568] = 0\n  3429: u64 [s1 + 560] = 0\n  3433: u64 [s1 + 552] = 0\n  3437: u64 [a5 + 32] = 0x80\n  3442: u64 [a5 + 0x10] = a3\n  3445: a0 = s1 + 0x240\n  3449: a1 = s1 + 0x220\n  3453: a2 = s1 + 0x200\n  3457: u64 [a5 + 0x18] = a4\n  3460: ra = 72, jump @629\n      : @103 [@dyn 36] (gas: 10)\n  3465: a3 = s1 + 0x100\n  3469: a4 = u64 [a3 + 0x68]\n  3472: a1 = u64 [a3 + 0x78]\n  3475: a0 = u64 [a3 + 0x30]\n  3478: a0 = a0 + 0xffffffffffffffc0\n  3481: a0 = a1 <u a0\n  3484: a0 = 0 if a4 != 0\n  3486: a2 = u64 [a3 + 0x38]\n  3489: a0 = 0 if a2 != 0\n  3491: jump @105 if a0 != 0\n      : @104 (gas: 1)\n  3494: jump @549\n      : @105 (gas: 37)\n  3497: a0 = s1 + 0x200\n  3501: a2 = u64 [a0 + 0x40]\n  3504: a3 = u64 [a0 + 0x48]\n  3507: t2 = u64 [s1 + 0x258]\n  3511: u64 [s1 + 0x130] = t2\n  3515: a5 = u64 [a0 + 0x50]\n  3518: u64 [s1 + 0x138] = a5\n  3522: t1 = a2 <u a1\n  3525: t0 = a2\n  3527: u64 [s1 + 0x120] = a2\n  3531: a1 = a3 ^ a4\n  3534: a2 = a3 <u a4\n  3537: a0 = a3\n  3539: u64 [s1 + 0x128] = a3\n  3543: a2 = t1 if a1 == 0\n  3546: a3 = u64 [s1 + 0x170]\n  3550: a1 = a5 - a3\n  3553: a3 = a5 <u a3\n  3556: a5 = a4\n  3558: a4 = u64 [s1 + 0x160]\n  3562: a4 = t2 - a4\n  3565: a4 = a4 - a3\n  3568: a3 = a1 <u a2\n  3571: a4 = a4 - a3\n  3574: a1 = a1 - a2\n  3577: a2 = a0 - a5\n  3580: a2 = a2 - t1\n  3583: a0 = u64 [s1 + 0x178]\n  3587: a3 = t0 - a0\n  3590: a0 = u64 [s1 + 0x178]\n  3594: i32 a0 = a0 + 0x40\n  3597: u64 [s1 + 0x1e0] = a3\n  3601: u64 [s1 + 0x1e8] = a2\n  3605: u64 [s1 + 0x1f0] = a1\n  3609: a1 = s1 + 0x1e0\n  3613: u64 [s1 + 0x1f8] = a4\n  3617: ra = 74, jump @19\n      : @106 [@dyn 37] (gas: 20)\n  3622: a0 = u64 [s1 + 0x130]\n  3626: u64 [s1 + 0x198] = a0\n  3630: a0 = u64 [s1 + 0x138]\n  3634: u64 [s1 + 0x190] = a0\n  3638: a0 = u64 [s1 + 0x128]\n  3642: u64 [s1 + 0x188] = a0\n  3646: a0 = u64 [s1 + 0x120]\n  3650: u64 [s1 + 0x180] = a0\n  3654: a0 = u64 [s1 + 0x140]\n  3658: u64 [s1 + 0x1b8] = a0\n  3662: a0 = u64 [s1 + 0x148]\n  3666: u64 [s1 + 0x1b0] = a0\n  3670: a0 = u64 [s1 + 0x150]\n  3674: u64 [s1 + 0x1a8] = a0\n  3678: a0 = s1 + 0x1c0\n  3682: a1 = s1 + 0x1a0\n  3686: a2 = s1 + 0x180\n  3690: a3 = u64 [s1 + 0x158]\n  3694: u64 [s1 + 0x1a0] = a3\n  3698: ra = 76, jump @629\n      : @107 [@dyn 38] (gas: 32)\n  3703: a1 = u64 [s1 + 0x1c8]\n  3707: t0 = u64 [s1 + 0x1d8]\n  3711: t1 = u64 [s1 + 0x1c0]\n  3715: a3 = u64 [s1 + 0x1d0]\n  3719: a0 = u64 [s1 + 0x168]\n  3723: a4 = a1 ^ a0\n  3726: a5 = a1 <u a0\n  3729: ra = a0\n  3731: a0 = u64 [s1 + 0x178]\n  3735: t2 = t1 <u a0\n  3738: a5 = t2 if a4 == 0\n  3741: a0 = u64 [s1 + 0x170]\n  3745: a4 = a3 - a0\n  3748: a3 = a3 <u a0\n  3751: a0 = u64 [s1 + 0x160]\n  3755: a2 = t0 - a0\n  3758: a2 = a2 - a3\n  3761: a3 = a4 <u a5\n  3764: a2 = a2 - a3\n  3767: a0 = u64 [s1 + 0x178]\n  3771: a4 = a4 - a5\n  3774: a1 = a1 - ra\n  3777: a3 = a1 - t2\n  3780: a1 = t1 - a0\n  3783: a2 = a2 | a3\n  3786: a3 = a1 | a4\n  3789: a3 = a3 | a2\n  3792: a2 = a2 | a4\n  3795: a3 = a3 >> 0x20\n  3798: a2 = a2 << 0x20\n  3801: a2 = a2 | a3\n  3804: jump @159 if a2 == 0\n      : @108 (gas: 1)\n  3808: jump @549\n      : @109 (gas: 10)\n  3811: u64 [a2 + 1568] = 0\n  3815: u64 [a2 + 1560] = 0\n  3819: u64 [a2 + 1552] = 0\n  3823: u64 [a2 + 1544] = 0\n  3827: a0 = s1 + 0x1000\n  3831: i32 a0 = a0 + 0x6e0\n  3835: ra = 0x4e\n  3838: ecalli 10 // 'value_transferred'\n  3840: t0 = 0x50\n  3843: jump @745\n      : @110 [@dyn 39] (gas: 1)\n  3846: t0 = 80, jump @745\n      : @111 [@dyn 40] (gas: 8)\n  3851: a0 = u64 [a4 + 0x18]\n  3854: a1 = u64 [a4 + 0x20]\n  3857: a2 = u64 [a4 + 0x10]\n  3860: a3 = u64 [a4 + 0x8]\n  3863: a1 = a1 | a2\n  3866: a0 = a0 | a3\n  3869: a0 = a0 | a1\n  3872: jump @113 if a0 == 0\n      : @112 (gas: 1)\n  3875: jump @559\n      : @113 (gas: 3)\n  3878: a0 = u64 [s1 + 0x178]\n  3882: a0 = i32 [a0]\n  3884: jump @115 if a0 >u 35\n      : @114 (gas: 1)\n  3888: jump @560\n      : @115 (gas: 5)\n  3891: a0 = s1 + 0x1000\n  3895: i32 a0 = a0 + 0x700\n  3899: a1 = 0x4\n  3902: ecalli 1 // 'call_data_load'\n  3904: fallthrough\n      : @116 (gas: 12)\n  3905: a3 = s1 + 0x10d8\n  3909: a2 = u64 [a3 + 0x638]\n  3913: a0 = u64 [a3 + 0x640]\n  3917: a1 = 0x100000000\n  3927: a1 = a1 ^ a2\n  3930: a1 = a1 | a0\n  3933: u64 [s1 + 0x148] = a2\n  3937: a2 = a2 >> 0x20\n  3940: a2 = a2 <u 0x1\n  3943: a2 = 0 if a0 != 0\n  3945: a2 = 0 if a1 == 0\n  3947: jump @118 if a2 != 0\n      : @117 (gas: 1)\n  3950: jump @561\n      : @118 (gas: 8)\n  3953: a0 = u64 [a3 + 0x630]\n  3957: u64 [s1 + 0x150] = a0\n  3961: a0 = u64 [a3 + 0x628]\n  3965: u64 [s1 + 0x158] = a0\n  3969: a0 = s1 + 0x7ff\n  3973: a0 = a0 + 0x1\n  3976: a1 = 0x40\n  3979: ra = 82, jump @17\n      : @119 [@dyn 41] (gas: 19)\n  3984: a0 = s1 + 0x1000\n  3988: a0 = u64 [a0 + 0xfffffffffffff818]\n  3992: u64 [s1 + 0x168] = a0\n  3996: a1 = s1 + 0x1000\n  4000: a1 = u64 [a1 + 0xfffffffffffff810]\n  4004: u64 [s1 + 0x160] = a1\n  4008: a2 = s1 + 0x1000\n  4012: a3 = u64 [a2 + 0xfffffffffffff808]\n  4016: u64 [s1 + 0x170] = a3\n  4020: a2 = s1 + 0x1000\n  4024: a2 = u64 [a2 + 0xfffffffffffff800]\n  4028: u64 [s1 + 0x178] = a2\n  4032: a4 = s1 + 0x700\n  4036: u64 [a4 + 0xf8] = a0\n  4040: u64 [a4 + 0xf0] = a1\n  4044: u64 [a4 + 0xe8] = a3\n  4048: a0 = s1 + 0x7e0\n  4052: u64 [a4 + 0xe0] = a2\n  4056: ra = 84, jump @611\n      : @120 [@dyn 42] (gas: 13)\n  4061: a3 = s1 + 0x100\n  4065: a0 = u64 [a3 + 0x68]\n  4068: a1 = u64 [a3 + 0x70]\n  4071: a0 = a0 | a1\n  4074: a2 = u64 [a3 + 0x60]\n  4077: a1 = u64 [a3 + 0x78]\n  4080: a1 = a1 | a2\n  4083: a1 = a1 | a0\n  4086: a1 = a1 >> 0x20\n  4089: a0 = a0 | a2\n  4092: a0 = a0 << 0x20\n  4095: a0 = a0 | a1\n  4098: jump @122 if a0 == 0\n      : @121 (gas: 1)\n  4101: jump @549\n      : @122 (gas: 7)\n  4104: u64 [s1 + 2008] = 0\n  4108: u64 [s1 + 2000] = 0\n  4112: u64 [s1 + 1992] = 0\n  4116: a1 = s1 + 0x7c0\n  4120: u64 [s1 + 1984] = 0\n  4124: a0 = u64 [s1 + 0x178]\n  4128: ra = 86, jump @19\n      : @123 [@dyn 43] (gas: 12)\n  4133: a4 = s1 + 0x100\n  4137: a0 = u64 [a4 + 0x68]\n  4140: a1 = u64 [a4 + 0x60]\n  4143: a2 = a1 | a0\n  4146: a3 = 0x100000000\n  4156: a0 = 0xffffffe0\n  4166: a1 = u64 [a4 + 0x78]\n  4169: a0 = a1 <u a0\n  4172: a1 = u64 [a4 + 0x70]\n  4175: a0 = 0 if a1 != 0\n  4177: a0 = 0 if a2 != 0\n  4179: jump @125 if a0 != 0\n      : @124 (gas: 1)\n  4182: jump @549\n      : @125 (gas: 10)\n  4185: a0 = u64 [s1 + 0x178]\n  4189: i32 a0 = a0 + 0x20\n  4192: u64 [s1 + 1976] = 0\n  4196: u64 [s1 + 1968] = 0\n  4200: u64 [s1 + 1960] = 0\n  4204: u64 [s1 + 0x168] = a3\n  4208: a1 = s1 + 0x7a0\n  4212: u64 [s1 + 1952] = 0x60\n  4217: u64 [s1 + 0x160] = a2\n  4221: ra = 88, jump @19\n      : @126 [@dyn 44] (gas: 10)\n  4226: a2 = s1 + 0x100\n  4230: a0 = u64 [a2 + 0x68]\n  4233: a0 = a0 + 0xffffffffffffffc0\n  4236: a1 = u64 [a2 + 0x78]\n  4239: a0 = a1 <u a0\n  4242: a1 = u64 [a2 + 0x70]\n  4245: a0 = 0 if a1 != 0\n  4247: a1 = u64 [a2 + 0x60]\n  4250: a0 = 0 if a1 != 0\n  4252: jump @128 if a0 != 0\n      : @127 (gas: 1)\n  4255: jump @549\n      : @128 (gas: 12)\n  4258: a0 = u64 [s1 + 0x148]\n  4262: a0 = a0 << 0x20\n  4265: a0 = a0 >> 0x20\n  4268: u64 [s1 + 0x170] = a0\n  4272: a0 = u64 [s1 + 0x178]\n  4276: i32 a0 = a0 + 0x40\n  4279: u64 [s1 + 1944] = 0\n  4283: u64 [s1 + 1936] = 0\n  4287: u64 [s1 + 1920] = 0x60\n  4292: a1 = s1 + 0x780\n  4296: u64 [s1 + 1928] = 0\n  4300: ra = 90, jump @19\n      : @129 [@dyn 45] (gas: 11)\n  4305: u64 [s1 + 1912] = 0\n  4309: a0 = u64 [s1 + 0x170]\n  4313: a2 = s1 + 0x700\n  4317: u64 [a2 + 0x70] = a0\n  4320: a0 = u64 [s1 + 0x150]\n  4324: u64 [a2 + 0x68] = a0\n  4327: a1 = s1 + 0x760\n  4331: a0 = u64 [s1 + 0x158]\n  4335: u64 [a2 + 0x60] = a0\n  4338: a0 = 0\n  4340: ra = 92, jump @19\n      : @130 [@dyn 46] (gas: 7)\n  4345: u64 [s1 + 1880] = 0\n  4349: u64 [s1 + 1872] = 0\n  4353: u64 [s1 + 1864] = 0\n  4357: a0 = 0x20\n  4360: a1 = s1 + 0x740\n  4364: u64 [s1 + 1856] = 0\n  4368: ra = 94, jump @19\n      : @131 [@dyn 47] (gas: 6)\n  4373: a0 = sp + 0xffffffffffffffe0\n  4376: a0 = a0 & 0xffffffffffffffe0\n  4379: u64 [s1 + 0x170] = a0\n  4383: sp = a0\n  4385: a1 = i32 [0x20064]\n  4390: jump @133 if a1 >u 63\n      : @132 (gas: 4)\n  4394: a1 = 0x40\n  4397: u32 [0x20064] = a1\n  4402: t0 = 0x60\n  4405: jump @737\n      : @133 (gas: 1)\n  4408: t0 = 96, jump @737\n      : @134 [@dyn 48] (gas: 26)\n  4413: a0 = 0x20070\n  4418: i32 a0 = a0 + 0\n  4420: i32 a2 = a2 + 0\n  4422: a1 = 0x40\n  4425: ecalli 6 // 'hash_keccak_256'\n  4427: a3 = u64 [s1 + 0x178]\n  4431: a0 = u64 [a3 + 0x18]\n  4434: a1 = u64 [a3 + 0x10]\n  4437: a2 = u64 [a3 + 0x8]\n  4440: a3 = u64 [a3]\n  4442: a5 = reverse a0\n  4444: a4 = reverse a1\n  4446: a0 = reverse a2\n  4448: a1 = reverse a3\n  4450: u64 [s1 + 0x148] = a1\n  4454: a2 = u64 [s1 + 0x170]\n  4458: u64 [a2 + 0x18] = a1\n  4461: u64 [s1 + 0x150] = a0\n  4465: u64 [a2 + 0x10] = a0\n  4468: u64 [s1 + 0x140] = a4\n  4472: u64 [a2 + 0x8] = a4\n  4475: u64 [s1 + 0x138] = a5\n  4479: u64 [a2] = a5\n  4481: a0 = s1 + 0x720\n  4485: a1 = 0x40\n  4488: ra = 98, jump @17\n      : @135 [@dyn 49] (gas: 15)\n  4493: a4 = s1 + 0x700\n  4497: a0 = u64 [a4 + 0x38]\n  4500: u64 [s1 + 0x158] = a0\n  4504: a2 = u64 [a4 + 0x30]\n  4507: u64 [s1 + 0x160] = a2\n  4511: a3 = u64 [a4 + 0x28]\n  4514: u64 [s1 + 0x168] = a3\n  4518: a1 = u64 [a4 + 0x20]\n  4521: u64 [s1 + 0x178] = a1\n  4525: u64 [a4 + 0x18] = a0\n  4528: u64 [a4 + 0x10] = a2\n  4531: u64 [a4 + 0x8] = a3\n  4534: a0 = s1 + 0x700\n  4538: u64 [a4] = a1\n  4540: ra = 100, jump @611\n      : @136 [@dyn 50] (gas: 3)\n  4545: a0 = s1 + 0x6e0\n  4549: a1 = u64 [s1 + 0x170]\n  4553: ra = 102, jump @21\n      : @137 [@dyn 51] (gas: 13)\n  4558: a3 = s1 + 0x100\n  4562: a2 = u64 [a3 + 0x60]\n  4565: a0 = u64 [a3 + 0x58]\n  4568: a1 = u64 [a3 + 0x68]\n  4571: a0 = a0 | a1\n  4574: a1 = u64 [a3 + 0x78]\n  4577: a1 = a1 | a2\n  4580: a1 = a1 | a0\n  4583: a1 = a1 >> 0x20\n  4586: a0 = a0 | a2\n  4589: a0 = a0 << 0x20\n  4592: a0 = a0 | a1\n  4595: jump @139 if a0 == 0\n      : @138 (gas: 1)\n  4598: jump @549\n      : @139 (gas: 14)\n  4601: a1 = u64 [s1 + 0x6f0]\n  4605: a2 = u64 [s1 + 0x6e8]\n  4609: a3 = u64 [s1 + 0x6e0]\n  4613: a4 = 0xffffffff\n  4623: a4 = a4 & a1\n  4626: a2 = a2 & 0xffffffffffffffff\n  4629: a0 = a3 & 0xffffffffffffffff\n  4632: u64 [s1 + 1752] = 0\n  4636: u64 [s1 + 0x6c0] = a0\n  4640: u64 [s1 + 0x6c8] = a2\n  4644: a1 = s1 + 0x6c0\n  4648: u64 [s1 + 0x6d0] = a4\n  4652: a0 = u64 [s1 + 0x178]\n  4656: ra = 104, jump @19\n      : @140 [@dyn 52] (gas: 3)\n  4661: a0 = s1 + 0x6a0\n  4665: a1 = 0x40\n  4668: ra = 106, jump @17\n      : @141 [@dyn 53] (gas: 32)\n  4673: t0 = u64 [s1 + 0x6b8]\n  4677: u64 [s1 + 0x170] = t0\n  4681: t1 = u64 [s1 + 0x6b0]\n  4685: u64 [s1 + 0x130] = t1\n  4689: t2 = u64 [s1 + 0x6a8]\n  4693: u64 [s1 + 0x128] = t2\n  4697: a5 = u64 [s1 + 0x6a0]\n  4701: u64 [s1 + 0x120] = a5\n  4705: a3 = u64 [s1 + 0x138]\n  4709: a3 = a3 + 0x1\n  4712: a0 = a3 <u 0x1\n  4715: a1 = u64 [s1 + 0x140]\n  4719: a0 = a0 + a1\n  4722: a1 = a3 | a0\n  4725: a1 = a1 <u 0x1\n  4728: a2 = u64 [s1 + 0x150]\n  4732: a1 = a1 + a2\n  4735: a2 = a1 <u a2\n  4738: a4 = u64 [s1 + 0x148]\n  4742: a2 = a2 + a4\n  4745: u64 [s1 + 0x658] = t0\n  4749: u64 [s1 + 0x650] = t1\n  4753: u64 [s1 + 0x648] = t2\n  4757: u64 [s1 + 0x640] = a5\n  4761: u64 [s1 + 0x678] = a2\n  4765: u64 [s1 + 0x670] = a1\n  4769: u64 [s1 + 0x668] = a0\n  4773: a0 = s1 + 0x680\n  4777: a1 = s1 + 0x660\n  4781: a2 = s1 + 0x640\n  4785: u64 [s1 + 0x660] = a3\n  4789: ra = 108, jump @591\n      : @142 [@dyn 54] (gas: 37)\n  4794: a0 = u64 [s1 + 0x688]\n  4798: a2 = u64 [s1 + 0x698]\n  4802: a4 = u64 [s1 + 0x680]\n  4806: u64 [s1 + 0x118] = a4\n  4810: a3 = u64 [s1 + 0x690]\n  4814: t0 = u64 [s1 + 0x128]\n  4818: ra = a0 ^ t0\n  4821: a5 = a0 <u t0\n  4824: t1 = u64 [s1 + 0x120]\n  4828: t2 = a4 <u t1\n  4831: a5 = t2 if ra == 0\n  4834: a1 = u64 [s1 + 0x130]\n  4838: a4 = a3 - a1\n  4841: a3 = a3 <u a1\n  4844: ra = a1\n  4846: a1 = u64 [s1 + 0x170]\n  4850: a2 = a2 - a1\n  4853: a2 = a2 - a3\n  4856: a3 = a4 <u a5\n  4859: a2 = a2 - a3\n  4862: a4 = a4 - a5\n  4865: a0 = a0 - t0\n  4868: a0 = a0 - t2\n  4871: a3 = u64 [s1 + 0x118]\n  4875: a3 = a3 - t1\n  4878: a5 = s1 + 0x600\n  4882: u64 [a5] = a3\n  4884: u64 [a5 + 0x38] = a1\n  4887: u64 [s1 + 0x630] = ra\n  4891: u64 [s1 + 0x628] = t0\n  4895: u64 [s1 + 0x620] = t1\n  4899: u64 [a5 + 0x8] = a0\n  4902: u64 [a5 + 0x10] = a4\n  4905: a0 = s1 + 0x620\n  4909: a1 = s1 + 0x600\n  4913: u64 [a5 + 0x18] = a2\n  4916: ra = 110, jump @620\n      : @143 [@dyn 55] (gas: 12)\n  4921: a4 = s1 + 0x100\n  4925: a0 = u64 [a4 + 0x60]\n  4928: a1 = u64 [a4 + 0x58]\n  4931: a2 = a0 | a1\n  4934: a3 = 0x100000000\n  4944: a0 = 0xffffffe0\n  4954: a1 = u64 [a4 + 0x78]\n  4957: a0 = a1 <u a0\n  4960: a1 = u64 [a4 + 0x68]\n  4963: a0 = 0 if a1 != 0\n  4965: a0 = 0 if a2 != 0\n  4967: jump @145 if a0 != 0\n      : @144 (gas: 1)\n  4970: jump @549\n      : @145 (gas: 14)\n  4973: a0 = u64 [s1 + 0x178]\n  4977: i32 a0 = a0 + 0x20\n  4980: a1 = u64 [s1 + 0x120]\n  4984: u64 [s1 + 0x5e0] = a1\n  4988: a1 = u64 [s1 + 0x128]\n  4992: u64 [s1 + 0x5e8] = a1\n  4996: a1 = u64 [s1 + 0x130]\n  5000: u64 [s1 + 0x5f0] = a1\n  5004: a1 = s1 + 0x5e0\n  5008: a4 = u64 [s1 + 0x170]\n  5012: u64 [s1 + 0x5f8] = a4\n  5016: u64 [s1 + 0x118] = a2\n  5020: u64 [s1 + 0x110] = a3\n  5024: ra = 112, jump @19\n      : @146 [@dyn 56] (gas: 3)\n  5029: a0 = s1 + 0x5c0\n  5033: a1 = 0x40\n  5036: ra = 114, jump @17\n      : @147 [@dyn 57] (gas: 32)\n  5041: a3 = u64 [s1 + 0x5d8]\n  5045: u64 [s1 + 0x170] = a3\n  5049: t1 = u64 [s1 + 0x5d0]\n  5053: u64 [s1 + 0x130] = t1\n  5057: t2 = u64 [s1 + 0x5c8]\n  5061: u64 [s1 + 0x128] = t2\n  5065: a5 = u64 [s1 + 0x5c0]\n  5069: u64 [s1 + 0x120] = a5\n  5073: a0 = u64 [s1 + 0x138]\n  5077: t0 = a0 + 0x2\n  5080: a0 = t0 <u a0\n  5083: a2 = u64 [s1 + 0x140]\n  5087: a1 = a2 + a0\n  5090: a2 = a1 <u a2\n  5093: a2 = a0 if a0 == 0\n  5096: a0 = u64 [s1 + 0x150]\n  5100: a2 = a2 + a0\n  5103: a0 = a2 <u a0\n  5106: a4 = u64 [s1 + 0x148]\n  5110: a0 = a0 + a4\n  5113: u64 [s1 + 0x578] = a3\n  5117: u64 [s1 + 0x570] = t1\n  5121: u64 [s1 + 0x568] = t2\n  5125: u64 [s1 + 0x560] = a5\n  5129: u64 [s1 + 0x598] = a0\n  5133: u64 [s1 + 0x590] = a2\n  5137: u64 [s1 + 0x588] = a1\n  5141: a0 = s1 + 0x5a0\n  5145: a1 = s1 + 0x580\n  5149: a2 = s1 + 0x560\n  5153: u64 [s1 + 0x580] = t0\n  5157: ra = 116, jump @591\n      : @148 [@dyn 58] (gas: 37)\n  5162: a0 = u64 [s1 + 0x5a8]\n  5166: a2 = u64 [s1 + 0x5b8]\n  5170: a4 = u64 [s1 + 0x5a0]\n  5174: u64 [s1 + 0x150] = a4\n  5178: a3 = u64 [s1 + 0x5b0]\n  5182: t0 = u64 [s1 + 0x128]\n  5186: ra = a0 ^ t0\n  5189: a5 = a0 <u t0\n  5192: t1 = u64 [s1 + 0x120]\n  5196: t2 = a4 <u t1\n  5199: a5 = t2 if ra == 0\n  5202: a1 = u64 [s1 + 0x130]\n  5206: a4 = a3 - a1\n  5209: a3 = a3 <u a1\n  5212: ra = a1\n  5214: a1 = u64 [s1 + 0x170]\n  5218: a2 = a2 - a1\n  5221: a2 = a2 - a3\n  5224: a3 = a4 <u a5\n  5227: a2 = a2 - a3\n  5230: a4 = a4 - a5\n  5233: a0 = a0 - t0\n  5236: a0 = a0 - t2\n  5239: a3 = u64 [s1 + 0x150]\n  5243: a3 = a3 - t1\n  5246: a5 = s1 + 0x500\n  5250: u64 [a5 + 0x20] = a3\n  5253: u64 [a5 + 0x58] = a1\n  5256: u64 [s1 + 0x550] = ra\n  5260: u64 [s1 + 0x548] = t0\n  5264: u64 [s1 + 0x540] = t1\n  5268: u64 [a5 + 0x28] = a0\n  5271: u64 [a5 + 0x30] = a4\n  5274: a0 = s1 + 0x540\n  5278: a1 = s1 + 0x520\n  5282: u64 [a5 + 0x38] = a2\n  5285: ra = 118, jump @620\n      : @149 [@dyn 59] (gas: 10)\n  5290: a2 = s1 + 0x100\n  5294: a0 = u64 [a2 + 0x10]\n  5297: a0 = a0 + 0xffffffffffffffc0\n  5300: a1 = u64 [a2 + 0x78]\n  5303: a0 = a1 <u a0\n  5306: a1 = u64 [a2 + 0x68]\n  5309: a0 = 0 if a1 != 0\n  5311: a1 = u64 [a2 + 0x18]\n  5314: a0 = 0 if a1 != 0\n  5316: jump @151 if a0 != 0\n      : @150 (gas: 1)\n  5319: jump @549\n      : @151 (gas: 13)\n  5322: a0 = u64 [s1 + 0x178]\n  5326: i32 a0 = a0 + 0x40\n  5329: a1 = u64 [s1 + 0x120]\n  5333: a3 = s1 + 0x500\n  5337: u64 [a3] = a1\n  5339: a1 = u64 [s1 + 0x128]\n  5343: u64 [a3 + 0x8] = a1\n  5346: a1 = u64 [s1 + 0x130]\n  5350: u64 [a3 + 0x10] = a1\n  5353: a1 = s1 + 0x500\n  5357: a2 = u64 [s1 + 0x170]\n  5361: u64 [a3 + 0x18] = a2\n  5364: ra = 120, jump @19\n      : @152 [@dyn 60] (gas: 3)\n  5369: a0 = s1 + 0x4e0\n  5373: a1 = 0x40\n  5376: ra = 122, jump @17\n      : @153 [@dyn 61] (gas: 25)\n  5381: a5 = s1 + 0x400\n  5385: a2 = u64 [a5 + 0xf8]\n  5389: u64 [s1 + 0x170] = a2\n  5393: a1 = u64 [a5 + 0xf0]\n  5397: u64 [s1 + 0x150] = a1\n  5401: a3 = u64 [a5 + 0xe8]\n  5405: u64 [s1 + 0x148] = a3\n  5409: a4 = u64 [a5 + 0xe0]\n  5413: u64 [s1 + 0x140] = a4\n  5417: a0 = u64 [s1 + 0x158]\n  5421: u64 [a5 + 0x98] = a0\n  5425: a0 = u64 [s1 + 0x160]\n  5429: u64 [a5 + 0x90] = a0\n  5433: a0 = u64 [s1 + 0x168]\n  5437: u64 [a5 + 0x88] = a0\n  5441: a0 = u64 [s1 + 0x178]\n  5445: u64 [a5 + 0x80] = a0\n  5449: u64 [a5 + 0xb8] = a2\n  5453: u64 [a5 + 0xb0] = a1\n  5457: u64 [a5 + 0xa8] = a3\n  5461: a0 = s1 + 0x4c0\n  5465: a1 = s1 + 0x4a0\n  5469: a2 = s1 + 0x480\n  5473: u64 [a5 + 0xa0] = a4\n  5477: ra = 124, jump @643\n      : @154 [@dyn 62] (gas: 13)\n  5482: a1 = s1 + 0x100\n  5486: a4 = u64 [a1 + 0x48]\n  5489: a2 = u64 [a1 + 0x40]\n  5492: a0 = u64 [a1 + 0x70]\n  5495: a0 = a0 | a4\n  5498: a3 = u64 [a1 + 0x50]\n  5501: a1 = a2 | a3\n  5504: a1 = a1 | a0\n  5507: a1 = a1 >> 0x20\n  5510: a0 = a0 | a3\n  5513: a0 = a0 << 0x20\n  5516: a0 = a0 | a1\n  5519: jump @156 if a0 == 0\n      : @155 (gas: 1)\n  5522: jump @549\n      : @156 (gas: 33)\n  5525: t0 = a3\n  5527: a5 = s1 + 0x400\n  5531: a0 = u64 [a5 + 0xc8]\n  5535: a1 = u64 [a5 + 0xd8]\n  5539: u64 [s1 + 0x178] = a1\n  5543: t1 = u64 [s1 + 0x4c0]\n  5547: a3 = u64 [a5 + 0xd0]\n  5551: t2 = a0 ^ a4\n  5554: a5 = a0 <u a4\n  5557: ra = t1 <u a2\n  5560: a5 = ra if t2 == 0\n  5563: a1 = a3 - t0\n  5566: t2 = a1 - a5\n  5569: a1 = a1 <u a5\n  5572: u64 [s1 + 0x168] = a1\n  5576: a3 = a3 <u t0\n  5579: a5 = u64 [s1 + 0x170]\n  5583: a1 = u64 [s1 + 0x178]\n  5587: a5 = a1 - a5\n  5590: a5 = a5 - a3\n  5593: a1 = u64 [s1 + 0x168]\n  5597: a5 = a5 - a1\n  5600: a0 = a0 - a4\n  5603: a0 = a0 - ra\n  5606: a1 = t1 - a2\n  5609: a0 = a0 | a5\n  5612: a3 = a1 | t2\n  5615: a3 = a3 | a0\n  5618: a0 = a0 | t2\n  5621: a3 = a3 >> 0x20\n  5624: a0 = a0 << 0x20\n  5627: a0 = a0 | a3\n  5630: jump @158 if a0 == 0\n      : @157 (gas: 1)\n  5633: jump @549\n      : @158 (gas: 4)\n  5636: a0 = a2\n  5638: u64 [s1 + 0x178] = a1\n  5642: ra = 0x7e\n  5645: jump @26\n      : @159 (gas: 2)\n  5648: u64 [s1 + 0x178] = a1\n  5652: ra = 126, jump @26\n      : @160 [@dyn 63] (gas: 5)\n  5657: i32 a1 = a0 + 0\n  5659: a2 = i32 [s1 + 0x178]\n  5663: a0 = 0\n  5665: ecalli 7 // 'seal_return'\n  5667: jump @76\n      : @161 (gas: 9)\n  5670: a0 = s1 + 0x18d8\n  5674: u64 [a0 + 224] = 0\n  5678: u64 [a0 + 216] = 0\n  5682: u64 [a0 + 208] = 0\n  5686: u64 [a0 + 200] = 0\n  5690: a0 = s1 + 0x2000\n  5694: i32 a0 = a0 + 0xfffffffffffff9a0\n  5698: ecalli 10 // 'value_transferred'\n  5700: fallthrough\n      : @162 (gas: 9)\n  5701: a3 = s1 + 0x18d8\n  5705: a0 = u64 [a3 + 0xd8]\n  5709: a1 = u64 [a3 + 0xe0]\n  5713: a2 = u64 [a3 + 0xd0]\n  5717: a3 = u64 [a3 + 0xc8]\n  5721: a1 = a1 | a2\n  5724: a0 = a0 | a3\n  5727: a0 = a0 | a1\n  5730: jump @164 if a0 == 0\n      : @163 (gas: 1)\n  5733: jump @562\n      : @164 (gas: 10)\n  5736: a0 = u64 [s1 + 0x178]\n  5740: a0 = u32 [a0]\n  5742: a2 = s1 + 0x10d8\n  5746: u64 [a2 + 1344] = 0\n  5750: u64 [a2 + 1336] = 0\n  5754: u64 [a2 + 0x528] = a0\n  5758: a0 = s1 + 0x1620\n  5762: a1 = s1 + 0x1600\n  5766: u64 [a2 + 1328] = 0\n  5770: ra = 128, jump @698\n      : @165 [@dyn 64] (gas: 27)\n  5776: a1 = s1 + 0x10d8\n  5780: a2 = a1 + 0x500\n  5784: a0 = u64 [a2 + 0x60]\n  5787: a1 = s1 + 0x100\n  5791: u64 [a1] = a0\n  5793: a0 = u64 [a2 + 0x58]\n  5796: u64 [s1 + 0xf8] = a0\n  5800: a0 = u64 [a2 + 0x50]\n  5803: u64 [a1 + 0x8] = a0\n  5806: a0 = u64 [a2 + 0x48]\n  5809: u64 [a1 + 0x10] = a0\n  5812: a0 = u64 [a2 + 0x80]\n  5816: u64 [s1 + 0xc8] = a0\n  5820: a0 = u64 [a2 + 0x78]\n  5823: u64 [s1 + 0xd0] = a0\n  5827: a0 = u64 [a2 + 0x70]\n  5830: u64 [s1 + 0xd8] = a0\n  5834: a0 = u64 [a2 + 0x68]\n  5837: u64 [s1 + 0xe0] = a0\n  5841: a0 = 0x30070\n  5846: u64 [s1 + 0xc0] = a0\n  5850: i32 a0 = a0 + 0\n  5852: u64 [s1 + 0xa8] = a0\n  5856: ra = 0x82\n  5860: ecalli 3 // 'caller'\n  5862: t0 = 0x84\n  5866: jump @723\n      : @166 [@dyn 65] (gas: 1)\n  5869: t0 = 132, jump @723\n      : @167 [@dyn 66] (gas: 8)\n  5875: u64 [a2 + 1312] = 0\n  5879: a4 = a2 + 0x500\n  5883: u64 [a4 + 0x18] = a1\n  5886: u64 [a4 + 0x10] = a0\n  5889: a1 = s1 + 0x15e0\n  5893: u64 [a4 + 0x8] = a3\n  5896: a0 = 0\n  5898: ra = 134, jump @19\n      : @168 [@dyn 67] (gas: 9)\n  5904: a0 = s1 + 0x10d8\n  5908: u64 [a0 + 1280] = 0\n  5912: u64 [a0 + 1272] = 0\n  5916: u64 [a0 + 1264] = 0\n  5920: a2 = a0\n  5922: a0 = 0x20\n  5925: a1 = s1 + 0x15c0\n  5929: u64 [a2 + 1256] = 0\n  5933: ra = 136, jump @19\n      : @169 [@dyn 68] (gas: 4)\n  5939: a2 = 0x20064\n  5944: a0 = i32 [0x20064]\n  5949: a1 = 0x3f\n  5952: jump @171 if a1 <u a0\n      : @170 (gas: 4)\n  5955: u32 [0x20064] = 0x40\n  5961: u64 [s1 + 0xb0] = a2\n  5965: t0 = 0x8a\n  5969: jump @737\n      : @171 (gas: 2)\n  5972: u64 [s1 + 0xb0] = a2\n  5976: t0 = 138, jump @737\n      : @172 [@dyn 69] (gas: 9)\n  5982: a0 = 0x20070\n  5987: i32 a0 = a0 + 0\n  5989: i32 a2 = a2 + 0\n  5991: a1 = 0x40\n  5994: u64 [s1 + 0xb8] = a0\n  5998: ra = 0x8c\n  6002: ecalli 6 // 'hash_keccak_256'\n  6004: t0 = 0x8e\n  6008: jump @735\n      : @173 [@dyn 70] (gas: 1)\n  6011: t0 = 142, jump @735\n      : @174 [@dyn 71] (gas: 8)\n  6017: a4 = s1 + 0x18d8\n  6021: u64 [a4 + 0x100] = a3\n  6025: u64 [a4 + 0xf8] = a2\n  6029: u64 [a4 + 0xf0] = a1\n  6033: u64 [a4 + 0xe8] = a0\n  6037: a0 = s1 + 0x15a0\n  6041: a1 = s1 + 0x19c0\n  6045: ra = 144, jump @21\n      : @175 [@dyn 72] (gas: 7)\n  6051: a2 = s1 + 0x10d8\n  6055: a0 = u32 [a2 + 0x4d8]\n  6059: a1 = u64 [a2 + 0x4c8]\n  6063: a2 = u64 [a2 + 0x4d0]\n  6067: a0 = a0 | a1\n  6070: a0 = a0 | a2\n  6073: jump @258 if a0 != 0\n      : @176 (gas: 3)\n  6077: a0 = s1 + 0x10c0\n  6081: a1 = 0x40\n  6084: ra = 146, jump @17\n      : @177 [@dyn 73] (gas: 14)\n  6090: a0 = s1 + 0x10d8\n  6094: a4 = u64 [a0]\n  6096: a1 = a0 + 0xffffffffffffff00\n  6100: a5 = u64 [a1 + 0xf8]\n  6104: a3 = u64 [a1 + 0xf0]\n  6108: a2 = u64 [a1 + 0xe8]\n  6112: a0 = a3 | a4\n  6115: a1 = a2 | a5\n  6118: a1 = a1 | a0\n  6121: a1 = a1 >> 0x20\n  6124: a0 = a0 | a5\n  6127: a0 = a0 << 0x20\n  6130: a0 = a0 | a1\n  6133: jump @179 if a0 == 0\n      : @178 (gas: 1)\n  6136: jump @549\n      : @179 (gas: 15)\n  6139: a0 = s1 + 0x7ff\n  6143: a0 = a0 + 0xd9\n  6147: u64 [s1 + 0x170] = a3\n  6151: a3 = a0\n  6153: u64 [a0 + 2008] = 0\n  6157: u64 [a0 + 2000] = 0\n  6161: u64 [a0 + 1992] = 0\n  6165: a0 = 0x8c379a000000000\n  6175: a1 = s1 + 0x10a0\n  6179: u64 [a3 + 0x7e0] = a0\n  6183: a0 = a2\n  6185: u64 [s1 + 0x178] = a2\n  6189: u64 [s1 + 0x160] = a4\n  6193: u64 [s1 + 0x168] = a5\n  6197: ra = 148, jump @19\n      : @180 [@dyn 74] (gas: 12)\n  6203: a5 = s1 + 0x100\n  6207: a1 = u64 [a5 + 0x78]\n  6210: a0 = u64 [a5 + 0x68]\n  6213: a3 = u64 [a5 + 0x60]\n  6216: a3 = a3 | a0\n  6219: a4 = 0x100000000\n  6229: a0 = 0xfffffffc\n  6239: a0 = a1 <u a0\n  6242: a2 = u64 [a5 + 0x70]\n  6245: a0 = 0 if a2 != 0\n  6247: a0 = 0 if a3 != 0\n  6249: jump @182 if a0 != 0\n      : @181 (gas: 1)\n  6252: jump @549\n      : @182 (gas: 11)\n  6255: i32 a0 = a1 + 0x4\n  6258: a2 = s1 + 0x7ff\n  6262: a2 = a2 + 0xd9\n  6266: u64 [a2 + 1984] = 0\n  6270: u64 [a2 + 1976] = 0\n  6274: u64 [a2 + 1960] = 0x20\n  6279: a1 = s1 + 0x1080\n  6283: u64 [a2 + 1968] = 0\n  6287: u64 [s1 + 0x168] = a3\n  6291: u64 [s1 + 0x160] = a4\n  6295: ra = 150, jump @19\n      : @183 [@dyn 75] (gas: 10)\n  6301: a2 = s1 + 0x100\n  6305: a4 = u64 [a2 + 0x68]\n  6308: a3 = u64 [a2 + 0x70]\n  6311: a1 = u64 [a2 + 0x78]\n  6314: a0 = u64 [a2 + 0x60]\n  6317: a0 = a0 + 0xffffffffffffffdc\n  6320: a0 = a1 <u a0\n  6323: a0 = 0 if a3 != 0\n  6325: a0 = 0 if a4 != 0\n  6327: jump @185 if a0 != 0\n      : @184 (gas: 1)\n  6330: jump @549\n      : @185 (gas: 9)\n  6333: i32 a0 = a1 + 0x24\n  6336: a2 = s1 + 0x7ff\n  6340: a2 = a2 + 0xd9\n  6344: u64 [a2 + 1952] = 0\n  6348: u64 [a2 + 1944] = 0\n  6352: u64 [a2 + 1928] = 0xe\n  6357: a1 = s1 + 0x1060\n  6361: u64 [a2 + 1936] = 0\n  6365: ra = 152, jump @19\n      : @186 [@dyn 76] (gas: 9)\n  6371: a3 = s1 + 0x100\n  6375: a2 = u64 [a3 + 0x78]\n  6378: a0 = 0xffffffbc\n  6388: a0 = a2 <u a0\n  6391: a1 = u64 [a3 + 0x70]\n  6394: a0 = 0 if a1 != 0\n  6396: a1 = u64 [a3 + 0x68]\n  6399: a0 = 0 if a1 != 0\n  6401: jump @188 if a0 != 0\n      : @187 (gas: 1)\n  6404: jump @549\n      : @188 (gas: 11)\n  6407: i32 a0 = a2 + 0x44\n  6410: a1 = u64 [0x20020]\n  6415: a2 = u64 [0x20028]\n  6420: a3 = s1 + 0x7ff\n  6424: a3 = a3 + 0xd9\n  6428: u64 [a3 + 0x780] = a1\n  6432: u64 [a3 + 1904] = 0\n  6436: u64 [a3 + 0x778] = a2\n  6440: a1 = s1 + 0x1040\n  6444: u64 [a3 + 1896] = 0\n  6448: ra = 154, jump @19\n      : @189 [@dyn 77] (gas: 4)\n  6454: a1 = 0x64\n  6457: a0 = u64 [s1 + 0x178]\n  6461: ra = 0x116\n  6465: jump @26\n      : @190 (gas: 1)\n  6468: jump @192 if a0 == 1299228947\n      : @191 (gas: 1)\n  6475: jump @550\n      : @192 (gas: 10)\n  6478: u64 [a2 + 1728] = 0\n  6482: u64 [a2 + 1720] = 0\n  6486: u64 [a2 + 1712] = 0\n  6490: u64 [a2 + 1704] = 0\n  6494: a0 = s1 + 0x1000\n  6498: i32 a0 = a0 + 0x780\n  6502: ra = 0x9c\n  6506: ecalli 10 // 'value_transferred'\n  6508: t0 = 0x9e\n  6512: jump @745\n      : @193 [@dyn 78] (gas: 1)\n  6515: t0 = 158, jump @745\n      : @194 [@dyn 79] (gas: 8)\n  6521: a0 = u64 [a4 + 0xb8]\n  6525: a1 = u64 [a4 + 0xc0]\n  6529: a2 = u64 [a4 + 0xb0]\n  6533: a3 = u64 [a4 + 0xa8]\n  6537: a1 = a1 | a2\n  6540: a0 = a0 | a3\n  6543: a0 = a0 | a1\n  6546: jump @196 if a0 == 0\n      : @195 (gas: 1)\n  6549: jump @563\n      : @196 (gas: 12)\n  6552: a0 = u64 [s1 + 0x178]\n  6556: a0 = u32 [a0]\n  6558: a2 = s1 + 0x7ff\n  6562: a2 = a2 + 0xd9\n  6566: u64 [a2 + 1824] = 0\n  6570: u64 [a2 + 1816] = 0\n  6574: u64 [a2 + 0x708] = a0\n  6578: a0 = s1 + 0x1000\n  6582: a1 = s1 + 0x7ff\n  6586: a1 = a1 + 0x7e1\n  6590: u64 [a2 + 1808] = 0\n  6594: ra = 160, jump @698\n      : @197 [@dyn 80] (gas: 28)\n  6600: a1 = s1 + 0x7ff\n  6604: a1 = a1 + 0xd9\n  6608: a2 = a1 + 0x700\n  6612: a0 = u64 [a2 + 0x40]\n  6615: a1 = s1 + 0x100\n  6619: u64 [a1 + 0x68] = a0\n  6622: a0 = u64 [a2 + 0x38]\n  6625: u64 [a1 + 0x60] = a0\n  6628: a0 = u64 [a2 + 0x30]\n  6631: u64 [a1 + 0x58] = a0\n  6634: a0 = u64 [a2 + 0x28]\n  6637: u64 [a1 + 0x50] = a0\n  6640: a0 = u64 [a2 + 0x60]\n  6643: u64 [a1 + 0x48] = a0\n  6646: a0 = u64 [a2 + 0x58]\n  6649: u64 [a1 + 0x40] = a0\n  6652: a0 = u64 [a2 + 0x50]\n  6655: u64 [a1 + 0x38] = a0\n  6658: a0 = u64 [a2 + 0x48]\n  6661: u64 [a1 + 0x30] = a0\n  6664: a0 = 0x30070\n  6669: u64 [s1 + 0xe0] = a0\n  6673: i32 a0 = a0 + 0\n  6675: u64 [s1 + 0xd0] = a0\n  6679: ra = 0xa2\n  6683: ecalli 3 // 'caller'\n  6685: t0 = 0xa4\n  6689: jump @718\n      : @198 [@dyn 81] (gas: 1)\n  6692: t0 = 164, jump @718\n      : @199 [@dyn 82] (gas: 9)\n  6698: u64 [a2 + 1792] = 0\n  6702: a4 = a2 + 0x600\n  6706: u64 [a4 + 0xf8] = a1\n  6710: u64 [a4 + 0xf0] = a0\n  6714: a1 = s1 + 0x7ff\n  6718: a1 = a1 + 0x7c1\n  6722: u64 [a4 + 0xe8] = a3\n  6726: a0 = 0\n  6728: ra = 166, jump @19\n      : @200 [@dyn 83] (gas: 11)\n  6734: a0 = s1 + 0x7ff\n  6738: a0 = a0 + 0xd9\n  6742: u64 [a0 + 1760] = 0\n  6746: u64 [a0 + 1752] = 0\n  6750: u64 [a0 + 1744] = 0\n  6754: a2 = a0\n  6756: a0 = 0x20\n  6759: a1 = s1 + 0x7ff\n  6763: a1 = a1 + 0x7a1\n  6767: u64 [a2 + 1736] = 0\n  6771: ra = 168, jump @19\n      : @201 [@dyn 84] (gas: 4)\n  6777: a2 = 0x20064\n  6782: a0 = i32 [0x20064]\n  6787: a1 = 0x3f\n  6790: jump @203 if a1 <u a0\n      : @202 (gas: 4)\n  6793: u32 [0x20064] = 0x40\n  6799: u64 [s1 + 0xb8] = a2\n  6803: t0 = 0xaa\n  6807: jump @737\n      : @203 (gas: 2)\n  6810: u64 [s1 + 0xb8] = a2\n  6814: t0 = 170, jump @737\n      : @204 [@dyn 85] (gas: 9)\n  6820: a0 = 0x20070\n  6825: i32 a0 = a0 + 0\n  6827: i32 a2 = a2 + 0\n  6829: a1 = 0x40\n  6832: u64 [s1 + 0xc0] = a0\n  6836: ra = 0xac\n  6840: ecalli 6 // 'hash_keccak_256'\n  6842: t0 = 0xae\n  6846: jump @735\n      : @205 [@dyn 86] (gas: 1)\n  6849: t0 = 174, jump @735\n      : @206 [@dyn 87] (gas: 10)\n  6855: a4 = s1 + 0x10d8\n  6859: a5 = a4 + 0x600\n  6863: u64 [a5 + 0xe0] = a3\n  6867: u64 [a5 + 0xd8] = a2\n  6871: u64 [a5 + 0xd0] = a1\n  6875: u64 [a5 + 0xc8] = a0\n  6879: a0 = s1 + 0x7ff\n  6883: a0 = a0 + 0x781\n  6887: a1 = s1 + 0x17a0\n  6891: ra = 176, jump @21\n      : @207 [@dyn 88] (gas: 12)\n  6897: a2 = s1 + 0x7ff\n  6901: a2 = a2 + 0xd9\n  6905: a0 = u32 [a2 + 0x6b8]\n  6909: a1 = u64 [a2 + 0x6a8]\n  6913: a2 = u64 [a2 + 0x6b0]\n  6917: a0 = a0 | a1\n  6920: a0 = a0 | a2\n  6923: u64 [s1 + 0x178] = a0\n  6927: a0 = s1 + 0x7ff\n  6931: a0 = a0 + 0x761\n  6935: a1 = 0x40\n  6938: ra = 178, jump @17\n      : @208 [@dyn 89] (gas: 12)\n  6944: a2 = s1 + 0x7ff\n  6948: a2 = a2 + 0xd9\n  6952: a0 = a2 + 0x600\n  6956: a5 = u64 [a0 + 0xa0]\n  6960: a1 = u64 [a0 + 0x98]\n  6964: a3 = u64 [a0 + 0x88]\n  6968: t1 = u64 [a2 + 0x690]\n  6972: t2 = a3 | a1\n  6975: a4 = t1 | a5\n  6978: t0 = a1 | a5\n  6981: a0 = u64 [s1 + 0x178]\n  6985: jump @287 if a0 != 0\n      : @209 (gas: 14)\n  6989: u64 [s1 + 0x170] = t0\n  6993: u64 [a2 + 0x5e8] = a3\n  6997: u64 [a2 + 0x5f0] = t1\n  7001: u64 [a2 + 0x5f8] = a1\n  7005: u64 [s1 + 0x178] = t2\n  7009: a0 = s1 + 0x7ff\n  7013: a0 = a0 + 0x6c1\n  7017: u64 [s1 + 0xa8] = a5\n  7021: u64 [a2 + 0x600] = a5\n  7025: u64 [s1 + 0xd8] = a3\n  7029: u64 [s1 + 0xc8] = t1\n  7033: u64 [s1 + 0xb0] = a1\n  7037: u64 [s1 + 0x128] = a4\n  7041: ra = 180, jump @611\n      : @210 [@dyn 90] (gas: 4)\n  7047: a0 = u64 [s1 + 0xd0]\n  7051: ra = 0xb6\n  7055: ecalli 3 // 'caller'\n  7057: fallthrough\n      : @211 [@dyn 91] (gas: 9)\n  7058: a0 = u64 [s1 + 0x178]\n  7062: a2 = u64 [s1 + 0x128]\n  7066: a0 = a0 | a2\n  7069: a0 = a0 >> 0x20\n  7072: a1 = u64 [s1 + 0xb0]\n  7076: a1 = a1 | a2\n  7079: a1 = a1 << 0x20\n  7082: a0 = a0 | a1\n  7085: jump @213 if a0 == 0\n      : @212 (gas: 1)\n  7088: jump @549\n      : @213 (gas: 1)\n  7091: t0 = 184, jump @718\n      : @214 [@dyn 92] (gas: 9)\n  7097: u64 [a2 + 1504] = 0\n  7101: a4 = a2 + 0x500\n  7105: u64 [a4 + 0xd8] = a1\n  7109: u64 [a4 + 0xd0] = a0\n  7113: a1 = s1 + 0x7ff\n  7117: a1 = a1 + 0x6a1\n  7121: u64 [a4 + 0xc8] = a3\n  7125: a0 = u64 [s1 + 0xd8]\n  7129: ra = 186, jump @19\n      : @215 [@dyn 93] (gas: 9)\n  7135: a2 = 0x100000000\n  7145: a0 = 0xffffffe0\n  7155: a3 = u64 [s1 + 0xd8]\n  7159: a0 = a3 <u a0\n  7162: a1 = u64 [s1 + 0xc8]\n  7166: a0 = 0 if a1 != 0\n  7168: a5 = u64 [s1 + 0x170]\n  7172: a0 = 0 if a5 != 0\n  7174: jump @217 if a0 != 0\n      : @216 (gas: 1)\n  7177: jump @549\n      : @217 (gas: 18)\n  7180: i32 a4 = a3 + 0x20\n  7183: a0 = u64 [s1 + 0x150]\n  7187: a3 = s1 + 0x7ff\n  7191: a3 = a3 + 0xd9\n  7195: a5 = a3 + 0x500\n  7199: u64 [a5 + 0xa8] = a0\n  7203: a0 = u64 [s1 + 0x158]\n  7207: u64 [a5 + 0xb0] = a0\n  7211: a0 = u64 [s1 + 0x160]\n  7215: u64 [a5 + 0xb8] = a0\n  7219: a1 = s1 + 0x7ff\n  7223: a1 = a1 + 0x681\n  7227: a0 = u64 [s1 + 0x168]\n  7231: u64 [a5 + 0xc0] = a0\n  7235: u64 [s1 + 0x168] = a4\n  7239: a0 = a4\n  7241: u64 [s1 + 0x178] = a2\n  7245: ra = 188, jump @19\n      : @218 [@dyn 94] (gas: 9)\n  7251: a1 = u64 [s1 + 0xd8]\n  7255: a0 = u64 [s1 + 0x178]\n  7259: a0 = a0 + 0xffffffffffffffc0\n  7262: a0 = a1 <u a0\n  7265: a2 = u64 [s1 + 0xc8]\n  7269: a0 = 0 if a2 != 0\n  7271: a2 = u64 [s1 + 0x170]\n  7275: a0 = 0 if a2 != 0\n  7277: jump @220 if a0 != 0\n      : @219 (gas: 1)\n  7280: jump @549\n      : @220 (gas: 18)\n  7283: a0 = 0xffffffff\n  7293: u64 [s1 + 0x80] = a0\n  7297: i32 a0 = a1 + 0x40\n  7300: a1 = u64 [s1 + 0x130]\n  7304: a3 = s1 + 0x7ff\n  7308: a3 = a3 + 0xd9\n  7312: a4 = a3 + 0x500\n  7316: u64 [a4 + 0x88] = a1\n  7320: a1 = u64 [s1 + 0x138]\n  7324: u64 [a4 + 0x90] = a1\n  7328: a1 = u64 [s1 + 0x140]\n  7332: u64 [a4 + 0x98] = a1\n  7336: a1 = s1 + 0x7ff\n  7340: a1 = a1 + 0x661\n  7344: a2 = u64 [s1 + 0x148]\n  7348: u64 [a4 + 0xa0] = a2\n  7352: u64 [s1 + 0x60] = a0\n  7355: ra = 190, jump @19\n      : @221 [@dyn 95] (gas: 5)\n  7361: a0 = u64 [s1 + 0xd0]\n  7365: ra = 0xc0\n  7369: ecalli 3 // 'caller'\n  7371: t0 = 0xc2\n  7375: jump @718\n      : @222 [@dyn 96] (gas: 1)\n  7378: t0 = 194, jump @718\n      : @223 [@dyn 97] (gas: 9)\n  7384: u64 [a2 + 1408] = 0\n  7388: a4 = a2 + 0x500\n  7392: u64 [a4 + 0x78] = a1\n  7395: u64 [a4 + 0x70] = a0\n  7398: a1 = s1 + 0x7ff\n  7402: a1 = a1 + 0x641\n  7406: u64 [a4 + 0x68] = a3\n  7409: a0 = 0\n  7411: ra = 196, jump @19\n      : @224 [@dyn 98] (gas: 11)\n  7417: a0 = s1 + 0x7ff\n  7421: a0 = a0 + 0xd9\n  7425: u64 [a0 + 1376] = 0\n  7429: u64 [a0 + 1368] = 0\n  7433: u64 [a0 + 1360] = 0\n  7437: a2 = a0\n  7439: a0 = 0x20\n  7442: a1 = s1 + 0x7ff\n  7446: a1 = a1 + 0x621\n  7450: u64 [a2 + 1352] = 0\n  7454: ra = 198, jump @19\n      : @225 [@dyn 99] (gas: 7)\n  7460: a0 = sp + 0xffffffffffffffe0\n  7463: a0 = a0 & 0xffffffffffffffe0\n  7466: u64 [s1 + 0x178] = a0\n  7470: sp = a0\n  7472: a2 = u64 [s1 + 0xb8]\n  7476: a0 = i32 [a2]\n  7478: jump @227 if a0 >u 63\n      : @226 (gas: 2)\n  7482: u32 [a2 + 0] = 0x40\n  7485: fallthrough\n      : @227 (gas: 30)\n  7486: a0 = sp + 0xffffffffffffffe0\n  7489: a0 = a0 & 0xffffffffffffffe0\n  7492: u64 [s1 + 0x170] = a0\n  7496: sp = a0\n  7498: i32 a2 = a0 + 0\n  7500: a1 = 0x40\n  7503: a0 = u64 [s1 + 0xc0]\n  7507: ecalli 6 // 'hash_keccak_256'\n  7509: a3 = u64 [s1 + 0x170]\n  7513: a0 = u64 [a3 + 0x18]\n  7516: a1 = u64 [a3 + 0x10]\n  7519: a2 = u64 [a3 + 0x8]\n  7522: a3 = u64 [a3]\n  7524: a5 = reverse a0\n  7526: u64 [s1 + 0x88] = a5\n  7530: a4 = reverse a1\n  7532: u64 [s1 + 0x90] = a4\n  7536: a1 = reverse a2\n  7538: u64 [s1 + 0xa0] = a1\n  7542: a0 = reverse a3\n  7544: u64 [s1 + 0x98] = a0\n  7548: a2 = u64 [s1 + 0x178]\n  7552: u64 [a2 + 0x18] = a0\n  7555: u64 [a2 + 0x10] = a1\n  7558: u64 [a2 + 0x8] = a4\n  7561: u64 [a2] = a5\n  7563: a0 = s1 + 0x7ff\n  7567: a0 = a0 + 0x601\n  7571: a1 = u64 [s1 + 0xd8]\n  7575: ra = 200, jump @17\n      : @228 [@dyn 100] (gas: 17)\n  7581: a2 = s1 + 0x7ff\n  7585: a2 = a2 + 0xd9\n  7589: a3 = a2 + 0x500\n  7593: a0 = u64 [a3 + 0x28]\n  7596: a1 = u64 [a3 + 0x30]\n  7599: a2 = u64 [a3 + 0x38]\n  7602: a0 = a0 & 0xffffffffffffffff\n  7605: u64 [s1 + 0x170] = a0\n  7609: a1 = a1 & 0xffffffffffffffff\n  7612: u64 [s1 + 0x160] = a1\n  7616: a0 = u64 [s1 + 0x80]\n  7620: a0 = a0 & a2\n  7623: u64 [s1 + 0x158] = a0\n  7627: a0 = s1 + 0x7ff\n  7631: a0 = a0 + 0x5e1\n  7635: a1 = u64 [s1 + 0x178]\n  7639: ra = 202, jump @21\n      : @229 [@dyn 101] (gas: 18)\n  7645: a1 = s1 + 0x7ff\n  7649: a1 = a1 + 0xd9\n  7653: a0 = u32 [a1 + 0x51c]\n  7657: a0 = a0 << 0x20\n  7660: a1 = u64 [a1 + 0x520]\n  7664: a2 = u64 [s1 + 0x158]\n  7668: a0 = a0 | a2\n  7671: a2 = s1 + 0x10d8\n  7675: a3 = u64 [s1 + 0x160]\n  7679: a4 = a2 + 0x600\n  7683: u64 [a4 + 0xf0] = a3\n  7687: a3 = u64 [s1 + 0x170]\n  7691: u64 [a4 + 0xe8] = a3\n  7695: u64 [a2 + 0x700] = a1\n  7699: u64 [a4 + 0xf8] = a0\n  7703: a1 = s1 + 0x17c0\n  7707: a0 = u64 [s1 + 0x178]\n  7711: ra = 204, jump @23\n      : @230 [@dyn 102] (gas: 28)\n  7717: a0 = sp + 0xffffffffffffffe0\n  7720: a1 = a0 & 0xffffffffffffffe0\n  7723: sp = a1\n  7725: a2 = u64 [s1 + 0x88]\n  7729: a2 = a2 + 0x1\n  7732: a0 = a2 <u 0x1\n  7735: a3 = u64 [s1 + 0x90]\n  7739: a3 = a3 + a0\n  7742: a0 = a2 | a3\n  7745: a0 = a0 <u 0x1\n  7748: a5 = u64 [s1 + 0xa0]\n  7752: a4 = a5 + a0\n  7755: a0 = a4 <u a5\n  7758: a5 = u64 [s1 + 0x98]\n  7762: a0 = a0 + a5\n  7765: u64 [s1 + 0x128] = a0\n  7769: u64 [a1 + 0x18] = a0\n  7772: u64 [s1 + 0x118] = a4\n  7776: u64 [a1 + 0x10] = a4\n  7779: u64 [s1 + 0x120] = a3\n  7783: u64 [a1 + 0x8] = a3\n  7786: u64 [s1 + 0x70] = a1\n  7789: u64 [s1 + 0x130] = a2\n  7793: u64 [a1] = a2\n  7795: a0 = s1 + 0x7ff\n  7799: a0 = a0 + 0x5c1\n  7803: a1 = u64 [s1 + 0x168]\n  7807: ra = 206, jump @17\n      : @231 [@dyn 103] (gas: 8)\n  7813: a0 = s1 + 0x7ff\n  7817: a0 = a0 + 0xd9\n  7821: a3 = u64 [a0 + 0x500]\n  7825: a5 = a0 + 0x400\n  7829: a4 = u64 [a5 + 0xf8]\n  7833: a2 = u64 [a5 + 0xf0]\n  7837: a1 = u64 [a5 + 0xe8]\n  7841: t0 = 208, jump @734\n      : @232 [@dyn 104] (gas: 1)\n  7847: jump @234 if a0 == 0\n      : @233 (gas: 1)\n  7850: jump @549\n      : @234 (gas: 4)\n  7853: a0 = s1 + 0x7ff\n  7857: a0 = a0 + 0x5a1\n  7861: u64 [s1 + 0xf8] = a1\n  7865: ra = 210, jump @17\n      : @235 [@dyn 105] (gas: 19)\n  7871: a2 = s1 + 0x7ff\n  7875: a2 = a2 + 0xd9\n  7879: a0 = a2 + 0x400\n  7883: a4 = u64 [a0 + 0xe0]\n  7887: a1 = u64 [a0 + 0xd8]\n  7891: a3 = u64 [a0 + 0xd0]\n  7895: a0 = a4 >u 0\n  7897: a5 = a1 >u 0\n  7899: a5 = a0 if a4 != 0\n  7902: u64 [s1 + 0xf0] = a3\n  7906: a0 = a3 >u 0\n  7908: u64 [s1 + 0x68] = a1\n  7911: u64 [s1 + 0xe8] = a4\n  7915: a1 = a1 | a4\n  7918: u64 [s1 + 0x40] = a0\n  7921: u64 [s1 + 0x48] = a5\n  7924: u64 [s1 + 0x58] = a1\n  7927: a0 = a5 if a1 != 0\n  7930: jump @237 if a0 == 0\n      : @236 (gas: 1)\n  7933: jump @571\n      : @237 (gas: 6)\n  7936: a0 = u64 [a2 + 0x4c8]\n  7940: u64 [s1 + 0x78] = a0\n  7943: a0 = s1 + 0x7ff\n  7947: a0 = a0 + 0x581\n  7951: a1 = u64 [s1 + 0x70]\n  7954: ra = 212, jump @21\n      : @238 [@dyn 106] (gas: 16)\n  7960: a4 = s1 + 0x7ff\n  7964: a4 = a4 + 0xd9\n  7968: a5 = a4 + 0x400\n  7972: a2 = u64 [a5 + 0xa8]\n  7976: a0 = u64 [a5 + 0xb0]\n  7980: a1 = u64 [a5 + 0xb8]\n  7984: a3 = u64 [a5 + 0xc0]\n  7988: u64 [a5 + 0x80] = a3\n  7992: u64 [a5 + 0x78] = a1\n  7995: u64 [a5 + 0x70] = a0\n  7998: a0 = s1 + 0x7ff\n  8002: a0 = a0 + 0x561\n  8006: a1 = s1 + 0x7ff\n  8010: a1 = a1 + 0x541\n  8014: u64 [a5 + 0x68] = a2\n  8017: ra = 214, jump @582\n      : @239 [@dyn 107] (gas: 20)\n  8023: a0 = s1 + 0x7ff\n  8027: a0 = a0 + 0xd9\n  8031: a1 = a0 + 0x400\n  8035: a3 = u64 [a1 + 0xa0]\n  8039: a4 = u64 [a1 + 0x98]\n  8043: a5 = u64 [a1 + 0x90]\n  8047: t0 = u64 [a0 + 0x488]\n  8051: a0 = a3 >u 0\n  8053: a1 = a4 >u 0\n  8055: a1 = a0 if a3 != 0\n  8058: a0 = a5 >u 0\n  8060: a2 = t0 <u 0x20\n  8063: a2 = a2 ^ 0x1\n  8066: a2 = a0 if a5 != 0\n  8069: a0 = a4 | a3\n  8072: a2 = a1 if a0 != 0\n  8075: a0 = u64 [s1 + 0x78]\n  8078: a0 = a0 <u 0x20\n  8081: u64 [s1 + 0x50] = a0\n  8084: jump @241 if a2 != 0\n      : @240 (gas: 1)\n  8087: jump @381\n      : @241 (gas: 2)\n  8090: u64 [s1 + 0x150] = t0\n  8094: t0 = 216, jump @742\n      : @242 [@dyn 108] (gas: 12)\n  8100: a3 = a0 + 0x400\n  8104: u64 [a3 + 0x48] = a1\n  8107: a1 = u64 [a5 + 0x20]\n  8110: u64 [a3 + 0x50] = a1\n  8113: a1 = u64 [a5 + 0x18]\n  8116: u64 [a3 + 0x58] = a1\n  8119: a1 = s1 + 0x7ff\n  8123: a1 = a1 + 0x521\n  8127: a2 = u64 [a5 + 0x28]\n  8130: u64 [a3 + 0x60] = a2\n  8133: a0 = 0\n  8135: ra = 218, jump @19\n      : @243 [@dyn 109] (gas: 3)\n  8141: a2 = u64 [s1 + 0xb8]\n  8145: a0 = i32 [a2]\n  8147: jump @245 if a0 >u 31\n      : @244 (gas: 3)\n  8151: u32 [a2 + 0] = 0x20\n  8154: t0 = 0xdc\n  8158: jump @743\n      : @245 (gas: 1)\n  8161: t0 = 220, jump @743\n      : @246 [@dyn 110] (gas: 5)\n  8167: ra = 0xde\n  8171: ecalli 6 // 'hash_keccak_256'\n  8173: a0 = u64 [s1 + 0x78]\n  8176: t0 = 0xe0\n  8180: jump @741\n      : @247 [@dyn 111] (gas: 2)\n  8183: a0 = u64 [s1 + 0x78]\n  8186: t0 = 224, jump @741\n      : @248 [@dyn 112] (gas: 2)\n  8192: a4 = u64 [s1 + 0x68]\n  8195: t0 = 226, jump @715\n      : @249 [@dyn 113] (gas: 4)\n  8201: a1 = u64 [s1 + 0x50]\n  8204: a1 = 0 if a5 != 0\n  8206: a3 = u64 [s1 + 0x58]\n  8209: t0 = 228, jump @747\n      : @250 [@dyn 114] (gas: 29)\n  8215: t0 = t2 + a0\n  8218: a0 = t0 <u t2\n  8221: a5 = a2 + a0\n  8224: a4 = a4 + a5\n  8227: u64 [s1 + 0x178] = a4\n  8231: a5 = a4 ^ a2\n  8234: a3 = a4 <u a2\n  8237: a3 = a0 if a5 == 0\n  8240: u64 [s1 + 0x140] = a3\n  8244: a0 = u64 [s1 + 0x150]\n  8248: ra = a0 + 0x1f\n  8251: a4 = ra <u a0\n  8254: a3 = u64 [s1 + 0x158]\n  8258: a0 = a3 + a4\n  8261: a5 = a0 <u a3\n  8264: a5 = a4 if a4 == 0\n  8267: t1 = u64 [s1 + 0x170]\n  8271: t1 = t1 + a5\n  8274: a4 = t1 << 0x3b\n  8277: a3 = a0 >> 0x5\n  8280: a3 = a3 | a4\n  8283: a0 = a0 << 0x3b\n  8286: a4 = ra >> 0x5\n  8289: a0 = a0 | a4\n  8292: a0 = a0 + t2\n  8295: u64 [s1 + 0x158] = a0\n  8299: a0 = a0 <u t2\n  8302: t2 = t0\n  8304: t0 = 230, jump @720\n      : @251 [@dyn 115] (gas: 4)\n  8310: a0 = u64 [s1 + 0x68]\n  8313: a0 = a4 <u a0\n  8316: a3 = u64 [s1 + 0xe8]\n  8320: t0 = 232, jump @728\n      : @252 [@dyn 116] (gas: 8)\n  8326: t0 = u64 [a4]\n  8328: a4 = u64 [a4 + 0x8]\n  8331: a0 = a0 >> 0x5\n  8334: a3 = 0 if a1 != 0\n  8336: a0 = 0 if a1 != 0\n  8338: a1 = reverse a4\n  8340: a4 = reverse t0\n  8342: t0 = 234, jump @724\n      : @253 [@dyn 117] (gas: 25)\n  8348: t0 = a0 + a3\n  8351: a0 = u64 [s1 + 0x170]\n  8355: a0 = t1 <u a0\n  8358: a3 = u64 [s1 + 0x160]\n  8362: a0 = a0 + a3\n  8365: a3 = t1 >> 0x5\n  8368: a5 = a0 << 0x3b\n  8371: a3 = a3 | a5\n  8374: a0 = a0 >> 0x5\n  8377: a0 = a0 + a4\n  8380: a5 = s1 + 0x100\n  8384: a4 = u64 [a5 + 0x78]\n  8387: a3 = a3 + a1\n  8390: a1 = a3 <u a1\n  8393: a0 = a0 + a1\n  8396: a2 = a2 + a3\n  8399: u64 [a5 + 0x48] = a2\n  8402: a1 = a2 <u a3\n  8405: a0 = a0 + a1\n  8408: u64 [a5 + 0x40] = a0\n  8411: a0 = sp + 0xffffffffffffffe0\n  8414: t1 = a0 & 0xffffffffffffffe0\n  8417: sp = t1\n  8419: u64 [s1 + 0x138] = t1\n  8423: fallthrough\n      : @254 (gas: 20)\n  8424: a0 = u64 [s1 + 0x158]\n  8428: a0 = t2 <u a0\n  8431: a2 = u64 [s1 + 0x150]\n  8435: a1 = a4 ^ a2\n  8438: a2 = a4 <u a2\n  8441: a2 = a0 if a1 == 0\n  8444: a5 = u64 [s1 + 0x148]\n  8448: a0 = ra <u a5\n  8451: a3 = u64 [s1 + 0x140]\n  8455: a1 = t0 ^ a3\n  8458: a3 = t0 <u a3\n  8461: a3 = a0 if a1 == 0\n  8464: a0 = ra ^ a5\n  8467: a0 = a0 | a1\n  8470: a3 = a2 if a0 == 0\n  8473: u64 [t1] = t2\n  8475: u64 [t1 + 0x8] = a4\n  8478: u64 [t1 + 0x10] = ra\n  8481: u64 [t1 + 0x18] = t0\n  8484: jump @256 if a3 != 0\n      : @255 (gas: 1)\n  8487: jump @381\n      : @256 (gas: 12)\n  8490: a0 = s1 + 0x10d8\n  8494: u64 [a0 + 1824] = 0\n  8498: u64 [a0 + 1816] = 0\n  8502: u64 [a0 + 1808] = 0\n  8506: u64 [a0 + 1800] = 0\n  8510: a1 = s1 + 0x17e0\n  8514: a0 = t1\n  8516: u64 [s1 + 0x170] = t2\n  8520: u64 [s1 + 0x178] = a4\n  8524: u64 [s1 + 0x168] = t0\n  8528: u64 [s1 + 0x160] = ra\n  8532: ra = 236, jump @23\n      : @257 [@dyn 118] (gas: 15)\n  8538: t1 = u64 [s1 + 0x138]\n  8542: t0 = u64 [s1 + 0x168]\n  8546: a4 = u64 [s1 + 0x178]\n  8550: t2 = u64 [s1 + 0x170]\n  8554: t2 = t2 + 0x1\n  8557: a0 = t2 <u 0x1\n  8560: a4 = a4 + a0\n  8563: a0 = t2 | a4\n  8566: a0 = a0 <u 0x1\n  8569: a1 = u64 [s1 + 0x160]\n  8573: a0 = a0 + a1\n  8576: a1 = a0 <u a1\n  8579: t0 = t0 + a1\n  8582: ra = a0\n  8584: jump @254\n      : @258 (gas: 5)\n  8587: a0 = u64 [s1 + 0xa8]\n  8591: ra = 0xee\n  8595: ecalli 3 // 'caller'\n  8597: t0 = 0xf0\n  8601: jump @723\n      : @259 [@dyn 119] (gas: 1)\n  8604: t0 = 240, jump @723\n      : @260 [@dyn 120] (gas: 8)\n  8610: u64 [a2 + 1216] = 0\n  8614: a4 = a2 + 0x400\n  8618: u64 [a4 + 0xb8] = a1\n  8622: u64 [a4 + 0xb0] = a0\n  8626: a1 = s1 + 0x1580\n  8630: u64 [a4 + 0xa8] = a3\n  8634: a0 = 0\n  8636: ra = 242, jump @19\n      : @261 [@dyn 121] (gas: 9)\n  8642: a0 = s1 + 0x10d8\n  8646: u64 [a0 + 1184] = 0\n  8650: u64 [a0 + 1176] = 0\n  8654: u64 [a0 + 1168] = 0\n  8658: a2 = a0\n  8660: a0 = 0x20\n  8663: a1 = s1 + 0x1560\n  8667: u64 [a2 + 1160] = 0\n  8671: ra = 244, jump @19\n      : @262 [@dyn 122] (gas: 7)\n  8677: a0 = sp + 0xffffffffffffffe0\n  8680: a0 = a0 & 0xffffffffffffffe0\n  8683: u64 [s1 + 0x98] = a0\n  8687: sp = a0\n  8689: a2 = u64 [s1 + 0xb0]\n  8693: a0 = i32 [a2]\n  8695: jump @264 if a0 >u 63\n      : @263 (gas: 2)\n  8699: u32 [a2 + 0] = 0x40\n  8702: fallthrough\n      : @264 (gas: 9)\n  8703: a0 = sp + 0xffffffffffffffe0\n  8706: a0 = a0 & 0xffffffffffffffe0\n  8709: u64 [s1 + 0x178] = a0\n  8713: sp = a0\n  8715: i32 a2 = a0 + 0\n  8717: a1 = 0x40\n  8720: a0 = u64 [s1 + 0xb8]\n  8724: ecalli 6 // 'hash_keccak_256'\n  8726: fallthrough\n      : @265 (gas: 45)\n  8727: a3 = u64 [s1 + 0x178]\n  8731: a0 = u64 [a3 + 0x18]\n  8734: a1 = u64 [a3 + 0x10]\n  8737: a2 = u64 [a3 + 0x8]\n  8740: a3 = u64 [a3]\n  8742: a4 = reverse a0\n  8744: ra = reverse a1\n  8746: a5 = reverse a2\n  8748: t0 = reverse a3\n  8750: a0 = u64 [s1 + 0x98]\n  8754: u64 [a0 + 0x18] = t0\n  8757: u64 [a0 + 0x10] = a5\n  8760: a1 = ra\n  8762: u64 [a0 + 0x8] = a1\n  8765: u64 [a0] = a4\n  8767: a0 = sp + 0xffffffffffffffe0\n  8770: a3 = a0 & 0xffffffffffffffe0\n  8773: sp = a3\n  8775: u64 [s1 + 0x78] = a4\n  8778: a2 = a4 + 0x1\n  8781: a0 = a2 <u 0x1\n  8784: u64 [s1 + 0x80] = a1\n  8788: ra = ra + a0\n  8791: a0 = a2 | ra\n  8794: a0 = a0 <u 0x1\n  8797: a4 = a5 + a0\n  8800: t2 = u64 [s1 + 0xf8]\n  8804: a0 = u64 [s1 + 0x110]\n  8808: a0 = a0 | t2\n  8811: a1 = u64 [s1 + 0x108]\n  8815: t1 = u64 [s1 + 0x100]\n  8819: a1 = a1 | t1\n  8822: a0 = a0 | a1\n  8825: a0 = a0 >> 0x20\n  8828: a1 = a1 | t2\n  8831: a1 = a1 << 0x20\n  8834: a0 = a0 | a1\n  8837: a1 = a4 <u a5\n  8840: a1 = a1 + t0\n  8843: u64 [a3 + 0x10] = a4\n  8846: u64 [a3 + 0x8] = ra\n  8849: u64 [a3] = a2\n  8851: u64 [s1 + 0x90] = a3\n  8855: u64 [a3 + 0x18] = a1\n  8858: jump @267 if a0 == 0\n      : @266 (gas: 1)\n  8861: jump @549\n      : @267 (gas: 9)\n  8864: u64 [s1 + 0x30] = t0\n  8867: u64 [s1 + 0x38] = a5\n  8870: u64 [s1 + 0x58] = a1\n  8873: u64 [s1 + 0x60] = a4\n  8876: u64 [s1 + 0x68] = ra\n  8879: u64 [s1 + 0x70] = a2\n  8882: a0 = s1 + 0x1540\n  8886: a1 = u64 [s1 + 0x110]\n  8890: ra = 246, jump @17\n      : @268 [@dyn 123] (gas: 18)\n  8896: a2 = s1 + 0x10d8\n  8900: a0 = a2 + 0x400\n  8904: a4 = u64 [a0 + 0x80]\n  8908: a1 = u64 [a0 + 0x78]\n  8911: a3 = u64 [a0 + 0x70]\n  8914: a0 = a4 >u 0\n  8916: a5 = a1 >u 0\n  8918: a5 = a0 if a4 != 0\n  8921: u64 [s1 + 0x130] = a3\n  8925: a0 = a3 >u 0\n  8927: u64 [s1 + 0x88] = a1\n  8931: u64 [s1 + 0x128] = a4\n  8935: a1 = a1 | a4\n  8938: u64 [s1 + 0xe8] = a0\n  8942: u64 [s1 + 0xf0] = a5\n  8946: u64 [s1 + 0x120] = a1\n  8950: a0 = a5 if a1 != 0\n  8953: jump @270 if a0 == 0\n      : @269 (gas: 1)\n  8956: jump @564\n      : @270 (gas: 5)\n  8959: a0 = u64 [a2 + 0x468]\n  8963: u64 [s1 + 0xa0] = a0\n  8967: a0 = s1 + 0x1520\n  8971: a1 = u64 [s1 + 0x90]\n  8975: ra = 248, jump @21\n      : @271 [@dyn 124] (gas: 13)\n  8981: a4 = s1 + 0x10d8\n  8985: a5 = a4 + 0x400\n  8989: a2 = u64 [a5 + 0x48]\n  8992: a0 = u64 [a5 + 0x50]\n  8995: a1 = u64 [a5 + 0x58]\n  8998: a3 = u64 [a5 + 0x60]\n  9001: u64 [a5 + 0x20] = a3\n  9004: u64 [a5 + 0x18] = a1\n  9007: u64 [a5 + 0x10] = a0\n  9010: a0 = s1 + 0x1500\n  9014: a1 = s1 + 0x14e0\n  9018: u64 [a5 + 0x8] = a2\n  9021: ra = 250, jump @582\n      : @272 [@dyn 125] (gas: 19)\n  9027: a0 = s1 + 0x10d8\n  9031: a1 = a0 + 0x400\n  9035: a3 = u64 [a1 + 0x40]\n  9038: a4 = u64 [a1 + 0x38]\n  9041: a5 = u64 [a1 + 0x30]\n  9044: t0 = u64 [a0 + 0x428]\n  9048: a0 = a3 >u 0\n  9050: a1 = a4 >u 0\n  9052: a1 = a0 if a3 != 0\n  9055: a0 = a5 >u 0\n  9057: a2 = t0 <u 0x20\n  9060: a2 = a2 ^ 0x1\n  9063: a2 = a0 if a5 != 0\n  9066: a0 = a4 | a3\n  9069: a2 = a1 if a0 != 0\n  9072: a0 = u64 [s1 + 0xa0]\n  9076: a0 = a0 <u 0x20\n  9079: u64 [s1 + 0x118] = a0\n  9083: jump @301 if a2 == 0\n      : @273 (gas: 18)\n  9087: u64 [s1 + 0x150] = t0\n  9091: a0 = s1 + 0x100\n  9095: u64 [a0 + 0x58] = a5\n  9098: u64 [a0 + 0x70] = a4\n  9101: u64 [a0 + 0x60] = a3\n  9104: a0 = s1 + 0x10d8\n  9108: a1 = u64 [s1 + 0x70]\n  9111: a2 = a0 + 0x300\n  9115: u64 [a2 + 0xe8] = a1\n  9119: a1 = u64 [s1 + 0x68]\n  9122: u64 [a2 + 0xf0] = a1\n  9126: a1 = u64 [s1 + 0x60]\n  9129: u64 [a2 + 0xf8] = a1\n  9133: a1 = s1 + 0x14c0\n  9137: a2 = u64 [s1 + 0x58]\n  9140: u64 [a0 + 0x400] = a2\n  9144: a0 = 0\n  9146: ra = 252, jump @19\n      : @274 [@dyn 126] (gas: 3)\n  9152: a2 = u64 [s1 + 0xb0]\n  9156: a0 = i32 [a2]\n  9158: jump @276 if a0 >u 31\n      : @275 (gas: 3)\n  9162: u32 [a2 + 0] = 0x20\n  9165: t0 = 0xfe\n  9169: jump @744\n      : @276 (gas: 1)\n  9172: t0 = 254, jump @744\n      : @277 [@dyn 127] (gas: 3)\n  9178: ra = 0x100\n  9182: ecalli 6 // 'hash_keccak_256'\n  9184: fallthrough\n      : @278 [@dyn 128] (gas: 9)\n  9185: a0 = u64 [s1 + 0xa0]\n  9189: a1 = a0 + 0x1f\n  9192: a0 = a1 <u a0\n  9195: a5 = u64 [s1 + 0x130]\n  9199: a2 = a5 + a0\n  9202: a3 = a2 <u a5\n  9205: a3 = a0 if a0 == 0\n  9208: a4 = u64 [s1 + 0x88]\n  9212: t0 = 258, jump @715\n      : @279 [@dyn 129] (gas: 4)\n  9218: a1 = u64 [s1 + 0x118]\n  9222: a1 = 0 if a5 != 0\n  9224: a3 = u64 [s1 + 0x120]\n  9228: t0 = 260, jump @747\n      : @280 [@dyn 130] (gas: 29)\n  9234: t0 = t2 + a0\n  9237: a0 = t0 <u t2\n  9240: a5 = a2 + a0\n  9243: a4 = a4 + a5\n  9246: u64 [s1 + 0x178] = a4\n  9250: a5 = a4 ^ a2\n  9253: a3 = a4 <u a2\n  9256: a3 = a0 if a5 == 0\n  9259: u64 [s1 + 0x140] = a3\n  9263: a0 = u64 [s1 + 0x150]\n  9267: ra = a0 + 0x1f\n  9270: a4 = ra <u a0\n  9273: a3 = u64 [s1 + 0x158]\n  9277: a0 = a3 + a4\n  9280: a5 = a0 <u a3\n  9283: a5 = a4 if a4 == 0\n  9286: t1 = u64 [s1 + 0x170]\n  9290: t1 = t1 + a5\n  9293: a4 = t1 << 0x3b\n  9296: a3 = a0 >> 0x5\n  9299: a3 = a3 | a4\n  9302: a0 = a0 << 0x3b\n  9305: a4 = ra >> 0x5\n  9308: a0 = a0 | a4\n  9311: a0 = a0 + t2\n  9314: u64 [s1 + 0x158] = a0\n  9318: a0 = a0 <u t2\n  9321: t2 = t0\n  9323: t0 = 262, jump @720\n      : @281 [@dyn 131] (gas: 4)\n  9329: a0 = u64 [s1 + 0x88]\n  9333: a0 = a4 <u a0\n  9336: a3 = u64 [s1 + 0x128]\n  9340: t0 = 264, jump @728\n      : @282 [@dyn 132] (gas: 8)\n  9346: t0 = u64 [a4]\n  9348: a4 = u64 [a4 + 0x8]\n  9351: a0 = a0 >> 0x5\n  9354: a3 = 0 if a1 != 0\n  9356: a0 = 0 if a1 != 0\n  9358: a1 = reverse a4\n  9360: a4 = reverse t0\n  9362: t0 = 266, jump @724\n      : @283 [@dyn 133] (gas: 25)\n  9368: t0 = a0 + a3\n  9371: a0 = u64 [s1 + 0x170]\n  9375: a0 = t1 <u a0\n  9378: a3 = u64 [s1 + 0x160]\n  9382: a0 = a0 + a3\n  9385: a3 = t1 >> 0x5\n  9388: a5 = a0 << 0x3b\n  9391: a3 = a3 | a5\n  9394: a0 = a0 >> 0x5\n  9397: a0 = a0 + a4\n  9400: a5 = s1 + 0x100\n  9404: a4 = u64 [a5 + 0x78]\n  9407: a3 = a3 + a1\n  9410: a1 = a3 <u a1\n  9413: a0 = a0 + a1\n  9416: a2 = a2 + a3\n  9419: u64 [a5 + 0x48] = a2\n  9422: a1 = a2 <u a3\n  9425: a0 = a0 + a1\n  9428: u64 [a5 + 0x40] = a0\n  9431: a0 = sp + 0xffffffffffffffe0\n  9434: t1 = a0 & 0xffffffffffffffe0\n  9437: sp = t1\n  9439: u64 [s1 + 0x138] = t1\n  9443: fallthrough\n      : @284 (gas: 21)\n  9444: a0 = u64 [s1 + 0x158]\n  9448: a0 = t2 <u a0\n  9451: a2 = u64 [s1 + 0x150]\n  9455: a1 = a4 ^ a2\n  9458: a2 = a4 <u a2\n  9461: a2 = a0 if a1 == 0\n  9464: a5 = u64 [s1 + 0x148]\n  9468: a0 = ra <u a5\n  9471: a3 = u64 [s1 + 0x140]\n  9475: a1 = t0 ^ a3\n  9478: a3 = t0 <u a3\n  9481: a3 = a0 if a1 == 0\n  9484: a0 = ra ^ a5\n  9487: a0 = a0 | a1\n  9490: a3 = a2 if a0 == 0\n  9493: u64 [t1] = t2\n  9495: u64 [t1 + 0x8] = a4\n  9498: u64 [t1 + 0x10] = ra\n  9501: u64 [t1 + 0x18] = t0\n  9504: a0 = s1 + 0x18d8\n  9508: jump @301 if a3 == 0\n      : @285 (gas: 11)\n  9512: u64 [a0 + 288] = 0\n  9516: u64 [a0 + 280] = 0\n  9520: u64 [a0 + 272] = 0\n  9524: u64 [a0 + 264] = 0\n  9528: a1 = s1 + 0x19e0\n  9532: a0 = t1\n  9534: u64 [s1 + 0x170] = t2\n  9538: u64 [s1 + 0x178] = a4\n  9542: u64 [s1 + 0x168] = t0\n  9546: u64 [s1 + 0x160] = ra\n  9550: ra = 268, jump @23\n      : @286 [@dyn 134] (gas: 15)\n  9556: t1 = u64 [s1 + 0x138]\n  9560: t0 = u64 [s1 + 0x168]\n  9564: a4 = u64 [s1 + 0x178]\n  9568: t2 = u64 [s1 + 0x170]\n  9572: t2 = t2 + 0x1\n  9575: a0 = t2 <u 0x1\n  9578: a4 = a4 + a0\n  9581: a0 = t2 | a4\n  9584: a0 = a0 <u 0x1\n  9587: a1 = u64 [s1 + 0x160]\n  9591: a0 = a0 + a1\n  9594: a1 = a0 <u a1\n  9597: t0 = t0 + a1\n  9600: ra = a0\n  9602: jump @284\n      : @287 (gas: 6)\n  9605: a0 = t2 | a4\n  9608: a0 = a0 >> 0x20\n  9611: a1 = a1 | a4\n  9614: a1 = a1 << 0x20\n  9617: a0 = a0 | a1\n  9620: jump @289 if a0 == 0\n      : @288 (gas: 1)\n  9623: jump @549\n      : @289 (gas: 12)\n  9626: u64 [a2 + 1656] = 0\n  9630: u64 [a2 + 1648] = 0\n  9634: u64 [a2 + 1640] = 0\n  9638: a0 = 0x8c379a000000000\n  9648: a1 = s1 + 0x7ff\n  9652: a1 = a1 + 0x741\n  9656: u64 [a2 + 0x680] = a0\n  9660: a0 = a3\n  9662: u64 [s1 + 0xd8] = a3\n  9666: u64 [s1 + 0xc8] = t1\n  9670: u64 [s1 + 0x170] = t0\n  9674: ra = 270, jump @19\n      : @290 [@dyn 135] (gas: 9)\n  9680: a1 = u64 [s1 + 0xd8]\n  9684: a3 = 0x100000000\n  9694: a0 = 0xfffffffc\n  9704: a0 = a1 <u a0\n  9707: a2 = u64 [s1 + 0xc8]\n  9711: a0 = 0 if a2 != 0\n  9713: a2 = u64 [s1 + 0x170]\n  9717: a0 = 0 if a2 != 0\n  9719: jump @292 if a0 != 0\n      : @291 (gas: 1)\n  9722: jump @549\n      : @292 (gas: 11)\n  9725: i32 a0 = a1 + 0x4\n  9728: a2 = s1 + 0x7ff\n  9732: a2 = a2 + 0xd9\n  9736: u64 [a2 + 1632] = 0\n  9740: u64 [a2 + 1624] = 0\n  9744: u64 [a2 + 1608] = 0x20\n  9749: a1 = s1 + 0x7ff\n  9753: a1 = a1 + 0x721\n  9757: u64 [a2 + 1616] = 0\n  9761: u64 [s1 + 0x178] = a3\n  9765: ra = 272, jump @19\n      : @293 [@dyn 136] (gas: 9)\n  9771: a3 = u64 [s1 + 0x170]\n  9775: a2 = u64 [s1 + 0xc8]\n  9779: a1 = u64 [s1 + 0xd8]\n  9783: a0 = u64 [s1 + 0x178]\n  9787: a0 = a0 + 0xffffffffffffffdc\n  9790: a0 = a1 <u a0\n  9793: a0 = 0 if a2 != 0\n  9795: a0 = 0 if a3 != 0\n  9797: jump @295 if a0 != 0\n      : @294 (gas: 1)\n  9800: jump @549\n      : @295 (gas: 10)\n  9803: i32 a0 = a1 + 0x24\n  9806: a4 = s1 + 0x7ff\n  9810: a4 = a4 + 0xd9\n  9814: u64 [a4 + 1600] = 0\n  9818: u64 [a4 + 1592] = 0\n  9822: u64 [a4 + 1576] = 0x12\n  9827: a1 = s1 + 0x7ff\n  9831: a1 = a1 + 0x701\n  9835: u64 [a4 + 1584] = 0\n  9839: ra = 274, jump @19\n      : @296 [@dyn 137] (gas: 8)\n  9845: a3 = u64 [s1 + 0xd8]\n  9849: a0 = 0xffffffbc\n  9859: a0 = a3 <u a0\n  9862: a1 = u64 [s1 + 0xc8]\n  9866: a0 = 0 if a1 != 0\n  9868: a1 = u64 [s1 + 0x170]\n  9872: a0 = 0 if a1 != 0\n  9874: jump @298 if a0 != 0\n      : @297 (gas: 1)\n  9877: jump @549\n      : @298 (gas: 14)\n  9880: i32 a0 = a3 + 0x44\n  9883: a1 = u64 [0x20030]\n  9888: a2 = u64 [0x20038]\n  9893: a4 = s1 + 0x7ff\n  9897: a4 = a4 + 0xd9\n  9901: a3 = a4 + 0x600\n  9905: u64 [a3 + 0x20] = a1\n  9908: u64 [a3 + 0x18] = a2\n  9911: a1 = 0x6564000000000000\n  9921: u64 [a3 + 0x10] = a1\n  9924: a1 = s1 + 0x7ff\n  9928: a1 = a1 + 0x6e1\n  9932: u64 [a4 + 1544] = 0\n  9936: ra = 276, jump @19\n      : @299 [@dyn 138] (gas: 3)\n  9942: a1 = 0x64\n  9945: a0 = u64 [s1 + 0xd8]\n  9949: ra = 278, jump @26\n      : @300 [@dyn 139] (gas: 5)\n  9955: i32 a1 = a0 + 0\n  9957: a0 = 0x1\n  9960: a2 = 0x64\n  9963: ecalli 7 // 'seal_return'\n  9965: fallthrough\n      : @301 (gas: 27)\n  9966: a0 = u64 [s1 + 0x118]\n  9970: a0 = a0 ^ 0x1\n  9973: ra = u64 [s1 + 0x130]\n  9977: a1 = u64 [s1 + 0xe8]\n  9981: a0 = a1 if ra != 0\n  9984: a1 = u64 [s1 + 0xf0]\n  9988: a2 = u64 [s1 + 0x120]\n  9992: a0 = a1 if a2 != 0\n  9995: t1 = u64 [s1 + 0x128]\n  9999: t0 = ra | t1\n 10002: a2 = u64 [s1 + 0x88]\n 10006: a1 = a2 >> 0x3f\n 10009: u64 [s1 + 0x28] = a1\n 10012: t1 = t1 << 0x1\n 10015: a5 = ra >> 0x3f\n 10018: a4 = a2 << 0x1\n 10021: a1 = u64 [s1 + 0xa0]\n 10025: t2 = a1 >> 0x3f\n 10028: ra = ra << 0x1\n 10031: a3 = a1 << 0x1\n 10034: u64 [s1 + 0x10] = a3\n 10037: u64 [s1 + 0x20] = t1\n 10040: u64 [s1 + 0x18] = t2\n 10043: u64 [s1 + 0x50] = a5\n 10046: u64 [s1 + 0x48] = ra\n 10049: u64 [s1 + 0x40] = a4\n 10052: jump @314 if a0 == 0\n      : @302 (gas: 16)\n 10056: u64 [s1 + 0xe8] = t0\n 10060: a1 = a1 & 0xffffffffffffffe0\n 10063: u64 [s1 + 0xf0] = a1\n 10067: a0 = s1 + 0x10d8\n 10071: a1 = u64 [s1 + 0x70]\n 10074: a3 = a0 + 0x300\n 10078: u64 [a3 + 0xa8] = a1\n 10082: a1 = u64 [s1 + 0x68]\n 10085: u64 [a3 + 0xb0] = a1\n 10089: a1 = u64 [s1 + 0x60]\n 10092: u64 [a3 + 0xb8] = a1\n 10096: a1 = s1 + 0x1480\n 10100: a2 = u64 [s1 + 0x58]\n 10103: u64 [a3 + 0xc0] = a2\n 10107: a0 = 0\n 10109: ra = 280, jump @19\n      : @303 [@dyn 140] (gas: 7)\n 10115: a0 = sp + 0xffffffffffffffe0\n 10118: a0 = a0 & 0xffffffffffffffe0\n 10121: u64 [s1 + 0x158] = a0\n 10125: sp = a0\n 10127: a1 = 0x20\n 10130: a0 = 0\n 10132: ra = 282, jump @26\n      : @304 [@dyn 141] (gas: 1)\n 10138: t0 = 284, jump @740\n      : @305 [@dyn 142] (gas: 28)\n 10144: ecalli 6 // 'hash_keccak_256'\n 10146: u64 [s1 + 376] = 0x20\n 10151: t0 = 0\n 10153: u64 [s1 + 368] = 0\n 10157: u64 [s1 + 360] = 0\n 10161: a4 = 0\n 10163: a5 = 0\n 10165: ra = 0\n 10167: u64 [s1 + 352] = 0\n 10171: a3 = u64 [s1 + 0x150]\n 10175: a0 = u64 [a3 + 0x18]\n 10178: a1 = u64 [a3 + 0x10]\n 10181: a2 = u64 [a3 + 0x8]\n 10184: t1 = u64 [a3]\n 10186: a0 = reverse a0\n 10188: a1 = reverse a1\n 10190: a3 = reverse a2\n 10192: t1 = reverse t1\n 10194: t2 = t1\n 10196: a2 = u64 [s1 + 0x158]\n 10200: u64 [a2 + 0x18] = t1\n 10203: u64 [s1 + 0x148] = a3\n 10207: u64 [a2 + 0x10] = a3\n 10210: u64 [s1 + 0x150] = a1\n 10214: u64 [a2 + 0x8] = a1\n 10217: a3 = a0\n 10219: u64 [a2] = a0\n 10221: fallthrough\n      : @306 (gas: 25)\n 10222: u64 [s1 + 0x140] = t2\n 10226: t1 = a3\n 10228: a0 = u64 [s1 + 0xf0]\n 10232: u64 [s1 + 0x138] = a4\n 10236: a0 = a4 <u a0\n 10239: a4 = a0 ^ 0x1\n 10242: u64 [s1 + 0x130] = a5\n 10246: a4 = 0x1 if a5 != 0\n 10249: a5 = s1 + 0x100\n 10253: a0 = u64 [a5 + 0x60]\n 10256: a0 = ra | a0\n 10259: a4 = 0x1 if a0 != 0\n 10262: a1 = u64 [a5 + 0x10]\n 10265: a0 = u64 [a5 + 0x78]\n 10268: a1 = a1 + a0\n 10271: a3 = u64 [a5 + 0x8]\n 10274: a3 = a3 + t0\n 10277: a2 = u64 [s1 + 0xf8]\n 10281: a0 = u64 [a5 + 0x70]\n 10284: a2 = a2 + a0\n 10287: a0 = u64 [a5]\n 10289: t2 = u64 [s1 + 0x168]\n 10293: t2 = t2 + a0\n 10296: a0 = u64 [s1 + 0xe8]\n 10300: jump @317 if a4 != 0\n      : @307 (gas: 9)\n 10304: a0 = u64 [s1 + 0x178]\n 10308: a4 = a1 <u a0\n 10311: a3 = a3 + a4\n 10314: a0 = t0\n 10316: t0 = a3 ^ t0\n 10319: u64 [s1 + 0x120] = a0\n 10323: a5 = a3 <u a0\n 10326: a5 = a4 if t0 == 0\n 10329: t0 = 286, jump @725\n      : @308 [@dyn 143] (gas: 1)\n 10335: jump @310 if a0 == 0\n      : @309 (gas: 1)\n 10338: jump @549\n      : @310 (gas: 3)\n 10341: a0 = s1 + 0x1120\n 10345: u64 [s1 + 0x118] = ra\n 10349: ra = 288, jump @17\n      : @311 [@dyn 144] (gas: 14)\n 10355: a3 = s1 + 0x10d8\n 10359: a0 = u64 [a3 + 0x60]\n 10362: a1 = u64 [a3 + 0x58]\n 10365: a2 = u64 [a3 + 0x50]\n 10368: a3 = u64 [a3 + 0x48]\n 10371: a4 = s1 + 0x18d8\n 10375: a5 = a4 + 0x100\n 10379: u64 [a5 + 0x40] = a0\n 10382: u64 [a5 + 0x38] = a1\n 10385: u64 [a5 + 0x30] = a2\n 10388: u64 [a5 + 0x28] = a3\n 10391: a1 = s1 + 0x1a00\n 10395: a0 = u64 [s1 + 0x158]\n 10399: ra = 290, jump @23\n      : @312 [@dyn 145] (gas: 44)\n 10405: t2 = u64 [s1 + 0x128]\n 10409: t2 = t2 + 0x1\n 10412: a0 = t2 <u 0x1\n 10415: t0 = u64 [s1 + 0x150]\n 10419: t0 = t0 + a0\n 10422: a0 = t2 | t0\n 10425: a0 = a0 <u 0x1\n 10428: a1 = u64 [s1 + 0x148]\n 10432: t1 = a1 + a0\n 10435: a1 = t1 <u a1\n 10438: a0 = u64 [s1 + 0x140]\n 10442: a0 = a0 + a1\n 10445: a1 = u64 [s1 + 0x178]\n 10449: a2 = a1 + 0x20\n 10452: u64 [s1 + 0x140] = a2\n 10456: a3 = a2 <u a1\n 10459: a1 = u64 [s1 + 0x120]\n 10463: a2 = a1 + a3\n 10466: u64 [s1 + 0x128] = a2\n 10470: a4 = a2 <u a1\n 10473: a4 = a3 if a3 == 0\n 10476: a1 = u64 [s1 + 0x170]\n 10480: ra = a1 + a4\n 10483: a4 = ra <u a1\n 10486: a1 = u64 [s1 + 0x168]\n 10490: a1 = a1 + a4\n 10493: u64 [s1 + 0x168] = a1\n 10497: a1 = u64 [s1 + 0x138]\n 10501: a4 = a1 + 0x20\n 10504: a5 = a4 <u a1\n 10507: a2 = u64 [s1 + 0x130]\n 10511: a1 = a2 + a5\n 10514: a2 = a1 <u a2\n 10517: a2 = a5 if a5 == 0\n 10520: a3 = u64 [s1 + 0x118]\n 10524: a2 = a2 + a3\n 10527: a5 = a2 <u a3\n 10530: a3 = u64 [s1 + 0x160]\n 10534: a3 = a3 + a5\n 10537: u64 [s1 + 0x160] = a3\n 10541: u64 [s1 + 0x150] = t0\n 10545: a5 = u64 [s1 + 0x158]\n 10549: u64 [a5 + 0x8] = t0\n 10552: t0 = 292, jump @736\n      : @313 [@dyn 146] (gas: 5)\n 10558: t0 = u64 [s1 + 0x128]\n 10562: u64 [s1 + 0x170] = ra\n 10566: a5 = a1\n 10568: ra = a2\n 10570: jump @306\n      : @314 (gas: 4)\n 10573: a0 = a1 | a2\n 10576: a0 = a0 | t0\n 10579: a2 = u64 [s1 + 0x110]\n 10583: jump @332 if a0 != 0\n      : @315 (gas: 1)\n 10587: t0 = 294, jump @727\n      : @316 [@dyn 147] (gas: 6)\n 10593: a2 = u64 [s1 + 0x28]\n 10596: t0 = u64 [s1 + 0x20]\n 10599: a4 = u64 [s1 + 0x50]\n 10602: a5 = u64 [s1 + 0x40]\n 10605: t1 = u64 [s1 + 0x48]\n 10608: jump @336\n      : @317 (gas: 11)\n 10611: ra = t0\n 10613: a4 = u64 [s1 + 0xa0]\n 10617: a5 = u64 [s1 + 0xf0]\n 10621: a4 = a4 ^ a5\n 10624: a5 = u64 [s1 + 0x88]\n 10628: a4 = a4 | a5\n 10631: a4 = a4 | a0\n 10634: t1 = u64 [s1 + 0x50]\n 10637: t0 = u64 [s1 + 0x48]\n 10640: a5 = u64 [s1 + 0x40]\n 10643: jump @331 if a4 == 0\n      : @318 (gas: 7)\n 10647: a0 = u64 [s1 + 0x178]\n 10651: a4 = a1 <u a0\n 10654: a3 = a3 + a4\n 10657: t0 = a3 ^ ra\n 10660: a5 = a3 <u ra\n 10663: a5 = a4 if t0 == 0\n 10666: t0 = 296, jump @726\n      : @319 [@dyn 148] (gas: 1)\n 10672: jump @321 if a0 == 0\n      : @320 (gas: 1)\n 10675: jump @549\n      : @321 (gas: 2)\n 10678: a0 = s1 + 0x1460\n 10682: ra = 298, jump @17\n      : @322 [@dyn 149] (gas: 12)\n 10688: a0 = s1 + 0x10d8\n 10692: a2 = a0 + 0x300\n 10696: a1 = u64 [a2 + 0xa0]\n 10700: u64 [s1 + 0x170] = a1\n 10704: a1 = u64 [a2 + 0x98]\n 10708: u64 [s1 + 0x168] = a1\n 10712: a1 = u64 [a2 + 0x90]\n 10716: u64 [s1 + 0x160] = a1\n 10720: a0 = u64 [a2 + 0x88]\n 10724: u64 [s1 + 0x150] = a0\n 10728: a0 = u64 [s1 + 0xa0]\n 10732: t0 = 300, jump @721\n      : @323 [@dyn 150] (gas: 1)\n 10738: ra = 302, jump @753\n      : @324 [@dyn 151] (gas: 1)\n 10744: t0 = 304, jump @731\n      : @325 [@dyn 152] (gas: 1)\n 10750: ra = 306, jump @748\n      : @326 [@dyn 153] (gas: 1)\n 10756: t0 = 308, jump @719\n      : @327 [@dyn 154] (gas: 1)\n 10762: ra = 310, jump @748\n      : @328 [@dyn 155] (gas: 1)\n 10768: t0 = 312, jump @716\n      : @329 [@dyn 156] (gas: 9)\n 10774: a4 = s1 + 0x18d8\n 10778: a5 = a4 + 0x100\n 10782: u64 [a5 + 0x60] = a3\n 10785: u64 [a5 + 0x58] = a2\n 10788: u64 [a5 + 0x50] = a1\n 10791: u64 [a5 + 0x48] = a0\n 10794: a1 = s1 + 0x1a20\n 10798: a0 = u64 [s1 + 0x158]\n 10802: ra = 314, jump @23\n      : @330 [@dyn 157] (gas: 4)\n 10808: a5 = u64 [s1 + 0x40]\n 10811: t0 = u64 [s1 + 0x48]\n 10814: t1 = u64 [s1 + 0x50]\n 10817: fallthrough\n      : @331 (gas: 16)\n 10818: a0 = u64 [s1 + 0x28]\n 10821: a1 = u64 [s1 + 0x20]\n 10824: a0 = a0 | a1\n 10827: a1 = a5 | t1\n 10830: a2 = u64 [s1 + 0x18]\n 10833: a2 = t0 | a2\n 10836: a3 = u64 [s1 + 0x10]\n 10839: a3 = a3 + 0x1\n 10842: a4 = s1 + 0x18d8\n 10846: a5 = a4 + 0x100\n 10850: u64 [a5 + 0x68] = a3\n 10853: u64 [a5 + 0x70] = a2\n 10856: u64 [a5 + 0x78] = a1\n 10859: u64 [a5 + 0x80] = a0\n 10863: a0 = 0x1a40\n 10867: jump @343\n      : @332 (gas: 9)\n 10870: a0 = u64 [s1 + 0x100]\n 10874: a1 = u64 [s1 + 0xf8]\n 10878: a0 = a0 | a1\n 10881: a1 = 0xffffffe0\n 10891: a1 = a2 <u a1\n 10894: a3 = u64 [s1 + 0x108]\n 10898: a1 = 0 if a3 != 0\n 10900: a1 = 0 if a0 != 0\n 10902: jump @334 if a1 != 0\n      : @333 (gas: 1)\n 10905: jump @549\n      : @334 (gas: 3)\n 10908: i32 a1 = a2 + 0x20\n 10911: a0 = s1 + 0x14a0\n 10915: ra = 316, jump @17\n      : @335 [@dyn 158] (gas: 16)\n 10921: a5 = u64 [s1 + 0x40]\n 10924: t1 = u64 [s1 + 0x48]\n 10927: a4 = u64 [s1 + 0x50]\n 10930: t0 = u64 [s1 + 0x20]\n 10933: a2 = u64 [s1 + 0x28]\n 10936: a0 = s1 + 0x10d8\n 10940: a3 = a0 + 0x300\n 10944: a1 = u64 [a3 + 0xe0]\n 10948: u64 [s1 + 0x170] = a1\n 10952: a1 = u64 [a3 + 0xd8]\n 10956: u64 [s1 + 0x168] = a1\n 10960: a1 = u64 [a3 + 0xd0]\n 10964: u64 [s1 + 0x158] = a1\n 10968: a0 = u64 [a3 + 0xc8]\n 10972: u64 [s1 + 0x160] = a0\n 10976: fallthrough\n      : @336 (gas: 10)\n 10977: a1 = u64 [s1 + 0x18]\n 10980: a0 = a5 | a4\n 10983: u64 [s1 + 0x150] = a0\n 10987: a0 = t0 | a2\n 10990: u64 [s1 + 0x148] = a0\n 10994: a0 = t1 | a1\n 10997: u64 [s1 + 0x140] = a0\n 11001: a1 = u64 [s1 + 0xa0]\n 11005: a1 = a1 << 0x3\n 11008: t0 = 318, jump @738\n      : @337 [@dyn 159] (gas: 1)\n 11014: ra = 320, jump @753\n      : @338 [@dyn 160] (gas: 7)\n 11020: u64 [s1 + 0x120] = a0\n 11024: u64 [s1 + 0x138] = a1\n 11028: a0 = u64 [s1 + 0xa0]\n 11032: i32 a2 = a0 << 0x3\n 11035: a0 = 0xffffffffffffffff\n 11038: a1 = 0xffffffffffffffff\n 11041: ra = 322, jump @748\n      : @339 [@dyn 161] (gas: 1)\n 11047: t0 = 324, jump @732\n      : @340 [@dyn 162] (gas: 1)\n 11053: ra = 326, jump @748\n      : @341 [@dyn 163] (gas: 1)\n 11059: t0 = 328, jump @717\n      : @342 [@dyn 164] (gas: 17)\n 11065: a4 = u64 [s1 + 0x10]\n 11068: a0 = a0 | a4\n 11071: a5 = s1 + 0x100\n 11075: a4 = u64 [a5 + 0x40]\n 11078: a1 = a1 | a4\n 11081: a4 = u64 [a5 + 0x48]\n 11084: a3 = a3 | a4\n 11087: a4 = u64 [a5 + 0x50]\n 11090: a2 = a2 | a4\n 11093: a4 = s1 + 0x18d8\n 11097: a5 = a4 + 0x100\n 11101: u64 [a5 + 0x98] = a2\n 11105: u64 [a5 + 0xa0] = a3\n 11109: u64 [a5 + 0x90] = a1\n 11113: u64 [a5 + 0x88] = a0\n 11117: a0 = 0x1a60\n 11121: fallthrough\n      : @343 (gas: 3)\n 11122: a1 = s1 + a0\n 11125: a0 = u64 [s1 + 0x90]\n 11129: ra = 330, jump @23\n      : @344 [@dyn 165] (gas: 32)\n 11135: a0 = sp + 0xffffffffffffffe0\n 11138: a5 = a0 & 0xffffffffffffffe0\n 11141: sp = a5\n 11143: a0 = u64 [s1 + 0x78]\n 11146: t0 = a0 + 0x2\n 11149: a0 = t0 <u a0\n 11152: a1 = u64 [s1 + 0x80]\n 11156: t1 = a1 + a0\n 11159: a1 = t1 <u a1\n 11162: a1 = a0 if a0 == 0\n 11165: a0 = u64 [s1 + 0x38]\n 11168: ra = a0 + a1\n 11171: a0 = ra <u a0\n 11174: t2 = u64 [s1 + 0x30]\n 11177: t2 = t2 + a0\n 11180: a1 = u64 [s1 + 0xe0]\n 11184: a3 = u64 [s1 + 0xd0]\n 11188: a0 = a1 | a3\n 11191: a2 = u64 [s1 + 0xd8]\n 11195: a4 = u64 [s1 + 0xc8]\n 11199: a2 = a2 | a4\n 11202: a0 = a0 | a2\n 11205: a0 = a0 >> 0x20\n 11208: a2 = a2 | a3\n 11211: a2 = a2 << 0x20\n 11214: a0 = a0 | a2\n 11217: u64 [a5 + 0x10] = ra\n 11220: u64 [a5 + 0x8] = t1\n 11223: u64 [a5] = t0\n 11225: u64 [s1 + 0xf8] = a5\n 11229: u64 [a5 + 0x18] = t2\n 11232: jump @346 if a0 == 0\n      : @345 (gas: 1)\n 11235: jump @549\n      : @346 (gas: 6)\n 11238: u64 [s1 + 0x78] = t2\n 11241: u64 [s1 + 0x80] = ra\n 11245: u64 [s1 + 0x88] = t1\n 11249: u64 [s1 + 0x90] = t0\n 11253: a0 = s1 + 0x1440\n 11257: ra = 332, jump @17\n      : @347 [@dyn 166] (gas: 19)\n 11263: a2 = s1 + 0x10d8\n 11267: a0 = a2 + 0x300\n 11271: a4 = u64 [a0 + 0x80]\n 11275: a3 = u64 [a0 + 0x78]\n 11278: a1 = u64 [a0 + 0x70]\n 11281: a0 = a4 >u 0\n 11283: a5 = a3 >u 0\n 11285: a5 = a0 if a4 != 0\n 11288: u64 [s1 + 0xf0] = a1\n 11292: a0 = a1 >u 0\n 11294: u64 [s1 + 0xe8] = a3\n 11298: u64 [s1 + 0xa0] = a4\n 11302: a3 = a3 | a4\n 11305: a1 = s1 + 0x100\n 11309: u64 [a1 + 0x18] = a0\n 11312: u64 [a1 + 0x20] = a5\n 11315: u64 [a1 + 0x30] = a3\n 11318: a0 = a5 if a3 != 0\n 11321: jump @349 if a0 == 0\n      : @348 (gas: 1)\n 11324: jump @566\n      : @349 (gas: 5)\n 11327: a0 = u64 [a2 + 0x368]\n 11331: u64 [s1 + 0x100] = a0\n 11335: a0 = s1 + 0x1420\n 11339: a1 = u64 [s1 + 0xf8]\n 11343: ra = 334, jump @21\n      : @350 [@dyn 167] (gas: 13)\n 11349: a4 = s1 + 0x10d8\n 11353: a5 = a4 + 0x300\n 11357: a2 = u64 [a5 + 0x48]\n 11360: a0 = u64 [a5 + 0x50]\n 11363: a1 = u64 [a5 + 0x58]\n 11366: a3 = u64 [a5 + 0x60]\n 11369: u64 [a5 + 0x20] = a3\n 11372: u64 [a5 + 0x18] = a1\n 11375: u64 [a5 + 0x10] = a0\n 11378: a0 = s1 + 0x1400\n 11382: a1 = s1 + 0x13e0\n 11386: u64 [a5 + 0x8] = a2\n 11389: ra = 336, jump @582\n      : @351 [@dyn 168] (gas: 19)\n 11395: a0 = s1 + 0x10d8\n 11399: a1 = a0 + 0x300\n 11403: a3 = u64 [a1 + 0x40]\n 11406: a4 = u64 [a1 + 0x38]\n 11409: a5 = u64 [a1 + 0x30]\n 11412: t0 = u64 [a0 + 0x328]\n 11416: a0 = a3 >u 0\n 11418: a1 = a4 >u 0\n 11420: a1 = a0 if a3 != 0\n 11423: a0 = a5 >u 0\n 11425: a2 = t0 <u 0x20\n 11428: a2 = a2 ^ 0x1\n 11431: a2 = a0 if a5 != 0\n 11434: a0 = a4 | a3\n 11437: a2 = a1 if a0 != 0\n 11440: a0 = u64 [s1 + 0x100]\n 11444: a0 = a0 <u 0x20\n 11447: u64 [s1 + 0x128] = a0\n 11451: jump @367 if a2 == 0\n      : @352 (gas: 18)\n 11455: u64 [s1 + 0x150] = t0\n 11459: a0 = s1 + 0x100\n 11463: u64 [a0 + 0x58] = a5\n 11466: u64 [a0 + 0x70] = a4\n 11469: u64 [a0 + 0x60] = a3\n 11472: a0 = s1 + 0x10d8\n 11476: a1 = u64 [s1 + 0x90]\n 11480: a2 = a0 + 0x200\n 11484: u64 [a2 + 0xe8] = a1\n 11488: a1 = u64 [s1 + 0x88]\n 11492: u64 [a2 + 0xf0] = a1\n 11496: a1 = u64 [s1 + 0x80]\n 11500: u64 [a2 + 0xf8] = a1\n 11504: a1 = s1 + 0x13c0\n 11508: a2 = u64 [s1 + 0x78]\n 11511: u64 [a0 + 0x300] = a2\n 11515: a0 = 0\n 11517: ra = 338, jump @19\n      : @353 [@dyn 169] (gas: 3)\n 11523: a2 = u64 [s1 + 0xb0]\n 11527: a0 = i32 [a2]\n 11529: jump @355 if a0 >u 31\n      : @354 (gas: 3)\n 11533: u32 [a2 + 0] = 0x20\n 11536: t0 = 0x154\n 11540: jump @744\n      : @355 (gas: 1)\n 11543: t0 = 340, jump @744\n      : @356 [@dyn 170] (gas: 5)\n 11549: ra = 0x156\n 11553: ecalli 6 // 'hash_keccak_256'\n 11555: a0 = u64 [s1 + 0x100]\n 11559: t0 = 0x158\n 11563: jump @741\n      : @357 [@dyn 171] (gas: 2)\n 11566: a0 = u64 [s1 + 0x100]\n 11570: t0 = 344, jump @741\n      : @358 [@dyn 172] (gas: 2)\n 11576: a4 = u64 [s1 + 0xe8]\n 11580: t0 = 346, jump @715\n      : @359 [@dyn 173] (gas: 4)\n 11586: a1 = u64 [s1 + 0x128]\n 11590: a1 = 0 if a5 != 0\n 11592: a3 = u64 [s1 + 0x130]\n 11596: t0 = 348, jump @747\n      : @360 [@dyn 174] (gas: 29)\n 11602: t0 = t2 + a0\n 11605: a0 = t0 <u t2\n 11608: a5 = a2 + a0\n 11611: a4 = a4 + a5\n 11614: u64 [s1 + 0x178] = a4\n 11618: a5 = a4 ^ a2\n 11621: a3 = a4 <u a2\n 11624: a3 = a0 if a5 == 0\n 11627: u64 [s1 + 0x140] = a3\n 11631: a0 = u64 [s1 + 0x150]\n 11635: ra = a0 + 0x1f\n 11638: a4 = ra <u a0\n 11641: a3 = u64 [s1 + 0x158]\n 11645: a0 = a3 + a4\n 11648: a5 = a0 <u a3\n 11651: a5 = a4 if a4 == 0\n 11654: t1 = u64 [s1 + 0x170]\n 11658: t1 = t1 + a5\n 11661: a4 = t1 << 0x3b\n 11664: a3 = a0 >> 0x5\n 11667: a3 = a3 | a4\n 11670: a0 = a0 << 0x3b\n 11673: a4 = ra >> 0x5\n 11676: a0 = a0 | a4\n 11679: a0 = a0 + t2\n 11682: u64 [s1 + 0x158] = a0\n 11686: a0 = a0 <u t2\n 11689: t2 = t0\n 11691: t0 = 350, jump @720\n      : @361 [@dyn 175] (gas: 4)\n 11697: a0 = u64 [s1 + 0xe8]\n 11701: a0 = a4 <u a0\n 11704: a3 = u64 [s1 + 0xa0]\n 11708: t0 = 352, jump @728\n      : @362 [@dyn 176] (gas: 8)\n 11714: t0 = u64 [a4]\n 11716: a4 = u64 [a4 + 0x8]\n 11719: a0 = a0 >> 0x5\n 11722: a3 = 0 if a1 != 0\n 11724: a0 = 0 if a1 != 0\n 11726: a1 = reverse a4\n 11728: a4 = reverse t0\n 11730: t0 = 354, jump @724\n      : @363 [@dyn 177] (gas: 25)\n 11736: t0 = a0 + a3\n 11739: a0 = u64 [s1 + 0x170]\n 11743: a0 = t1 <u a0\n 11746: a3 = u64 [s1 + 0x160]\n 11750: a0 = a0 + a3\n 11753: a3 = t1 >> 0x5\n 11756: a5 = a0 << 0x3b\n 11759: a3 = a3 | a5\n 11762: a0 = a0 >> 0x5\n 11765: a0 = a0 + a4\n 11768: a5 = s1 + 0x100\n 11772: a4 = u64 [a5 + 0x78]\n 11775: a3 = a3 + a1\n 11778: a1 = a3 <u a1\n 11781: a0 = a0 + a1\n 11784: a2 = a2 + a3\n 11787: u64 [a5 + 0x48] = a2\n 11790: a1 = a2 <u a3\n 11793: a0 = a0 + a1\n 11796: u64 [a5 + 0x40] = a0\n 11799: a0 = sp + 0xffffffffffffffe0\n 11802: t1 = a0 & 0xffffffffffffffe0\n 11805: sp = t1\n 11807: u64 [s1 + 0x138] = t1\n 11811: fallthrough\n      : @364 (gas: 21)\n 11812: a0 = u64 [s1 + 0x158]\n 11816: a0 = t2 <u a0\n 11819: a2 = u64 [s1 + 0x150]\n 11823: a1 = a4 ^ a2\n 11826: a2 = a4 <u a2\n 11829: a2 = a0 if a1 == 0\n 11832: a5 = u64 [s1 + 0x148]\n 11836: a0 = ra <u a5\n 11839: a3 = u64 [s1 + 0x140]\n 11843: a1 = t0 ^ a3\n 11846: a3 = t0 <u a3\n 11849: a3 = a0 if a1 == 0\n 11852: a0 = ra ^ a5\n 11855: a0 = a0 | a1\n 11858: a3 = a2 if a0 == 0\n 11861: u64 [t1] = t2\n 11863: u64 [t1 + 0x8] = a4\n 11866: u64 [t1 + 0x10] = ra\n 11869: u64 [t1 + 0x18] = t0\n 11872: a0 = s1 + 0x18d8\n 11876: jump @367 if a3 == 0\n      : @365 (gas: 11)\n 11879: u64 [a0 + 448] = 0\n 11883: u64 [a0 + 440] = 0\n 11887: u64 [a0 + 432] = 0\n 11891: u64 [a0 + 424] = 0\n 11895: a1 = s1 + 0x1a80\n 11899: a0 = t1\n 11901: u64 [s1 + 0x170] = t2\n 11905: u64 [s1 + 0x178] = a4\n 11909: u64 [s1 + 0x168] = t0\n 11913: u64 [s1 + 0x160] = ra\n 11917: ra = 356, jump @23\n      : @366 [@dyn 178] (gas: 15)\n 11923: t1 = u64 [s1 + 0x138]\n 11927: t0 = u64 [s1 + 0x168]\n 11931: a4 = u64 [s1 + 0x178]\n 11935: t2 = u64 [s1 + 0x170]\n 11939: t2 = t2 + 0x1\n 11942: a0 = t2 <u 0x1\n 11945: a4 = a4 + a0\n 11948: a0 = t2 | a4\n 11951: a0 = a0 <u 0x1\n 11954: a1 = u64 [s1 + 0x160]\n 11958: a0 = a0 + a1\n 11961: a1 = a0 <u a1\n 11964: t0 = t0 + a1\n 11967: ra = a0\n 11969: jump @364\n      : @367 (gas: 10)\n 11972: a3 = s1 + 0x100\n 11976: a0 = u64 [a3 + 0x28]\n 11979: a0 = a0 ^ 0x1\n 11982: a5 = u64 [s1 + 0xf0]\n 11986: a1 = u64 [a3 + 0x18]\n 11989: a0 = a1 if a5 != 0\n 11992: a1 = u64 [a3 + 0x20]\n 11995: a2 = u64 [a3 + 0x30]\n 11998: a0 = a1 if a2 != 0\n 12001: jump @378 if a0 == 0\n      : @368 (gas: 16)\n 12005: a0 = u64 [s1 + 0x100]\n 12009: a0 = a0 & 0xffffffffffffffe0\n 12012: u64 [s1 + 0x108] = a0\n 12016: a0 = s1 + 0x10d8\n 12020: a1 = u64 [s1 + 0x90]\n 12024: a3 = a0 + 0x200\n 12028: u64 [a3 + 0xa8] = a1\n 12032: a1 = u64 [s1 + 0x88]\n 12036: u64 [a3 + 0xb0] = a1\n 12040: a1 = u64 [s1 + 0x80]\n 12044: u64 [a3 + 0xb8] = a1\n 12048: a1 = s1 + 0x1380\n 12052: a2 = u64 [s1 + 0x78]\n 12055: u64 [a3 + 0xc0] = a2\n 12059: a0 = 0\n 12061: ra = 358, jump @19\n      : @369 [@dyn 179] (gas: 7)\n 12067: a0 = sp + 0xffffffffffffffe0\n 12070: a0 = a0 & 0xffffffffffffffe0\n 12073: u64 [s1 + 0x160] = a0\n 12077: sp = a0\n 12079: a1 = 0x20\n 12082: a0 = 0\n 12084: ra = 360, jump @26\n      : @370 [@dyn 180] (gas: 35)\n 12090: a1 = sp + 0xffffffffffffffe0\n 12093: a1 = a1 & 0xffffffffffffffe0\n 12096: u64 [s1 + 0x158] = a1\n 12100: sp = a1\n 12102: i32 a0 = a0 + 0\n 12104: i32 a2 = a1 + 0\n 12106: a1 = 0x20\n 12109: ecalli 6 // 'hash_keccak_256'\n 12111: u64 [s1 + 368] = 0x20\n 12116: u64 [s1 + 360] = 0\n 12120: t1 = 0\n 12122: u64 [s1 + 376] = 0\n 12126: a4 = 0\n 12128: a5 = 0\n 12130: a2 = 0\n 12132: a3 = 0\n 12134: a0 = u64 [s1 + 0x158]\n 12138: t2 = u64 [a0 + 0x18]\n 12141: a1 = u64 [a0 + 0x10]\n 12144: ra = u64 [a0 + 0x8]\n 12147: t0 = u64 [a0]\n 12149: t2 = reverse t2\n 12151: a1 = reverse a1\n 12153: ra = reverse ra\n 12155: t0 = reverse t0\n 12157: u64 [s1 + 0x148] = t0\n 12161: a0 = u64 [s1 + 0x160]\n 12165: u64 [a0 + 0x18] = t0\n 12168: u64 [s1 + 0x120] = ra\n 12172: u64 [a0 + 0x10] = ra\n 12175: u64 [s1 + 0x150] = a1\n 12179: u64 [a0 + 0x8] = a1\n 12182: t0 = t2\n 12184: u64 [a0] = t2\n 12186: fallthrough\n      : @371 (gas: 24)\n 12187: ra = t0\n 12189: a0 = u64 [s1 + 0x108]\n 12193: u64 [s1 + 0x130] = a4\n 12197: a0 = a4 <u a0\n 12200: a4 = a0 ^ 0x1\n 12203: u64 [s1 + 0x128] = a5\n 12207: a4 = 0x1 if a5 != 0\n 12210: u64 [s1 + 0x158] = a3\n 12214: u64 [s1 + 0x140] = a2\n 12218: a0 = a2 | a3\n 12221: a4 = 0x1 if a0 != 0\n 12224: a0 = u64 [s1 + 0xe0]\n 12228: a1 = u64 [s1 + 0x170]\n 12232: a1 = a1 + a0\n 12235: a3 = u64 [s1 + 0xd8]\n 12239: t0 = u64 [s1 + 0x168]\n 12243: t0 = t0 + a3\n 12246: t2 = u64 [s1 + 0xd0]\n 12250: u64 [s1 + 0x138] = t1\n 12254: a2 = t2 + t1\n 12257: t1 = u64 [s1 + 0xc8]\n 12261: a5 = u64 [s1 + 0x178]\n 12265: t1 = t1 + a5\n 12268: jump @394 if a4 != 0\n      : @372 (gas: 6)\n 12272: a0 = a1 <u a0\n 12275: a4 = t0 + a0\n 12278: t0 = a4 ^ a3\n 12281: a5 = a4 <u a3\n 12284: a5 = a0 if t0 == 0\n 12287: t0 = 362, jump @730\n      : @373 [@dyn 181] (gas: 2)\n 12293: u64 [s1 + 0x118] = ra\n 12297: jump @375 if a0 == 0\n      : @374 (gas: 1)\n 12300: jump @549\n      : @375 (gas: 2)\n 12303: a0 = s1 + 0x1180\n 12307: ra = 364, jump @17\n      : @376 [@dyn 182] (gas: 14)\n 12313: a3 = s1 + 0x10d8\n 12317: a0 = u64 [a3 + 0xc0]\n 12321: a1 = u64 [a3 + 0xb8]\n 12325: a2 = u64 [a3 + 0xb0]\n 12329: a3 = u64 [a3 + 0xa8]\n 12333: a4 = s1 + 0x18d8\n 12337: a5 = a4 + 0x100\n 12341: u64 [a5 + 0xe0] = a0\n 12345: u64 [a5 + 0xd8] = a1\n 12349: u64 [a5 + 0xd0] = a2\n 12353: u64 [a5 + 0xc8] = a3\n 12357: a1 = s1 + 0x1aa0\n 12361: a0 = u64 [s1 + 0x160]\n 12365: ra = 366, jump @23\n      : @377 [@dyn 183] (gas: 57)\n 12371: a3 = u64 [s1 + 0x118]\n 12375: a3 = a3 + 0x1\n 12378: a0 = a3 <u 0x1\n 12381: t0 = u64 [s1 + 0x150]\n 12385: t0 = t0 + a0\n 12388: a0 = a3 | t0\n 12391: a0 = a0 <u 0x1\n 12394: a1 = u64 [s1 + 0x120]\n 12398: t1 = a1 + a0\n 12401: a1 = t1 <u a1\n 12404: a0 = u64 [s1 + 0x148]\n 12408: a0 = a0 + a1\n 12411: a1 = u64 [s1 + 0x170]\n 12415: a2 = a1 + 0x20\n 12418: u64 [s1 + 0x118] = a2\n 12422: a1 = a2 <u a1\n 12425: a2 = u64 [s1 + 0x168]\n 12429: a4 = a2 + a1\n 12432: u64 [s1 + 0x110] = a4\n 12436: a4 = a4 <u a2\n 12439: a4 = a1 if a1 == 0\n 12442: a1 = u64 [s1 + 0x138]\n 12446: t2 = a1 + a4\n 12449: a4 = t2 <u a1\n 12452: a1 = u64 [s1 + 0x178]\n 12456: a1 = a1 + a4\n 12459: u64 [s1 + 0x178] = a1\n 12463: a1 = u64 [s1 + 0x130]\n 12467: a4 = a1 + 0x20\n 12470: a5 = a4 <u a1\n 12473: a2 = u64 [s1 + 0x128]\n 12477: a1 = a2 + a5\n 12480: a2 = a1 <u a2\n 12483: a2 = a5 if a5 == 0\n 12486: a5 = u64 [s1 + 0x140]\n 12490: a2 = a2 + a5\n 12493: a5 = a2 <u a5\n 12496: ra = u64 [s1 + 0x158]\n 12500: ra = ra + a5\n 12503: u64 [s1 + 0x150] = t0\n 12507: a5 = u64 [s1 + 0x160]\n 12511: u64 [a5 + 0x8] = t0\n 12514: t0 = a3\n 12516: u64 [a5] = a3\n 12518: u64 [a5 + 0x10] = t1\n 12521: u64 [s1 + 0x148] = a0\n 12525: u64 [a5 + 0x18] = a0\n 12528: u64 [s1 + 0x120] = t1\n 12532: a5 = s1 + 0x100\n 12536: a0 = u64 [a5 + 0x18]\n 12539: u64 [a5 + 0x70] = a0\n 12542: a3 = ra\n 12544: a0 = u64 [a5 + 0x10]\n 12547: u64 [a5 + 0x68] = a0\n 12550: t1 = t2\n 12552: a5 = a1\n 12554: jump @371\n      : @378 (gas: 10)\n 12557: a4 = u64 [s1 + 0x100]\n 12561: a2 = u64 [s1 + 0xe8]\n 12565: a0 = a4 | a2\n 12568: a3 = u64 [s1 + 0xa0]\n 12572: a1 = a5 | a3\n 12575: a0 = a0 | a1\n 12578: t0 = u64 [s1 + 0xe0]\n 12582: t1 = u64 [s1 + 0xd8]\n 12586: a1 = u64 [s1 + 0xd0]\n 12590: jump @409 if a0 != 0\n      : @379 (gas: 1)\n 12594: t0 = 368, jump @727\n      : @380 [@dyn 184] (gas: 1)\n 12600: jump @413\n      : @381 (gas: 27)\n 12603: a0 = u64 [s1 + 0x50]\n 12606: a0 = a0 ^ 0x1\n 12609: a5 = u64 [s1 + 0xf0]\n 12613: a1 = u64 [s1 + 0x40]\n 12616: a0 = a1 if a5 != 0\n 12619: a1 = u64 [s1 + 0x48]\n 12622: a2 = u64 [s1 + 0x58]\n 12625: a0 = a1 if a2 != 0\n 12628: t1 = u64 [s1 + 0xe8]\n 12632: t0 = a5 | t1\n 12635: a2 = u64 [s1 + 0x68]\n 12638: a1 = a2 >> 0x3f\n 12641: u64 [s1 + 0x40] = a1\n 12644: t1 = t1 << 0x1\n 12647: ra = a5 >> 0x3f\n 12650: a4 = a2 << 0x1\n 12653: a1 = u64 [s1 + 0x78]\n 12656: t2 = a1 >> 0x3f\n 12659: a5 = a5 << 0x1\n 12662: a3 = a1 << 0x1\n 12665: u64 [s1 + 0x28] = a3\n 12668: u64 [s1 + 0x38] = t1\n 12671: u64 [s1 + 0x30] = t2\n 12674: u64 [s1 + 0x58] = ra\n 12677: u64 [s1 + 0x50] = a5\n 12680: u64 [s1 + 0x48] = a4\n 12683: jump @441 if a0 == 0\n      : @382 (gas: 18)\n 12687: u64 [s1 + 0xe8] = t0\n 12691: a1 = a1 & 0xffffffffffffffe0\n 12694: u64 [s1 + 0xf0] = a1\n 12698: a0 = s1 + 0x7ff\n 12702: a0 = a0 + 0xd9\n 12706: a1 = u64 [s1 + 0x130]\n 12710: a3 = a0 + 0x400\n 12714: u64 [a3 + 0x8] = a1\n 12717: a1 = u64 [s1 + 0x120]\n 12721: u64 [a3 + 0x10] = a1\n 12724: a1 = u64 [s1 + 0x118]\n 12728: u64 [a3 + 0x18] = a1\n 12731: a1 = s1 + 0x7ff\n 12735: a1 = a1 + 0x4e1\n 12739: a2 = u64 [s1 + 0x128]\n 12743: u64 [a3 + 0x20] = a2\n 12746: a0 = 0\n 12748: ra = 370, jump @19\n      : @383 [@dyn 185] (gas: 7)\n 12754: a0 = sp + 0xffffffffffffffe0\n 12757: a0 = a0 & 0xffffffffffffffe0\n 12760: u64 [s1 + 0x158] = a0\n 12764: sp = a0\n 12766: a1 = 0x20\n 12769: a0 = 0\n 12771: ra = 372, jump @26\n      : @384 [@dyn 186] (gas: 1)\n 12777: t0 = 374, jump @740\n      : @385 [@dyn 187] (gas: 28)\n 12783: ecalli 6 // 'hash_keccak_256'\n 12785: u64 [s1 + 376] = 0x20\n 12790: t0 = 0\n 12792: u64 [s1 + 368] = 0\n 12796: u64 [s1 + 360] = 0\n 12800: a4 = 0\n 12802: a5 = 0\n 12804: ra = 0\n 12806: u64 [s1 + 352] = 0\n 12810: a3 = u64 [s1 + 0x150]\n 12814: a0 = u64 [a3 + 0x18]\n 12817: a1 = u64 [a3 + 0x10]\n 12820: a2 = u64 [a3 + 0x8]\n 12823: t1 = u64 [a3]\n 12825: a0 = reverse a0\n 12827: a1 = reverse a1\n 12829: a3 = reverse a2\n 12831: t1 = reverse t1\n 12833: t2 = t1\n 12835: a2 = u64 [s1 + 0x158]\n 12839: u64 [a2 + 0x18] = t1\n 12842: u64 [s1 + 0x148] = a3\n 12846: u64 [a2 + 0x10] = a3\n 12849: u64 [s1 + 0x150] = a1\n 12853: u64 [a2 + 0x8] = a1\n 12856: a3 = a0\n 12858: u64 [a2] = a0\n 12860: fallthrough\n      : @386 (gas: 25)\n 12861: u64 [s1 + 0x140] = t2\n 12865: t1 = a3\n 12867: a0 = u64 [s1 + 0xf0]\n 12871: u64 [s1 + 0x138] = a4\n 12875: a0 = a4 <u a0\n 12878: a4 = a0 ^ 0x1\n 12881: u64 [s1 + 0x130] = a5\n 12885: a4 = 0x1 if a5 != 0\n 12888: a5 = s1 + 0x100\n 12892: a0 = u64 [a5 + 0x60]\n 12895: a0 = ra | a0\n 12898: a4 = 0x1 if a0 != 0\n 12901: a1 = u64 [s1 + 0xf8]\n 12905: a0 = u64 [a5 + 0x78]\n 12908: a1 = a1 + a0\n 12911: a3 = u64 [a5 + 0x10]\n 12914: a3 = a3 + t0\n 12917: a2 = u64 [a5]\n 12919: a0 = u64 [a5 + 0x70]\n 12922: a2 = a2 + a0\n 12925: a0 = u64 [a5 + 0x8]\n 12928: t2 = u64 [s1 + 0x168]\n 12932: t2 = t2 + a0\n 12935: a0 = u64 [s1 + 0xe8]\n 12939: jump @444 if a4 != 0\n      : @387 (gas: 9)\n 12943: a0 = u64 [s1 + 0x178]\n 12947: a4 = a1 <u a0\n 12950: a3 = a3 + a4\n 12953: a0 = t0\n 12955: t0 = a3 ^ t0\n 12958: u64 [s1 + 0x120] = a0\n 12962: a5 = a3 <u a0\n 12965: a5 = a4 if t0 == 0\n 12968: t0 = 376, jump @725\n      : @388 [@dyn 188] (gas: 1)\n 12974: jump @390 if a0 == 0\n      : @389 (gas: 1)\n 12977: jump @549\n      : @390 (gas: 4)\n 12980: a0 = s1 + 0x7ff\n 12984: a0 = a0 + 0x141\n 12988: u64 [s1 + 0x118] = ra\n 12992: ra = 378, jump @17\n      : @391 [@dyn 189] (gas: 15)\n 12998: a3 = s1 + 0x7ff\n 13002: a3 = a3 + 0xd9\n 13006: a0 = u64 [a3 + 0x80]\n 13010: a1 = u64 [a3 + 0x78]\n 13013: a2 = u64 [a3 + 0x70]\n 13016: a3 = u64 [a3 + 0x68]\n 13019: a4 = s1 + 0x10d8\n 13023: a5 = a4 + 0x700\n 13027: u64 [a5 + 0x40] = a0\n 13030: u64 [a5 + 0x38] = a1\n 13033: u64 [a5 + 0x30] = a2\n 13036: u64 [a5 + 0x28] = a3\n 13039: a1 = s1 + 0x1800\n 13043: a0 = u64 [s1 + 0x158]\n 13047: ra = 380, jump @23\n      : @392 [@dyn 190] (gas: 44)\n 13053: t2 = u64 [s1 + 0x128]\n 13057: t2 = t2 + 0x1\n 13060: a0 = t2 <u 0x1\n 13063: t0 = u64 [s1 + 0x150]\n 13067: t0 = t0 + a0\n 13070: a0 = t2 | t0\n 13073: a0 = a0 <u 0x1\n 13076: a1 = u64 [s1 + 0x148]\n 13080: t1 = a1 + a0\n 13083: a1 = t1 <u a1\n 13086: a0 = u64 [s1 + 0x140]\n 13090: a0 = a0 + a1\n 13093: a1 = u64 [s1 + 0x178]\n 13097: a2 = a1 + 0x20\n 13100: u64 [s1 + 0x140] = a2\n 13104: a3 = a2 <u a1\n 13107: a1 = u64 [s1 + 0x120]\n 13111: a2 = a1 + a3\n 13114: u64 [s1 + 0x128] = a2\n 13118: a4 = a2 <u a1\n 13121: a4 = a3 if a3 == 0\n 13124: a1 = u64 [s1 + 0x170]\n 13128: ra = a1 + a4\n 13131: a4 = ra <u a1\n 13134: a1 = u64 [s1 + 0x168]\n 13138: a1 = a1 + a4\n 13141: u64 [s1 + 0x168] = a1\n 13145: a1 = u64 [s1 + 0x138]\n 13149: a4 = a1 + 0x20\n 13152: a5 = a4 <u a1\n 13155: a2 = u64 [s1 + 0x130]\n 13159: a1 = a2 + a5\n 13162: a2 = a1 <u a2\n 13165: a2 = a5 if a5 == 0\n 13168: a3 = u64 [s1 + 0x118]\n 13172: a2 = a2 + a3\n 13175: a5 = a2 <u a3\n 13178: a3 = u64 [s1 + 0x160]\n 13182: a3 = a3 + a5\n 13185: u64 [s1 + 0x160] = a3\n 13189: u64 [s1 + 0x150] = t0\n 13193: a5 = u64 [s1 + 0x158]\n 13197: u64 [a5 + 0x8] = t0\n 13200: t0 = 382, jump @736\n      : @393 [@dyn 191] (gas: 5)\n 13206: t0 = u64 [s1 + 0x128]\n 13210: u64 [s1 + 0x170] = ra\n 13214: a5 = a1\n 13216: ra = a2\n 13218: jump @386\n      : @394 (gas: 12)\n 13221: a4 = u64 [s1 + 0x108]\n 13225: a5 = u64 [s1 + 0x100]\n 13229: a4 = a4 ^ a5\n 13232: ra = u64 [s1 + 0xe8]\n 13236: a4 = a4 | ra\n 13239: u64 [s1 + 0x178] = a4\n 13243: a5 = u64 [s1 + 0xf0]\n 13247: a4 = u64 [s1 + 0xa0]\n 13251: a5 = a5 | a4\n 13254: a4 = u64 [s1 + 0x178]\n 13258: a4 = a4 | a5\n 13261: jump @408 if a4 == 0\n      : @395 (gas: 6)\n 13265: a0 = a1 <u a0\n 13268: a4 = t0 + a0\n 13271: t0 = a4 ^ a3\n 13274: a5 = a4 <u a3\n 13277: a5 = a0 if t0 == 0\n 13280: t0 = 384, jump @730\n      : @396 [@dyn 192] (gas: 1)\n 13286: jump @398 if a0 == 0\n      : @397 (gas: 1)\n 13289: jump @549\n      : @398 (gas: 2)\n 13292: a0 = s1 + 0x1360\n 13296: ra = 386, jump @17\n      : @399 [@dyn 193] (gas: 12)\n 13302: a0 = s1 + 0x10d8\n 13306: a2 = a0 + 0x200\n 13310: a1 = u64 [a2 + 0xa0]\n 13314: u64 [s1 + 0x170] = a1\n 13318: a1 = u64 [a2 + 0x98]\n 13322: u64 [s1 + 0x168] = a1\n 13326: a1 = u64 [a2 + 0x90]\n 13330: u64 [s1 + 0x158] = a1\n 13334: a0 = u64 [a2 + 0x88]\n 13338: u64 [s1 + 0x150] = a0\n 13342: a0 = u64 [s1 + 0x100]\n 13346: t0 = 388, jump @721\n      : @400 [@dyn 194] (gas: 1)\n 13352: ra = 390, jump @753\n      : @401 [@dyn 195] (gas: 1)\n 13358: t0 = 392, jump @731\n      : @402 [@dyn 196] (gas: 1)\n 13364: ra = 394, jump @748\n      : @403 [@dyn 197] (gas: 1)\n 13370: t0 = 396, jump @719\n      : @404 [@dyn 198] (gas: 1)\n 13376: ra = 398, jump @748\n      : @405 [@dyn 199] (gas: 17)\n 13382: a4 = u64 [s1 + 0x178]\n 13386: a2 = a4 <u 0x80\n 13390: a3 = u64 [s1 + 0x130]\n 13394: a1 = a3 if a2 != 0\n 13397: a5 = u64 [s1 + 0x138]\n 13401: a3 = u64 [s1 + 0x148]\n 13405: a3 = a3 | a5\n 13408: a3 = a0 if a2 == 0\n 13411: a1 = 0xffffffffffffffff if a4 == 0\n 13414: a3 = 0xffffffffffffffff if a4 == 0\n 13417: a4 = u64 [s1 + 0x140]\n 13421: a4 = 0 if a2 == 0\n 13423: a5 = 0 if a2 == 0\n 13425: a0 = u64 [s1 + 0x150]\n 13429: a0 = a0 & ~a3\n 13432: a2 = u64 [s1 + 0x158]\n 13436: t0 = 400, jump @722\n      : @406 [@dyn 200] (gas: 8)\n 13442: u64 [a4 + 0x200] = a3\n 13446: a3 = a4 + 0x100\n 13450: u64 [a3 + 0xf8] = a2\n 13454: u64 [a3 + 0xf0] = a1\n 13458: u64 [a3 + 0xe8] = a0\n 13462: a1 = s1 + 0x1ac0\n 13466: a0 = u64 [s1 + 0x160]\n 13470: ra = 402, jump @23\n      : @407 [@dyn 201] (gas: 2)\n 13476: ra = u64 [s1 + 0xe8]\n 13480: fallthrough\n      : @408 (gas: 22)\n 13481: a0 = ra >> 0x3f\n 13484: a1 = u64 [s1 + 0xa0]\n 13488: a1 = a1 << 0x1\n 13491: a0 = a0 | a1\n 13494: a3 = u64 [s1 + 0xf0]\n 13498: a1 = a3 >> 0x3f\n 13501: a2 = ra << 0x1\n 13504: a1 = a1 | a2\n 13507: a4 = u64 [s1 + 0x100]\n 13511: a2 = a4 >> 0x3f\n 13514: a3 = a3 << 0x1\n 13517: a2 = a2 | a3\n 13520: a3 = a4 << 0x1\n 13523: a3 = a3 + 0x1\n 13526: a4 = s1 + 0x18d8\n 13530: a5 = a4 + 0x200\n 13534: u64 [a5 + 0x8] = a3\n 13537: u64 [a5 + 0x10] = a2\n 13540: u64 [a5 + 0x18] = a1\n 13543: u64 [a5 + 0x20] = a0\n 13546: a0 = 0x1ae0\n 13550: jump @420\n      : @409 (gas: 7)\n 13553: a0 = u64 [s1 + 0xc8]\n 13557: a0 = a0 | a1\n 13560: a1 = 0xffffffe0\n 13570: a1 = t0 <u a1\n 13573: a1 = 0 if t1 != 0\n 13575: a1 = 0 if a0 != 0\n 13577: jump @411 if a1 != 0\n      : @410 (gas: 1)\n 13580: jump @549\n      : @411 (gas: 3)\n 13583: i32 a1 = t0 + 0x20\n 13586: a0 = s1 + 0x13a0\n 13590: ra = 404, jump @17\n      : @412 [@dyn 202] (gas: 14)\n 13596: a3 = u64 [s1 + 0xa0]\n 13600: a2 = u64 [s1 + 0xe8]\n 13604: a5 = u64 [s1 + 0xf0]\n 13608: a4 = u64 [s1 + 0x100]\n 13612: a0 = s1 + 0x10d8\n 13616: a1 = u64 [a0 + 0x2e0]\n 13620: u64 [s1 + 0x170] = a1\n 13624: a1 = u64 [a0 + 0x2d8]\n 13628: u64 [s1 + 0x168] = a1\n 13632: a1 = u64 [a0 + 0x2d0]\n 13636: u64 [s1 + 0x158] = a1\n 13640: a0 = u64 [a0 + 0x2c8]\n 13644: u64 [s1 + 0x160] = a0\n 13648: fallthrough\n      : @413 (gas: 16)\n 13649: a0 = a5 >> 0x3f\n 13652: a1 = a2 << 0x1\n 13655: a0 = a0 | a1\n 13658: u64 [s1 + 0x150] = a0\n 13662: a0 = a2 >> 0x3f\n 13665: a1 = a3 << 0x1\n 13668: a0 = a0 | a1\n 13671: u64 [s1 + 0x148] = a0\n 13675: a0 = a4 >> 0x3f\n 13678: a1 = a5 << 0x1\n 13681: a0 = a0 | a1\n 13684: u64 [s1 + 0x140] = a0\n 13688: a0 = a4 << 0x1\n 13691: u64 [s1 + 0x138] = a0\n 13695: a1 = a4 << 0x3\n 13698: t0 = 406, jump @738\n      : @414 [@dyn 203] (gas: 1)\n 13704: ra = 408, jump @753\n      : @415 [@dyn 204] (gas: 7)\n 13710: u64 [s1 + 0x118] = a0\n 13714: u64 [s1 + 0x130] = a1\n 13718: a0 = u64 [s1 + 0x100]\n 13722: i32 a2 = a0 << 0x3\n 13725: a0 = 0xffffffffffffffff\n 13728: a1 = 0xffffffffffffffff\n 13731: ra = 410, jump @748\n      : @416 [@dyn 205] (gas: 1)\n 13737: t0 = 412, jump @733\n      : @417 [@dyn 206] (gas: 1)\n 13743: ra = 414, jump @748\n      : @418 [@dyn 207] (gas: 1)\n 13749: t0 = 416, jump @714\n      : @419 [@dyn 208] (gas: 7)\n 13755: a5 = a4 + 0x200\n 13759: u64 [a5 + 0x38] = a2\n 13762: u64 [a5 + 0x40] = a3\n 13765: u64 [a5 + 0x30] = a1\n 13768: u64 [a5 + 0x28] = a0\n 13771: a0 = 0x1b00\n 13775: fallthrough\n      : @420 (gas: 3)\n 13776: a1 = s1 + a0\n 13779: a0 = u64 [s1 + 0xf8]\n 13783: ra = 418, jump @23\n      : @421 [@dyn 209] (gas: 3)\n 13789: a0 = s1 + 0x1340\n 13793: a1 = 0x40\n 13796: ra = 420, jump @17\n      : @422 [@dyn 210] (gas: 14)\n 13802: a2 = s1 + 0x10d8\n 13806: t0 = u64 [a2 + 0x280]\n 13810: a1 = a2 + 0x200\n 13814: a5 = u64 [a1 + 0x78]\n 13817: a4 = u64 [a1 + 0x70]\n 13820: a0 = u64 [a1 + 0x68]\n 13823: a3 = a4 | t0\n 13826: a1 = a0 | a5\n 13829: a1 = a1 | a3\n 13832: a1 = a1 >> 0x20\n 13835: a3 = a3 | a5\n 13838: a3 = a3 << 0x20\n 13841: a1 = a1 | a3\n 13844: jump @424 if a1 == 0\n      : @423 (gas: 1)\n 13847: jump @549\n      : @424 (gas: 10)\n 13850: u64 [a2 + 608] = 0\n 13854: u64 [a2 + 600] = 0\n 13858: u64 [a2 + 592] = 0\n 13862: a1 = s1 + 0x1320\n 13866: u64 [a2 + 584] = 0x20\n 13871: u64 [s1 + 0x178] = a0\n 13875: u64 [s1 + 0x170] = a4\n 13879: u64 [s1 + 0x168] = t0\n 13883: u64 [s1 + 0x160] = a5\n 13887: ra = 422, jump @19\n      : @425 [@dyn 211] (gas: 3)\n 13893: a0 = s1 + 0x1300\n 13897: a1 = u64 [s1 + 0x98]\n 13901: ra = 424, jump @21\n      : @426 [@dyn 212] (gas: 12)\n 13907: a4 = s1 + 0x100\n 13911: a5 = u64 [a4 + 0x78]\n 13914: a0 = u64 [a4 + 0x68]\n 13917: a1 = u64 [a4 + 0x60]\n 13920: a2 = a1 | a0\n 13923: a3 = 0x100000000\n 13933: a0 = 0xffffffe0\n 13943: a0 = a5 <u a0\n 13946: a1 = u64 [a4 + 0x70]\n 13949: a0 = 0 if a1 != 0\n 13951: a0 = 0 if a2 != 0\n 13953: jump @428 if a0 != 0\n      : @427 (gas: 1)\n 13956: jump @549\n      : @428 (gas: 20)\n 13959: t0 = 0xffffffffffffffff\n 13962: a1 = s1 + 0x10d8\n 13966: u64 [s1 + 0x158] = a2\n 13970: a2 = a1\n 13972: a1 = u64 [a1 + 0x238]\n 13976: a0 = u64 [a2 + 0x230]\n 13980: u64 [s1 + 0x150] = a3\n 13984: a3 = u64 [a2 + 0x228]\n 13988: a4 = 0xffffffff\n 13998: a4 = a4 & a1\n 14001: a1 = a0 & t0\n 14004: a3 = a3 & t0\n 14007: i32 a0 = a5 + 0x20\n 14010: u64 [a2 + 544] = 0\n 14014: a5 = a2 + 0x200\n 14018: u64 [a5 + 0x8] = a3\n 14021: u64 [a5 + 0x10] = a1\n 14024: a1 = s1 + 0x12e0\n 14028: u64 [a5 + 0x18] = a4\n 14031: ra = 426, jump @19\n      : @429 [@dyn 213] (gas: 10)\n 14037: a3 = s1 + 0x100\n 14041: a1 = u64 [a3 + 0x78]\n 14044: a0 = u64 [a3 + 0x50]\n 14047: a0 = a0 + 0xffffffffffffffc0\n 14050: a0 = a1 <u a0\n 14053: a2 = u64 [a3 + 0x70]\n 14056: a0 = 0 if a2 != 0\n 14058: a2 = u64 [a3 + 0x58]\n 14061: a0 = 0 if a2 != 0\n 14063: jump @431 if a0 != 0\n      : @430 (gas: 1)\n 14066: jump @549\n      : @431 (gas: 8)\n 14069: i32 a0 = a1 + 0x40\n 14072: a3 = s1 + 0x10d8\n 14076: u64 [a3 + 512] = 0\n 14080: u64 [a3 + 504] = 0\n 14084: u64 [a3 + 488] = 0x60\n 14089: a1 = s1 + 0x12c0\n 14093: u64 [a3 + 496] = 0\n 14097: ra = 428, jump @19\n      : @432 [@dyn 214] (gas: 33)\n 14103: a0 = u64 [s1 + 0x178]\n 14107: a0 = a0 + 0x80\n 14111: a1 = u64 [s1 + 0x178]\n 14115: a1 = a0 <u a1\n 14118: a2 = u64 [s1 + 0x170]\n 14122: a2 = a2 + a1\n 14125: a3 = u64 [s1 + 0x170]\n 14129: a3 = a2 <u a3\n 14132: a3 = a1 if a1 == 0\n 14135: a1 = u64 [s1 + 0x160]\n 14139: a3 = a3 + a1\n 14142: a1 = a3 <u a1\n 14145: a4 = u64 [s1 + 0x168]\n 14149: a4 = a4 + a1\n 14152: a1 = s1 + 0x10d8\n 14156: a5 = a1 + 0x100\n 14160: u64 [a5 + 0x90] = a2\n 14164: u64 [a5 + 0x88] = a0\n 14168: a0 = u64 [s1 + 0x58]\n 14171: u64 [a5 + 0xc0] = a0\n 14175: a0 = u64 [s1 + 0x60]\n 14178: u64 [a5 + 0xb8] = a0\n 14182: a0 = u64 [s1 + 0x68]\n 14185: u64 [a5 + 0xb0] = a0\n 14189: a0 = u64 [s1 + 0x70]\n 14192: u64 [a5 + 0xa8] = a0\n 14196: u64 [a5 + 0x98] = a3\n 14200: a3 = a1\n 14202: a0 = s1 + 0x12a0\n 14206: a1 = s1 + 0x1280\n 14210: a2 = s1 + 0x1260\n 14214: u64 [a3 + 0x1a0] = a4\n 14218: ra = 430, jump @591\n      : @433 [@dyn 215] (gas: 8)\n 14224: a4 = u64 [s1 + 0x170]\n 14228: t1 = u64 [s1 + 0x178]\n 14232: a0 = 0xffffffa0\n 14242: a0 = t1 <u a0\n 14245: a0 = 0 if a4 != 0\n 14247: a1 = u64 [s1 + 0x158]\n 14251: a0 = 0 if a1 != 0\n 14253: jump @435 if a0 != 0\n      : @434 (gas: 1)\n 14256: jump @549\n      : @435 (gas: 49)\n 14259: a1 = s1 + 0x10d8\n 14263: a5 = a1 + 0x100\n 14267: a0 = u64 [a5 + 0xc8]\n 14271: a3 = u64 [a5 + 0xd0]\n 14275: a2 = u64 [a5 + 0xe0]\n 14279: u64 [s1 + 0x158] = a2\n 14283: ra = u64 [a1 + 0x1d8]\n 14287: u64 [s1 + 0x140] = ra\n 14291: a1 = a0 <u t1\n 14294: a5 = a0\n 14296: u64 [s1 + 0x148] = a0\n 14300: a2 = a3 ^ a4\n 14303: a0 = a3 <u a4\n 14306: u64 [s1 + 0x150] = a3\n 14310: a0 = a1 if a2 == 0\n 14313: a2 = a3 - a4\n 14316: a3 = a2 - a1\n 14319: a2 = a5 - t1\n 14322: t0 = a2 + 0xffffffffffffffe0\n 14325: a4 = t0 <u a2\n 14328: a2 = a3 + a4\n 14331: a2 = a2 + 0xffffffffffffffff\n 14334: a5 = a2 ^ a3\n 14337: a3 = a2 <u a3\n 14340: a3 = a4 if a5 == 0\n 14343: a1 = u64 [s1 + 0x160]\n 14347: t2 = ra <u a1\n 14350: a4 = u64 [s1 + 0x168]\n 14354: a5 = u64 [s1 + 0x158]\n 14358: a5 = a5 - a4\n 14361: a5 = a5 - t2\n 14364: a4 = ra - a1\n 14367: a1 = a4 <u a0\n 14370: a5 = a5 - a1\n 14373: a4 = a4 - a0\n 14376: a0 = a4 <u 0x1\n 14379: a5 = a5 - a0\n 14382: a4 = a4 + 0xffffffffffffffff\n 14385: a3 = a3 + a4\n 14388: a0 = a3 <u a4\n 14391: a5 = a5 + a0\n 14394: i32 a0 = t1 + 0x60\n 14397: a4 = s1 + 0x10d8\n 14401: u64 [a4 + 0x168] = t0\n 14405: u64 [a4 + 0x170] = a2\n 14409: u64 [a4 + 0x178] = a3\n 14413: a1 = s1 + 0x1240\n 14417: u64 [a4 + 0x180] = a5\n 14421: ra = 432, jump @19\n      : @436 [@dyn 216] (gas: 32)\n 14427: a0 = u64 [s1 + 0xa8]\n 14431: ecalli 3 // 'caller'\n 14433: a0 = u64 [s1 + 0xc0]\n 14437: a1 = u32 [a0 + 0x10]\n 14440: u64 [s1 + 0x130] = a1\n 14444: a1 = u64 [a0 + 0x8]\n 14447: u64 [s1 + 0x128] = a1\n 14451: a0 = u64 [a0]\n 14453: u64 [s1 + 0x138] = a0\n 14457: a1 = s1 + 0x10d8\n 14461: a0 = u64 [s1 + 0x158]\n 14465: a2 = a1 + 0x100\n 14469: u64 [a2 + 0x20] = a0\n 14472: a0 = u64 [s1 + 0x140]\n 14476: u64 [a2 + 0x18] = a0\n 14479: a0 = u64 [s1 + 0x150]\n 14483: u64 [a2 + 0x10] = a0\n 14486: a0 = u64 [s1 + 0x148]\n 14490: u64 [a2 + 0x8] = a0\n 14493: a0 = u64 [s1 + 0x78]\n 14496: u64 [a2 + 0x40] = a0\n 14499: a0 = u64 [s1 + 0x80]\n 14503: u64 [a2 + 0x38] = a0\n 14506: a0 = u64 [s1 + 0x88]\n 14510: u64 [a2 + 0x30] = a0\n 14513: a4 = a1\n 14515: a0 = s1 + 0x1220\n 14519: a1 = s1 + 0x1200\n 14523: a2 = s1 + 0x11e0\n 14527: a3 = u64 [s1 + 0x90]\n 14531: u64 [a4 + 0x128] = a3\n 14535: ra = 434, jump @591\n      : @437 [@dyn 217] (gas: 34)\n 14541: a1 = s1 + 0x10d8\n 14545: a0 = u64 [a1 + 0x150]\n 14549: t0 = u64 [a1 + 0x160]\n 14553: t1 = u64 [a1 + 0x148]\n 14557: a3 = u64 [a1 + 0x158]\n 14561: a1 = u64 [s1 + 0x170]\n 14565: a4 = a0 ^ a1\n 14568: a5 = a0 <u a1\n 14571: t2 = a1\n 14573: a1 = u64 [s1 + 0x178]\n 14577: a1 = t1 <u a1\n 14580: a5 = a1 if a4 == 0\n 14583: a2 = u64 [s1 + 0x160]\n 14587: a4 = a3 - a2\n 14590: a3 = a3 <u a2\n 14593: a2 = u64 [s1 + 0x168]\n 14597: a2 = t0 - a2\n 14600: a2 = a2 - a3\n 14603: a3 = a4 <u a5\n 14606: a2 = a2 - a3\n 14609: a4 = a4 - a5\n 14612: a0 = a0 - t2\n 14615: a3 = a0 - a1\n 14618: a0 = u64 [s1 + 0x178]\n 14622: a1 = t1 - a0\n 14625: a0 = u64 [s1 + 0x178]\n 14629: a3 = a3 | a2\n 14632: a2 = a1 | a4\n 14635: a2 = a2 | a3\n 14638: a3 = a3 | a4\n 14641: a2 = a2 >> 0x20\n 14644: a3 = a3 << 0x20\n 14647: a2 = a2 | a3\n 14650: jump @439 if a2 == 0\n      : @438 (gas: 1)\n 14653: jump @549\n      : @439 (gas: 31)\n 14656: a5 = s1 + 0x100\n 14660: a2 = u64 [a5 + 0x28]\n 14663: a2 = reverse a2\n 14665: a4 = a2 << 0x20\n 14668: a3 = u64 [a5 + 0x30]\n 14671: a3 = reverse a3\n 14673: a3 = a3 >> 0x20\n 14676: t0 = a3 | a4\n 14679: a3 = u64 [a5 + 0x38]\n 14682: a3 = reverse a3\n 14684: a4 = a3 << 0x20\n 14687: a2 = a2 >> 0x20\n 14690: t1 = a4 | a2\n 14693: a3 = a3 >> 0x20\n 14696: a4 = u64 [0x20000]\n 14701: t2 = s1 + 0x10d8\n 14705: u64 [t2 + 0x100] = a4\n 14709: a4 = u64 [0x20008]\n 14714: a5 = u64 [0x20010]\n 14719: a2 = u64 [0x20018]\n 14724: u64 [t2 + 0xf8] = a4\n 14728: a4 = t2\n 14730: u64 [a4 + 0xf0] = a5\n 14734: u64 [t2 + 224] = 0\n 14738: u64 [a4 + 0xe8] = a2\n 14742: u64 [a4 + 0xd8] = a3\n 14746: u64 [t2 + 0xd0] = t1\n 14750: a2 = s1 + 0x11c0\n 14754: a3 = s1 + 0x11a0\n 14758: u64 [t2 + 0xc8] = t0\n 14762: ra = 436, jump @24\n      : @440 [@dyn 218] (gas: 6)\n 14768: a0 = 0\n 14770: a1 = u64 [s1 + 0xb8]\n 14774: a2 = 0\n 14776: ecalli 7 // 'seal_return'\n 14778: a1 = 0x20070\n 14783: jump @551\n      : @441 (gas: 4)\n 14786: a0 = a1 | a2\n 14789: a0 = a0 | t0\n 14792: a2 = u64 [s1 + 0xf8]\n 14796: jump @459 if a0 != 0\n      : @442 (gas: 1)\n 14800: t0 = 438, jump @727\n      : @443 [@dyn 219] (gas: 6)\n 14806: t1 = u64 [s1 + 0x40]\n 14809: t0 = u64 [s1 + 0x38]\n 14812: a4 = u64 [s1 + 0x58]\n 14815: t2 = u64 [s1 + 0x48]\n 14818: a5 = u64 [s1 + 0x50]\n 14821: jump @463\n      : @444 (gas: 11)\n 14824: ra = t0\n 14826: a4 = u64 [s1 + 0x78]\n 14829: a5 = u64 [s1 + 0xf0]\n 14833: a4 = a4 ^ a5\n 14836: a5 = u64 [s1 + 0x68]\n 14839: a4 = a4 | a5\n 14842: a4 = a4 | a0\n 14845: t1 = u64 [s1 + 0x58]\n 14848: t0 = u64 [s1 + 0x50]\n 14851: a5 = u64 [s1 + 0x48]\n 14854: jump @458 if a4 == 0\n      : @445 (gas: 7)\n 14858: a0 = u64 [s1 + 0x178]\n 14862: a4 = a1 <u a0\n 14865: a3 = a3 + a4\n 14868: t0 = a3 ^ ra\n 14871: a5 = a3 <u ra\n 14874: a5 = a4 if t0 == 0\n 14877: t0 = 440, jump @726\n      : @446 [@dyn 220] (gas: 1)\n 14883: jump @448 if a0 == 0\n      : @447 (gas: 1)\n 14886: jump @549\n      : @448 (gas: 3)\n 14889: a0 = s1 + 0x7ff\n 14893: a0 = a0 + 0x4c1\n 14897: ra = 442, jump @17\n      : @449 [@dyn 221] (gas: 13)\n 14903: a0 = s1 + 0x7ff\n 14907: a0 = a0 + 0xd9\n 14911: a1 = u64 [a0 + 0x400]\n 14915: u64 [s1 + 0x170] = a1\n 14919: a2 = a0 + 0x300\n 14923: a1 = u64 [a2 + 0xf8]\n 14927: u64 [s1 + 0x168] = a1\n 14931: a1 = u64 [a2 + 0xf0]\n 14935: u64 [s1 + 0x160] = a1\n 14939: a0 = u64 [a2 + 0xe8]\n 14943: u64 [s1 + 0x150] = a0\n 14947: a0 = u64 [s1 + 0x78]\n 14950: t0 = 444, jump @721\n      : @450 [@dyn 222] (gas: 1)\n 14956: ra = 446, jump @753\n      : @451 [@dyn 223] (gas: 1)\n 14962: t0 = 448, jump @731\n      : @452 [@dyn 224] (gas: 1)\n 14968: ra = 450, jump @748\n      : @453 [@dyn 225] (gas: 1)\n 14974: t0 = 452, jump @719\n      : @454 [@dyn 226] (gas: 1)\n 14980: ra = 454, jump @748\n      : @455 [@dyn 227] (gas: 1)\n 14986: t0 = 456, jump @716\n      : @456 [@dyn 228] (gas: 9)\n 14992: a4 = s1 + 0x10d8\n 14996: a5 = a4 + 0x700\n 15000: u64 [a5 + 0x60] = a3\n 15003: u64 [a5 + 0x58] = a2\n 15006: u64 [a5 + 0x50] = a1\n 15009: u64 [a5 + 0x48] = a0\n 15012: a1 = s1 + 0x1820\n 15016: a0 = u64 [s1 + 0x158]\n 15020: ra = 458, jump @23\n      : @457 [@dyn 229] (gas: 4)\n 15026: a5 = u64 [s1 + 0x48]\n 15029: t0 = u64 [s1 + 0x50]\n 15032: t1 = u64 [s1 + 0x58]\n 15035: fallthrough\n      : @458 (gas: 16)\n 15036: a0 = u64 [s1 + 0x40]\n 15039: a1 = u64 [s1 + 0x38]\n 15042: a0 = a0 | a1\n 15045: a1 = a5 | t1\n 15048: a2 = u64 [s1 + 0x30]\n 15051: a2 = t0 | a2\n 15054: a3 = u64 [s1 + 0x28]\n 15057: a3 = a3 + 0x1\n 15060: a4 = s1 + 0x10d8\n 15064: a5 = a4 + 0x700\n 15068: u64 [a5 + 0x68] = a3\n 15071: u64 [a5 + 0x70] = a2\n 15074: u64 [a5 + 0x78] = a1\n 15077: u64 [a5 + 0x80] = a0\n 15081: a0 = 0x1840\n 15085: jump @469\n      : @459 (gas: 10)\n 15088: a4 = s1 + 0x100\n 15092: a0 = u64 [a4 + 0x8]\n 15095: a1 = u64 [a4]\n 15097: a0 = a0 | a1\n 15100: a1 = 0xffffffe0\n 15110: a1 = a2 <u a1\n 15113: a3 = u64 [a4 + 0x10]\n 15116: a1 = 0 if a3 != 0\n 15118: a1 = 0 if a0 != 0\n 15120: jump @461 if a1 != 0\n      : @460 (gas: 1)\n 15123: jump @549\n      : @461 (gas: 4)\n 15126: i32 a1 = a2 + 0x20\n 15129: a0 = s1 + 0x7ff\n 15133: a0 = a0 + 0x501\n 15137: ra = 460, jump @17\n      : @462 [@dyn 230] (gas: 18)\n 15143: t2 = u64 [s1 + 0x48]\n 15146: a5 = u64 [s1 + 0x50]\n 15149: a4 = u64 [s1 + 0x58]\n 15152: t0 = u64 [s1 + 0x38]\n 15155: t1 = u64 [s1 + 0x40]\n 15158: a1 = u64 [s1 + 0x78]\n 15161: a0 = s1 + 0x7ff\n 15165: a0 = a0 + 0xd9\n 15169: a3 = a0 + 0x400\n 15173: a2 = u64 [a3 + 0x40]\n 15176: u64 [s1 + 0x170] = a2\n 15180: a2 = u64 [a3 + 0x38]\n 15183: u64 [s1 + 0x168] = a2\n 15187: a2 = u64 [a3 + 0x30]\n 15190: u64 [s1 + 0x158] = a2\n 15194: a0 = u64 [a3 + 0x28]\n 15197: u64 [s1 + 0x160] = a0\n 15201: fallthrough\n      : @463 (gas: 13)\n 15202: a3 = u64 [s1 + 0x30]\n 15205: a0 = t2 | a4\n 15208: u64 [s1 + 0x150] = a0\n 15212: a0 = t0 | t1\n 15215: u64 [s1 + 0x148] = a0\n 15219: a3 = a3 | a5\n 15222: u64 [s1 + 0x140] = a3\n 15226: a2 = a1 << 0x3\n 15229: u64 [s1 + 0x178] = a2\n 15233: i32 a2 = 0x80 - a2\n 15237: a0 = 0xffffffffffffffff\n 15240: a1 = 0xffffffffffffffff\n 15243: ra = 462, jump @753\n      : @464 [@dyn 231] (gas: 7)\n 15249: u64 [s1 + 0x120] = a0\n 15253: u64 [s1 + 0x138] = a1\n 15257: a0 = u64 [s1 + 0x78]\n 15260: i32 a2 = a0 << 0x3\n 15263: a0 = 0xffffffffffffffff\n 15266: a1 = 0xffffffffffffffff\n 15269: ra = 464, jump @748\n      : @465 [@dyn 232] (gas: 1)\n 15275: t0 = 466, jump @732\n      : @466 [@dyn 233] (gas: 1)\n 15281: ra = 468, jump @748\n      : @467 [@dyn 234] (gas: 1)\n 15287: t0 = 470, jump @717\n      : @468 [@dyn 235] (gas: 17)\n 15293: a4 = u64 [s1 + 0x28]\n 15296: a0 = a0 | a4\n 15299: a5 = s1 + 0x100\n 15303: a4 = u64 [a5 + 0x40]\n 15306: a1 = a1 | a4\n 15309: a4 = u64 [a5 + 0x48]\n 15312: a3 = a3 | a4\n 15315: a4 = u64 [a5 + 0x50]\n 15318: a2 = a2 | a4\n 15321: a4 = s1 + 0x10d8\n 15325: a5 = a4 + 0x700\n 15329: u64 [a5 + 0x98] = a2\n 15333: u64 [a5 + 0xa0] = a3\n 15337: u64 [a5 + 0x90] = a1\n 15341: u64 [a5 + 0x88] = a0\n 15345: a0 = 0x1860\n 15349: fallthrough\n      : @469 (gas: 3)\n 15350: a1 = s1 + a0\n 15353: a0 = u64 [s1 + 0x70]\n 15356: ra = 472, jump @23\n      : @470 [@dyn 236] (gas: 28)\n 15362: a0 = sp + 0xffffffffffffffe0\n 15365: a2 = a0 & 0xffffffffffffffe0\n 15368: sp = a2\n 15370: a0 = u64 [s1 + 0x88]\n 15374: a3 = a0 + 0x2\n 15377: a0 = a3 <u a0\n 15380: a1 = u64 [s1 + 0x90]\n 15384: a4 = a1 + a0\n 15387: a1 = a4 <u a1\n 15390: a1 = a0 if a0 == 0\n 15393: a0 = u64 [s1 + 0xa0]\n 15397: a5 = a0 + a1\n 15400: a0 = a5 <u a0\n 15403: a1 = u64 [s1 + 0x98]\n 15407: a0 = a0 + a1\n 15410: u64 [s1 + 0x118] = a5\n 15414: u64 [a2 + 0x10] = a5\n 15417: u64 [s1 + 0x128] = a4\n 15421: u64 [a2 + 0x8] = a4\n 15424: u64 [s1 + 0x130] = a3\n 15428: u64 [a2] = a3\n 15430: u64 [s1 + 0xa0] = a2\n 15434: u64 [s1 + 0x120] = a0\n 15438: u64 [a2 + 0x18] = a0\n 15441: a0 = s1 + 0x7ff\n 15445: a0 = a0 + 0x4a1\n 15449: a1 = u64 [s1 + 0x60]\n 15452: ra = 474, jump @17\n      : @471 [@dyn 237] (gas: 8)\n 15458: a0 = s1 + 0x7ff\n 15462: a0 = a0 + 0xd9\n 15466: a5 = a0 + 0x300\n 15470: a3 = u64 [a5 + 0xe0]\n 15474: a4 = u64 [a5 + 0xd8]\n 15478: a2 = u64 [a5 + 0xd0]\n 15482: a1 = u64 [a5 + 0xc8]\n 15486: t0 = 476, jump @734\n      : @472 [@dyn 238] (gas: 1)\n 15492: jump @549 if a0 != 0\n      : @473 (gas: 4)\n 15496: a0 = s1 + 0x7ff\n 15500: a0 = a0 + 0x481\n 15504: u64 [s1 + 0xf8] = a1\n 15508: ra = 478, jump @17\n      : @474 [@dyn 239] (gas: 19)\n 15514: a2 = s1 + 0x7ff\n 15518: a2 = a2 + 0xd9\n 15522: a0 = a2 + 0x300\n 15526: a4 = u64 [a0 + 0xc0]\n 15530: a3 = u64 [a0 + 0xb8]\n 15534: a1 = u64 [a0 + 0xb0]\n 15538: a0 = a4 >u 0\n 15540: a5 = a3 >u 0\n 15542: a5 = a0 if a4 != 0\n 15545: u64 [s1 + 0x90] = a1\n 15549: a0 = a1 >u 0\n 15551: u64 [s1 + 0x98] = a3\n 15555: u64 [s1 + 0x88] = a4\n 15559: a3 = a3 | a4\n 15562: u64 [s1 + 0x68] = a0\n 15565: u64 [s1 + 0x70] = a5\n 15568: u64 [s1 + 0xf0] = a3\n 15572: a0 = a5 if a3 != 0\n 15575: jump @476 if a0 == 0\n      : @475 (gas: 1)\n 15578: jump @573\n      : @476 (gas: 6)\n 15581: a0 = u64 [a2 + 0x3a8]\n 15585: u64 [s1 + 0xe8] = a0\n 15589: a0 = s1 + 0x7ff\n 15593: a0 = a0 + 0x461\n 15597: a1 = u64 [s1 + 0xa0]\n 15601: ra = 480, jump @21\n      : @477 [@dyn 240] (gas: 16)\n 15607: a4 = s1 + 0x7ff\n 15611: a4 = a4 + 0xd9\n 15615: a5 = a4 + 0x300\n 15619: a2 = u64 [a5 + 0x88]\n 15623: a0 = u64 [a5 + 0x90]\n 15627: a1 = u64 [a5 + 0x98]\n 15631: a3 = u64 [a5 + 0xa0]\n 15635: u64 [a5 + 0x60] = a3\n 15638: u64 [a5 + 0x58] = a1\n 15641: u64 [a5 + 0x50] = a0\n 15644: a0 = s1 + 0x7ff\n 15648: a0 = a0 + 0x441\n 15652: a1 = s1 + 0x7ff\n 15656: a1 = a1 + 0x421\n 15660: u64 [a5 + 0x48] = a2\n 15663: ra = 482, jump @582\n      : @478 [@dyn 241] (gas: 20)\n 15669: a0 = s1 + 0x7ff\n 15673: a0 = a0 + 0xd9\n 15677: a1 = a0 + 0x300\n 15681: a3 = u64 [a1 + 0x80]\n 15685: a4 = u64 [a1 + 0x78]\n 15688: a5 = u64 [a1 + 0x70]\n 15691: t0 = u64 [a0 + 0x368]\n 15695: a0 = a3 >u 0\n 15697: a1 = a4 >u 0\n 15699: a1 = a0 if a3 != 0\n 15702: a0 = a5 >u 0\n 15704: a2 = t0 <u 0x20\n 15707: a2 = a2 ^ 0x1\n 15710: a2 = a0 if a5 != 0\n 15713: a0 = a4 | a3\n 15716: a2 = a1 if a0 != 0\n 15719: a0 = u64 [s1 + 0xe8]\n 15723: a0 = a0 <u 0x20\n 15726: u64 [s1 + 0x78] = a0\n 15729: jump @494 if a2 == 0\n      : @479 (gas: 2)\n 15733: u64 [s1 + 0x150] = t0\n 15737: t0 = 484, jump @742\n      : @480 [@dyn 242] (gas: 12)\n 15743: a3 = a0 + 0x300\n 15747: u64 [a3 + 0x28] = a1\n 15750: a1 = u64 [a5 + 0x28]\n 15753: u64 [a3 + 0x30] = a1\n 15756: a1 = u64 [a5 + 0x18]\n 15759: u64 [a3 + 0x38] = a1\n 15762: a1 = s1 + 0x7ff\n 15766: a1 = a1 + 0x401\n 15770: a2 = u64 [a5 + 0x20]\n 15773: u64 [a3 + 0x40] = a2\n 15776: a0 = 0\n 15778: ra = 486, jump @19\n      : @481 [@dyn 243] (gas: 3)\n 15784: a2 = u64 [s1 + 0xb8]\n 15788: a0 = i32 [a2]\n 15790: jump @483 if a0 >u 31\n      : @482 (gas: 3)\n 15794: u32 [a2 + 0] = 0x20\n 15797: t0 = 0x1e8\n 15801: jump @743\n      : @483 (gas: 1)\n 15804: t0 = 488, jump @743\n      : @484 [@dyn 244] (gas: 3)\n 15810: ra = 0x1ea\n 15814: ecalli 6 // 'hash_keccak_256'\n 15816: fallthrough\n      : @485 [@dyn 245] (gas: 9)\n 15817: a0 = u64 [s1 + 0xe8]\n 15821: a1 = a0 + 0x1f\n 15824: a0 = a1 <u a0\n 15827: a5 = u64 [s1 + 0x90]\n 15831: a2 = a5 + a0\n 15834: a3 = a2 <u a5\n 15837: a3 = a0 if a0 == 0\n 15840: a4 = u64 [s1 + 0x98]\n 15844: t0 = 492, jump @715\n      : @486 [@dyn 246] (gas: 4)\n 15850: a1 = u64 [s1 + 0x78]\n 15853: a1 = 0 if a5 != 0\n 15855: a3 = u64 [s1 + 0xf0]\n 15859: t0 = 494, jump @747\n      : @487 [@dyn 247] (gas: 29)\n 15865: t0 = t2 + a0\n 15868: a0 = t0 <u t2\n 15871: a5 = a2 + a0\n 15874: a4 = a4 + a5\n 15877: u64 [s1 + 0x178] = a4\n 15881: a5 = a4 ^ a2\n 15884: a3 = a4 <u a2\n 15887: a3 = a0 if a5 == 0\n 15890: u64 [s1 + 0x140] = a3\n 15894: a0 = u64 [s1 + 0x150]\n 15898: ra = a0 + 0x1f\n 15901: a4 = ra <u a0\n 15904: a3 = u64 [s1 + 0x158]\n 15908: a0 = a3 + a4\n 15911: a5 = a0 <u a3\n 15914: a5 = a4 if a4 == 0\n 15917: t1 = u64 [s1 + 0x170]\n 15921: t1 = t1 + a5\n 15924: a4 = t1 << 0x3b\n 15927: a3 = a0 >> 0x5\n 15930: a3 = a3 | a4\n 15933: a0 = a0 << 0x3b\n 15936: a4 = ra >> 0x5\n 15939: a0 = a0 | a4\n 15942: a0 = a0 + t2\n 15945: u64 [s1 + 0x158] = a0\n 15949: a0 = a0 <u t2\n 15952: t2 = t0\n 15954: t0 = 496, jump @720\n      : @488 [@dyn 248] (gas: 4)\n 15960: a0 = u64 [s1 + 0x98]\n 15964: a0 = a4 <u a0\n 15967: a3 = u64 [s1 + 0x88]\n 15971: t0 = 498, jump @728\n      : @489 [@dyn 249] (gas: 8)\n 15977: t0 = u64 [a4]\n 15979: a4 = u64 [a4 + 0x8]\n 15982: a0 = a0 >> 0x5\n 15985: a3 = 0 if a1 != 0\n 15987: a0 = 0 if a1 != 0\n 15989: a1 = reverse a4\n 15991: a4 = reverse t0\n 15993: t0 = 500, jump @724\n      : @490 [@dyn 250] (gas: 25)\n 15999: t0 = a0 + a3\n 16002: a0 = u64 [s1 + 0x170]\n 16006: a0 = t1 <u a0\n 16009: a3 = u64 [s1 + 0x160]\n 16013: a0 = a0 + a3\n 16016: a3 = t1 >> 0x5\n 16019: a5 = a0 << 0x3b\n 16022: a3 = a3 | a5\n 16025: a0 = a0 >> 0x5\n 16028: a0 = a0 + a4\n 16031: a5 = s1 + 0x100\n 16035: a4 = u64 [a5 + 0x78]\n 16038: a3 = a3 + a1\n 16041: a1 = a3 <u a1\n 16044: a0 = a0 + a1\n 16047: a2 = a2 + a3\n 16050: u64 [a5 + 0x48] = a2\n 16053: a1 = a2 <u a3\n 16056: a0 = a0 + a1\n 16059: u64 [a5 + 0x40] = a0\n 16062: a0 = sp + 0xffffffffffffffe0\n 16065: t1 = a0 & 0xffffffffffffffe0\n 16068: sp = t1\n 16070: u64 [s1 + 0x138] = t1\n 16074: fallthrough\n      : @491 (gas: 20)\n 16075: a0 = u64 [s1 + 0x158]\n 16079: a0 = t2 <u a0\n 16082: a2 = u64 [s1 + 0x150]\n 16086: a1 = a4 ^ a2\n 16089: a2 = a4 <u a2\n 16092: a2 = a0 if a1 == 0\n 16095: a5 = u64 [s1 + 0x148]\n 16099: a0 = ra <u a5\n 16102: a3 = u64 [s1 + 0x140]\n 16106: a1 = t0 ^ a3\n 16109: a3 = t0 <u a3\n 16112: a3 = a0 if a1 == 0\n 16115: a0 = ra ^ a5\n 16118: a0 = a0 | a1\n 16121: a3 = a2 if a0 == 0\n 16124: u64 [t1] = t2\n 16126: u64 [t1 + 0x8] = a4\n 16129: u64 [t1 + 0x10] = ra\n 16132: u64 [t1 + 0x18] = t0\n 16135: jump @494 if a3 == 0\n      : @492 (gas: 12)\n 16138: a0 = s1 + 0x10d8\n 16142: u64 [a0 + 1984] = 0\n 16146: u64 [a0 + 1976] = 0\n 16150: u64 [a0 + 1968] = 0\n 16154: u64 [a0 + 1960] = 0\n 16158: a1 = s1 + 0x1880\n 16162: a0 = t1\n 16164: u64 [s1 + 0x170] = t2\n 16168: u64 [s1 + 0x178] = a4\n 16172: u64 [s1 + 0x168] = t0\n 16176: u64 [s1 + 0x160] = ra\n 16180: ra = 502, jump @23\n      : @493 [@dyn 251] (gas: 15)\n 16186: t1 = u64 [s1 + 0x138]\n 16190: t0 = u64 [s1 + 0x168]\n 16194: a4 = u64 [s1 + 0x178]\n 16198: t2 = u64 [s1 + 0x170]\n 16202: t2 = t2 + 0x1\n 16205: a0 = t2 <u 0x1\n 16208: a4 = a4 + a0\n 16211: a0 = t2 | a4\n 16214: a0 = a0 <u 0x1\n 16217: a1 = u64 [s1 + 0x160]\n 16221: a0 = a0 + a1\n 16224: a1 = a0 <u a1\n 16227: t0 = t0 + a1\n 16230: ra = a0\n 16232: jump @491\n      : @494 (gas: 9)\n 16235: a0 = u64 [s1 + 0x78]\n 16238: a0 = a0 ^ 0x1\n 16241: a3 = u64 [s1 + 0x90]\n 16245: a1 = u64 [s1 + 0x68]\n 16248: a0 = a1 if a3 != 0\n 16251: a1 = u64 [s1 + 0x70]\n 16254: a2 = u64 [s1 + 0xf0]\n 16258: a0 = a1 if a2 != 0\n 16261: jump @503 if a0 == 0\n      : @495 (gas: 18)\n 16265: a0 = u64 [s1 + 0xe8]\n 16269: a0 = a0 & 0xffffffffffffffe0\n 16272: u64 [s1 + 0xf0] = a0\n 16276: a0 = s1 + 0x7ff\n 16280: a0 = a0 + 0xd9\n 16284: a1 = u64 [s1 + 0x130]\n 16288: a2 = a0 + 0x200\n 16292: u64 [a2 + 0xe8] = a1\n 16296: a1 = u64 [s1 + 0x128]\n 16300: u64 [a2 + 0xf0] = a1\n 16304: a1 = u64 [s1 + 0x118]\n 16308: u64 [a2 + 0xf8] = a1\n 16312: a1 = s1 + 0x7ff\n 16316: a1 = a1 + 0x3c1\n 16320: a2 = u64 [s1 + 0x120]\n 16324: u64 [a0 + 0x300] = a2\n 16328: a0 = 0\n 16330: ra = 504, jump @19\n      : @496 [@dyn 252] (gas: 7)\n 16336: a0 = sp + 0xffffffffffffffe0\n 16339: a0 = a0 & 0xffffffffffffffe0\n 16342: u64 [s1 + 0x150] = a0\n 16346: sp = a0\n 16348: a1 = 0x20\n 16351: a0 = 0\n 16353: ra = 506, jump @26\n      : @497 [@dyn 253] (gas: 35)\n 16359: a1 = sp + 0xffffffffffffffe0\n 16362: a1 = a1 & 0xffffffffffffffe0\n 16365: u64 [s1 + 0x148] = a1\n 16369: sp = a1\n 16371: i32 a0 = a0 + 0\n 16373: i32 a2 = a1 + 0\n 16375: a1 = 0x20\n 16378: ecalli 6 // 'hash_keccak_256'\n 16380: u64 [s1 + 376] = 0x20\n 16385: a5 = 0\n 16387: u64 [s1 + 368] = 0\n 16391: u64 [s1 + 360] = 0\n 16395: a4 = 0\n 16397: ra = 0\n 16399: u64 [s1 + 344] = 0\n 16403: u64 [s1 + 352] = 0\n 16407: a3 = u64 [s1 + 0x148]\n 16411: a0 = u64 [a3 + 0x18]\n 16414: a1 = u64 [a3 + 0x10]\n 16417: a2 = u64 [a3 + 0x8]\n 16420: t0 = u64 [a3]\n 16422: t1 = reverse a0\n 16424: a1 = reverse a1\n 16426: a3 = reverse a2\n 16428: a2 = reverse t0\n 16430: t0 = a2\n 16432: a0 = u64 [s1 + 0x150]\n 16436: u64 [a0 + 0x18] = a2\n 16439: u64 [s1 + 0x130] = a3\n 16443: u64 [a0 + 0x10] = a3\n 16446: u64 [s1 + 0x148] = a1\n 16450: u64 [a0 + 0x8] = a1\n 16453: a3 = t1\n 16455: u64 [a0] = t1\n 16457: fallthrough\n      : @498 (gas: 25)\n 16458: t1 = t0\n 16460: t2 = a3\n 16462: a0 = u64 [s1 + 0xf0]\n 16466: u64 [s1 + 0x140] = a4\n 16470: a0 = a4 <u a0\n 16473: a4 = a0 ^ 0x1\n 16476: u64 [s1 + 0x138] = ra\n 16480: a4 = 0x1 if ra != 0\n 16483: a0 = u64 [s1 + 0x160]\n 16487: a2 = u64 [s1 + 0x158]\n 16491: a0 = a0 | a2\n 16494: a4 = 0x1 if a0 != 0\n 16497: a1 = u64 [s1 + 0xf8]\n 16501: a0 = u64 [s1 + 0x178]\n 16505: a1 = a1 + a0\n 16508: a3 = u64 [s1 + 0x110]\n 16512: t0 = a5\n 16514: a3 = a3 + a5\n 16517: a2 = u64 [s1 + 0x100]\n 16521: a0 = u64 [s1 + 0x170]\n 16525: a2 = a2 + a0\n 16528: a0 = u64 [s1 + 0x108]\n 16532: a5 = u64 [s1 + 0x168]\n 16536: a0 = a0 + a5\n 16539: jump @506 if a4 != 0\n      : @499 (gas: 23)\n 16543: a4 = u64 [s1 + 0x178]\n 16547: a4 = a1 <u a4\n 16550: ra = a3 + a4\n 16553: a3 = t0\n 16555: t0 = ra ^ t0\n 16558: a5 = ra <u a3\n 16561: a5 = a4 if t0 == 0\n 16564: a5 = a5 + a2\n 16567: t0 = a5 <u a2\n 16570: a4 = u64 [s1 + 0x170]\n 16574: a2 = a2 <u a4\n 16577: a0 = a0 + a2\n 16580: a0 = a0 + t0\n 16583: a2 = a1 | a5\n 16586: a0 = ra | a0\n 16589: a2 = a2 | a0\n 16592: a2 = a2 >> 0x20\n 16595: a0 = a0 | a5\n 16598: a0 = a0 << 0x20\n 16601: a0 = a0 | a2\n 16604: u64 [s1 + 0x128] = t2\n 16608: u64 [s1 + 0x120] = t1\n 16612: jump @549 if a0 != 0\n      : @500 (gas: 4)\n 16616: a0 = s1 + 0x7ff\n 16620: a0 = a0 + 0x1a1\n 16624: u64 [s1 + 0x118] = a3\n 16628: ra = 508, jump @17\n      : @501 [@dyn 254] (gas: 15)\n 16634: a3 = s1 + 0x7ff\n 16638: a3 = a3 + 0xd9\n 16642: a0 = u64 [a3 + 0xe0]\n 16646: a1 = u64 [a3 + 0xd8]\n 16650: a2 = u64 [a3 + 0xd0]\n 16654: a3 = u64 [a3 + 0xc8]\n 16658: a4 = s1 + 0x10d8\n 16662: a5 = a4 + 0x700\n 16666: u64 [a5 + 0xe0] = a0\n 16670: u64 [a5 + 0xd8] = a1\n 16674: u64 [a5 + 0xd0] = a2\n 16678: u64 [a5 + 0xc8] = a3\n 16682: a1 = s1 + 0x18a0\n 16686: a0 = u64 [s1 + 0x150]\n 16690: ra = 510, jump @23\n      : @502 [@dyn 255] (gas: 56)\n 16696: ra = u64 [s1 + 0x128]\n 16700: ra = ra + 0x1\n 16703: a0 = ra <u 0x1\n 16706: t0 = u64 [s1 + 0x148]\n 16710: t0 = t0 + a0\n 16713: a0 = ra | t0\n 16716: a0 = a0 <u 0x1\n 16719: a1 = u64 [s1 + 0x130]\n 16723: t1 = a1 + a0\n 16726: a1 = t1 <u a1\n 16729: a0 = u64 [s1 + 0x120]\n 16733: a0 = a0 + a1\n 16736: a1 = u64 [s1 + 0x178]\n 16740: a2 = a1 + 0x20\n 16743: u64 [s1 + 0x128] = a2\n 16747: a3 = a2 <u a1\n 16750: a1 = u64 [s1 + 0x118]\n 16754: a2 = a1 + a3\n 16757: u64 [s1 + 0x120] = a2\n 16761: a4 = a2 <u a1\n 16764: a4 = a3 if a3 == 0\n 16767: a1 = u64 [s1 + 0x170]\n 16771: t2 = a1 + a4\n 16774: a4 = t2 <u a1\n 16777: a1 = u64 [s1 + 0x168]\n 16781: a1 = a1 + a4\n 16784: u64 [s1 + 0x168] = a1\n 16788: a1 = u64 [s1 + 0x140]\n 16792: a4 = a1 + 0x20\n 16795: a5 = a4 <u a1\n 16798: a2 = u64 [s1 + 0x138]\n 16802: a1 = a2 + a5\n 16805: a2 = a1 <u a2\n 16808: a2 = a5 if a5 == 0\n 16811: a3 = u64 [s1 + 0x158]\n 16815: a2 = a2 + a3\n 16818: a5 = a2 <u a3\n 16821: a3 = u64 [s1 + 0x160]\n 16825: a3 = a3 + a5\n 16828: u64 [s1 + 0x160] = a3\n 16832: u64 [s1 + 0x148] = t0\n 16836: a5 = u64 [s1 + 0x150]\n 16840: u64 [a5 + 0x8] = t0\n 16843: a3 = ra\n 16845: u64 [a5] = ra\n 16847: u64 [a5 + 0x10] = t1\n 16850: t0 = a0\n 16852: u64 [a5 + 0x18] = a0\n 16855: u64 [s1 + 0x130] = t1\n 16859: a0 = u64 [s1 + 0x128]\n 16863: u64 [s1 + 0x178] = a0\n 16867: a5 = u64 [s1 + 0x120]\n 16871: u64 [s1 + 0x170] = t2\n 16875: ra = a1\n 16877: u64 [s1 + 0x158] = a2\n 16881: jump @498\n      : @503 (gas: 8)\n 16884: a2 = u64 [s1 + 0xe8]\n 16888: a0 = u64 [s1 + 0x98]\n 16892: a0 = a0 | a2\n 16895: a1 = u64 [s1 + 0x88]\n 16899: a1 = a1 | a3\n 16902: a0 = a0 | a1\n 16905: a4 = u64 [s1 + 0xf8]\n 16909: jump @519 if a0 != 0\n      : @504 (gas: 1)\n 16913: t0 = 512, jump @727\n      : @505 [@dyn 256] (gas: 1)\n 16919: jump @522\n      : @506 (gas: 11)\n 16922: t2 = t0\n 16924: t1 = u64 [s1 + 0xe8]\n 16928: a4 = u64 [s1 + 0xf0]\n 16932: a4 = a4 ^ t1\n 16935: a5 = u64 [s1 + 0x98]\n 16939: a4 = a4 | a5\n 16942: t0 = u64 [s1 + 0x90]\n 16946: a5 = u64 [s1 + 0x88]\n 16950: a5 = t0 | a5\n 16953: a4 = a4 | a5\n 16956: jump @518 if a4 == 0\n      : @507 (gas: 20)\n 16960: a4 = u64 [s1 + 0x178]\n 16964: a4 = a1 <u a4\n 16967: a3 = a3 + a4\n 16970: t0 = a3 ^ t2\n 16973: a5 = a3 <u t2\n 16976: a5 = a4 if t0 == 0\n 16979: a5 = a5 + a2\n 16982: t0 = a5 <u a2\n 16985: a4 = u64 [s1 + 0x170]\n 16989: a2 = a2 <u a4\n 16992: a0 = a0 + a2\n 16995: a0 = a0 + t0\n 16998: a2 = a1 | a5\n 17001: a0 = a0 | a3\n 17004: a2 = a2 | a0\n 17007: a2 = a2 >> 0x20\n 17010: a0 = a0 | a5\n 17013: a0 = a0 << 0x20\n 17016: a0 = a0 | a2\n 17019: jump @549 if a0 != 0\n      : @508 (gas: 3)\n 17023: a0 = s1 + 0x7ff\n 17027: a0 = a0 + 0x3a1\n 17031: ra = 514, jump @17\n      : @509 [@dyn 257] (gas: 13)\n 17037: a0 = s1 + 0x7ff\n 17041: a0 = a0 + 0xd9\n 17045: a2 = a0 + 0x200\n 17049: a1 = u64 [a2 + 0xe0]\n 17053: u64 [s1 + 0x170] = a1\n 17057: a1 = u64 [a2 + 0xd8]\n 17061: u64 [s1 + 0x168] = a1\n 17065: a1 = u64 [a2 + 0xd0]\n 17069: u64 [s1 + 0x160] = a1\n 17073: a0 = u64 [a2 + 0xc8]\n 17077: u64 [s1 + 0x158] = a0\n 17081: a0 = u64 [s1 + 0xe8]\n 17085: t0 = 516, jump @721\n      : @510 [@dyn 258] (gas: 1)\n 17091: ra = 518, jump @753\n      : @511 [@dyn 259] (gas: 1)\n 17097: t0 = 520, jump @731\n      : @512 [@dyn 260] (gas: 1)\n 17103: ra = 522, jump @748\n      : @513 [@dyn 261] (gas: 1)\n 17109: t0 = 524, jump @719\n      : @514 [@dyn 262] (gas: 1)\n 17115: ra = 526, jump @748\n      : @515 [@dyn 263] (gas: 17)\n 17121: a4 = u64 [s1 + 0x178]\n 17125: a2 = a4 <u 0x80\n 17129: a3 = u64 [s1 + 0x130]\n 17133: a1 = a3 if a2 != 0\n 17136: a5 = u64 [s1 + 0x138]\n 17140: a3 = u64 [s1 + 0x148]\n 17144: a3 = a3 | a5\n 17147: a3 = a0 if a2 == 0\n 17150: a1 = 0xffffffffffffffff if a4 == 0\n 17153: a3 = 0xffffffffffffffff if a4 == 0\n 17156: a4 = u64 [s1 + 0x140]\n 17160: a4 = 0 if a2 == 0\n 17162: a5 = 0 if a2 == 0\n 17164: a0 = u64 [s1 + 0x158]\n 17168: a0 = a0 & ~a3\n 17171: a2 = u64 [s1 + 0x160]\n 17175: t0 = 528, jump @722\n      : @516 [@dyn 264] (gas: 8)\n 17181: u64 [a4] = a3\n 17183: a3 = a4 + 0xffffffffffffff00\n 17187: u64 [a3 + 0xf8] = a2\n 17191: u64 [a3 + 0xf0] = a1\n 17195: u64 [a3 + 0xe8] = a0\n 17199: a1 = s1 + 0x18c0\n 17203: a0 = u64 [s1 + 0x150]\n 17207: ra = 530, jump @23\n      : @517 [@dyn 265] (gas: 3)\n 17213: t1 = u64 [s1 + 0xe8]\n 17217: t0 = u64 [s1 + 0x90]\n 17221: fallthrough\n      : @518 (gas: 20)\n 17222: a2 = u64 [s1 + 0x98]\n 17226: a0 = a2 >> 0x3f\n 17229: a1 = u64 [s1 + 0x88]\n 17233: a1 = a1 << 0x1\n 17236: a0 = a0 | a1\n 17239: a1 = t0 >> 0x3f\n 17242: a2 = a2 << 0x1\n 17245: a1 = a1 | a2\n 17248: a2 = t1 >> 0x3f\n 17251: a3 = t0 << 0x1\n 17254: a2 = a2 | a3\n 17257: a3 = t1 << 0x1\n 17260: a3 = a3 + 0x1\n 17263: a4 = s1 + 0x18d8\n 17267: u64 [a4 + 0x8] = a3\n 17270: u64 [a4 + 0x10] = a2\n 17273: u64 [a4 + 0x18] = a1\n 17276: u64 [a4 + 0x20] = a0\n 17279: a0 = 0x18e0\n 17283: jump @529\n      : @519 (gas: 10)\n 17286: a3 = s1 + 0x100\n 17290: a0 = u64 [a3 + 0x8]\n 17293: a1 = u64 [a3]\n 17295: a0 = a0 | a1\n 17298: a1 = 0xffffffe0\n 17308: a1 = a4 <u a1\n 17311: a2 = u64 [a3 + 0x10]\n 17314: a1 = 0 if a2 != 0\n 17316: a1 = 0 if a0 != 0\n 17318: jump @549 if a1 == 0\n      : @520 (gas: 4)\n 17322: i32 a1 = a4 + 0x20\n 17325: a0 = s1 + 0x7ff\n 17329: a0 = a0 + 0x3e1\n 17333: ra = 532, jump @17\n      : @521 [@dyn 266] (gas: 15)\n 17339: a3 = u64 [s1 + 0x90]\n 17343: a2 = u64 [s1 + 0xe8]\n 17347: a0 = s1 + 0x7ff\n 17351: a0 = a0 + 0xd9\n 17355: a4 = a0 + 0x300\n 17359: a1 = u64 [a4 + 0x20]\n 17362: a5 = s1 + 0x100\n 17366: u64 [a5 + 0x70] = a1\n 17369: a1 = u64 [a4 + 0x18]\n 17372: u64 [a5 + 0x68] = a1\n 17375: a1 = u64 [a4 + 0x10]\n 17378: u64 [a5 + 0x58] = a1\n 17381: a0 = u64 [a4 + 0x8]\n 17384: u64 [a5 + 0x60] = a0\n 17387: fallthrough\n      : @522 (gas: 18)\n 17388: a0 = a3 >> 0x3f\n 17391: a4 = u64 [s1 + 0x98]\n 17395: a1 = a4 << 0x1\n 17398: a0 = a0 | a1\n 17401: u64 [s1 + 0x150] = a0\n 17405: a0 = a4 >> 0x3f\n 17408: a1 = u64 [s1 + 0x88]\n 17412: a1 = a1 << 0x1\n 17415: a0 = a0 | a1\n 17418: u64 [s1 + 0x148] = a0\n 17422: a0 = a2 >> 0x3f\n 17425: a1 = a3 << 0x1\n 17428: a0 = a0 | a1\n 17431: u64 [s1 + 0x140] = a0\n 17435: a0 = a2 << 0x1\n 17438: u64 [s1 + 0x138] = a0\n 17442: a1 = a2 << 0x3\n 17445: t0 = 534, jump @738\n      : @523 [@dyn 267] (gas: 1)\n 17451: ra = 536, jump @753\n      : @524 [@dyn 268] (gas: 7)\n 17457: u64 [s1 + 0x118] = a0\n 17461: u64 [s1 + 0x130] = a1\n 17465: a0 = u64 [s1 + 0xe8]\n 17469: i32 a2 = a0 << 0x3\n 17472: a0 = 0xffffffffffffffff\n 17475: a1 = 0xffffffffffffffff\n 17478: ra = 538, jump @748\n      : @525 [@dyn 269] (gas: 1)\n 17484: t0 = 540, jump @733\n      : @526 [@dyn 270] (gas: 1)\n 17490: ra = 542, jump @748\n      : @527 [@dyn 271] (gas: 1)\n 17496: t0 = 544, jump @714\n      : @528 [@dyn 272] (gas: 6)\n 17502: u64 [a4 + 0x38] = a2\n 17505: u64 [a4 + 0x40] = a3\n 17508: u64 [a4 + 0x30] = a1\n 17511: u64 [a4 + 0x28] = a0\n 17514: a0 = 0x1900\n 17518: fallthrough\n      : @529 (gas: 3)\n 17519: a1 = s1 + a0\n 17522: a0 = u64 [s1 + 0xa0]\n 17526: ra = 546, jump @23\n      : @530 [@dyn 273] (gas: 9)\n 17532: a0 = s1 + 0x18d8\n 17536: u64 [a0 + 96] = 0\n 17539: u64 [a0 + 88] = 0\n 17542: u64 [a0 + 80] = 0\n 17545: u64 [a0 + 72] = 0x1\n 17549: a0 = s1 + 0x7ff\n 17553: a0 = a0 + 0x381\n 17557: a1 = s1 + 0x1920\n 17561: ra = 548, jump @21\n      : @531 [@dyn 274] (gas: 13)\n 17567: t0 = s1 + 0x7ff\n 17571: t0 = t0 + 0xd9\n 17575: a0 = t0 + 0x200\n 17579: a3 = u64 [a0 + 0xc0]\n 17583: a5 = u64 [a0 + 0xb8]\n 17587: a4 = u64 [a0 + 0xb0]\n 17591: a0 = a3 >u 0\n 17593: a1 = a5 >u 0\n 17595: a1 = a0 if a3 != 0\n 17598: a0 = a5 | a3\n 17601: a2 = a4 >u 0\n 17603: a2 = a1 if a0 != 0\n 17606: jump @575 if a2 != 0\n      : @532 (gas: 25)\n 17610: a0 = u64 [t0 + 0x2a8]\n 17614: u64 [s1 + 0x178] = a0\n 17618: a0 = a0 + 0x1\n 17621: a2 = s1 + 0x18d8\n 17625: u64 [a2 + 104] = 0x1\n 17629: a1 = a0 <u 0x1\n 17632: a1 = a1 + a4\n 17635: u64 [a2 + 0x88] = a0\n 17639: a0 = a0 | a1\n 17642: u64 [a2 + 0x90] = a1\n 17646: a0 = a0 <u 0x1\n 17649: a0 = a0 + a5\n 17652: u64 [a2 + 0x98] = a0\n 17656: a0 = a0 <u a5\n 17659: a0 = a0 + a3\n 17662: u64 [a2 + 0xa0] = a0\n 17666: u64 [a2 + 128] = 0\n 17670: u64 [a2 + 120] = 0\n 17673: u64 [a2 + 112] = 0\n 17676: a0 = s1 + 0x1940\n 17680: a1 = s1 + 0x1960\n 17684: u64 [s1 + 0x170] = a4\n 17688: u64 [s1 + 0x168] = a5\n 17692: u64 [s1 + 0x160] = a3\n 17696: ra = 550, jump @23\n      : @533 [@dyn 275] (gas: 20)\n 17702: a0 = sp + 0xffffffffffffffe0\n 17705: a0 = a0 & 0xffffffffffffffe0\n 17708: u64 [s1 + 0x150] = a0\n 17712: sp = a0\n 17714: a3 = s1 + 0x7ff\n 17718: a3 = a3 + 0xd9\n 17722: a0 = u64 [s1 + 0x160]\n 17726: a4 = a3 + 0x200\n 17730: u64 [a4 + 0x60] = a0\n 17733: a0 = u64 [s1 + 0x168]\n 17737: u64 [a4 + 0x58] = a0\n 17740: a0 = u64 [s1 + 0x170]\n 17744: u64 [a4 + 0x50] = a0\n 17747: a0 = s1 + 0x7ff\n 17751: a0 = a0 + 0x341\n 17755: a1 = s1 + 0x7ff\n 17759: a1 = a1 + 0x321\n 17763: a2 = u64 [s1 + 0x178]\n 17767: u64 [a4 + 0x48] = a2\n 17770: ra = 552, jump @661\n      : @534 [@dyn 276] (gas: 23)\n 17776: a1 = s1 + 0x7ff\n 17780: a1 = a1 + 0xd9\n 17784: a4 = a1 + 0x200\n 17788: a0 = u64 [a4 + 0xa0]\n 17792: u64 [s1 + 0x178] = a0\n 17796: a0 = u64 [a4 + 0x98]\n 17800: u64 [s1 + 0x158] = a0\n 17804: a0 = u64 [a4 + 0x90]\n 17808: u64 [s1 + 0x168] = a0\n 17812: a0 = u64 [a4 + 0x88]\n 17816: u64 [s1 + 0x170] = a0\n 17820: a0 = u64 [a4 + 0x78]\n 17823: a5 = u64 [a4 + 0x80]\n 17827: a2 = u64 [a4 + 0x68]\n 17830: a3 = u64 [a4 + 0x70]\n 17833: a1 = u64 [s1 + 0x150]\n 17837: u64 [a1 + 0x10] = a0\n 17840: u64 [a1 + 0x18] = a5\n 17843: u64 [a1] = a2\n 17845: u64 [a1 + 0x8] = a3\n 17848: a0 = s1 + 0x7ff\n 17852: a0 = a0 + 0x301\n 17856: ra = 554, jump @21\n      : @535 [@dyn 277] (gas: 68)\n 17862: a0 = s1 + 0x7ff\n 17866: a0 = a0 + 0xd9\n 17870: a2 = a0 + 0x200\n 17874: a1 = u64 [a2 + 0x28]\n 17877: u64 [s1 + 0x130] = a1\n 17881: a1 = u64 [a2 + 0x30]\n 17884: u64 [s1 + 0x128] = a1\n 17888: a1 = u64 [a2 + 0x38]\n 17891: u64 [s1 + 0x120] = a1\n 17895: a2 = a0\n 17897: a3 = u64 [s1 + 0x170]\n 17901: a0 = a3 >> 0x3d\n 17904: a4 = u64 [s1 + 0x168]\n 17908: a1 = a4 << 0x3\n 17911: a0 = a0 | a1\n 17914: u64 [s1 + 0x160] = a0\n 17918: a0 = a4 >> 0x3d\n 17921: a4 = u64 [s1 + 0x158]\n 17925: a1 = a4 << 0x3\n 17928: a0 = a0 | a1\n 17931: u64 [s1 + 0x168] = a0\n 17935: a0 = u64 [a2 + 0x240]\n 17939: u64 [s1 + 0x118] = a0\n 17943: a0 = a4 >> 0x3d\n 17946: a1 = u64 [s1 + 0x178]\n 17950: a1 = a1 << 0x3\n 17953: a0 = a0 | a1\n 17956: u64 [s1 + 0x158] = a0\n 17960: a3 = a3 << 0x3\n 17963: u64 [s1 + 0x178] = a3\n 17967: a0 = u64 [s1 + 0xd0]\n 17971: ecalli 3 // 'caller'\n 17973: a2 = u64 [s1 + 0x160]\n 17977: a0 = a2 >u 0\n 17979: a5 = u64 [s1 + 0x178]\n 17983: a1 = a5 <u 0x100\n 17987: a3 = a1 ^ 0x1\n 17990: a3 = a0 if a2 != 0\n 17993: a4 = u64 [s1 + 0x158]\n 17997: a0 = a4 >u 0\n 17999: a2 = u64 [s1 + 0x168]\n 18003: a1 = a2 >u 0\n 18005: a1 = a0 if a4 != 0\n 18008: a0 = a4\n 18010: a4 = u64 [s1 + 0xe0]\n 18014: t1 = u64 [a4 + 0x8]\n 18017: a2 = a2 | a0\n 18020: t0 = i32 [a4 + 0x10]\n 18023: a3 = a1 if a2 != 0\n 18026: u64 [s1 + 0x148] = a3\n 18030: a1 = u64 [a4]\n 18032: a0 = reverse t1\n 18034: a2 = a0 << 0x20\n 18037: a3 = reverse t0\n 18039: a3 = a3 >> 0x20\n 18042: a3 = a3 | a2\n 18045: u64 [s1 + 0x140] = a3\n 18049: a0 = a0 >> 0x20\n 18052: a4 = reverse a1\n 18054: a2 = a4 << 0x20\n 18057: a1 = a2 | a0\n 18060: u64 [s1 + 0x138] = a1\n 18064: a4 = a4 >> 0x20\n 18067: u64 [s1 + 0x168] = a4\n 18071: i32 a2 = 0x80 - a5\n 18075: u64 [s1 + 0x110] = a2\n 18079: a0 = a3\n 18081: ra = 556, jump @748\n      : @536 [@dyn 278] (gas: 8)\n 18087: u64 [s1 + 0x158] = a0\n 18091: u64 [s1 + 0x100] = a1\n 18095: a0 = u64 [s1 + 0x170]\n 18099: i32 a2 = a0 << 0x3\n 18102: u64 [s1 + 0x160] = a2\n 18106: a0 = u64 [s1 + 0x168]\n 18110: a1 = 0\n 18112: ra = 558, jump @753\n      : @537 [@dyn 279] (gas: 10)\n 18118: u64 [s1 + 0xf8] = a1\n 18122: a1 = u64 [s1 + 0x158]\n 18126: a0 = a0 | a1\n 18129: u64 [s1 + 0x170] = a0\n 18133: a0 = u64 [s1 + 0x178]\n 18137: i32 a2 = a0 + 0xffffffffffffff80\n 18140: u64 [s1 + 0x108] = a2\n 18144: a0 = u64 [s1 + 0x140]\n 18148: a1 = u64 [s1 + 0x138]\n 18152: ra = 560, jump @753\n      : @538 [@dyn 280] (gas: 18)\n 18158: a2 = u64 [s1 + 0x178]\n 18162: a4 = a2 <u 0x80\n 18166: u64 [s1 + 0x158] = a4\n 18170: a3 = u64 [s1 + 0x170]\n 18174: a0 = a3 if a4 != 0\n 18177: a3 = u64 [s1 + 0x168]\n 18181: a0 = a3 if a2 == 0\n 18184: u64 [s1 + 0x170] = a0\n 18188: a0 = u64 [s1 + 0x100]\n 18192: a3 = u64 [s1 + 0xf8]\n 18196: a0 = a0 | a3\n 18199: a0 = a1 if a4 == 0\n 18202: a0 = 0 if a2 == 0\n 18204: u64 [s1 + 0x168] = a0\n 18208: a0 = u64 [s1 + 0x140]\n 18212: a1 = u64 [s1 + 0x138]\n 18216: a2 = u64 [s1 + 0x160]\n 18220: ra = 562, jump @753\n      : @539 [@dyn 281] (gas: 19)\n 18226: a2 = a1\n 18228: a1 = u64 [s1 + 0x158]\n 18232: a0 = 0 if a1 == 0\n 18234: a2 = 0 if a1 == 0\n 18236: a3 = u64 [s1 + 0x148]\n 18240: a1 = u64 [s1 + 0x168]\n 18244: a1 = 0 if a3 != 0\n 18246: u64 [s1 + 0x168] = a1\n 18250: a1 = u64 [s1 + 0x170]\n 18254: a1 = 0 if a3 != 0\n 18256: u64 [s1 + 0x170] = a1\n 18260: a2 = 0 if a3 != 0\n 18262: u64 [s1 + 0x140] = a2\n 18266: a0 = 0 if a3 != 0\n 18268: u64 [s1 + 0x138] = a0\n 18272: a0 = 0xffffffffffffffff\n 18275: a1 = 0xffffffffffffffff\n 18278: a2 = u64 [s1 + 0x108]\n 18282: ra = 564, jump @753\n      : @540 [@dyn 282] (gas: 6)\n 18288: u64 [s1 + 0x100] = a0\n 18292: u64 [s1 + 0x108] = a1\n 18296: a0 = u64 [s1 + 0x80]\n 18300: a1 = 0\n 18302: a2 = u64 [s1 + 0x160]\n 18306: ra = 566, jump @753\n      : @541 [@dyn 283] (gas: 6)\n 18312: u64 [s1 + 0xf0] = a0\n 18316: u64 [s1 + 0xf8] = a1\n 18320: a0 = 0xffffffffffffffff\n 18323: a1 = 0xffffffffffffffff\n 18326: a2 = u64 [s1 + 0x110]\n 18330: ra = 568, jump @748\n      : @542 [@dyn 284] (gas: 19)\n 18336: a3 = u64 [s1 + 0xf0]\n 18340: a3 = a3 | a0\n 18343: a2 = u64 [s1 + 0x158]\n 18347: a0 = u64 [s1 + 0x100]\n 18351: a3 = a0 if a2 == 0\n 18354: a0 = u64 [s1 + 0x178]\n 18358: a4 = u64 [s1 + 0x80]\n 18362: a3 = a4 if a0 == 0\n 18365: u64 [s1 + 0x110] = a3\n 18369: a3 = u64 [s1 + 0xf8]\n 18373: a3 = a3 | a1\n 18376: a1 = u64 [s1 + 0x108]\n 18380: a3 = a1 if a2 == 0\n 18383: a3 = 0 if a0 == 0\n 18385: u64 [s1 + 0x178] = a3\n 18389: a0 = 0xffffffffffffffff\n 18392: a1 = 0xffffffffffffffff\n 18395: a2 = u64 [s1 + 0x160]\n 18399: ra = 570, jump @753\n      : @543 [@dyn 285] (gas: 38)\n 18405: a2 = u64 [s1 + 0x158]\n 18409: a0 = 0 if a2 == 0\n 18411: a1 = 0 if a2 == 0\n 18413: a2 = u64 [s1 + 0x178]\n 18417: a2 = a2 ^ 0xffffffffffffffff\n 18420: a3 = u64 [s1 + 0x110]\n 18424: a3 = a3 ^ 0xffffffffffffffff\n 18427: a1 = a1 ^ 0xffffffffffffffff\n 18430: a0 = a0 ^ 0xffffffffffffffff\n 18433: a5 = u64 [s1 + 0x148]\n 18437: a3 = 0xffffffffffffffff if a5 != 0\n 18440: a2 = 0xffffffffffffffff if a5 != 0\n 18443: a0 = 0xffffffffffffffff if a5 != 0\n 18446: a1 = 0xffffffffffffffff if a5 != 0\n 18449: a4 = u64 [s1 + 0x118]\n 18453: a2 = a2 & a4\n 18456: a4 = u64 [s1 + 0x120]\n 18460: a3 = a3 & a4\n 18463: a4 = u64 [s1 + 0x128]\n 18467: a1 = a1 & a4\n 18470: a4 = u64 [s1 + 0x130]\n 18474: a0 = a0 & a4\n 18477: a4 = u64 [s1 + 0x170]\n 18481: a3 = a3 | a4\n 18484: a4 = u64 [s1 + 0x168]\n 18488: a2 = a2 | a4\n 18491: a4 = u64 [s1 + 0x138]\n 18495: a0 = a0 | a4\n 18498: a4 = u64 [s1 + 0x140]\n 18502: a1 = a1 | a4\n 18505: a4 = s1 + 0x18d8\n 18509: u64 [a4 + 0xb0] = a1\n 18513: u64 [a4 + 0xa8] = a0\n 18517: u64 [a4 + 0xc0] = a2\n 18521: u64 [a4 + 0xb8] = a3\n 18525: a1 = s1 + 0x1980\n 18529: a0 = u64 [s1 + 0x150]\n 18533: ra = 572, jump @23\n      : @544 [@dyn 286] (gas: 4)\n 18539: a0 = s1 + 0x7ff\n 18543: a0 = a0 + 0x2e1\n 18547: a1 = 0x40\n 18550: ra = 574, jump @17\n      : @545 [@dyn 287] (gas: 49)\n 18556: a0 = s1 + 0x7ff\n 18560: a0 = a0 + 0xd9\n 18564: a2 = a0 + 0x200\n 18568: a1 = u64 [a2 + 0x20]\n 18571: u64 [s1 + 0x170] = a1\n 18575: a1 = u64 [a2 + 0x18]\n 18578: u64 [s1 + 0x168] = a1\n 18582: a1 = u64 [a2 + 0x10]\n 18585: u64 [s1 + 0x160] = a1\n 18589: a1 = u64 [a2 + 0x8]\n 18592: u64 [s1 + 0x178] = a1\n 18596: a0 = u64 [s1 + 0xd0]\n 18600: ecalli 3 // 'caller'\n 18602: a2 = u64 [s1 + 0xe0]\n 18606: a0 = u64 [a2 + 0x8]\n 18609: a1 = i32 [a2 + 0x10]\n 18612: a2 = u64 [a2]\n 18614: a3 = reverse a0\n 18616: a0 = a3 << 0x20\n 18619: a1 = reverse a1\n 18621: a1 = a1 >> 0x20\n 18624: t0 = a1 | a0\n 18627: a3 = a3 >> 0x20\n 18630: a1 = reverse a2\n 18632: a2 = a1 << 0x20\n 18635: a2 = a2 | a3\n 18638: a1 = a1 >> 0x20\n 18641: a3 = u64 [0x20040]\n 18646: a0 = s1 + 0x7ff\n 18650: a0 = a0 + 0xd9\n 18654: u64 [a0 + 0x200] = a3\n 18658: a3 = u64 [0x20048]\n 18663: a4 = u64 [0x20050]\n 18668: a5 = u64 [0x20058]\n 18673: u64 [a0 + 0x1f8] = a3\n 18677: a3 = a0 + 0x100\n 18681: u64 [a3 + 0xf0] = a4\n 18685: u64 [a0 + 480] = 0\n 18689: u64 [a3 + 0xe8] = a5\n 18693: u64 [a3 + 0xd8] = a1\n 18697: u64 [a3 + 0xd0] = a2\n 18701: a2 = s1 + 0x7ff\n 18705: a2 = a2 + 0x2c1\n 18709: a3 = s1 + 0x7ff\n 18713: a3 = a3 + 0x2a1\n 18717: u64 [a0 + 0x1c8] = t0\n 18721: a0 = 0\n 18723: a1 = 0\n 18725: ra = 576, jump @24\n      : @546 [@dyn 288] (gas: 36)\n 18731: a0 = u64 [s1 + 0xd0]\n 18735: ecalli 3 // 'caller'\n 18737: a1 = u64 [s1 + 0xe0]\n 18741: a0 = u32 [a1 + 0x10]\n 18744: u64 [s1 + 0x150] = a0\n 18748: a0 = u64 [a1 + 0x8]\n 18751: u64 [s1 + 0x148] = a0\n 18755: a0 = u64 [a1]\n 18757: u64 [s1 + 0x158] = a0\n 18761: a0 = u64 [s1 + 0xa8]\n 18765: a1 = s1 + 0x7ff\n 18769: a1 = a1 + 0xd9\n 18773: a2 = a1 + 0x100\n 18777: u64 [a2 + 0x80] = a0\n 18781: a0 = u64 [s1 + 0xb0]\n 18785: u64 [a2 + 0x78] = a0\n 18788: a0 = u64 [s1 + 0xc8]\n 18792: u64 [a2 + 0x70] = a0\n 18795: a0 = u64 [s1 + 0xd8]\n 18799: u64 [a2 + 0x68] = a0\n 18802: a0 = u64 [s1 + 0x170]\n 18806: u64 [a2 + 0xa0] = a0\n 18810: a0 = u64 [s1 + 0x168]\n 18814: u64 [a2 + 0x98] = a0\n 18818: a0 = u64 [s1 + 0x160]\n 18822: u64 [a2 + 0x90] = a0\n 18826: a3 = a1\n 18828: a0 = s1 + 0x7ff\n 18832: a0 = a0 + 0x281\n 18836: a1 = s1 + 0x7ff\n 18840: a1 = a1 + 0x261\n 18844: a2 = s1 + 0x7ff\n 18848: a2 = a2 + 0x241\n 18852: a4 = u64 [s1 + 0x178]\n 18856: u64 [a3 + 0x188] = a4\n 18860: ra = 578, jump @643\n      : @547 [@dyn 289] (gas: 14)\n 18866: a4 = s1 + 0x100\n 18870: a3 = u64 [a4 + 0x60]\n 18873: a2 = a3\n 18875: a0 = u64 [a4 + 0x70]\n 18878: a0 = a0 | a3\n 18881: a3 = u64 [a4 + 0x68]\n 18884: a1 = u64 [a4 + 0x78]\n 18887: a1 = a1 | a3\n 18890: a1 = a1 | a0\n 18893: a1 = a1 >> 0x20\n 18896: a0 = a0 | a3\n 18899: a0 = a0 << 0x20\n 18902: a0 = a0 | a1\n 18905: jump @549 if a0 != 0\n      : @548 (gas: 36)\n 18908: ra = a3\n 18910: t2 = s1 + 0x7ff\n 18914: t2 = t2 + 0xd9\n 18918: a4 = t2 + 0x100\n 18922: a0 = u64 [a4 + 0xb0]\n 18926: a1 = u64 [a4 + 0xc0]\n 18930: u64 [s1 + 0x140] = a1\n 18934: t1 = u64 [t2 + 0x1a8]\n 18938: a3 = u64 [a4 + 0xb8]\n 18942: a4 = a0 ^ a2\n 18945: a5 = a0 <u a2\n 18948: t0 = u64 [s1 + 0x178]\n 18952: a1 = t1 <u t0\n 18955: a5 = a1 if a4 == 0\n 18958: a4 = a3 - ra\n 18961: t2 = a4 - a5\n 18964: a4 = a4 <u a5\n 18967: u64 [s1 + 0x138] = a4\n 18971: a3 = a3 <u ra\n 18974: a5 = u64 [s1 + 0x170]\n 18978: a4 = u64 [s1 + 0x140]\n 18982: a5 = a4 - a5\n 18985: a5 = a5 - a3\n 18988: a3 = u64 [s1 + 0x138]\n 18992: a5 = a5 - a3\n 18995: a0 = a0 - a2\n 18998: a0 = a0 - a1\n 19001: a1 = t1 - t0\n 19004: a0 = a0 | a5\n 19007: a3 = a1 | t2\n 19010: a3 = a3 | a0\n 19013: a0 = a0 | t2\n 19016: a3 = a3 >> 0x20\n 19019: a0 = a0 << 0x20\n 19022: a0 = a0 | a3\n 19025: jump @580 if a0 == 0\n      : @549 (gas: 1)\n 19029: trap\n      : @550 (gas: 4)\n 19030: a1 = 0x20070\n 19035: i32 a1 = a1 + 0\n 19037: a0 = 0x1\n 19040: jump @552\n      : @551 (gas: 6)\n 19042: i32 a1 = a1 + 0\n 19044: a0 = 0x1\n 19047: a2 = 0\n 19049: ecalli 7 // 'seal_return'\n 19051: a1 = 0x20070\n 19056: jump @551\n      : @552 (gas: 4)\n 19058: a2 = 0\n 19060: ecalli 7 // 'seal_return'\n 19062: a1 = 0x20070\n 19067: jump @551\n      : @553 (gas: 2)\n 19069: a1 = 0x20070\n 19074: jump @551\n      : @554 (gas: 2)\n 19076: a1 = 0x20070\n 19081: jump @551\n      : @555 (gas: 2)\n 19083: a1 = 0x20070\n 19088: jump @551\n      : @556 (gas: 2)\n 19090: a1 = 0x20070\n 19095: jump @551\n      : @557 (gas: 2)\n 19097: a1 = 0x20070\n 19102: jump @551\n      : @558 (gas: 2)\n 19104: a1 = 0x20070\n 19109: jump @551\n      : @559 (gas: 2)\n 19111: a1 = 0x20070\n 19116: jump @551\n      : @560 (gas: 2)\n 19118: a1 = 0x20070\n 19123: jump @551\n      : @561 (gas: 6)\n 19125: a1 = 0x20070\n 19130: i32 a1 = a1 + 0\n 19132: a0 = 0x1\n 19135: ecalli 7 // 'seal_return'\n 19137: a1 = 0x20070\n 19142: jump @551\n      : @562 (gas: 2)\n 19144: a1 = 0x20070\n 19149: jump @551\n      : @563 (gas: 2)\n 19151: a1 = 0x20070\n 19156: jump @551\n      : @564 (gas: 8)\n 19158: u64 [a2 + 56] = 0\n 19161: u64 [a2 + 48] = 0\n 19164: u64 [a2 + 40] = 0\n 19167: a0 = 0x4e487b7100000000\n 19177: a1 = s1 + 0x1100\n 19181: u64 [a2 + 0x40] = a0\n 19184: a0 = 0\n 19186: ra = 580, jump @19\n      : @565 [@dyn 290] (gas: 10)\n 19192: a1 = s1 + 0x10d8\n 19196: u64 [a1 + 32] = 0\n 19199: u64 [a1 + 24] = 0\n 19202: u64 [a1 + 8] = 0x41\n 19206: a2 = a1\n 19208: a0 = 0x4\n 19211: a1 = s1 + 0x10e0\n 19215: u64 [a2 + 16] = 0\n 19218: ra = 0x248\n 19222: jump @19\n      : @566 (gas: 8)\n 19225: u64 [a2 + 152] = 0\n 19229: u64 [a2 + 144] = 0\n 19233: u64 [a2 + 136] = 0\n 19237: a0 = 0x4e487b7100000000\n 19247: a1 = s1 + 0x1160\n 19251: u64 [a2 + 0xa0] = a0\n 19255: a0 = 0\n 19257: ra = 582, jump @19\n      : @567 [@dyn 291] (gas: 9)\n 19263: a1 = s1 + 0x10d8\n 19267: u64 [a1 + 128] = 0\n 19271: u64 [a1 + 120] = 0\n 19274: u64 [a1 + 104] = 0x41\n 19278: a2 = a1\n 19280: a0 = 0x4\n 19283: a1 = s1 + 0x1140\n 19287: u64 [a2 + 112] = 0\n 19290: ra = 584, jump @19\n      : @568 [@dyn 292] (gas: 3)\n 19296: a0 = u64 [s1 + 0xb0]\n 19300: a0 = i32 [a0]\n 19302: jump @570 if a0 >u 63\n      : @569 (gas: 3)\n 19306: a1 = u64 [s1 + 0xb0]\n 19310: u32 [a1 + 0] = 0x40\n 19313: fallthrough\n      : @570 (gas: 5)\n 19314: a0 = 0x1\n 19317: a2 = 0x24\n 19320: a1 = u64 [s1 + 0xb8]\n 19324: ecalli 7 // 'seal_return'\n 19326: fallthrough\n      : @571 (gas: 9)\n 19327: u64 [a2 + 88] = 0\n 19330: u64 [a2 + 80] = 0\n 19333: u64 [a2 + 72] = 0\n 19336: a0 = 0x4e487b7100000000\n 19346: a1 = s1 + 0x7ff\n 19350: a1 = a1 + 0x121\n 19354: u64 [a2 + 0x60] = a0\n 19357: a0 = 0\n 19359: ra = 586, jump @19\n      : @572 [@dyn 293] (gas: 12)\n 19365: a1 = s1 + 0x7ff\n 19369: a1 = a1 + 0xd9\n 19373: u64 [a1 + 64] = 0\n 19376: u64 [a1 + 56] = 0\n 19379: u64 [a1 + 40] = 0x41\n 19383: a2 = a1\n 19385: a0 = 0x4\n 19388: a1 = s1 + 0x7ff\n 19392: a1 = a1 + 0x101\n 19396: u64 [a2 + 48] = 0\n 19399: ra = 0x250\n 19403: jump @19\n      : @573 (gas: 9)\n 19406: u64 [a2 + 184] = 0\n 19410: u64 [a2 + 176] = 0\n 19414: u64 [a2 + 168] = 0\n 19418: a0 = 0x4e487b7100000000\n 19428: a1 = s1 + 0x7ff\n 19432: a1 = a1 + 0x181\n 19436: u64 [a2 + 0xc0] = a0\n 19440: a0 = 0\n 19442: ra = 588, jump @19\n      : @574 [@dyn 294] (gas: 12)\n 19448: a1 = s1 + 0x7ff\n 19452: a1 = a1 + 0xd9\n 19456: u64 [a1 + 160] = 0\n 19460: u64 [a1 + 152] = 0\n 19464: u64 [a1 + 136] = 0x41\n 19469: a2 = a1\n 19471: a0 = 0x4\n 19474: a1 = s1 + 0x7ff\n 19478: a1 = a1 + 0x161\n 19482: u64 [a2 + 144] = 0\n 19486: ra = 0x250\n 19490: jump @19\n      : @575 (gas: 9)\n 19493: u64 [t0 + 280] = 0\n 19497: u64 [t0 + 272] = 0\n 19501: u64 [t0 + 264] = 0\n 19505: a0 = 0x4e487b7100000000\n 19515: a1 = s1 + 0x7ff\n 19519: a1 = a1 + 0x1e1\n 19523: u64 [t0 + 0x120] = a0\n 19527: a0 = 0\n 19529: ra = 590, jump @19\n      : @576 [@dyn 295] (gas: 11)\n 19535: a1 = s1 + 0x7ff\n 19539: a1 = a1 + 0xd9\n 19543: u64 [a1 + 256] = 0\n 19547: u64 [a1 + 248] = 0\n 19551: u64 [a1 + 232] = 0x41\n 19556: a2 = a1\n 19558: a0 = 0x4\n 19561: a1 = s1 + 0x7ff\n 19565: a1 = a1 + 0x1c1\n 19569: u64 [a2 + 240] = 0\n 19573: ra = 592, jump @19\n      : @577 [@dyn 296] (gas: 3)\n 19579: a0 = u64 [s1 + 0xb8]\n 19583: a0 = i32 [a0]\n 19585: jump @579 if a0 >u 63\n      : @578 (gas: 3)\n 19589: a1 = u64 [s1 + 0xb8]\n 19593: u32 [a1 + 0] = 0x40\n 19596: fallthrough\n      : @579 (gas: 5)\n 19597: a0 = 0x1\n 19600: a2 = 0x24\n 19603: a1 = u64 [s1 + 0xc0]\n 19607: ecalli 7 // 'seal_return'\n 19609: fallthrough\n      : @580 (gas: 34)\n 19610: a0 = u64 [s1 + 0x148]\n 19614: a2 = reverse a0\n 19616: a0 = a2 << 0x20\n 19619: a3 = u64 [s1 + 0x150]\n 19623: a3 = reverse a3\n 19625: a3 = a3 >> 0x20\n 19628: t0 = a3 | a0\n 19631: a0 = u64 [s1 + 0x158]\n 19635: a3 = reverse a0\n 19637: a4 = a3 << 0x20\n 19640: a2 = a2 >> 0x20\n 19643: a2 = a2 | a4\n 19646: a3 = a3 >> 0x20\n 19649: a4 = u64 [0x20000]\n 19654: t1 = s1 + 0x7ff\n 19658: t1 = t1 + 0xd9\n 19662: u64 [t1 + 0x160] = a4\n 19666: a4 = u64 [0x20008]\n 19671: a5 = u64 [0x20010]\n 19676: a0 = u64 [0x20018]\n 19681: u64 [t1 + 0x158] = a4\n 19685: a4 = t1 + 0x100\n 19689: u64 [a4 + 0x50] = a5\n 19692: u64 [t1 + 320] = 0\n 19696: u64 [a4 + 0x48] = a0\n 19699: u64 [a4 + 0x38] = a3\n 19702: u64 [a4 + 0x30] = a2\n 19705: a2 = s1 + 0x7ff\n 19709: a2 = a2 + 0x221\n 19713: a3 = s1 + 0x7ff\n 19717: a3 = a3 + 0x201\n 19721: u64 [t1 + 0x128] = t0\n 19725: a0 = u64 [s1 + 0x178]\n 19729: ra = 594, jump @24\n      : @581 [@dyn 297] (gas: 3)\n 19735: a0 = 0\n 19737: a1 = u64 [s1 + 0xc0]\n 19741: jump @552\n      : @582 (gas: 33)\n 19744: sp = sp + 0xffffffffffffffa0\n 19747: u64 [sp + 0x58] = ra\n 19750: u64 [sp + 0x50] = s0\n 19753: u64 [sp + 0x48] = s1\n 19756: s0 = sp + 0x60\n 19759: sp = sp & 0xfffffffffffffff0\n 19762: a2 = u64 [a1 + 0x10]\n 19765: a5 = u64 [a1 + 0x8]\n 19768: a4 = u64 [a1]\n 19770: a1 = u64 [a1 + 0x18]\n 19773: t0 = a2 << 0x3f\n 19776: a3 = a5 >> 0x1\n 19779: t0 = a3 | t0\n 19782: a3 = a1 << 0x3f\n 19785: a2 = a2 >> 0x1\n 19788: a3 = a3 | a2\n 19791: a5 = a5 << 0x3f\n 19794: a2 = a4 >> 0x1\n 19797: a5 = a5 | a2\n 19800: t1 = a1 >> 0x1\n 19803: a4 = a4 & 0x1\n 19806: a1 = -a4\n 19808: s1 = a4 <u 0x1\n 19811: a2 = a5 & 0x7f\n 19814: t2 = a1 & a3\n 19817: a3 = a1 & t0\n 19820: a2 = a5 if a4 != 0\n 19823: a4 = a1 & t1\n 19826: a1 = a2 <u 0x20\n 19829: a1 = 0 if a3 != 0\n 19831: a5 = t2 | a4\n 19834: a1 = 0 if a5 != 0\n 19836: jump @585 if s1 != a1\n      : @583 (gas: 5)\n 19839: u64 [a0] = a2\n 19841: u64 [a0 + 0x8] = a3\n 19844: u64 [a0 + 0x10] = t2\n 19847: u64 [a0 + 0x18] = a4\n 19850: t0 = 596, jump @746\n      : @584 [@dyn 298] (gas: 1)\n 19856: ret\n      : @585 (gas: 1)\n 19858: t0 = 598, jump @739\n      : @586 [@dyn 299] (gas: 1)\n 19864: ra = 600, jump @19\n      : @587 [@dyn 300] (gas: 7)\n 19870: u64 [sp + 24] = 0\n 19873: u64 [sp + 16] = 0\n 19876: u64 [sp + 0] = 0x22\n 19879: a0 = 0x4\n 19882: a1 = sp\n 19884: u64 [sp + 8] = 0\n 19887: ra = 602, jump @19\n      : @588 [@dyn 301] (gas: 2)\n 19893: a1 = i32 [0x20064]\n 19898: jump @590 if a1 >u 63\n      : @589 (gas: 2)\n 19902: u32 [0x20064] = 0x40\n 19908: fallthrough\n      : @590 (gas: 7)\n 19909: a1 = 0x20070\n 19914: i32 a1 = a1 + 0\n 19916: a0 = 0x1\n 19919: a2 = 0x24\n 19922: ra = 0x25c\n 19926: ecalli 7 // 'seal_return'\n 19928: fallthrough\n      : @591 [@dyn 302] (gas: 31)\n 19929: sp = sp + 0xfffffffffffffe20\n 19933: u64 [sp + 0x1d8] = ra\n 19937: u64 [sp + 0x1d0] = s0\n 19941: u64 [sp + 0x1c8] = s1\n 19945: s0 = sp + 0x1e0\n 19949: sp = sp & 0xffffffffffffffe0\n 19952: s1 = sp\n 19954: u64 [s1 + 0x10] = a0\n 19957: a0 = u64 [a2 + 0x10]\n 19960: u64 [s1 + 0x98] = a0\n 19964: a0 = u64 [a2]\n 19966: u64 [s1 + 0x80] = a0\n 19970: a0 = u64 [a2 + 0x18]\n 19973: u64 [s1 + 0x90] = a0\n 19977: a0 = u64 [a2 + 0x8]\n 19980: u64 [s1 + 0x88] = a0\n 19984: a0 = u64 [a1 + 0x18]\n 19987: a2 = u64 [a1 + 0x10]\n 19990: a3 = u64 [a1 + 0x8]\n 19993: a1 = u64 [a1]\n 19995: u64 [s1 + 0x70] = a0\n 19998: u64 [s1 + 0x1b8] = a0\n 20002: u64 [s1 + 0x68] = a2\n 20005: u64 [s1 + 0x1b0] = a2\n 20009: u64 [s1 + 0x60] = a3\n 20012: u64 [s1 + 0x1a8] = a3\n 20016: u64 [s1 + 0x38] = a1\n 20019: u64 [s1 + 0x1a0] = a1\n 20023: a0 = s1 + 0x180\n 20027: a1 = s1 + 0x1a0\n 20031: ra = 606, jump @21\n      : @592 [@dyn 303] (gas: 16)\n 20037: a4 = s1 + 0x100\n 20041: a0 = u64 [a4 + 0x98]\n 20045: a1 = u64 [a4 + 0x90]\n 20049: a2 = u64 [a4 + 0x88]\n 20053: a3 = u64 [a4 + 0x80]\n 20057: u64 [s1 + 0x30] = a0\n 20060: u64 [a4 + 0x58] = a0\n 20063: u64 [s1 + 0x28] = a1\n 20066: u64 [a4 + 0x50] = a1\n 20069: u64 [s1 + 0x20] = a2\n 20072: u64 [a4 + 0x48] = a2\n 20075: a0 = s1 + 0x160\n 20079: a1 = s1 + 0x140\n 20083: u64 [s1 + 0x78] = a3\n 20086: u64 [a4 + 0x40] = a3\n 20089: ra = 608, jump @582\n      : @593 [@dyn 304] (gas: 12)\n 20095: a0 = u64 [s1 + 0x80]\n 20099: a1 = u64 [s1 + 0x90]\n 20103: a2 = u64 [s1 + 0x88]\n 20107: a2 = a2 | a1\n 20110: a3 = u64 [s1 + 0x98]\n 20114: a1 = a0 | a3\n 20117: a1 = a1 | a2\n 20120: a1 = a1 >> 0x20\n 20123: a2 = a2 | a3\n 20126: a2 = a2 << 0x20\n 20129: a1 = a1 | a2\n 20132: jump @610 if a1 != 0\n      : @594 (gas: 15)\n 20136: a5 = s1 + 0x100\n 20140: a4 = u64 [a5 + 0x78]\n 20143: a2 = u64 [a5 + 0x70]\n 20146: a1 = u64 [a5 + 0x68]\n 20149: a3 = u64 [a5 + 0x60]\n 20152: u64 [s1 + 0x40] = a3\n 20155: u64 [a5 + 0x20] = a3\n 20158: u64 [s1 + 0x50] = a1\n 20161: u64 [a5 + 0x28] = a1\n 20164: u64 [s1 + 0x48] = a2\n 20167: u64 [a5 + 0x30] = a2\n 20170: a1 = s1 + 0x120\n 20174: u64 [s1 + 0x58] = a4\n 20177: u64 [a5 + 0x38] = a4\n 20180: ra = 610, jump @19\n      : @595 [@dyn 305] (gas: 3)\n 20186: a3 = u64 [s1 + 0x78]\n 20189: a0 = a3 & 0x1\n 20192: jump @599 if a0 != 0\n      : @596 (gas: 10)\n 20196: a0 = u64 [s1 + 0x90]\n 20200: a1 = u64 [s1 + 0x98]\n 20204: a0 = a0 | a1\n 20207: a1 = 0xffffffe0\n 20217: a4 = u64 [s1 + 0x80]\n 20221: a1 = a4 <u a1\n 20224: a2 = u64 [s1 + 0x88]\n 20228: a1 = 0 if a2 != 0\n 20230: a1 = 0 if a0 != 0\n 20232: jump @610 if a1 == 0\n      : @597 (gas: 11)\n 20236: a1 = a3 & 0xffffffffffffff00\n 20240: i32 a0 = a4 + 0x20\n 20243: a3 = u64 [s1 + 0x20]\n 20246: u64 [s1 + 0xa8] = a3\n 20250: u64 [s1 + 0xa0] = a1\n 20254: a1 = u64 [s1 + 0x28]\n 20257: u64 [s1 + 0xb0] = a1\n 20261: a1 = s1 + 0xa0\n 20265: a3 = u64 [s1 + 0x30]\n 20268: u64 [s1 + 0xb8] = a3\n 20272: ra = 612, jump @19\n      : @598 [@dyn 306] (gas: 26)\n 20278: ra = 0\n 20280: t1 = 0\n 20282: t0 = 0\n 20284: a0 = u64 [s1 + 0x48]\n 20287: a1 = u64 [s1 + 0x40]\n 20290: a0 = a0 | a1\n 20293: a1 = u64 [s1 + 0x58]\n 20296: a2 = u64 [s1 + 0x50]\n 20299: a1 = a1 | a2\n 20302: a0 = a0 | a1\n 20305: a1 = u64 [s1 + 0x80]\n 20309: a3 = a1 + 0x20\n 20312: a1 = a3 <u a1\n 20315: a2 = u64 [s1 + 0x88]\n 20319: a4 = a2 + a1\n 20322: a2 = a4 <u a2\n 20325: a2 = a1 if a1 == 0\n 20328: a1 = u64 [s1 + 0x98]\n 20332: a5 = a1 + a2\n 20335: a1 = a5 <u a1\n 20338: a2 = u64 [s1 + 0x90]\n 20342: a1 = a1 + a2\n 20345: u64 [s1 + 0x38] = a1\n 20348: a0 = a0 >u 0\n 20350: t2 = a0 << 0x5\n 20353: jump @609\n      : @599 (gas: 12)\n 20356: a0 = u64 [s1 + 0x38]\n 20359: a2 = s1 + 0x100\n 20363: u64 [a2] = a0\n 20365: a0 = u64 [s1 + 0x60]\n 20368: u64 [a2 + 0x8] = a0\n 20371: a0 = u64 [s1 + 0x68]\n 20374: u64 [a2 + 0x10] = a0\n 20377: a1 = s1 + 0x100\n 20381: a0 = u64 [s1 + 0x70]\n 20384: u64 [a2 + 0x18] = a0\n 20387: a0 = 0\n 20389: ra = 614, jump @19\n      : @600 [@dyn 307] (gas: 6)\n 20395: a0 = sp + 0xffffffffffffffe0\n 20398: a0 = a0 & 0xffffffffffffffe0\n 20401: u64 [s1 + 0x30] = a0\n 20404: sp = a0\n 20406: a1 = i32 [0x20064]\n 20411: jump @602 if a1 >u 31\n      : @601 (gas: 2)\n 20415: u32 [0x20064] = 0x20\n 20421: fallthrough\n      : @602 (gas: 49)\n 20422: a0 = sp + 0xffffffffffffffe0\n 20425: a2 = a0 & 0xffffffffffffffe0\n 20428: u64 [s1 + 0x78] = a2\n 20431: sp = a2\n 20433: a0 = 0x20070\n 20438: i32 a0 = a0 + 0\n 20440: i32 a2 = a2 + 0\n 20442: a1 = 0x20\n 20445: ecalli 6 // 'hash_keccak_256'\n 20447: a5 = 0\n 20449: ra = 0\n 20451: t1 = 0\n 20453: t0 = 0\n 20455: a0 = u64 [s1 + 0x80]\n 20459: a1 = a0 + 0x20\n 20462: u64 [s1 + 0x28] = a1\n 20465: a0 = a1 <u a0\n 20468: a1 = u64 [s1 + 0x88]\n 20472: a2 = a1 + a0\n 20475: u64 [s1 + 0x20] = a2\n 20478: a1 = a2 <u a1\n 20481: a1 = a0 if a0 == 0\n 20484: a0 = u64 [s1 + 0x98]\n 20488: a1 = a1 + a0\n 20491: u64 [s1 + 0x18] = a1\n 20494: a0 = a1 <u a0\n 20497: a1 = u64 [s1 + 0x90]\n 20501: a0 = a0 + a1\n 20504: u64 [s1 + 0x38] = a0\n 20507: a3 = u64 [s1 + 0x78]\n 20510: a0 = u64 [a3 + 0x18]\n 20513: a1 = u64 [a3 + 0x10]\n 20516: a2 = u64 [a3 + 0x8]\n 20519: a3 = u64 [a3]\n 20521: a0 = reverse a0\n 20523: a4 = reverse a1\n 20525: t2 = reverse a2\n 20527: a2 = reverse a3\n 20529: a1 = u64 [s1 + 0x30]\n 20532: a3 = a2\n 20534: u64 [a1 + 0x18] = a2\n 20537: a2 = t2\n 20539: u64 [s1 + 0x60] = a2\n 20542: u64 [a1 + 0x10] = a2\n 20545: u64 [s1 + 0x70] = a4\n 20548: u64 [a1 + 0x8] = a4\n 20551: a2 = a0\n 20553: u64 [a1] = a0\n 20555: fallthrough\n      : @603 (gas: 19)\n 20556: u64 [s1 + 0x68] = a3\n 20559: u64 [s1 + 0x78] = a2\n 20562: a0 = u64 [s1 + 0x40]\n 20565: a0 = a5 <u a0\n 20568: a2 = u64 [s1 + 0x50]\n 20571: a3 = ra ^ a2\n 20574: a2 = ra <u a2\n 20577: a2 = a0 if a3 == 0\n 20580: a4 = u64 [s1 + 0x48]\n 20583: a0 = t1 <u a4\n 20586: a3 = u64 [s1 + 0x58]\n 20589: t2 = a5\n 20591: a5 = t0 ^ a3\n 20594: a3 = t0 <u a3\n 20597: a3 = a0 if a5 == 0\n 20600: a0 = t1 ^ a4\n 20603: a0 = a0 | a5\n 20606: a3 = a2 if a0 == 0\n 20609: jump @608 if a3 == 0\n      : @604 (gas: 6)\n 20613: a0 = s1 + 0xe0\n 20617: u64 [s1 + 0x98] = t0\n 20621: u64 [s1 + 0x90] = t1\n 20625: u64 [s1 + 0x88] = ra\n 20629: u64 [s1 + 0x80] = t2\n 20633: ra = 616, jump @21\n      : @605 [@dyn 308] (gas: 30)\n 20639: a1 = u64 [s1 + 0x28]\n 20642: a0 = u64 [s1 + 0x80]\n 20646: a0 = a0 + a1\n 20649: a1 = a0 <u a1\n 20652: a4 = u64 [s1 + 0x20]\n 20655: a2 = u64 [s1 + 0x88]\n 20659: a2 = a2 + a4\n 20662: a2 = a2 + a1\n 20665: a3 = a2 ^ a4\n 20668: a4 = a2 <u a4\n 20671: a4 = a1 if a3 == 0\n 20674: a3 = u64 [s1 + 0x18]\n 20677: a1 = u64 [s1 + 0x90]\n 20681: a1 = a1 + a3\n 20684: t0 = a1 <u a3\n 20687: a5 = u64 [s1 + 0x38]\n 20690: a3 = u64 [s1 + 0x98]\n 20694: a5 = a5 + a3\n 20697: a3 = a5 + t0\n 20700: a4 = a4 + a1\n 20703: a1 = a4 <u a1\n 20706: a1 = a1 + a3\n 20709: a1 = a1 | a2\n 20712: a2 = a0 | a4\n 20715: a2 = a2 | a1\n 20718: a1 = a1 | a4\n 20721: a2 = a2 >> 0x20\n 20724: a1 = a1 << 0x20\n 20727: a1 = a1 | a2\n 20730: jump @610 if a1 != 0\n      : @606 (gas: 10)\n 20734: a2 = u64 [s1 + 0xf8]\n 20738: a1 = u64 [s1 + 0xf0]\n 20742: a3 = u64 [s1 + 0xe8]\n 20746: a4 = u64 [s1 + 0xe0]\n 20750: u64 [s1 + 0xc0] = a4\n 20754: u64 [s1 + 0xc8] = a3\n 20758: u64 [s1 + 0xd0] = a1\n 20762: a1 = s1 + 0xc0\n 20766: u64 [s1 + 0xd8] = a2\n 20770: ra = 618, jump @19\n      : @607 [@dyn 309] (gas: 37)\n 20776: a5 = u64 [s1 + 0x78]\n 20779: a5 = a5 + 0x1\n 20782: a0 = a5 <u 0x1\n 20785: a3 = u64 [s1 + 0x70]\n 20788: a3 = a3 + a0\n 20791: a0 = a5 | a3\n 20794: a0 = a0 <u 0x1\n 20797: a1 = u64 [s1 + 0x60]\n 20800: t1 = a1 + a0\n 20803: a1 = t1 <u a1\n 20806: a0 = u64 [s1 + 0x68]\n 20809: a0 = a0 + a1\n 20812: a1 = u64 [s1 + 0x80]\n 20816: t2 = a1 + 0x20\n 20819: a2 = t2 <u a1\n 20822: a1 = u64 [s1 + 0x88]\n 20826: ra = a1 + a2\n 20829: a4 = ra <u a1\n 20832: a4 = a2 if a2 == 0\n 20835: a1 = u64 [s1 + 0x90]\n 20839: a4 = a4 + a1\n 20842: a2 = a4 <u a1\n 20845: t0 = u64 [s1 + 0x98]\n 20849: t0 = t0 + a2\n 20852: u64 [s1 + 0x70] = a3\n 20855: a1 = u64 [s1 + 0x30]\n 20858: u64 [a1 + 0x8] = a3\n 20861: a2 = a5\n 20863: u64 [a1] = a5\n 20865: a5 = t1\n 20867: u64 [a1 + 0x10] = a5\n 20870: a3 = a0\n 20872: u64 [a1 + 0x18] = a0\n 20875: u64 [s1 + 0x60] = a5\n 20878: a5 = t2\n 20880: t1 = a4\n 20882: jump @603\n      : @608 (gas: 4)\n 20885: a3 = u64 [s1 + 0x28]\n 20888: a4 = u64 [s1 + 0x20]\n 20891: a5 = u64 [s1 + 0x18]\n 20894: fallthrough\n      : @609 (gas: 26)\n 20895: a0 = a3 + t2\n 20898: a1 = a0 <u a3\n 20901: a2 = a4 + ra\n 20904: a2 = a2 + a1\n 20907: a3 = a2 ^ a4\n 20910: a4 = a2 <u a4\n 20913: a4 = a1 if a3 == 0\n 20916: a1 = a5 + t1\n 20919: a4 = a4 + a1\n 20922: a3 = a4 <u a1\n 20925: a1 = a1 <u a5\n 20928: a5 = u64 [s1 + 0x38]\n 20931: a5 = a5 + t0\n 20934: a1 = a1 + a5\n 20937: a1 = a1 + a3\n 20940: a3 = u64 [s1 + 0x10]\n 20943: u64 [a3] = a0\n 20945: u64 [a3 + 0x8] = a2\n 20948: u64 [a3 + 0x10] = a4\n 20951: u64 [a3 + 0x18] = a1\n 20954: sp = s0 + 0xfffffffffffffe20\n 20958: ra = u64 [sp + 0x1d8]\n 20962: s0 = u64 [sp + 0x1d0]\n 20966: s1 = u64 [sp + 0x1c8]\n 20970: sp = sp + 0x1e0\n 20974: ret\n      : @610 (gas: 1)\n 20976: trap\n      : @611 (gas: 19)\n 20977: sp = sp + 0xffffffffffffff90\n 20980: u64 [sp + 0x68] = ra\n 20983: u64 [sp + 0x60] = s0\n 20986: s0 = sp + 0x70\n 20989: sp = sp & 0xfffffffffffffff0\n 20992: a3 = u64 [a0 + 0x18]\n 20995: a2 = u64 [a0 + 0x10]\n 20998: t1 = u64 [a0]\n 21000: a0 = u64 [a0 + 0x8]\n 21003: a4 = a3 >u 0\n 21005: a5 = a2 >u 0\n 21007: a5 = a4 if a3 != 0\n 21010: t0 = a0 >u 0\n 21012: a4 = t1 <u 0xffffffffffffffa0\n 21015: a4 = a4 ^ 0x1\n 21018: a4 = t0 if a0 != 0\n 21021: a1 = a2 | a3\n 21024: a4 = a5 if a1 != 0\n 21027: jump @614 if a4 != 0\n      : @612 (gas: 15)\n 21030: a1 = t1 + 0x60\n 21033: a4 = a1 <u t1\n 21036: a5 = a0 + a4\n 21039: a0 = a5 <u a0\n 21042: a0 = a4 if a4 == 0\n 21045: a0 = a0 + a2\n 21048: a2 = a0 <u a2\n 21051: a2 = a2 + a3\n 21054: u64 [sp + 0x40] = a1\n 21057: u64 [sp + 0x48] = a5\n 21060: u64 [sp + 0x50] = a0\n 21063: a0 = 0x40\n 21066: a1 = sp + a0\n 21069: u64 [sp + 0x58] = a2\n 21072: ra = 620, jump @19\n      : @613 [@dyn 310] (gas: 5)\n 21078: sp = s0 + 0xffffffffffffff90\n 21081: ra = u64 [sp + 0x68]\n 21084: s0 = u64 [sp + 0x60]\n 21087: sp = sp + 0x70\n 21090: ret\n      : @614 (gas: 1)\n 21092: t0 = 622, jump @739\n      : @615 [@dyn 311] (gas: 1)\n 21098: ra = 624, jump @19\n      : @616 [@dyn 312] (gas: 7)\n 21104: u64 [sp + 24] = 0\n 21107: u64 [sp + 16] = 0\n 21110: u64 [sp + 0] = 0x41\n 21113: a0 = 0x4\n 21116: a1 = sp\n 21118: u64 [sp + 8] = 0\n 21121: ra = 626, jump @19\n      : @617 [@dyn 313] (gas: 2)\n 21127: a1 = i32 [0x20064]\n 21132: jump @619 if a1 >u 63\n      : @618 (gas: 2)\n 21136: u32 [0x20064] = 0x40\n 21142: fallthrough\n      : @619 (gas: 7)\n 21143: a1 = 0x20070\n 21148: i32 a1 = a1 + 0\n 21150: a0 = 0x1\n 21153: a2 = 0x24\n 21156: ra = 0x274\n 21160: ecalli 7 // 'seal_return'\n 21162: fallthrough\n      : @620 [@dyn 314] (gas: 46)\n 21163: sp = sp + 0xffffffffffffff70\n 21167: u64 [sp + 0x88] = ra\n 21171: u64 [sp + 0x80] = s0\n 21175: u64 [sp + 0x78] = s1\n 21178: s0 = sp + 0x90\n 21182: sp = sp & 0xfffffffffffffff0\n 21185: t0 = a0\n 21187: a2 = u64 [a1]\n 21189: t2 = u64 [a0 + 0x8]\n 21192: a5 = u64 [a1 + 0x8]\n 21195: t1 = u64 [a0]\n 21197: a3 = a2 + 0x1f\n 21200: ra = a3 <u a2\n 21203: a2 = a5 + ra\n 21206: a3 = a3 & 0xffffffffffffffe0\n 21209: u64 [sp + 0x8] = t1\n 21212: t1 = t1 + a3\n 21215: a4 = t1 <u a3\n 21218: a3 = a2 + t2\n 21221: a3 = a3 + a4\n 21224: s1 = a3 ^ a2\n 21227: a0 = a3 <u a2\n 21230: a0 = a4 if s1 == 0\n 21233: a4 = u64 [t0 + 0x18]\n 21236: a5 = a2 <u a5\n 21239: s1 = u64 [a1 + 0x10]\n 21242: t0 = u64 [t0 + 0x10]\n 21245: a1 = u64 [a1 + 0x18]\n 21248: a5 = ra if ra == 0\n 21251: a5 = a5 + s1\n 21254: s1 = a5 <u s1\n 21257: a2 = a5 + t0\n 21260: a0 = a0 + a2\n 21263: a5 = a2 <u a5\n 21266: a2 = a0 <u a2\n 21269: a1 = a1 + a4\n 21272: a1 = a1 + s1\n 21275: a1 = a1 + a5\n 21278: a5 = a1 + a2\n 21281: a1 = a5 >u 0\n 21283: a2 = a0 >u 0\n 21285: a2 = a1 if a5 != 0\n 21288: a1 = a0 | a5\n 21291: s1 = a3 >u 0\n 21293: s1 = a2 if a1 != 0\n 21296: jump @624 if s1 != 0\n      : @621 (gas: 13)\n 21299: a1 = u64 [sp + 0x8]\n 21302: a1 = t1 <u a1\n 21305: a2 = a3 ^ t2\n 21308: s1 = a3 <u t2\n 21311: s1 = a1 if a2 == 0\n 21314: a1 = a0 <u t0\n 21317: a2 = a5 ^ a4\n 21320: a4 = a5 <u a4\n 21323: a4 = a1 if a2 == 0\n 21326: a1 = a0 ^ t0\n 21329: a1 = a1 | a2\n 21332: a4 = s1 if a1 == 0\n 21335: jump @624 if a4 != 0\n      : @622 (gas: 7)\n 21338: u64 [sp + 0x50] = t1\n 21341: u64 [sp + 0x58] = a3\n 21344: u64 [sp + 0x60] = a0\n 21347: a0 = 0x40\n 21350: a1 = sp + 0x50\n 21353: u64 [sp + 0x68] = a5\n 21356: ra = 630, jump @19\n      : @623 [@dyn 315] (gas: 6)\n 21362: sp = s0 + 0xffffffffffffff70\n 21366: ra = u64 [sp + 0x88]\n 21370: s0 = u64 [sp + 0x80]\n 21374: s1 = u64 [sp + 0x78]\n 21377: sp = sp + 0x90\n 21381: ret\n      : @624 (gas: 8)\n 21383: u64 [sp + 64] = 0\n 21386: u64 [sp + 56] = 0\n 21389: u64 [sp + 48] = 0\n 21392: a0 = 0x4e487b7100000000\n 21402: a1 = sp + 0x30\n 21405: u64 [sp + 0x48] = a0\n 21408: a0 = 0\n 21410: ra = 632, jump @19\n      : @625 [@dyn 316] (gas: 7)\n 21416: u64 [sp + 40] = 0\n 21419: u64 [sp + 32] = 0\n 21422: u64 [sp + 16] = 0x41\n 21426: a0 = 0x4\n 21429: a1 = sp + 0x10\n 21432: u64 [sp + 24] = 0\n 21435: ra = 634, jump @19\n      : @626 [@dyn 317] (gas: 2)\n 21441: a1 = i32 [0x20064]\n 21446: jump @628 if a1 >u 63\n      : @627 (gas: 2)\n 21450: u32 [0x20064] = 0x40\n 21456: fallthrough\n      : @628 (gas: 7)\n 21457: a1 = 0x20070\n 21462: i32 a1 = a1 + 0\n 21464: a0 = 0x1\n 21467: a2 = 0x24\n 21470: ra = 0x27c\n 21474: ecalli 7 // 'seal_return'\n 21476: fallthrough\n      : @629 [@dyn 318] (gas: 21)\n 21477: sp = sp + 0xffffffffffffff10\n 21481: u64 [sp + 0xe8] = ra\n 21485: u64 [sp + 0xe0] = s0\n 21489: u64 [sp + 0xd8] = s1\n 21493: s0 = sp + 0xf0\n 21497: sp = sp & 0xfffffffffffffff0\n 21500: a5 = u64 [a1 + 0x10]\n 21503: a4 = u64 [a1 + 0x18]\n 21506: a3 = u64 [a1 + 0x8]\n 21509: a1 = u64 [a1]\n 21511: u64 [sp + 0x28] = a3\n 21514: u64 [sp + 0x18] = a4\n 21517: a4 = a4 | a3\n 21520: a3 = a1 | a5\n 21523: a3 = a3 | a4\n 21526: a3 = a3 >> 0x20\n 21529: u64 [sp + 0x20] = a5\n 21532: a4 = a4 | a5\n 21535: a4 = a4 << 0x20\n 21538: a3 = a3 | a4\n 21541: jump @642 if a3 != 0\n      : @630 (gas: 11)\n 21545: u64 [sp + 0x8] = a0\n 21548: a0 = u64 [a2 + 0x18]\n 21551: u64 [sp + 0x68] = a0\n 21554: s1 = u64 [a2 + 0x10]\n 21557: a0 = u64 [a2 + 0x8]\n 21560: u64 [sp + 0x60] = a0\n 21563: a0 = u64 [a2]\n 21565: u64 [sp + 0x58] = a0\n 21568: a0 = sp + 0xb0\n 21572: u64 [sp + 0x10] = a1\n 21575: ra = 638, jump @17\n      : @631 [@dyn 319] (gas: 12)\n 21581: a0 = u64 [sp + 0x58]\n 21584: a2 = a0 | s1\n 21587: a1 = u64 [sp + 0x68]\n 21590: a3 = u64 [sp + 0x60]\n 21593: a1 = a1 | a3\n 21596: a2 = a2 | a1\n 21599: a2 = a2 >> 0x20\n 21602: u64 [sp + 0x50] = s1\n 21605: a1 = a1 | s1\n 21608: a1 = a1 << 0x20\n 21611: a1 = a1 | a2\n 21614: jump @642 if a1 != 0\n      : @632 (gas: 15)\n 21618: a2 = u64 [sp + 0xc8]\n 21622: a3 = u64 [sp + 0xc0]\n 21626: a4 = u64 [sp + 0xb8]\n 21630: a1 = u64 [sp + 0xb0]\n 21634: u64 [sp + 0x30] = a1\n 21637: u64 [sp + 0x90] = a1\n 21641: u64 [sp + 0x38] = a4\n 21644: u64 [sp + 0x98] = a4\n 21648: u64 [sp + 0x40] = a3\n 21651: u64 [sp + 0xa0] = a3\n 21655: a1 = sp + 0x90\n 21659: u64 [sp + 0x48] = a2\n 21662: u64 [sp + 0xa8] = a2\n 21666: s1 = a0\n 21668: ra = 640, jump @19\n      : @633 [@dyn 320] (gas: 9)\n 21674: a0 = u64 [sp + 0x68]\n 21677: a1 = u64 [sp + 0x50]\n 21680: a1 = a1 | a0\n 21683: a0 = 0xffffffe0\n 21693: a2 = s1 <u a0\n 21696: a3 = u64 [sp + 0x60]\n 21699: a2 = 0 if a3 != 0\n 21701: a2 = 0 if a1 != 0\n 21703: jump @642 if a2 == 0\n      : @634 (gas: 9)\n 21707: a1 = u64 [sp + 0x20]\n 21710: a2 = u64 [sp + 0x18]\n 21713: a1 = a1 | a2\n 21716: a2 = u64 [sp + 0x10]\n 21719: a0 = a2 <u a0\n 21722: a3 = u64 [sp + 0x28]\n 21725: a0 = 0 if a3 != 0\n 21727: a0 = 0 if a1 != 0\n 21729: jump @642 if a0 == 0\n      : @635 (gas: 13)\n 21733: a5 = s1\n 21735: s1 = u64 [sp + 0x30]\n 21738: a3 = u64 [sp + 0x40]\n 21741: a0 = s1 | a3\n 21744: a1 = u64 [sp + 0x48]\n 21747: a4 = u64 [sp + 0x38]\n 21750: a1 = a1 | a4\n 21753: a0 = a0 | a1\n 21756: a0 = a0 >> 0x20\n 21759: a1 = a1 | a3\n 21762: a1 = a1 << 0x20\n 21765: a0 = a0 | a1\n 21768: jump @642 if a0 != 0\n      : @636 (gas: 5)\n 21772: i32 a0 = a5 + 0x20\n 21775: i32 a1 = a2 + 0x20\n 21778: u64 [sp + 0x28] = a1\n 21781: a1 = s1\n 21783: ra = 642, jump @26\n      : @637 [@dyn 321] (gas: 4)\n 21789: u64 [sp + 0x20] = a0\n 21792: a0 = u64 [sp + 0x28]\n 21795: a1 = s1\n 21797: ra = 644, jump @26\n      : @638 [@dyn 322] (gas: 4)\n 21803: a1 = a0\n 21805: a0 = u64 [sp + 0x20]\n 21808: a2 = s1\n 21810: ra = 646, jump @0\n      : @639 [@dyn 323] (gas: 27)\n 21816: a0 = u64 [sp + 0x58]\n 21819: a0 = a0 + s1\n 21822: a1 = a0 <u s1\n 21825: a2 = u64 [sp + 0x60]\n 21828: a4 = u64 [sp + 0x38]\n 21831: a2 = a2 + a4\n 21834: a2 = a2 + a1\n 21837: a3 = a2 ^ a4\n 21840: a4 = a2 <u a4\n 21843: a4 = a1 if a3 == 0\n 21846: a1 = u64 [sp + 0x50]\n 21849: a3 = u64 [sp + 0x40]\n 21852: a1 = a1 + a3\n 21855: a3 = a1 <u a3\n 21858: a5 = u64 [sp + 0x68]\n 21861: s1 = u64 [sp + 0x48]\n 21864: a5 = a5 + s1\n 21867: a3 = a3 + a5\n 21870: a4 = a4 + a1\n 21873: a1 = a4 <u a1\n 21876: a1 = a1 + a3\n 21879: a1 = a1 | a4\n 21882: a3 = 0xffffffe0\n 21892: a3 = a0 <u a3\n 21895: a3 = 0 if a2 != 0\n 21897: a3 = 0 if a1 != 0\n 21899: jump @642 if a3 == 0\n      : @640 (gas: 7)\n 21903: i32 a0 = a0 + 0x20\n 21906: u64 [sp + 136] = 0\n 21910: u64 [sp + 128] = 0\n 21914: u64 [sp + 120] = 0\n 21917: a1 = sp + 0x70\n 21920: u64 [sp + 112] = 0\n 21923: ra = 648, jump @19\n      : @641 [@dyn 324] (gas: 35)\n 21929: s1 = u64 [sp + 0x30]\n 21932: s1 = s1 + 0x1f\n 21935: a0 = 0x1ffffffe0\n 21945: a0 = a0 & s1\n 21948: a1 = u64 [sp + 0x58]\n 21951: a0 = a0 + a1\n 21954: a1 = a0 <u a1\n 21957: a3 = u64 [sp + 0x60]\n 21960: a2 = a3 + a1\n 21963: a3 = a2 <u a3\n 21966: a3 = a1 if a1 == 0\n 21969: a1 = u64 [sp + 0x50]\n 21972: a3 = a3 + a1\n 21975: a1 = a3 <u a1\n 21978: a4 = u64 [sp + 0x68]\n 21981: a1 = a1 + a4\n 21984: a4 = a0 + 0x20\n 21987: a0 = a4 <u a0\n 21990: a5 = a2 + a0\n 21993: a2 = a5 <u a2\n 21996: a2 = a0 if a0 == 0\n 21999: a2 = a2 + a3\n 22002: a0 = a2 <u a3\n 22005: a0 = a0 + a1\n 22008: a1 = u64 [sp + 0x8]\n 22011: u64 [a1] = a4\n 22013: u64 [a1 + 0x8] = a5\n 22016: u64 [a1 + 0x10] = a2\n 22019: u64 [a1 + 0x18] = a0\n 22022: sp = s0 + 0xffffffffffffff10\n 22026: ra = u64 [sp + 0xe8]\n 22030: s0 = u64 [sp + 0xe0]\n 22034: s1 = u64 [sp + 0xd8]\n 22038: sp = sp + 0xf0\n 22042: ret\n      : @642 (gas: 1)\n 22044: trap\n      : @643 (gas: 22)\n 22045: sp = sp + 0xfffffffffffffdd0\n 22049: a3 = sp + 0x200\n 22053: u64 [a3 + 0x28] = ra\n 22056: u64 [a3 + 0x20] = s0\n 22059: u64 [a3 + 0x18] = s1\n 22062: s0 = sp + 0x230\n 22066: sp = sp & 0xfffffffffffffff0\n 22069: s1 = u64 [a1 + 0x10]\n 22072: a3 = u64 [a1 + 0x18]\n 22075: a5 = u64 [a1 + 0x8]\n 22078: a4 = u64 [a1]\n 22080: u64 [sp + 0x48] = a3\n 22083: u64 [sp + 0x68] = a5\n 22086: a1 = a5 | a3\n 22089: a3 = a4 | s1\n 22092: a3 = a3 | a1\n 22095: a3 = a3 >> 0x20\n 22098: u64 [sp + 0x38] = s1\n 22101: a1 = a1 | s1\n 22104: a1 = a1 << 0x20\n 22107: a1 = a1 | a3\n 22110: jump @660 if a1 != 0\n      : @644 (gas: 16)\n 22114: u64 [sp + 0x18] = a0\n 22117: a0 = u64 [a2 + 0x18]\n 22120: u64 [sp + 0x40] = a0\n 22123: s1 = u64 [a2 + 0x10]\n 22126: a0 = u64 [a2 + 0x8]\n 22129: u64 [sp + 0x58] = a0\n 22132: a0 = u64 [a2]\n 22134: u64 [sp + 0x60] = a0\n 22137: u64 [sp + 520] = 0\n 22141: u64 [sp + 512] = 0\n 22145: u64 [sp + 504] = 0\n 22149: a1 = sp + 0x1f0\n 22153: u64 [sp + 496] = 0x20\n 22158: u64 [sp + 0x50] = a4\n 22161: a0 = a4\n 22163: ra = 650, jump @19\n      : @645 [@dyn 325] (gas: 12)\n 22169: a1 = u64 [sp + 0x60]\n 22172: a0 = a1 | s1\n 22175: a2 = u64 [sp + 0x40]\n 22178: a3 = u64 [sp + 0x58]\n 22181: a2 = a2 | a3\n 22184: a0 = a0 | a2\n 22187: a0 = a0 >> 0x20\n 22190: u64 [sp + 0x28] = s1\n 22193: a2 = a2 | s1\n 22196: a2 = a2 << 0x20\n 22199: a0 = a0 | a2\n 22202: jump @660 if a0 != 0\n      : @646 (gas: 2)\n 22206: a0 = sp + 0x1d0\n 22210: ra = 652, jump @17\n      : @647 [@dyn 326] (gas: 11)\n 22216: a0 = u64 [sp + 0x48]\n 22219: a2 = u64 [sp + 0x38]\n 22222: a2 = a2 | a0\n 22225: s1 = 0xffffffe0\n 22235: a4 = u64 [sp + 0x50]\n 22238: a0 = a4 <u s1\n 22241: a1 = u64 [sp + 0x68]\n 22244: a0 = 0 if a1 != 0\n 22246: u64 [sp + 0x30] = a2\n 22249: a0 = 0 if a2 != 0\n 22251: jump @660 if a0 == 0\n      : @648 (gas: 12)\n 22255: a0 = u64 [sp + 0x1e0]\n 22259: a1 = u64 [sp + 0x1d8]\n 22263: a2 = u64 [sp + 0x1d0]\n 22267: a0 = a0 << 0x20\n 22270: a3 = a0 >> 0x20\n 22273: i32 a0 = a4 + 0x20\n 22276: u64 [sp + 456] = 0\n 22280: u64 [sp + 0x1b0] = a2\n 22284: u64 [sp + 0x1b8] = a1\n 22288: a1 = sp + 0x1b0\n 22292: u64 [sp + 0x1c0] = a3\n 22296: ra = 654, jump @19\n      : @649 [@dyn 327] (gas: 10)\n 22302: a0 = u64 [sp + 0x40]\n 22305: a3 = u64 [sp + 0x28]\n 22308: a3 = a3 | a0\n 22311: a1 = u64 [sp + 0x60]\n 22314: a0 = a1 <u s1\n 22317: a2 = u64 [sp + 0x58]\n 22320: a0 = 0 if a2 != 0\n 22322: u64 [sp + 0x40] = a3\n 22325: a0 = 0 if a3 != 0\n 22327: jump @660 if a0 == 0\n      : @650 (gas: 3)\n 22331: i32 a1 = a1 + 0x20\n 22334: a0 = sp + 0x190\n 22338: ra = 656, jump @17\n      : @651 [@dyn 328] (gas: 9)\n 22344: a0 = 0xffffffc0\n 22354: a2 = u64 [sp + 0x50]\n 22357: u64 [sp + 0x28] = a0\n 22360: a0 = a2 <u a0\n 22363: a1 = u64 [sp + 0x68]\n 22366: a0 = 0 if a1 != 0\n 22368: a1 = u64 [sp + 0x30]\n 22371: a0 = 0 if a1 != 0\n 22373: jump @660 if a0 == 0\n      : @652 (gas: 16)\n 22377: a0 = u64 [sp + 0x1a8]\n 22381: u64 [sp] = a0\n 22383: a0 = u64 [sp + 0x1a0]\n 22387: u64 [sp + 0x8] = a0\n 22390: a0 = u64 [sp + 0x198]\n 22394: u64 [sp + 0x10] = a0\n 22397: a0 = u64 [sp + 0x190]\n 22401: u64 [sp + 0x20] = a0\n 22404: i32 a0 = a2 + 0x40\n 22407: u64 [sp + 392] = 0\n 22411: u64 [sp + 384] = 0\n 22415: u64 [sp + 368] = 0x60\n 22420: a1 = sp + 0x170\n 22424: u64 [sp + 376] = 0\n 22428: s1 = a2\n 22430: ra = 658, jump @19\n      : @653 [@dyn 329] (gas: 27)\n 22436: a0 = s1 + 0x80\n 22440: a1 = a0 <u s1\n 22443: a3 = u64 [sp + 0x68]\n 22446: a2 = a3 + a1\n 22449: a3 = a2 <u a3\n 22452: a3 = a1 if a1 == 0\n 22455: s1 = u64 [sp + 0x38]\n 22458: a3 = a3 + s1\n 22461: a1 = a3 <u s1\n 22464: a4 = u64 [sp + 0x48]\n 22467: a4 = a4 + a1\n 22470: u64 [sp + 0x118] = a2\n 22474: u64 [sp + 0x110] = a0\n 22478: a0 = u64 [sp]\n 22480: u64 [sp + 0x148] = a0\n 22484: a0 = u64 [sp + 0x8]\n 22487: u64 [sp + 0x140] = a0\n 22491: a0 = u64 [sp + 0x10]\n 22494: u64 [sp + 0x138] = a0\n 22498: a0 = u64 [sp + 0x20]\n 22501: u64 [sp + 0x130] = a0\n 22505: u64 [sp + 0x120] = a3\n 22509: a0 = sp + 0x150\n 22513: a1 = sp + 0x130\n 22517: a2 = sp + 0x110\n 22521: u64 [sp + 0x128] = a4\n 22525: ra = 660, jump @629\n      : @654 [@dyn 330] (gas: 8)\n 22531: a1 = u64 [sp + 0x60]\n 22534: a0 = u64 [sp + 0x28]\n 22537: a0 = a1 <u a0\n 22540: a2 = u64 [sp + 0x58]\n 22543: a0 = 0 if a2 != 0\n 22545: a2 = u64 [sp + 0x40]\n 22548: a0 = 0 if a2 != 0\n 22550: jump @660 if a0 == 0\n      : @655 (gas: 11)\n 22554: a0 = u64 [sp + 0x168]\n 22558: u64 [sp + 0x20] = a0\n 22561: a0 = u64 [sp + 0x160]\n 22565: u64 [sp + 0x28] = a0\n 22568: a0 = u64 [sp + 0x158]\n 22572: u64 [sp + 0x40] = a0\n 22575: a0 = u64 [sp + 0x150]\n 22579: u64 [sp + 0x58] = a0\n 22582: i32 a1 = a1 + 0x40\n 22585: a0 = sp + 0xf0\n 22589: ra = 662, jump @17\n      : @656 [@dyn 331] (gas: 8)\n 22595: a0 = 0xffffffa0\n 22605: t0 = u64 [sp + 0x50]\n 22608: a0 = t0 <u a0\n 22611: a3 = u64 [sp + 0x68]\n 22614: a0 = 0 if a3 != 0\n 22616: a1 = u64 [sp + 0x30]\n 22619: a0 = 0 if a1 != 0\n 22621: jump @660 if a0 == 0\n      : @657 (gas: 48)\n 22625: a0 = u64 [sp + 0x108]\n 22629: u64 [sp + 0x60] = a0\n 22632: a0 = u64 [sp + 0x58]\n 22635: a1 = a0 <u t0\n 22638: a4 = a0\n 22640: a5 = u64 [sp + 0x40]\n 22643: a2 = a5 ^ a3\n 22646: a0 = a5 <u a3\n 22649: a0 = a1 if a2 == 0\n 22652: a2 = a5 - a3\n 22655: a3 = a2 - a1\n 22658: a2 = a4 - t0\n 22661: t1 = a2 + 0xffffffffffffffe0\n 22664: a4 = t1 <u a2\n 22667: a2 = a3 + a4\n 22670: a2 = a2 + 0xffffffffffffffff\n 22673: a5 = a2 ^ a3\n 22676: a3 = a2 <u a3\n 22679: a3 = a4 if a5 == 0\n 22682: a4 = u64 [sp + 0x100]\n 22686: u64 [sp + 0x68] = a4\n 22689: a4 = u64 [sp + 0x28]\n 22692: a1 = a4 - s1\n 22695: a5 = a4 <u s1\n 22698: s1 = u64 [sp + 0x48]\n 22701: a4 = u64 [sp + 0x20]\n 22704: s1 = a4 - s1\n 22707: s1 = s1 - a5\n 22710: a5 = a1 <u a0\n 22713: s1 = s1 - a5\n 22716: a4 = u64 [sp + 0xf8]\n 22720: u64 [sp + 0x38] = a4\n 22723: a4 = a1 - a0\n 22726: a0 = a4 <u 0x1\n 22729: s1 = s1 - a0\n 22732: a0 = u64 [sp + 0xf0]\n 22736: u64 [sp + 0x48] = a0\n 22739: a4 = a4 + 0xffffffffffffffff\n 22742: a3 = a3 + a4\n 22745: a0 = a3 <u a4\n 22748: s1 = s1 + a0\n 22751: i32 a0 = t0 + 0x60\n 22754: u64 [sp + 0xd0] = t1\n 22758: u64 [sp + 0xd8] = a2\n 22762: u64 [sp + 0xe0] = a3\n 22766: a1 = sp + 0xd0\n 22770: u64 [sp + 0xe8] = s1\n 22774: ra = 664, jump @19\n      : @658 [@dyn 332] (gas: 20)\n 22780: a0 = u64 [sp + 0x20]\n 22783: u64 [sp + 0x88] = a0\n 22787: a0 = u64 [sp + 0x28]\n 22790: u64 [sp + 0x80] = a0\n 22794: a0 = u64 [sp + 0x40]\n 22797: u64 [sp + 0x78] = a0\n 22800: a0 = u64 [sp + 0x58]\n 22803: u64 [sp + 0x70] = a0\n 22806: a0 = u64 [sp + 0x60]\n 22809: u64 [sp + 0xa8] = a0\n 22813: a0 = u64 [sp + 0x68]\n 22816: u64 [sp + 0xa0] = a0\n 22820: a0 = u64 [sp + 0x38]\n 22823: u64 [sp + 0x98] = a0\n 22827: a0 = sp + 0xb0\n 22831: a1 = sp + 0x90\n 22835: a2 = sp + 0x70\n 22838: a3 = u64 [sp + 0x48]\n 22841: u64 [sp + 0x90] = a3\n 22845: ra = 666, jump @629\n      : @659 [@dyn 333] (gas: 16)\n 22851: a0 = u64 [sp + 0xc0]\n 22855: a1 = u64 [sp + 0xc8]\n 22859: a2 = u64 [sp + 0xb0]\n 22863: a3 = u64 [sp + 0xb8]\n 22867: a4 = u64 [sp + 0x18]\n 22870: u64 [a4 + 0x10] = a0\n 22873: u64 [a4 + 0x18] = a1\n 22876: u64 [a4] = a2\n 22878: u64 [a4 + 0x8] = a3\n 22881: sp = s0 + 0xfffffffffffffdd0\n 22885: a0 = sp + 0x200\n 22889: ra = u64 [a0 + 0x28]\n 22892: s0 = u64 [a0 + 0x20]\n 22895: s1 = u64 [a0 + 0x18]\n 22898: sp = sp + 0x230\n 22902: ret\n      : @660 (gas: 1)\n 22904: trap\n      : @661 (gas: 23)\n 22905: sp = sp + 0xffffffffffffff00\n 22909: u64 [sp + 0xf8] = ra\n 22913: u64 [sp + 0xf0] = s0\n 22917: u64 [sp + 0xe8] = s1\n 22921: s0 = sp + 0x100\n 22925: sp = sp & 0xffffffffffffffe0\n 22928: s1 = sp\n 22930: u64 [s1 + 0x18] = a0\n 22933: a0 = u64 [a1]\n 22935: u64 [s1 + 0x28] = a0\n 22938: a0 = u64 [a1 + 0x8]\n 22941: u64 [s1 + 0x20] = a0\n 22944: a0 = u64 [a1 + 0x10]\n 22947: u64 [s1 + 0x30] = a0\n 22950: a0 = u64 [a1 + 0x18]\n 22953: u64 [s1 + 0x38] = a0\n 22956: u64 [s1 + 216] = 0\n 22960: u64 [s1 + 208] = 0\n 22964: u64 [s1 + 200] = 0\n 22968: u64 [s1 + 192] = 0x1\n 22973: a0 = s1 + 0xa0\n 22977: a1 = s1 + 0xc0\n 22981: ra = 668, jump @21\n      : @662 [@dyn 334] (gas: 20)\n 22987: a0 = u64 [s1 + 0xb8]\n 22991: t0 = u64 [s1 + 0xa0]\n 22995: a2 = u64 [s1 + 0xb0]\n 22999: a3 = u64 [s1 + 0xa8]\n 23003: a1 = u64 [s1 + 0x38]\n 23006: a4 = a0 ^ a1\n 23009: a1 = a1 <u a0\n 23012: a0 = u64 [s1 + 0x30]\n 23015: a5 = a0 <u a2\n 23018: a5 = a1 if a4 != 0\n 23021: a1 = u64 [s1 + 0x20]\n 23024: t1 = a3 ^ a1\n 23027: a3 = a1 <u a3\n 23030: a1 = u64 [s1 + 0x28]\n 23033: a1 = a1 <u t0\n 23036: a1 = a3 if t1 != 0\n 23039: a0 = a0 ^ a2\n 23042: a0 = a0 | a4\n 23045: a1 = a5 if a0 != 0\n 23048: jump @667 if a1 == 0\n      : @663 (gas: 7)\n 23052: u64 [s1 + 88] = 0\n 23055: u64 [s1 + 80] = 0\n 23058: u64 [s1 + 72] = 0\n 23061: a1 = s1 + 0x40\n 23064: u64 [s1 + 64] = 0x1\n 23068: a0 = 0\n 23070: ra = 670, jump @19\n      : @664 [@dyn 335] (gas: 2)\n 23076: a1 = i32 [0x20064]\n 23081: jump @666 if a1 >u 31\n      : @665 (gas: 2)\n 23085: u32 [0x20064] = 0x20\n 23091: fallthrough\n      : @666 (gas: 52)\n 23092: a0 = sp + 0xffffffffffffffe0\n 23095: a2 = a0 & 0xffffffffffffffe0\n 23098: u64 [s1 + 0x10] = a2\n 23101: sp = a2\n 23103: a0 = 0x20070\n 23108: i32 a0 = a0 + 0\n 23110: i32 a2 = a2 + 0\n 23112: a1 = 0x20\n 23115: ecalli 6 // 'hash_keccak_256'\n 23117: a3 = u64 [s1 + 0x10]\n 23120: a0 = u64 [a3]\n 23122: a1 = u64 [a3 + 0x8]\n 23125: a2 = u64 [a3 + 0x18]\n 23128: a3 = u64 [a3 + 0x10]\n 23131: t0 = reverse a0\n 23133: a1 = reverse a1\n 23135: a2 = reverse a2\n 23137: a3 = reverse a3\n 23139: a4 = u64 [s1 + 0x20]\n 23142: a4 = a4 + a3\n 23145: t1 = u64 [s1 + 0x28]\n 23148: t1 = t1 + a2\n 23151: a2 = t1 <u a2\n 23154: a4 = a4 + a2\n 23157: a0 = a4 ^ a3\n 23160: a3 = a4 <u a3\n 23163: a3 = a2 if a0 == 0\n 23166: a0 = u64 [s1 + 0x30]\n 23169: a0 = a0 + a1\n 23172: a3 = a3 + a0\n 23175: a2 = a3 <u a0\n 23178: a5 = u64 [s1 + 0x38]\n 23181: t0 = t0 + a5\n 23184: a0 = a0 <u a1\n 23187: a0 = a0 + t0\n 23190: a0 = a0 + a2\n 23193: a1 = u64 [s1 + 0x18]\n 23196: a2 = 0\n 23198: u64 [a1 + 56] = 0\n 23201: u64 [a1 + 48] = 0\n 23204: u64 [a1 + 40] = 0\n 23207: u64 [a1 + 32] = 0\n 23210: u64 [a1] = t1\n 23212: u64 [a1 + 0x8] = a4\n 23215: u64 [a1 + 0x10] = a3\n 23218: u64 [a1 + 0x18] = a0\n 23221: sp = s0 + 0xffffffffffffff00\n 23225: ra = u64 [sp + 0xf8]\n 23229: s0 = u64 [sp + 0xf0]\n 23233: s1 = u64 [sp + 0xe8]\n 23237: sp = sp + 0x100\n 23241: ret\n      : @667 (gas: 8)\n 23243: u64 [s1 + 144] = 0\n 23247: u64 [s1 + 136] = 0\n 23251: u64 [s1 + 128] = 0\n 23255: a0 = 0x4e487b7100000000\n 23265: a1 = s1 + 0x80\n 23269: u64 [s1 + 0x98] = a0\n 23273: a0 = 0\n 23275: ra = 672, jump @19\n      : @668 [@dyn 336] (gas: 7)\n 23281: u64 [s1 + 120] = 0\n 23284: u64 [s1 + 112] = 0\n 23287: u64 [s1 + 96] = 0x32\n 23291: a0 = 0x4\n 23294: a1 = s1 + 0x60\n 23297: u64 [s1 + 104] = 0\n 23300: ra = 674, jump @19\n      : @669 [@dyn 337] (gas: 2)\n 23306: a1 = i32 [0x20064]\n 23311: jump @671 if a1 >u 63\n      : @670 (gas: 2)\n 23315: u32 [0x20064] = 0x40\n 23321: fallthrough\n      : @671 (gas: 7)\n 23322: a1 = 0x20070\n 23327: i32 a1 = a1 + 0\n 23329: a0 = 0x1\n 23332: a2 = 0x24\n 23335: ra = 0x2a4\n 23339: ecalli 7 // 'seal_return'\n 23341: fallthrough\n      : @672 [@dyn 338] (gas: 37)\n 23342: sp = sp + 0xfffffffffffffe40\n 23346: u64 [sp + 0x1b8] = ra\n 23350: u64 [sp + 0x1b0] = s0\n 23354: u64 [sp + 0x1a8] = s1\n 23358: s0 = sp + 0x1c0\n 23362: sp = sp & 0xffffffffffffffe0\n 23365: ra = u64 [a1]\n 23367: a4 = u64 [a2 + 0x8]\n 23370: t2 = u64 [a1 + 0x8]\n 23373: s1 = u64 [a2]\n 23375: a3 = ra + 0x1f\n 23378: t0 = a3 <u ra\n 23381: a5 = t2 + t0\n 23384: u64 [sp + 0x30] = s1\n 23387: t1 = a3 <u s1\n 23390: a3 = a5 ^ a4\n 23393: u64 [sp + 0x40] = a4\n 23396: a4 = a5 <u a4\n 23399: a4 = t1 if a3 == 0\n 23402: s1 = u64 [a1 + 0x10]\n 23405: a3 = a5 <u t2\n 23408: a3 = t0 if t0 == 0\n 23411: a5 = u64 [a2 + 0x18]\n 23414: t0 = u64 [a1 + 0x18]\n 23417: t1 = u64 [a2 + 0x10]\n 23420: a3 = a3 + s1\n 23423: a1 = a3 <u s1\n 23426: a1 = a1 + t0\n 23429: a2 = a1 ^ a5\n 23432: u64 [sp + 0x20] = a5\n 23435: a1 = a1 <s a5\n 23438: a5 = a3 <u t1\n 23441: a1 = a5 if a2 == 0\n 23444: a3 = a3 ^ t1\n 23447: a2 = a2 | a3\n 23450: a4 = a1 if a2 != 0\n 23453: jump @690 if a4 == 0\n      : @673 (gas: 13)\n 23457: u64 [sp + 0x18] = a0\n 23460: u64 [sp + 0x28] = t1\n 23463: a0 = ra | s1\n 23466: u64 [sp + 0x50] = t2\n 23469: u64 [sp + 0x38] = t0\n 23472: a1 = t2 | t0\n 23475: a0 = a0 | a1\n 23478: a0 = a0 >> 0x20\n 23481: u64 [sp + 0x48] = s1\n 23484: a1 = a1 | s1\n 23487: a1 = a1 << 0x20\n 23490: a0 = a0 | a1\n 23493: jump @689 if a0 != 0\n      : @674 (gas: 6)\n 23497: u64 [sp + 0x60] = ra\n 23500: i32 a1 = ra + 0\n 23502: i32 a0 = sp + 0x180\n 23506: u64 [sp + 0x10] = a1\n 23509: ecalli 1 // 'call_data_load'\n 23511: fallthrough\n      : @675 (gas: 13)\n 23512: a2 = u64 [sp + 0x198]\n 23516: a3 = u64 [sp + 0x190]\n 23520: a4 = u64 [sp + 0x188]\n 23524: a0 = a2 >u 0\n 23526: a1 = a3 >u 0\n 23528: a1 = a0 if a2 != 0\n 23531: u64 [sp + 0x90] = a2\n 23535: u64 [sp + 0x88] = a3\n 23539: a0 = a3 | a2\n 23542: u64 [sp + 0x98] = a4\n 23546: a2 = a4 >u 0\n 23548: a2 = a1 if a0 != 0\n 23551: jump @691 if a2 != 0\n      : @676 (gas: 4)\n 23555: s1 = u64 [sp + 0x180]\n 23559: a0 = sp + 0x160\n 23563: a1 = 0x40\n 23566: ra = 678, jump @17\n      : @677 [@dyn 339] (gas: 31)\n 23572: t0 = u64 [sp + 0x178]\n 23576: a5 = u64 [sp + 0x170]\n 23580: u64 [sp + 0x78] = a5\n 23583: t1 = u64 [sp + 0x168]\n 23587: u64 [sp + 0x80] = t1\n 23591: t2 = u64 [sp + 0x160]\n 23595: u64 [sp + 0x70] = t2\n 23598: a0 = s1 + 0x1f\n 23601: u64 [sp + 0x58] = s1\n 23604: a1 = a0 <u s1\n 23607: a2 = u64 [sp + 0x98]\n 23611: a1 = a1 + a2\n 23614: a1 = a1 & 0x1\n 23617: a0 = a0 & 0xffffffffffffffe0\n 23620: a2 = a0 + 0x20\n 23623: a0 = a2 <u a0\n 23626: a3 = a1 + a0\n 23629: a4 = a3 <u a1\n 23632: a4 = a0 if a0 == 0\n 23635: u64 [sp + 312] = 0\n 23639: u64 [sp + 0x120] = a2\n 23643: s1 = t0\n 23645: u64 [sp + 0x158] = t0\n 23649: u64 [sp + 0x150] = a5\n 23653: u64 [sp + 0x148] = t1\n 23657: u64 [sp + 0x140] = t2\n 23661: u64 [sp + 0x128] = a3\n 23665: a0 = sp + 0x140\n 23669: a1 = sp + 0x120\n 23673: u64 [sp + 0x130] = a4\n 23677: ra = 680, jump @620\n      : @678 [@dyn 340] (gas: 12)\n 23683: a2 = u64 [sp + 0x70]\n 23686: u64 [sp + 0x68] = s1\n 23689: a1 = u64 [sp + 0x80]\n 23693: a0 = a1 | s1\n 23696: a3 = u64 [sp + 0x78]\n 23699: a1 = a2 | a3\n 23702: a1 = a1 | a0\n 23705: a1 = a1 >> 0x20\n 23708: a0 = a0 | a3\n 23711: a0 = a0 << 0x20\n 23714: a0 = a0 | a1\n 23717: jump @689 if a0 != 0\n      : @679 (gas: 11)\n 23721: s1 = u64 [sp + 0x58]\n 23724: u64 [sp + 0x100] = s1\n 23728: a0 = u64 [sp + 0x98]\n 23732: u64 [sp + 0x108] = a0\n 23736: a0 = u64 [sp + 0x88]\n 23740: u64 [sp + 0x110] = a0\n 23744: a1 = sp + 0x100\n 23748: a0 = u64 [sp + 0x90]\n 23752: u64 [sp + 0x118] = a0\n 23756: a0 = a2\n 23758: ra = 682, jump @19\n      : @680 [@dyn 341] (gas: 46)\n 23764: a0 = u64 [sp + 0x60]\n 23767: a3 = a0 + s1\n 23770: a2 = a3 <u a0\n 23773: t2 = u64 [sp + 0x50]\n 23776: a0 = u64 [sp + 0x98]\n 23780: a0 = a0 + t2\n 23783: a0 = a0 + a2\n 23786: a4 = a0 ^ t2\n 23789: a1 = a0 <u t2\n 23792: a1 = a2 if a4 == 0\n 23795: ra = u64 [sp + 0x48]\n 23798: a2 = u64 [sp + 0x88]\n 23802: a2 = a2 + ra\n 23805: a5 = a3 + 0x20\n 23808: t0 = a5 <u a3\n 23811: a4 = a0 + t0\n 23814: a3 = u64 [sp + 0x30]\n 23817: a5 = a3 <u a5\n 23820: a3 = u64 [sp + 0x40]\n 23823: s1 = a4 ^ a3\n 23826: a3 = a3 <u a4\n 23829: a5 = a3 if s1 != 0\n 23832: a3 = a2 <u ra\n 23835: t1 = u64 [sp + 0x38]\n 23838: s1 = u64 [sp + 0x90]\n 23842: s1 = s1 + t1\n 23845: a3 = a3 + s1\n 23848: a1 = a1 + a2\n 23851: a2 = a1 <u a2\n 23854: a2 = a2 + a3\n 23857: a0 = a4 <u a0\n 23860: a0 = t0 if t0 == 0\n 23863: a0 = a0 + a1\n 23866: a1 = a0 <u a1\n 23869: a1 = a1 + a2\n 23872: a3 = u64 [sp + 0x20]\n 23875: a2 = a1 ^ a3\n 23878: a1 = a3 <u a1\n 23881: a4 = u64 [sp + 0x28]\n 23884: a3 = a4 <u a0\n 23887: a1 = a3 if a2 == 0\n 23890: a0 = a0 ^ a4\n 23893: a0 = a0 | a2\n 23896: a5 = a1 if a0 != 0\n 23899: a3 = u64 [sp + 0x98]\n 23903: jump @696 if a5 != 0\n      : @681 (gas: 7)\n 23907: a0 = ra | t1\n 23910: a1 = 0xffffffe0\n 23920: a2 = u64 [sp + 0x60]\n 23923: a1 = a2 <u a1\n 23926: a1 = 0 if t2 != 0\n 23928: a1 = 0 if a0 != 0\n 23930: jump @689 if a1 == 0\n      : @682 (gas: 15)\n 23934: a2 = u64 [sp + 0x88]\n 23938: a5 = u64 [sp + 0x58]\n 23941: a0 = a5 | a2\n 23944: a1 = u64 [sp + 0x90]\n 23948: a1 = a1 | a3\n 23951: a0 = a0 | a1\n 23954: a0 = a0 >> 0x20\n 23957: a1 = a1 | a2\n 23960: a1 = a1 << 0x20\n 23963: a0 = a0 | a1\n 23966: s1 = u64 [sp + 0x70]\n 23969: a2 = u64 [sp + 0x80]\n 23973: a3 = u64 [sp + 0x78]\n 23976: a4 = u64 [sp + 0x68]\n 23979: jump @689 if a0 != 0\n      : @683 (gas: 7)\n 23983: a0 = a3 | a4\n 23986: a1 = 0xffffffe0\n 23996: u64 [sp + 0x60] = a1\n 23999: a1 = s1 <u a1\n 24002: a1 = 0 if a2 != 0\n 24004: a1 = 0 if a0 != 0\n 24006: jump @689 if a1 == 0\n      : @684 (gas: 7)\n 24010: a0 = u64 [sp + 0x10]\n 24013: i32 a0 = a0 + 0x20\n 24016: u64 [sp + 0x50] = a0\n 24019: i32 a0 = s1 + 0x20\n 24022: a1 = a5\n 24024: s1 = a5\n 24026: ra = 684, jump @26\n      : @685 [@dyn 342] (gas: 5)\n 24032: i32 a0 = a0 + 0\n 24034: i32 a1 = s1 + 0\n 24036: a2 = u64 [sp + 0x50]\n 24039: ecalli 0 // 'call_data_copy'\n 24040: fallthrough\n      : @686 (gas: 27)\n 24041: t0 = u64 [sp + 0x70]\n 24044: a0 = t0 + s1\n 24047: a1 = a0 <u t0\n 24050: a2 = u64 [sp + 0x98]\n 24054: a4 = u64 [sp + 0x80]\n 24058: a2 = a2 + a4\n 24061: a2 = a2 + a1\n 24064: a3 = a2 ^ a4\n 24067: a4 = a2 <u a4\n 24070: a4 = a1 if a3 == 0\n 24073: a1 = u64 [sp + 0x88]\n 24077: a3 = u64 [sp + 0x78]\n 24080: a1 = a1 + a3\n 24083: a3 = a1 <u a3\n 24086: a5 = u64 [sp + 0x90]\n 24090: s1 = u64 [sp + 0x68]\n 24093: a5 = a5 + s1\n 24096: a3 = a3 + a5\n 24099: a4 = a4 + a1\n 24102: a1 = a4 <u a1\n 24105: a1 = a1 + a3\n 24108: a1 = a1 | a4\n 24111: a3 = u64 [sp + 0x60]\n 24114: a3 = a0 <u a3\n 24117: a3 = 0 if a2 != 0\n 24119: a3 = 0 if a1 != 0\n 24121: jump @689 if a3 == 0\n      : @687 (gas: 8)\n 24124: s1 = t0\n 24126: i32 a0 = a0 + 0x20\n 24129: u64 [sp + 248] = 0\n 24133: u64 [sp + 240] = 0\n 24137: u64 [sp + 232] = 0\n 24141: a1 = sp + 0xe0\n 24145: u64 [sp + 224] = 0\n 24149: ra = 686, jump @19\n      : @688 [@dyn 343] (gas: 14)\n 24155: a0 = u64 [sp + 0x18]\n 24158: a1 = u64 [sp + 0x68]\n 24161: u64 [a0 + 0x18] = a1\n 24164: a1 = u64 [sp + 0x78]\n 24167: u64 [a0 + 0x10] = a1\n 24170: a1 = u64 [sp + 0x80]\n 24174: u64 [a0 + 0x8] = a1\n 24177: u64 [a0] = s1\n 24179: sp = s0 + 0xfffffffffffffe40\n 24183: ra = u64 [sp + 0x1b8]\n 24187: s0 = u64 [sp + 0x1b0]\n 24191: s1 = u64 [sp + 0x1a8]\n 24195: sp = sp + 0x1c0\n 24199: ret\n      : @689 (gas: 1)\n 24201: trap\n      : @690 (gas: 2)\n 24202: a1 = 0x20070\n 24207: jump @697\n      : @691 (gas: 8)\n 24209: u64 [sp + 208] = 0\n 24213: u64 [sp + 200] = 0\n 24217: u64 [sp + 192] = 0\n 24221: a0 = 0x4e487b7100000000\n 24231: a1 = sp + 0xc0\n 24235: u64 [sp + 0xd8] = a0\n 24239: a0 = 0\n 24241: ra = 688, jump @19\n      : @692 [@dyn 344] (gas: 7)\n 24247: u64 [sp + 184] = 0\n 24251: u64 [sp + 176] = 0\n 24255: u64 [sp + 160] = 0x41\n 24260: a0 = 0x4\n 24263: a1 = sp + 0xa0\n 24267: u64 [sp + 168] = 0\n 24271: ra = 690, jump @19\n      : @693 [@dyn 345] (gas: 2)\n 24277: a1 = i32 [0x20064]\n 24282: jump @695 if a1 >u 63\n      : @694 (gas: 2)\n 24286: u32 [0x20064] = 0x40\n 24292: fallthrough\n      : @695 (gas: 7)\n 24293: a1 = 0x20070\n 24298: i32 a1 = a1 + 0\n 24300: a0 = 0x1\n 24303: a2 = 0x24\n 24306: ecalli 7 // 'seal_return'\n 24308: a1 = 0x20070\n 24313: jump @697\n      : @696 (gas: 2)\n 24315: a1 = 0x20070\n 24320: fallthrough\n      : @697 (gas: 6)\n 24321: i32 a1 = a1 + 0\n 24323: a0 = 0x1\n 24326: a2 = 0\n 24328: ra = 0x2b4\n 24332: ecalli 7 // 'seal_return'\n 24334: fallthrough\n      : @698 [@dyn 346] (gas: 37)\n 24335: sp = sp + 0xfffffffffffffea0\n 24339: u64 [sp + 0x158] = ra\n 24343: u64 [sp + 0x150] = s0\n 24347: u64 [sp + 0x148] = s1\n 24351: s0 = sp + 0x160\n 24355: sp = sp & 0xffffffffffffffe0\n 24358: a2 = u64 [a1]\n 24360: s1 = u64 [a1 + 0x18]\n 24363: a5 = u64 [a1 + 0x8]\n 24366: a1 = u64 [a1 + 0x10]\n 24369: t0 = a2 + 0xfffffffffffffffc\n 24372: u64 [sp + 0x30] = a2\n 24375: a2 = t0 <u a2\n 24378: a3 = a5 + a2\n 24381: a3 = a3 + 0xffffffffffffffff\n 24384: a4 = a3 ^ a5\n 24387: u64 [sp + 0x20] = a5\n 24390: a5 = a3 <u a5\n 24393: a5 = a2 if a4 == 0\n 24396: a2 = a1 + 0xffffffffffffffff\n 24399: a5 = a5 + a2\n 24402: a2 = a5 <u a2\n 24405: u64 [sp + 0x28] = a1\n 24408: a4 = a1 <u 0x1\n 24411: u64 [sp + 0x38] = s1\n 24414: a4 = s1 - a4\n 24417: a2 = a2 + a4\n 24420: a4 = a2 >s 0\n 24422: s1 = a5 >u 0\n 24424: s1 = a4 if a2 != 0\n 24427: a2 = a2 | a5\n 24430: a4 = a3 >u 0\n 24432: a1 = t0 <u 0x40\n 24435: a1 = a1 ^ 0x1\n 24438: a1 = a4 if a3 != 0\n 24441: a1 = s1 if a2 != 0\n 24444: jump @708 if a1 == 0\n      : @699 (gas: 6)\n 24448: s1 = a0\n 24450: i32 a0 = sp + 0x100\n 24454: a1 = 0x4\n 24457: ra = 0x2b6\n 24461: ecalli 1 // 'call_data_load'\n 24463: fallthrough\n      : @700 [@dyn 347] (gas: 7)\n 24464: a0 = u64 [sp + 0x118]\n 24468: a1 = u64 [sp + 0x110]\n 24472: a2 = u64 [sp + 0x108]\n 24476: a3 = a1 | a0\n 24479: a4 = a2 <u 0x1\n 24482: a4 = 0 if a3 != 0\n 24484: jump @709 if a4 == 0\n      : @701 (gas: 2)\n 24488: a3 = u64 [sp + 0x100]\n 24492: t0 = 696, jump @729\n      : @702 [@dyn 348] (gas: 15)\n 24498: u64 [sp + 0xa0] = a0\n 24502: a0 = u64 [sp + 0x20]\n 24505: u64 [sp + 0xa8] = a0\n 24509: u64 [sp + 0xc0] = a4\n 24513: a0 = u64 [sp + 0x28]\n 24516: u64 [sp + 0xb0] = a0\n 24520: a0 = u64 [sp + 0x38]\n 24523: u64 [sp + 0xb8] = a0\n 24527: u64 [sp + 0xc8] = a5\n 24531: u64 [sp + 0xd0] = a2\n 24535: a0 = sp + 0xe0\n 24539: a1 = sp + 0xc0\n 24543: a2 = sp + 0xa0\n 24547: u64 [sp + 0xd8] = a3\n 24551: ra = 698, jump @672\n      : @703 [@dyn 349] (gas: 13)\n 24557: a0 = u64 [sp + 0xf8]\n 24561: u64 [sp + 0x10] = a0\n 24564: a0 = u64 [sp + 0xf0]\n 24568: u64 [sp] = a0\n 24570: a0 = u64 [sp + 0xe8]\n 24574: u64 [sp + 0x18] = a0\n 24577: a0 = u64 [sp + 0xe0]\n 24581: u64 [sp + 0x8] = a0\n 24584: i32 a0 = sp + 0x120\n 24588: a1 = 0x24\n 24591: ra = 0x2bc\n 24595: ecalli 1 // 'call_data_load'\n 24597: fallthrough\n      : @704 [@dyn 350] (gas: 7)\n 24598: a0 = u64 [sp + 0x138]\n 24602: a1 = u64 [sp + 0x130]\n 24606: a2 = u64 [sp + 0x128]\n 24610: a3 = a1 | a0\n 24613: a4 = a2 <u 0x1\n 24616: a4 = 0 if a3 != 0\n 24618: jump @710 if a4 == 0\n      : @705 (gas: 2)\n 24622: a3 = u64 [sp + 0x120]\n 24626: t0 = 702, jump @729\n      : @706 [@dyn 351] (gas: 15)\n 24632: u64 [sp + 0x40] = a0\n 24635: a0 = u64 [sp + 0x20]\n 24638: u64 [sp + 0x48] = a0\n 24641: u64 [sp + 0x60] = a4\n 24644: a0 = u64 [sp + 0x28]\n 24647: u64 [sp + 0x50] = a0\n 24650: a0 = u64 [sp + 0x38]\n 24653: u64 [sp + 0x58] = a0\n 24656: u64 [sp + 0x68] = a5\n 24659: u64 [sp + 0x70] = a2\n 24662: a0 = sp + 0x80\n 24666: a1 = sp + 0x60\n 24669: a2 = sp + 0x40\n 24672: u64 [sp + 0x78] = a3\n 24675: ra = 704, jump @672\n      : @707 [@dyn 352] (gas: 22)\n 24681: a0 = u64 [sp + 0x90]\n 24685: a1 = u64 [sp + 0x98]\n 24689: a2 = u64 [sp + 0x80]\n 24693: a3 = u64 [sp + 0x88]\n 24697: u64 [s1 + 0x30] = a0\n 24700: u64 [s1 + 0x38] = a1\n 24703: u64 [s1 + 0x20] = a2\n 24706: u64 [s1 + 0x28] = a3\n 24709: a0 = u64 [sp]\n 24711: u64 [s1 + 0x10] = a0\n 24714: a0 = u64 [sp + 0x10]\n 24717: u64 [s1 + 0x18] = a0\n 24720: a0 = u64 [sp + 0x8]\n 24723: u64 [s1] = a0\n 24725: a0 = u64 [sp + 0x18]\n 24728: u64 [s1 + 0x8] = a0\n 24731: sp = s0 + 0xfffffffffffffea0\n 24735: ra = u64 [sp + 0x158]\n 24739: s0 = u64 [sp + 0x150]\n 24743: s1 = u64 [sp + 0x148]\n 24747: sp = sp + 0x160\n 24751: ret\n      : @708 (gas: 2)\n 24753: a1 = 0x20070\n 24758: jump @711\n      : @709 (gas: 2)\n 24760: a1 = 0x20070\n 24765: jump @711\n      : @710 (gas: 2)\n 24767: a1 = 0x20070\n 24772: fallthrough\n      : @711 (gas: 7)\n 24773: i32 a1 = a1 + 0\n 24775: a0 = 0x1\n 24778: a2 = 0\n 24780: ecalli 7 // 'seal_return'\n 24782: a0 = 0\n 24784: ra = 0x2c2\n 24788: jump @32\n      : @712 [export #0: 'call'] (gas: 2)\n 24791: a0 = 0\n 24793: ra = 706, jump @32\n      : @713 [@dyn 353] [export #1: 'deploy'] (gas: 2)\n 24799: a0 = 0x1\n 24802: ra = 708, jump @32\n      : @714 [@dyn 354] (gas: 32)\n 24808: a4 = u64 [s1 + 0x178]\n 24812: a2 = a4 <u 0x80\n 24816: a3 = u64 [s1 + 0x118]\n 24820: a0 = a3 if a2 != 0\n 24823: a5 = u64 [s1 + 0x120]\n 24827: a3 = u64 [s1 + 0x130]\n 24831: a3 = a3 | a5\n 24834: a3 = a1 if a2 == 0\n 24837: a0 = 0xffffffffffffffff if a4 == 0\n 24840: a3 = 0xffffffffffffffff if a4 == 0\n 24843: a5 = 0 if a2 == 0\n 24845: a4 = u64 [s1 + 0x128]\n 24849: a4 = 0 if a2 == 0\n 24851: a1 = u64 [s1 + 0x158]\n 24855: a1 = a1 & ~a3\n 24858: a2 = u64 [s1 + 0x160]\n 24862: a0 = a2 & ~a0\n 24865: a2 = u64 [s1 + 0x168]\n 24869: a2 = a2 & ~a4\n 24872: a3 = u64 [s1 + 0x170]\n 24876: a3 = a3 & ~a5\n 24879: a5 = s1 + 0x100\n 24883: a4 = u64 [a5 + 0x38]\n 24886: a0 = a0 | a4\n 24889: a4 = u64 [a5 + 0x40]\n 24892: a1 = a1 | a4\n 24895: a4 = u64 [a5 + 0x48]\n 24898: a3 = a3 | a4\n 24901: a4 = u64 [a5 + 0x50]\n 24904: a2 = a2 | a4\n 24907: a4 = s1 + 0x18d8\n 24911: jump [t0]\n      : @715 (gas: 14)\n 24913: a3 = a3 + a4\n 24916: u64 [s1 + 0x148] = a3\n 24920: a3 = a3 << 0x3b\n 24923: a4 = a2 >> 0x5\n 24926: a4 = a4 | a3\n 24929: a0 = u64 [s1 + 0x168]\n 24933: t1 = u64 [a0 + 0x18]\n 24936: a2 = a2 << 0x3b\n 24939: a3 = u64 [a0 + 0x10]\n 24942: a1 = a1 >> 0x5\n 24945: a0 = a1 | a2\n 24948: t2 = reverse t1\n 24950: a2 = reverse a3\n 24952: jump [t0]\n      : @716 (gas: 22)\n 24954: a4 = u64 [s1 + 0x178]\n 24958: a2 = a4 <u 0x80\n 24962: a3 = u64 [s1 + 0x130]\n 24966: a1 = a3 if a2 != 0\n 24969: a5 = u64 [s1 + 0x138]\n 24973: a3 = u64 [s1 + 0x148]\n 24977: a3 = a3 | a5\n 24980: a3 = a0 if a2 == 0\n 24983: a1 = 0xffffffffffffffff if a4 == 0\n 24986: a3 = 0xffffffffffffffff if a4 == 0\n 24989: a4 = u64 [s1 + 0x140]\n 24993: a4 = 0 if a2 == 0\n 24995: a5 = 0 if a2 == 0\n 24997: a0 = u64 [s1 + 0x150]\n 25001: a0 = a0 & ~a3\n 25004: a2 = u64 [s1 + 0x160]\n 25008: a1 = a2 & ~a1\n 25011: a2 = u64 [s1 + 0x168]\n 25015: a2 = a2 & ~a5\n 25018: a3 = u64 [s1 + 0x170]\n 25022: a3 = a3 & ~a4\n 25025: jump [t0]\n      : @717 (gas: 22)\n 25027: a4 = u64 [s1 + 0x178]\n 25031: a2 = a4 <u 0x80\n 25035: a3 = u64 [s1 + 0x120]\n 25039: a0 = a3 if a2 != 0\n 25042: a5 = u64 [s1 + 0x128]\n 25046: a3 = u64 [s1 + 0x138]\n 25050: a3 = a3 | a5\n 25053: a3 = a1 if a2 == 0\n 25056: a0 = 0xffffffffffffffff if a4 == 0\n 25059: a3 = 0xffffffffffffffff if a4 == 0\n 25062: a5 = 0 if a2 == 0\n 25064: a4 = u64 [s1 + 0x130]\n 25068: a4 = 0 if a2 == 0\n 25070: a1 = u64 [s1 + 0x158]\n 25074: a1 = a1 & ~a3\n 25077: a2 = u64 [s1 + 0x160]\n 25081: a0 = a2 & ~a0\n 25084: a2 = u64 [s1 + 0x168]\n 25088: a2 = a2 & ~a4\n 25091: a3 = u64 [s1 + 0x170]\n 25095: a3 = a3 & ~a5\n 25098: jump [t0]\n      : @718 (gas: 17)\n 25100: a2 = u64 [s1 + 0xe0]\n 25104: a0 = u64 [a2 + 0x8]\n 25107: a1 = i32 [a2 + 0x10]\n 25110: a2 = u64 [a2]\n 25112: a0 = reverse a0\n 25114: a3 = a0 << 0x20\n 25117: a1 = reverse a1\n 25119: a1 = a1 >> 0x20\n 25122: a3 = a3 | a1\n 25125: a0 = a0 >> 0x20\n 25128: a1 = reverse a2\n 25130: a2 = a1 << 0x20\n 25133: a0 = a0 | a2\n 25136: a1 = a1 >> 0x20\n 25139: a2 = s1 + 0x7ff\n 25143: a2 = a2 + 0xd9\n 25147: jump [t0]\n      : @719 (gas: 10)\n 25149: u64 [s1 + 0x138] = a0\n 25153: u64 [s1 + 0x140] = a1\n 25157: a0 = u64 [s1 + 0x130]\n 25161: a0 = a0 | a1\n 25164: u64 [s1 + 0x130] = a0\n 25168: a0 = u64 [s1 + 0x178]\n 25172: a2 = a0 + 0xffffffffffffff80\n 25175: a0 = 0xffffffffffffffff\n 25178: a1 = 0xffffffffffffffff\n 25181: jump [t0]\n      : @720 (gas: 8)\n 25183: a4 = a2 + a0\n 25186: a4 = a4 + a3\n 25189: a3 = a4 ^ a2\n 25192: u64 [s1 + 0x150] = a4\n 25196: a2 = a4 <u a2\n 25199: a2 = a0 if a3 == 0\n 25202: a4 = u64 [s1 + 0x148]\n 25206: jump [t0]\n      : @721 (gas: 7)\n 25208: a0 = a0 << 0x3b\n 25211: a1 = a0 >> 0x38\n 25214: u64 [s1 + 0x178] = a1\n 25218: a2 = 0x80 - a1\n 25222: a0 = 0xffffffffffffffff\n 25225: a1 = 0xffffffffffffffff\n 25228: jump [t0]\n      : @722 (gas: 7)\n 25230: a1 = a2 & ~a1\n 25233: a2 = u64 [s1 + 0x168]\n 25237: a2 = a2 & ~a5\n 25240: a3 = u64 [s1 + 0x170]\n 25244: a3 = a3 & ~a4\n 25247: a4 = s1 + 0x18d8\n 25251: jump [t0]\n      : @723 (gas: 16)\n 25253: a2 = u64 [s1 + 0xc0]\n 25257: a0 = u64 [a2 + 0x8]\n 25260: a1 = i32 [a2 + 0x10]\n 25263: a2 = u64 [a2]\n 25265: a0 = reverse a0\n 25267: a3 = a0 << 0x20\n 25270: a1 = reverse a1\n 25272: a1 = a1 >> 0x20\n 25275: a3 = a3 | a1\n 25278: a0 = a0 >> 0x20\n 25281: a1 = reverse a2\n 25283: a2 = a1 << 0x20\n 25286: a0 = a0 | a2\n 25289: a1 = a1 >> 0x20\n 25292: a2 = s1 + 0x10d8\n 25296: jump [t0]\n      : @724 (gas: 8)\n 25298: a0 = a0 + a4\n 25301: a3 = a3 + a1\n 25304: a5 = a3 <u a1\n 25307: a0 = a0 + a5\n 25310: ra = u64 [s1 + 0x140]\n 25314: ra = ra + a3\n 25317: a3 = ra <u a3\n 25320: jump [t0]\n      : @725 (gas: 15)\n 25322: a5 = a5 + a2\n 25325: a4 = a5 <u a2\n 25328: a0 = u64 [s1 + 0x170]\n 25332: a2 = a2 <u a0\n 25335: a0 = t2 + a2\n 25338: a0 = a0 + a4\n 25341: a2 = a1 | a5\n 25344: a0 = a0 | a3\n 25347: a2 = a2 | a0\n 25350: a2 = a2 >> 0x20\n 25353: a0 = a0 | a5\n 25356: a0 = a0 << 0x20\n 25359: a0 = a0 | a2\n 25362: u64 [s1 + 0x128] = t1\n 25366: jump [t0]\n      : @726 (gas: 14)\n 25368: a5 = a5 + a2\n 25371: a4 = a5 <u a2\n 25374: a0 = u64 [s1 + 0x170]\n 25378: a2 = a2 <u a0\n 25381: a0 = t2 + a2\n 25384: a0 = a0 + a4\n 25387: a2 = a1 | a5\n 25390: a0 = a0 | a3\n 25393: a2 = a2 | a0\n 25396: a2 = a2 >> 0x20\n 25399: a0 = a0 | a5\n 25402: a0 = a0 << 0x20\n 25405: a0 = a0 | a2\n 25408: jump [t0]\n      : @727 (gas: 5)\n 25410: u64 [s1 + 352] = 0\n 25414: u64 [s1 + 344] = 0\n 25418: u64 [s1 + 360] = 0\n 25422: u64 [s1 + 368] = 0\n 25426: jump [t0]\n      : @728 (gas: 6)\n 25428: a0 = a0 + a3\n 25431: a3 = a4 >> 0x5\n 25434: a4 = a0 << 0x3b\n 25437: a3 = a3 | a4\n 25440: a4 = u64 [s1 + 0x168]\n 25444: jump [t0]\n      : @729 (gas: 10)\n 25446: a4 = a3 + 0x4\n 25449: a3 = a4 <u a3\n 25452: a5 = a2 + a3\n 25455: a2 = a5 <u a2\n 25458: a2 = a3 if a3 == 0\n 25461: a2 = a2 + a1\n 25464: a1 = a2 <u a1\n 25467: a3 = a0 + a1\n 25470: a0 = u64 [sp + 0x30]\n 25473: jump [t0]\n      : @730 (gas: 13)\n 25475: a5 = a5 + a2\n 25478: a3 = a5 <u a2\n 25481: a2 = a2 <u t2\n 25484: a0 = t1 + a2\n 25487: a0 = a0 + a3\n 25490: a2 = a1 | a5\n 25493: a0 = a0 | a4\n 25496: a2 = a2 | a0\n 25499: a2 = a2 >> 0x20\n 25502: a0 = a0 | a5\n 25505: a0 = a0 << 0x20\n 25508: a0 = a0 | a2\n 25511: jump [t0]\n      : @731 (gas: 6)\n 25513: u64 [s1 + 0x148] = a0\n 25517: u64 [s1 + 0x130] = a1\n 25521: a0 = 0xffffffffffffffff\n 25524: a1 = 0xffffffffffffffff\n 25527: a2 = u64 [s1 + 0x178]\n 25531: jump [t0]\n      : @732 (gas: 10)\n 25533: u64 [s1 + 0x130] = a0\n 25537: u64 [s1 + 0x128] = a1\n 25541: a1 = u64 [s1 + 0x120]\n 25545: a0 = a0 | a1\n 25548: u64 [s1 + 0x120] = a0\n 25552: a0 = u64 [s1 + 0x178]\n 25556: i32 a2 = a0 + 0xffffffffffffff80\n 25559: a0 = 0xffffffffffffffff\n 25562: a1 = 0xffffffffffffffff\n 25565: jump [t0]\n      : @733 (gas: 10)\n 25567: u64 [s1 + 0x128] = a0\n 25571: u64 [s1 + 0x120] = a1\n 25575: a1 = u64 [s1 + 0x118]\n 25579: a0 = a0 | a1\n 25582: u64 [s1 + 0x118] = a0\n 25586: a0 = u64 [s1 + 0x178]\n 25590: i32 a2 = a0 + 0xffffffffffffff80\n 25593: a0 = 0xffffffffffffffff\n 25596: a1 = 0xffffffffffffffff\n 25599: jump [t0]\n      : @734 (gas: 12)\n 25601: a5 = s1 + 0x100\n 25605: u64 [a5 + 0x10] = a2\n 25608: u64 [a5 + 0x8] = a3\n 25611: a0 = a2 | a3\n 25614: a2 = a1 | a4\n 25617: a2 = a2 | a0\n 25620: a2 = a2 >> 0x20\n 25623: u64 [a5] = a4\n 25625: a0 = a0 | a4\n 25628: a0 = a0 << 0x20\n 25631: a0 = a0 | a2\n 25634: jump [t0]\n      : @735 (gas: 10)\n 25636: a3 = u64 [s1 + 0x178]\n 25640: a0 = u64 [a3 + 0x18]\n 25643: a1 = u64 [a3 + 0x10]\n 25646: a2 = u64 [a3 + 0x8]\n 25649: a3 = u64 [a3]\n 25651: a0 = reverse a0\n 25653: a1 = reverse a1\n 25655: a2 = reverse a2\n 25657: a3 = reverse a3\n 25659: jump [t0]\n      : @736 (gas: 9)\n 25661: a3 = t2\n 25663: u64 [a5] = t2\n 25665: u64 [a5 + 0x10] = t1\n 25668: t2 = a0\n 25670: u64 [a5 + 0x18] = a0\n 25673: u64 [s1 + 0x148] = t1\n 25677: a0 = u64 [s1 + 0x140]\n 25681: u64 [s1 + 0x178] = a0\n 25685: jump [t0]\n      : @737 (gas: 5)\n 25687: a0 = sp + 0xffffffffffffffe0\n 25690: a2 = a0 & 0xffffffffffffffe0\n 25693: u64 [s1 + 0x178] = a2\n 25697: sp = a2\n 25699: jump [t0]\n      : @738 (gas: 5)\n 25701: u64 [s1 + 0x178] = a1\n 25705: i32 a2 = 0x80 - a1\n 25709: a0 = 0xffffffffffffffff\n 25712: a1 = 0xffffffffffffffff\n 25715: jump [t0]\n      : @739 (gas: 8)\n 25717: u64 [sp + 48] = 0\n 25720: u64 [sp + 40] = 0\n 25723: u64 [sp + 32] = 0\n 25726: a0 = 0x4e487b7100000000\n 25736: a1 = sp + 0x20\n 25739: u64 [sp + 0x38] = a0\n 25742: a0 = 0\n 25744: jump [t0]\n      : @740 (gas: 8)\n 25746: a1 = sp + 0xffffffffffffffe0\n 25749: a1 = a1 & 0xffffffffffffffe0\n 25752: u64 [s1 + 0x150] = a1\n 25756: sp = a1\n 25758: i32 a0 = a0 + 0\n 25760: i32 a2 = a1 + 0\n 25762: a1 = 0x20\n 25765: jump [t0]\n      : @741 (gas: 7)\n 25767: a1 = a0 + 0x1f\n 25770: a0 = a1 <u a0\n 25773: a5 = u64 [s1 + 0xf0]\n 25777: a2 = a5 + a0\n 25780: a3 = a2 <u a5\n 25783: a3 = a0 if a0 == 0\n 25786: jump [t0]\n      : @742 (gas: 8)\n 25788: u64 [s1 + 0x158] = a5\n 25792: a5 = s1 + 0x100\n 25796: u64 [a5 + 0x70] = a4\n 25799: u64 [a5 + 0x60] = a3\n 25802: a0 = s1 + 0x7ff\n 25806: a0 = a0 + 0xd9\n 25810: a1 = u64 [a5 + 0x30]\n 25813: jump [t0]\n      : @743 (gas: 8)\n 25815: a0 = sp + 0xffffffffffffffe0\n 25818: a0 = a0 & 0xffffffffffffffe0\n 25821: u64 [s1 + 0x168] = a0\n 25825: sp = a0\n 25827: i32 a2 = a0 + 0\n 25829: a1 = 0x20\n 25832: a0 = u64 [s1 + 0xc0]\n 25836: jump [t0]\n      : @744 (gas: 8)\n 25838: a0 = sp + 0xffffffffffffffe0\n 25841: a0 = a0 & 0xffffffffffffffe0\n 25844: u64 [s1 + 0x168] = a0\n 25848: sp = a0\n 25850: i32 a2 = a0 + 0\n 25852: a1 = 0x20\n 25855: a0 = u64 [s1 + 0xb8]\n 25859: jump [t0]\n      : @745 (gas: 4)\n 25861: a0 = 0x10d8\n 25865: a3 = s1 + a0\n 25868: a4 = a3 + 0x600\n 25872: jump [t0]\n      : @746 (gas: 6)\n 25874: sp = s0 + 0xffffffffffffffa0\n 25877: ra = u64 [sp + 0x58]\n 25880: s0 = u64 [sp + 0x50]\n 25883: s1 = u64 [sp + 0x48]\n 25886: sp = sp + 0x60\n 25889: jump [t0]\n      : @747 (gas: 4)\n 25891: a1 = 0 if a3 != 0\n 25893: a4 = 0 if a1 != 0\n 25895: a0 = 0 if a1 != 0\n 25897: jump [t0]\n      : @748 (gas: 2)\n 25899: a3 = a2 & 0x40\n 25902: jump @752 if a3 != 0\n      : @749 (gas: 1)\n 25905: jump @751 if a2 == 0\n      : @750 (gas: 6)\n 25908: i32 a3 = 0x40 - a2\n 25911: a3 = a1 << a3\n 25914: a1 = a1 >> a2\n 25917: a0 = a0 >> a2\n 25920: a0 = a0 | a3\n 25923: ret\n      : @751 (gas: 1)\n 25925: ret\n      : @752 (gas: 4)\n 25927: a0 = a2 + 0xffffffffffffffc0\n 25930: a0 = a1 >> a0\n 25933: a1 = 0\n 25935: ret\n      : @753 (gas: 2)\n 25937: a3 = a2 & 0x40\n 25940: jump @757 if a3 != 0\n      : @754 (gas: 1)\n 25943: jump @756 if a2 == 0\n      : @755 (gas: 6)\n 25946: i32 a3 = 0x40 - a2\n 25949: a3 = a0 >> a3\n 25952: a0 = a0 << a2\n 25955: a1 = a1 << a2\n 25958: a1 = a1 | a3\n 25961: ret\n      : @756 (gas: 1)\n 25963: ret\n      : @757 (gas: 4)\n 25965: a1 = a2 + 0xffffffffffffffc0\n 25968: a1 = a0 << a1\n 25971: a0 = 0\n 25973: ret\n","bytecode":{"object":"50564d00004276000000000000010700c19000c000800360ff8a4280254b1f626843fce7567c12b32bcc821b963f1670c38a4a2b5271546d6f63206120746f4e000072656d75736e2079646165726c41726574736967657231c87ae4a834372d6e0ac931c20a506e070df48522ca4818e9a0b3e40520a5ea0480bd0b000000000e0000001c0000002a000000300000003d000000480000005700000062000000740000007f00000063616c6c5f646174615f636f707963616c6c5f646174615f6c6f616463616c6c5f646174615f73697a6563616c6c65726465706f7369745f6576656e746765745f73746f72616765686173685f6b656363616b5f3235367365616c5f72657475726e7365745f696d6d757461626c655f646174617365745f73746f7261676576616c75655f7472616e73666572726564051302c0d7600463616c6cc0df60066465706c6f7906c0f074816202c077659b00e3012603db038b049004b60420052c056b059005df05e4056006f60660079f073d085d087a08c9081b092709dd09f909210a6e0ae10a470b530bcc0b550c610ccf0c280d890d260e770e060f0b0f900fdd0f25108210d110f91015113d118d11c111ce1135124112ba123913a513b1132a14aa14f91405156a1519169016ed16f316101733175e177b178117a317ca173b189d18e318361973197919c819241a2a1a4e1a791aa41ac11ac71af11a201b871b921bb91bdf1b531cc11cd21cd81cf91c241d9d1ddd1d251e851ea71ebf1e181f571fa41fcd1fe71ff71f002009201720762086209c205a219c21a221c221e521c02215234323c023da23e123022412247124822498245425d0252b267526d626e32683279a27a0275f287328a5283e296129b029c029f229f829fe29042a0a2a102a162a382aa92a062b0c2b272b2d2b332b392b7f2bff2b552c832c032d1d2d2e2d382d422d522db12dc22dd82d932e232f3a2f0530193053303831d231e931ef31ae32c632fd329633e633f63328342e3434343a34403446348234a4341c3588358e35a935af35b535bb35dd35ea3545365336d536173790375b38cd38b039d639233a373a6c3a723a783a7e3a843a8a3a903ab23a273b913bab3bb13bb73bbd3b023c623c843c9a3cf73c353d7f3da83dc23dc93dea3df93d583e693e7f3e3a3fd03fe73ffa40384117428d42c342c942cf42d542db42e1421d433d43bb432b4431444c44524458445e447c449f4426457045c645a746c646ee46324770478847a047e5476b487c482b49b249f84a3f4b604ba54bf84b4f4c7b4c174d904d984d9e4db54dd94d454e7f4eda4e364fab4f9f50285156526a5270528752ab527253a853c153e5534d54aa541d552b553855a9559956c8561e574857a45703584358fc584359cb59245af15a0a5b2e5b145c835cd45ce05d5b5eb75ed55e0f5f905fb25fed5f166038606960df60e860aa876e978a2098aa20977b2098bb20c89b0bc9ba0a979b019abbaeab20ae873751094ec87909647a017c8b95880195ac0178ab64caab9cf42836510934c87909647a017c8b95880195ac0178ab64caab9cf4281c51091a839aff01c8a80b7cbb9599ffc8a70c78cb83aaff5209f0320039086800025108a004330790000383770a082893049511f07b10087b15648964753308206497501002a6037c78017c797c7a027c7b03978808d4980897aa1097bb18d4ba0ad4a8087c79057c7a047c7b067c7c07979908d4a90997bb1097cc18d4cb0bd4b909979920d489027c79097c7a087c7b0a7c7c0b979908d4a90997bb1097cc18d4cb0bd4b9097c7a0d7c7b0c7c7c0e7c780f97aa08d4ba0a97cc10978818d4c808d4a808978820d498037c78117c7a107c7b127c7c13978808d4a80897bb1097cc18d4cb0bd4b8087c7a157c7b147c7c167c791797aa08d4ba0a97cc10979918d4c909d4a909979920d4890a7c78197c79187c7b1a7c7c1b978808d4980897bb1097cc18d4cb0bd4b8087c791d7c7b1c7c7c1e7c771f979908d4b90997cc10977718d4c707d49707977720d487076f776fa86f396f2a7b5a187b59107b58087b57821008821595111032009511d87b10207b15187b161082897b19088289087b198285108286183308205010045e026f686f59821a6faa821b086fbb787b18787a10787908787898bc38787c1f98bc30787c1e98bc28787c1d98bc20787c1c98bc18787c1b98bc10787c1a98bb08787b1998ab38787b1798ab30787b1698ab28787b1598ab20787b1498ab18787b1398ab10787b1298aa08787a11989a38787a0f989a30787a0e989a28787a0d989a20787a0c989a18787a0b989a10787a0a98990878790998893878790798893078790698892878790598892078790498891878790398891078790298880878780182102082151882161095112832009511a07b10587b15507b16489515608411e06476828718828910828a0882886f776f996faa6f887b18187b1a107b19087b17491138491130491128491120481140208318831a20831b403309ff33070a05821738821830821928821a206f776f886f996faa7b6a187b69107b68087b67501206f16132009511a07b10587b15509515608411e08272827a08827b108277188283828908828c108288186f746fbb6faa6f276f826fcc6f996f387b17187b1a107b1b087b147b18387b19307b1c287b12208318831a203309ff330b2033070a099551a08210588215509511603200951160ff7b1098007b1590007b1688009515a0008411e082ab7b1b3882ab087b1b3082ab107b1b2882aa187b1a20829a7b1a18829a087b1a10829a107b1a088299187b1964865010086582186f888219086f99821a106faa821b186fbb7b1b587b1a507b19487b18408218206f888219286f99821a306faa821b386fbb7b1b787b1a707b19687b18608379836a8317403308020a04955160ff8210980082159000821688009511a00032008b7910520931c8780883881f8488e05638000001253309640002390a640002ae8a093d086400020133087000028377c887073200009511f07b10087b158475010a02013d0760000251050750100a0950100ca1009511a07b10587b15509515608411e049111849111049018000330740641849110850100e0efd4911384911304911284911208317200a0a01821730821838821928821a20d49808d4a707d487075107163308700002838833070133093300120a07283b390864000256187f0c2003640002800001330770000283778000330833090a285efb33078000330850101021ff8378330733093300120a0701951110fe7b10e8017b15e0017b16d8019515f0019511b0e68411e064169569d8104929a00549299805492988058000330740956860164929900550101459fc33076000027b67780139076000025517040728d944956700108377800633083300160a01019569d8108197c405524714ead4a80a28871051476836f50b8f0351471e4d211339095147c0a8ba150a288b134929600649295806492950064929480695670010837720073300180a0a33021a28295f50121a265f82b75882b86082b95082ba48d49808d4a707d4870751070628814482677801817756172307287b4495670010837740073308040a019568d81095890006829780007b6768018297787b6778018297707b6760018297687b6758014928a006492898064928900649298800019567ff079577e1009568601750101c56fc826468018263600182625801956700108277e8f8956800108288e0f8956aff0795aad90082a91882aa20d3730bd87307d88208dbb708d3a407d8a40c826a7801d89a0bdb7c0bd3a909d49707db7b0852080628d9439517e08477e07b6770016471956700107b7498f8956700107b7a90f8956700107b7388f89567ff079577a1009568ff0795888100956900107b9280f850101e88529568ff079588d90082877b6740018287f87b675001956700108277c8f87b674801956700108277c0f87b675801956700108277b0f8956800108288b8f8956900108299a0f8956a001082aaa8f8826b70017bb7107bb8187bb97bba0864b89567ff0795776150102056fb95670010827778f8956800017b877895670010827770f87b877095670010827768f87b876095670010827760f87b87689567ff07957741330840501022ebf895670010827758f895680010828850f895690010829948f8956a001082aa40f8d49707d48a09d47909989920d48707977720d49707510706287e428267580198793d826c480197c803d49803826b500198b83d82694001979903d4980898c93d7b6a480197ba03d4a909977a037b6a50018e9c8e8bda8c0b8e3288ac000185cc01db320cd49808db8b0c7b6c400183a9808267700182687801501024f35c7b6738017b683001826758018a79037b6958018267680182686001501026d35c7b6720017b682801826850018d8980008267700182687801501028dc5c82692801d4890982685001888a80007b6a2801826b3001daab09826b6001da8b097b69600182692001d4970782693801daa90782696801da89077b67680182677001826878018269580150102a675c330882692801939797772098772082694001826b6801949b826a6001949a94979398956900107b9838f8956800107b8730f8956700107b7a28f89568ff07958821956700107b7b20f88267480150102ca9f83308208267480150102e1afb837833092033070a07014929e0054929d8054929d0054929c805956700108377a0060a0a01956ad81095ab000582b7d80082b8e00082b9d00082bac800d49808d4a707d4870751070628224182677801817756172307281c41956700108377c0063308040a0101956bd81082b8f80582b7000614090000000001000000d38909d47909988a2088aa01947a939a520a0628e94082b9f00582bae805956b00047bba607bb9687bb870956860047bb7783307501030e7f74926580449265004492648043307209568400449264004501032cbf79517e08477e07b6758016471390864000256183f123308403d08640002330234283e5a5012343b5a3307700002837783993308400a06826a780182a71882a81082a90882aa6f7b7b6b68016f8c7b6c70016f997b6960016fa77b677801826858017b87187b89107b8c087b8b9567200450103648f8826730047b672801826728047b673801826720047b6730018267680195770188780182697001c89808d48709889901826a6001c8a909d8a90a826b7801c8ba0a4926d8034926d0034926c8034926c00380007b68e8037b67e0037b69f003956700049568e0039569c0037b6af803501038fd4295680004828782621804828908828a10957b80d87b07c8790c95ccffd39c08d89c09da870995a7ffc87909d8790788a801c98208c8780a7b6b80034926b8034926b0034926a8034926a00380007b6c88037b6990039567a003956880037b6a980350103a69479567600333084050103c37f5826c78037b6c4001826370037b634801826468037b645001826a60037b6a580182676801957202d8720782697001c87908d89809da770982676001c87909d87907826b7801c8b7077b6c18037b6310037b6408037b6a00037b6738037b6930037b6828039567400395682003956900037b62200350103e1242956b000382b74882b8587b68700182b9407b69780182ba5082685001d3870bd8870c82635801d83904dab40c82694801c99a0bd89a0a64908262400182697001c92909c9a909d8cb0ac9a909c9cb0bc98707c94707826c7801c93c0c7b6cc0027b62f8027b60f0027b68e8027b63e0027b67c8027b6bd0029567e0029568c0027b69d8025010405b469567a00233084050104229f495680002828bb800828cb000828aa8008287a000d4ba09d4c708d498089888207b6c7001d4c909979920d4980851080628c43d826828019788209889204926980282683001956c00027bc88000826838017bc88800956880027bc990007b6778017b6a68017b6b6001501044f5f4826a60018268780182677001d4a70b140c00000000010000001407e0ffffff00000000d8780782696801949794b752070628553d8387204926780249267002492660026095686002492668027b6b38017b6c30015010469cf48267780195776082687801d8870882696801c88909826a6801d8a90ada880a82687001c88a0ad88a08826b6001c88b0b956c00027bc9087bc7492638024926300249262802491c2080007bca109567400295682002956900027bcb185010486146956a000182ab6882a87882a7309577c0d8780794b782a938949752070628af3c95670002827940827a48826458027b643001827c507b6c3801d8890364927b692001d3ba08d8ba0964a77b6a2801da8309826a7001c9ac08d8ac0a64bc826b6001c9b40bc9ab0bd8980ac9ab0bc99808c9c709c9390982677801c9720a826778018377407b6ae0017b69e8017b68f0019568e0017b6bf80150104a9ef3826730017b679801826738017b679001826728017b678801826720017b678001826740017b67b801826748017b67b001826750017b67a8019567c0019568a00195698001826a58017b6aa00150104c73458268c8018262d8018263c001826ad00182676801d3780bd8780c647082677801d87304dab40c82677001c97a0bd87a0a82676001c97209c9a909d8cb0ac9a90982677801c9cb0bc90808c9480ac97308d4a909d4b80ad49a0ad4b90998aa20979920d4a9095109340728753b49292006492918064929100649290806956700108377e00633004e0a0a330250280256501250ff5582b71882b82082b91082ba08d49808d4a707d4870751070628843b82677801817756172307287e3b95670010837700073308040a0101956ad81082a9380682a7400614080000000001000000d39808d478087b6948019899208899019479938952090628473b82a730067b67500182a728067b6758019567ff07957701330840501052faf095670010827718f87b67680195680010828810f87b68600195690010829a08f87b6a700195690010829900f87b697801956b00077bb7f8007bb8f0007bbae8009567e0077bb9e0005010541942956a000182a76882a870d4870782a96082a878d49808d47808988820d49707977720d4870751070628503a4926d8074926d0074926c8079568c0074926c007826778015010569ff1956b000182b76882b860d47809140a00000000010000001407e0ffffff0000000082b878d8780782b8709487949752070628ff39826778018377204926b8074926b0074926a8077b6a68019568a0074926a007607b69600150105842f1956900018297689577c0829878d878078298709487829860948752070628b639826748019777209877207b6770018267780183774049269807492690074926800760956880074926880750105af3f04926780782677001956900077b9770826750017b976895686007826758017b9760330750105ccbf0492658074926500749264807330720956840074926400750105eaff09517e08477e07b6770016471390864000256183f123308403d086400023302602822535012601f533307700002837783993308400a06826a780182a71882a81082a90882aa6f7c6f8b6f976fa87b684801826970017b98187b6750017b97107b6b40017b9b087b6c38017b9c95672007330840501062fdee956b000782b7387b67580182b9307b69600182ba287b6a680182b8207b6878017bb7187bb9107bba08956700077bb850106435409567e00682687001501066e8f0956a000182a96082a75882a868d4870782a878d49808d47808988820d49707977720d48707510706285f388268f0068269e806826ae006140bffffffff00000000d28b0b8499ff84a7ff4926d8067b67c0067b69c8069568c0067b6bd006826778015010688fef9567a00633084050106a49ee8262b8067b6270018263b0067b6330018264a8067b642801826ca0067b6c2001826a380195aa0188a70182684001c88707d47a0888880182695001c89808d89809826b4801c8b9097b6258067b6350067b6448067b6c40067b6978067b6870067b6768069567800695686006956940067b6a600650106c243b8267880682699806826b80067b6b1801826a900682622801d32700d8270c82632001d83b04da040c82683001c98a0bd88a0a648082687001c98909c9a909d8cb0ac9a909c9cb0bc92707c94707826a1801c93a0a956c00067bca7bc8387b6030067b6228067b6320067bc7087bcb1095672006956800067bc91850106e773f956b000182b76082b858d48709140a00000000010000001407e0ffffff0000000082b878d8780782b8689487949752070628eb3682677801837720826820017b68e005826828017b68e805826830017b68f0059568e005826b70017b6bf8057b6918017b6a10015010701fee9567c005330840501072d9ec826ad8057b6a70018263d0057b6330018264c8057b642801826cc0057b6c200182673801957202d8720782694001c87908d89809da770982675001c87909d87907826b4801c8b7077b6a78057b6370057b6468057b6c60057b6798057b6990057b6888059567a00595688005956960057b628005501074b4398267a8058269b805826ba0057b6b5001826ab00582622801d32700d8270c82632001d83b04da040c82683001c98a0bd88a0a648082687001c98909c9a909d8cb0ac9a909c9cb0bc92707c94707826a5001c93a0a956c00057bca207bc8587b6050057b6248057b6340057bc7287bcb3095674005956820057bc938501076063e956900018297109577c0829878d8780782986894878298189487520706288e358267780183774082682001956a00057ba8826828017ba808826830017ba81095680005826970017ba918501078cbec9567e00433084050107a85eb956c000482c9f8007b69700182c8f0007b68500182cae8007b6a480182cbe0007b6b4001826758017bc79800826760017bc79000826768017bc78800826778017bc780007bc9b8007bc8b0007bcaa8009567c0049568a004956980047bcba00050107cb84095680001828b48828940828770d4b707828a50d4a908d47808988820d4a707977720d4870751070628c33464a2956c000482c7c80082c8d8007b6878018263c00482cad000d3b704d8b70cd89300da400cc92a08c9c804d8c8087b686801d82a0a826c700182687801c9c80cc9ac0c82686801c98c0cc9b707c90707c99308d4c707d4480ad47a0ad4470798aa20977720d4a70751070628543464977b68780133007e282fee7b68780150107e28ee83788169780133070a07280ef39567d8184927e0004927d8004927d0004927c800956700208377a0f90a0a01956ad81882a7d80082a8e00082a9d00082aac800d49808d4a707d487075107062863348267780180779569d81049294005492938057b9728059567201695680016492930055020800085489568d81095890005829760956800017b878297587b67f8008297507b87088297487b8710829780007b67c8008297787b67d0008297707b67d8008297687b67e00033077000037b67c00083777b67a800330082000a033302840028bb4b50228400b84b49292005959b00057bb8187bb7109568e0157bba08330750208600b5ea9567d810492700054927f8044927f00464793307209568c0154929e8045020880092ea3309640002390764000233083fac78142003640002407b69b00033028a0028064d7b69b00050228a00ff4c3307700002837783993308407b67b80033008c000a0633028e0028ac4c50228e00a94c956bd8187bba00017bb9f8007bb8f0007bb7e8009567a0159568c0195020900014eb9569d8108097d8048298c8048299d004d48707d497075207d2099567c01033084050209200c1e89567d810827b957800ff828cf800828af0008289e800d4ba07d4c908d47808988820d4c707977720d48707510706285d329567ff079577d9007b6a7001647a4927d8074927d0074927c807140700000000a079c3089568a0107ba7e00764977b6978017b6b60017b6c6801502094008ae9956c000182c87882c76882ca60d47a0a140b00000000010000001407fcffffff00000000d8780782c970949794a752070628e9318387049569ff079599d9004929c0074929b8074929a80720956880104929b0077b6a68017b6b60015020960028e995690001829b68829a708298788297609577dcd8780794a794b7520706289b318387249569ff079599d9004929a00749299807492988070e956860104929900750209800e2e8956a000182a9781407bcffffff00000000d8790782a870948782a86894875207062851318397443a082000023a09280002956aff0795aad9007ba88007492a70077ba9780795684010492a680750209a008fe8330864826778013300160128fbea514713a9704d0a280b314929c0064929b8064929b0064929a806956700108377800733009c000a0a33029e0028954b50229e00924b82b7b80082b8c00082b9b00082baa800d49808d4a707d48707510706283a318267780180779569ff079599d90049292007492918077b970807956700109568ff079588e107492910075020a0004d459568ff079588d90095890007829740956800017b87688297387b87608297307b87588297287b87508297607b87488297587b87408297507b87388297487b873033077000037b67e00083777b67d0003300a2000a033302a40028eb475022a400e84749290007959b00067bb8f8007bb7f0009568ff079588c1077bbae80033075020a60077e79567ff079577d9004927e0064927d8064927d00664793307209568ff079588a1074929c8065020a8004ce73309640002390764000233083fac78142003640002407b69b8003302aa0028c0497b69b8005022aa00b9493307700002837783993308407b67c0003300ac000a063302ae002866495022ae006349956bd81095bc00067bcae0007bc9d8007bc8d0007bc7c8009567ff07957781079568a0175020b000c6e79569ff079599d9008097b8068298a8068299b006d48707d497077b6778019567ff07957761073308405020b2006be59569ff079599d90095970006827ca00082789800827a880082939006d48a04d4c30bd4c8028267780152073c0a7b6270017b9ae8057b93f0057b98f8057b6478019567ff079577c1067b6ca8007b9c00067b6ad8007b63c8007b68b0007b6b28015020b40070368267d0003300b6000a03018267780182692801d497079877208268b000d49808978820d4870751070628a52e5022b80059464929e005959b00057bb8d8007bb7d0009568ff079588a1067bbac8008267d8005020ba00e6e5140900000000010000001407e0ffffff00000000826ad800d87a078268c8009487826c700194c7520706284c2e83ab2082675001956aff0795aad90095ac00057bc7a800826758017bc7b000826760017bc7b8009568ff0795888106826768017bc7c0007b6b680164b77b6978015020bc0072e58268d800826778019577c0d878078269c800949782697001949752070628e52d1407ffffffff000000007b67800083874082683001956aff0795aad90095ab00057bb88800826838017bb89000826840017bb898009568ff0795886106826948017bb9a0007b67605020be0004e58267d0003300c0000a033302c200283d455022c2003a4549298005959b00057bb8787bb7709568ff07958841067bba6833075020c400cce49567ff079577d90049276005492758054927500564793307209568ff0795882106492948055020c600a1e49517e08477e07b67780164718269b800819756173f08480940019517e08477e07b677001647183793308408267c0000a06826a700182a71882a81082a90882aa6f7c7b6c88006f8b7b6b90006f987b68a0006fa77b679800826978017b97187b98107b9b087b9c9567ff07957701068268d8005020c800eee29569ff079599d900959a000582a72882a83082a9388477ff7b6770018488ff7b68600182678000d297077b6758019567ff079577e105826878015020ca00dae49568ff079588d90080871c059777208288200582695801d497079569d810826a6001959b00067bbaf000826a70017bbae8007b9800077bb7f8009568c017826778015020cc0009e59517e08478e0648182698800959901889701826a9000c87a0ad4a907887701826ca000c87c0bd8cb07826c9800c8c7077b6728017b87187b6b18017b8b107b6a20017b8a087b68707b6930017b899567ff079577c105826868015020ce0006e29567ff079577d900827a0005957c000482cbf80082c9f00082c8e8005022d000604551070628ab2b9567ff079577a1057b68f8005020d200cce19569ff079599d90095970004827be0008278d800827ad0008eb78e8cdbb70c7b6af0008ea77b68687b6be800d4b8087b67407b6c487b6858db8c0751070628822c8297c8047b67789567ff07957781058268705020d4009fe3956bff0795bbd90095bc000482c9a80082c7b00082c8b80082cac0007bca80007bc8787bc7709567ff07957761059568ff07958841057bc9685020d600cf2d9567ff079577d90095780004828aa000828b9800828c9000827288048ea78eb8dba7088ec7882920859901dbc709d4ab07db78098267788877207b675052090628a4117b6250015022d8001e45957a00047ba84882c8207ba85082c8187ba8589568ff079588210582c9287ba96033075020da00f8e18269b800819756171f0e4809203302dc0028f9445022dc00f6443300de000a068267783302e00028b3448267785022e000ad44826b685022e2004e4182685094c8826a585022e4001245c87402d84207c8790cc8cb0b7b6b7801d39b0cd89b0adac70a7b6a40018267500195701fd8700b826a5801c8ba07d8a70cdabb0c82637001c8c303973b3b987a05d4ba0a97773b980b05d4b707c847077b675801d8470764245022e600ef41826768d87b07826ae8005022e800d44282b282bb08987705948a94876fb86f2b5022ea003c42c8a70282677001d87307826a6001c8a707983a05977c3bd4ca0a987705c8b707956c000182cb78c88a0ad88a08c88707c8a9097bc948d8a908c887077bc7409517e08473e064317b6338010182675801d8740782695001d39b08d89b09da8709826c4801d8c007826a4001d3a208d8a20ada870ad3c007d48707da790a7b347b3b087b30107b3218520a062814109567d810492720074927180749271007492708079568e01764377b6470017b6b78017b6268017b6060015020ec00d4e18263380182626801826b780182647001954401884701c87b0bd4b40788770182686001c88707d88708c8820264702860ff8267a8003300ee000a033302f000280c415022f00009414929c004959b00047bb8b8007bb7b000956880157bbaa80033075020f20003e09567d8104927a0044927980449279004647933072095686015492988045020f400e0df9517e08477e07b67980064718269b000819756173f08480940019517e08477e07b677801647183793308408267b8000a0601826a780182a71882a81082a90882aa6f7b6f806f9c6fa2826798007b72187b7c1064087b78087b7b9517e0847ae064a17b6b7895b9018897017b688000c87000d40907887701c87c0b8264f80082671001d447078268080182630001d43808d48707987720d44808978820d48707d8cb08c828087bab107ba0087ba97b6a90007ba81851070628b8277b62307b6c387b68587b6b607b60687b697095674015826810015020f600cbdd9569d81095970004827b8000827878827a708eb78e8cdbb70c7b6a30018ea77b6888007b6b2801d4b8087b67e8007b6cf0007b682001db8c0751070628da27829768047b67a00095672015826890005020f800a2df956bd81095bc000482c94882c75082c85882ca607bca207bc8187bc710956700159568e0147bc9085020fa00e3299567d81095780004828a40828b38828c30827228048ea78eb8dba7088ec7882920859901dbc709d4ab07db78098267a0008877207b671801510973037b625001956700017b7c587b7b707b7a609567d810826870957900037b98e8008268687b98f0008268607b98f8009568c0148269587b79000433075020fc0005de8269b000819756171f0e4809203302fe00281d415022fe001a41330000010a06018267a00095781fd87807826c3001c87c09d8c90ada770a826b880050220201553d8268180194c8826a2001502204011741c87402d84207c8790cc8cb0b7b6b7801d39b0cd89b0adac70a7b6a40018267500195701fd8700b826a5801c8ba07d8a70cdabb0c82637001c8c303973b3b987a05d4ba0a97773b980b05d4b707c847077b675801d84707642450220601f43d82678800d87b07826a280150220801d83e82b282bb08987705948a94876fb86f2b50220a01403ec8a70282677001d87307826a6001c8a707983a05977c3bd4ca0a987705c8b707956c000182cb78c88a0ad88a08c88707c8a9097bc948d8a908c887077bc7409517e08473e064317b6338010182675801d8740782695001d39b08d89b09da8709826c4801d8c007826a4001d3a208d8a20ada870ad3c007d48707da790a7b347b3b087b30107b32189567d818510aca01492720014927180149271001492708019568e01964377b6470017b6b78017b6268017b60600150200c01dadd8263380182626801826b780182647001954401884701c87b0bd4b40788770182686001c88707d88708c8820264702862ffd4b407987720d4b808978820d4870751070628be24492978064929700649296806140700000000a079c3089568ff07958841077b97800664a77b6ad8007b63c8007b62700150200e01f5db8268d800140a00000000010000001407fcffffff00000000d878078269c8009497826970019497520706285b248387049569ff079599d900492960064929580649294806209568ff0795882107492950067b6a7801502010019adb826a70018269c8008268d800826778019577dcd87807949794a7520706280d24838724956bff0795bbd900492b4006492b3806492b2806129568ff0795880107492b30065020120150db826ad8001407bcffffff00000000d87a078268c800948782687001948752070628c02383a7443a083000023a09380002956bff0795bbd90095ba00067ba8207ba918140800000000000064657ba8109568ff079588e106492b080650201401efda3308648267d800502016015fdd83783307013309640a070182671801857701826030018268e800db08078268f00082692001db980782632801d430028269880098983f7b6828973301980c3f979b018268a00098843f970001978a017b6a107b63207b64187b6c507b60487b6b40510709027b62e8008488e07b68f0009567d810826870957a00037ba8a8008268687ba8b0008268607ba8b800956880148269587ba9c00033075020180142da9517e08477e07b6758016471330820330750201a01a8dc50221c01f83c0a06492678012033024926700149266801330b330c330049266001826a500182a71882a81082a90882a36f776f886f9a6f336434826958017b93187b6a48017b9a107b6850017b9808647a7b97017b64400164a38267f0007b6b3801d87b07857b017b6c300194cb01956c000182c760d47007947b0182c81082c778c8780882ca08c82a0a8269f80082c770c8790982c782646801c874048267e800520b370182677801d8780bc8ba0a6427d32a027b672001d87a0cda2b0c50221e01913a51070628f321956720117b6018015020200118d8956ad81082a76082a85882a95082aa48956bd81895bc00017bc7407bc8387bc9307bca289568001a826758015020220189da8264280195440188470182625001c87202d4240788770182684801c87803d8830882674001c88707826878019589207b694001d8890a82682001c8a8097b692801d8890bdaaa0b82687001c8b800d8800b82686801c8b8087b68680182683801958b20d88b0c82693001c8c908d89809dacc09826a1801c8a909d8a90c826a6001c8ca0a7b6a60017b625001826c58017bc20850222401053b826228017b607001648c649028a4fed49807d427078269100152071f0150222601e739826928826220826b50826c408263482871016420826ba000826cf000d3cb0b826c8800d4cb0bd47b0b826350826248826c40510baf0082677801d8780bc8ba0ad30a02d80a0cda2b0c502228016e3951070628a2209567601450202a01cbd69567d810957900038298a0007b687001829898007b686801829890007b686001829788007b6750018267a00050222c018c3850202e015f3b50223001b139502032012d3b50223401393850203601213b502238016a37956bd81895bc00017bca607bc9587bc8507bc7489568201a8267580150203a01f6d8826c4082624882635001826728826820d48707d43c08826918d49209826a1095aa01956bd81895bc00017bca687bc9707bc8787bc780003307401a28ff00826700018268f800d487071408e0ffffff00000000d88908826a080194a8947852080628bc1f8398209567a01450203c01e2d5826c40826348826b508262208269289567d810957a000382a8e0007b68700182a8d8007b68680182a8d0007b68580182a7c8007b67600101826818d4bc077b675001d492077b674801d483077b6740018268a00097880350223e016539502040014b3a7b6720017b6838018267a0008a79033307ff3308ff502042010a3a50224401963850204601fe39502248019036826b10d4b707956c000182cb40d4b80882cb48d4ba0a82cb50d4b909956bd81895bc00017bc998007bcaa0007bc890007bc788003307601a01c876088267900050204a01afd79517e0847ce064c1826778957202d8720782688000c87803d88308da7708826738c88700d87007826430c874048268e000826ad000d4a8078269d800826bc800d4b909d49707987720d4a909979920d497077bc0107bc3087bc27b6cf8007bc41851070628721e7b64787b6080007b6388007b6290009567401450204c018cd49569d81095970003827b8000827a788278708eb78eacdbb70c7b68f0008e877b6ae8007b6ba000d4ba0a956800017b87187b8c207b8a30dbac0751070628dd1e829768037b670001956720148268f80050204e0162d6956bd81095bc000382c94882c75082c85882ca607bca207bc8187bc710956700149568e0137bc90850205001a3209567d81095780003828a40828b38828c30827228038ea78eb8dba7088ec7882920859901dbc709d4ab07db7809826700018877207b672801510909027b625001956700017b7c587b7b707b7a609567d81082689000957900027b98e800826888007b98f000826880007b98f8009568c0138269787b790003330750205201c2d48269b000819756171f0e4809203302540128da3750225401d737330056010a068267000133025801287c3782670001502258017537826be80050225a0115348268280194c8826a300150225c01d737c87402d84207c8790cc8cb0b7b6b7801d39b0cd89b0adac70a7b6a40018267500195701fd8700b826a5801c8ba07d8a70cdabb0c82637001c8c303973b3b987a05d4ba0a97773b980b05d4b707c847077b675801d84707642450225e01b4348267e800d87b07826aa00050226001983582b282bb08987705948a94876fb86f2b502262010035c8a70282677001d87307826a6001c8a707983a05977c3bd4ca0a987705c8b707956c000182cb78c88a0ad88a08c88707c8a9097bc948d8a908c887077bc7409517e08473e064317b6338010182675801d8740782695001d39b08d89b09da8709826c4801d8c007826a4001d3a208d8a20ada870ad3c007d48707da790a7b347b3b087b30107b32189567d818510a604927c0014927b8014927b0014927a8019568801a64377b6470017b6b78017b6268017b606001502064019bd48263380182626801826b780182647001954401884701c87b0bd4b40788770182686001c88707d88708c8820264702863ff956a000182a728857701826cf00082a818dbc80782a82082a930db980751072c02826700018477e07b6708019567d81082689000957a00027ba8a800826888007ba8b000826880007ba8b800956880138269787ba9c000330750206601a2d29517e08477e07b676001647133082033075020680108d59518e08488e07b6858016481837783893308200a06492670012049266801330349267801330b330c3309330a8267580182741882781082700882726f446f886f006f227b624801826760017b72187b6020017b70107b6850017b780864427b74016420826708017b6b3001d87b07857b017b6c280194cb017b6a58017b694001d4a907947b018267e00082687001c87808826ad80082626801c8a2028264d0007b633801c834098263c800826c7801c8c303520bb903d87807c8720bd3ab02d8ab0cda270c50226a0184337b60180151070628491a9567801150206c0172d0956ad81082a7c00082a8b80082a9b00082aaa800956bd81895bc00017bc7e0007bc8d8007bc9d0007bcac8009568a01a8267600150206e01dbd2826a180195aa0188a70182625001c87202d42a0788770182682001c87803d8830882674801c88707826870019589207b691801d8890882696801c8890b7b6b1001d89b0bda880b82683801c8b804d8840b82687801c8b8087b68780182683001958b20d88b0c82692801c8c908d89809dacc09826c4001c8c909d8c90c82605801c8c0007b625001826c60017bc20864a27bca7bc3107b6748017bc7187b632001956c000182c7187bc770640a82c7107bc7686443648c2891fe826b00018269e800d49b07826aa000d4ac08d487078262e0008263d8008268d0005207c303502270011032281904826750857701826cf000826840dbc807826848826958db98078263e800d43c0282696898983f7b684097330198c03f979b0182687898843f97cc01978a017b6a287b63387b64307b60587b6c507b6b48510737087b62e8008488e07b68f0009567ff079577d90082683001957a00047ba808826820017ba810826818017ba8189568ff079588e104826928017ba920330750207201f3cf9517e08477e07b675801647133082033075020740159d250227601a9320a06492678012033024926700149266801330b330c330049266001826a500182a71882a81082a90882a36f776f886f9a6f336434826958017b93187b6a48017b9a107b6850017b9808647a7b97017b64400164a38267f0007b6b3801d87b07857b017b6c300194cb01956c000182c760d47007947b018268f80082c778c8780882ca10c82a0a82c982c770c8790982c70882646801c874048267e800520b5d0782677801d8780bc8ba0a6427d32a027b672001d87a0cda2b0c50227801423051070628a4179567ff07957741017b60180150207a01c5cd956aff0795aad90082a7800082a87882a97082aa68956bd81095bc00077bc7407bc8387bc9307bca28956800188267580150207c0131d08264280195440188470182625001c87202d4240788770182684801c87803d8830882674001c88707826878019589207b694001d8890a82682001c8a8097b692801d8890bdaaa0b82687001c8b800d8800b82686801c8b8087b68680182683801958b20d88b0c82693001c8c908d89809dacc09826a1801c8a909d8a90c826a6001c8ca0a7b6a60017b625001826c58017bc20850227e01ad30826228017b607001648c6490289bfe826b0801826c0001d3cb0b8260e800d40b0b7b6b7801826cf000826ba000d4bc0c826b7801d4cb0b510bdc00d87807c8720bd3ab02d8ab0cda270c50228001a32f510706286c16956760135020820195cc9567d810957900028298a0007b687001829898007b686801829890007b685801829788007b6750018267000150228401562e502086012931502288017b2f50208a01f73050228c01032e50208e01eb30826b780188b98000826a3001db9a08826c3801826a4801d4ca0ada970a93b8ff93baff826b4001939b939c82675001e0a7078269580150229001122e7bba000295ba00017ba9f8007ba8f0007ba7e8009568c01a82676001502092018ace8260e8000198073f8268a000978801d48707826af00098a83f970901d49808826b000198b93f97aa01d4a90997ba0195aa01956bd81895bc00027bca087bc9107bc8187bc7203307e01a28e2008267c800d487071408e0ffffff00000000d88208943894785208062849158328209567a013502094016fcb826aa0008269e800826cf000826b00019567d8108278e0027b6870018278d8027b6868018278d0027b6858018277c8027b6760010198c73f979801d487077b67500198973f97a801d487077b67480198b73f97c801d487077b67400197b7017b67380197b80350229601e32e50209801c92f7b6718017b683001826700018a79033307ff3308ff50209a01882f50229c01362e50209e017c2f5022a001332b95bc00027bc9387bca407bc8307bc7283307001b01c876088267f8005020a20151cd956740133308405020a401a1ca9569d8108292800295980002828c78828b70828768d42b0ad4c708d4a808988820d4ca0a97aa20d4a808510806283e144929600249295802492950029568201349294802207b6778017b6b70017b6268017b6c60015020a60180cb95670013826898005020a80164cc956b000182bc7882b76882b860d47809140a00000000010000001407e0ffffff00000000d87c0782b8709487949752070628d1133302ff9568d8107b695801648982883802829730027b6a5001829a2802140bffffffff00000000d28b0bd22708d22a0a83c72049292002959c00027bca087bc8109568e0127bcb185020aa01f0ca956a000182a87882a7509577c0d8780782a970949782a9589497520706286313838740956ad810492a0002492af801492ae801609568c012492af0015020ac01aeca826778019577800082687801d8870882697001c88909826a7001d8a90ada880a82686001c88a0ad88a08826b6801c88b0b9568d810958c00017bc990007bc788008267587bc7c0008267607bc7b8008267687bc7b0008267707bc7a8007bca9800648a9567a01295688012956960127baba0015020ae014f16826b7001826378011407a0ffffff00000000d8730794b782685801948752070628a5129568d810958c000182c7c80082cad00082c9e0007b6958018280d8017b604001d83708647c7b674801d3ba09d8ba077b6a5001da9807c9ba09c9890ac93c099592e0d8920bc8ba099599ffd3a90cd8a90adacb0a82686001d88004826b6801826c5801c9bc0cc94c0cc9800bd87b08c98c0cc97b0b88b701c97c0c95bbffc8ba0ad8ba07c87c0c833760956bd8107bb268017bb970017bba7801956840127bbc80015020b0016ac98267a8000a038267c0008078107b6830018278087b68280182777b6738019568d81082675801958900017b9720826740017b9718826750017b9710826748017b97088267787b9740826780007b9738826788007b9730648b95672012956800129569e011826a90007bba28015020b20112159568d810828750018282600182834801828a580182687001d3870bd8870c648482687801d88308dab80c82696001c99a0bd89a0a82696801c99209c9a909d8cb0ac9a909c9cb0bc94707c9870a82677801c9730882677801d49a0ad4b809d4a909d4ba0a98992097aa20d4a909510906281811956c000182c9286f99979b2082ca306faa98aa20d4ba0282ca386faa97ab20989920d49b0398aa203a0b0000029564d8107b4b00013a0b0800023a0c1000023a091800027b4bf800644b7bbcf0004924e0007bb9e8007bbad8007b43d0009569c011956aa0117b42c8005020b401e7c933078268b80033090a07330870000228a310d49807d427078269f800520724015022b6017229826340826238826b58826448826c50287d016420826b78826cf000d3cb0b826c68d4cb0bd47b0b826358826250826c48510bb60082677801d8780bc8ba0ad30a02d80a0cda2b0c5022b801fb28510706282f109567ff079577c1045020ba0154c69567ff079577d900827800047b687001957900038298f8007b6868018298f0007b6860018297e8007b6750018267785022bc0112285020be01e52a5022c00137295020c201b32a5022c401bf275020c601a72a5022c801f026956bd81095bc00077bca607bc9587bc8507bc74895682018826758015020ca017cc8826c4882625082635801826740826838d48707d43c08826930d49209826a2895aa01956bd81095bc00077bca687bc9707bc8787bc7800033074018280901956b000182b70882b8d487071408e0ffffff00000000d8890882ba1094a8947852080628420f8398209567ff07957701055020cc0164c5826448826c50826b588262388263408268789567ff079577d900957a000482a9407b69700182a9387b69680182a9307b69580182a7287b67600101826a30d4b4077b675001d432077b674801d4ca0a7b6a40019789037b6978018d9980003307ff3308ff5020ce01c6297b6720017b6838018267788a79033307ff3308ff5020d00186295022d20112285020d4017a295022d6010c26826b28d4b707956c000182cb40d4b80882cb48d4ba0a82cb50d4b909956bd81095bc00077bc998007bcaa0007bc890007bc788003307601801c876088267705020d8012cc79517e08479e0649182678800957a02d87a0782689000c8780bd88b08da77088267a000c8870cd87c0782689800c887077b6c18017b9c107b6b28017b9b087b6a30017b9a7b69a0007b6720017b97189567ff079577a1048268605020da0129c49567ff079577d900957c000382cae00082cbd80082c9d00082c8c8005022dc0183275207d10d9567ff07957781047b68f8005020de01f1c39569ff079599d90095970003827bc000827ab8008278b0008eb78eacdbb70c7b6890008e877b6a98007b6b8800d4ba0a7b67687b6c707b6af000dbac0751070628f40e8297a8037b67e8009567ff07957761048268a0005020e001c0c5956bff0795bbd90095bc000382c9880082c7900082c8980082caa0007bca607bc8587bc7509567ff07957741049568ff07958821047bc9485020e201f10f9567ff079577d90095780003828a8000828b78828c70827268038ea78eb8dba7088ec7882920859901dbc709d4ab07db78098267e8008877207b67785109fa017b6250015022e4014327957a00037ba82882c8287ba83082c8187ba8389568ff079588010482c9207ba94033075020e6011dc48269b800819756171f0e4809203302e801281e275022e8011b273300ea010a06018267e80095781fd87807826c9000c87c09d8c90ada770a826b98005022ec016d2382687894c8826af0005022ee013027c87402d84207c8790cc8cb0b7b6b7801d39b0cd89b0adac70a7b6a40018267500195701fd8700b826a5801c8ba07d8a70cdabb0c82637001c8c303973b3b987a05d4ba0a97773b980b05d4b707c847077b675801d8470764245022f0010d2482679800d87b07826a88005022f201f12482b282bb08987705948a94876fb86f2b5022f4015924c8a70282677001d87307826a6001c8a707983a05977c3bd4ca0a987705c8b707956c000182cb78c88a0ad88a08c88707c8a9097bc948d8a908c887077bc7409517e08473e064317b6338010182675801d8740782695001d39b08d89b09da8709826c4801d8c007826a4001d3a208d8a20ada870ad3c007d48707da790a7b347b3b087b30107b3218510a649567d8104927c0074927b8074927b0074927a8079568801864377b6470017b6b78017b6268017b6060015020f601f4c38263380182626801826b780182647001954401884701c87b0bd4b40788770182686001c88707d88708c8820264702863ff826778857701826a9000826868dba8078268708269f000db980751076f028267e8008477e07b67f0009567ff079577d90082683001957900027b98e800826828017b98f000826818017b98f8009568ff079588c103826920017b79000333075020f801f5c19517e08477e07b675001647133082033075020fa015bc49518e08488e07b6848016481837783893308200a064926780120330c4926700149266801330b33004926580149266001826a480182a71882a81082a90882a26f736f886f9a6f296492826750017b79187b6a30017b7a107b6848017b7808643a7b7301642364a48267f0007b6b4001d87b07857b017b603801940b018267600182695801d49707947b018268f80082677801c87808826a100164c2c8ca0a8269000182677001c8790982670801826c6801c8c707520b7f01826b7801d8b80bc8ba00642ad32002d8a00cda2b0cc89c0cd89c02826b7001d8b909c89707c82707d4c809d47007d47909989920d4c707977720d497077b6428017b632001520771099567ff079577a1017b6a18015020fc0191bf956aff0795aad90082a7e00082a8d80082a9d00082aac800956bd81095bc00077bc7e0007bc8d8007bc9d0007bcac8009568a018826750015020fe01f6c18260280195000188070182624801c87202d4200788770182683001c87803d8830882672001c88707826878019589207b692801d8890a82681801c8a8097b692001d8890bdaaa0b82687001c8b804d8840b82686801c8b8087b68680182684001958b20d88b0c82693801c8c908d89809dacc09826a5801c8a909d8a90c826a6001c8ca0a7b6a60017b624801826c50017bc208640a7bc07bc31064727bc7187b633001826728017b677801826c20017b64700164807b6958012859fe8269e80082679800d4970782688800d4a808d48707826bf8005207790150220002312128d50164248263e800826bf000d33b0b826c9800d4cb0b82629000826c8800d4c20cd4cb0b510b0a01826b7801d8b80bc8ba0ad34a02d84a0cda2b0cc89c0cd89c02826b7001d8b909c89707c82707d4c809d4a707d47909989920d4c707977720d497075207da079567ff079577a10350200202febd9567ff079577d900957900028298e0007b6870018298d8007b6868018298d0007b6860018297c8007b6758018267e80050220402bb1f502006028e2250220802e02050200a025c2250220c02681f50200e025022826b780188b98000826a3001db9a08826c3801826a4801d4ca0ada970a93b8ff93baff826b4001939b939c82675801e0a7078269600150221002771f7bba95ba00ff7ba9f8007ba8f0007ba7e8009568c0188267500150201202f1bf8263e80082629000018269980098973f82688800978801d4870798283f979901d4980898393f972a01d4a909973a0195aa01956bd8187bba087bb9107bb8187bb7203307e01828ec00956a000182a70882a8d487071408e0ffffff00000000d88b0882a910949894785108af0683b8209567ff079577e10350201402d0bc826a90008269e8009567ff079577d900957b000382b820956c00017bc87082b8187bc86882b8107bc85882b7087bc7600198a73f826b980097b801d487077b67500198b73f82688800978801d487077b67480198973f97a801d487077b6740019797017b6738019798035022160240205020180226217b6718017b6830018267e8008a79033307ff3308ff50201a02e52050221c02931f50201e02d92050222002901c7bb9387bba407bb8307bb7283307001901c876088267a00050202202b2be9567d818491760491758491750491748019567ff0795778103956820195020240218be9562ff079522d90095270002827ac000827cb800827bb0008ea78ec8dba708d4ac078eb9db780952095f078227a8027b6778019577019569d81849196801887801c8b8087b978800d487077b989000887701c8c7077b979800d8c707c8a7077b97a0004929800049197849197095674019956860197b6b70017b6c68017b6a60015020260208be9517e08477e07b6750016471956aff0795aad9008267600195ab00027bb760826768017bb758826770017bb7509567ff07957741039568ff0795882103826978017bb948502028020f149568ff079588d900958b000282b7a0007b67780182b798007b67580182b790007b67680182b788007b67700182b77882bc800082b96882ba70826850017b87107b8c187b897b8a089567ff079577010350202a02f1bc9567ff079577d900957900028298287b6830018298307b6828018298387b6820016479826a700198a73d826b680197b803d487077b67600198b73d826b580197b803d487077b676801829740027b67180198b73d82687801978803d487077b67580197aa037b6a78018267d0000a03826960018e97826c780188c80001858a01db970a826b58018eb7826968018e98dbb70864b7826be00082b308d4790981b210db980a7b6a480182b86f379779206f2a98aa20d49a0a7b6a40019877206f8b97b920d479087b68380198bb207b6b68018dc980007b69100164a750202c028a1e7b6758017b680001826770018a79037b69600182676801330850202e02911e7b68f80082685801d487077b677001826778018379807b690801826740018268380150203002691e82697801889b80007b6b5801826a7001dbba07826a6801da9a077b67700182670001826af800d4a707dab80793977b67680182674001826838018269600150203202251e64898268580193879389826a48018268680194a87b6868018268700194a87b68700194a97b69400194a77b6738013307ff3308ff8269080150203402e71d7b6700017b6808018267800033088269600150203602cf1d7b67f0007b68f8003307ff3308ff8269100150203802911d826af000d47a0a8269580182670001da970a82677801826b8000da7b0a7b6a1001826af800d48a0a82680801da980a937a7b6a78013307ff3308ff8269600150203a02721d8269580193979398826978018599ff826a100185aaff8588ff8577ff826c480194caff94c9ff94c7ff94c8ff826b1801d2b909826b2001d2ba0a826b2801d2b808826b3001d2b707826b7001d4ba0a826b6801d4b909826b3801d4b707826b4001d4b808956bd8187bb8b0007bb7a8007bb9c0007bbab800956880198267500150203c02c3ba9567ff079577e10233084050203e020fb89567ff079577d900957900028298207b6870018298187b6868018298107b6860018298087b6878018267d0000a038269e00082970881981082996f7a97a7206f88988820d4780298aa206f98978920d4a9099888203a0a4000029567ff079577d9007b7a00023a0a4800023a0b5000023a0c5800027b7af801957a00017babf0004927e0017bace8007ba8d8007ba9d0009569ff079599c102956aff0795aaa1027b72c80133073308502040026cba8267d0000a038268e0008087107b6750018287087b67480182877b6758018267a8009568ff079588d900958900017b9780008267b0007b97788267c8007b97708267d8007b9768826770017b97a000826768017b979800826760017b979000648a9567ff07957781029568ff07958861029569ff0795994102826b78017bab880150204202710c956b000182ba6064a982b770d4a70782ba6882b878d4a808d47808988820d4a707977720d4870752077c64a09564ff079544d900954b000182b7b00082b8c0007b6840018243a80182bab800d3970bd8970c82627801d82308dab80cc90a0bc9cb04d8cb0b7b6b3801d80a0a826c7001826b4001c9cb0cc9ac0c826a3801c9ac0cc99707c98707c92308d4c707d4480ad47a0ad4470798aa20977720d4a7075107490200330870000283883307012812838833070133090a07330870000228f233090a07330870000228e7330870000228e0330870000228d9330870000228d2330870000228cb330870000228c4330870000228bd330870000228b6330870000228af330870000283883307010a073308700002289c330870000228953308700002288e491938491930491928140700000000717b484e956800117b9740330750204402cdb69568d8104918204918184918084164893307049568e0104919103300480228a9b6492998004929900049298800140700000000717b484e956860117b97a00033075020460286b69568d81049288000491878491868416489330704956840114919705020480265b68267b000817756173f0c8268b000480840013307013309248268b8000a0701491958491950491948140700000000717b484e9568ff07958821017b9760330750204a0220b69568ff079588d9004918404918384918284164893307049568ff07958801014919303300500228f4b54929b8004929b0004929a800140700000000717b484e9568ff07958881017b97c000330750204c02cdb59568ff079588d9004928a00049289800492888004164893307049568ff07958861014929900033005002289db5492218014922100149220801140700000000717b484e9568ff079588e1017b272001330750204e0276b59568ff079588d900492800014928f8004928e8004164893307049568ff079588c1014929f000502050024ab58267b800817756173f0c8268b800480840013307013309248268c0000a0701826748016f79979720826a50016faa98aa20d47a02826758016f7a97ab20989920d4b90998aa203a0b0000029563ff079533d9007b3b60013a0b0800023a0c1000023a071800027b3b5801953b00017bbc50492340017bb7487bba387bb9309569ff0795992102956aff0795aa01027b322801826778015020520280b633078268c0002855fd9511a07b10587b15507b16489515608411f0828910828c08828b82881897923f98ca01d42a02978a3f989901d49a0a97cc3f98b901d49c0c98830184bb019ab888b60184c97fd2a804d2280adbbc09d2380b88982094a8d4b40c94c8ab86167b797b7a087b74107b7b18502254028817320050225602e3165020580227b4491118491110490122330704641849110850205a0210b4390864000256183f0b200364000240013308700002838833070133092433005c020a0701951120fe7b10d8017b15d0017b16c8019515e0018411e064167b67108297107b67980082977b6780008297187b6790008297087b678800828718828910828a0882887b67707b67b8017b69687b69b0017b6a607b6aa8017b68387b68a001956780019568a00150205e0272b4956b000182b7980082b8900082b9880082ba80007b67307bb7587b68287bb8507b69207bb94895676001956840017b6a787bba4050206002a7fe826780008268900082698800d48909826a9800d4a708d49808988820d4a909979920d4980852084c03956c000182cb7882c97082c86882ca607b6a407bca207b68507bc8287b69487bc930956820017b6b587bcb3850206202ebb2826a7884a7015207a4008267900082689800d487071408e0ffffff00000000826b8000d88b0882698800949894785108e80284a800ff83b720826a207b6aa8007b68a0008268287b68b0009568a000826a307b6ab800502064028fb2330033033302826748826840d48707826858826950d49808d4870782688000958a20d88a0882698800c8890bd89b09da880982689800c8980cd88c0882699000c898087b68388e77977405281e02826738956900017b978267607b97088267687b9710956800018267707b97183307502066021ab29517e08477e07b67306471390864000256181f0b200364000220019517e08479e07b697864913307700002837783993308200a06330c330033033302826780009578207b6828d8780782688800c878097b6920d88908da770882679800c878087b6818d8780782689000c887077b6738826a7882a71882a81082a90882aa6f776f8b6f946fa9826830649a7b891864497b69607b89107b6b707b8b0864797b87017b6a687b6978826740d87c07826950d3900ad89009daa709826b48d8b307826a5864c4d3a20cd8a20adac70ad3b307d4c707da790a510a14019567e0007b6298007b6390007b6088007b6480005020680218b282682882678000c88707d88708826b2082698800c8b909c88909d3b90ad8b90bdaa80b826a1882689000c8a808d8a802826c38826a9800c8ac0cc82c0ac88b0bd88b08c8a808d49808d4b709d48909d4b808989920978820d498085208f6008269f8008268f000826ae800826be0007b6bc0007b6ac8007b68d0009568c0007b69d80050206a029db0826c7895cc0188c701826a70c87a0ad4ac07887701826860c87803d88308826768c8870782688000958420d8840982688800c89800d8800bda990b82689000c88b0bd88b0982629800c892027b6a708268307b8a0864c97b8c643c7b8c10647a7b87187b6c60644c64b328bafe826a28826b20826c1801c84a07d8a708c80b09c88909d3b90ad8b90bdaa80bc83c08c88b0bd88b0ad8c808826c38c82c0cc8c808c8a808826a107ba77ba9087bab107ba818955120fe8210d8018215d0018216c8019511e0013200009511907b10687b15609515708411f0827a1882791082738277088eab8e9cdbab0c8e72883ba085bb01db720bd4a908db8c0b520b41953860d8380bc8b70cd87c07dabb07c89707d89709c8a9097b18407b1c487b1750330740c871087b195850206c026faf955190821068821560951170320050226e0211125020700255af4911184911104901413307046418491108502072023eaf390864000256183f0b2003640002400133087000028388330701330924330074020a0701951170ff7b1088007b1580007b1678951590008411f064728289827408828c088273959a1fd89a00c80c0984aae07b1308c8a303d8a30bc8490ac8ba0ad39a06d89a07da6b07822b18d8c90c828610822210828818da000cc86c0cd86c06c82c09c89707d8c90cd89709c8b808c86808c8c808c8980c8ec88e79dbc809d4c7088ea6db8906520657821808d88308d34a09d84a06da9806d82708d3bc09d8bc0bda980bd32708d49808da860b520b307b13507b1a587b17603307409518507b1c685020760253ae955170ff8210880082158000821678951190003200491140491138491130140700000000717b484e9518307b17483307502078021dae4911284911204911104133070495181049111850207a0204ae390864000256183f0b200364000240013308700002838833070133092433007c020a0701951110ff7b10e8007b15e0007b16d8009515f0008411f0828c10828b18828a0882887b1a287b1b18d4ab0bd4c80ad4ba0a98aa207b1c20d4cb0b97bb20d4ba0a520af7017b17088297187b17688296108297087b176082977b17589517b0007b181050207e023eac821758d46709821868821a60d4a808d489099899207b1650d46808978820d498085208ae018219c800821ac000821bb8008218b0007b18307b1890007b1b387b1b98007b1a407b1aa000951890007b19487b19a8006476502080021bad821768821850d478081407e0ffffff00000000d87609821a6094a9948951095501821820821918d49808821910d87907821a2894a7948751073b01646c821630821a40d4a607821848821b38d4b808d48707987720d4a808978820d487075207140183c7208398207b182864685020820225af7b172082172864685020840217af6478821720646950208602ceaa821758c86707d86708821960821b38c8b909c88909d3b90ad8b90bdaa80b821850821a40c8a808d8a80a821c68821648c86c0cc8ca0ac88b0bd88b08c8a808d4b808140ae0ffffff00000000d8a70a949a948a510a91008377204921880049218000491178951870491170502088021cac82163095661f1407e0ffffff01000000d26707821858c88707d88708821a60c88a09d8a90ada880a821850c88a0ad88a08821b68c8b808957b20d87b07c8790cd89c09da7709c8a909d8a907c887078218087b8b7b8c087b89107b8718955110ff8210e8008215e0008216d8009511f0003200009511d0fd951a00027ba0287ba5207ba618951530028411f0828610828a18828c08828b7b1a487b1c68d4ac08d46b0ad48a0a98aa207b1638d46808978820d4a80852081a037b17188297187b17408296108297087b175882977b176049210802492100024921f8019518f0014921f001207b1b5064b750208a022cab821860d46807821940821a58d4a909d497079877207b1628d46909979920d497075207be029517d00150208c02c3a9821748821938d479091406e0ffffff00000000821b50d86b0782186894877b1930949751078d028217e0018218d8018219d001977720987a2083b7204921c8017b19b0017b18b8019518b0017b1ac00150208e02a7aa821740821a28d47a0a821860d8680782195894977b1a4094a751074102838820951790015020900243a91407c0ffffff000000008219507b1728d8790782186894878218309487510713028217a8017b178217a0017b1708821798017b1710821790017b172083974049218801492180014921700160951870014921780164965020920221aa95678000d86708821a68c88a09d8a90ada880a821638c86a0ad86a08821b48c88b0b7b1918017b17100182177b1748018217087b1740018217107b1738018217207b1730017b1a20019517500195183001951910017b1b280150209402e8fb821860821728d878078219589497821940949751076201821768017b1720821760017b1728821758017b1740821750017b17588388409517f0005020960248a81407a0ffffff00000000821250d87207821a6894a7821830948751071b01821708017b1760821758d82708647b821c40d3ac09d8ac07da9807c9ac09c9890ac92b099593e0d8930bc8ba099599ffd3a90cd8a90adacb0a821b00017b1b68821b28c96b08d86b0c821648821b20c96b06c9c606d8780cc9c606821bf8007b1b38c9780b88b701c976068217f0007b174895bbffc8ba0ad8ba07c876068327607b13d0007b19d8007b1ae0009518d0007b16e80050209802c9a88217207b1788008217287b1780008217407b17788217587b17708217607b17a8008217687b17a0008217387b1798009517b00095189000951970821a487b1a900050209a02a8fa8217c0008218c8008219b000821ab800821b187bb7107bb8187bb97bba089551d0fd9517000282702882752082761895113002320000951100ff7b10f8007b15f0007b16e800951500018411e064167b671882877b67288287087b67208287107b67308287187b67384926d8004926d0004926c8004926c000019567a0009568c00050209c02eca88267b8008262a0008269b000826aa800826838d3870bd87808826730d8970cdbb80c826820d38a03d8a80a826828d82808db3a08d39707d4b707db7c085108c30049165849165049164895684049164001330750209e02a1a7390864000256181f0b200364000220019517e08479e07b691064913307700002837783993308200a06826a1082a782a80882a91882aa106f726f886f996faa826b20c8ab0b826328c89303d89309c89b0bd3ab07d8ab0ada790a826730c88707c87a0ad87a09826c38c8c202d88707c82707c8970782681833094918384918304918284918207b837b8b087b8a107b8718955100ff8210f8008215f0008216e800951100013200492690004926880049268000140700000000717b484e956880007b67980033075020a002d4a6491678491670491660323307049568604916685020a202bba6390864000256183f0b20036400024001330870000283883307013309243300a4020a0701951140fe7b10b8017b15b0017b16a8019515c0018411e08280829b088284088296950a1fd80a02c8240c7b1630d86a03d3bc0a7b1b40d8bc0bdaa30b828610d84c0ada220a829c18828218829310c86a0ad86a08c82808d3c8097b1c20d9c808d83a0cda9c08d33a0ad4a909db980b510bed027b17187b1328d460077b14507b1238d42408d487079877207b1648d46808978820d487075207c4027b10608308831780017b18100a010182199801821a9001821b88018e978ea8db97087b1990007b1a8800d49a077b1b98008eb9db78095209920282168001951760013308405020a60277a482127801821c70017b1c78821368017b138000821460017b147095671f7b1658d8670882199800c898088488018477e0957920d87907c8780ad88a0bda770b492138017b19200164267b1258017b1c50017b1348017b1440017b1a280195174001951820017b1b30015020a8022ef68219707b166882188000d46807821a78d4a908d47808988820d4a707977720d487075207e4018216587b160001821798007b170801821788007b17100195180001821790007b17180164975020aa02f1a4821760c8670ad87a0982145082179800c84707c89707d3470bd84708dab90882104882198800c8090995ac20d8ac02c8270b821a30d8ca0c821a40d3ab06d8ba0adb6a0cd8090a82133882169000c83606c86a0ac89808d89809c8a909d87b07da2207c88707d88708c89808821a20d3a809d88a08821b28d87b0ada9a08d3b707d49707db780c821a9800520c9c01d430071408e0ffffff00000000821960d889089448947851080f0182198800821c58d49c0782189000d4a808d48707987720d49808978820d4870782167082198000821a78821b685207de00d4ba071408e0ffffff000000007b1860d88608949894785108c3008217108377207b175083672064c864c65020ac0262a6837783688219500a01821270c86207d8270882199800821b8000c8b909c88909d3b90ad8b90bdaa80b82188800821a78c8a808d8a80a821c9000821668c86c0cc8ca0ac88b0bd88b08c8a808d4b808821a60d8a70a949a948a510a5064268377204921f8004921f0004921e8009518e0004921e0005020ae026aa38217188218687b78188218787b7810821880007b78087b76955140fe8210b8018215b0018216a8019511c001320000330870000228724921d0004921c8004921c000140700000000717b484e9518c0007b17d80033075020b0020ea34921b8004921b0004921a000413307049518a0004921a8005020b202f0a2390864000256183f0b20036400024001330870000283883307013309240a0733087000022808330870000201838833070133093300b4020a07019511a0fe7b1058017b1550017b164801951560018411e08289828618828c088288109592fc7b1930d89209c89c0a95aaffd3ca0b7b1c20d8ca0cdab90c9589ffc89c0cd89c097b1828888b017b1638c9b60bc8b9098f9b8ec6db9b06d4c9098eab882840858801dbab08db9608510835016476831700013308043300b6020a0101821718018218100182190801d4780a889b0194ab510b1401821a00015022b802ba037b17a0008217207b17a8007b1bc0008217287b17b0008217387b17b8007b1cc8007b19d0009517e0009518c0009519a0007b1ad8005020ba0247fb8217f8007b17108217f0007b178217e8007b17188217e0007b1708831720013308243300bc020a0101821738018218300182192801d4780a889b0194ab510b9500821a20015022be0234037b17408217207b17487b1b608217287b17508217387b17587b1c687b1970951780009518609519407b1a785020c002cbfa821790008218980082198000821a88007b67307b68387b69207b6a2882177b67108217107b67188217087b678217187b67089551a0fe8210580182155001821648019511600132003308700002280f33087000022808330870000201838833070133090a0733073300c202289da333075020c20298a33307015020c4028fa3826b780188b98000826a1801db9a07826c2001826a3001d4ca0ada980a93b7ff93baff939c826b2801939b82685801e0a80882696001e0790782696801e0b909826a7001e0ca0a956c000182cb38d4b70782cb40d4b80882cb48d4ba0a82cb50d4b909956bd8183202c8ba0a7b6a480197aa3b989b05d4ab0b8267680182731897993b827a10988805d498076f346fa93202826b780188b98000826a3001db9a08826c3801826a4801d4ca0ada970a93b8ff93baff826b4001939b939c82675001e0a70782696001e0890882696801e0c909826a7001e0ba0a3202826b780188b98000826a2001db9a07826c2801826a3801d4ca0ada980a93b7ff93baff939c826b3001939b82685801e0a80882696001e0790782696801e0b909826a7001e0ca0a32028269e00082970881981082996f77977a206f88988820d48a0a9877206f98978920d497079888209569ff079599d90032027b6738017b68400182673001d487077b673001826778019579803307ff3308ff3202c8790bc8ab0bd39b0a7b6b5001d89b09daa709826b4801320297773b9878387b6878019a8980003307ff3308ff3202e0890882696801e0c909826a7001e0ba0a956bd81832028269c00082970881981082996f77977a206f88988820d48a0a9877206f98978920d497079888209569d8103202c8b707c88a0ad88a0cc8c70782604001c8a000d8a00a3202c89c0cd89c0b82677001d87909c89407c8b707d4c809d4a707d47909989920d4c707977720d497077b6328013202c89c0cd89c0b82677001d87909c89407c8b707d4c809d4a707d47909989920d4c707977720d497073202492660014926580149266801492670013202c8a70798ba05977b3bd4ba0a826b6801320295ab04d8ab0ac8a90cd89c09daaa09c88909d88908c8870a8217303202c89c0cd89c0ad84909c89307c8a707d4c809d4b707d47909989920d4c707977720d4970732027b6748017b6830013307ff3308ff8269780132027b6730017b68280182682001d487077b672001826778018379803307ff3308ff32027b6728017b68200182681801d487077b671801826778018379803307ff3308ff3202956c00017bc9107bca08d4a907d4b809d479099899207bcbd4b707977720d497073202826a780182a71882a81082a90882aa6f776f886f996faa3202644a7bc47bc31064747bc7187b634801826740017b67780132029517e08479e07b697801649132027b6878018d8980003307ff3308ff3202491130491128491120140700000000717b484e9518207b1738330732029518e08488e07b685001648183778389330820320295781fd87807826cf000c87c09d8c90ada770a32027b6c5801956c00017bcb707bca609567ff079577d90082c83032029517e08477e07b676801647183793308208267c00032029517e08477e07b676801647183793308208267b80032023307d810c8760a95ab000632029551a0821058821550821648951160320294a8948b94873202849a40520a195109148d9a40cfa80ad09808d09707d4a707320032009597c0d0780733083200849a40520a195109148d9a40d0a70acf9707cf9808d4a808320032009598c0cf87083307320049922425494b2a252da9944c4949214225a952484992244992244992244992244992244992244992244992244992244992244992542529a524292949a84a494a922449922449922449922449922449922449922449929224294955494a922849254955924249929294a4aa2a494952924a922222222549929224a9a8945292a4945292545244449424094248184a93d29008499224524292a4499224a1940a1118a2260a551a1111912222484408112211a511810404041211119192902449922812912222128944448488081111111191244912499224892222222222224244918888888888888888a414091191884424229184888888882449924422894492481295224922112122121121222222442222128948241211118a9288a28a88888844444884522322221a111191248922116944049024954444924821221211922844421242a548525114452429424444442491249248440411111111a24892244992241111414444844888888888882492441289888888888810492412492491149124492211111111112112222222492249124944444444448488480001242a49448888089148249248229122222422122249524a228948a4488a44522449924824222242444444444444444444848888488a24924892489224491289888848494892244914894823228024924a222222091111111111111111112192244992241111112192041040924a22111111224492a4944412918810112222918814222211218942242421548a245545241289222112894422491422422449922449222280241111112112222222222289249144222222222222444444249144522449924894884822122249000124a9241211111111112112222222222289249144222222222222444444249144522449924824119144244492a49444228a44221222212222222222222222222222224492244992a4888888244912894822499224495224118a4a444444342222922451444444041189124912914824421451248848220511112522082109221241a844140922222222888848221244111149922489882222808822228824092080a4924444848888209224a9241111212288049094928410111111412212484444441409222292245144444444041191489224499224218a2812444444444144449488084248828844102a114582888888880822222289880411111191242222222222222282884624912409222222228200028844519288888888888888228848a22809201211111111111109228a041149440a2222a24444904451641295289254144511498a882022922412918888202212918888888888202992481249241289248a8820222222822422828888884a944892249188041111111149444482888888a8942449924410499288a4208a4482289104095282248924114924892449924841124149559048244912499224498a9148128924494a9244444414111144442449224989281244444414444494882089a2c8242ad148525524a5a42491241189489224498a2449924404119154a2884444928888202249924424884812959224918888249188442212055124124423892411441124492489482249244992440a22119454058944922491244992a4188924914892a4241111115144441011912489242549924444001151440411400089a22411112122228888482a49444488882002481425092122920012114122286924221189449224922449129188442412912848a214048522aa8824551589446a149144224992249222119194488224228824894892882092481249241289441249242289249144222241442589089224292291248948920449041111111111110441100441449244044926499244248948440248549208922411111111119348242241101149822008924892242222222682a424912449129188244992224922228288482a5144224992888820224992442488481295922491888824111111119128882291208a480411441124492489482249244992440a22119454058944922491244992a4188924914892a42491888828222288884892449212492449221211111111912848a2142451a510455524a92a2291482d2289442411894844221249922092082222222222222288249244128944229144128948224924918854221149492522914444044922491249922449922489484444241289881424510a824211554492aa8a4422358a4822912492a4249188484a244112114144248948928820924812492412894412492422892491442222414425229188482492244112414444444444044110044144242249a2221144444444101349248924494492442201a492441011111111111193449248128904414424098220882489892012444492244992444484888820228824092080a492441411114092442491209224a524111122828848249248221111894422114544041101a42889888888489144922449924844922449922422222288229128222291482489448a8888202222222992482249924422499224919292942421228410454444440445852411419224259224494492244822828888888888481004411004114912112499244912912422911240524922822449222291482426914824220922922408822089244922222262122445124922894422514422124444444410111144444454a28824912422228288888848121191202222894a499248228248924424055124124423892411a40892249244249124922449220591084aaa824422499248922449528c449248244952924444441411114444244922494922492422111111111111110549948224aa148aa8884852559148a45644128948221225221189484a9244922449121111114444444444444404914492482291482492482211492489241211a99488882812914822821491484412912449224992248988202222222222220882200822221149121589a088888820622492244992489248a4049054242288888844922499482291449248240822224910044192c44410492222828888884a4a442422894412494412111141124544241289888804111111111191482229114144241289229144228988441289288a48a228459244a5245212898882884844414422121141444422119114111114155144511449041151041149049188442422912289202a12492249229148241289442222222288481011894422114552294949424484102222222222222a8822912822222212894444441411111111444a9224495244444444124992484412499224496228950a5528140a8542a150289442a1509200220591448944222280888288448904514426d1240144a420228912914844041011051111a14444242202888882888850222288223289468992284942448410221249222222822249922425499224494992a494920405419294204430944423222225512412494a24128988202222922489488288482449129124499244122411910022511149442212419524492289249144529228492229485288609242a5aa4812491249224992aa524a929a244992a4244922222282449248922492449224499244444444440449922449124924892492a44a4925c924499224499292444444932449a994244992244992244192140449528210c150128d88442a29499224499224499224492a2949922449922449124444a2240124054924094204434934222292a42449922492242991204992244944442412894814240920a94892a4a22449922491a420292805499224499224499204908a44240992009224499224499224294944443422492449499224492449522222420a922449924404490248528a8848121111419224a5480401244929a24824928810511049922449449148242222224892524422914822082049292249499224499244922449124912499244444490482449229188482288884852229244232222a52449121121228888489224499224912451102298a4502925a94a9224499224495292942422228a8800220a92481284088692684444a4a424499224499224499224922449922452a4115189489488481091884892489224892822222222482249922412111111519024912449244992244924499224499224894800494524912449228904905424490595934424492249244992a4522222224892448a888886222280888288908820443094140a4bd1888848499224499224495249491245a2119114114422128988888820124522916844244504499224492409222292a4242989888842a1b05491820411918824298a44229148922489124922495245442292242a1289448a88442449512412891449a524258928221291a4249144494452229128924a494a12254924259124499244492449922445449424519224494a92244992229228221291a488484492224992921449aaaa5222a2242a22294900492551a52492149144a4242a51129528122549aa4a9224a9a49224492a2900"},"methodIdentifiers":{"consumerList(uint256)":"15baa8c0","consumers(address)":"0bf53668","getConsumerProfile(address)":"13214d1e","registerAsConsumer(string,string)":"4d70a913","updateConsumerProfile(string,string)":"a8d4ea14"}},"hash":"982da4e55a21a926ed01a0bb450a415076ffac8c538589c5b08f3dedcdb58434","factoryDependencies":{}}}}